{
  "_format": "hh-sol-artifact-1",
  "contractName": "ChainStorageContainer",
  "sourceName": "contracts/L1/rollup/ChainStorageContainer.sol",
  "abi": [
    {
      "inputs": [
        {
          "internalType": "address",
          "name": "_libAddressManager",
          "type": "address"
        },
        {
          "internalType": "string",
          "name": "_owner",
          "type": "string"
        }
      ],
      "stateMutability": "nonpayable",
      "type": "constructor"
    },
    {
      "inputs": [
        {
          "internalType": "uint256",
          "name": "_index",
          "type": "uint256"
        },
        {
          "internalType": "bytes27",
          "name": "_globalMetadata",
          "type": "bytes27"
        }
      ],
      "name": "deleteElementsAfterInclusive",
      "outputs": [],
      "stateMutability": "nonpayable",
      "type": "function"
    },
    {
      "inputs": [
        {
          "internalType": "uint256",
          "name": "_index",
          "type": "uint256"
        }
      ],
      "name": "deleteElementsAfterInclusive",
      "outputs": [],
      "stateMutability": "nonpayable",
      "type": "function"
    },
    {
      "inputs": [
        {
          "internalType": "uint256",
          "name": "_index",
          "type": "uint256"
        }
      ],
      "name": "get",
      "outputs": [
        {
          "internalType": "bytes32",
          "name": "",
          "type": "bytes32"
        }
      ],
      "stateMutability": "view",
      "type": "function"
    },
    {
      "inputs": [],
      "name": "getGlobalMetadata",
      "outputs": [
        {
          "internalType": "bytes27",
          "name": "",
          "type": "bytes27"
        }
      ],
      "stateMutability": "view",
      "type": "function"
    },
    {
      "inputs": [],
      "name": "length",
      "outputs": [
        {
          "internalType": "uint256",
          "name": "",
          "type": "uint256"
        }
      ],
      "stateMutability": "view",
      "type": "function"
    },
    {
      "inputs": [],
      "name": "libAddressManager",
      "outputs": [
        {
          "internalType": "contract Lib_AddressManager",
          "name": "",
          "type": "address"
        }
      ],
      "stateMutability": "view",
      "type": "function"
    },
    {
      "inputs": [],
      "name": "owner",
      "outputs": [
        {
          "internalType": "string",
          "name": "",
          "type": "string"
        }
      ],
      "stateMutability": "view",
      "type": "function"
    },
    {
      "inputs": [
        {
          "internalType": "bytes32",
          "name": "_object",
          "type": "bytes32"
        },
        {
          "internalType": "bytes27",
          "name": "_globalMetadata",
          "type": "bytes27"
        }
      ],
      "name": "push",
      "outputs": [],
      "stateMutability": "nonpayable",
      "type": "function"
    },
    {
      "inputs": [
        {
          "internalType": "bytes32",
          "name": "_object",
          "type": "bytes32"
        }
      ],
      "name": "push",
      "outputs": [],
      "stateMutability": "nonpayable",
      "type": "function"
    },
    {
      "inputs": [
        {
          "internalType": "string",
          "name": "_name",
          "type": "string"
        }
      ],
      "name": "resolve",
      "outputs": [
        {
          "internalType": "address",
          "name": "",
          "type": "address"
        }
      ],
      "stateMutability": "view",
      "type": "function"
    },
    {
      "inputs": [
        {
          "internalType": "bytes27",
          "name": "_globalMetadata",
          "type": "bytes27"
        }
      ],
      "name": "setGlobalMetadata",
      "outputs": [],
      "stateMutability": "nonpayable",
      "type": "function"
    },
    {
      "inputs": [
        {
          "components": [
            {
              "internalType": "uint256",
              "name": "batchIndex",
              "type": "uint256"
            },
            {
              "internalType": "bytes32",
              "name": "batchRoot",
              "type": "bytes32"
            },
            {
              "internalType": "uint256",
              "name": "batchSize",
              "type": "uint256"
            },
            {
              "internalType": "uint256",
              "name": "prevTotalElements",
              "type": "uint256"
            },
            {
              "internalType": "bytes",
              "name": "extraData",
              "type": "bytes"
            }
          ],
          "internalType": "struct Lib_OVMCodec.ChainBatchHeader",
          "name": "_batchHeader",
          "type": "tuple"
        }
      ],
      "name": "setSavedHash",
      "outputs": [],
      "stateMutability": "nonpayable",
      "type": "function"
    }
  ],
  "bytecode": "0x60806040523480156200001157600080fd5b5060405162001c9b38038062001c9b83398181016040528101906200003791906200028b565b81806000806101000a81548173ffffffffffffffffffffffffffffffffffffffff021916908373ffffffffffffffffffffffffffffffffffffffff1602179055505080600190816200008a91906200053c565b50505062000623565b6000604051905090565b600080fd5b600080fd5b600073ffffffffffffffffffffffffffffffffffffffff82169050919050565b6000620000d482620000a7565b9050919050565b620000e681620000c7565b8114620000f257600080fd5b50565b6000815190506200010681620000db565b92915050565b600080fd5b600080fd5b6000601f19601f8301169050919050565b7f4e487b7100000000000000000000000000000000000000000000000000000000600052604160045260246000fd5b620001618262000116565b810181811067ffffffffffffffff8211171562000183576200018262000127565b5b80604052505050565b60006200019862000093565b9050620001a6828262000156565b919050565b600067ffffffffffffffff821115620001c957620001c862000127565b5b620001d48262000116565b9050602081019050919050565b60005b8381101562000201578082015181840152602081019050620001e4565b60008484015250505050565b6000620002246200021e84620001ab565b6200018c565b90508281526020810184848401111562000243576200024262000111565b5b62000250848285620001e1565b509392505050565b600082601f83011262000270576200026f6200010c565b5b8151620002828482602086016200020d565b91505092915050565b60008060408385031215620002a557620002a46200009d565b5b6000620002b585828601620000f5565b925050602083015167ffffffffffffffff811115620002d957620002d8620000a2565b5b620002e78582860162000258565b9150509250929050565b600081519050919050565b7f4e487b7100000000000000000000000000000000000000000000000000000000600052602260045260246000fd5b600060028204905060018216806200034457607f821691505b6020821081036200035a5762000359620002fc565b5b50919050565b60008190508160005260206000209050919050565b60006020601f8301049050919050565b600082821b905092915050565b600060088302620003c47fffffffffffffffffffffffffffffffffffffffffffffffffffffffffffffffff8262000385565b620003d0868362000385565b95508019841693508086168417925050509392505050565b6000819050919050565b6000819050919050565b60006200041d620004176200041184620003e8565b620003f2565b620003e8565b9050919050565b6000819050919050565b6200043983620003fc565b62000451620004488262000424565b84845462000392565b825550505050565b600090565b6200046862000459565b620004758184846200042e565b505050565b5b818110156200049d57620004916000826200045e565b6001810190506200047b565b5050565b601f821115620004ec57620004b68162000360565b620004c18462000375565b81016020851015620004d1578190505b620004e9620004e08562000375565b8301826200047a565b50505b505050565b600082821c905092915050565b60006200051160001984600802620004f1565b1980831691505092915050565b60006200052c8383620004fe565b9150826002028217905092915050565b6200054782620002f1565b67ffffffffffffffff81111562000563576200056262000127565b5b6200056f82546200032b565b6200057c828285620004a1565b600060209050601f831160018114620005b457600084156200059f578287015190505b620005ab85826200051e565b8655506200061b565b601f198416620005c48662000360565b60005b82811015620005ee57848901518255600182019150602085019450602081019050620005c7565b868310156200060e57848901516200060a601f891682620004fe565b8355505b6001600288020188555050505b505050505050565b61166880620006336000396000f3fe608060405234801561001057600080fd5b50600436106100b45760003560e01c8063461a447811610071578063461a4478146101655780634651d91e146101955780638da5cb5b146101b15780639507d39a146101cf578063b298e36b146101ff578063ccf8f9691461021b576100b4565b8063167fd681146100b95780631f7b6d32146100d55780632015276c146100f357806329061de21461010f578063299ca4781461012b5780633d16057214610149575b600080fd5b6100d360048036038101906100ce9190610d10565b610239565b005b6100dd610353565b6040516100ea9190610d5f565b60405180910390f35b61010d60048036038101906101089190610db0565b61036b565b005b61012960048036038101906101249190610df0565b610485565b005b61013361059c565b6040516101409190610e9c565b60405180910390f35b610163600480360381019061015e91906110af565b6105c0565b005b61017f600480360381019061017a9190611199565b6105d2565b60405161018c9190611203565b60405180910390f35b6101af60048036038101906101aa919061121e565b610676565b005b6101b961078d565b6040516101c691906112ca565b60405180910390f35b6101e960048036038101906101e4919061121e565b61081b565b6040516101f691906112fb565b60405180910390f35b61021960048036038101906102149190611316565b610827565b005b61022361093e565b6040516102309190611352565b60405180910390f35b6102cc600180546102499061139c565b80601f01602080910402602001604051908101604052809291908181526020018280546102759061139c565b80156102c25780601f10610297576101008083540402835291602001916102c2565b820191906000526020600020905b8154815290600101906020018083116102a557829003601f168201915b50505050506105d2565b73ffffffffffffffffffffffffffffffffffffffff163373ffffffffffffffffffffffffffffffffffffffff1614610339576040517f08c379a00000000000000000000000000000000000000000000000000000000081526004016103309061143f565b60405180910390fd5b61034f8282600261094f9092919063ffffffff16565b5050565b600061035f60026109ff565b64ffffffffff16905090565b6103fe6001805461037b9061139c565b80601f01602080910402602001604051908101604052809291908181526020018280546103a79061139c565b80156103f45780601f106103c9576101008083540402835291602001916103f4565b820191906000526020600020905b8154815290600101906020018083116103d757829003601f168201915b50505050506105d2565b73ffffffffffffffffffffffffffffffffffffffff163373ffffffffffffffffffffffffffffffffffffffff161461046b576040517f08c379a00000000000000000000000000000000000000000000000000000000081526004016104629061143f565b60405180910390fd5b61048182826002610a1a9092919063ffffffff16565b5050565b610518600180546104959061139c565b80601f01602080910402602001604051908101604052809291908181526020018280546104c19061139c565b801561050e5780601f106104e35761010080835404028352916020019161050e565b820191906000526020600020905b8154815290600101906020018083116104f157829003601f168201915b50505050506105d2565b73ffffffffffffffffffffffffffffffffffffffff163373ffffffffffffffffffffffffffffffffffffffff1614610585576040517f08c379a000000000000000000000000000000000000000000000000000000000815260040161057c9061143f565b60405180910390fd5b610599816002610aa590919063ffffffff16565b50565b60008054906101000a900473ffffffffffffffffffffffffffffffffffffffff1681565b6105c981610ae6565b60048190555050565b60008060009054906101000a900473ffffffffffffffffffffffffffffffffffffffff1673ffffffffffffffffffffffffffffffffffffffff1663bf40fac1836040518263ffffffff1660e01b815260040161062e91906112ca565b602060405180830381865afa15801561064b573d6000803e3d6000fd5b505050506040513d601f19601f8201168201806040525081019061066f919061148b565b9050919050565b610709600180546106869061139c565b80601f01602080910402602001604051908101604052809291908181526020018280546106b29061139c565b80156106ff5780601f106106d4576101008083540402835291602001916106ff565b820191906000526020600020905b8154815290600101906020018083116106e257829003601f168201915b50505050506105d2565b73ffffffffffffffffffffffffffffffffffffffff163373ffffffffffffffffffffffffffffffffffffffff1614610776576040517f08c379a000000000000000000000000000000000000000000000000000000000815260040161076d9061143f565b60405180910390fd5b61078a816002610b2c90919063ffffffff16565b50565b6001805461079a9061139c565b80601f01602080910402602001604051908101604052809291908181526020018280546107c69061139c565b80156108135780601f106107e857610100808354040283529160200191610813565b820191906000526020600020905b8154815290600101906020018083116107f657829003601f168201915b505050505081565b60006004549050919050565b6108ba600180546108379061139c565b80601f01602080910402602001604051908101604052809291908181526020018280546108639061139c565b80156108b05780601f10610885576101008083540402835291602001916108b0565b820191906000526020600020905b81548152906001019060200180831161089357829003601f168201915b50505050506105d2565b73ffffffffffffffffffffffffffffffffffffffff163373ffffffffffffffffffffffffffffffffffffffff1614610927576040517f08c379a000000000000000000000000000000000000000000000000000000000815260040161091e9061143f565b60405180910390fd5b61093b816002610b5790919063ffffffff16565b50565b600061094a6002610b82565b905090565b600061095a84610b9d565b9050806000015164ffffffffff168364ffffffffff16106109b0576040517f08c379a00000000000000000000000000000000000000000000000000000000081526004016109a790611504565b60405180910390fd5b82816000019064ffffffffff16908164ffffffffff168152505081816020019064ffffffffff1916908164ffffffffff1916815250506109f98185610c0e90919063ffffffff16565b50505050565b600080610a0b83610b9d565b90508060000151915050919050565b6000610a2584610b9d565b905082846001016000836000015164ffffffffff16815260200190815260200160002081905550806000018051809190610a5e90611564565b64ffffffffff1664ffffffffff168152505081816020019064ffffffffff1916908164ffffffffff191681525050610a9f8185610c0e90919063ffffffff16565b50505050565b6000610ab083610b9d565b905081816020019064ffffffffff1916908164ffffffffff191681525050610ae18184610c0e90919063ffffffff16565b505050565b60008160200151826040015183606001518460800151604051602001610b0f94939291906115e6565b604051602081830303815290604052805190602001209050919050565b6000610b3783610b9d565b9050610b528282602001518561094f9092919063ffffffff16565b505050565b6000610b6283610b9d565b9050610b7d82826020015185610a1a9092919063ffffffff16565b505050565b600080610b8e83610b9d565b90508060200151915050919050565b610ba5610c45565b60008260000154905060008064ffffffffff831691507fffffffffffffffffffffffffffffffffffffffffffffffffffffff00000000008316905060405180604001604052808364ffffffffff1681526020018264ffffffffff19168152509350505050919050565b60008082600001519050600083602001519050819250808317925082856000015414610c3e578285600001819055505b5050505050565b6040518060400160405280600064ffffffffff168152602001600064ffffffffff191681525090565b6000604051905090565b600080fd5b600080fd5b6000819050919050565b610c9581610c82565b8114610ca057600080fd5b50565b600081359050610cb281610c8c565b92915050565b60007fffffffffffffffffffffffffffffffffffffffffffffffffffffff000000000082169050919050565b610ced81610cb8565b8114610cf857600080fd5b50565b600081359050610d0a81610ce4565b92915050565b60008060408385031215610d2757610d26610c78565b5b6000610d3585828601610ca3565b9250506020610d4685828601610cfb565b9150509250929050565b610d5981610c82565b82525050565b6000602082019050610d746000830184610d50565b92915050565b6000819050919050565b610d8d81610d7a565b8114610d9857600080fd5b50565b600081359050610daa81610d84565b92915050565b60008060408385031215610dc757610dc6610c78565b5b6000610dd585828601610d9b565b9250506020610de685828601610cfb565b9150509250929050565b600060208284031215610e0657610e05610c78565b5b6000610e1484828501610cfb565b91505092915050565b600073ffffffffffffffffffffffffffffffffffffffff82169050919050565b6000819050919050565b6000610e62610e5d610e5884610e1d565b610e3d565b610e1d565b9050919050565b6000610e7482610e47565b9050919050565b6000610e8682610e69565b9050919050565b610e9681610e7b565b82525050565b6000602082019050610eb16000830184610e8d565b92915050565b600080fd5b6000601f19601f8301169050919050565b7f4e487b7100000000000000000000000000000000000000000000000000000000600052604160045260246000fd5b610f0582610ebc565b810181811067ffffffffffffffff82111715610f2457610f23610ecd565b5b80604052505050565b6000610f37610c6e565b9050610f438282610efc565b919050565b600080fd5b600080fd5b600080fd5b600067ffffffffffffffff821115610f7257610f71610ecd565b5b610f7b82610ebc565b9050602081019050919050565b82818337600083830152505050565b6000610faa610fa584610f57565b610f2d565b905082815260208101848484011115610fc657610fc5610f52565b5b610fd1848285610f88565b509392505050565b600082601f830112610fee57610fed610f4d565b5b8135610ffe848260208601610f97565b91505092915050565b600060a0828403121561101d5761101c610eb7565b5b61102760a0610f2d565b9050600061103784828501610ca3565b600083015250602061104b84828501610d9b565b602083015250604061105f84828501610ca3565b604083015250606061107384828501610ca3565b606083015250608082013567ffffffffffffffff81111561109757611096610f48565b5b6110a384828501610fd9565b60808301525092915050565b6000602082840312156110c5576110c4610c78565b5b600082013567ffffffffffffffff8111156110e3576110e2610c7d565b5b6110ef84828501611007565b91505092915050565b600067ffffffffffffffff82111561111357611112610ecd565b5b61111c82610ebc565b9050602081019050919050565b600061113c611137846110f8565b610f2d565b90508281526020810184848401111561115857611157610f52565b5b611163848285610f88565b509392505050565b600082601f8301126111805761117f610f4d565b5b8135611190848260208601611129565b91505092915050565b6000602082840312156111af576111ae610c78565b5b600082013567ffffffffffffffff8111156111cd576111cc610c7d565b5b6111d98482850161116b565b91505092915050565b60006111ed82610e1d565b9050919050565b6111fd816111e2565b82525050565b600060208201905061121860008301846111f4565b92915050565b60006020828403121561123457611233610c78565b5b600061124284828501610ca3565b91505092915050565b600081519050919050565b600082825260208201905092915050565b60005b8381101561128557808201518184015260208101905061126a565b60008484015250505050565b600061129c8261124b565b6112a68185611256565b93506112b6818560208601611267565b6112bf81610ebc565b840191505092915050565b600060208201905081810360008301526112e48184611291565b905092915050565b6112f581610d7a565b82525050565b600060208201905061131060008301846112ec565b92915050565b60006020828403121561132c5761132b610c78565b5b600061133a84828501610d9b565b91505092915050565b61134c81610cb8565b82525050565b60006020820190506113676000830184611343565b92915050565b7f4e487b7100000000000000000000000000000000000000000000000000000000600052602260045260246000fd5b600060028204905060018216806113b457607f821691505b6020821081036113c7576113c661136d565b5b50919050565b7f436861696e53746f72616765436f6e7461696e65723a2046756e6374696f6e2060008201527f63616e206f6e6c792062652063616c6c656420627920746865206f776e65722e602082015250565b6000611429604083611256565b9150611434826113cd565b604082019050919050565b600060208201905081810360008301526114588161141c565b9050919050565b611468816111e2565b811461147357600080fd5b50565b6000815190506114858161145f565b92915050565b6000602082840312156114a1576114a0610c78565b5b60006114af84828501611476565b91505092915050565b7f496e646578206f7574206f6620626f756e64732e000000000000000000000000600082015250565b60006114ee601483611256565b91506114f9826114b8565b602082019050919050565b6000602082019050818103600083015261151d816114e1565b9050919050565b7f4e487b7100000000000000000000000000000000000000000000000000000000600052601160045260246000fd5b600064ffffffffff82169050919050565b600061156f82611553565b915064ffffffffff820361158657611585611524565b5b600182019050919050565b600081519050919050565b600082825260208201905092915050565b60006115b882611591565b6115c2818561159c565b93506115d2818560208601611267565b6115db81610ebc565b840191505092915050565b60006080820190506115fb60008301876112ec565b6116086020830186610d50565b6116156040830185610d50565b818103606083015261162781846115ad565b90509594505050505056fea2646970667358221220836d161ab4ae6d5dac69e50ee0c14d3143f084ad213216141862d8970922966964736f6c63430008120033",
  "linkReferences": {},
  "deployedLinkReferences": {}
}