{
  "_format": "hh-sol-artifact-1",
  "contractName": "ChainStorageContainer",
  "sourceName": "contracts/L1/rollup/ChainStorageContainer.sol",
  "abi": [
    {
      "inputs": [
        {
          "internalType": "address",
          "name": "_libAddressManager",
          "type": "address"
        },
        {
          "internalType": "string",
          "name": "_owner",
          "type": "string"
        }
      ],
      "stateMutability": "nonpayable",
      "type": "constructor"
    },
    {
      "inputs": [
        {
          "internalType": "uint256",
          "name": "_index",
          "type": "uint256"
        },
        {
          "internalType": "bytes27",
          "name": "_globalMetadata",
          "type": "bytes27"
        }
      ],
      "name": "deleteElementsAfterInclusive",
      "outputs": [],
      "stateMutability": "nonpayable",
      "type": "function"
    },
    {
      "inputs": [
        {
          "internalType": "uint256",
          "name": "_index",
          "type": "uint256"
        }
      ],
      "name": "deleteElementsAfterInclusive",
      "outputs": [],
      "stateMutability": "nonpayable",
      "type": "function"
    },
    {
      "inputs": [
        {
          "internalType": "uint256",
          "name": "_index",
          "type": "uint256"
        }
      ],
      "name": "get",
      "outputs": [
        {
          "internalType": "bytes32",
          "name": "",
          "type": "bytes32"
        }
      ],
      "stateMutability": "view",
      "type": "function"
    },
    {
      "inputs": [],
      "name": "getGlobalMetadata",
      "outputs": [
        {
          "internalType": "bytes27",
          "name": "",
          "type": "bytes27"
        }
      ],
      "stateMutability": "view",
      "type": "function"
    },
    {
      "inputs": [],
      "name": "length",
      "outputs": [
        {
          "internalType": "uint256",
          "name": "",
          "type": "uint256"
        }
      ],
      "stateMutability": "view",
      "type": "function"
    },
    {
      "inputs": [],
      "name": "libAddressManager",
      "outputs": [
        {
          "internalType": "contract Lib_AddressManager",
          "name": "",
          "type": "address"
        }
      ],
      "stateMutability": "view",
      "type": "function"
    },
    {
      "inputs": [],
      "name": "owner",
      "outputs": [
        {
          "internalType": "string",
          "name": "",
          "type": "string"
        }
      ],
      "stateMutability": "view",
      "type": "function"
    },
    {
      "inputs": [
        {
          "internalType": "bytes32",
          "name": "_object",
          "type": "bytes32"
        },
        {
          "internalType": "bytes27",
          "name": "_globalMetadata",
          "type": "bytes27"
        }
      ],
      "name": "push",
      "outputs": [],
      "stateMutability": "nonpayable",
      "type": "function"
    },
    {
      "inputs": [
        {
          "internalType": "bytes32",
          "name": "_object",
          "type": "bytes32"
        }
      ],
      "name": "push",
      "outputs": [],
      "stateMutability": "nonpayable",
      "type": "function"
    },
    {
      "inputs": [
        {
          "internalType": "string",
          "name": "_name",
          "type": "string"
        }
      ],
      "name": "resolve",
      "outputs": [
        {
          "internalType": "address",
          "name": "",
          "type": "address"
        }
      ],
      "stateMutability": "view",
      "type": "function"
    },
    {
      "inputs": [
        {
          "internalType": "bytes27",
          "name": "_globalMetadata",
          "type": "bytes27"
        }
      ],
      "name": "setGlobalMetadata",
      "outputs": [],
      "stateMutability": "nonpayable",
      "type": "function"
    },
    {
      "inputs": [
        {
          "components": [
            {
              "internalType": "uint256",
              "name": "batchIndex",
              "type": "uint256"
            },
            {
              "internalType": "bytes32",
              "name": "batchRoot",
              "type": "bytes32"
            },
            {
              "internalType": "uint256",
              "name": "batchSize",
              "type": "uint256"
            },
            {
              "internalType": "uint256",
              "name": "prevTotalElements",
              "type": "uint256"
            },
            {
              "internalType": "bytes",
              "name": "extraData",
              "type": "bytes"
            }
          ],
          "internalType": "struct Lib_OVMCodec.ChainBatchHeader",
          "name": "_batchHeader",
          "type": "tuple"
        }
      ],
      "name": "setSavedHash",
      "outputs": [],
      "stateMutability": "nonpayable",
      "type": "function"
    }
  ],
  "bytecode": "0x60806040523480156200001157600080fd5b50604051620010e0380380620010e083398101604081905262000034916200007c565b600080546001600160a01b0319166001600160a01b03841617905560016200005d828262000201565b505050620002cd565b634e487b7160e01b600052604160045260246000fd5b600080604083850312156200009057600080fd5b82516001600160a01b0381168114620000a857600080fd5b602084810151919350906001600160401b0380821115620000c857600080fd5b818601915086601f830112620000dd57600080fd5b815181811115620000f257620000f262000066565b604051601f8201601f19908116603f011681019083821181831017156200011d576200011d62000066565b8160405282815289868487010111156200013657600080fd5b600093505b828410156200015a57848401860151818501870152928501926200013b565b60008684830101528096505050505050509250929050565b600181811c908216806200018757607f821691505b602082108103620001a857634e487b7160e01b600052602260045260246000fd5b50919050565b601f821115620001fc57600081815260208120601f850160051c81016020861015620001d75750805b601f850160051c820191505b81811015620001f857828155600101620001e3565b5050505b505050565b81516001600160401b038111156200021d576200021d62000066565b62000235816200022e845462000172565b84620001ae565b602080601f8311600181146200026d5760008415620002545750858301515b600019600386901b1c1916600185901b178555620001f8565b600085815260208120601f198616915b828110156200029e578886015182559484019460019091019084016200027d565b5085821015620002bd5787850151600019600388901b60f8161c191681555b5050505050600190811b01905550565b610e0380620002dd6000396000f3fe608060405234801561001057600080fd5b50600436106100d45760003560e01c8063461a4478116100815780639507d39a1161005b5780639507d39a146101a8578063b298e36b146101bd578063ccf8f969146101d057600080fd5b8063461a44781461016d5780634651d91e146101805780638da5cb5b1461019357600080fd5b806329061de2116100b257806329061de21461011c578063299ca4781461012f5780633d1605721461015a57600080fd5b8063167fd681146100d95780631f7b6d32146100ee5780632015276c14610109575b600080fd5b6100ec6100e7366004610a97565b6101ef565b005b6100f661031f565b6040519081526020015b60405180910390f35b6100ec610117366004610a97565b610337565b6100ec61012a366004610ac3565b6103db565b600054610142906001600160a01b031681565b6040516001600160a01b039091168152602001610100565b6100ec610168366004610b9a565b610481565b61014261017b366004610c46565b610490565b6100ec61018e366004610c97565b610521565b61019b6105c4565b6040516101009190610cf6565b6100f66101b6366004610c97565b5060045490565b6100ec6101cb366004610c97565b610652565b6101d86106f5565b60405164ffffffffff199091168152602001610100565b610282600180546101ff90610d09565b80601f016020809104026020016040519081016040528092919081815260200182805461022b90610d09565b80156102785780601f1061024d57610100808354040283529160200191610278565b820191906000526020600020905b81548152906001019060200180831161025b57829003601f168201915b5050505050610490565b6001600160a01b0316336001600160a01b03161461030f576040805162461bcd60e51b81526020600482015260248101919091527f436861696e53746f72616765436f6e7461696e65723a2046756e6374696f6e2060448201527f63616e206f6e6c792062652063616c6c656420627920746865206f776e65722e60648201526084015b60405180910390fd5b61031b60028383610706565b5050565b600061032b60026107d3565b64ffffffffff16905090565b610347600180546101ff90610d09565b6001600160a01b0316336001600160a01b0316146103cf576040805162461bcd60e51b81526020600482015260248101919091527f436861696e53746f72616765436f6e7461696e65723a2046756e6374696f6e2060448201527f63616e206f6e6c792062652063616c6c656420627920746865206f776e65722e6064820152608401610306565b61031b6002838361081e565b6103eb600180546101ff90610d09565b6001600160a01b0316336001600160a01b031614610473576040805162461bcd60e51b81526020600482015260248101919091527f436861696e53746f72616765436f6e7461696e65723a2046756e6374696f6e2060448201527f63616e206f6e6c792062652063616c6c656420627920746865206f776e65722e6064820152608401610306565b61047e6002826108ad565b50565b61048a8161090e565b60045550565b600080546040517fbf40fac10000000000000000000000000000000000000000000000000000000081526001600160a01b039091169063bf40fac1906104da908590600401610cf6565b602060405180830381865afa1580156104f7573d6000803e3d6000fd5b505050506040513d601f19601f8201168201806040525081019061051b9190610d43565b92915050565b610531600180546101ff90610d09565b6001600160a01b0316336001600160a01b0316146105b9576040805162461bcd60e51b81526020600482015260248101919091527f436861696e53746f72616765436f6e7461696e65723a2046756e6374696f6e2060448201527f63616e206f6e6c792062652063616c6c656420627920746865206f776e65722e6064820152608401610306565b61047e600282610954565b600180546105d190610d09565b80601f01602080910402602001604051908101604052809291908181526020018280546105fd90610d09565b801561064a5780601f1061061f5761010080835404028352916020019161064a565b820191906000526020600020905b81548152906001019060200180831161062d57829003601f168201915b505050505081565b610662600180546101ff90610d09565b6001600160a01b0316336001600160a01b0316146106ea576040805162461bcd60e51b81526020600482015260248101919091527f436861696e53746f72616765436f6e7461696e65723a2046756e6374696f6e2060448201527f63616e206f6e6c792062652063616c6c656420627920746865206f776e65722e6064820152608401610306565b61047e6002826109b1565b60006107016002610a0e565b905090565b600061074884604080518082019091526000808252602082015250546040805180820190915264ffffffffff8216815264ffffffffff19909116602082015290565b9050806000015164ffffffffff168364ffffffffff16106107ab5760405162461bcd60e51b815260206004820152601460248201527f496e646578206f7574206f6620626f756e64732e0000000000000000000000006044820152606401610306565b64ffffffffff8316815264ffffffffff19821660208201526107cd8482610a5c565b50505050565b60008061081683604080518082019091526000808252602082015250546040805180820190915264ffffffffff8216815264ffffffffff19909116602082015290565b519392505050565b600061086084604080518082019091526000808252602082015250546040805180820190915264ffffffffff8216815264ffffffffff19909116602082015290565b805164ffffffffff166000908152600186016020526040902084905580519091508161088b82610d6c565b64ffffffffff1690525064ffffffffff19821660208201526107cd8482610a5c565b60006108ef83604080518082019091526000808252602082015250546040805180820190915264ffffffffff8216815264ffffffffff19909116602082015290565b64ffffffffff198316602082015290506109098382610a5c565b505050565b600081602001518260400151836060015184608001516040516020016109379493929190610d9e565b604051602081830303815290604052805190602001209050919050565b600061099683604080518082019091526000808252602082015250546040805180820190915264ffffffffff8216815264ffffffffff19909116602082015290565b9050610909828260200151856107069092919063ffffffff16565b60006109f383604080518082019091526000808252602082015250546040805180820190915264ffffffffff8216815264ffffffffff19909116602082015290565b90506109098282602001518561081e9092919063ffffffff16565b600080610a5183604080518082019091526000808252602082015250546040805180820190915264ffffffffff8216815264ffffffffff19909116602082015290565b602001519392505050565b8051602082015183548183179291908314610a75578285555b5050505050565b803564ffffffffff1981168114610a9257600080fd5b919050565b60008060408385031215610aaa57600080fd5b82359150610aba60208401610a7c565b90509250929050565b600060208284031215610ad557600080fd5b610ade82610a7c565b9392505050565b634e487b7160e01b600052604160045260246000fd5b60405160a0810167ffffffffffffffff81118282101715610b1e57610b1e610ae5565b60405290565b600067ffffffffffffffff80841115610b3f57610b3f610ae5565b604051601f8501601f19908116603f01168101908282118183101715610b6757610b67610ae5565b81604052809350858152868686011115610b8057600080fd5b858560208301376000602087830101525050509392505050565b600060208284031215610bac57600080fd5b813567ffffffffffffffff80821115610bc457600080fd5b9083019060a08286031215610bd857600080fd5b610be0610afb565b82358152602083013560208201526040830135604082015260608301356060820152608083013582811115610c1457600080fd5b80840193505085601f840112610c2957600080fd5b610c3886843560208601610b24565b608082015295945050505050565b600060208284031215610c5857600080fd5b813567ffffffffffffffff811115610c6f57600080fd5b8201601f81018413610c8057600080fd5b610c8f84823560208401610b24565b949350505050565b600060208284031215610ca957600080fd5b5035919050565b6000815180845260005b81811015610cd657602081850181015186830182015201610cba565b506000602082860101526020601f19601f83011685010191505092915050565b602081526000610ade6020830184610cb0565b600181811c90821680610d1d57607f821691505b602082108103610d3d57634e487b7160e01b600052602260045260246000fd5b50919050565b600060208284031215610d5557600080fd5b81516001600160a01b0381168114610ade57600080fd5b600064ffffffffff808316818103610d9457634e487b7160e01b600052601160045260246000fd5b6001019392505050565b848152836020820152826040820152608060608201526000610dc36080830184610cb0565b969550505050505056fea264697066735822122079cab68b85b208f774c627be20978fa0aadef4fe04001053cd0765779ce04eb764736f6c63430008120033",
  "linkReferences": {},
  "deployedLinkReferences": {}
}