{
  "_format": "hh-sol-artifact-1",
  "contractName": "UpgradeBeaconController",
  "sourceName": "contracts/shared/upgrade/UpgradeBeaconController.sol",
  "abi": [
    {
      "inputs": [],
      "stateMutability": "nonpayable",
      "type": "constructor"
    },
    {
      "inputs": [],
      "name": "ProposedOwnable__onlyOwner_notOwner",
      "type": "error"
    },
    {
      "inputs": [],
      "name": "ProposedOwnable__onlyProposed_notProposedOwner",
      "type": "error"
    },
    {
      "inputs": [],
      "name": "ProposedOwnable__ownershipDelayElapsed_delayNotElapsed",
      "type": "error"
    },
    {
      "inputs": [],
      "name": "ProposedOwnable__proposeNewOwner_invalidProposal",
      "type": "error"
    },
    {
      "inputs": [],
      "name": "ProposedOwnable__proposeNewOwner_noOwnershipChange",
      "type": "error"
    },
    {
      "inputs": [],
      "name": "ProposedOwnable__renounceOwnership_invalidProposal",
      "type": "error"
    },
    {
      "inputs": [],
      "name": "ProposedOwnable__renounceOwnership_noProposal",
      "type": "error"
    },
    {
      "anonymous": false,
      "inputs": [
        {
          "indexed": true,
          "internalType": "address",
          "name": "beacon",
          "type": "address"
        },
        {
          "indexed": false,
          "internalType": "address",
          "name": "implementation",
          "type": "address"
        }
      ],
      "name": "BeaconUpgraded",
      "type": "event"
    },
    {
      "anonymous": false,
      "inputs": [
        {
          "indexed": true,
          "internalType": "address",
          "name": "proposedOwner",
          "type": "address"
        }
      ],
      "name": "OwnershipProposed",
      "type": "event"
    },
    {
      "anonymous": false,
      "inputs": [
        {
          "indexed": true,
          "internalType": "address",
          "name": "previousOwner",
          "type": "address"
        },
        {
          "indexed": true,
          "internalType": "address",
          "name": "newOwner",
          "type": "address"
        }
      ],
      "name": "OwnershipTransferred",
      "type": "event"
    },
    {
      "inputs": [],
      "name": "acceptProposedOwner",
      "outputs": [],
      "stateMutability": "nonpayable",
      "type": "function"
    },
    {
      "inputs": [],
      "name": "delay",
      "outputs": [
        {
          "internalType": "uint256",
          "name": "",
          "type": "uint256"
        }
      ],
      "stateMutability": "view",
      "type": "function"
    },
    {
      "inputs": [],
      "name": "owner",
      "outputs": [
        {
          "internalType": "address",
          "name": "",
          "type": "address"
        }
      ],
      "stateMutability": "view",
      "type": "function"
    },
    {
      "inputs": [
        {
          "internalType": "address",
          "name": "newlyProposed",
          "type": "address"
        }
      ],
      "name": "proposeNewOwner",
      "outputs": [],
      "stateMutability": "nonpayable",
      "type": "function"
    },
    {
      "inputs": [],
      "name": "proposed",
      "outputs": [
        {
          "internalType": "address",
          "name": "",
          "type": "address"
        }
      ],
      "stateMutability": "view",
      "type": "function"
    },
    {
      "inputs": [],
      "name": "proposedTimestamp",
      "outputs": [
        {
          "internalType": "uint256",
          "name": "",
          "type": "uint256"
        }
      ],
      "stateMutability": "view",
      "type": "function"
    },
    {
      "inputs": [],
      "name": "renounceOwnership",
      "outputs": [],
      "stateMutability": "nonpayable",
      "type": "function"
    },
    {
      "inputs": [],
      "name": "renounced",
      "outputs": [
        {
          "internalType": "bool",
          "name": "",
          "type": "bool"
        }
      ],
      "stateMutability": "view",
      "type": "function"
    },
    {
      "inputs": [
        {
          "internalType": "address",
          "name": "_beacon",
          "type": "address"
        },
        {
          "internalType": "address",
          "name": "_implementation",
          "type": "address"
        }
      ],
      "name": "upgrade",
      "outputs": [],
      "stateMutability": "nonpayable",
      "type": "function"
    }
  ],
  "bytecode": "0x608060405234801561001057600080fd5b506100203361002560201b60201c565b61010d565b8073ffffffffffffffffffffffffffffffffffffffff1660008054906101000a900473ffffffffffffffffffffffffffffffffffffffff1673ffffffffffffffffffffffffffffffffffffffff167f8be0079c531659141344cd1fd0a4f28419497f9722a3daafe3b4186f6b6457e060405160405180910390a3806000806101000a81548173ffffffffffffffffffffffffffffffffffffffff021916908373ffffffffffffffffffffffffffffffffffffffff160217905550600260009055600160006101000a81549073ffffffffffffffffffffffffffffffffffffffff021916905550565b610cd68061011c6000396000f3fe608060405234801561001057600080fd5b50600436106100935760003560e01c806399a88ec41161006657806399a88ec4146100fc578063b1f8100d14610118578063c5b350df14610134578063d1851c921461013e578063d232c2201461015c57610093565b80633cf52ffb146100985780636a42b8f8146100b6578063715018a6146100d45780638da5cb5b146100de575b600080fd5b6100a061017a565b6040516100ad91906109ed565b60405180910390f35b6100be610184565b6040516100cb91906109ed565b60405180910390f35b6100dc61018f565b005b6100e661032d565b6040516100f39190610a49565b60405180910390f35b61011660048036038101906101119190610a95565b610356565b005b610132600480360381019061012d9190610ad5565b610511565b005b61013c6106be565b005b6101466107bb565b6040516101539190610a49565b60405180910390f35b6101646107e5565b6040516101719190610b1d565b60405180910390f35b6000600254905090565b600062093a80905090565b3373ffffffffffffffffffffffffffffffffffffffff1660008054906101000a900473ffffffffffffffffffffffffffffffffffffffff1673ffffffffffffffffffffffffffffffffffffffff1614610214576040517f8d450dd800000000000000000000000000000000000000000000000000000000815260040160405180910390fd5b62093a80600254426102269190610b67565b1161025d576040517f9380a17c00000000000000000000000000000000000000000000000000000000815260040160405180910390fd5b600060025403610299576040517f392cc0fc00000000000000000000000000000000000000000000000000000000815260040160405180910390fd5b600073ffffffffffffffffffffffffffffffffffffffff16600160009054906101000a900473ffffffffffffffffffffffffffffffffffffffff1673ffffffffffffffffffffffffffffffffffffffff1614610321576040517f23295ef900000000000000000000000000000000000000000000000000000000815260040160405180910390fd5b61032b600061083b565b565b60008060009054906101000a900473ffffffffffffffffffffffffffffffffffffffff16905090565b3373ffffffffffffffffffffffffffffffffffffffff1660008054906101000a900473ffffffffffffffffffffffffffffffffffffffff1673ffffffffffffffffffffffffffffffffffffffff16146103db576040517f8d450dd800000000000000000000000000000000000000000000000000000000815260040160405180910390fd5b6103e482610923565b610423576040517f08c379a000000000000000000000000000000000000000000000000000000000815260040161041a90610bf8565b60405180910390fd5b60008273ffffffffffffffffffffffffffffffffffffffff168260405160200161044d9190610a49565b6040516020818303038152906040526040516104699190610c89565b6000604051808303816000865af19150503d80600081146104a6576040519150601f19603f3d011682016040523d82523d6000602084013e6104ab565b606091505b50509050806104be573d6000803e3d6000fd5b8273ffffffffffffffffffffffffffffffffffffffff167fc945ae30494f6ee00b9e4bf1fec5653ced7244b559666f44f9a88ea732e957b0836040516105049190610a49565b60405180910390a2505050565b3373ffffffffffffffffffffffffffffffffffffffff1660008054906101000a900473ffffffffffffffffffffffffffffffffffffffff1673ffffffffffffffffffffffffffffffffffffffff1614610596576040517f8d450dd800000000000000000000000000000000000000000000000000000000815260040160405180910390fd5b8073ffffffffffffffffffffffffffffffffffffffff16600160009054906101000a900473ffffffffffffffffffffffffffffffffffffffff1673ffffffffffffffffffffffffffffffffffffffff161480156105f65750600060025414155b1561062d576040517f23780cca00000000000000000000000000000000000000000000000000000000815260040160405180910390fd5b8073ffffffffffffffffffffffffffffffffffffffff1660008054906101000a900473ffffffffffffffffffffffffffffffffffffffff1673ffffffffffffffffffffffffffffffffffffffff16036106b2576040517f945f6e7e00000000000000000000000000000000000000000000000000000000815260040160405180910390fd5b6106bb81610946565b50565b3373ffffffffffffffffffffffffffffffffffffffff16600160009054906101000a900473ffffffffffffffffffffffffffffffffffffffff1673ffffffffffffffffffffffffffffffffffffffff1614610745576040517f234fe4e200000000000000000000000000000000000000000000000000000000815260040160405180910390fd5b62093a80600254426107579190610b67565b1161078e576040517f9380a17c00000000000000000000000000000000000000000000000000000000815260040160405180910390fd5b6107b9600160009054906101000a900473ffffffffffffffffffffffffffffffffffffffff1661083b565b565b6000600160009054906101000a900473ffffffffffffffffffffffffffffffffffffffff16905090565b60008073ffffffffffffffffffffffffffffffffffffffff1660008054906101000a900473ffffffffffffffffffffffffffffffffffffffff1673ffffffffffffffffffffffffffffffffffffffff1614905090565b8073ffffffffffffffffffffffffffffffffffffffff1660008054906101000a900473ffffffffffffffffffffffffffffffffffffffff1673ffffffffffffffffffffffffffffffffffffffff167f8be0079c531659141344cd1fd0a4f28419497f9722a3daafe3b4186f6b6457e060405160405180910390a3806000806101000a81548173ffffffffffffffffffffffffffffffffffffffff021916908373ffffffffffffffffffffffffffffffffffffffff160217905550600260009055600160006101000a81549073ffffffffffffffffffffffffffffffffffffffff021916905550565b6000808273ffffffffffffffffffffffffffffffffffffffff163b119050919050565b4260028190555080600160006101000a81548173ffffffffffffffffffffffffffffffffffffffff021916908373ffffffffffffffffffffffffffffffffffffffff1602179055508073ffffffffffffffffffffffffffffffffffffffff167f6ab4d119f23076e8ad491bc65ce85f017fb0591dce08755ba8591059cc51737a60405160405180910390a250565b6000819050919050565b6109e7816109d4565b82525050565b6000602082019050610a0260008301846109de565b92915050565b600073ffffffffffffffffffffffffffffffffffffffff82169050919050565b6000610a3382610a08565b9050919050565b610a4381610a28565b82525050565b6000602082019050610a5e6000830184610a3a565b92915050565b600080fd5b610a7281610a28565b8114610a7d57600080fd5b50565b600081359050610a8f81610a69565b92915050565b60008060408385031215610aac57610aab610a64565b5b6000610aba85828601610a80565b9250506020610acb85828601610a80565b9150509250929050565b600060208284031215610aeb57610aea610a64565b5b6000610af984828501610a80565b91505092915050565b60008115159050919050565b610b1781610b02565b82525050565b6000602082019050610b326000830184610b0e565b92915050565b7f4e487b7100000000000000000000000000000000000000000000000000000000600052601160045260246000fd5b6000610b72826109d4565b9150610b7d836109d4565b9250828203905081811115610b9557610b94610b38565b5b92915050565b600082825260208201905092915050565b7f626561636f6e2021636f6e747261637400000000000000000000000000000000600082015250565b6000610be2601083610b9b565b9150610bed82610bac565b602082019050919050565b60006020820190508181036000830152610c1181610bd5565b9050919050565b600081519050919050565b600081905092915050565b60005b83811015610c4c578082015181840152602081019050610c31565b60008484015250505050565b6000610c6382610c18565b610c6d8185610c23565b9350610c7d818560208601610c2e565b80840191505092915050565b6000610c958284610c58565b91508190509291505056fea26469706673582212209d0cd0b1b5e5f4580b69f57774448037e824b57d6612cc4780af403b8d45ba9c64736f6c63430008110033",
  "linkReferences": {},
  "deployedLinkReferences": {}
}