{
  "_format": "hh-sol-artifact-1",
  "contractName": "L1StandardBridge",
  "sourceName": "contracts/L1/messaging/L1StandardBridge.sol",
  "abi": [
    {
      "inputs": [],
      "stateMutability": "nonpayable",
      "type": "constructor"
    },
    {
      "anonymous": false,
      "inputs": [
        {
          "indexed": true,
          "internalType": "address",
          "name": "_l1Token",
          "type": "address"
        },
        {
          "indexed": true,
          "internalType": "address",
          "name": "_l2Token",
          "type": "address"
        },
        {
          "indexed": true,
          "internalType": "address",
          "name": "_from",
          "type": "address"
        },
        {
          "indexed": false,
          "internalType": "address",
          "name": "_to",
          "type": "address"
        },
        {
          "indexed": false,
          "internalType": "uint256",
          "name": "_amount",
          "type": "uint256"
        },
        {
          "indexed": false,
          "internalType": "bytes",
          "name": "_data",
          "type": "bytes"
        }
      ],
      "name": "ERC20DepositInitiated",
      "type": "event"
    },
    {
      "anonymous": false,
      "inputs": [
        {
          "indexed": true,
          "internalType": "address",
          "name": "_l1Token",
          "type": "address"
        },
        {
          "indexed": true,
          "internalType": "address",
          "name": "_l2Token",
          "type": "address"
        },
        {
          "indexed": true,
          "internalType": "address",
          "name": "_from",
          "type": "address"
        },
        {
          "indexed": false,
          "internalType": "address",
          "name": "_to",
          "type": "address"
        },
        {
          "indexed": false,
          "internalType": "uint256",
          "name": "_amount",
          "type": "uint256"
        },
        {
          "indexed": false,
          "internalType": "bytes",
          "name": "_data",
          "type": "bytes"
        }
      ],
      "name": "ERC20WithdrawalFinalized",
      "type": "event"
    },
    {
      "anonymous": false,
      "inputs": [
        {
          "indexed": true,
          "internalType": "address",
          "name": "_from",
          "type": "address"
        },
        {
          "indexed": true,
          "internalType": "address",
          "name": "_to",
          "type": "address"
        },
        {
          "indexed": false,
          "internalType": "uint256",
          "name": "_amount",
          "type": "uint256"
        },
        {
          "indexed": false,
          "internalType": "bytes",
          "name": "_data",
          "type": "bytes"
        }
      ],
      "name": "ETHDepositInitiated",
      "type": "event"
    },
    {
      "anonymous": false,
      "inputs": [
        {
          "indexed": true,
          "internalType": "address",
          "name": "_from",
          "type": "address"
        },
        {
          "indexed": true,
          "internalType": "address",
          "name": "_to",
          "type": "address"
        },
        {
          "indexed": false,
          "internalType": "uint256",
          "name": "_amount",
          "type": "uint256"
        },
        {
          "indexed": false,
          "internalType": "bytes",
          "name": "_data",
          "type": "bytes"
        }
      ],
      "name": "ETHWithdrawalFinalized",
      "type": "event"
    },
    {
      "inputs": [
        {
          "internalType": "address",
          "name": "_l1Token",
          "type": "address"
        },
        {
          "internalType": "address",
          "name": "_l2Token",
          "type": "address"
        },
        {
          "internalType": "uint256",
          "name": "_amount",
          "type": "uint256"
        },
        {
          "internalType": "uint32",
          "name": "_l2Gas",
          "type": "uint32"
        },
        {
          "internalType": "bytes",
          "name": "_data",
          "type": "bytes"
        }
      ],
      "name": "depositERC20",
      "outputs": [],
      "stateMutability": "nonpayable",
      "type": "function"
    },
    {
      "inputs": [
        {
          "internalType": "address",
          "name": "_l1Token",
          "type": "address"
        },
        {
          "internalType": "address",
          "name": "_l2Token",
          "type": "address"
        },
        {
          "internalType": "address",
          "name": "_to",
          "type": "address"
        },
        {
          "internalType": "uint256",
          "name": "_amount",
          "type": "uint256"
        },
        {
          "internalType": "uint32",
          "name": "_l2Gas",
          "type": "uint32"
        },
        {
          "internalType": "bytes",
          "name": "_data",
          "type": "bytes"
        }
      ],
      "name": "depositERC20To",
      "outputs": [],
      "stateMutability": "nonpayable",
      "type": "function"
    },
    {
      "inputs": [
        {
          "internalType": "uint32",
          "name": "_l2Gas",
          "type": "uint32"
        },
        {
          "internalType": "bytes",
          "name": "_data",
          "type": "bytes"
        }
      ],
      "name": "depositETH",
      "outputs": [],
      "stateMutability": "payable",
      "type": "function"
    },
    {
      "inputs": [
        {
          "internalType": "address",
          "name": "_to",
          "type": "address"
        },
        {
          "internalType": "uint32",
          "name": "_l2Gas",
          "type": "uint32"
        },
        {
          "internalType": "bytes",
          "name": "_data",
          "type": "bytes"
        }
      ],
      "name": "depositETHTo",
      "outputs": [],
      "stateMutability": "payable",
      "type": "function"
    },
    {
      "inputs": [
        {
          "internalType": "address",
          "name": "",
          "type": "address"
        },
        {
          "internalType": "address",
          "name": "",
          "type": "address"
        }
      ],
      "name": "deposits",
      "outputs": [
        {
          "internalType": "uint256",
          "name": "",
          "type": "uint256"
        }
      ],
      "stateMutability": "view",
      "type": "function"
    },
    {
      "inputs": [],
      "name": "donateETH",
      "outputs": [],
      "stateMutability": "payable",
      "type": "function"
    },
    {
      "inputs": [
        {
          "internalType": "address",
          "name": "_l1Token",
          "type": "address"
        },
        {
          "internalType": "address",
          "name": "_l2Token",
          "type": "address"
        },
        {
          "internalType": "address",
          "name": "_from",
          "type": "address"
        },
        {
          "internalType": "address",
          "name": "_to",
          "type": "address"
        },
        {
          "internalType": "uint256",
          "name": "_amount",
          "type": "uint256"
        },
        {
          "internalType": "bytes",
          "name": "_data",
          "type": "bytes"
        }
      ],
      "name": "finalizeERC20Withdrawal",
      "outputs": [],
      "stateMutability": "nonpayable",
      "type": "function"
    },
    {
      "inputs": [
        {
          "internalType": "address",
          "name": "_from",
          "type": "address"
        },
        {
          "internalType": "address",
          "name": "_to",
          "type": "address"
        },
        {
          "internalType": "uint256",
          "name": "_amount",
          "type": "uint256"
        },
        {
          "internalType": "bytes",
          "name": "_data",
          "type": "bytes"
        }
      ],
      "name": "finalizeETHWithdrawal",
      "outputs": [],
      "stateMutability": "nonpayable",
      "type": "function"
    },
    {
      "inputs": [
        {
          "internalType": "address",
          "name": "_l1messenger",
          "type": "address"
        },
        {
          "internalType": "address",
          "name": "_l2TokenBridge",
          "type": "address"
        }
      ],
      "name": "initialize",
      "outputs": [],
      "stateMutability": "nonpayable",
      "type": "function"
    },
    {
      "inputs": [],
      "name": "l2TokenBridge",
      "outputs": [
        {
          "internalType": "address",
          "name": "",
          "type": "address"
        }
      ],
      "stateMutability": "view",
      "type": "function"
    },
    {
      "inputs": [],
      "name": "messenger",
      "outputs": [
        {
          "internalType": "address",
          "name": "",
          "type": "address"
        }
      ],
      "stateMutability": "view",
      "type": "function"
    },
    {
      "stateMutability": "payable",
      "type": "receive"
    }
  ],
  "bytecode": "0x608060405234801561001057600080fd5b50600080546001600160a01b031916905561163b806100306000396000f3fe6080604052600436106100c05760003560e01c80638b4c40b0116100745780639a2ac6d51161004e5780639a2ac6d514610253578063a9f9e67514610266578063b1a1a8821461028657600080fd5b80638b4c40b0146101295780638f601f66146101ed57806391c49bf81461023357600080fd5b8063485cc955116100a5578063485cc9551461018d57806358a997f6146101ad578063838b2520146101cd57600080fd5b80631532ec34146101305780633cb747bf1461015057600080fd5b3661012b57333b1561010b5760405162461bcd60e51b815260206004820152600f60248201526e4163636f756e74206e6f7420454f4160881b60448201526064015b60405180910390fd5b610129333362030d4060405180602001604052806000815250610299565b005b600080fd5b34801561013c57600080fd5b5061012961014b36600461106a565b61038b565b34801561015c57600080fd5b50600054610170906001600160a01b031681565b6040516001600160a01b0390911681526020015b60405180910390f35b34801561019957600080fd5b506101296101a83660046110dd565b610663565b3480156101b957600080fd5b506101296101c836600461112f565b610728565b3480156101d957600080fd5b506101296101e83660046111b2565b610781565b3480156101f957600080fd5b506102256102083660046110dd565b600260209081526000928352604080842090915290825290205481565b604051908152602001610184565b34801561023f57600080fd5b50600154610170906001600160a01b031681565b610129610261366004611248565b61079a565b34801561027257600080fd5b506101296102813660046112ab565b6107e2565b610129610294366004611324565b610a4c565b600063662a633a60e01b600073deaddeaddeaddeaddeaddeaddeaddeaddead0000878734876040516024016102d3969594939291906113c7565b60408051601f198184030181529190526020810180516001600160e01b03167fffffffff0000000000000000000000000000000000000000000000000000000090931692909217909152600154909150610337906001600160a01b03168483610ad4565b836001600160a01b0316856001600160a01b03167f35d79ab81f2b2017e19afb5c5571778877782d7a8786f5907f93b0f4702f4f23348560405161037c929190611415565b60405180910390a35050505050565b6001546001600160a01b03166103a96000546001600160a01b031690565b6001600160a01b0316336001600160a01b03161461042f5760405162461bcd60e51b815260206004820152602e60248201527f4f564d5f58434841494e3a206d657373656e67657220636f6e7472616374207560448201527f6e61757468656e746963617465640000000000000000000000000000000000006064820152608401610102565b806001600160a01b031661044b6000546001600160a01b031690565b6001600160a01b0316636e296e456040518163ffffffff1660e01b8152600401602060405180830381865afa158015610488573d6000803e3d6000fd5b505050506040513d601f19601f820116820180604052508101906104ac919061142e565b6001600160a01b0316146105285760405162461bcd60e51b815260206004820152603060248201527f4f564d5f58434841494e3a2077726f6e672073656e646572206f662063726f7360448201527f732d646f6d61696e206d657373616765000000000000000000000000000000006064820152608401610102565b604080516000808252602082019092526001600160a01b0387169086906040516105529190611452565b60006040518083038185875af1925050503d806000811461058f576040519150601f19603f3d011682016040523d82523d6000602084013e610594565b606091505b505090508061060b5760405162461bcd60e51b815260206004820152603460248201527f5472616e7366657248656c7065723a3a736166655472616e736665724554483a60448201527f20455448207472616e73666572206661696c65640000000000000000000000006064820152608401610102565b856001600160a01b0316876001600160a01b03167f2ac69ee804d9a7a0984249f508dfab7cb2534b465b6ce1580f99a38ba9c5e63187878760405161065293929190611497565b60405180910390a350505050505050565b6000546001600160a01b0316156106e25760405162461bcd60e51b815260206004820152602660248201527f436f6e74726163742068617320616c7265616479206265656e20696e6974696160448201527f6c697a65642e00000000000000000000000000000000000000000000000000006064820152608401610102565b600080546001600160a01b039384167fffffffffffffffffffffffff00000000000000000000000000000000000000009182161790915560018054929093169116179055565b333b156107695760405162461bcd60e51b815260206004820152600f60248201526e4163636f756e74206e6f7420454f4160881b6044820152606401610102565b6107798686333388888888610b4f565b505050505050565b6107918787338888888888610b4f565b50505050505050565b6107dc33858585858080601f01602080910402602001604051908101604052809392919081815260200183838082843760009201919091525061029992505050565b50505050565b6001546001600160a01b03166108006000546001600160a01b031690565b6001600160a01b0316336001600160a01b0316146108865760405162461bcd60e51b815260206004820152602e60248201527f4f564d5f58434841494e3a206d657373656e67657220636f6e7472616374207560448201527f6e61757468656e746963617465640000000000000000000000000000000000006064820152608401610102565b806001600160a01b03166108a26000546001600160a01b031690565b6001600160a01b0316636e296e456040518163ffffffff1660e01b8152600401602060405180830381865afa1580156108df573d6000803e3d6000fd5b505050506040513d601f19601f82011682018060405250810190610903919061142e565b6001600160a01b03161461097f5760405162461bcd60e51b815260206004820152603060248201527f4f564d5f58434841494e3a2077726f6e672073656e646572206f662063726f7360448201527f732d646f6d61696e206d657373616765000000000000000000000000000000006064820152608401610102565b6001600160a01b038089166000908152600260209081526040808320938b16835292905220546109b09085906114e9565b6001600160a01b03808a166000818152600260209081526040808320948d16835293905291909120919091556109e7908686610c98565b856001600160a01b0316876001600160a01b0316896001600160a01b03167f3ceee06c1e37648fcbb6ed52e17b3e1f275a1f8c7b22a84b2b84732431e046b388888888604051610a3a9493929190611502565b60405180910390a45050505050505050565b333b15610a8d5760405162461bcd60e51b815260206004820152600f60248201526e4163636f756e74206e6f7420454f4160881b6044820152606401610102565b610acf33338585858080601f01602080910402602001604051908101604052809392919081815260200183838082843760009201919091525061029992505050565b505050565b6000546040517f3dbb202b0000000000000000000000000000000000000000000000000000000081526001600160a01b0390911690633dbb202b90610b2190869085908790600401611535565b600060405180830381600087803b158015610b3b57600080fd5b505af1158015610791573d6000803e3d6000fd5b610b646001600160a01b038916873087610d2c565b600063662a633a60e01b89898989898888604051602401610b8b979695949392919061156d565b60408051601f198184030181529190526020810180516001600160e01b03167fffffffff0000000000000000000000000000000000000000000000000000000090931692909217909152600154909150610bef906001600160a01b03168583610ad4565b6001600160a01b03808a166000908152600260209081526040808320938c1683529290522054610c209086906115bd565b6001600160a01b03808b1660008181526002602090815260408083208e86168085529252918290209490945551918a1692917f718594027abd4eaed59f95162563e0cc6d0e8d5b86b1c7be8b1b0ac3343d039690610c85908b908b908a908a90611502565b60405180910390a4505050505050505050565b6040516001600160a01b038316602482015260448101829052610acf9084907fa9059cbb00000000000000000000000000000000000000000000000000000000906064015b60408051601f198184030181529190526020810180516001600160e01b03167fffffffff0000000000000000000000000000000000000000000000000000000090931692909217909152610d7d565b6040516001600160a01b03808516602483015283166044820152606481018290526107dc9085907f23b872dd0000000000000000000000000000000000000000000000000000000090608401610cdd565b6000610dd2826040518060400160405280602081526020017f5361666545524332303a206c6f772d6c6576656c2063616c6c206661696c6564815250856001600160a01b0316610e629092919063ffffffff16565b805190915015610acf5780806020019051810190610df091906115d0565b610acf5760405162461bcd60e51b815260206004820152602a60248201527f5361666545524332303a204552433230206f7065726174696f6e20646964206e60448201527f6f742073756363656564000000000000000000000000000000000000000000006064820152608401610102565b6060610e718484600085610e79565b949350505050565b606082471015610ef15760405162461bcd60e51b815260206004820152602660248201527f416464726573733a20696e73756666696369656e742062616c616e636520666f60448201527f722063616c6c00000000000000000000000000000000000000000000000000006064820152608401610102565b600080866001600160a01b03168587604051610f0d9190611452565b60006040518083038185875af1925050503d8060008114610f4a576040519150601f19603f3d011682016040523d82523d6000602084013e610f4f565b606091505b5091509150610f6087838387610f6b565b979650505050505050565b60608315610fda578251600003610fd3576001600160a01b0385163b610fd35760405162461bcd60e51b815260206004820152601d60248201527f416464726573733a2063616c6c20746f206e6f6e2d636f6e74726163740000006044820152606401610102565b5081610e71565b610e718383815115610fef5781518083602001fd5b8060405162461bcd60e51b815260040161010291906115f2565b6001600160a01b038116811461101e57600080fd5b50565b60008083601f84011261103357600080fd5b50813567ffffffffffffffff81111561104b57600080fd5b60208301915083602082850101111561106357600080fd5b9250929050565b60008060008060006080868803121561108257600080fd5b853561108d81611009565b9450602086013561109d81611009565b935060408601359250606086013567ffffffffffffffff8111156110c057600080fd5b6110cc88828901611021565b969995985093965092949392505050565b600080604083850312156110f057600080fd5b82356110fb81611009565b9150602083013561110b81611009565b809150509250929050565b803563ffffffff8116811461112a57600080fd5b919050565b60008060008060008060a0878903121561114857600080fd5b863561115381611009565b9550602087013561116381611009565b94506040870135935061117860608801611116565b9250608087013567ffffffffffffffff81111561119457600080fd5b6111a089828a01611021565b979a9699509497509295939492505050565b600080600080600080600060c0888a0312156111cd57600080fd5b87356111d881611009565b965060208801356111e881611009565b955060408801356111f881611009565b94506060880135935061120d60808901611116565b925060a088013567ffffffffffffffff81111561122957600080fd5b6112358a828b01611021565b989b979a50959850939692959293505050565b6000806000806060858703121561125e57600080fd5b843561126981611009565b935061127760208601611116565b9250604085013567ffffffffffffffff81111561129357600080fd5b61129f87828801611021565b95989497509550505050565b600080600080600080600060c0888a0312156112c657600080fd5b87356112d181611009565b965060208801356112e181611009565b955060408801356112f181611009565b9450606088013561130181611009565b93506080880135925060a088013567ffffffffffffffff81111561122957600080fd5b60008060006040848603121561133957600080fd5b61134284611116565b9250602084013567ffffffffffffffff81111561135e57600080fd5b61136a86828701611021565b9497909650939450505050565b60005b8381101561139257818101518382015260200161137a565b50506000910152565b600081518084526113b3816020860160208601611377565b601f01601f19169290920160200192915050565b60006001600160a01b0380891683528088166020840152808716604084015280861660608401525083608083015260c060a083015261140960c083018461139b565b98975050505050505050565b828152604060208201526000610e71604083018461139b565b60006020828403121561144057600080fd5b815161144b81611009565b9392505050565b60008251611464818460208701611377565b9190910192915050565b81835281816020850137506000828201602090810191909152601f909101601f19169091010190565b8381526040602082015260006114b160408301848661146e565b95945050505050565b7f4e487b7100000000000000000000000000000000000000000000000000000000600052601160045260246000fd5b818103818111156114fc576114fc6114ba565b92915050565b6001600160a01b038516815283602082015260606040820152600061152b60608301848661146e565b9695505050505050565b6001600160a01b0384168152606060208201526000611557606083018561139b565b905063ffffffff83166040830152949350505050565b60006001600160a01b03808a1683528089166020840152808816604084015280871660608401525084608083015260c060a08301526115b060c08301848661146e565b9998505050505050505050565b808201808211156114fc576114fc6114ba565b6000602082840312156115e257600080fd5b8151801515811461144b57600080fd5b60208152600061144b602083018461139b56fea264697066735822122085e5a083e379fef8bf8b7de305482a3102e5e7e953e2c1dd069928d937c7a12564736f6c63430008120033",
  "linkReferences": {},
  "deployedLinkReferences": {}
}