{
  "_format": "hh-sol-artifact-1",
  "contractName": "L1StandardBridge",
  "sourceName": "contracts/L1/messaging/L1StandardBridge.sol",
  "abi": [
    {
      "inputs": [],
      "stateMutability": "nonpayable",
      "type": "constructor"
    },
    {
      "anonymous": false,
      "inputs": [
        {
          "indexed": true,
          "internalType": "address",
          "name": "_l1Token",
          "type": "address"
        },
        {
          "indexed": true,
          "internalType": "address",
          "name": "_l2Token",
          "type": "address"
        },
        {
          "indexed": true,
          "internalType": "address",
          "name": "_from",
          "type": "address"
        },
        {
          "indexed": false,
          "internalType": "address",
          "name": "_to",
          "type": "address"
        },
        {
          "indexed": false,
          "internalType": "uint256",
          "name": "_amount",
          "type": "uint256"
        },
        {
          "indexed": false,
          "internalType": "bytes",
          "name": "_data",
          "type": "bytes"
        }
      ],
      "name": "ERC20DepositInitiated",
      "type": "event"
    },
    {
      "anonymous": false,
      "inputs": [
        {
          "indexed": true,
          "internalType": "address",
          "name": "_l1Token",
          "type": "address"
        },
        {
          "indexed": true,
          "internalType": "address",
          "name": "_l2Token",
          "type": "address"
        },
        {
          "indexed": true,
          "internalType": "address",
          "name": "_from",
          "type": "address"
        },
        {
          "indexed": false,
          "internalType": "address",
          "name": "_to",
          "type": "address"
        },
        {
          "indexed": false,
          "internalType": "uint256",
          "name": "_amount",
          "type": "uint256"
        },
        {
          "indexed": false,
          "internalType": "bytes",
          "name": "_data",
          "type": "bytes"
        }
      ],
      "name": "ERC20WithdrawalFinalized",
      "type": "event"
    },
    {
      "anonymous": false,
      "inputs": [
        {
          "indexed": true,
          "internalType": "address",
          "name": "_from",
          "type": "address"
        },
        {
          "indexed": true,
          "internalType": "address",
          "name": "_to",
          "type": "address"
        },
        {
          "indexed": false,
          "internalType": "uint256",
          "name": "_amount",
          "type": "uint256"
        },
        {
          "indexed": false,
          "internalType": "bytes",
          "name": "_data",
          "type": "bytes"
        }
      ],
      "name": "ETHDepositInitiated",
      "type": "event"
    },
    {
      "anonymous": false,
      "inputs": [
        {
          "indexed": true,
          "internalType": "address",
          "name": "_from",
          "type": "address"
        },
        {
          "indexed": true,
          "internalType": "address",
          "name": "_to",
          "type": "address"
        },
        {
          "indexed": false,
          "internalType": "uint256",
          "name": "_amount",
          "type": "uint256"
        },
        {
          "indexed": false,
          "internalType": "bytes",
          "name": "_data",
          "type": "bytes"
        }
      ],
      "name": "ETHWithdrawalFinalized",
      "type": "event"
    },
    {
      "inputs": [
        {
          "internalType": "address",
          "name": "_l1Token",
          "type": "address"
        },
        {
          "internalType": "address",
          "name": "_l2Token",
          "type": "address"
        },
        {
          "internalType": "uint256",
          "name": "_amount",
          "type": "uint256"
        },
        {
          "internalType": "uint32",
          "name": "_l2Gas",
          "type": "uint32"
        },
        {
          "internalType": "bytes",
          "name": "_data",
          "type": "bytes"
        }
      ],
      "name": "depositERC20",
      "outputs": [],
      "stateMutability": "nonpayable",
      "type": "function"
    },
    {
      "inputs": [
        {
          "internalType": "address",
          "name": "_l1Token",
          "type": "address"
        },
        {
          "internalType": "address",
          "name": "_l2Token",
          "type": "address"
        },
        {
          "internalType": "address",
          "name": "_to",
          "type": "address"
        },
        {
          "internalType": "uint256",
          "name": "_amount",
          "type": "uint256"
        },
        {
          "internalType": "uint32",
          "name": "_l2Gas",
          "type": "uint32"
        },
        {
          "internalType": "bytes",
          "name": "_data",
          "type": "bytes"
        }
      ],
      "name": "depositERC20To",
      "outputs": [],
      "stateMutability": "nonpayable",
      "type": "function"
    },
    {
      "inputs": [
        {
          "internalType": "uint32",
          "name": "_l2Gas",
          "type": "uint32"
        },
        {
          "internalType": "bytes",
          "name": "_data",
          "type": "bytes"
        }
      ],
      "name": "depositETH",
      "outputs": [],
      "stateMutability": "payable",
      "type": "function"
    },
    {
      "inputs": [
        {
          "internalType": "address",
          "name": "_to",
          "type": "address"
        },
        {
          "internalType": "uint32",
          "name": "_l2Gas",
          "type": "uint32"
        },
        {
          "internalType": "bytes",
          "name": "_data",
          "type": "bytes"
        }
      ],
      "name": "depositETHTo",
      "outputs": [],
      "stateMutability": "payable",
      "type": "function"
    },
    {
      "inputs": [
        {
          "internalType": "address",
          "name": "",
          "type": "address"
        },
        {
          "internalType": "address",
          "name": "",
          "type": "address"
        }
      ],
      "name": "deposits",
      "outputs": [
        {
          "internalType": "uint256",
          "name": "",
          "type": "uint256"
        }
      ],
      "stateMutability": "view",
      "type": "function"
    },
    {
      "inputs": [],
      "name": "donateETH",
      "outputs": [],
      "stateMutability": "payable",
      "type": "function"
    },
    {
      "inputs": [
        {
          "internalType": "address",
          "name": "_l1Token",
          "type": "address"
        },
        {
          "internalType": "address",
          "name": "_l2Token",
          "type": "address"
        },
        {
          "internalType": "address",
          "name": "_from",
          "type": "address"
        },
        {
          "internalType": "address",
          "name": "_to",
          "type": "address"
        },
        {
          "internalType": "uint256",
          "name": "_amount",
          "type": "uint256"
        },
        {
          "internalType": "bytes",
          "name": "_data",
          "type": "bytes"
        }
      ],
      "name": "finalizeERC20Withdrawal",
      "outputs": [],
      "stateMutability": "nonpayable",
      "type": "function"
    },
    {
      "inputs": [
        {
          "internalType": "address",
          "name": "_from",
          "type": "address"
        },
        {
          "internalType": "address",
          "name": "_to",
          "type": "address"
        },
        {
          "internalType": "uint256",
          "name": "_amount",
          "type": "uint256"
        },
        {
          "internalType": "bytes",
          "name": "_data",
          "type": "bytes"
        }
      ],
      "name": "finalizeETHWithdrawal",
      "outputs": [],
      "stateMutability": "nonpayable",
      "type": "function"
    },
    {
      "inputs": [
        {
          "internalType": "address",
          "name": "_l1messenger",
          "type": "address"
        },
        {
          "internalType": "address",
          "name": "_l2TokenBridge",
          "type": "address"
        }
      ],
      "name": "initialize",
      "outputs": [],
      "stateMutability": "nonpayable",
      "type": "function"
    },
    {
      "inputs": [],
      "name": "l2TokenBridge",
      "outputs": [
        {
          "internalType": "address",
          "name": "",
          "type": "address"
        }
      ],
      "stateMutability": "view",
      "type": "function"
    },
    {
      "inputs": [],
      "name": "messenger",
      "outputs": [
        {
          "internalType": "address",
          "name": "",
          "type": "address"
        }
      ],
      "stateMutability": "view",
      "type": "function"
    },
    {
      "stateMutability": "payable",
      "type": "receive"
    }
  ],
  "bytecode": "0x608060405234801561001057600080fd5b506000806000806101000a81548173ffffffffffffffffffffffffffffffffffffffff021916908373ffffffffffffffffffffffffffffffffffffffff160217905550506122a0806100636000396000f3fe6080604052600436106100a05760003560e01c80638b4c40b0116100645780638b4c40b0146101e25780638f601f66146101ec57806391c49bf8146102295780639a2ac6d514610254578063a9f9e67514610270578063b1a1a882146102995761010e565b80631532ec34146101135780633cb747bf1461013c578063485cc9551461016757806358a997f614610190578063838b2520146101b95761010e565b3661010e576100ae336102b5565b156100ee576040517f08c379a00000000000000000000000000000000000000000000000000000000081526004016100e590611417565b60405180910390fd5b61010c333362030d40604051806020016040528060008152506102d8565b005b600080fd5b34801561011f57600080fd5b5061013a6004803603810190610135919061153a565b61040c565b005b34801561014857600080fd5b506101516106f4565b60405161015e91906115d1565b60405180910390f35b34801561017357600080fd5b5061018e600480360381019061018991906115ec565b610718565b005b34801561019c57600080fd5b506101b760048036038101906101b29190611668565b61082c565b005b3480156101c557600080fd5b506101e060048036038101906101db9190611702565b61088d565b005b6101ea6108a6565b005b3480156101f857600080fd5b50610213600480360381019061020e91906115ec565b6108a8565b60405161022091906117c0565b60405180910390f35b34801561023557600080fd5b5061023e6108cd565b60405161024b91906115d1565b60405180910390f35b61026e600480360381019061026991906117db565b6108f3565b005b34801561027c57600080fd5b506102976004803603810190610292919061184f565b610949565b005b6102b360048036038101906102ae91906118fe565b610c83565b005b6000808273ffffffffffffffffffffffffffffffffffffffff163b119050919050565b600063662a633a60e01b600073deaddeaddeaddeaddeaddeaddeaddeaddead00008787348760405160240161031296959493929190611a0f565b604051602081830303815290604052907bffffffffffffffffffffffffffffffffffffffffffffffffffffffff19166020820180517bffffffffffffffffffffffffffffffffffffffffffffffffffffffff8381831617835250505050905061039e600160009054906101000a900473ffffffffffffffffffffffffffffffffffffffff168483610d21565b8373ffffffffffffffffffffffffffffffffffffffff168573ffffffffffffffffffffffffffffffffffffffff167f35d79ab81f2b2017e19afb5c5571778877782d7a8786f5907f93b0f4702f4f2334856040516103fd929190611a77565b60405180910390a35050505050565b600160009054906101000a900473ffffffffffffffffffffffffffffffffffffffff16610437610d9c565b73ffffffffffffffffffffffffffffffffffffffff163373ffffffffffffffffffffffffffffffffffffffff16146104a4576040517f08c379a000000000000000000000000000000000000000000000000000000000815260040161049b90611b19565b60405180910390fd5b8073ffffffffffffffffffffffffffffffffffffffff166104c3610d9c565b73ffffffffffffffffffffffffffffffffffffffff16636e296e456040518163ffffffff1660e01b8152600401602060405180830381865afa15801561050d573d6000803e3d6000fd5b505050506040513d601f19601f820116820180604052508101906105319190611b4e565b73ffffffffffffffffffffffffffffffffffffffff1614610587576040517f08c379a000000000000000000000000000000000000000000000000000000000815260040161057e90611bed565b60405180910390fd5b60008573ffffffffffffffffffffffffffffffffffffffff1685600067ffffffffffffffff8111156105bc576105bb611c0d565b5b6040519080825280601f01601f1916602001820160405280156105ee5781602001600182028036833780820191505090505b506040516105fc9190611c78565b60006040518083038185875af1925050503d8060008114610639576040519150601f19603f3d011682016040523d82523d6000602084013e61063e565b606091505b5050905080610682576040517f08c379a000000000000000000000000000000000000000000000000000000000815260040161067990611d01565b60405180910390fd5b8573ffffffffffffffffffffffffffffffffffffffff168773ffffffffffffffffffffffffffffffffffffffff167f2ac69ee804d9a7a0984249f508dfab7cb2534b465b6ce1580f99a38ba9c5e6318787876040516106e393929190611d5d565b60405180910390a350505050505050565b60008054906101000a900473ffffffffffffffffffffffffffffffffffffffff1681565b600073ffffffffffffffffffffffffffffffffffffffff1660008054906101000a900473ffffffffffffffffffffffffffffffffffffffff1673ffffffffffffffffffffffffffffffffffffffff16146107a7576040517f08c379a000000000000000000000000000000000000000000000000000000000815260040161079e90611e01565b60405180910390fd5b816000806101000a81548173ffffffffffffffffffffffffffffffffffffffff021916908373ffffffffffffffffffffffffffffffffffffffff16021790555080600160006101000a81548173ffffffffffffffffffffffffffffffffffffffff021916908373ffffffffffffffffffffffffffffffffffffffff1602179055505050565b610835336102b5565b15610875576040517f08c379a000000000000000000000000000000000000000000000000000000000815260040161086c90611417565b60405180910390fd5b6108858686333388888888610dc5565b505050505050565b61089d8787338888888888610dc5565b50505050505050565b565b6002602052816000526040600020602052806000526040600020600091509150505481565b600160009054906101000a900473ffffffffffffffffffffffffffffffffffffffff1681565b61094333858585858080601f016020809104026020016040519081016040528093929190818152602001838380828437600081840152601f19601f820116905080830192505050505050506102d8565b50505050565b600160009054906101000a900473ffffffffffffffffffffffffffffffffffffffff16610974610d9c565b73ffffffffffffffffffffffffffffffffffffffff163373ffffffffffffffffffffffffffffffffffffffff16146109e1576040517f08c379a00000000000000000000000000000000000000000000000000000000081526004016109d890611b19565b60405180910390fd5b8073ffffffffffffffffffffffffffffffffffffffff16610a00610d9c565b73ffffffffffffffffffffffffffffffffffffffff16636e296e456040518163ffffffff1660e01b8152600401602060405180830381865afa158015610a4a573d6000803e3d6000fd5b505050506040513d601f19601f82011682018060405250810190610a6e9190611b4e565b73ffffffffffffffffffffffffffffffffffffffff1614610ac4576040517f08c379a0000000000000000000000000000000000000000000000000000000008152600401610abb90611bed565b60405180910390fd5b83600260008a73ffffffffffffffffffffffffffffffffffffffff1673ffffffffffffffffffffffffffffffffffffffff16815260200190815260200160002060008973ffffffffffffffffffffffffffffffffffffffff1673ffffffffffffffffffffffffffffffffffffffff16815260200190815260200160002054610b4c9190611e50565b600260008a73ffffffffffffffffffffffffffffffffffffffff1673ffffffffffffffffffffffffffffffffffffffff16815260200190815260200160002060008973ffffffffffffffffffffffffffffffffffffffff1673ffffffffffffffffffffffffffffffffffffffff16815260200190815260200160002081905550610bf785858a73ffffffffffffffffffffffffffffffffffffffff1661103a9092919063ffffffff16565b8573ffffffffffffffffffffffffffffffffffffffff168773ffffffffffffffffffffffffffffffffffffffff168973ffffffffffffffffffffffffffffffffffffffff167f3ceee06c1e37648fcbb6ed52e17b3e1f275a1f8c7b22a84b2b84732431e046b388888888604051610c719493929190611e84565b60405180910390a45050505050505050565b610c8c336102b5565b15610ccc576040517f08c379a0000000000000000000000000000000000000000000000000000000008152600401610cc390611417565b60405180910390fd5b610d1c33338585858080601f016020809104026020016040519081016040528093929190818152602001838380828437600081840152601f19601f820116905080830192505050505050506102d8565b505050565b610d29610d9c565b73ffffffffffffffffffffffffffffffffffffffff16633dbb202b8483856040518463ffffffff1660e01b8152600401610d6593929190611ed3565b600060405180830381600087803b158015610d7f57600080fd5b505af1158015610d93573d6000803e3d6000fd5b50505050505050565b60008060009054906101000a900473ffffffffffffffffffffffffffffffffffffffff16905090565b610df28630868b73ffffffffffffffffffffffffffffffffffffffff166110c0909392919063ffffffff16565b600063662a633a60e01b89898989898888604051602401610e199796959493929190611f11565b604051602081830303815290604052907bffffffffffffffffffffffffffffffffffffffffffffffffffffffff19166020820180517bffffffffffffffffffffffffffffffffffffffffffffffffffffffff83818316178352505050509050610ea5600160009054906101000a900473ffffffffffffffffffffffffffffffffffffffff168583610d21565b84600260008b73ffffffffffffffffffffffffffffffffffffffff1673ffffffffffffffffffffffffffffffffffffffff16815260200190815260200160002060008a73ffffffffffffffffffffffffffffffffffffffff1673ffffffffffffffffffffffffffffffffffffffff16815260200190815260200160002054610f2d9190611f7b565b600260008b73ffffffffffffffffffffffffffffffffffffffff1673ffffffffffffffffffffffffffffffffffffffff16815260200190815260200160002060008a73ffffffffffffffffffffffffffffffffffffffff1673ffffffffffffffffffffffffffffffffffffffff168152602001908152602001600020819055508673ffffffffffffffffffffffffffffffffffffffff168873ffffffffffffffffffffffffffffffffffffffff168a73ffffffffffffffffffffffffffffffffffffffff167f718594027abd4eaed59f95162563e0cc6d0e8d5b86b1c7be8b1b0ac3343d0396898988886040516110279493929190611e84565b60405180910390a4505050505050505050565b6110bb8363a9059cbb60e01b8484604051602401611059929190611faf565b604051602081830303815290604052907bffffffffffffffffffffffffffffffffffffffffffffffffffffffff19166020820180517bffffffffffffffffffffffffffffffffffffffffffffffffffffffff8381831617835250505050611149565b505050565b611143846323b872dd60e01b8585856040516024016110e193929190611fd8565b604051602081830303815290604052907bffffffffffffffffffffffffffffffffffffffffffffffffffffffff19166020820180517bffffffffffffffffffffffffffffffffffffffffffffffffffffffff8381831617835250505050611149565b50505050565b60006111ab826040518060400160405280602081526020017f5361666545524332303a206c6f772d6c6576656c2063616c6c206661696c65648152508573ffffffffffffffffffffffffffffffffffffffff166112109092919063ffffffff16565b905060008151111561120b57808060200190518101906111cb9190612047565b61120a576040517f08c379a0000000000000000000000000000000000000000000000000000000008152600401611201906120e6565b60405180910390fd5b5b505050565b606061121f8484600085611228565b90509392505050565b60608247101561126d576040517f08c379a000000000000000000000000000000000000000000000000000000000815260040161126490612178565b60405180910390fd5b6000808673ffffffffffffffffffffffffffffffffffffffff1685876040516112969190611c78565b60006040518083038185875af1925050503d80600081146112d3576040519150601f19603f3d011682016040523d82523d6000602084013e6112d8565b606091505b50915091506112e9878383876112f5565b92505050949350505050565b6060831561135757600083510361134f5761130f856102b5565b61134e576040517f08c379a0000000000000000000000000000000000000000000000000000000008152600401611345906121e4565b60405180910390fd5b5b829050611362565b611361838361136a565b5b949350505050565b60008251111561137d5781518083602001fd5b806040517f08c379a00000000000000000000000000000000000000000000000000000000081526004016113b19190612248565b60405180910390fd5b600082825260208201905092915050565b7f4163636f756e74206e6f7420454f410000000000000000000000000000000000600082015250565b6000611401600f836113ba565b915061140c826113cb565b602082019050919050565b60006020820190508181036000830152611430816113f4565b9050919050565b600080fd5b600080fd5b600073ffffffffffffffffffffffffffffffffffffffff82169050919050565b600061146c82611441565b9050919050565b61147c81611461565b811461148757600080fd5b50565b60008135905061149981611473565b92915050565b6000819050919050565b6114b28161149f565b81146114bd57600080fd5b50565b6000813590506114cf816114a9565b92915050565b600080fd5b600080fd5b600080fd5b60008083601f8401126114fa576114f96114d5565b5b8235905067ffffffffffffffff811115611517576115166114da565b5b602083019150836001820283011115611533576115326114df565b5b9250929050565b60008060008060006080868803121561155657611555611437565b5b60006115648882890161148a565b95505060206115758882890161148a565b9450506040611586888289016114c0565b935050606086013567ffffffffffffffff8111156115a7576115a661143c565b5b6115b3888289016114e4565b92509250509295509295909350565b6115cb81611461565b82525050565b60006020820190506115e660008301846115c2565b92915050565b6000806040838503121561160357611602611437565b5b60006116118582860161148a565b92505060206116228582860161148a565b9150509250929050565b600063ffffffff82169050919050565b6116458161162c565b811461165057600080fd5b50565b6000813590506116628161163c565b92915050565b60008060008060008060a0878903121561168557611684611437565b5b600061169389828a0161148a565b96505060206116a489828a0161148a565b95505060406116b589828a016114c0565b94505060606116c689828a01611653565b935050608087013567ffffffffffffffff8111156116e7576116e661143c565b5b6116f389828a016114e4565b92509250509295509295509295565b600080600080600080600060c0888a03121561172157611720611437565b5b600061172f8a828b0161148a565b97505060206117408a828b0161148a565b96505060406117518a828b0161148a565b95505060606117628a828b016114c0565b94505060806117738a828b01611653565b93505060a088013567ffffffffffffffff8111156117945761179361143c565b5b6117a08a828b016114e4565b925092505092959891949750929550565b6117ba8161149f565b82525050565b60006020820190506117d560008301846117b1565b92915050565b600080600080606085870312156117f5576117f4611437565b5b60006118038782880161148a565b945050602061181487828801611653565b935050604085013567ffffffffffffffff8111156118355761183461143c565b5b611841878288016114e4565b925092505092959194509250565b600080600080600080600060c0888a03121561186e5761186d611437565b5b600061187c8a828b0161148a565b975050602061188d8a828b0161148a565b965050604061189e8a828b0161148a565b95505060606118af8a828b0161148a565b94505060806118c08a828b016114c0565b93505060a088013567ffffffffffffffff8111156118e1576118e061143c565b5b6118ed8a828b016114e4565b925092505092959891949750929550565b60008060006040848603121561191757611916611437565b5b600061192586828701611653565b935050602084013567ffffffffffffffff8111156119465761194561143c565b5b611952868287016114e4565b92509250509250925092565b600061196982611441565b9050919050565b6119798161195e565b82525050565b600081519050919050565b600082825260208201905092915050565b60005b838110156119b957808201518184015260208101905061199e565b60008484015250505050565b6000601f19601f8301169050919050565b60006119e18261197f565b6119eb818561198a565b93506119fb81856020860161199b565b611a04816119c5565b840191505092915050565b600060c082019050611a2460008301896115c2565b611a316020830188611970565b611a3e60408301876115c2565b611a4b60608301866115c2565b611a5860808301856117b1565b81810360a0830152611a6a81846119d6565b9050979650505050505050565b6000604082019050611a8c60008301856117b1565b8181036020830152611a9e81846119d6565b90509392505050565b7f4f564d5f58434841494e3a206d657373656e67657220636f6e7472616374207560008201527f6e61757468656e74696361746564000000000000000000000000000000000000602082015250565b6000611b03602e836113ba565b9150611b0e82611aa7565b604082019050919050565b60006020820190508181036000830152611b3281611af6565b9050919050565b600081519050611b4881611473565b92915050565b600060208284031215611b6457611b63611437565b5b6000611b7284828501611b39565b91505092915050565b7f4f564d5f58434841494e3a2077726f6e672073656e646572206f662063726f7360008201527f732d646f6d61696e206d65737361676500000000000000000000000000000000602082015250565b6000611bd76030836113ba565b9150611be282611b7b565b604082019050919050565b60006020820190508181036000830152611c0681611bca565b9050919050565b7f4e487b7100000000000000000000000000000000000000000000000000000000600052604160045260246000fd5b600081905092915050565b6000611c528261197f565b611c5c8185611c3c565b9350611c6c81856020860161199b565b80840191505092915050565b6000611c848284611c47565b915081905092915050565b7f5472616e7366657248656c7065723a3a736166655472616e736665724554483a60008201527f20455448207472616e73666572206661696c6564000000000000000000000000602082015250565b6000611ceb6034836113ba565b9150611cf682611c8f565b604082019050919050565b60006020820190508181036000830152611d1a81611cde565b9050919050565b82818337600083830152505050565b6000611d3c838561198a565b9350611d49838584611d21565b611d52836119c5565b840190509392505050565b6000604082019050611d7260008301866117b1565b8181036020830152611d85818486611d30565b9050949350505050565b7f436f6e74726163742068617320616c7265616479206265656e20696e6974696160008201527f6c697a65642e0000000000000000000000000000000000000000000000000000602082015250565b6000611deb6026836113ba565b9150611df682611d8f565b604082019050919050565b60006020820190508181036000830152611e1a81611dde565b9050919050565b7f4e487b7100000000000000000000000000000000000000000000000000000000600052601160045260246000fd5b6000611e5b8261149f565b9150611e668361149f565b9250828203905081811115611e7e57611e7d611e21565b5b92915050565b6000606082019050611e9960008301876115c2565b611ea660208301866117b1565b8181036040830152611eb9818486611d30565b905095945050505050565b611ecd8161162c565b82525050565b6000606082019050611ee860008301866115c2565b8181036020830152611efa81856119d6565b9050611f096040830184611ec4565b949350505050565b600060c082019050611f26600083018a6115c2565b611f3360208301896115c2565b611f4060408301886115c2565b611f4d60608301876115c2565b611f5a60808301866117b1565b81810360a0830152611f6d818486611d30565b905098975050505050505050565b6000611f868261149f565b9150611f918361149f565b9250828201905080821115611fa957611fa8611e21565b5b92915050565b6000604082019050611fc460008301856115c2565b611fd160208301846117b1565b9392505050565b6000606082019050611fed60008301866115c2565b611ffa60208301856115c2565b61200760408301846117b1565b949350505050565b60008115159050919050565b6120248161200f565b811461202f57600080fd5b50565b6000815190506120418161201b565b92915050565b60006020828403121561205d5761205c611437565b5b600061206b84828501612032565b91505092915050565b7f5361666545524332303a204552433230206f7065726174696f6e20646964206e60008201527f6f74207375636365656400000000000000000000000000000000000000000000602082015250565b60006120d0602a836113ba565b91506120db82612074565b604082019050919050565b600060208201905081810360008301526120ff816120c3565b9050919050565b7f416464726573733a20696e73756666696369656e742062616c616e636520666f60008201527f722063616c6c0000000000000000000000000000000000000000000000000000602082015250565b60006121626026836113ba565b915061216d82612106565b604082019050919050565b6000602082019050818103600083015261219181612155565b9050919050565b7f416464726573733a2063616c6c20746f206e6f6e2d636f6e7472616374000000600082015250565b60006121ce601d836113ba565b91506121d982612198565b602082019050919050565b600060208201905081810360008301526121fd816121c1565b9050919050565b600081519050919050565b600061221a82612204565b61222481856113ba565b935061223481856020860161199b565b61223d816119c5565b840191505092915050565b60006020820190508181036000830152612262818461220f565b90509291505056fea264697066735822122097742ddc6b104c39b8026a86f3c1f6bd7b134e88fa1332c5b00817b6b2c90de264736f6c63430008120033",
  "linkReferences": {},
  "deployedLinkReferences": {}
}