{
  "_format": "hh-sol-artifact-1",
  "contractName": "SimpleNFT",
  "sourceName": "contracts/SimpleNFT.sol",
  "abi": [
    {
      "inputs": [
        {
          "internalType": "string",
          "name": "name_",
          "type": "string"
        },
        {
          "internalType": "string",
          "name": "symbol_",
          "type": "string"
        }
      ],
      "stateMutability": "nonpayable",
      "type": "constructor"
    },
    {
      "anonymous": false,
      "inputs": [
        {
          "indexed": true,
          "internalType": "address",
          "name": "owner",
          "type": "address"
        },
        {
          "indexed": true,
          "internalType": "address",
          "name": "approved",
          "type": "address"
        },
        {
          "indexed": true,
          "internalType": "uint256",
          "name": "tokenId",
          "type": "uint256"
        }
      ],
      "name": "Approval",
      "type": "event"
    },
    {
      "anonymous": false,
      "inputs": [
        {
          "indexed": true,
          "internalType": "address",
          "name": "owner",
          "type": "address"
        },
        {
          "indexed": true,
          "internalType": "address",
          "name": "operator",
          "type": "address"
        },
        {
          "indexed": false,
          "internalType": "bool",
          "name": "approved",
          "type": "bool"
        }
      ],
      "name": "ApprovalForAll",
      "type": "event"
    },
    {
      "anonymous": false,
      "inputs": [
        {
          "indexed": true,
          "internalType": "address",
          "name": "from",
          "type": "address"
        },
        {
          "indexed": true,
          "internalType": "address",
          "name": "to",
          "type": "address"
        },
        {
          "indexed": true,
          "internalType": "uint256",
          "name": "tokenId",
          "type": "uint256"
        }
      ],
      "name": "Transfer",
      "type": "event"
    },
    {
      "inputs": [
        {
          "internalType": "address",
          "name": "to",
          "type": "address"
        },
        {
          "internalType": "uint256",
          "name": "tokenId",
          "type": "uint256"
        }
      ],
      "name": "approve",
      "outputs": [],
      "stateMutability": "nonpayable",
      "type": "function"
    },
    {
      "inputs": [
        {
          "internalType": "address",
          "name": "owner",
          "type": "address"
        }
      ],
      "name": "balanceOf",
      "outputs": [
        {
          "internalType": "uint256",
          "name": "",
          "type": "uint256"
        }
      ],
      "stateMutability": "view",
      "type": "function"
    },
    {
      "inputs": [
        {
          "internalType": "uint256",
          "name": "id",
          "type": "uint256"
        }
      ],
      "name": "burn",
      "outputs": [],
      "stateMutability": "nonpayable",
      "type": "function"
    },
    {
      "inputs": [
        {
          "internalType": "uint256",
          "name": "tokenId",
          "type": "uint256"
        }
      ],
      "name": "getApproved",
      "outputs": [
        {
          "internalType": "address",
          "name": "",
          "type": "address"
        }
      ],
      "stateMutability": "view",
      "type": "function"
    },
    {
      "inputs": [
        {
          "internalType": "address",
          "name": "owner",
          "type": "address"
        },
        {
          "internalType": "address",
          "name": "operator",
          "type": "address"
        }
      ],
      "name": "isApprovedForAll",
      "outputs": [
        {
          "internalType": "bool",
          "name": "",
          "type": "bool"
        }
      ],
      "stateMutability": "view",
      "type": "function"
    },
    {
      "inputs": [
        {
          "internalType": "address",
          "name": "to",
          "type": "address"
        },
        {
          "internalType": "uint256",
          "name": "id",
          "type": "uint256"
        },
        {
          "internalType": "string",
          "name": "uri",
          "type": "string"
        }
      ],
      "name": "mint",
      "outputs": [],
      "stateMutability": "nonpayable",
      "type": "function"
    },
    {
      "inputs": [],
      "name": "name",
      "outputs": [
        {
          "internalType": "string",
          "name": "",
          "type": "string"
        }
      ],
      "stateMutability": "view",
      "type": "function"
    },
    {
      "inputs": [
        {
          "internalType": "uint256",
          "name": "tokenId",
          "type": "uint256"
        }
      ],
      "name": "ownerOf",
      "outputs": [
        {
          "internalType": "address",
          "name": "",
          "type": "address"
        }
      ],
      "stateMutability": "view",
      "type": "function"
    },
    {
      "inputs": [
        {
          "internalType": "address",
          "name": "from",
          "type": "address"
        },
        {
          "internalType": "address",
          "name": "to",
          "type": "address"
        },
        {
          "internalType": "uint256",
          "name": "tokenId",
          "type": "uint256"
        }
      ],
      "name": "safeTransferFrom",
      "outputs": [],
      "stateMutability": "nonpayable",
      "type": "function"
    },
    {
      "inputs": [
        {
          "internalType": "address",
          "name": "from",
          "type": "address"
        },
        {
          "internalType": "address",
          "name": "to",
          "type": "address"
        },
        {
          "internalType": "uint256",
          "name": "tokenId",
          "type": "uint256"
        },
        {
          "internalType": "bytes",
          "name": "data",
          "type": "bytes"
        }
      ],
      "name": "safeTransferFrom",
      "outputs": [],
      "stateMutability": "nonpayable",
      "type": "function"
    },
    {
      "inputs": [
        {
          "internalType": "address",
          "name": "operator",
          "type": "address"
        },
        {
          "internalType": "bool",
          "name": "approved",
          "type": "bool"
        }
      ],
      "name": "setApprovalForAll",
      "outputs": [],
      "stateMutability": "nonpayable",
      "type": "function"
    },
    {
      "inputs": [
        {
          "internalType": "bytes4",
          "name": "interfaceId",
          "type": "bytes4"
        }
      ],
      "name": "supportsInterface",
      "outputs": [
        {
          "internalType": "bool",
          "name": "",
          "type": "bool"
        }
      ],
      "stateMutability": "view",
      "type": "function"
    },
    {
      "inputs": [],
      "name": "symbol",
      "outputs": [
        {
          "internalType": "string",
          "name": "",
          "type": "string"
        }
      ],
      "stateMutability": "view",
      "type": "function"
    },
    {
      "inputs": [
        {
          "internalType": "uint256",
          "name": "tokenId",
          "type": "uint256"
        }
      ],
      "name": "tokenURI",
      "outputs": [
        {
          "internalType": "string",
          "name": "",
          "type": "string"
        }
      ],
      "stateMutability": "view",
      "type": "function"
    },
    {
      "inputs": [
        {
          "internalType": "address",
          "name": "from",
          "type": "address"
        },
        {
          "internalType": "address",
          "name": "to",
          "type": "address"
        },
        {
          "internalType": "uint256",
          "name": "tokenId",
          "type": "uint256"
        }
      ],
      "name": "transferFrom",
      "outputs": [],
      "stateMutability": "nonpayable",
      "type": "function"
    }
  ],
  "bytecode": "0x60806040523480156200001157600080fd5b5060405162002e2b38038062002e2b8339818101604052810190620000379190620002c2565b818181600090805190602001906200005192919062000075565b5080600190805190602001906200006a92919062000075565b5050505050620003ac565b828054620000839062000376565b90600052602060002090601f016020900481019282620000a75760008555620000f3565b82601f10620000c257805160ff1916838001178555620000f3565b82800160010185558215620000f3579182015b82811115620000f2578251825591602001919060010190620000d5565b5b50905062000102919062000106565b5090565b5b808211156200012157600081600090555060010162000107565b5090565b6000604051905090565b600080fd5b600080fd5b600080fd5b600080fd5b6000601f19601f8301169050919050565b7f4e487b7100000000000000000000000000000000000000000000000000000000600052604160045260246000fd5b6200018e8262000143565b810181811067ffffffffffffffff82111715620001b057620001af62000154565b5b80604052505050565b6000620001c562000125565b9050620001d3828262000183565b919050565b600067ffffffffffffffff821115620001f657620001f562000154565b5b620002018262000143565b9050602081019050919050565b60005b838110156200022e57808201518184015260208101905062000211565b838111156200023e576000848401525b50505050565b60006200025b6200025584620001d8565b620001b9565b9050828152602081018484840111156200027a57620002796200013e565b5b620002878482856200020e565b509392505050565b600082601f830112620002a757620002a662000139565b5b8151620002b984826020860162000244565b91505092915050565b60008060408385031215620002dc57620002db6200012f565b5b600083015167ffffffffffffffff811115620002fd57620002fc62000134565b5b6200030b858286016200028f565b925050602083015167ffffffffffffffff8111156200032f576200032e62000134565b5b6200033d858286016200028f565b9150509250929050565b7f4e487b7100000000000000000000000000000000000000000000000000000000600052602260045260246000fd5b600060028204905060018216806200038f57607f821691505b60208210811415620003a657620003a562000347565b5b50919050565b612a6f80620003bc6000396000f3fe608060405234801561001057600080fd5b50600436106100f55760003560e01c80636352211e11610097578063b88d4fde11610066578063b88d4fde14610282578063c87b56dd1461029e578063d3fc9864146102ce578063e985e9c5146102ea576100f5565b80636352211e146101e857806370a082311461021857806395d89b4114610248578063a22cb46514610266576100f5565b8063095ea7b3116100d3578063095ea7b31461017857806323b872dd1461019457806342842e0e146101b057806342966c68146101cc576100f5565b806301ffc9a7146100fa57806306fdde031461012a578063081812fc14610148575b600080fd5b610114600480360381019061010f9190611bbf565b61031a565b6040516101219190611c07565b60405180910390f35b6101326103fc565b60405161013f9190611cbb565b60405180910390f35b610162600480360381019061015d9190611d13565b61048e565b60405161016f9190611d81565b60405180910390f35b610192600480360381019061018d9190611dc8565b6104d4565b005b6101ae60048036038101906101a99190611e08565b6105ec565b005b6101ca60048036038101906101c59190611e08565b61064c565b005b6101e660048036038101906101e19190611d13565b61066c565b005b61020260048036038101906101fd9190611d13565b610678565b60405161020f9190611d81565b60405180910390f35b610232600480360381019061022d9190611e5b565b6106ff565b60405161023f9190611e97565b60405180910390f35b6102506107b7565b60405161025d9190611cbb565b60405180910390f35b610280600480360381019061027b9190611ede565b610849565b005b61029c60048036038101906102979190612053565b61085f565b005b6102b860048036038101906102b39190611d13565b6108c1565b6040516102c59190611cbb565b60405180910390f35b6102e860048036038101906102e39190612177565b6109d4565b005b61030460048036038101906102ff91906121e6565b6109ed565b6040516103119190611c07565b60405180910390f35b60007f80ac58cd000000000000000000000000000000000000000000000000000000007bffffffffffffffffffffffffffffffffffffffffffffffffffffffff1916827bffffffffffffffffffffffffffffffffffffffffffffffffffffffff191614806103e557507f5b5e139f000000000000000000000000000000000000000000000000000000007bffffffffffffffffffffffffffffffffffffffffffffffffffffffff1916827bffffffffffffffffffffffffffffffffffffffffffffffffffffffff1916145b806103f557506103f482610a81565b5b9050919050565b60606000805461040b90612255565b80601f016020809104026020016040519081016040528092919081815260200182805461043790612255565b80156104845780601f1061045957610100808354040283529160200191610484565b820191906000526020600020905b81548152906001019060200180831161046757829003601f168201915b5050505050905090565b600061049982610aeb565b6004600083815260200190815260200160002060009054906101000a900473ffffffffffffffffffffffffffffffffffffffff169050919050565b60006104df82610678565b90508073ffffffffffffffffffffffffffffffffffffffff168373ffffffffffffffffffffffffffffffffffffffff161415610550576040517f08c379a0000000000000000000000000000000000000000000000000000000008152600401610547906122f9565b60405180910390fd5b8073ffffffffffffffffffffffffffffffffffffffff1661056f610b36565b73ffffffffffffffffffffffffffffffffffffffff16148061059e575061059d81610598610b36565b6109ed565b5b6105dd576040517f08c379a00000000000000000000000000000000000000000000000000000000081526004016105d49061238b565b60405180910390fd5b6105e78383610b3e565b505050565b6105fd6105f7610b36565b82610bf7565b61063c576040517f08c379a00000000000000000000000000000000000000000000000000000000081526004016106339061241d565b60405180910390fd5b610647838383610c8c565b505050565b6106678383836040518060200160405280600081525061085f565b505050565b61067581610f86565b50565b60008061068483610fd9565b9050600073ffffffffffffffffffffffffffffffffffffffff168173ffffffffffffffffffffffffffffffffffffffff1614156106f6576040517f08c379a00000000000000000000000000000000000000000000000000000000081526004016106ed90612489565b60405180910390fd5b80915050919050565b60008073ffffffffffffffffffffffffffffffffffffffff168273ffffffffffffffffffffffffffffffffffffffff161415610770576040517f08c379a00000000000000000000000000000000000000000000000000000000081526004016107679061251b565b60405180910390fd5b600360008373ffffffffffffffffffffffffffffffffffffffff1673ffffffffffffffffffffffffffffffffffffffff168152602001908152602001600020549050919050565b6060600180546107c690612255565b80601f01602080910402602001604051908101604052809291908181526020018280546107f290612255565b801561083f5780601f106108145761010080835404028352916020019161083f565b820191906000526020600020905b81548152906001019060200180831161082257829003601f168201915b5050505050905090565b61085b610854610b36565b8383611016565b5050565b61087061086a610b36565b83610bf7565b6108af576040517f08c379a00000000000000000000000000000000000000000000000000000000081526004016108a69061241d565b60405180910390fd5b6108bb84848484611183565b50505050565b60606108cc82610aeb565b60006006600084815260200190815260200160002080546108ec90612255565b80601f016020809104026020016040519081016040528092919081815260200182805461091890612255565b80156109655780601f1061093a57610100808354040283529160200191610965565b820191906000526020600020905b81548152906001019060200180831161094857829003601f168201915b5050505050905060006109766111df565b905060008151141561098c5781925050506109cf565b6000825111156109c15780826040516020016109a9929190612577565b604051602081830303815290604052925050506109cf565b6109ca846111f6565b925050505b919050565b6109de838361125e565b6109e8828261147c565b505050565b6000600560008473ffffffffffffffffffffffffffffffffffffffff1673ffffffffffffffffffffffffffffffffffffffff16815260200190815260200160002060008373ffffffffffffffffffffffffffffffffffffffff1673ffffffffffffffffffffffffffffffffffffffff16815260200190815260200160002060009054906101000a900460ff16905092915050565b60007f01ffc9a7000000000000000000000000000000000000000000000000000000007bffffffffffffffffffffffffffffffffffffffffffffffffffffffff1916827bffffffffffffffffffffffffffffffffffffffffffffffffffffffff1916149050919050565b610af4816114f0565b610b33576040517f08c379a0000000000000000000000000000000000000000000000000000000008152600401610b2a90612489565b60405180910390fd5b50565b600033905090565b816004600083815260200190815260200160002060006101000a81548173ffffffffffffffffffffffffffffffffffffffff021916908373ffffffffffffffffffffffffffffffffffffffff160217905550808273ffffffffffffffffffffffffffffffffffffffff16610bb183610678565b73ffffffffffffffffffffffffffffffffffffffff167f8c5be1e5ebec7d5bd14f71427d1e84f3dd0314c0f7b2291e5b200ac8c7c3b92560405160405180910390a45050565b600080610c0383610678565b90508073ffffffffffffffffffffffffffffffffffffffff168473ffffffffffffffffffffffffffffffffffffffff161480610c455750610c4481856109ed565b5b80610c8357508373ffffffffffffffffffffffffffffffffffffffff16610c6b8461048e565b73ffffffffffffffffffffffffffffffffffffffff16145b91505092915050565b8273ffffffffffffffffffffffffffffffffffffffff16610cac82610678565b73ffffffffffffffffffffffffffffffffffffffff1614610d02576040517f08c379a0000000000000000000000000000000000000000000000000000000008152600401610cf99061260d565b60405180910390fd5b600073ffffffffffffffffffffffffffffffffffffffff168273ffffffffffffffffffffffffffffffffffffffff161415610d72576040517f08c379a0000000000000000000000000000000000000000000000000000000008152600401610d699061269f565b60405180910390fd5b610d7f8383836001611531565b8273ffffffffffffffffffffffffffffffffffffffff16610d9f82610678565b73ffffffffffffffffffffffffffffffffffffffff1614610df5576040517f08c379a0000000000000000000000000000000000000000000000000000000008152600401610dec9061260d565b60405180910390fd5b6004600082815260200190815260200160002060006101000a81549073ffffffffffffffffffffffffffffffffffffffff02191690556001600360008573ffffffffffffffffffffffffffffffffffffffff1673ffffffffffffffffffffffffffffffffffffffff168152602001908152602001600020600082825403925050819055506001600360008473ffffffffffffffffffffffffffffffffffffffff1673ffffffffffffffffffffffffffffffffffffffff16815260200190815260200160002060008282540192505081905550816002600083815260200190815260200160002060006101000a81548173ffffffffffffffffffffffffffffffffffffffff021916908373ffffffffffffffffffffffffffffffffffffffff160217905550808273ffffffffffffffffffffffffffffffffffffffff168473ffffffffffffffffffffffffffffffffffffffff167fddf252ad1be2c89b69c2b068fc378daa952ba7f163c4a11628f55a4df523b3ef60405160405180910390a4610f818383836001611537565b505050565b610f8f8161153d565b6000600660008381526020019081526020016000208054610faf90612255565b905014610fd657600660008281526020019081526020016000206000610fd59190611a70565b5b50565b60006002600083815260200190815260200160002060009054906101000a900473ffffffffffffffffffffffffffffffffffffffff169050919050565b8173ffffffffffffffffffffffffffffffffffffffff168373ffffffffffffffffffffffffffffffffffffffff161415611085576040517f08c379a000000000000000000000000000000000000000000000000000000000815260040161107c9061270b565b60405180910390fd5b80600560008573ffffffffffffffffffffffffffffffffffffffff1673ffffffffffffffffffffffffffffffffffffffff16815260200190815260200160002060008473ffffffffffffffffffffffffffffffffffffffff1673ffffffffffffffffffffffffffffffffffffffff16815260200190815260200160002060006101000a81548160ff0219169083151502179055508173ffffffffffffffffffffffffffffffffffffffff168373ffffffffffffffffffffffffffffffffffffffff167f17307eab39ab6107e8899845ad3d59bd9653f200f220920489ca2b5937696c31836040516111769190611c07565b60405180910390a3505050565b61118e848484610c8c565b61119a8484848461168b565b6111d9576040517f08c379a00000000000000000000000000000000000000000000000000000000081526004016111d09061279d565b60405180910390fd5b50505050565b606060405180602001604052806000815250905090565b606061120182610aeb565b600061120b6111df565b9050600081511161122b5760405180602001604052806000815250611256565b8061123584611822565b604051602001611246929190612577565b6040516020818303038152906040525b915050919050565b600073ffffffffffffffffffffffffffffffffffffffff168273ffffffffffffffffffffffffffffffffffffffff1614156112ce576040517f08c379a00000000000000000000000000000000000000000000000000000000081526004016112c590612809565b60405180910390fd5b6112d7816114f0565b15611317576040517f08c379a000000000000000000000000000000000000000000000000000000000815260040161130e90612875565b60405180910390fd5b611325600083836001611531565b61132e816114f0565b1561136e576040517f08c379a000000000000000000000000000000000000000000000000000000000815260040161136590612875565b60405180910390fd5b6001600360008473ffffffffffffffffffffffffffffffffffffffff1673ffffffffffffffffffffffffffffffffffffffff16815260200190815260200160002060008282540192505081905550816002600083815260200190815260200160002060006101000a81548173ffffffffffffffffffffffffffffffffffffffff021916908373ffffffffffffffffffffffffffffffffffffffff160217905550808273ffffffffffffffffffffffffffffffffffffffff16600073ffffffffffffffffffffffffffffffffffffffff167fddf252ad1be2c89b69c2b068fc378daa952ba7f163c4a11628f55a4df523b3ef60405160405180910390a4611478600083836001611537565b5050565b611485826114f0565b6114c4576040517f08c379a00000000000000000000000000000000000000000000000000000000081526004016114bb90612907565b60405180910390fd5b806006600084815260200190815260200160002090805190602001906114eb929190611ab0565b505050565b60008073ffffffffffffffffffffffffffffffffffffffff1661151283610fd9565b73ffffffffffffffffffffffffffffffffffffffff1614159050919050565b50505050565b50505050565b600061154882610678565b9050611558816000846001611531565b61156182610678565b90506004600083815260200190815260200160002060006101000a81549073ffffffffffffffffffffffffffffffffffffffff02191690556001600360008373ffffffffffffffffffffffffffffffffffffffff1673ffffffffffffffffffffffffffffffffffffffff168152602001908152602001600020600082825403925050819055506002600083815260200190815260200160002060006101000a81549073ffffffffffffffffffffffffffffffffffffffff021916905581600073ffffffffffffffffffffffffffffffffffffffff168273ffffffffffffffffffffffffffffffffffffffff167fddf252ad1be2c89b69c2b068fc378daa952ba7f163c4a11628f55a4df523b3ef60405160405180910390a4611687816000846001611537565b5050565b60006116ac8473ffffffffffffffffffffffffffffffffffffffff166118fa565b15611815578373ffffffffffffffffffffffffffffffffffffffff1663150b7a026116d5610b36565b8786866040518563ffffffff1660e01b81526004016116f7949392919061297c565b602060405180830381600087803b15801561171157600080fd5b505af192505050801561174257506040513d601f19601f8201168201806040525081019061173f91906129dd565b60015b6117c5573d8060008114611772576040519150601f19603f3d011682016040523d82523d6000602084013e611777565b606091505b506000815114156117bd576040517f08c379a00000000000000000000000000000000000000000000000000000000081526004016117b49061279d565b60405180910390fd5b805181602001fd5b63150b7a0260e01b7bffffffffffffffffffffffffffffffffffffffffffffffffffffffff1916817bffffffffffffffffffffffffffffffffffffffffffffffffffffffff19161491505061181a565b600190505b949350505050565b6060600060016118318461191d565b01905060008167ffffffffffffffff8111156118505761184f611f28565b5b6040519080825280601f01601f1916602001820160405280156118825781602001600182028036833780820191505090505b509050600082602001820190505b6001156118ef578080600190039150507f3031323334353637383961626364656600000000000000000000000000000000600a86061a8153600a85816118d9576118d8612a0a565b5b04945060008514156118ea576118ef565b611890565b819350505050919050565b6000808273ffffffffffffffffffffffffffffffffffffffff163b119050919050565b600080600090507a184f03e93ff9f4daa797ed6e38ed64bf6a1f010000000000000000831061197b577a184f03e93ff9f4daa797ed6e38ed64bf6a1f010000000000000000838161197157611970612a0a565b5b0492506040810190505b6d04ee2d6d415b85acef810000000083106119b8576d04ee2d6d415b85acef810000000083816119ae576119ad612a0a565b5b0492506020810190505b662386f26fc1000083106119e757662386f26fc1000083816119dd576119dc612a0a565b5b0492506010810190505b6305f5e1008310611a10576305f5e1008381611a0657611a05612a0a565b5b0492506008810190505b6127108310611a35576127108381611a2b57611a2a612a0a565b5b0492506004810190505b60648310611a585760648381611a4e57611a4d612a0a565b5b0492506002810190505b600a8310611a67576001810190505b80915050919050565b508054611a7c90612255565b6000825580601f10611a8e5750611aad565b601f016020900490600052602060002090810190611aac9190611b36565b5b50565b828054611abc90612255565b90600052602060002090601f016020900481019282611ade5760008555611b25565b82601f10611af757805160ff1916838001178555611b25565b82800160010185558215611b25579182015b82811115611b24578251825591602001919060010190611b09565b5b509050611b329190611b36565b5090565b5b80821115611b4f576000816000905550600101611b37565b5090565b6000604051905090565b600080fd5b600080fd5b60007fffffffff0000000000000000000000000000000000000000000000000000000082169050919050565b611b9c81611b67565b8114611ba757600080fd5b50565b600081359050611bb981611b93565b92915050565b600060208284031215611bd557611bd4611b5d565b5b6000611be384828501611baa565b91505092915050565b60008115159050919050565b611c0181611bec565b82525050565b6000602082019050611c1c6000830184611bf8565b92915050565b600081519050919050565b600082825260208201905092915050565b60005b83811015611c5c578082015181840152602081019050611c41565b83811115611c6b576000848401525b50505050565b6000601f19601f8301169050919050565b6000611c8d82611c22565b611c978185611c2d565b9350611ca7818560208601611c3e565b611cb081611c71565b840191505092915050565b60006020820190508181036000830152611cd58184611c82565b905092915050565b6000819050919050565b611cf081611cdd565b8114611cfb57600080fd5b50565b600081359050611d0d81611ce7565b92915050565b600060208284031215611d2957611d28611b5d565b5b6000611d3784828501611cfe565b91505092915050565b600073ffffffffffffffffffffffffffffffffffffffff82169050919050565b6000611d6b82611d40565b9050919050565b611d7b81611d60565b82525050565b6000602082019050611d966000830184611d72565b92915050565b611da581611d60565b8114611db057600080fd5b50565b600081359050611dc281611d9c565b92915050565b60008060408385031215611ddf57611dde611b5d565b5b6000611ded85828601611db3565b9250506020611dfe85828601611cfe565b9150509250929050565b600080600060608486031215611e2157611e20611b5d565b5b6000611e2f86828701611db3565b9350506020611e4086828701611db3565b9250506040611e5186828701611cfe565b9150509250925092565b600060208284031215611e7157611e70611b5d565b5b6000611e7f84828501611db3565b91505092915050565b611e9181611cdd565b82525050565b6000602082019050611eac6000830184611e88565b92915050565b611ebb81611bec565b8114611ec657600080fd5b50565b600081359050611ed881611eb2565b92915050565b60008060408385031215611ef557611ef4611b5d565b5b6000611f0385828601611db3565b9250506020611f1485828601611ec9565b9150509250929050565b600080fd5b600080fd5b7f4e487b7100000000000000000000000000000000000000000000000000000000600052604160045260246000fd5b611f6082611c71565b810181811067ffffffffffffffff82111715611f7f57611f7e611f28565b5b80604052505050565b6000611f92611b53565b9050611f9e8282611f57565b919050565b600067ffffffffffffffff821115611fbe57611fbd611f28565b5b611fc782611c71565b9050602081019050919050565b82818337600083830152505050565b6000611ff6611ff184611fa3565b611f88565b90508281526020810184848401111561201257612011611f23565b5b61201d848285611fd4565b509392505050565b600082601f83011261203a57612039611f1e565b5b813561204a848260208601611fe3565b91505092915050565b6000806000806080858703121561206d5761206c611b5d565b5b600061207b87828801611db3565b945050602061208c87828801611db3565b935050604061209d87828801611cfe565b925050606085013567ffffffffffffffff8111156120be576120bd611b62565b5b6120ca87828801612025565b91505092959194509250565b600067ffffffffffffffff8211156120f1576120f0611f28565b5b6120fa82611c71565b9050602081019050919050565b600061211a612115846120d6565b611f88565b90508281526020810184848401111561213657612135611f23565b5b612141848285611fd4565b509392505050565b600082601f83011261215e5761215d611f1e565b5b813561216e848260208601612107565b91505092915050565b6000806000606084860312156121905761218f611b5d565b5b600061219e86828701611db3565b93505060206121af86828701611cfe565b925050604084013567ffffffffffffffff8111156121d0576121cf611b62565b5b6121dc86828701612149565b9150509250925092565b600080604083850312156121fd576121fc611b5d565b5b600061220b85828601611db3565b925050602061221c85828601611db3565b9150509250929050565b7f4e487b7100000000000000000000000000000000000000000000000000000000600052602260045260246000fd5b6000600282049050600182168061226d57607f821691505b6020821081141561228157612280612226565b5b50919050565b7f4552433732313a20617070726f76616c20746f2063757272656e74206f776e6560008201527f7200000000000000000000000000000000000000000000000000000000000000602082015250565b60006122e3602183611c2d565b91506122ee82612287565b604082019050919050565b60006020820190508181036000830152612312816122d6565b9050919050565b7f4552433732313a20617070726f76652063616c6c6572206973206e6f7420746f60008201527f6b656e206f776e6572206f7220617070726f76656420666f7220616c6c000000602082015250565b6000612375603d83611c2d565b915061238082612319565b604082019050919050565b600060208201905081810360008301526123a481612368565b9050919050565b7f4552433732313a2063616c6c6572206973206e6f7420746f6b656e206f776e6560008201527f72206f7220617070726f76656400000000000000000000000000000000000000602082015250565b6000612407602d83611c2d565b9150612412826123ab565b604082019050919050565b60006020820190508181036000830152612436816123fa565b9050919050565b7f4552433732313a20696e76616c696420746f6b656e2049440000000000000000600082015250565b6000612473601883611c2d565b915061247e8261243d565b602082019050919050565b600060208201905081810360008301526124a281612466565b9050919050565b7f4552433732313a2061646472657373207a65726f206973206e6f74206120766160008201527f6c6964206f776e65720000000000000000000000000000000000000000000000602082015250565b6000612505602983611c2d565b9150612510826124a9565b604082019050919050565b60006020820190508181036000830152612534816124f8565b9050919050565b600081905092915050565b600061255182611c22565b61255b818561253b565b935061256b818560208601611c3e565b80840191505092915050565b60006125838285612546565b915061258f8284612546565b91508190509392505050565b7f4552433732313a207472616e736665722066726f6d20696e636f72726563742060008201527f6f776e6572000000000000000000000000000000000000000000000000000000602082015250565b60006125f7602583611c2d565b91506126028261259b565b604082019050919050565b60006020820190508181036000830152612626816125ea565b9050919050565b7f4552433732313a207472616e7366657220746f20746865207a65726f2061646460008201527f7265737300000000000000000000000000000000000000000000000000000000602082015250565b6000612689602483611c2d565b91506126948261262d565b604082019050919050565b600060208201905081810360008301526126b88161267c565b9050919050565b7f4552433732313a20617070726f766520746f2063616c6c657200000000000000600082015250565b60006126f5601983611c2d565b9150612700826126bf565b602082019050919050565b60006020820190508181036000830152612724816126e8565b9050919050565b7f4552433732313a207472616e7366657220746f206e6f6e20455243373231526560008201527f63656976657220696d706c656d656e7465720000000000000000000000000000602082015250565b6000612787603283611c2d565b91506127928261272b565b604082019050919050565b600060208201905081810360008301526127b68161277a565b9050919050565b7f4552433732313a206d696e7420746f20746865207a65726f2061646472657373600082015250565b60006127f3602083611c2d565b91506127fe826127bd565b602082019050919050565b60006020820190508181036000830152612822816127e6565b9050919050565b7f4552433732313a20746f6b656e20616c7265616479206d696e74656400000000600082015250565b600061285f601c83611c2d565b915061286a82612829565b602082019050919050565b6000602082019050818103600083015261288e81612852565b9050919050565b7f45524337323155524953746f726167653a2055524920736574206f66206e6f6e60008201527f6578697374656e7420746f6b656e000000000000000000000000000000000000602082015250565b60006128f1602e83611c2d565b91506128fc82612895565b604082019050919050565b60006020820190508181036000830152612920816128e4565b9050919050565b600081519050919050565b600082825260208201905092915050565b600061294e82612927565b6129588185612932565b9350612968818560208601611c3e565b61297181611c71565b840191505092915050565b60006080820190506129916000830187611d72565b61299e6020830186611d72565b6129ab6040830185611e88565b81810360608301526129bd8184612943565b905095945050505050565b6000815190506129d781611b93565b92915050565b6000602082840312156129f3576129f2611b5d565b5b6000612a01848285016129c8565b91505092915050565b7f4e487b7100000000000000000000000000000000000000000000000000000000600052601260045260246000fdfea2646970667358221220d81ef8bc5ce9441a437cab2fe46994e0a659913d9681331ab6cdf96a01baa51364736f6c63430008090033",
  "linkReferences": {},
  "deployedLinkReferences": {}
}