{
  "_format": "hh-sol-artifact-1",
  "contractName": "TestHashiConnextAdapter",
  "sourceName": "contracts/test/TestHashiConnextAdapter.sol",
  "abi": [
    {
      "anonymous": false,
      "inputs": [
        {
          "indexed": true,
          "internalType": "uint32",
          "name": "domainId",
          "type": "uint32"
        },
        {
          "indexed": true,
          "internalType": "address",
          "name": "bridge",
          "type": "address"
        }
      ],
      "name": "BridgeSet",
      "type": "event"
    },
    {
      "anonymous": false,
      "inputs": [
        {
          "indexed": false,
          "internalType": "uint8",
          "name": "version",
          "type": "uint8"
        }
      ],
      "name": "Initialized",
      "type": "event"
    },
    {
      "anonymous": false,
      "inputs": [
        {
          "indexed": true,
          "internalType": "address",
          "name": "previousOwner",
          "type": "address"
        },
        {
          "indexed": true,
          "internalType": "address",
          "name": "newOwner",
          "type": "address"
        }
      ],
      "name": "OwnershipTransferred",
      "type": "event"
    },
    {
      "anonymous": false,
      "inputs": [
        {
          "indexed": false,
          "internalType": "bytes",
          "name": "callData",
          "type": "bytes"
        }
      ],
      "name": "XReceiveCalled",
      "type": "event"
    },
    {
      "inputs": [],
      "name": "CONNEXT_AMOUNT_FOR_NONE",
      "outputs": [
        {
          "internalType": "uint256",
          "name": "",
          "type": "uint256"
        }
      ],
      "stateMutability": "view",
      "type": "function"
    },
    {
      "inputs": [],
      "name": "CONNEXT_ASSET_FOR_NONE",
      "outputs": [
        {
          "internalType": "address",
          "name": "",
          "type": "address"
        }
      ],
      "stateMutability": "view",
      "type": "function"
    },
    {
      "inputs": [
        {
          "internalType": "uint32",
          "name": "",
          "type": "uint32"
        }
      ],
      "name": "bridges",
      "outputs": [
        {
          "internalType": "address",
          "name": "",
          "type": "address"
        }
      ],
      "stateMutability": "view",
      "type": "function"
    },
    {
      "inputs": [],
      "name": "connext",
      "outputs": [
        {
          "internalType": "address",
          "name": "",
          "type": "address"
        }
      ],
      "stateMutability": "view",
      "type": "function"
    },
    {
      "inputs": [
        {
          "internalType": "address",
          "name": "connext_",
          "type": "address"
        }
      ],
      "name": "initialize",
      "outputs": [],
      "stateMutability": "nonpayable",
      "type": "function"
    },
    {
      "inputs": [],
      "name": "owner",
      "outputs": [
        {
          "internalType": "address",
          "name": "",
          "type": "address"
        }
      ],
      "stateMutability": "view",
      "type": "function"
    },
    {
      "inputs": [],
      "name": "renounceOwnership",
      "outputs": [],
      "stateMutability": "nonpayable",
      "type": "function"
    },
    {
      "inputs": [
        {
          "internalType": "uint32",
          "name": "domainId_",
          "type": "uint32"
        },
        {
          "internalType": "address",
          "name": "bridge",
          "type": "address"
        }
      ],
      "name": "setBridge",
      "outputs": [],
      "stateMutability": "nonpayable",
      "type": "function"
    },
    {
      "inputs": [
        {
          "internalType": "address",
          "name": "connext_",
          "type": "address"
        }
      ],
      "name": "testHashiConnextAdapterInit",
      "outputs": [],
      "stateMutability": "nonpayable",
      "type": "function"
    },
    {
      "inputs": [
        {
          "internalType": "address",
          "name": "connext_",
          "type": "address"
        }
      ],
      "name": "testHashiConnextAdapterInitUnchained",
      "outputs": [],
      "stateMutability": "nonpayable",
      "type": "function"
    },
    {
      "inputs": [
        {
          "internalType": "uint32",
          "name": "destination",
          "type": "uint32"
        },
        {
          "internalType": "uint256",
          "name": "relayerFee",
          "type": "uint256"
        },
        {
          "internalType": "uint256",
          "name": "slippage",
          "type": "uint256"
        },
        {
          "internalType": "bytes",
          "name": "callData",
          "type": "bytes"
        }
      ],
      "name": "testXCall",
      "outputs": [],
      "stateMutability": "nonpayable",
      "type": "function"
    },
    {
      "inputs": [
        {
          "internalType": "bytes",
          "name": "callData",
          "type": "bytes"
        }
      ],
      "name": "testXReceive",
      "outputs": [],
      "stateMutability": "nonpayable",
      "type": "function"
    },
    {
      "inputs": [
        {
          "internalType": "address",
          "name": "newOwner",
          "type": "address"
        }
      ],
      "name": "transferOwnership",
      "outputs": [],
      "stateMutability": "nonpayable",
      "type": "function"
    },
    {
      "inputs": [
        {
          "internalType": "bytes32",
          "name": "transferId",
          "type": "bytes32"
        },
        {
          "internalType": "uint256",
          "name": "amount",
          "type": "uint256"
        },
        {
          "internalType": "address",
          "name": "asset",
          "type": "address"
        },
        {
          "internalType": "address",
          "name": "originSender",
          "type": "address"
        },
        {
          "internalType": "uint32",
          "name": "origin",
          "type": "uint32"
        },
        {
          "internalType": "bytes",
          "name": "callData",
          "type": "bytes"
        }
      ],
      "name": "xReceive",
      "outputs": [
        {
          "internalType": "bytes",
          "name": "",
          "type": "bytes"
        }
      ],
      "stateMutability": "nonpayable",
      "type": "function"
    }
  ],
  "bytecode": "0x608060405234801561001057600080fd5b5061188f806100206000396000f3fe608060405234801561001057600080fd5b50600436106100ea5760003560e01c8063a0f0a3121161008c578063c4d66de811610066578063c4d66de81461020f578063de4b05481461022b578063f2fde38b14610249578063fd614f4114610265576100ea565b8063a0f0a312146101b7578063a4db43f0146101d5578063c34f6ec4146101f1576100ea565b8063715018a6116100c8578063715018a6146101575780637556a191146101615780638da5cb5b1461017d5780639d9a14d41461019b576100ea565b80630b8931cb146100ef5780633964906a1461011f57806368b2ba681461013b575b600080fd5b61010960048036038101906101049190610d04565b610295565b6040516101169190610d72565b60405180910390f35b61013960048036038101906101349190610db9565b6102c8565b005b61015560048036038101906101509190610de6565b6102d4565b005b61015f610388565b005b61017b60048036038101906101769190610fa2565b61039c565b005b6101856103af565b6040516101929190610d72565b60405180910390f35b6101b560048036038101906101b09190610db9565b6103d9565b005b6101bf6103e5565b6040516101cc9190610d72565b60405180910390f35b6101ef60048036038101906101ea9190611025565b6103ea565b005b6101f96103f6565b604051610206919061107d565b60405180910390f35b61022960048036038101906102249190610db9565b6103fb565b005b61023361053b565b6040516102409190610d72565b60405180910390f35b610263600480360381019061025e9190610db9565b610561565b005b61027f600480360381019061027a91906110ce565b6105e4565b60405161028c91906111f6565b60405180910390f35b60656020528060005260406000206000915054906101000a900473ffffffffffffffffffffffffffffffffffffffff1681565b6102d181610807565b50565b6102dc61086a565b80606560008463ffffffff1663ffffffff16815260200190815260200160002060006101000a81548173ffffffffffffffffffffffffffffffffffffffff021916908373ffffffffffffffffffffffffffffffffffffffff1602179055508073ffffffffffffffffffffffffffffffffffffffff168263ffffffff167fb95f7bd4ed333200a22dcfdd4921bfe48e8abc90a7d14f82334e7946479db83960405160405180910390a35050565b61039061086a565b61039a60006108e8565b565b6103a8848484846109ae565b5050505050565b6000603360009054906101000a900473ffffffffffffffffffffffffffffffffffffffff16905090565b6103e281610b20565b50565b600081565b6103f381610bb3565b50565b600081565b60008060019054906101000a900460ff1615905080801561042c5750600160008054906101000a900460ff1660ff16105b80610459575061043b30610bee565b1580156104585750600160008054906101000a900460ff1660ff16145b5b610498576040517f08c379a000000000000000000000000000000000000000000000000000000000815260040161048f9061129b565b60405180910390fd5b60016000806101000a81548160ff021916908360ff16021790555080156104d5576001600060016101000a81548160ff0219169083151502179055505b6104de82610807565b80156105375760008060016101000a81548160ff0219169083151502179055507f7f26b83ff96e1f2b6a682f133852f6798a09c465da95921460cefb3847402498600160405161052e919061130d565b60405180910390a15b5050565b606660009054906101000a900473ffffffffffffffffffffffffffffffffffffffff1681565b61056961086a565b600073ffffffffffffffffffffffffffffffffffffffff168173ffffffffffffffffffffffffffffffffffffffff16036105d8576040517f08c379a00000000000000000000000000000000000000000000000000000000081526004016105cf9061139a565b60405180910390fd5b6105e1816108e8565b50565b6060600073ffffffffffffffffffffffffffffffffffffffff168573ffffffffffffffffffffffffffffffffffffffff1614610655576040517f08c379a000000000000000000000000000000000000000000000000000000000815260040161064c9061142c565b60405180910390fd5b60008614610698576040517f08c379a000000000000000000000000000000000000000000000000000000000815260040161068f906114be565b60405180910390fd5b6000606560008563ffffffff1663ffffffff16815260200190815260200160002060009054906101000a900473ffffffffffffffffffffffffffffffffffffffff1690508473ffffffffffffffffffffffffffffffffffffffff168173ffffffffffffffffffffffffffffffffffffffff161461074a576040517f08c379a000000000000000000000000000000000000000000000000000000000815260040161074190611550565b60405180910390fd5b606660009054906101000a900473ffffffffffffffffffffffffffffffffffffffff1673ffffffffffffffffffffffffffffffffffffffff1661078b610c11565b73ffffffffffffffffffffffffffffffffffffffff16146107e1576040517f08c379a00000000000000000000000000000000000000000000000000000000081526004016107d8906115e2565b60405180910390fd5b6107ea83610c19565b604051806020016040528060008152509150509695505050505050565b600060019054906101000a900460ff16610856576040517f08c379a000000000000000000000000000000000000000000000000000000000815260040161084d90611674565b60405180910390fd5b61085e610c53565b61086781610b20565b50565b610872610c11565b73ffffffffffffffffffffffffffffffffffffffff166108906103af565b73ffffffffffffffffffffffffffffffffffffffff16146108e6576040517f08c379a00000000000000000000000000000000000000000000000000000000081526004016108dd906116e0565b60405180910390fd5b565b6000603360009054906101000a900473ffffffffffffffffffffffffffffffffffffffff16905081603360006101000a81548173ffffffffffffffffffffffffffffffffffffffff021916908373ffffffffffffffffffffffffffffffffffffffff1602179055508173ffffffffffffffffffffffffffffffffffffffff168173ffffffffffffffffffffffffffffffffffffffff167f8be0079c531659141344cd1fd0a4f28419497f9722a3daafe3b4186f6b6457e060405160405180910390a35050565b600080606560008763ffffffff1663ffffffff16815260200190815260200160002060009054906101000a900473ffffffffffffffffffffffffffffffffffffffff169050600073ffffffffffffffffffffffffffffffffffffffff168173ffffffffffffffffffffffffffffffffffffffff1603610a62576040517f08c379a0000000000000000000000000000000000000000000000000000000008152600401610a5990611550565b60405180910390fd5b606660009054906101000a900473ffffffffffffffffffffffffffffffffffffffff1673ffffffffffffffffffffffffffffffffffffffff16638aac16ba87836000610aac610c11565b60008a8a6040518863ffffffff1660e01b8152600401610ad2979695949392919061170f565b6020604051808303816000875af1158015610af1573d6000803e3d6000fd5b505050506040513d601f19601f82011682018060405250810190610b15919061179a565b915050949350505050565b600060019054906101000a900460ff16610b6f576040517f08c379a0000000000000000000000000000000000000000000000000000000008152600401610b6690611674565b60405180910390fd5b80606660006101000a81548173ffffffffffffffffffffffffffffffffffffffff021916908373ffffffffffffffffffffffffffffffffffffffff16021790555050565b6040517f08c379a0000000000000000000000000000000000000000000000000000000008152600401610be590611839565b60405180910390fd5b6000808273ffffffffffffffffffffffffffffffffffffffff163b119050919050565b600033905090565b7fb7d4eb1d4c010f5767b6b7860417530588522ac6fc5fdf12066116ebf9bb0a6381604051610c4891906111f6565b60405180910390a150565b600060019054906101000a900460ff16610ca2576040517f08c379a0000000000000000000000000000000000000000000000000000000008152600401610c9990611674565b60405180910390fd5b610cb2610cad610c11565b6108e8565b565b6000604051905090565b600080fd5b600080fd5b600063ffffffff82169050919050565b610ce181610cc8565b8114610cec57600080fd5b50565b600081359050610cfe81610cd8565b92915050565b600060208284031215610d1a57610d19610cbe565b5b6000610d2884828501610cef565b91505092915050565b600073ffffffffffffffffffffffffffffffffffffffff82169050919050565b6000610d5c82610d31565b9050919050565b610d6c81610d51565b82525050565b6000602082019050610d876000830184610d63565b92915050565b610d9681610d51565b8114610da157600080fd5b50565b600081359050610db381610d8d565b92915050565b600060208284031215610dcf57610dce610cbe565b5b6000610ddd84828501610da4565b91505092915050565b60008060408385031215610dfd57610dfc610cbe565b5b6000610e0b85828601610cef565b9250506020610e1c85828601610da4565b9150509250929050565b6000819050919050565b610e3981610e26565b8114610e4457600080fd5b50565b600081359050610e5681610e30565b92915050565b600080fd5b600080fd5b6000601f19601f8301169050919050565b7f4e487b7100000000000000000000000000000000000000000000000000000000600052604160045260246000fd5b610eaf82610e66565b810181811067ffffffffffffffff82111715610ece57610ecd610e77565b5b80604052505050565b6000610ee1610cb4565b9050610eed8282610ea6565b919050565b600067ffffffffffffffff821115610f0d57610f0c610e77565b5b610f1682610e66565b9050602081019050919050565b82818337600083830152505050565b6000610f45610f4084610ef2565b610ed7565b905082815260208101848484011115610f6157610f60610e61565b5b610f6c848285610f23565b509392505050565b600082601f830112610f8957610f88610e5c565b5b8135610f99848260208601610f32565b91505092915050565b60008060008060808587031215610fbc57610fbb610cbe565b5b6000610fca87828801610cef565b9450506020610fdb87828801610e47565b9350506040610fec87828801610e47565b925050606085013567ffffffffffffffff81111561100d5761100c610cc3565b5b61101987828801610f74565b91505092959194509250565b60006020828403121561103b5761103a610cbe565b5b600082013567ffffffffffffffff81111561105957611058610cc3565b5b61106584828501610f74565b91505092915050565b61107781610e26565b82525050565b6000602082019050611092600083018461106e565b92915050565b6000819050919050565b6110ab81611098565b81146110b657600080fd5b50565b6000813590506110c8816110a2565b92915050565b60008060008060008060c087890312156110eb576110ea610cbe565b5b60006110f989828a016110b9565b965050602061110a89828a01610e47565b955050604061111b89828a01610da4565b945050606061112c89828a01610da4565b935050608061113d89828a01610cef565b92505060a087013567ffffffffffffffff81111561115e5761115d610cc3565b5b61116a89828a01610f74565b9150509295509295509295565b600081519050919050565b600082825260208201905092915050565b60005b838110156111b1578082015181840152602081019050611196565b60008484015250505050565b60006111c882611177565b6111d28185611182565b93506111e2818560208601611193565b6111eb81610e66565b840191505092915050565b6000602082019050818103600083015261121081846111bd565b905092915050565b600082825260208201905092915050565b7f496e697469616c697a61626c653a20636f6e747261637420697320616c72656160008201527f647920696e697469616c697a6564000000000000000000000000000000000000602082015250565b6000611285602e83611218565b915061129082611229565b604082019050919050565b600060208201905081810360008301526112b481611278565b9050919050565b6000819050919050565b600060ff82169050919050565b6000819050919050565b60006112f76112f26112ed846112bb565b6112d2565b6112c5565b9050919050565b611307816112dc565b82525050565b600060208201905061132260008301846112fe565b92915050565b7f4f776e61626c653a206e6577206f776e657220697320746865207a65726f206160008201527f6464726573730000000000000000000000000000000000000000000000000000602082015250565b6000611384602683611218565b915061138f82611328565b604082019050919050565b600060208201905081810360008301526113b381611377565b9050919050565b7f4861736869436f6e6e657874416461707465723a20617373657420697320696e60008201527f76616c6964000000000000000000000000000000000000000000000000000000602082015250565b6000611416602583611218565b9150611421826113ba565b604082019050919050565b6000602082019050818103600083015261144581611409565b9050919050565b7f4861736869436f6e6e657874416461707465723a20616d6f756e74206973206960008201527f6e76616c69640000000000000000000000000000000000000000000000000000602082015250565b60006114a8602683611218565b91506114b38261144c565b604082019050919050565b600060208201905081810360008301526114d78161149b565b9050919050565b7f4861736869436f6e6e657874416461707465723a20627269646765206973206960008201527f6e76616c69640000000000000000000000000000000000000000000000000000602082015250565b600061153a602683611218565b9150611545826114de565b604082019050919050565b600060208201905081810360008301526115698161152d565b9050919050565b7f4861736869436f6e6e657874416461707465723a206d73672073656e6465722060008201527f697320696e76616c696420000000000000000000000000000000000000000000602082015250565b60006115cc602b83611218565b91506115d782611570565b604082019050919050565b600060208201905081810360008301526115fb816115bf565b9050919050565b7f496e697469616c697a61626c653a20636f6e7472616374206973206e6f74206960008201527f6e697469616c697a696e67000000000000000000000000000000000000000000602082015250565b600061165e602b83611218565b915061166982611602565b604082019050919050565b6000602082019050818103600083015261168d81611651565b9050919050565b7f4f776e61626c653a2063616c6c6572206973206e6f7420746865206f776e6572600082015250565b60006116ca602083611218565b91506116d582611694565b602082019050919050565b600060208201905081810360008301526116f9816116bd565b9050919050565b61170981610cc8565b82525050565b600060e082019050611724600083018a611700565b6117316020830189610d63565b61173e6040830188610d63565b61174b6060830187610d63565b611758608083018661106e565b61176560a083018561106e565b81810360c083015261177781846111bd565b905098975050505050505050565b600081519050611794816110a2565b92915050565b6000602082840312156117b0576117af610cbe565b5b60006117be84828501611785565b91505092915050565b7f4861736869436f6e6e657874416461707465723a206d6574686f64206973206e60008201527f6f74206f76657272696464656e00000000000000000000000000000000000000602082015250565b6000611823602d83611218565b915061182e826117c7565b604082019050919050565b6000602082019050818103600083015261185281611816565b905091905056fea2646970667358221220152aae4254358d9f816aa9749277d51eaf2d4857ddfd632b90eeb6074f4fbf2564736f6c63430008110033",
  "linkReferences": {},
  "deployedLinkReferences": {}
}