{
  "_format": "hh-sol-artifact-1",
  "contractName": "TestHashiConnextAdapter",
  "sourceName": "contracts/test/TestHashiConnextAdapter.sol",
  "abi": [
    {
      "anonymous": false,
      "inputs": [
        {
          "indexed": true,
          "internalType": "uint32",
          "name": "domainId",
          "type": "uint32"
        },
        {
          "indexed": true,
          "internalType": "address",
          "name": "bridge",
          "type": "address"
        }
      ],
      "name": "BridgeSet",
      "type": "event"
    },
    {
      "anonymous": false,
      "inputs": [
        {
          "indexed": false,
          "internalType": "uint8",
          "name": "version",
          "type": "uint8"
        }
      ],
      "name": "Initialized",
      "type": "event"
    },
    {
      "anonymous": false,
      "inputs": [
        {
          "indexed": true,
          "internalType": "address",
          "name": "previousOwner",
          "type": "address"
        },
        {
          "indexed": true,
          "internalType": "address",
          "name": "newOwner",
          "type": "address"
        }
      ],
      "name": "OwnershipTransferred",
      "type": "event"
    },
    {
      "anonymous": false,
      "inputs": [
        {
          "indexed": false,
          "internalType": "bytes",
          "name": "callData",
          "type": "bytes"
        }
      ],
      "name": "XReceiveCalled",
      "type": "event"
    },
    {
      "inputs": [],
      "name": "CONNEXT_AMOUNT_FOR_NONE",
      "outputs": [
        {
          "internalType": "uint256",
          "name": "",
          "type": "uint256"
        }
      ],
      "stateMutability": "view",
      "type": "function"
    },
    {
      "inputs": [],
      "name": "CONNEXT_ASSET_FOR_NONE",
      "outputs": [
        {
          "internalType": "address",
          "name": "",
          "type": "address"
        }
      ],
      "stateMutability": "view",
      "type": "function"
    },
    {
      "inputs": [
        {
          "internalType": "uint32",
          "name": "",
          "type": "uint32"
        }
      ],
      "name": "bridges",
      "outputs": [
        {
          "internalType": "address",
          "name": "",
          "type": "address"
        }
      ],
      "stateMutability": "view",
      "type": "function"
    },
    {
      "inputs": [],
      "name": "connext",
      "outputs": [
        {
          "internalType": "address",
          "name": "",
          "type": "address"
        }
      ],
      "stateMutability": "view",
      "type": "function"
    },
    {
      "inputs": [
        {
          "internalType": "address",
          "name": "connext_",
          "type": "address"
        }
      ],
      "name": "initialize",
      "outputs": [],
      "stateMutability": "nonpayable",
      "type": "function"
    },
    {
      "inputs": [],
      "name": "owner",
      "outputs": [
        {
          "internalType": "address",
          "name": "",
          "type": "address"
        }
      ],
      "stateMutability": "view",
      "type": "function"
    },
    {
      "inputs": [],
      "name": "renounceOwnership",
      "outputs": [],
      "stateMutability": "nonpayable",
      "type": "function"
    },
    {
      "inputs": [
        {
          "internalType": "uint32",
          "name": "domainId_",
          "type": "uint32"
        },
        {
          "internalType": "address",
          "name": "bridge",
          "type": "address"
        }
      ],
      "name": "setBridge",
      "outputs": [],
      "stateMutability": "nonpayable",
      "type": "function"
    },
    {
      "inputs": [
        {
          "internalType": "address",
          "name": "connext_",
          "type": "address"
        }
      ],
      "name": "testHashiConnextAdapterInit",
      "outputs": [],
      "stateMutability": "nonpayable",
      "type": "function"
    },
    {
      "inputs": [
        {
          "internalType": "address",
          "name": "connext_",
          "type": "address"
        }
      ],
      "name": "testHashiConnextAdapterInitUnchained",
      "outputs": [],
      "stateMutability": "nonpayable",
      "type": "function"
    },
    {
      "inputs": [
        {
          "internalType": "uint32",
          "name": "destination",
          "type": "uint32"
        },
        {
          "internalType": "uint256",
          "name": "relayerFee",
          "type": "uint256"
        },
        {
          "internalType": "uint256",
          "name": "slippage",
          "type": "uint256"
        },
        {
          "internalType": "bytes",
          "name": "callData",
          "type": "bytes"
        }
      ],
      "name": "testXCall",
      "outputs": [],
      "stateMutability": "nonpayable",
      "type": "function"
    },
    {
      "inputs": [
        {
          "internalType": "bytes",
          "name": "callData",
          "type": "bytes"
        }
      ],
      "name": "testXReceive",
      "outputs": [],
      "stateMutability": "nonpayable",
      "type": "function"
    },
    {
      "inputs": [
        {
          "internalType": "address",
          "name": "newOwner",
          "type": "address"
        }
      ],
      "name": "transferOwnership",
      "outputs": [],
      "stateMutability": "nonpayable",
      "type": "function"
    },
    {
      "inputs": [
        {
          "internalType": "bytes32",
          "name": "transferId",
          "type": "bytes32"
        },
        {
          "internalType": "uint256",
          "name": "amount",
          "type": "uint256"
        },
        {
          "internalType": "address",
          "name": "asset",
          "type": "address"
        },
        {
          "internalType": "address",
          "name": "originSender",
          "type": "address"
        },
        {
          "internalType": "uint32",
          "name": "origin",
          "type": "uint32"
        },
        {
          "internalType": "bytes",
          "name": "callData",
          "type": "bytes"
        }
      ],
      "name": "xReceive",
      "outputs": [
        {
          "internalType": "bytes",
          "name": "",
          "type": "bytes"
        }
      ],
      "stateMutability": "nonpayable",
      "type": "function"
    }
  ],
  "bytecode": "0x608060405234801561001057600080fd5b50610dfe806100206000396000f3fe608060405234801561001057600080fd5b50600436106100ea5760003560e01c8063a0f0a3121161008c578063c4d66de811610066578063c4d66de8146101cd578063de4b0548146101e0578063f2fde38b146101f3578063fd614f411461020657600080fd5b8063a0f0a3121461019c578063a4db43f0146101a4578063c34f6ec4146101b757600080fd5b8063715018a6116100c8578063715018a61461015d5780637556a191146101655780638da5cb5b146101785780639d9a14d41461018957600080fd5b80630b8931cb146100ef5780633964906a1461013557806368b2ba681461014a575b600080fd5b6101186100fd366004610a9b565b6065602052600090815260409020546001600160a01b031681565b6040516001600160a01b0390911681526020015b60405180910390f35b610148610143366004610ad4565b610226565b005b610148610158366004610aef565b610232565b6101486102a5565b610148610173366004610bde565b6102b9565b6033546001600160a01b0316610118565b610148610197366004610ad4565b6102cc565b610118600081565b6101486101b2366004610c3f565b6102d5565b6101bf600081565b60405190815260200161012c565b6101486101db366004610ad4565b6102de565b606654610118906001600160a01b031681565b610148610201366004610ad4565b610405565b610219610214366004610c7c565b610492565b60405161012c9190610d43565b61022f8161069c565b50565b61023a61070f565b63ffffffff8216600081815260656020526040808220805473ffffffffffffffffffffffffffffffffffffffff19166001600160a01b03861690811790915590519092917fb95f7bd4ed333200a22dcfdd4921bfe48e8abc90a7d14f82334e7946479db83991a35050565b6102ad61070f565b6102b76000610769565b565b6102c5848484846107c8565b5050505050565b61022f816108cc565b61022f81610966565b600054610100900460ff16158080156102fe5750600054600160ff909116105b806103185750303b158015610318575060005460ff166001145b61038f5760405162461bcd60e51b815260206004820152602e60248201527f496e697469616c697a61626c653a20636f6e747261637420697320616c72656160448201527f647920696e697469616c697a656400000000000000000000000000000000000060648201526084015b60405180910390fd5b6000805460ff1916600117905580156103b2576000805461ff0019166101001790555b6103bb8261069c565b8015610401576000805461ff0019169055604051600181527f7f26b83ff96e1f2b6a682f133852f6798a09c465da95921460cefb38474024989060200160405180910390a15b5050565b61040d61070f565b6001600160a01b0381166104895760405162461bcd60e51b815260206004820152602660248201527f4f776e61626c653a206e6577206f776e657220697320746865207a65726f206160448201527f64647265737300000000000000000000000000000000000000000000000000006064820152608401610386565b61022f81610769565b60606001600160a01b038516156105115760405162461bcd60e51b815260206004820152602560248201527f4861736869436f6e6e657874416461707465723a20617373657420697320696e60448201527f76616c69640000000000000000000000000000000000000000000000000000006064820152608401610386565b851561056e5760405162461bcd60e51b815260206004820152602660248201527f4861736869436f6e6e657874416461707465723a20616d6f756e7420697320696044820152651b9d985b1a5960d21b6064820152608401610386565b63ffffffff83166000908152606560205260409020546001600160a01b0390811690851681146105ef5760405162461bcd60e51b815260206004820152602660248201527f4861736869436f6e6e657874416461707465723a2062726964676520697320696044820152651b9d985b1a5960d21b6064820152608401610386565b6066546001600160a01b0316336001600160a01b0316146106785760405162461bcd60e51b815260206004820152602b60248201527f4861736869436f6e6e657874416461707465723a206d73672073656e6465722060448201527f697320696e76616c6964200000000000000000000000000000000000000000006064820152608401610386565b610681836109d4565b50506040805160208101909152600081529695505050505050565b600054610100900460ff166107075760405162461bcd60e51b815260206004820152602b60248201527f496e697469616c697a61626c653a20636f6e7472616374206973206e6f74206960448201526a6e697469616c697a696e6760a81b6064820152608401610386565b6102cc610a0e565b6033546001600160a01b031633146102b75760405162461bcd60e51b815260206004820181905260248201527f4f776e61626c653a2063616c6c6572206973206e6f7420746865206f776e65726044820152606401610386565b603380546001600160a01b0383811673ffffffffffffffffffffffffffffffffffffffff19831681179093556040519116919082907f8be0079c531659141344cd1fd0a4f28419497f9722a3daafe3b4186f6b6457e090600090a35050565b63ffffffff84166000908152606560205260408120546001600160a01b0316806108435760405162461bcd60e51b815260206004820152602660248201527f4861736869436f6e6e657874416461707465723a2062726964676520697320696044820152651b9d985b1a5960d21b6064820152608401610386565b6066546001600160a01b0316638aac16ba878360003360008a8a6040518863ffffffff1660e01b815260040161087f9796959493929190610d56565b6020604051808303816000875af115801561089e573d6000803e3d6000fd5b505050506040513d601f19601f820116820180604052508101906108c29190610daf565b9695505050505050565b600054610100900460ff166109375760405162461bcd60e51b815260206004820152602b60248201527f496e697469616c697a61626c653a20636f6e7472616374206973206e6f74206960448201526a6e697469616c697a696e6760a81b6064820152608401610386565b6066805473ffffffffffffffffffffffffffffffffffffffff19166001600160a01b0392909216919091179055565b60405162461bcd60e51b815260206004820152602d60248201527f4861736869436f6e6e657874416461707465723a206d6574686f64206973206e60448201527f6f74206f76657272696464656e000000000000000000000000000000000000006064820152608401610386565b7fb7d4eb1d4c010f5767b6b7860417530588522ac6fc5fdf12066116ebf9bb0a6381604051610a039190610d43565b60405180910390a150565b600054610100900460ff16610a795760405162461bcd60e51b815260206004820152602b60248201527f496e697469616c697a61626c653a20636f6e7472616374206973206e6f74206960448201526a6e697469616c697a696e6760a81b6064820152608401610386565b6102b733610769565b803563ffffffff81168114610a9657600080fd5b919050565b600060208284031215610aad57600080fd5b610ab682610a82565b9392505050565b80356001600160a01b0381168114610a9657600080fd5b600060208284031215610ae657600080fd5b610ab682610abd565b60008060408385031215610b0257600080fd5b610b0b83610a82565b9150610b1960208401610abd565b90509250929050565b7f4e487b7100000000000000000000000000000000000000000000000000000000600052604160045260246000fd5b600082601f830112610b6257600080fd5b813567ffffffffffffffff80821115610b7d57610b7d610b22565b604051601f8301601f19908116603f01168101908282118183101715610ba557610ba5610b22565b81604052838152866020858801011115610bbe57600080fd5b836020870160208301376000602085830101528094505050505092915050565b60008060008060808587031215610bf457600080fd5b610bfd85610a82565b93506020850135925060408501359150606085013567ffffffffffffffff811115610c2757600080fd5b610c3387828801610b51565b91505092959194509250565b600060208284031215610c5157600080fd5b813567ffffffffffffffff811115610c6857600080fd5b610c7484828501610b51565b949350505050565b60008060008060008060c08789031215610c9557600080fd5b8635955060208701359450610cac60408801610abd565b9350610cba60608801610abd565b9250610cc860808801610a82565b915060a087013567ffffffffffffffff811115610ce457600080fd5b610cf089828a01610b51565b9150509295509295509295565b6000815180845260005b81811015610d2357602081850181015186830182015201610d07565b506000602082860101526020601f19601f83011685010191505092915050565b602081526000610ab66020830184610cfd565b63ffffffff8816815260006001600160a01b03808916602084015280881660408401528087166060840152508460808301528360a083015260e060c0830152610da260e0830184610cfd565b9998505050505050505050565b600060208284031215610dc157600080fd5b505191905056fea2646970667358221220381b50399773a0f53b63d48c4d8689a009b232e6c3de11faa494dea79f70d52964736f6c63430008110033",
  "linkReferences": {},
  "deployedLinkReferences": {}
}