{
  "_format": "hh-sol-artifact-1",
  "contractName": "ConnextHelper",
  "sourceName": "contracts/ConnextHelper.sol",
  "abi": [
    {
      "inputs": [],
      "name": "domain",
      "outputs": [
        {
          "internalType": "uint256",
          "name": "",
          "type": "uint256"
        }
      ],
      "stateMutability": "view",
      "type": "function"
    },
    {
      "inputs": [],
      "name": "totalSupply",
      "outputs": [
        {
          "internalType": "uint256",
          "name": "",
          "type": "uint256"
        }
      ],
      "stateMutability": "view",
      "type": "function"
    },
    {
      "inputs": [
        {
          "internalType": "uint32",
          "name": "",
          "type": "uint32"
        },
        {
          "internalType": "address",
          "name": "",
          "type": "address"
        },
        {
          "internalType": "address",
          "name": "",
          "type": "address"
        },
        {
          "internalType": "address",
          "name": "",
          "type": "address"
        },
        {
          "internalType": "uint256",
          "name": "",
          "type": "uint256"
        },
        {
          "internalType": "uint256",
          "name": "",
          "type": "uint256"
        },
        {
          "internalType": "bytes",
          "name": "",
          "type": "bytes"
        }
      ],
      "name": "xcall",
      "outputs": [
        {
          "internalType": "bytes32",
          "name": "",
          "type": "bytes32"
        }
      ],
      "stateMutability": "payable",
      "type": "function"
    }
  ],
  "bytecode": "0x608060405234801561001057600080fd5b506101e2806100206000396000f3fe6080604052600436106100345760003560e01c806318160ddd146100395780638aac16ba14610061578063c2fb26a61461009c575b600080fd5b34801561004557600080fd5b5061004f60005481565b60405190815260200160405180910390f35b61004f61006f3660046100d9565b7f666173646661736466617364666173646661736466000000000000000000000098975050505050505050565b3480156100a857600080fd5b50600161004f565b803573ffffffffffffffffffffffffffffffffffffffff811681146100d457600080fd5b919050565b60008060008060008060008060e0898b0312156100f557600080fd5b883563ffffffff8116811461010957600080fd5b975061011760208a016100b0565b965061012560408a016100b0565b955061013360608a016100b0565b94506080890135935060a0890135925060c089013567ffffffffffffffff8082111561015e57600080fd5b818b0191508b601f83011261017257600080fd5b81358181111561018157600080fd5b8c602082850101111561019357600080fd5b602083019450809350505050929598509295989093965056fea264697066735822122015131905b68640e887ad495d1573ecf89ee6e18161cfeac62a843c6ef92f573f64736f6c63430008110033",
  "linkReferences": {},
  "deployedLinkReferences": {}
}