{
  "_format": "hh-sol-artifact-1",
  "contractName": "ConnextHelper",
  "sourceName": "contracts/ConnextHelper.sol",
  "abi": [
    {
      "inputs": [],
      "name": "calldataLen",
      "outputs": [
        {
          "internalType": "uint256",
          "name": "",
          "type": "uint256"
        }
      ],
      "stateMutability": "view",
      "type": "function"
    },
    {
      "inputs": [],
      "name": "domain",
      "outputs": [
        {
          "internalType": "uint256",
          "name": "",
          "type": "uint256"
        }
      ],
      "stateMutability": "view",
      "type": "function"
    },
    {
      "inputs": [
        {
          "internalType": "uint32",
          "name": "",
          "type": "uint32"
        },
        {
          "internalType": "address",
          "name": "",
          "type": "address"
        },
        {
          "internalType": "address",
          "name": "",
          "type": "address"
        },
        {
          "internalType": "address",
          "name": "",
          "type": "address"
        },
        {
          "internalType": "uint256",
          "name": "",
          "type": "uint256"
        },
        {
          "internalType": "uint256",
          "name": "",
          "type": "uint256"
        },
        {
          "internalType": "bytes",
          "name": "data",
          "type": "bytes"
        }
      ],
      "name": "xcall",
      "outputs": [
        {
          "internalType": "bytes32",
          "name": "",
          "type": "bytes32"
        }
      ],
      "stateMutability": "payable",
      "type": "function"
    }
  ],
  "bytecode": "0x608060405234801561001057600080fd5b506101e4806100206000396000f3fe6080604052600436106100345760003560e01c80636cd497a5146100395780638aac16ba14610061578063c2fb26a61461009e575b600080fd5b34801561004557600080fd5b5061004f60005481565b60405190815260200160405180910390f35b61004f61006f3660046100db565b600055507f46414b455f4441544100000000000000000000000000000000000000000000009695505050505050565b3480156100aa57600080fd5b50600161004f565b803573ffffffffffffffffffffffffffffffffffffffff811681146100d657600080fd5b919050565b60008060008060008060008060e0898b0312156100f757600080fd5b883563ffffffff8116811461010b57600080fd5b975061011960208a016100b2565b965061012760408a016100b2565b955061013560608a016100b2565b94506080890135935060a0890135925060c089013567ffffffffffffffff8082111561016057600080fd5b818b0191508b601f83011261017457600080fd5b81358181111561018357600080fd5b8c602082850101111561019557600080fd5b602083019450809350505050929598509295989093965056fea264697066735822122076888f2a7f3081ac401f8d2dd51656319d6e1a9b4e2ba124d65637cbd2c89c4664736f6c63430008110033",
  "linkReferences": {},
  "deployedLinkReferences": {}
}