{
  "_format": "hh-sol-artifact-1",
  "contractName": "ConnextHelper",
  "sourceName": "contracts/ConnextHelper.sol",
  "abi": [
    {
      "inputs": [],
      "name": "domain",
      "outputs": [
        {
          "internalType": "uint256",
          "name": "",
          "type": "uint256"
        }
      ],
      "stateMutability": "view",
      "type": "function"
    },
    {
      "inputs": [],
      "name": "totalSupply",
      "outputs": [
        {
          "internalType": "uint256",
          "name": "",
          "type": "uint256"
        }
      ],
      "stateMutability": "view",
      "type": "function"
    },
    {
      "inputs": [
        {
          "internalType": "uint32",
          "name": "",
          "type": "uint32"
        },
        {
          "internalType": "address",
          "name": "",
          "type": "address"
        },
        {
          "internalType": "address",
          "name": "",
          "type": "address"
        },
        {
          "internalType": "address",
          "name": "",
          "type": "address"
        },
        {
          "internalType": "uint256",
          "name": "",
          "type": "uint256"
        },
        {
          "internalType": "uint256",
          "name": "",
          "type": "uint256"
        },
        {
          "internalType": "bytes",
          "name": "",
          "type": "bytes"
        }
      ],
      "name": "xcall",
      "outputs": [
        {
          "internalType": "bytes32",
          "name": "",
          "type": "bytes32"
        }
      ],
      "stateMutability": "payable",
      "type": "function"
    }
  ],
  "bytecode": "0x608060405234801561001057600080fd5b50610394806100206000396000f3fe6080604052600436106100345760003560e01c806318160ddd146100395780638aac16ba14610064578063c2fb26a614610094575b600080fd5b34801561004557600080fd5b5061004e6100bf565b60405161005b9190610118565b60405180910390f35b61007e60048036038101906100799190610268565b6100c5565b60405161008b9190610343565b60405180910390f35b3480156100a057600080fd5b506100a96100f6565b6040516100b69190610118565b60405180910390f35b60005481565b60007f6661736466617364666173646661736466617364660000000000000000000000905098975050505050505050565b60006001905090565b6000819050919050565b610112816100ff565b82525050565b600060208201905061012d6000830184610109565b92915050565b600080fd5b600080fd5b600063ffffffff82169050919050565b6101568161013d565b811461016157600080fd5b50565b6000813590506101738161014d565b92915050565b600073ffffffffffffffffffffffffffffffffffffffff82169050919050565b60006101a482610179565b9050919050565b6101b481610199565b81146101bf57600080fd5b50565b6000813590506101d1816101ab565b92915050565b6101e0816100ff565b81146101eb57600080fd5b50565b6000813590506101fd816101d7565b92915050565b600080fd5b600080fd5b600080fd5b60008083601f84011261022857610227610203565b5b8235905067ffffffffffffffff81111561024557610244610208565b5b6020830191508360018202830111156102615761026061020d565b5b9250929050565b60008060008060008060008060e0898b03121561028857610287610133565b5b60006102968b828c01610164565b98505060206102a78b828c016101c2565b97505060406102b88b828c016101c2565b96505060606102c98b828c016101c2565b95505060806102da8b828c016101ee565b94505060a06102eb8b828c016101ee565b93505060c089013567ffffffffffffffff81111561030c5761030b610138565b5b6103188b828c01610212565b92509250509295985092959890939650565b6000819050919050565b61033d8161032a565b82525050565b60006020820190506103586000830184610334565b9291505056fea2646970667358221220c077dfe2c2255117de95ef19dd2b986459c66a21c91d17a85852e2d2fe33b8a264736f6c63430008110033",
  "linkReferences": {},
  "deployedLinkReferences": {}
}