{"contracts/test/SimpleGatewayDstSpokeBrdige.sol":{"SimpleGatewayDstSpokeBrdige":{"abi":[{"inputs":[{"internalType":"address","name":"_hub","type":"address"}],"stateMutability":"nonpayable","type":"constructor"},{"anonymous":false,"inputs":[{"indexed":false,"internalType":"address","name":"relayer","type":"address"},{"indexed":false,"internalType":"uint256","name":"bidId","type":"uint256"}],"name":"BidBought","type":"event"},{"anonymous":false,"inputs":[{"indexed":false,"internalType":"address","name":"challenger","type":"address"},{"indexed":false,"internalType":"address","name":"relayer","type":"address"},{"indexed":false,"internalType":"uint256","name":"bidId","type":"uint256"}],"name":"BidChallenged","type":"event"},{"anonymous":false,"inputs":[],"name":"BidCreated","type":"event"},{"anonymous":false,"inputs":[{"indexed":false,"internalType":"address","name":"contractAddress","type":"address"},{"indexed":false,"internalType":"uint256","name":"bidId","type":"uint256"},{"indexed":false,"internalType":"uint256","name":"id","type":"uint256"},{"indexed":false,"internalType":"address","name":"owner","type":"address"}],"name":"NFTUnwrapped","type":"event"},{"anonymous":false,"inputs":[{"indexed":true,"internalType":"address","name":"previousOwner","type":"address"},{"indexed":true,"internalType":"address","name":"newOwner","type":"address"}],"name":"OwnershipTransferred","type":"event"},{"anonymous":false,"inputs":[],"name":"ProofSent","type":"event"},{"inputs":[],"name":"CHALLENGE_AMOUNT","outputs":[{"internalType":"uint256","name":"","type":"uint256"}],"stateMutability":"view","type":"function"},{"inputs":[],"name":"HUB","outputs":[{"internalType":"address","name":"","type":"address"}],"stateMutability":"view","type":"function"},{"inputs":[],"name":"STAKE_AMOUNT","outputs":[{"internalType":"uint256","name":"","type":"uint256"}],"stateMutability":"view","type":"function"},{"inputs":[],"name":"TIME_LIMIT_OF_UNDEPOSIT","outputs":[{"internalType":"uint256","name":"","type":"uint256"}],"stateMutability":"view","type":"function"},{"inputs":[{"internalType":"uint256","name":"_bidId","type":"uint256"}],"name":"buyBid","outputs":[],"stateMutability":"nonpayable","type":"function"},{"inputs":[{"internalType":"uint256","name":"_bidId","type":"uint256"}],"name":"challengeMinting","outputs":[],"stateMutability":"payable","type":"function"},{"inputs":[{"internalType":"uint256","name":"","type":"uint256"}],"name":"challengedIncomingBids","outputs":[{"internalType":"address","name":"challenger","type":"address"},{"internalType":"enum SpokeBridge.ChallengeStatus","name":"status","type":"uint8"}],"stateMutability":"view","type":"function"},{"inputs":[{"internalType":"uint256","name":"_challengeId","type":"uint256"},{"internalType":"bool","name":"_isOutgoingBid","type":"bool"}],"name":"claimChallengeReward","outputs":[],"stateMutability":"nonpayable","type":"function"},{"inputs":[],"name":"claimDeposite","outputs":[],"stateMutability":"nonpayable","type":"function"},{"inputs":[{"internalType":"address","name":"_receiver","type":"address"},{"internalType":"uint256","name":"_tokenId","type":"uint256"},{"internalType":"address","name":"_erc721Contract","type":"address"},{"internalType":"uint256","name":"_incomingBidId","type":"uint256"}],"name":"createBid","outputs":[],"stateMutability":"payable","type":"function"},{"inputs":[],"name":"deposite","outputs":[],"stateMutability":"payable","type":"function"},{"inputs":[],"name":"id","outputs":[{"internalType":"uint256","name":"_value","type":"uint256"}],"stateMutability":"view","type":"function"},{"inputs":[{"internalType":"uint256","name":"","type":"uint256"}],"name":"incomingBids","outputs":[{"internalType":"uint256","name":"outgoingId","type":"uint256"},{"internalType":"enum SpokeBridge.IncomingBidStatus","name":"status","type":"uint8"},{"internalType":"address","name":"receiver","type":"address"},{"internalType":"uint256","name":"tokenId","type":"uint256"},{"internalType":"address","name":"remoteErc721Contract","type":"address"},{"internalType":"uint256","name":"timestampOfRelayed","type":"uint256"},{"internalType":"address","name":"relayer","type":"address"}],"stateMutability":"view","type":"function"},{"inputs":[{"internalType":"uint256","name":"","type":"uint256"}],"name":"incomingChallengeRewards","outputs":[{"internalType":"address","name":"challenger","type":"address"},{"internalType":"uint256","name":"amount","type":"uint256"},{"internalType":"bool","name":"isClaimed","type":"bool"}],"stateMutability":"view","type":"function"},{"inputs":[{"internalType":"uint256","name":"_bidId","type":"uint256"},{"internalType":"address","name":"_to","type":"address"},{"internalType":"uint256","name":"_tokenId","type":"uint256"},{"internalType":"address","name":"_erc721Contract","type":"address"}],"name":"minting","outputs":[],"stateMutability":"nonpayable","type":"function"},{"inputs":[{"internalType":"address","name":"","type":"address"},{"internalType":"address","name":"","type":"address"},{"internalType":"uint256","name":"","type":"uint256"},{"internalType":"bytes","name":"","type":"bytes"}],"name":"onERC721Received","outputs":[{"internalType":"bytes4","name":"","type":"bytes4"}],"stateMutability":"nonpayable","type":"function"},{"inputs":[{"internalType":"uint256","name":"","type":"uint256"}],"name":"outgoingBids","outputs":[{"internalType":"enum SpokeBridge.OutgoingBidStatus","name":"status","type":"uint8"},{"internalType":"uint256","name":"fee","type":"uint256"},{"internalType":"address","name":"maker","type":"address"},{"internalType":"address","name":"receiver","type":"address"},{"internalType":"uint256","name":"tokenId","type":"uint256"},{"internalType":"address","name":"localErc721Contract","type":"address"},{"internalType":"address","name":"remoteErc721Contract","type":"address"},{"internalType":"uint256","name":"timestampOfBought","type":"uint256"},{"internalType":"address","name":"buyer","type":"address"}],"stateMutability":"view","type":"function"},{"inputs":[{"internalType":"uint256","name":"","type":"uint256"}],"name":"outgoingChallengeRewards","outputs":[{"internalType":"address","name":"challenger","type":"address"},{"internalType":"uint256","name":"amount","type":"uint256"},{"internalType":"bool","name":"isClaimed","type":"bool"}],"stateMutability":"view","type":"function"},{"inputs":[],"name":"owner","outputs":[{"internalType":"address","name":"","type":"address"}],"stateMutability":"view","type":"function"},{"inputs":[{"internalType":"bytes","name":"_proof","type":"bytes"}],"name":"receiveProof","outputs":[],"stateMutability":"nonpayable","type":"function"},{"inputs":[{"internalType":"address","name":"","type":"address"}],"name":"relayers","outputs":[{"internalType":"enum SpokeBridge.RelayerStatus","name":"status","type":"uint8"},{"internalType":"uint256","name":"dateOfUndeposited","type":"uint256"},{"internalType":"uint256","name":"stakedAmount","type":"uint256"}],"stateMutability":"view","type":"function"},{"inputs":[],"name":"renounceOwnership","outputs":[],"stateMutability":"nonpayable","type":"function"},{"inputs":[{"internalType":"bool","name":"_isOutgoingBid","type":"bool"},{"internalType":"uint256","name":"_bidId","type":"uint256"}],"name":"sendProof","outputs":[],"stateMutability":"nonpayable","type":"function"},{"inputs":[{"internalType":"address","name":"newOwner","type":"address"}],"name":"transferOwnership","outputs":[],"stateMutability":"nonpayable","type":"function"},{"inputs":[],"name":"undeposite","outputs":[],"stateMutability":"nonpayable","type":"function"}],"evm":{"bytecode":{"linkReferences":{},"object":"6101006040523480156200001257600080fd5b50604051620056af380380620056af8339818101604052810190620000389190620001f9565b80806200005a6200004e620000c360201b60201c565b620000cb60201b60201c565b8073ffffffffffffffffffffffffffffffffffffffff1660e08173ffffffffffffffffffffffffffffffffffffffff16815250506801158e460913d0000060808181525050678ac7230489e8000060a081815250506202a30060c081815250505050506200022b565b600033905090565b60008060009054906101000a900473ffffffffffffffffffffffffffffffffffffffff169050816000806101000a81548173ffffffffffffffffffffffffffffffffffffffff021916908373ffffffffffffffffffffffffffffffffffffffff1602179055508173ffffffffffffffffffffffffffffffffffffffff168173ffffffffffffffffffffffffffffffffffffffff167f8be0079c531659141344cd1fd0a4f28419497f9722a3daafe3b4186f6b6457e060405160405180910390a35050565b600080fd5b600073ffffffffffffffffffffffffffffffffffffffff82169050919050565b6000620001c18262000194565b9050919050565b620001d381620001b4565b8114620001df57600080fd5b50565b600081519050620001f381620001c8565b92915050565b6000602082840312156200021257620002116200018f565b5b60006200022284828501620001e2565b91505092915050565b60805160a05160c05160e05161540b620002a4600039600081816107400152818161234e015261346c0152600081816119eb0152611b17015260008181610e4401528181613001015261351e015260008181610e190152818161149001528181611bed0152818161242f0152613025015261540b6000f3fe6080604052600436106101665760003560e01c80639123e475116100d1578063be7226ad1161008a578063f2fde38b11610064578063f2fde38b146104e6578063f37869791461050f578063f8840cf714610554578063faf5625f1461057f57610166565b8063be7226ad1461048a578063d2b803a6146104a1578063d690bfd9146104bd57610166565b80639123e475146103a65780639c3709d9146103cf578063a4c52b861461040e578063a50ec32614610439578063af640d0f14610443578063bd3a27b01461046e57610166565b8063529e720a11610123578063529e720a146102a05780635300f841146102cb578063715018a61461030a5780637be6f7a7146103215780638da5cb5b146103385780638df99e901461036357610166565b806304ef23961461016b578063150b7a021461019457806324bd801b146101d15780633a5d0410146101fa5780633bb984f4146102235780634d64262314610262575b600080fd5b34801561017757600080fd5b50610192600480360381019061018d91906138be565b6105aa565b005b3480156101a057600080fd5b506101bb60048036038101906101b69190613a8f565b61072a565b6040516101c89190613b4d565b60405180910390f35b3480156101dd57600080fd5b506101f860048036038101906101f39190613b68565b61073e565b005b34801561020657600080fd5b50610221600480360381019061021c9190613be9565b611521565b005b34801561022f57600080fd5b5061024a600480360381019061024591906138be565b611941565b60405161025993929190613c56565b60405180910390f35b34801561026e57600080fd5b50610289600480360381019061028491906138be565b611998565b604051610297929190613d04565b60405180910390f35b3480156102ac57600080fd5b506102b56119e9565b6040516102c29190613d2d565b60405180910390f35b3480156102d757600080fd5b506102f260048036038101906102ed9190613d48565b611a0d565b60405161030193929190613dbd565b60405180910390f35b34801561031657600080fd5b5061031f611a44565b005b34801561032d57600080fd5b50610336611a58565b005b34801561034457600080fd5b5061034d611d13565b60405161035a9190613df4565b60405180910390f35b34801561036f57600080fd5b5061038a600480360381019061038591906138be565b611d3c565b60405161039d9796959493929190613e57565b60405180910390f35b3480156103b257600080fd5b506103cd60048036038101906103c89190613ec6565b611deb565b005b3480156103db57600080fd5b506103f660048036038101906103f191906138be565b6122f5565b60405161040593929190613c56565b60405180910390f35b34801561041a57600080fd5b5061042361234c565b6040516104309190613df4565b60405180910390f35b610441612370565b005b34801561044f57600080fd5b50610458612550565b6040516104659190613d2d565b60405180910390f35b61048860048036038101906104839190613f06565b61255c565b005b34801561049657600080fd5b5061049f6129a9565b005b6104bb60048036038101906104b691906138be565b612b28565b005b3480156104c957600080fd5b506104e460048036038101906104df9190613f6d565b612b34565b005b3480156104f257600080fd5b5061050d60048036038101906105089190613d48565b612e81565b005b34801561051b57600080fd5b50610536600480360381019061053191906138be565b612f04565b60405161054b9998979695949392919061401c565b60405180910390f35b34801561056057600080fd5b50610569612fff565b6040516105769190613d2d565b60405180910390f35b34801561058b57600080fd5b50610594613023565b6040516105a19190613d2d565b60405180910390f35b600160006105b6613047565b73ffffffffffffffffffffffffffffffffffffffff1673ffffffffffffffffffffffffffffffffffffffff16815260200190815260200160002060000160009054906101000a900460ff16600481111561061357610612613c8d565b5b6001600481111561062757610626613c8d565b5b14610667576040517f08c379a000000000000000000000000000000000000000000000000000000000815260040161065e9061412c565b60405180910390fd5b6106708161304f565b6003600082815260200190815260200160002060050160009054906101000a900473ffffffffffffffffffffffffffffffffffffffff1673ffffffffffffffffffffffffffffffffffffffff166342966c6860036000848152602001908152602001600020600401546040518263ffffffff1660e01b81526004016106f59190613d2d565b600060405180830381600087803b15801561070f57600080fd5b505af1158015610723573d6000803e3d6000fd5b5050505050565b600063150b7a0260e01b9050949350505050565b7f000000000000000000000000000000000000000000000000000000000000000073ffffffffffffffffffffffffffffffffffffffff1661077d613319565b73ffffffffffffffffffffffffffffffffffffffff16146107d3576040517f08c379a00000000000000000000000000000000000000000000000000000000081526004016107ca906141be565b60405180910390fd5b600080828060200190518101906107ea919061428d565b915091508015610ed457600080600080600080878060200190518101906108119190614361565b9550955095509550955095506000600260008881526020019081526020016000206040518060e0016040529081600082015481526020016001820160009054906101000a900460ff16600481111561086c5761086b613c8d565b5b600481111561087e5761087d613c8d565b5b81526020016001820160019054906101000a900473ffffffffffffffffffffffffffffffffffffffff1673ffffffffffffffffffffffffffffffffffffffff1673ffffffffffffffffffffffffffffffffffffffff168152602001600282015481526020016003820160009054906101000a900473ffffffffffffffffffffffffffffffffffffffff1673ffffffffffffffffffffffffffffffffffffffff1673ffffffffffffffffffffffffffffffffffffffff168152602001600482015481526020016005820160009054906101000a900473ffffffffffffffffffffffffffffffffffffffff1673ffffffffffffffffffffffffffffffffffffffff1673ffffffffffffffffffffffffffffffffffffffff16815250509050600060048111156109ae576109ad613c8d565b5b816020015160048111156109c5576109c4613c8d565b5b03610a05576040517f08c379a00000000000000000000000000000000000000000000000000000000081526004016109fc90614460565b60405180910390fd5b426138408260a00151610a1891906144af565b11610a58576040517f08c379a0000000000000000000000000000000000000000000000000000000008152600401610a4f90614555565b60405180910390fd5b60026005811115610a6c57610a6b613c8d565b5b866005811115610a7f57610a7e613c8d565b5b148015610abb57508473ffffffffffffffffffffffffffffffffffffffff16816040015173ffffffffffffffffffffffffffffffffffffffff16145b8015610aca5750838160600151145b8015610b0557508273ffffffffffffffffffffffffffffffffffffffff16816080015173ffffffffffffffffffffffffffffffffffffffff16145b8015610b4057508173ffffffffffffffffffffffffffffffffffffffff168160c0015173ffffffffffffffffffffffffffffffffffffffff16145b15610c2857600181602001906004811115610b5e57610b5d613c8d565b5b90816004811115610b7257610b71613c8d565b5b8152505060018060008360c0015173ffffffffffffffffffffffffffffffffffffffff1673ffffffffffffffffffffffffffffffffffffffff16815260200190815260200160002060000160006101000a81548160ff02191690836004811115610bdf57610bde613c8d565b5b021790555060006004600089815260200190815260200160002060000160146101000a81548160ff02191690836002811115610c1e57610c1d613c8d565b5b0217905550610ec8565b600381602001906004811115610c4157610c40613c8d565b5b90816004811115610c5557610c54613c8d565b5b815250506004600160008360c0015173ffffffffffffffffffffffffffffffffffffffff1673ffffffffffffffffffffffffffffffffffffffff16815260200190815260200160002060000160006101000a81548160ff02191690836004811115610cc357610cc2613c8d565b5b0217905550806080015173ffffffffffffffffffffffffffffffffffffffff166342966c6882606001516040518263ffffffff1660e01b8152600401610d099190613d2d565b600060405180830381600087803b158015610d2357600080fd5b505af1158015610d37573d6000803e3d6000fd5b5050505060016002811115610d4f57610d4e613c8d565b5b6004600089815260200190815260200160002060000160149054906101000a900460ff166002811115610d8557610d84613c8d565b5b03610e88576004600088815260200190815260200160002060000160009054906101000a900473ffffffffffffffffffffffffffffffffffffffff166005600089815260200190815260200160002060000160006101000a81548173ffffffffffffffffffffffffffffffffffffffff021916908373ffffffffffffffffffffffffffffffffffffffff16021790555060047f0000000000000000000000000000000000000000000000000000000000000000610e4291906145a4565b7f0000000000000000000000000000000000000000000000000000000000000000610e6d91906144af565b60056000898152602001908152602001600020600101819055505b60026004600089815260200190815260200160002060000160146101000a81548160ff02191690836002811115610ec257610ec1613c8d565b5b02179055505b5050505050505061151c565b600080600080600080600088806020019051810190610ef391906145fa565b9650965096509650965096509650600060036000898152602001908152602001600020604051806101200160405290816000820160009054906101000a900460ff166005811115610f4757610f46613c8d565b5b6005811115610f5957610f58613c8d565b5b8152602001600182015481526020016002820160009054906101000a900473ffffffffffffffffffffffffffffffffffffffff1673ffffffffffffffffffffffffffffffffffffffff1673ffffffffffffffffffffffffffffffffffffffff1681526020016003820160009054906101000a900473ffffffffffffffffffffffffffffffffffffffff1673ffffffffffffffffffffffffffffffffffffffff1673ffffffffffffffffffffffffffffffffffffffff168152602001600482015481526020016005820160009054906101000a900473ffffffffffffffffffffffffffffffffffffffff1673ffffffffffffffffffffffffffffffffffffffff1673ffffffffffffffffffffffffffffffffffffffff1681526020016006820160009054906101000a900473ffffffffffffffffffffffffffffffffffffffff1673ffffffffffffffffffffffffffffffffffffffff1673ffffffffffffffffffffffffffffffffffffffff168152602001600782015481526020016008820160009054906101000a900473ffffffffffffffffffffffffffffffffffffffff1673ffffffffffffffffffffffffffffffffffffffff1673ffffffffffffffffffffffffffffffffffffffff168152505090506000600581111561113f5761113e613c8d565b5b8160000151600581111561115657611155613c8d565b5b03611196576040517f08c379a000000000000000000000000000000000000000000000000000000000815260040161118d90614460565b60405180910390fd5b426138408260e001516111a991906144af565b106111e9576040517f08c379a00000000000000000000000000000000000000000000000000000000081526004016111e09061470e565b60405180910390fd5b600160048111156111fd576111fc613c8d565b5b8760048111156112105761120f613c8d565b5b14801561124c57508573ffffffffffffffffffffffffffffffffffffffff16816060015173ffffffffffffffffffffffffffffffffffffffff16145b801561125b5750848160800151145b801561129657508373ffffffffffffffffffffffffffffffffffffffff168160a0015173ffffffffffffffffffffffffffffffffffffffff16145b80156112d257508273ffffffffffffffffffffffffffffffffffffffff1681610100015173ffffffffffffffffffffffffffffffffffffffff16145b1561131d576000611318576040517f08c379a000000000000000000000000000000000000000000000000000000000815260040161130f906147a0565b60405180910390fd5b611513565b60048160000190600581111561133657611335613c8d565b5b9081600581111561134a57611349613c8d565b5b8152505060046001600083610100015173ffffffffffffffffffffffffffffffffffffffff1673ffffffffffffffffffffffffffffffffffffffff16815260200190815260200160002060000160006101000a81548160ff021916908360048111156113b9576113b8613c8d565b5b02179055508060a0015173ffffffffffffffffffffffffffffffffffffffff166340c10f19826040015183608001516040518363ffffffff1660e01b81526004016114059291906147c0565b600060405180830381600087803b15801561141f57600080fd5b505af1158015611433573d6000803e3d6000fd5b5050505081600660008a815260200190815260200160002060000160006101000a81548173ffffffffffffffffffffffffffffffffffffffff021916908373ffffffffffffffffffffffffffffffffffffffff16021790555060047f00000000000000000000000000000000000000000000000000000000000000006114b991906145a4565b600660008a8152602001908152602001600020600101819055506002600460008a815260200190815260200160002060000160146101000a81548160ff0219169083600281111561150d5761150c613c8d565b5b02179055505b50505050505050505b505050565b8015611734576006600083815260200190815260200160002060020160009054906101000a900460ff161561158b576040517f08c379a00000000000000000000000000000000000000000000000000000000081526004016115829061485b565b60405180910390fd5b611593613047565b73ffffffffffffffffffffffffffffffffffffffff166006600084815260200190815260200160002060000160009054906101000a900473ffffffffffffffffffffffffffffffffffffffff1673ffffffffffffffffffffffffffffffffffffffff1614611636576040517f08c379a000000000000000000000000000000000000000000000000000000000815260040161162d906148ed565b60405180910390fd5b60016006600084815260200190815260200160002060020160006101000a81548160ff021916908315150217905550600061166f613047565b73ffffffffffffffffffffffffffffffffffffffff1660066000858152602001908152602001600020600101546040516116a89061493e565b60006040518083038185875af1925050503d80600081146116e5576040519150601f19603f3d011682016040523d82523d6000602084013e6116ea565b606091505b505090508061172e576040517f08c379a00000000000000000000000000000000000000000000000000000000081526004016117259061499f565b60405180910390fd5b5061193d565b6005600083815260200190815260200160002060020160009054906101000a900460ff1615611798576040517f08c379a000000000000000000000000000000000000000000000000000000000815260040161178f9061485b565b60405180910390fd5b6117a0613047565b73ffffffffffffffffffffffffffffffffffffffff166005600084815260200190815260200160002060000160009054906101000a900473ffffffffffffffffffffffffffffffffffffffff1673ffffffffffffffffffffffffffffffffffffffff1614611843576040517f08c379a000000000000000000000000000000000000000000000000000000000815260040161183a906148ed565b60405180910390fd5b60016005600084815260200190815260200160002060020160006101000a81548160ff021916908315150217905550600061187c613047565b73ffffffffffffffffffffffffffffffffffffffff1660056000858152602001908152602001600020600101546040516118b59061493e565b60006040518083038185875af1925050503d80600081146118f2576040519150601f19603f3d011682016040523d82523d6000602084013e6118f7565b606091505b505090508061193b576040517f08c379a00000000000000000000000000000000000000000000000000000000081526004016119329061499f565b60405180910390fd5b505b5050565b60066020528060005260406000206000915090508060000160009054906101000a900473ffffffffffffffffffffffffffffffffffffffff16908060010154908060020160009054906101000a900460ff16905083565b60046020528060005260406000206000915090508060000160009054906101000a900473ffffffffffffffffffffffffffffffffffffffff16908060000160149054906101000a900460ff16905082565b7f000000000000000000000000000000000000000000000000000000000000000081565b60016020528060005260406000206000915090508060000160009054906101000a900460ff16908060010154908060020154905083565b611a4c613328565b611a5660006133a6565b565b60016000611a64613047565b73ffffffffffffffffffffffffffffffffffffffff1673ffffffffffffffffffffffffffffffffffffffff16815260200190815260200160002060000160009054906101000a900460ff166004811115611ac157611ac0613c8d565b5b60026004811115611ad557611ad4613c8d565b5b14611b15576040517f08c379a0000000000000000000000000000000000000000000000000000000008152600401611b0c90614a31565b60405180910390fd5b7f000000000000000000000000000000000000000000000000000000000000000060016000611b42613047565b73ffffffffffffffffffffffffffffffffffffffff1673ffffffffffffffffffffffffffffffffffffffff16815260200190815260200160002060010154611b8a91906144af565b4211611bcb576040517f08c379a0000000000000000000000000000000000000000000000000000000008152600401611bc290614ac3565b60405180910390fd5b6000611bd5613047565b73ffffffffffffffffffffffffffffffffffffffff167f0000000000000000000000000000000000000000000000000000000000000000604051611c189061493e565b60006040518083038185875af1925050503d8060008114611c55576040519150601f19603f3d011682016040523d82523d6000602084013e611c5a565b606091505b5050905080611c9e576040517f08c379a0000000000000000000000000000000000000000000000000000000008152600401611c959061499f565b60405180910390fd5b600060016000611cac613047565b73ffffffffffffffffffffffffffffffffffffffff1673ffffffffffffffffffffffffffffffffffffffff16815260200190815260200160002060000160006101000a81548160ff02191690836004811115611d0b57611d0a613c8d565b5b021790555050565b60008060009054906101000a900473ffffffffffffffffffffffffffffffffffffffff16905090565b60026020528060005260406000206000915090508060000154908060010160009054906101000a900460ff16908060010160019054906101000a900473ffffffffffffffffffffffffffffffffffffffff16908060020154908060030160009054906101000a900473ffffffffffffffffffffffffffffffffffffffff16908060040154908060050160009054906101000a900473ffffffffffffffffffffffffffffffffffffffff16905087565b811561209357600060036000838152602001908152602001600020604051806101200160405290816000820160009054906101000a900460ff166005811115611e3757611e36613c8d565b5b6005811115611e4957611e48613c8d565b5b8152602001600182015481526020016002820160009054906101000a900473ffffffffffffffffffffffffffffffffffffffff1673ffffffffffffffffffffffffffffffffffffffff1673ffffffffffffffffffffffffffffffffffffffff1681526020016003820160009054906101000a900473ffffffffffffffffffffffffffffffffffffffff1673ffffffffffffffffffffffffffffffffffffffff1673ffffffffffffffffffffffffffffffffffffffff168152602001600482015481526020016005820160009054906101000a900473ffffffffffffffffffffffffffffffffffffffff1673ffffffffffffffffffffffffffffffffffffffff1673ffffffffffffffffffffffffffffffffffffffff1681526020016006820160009054906101000a900473ffffffffffffffffffffffffffffffffffffffff1673ffffffffffffffffffffffffffffffffffffffff1673ffffffffffffffffffffffffffffffffffffffff168152602001600782015481526020016008820160009054906101000a900473ffffffffffffffffffffffffffffffffffffffff1673ffffffffffffffffffffffffffffffffffffffff1673ffffffffffffffffffffffffffffffffffffffff168152505090506000828260000151836060015184608001518560a0015186610100015160405160200161204d96959493929190614ae3565b6040516020818303038152906040529050806001604051602001612072929190614b99565b604051602081830303815290604052905061208c8161346a565b50506122f1565b4261384060026000848152602001908152602001600020600401546120b891906144af565b106120f8576040517f08c379a00000000000000000000000000000000000000000000000000000000081526004016120ef90614c3b565b60405180910390fd5b6000600260008381526020019081526020016000206040518060e0016040529081600082015481526020016001820160009054906101000a900460ff16600481111561214757612146613c8d565b5b600481111561215957612158613c8d565b5b81526020016001820160019054906101000a900473ffffffffffffffffffffffffffffffffffffffff1673ffffffffffffffffffffffffffffffffffffffff1673ffffffffffffffffffffffffffffffffffffffff168152602001600282015481526020016003820160009054906101000a900473ffffffffffffffffffffffffffffffffffffffff1673ffffffffffffffffffffffffffffffffffffffff1673ffffffffffffffffffffffffffffffffffffffff168152602001600482015481526020016005820160009054906101000a900473ffffffffffffffffffffffffffffffffffffffff1673ffffffffffffffffffffffffffffffffffffffff1673ffffffffffffffffffffffffffffffffffffffff1681525050905060008282602001518360400151846060015185608001518660c00151612299613047565b6040516020016122af9796959493929190614c5b565b60405160208183030381529060405290508060006040516020016122d4929190614b99565b60405160208183030381529060405290506122ee8161346a565b50505b5050565b60056020528060005260406000206000915090508060000160009054906101000a900473ffffffffffffffffffffffffffffffffffffffff16908060010154908060020160009054906101000a900460ff16905083565b7f000000000000000000000000000000000000000000000000000000000000000081565b6001600061237c613047565b73ffffffffffffffffffffffffffffffffffffffff1673ffffffffffffffffffffffffffffffffffffffff16815260200190815260200160002060000160009054906101000a900460ff1660048111156123d9576123d8613c8d565b5b600060048111156123ed576123ec613c8d565b5b1461242d576040517f08c379a000000000000000000000000000000000000000000000000000000000815260040161242490614d3c565b60405180910390fd5b7f0000000000000000000000000000000000000000000000000000000000000000341461248f576040517f08c379a000000000000000000000000000000000000000000000000000000000815260040161248690614dce565b60405180910390fd5b600180600061249c613047565b73ffffffffffffffffffffffffffffffffffffffff1673ffffffffffffffffffffffffffffffffffffffff16815260200190815260200160002060000160006101000a81548160ff021916908360048111156124fb576124fa613c8d565b5b0217905550346001600061250d613047565b73ffffffffffffffffffffffffffffffffffffffff1673ffffffffffffffffffffffffffffffffffffffff16815260200190815260200160002060020181905550565b60078060000154905081565b6000341161259f576040517f08c379a000000000000000000000000000000000000000000000000000000000815260040161259690614e60565b60405180910390fd5b600160048111156125b3576125b2613c8d565b5b6002600083815260200190815260200160002060010160009054906101000a900460ff1660048111156125e9576125e8613c8d565b5b14612629576040517f08c379a000000000000000000000000000000000000000000000000000000000815260040161262090614ef2565b60405180910390fd5b42613840600260008481526020019081526020016000206004015461264e91906144af565b1061268e576040517f08c379a000000000000000000000000000000000000000000000000000000000815260040161268590614f84565b60405180910390fd5b8173ffffffffffffffffffffffffffffffffffffffff166342842e0e3330866040518463ffffffff1660e01b81526004016126cb93929190614fa4565b600060405180830381600087803b1580156126e557600080fd5b505af11580156126f9573d6000803e3d6000fd5b505050506040518061012001604052806001600581111561271d5761271c613c8d565b5b8152602001348152602001612730613047565b73ffffffffffffffffffffffffffffffffffffffff1681526020018573ffffffffffffffffffffffffffffffffffffffff1681526020018481526020018373ffffffffffffffffffffffffffffffffffffffff168152602001600073ffffffffffffffffffffffffffffffffffffffff16815260200160008152602001600073ffffffffffffffffffffffffffffffffffffffff16815250600360006127d660076134f8565b815260200190815260200160002060008201518160000160006101000a81548160ff0219169083600581111561280f5761280e613c8d565b5b02179055506020820151816001015560408201518160020160006101000a81548173ffffffffffffffffffffffffffffffffffffffff021916908373ffffffffffffffffffffffffffffffffffffffff16021790555060608201518160030160006101000a81548173ffffffffffffffffffffffffffffffffffffffff021916908373ffffffffffffffffffffffffffffffffffffffff1602179055506080820151816004015560a08201518160050160006101000a81548173ffffffffffffffffffffffffffffffffffffffff021916908373ffffffffffffffffffffffffffffffffffffffff16021790555060c08201518160060160006101000a81548173ffffffffffffffffffffffffffffffffffffffff021916908373ffffffffffffffffffffffffffffffffffffffff16021790555060e082015181600701556101008201518160080160006101000a81548173ffffffffffffffffffffffffffffffffffffffff021916908373ffffffffffffffffffffffffffffffffffffffff1602179055509050506129a36007613506565b50505050565b600160006129b5613047565b73ffffffffffffffffffffffffffffffffffffffff1673ffffffffffffffffffffffffffffffffffffffff16815260200190815260200160002060000160009054906101000a900460ff166004811115612a1257612a11613c8d565b5b60016004811115612a2657612a25613c8d565b5b14612a66576040517f08c379a0000000000000000000000000000000000000000000000000000000008152600401612a5d9061412c565b60405180910390fd5b600260016000612a74613047565b73ffffffffffffffffffffffffffffffffffffffff1673ffffffffffffffffffffffffffffffffffffffff16815260200190815260200160002060000160006101000a81548160ff02191690836004811115612ad357612ad2613c8d565b5b02179055504260016000612ae5613047565b73ffffffffffffffffffffffffffffffffffffffff1673ffffffffffffffffffffffffffffffffffffffff16815260200190815260200160002060010181905550565b612b318161351c565b50565b60016000612b40613047565b73ffffffffffffffffffffffffffffffffffffffff1673ffffffffffffffffffffffffffffffffffffffff16815260200190815260200160002060000160009054906101000a900460ff166004811115612b9d57612b9c613c8d565b5b60016004811115612bb157612bb0613c8d565b5b14612bf1576040517f08c379a0000000000000000000000000000000000000000000000000000000008152600401612be89061412c565b60405180910390fd5b60006004811115612c0557612c04613c8d565b5b6002600086815260200190815260200160002060010160009054906101000a900460ff166004811115612c3b57612c3a613c8d565b5b14612c4557600080fd5b8073ffffffffffffffffffffffffffffffffffffffff166340c10f1984846040518363ffffffff1660e01b8152600401612c809291906147c0565b600060405180830381600087803b158015612c9a57600080fd5b505af1158015612cae573d6000803e3d6000fd5b505050506040518060e001604052806000815260200160016004811115612cd857612cd7613c8d565b5b81526020018473ffffffffffffffffffffffffffffffffffffffff1681526020018381526020018273ffffffffffffffffffffffffffffffffffffffff168152602001428152602001612d29613047565b73ffffffffffffffffffffffffffffffffffffffff16815250600260008681526020019081526020016000206000820151816000015560208201518160010160006101000a81548160ff02191690836004811115612d8a57612d89613c8d565b5b021790555060408201518160010160016101000a81548173ffffffffffffffffffffffffffffffffffffffff021916908373ffffffffffffffffffffffffffffffffffffffff1602179055506060820151816002015560808201518160030160006101000a81548173ffffffffffffffffffffffffffffffffffffffff021916908373ffffffffffffffffffffffffffffffffffffffff16021790555060a0820151816004015560c08201518160050160006101000a81548173ffffffffffffffffffffffffffffffffffffffff021916908373ffffffffffffffffffffffffffffffffffffffff16021790555090505050505050565b612e89613328565b600073ffffffffffffffffffffffffffffffffffffffff168173ffffffffffffffffffffffffffffffffffffffff1603612ef8576040517f08c379a0000000000000000000000000000000000000000000000000000000008152600401612eef9061504d565b60405180910390fd5b612f01816133a6565b50565b60036020528060005260406000206000915090508060000160009054906101000a900460ff16908060010154908060020160009054906101000a900473ffffffffffffffffffffffffffffffffffffffff16908060030160009054906101000a900473ffffffffffffffffffffffffffffffffffffffff16908060040154908060050160009054906101000a900473ffffffffffffffffffffffffffffffffffffffff16908060060160009054906101000a900473ffffffffffffffffffffffffffffffffffffffff16908060070154908060080160009054906101000a900473ffffffffffffffffffffffffffffffffffffffff16905089565b7f000000000000000000000000000000000000000000000000000000000000000081565b7f000000000000000000000000000000000000000000000000000000000000000081565b600033905090565b6001600061305b613047565b73ffffffffffffffffffffffffffffffffffffffff1673ffffffffffffffffffffffffffffffffffffffff16815260200190815260200160002060000160009054906101000a900460ff1660048111156130b8576130b7613c8d565b5b600160048111156130cc576130cb613c8d565b5b1461310c576040517f08c379a00000000000000000000000000000000000000000000000000000000081526004016131039061412c565b60405180910390fd5b600160058111156131205761311f613c8d565b5b6003600083815260200190815260200160002060000160009054906101000a900460ff16600581111561315657613155613c8d565b5b14613196576040517f08c379a000000000000000000000000000000000000000000000000000000000815260040161318d906150df565b60405180910390fd5b60026003600083815260200190815260200160002060000160006101000a81548160ff021916908360058111156131d0576131cf613c8d565b5b02179055506131dd613047565b6003600083815260200190815260200160002060080160006101000a81548173ffffffffffffffffffffffffffffffffffffffff021916908373ffffffffffffffffffffffffffffffffffffffff1602179055504260036000838152602001908152602001600020600701819055506000613256613047565b73ffffffffffffffffffffffffffffffffffffffff16600360008481526020019081526020016000206001015460405161328f9061493e565b60006040518083038185875af1925050503d80600081146132cc576040519150601f19603f3d011682016040523d82523d6000602084013e6132d1565b606091505b5050905080613315576040517f08c379a000000000000000000000000000000000000000000000000000000000815260040161330c9061499f565b60405180910390fd5b5050565b6000613323613047565b905090565b613330613047565b73ffffffffffffffffffffffffffffffffffffffff1661334e611d13565b73ffffffffffffffffffffffffffffffffffffffff16146133a4576040517f08c379a000000000000000000000000000000000000000000000000000000000815260040161339b9061514b565b60405180910390fd5b565b60008060009054906101000a900473ffffffffffffffffffffffffffffffffffffffff169050816000806101000a81548173ffffffffffffffffffffffffffffffffffffffff021916908373ffffffffffffffffffffffffffffffffffffffff1602179055508173ffffffffffffffffffffffffffffffffffffffff168173ffffffffffffffffffffffffffffffffffffffff167f8be0079c531659141344cd1fd0a4f28419497f9722a3daafe3b4186f6b6457e060405160405180910390a35050565b7f000000000000000000000000000000000000000000000000000000000000000073ffffffffffffffffffffffffffffffffffffffff16634ff746f6826040518263ffffffff1660e01b81526004016134c3919061516b565b600060405180830381600087803b1580156134dd57600080fd5b505af11580156134f1573d6000803e3d6000fd5b5050505050565b600081600001549050919050565b6001816000016000828254019250508190555050565b7f0000000000000000000000000000000000000000000000000000000000000000341461357e576040517f08c379a0000000000000000000000000000000000000000000000000000000008152600401613575906151ff565b60405180910390fd5b6001600481111561359257613591613c8d565b5b6002600083815260200190815260200160002060010160009054906101000a900460ff1660048111156135c8576135c7613c8d565b5b14613608576040517f08c379a00000000000000000000000000000000000000000000000000000000081526004016135ff90615291565b60405180910390fd5b42613840600260008481526020019081526020016000206004015461362d91906144af565b1161366d576040517f08c379a000000000000000000000000000000000000000000000000000000000815260040161366490615323565b60405180910390fd5b6000600281111561368157613680613c8d565b5b6004600083815260200190815260200160002060000160149054906101000a900460ff1660028111156136b7576136b6613c8d565b5b146136f7576040517f08c379a00000000000000000000000000000000000000000000000000000000081526004016136ee906153b5565b60405180910390fd5b600280600083815260200190815260200160002060010160006101000a81548160ff021916908360048111156137305761372f613c8d565b5b021790555061373d613047565b6004600083815260200190815260200160002060000160006101000a81548173ffffffffffffffffffffffffffffffffffffffff021916908373ffffffffffffffffffffffffffffffffffffffff16021790555060016004600083815260200190815260200160002060000160146101000a81548160ff021916908360028111156137cb576137ca613c8d565b5b02179055506003600160006002600085815260200190815260200160002060050160009054906101000a900473ffffffffffffffffffffffffffffffffffffffff1673ffffffffffffffffffffffffffffffffffffffff1673ffffffffffffffffffffffffffffffffffffffff16815260200190815260200160002060000160006101000a81548160ff0219169083600481111561386c5761386b613c8d565b5b021790555050565b6000604051905090565b600080fd5b600080fd5b6000819050919050565b61389b81613888565b81146138a657600080fd5b50565b6000813590506138b881613892565b92915050565b6000602082840312156138d4576138d361387e565b5b60006138e2848285016138a9565b91505092915050565b600073ffffffffffffffffffffffffffffffffffffffff82169050919050565b6000613916826138eb565b9050919050565b6139268161390b565b811461393157600080fd5b50565b6000813590506139438161391d565b92915050565b600080fd5b600080fd5b6000601f19601f8301169050919050565b7f4e487b7100000000000000000000000000000000000000000000000000000000600052604160045260246000fd5b61399c82613953565b810181811067ffffffffffffffff821117156139bb576139ba613964565b5b80604052505050565b60006139ce613874565b90506139da8282613993565b919050565b600067ffffffffffffffff8211156139fa576139f9613964565b5b613a0382613953565b9050602081019050919050565b82818337600083830152505050565b6000613a32613a2d846139df565b6139c4565b905082815260208101848484011115613a4e57613a4d61394e565b5b613a59848285613a10565b509392505050565b600082601f830112613a7657613a75613949565b5b8135613a86848260208601613a1f565b91505092915050565b60008060008060808587031215613aa957613aa861387e565b5b6000613ab787828801613934565b9450506020613ac887828801613934565b9350506040613ad9878288016138a9565b925050606085013567ffffffffffffffff811115613afa57613af9613883565b5b613b0687828801613a61565b91505092959194509250565b60007fffffffff0000000000000000000000000000000000000000000000000000000082169050919050565b613b4781613b12565b82525050565b6000602082019050613b626000830184613b3e565b92915050565b600060208284031215613b7e57613b7d61387e565b5b600082013567ffffffffffffffff811115613b9c57613b9b613883565b5b613ba884828501613a61565b91505092915050565b60008115159050919050565b613bc681613bb1565b8114613bd157600080fd5b50565b600081359050613be381613bbd565b92915050565b60008060408385031215613c0057613bff61387e565b5b6000613c0e858286016138a9565b9250506020613c1f85828601613bd4565b9150509250929050565b613c328161390b565b82525050565b613c4181613888565b82525050565b613c5081613bb1565b82525050565b6000606082019050613c6b6000830186613c29565b613c786020830185613c38565b613c856040830184613c47565b949350505050565b7f4e487b7100000000000000000000000000000000000000000000000000000000600052602160045260246000fd5b60038110613ccd57613ccc613c8d565b5b50565b6000819050613cde82613cbc565b919050565b6000613cee82613cd0565b9050919050565b613cfe81613ce3565b82525050565b6000604082019050613d196000830185613c29565b613d266020830184613cf5565b9392505050565b6000602082019050613d426000830184613c38565b92915050565b600060208284031215613d5e57613d5d61387e565b5b6000613d6c84828501613934565b91505092915050565b60058110613d8657613d85613c8d565b5b50565b6000819050613d9782613d75565b919050565b6000613da782613d89565b9050919050565b613db781613d9c565b82525050565b6000606082019050613dd26000830186613dae565b613ddf6020830185613c38565b613dec6040830184613c38565b949350505050565b6000602082019050613e096000830184613c29565b92915050565b60058110613e2057613e1f613c8d565b5b50565b6000819050613e3182613e0f565b919050565b6000613e4182613e23565b9050919050565b613e5181613e36565b82525050565b600060e082019050613e6c600083018a613c38565b613e796020830189613e48565b613e866040830188613c29565b613e936060830187613c38565b613ea06080830186613c29565b613ead60a0830185613c38565b613eba60c0830184613c29565b98975050505050505050565b60008060408385031215613edd57613edc61387e565b5b6000613eeb85828601613bd4565b9250506020613efc858286016138a9565b9150509250929050565b60008060008060808587031215613f2057613f1f61387e565b5b6000613f2e87828801613934565b9450506020613f3f878288016138a9565b9350506040613f5087828801613934565b9250506060613f61878288016138a9565b91505092959194509250565b60008060008060808587031215613f8757613f8661387e565b5b6000613f95878288016138a9565b9450506020613fa687828801613934565b9350506040613fb7878288016138a9565b9250506060613fc887828801613934565b91505092959194509250565b60068110613fe557613fe4613c8d565b5b50565b6000819050613ff682613fd4565b919050565b600061400682613fe8565b9050919050565b61401681613ffb565b82525050565b600061012082019050614032600083018c61400d565b61403f602083018b613c38565b61404c604083018a613c29565b6140596060830189613c29565b6140666080830188613c38565b61407360a0830187613c29565b61408060c0830186613c29565b61408d60e0830185613c38565b61409b610100830184613c29565b9a9950505050505050505050565b600082825260208201905092915050565b7f53706f6b654272696467653a2063616c6c6572206973206e6f7420612072656c60008201527f6179657221000000000000000000000000000000000000000000000000000000602082015250565b60006141166025836140a9565b9150614121826140ba565b604082019050919050565b6000602082019050818103600083015261414581614109565b9050919050565b7f53706f6b654272696467653a2063616c6c6572206973206e6f7420746865206860008201527f7562210000000000000000000000000000000000000000000000000000000000602082015250565b60006141a86023836140a9565b91506141b38261414c565b604082019050919050565b600060208201905081810360008301526141d78161419b565b9050919050565b60005b838110156141fc5780820151818401526020810190506141e1565b60008484015250505050565b600061421b614216846139df565b6139c4565b9050828152602081018484840111156142375761423661394e565b5b6142428482856141de565b509392505050565b600082601f83011261425f5761425e613949565b5b815161426f848260208601614208565b91505092915050565b60008151905061428781613bbd565b92915050565b600080604083850312156142a4576142a361387e565b5b600083015167ffffffffffffffff8111156142c2576142c1613883565b5b6142ce8582860161424a565b92505060206142df85828601614278565b9150509250929050565b6000815190506142f881613892565b92915050565b6006811061430b57600080fd5b50565b60008151905061431d816142fe565b92915050565b600061432e826138eb565b9050919050565b61433e81614323565b811461434957600080fd5b50565b60008151905061435b81614335565b92915050565b60008060008060008060c0878903121561437e5761437d61387e565b5b600061438c89828a016142e9565b965050602061439d89828a0161430e565b95505060406143ae89828a0161434c565b94505060606143bf89828a016142e9565b93505060806143d089828a0161434c565b92505060a06143e189828a0161434c565b9150509295509295509295565b7f44737453706f6b654272646967653a205468657265206973206e6f20636f727260008201527f6573706f6e64696e67206c6f63616c2062696421000000000000000000000000602082015250565b600061444a6034836140a9565b9150614455826143ee565b604082019050919050565b600060208201905081810360008301526144798161443d565b9050919050565b7f4e487b7100000000000000000000000000000000000000000000000000000000600052601160045260246000fd5b60006144ba82613888565b91506144c583613888565b92508282019050808211156144dd576144dc614480565b5b92915050565b7f44737453706f6b654272696467653a2054696d652077696e646f77206973206560008201527f7870697265642100000000000000000000000000000000000000000000000000602082015250565b600061453f6027836140a9565b915061454a826144e3565b604082019050919050565b6000602082019050818103600083015261456e81614532565b9050919050565b7f4e487b7100000000000000000000000000000000000000000000000000000000600052601260045260246000fd5b60006145af82613888565b91506145ba83613888565b9250826145ca576145c9614575565b5b828204905092915050565b600581106145e257600080fd5b50565b6000815190506145f4816145d5565b92915050565b600080600080600080600060e0888a0312156146195761461861387e565b5b60006146278a828b016142e9565b97505060206146388a828b016145e5565b96505060406146498a828b0161434c565b955050606061465a8a828b016142e9565b945050608061466b8a828b0161434c565b93505060a061467c8a828b0161434c565b92505060c061468d8a828b0161434c565b91505092959891949750929550565b7f44737453706f6b654272696467653a2054696d652077696e646f77206973206e60008201527f6f74206578706972656421000000000000000000000000000000000000000000602082015250565b60006146f8602b836140a9565b91506147038261469c565b604082019050919050565b60006020820190508181036000830152614727816146eb565b9050919050565b7f44737453706f6b654272696467653a2046616c7365206368616c6c656e67696e60008201527f6721000000000000000000000000000000000000000000000000000000000000602082015250565b600061478a6022836140a9565b91506147958261472e565b604082019050919050565b600060208201905081810360008301526147b98161477d565b9050919050565b60006040820190506147d56000830185613c29565b6147e26020830184613c38565b9392505050565b7f53706f6b654272696467653a2072657761726420697320616c7265616479206360008201527f6c61696d65642100000000000000000000000000000000000000000000000000602082015250565b60006148456027836140a9565b9150614850826147e9565b604082019050919050565b6000602082019050818103600083015261487481614838565b9050919050565b7f53706f6b654272696467653a206368616c6c656e676572206973206e6f74207460008201527f68652073656e6465722100000000000000000000000000000000000000000000602082015250565b60006148d7602a836140a9565b91506148e28261487b565b604082019050919050565b60006020820190508181036000830152614906816148ca565b9050919050565b600081905092915050565b50565b600061492860008361490d565b915061493382614918565b600082019050919050565b60006149498261491b565b9150819050919050565b7f4661696c656420746f2073656e64204574686572000000000000000000000000600082015250565b60006149896014836140a9565b915061499482614953565b602082019050919050565b600060208201905081810360008301526149b88161497c565b9050919050565b7f53706f6b654272696467653a2063616c6c6572206973206e6f7420696e20756e60008201527f6465706f73697465642073746174652100000000000000000000000000000000602082015250565b6000614a1b6030836140a9565b9150614a26826149bf565b604082019050919050565b60006020820190508181036000830152614a4a81614a0e565b9050919050565b7f53706f6b654272696467653a20322064617973206973206e6f7420657870697260008201527f65642066726f6d2074686520756e6465706f736974696e672100000000000000602082015250565b6000614aad6039836140a9565b9150614ab882614a51565b604082019050919050565b60006020820190508181036000830152614adc81614aa0565b9050919050565b600060c082019050614af86000830189613c38565b614b05602083018861400d565b614b126040830187613c29565b614b1f6060830186613c38565b614b2c6080830185613c29565b614b3960a0830184613c29565b979650505050505050565b600081519050919050565b600082825260208201905092915050565b6000614b6b82614b44565b614b758185614b4f565b9350614b858185602086016141de565b614b8e81613953565b840191505092915050565b60006040820190508181036000830152614bb38185614b60565b9050614bc26020830184613c47565b9392505050565b7f44737453706f6b654272696467653a20746f6f206561726c7920746f2073656e60008201527f642070726f6f6621000000000000000000000000000000000000000000000000602082015250565b6000614c256028836140a9565b9150614c3082614bc9565b604082019050919050565b60006020820190508181036000830152614c5481614c18565b9050919050565b600060e082019050614c70600083018a613c38565b614c7d6020830189613e48565b614c8a6040830188613c29565b614c976060830187613c38565b614ca46080830186613c29565b614cb160a0830185613c29565b614cbe60c0830184613c29565b98975050505050505050565b7f53706f6b654272696467653a2063616c6c65722063616e6e6f7420626520612060008201527f72656c6179657221000000000000000000000000000000000000000000000000602082015250565b6000614d266028836140a9565b9150614d3182614cca565b604082019050919050565b60006020820190508181036000830152614d5581614d19565b9050919050565b7f53706f6b654272696467653a206d73672e76616c7565206973206e6f7420617060008201527f70726f7072696174652100000000000000000000000000000000000000000000602082015250565b6000614db8602a836140a9565b9150614dc382614d5c565b604082019050919050565b60006020820190508181036000830152614de781614dab565b9050919050565b7f44737453706f6b654272696467653a207468657265206973206e6f206665652060008201527f666f722072656c61796572732100000000000000000000000000000000000000602082015250565b6000614e4a602d836140a9565b9150614e5582614dee565b604082019050919050565b60006020820190508181036000830152614e7981614e3d565b9050919050565b7f44737453706f6b654272696467653a20696e636f6d696e67206269642069732060008201527f6e6f742072656c61796564210000000000000000000000000000000000000000602082015250565b6000614edc602c836140a9565b9150614ee782614e80565b604082019050919050565b60006020820190508181036000830152614f0b81614ecf565b9050919050565b7f44737453706f6b654272696467653a20746f6f206561726c7920756e7772617060008201527f70696e6721000000000000000000000000000000000000000000000000000000602082015250565b6000614f6e6025836140a9565b9150614f7982614f12565b604082019050919050565b60006020820190508181036000830152614f9d81614f61565b9050919050565b6000606082019050614fb96000830186613c29565b614fc66020830185613c29565b614fd36040830184613c38565b949350505050565b7f4f776e61626c653a206e6577206f776e657220697320746865207a65726f206160008201527f6464726573730000000000000000000000000000000000000000000000000000602082015250565b60006150376026836140a9565b915061504282614fdb565b604082019050919050565b600060208201905081810360008301526150668161502a565b9050919050565b7f53706f6b654272696467653a2062696420646f6573206e6f742068617665204360008201527f7265617465642073746174650000000000000000000000000000000000000000602082015250565b60006150c9602c836140a9565b91506150d48261506d565b604082019050919050565b600060208201905081810360008301526150f8816150bc565b9050919050565b7f4f776e61626c653a2063616c6c6572206973206e6f7420746865206f776e6572600082015250565b60006151356020836140a9565b9150615140826150ff565b602082019050919050565b6000602082019050818103600083015261516481615128565b9050919050565b600060208201905081810360008301526151858184614b60565b905092915050565b7f53706f6b654272696467653a204e6f20656e6f75676820616d6f756e74206f6660008201527f2045544820746f207374616b6521000000000000000000000000000000000000602082015250565b60006151e9602e836140a9565b91506151f48261518d565b604082019050919050565b60006020820190508181036000830152615218816151dc565b9050919050565b7f53706f6b654272696467653a20436f72726573706f6e64696e6720696e636f6d60008201527f696e672062696420737461747573206973206e6f742072656c61796564210000602082015250565b600061527b603e836140a9565b91506152868261521f565b604082019050919050565b600060208201905081810360008301526152aa8161526e565b9050919050565b7f53706f6b654272696467653a20546865206469737075746520706572696f642060008201527f6973206578706972656421000000000000000000000000000000000000000000602082015250565b600061530d602b836140a9565b9150615318826152b1565b604082019050919050565b6000602082019050818103600083015261533c81615300565b9050919050565b7f53706f6b654272696467653a2062696420697320616c7265616479206368616c60008201527f6c656e6765642100000000000000000000000000000000000000000000000000602082015250565b600061539f6027836140a9565b91506153aa82615343565b604082019050919050565b600060208201905081810360008301526153ce81615392565b905091905056fea26469706673582212200d84da6ea5448609f3c37d536b73b139eb6eacb02edf73b7072e177d300348c964736f6c63430008120033","opcodes":"PUSH2 0x100 PUSH1 0x40 MSTORE CALLVALUE DUP1 ISZERO PUSH3 0x12 JUMPI PUSH1 0x0 DUP1 REVERT JUMPDEST POP PUSH1 0x40 MLOAD PUSH3 0x56AF CODESIZE SUB DUP1 PUSH3 0x56AF DUP4 CODECOPY DUP2 DUP2 ADD PUSH1 0x40 MSTORE DUP2 ADD SWAP1 PUSH3 0x38 SWAP2 SWAP1 PUSH3 0x1F9 JUMP JUMPDEST DUP1 DUP1 PUSH3 0x5A PUSH3 0x4E PUSH3 0xC3 PUSH1 0x20 SHL PUSH1 0x20 SHR JUMP JUMPDEST PUSH3 0xCB PUSH1 0x20 SHL PUSH1 0x20 SHR JUMP JUMPDEST DUP1 PUSH20 0xFFFFFFFFFFFFFFFFFFFFFFFFFFFFFFFFFFFFFFFF AND PUSH1 0xE0 DUP2 PUSH20 0xFFFFFFFFFFFFFFFFFFFFFFFFFFFFFFFFFFFFFFFF AND DUP2 MSTORE POP POP PUSH9 0x1158E460913D00000 PUSH1 0x80 DUP2 DUP2 MSTORE POP POP PUSH8 0x8AC7230489E80000 PUSH1 0xA0 DUP2 DUP2 MSTORE POP POP PUSH3 0x2A300 PUSH1 0xC0 DUP2 DUP2 MSTORE POP POP POP POP POP PUSH3 0x22B JUMP JUMPDEST PUSH1 0x0 CALLER SWAP1 POP SWAP1 JUMP JUMPDEST PUSH1 0x0 DUP1 PUSH1 0x0 SWAP1 SLOAD SWAP1 PUSH2 0x100 EXP SWAP1 DIV PUSH20 0xFFFFFFFFFFFFFFFFFFFFFFFFFFFFFFFFFFFFFFFF AND SWAP1 POP DUP2 PUSH1 0x0 DUP1 PUSH2 0x100 EXP DUP2 SLOAD DUP2 PUSH20 0xFFFFFFFFFFFFFFFFFFFFFFFFFFFFFFFFFFFFFFFF MUL NOT AND SWAP1 DUP4 PUSH20 0xFFFFFFFFFFFFFFFFFFFFFFFFFFFFFFFFFFFFFFFF AND MUL OR SWAP1 SSTORE POP DUP2 PUSH20 0xFFFFFFFFFFFFFFFFFFFFFFFFFFFFFFFFFFFFFFFF AND DUP2 PUSH20 0xFFFFFFFFFFFFFFFFFFFFFFFFFFFFFFFFFFFFFFFF AND PUSH32 0x8BE0079C531659141344CD1FD0A4F28419497F9722A3DAAFE3B4186F6B6457E0 PUSH1 0x40 MLOAD PUSH1 0x40 MLOAD DUP1 SWAP2 SUB SWAP1 LOG3 POP POP JUMP JUMPDEST PUSH1 0x0 DUP1 REVERT JUMPDEST PUSH1 0x0 PUSH20 0xFFFFFFFFFFFFFFFFFFFFFFFFFFFFFFFFFFFFFFFF DUP3 AND SWAP1 POP SWAP2 SWAP1 POP JUMP JUMPDEST PUSH1 0x0 PUSH3 0x1C1 DUP3 PUSH3 0x194 JUMP JUMPDEST SWAP1 POP SWAP2 SWAP1 POP JUMP JUMPDEST PUSH3 0x1D3 DUP2 PUSH3 0x1B4 JUMP JUMPDEST DUP2 EQ PUSH3 0x1DF JUMPI PUSH1 0x0 DUP1 REVERT JUMPDEST POP JUMP JUMPDEST PUSH1 0x0 DUP2 MLOAD SWAP1 POP PUSH3 0x1F3 DUP2 PUSH3 0x1C8 JUMP JUMPDEST SWAP3 SWAP2 POP POP JUMP JUMPDEST PUSH1 0x0 PUSH1 0x20 DUP3 DUP5 SUB SLT ISZERO PUSH3 0x212 JUMPI PUSH3 0x211 PUSH3 0x18F JUMP JUMPDEST JUMPDEST PUSH1 0x0 PUSH3 0x222 DUP5 DUP3 DUP6 ADD PUSH3 0x1E2 JUMP JUMPDEST SWAP2 POP POP SWAP3 SWAP2 POP POP JUMP JUMPDEST PUSH1 0x80 MLOAD PUSH1 0xA0 MLOAD PUSH1 0xC0 MLOAD PUSH1 0xE0 MLOAD PUSH2 0x540B PUSH3 0x2A4 PUSH1 0x0 CODECOPY PUSH1 0x0 DUP2 DUP2 PUSH2 0x740 ADD MSTORE DUP2 DUP2 PUSH2 0x234E ADD MSTORE PUSH2 0x346C ADD MSTORE PUSH1 0x0 DUP2 DUP2 PUSH2 0x19EB ADD MSTORE PUSH2 0x1B17 ADD MSTORE PUSH1 0x0 DUP2 DUP2 PUSH2 0xE44 ADD MSTORE DUP2 DUP2 PUSH2 0x3001 ADD MSTORE PUSH2 0x351E ADD MSTORE PUSH1 0x0 DUP2 DUP2 PUSH2 0xE19 ADD MSTORE DUP2 DUP2 PUSH2 0x1490 ADD MSTORE DUP2 DUP2 PUSH2 0x1BED ADD MSTORE DUP2 DUP2 PUSH2 0x242F ADD MSTORE PUSH2 0x3025 ADD MSTORE PUSH2 0x540B PUSH1 0x0 RETURN INVALID PUSH1 0x80 PUSH1 0x40 MSTORE PUSH1 0x4 CALLDATASIZE LT PUSH2 0x166 JUMPI PUSH1 0x0 CALLDATALOAD PUSH1 0xE0 SHR DUP1 PUSH4 0x9123E475 GT PUSH2 0xD1 JUMPI DUP1 PUSH4 0xBE7226AD GT PUSH2 0x8A JUMPI DUP1 PUSH4 0xF2FDE38B GT PUSH2 0x64 JUMPI DUP1 PUSH4 0xF2FDE38B EQ PUSH2 0x4E6 JUMPI DUP1 PUSH4 0xF3786979 EQ PUSH2 0x50F JUMPI DUP1 PUSH4 0xF8840CF7 EQ PUSH2 0x554 JUMPI DUP1 PUSH4 0xFAF5625F EQ PUSH2 0x57F JUMPI PUSH2 0x166 JUMP JUMPDEST DUP1 PUSH4 0xBE7226AD EQ PUSH2 0x48A JUMPI DUP1 PUSH4 0xD2B803A6 EQ PUSH2 0x4A1 JUMPI DUP1 PUSH4 0xD690BFD9 EQ PUSH2 0x4BD JUMPI PUSH2 0x166 JUMP JUMPDEST DUP1 PUSH4 0x9123E475 EQ PUSH2 0x3A6 JUMPI DUP1 PUSH4 0x9C3709D9 EQ PUSH2 0x3CF JUMPI DUP1 PUSH4 0xA4C52B86 EQ PUSH2 0x40E JUMPI DUP1 PUSH4 0xA50EC326 EQ PUSH2 0x439 JUMPI DUP1 PUSH4 0xAF640D0F EQ PUSH2 0x443 JUMPI DUP1 PUSH4 0xBD3A27B0 EQ PUSH2 0x46E JUMPI PUSH2 0x166 JUMP JUMPDEST DUP1 PUSH4 0x529E720A GT PUSH2 0x123 JUMPI DUP1 PUSH4 0x529E720A EQ PUSH2 0x2A0 JUMPI DUP1 PUSH4 0x5300F841 EQ PUSH2 0x2CB JUMPI DUP1 PUSH4 0x715018A6 EQ PUSH2 0x30A JUMPI DUP1 PUSH4 0x7BE6F7A7 EQ PUSH2 0x321 JUMPI DUP1 PUSH4 0x8DA5CB5B EQ PUSH2 0x338 JUMPI DUP1 PUSH4 0x8DF99E90 EQ PUSH2 0x363 JUMPI PUSH2 0x166 JUMP JUMPDEST DUP1 PUSH4 0x4EF2396 EQ PUSH2 0x16B JUMPI DUP1 PUSH4 0x150B7A02 EQ PUSH2 0x194 JUMPI DUP1 PUSH4 0x24BD801B EQ PUSH2 0x1D1 JUMPI DUP1 PUSH4 0x3A5D0410 EQ PUSH2 0x1FA JUMPI DUP1 PUSH4 0x3BB984F4 EQ PUSH2 0x223 JUMPI DUP1 PUSH4 0x4D642623 EQ PUSH2 0x262 JUMPI JUMPDEST PUSH1 0x0 DUP1 REVERT JUMPDEST CALLVALUE DUP1 ISZERO PUSH2 0x177 JUMPI PUSH1 0x0 DUP1 REVERT JUMPDEST POP PUSH2 0x192 PUSH1 0x4 DUP1 CALLDATASIZE SUB DUP2 ADD SWAP1 PUSH2 0x18D SWAP2 SWAP1 PUSH2 0x38BE JUMP JUMPDEST PUSH2 0x5AA JUMP JUMPDEST STOP JUMPDEST CALLVALUE DUP1 ISZERO PUSH2 0x1A0 JUMPI PUSH1 0x0 DUP1 REVERT JUMPDEST POP PUSH2 0x1BB PUSH1 0x4 DUP1 CALLDATASIZE SUB DUP2 ADD SWAP1 PUSH2 0x1B6 SWAP2 SWAP1 PUSH2 0x3A8F JUMP JUMPDEST PUSH2 0x72A JUMP JUMPDEST PUSH1 0x40 MLOAD PUSH2 0x1C8 SWAP2 SWAP1 PUSH2 0x3B4D JUMP JUMPDEST PUSH1 0x40 MLOAD DUP1 SWAP2 SUB SWAP1 RETURN JUMPDEST CALLVALUE DUP1 ISZERO PUSH2 0x1DD JUMPI PUSH1 0x0 DUP1 REVERT JUMPDEST POP PUSH2 0x1F8 PUSH1 0x4 DUP1 CALLDATASIZE SUB DUP2 ADD SWAP1 PUSH2 0x1F3 SWAP2 SWAP1 PUSH2 0x3B68 JUMP JUMPDEST PUSH2 0x73E JUMP JUMPDEST STOP JUMPDEST CALLVALUE DUP1 ISZERO PUSH2 0x206 JUMPI PUSH1 0x0 DUP1 REVERT JUMPDEST POP PUSH2 0x221 PUSH1 0x4 DUP1 CALLDATASIZE SUB DUP2 ADD SWAP1 PUSH2 0x21C SWAP2 SWAP1 PUSH2 0x3BE9 JUMP JUMPDEST PUSH2 0x1521 JUMP JUMPDEST STOP JUMPDEST CALLVALUE DUP1 ISZERO PUSH2 0x22F JUMPI PUSH1 0x0 DUP1 REVERT JUMPDEST POP PUSH2 0x24A PUSH1 0x4 DUP1 CALLDATASIZE SUB DUP2 ADD SWAP1 PUSH2 0x245 SWAP2 SWAP1 PUSH2 0x38BE JUMP JUMPDEST PUSH2 0x1941 JUMP JUMPDEST PUSH1 0x40 MLOAD PUSH2 0x259 SWAP4 SWAP3 SWAP2 SWAP1 PUSH2 0x3C56 JUMP JUMPDEST PUSH1 0x40 MLOAD DUP1 SWAP2 SUB SWAP1 RETURN JUMPDEST CALLVALUE DUP1 ISZERO PUSH2 0x26E JUMPI PUSH1 0x0 DUP1 REVERT JUMPDEST POP PUSH2 0x289 PUSH1 0x4 DUP1 CALLDATASIZE SUB DUP2 ADD SWAP1 PUSH2 0x284 SWAP2 SWAP1 PUSH2 0x38BE JUMP JUMPDEST PUSH2 0x1998 JUMP JUMPDEST PUSH1 0x40 MLOAD PUSH2 0x297 SWAP3 SWAP2 SWAP1 PUSH2 0x3D04 JUMP JUMPDEST PUSH1 0x40 MLOAD DUP1 SWAP2 SUB SWAP1 RETURN JUMPDEST CALLVALUE DUP1 ISZERO PUSH2 0x2AC JUMPI PUSH1 0x0 DUP1 REVERT JUMPDEST POP PUSH2 0x2B5 PUSH2 0x19E9 JUMP JUMPDEST PUSH1 0x40 MLOAD PUSH2 0x2C2 SWAP2 SWAP1 PUSH2 0x3D2D JUMP JUMPDEST PUSH1 0x40 MLOAD DUP1 SWAP2 SUB SWAP1 RETURN JUMPDEST CALLVALUE DUP1 ISZERO PUSH2 0x2D7 JUMPI PUSH1 0x0 DUP1 REVERT JUMPDEST POP PUSH2 0x2F2 PUSH1 0x4 DUP1 CALLDATASIZE SUB DUP2 ADD SWAP1 PUSH2 0x2ED SWAP2 SWAP1 PUSH2 0x3D48 JUMP JUMPDEST PUSH2 0x1A0D JUMP JUMPDEST PUSH1 0x40 MLOAD PUSH2 0x301 SWAP4 SWAP3 SWAP2 SWAP1 PUSH2 0x3DBD JUMP JUMPDEST PUSH1 0x40 MLOAD DUP1 SWAP2 SUB SWAP1 RETURN JUMPDEST CALLVALUE DUP1 ISZERO PUSH2 0x316 JUMPI PUSH1 0x0 DUP1 REVERT JUMPDEST POP PUSH2 0x31F PUSH2 0x1A44 JUMP JUMPDEST STOP JUMPDEST CALLVALUE DUP1 ISZERO PUSH2 0x32D JUMPI PUSH1 0x0 DUP1 REVERT JUMPDEST POP PUSH2 0x336 PUSH2 0x1A58 JUMP JUMPDEST STOP JUMPDEST CALLVALUE DUP1 ISZERO PUSH2 0x344 JUMPI PUSH1 0x0 DUP1 REVERT JUMPDEST POP PUSH2 0x34D PUSH2 0x1D13 JUMP JUMPDEST PUSH1 0x40 MLOAD PUSH2 0x35A SWAP2 SWAP1 PUSH2 0x3DF4 JUMP JUMPDEST PUSH1 0x40 MLOAD DUP1 SWAP2 SUB SWAP1 RETURN JUMPDEST CALLVALUE DUP1 ISZERO PUSH2 0x36F JUMPI PUSH1 0x0 DUP1 REVERT JUMPDEST POP PUSH2 0x38A PUSH1 0x4 DUP1 CALLDATASIZE SUB DUP2 ADD SWAP1 PUSH2 0x385 SWAP2 SWAP1 PUSH2 0x38BE JUMP JUMPDEST PUSH2 0x1D3C JUMP JUMPDEST PUSH1 0x40 MLOAD PUSH2 0x39D SWAP8 SWAP7 SWAP6 SWAP5 SWAP4 SWAP3 SWAP2 SWAP1 PUSH2 0x3E57 JUMP JUMPDEST PUSH1 0x40 MLOAD DUP1 SWAP2 SUB SWAP1 RETURN JUMPDEST CALLVALUE DUP1 ISZERO PUSH2 0x3B2 JUMPI PUSH1 0x0 DUP1 REVERT JUMPDEST POP PUSH2 0x3CD PUSH1 0x4 DUP1 CALLDATASIZE SUB DUP2 ADD SWAP1 PUSH2 0x3C8 SWAP2 SWAP1 PUSH2 0x3EC6 JUMP JUMPDEST PUSH2 0x1DEB JUMP JUMPDEST STOP JUMPDEST CALLVALUE DUP1 ISZERO PUSH2 0x3DB JUMPI PUSH1 0x0 DUP1 REVERT JUMPDEST POP PUSH2 0x3F6 PUSH1 0x4 DUP1 CALLDATASIZE SUB DUP2 ADD SWAP1 PUSH2 0x3F1 SWAP2 SWAP1 PUSH2 0x38BE JUMP JUMPDEST PUSH2 0x22F5 JUMP JUMPDEST PUSH1 0x40 MLOAD PUSH2 0x405 SWAP4 SWAP3 SWAP2 SWAP1 PUSH2 0x3C56 JUMP JUMPDEST PUSH1 0x40 MLOAD DUP1 SWAP2 SUB SWAP1 RETURN JUMPDEST CALLVALUE DUP1 ISZERO PUSH2 0x41A JUMPI PUSH1 0x0 DUP1 REVERT JUMPDEST POP PUSH2 0x423 PUSH2 0x234C JUMP JUMPDEST PUSH1 0x40 MLOAD PUSH2 0x430 SWAP2 SWAP1 PUSH2 0x3DF4 JUMP JUMPDEST PUSH1 0x40 MLOAD DUP1 SWAP2 SUB SWAP1 RETURN JUMPDEST PUSH2 0x441 PUSH2 0x2370 JUMP JUMPDEST STOP JUMPDEST CALLVALUE DUP1 ISZERO PUSH2 0x44F JUMPI PUSH1 0x0 DUP1 REVERT JUMPDEST POP PUSH2 0x458 PUSH2 0x2550 JUMP JUMPDEST PUSH1 0x40 MLOAD PUSH2 0x465 SWAP2 SWAP1 PUSH2 0x3D2D JUMP JUMPDEST PUSH1 0x40 MLOAD DUP1 SWAP2 SUB SWAP1 RETURN JUMPDEST PUSH2 0x488 PUSH1 0x4 DUP1 CALLDATASIZE SUB DUP2 ADD SWAP1 PUSH2 0x483 SWAP2 SWAP1 PUSH2 0x3F06 JUMP JUMPDEST PUSH2 0x255C JUMP JUMPDEST STOP JUMPDEST CALLVALUE DUP1 ISZERO PUSH2 0x496 JUMPI PUSH1 0x0 DUP1 REVERT JUMPDEST POP PUSH2 0x49F PUSH2 0x29A9 JUMP JUMPDEST STOP JUMPDEST PUSH2 0x4BB PUSH1 0x4 DUP1 CALLDATASIZE SUB DUP2 ADD SWAP1 PUSH2 0x4B6 SWAP2 SWAP1 PUSH2 0x38BE JUMP JUMPDEST PUSH2 0x2B28 JUMP JUMPDEST STOP JUMPDEST CALLVALUE DUP1 ISZERO PUSH2 0x4C9 JUMPI PUSH1 0x0 DUP1 REVERT JUMPDEST POP PUSH2 0x4E4 PUSH1 0x4 DUP1 CALLDATASIZE SUB DUP2 ADD SWAP1 PUSH2 0x4DF SWAP2 SWAP1 PUSH2 0x3F6D JUMP JUMPDEST PUSH2 0x2B34 JUMP JUMPDEST STOP JUMPDEST CALLVALUE DUP1 ISZERO PUSH2 0x4F2 JUMPI PUSH1 0x0 DUP1 REVERT JUMPDEST POP PUSH2 0x50D PUSH1 0x4 DUP1 CALLDATASIZE SUB DUP2 ADD SWAP1 PUSH2 0x508 SWAP2 SWAP1 PUSH2 0x3D48 JUMP JUMPDEST PUSH2 0x2E81 JUMP JUMPDEST STOP JUMPDEST CALLVALUE DUP1 ISZERO PUSH2 0x51B JUMPI PUSH1 0x0 DUP1 REVERT JUMPDEST POP PUSH2 0x536 PUSH1 0x4 DUP1 CALLDATASIZE SUB DUP2 ADD SWAP1 PUSH2 0x531 SWAP2 SWAP1 PUSH2 0x38BE JUMP JUMPDEST PUSH2 0x2F04 JUMP JUMPDEST PUSH1 0x40 MLOAD PUSH2 0x54B SWAP10 SWAP9 SWAP8 SWAP7 SWAP6 SWAP5 SWAP4 SWAP3 SWAP2 SWAP1 PUSH2 0x401C JUMP JUMPDEST PUSH1 0x40 MLOAD DUP1 SWAP2 SUB SWAP1 RETURN JUMPDEST CALLVALUE DUP1 ISZERO PUSH2 0x560 JUMPI PUSH1 0x0 DUP1 REVERT JUMPDEST POP PUSH2 0x569 PUSH2 0x2FFF JUMP JUMPDEST PUSH1 0x40 MLOAD PUSH2 0x576 SWAP2 SWAP1 PUSH2 0x3D2D JUMP JUMPDEST PUSH1 0x40 MLOAD DUP1 SWAP2 SUB SWAP1 RETURN JUMPDEST CALLVALUE DUP1 ISZERO PUSH2 0x58B JUMPI PUSH1 0x0 DUP1 REVERT JUMPDEST POP PUSH2 0x594 PUSH2 0x3023 JUMP JUMPDEST PUSH1 0x40 MLOAD PUSH2 0x5A1 SWAP2 SWAP1 PUSH2 0x3D2D JUMP JUMPDEST PUSH1 0x40 MLOAD DUP1 SWAP2 SUB SWAP1 RETURN JUMPDEST PUSH1 0x1 PUSH1 0x0 PUSH2 0x5B6 PUSH2 0x3047 JUMP JUMPDEST PUSH20 0xFFFFFFFFFFFFFFFFFFFFFFFFFFFFFFFFFFFFFFFF AND PUSH20 0xFFFFFFFFFFFFFFFFFFFFFFFFFFFFFFFFFFFFFFFF AND DUP2 MSTORE PUSH1 0x20 ADD SWAP1 DUP2 MSTORE PUSH1 0x20 ADD PUSH1 0x0 KECCAK256 PUSH1 0x0 ADD PUSH1 0x0 SWAP1 SLOAD SWAP1 PUSH2 0x100 EXP SWAP1 DIV PUSH1 0xFF AND PUSH1 0x4 DUP2 GT ISZERO PUSH2 0x613 JUMPI PUSH2 0x612 PUSH2 0x3C8D JUMP JUMPDEST JUMPDEST PUSH1 0x1 PUSH1 0x4 DUP2 GT ISZERO PUSH2 0x627 JUMPI PUSH2 0x626 PUSH2 0x3C8D JUMP JUMPDEST JUMPDEST EQ PUSH2 0x667 JUMPI PUSH1 0x40 MLOAD PUSH32 0x8C379A000000000000000000000000000000000000000000000000000000000 DUP2 MSTORE PUSH1 0x4 ADD PUSH2 0x65E SWAP1 PUSH2 0x412C JUMP JUMPDEST PUSH1 0x40 MLOAD DUP1 SWAP2 SUB SWAP1 REVERT JUMPDEST PUSH2 0x670 DUP2 PUSH2 0x304F JUMP JUMPDEST PUSH1 0x3 PUSH1 0x0 DUP3 DUP2 MSTORE PUSH1 0x20 ADD SWAP1 DUP2 MSTORE PUSH1 0x20 ADD PUSH1 0x0 KECCAK256 PUSH1 0x5 ADD PUSH1 0x0 SWAP1 SLOAD SWAP1 PUSH2 0x100 EXP SWAP1 DIV PUSH20 0xFFFFFFFFFFFFFFFFFFFFFFFFFFFFFFFFFFFFFFFF AND PUSH20 0xFFFFFFFFFFFFFFFFFFFFFFFFFFFFFFFFFFFFFFFF AND PUSH4 0x42966C68 PUSH1 0x3 PUSH1 0x0 DUP5 DUP2 MSTORE PUSH1 0x20 ADD SWAP1 DUP2 MSTORE PUSH1 0x20 ADD PUSH1 0x0 KECCAK256 PUSH1 0x4 ADD SLOAD PUSH1 0x40 MLOAD DUP3 PUSH4 0xFFFFFFFF AND PUSH1 0xE0 SHL DUP2 MSTORE PUSH1 0x4 ADD PUSH2 0x6F5 SWAP2 SWAP1 PUSH2 0x3D2D JUMP JUMPDEST PUSH1 0x0 PUSH1 0x40 MLOAD DUP1 DUP4 SUB DUP2 PUSH1 0x0 DUP8 DUP1 EXTCODESIZE ISZERO DUP1 ISZERO PUSH2 0x70F JUMPI PUSH1 0x0 DUP1 REVERT JUMPDEST POP GAS CALL ISZERO DUP1 ISZERO PUSH2 0x723 JUMPI RETURNDATASIZE PUSH1 0x0 DUP1 RETURNDATACOPY RETURNDATASIZE PUSH1 0x0 REVERT JUMPDEST POP POP POP POP POP JUMP JUMPDEST PUSH1 0x0 PUSH4 0x150B7A02 PUSH1 0xE0 SHL SWAP1 POP SWAP5 SWAP4 POP POP POP POP JUMP JUMPDEST PUSH32 0x0 PUSH20 0xFFFFFFFFFFFFFFFFFFFFFFFFFFFFFFFFFFFFFFFF AND PUSH2 0x77D PUSH2 0x3319 JUMP JUMPDEST PUSH20 0xFFFFFFFFFFFFFFFFFFFFFFFFFFFFFFFFFFFFFFFF AND EQ PUSH2 0x7D3 JUMPI PUSH1 0x40 MLOAD PUSH32 0x8C379A000000000000000000000000000000000000000000000000000000000 DUP2 MSTORE PUSH1 0x4 ADD PUSH2 0x7CA SWAP1 PUSH2 0x41BE JUMP JUMPDEST PUSH1 0x40 MLOAD DUP1 SWAP2 SUB SWAP1 REVERT JUMPDEST PUSH1 0x0 DUP1 DUP3 DUP1 PUSH1 0x20 ADD SWAP1 MLOAD DUP2 ADD SWAP1 PUSH2 0x7EA SWAP2 SWAP1 PUSH2 0x428D JUMP JUMPDEST SWAP2 POP SWAP2 POP DUP1 ISZERO PUSH2 0xED4 JUMPI PUSH1 0x0 DUP1 PUSH1 0x0 DUP1 PUSH1 0x0 DUP1 DUP8 DUP1 PUSH1 0x20 ADD SWAP1 MLOAD DUP2 ADD SWAP1 PUSH2 0x811 SWAP2 SWAP1 PUSH2 0x4361 JUMP JUMPDEST SWAP6 POP SWAP6 POP SWAP6 POP SWAP6 POP SWAP6 POP SWAP6 POP PUSH1 0x0 PUSH1 0x2 PUSH1 0x0 DUP9 DUP2 MSTORE PUSH1 0x20 ADD SWAP1 DUP2 MSTORE PUSH1 0x20 ADD PUSH1 0x0 KECCAK256 PUSH1 0x40 MLOAD DUP1 PUSH1 0xE0 ADD PUSH1 0x40 MSTORE SWAP1 DUP2 PUSH1 0x0 DUP3 ADD SLOAD DUP2 MSTORE PUSH1 0x20 ADD PUSH1 0x1 DUP3 ADD PUSH1 0x0 SWAP1 SLOAD SWAP1 PUSH2 0x100 EXP SWAP1 DIV PUSH1 0xFF AND PUSH1 0x4 DUP2 GT ISZERO PUSH2 0x86C JUMPI PUSH2 0x86B PUSH2 0x3C8D JUMP JUMPDEST JUMPDEST PUSH1 0x4 DUP2 GT ISZERO PUSH2 0x87E JUMPI PUSH2 0x87D PUSH2 0x3C8D JUMP JUMPDEST JUMPDEST DUP2 MSTORE PUSH1 0x20 ADD PUSH1 0x1 DUP3 ADD PUSH1 0x1 SWAP1 SLOAD SWAP1 PUSH2 0x100 EXP SWAP1 DIV PUSH20 0xFFFFFFFFFFFFFFFFFFFFFFFFFFFFFFFFFFFFFFFF AND PUSH20 0xFFFFFFFFFFFFFFFFFFFFFFFFFFFFFFFFFFFFFFFF AND PUSH20 0xFFFFFFFFFFFFFFFFFFFFFFFFFFFFFFFFFFFFFFFF AND DUP2 MSTORE PUSH1 0x20 ADD PUSH1 0x2 DUP3 ADD SLOAD DUP2 MSTORE PUSH1 0x20 ADD PUSH1 0x3 DUP3 ADD PUSH1 0x0 SWAP1 SLOAD SWAP1 PUSH2 0x100 EXP SWAP1 DIV PUSH20 0xFFFFFFFFFFFFFFFFFFFFFFFFFFFFFFFFFFFFFFFF AND PUSH20 0xFFFFFFFFFFFFFFFFFFFFFFFFFFFFFFFFFFFFFFFF AND PUSH20 0xFFFFFFFFFFFFFFFFFFFFFFFFFFFFFFFFFFFFFFFF AND DUP2 MSTORE PUSH1 0x20 ADD PUSH1 0x4 DUP3 ADD SLOAD DUP2 MSTORE PUSH1 0x20 ADD PUSH1 0x5 DUP3 ADD PUSH1 0x0 SWAP1 SLOAD SWAP1 PUSH2 0x100 EXP SWAP1 DIV PUSH20 0xFFFFFFFFFFFFFFFFFFFFFFFFFFFFFFFFFFFFFFFF AND PUSH20 0xFFFFFFFFFFFFFFFFFFFFFFFFFFFFFFFFFFFFFFFF AND PUSH20 0xFFFFFFFFFFFFFFFFFFFFFFFFFFFFFFFFFFFFFFFF AND DUP2 MSTORE POP POP SWAP1 POP PUSH1 0x0 PUSH1 0x4 DUP2 GT ISZERO PUSH2 0x9AE JUMPI PUSH2 0x9AD PUSH2 0x3C8D JUMP JUMPDEST JUMPDEST DUP2 PUSH1 0x20 ADD MLOAD PUSH1 0x4 DUP2 GT ISZERO PUSH2 0x9C5 JUMPI PUSH2 0x9C4 PUSH2 0x3C8D JUMP JUMPDEST JUMPDEST SUB PUSH2 0xA05 JUMPI PUSH1 0x40 MLOAD PUSH32 0x8C379A000000000000000000000000000000000000000000000000000000000 DUP2 MSTORE PUSH1 0x4 ADD PUSH2 0x9FC SWAP1 PUSH2 0x4460 JUMP JUMPDEST PUSH1 0x40 MLOAD DUP1 SWAP2 SUB SWAP1 REVERT JUMPDEST TIMESTAMP PUSH2 0x3840 DUP3 PUSH1 0xA0 ADD MLOAD PUSH2 0xA18 SWAP2 SWAP1 PUSH2 0x44AF JUMP JUMPDEST GT PUSH2 0xA58 JUMPI PUSH1 0x40 MLOAD PUSH32 0x8C379A000000000000000000000000000000000000000000000000000000000 DUP2 MSTORE PUSH1 0x4 ADD PUSH2 0xA4F SWAP1 PUSH2 0x4555 JUMP JUMPDEST PUSH1 0x40 MLOAD DUP1 SWAP2 SUB SWAP1 REVERT JUMPDEST PUSH1 0x2 PUSH1 0x5 DUP2 GT ISZERO PUSH2 0xA6C JUMPI PUSH2 0xA6B PUSH2 0x3C8D JUMP JUMPDEST JUMPDEST DUP7 PUSH1 0x5 DUP2 GT ISZERO PUSH2 0xA7F JUMPI PUSH2 0xA7E PUSH2 0x3C8D JUMP JUMPDEST JUMPDEST EQ DUP1 ISZERO PUSH2 0xABB JUMPI POP DUP5 PUSH20 0xFFFFFFFFFFFFFFFFFFFFFFFFFFFFFFFFFFFFFFFF AND DUP2 PUSH1 0x40 ADD MLOAD PUSH20 0xFFFFFFFFFFFFFFFFFFFFFFFFFFFFFFFFFFFFFFFF AND EQ JUMPDEST DUP1 ISZERO PUSH2 0xACA JUMPI POP DUP4 DUP2 PUSH1 0x60 ADD MLOAD EQ JUMPDEST DUP1 ISZERO PUSH2 0xB05 JUMPI POP DUP3 PUSH20 0xFFFFFFFFFFFFFFFFFFFFFFFFFFFFFFFFFFFFFFFF AND DUP2 PUSH1 0x80 ADD MLOAD PUSH20 0xFFFFFFFFFFFFFFFFFFFFFFFFFFFFFFFFFFFFFFFF AND EQ JUMPDEST DUP1 ISZERO PUSH2 0xB40 JUMPI POP DUP2 PUSH20 0xFFFFFFFFFFFFFFFFFFFFFFFFFFFFFFFFFFFFFFFF AND DUP2 PUSH1 0xC0 ADD MLOAD PUSH20 0xFFFFFFFFFFFFFFFFFFFFFFFFFFFFFFFFFFFFFFFF AND EQ JUMPDEST ISZERO PUSH2 0xC28 JUMPI PUSH1 0x1 DUP2 PUSH1 0x20 ADD SWAP1 PUSH1 0x4 DUP2 GT ISZERO PUSH2 0xB5E JUMPI PUSH2 0xB5D PUSH2 0x3C8D JUMP JUMPDEST JUMPDEST SWAP1 DUP2 PUSH1 0x4 DUP2 GT ISZERO PUSH2 0xB72 JUMPI PUSH2 0xB71 PUSH2 0x3C8D JUMP JUMPDEST JUMPDEST DUP2 MSTORE POP POP PUSH1 0x1 DUP1 PUSH1 0x0 DUP4 PUSH1 0xC0 ADD MLOAD PUSH20 0xFFFFFFFFFFFFFFFFFFFFFFFFFFFFFFFFFFFFFFFF AND PUSH20 0xFFFFFFFFFFFFFFFFFFFFFFFFFFFFFFFFFFFFFFFF AND DUP2 MSTORE PUSH1 0x20 ADD SWAP1 DUP2 MSTORE PUSH1 0x20 ADD PUSH1 0x0 KECCAK256 PUSH1 0x0 ADD PUSH1 0x0 PUSH2 0x100 EXP DUP2 SLOAD DUP2 PUSH1 0xFF MUL NOT AND SWAP1 DUP4 PUSH1 0x4 DUP2 GT ISZERO PUSH2 0xBDF JUMPI PUSH2 0xBDE PUSH2 0x3C8D JUMP JUMPDEST JUMPDEST MUL OR SWAP1 SSTORE POP PUSH1 0x0 PUSH1 0x4 PUSH1 0x0 DUP10 DUP2 MSTORE PUSH1 0x20 ADD SWAP1 DUP2 MSTORE PUSH1 0x20 ADD PUSH1 0x0 KECCAK256 PUSH1 0x0 ADD PUSH1 0x14 PUSH2 0x100 EXP DUP2 SLOAD DUP2 PUSH1 0xFF MUL NOT AND SWAP1 DUP4 PUSH1 0x2 DUP2 GT ISZERO PUSH2 0xC1E JUMPI PUSH2 0xC1D PUSH2 0x3C8D JUMP JUMPDEST JUMPDEST MUL OR SWAP1 SSTORE POP PUSH2 0xEC8 JUMP JUMPDEST PUSH1 0x3 DUP2 PUSH1 0x20 ADD SWAP1 PUSH1 0x4 DUP2 GT ISZERO PUSH2 0xC41 JUMPI PUSH2 0xC40 PUSH2 0x3C8D JUMP JUMPDEST JUMPDEST SWAP1 DUP2 PUSH1 0x4 DUP2 GT ISZERO PUSH2 0xC55 JUMPI PUSH2 0xC54 PUSH2 0x3C8D JUMP JUMPDEST JUMPDEST DUP2 MSTORE POP POP PUSH1 0x4 PUSH1 0x1 PUSH1 0x0 DUP4 PUSH1 0xC0 ADD MLOAD PUSH20 0xFFFFFFFFFFFFFFFFFFFFFFFFFFFFFFFFFFFFFFFF AND PUSH20 0xFFFFFFFFFFFFFFFFFFFFFFFFFFFFFFFFFFFFFFFF AND DUP2 MSTORE PUSH1 0x20 ADD SWAP1 DUP2 MSTORE PUSH1 0x20 ADD PUSH1 0x0 KECCAK256 PUSH1 0x0 ADD PUSH1 0x0 PUSH2 0x100 EXP DUP2 SLOAD DUP2 PUSH1 0xFF MUL NOT AND SWAP1 DUP4 PUSH1 0x4 DUP2 GT ISZERO PUSH2 0xCC3 JUMPI PUSH2 0xCC2 PUSH2 0x3C8D JUMP JUMPDEST JUMPDEST MUL OR SWAP1 SSTORE POP DUP1 PUSH1 0x80 ADD MLOAD PUSH20 0xFFFFFFFFFFFFFFFFFFFFFFFFFFFFFFFFFFFFFFFF AND PUSH4 0x42966C68 DUP3 PUSH1 0x60 ADD MLOAD PUSH1 0x40 MLOAD DUP3 PUSH4 0xFFFFFFFF AND PUSH1 0xE0 SHL DUP2 MSTORE PUSH1 0x4 ADD PUSH2 0xD09 SWAP2 SWAP1 PUSH2 0x3D2D JUMP JUMPDEST PUSH1 0x0 PUSH1 0x40 MLOAD DUP1 DUP4 SUB DUP2 PUSH1 0x0 DUP8 DUP1 EXTCODESIZE ISZERO DUP1 ISZERO PUSH2 0xD23 JUMPI PUSH1 0x0 DUP1 REVERT JUMPDEST POP GAS CALL ISZERO DUP1 ISZERO PUSH2 0xD37 JUMPI RETURNDATASIZE PUSH1 0x0 DUP1 RETURNDATACOPY RETURNDATASIZE PUSH1 0x0 REVERT JUMPDEST POP POP POP POP PUSH1 0x1 PUSH1 0x2 DUP2 GT ISZERO PUSH2 0xD4F JUMPI PUSH2 0xD4E PUSH2 0x3C8D JUMP JUMPDEST JUMPDEST PUSH1 0x4 PUSH1 0x0 DUP10 DUP2 MSTORE PUSH1 0x20 ADD SWAP1 DUP2 MSTORE PUSH1 0x20 ADD PUSH1 0x0 KECCAK256 PUSH1 0x0 ADD PUSH1 0x14 SWAP1 SLOAD SWAP1 PUSH2 0x100 EXP SWAP1 DIV PUSH1 0xFF AND PUSH1 0x2 DUP2 GT ISZERO PUSH2 0xD85 JUMPI PUSH2 0xD84 PUSH2 0x3C8D JUMP JUMPDEST JUMPDEST SUB PUSH2 0xE88 JUMPI PUSH1 0x4 PUSH1 0x0 DUP9 DUP2 MSTORE PUSH1 0x20 ADD SWAP1 DUP2 MSTORE PUSH1 0x20 ADD PUSH1 0x0 KECCAK256 PUSH1 0x0 ADD PUSH1 0x0 SWAP1 SLOAD SWAP1 PUSH2 0x100 EXP SWAP1 DIV PUSH20 0xFFFFFFFFFFFFFFFFFFFFFFFFFFFFFFFFFFFFFFFF AND PUSH1 0x5 PUSH1 0x0 DUP10 DUP2 MSTORE PUSH1 0x20 ADD SWAP1 DUP2 MSTORE PUSH1 0x20 ADD PUSH1 0x0 KECCAK256 PUSH1 0x0 ADD PUSH1 0x0 PUSH2 0x100 EXP DUP2 SLOAD DUP2 PUSH20 0xFFFFFFFFFFFFFFFFFFFFFFFFFFFFFFFFFFFFFFFF MUL NOT AND SWAP1 DUP4 PUSH20 0xFFFFFFFFFFFFFFFFFFFFFFFFFFFFFFFFFFFFFFFF AND MUL OR SWAP1 SSTORE POP PUSH1 0x4 PUSH32 0x0 PUSH2 0xE42 SWAP2 SWAP1 PUSH2 0x45A4 JUMP JUMPDEST PUSH32 0x0 PUSH2 0xE6D SWAP2 SWAP1 PUSH2 0x44AF JUMP JUMPDEST PUSH1 0x5 PUSH1 0x0 DUP10 DUP2 MSTORE PUSH1 0x20 ADD SWAP1 DUP2 MSTORE PUSH1 0x20 ADD PUSH1 0x0 KECCAK256 PUSH1 0x1 ADD DUP2 SWAP1 SSTORE POP JUMPDEST PUSH1 0x2 PUSH1 0x4 PUSH1 0x0 DUP10 DUP2 MSTORE PUSH1 0x20 ADD SWAP1 DUP2 MSTORE PUSH1 0x20 ADD PUSH1 0x0 KECCAK256 PUSH1 0x0 ADD PUSH1 0x14 PUSH2 0x100 EXP DUP2 SLOAD DUP2 PUSH1 0xFF MUL NOT AND SWAP1 DUP4 PUSH1 0x2 DUP2 GT ISZERO PUSH2 0xEC2 JUMPI PUSH2 0xEC1 PUSH2 0x3C8D JUMP JUMPDEST JUMPDEST MUL OR SWAP1 SSTORE POP JUMPDEST POP POP POP POP POP POP POP PUSH2 0x151C JUMP JUMPDEST PUSH1 0x0 DUP1 PUSH1 0x0 DUP1 PUSH1 0x0 DUP1 PUSH1 0x0 DUP9 DUP1 PUSH1 0x20 ADD SWAP1 MLOAD DUP2 ADD SWAP1 PUSH2 0xEF3 SWAP2 SWAP1 PUSH2 0x45FA JUMP JUMPDEST SWAP7 POP SWAP7 POP SWAP7 POP SWAP7 POP SWAP7 POP SWAP7 POP SWAP7 POP PUSH1 0x0 PUSH1 0x3 PUSH1 0x0 DUP10 DUP2 MSTORE PUSH1 0x20 ADD SWAP1 DUP2 MSTORE PUSH1 0x20 ADD PUSH1 0x0 KECCAK256 PUSH1 0x40 MLOAD DUP1 PUSH2 0x120 ADD PUSH1 0x40 MSTORE SWAP1 DUP2 PUSH1 0x0 DUP3 ADD PUSH1 0x0 SWAP1 SLOAD SWAP1 PUSH2 0x100 EXP SWAP1 DIV PUSH1 0xFF AND PUSH1 0x5 DUP2 GT ISZERO PUSH2 0xF47 JUMPI PUSH2 0xF46 PUSH2 0x3C8D JUMP JUMPDEST JUMPDEST PUSH1 0x5 DUP2 GT ISZERO PUSH2 0xF59 JUMPI PUSH2 0xF58 PUSH2 0x3C8D JUMP JUMPDEST JUMPDEST DUP2 MSTORE PUSH1 0x20 ADD PUSH1 0x1 DUP3 ADD SLOAD DUP2 MSTORE PUSH1 0x20 ADD PUSH1 0x2 DUP3 ADD PUSH1 0x0 SWAP1 SLOAD SWAP1 PUSH2 0x100 EXP SWAP1 DIV PUSH20 0xFFFFFFFFFFFFFFFFFFFFFFFFFFFFFFFFFFFFFFFF AND PUSH20 0xFFFFFFFFFFFFFFFFFFFFFFFFFFFFFFFFFFFFFFFF AND PUSH20 0xFFFFFFFFFFFFFFFFFFFFFFFFFFFFFFFFFFFFFFFF AND DUP2 MSTORE PUSH1 0x20 ADD PUSH1 0x3 DUP3 ADD PUSH1 0x0 SWAP1 SLOAD SWAP1 PUSH2 0x100 EXP SWAP1 DIV PUSH20 0xFFFFFFFFFFFFFFFFFFFFFFFFFFFFFFFFFFFFFFFF AND PUSH20 0xFFFFFFFFFFFFFFFFFFFFFFFFFFFFFFFFFFFFFFFF AND PUSH20 0xFFFFFFFFFFFFFFFFFFFFFFFFFFFFFFFFFFFFFFFF AND DUP2 MSTORE PUSH1 0x20 ADD PUSH1 0x4 DUP3 ADD SLOAD DUP2 MSTORE PUSH1 0x20 ADD PUSH1 0x5 DUP3 ADD PUSH1 0x0 SWAP1 SLOAD SWAP1 PUSH2 0x100 EXP SWAP1 DIV PUSH20 0xFFFFFFFFFFFFFFFFFFFFFFFFFFFFFFFFFFFFFFFF AND PUSH20 0xFFFFFFFFFFFFFFFFFFFFFFFFFFFFFFFFFFFFFFFF AND PUSH20 0xFFFFFFFFFFFFFFFFFFFFFFFFFFFFFFFFFFFFFFFF AND DUP2 MSTORE PUSH1 0x20 ADD PUSH1 0x6 DUP3 ADD PUSH1 0x0 SWAP1 SLOAD SWAP1 PUSH2 0x100 EXP SWAP1 DIV PUSH20 0xFFFFFFFFFFFFFFFFFFFFFFFFFFFFFFFFFFFFFFFF AND PUSH20 0xFFFFFFFFFFFFFFFFFFFFFFFFFFFFFFFFFFFFFFFF AND PUSH20 0xFFFFFFFFFFFFFFFFFFFFFFFFFFFFFFFFFFFFFFFF AND DUP2 MSTORE PUSH1 0x20 ADD PUSH1 0x7 DUP3 ADD SLOAD DUP2 MSTORE PUSH1 0x20 ADD PUSH1 0x8 DUP3 ADD PUSH1 0x0 SWAP1 SLOAD SWAP1 PUSH2 0x100 EXP SWAP1 DIV PUSH20 0xFFFFFFFFFFFFFFFFFFFFFFFFFFFFFFFFFFFFFFFF AND PUSH20 0xFFFFFFFFFFFFFFFFFFFFFFFFFFFFFFFFFFFFFFFF AND PUSH20 0xFFFFFFFFFFFFFFFFFFFFFFFFFFFFFFFFFFFFFFFF AND DUP2 MSTORE POP POP SWAP1 POP PUSH1 0x0 PUSH1 0x5 DUP2 GT ISZERO PUSH2 0x113F JUMPI PUSH2 0x113E PUSH2 0x3C8D JUMP JUMPDEST JUMPDEST DUP2 PUSH1 0x0 ADD MLOAD PUSH1 0x5 DUP2 GT ISZERO PUSH2 0x1156 JUMPI PUSH2 0x1155 PUSH2 0x3C8D JUMP JUMPDEST JUMPDEST SUB PUSH2 0x1196 JUMPI PUSH1 0x40 MLOAD PUSH32 0x8C379A000000000000000000000000000000000000000000000000000000000 DUP2 MSTORE PUSH1 0x4 ADD PUSH2 0x118D SWAP1 PUSH2 0x4460 JUMP JUMPDEST PUSH1 0x40 MLOAD DUP1 SWAP2 SUB SWAP1 REVERT JUMPDEST TIMESTAMP PUSH2 0x3840 DUP3 PUSH1 0xE0 ADD MLOAD PUSH2 0x11A9 SWAP2 SWAP1 PUSH2 0x44AF JUMP JUMPDEST LT PUSH2 0x11E9 JUMPI PUSH1 0x40 MLOAD PUSH32 0x8C379A000000000000000000000000000000000000000000000000000000000 DUP2 MSTORE PUSH1 0x4 ADD PUSH2 0x11E0 SWAP1 PUSH2 0x470E JUMP JUMPDEST PUSH1 0x40 MLOAD DUP1 SWAP2 SUB SWAP1 REVERT JUMPDEST PUSH1 0x1 PUSH1 0x4 DUP2 GT ISZERO PUSH2 0x11FD JUMPI PUSH2 0x11FC PUSH2 0x3C8D JUMP JUMPDEST JUMPDEST DUP8 PUSH1 0x4 DUP2 GT ISZERO PUSH2 0x1210 JUMPI PUSH2 0x120F PUSH2 0x3C8D JUMP JUMPDEST JUMPDEST EQ DUP1 ISZERO PUSH2 0x124C JUMPI POP DUP6 PUSH20 0xFFFFFFFFFFFFFFFFFFFFFFFFFFFFFFFFFFFFFFFF AND DUP2 PUSH1 0x60 ADD MLOAD PUSH20 0xFFFFFFFFFFFFFFFFFFFFFFFFFFFFFFFFFFFFFFFF AND EQ JUMPDEST DUP1 ISZERO PUSH2 0x125B JUMPI POP DUP5 DUP2 PUSH1 0x80 ADD MLOAD EQ JUMPDEST DUP1 ISZERO PUSH2 0x1296 JUMPI POP DUP4 PUSH20 0xFFFFFFFFFFFFFFFFFFFFFFFFFFFFFFFFFFFFFFFF AND DUP2 PUSH1 0xA0 ADD MLOAD PUSH20 0xFFFFFFFFFFFFFFFFFFFFFFFFFFFFFFFFFFFFFFFF AND EQ JUMPDEST DUP1 ISZERO PUSH2 0x12D2 JUMPI POP DUP3 PUSH20 0xFFFFFFFFFFFFFFFFFFFFFFFFFFFFFFFFFFFFFFFF AND DUP2 PUSH2 0x100 ADD MLOAD PUSH20 0xFFFFFFFFFFFFFFFFFFFFFFFFFFFFFFFFFFFFFFFF AND EQ JUMPDEST ISZERO PUSH2 0x131D JUMPI PUSH1 0x0 PUSH2 0x1318 JUMPI PUSH1 0x40 MLOAD PUSH32 0x8C379A000000000000000000000000000000000000000000000000000000000 DUP2 MSTORE PUSH1 0x4 ADD PUSH2 0x130F SWAP1 PUSH2 0x47A0 JUMP JUMPDEST PUSH1 0x40 MLOAD DUP1 SWAP2 SUB SWAP1 REVERT JUMPDEST PUSH2 0x1513 JUMP JUMPDEST PUSH1 0x4 DUP2 PUSH1 0x0 ADD SWAP1 PUSH1 0x5 DUP2 GT ISZERO PUSH2 0x1336 JUMPI PUSH2 0x1335 PUSH2 0x3C8D JUMP JUMPDEST JUMPDEST SWAP1 DUP2 PUSH1 0x5 DUP2 GT ISZERO PUSH2 0x134A JUMPI PUSH2 0x1349 PUSH2 0x3C8D JUMP JUMPDEST JUMPDEST DUP2 MSTORE POP POP PUSH1 0x4 PUSH1 0x1 PUSH1 0x0 DUP4 PUSH2 0x100 ADD MLOAD PUSH20 0xFFFFFFFFFFFFFFFFFFFFFFFFFFFFFFFFFFFFFFFF AND PUSH20 0xFFFFFFFFFFFFFFFFFFFFFFFFFFFFFFFFFFFFFFFF AND DUP2 MSTORE PUSH1 0x20 ADD SWAP1 DUP2 MSTORE PUSH1 0x20 ADD PUSH1 0x0 KECCAK256 PUSH1 0x0 ADD PUSH1 0x0 PUSH2 0x100 EXP DUP2 SLOAD DUP2 PUSH1 0xFF MUL NOT AND SWAP1 DUP4 PUSH1 0x4 DUP2 GT ISZERO PUSH2 0x13B9 JUMPI PUSH2 0x13B8 PUSH2 0x3C8D JUMP JUMPDEST JUMPDEST MUL OR SWAP1 SSTORE POP DUP1 PUSH1 0xA0 ADD MLOAD PUSH20 0xFFFFFFFFFFFFFFFFFFFFFFFFFFFFFFFFFFFFFFFF AND PUSH4 0x40C10F19 DUP3 PUSH1 0x40 ADD MLOAD DUP4 PUSH1 0x80 ADD MLOAD PUSH1 0x40 MLOAD DUP4 PUSH4 0xFFFFFFFF AND PUSH1 0xE0 SHL DUP2 MSTORE PUSH1 0x4 ADD PUSH2 0x1405 SWAP3 SWAP2 SWAP1 PUSH2 0x47C0 JUMP JUMPDEST PUSH1 0x0 PUSH1 0x40 MLOAD DUP1 DUP4 SUB DUP2 PUSH1 0x0 DUP8 DUP1 EXTCODESIZE ISZERO DUP1 ISZERO PUSH2 0x141F JUMPI PUSH1 0x0 DUP1 REVERT JUMPDEST POP GAS CALL ISZERO DUP1 ISZERO PUSH2 0x1433 JUMPI RETURNDATASIZE PUSH1 0x0 DUP1 RETURNDATACOPY RETURNDATASIZE PUSH1 0x0 REVERT JUMPDEST POP POP POP POP DUP2 PUSH1 0x6 PUSH1 0x0 DUP11 DUP2 MSTORE PUSH1 0x20 ADD SWAP1 DUP2 MSTORE PUSH1 0x20 ADD PUSH1 0x0 KECCAK256 PUSH1 0x0 ADD PUSH1 0x0 PUSH2 0x100 EXP DUP2 SLOAD DUP2 PUSH20 0xFFFFFFFFFFFFFFFFFFFFFFFFFFFFFFFFFFFFFFFF MUL NOT AND SWAP1 DUP4 PUSH20 0xFFFFFFFFFFFFFFFFFFFFFFFFFFFFFFFFFFFFFFFF AND MUL OR SWAP1 SSTORE POP PUSH1 0x4 PUSH32 0x0 PUSH2 0x14B9 SWAP2 SWAP1 PUSH2 0x45A4 JUMP JUMPDEST PUSH1 0x6 PUSH1 0x0 DUP11 DUP2 MSTORE PUSH1 0x20 ADD SWAP1 DUP2 MSTORE PUSH1 0x20 ADD PUSH1 0x0 KECCAK256 PUSH1 0x1 ADD DUP2 SWAP1 SSTORE POP PUSH1 0x2 PUSH1 0x4 PUSH1 0x0 DUP11 DUP2 MSTORE PUSH1 0x20 ADD SWAP1 DUP2 MSTORE PUSH1 0x20 ADD PUSH1 0x0 KECCAK256 PUSH1 0x0 ADD PUSH1 0x14 PUSH2 0x100 EXP DUP2 SLOAD DUP2 PUSH1 0xFF MUL NOT AND SWAP1 DUP4 PUSH1 0x2 DUP2 GT ISZERO PUSH2 0x150D JUMPI PUSH2 0x150C PUSH2 0x3C8D JUMP JUMPDEST JUMPDEST MUL OR SWAP1 SSTORE POP JUMPDEST POP POP POP POP POP POP POP POP JUMPDEST POP POP POP JUMP JUMPDEST DUP1 ISZERO PUSH2 0x1734 JUMPI PUSH1 0x6 PUSH1 0x0 DUP4 DUP2 MSTORE PUSH1 0x20 ADD SWAP1 DUP2 MSTORE PUSH1 0x20 ADD PUSH1 0x0 KECCAK256 PUSH1 0x2 ADD PUSH1 0x0 SWAP1 SLOAD SWAP1 PUSH2 0x100 EXP SWAP1 DIV PUSH1 0xFF AND ISZERO PUSH2 0x158B JUMPI PUSH1 0x40 MLOAD PUSH32 0x8C379A000000000000000000000000000000000000000000000000000000000 DUP2 MSTORE PUSH1 0x4 ADD PUSH2 0x1582 SWAP1 PUSH2 0x485B JUMP JUMPDEST PUSH1 0x40 MLOAD DUP1 SWAP2 SUB SWAP1 REVERT JUMPDEST PUSH2 0x1593 PUSH2 0x3047 JUMP JUMPDEST PUSH20 0xFFFFFFFFFFFFFFFFFFFFFFFFFFFFFFFFFFFFFFFF AND PUSH1 0x6 PUSH1 0x0 DUP5 DUP2 MSTORE PUSH1 0x20 ADD SWAP1 DUP2 MSTORE PUSH1 0x20 ADD PUSH1 0x0 KECCAK256 PUSH1 0x0 ADD PUSH1 0x0 SWAP1 SLOAD SWAP1 PUSH2 0x100 EXP SWAP1 DIV PUSH20 0xFFFFFFFFFFFFFFFFFFFFFFFFFFFFFFFFFFFFFFFF AND PUSH20 0xFFFFFFFFFFFFFFFFFFFFFFFFFFFFFFFFFFFFFFFF AND EQ PUSH2 0x1636 JUMPI PUSH1 0x40 MLOAD PUSH32 0x8C379A000000000000000000000000000000000000000000000000000000000 DUP2 MSTORE PUSH1 0x4 ADD PUSH2 0x162D SWAP1 PUSH2 0x48ED JUMP JUMPDEST PUSH1 0x40 MLOAD DUP1 SWAP2 SUB SWAP1 REVERT JUMPDEST PUSH1 0x1 PUSH1 0x6 PUSH1 0x0 DUP5 DUP2 MSTORE PUSH1 0x20 ADD SWAP1 DUP2 MSTORE PUSH1 0x20 ADD PUSH1 0x0 KECCAK256 PUSH1 0x2 ADD PUSH1 0x0 PUSH2 0x100 EXP DUP2 SLOAD DUP2 PUSH1 0xFF MUL NOT AND SWAP1 DUP4 ISZERO ISZERO MUL OR SWAP1 SSTORE POP PUSH1 0x0 PUSH2 0x166F PUSH2 0x3047 JUMP JUMPDEST PUSH20 0xFFFFFFFFFFFFFFFFFFFFFFFFFFFFFFFFFFFFFFFF AND PUSH1 0x6 PUSH1 0x0 DUP6 DUP2 MSTORE PUSH1 0x20 ADD SWAP1 DUP2 MSTORE PUSH1 0x20 ADD PUSH1 0x0 KECCAK256 PUSH1 0x1 ADD SLOAD PUSH1 0x40 MLOAD PUSH2 0x16A8 SWAP1 PUSH2 0x493E JUMP JUMPDEST PUSH1 0x0 PUSH1 0x40 MLOAD DUP1 DUP4 SUB DUP2 DUP6 DUP8 GAS CALL SWAP3 POP POP POP RETURNDATASIZE DUP1 PUSH1 0x0 DUP2 EQ PUSH2 0x16E5 JUMPI PUSH1 0x40 MLOAD SWAP2 POP PUSH1 0x1F NOT PUSH1 0x3F RETURNDATASIZE ADD AND DUP3 ADD PUSH1 0x40 MSTORE RETURNDATASIZE DUP3 MSTORE RETURNDATASIZE PUSH1 0x0 PUSH1 0x20 DUP5 ADD RETURNDATACOPY PUSH2 0x16EA JUMP JUMPDEST PUSH1 0x60 SWAP2 POP JUMPDEST POP POP SWAP1 POP DUP1 PUSH2 0x172E JUMPI PUSH1 0x40 MLOAD PUSH32 0x8C379A000000000000000000000000000000000000000000000000000000000 DUP2 MSTORE PUSH1 0x4 ADD PUSH2 0x1725 SWAP1 PUSH2 0x499F JUMP JUMPDEST PUSH1 0x40 MLOAD DUP1 SWAP2 SUB SWAP1 REVERT JUMPDEST POP PUSH2 0x193D JUMP JUMPDEST PUSH1 0x5 PUSH1 0x0 DUP4 DUP2 MSTORE PUSH1 0x20 ADD SWAP1 DUP2 MSTORE PUSH1 0x20 ADD PUSH1 0x0 KECCAK256 PUSH1 0x2 ADD PUSH1 0x0 SWAP1 SLOAD SWAP1 PUSH2 0x100 EXP SWAP1 DIV PUSH1 0xFF AND ISZERO PUSH2 0x1798 JUMPI PUSH1 0x40 MLOAD PUSH32 0x8C379A000000000000000000000000000000000000000000000000000000000 DUP2 MSTORE PUSH1 0x4 ADD PUSH2 0x178F SWAP1 PUSH2 0x485B JUMP JUMPDEST PUSH1 0x40 MLOAD DUP1 SWAP2 SUB SWAP1 REVERT JUMPDEST PUSH2 0x17A0 PUSH2 0x3047 JUMP JUMPDEST PUSH20 0xFFFFFFFFFFFFFFFFFFFFFFFFFFFFFFFFFFFFFFFF AND PUSH1 0x5 PUSH1 0x0 DUP5 DUP2 MSTORE PUSH1 0x20 ADD SWAP1 DUP2 MSTORE PUSH1 0x20 ADD PUSH1 0x0 KECCAK256 PUSH1 0x0 ADD PUSH1 0x0 SWAP1 SLOAD SWAP1 PUSH2 0x100 EXP SWAP1 DIV PUSH20 0xFFFFFFFFFFFFFFFFFFFFFFFFFFFFFFFFFFFFFFFF AND PUSH20 0xFFFFFFFFFFFFFFFFFFFFFFFFFFFFFFFFFFFFFFFF AND EQ PUSH2 0x1843 JUMPI PUSH1 0x40 MLOAD PUSH32 0x8C379A000000000000000000000000000000000000000000000000000000000 DUP2 MSTORE PUSH1 0x4 ADD PUSH2 0x183A SWAP1 PUSH2 0x48ED JUMP JUMPDEST PUSH1 0x40 MLOAD DUP1 SWAP2 SUB SWAP1 REVERT JUMPDEST PUSH1 0x1 PUSH1 0x5 PUSH1 0x0 DUP5 DUP2 MSTORE PUSH1 0x20 ADD SWAP1 DUP2 MSTORE PUSH1 0x20 ADD PUSH1 0x0 KECCAK256 PUSH1 0x2 ADD PUSH1 0x0 PUSH2 0x100 EXP DUP2 SLOAD DUP2 PUSH1 0xFF MUL NOT AND SWAP1 DUP4 ISZERO ISZERO MUL OR SWAP1 SSTORE POP PUSH1 0x0 PUSH2 0x187C PUSH2 0x3047 JUMP JUMPDEST PUSH20 0xFFFFFFFFFFFFFFFFFFFFFFFFFFFFFFFFFFFFFFFF AND PUSH1 0x5 PUSH1 0x0 DUP6 DUP2 MSTORE PUSH1 0x20 ADD SWAP1 DUP2 MSTORE PUSH1 0x20 ADD PUSH1 0x0 KECCAK256 PUSH1 0x1 ADD SLOAD PUSH1 0x40 MLOAD PUSH2 0x18B5 SWAP1 PUSH2 0x493E JUMP JUMPDEST PUSH1 0x0 PUSH1 0x40 MLOAD DUP1 DUP4 SUB DUP2 DUP6 DUP8 GAS CALL SWAP3 POP POP POP RETURNDATASIZE DUP1 PUSH1 0x0 DUP2 EQ PUSH2 0x18F2 JUMPI PUSH1 0x40 MLOAD SWAP2 POP PUSH1 0x1F NOT PUSH1 0x3F RETURNDATASIZE ADD AND DUP3 ADD PUSH1 0x40 MSTORE RETURNDATASIZE DUP3 MSTORE RETURNDATASIZE PUSH1 0x0 PUSH1 0x20 DUP5 ADD RETURNDATACOPY PUSH2 0x18F7 JUMP JUMPDEST PUSH1 0x60 SWAP2 POP JUMPDEST POP POP SWAP1 POP DUP1 PUSH2 0x193B JUMPI PUSH1 0x40 MLOAD PUSH32 0x8C379A000000000000000000000000000000000000000000000000000000000 DUP2 MSTORE PUSH1 0x4 ADD PUSH2 0x1932 SWAP1 PUSH2 0x499F JUMP JUMPDEST PUSH1 0x40 MLOAD DUP1 SWAP2 SUB SWAP1 REVERT JUMPDEST POP JUMPDEST POP POP JUMP JUMPDEST PUSH1 0x6 PUSH1 0x20 MSTORE DUP1 PUSH1 0x0 MSTORE PUSH1 0x40 PUSH1 0x0 KECCAK256 PUSH1 0x0 SWAP2 POP SWAP1 POP DUP1 PUSH1 0x0 ADD PUSH1 0x0 SWAP1 SLOAD SWAP1 PUSH2 0x100 EXP SWAP1 DIV PUSH20 0xFFFFFFFFFFFFFFFFFFFFFFFFFFFFFFFFFFFFFFFF AND SWAP1 DUP1 PUSH1 0x1 ADD SLOAD SWAP1 DUP1 PUSH1 0x2 ADD PUSH1 0x0 SWAP1 SLOAD SWAP1 PUSH2 0x100 EXP SWAP1 DIV PUSH1 0xFF AND SWAP1 POP DUP4 JUMP JUMPDEST PUSH1 0x4 PUSH1 0x20 MSTORE DUP1 PUSH1 0x0 MSTORE PUSH1 0x40 PUSH1 0x0 KECCAK256 PUSH1 0x0 SWAP2 POP SWAP1 POP DUP1 PUSH1 0x0 ADD PUSH1 0x0 SWAP1 SLOAD SWAP1 PUSH2 0x100 EXP SWAP1 DIV PUSH20 0xFFFFFFFFFFFFFFFFFFFFFFFFFFFFFFFFFFFFFFFF AND SWAP1 DUP1 PUSH1 0x0 ADD PUSH1 0x14 SWAP1 SLOAD SWAP1 PUSH2 0x100 EXP SWAP1 DIV PUSH1 0xFF AND SWAP1 POP DUP3 JUMP JUMPDEST PUSH32 0x0 DUP2 JUMP JUMPDEST PUSH1 0x1 PUSH1 0x20 MSTORE DUP1 PUSH1 0x0 MSTORE PUSH1 0x40 PUSH1 0x0 KECCAK256 PUSH1 0x0 SWAP2 POP SWAP1 POP DUP1 PUSH1 0x0 ADD PUSH1 0x0 SWAP1 SLOAD SWAP1 PUSH2 0x100 EXP SWAP1 DIV PUSH1 0xFF AND SWAP1 DUP1 PUSH1 0x1 ADD SLOAD SWAP1 DUP1 PUSH1 0x2 ADD SLOAD SWAP1 POP DUP4 JUMP JUMPDEST PUSH2 0x1A4C PUSH2 0x3328 JUMP JUMPDEST PUSH2 0x1A56 PUSH1 0x0 PUSH2 0x33A6 JUMP JUMPDEST JUMP JUMPDEST PUSH1 0x1 PUSH1 0x0 PUSH2 0x1A64 PUSH2 0x3047 JUMP JUMPDEST PUSH20 0xFFFFFFFFFFFFFFFFFFFFFFFFFFFFFFFFFFFFFFFF AND PUSH20 0xFFFFFFFFFFFFFFFFFFFFFFFFFFFFFFFFFFFFFFFF AND DUP2 MSTORE PUSH1 0x20 ADD SWAP1 DUP2 MSTORE PUSH1 0x20 ADD PUSH1 0x0 KECCAK256 PUSH1 0x0 ADD PUSH1 0x0 SWAP1 SLOAD SWAP1 PUSH2 0x100 EXP SWAP1 DIV PUSH1 0xFF AND PUSH1 0x4 DUP2 GT ISZERO PUSH2 0x1AC1 JUMPI PUSH2 0x1AC0 PUSH2 0x3C8D JUMP JUMPDEST JUMPDEST PUSH1 0x2 PUSH1 0x4 DUP2 GT ISZERO PUSH2 0x1AD5 JUMPI PUSH2 0x1AD4 PUSH2 0x3C8D JUMP JUMPDEST JUMPDEST EQ PUSH2 0x1B15 JUMPI PUSH1 0x40 MLOAD PUSH32 0x8C379A000000000000000000000000000000000000000000000000000000000 DUP2 MSTORE PUSH1 0x4 ADD PUSH2 0x1B0C SWAP1 PUSH2 0x4A31 JUMP JUMPDEST PUSH1 0x40 MLOAD DUP1 SWAP2 SUB SWAP1 REVERT JUMPDEST PUSH32 0x0 PUSH1 0x1 PUSH1 0x0 PUSH2 0x1B42 PUSH2 0x3047 JUMP JUMPDEST PUSH20 0xFFFFFFFFFFFFFFFFFFFFFFFFFFFFFFFFFFFFFFFF AND PUSH20 0xFFFFFFFFFFFFFFFFFFFFFFFFFFFFFFFFFFFFFFFF AND DUP2 MSTORE PUSH1 0x20 ADD SWAP1 DUP2 MSTORE PUSH1 0x20 ADD PUSH1 0x0 KECCAK256 PUSH1 0x1 ADD SLOAD PUSH2 0x1B8A SWAP2 SWAP1 PUSH2 0x44AF JUMP JUMPDEST TIMESTAMP GT PUSH2 0x1BCB JUMPI PUSH1 0x40 MLOAD PUSH32 0x8C379A000000000000000000000000000000000000000000000000000000000 DUP2 MSTORE PUSH1 0x4 ADD PUSH2 0x1BC2 SWAP1 PUSH2 0x4AC3 JUMP JUMPDEST PUSH1 0x40 MLOAD DUP1 SWAP2 SUB SWAP1 REVERT JUMPDEST PUSH1 0x0 PUSH2 0x1BD5 PUSH2 0x3047 JUMP JUMPDEST PUSH20 0xFFFFFFFFFFFFFFFFFFFFFFFFFFFFFFFFFFFFFFFF AND PUSH32 0x0 PUSH1 0x40 MLOAD PUSH2 0x1C18 SWAP1 PUSH2 0x493E JUMP JUMPDEST PUSH1 0x0 PUSH1 0x40 MLOAD DUP1 DUP4 SUB DUP2 DUP6 DUP8 GAS CALL SWAP3 POP POP POP RETURNDATASIZE DUP1 PUSH1 0x0 DUP2 EQ PUSH2 0x1C55 JUMPI PUSH1 0x40 MLOAD SWAP2 POP PUSH1 0x1F NOT PUSH1 0x3F RETURNDATASIZE ADD AND DUP3 ADD PUSH1 0x40 MSTORE RETURNDATASIZE DUP3 MSTORE RETURNDATASIZE PUSH1 0x0 PUSH1 0x20 DUP5 ADD RETURNDATACOPY PUSH2 0x1C5A JUMP JUMPDEST PUSH1 0x60 SWAP2 POP JUMPDEST POP POP SWAP1 POP DUP1 PUSH2 0x1C9E JUMPI PUSH1 0x40 MLOAD PUSH32 0x8C379A000000000000000000000000000000000000000000000000000000000 DUP2 MSTORE PUSH1 0x4 ADD PUSH2 0x1C95 SWAP1 PUSH2 0x499F JUMP JUMPDEST PUSH1 0x40 MLOAD DUP1 SWAP2 SUB SWAP1 REVERT JUMPDEST PUSH1 0x0 PUSH1 0x1 PUSH1 0x0 PUSH2 0x1CAC PUSH2 0x3047 JUMP JUMPDEST PUSH20 0xFFFFFFFFFFFFFFFFFFFFFFFFFFFFFFFFFFFFFFFF AND PUSH20 0xFFFFFFFFFFFFFFFFFFFFFFFFFFFFFFFFFFFFFFFF AND DUP2 MSTORE PUSH1 0x20 ADD SWAP1 DUP2 MSTORE PUSH1 0x20 ADD PUSH1 0x0 KECCAK256 PUSH1 0x0 ADD PUSH1 0x0 PUSH2 0x100 EXP DUP2 SLOAD DUP2 PUSH1 0xFF MUL NOT AND SWAP1 DUP4 PUSH1 0x4 DUP2 GT ISZERO PUSH2 0x1D0B JUMPI PUSH2 0x1D0A PUSH2 0x3C8D JUMP JUMPDEST JUMPDEST MUL OR SWAP1 SSTORE POP POP JUMP JUMPDEST PUSH1 0x0 DUP1 PUSH1 0x0 SWAP1 SLOAD SWAP1 PUSH2 0x100 EXP SWAP1 DIV PUSH20 0xFFFFFFFFFFFFFFFFFFFFFFFFFFFFFFFFFFFFFFFF AND SWAP1 POP SWAP1 JUMP JUMPDEST PUSH1 0x2 PUSH1 0x20 MSTORE DUP1 PUSH1 0x0 MSTORE PUSH1 0x40 PUSH1 0x0 KECCAK256 PUSH1 0x0 SWAP2 POP SWAP1 POP DUP1 PUSH1 0x0 ADD SLOAD SWAP1 DUP1 PUSH1 0x1 ADD PUSH1 0x0 SWAP1 SLOAD SWAP1 PUSH2 0x100 EXP SWAP1 DIV PUSH1 0xFF AND SWAP1 DUP1 PUSH1 0x1 ADD PUSH1 0x1 SWAP1 SLOAD SWAP1 PUSH2 0x100 EXP SWAP1 DIV PUSH20 0xFFFFFFFFFFFFFFFFFFFFFFFFFFFFFFFFFFFFFFFF AND SWAP1 DUP1 PUSH1 0x2 ADD SLOAD SWAP1 DUP1 PUSH1 0x3 ADD PUSH1 0x0 SWAP1 SLOAD SWAP1 PUSH2 0x100 EXP SWAP1 DIV PUSH20 0xFFFFFFFFFFFFFFFFFFFFFFFFFFFFFFFFFFFFFFFF AND SWAP1 DUP1 PUSH1 0x4 ADD SLOAD SWAP1 DUP1 PUSH1 0x5 ADD PUSH1 0x0 SWAP1 SLOAD SWAP1 PUSH2 0x100 EXP SWAP1 DIV PUSH20 0xFFFFFFFFFFFFFFFFFFFFFFFFFFFFFFFFFFFFFFFF AND SWAP1 POP DUP8 JUMP JUMPDEST DUP2 ISZERO PUSH2 0x2093 JUMPI PUSH1 0x0 PUSH1 0x3 PUSH1 0x0 DUP4 DUP2 MSTORE PUSH1 0x20 ADD SWAP1 DUP2 MSTORE PUSH1 0x20 ADD PUSH1 0x0 KECCAK256 PUSH1 0x40 MLOAD DUP1 PUSH2 0x120 ADD PUSH1 0x40 MSTORE SWAP1 DUP2 PUSH1 0x0 DUP3 ADD PUSH1 0x0 SWAP1 SLOAD SWAP1 PUSH2 0x100 EXP SWAP1 DIV PUSH1 0xFF AND PUSH1 0x5 DUP2 GT ISZERO PUSH2 0x1E37 JUMPI PUSH2 0x1E36 PUSH2 0x3C8D JUMP JUMPDEST JUMPDEST PUSH1 0x5 DUP2 GT ISZERO PUSH2 0x1E49 JUMPI PUSH2 0x1E48 PUSH2 0x3C8D JUMP JUMPDEST JUMPDEST DUP2 MSTORE PUSH1 0x20 ADD PUSH1 0x1 DUP3 ADD SLOAD DUP2 MSTORE PUSH1 0x20 ADD PUSH1 0x2 DUP3 ADD PUSH1 0x0 SWAP1 SLOAD SWAP1 PUSH2 0x100 EXP SWAP1 DIV PUSH20 0xFFFFFFFFFFFFFFFFFFFFFFFFFFFFFFFFFFFFFFFF AND PUSH20 0xFFFFFFFFFFFFFFFFFFFFFFFFFFFFFFFFFFFFFFFF AND PUSH20 0xFFFFFFFFFFFFFFFFFFFFFFFFFFFFFFFFFFFFFFFF AND DUP2 MSTORE PUSH1 0x20 ADD PUSH1 0x3 DUP3 ADD PUSH1 0x0 SWAP1 SLOAD SWAP1 PUSH2 0x100 EXP SWAP1 DIV PUSH20 0xFFFFFFFFFFFFFFFFFFFFFFFFFFFFFFFFFFFFFFFF AND PUSH20 0xFFFFFFFFFFFFFFFFFFFFFFFFFFFFFFFFFFFFFFFF AND PUSH20 0xFFFFFFFFFFFFFFFFFFFFFFFFFFFFFFFFFFFFFFFF AND DUP2 MSTORE PUSH1 0x20 ADD PUSH1 0x4 DUP3 ADD SLOAD DUP2 MSTORE PUSH1 0x20 ADD PUSH1 0x5 DUP3 ADD PUSH1 0x0 SWAP1 SLOAD SWAP1 PUSH2 0x100 EXP SWAP1 DIV PUSH20 0xFFFFFFFFFFFFFFFFFFFFFFFFFFFFFFFFFFFFFFFF AND PUSH20 0xFFFFFFFFFFFFFFFFFFFFFFFFFFFFFFFFFFFFFFFF AND PUSH20 0xFFFFFFFFFFFFFFFFFFFFFFFFFFFFFFFFFFFFFFFF AND DUP2 MSTORE PUSH1 0x20 ADD PUSH1 0x6 DUP3 ADD PUSH1 0x0 SWAP1 SLOAD SWAP1 PUSH2 0x100 EXP SWAP1 DIV PUSH20 0xFFFFFFFFFFFFFFFFFFFFFFFFFFFFFFFFFFFFFFFF AND PUSH20 0xFFFFFFFFFFFFFFFFFFFFFFFFFFFFFFFFFFFFFFFF AND PUSH20 0xFFFFFFFFFFFFFFFFFFFFFFFFFFFFFFFFFFFFFFFF AND DUP2 MSTORE PUSH1 0x20 ADD PUSH1 0x7 DUP3 ADD SLOAD DUP2 MSTORE PUSH1 0x20 ADD PUSH1 0x8 DUP3 ADD PUSH1 0x0 SWAP1 SLOAD SWAP1 PUSH2 0x100 EXP SWAP1 DIV PUSH20 0xFFFFFFFFFFFFFFFFFFFFFFFFFFFFFFFFFFFFFFFF AND PUSH20 0xFFFFFFFFFFFFFFFFFFFFFFFFFFFFFFFFFFFFFFFF AND PUSH20 0xFFFFFFFFFFFFFFFFFFFFFFFFFFFFFFFFFFFFFFFF AND DUP2 MSTORE POP POP SWAP1 POP PUSH1 0x0 DUP3 DUP3 PUSH1 0x0 ADD MLOAD DUP4 PUSH1 0x60 ADD MLOAD DUP5 PUSH1 0x80 ADD MLOAD DUP6 PUSH1 0xA0 ADD MLOAD DUP7 PUSH2 0x100 ADD MLOAD PUSH1 0x40 MLOAD PUSH1 0x20 ADD PUSH2 0x204D SWAP7 SWAP6 SWAP5 SWAP4 SWAP3 SWAP2 SWAP1 PUSH2 0x4AE3 JUMP JUMPDEST PUSH1 0x40 MLOAD PUSH1 0x20 DUP2 DUP4 SUB SUB DUP2 MSTORE SWAP1 PUSH1 0x40 MSTORE SWAP1 POP DUP1 PUSH1 0x1 PUSH1 0x40 MLOAD PUSH1 0x20 ADD PUSH2 0x2072 SWAP3 SWAP2 SWAP1 PUSH2 0x4B99 JUMP JUMPDEST PUSH1 0x40 MLOAD PUSH1 0x20 DUP2 DUP4 SUB SUB DUP2 MSTORE SWAP1 PUSH1 0x40 MSTORE SWAP1 POP PUSH2 0x208C DUP2 PUSH2 0x346A JUMP JUMPDEST POP POP PUSH2 0x22F1 JUMP JUMPDEST TIMESTAMP PUSH2 0x3840 PUSH1 0x2 PUSH1 0x0 DUP5 DUP2 MSTORE PUSH1 0x20 ADD SWAP1 DUP2 MSTORE PUSH1 0x20 ADD PUSH1 0x0 KECCAK256 PUSH1 0x4 ADD SLOAD PUSH2 0x20B8 SWAP2 SWAP1 PUSH2 0x44AF JUMP JUMPDEST LT PUSH2 0x20F8 JUMPI PUSH1 0x40 MLOAD PUSH32 0x8C379A000000000000000000000000000000000000000000000000000000000 DUP2 MSTORE PUSH1 0x4 ADD PUSH2 0x20EF SWAP1 PUSH2 0x4C3B JUMP JUMPDEST PUSH1 0x40 MLOAD DUP1 SWAP2 SUB SWAP1 REVERT JUMPDEST PUSH1 0x0 PUSH1 0x2 PUSH1 0x0 DUP4 DUP2 MSTORE PUSH1 0x20 ADD SWAP1 DUP2 MSTORE PUSH1 0x20 ADD PUSH1 0x0 KECCAK256 PUSH1 0x40 MLOAD DUP1 PUSH1 0xE0 ADD PUSH1 0x40 MSTORE SWAP1 DUP2 PUSH1 0x0 DUP3 ADD SLOAD DUP2 MSTORE PUSH1 0x20 ADD PUSH1 0x1 DUP3 ADD PUSH1 0x0 SWAP1 SLOAD SWAP1 PUSH2 0x100 EXP SWAP1 DIV PUSH1 0xFF AND PUSH1 0x4 DUP2 GT ISZERO PUSH2 0x2147 JUMPI PUSH2 0x2146 PUSH2 0x3C8D JUMP JUMPDEST JUMPDEST PUSH1 0x4 DUP2 GT ISZERO PUSH2 0x2159 JUMPI PUSH2 0x2158 PUSH2 0x3C8D JUMP JUMPDEST JUMPDEST DUP2 MSTORE PUSH1 0x20 ADD PUSH1 0x1 DUP3 ADD PUSH1 0x1 SWAP1 SLOAD SWAP1 PUSH2 0x100 EXP SWAP1 DIV PUSH20 0xFFFFFFFFFFFFFFFFFFFFFFFFFFFFFFFFFFFFFFFF AND PUSH20 0xFFFFFFFFFFFFFFFFFFFFFFFFFFFFFFFFFFFFFFFF AND PUSH20 0xFFFFFFFFFFFFFFFFFFFFFFFFFFFFFFFFFFFFFFFF AND DUP2 MSTORE PUSH1 0x20 ADD PUSH1 0x2 DUP3 ADD SLOAD DUP2 MSTORE PUSH1 0x20 ADD PUSH1 0x3 DUP3 ADD PUSH1 0x0 SWAP1 SLOAD SWAP1 PUSH2 0x100 EXP SWAP1 DIV PUSH20 0xFFFFFFFFFFFFFFFFFFFFFFFFFFFFFFFFFFFFFFFF AND PUSH20 0xFFFFFFFFFFFFFFFFFFFFFFFFFFFFFFFFFFFFFFFF AND PUSH20 0xFFFFFFFFFFFFFFFFFFFFFFFFFFFFFFFFFFFFFFFF AND DUP2 MSTORE PUSH1 0x20 ADD PUSH1 0x4 DUP3 ADD SLOAD DUP2 MSTORE PUSH1 0x20 ADD PUSH1 0x5 DUP3 ADD PUSH1 0x0 SWAP1 SLOAD SWAP1 PUSH2 0x100 EXP SWAP1 DIV PUSH20 0xFFFFFFFFFFFFFFFFFFFFFFFFFFFFFFFFFFFFFFFF AND PUSH20 0xFFFFFFFFFFFFFFFFFFFFFFFFFFFFFFFFFFFFFFFF AND PUSH20 0xFFFFFFFFFFFFFFFFFFFFFFFFFFFFFFFFFFFFFFFF AND DUP2 MSTORE POP POP SWAP1 POP PUSH1 0x0 DUP3 DUP3 PUSH1 0x20 ADD MLOAD DUP4 PUSH1 0x40 ADD MLOAD DUP5 PUSH1 0x60 ADD MLOAD DUP6 PUSH1 0x80 ADD MLOAD DUP7 PUSH1 0xC0 ADD MLOAD PUSH2 0x2299 PUSH2 0x3047 JUMP JUMPDEST PUSH1 0x40 MLOAD PUSH1 0x20 ADD PUSH2 0x22AF SWAP8 SWAP7 SWAP6 SWAP5 SWAP4 SWAP3 SWAP2 SWAP1 PUSH2 0x4C5B JUMP JUMPDEST PUSH1 0x40 MLOAD PUSH1 0x20 DUP2 DUP4 SUB SUB DUP2 MSTORE SWAP1 PUSH1 0x40 MSTORE SWAP1 POP DUP1 PUSH1 0x0 PUSH1 0x40 MLOAD PUSH1 0x20 ADD PUSH2 0x22D4 SWAP3 SWAP2 SWAP1 PUSH2 0x4B99 JUMP JUMPDEST PUSH1 0x40 MLOAD PUSH1 0x20 DUP2 DUP4 SUB SUB DUP2 MSTORE SWAP1 PUSH1 0x40 MSTORE SWAP1 POP PUSH2 0x22EE DUP2 PUSH2 0x346A JUMP JUMPDEST POP POP JUMPDEST POP POP JUMP JUMPDEST PUSH1 0x5 PUSH1 0x20 MSTORE DUP1 PUSH1 0x0 MSTORE PUSH1 0x40 PUSH1 0x0 KECCAK256 PUSH1 0x0 SWAP2 POP SWAP1 POP DUP1 PUSH1 0x0 ADD PUSH1 0x0 SWAP1 SLOAD SWAP1 PUSH2 0x100 EXP SWAP1 DIV PUSH20 0xFFFFFFFFFFFFFFFFFFFFFFFFFFFFFFFFFFFFFFFF AND SWAP1 DUP1 PUSH1 0x1 ADD SLOAD SWAP1 DUP1 PUSH1 0x2 ADD PUSH1 0x0 SWAP1 SLOAD SWAP1 PUSH2 0x100 EXP SWAP1 DIV PUSH1 0xFF AND SWAP1 POP DUP4 JUMP JUMPDEST PUSH32 0x0 DUP2 JUMP JUMPDEST PUSH1 0x1 PUSH1 0x0 PUSH2 0x237C PUSH2 0x3047 JUMP JUMPDEST PUSH20 0xFFFFFFFFFFFFFFFFFFFFFFFFFFFFFFFFFFFFFFFF AND PUSH20 0xFFFFFFFFFFFFFFFFFFFFFFFFFFFFFFFFFFFFFFFF AND DUP2 MSTORE PUSH1 0x20 ADD SWAP1 DUP2 MSTORE PUSH1 0x20 ADD PUSH1 0x0 KECCAK256 PUSH1 0x0 ADD PUSH1 0x0 SWAP1 SLOAD SWAP1 PUSH2 0x100 EXP SWAP1 DIV PUSH1 0xFF AND PUSH1 0x4 DUP2 GT ISZERO PUSH2 0x23D9 JUMPI PUSH2 0x23D8 PUSH2 0x3C8D JUMP JUMPDEST JUMPDEST PUSH1 0x0 PUSH1 0x4 DUP2 GT ISZERO PUSH2 0x23ED JUMPI PUSH2 0x23EC PUSH2 0x3C8D JUMP JUMPDEST JUMPDEST EQ PUSH2 0x242D JUMPI PUSH1 0x40 MLOAD PUSH32 0x8C379A000000000000000000000000000000000000000000000000000000000 DUP2 MSTORE PUSH1 0x4 ADD PUSH2 0x2424 SWAP1 PUSH2 0x4D3C JUMP JUMPDEST PUSH1 0x40 MLOAD DUP1 SWAP2 SUB SWAP1 REVERT JUMPDEST PUSH32 0x0 CALLVALUE EQ PUSH2 0x248F JUMPI PUSH1 0x40 MLOAD PUSH32 0x8C379A000000000000000000000000000000000000000000000000000000000 DUP2 MSTORE PUSH1 0x4 ADD PUSH2 0x2486 SWAP1 PUSH2 0x4DCE JUMP JUMPDEST PUSH1 0x40 MLOAD DUP1 SWAP2 SUB SWAP1 REVERT JUMPDEST PUSH1 0x1 DUP1 PUSH1 0x0 PUSH2 0x249C PUSH2 0x3047 JUMP JUMPDEST PUSH20 0xFFFFFFFFFFFFFFFFFFFFFFFFFFFFFFFFFFFFFFFF AND PUSH20 0xFFFFFFFFFFFFFFFFFFFFFFFFFFFFFFFFFFFFFFFF AND DUP2 MSTORE PUSH1 0x20 ADD SWAP1 DUP2 MSTORE PUSH1 0x20 ADD PUSH1 0x0 KECCAK256 PUSH1 0x0 ADD PUSH1 0x0 PUSH2 0x100 EXP DUP2 SLOAD DUP2 PUSH1 0xFF MUL NOT AND SWAP1 DUP4 PUSH1 0x4 DUP2 GT ISZERO PUSH2 0x24FB JUMPI PUSH2 0x24FA PUSH2 0x3C8D JUMP JUMPDEST JUMPDEST MUL OR SWAP1 SSTORE POP CALLVALUE PUSH1 0x1 PUSH1 0x0 PUSH2 0x250D PUSH2 0x3047 JUMP JUMPDEST PUSH20 0xFFFFFFFFFFFFFFFFFFFFFFFFFFFFFFFFFFFFFFFF AND PUSH20 0xFFFFFFFFFFFFFFFFFFFFFFFFFFFFFFFFFFFFFFFF AND DUP2 MSTORE PUSH1 0x20 ADD SWAP1 DUP2 MSTORE PUSH1 0x20 ADD PUSH1 0x0 KECCAK256 PUSH1 0x2 ADD DUP2 SWAP1 SSTORE POP JUMP JUMPDEST PUSH1 0x7 DUP1 PUSH1 0x0 ADD SLOAD SWAP1 POP DUP2 JUMP JUMPDEST PUSH1 0x0 CALLVALUE GT PUSH2 0x259F JUMPI PUSH1 0x40 MLOAD PUSH32 0x8C379A000000000000000000000000000000000000000000000000000000000 DUP2 MSTORE PUSH1 0x4 ADD PUSH2 0x2596 SWAP1 PUSH2 0x4E60 JUMP JUMPDEST PUSH1 0x40 MLOAD DUP1 SWAP2 SUB SWAP1 REVERT JUMPDEST PUSH1 0x1 PUSH1 0x4 DUP2 GT ISZERO PUSH2 0x25B3 JUMPI PUSH2 0x25B2 PUSH2 0x3C8D JUMP JUMPDEST JUMPDEST PUSH1 0x2 PUSH1 0x0 DUP4 DUP2 MSTORE PUSH1 0x20 ADD SWAP1 DUP2 MSTORE PUSH1 0x20 ADD PUSH1 0x0 KECCAK256 PUSH1 0x1 ADD PUSH1 0x0 SWAP1 SLOAD SWAP1 PUSH2 0x100 EXP SWAP1 DIV PUSH1 0xFF AND PUSH1 0x4 DUP2 GT ISZERO PUSH2 0x25E9 JUMPI PUSH2 0x25E8 PUSH2 0x3C8D JUMP JUMPDEST JUMPDEST EQ PUSH2 0x2629 JUMPI PUSH1 0x40 MLOAD PUSH32 0x8C379A000000000000000000000000000000000000000000000000000000000 DUP2 MSTORE PUSH1 0x4 ADD PUSH2 0x2620 SWAP1 PUSH2 0x4EF2 JUMP JUMPDEST PUSH1 0x40 MLOAD DUP1 SWAP2 SUB SWAP1 REVERT JUMPDEST TIMESTAMP PUSH2 0x3840 PUSH1 0x2 PUSH1 0x0 DUP5 DUP2 MSTORE PUSH1 0x20 ADD SWAP1 DUP2 MSTORE PUSH1 0x20 ADD PUSH1 0x0 KECCAK256 PUSH1 0x4 ADD SLOAD PUSH2 0x264E SWAP2 SWAP1 PUSH2 0x44AF JUMP JUMPDEST LT PUSH2 0x268E JUMPI PUSH1 0x40 MLOAD PUSH32 0x8C379A000000000000000000000000000000000000000000000000000000000 DUP2 MSTORE PUSH1 0x4 ADD PUSH2 0x2685 SWAP1 PUSH2 0x4F84 JUMP JUMPDEST PUSH1 0x40 MLOAD DUP1 SWAP2 SUB SWAP1 REVERT JUMPDEST DUP2 PUSH20 0xFFFFFFFFFFFFFFFFFFFFFFFFFFFFFFFFFFFFFFFF AND PUSH4 0x42842E0E CALLER ADDRESS DUP7 PUSH1 0x40 MLOAD DUP5 PUSH4 0xFFFFFFFF AND PUSH1 0xE0 SHL DUP2 MSTORE PUSH1 0x4 ADD PUSH2 0x26CB SWAP4 SWAP3 SWAP2 SWAP1 PUSH2 0x4FA4 JUMP JUMPDEST PUSH1 0x0 PUSH1 0x40 MLOAD DUP1 DUP4 SUB DUP2 PUSH1 0x0 DUP8 DUP1 EXTCODESIZE ISZERO DUP1 ISZERO PUSH2 0x26E5 JUMPI PUSH1 0x0 DUP1 REVERT JUMPDEST POP GAS CALL ISZERO DUP1 ISZERO PUSH2 0x26F9 JUMPI RETURNDATASIZE PUSH1 0x0 DUP1 RETURNDATACOPY RETURNDATASIZE PUSH1 0x0 REVERT JUMPDEST POP POP POP POP PUSH1 0x40 MLOAD DUP1 PUSH2 0x120 ADD PUSH1 0x40 MSTORE DUP1 PUSH1 0x1 PUSH1 0x5 DUP2 GT ISZERO PUSH2 0x271D JUMPI PUSH2 0x271C PUSH2 0x3C8D JUMP JUMPDEST JUMPDEST DUP2 MSTORE PUSH1 0x20 ADD CALLVALUE DUP2 MSTORE PUSH1 0x20 ADD PUSH2 0x2730 PUSH2 0x3047 JUMP JUMPDEST PUSH20 0xFFFFFFFFFFFFFFFFFFFFFFFFFFFFFFFFFFFFFFFF AND DUP2 MSTORE PUSH1 0x20 ADD DUP6 PUSH20 0xFFFFFFFFFFFFFFFFFFFFFFFFFFFFFFFFFFFFFFFF AND DUP2 MSTORE PUSH1 0x20 ADD DUP5 DUP2 MSTORE PUSH1 0x20 ADD DUP4 PUSH20 0xFFFFFFFFFFFFFFFFFFFFFFFFFFFFFFFFFFFFFFFF AND DUP2 MSTORE PUSH1 0x20 ADD PUSH1 0x0 PUSH20 0xFFFFFFFFFFFFFFFFFFFFFFFFFFFFFFFFFFFFFFFF AND DUP2 MSTORE PUSH1 0x20 ADD PUSH1 0x0 DUP2 MSTORE PUSH1 0x20 ADD PUSH1 0x0 PUSH20 0xFFFFFFFFFFFFFFFFFFFFFFFFFFFFFFFFFFFFFFFF AND DUP2 MSTORE POP PUSH1 0x3 PUSH1 0x0 PUSH2 0x27D6 PUSH1 0x7 PUSH2 0x34F8 JUMP JUMPDEST DUP2 MSTORE PUSH1 0x20 ADD SWAP1 DUP2 MSTORE PUSH1 0x20 ADD PUSH1 0x0 KECCAK256 PUSH1 0x0 DUP3 ADD MLOAD DUP2 PUSH1 0x0 ADD PUSH1 0x0 PUSH2 0x100 EXP DUP2 SLOAD DUP2 PUSH1 0xFF MUL NOT AND SWAP1 DUP4 PUSH1 0x5 DUP2 GT ISZERO PUSH2 0x280F JUMPI PUSH2 0x280E PUSH2 0x3C8D JUMP JUMPDEST JUMPDEST MUL OR SWAP1 SSTORE POP PUSH1 0x20 DUP3 ADD MLOAD DUP2 PUSH1 0x1 ADD SSTORE PUSH1 0x40 DUP3 ADD MLOAD DUP2 PUSH1 0x2 ADD PUSH1 0x0 PUSH2 0x100 EXP DUP2 SLOAD DUP2 PUSH20 0xFFFFFFFFFFFFFFFFFFFFFFFFFFFFFFFFFFFFFFFF MUL NOT AND SWAP1 DUP4 PUSH20 0xFFFFFFFFFFFFFFFFFFFFFFFFFFFFFFFFFFFFFFFF AND MUL OR SWAP1 SSTORE POP PUSH1 0x60 DUP3 ADD MLOAD DUP2 PUSH1 0x3 ADD PUSH1 0x0 PUSH2 0x100 EXP DUP2 SLOAD DUP2 PUSH20 0xFFFFFFFFFFFFFFFFFFFFFFFFFFFFFFFFFFFFFFFF MUL NOT AND SWAP1 DUP4 PUSH20 0xFFFFFFFFFFFFFFFFFFFFFFFFFFFFFFFFFFFFFFFF AND MUL OR SWAP1 SSTORE POP PUSH1 0x80 DUP3 ADD MLOAD DUP2 PUSH1 0x4 ADD SSTORE PUSH1 0xA0 DUP3 ADD MLOAD DUP2 PUSH1 0x5 ADD PUSH1 0x0 PUSH2 0x100 EXP DUP2 SLOAD DUP2 PUSH20 0xFFFFFFFFFFFFFFFFFFFFFFFFFFFFFFFFFFFFFFFF MUL NOT AND SWAP1 DUP4 PUSH20 0xFFFFFFFFFFFFFFFFFFFFFFFFFFFFFFFFFFFFFFFF AND MUL OR SWAP1 SSTORE POP PUSH1 0xC0 DUP3 ADD MLOAD DUP2 PUSH1 0x6 ADD PUSH1 0x0 PUSH2 0x100 EXP DUP2 SLOAD DUP2 PUSH20 0xFFFFFFFFFFFFFFFFFFFFFFFFFFFFFFFFFFFFFFFF MUL NOT AND SWAP1 DUP4 PUSH20 0xFFFFFFFFFFFFFFFFFFFFFFFFFFFFFFFFFFFFFFFF AND MUL OR SWAP1 SSTORE POP PUSH1 0xE0 DUP3 ADD MLOAD DUP2 PUSH1 0x7 ADD SSTORE PUSH2 0x100 DUP3 ADD MLOAD DUP2 PUSH1 0x8 ADD PUSH1 0x0 PUSH2 0x100 EXP DUP2 SLOAD DUP2 PUSH20 0xFFFFFFFFFFFFFFFFFFFFFFFFFFFFFFFFFFFFFFFF MUL NOT AND SWAP1 DUP4 PUSH20 0xFFFFFFFFFFFFFFFFFFFFFFFFFFFFFFFFFFFFFFFF AND MUL OR SWAP1 SSTORE POP SWAP1 POP POP PUSH2 0x29A3 PUSH1 0x7 PUSH2 0x3506 JUMP JUMPDEST POP POP POP POP JUMP JUMPDEST PUSH1 0x1 PUSH1 0x0 PUSH2 0x29B5 PUSH2 0x3047 JUMP JUMPDEST PUSH20 0xFFFFFFFFFFFFFFFFFFFFFFFFFFFFFFFFFFFFFFFF AND PUSH20 0xFFFFFFFFFFFFFFFFFFFFFFFFFFFFFFFFFFFFFFFF AND DUP2 MSTORE PUSH1 0x20 ADD SWAP1 DUP2 MSTORE PUSH1 0x20 ADD PUSH1 0x0 KECCAK256 PUSH1 0x0 ADD PUSH1 0x0 SWAP1 SLOAD SWAP1 PUSH2 0x100 EXP SWAP1 DIV PUSH1 0xFF AND PUSH1 0x4 DUP2 GT ISZERO PUSH2 0x2A12 JUMPI PUSH2 0x2A11 PUSH2 0x3C8D JUMP JUMPDEST JUMPDEST PUSH1 0x1 PUSH1 0x4 DUP2 GT ISZERO PUSH2 0x2A26 JUMPI PUSH2 0x2A25 PUSH2 0x3C8D JUMP JUMPDEST JUMPDEST EQ PUSH2 0x2A66 JUMPI PUSH1 0x40 MLOAD PUSH32 0x8C379A000000000000000000000000000000000000000000000000000000000 DUP2 MSTORE PUSH1 0x4 ADD PUSH2 0x2A5D SWAP1 PUSH2 0x412C JUMP JUMPDEST PUSH1 0x40 MLOAD DUP1 SWAP2 SUB SWAP1 REVERT JUMPDEST PUSH1 0x2 PUSH1 0x1 PUSH1 0x0 PUSH2 0x2A74 PUSH2 0x3047 JUMP JUMPDEST PUSH20 0xFFFFFFFFFFFFFFFFFFFFFFFFFFFFFFFFFFFFFFFF AND PUSH20 0xFFFFFFFFFFFFFFFFFFFFFFFFFFFFFFFFFFFFFFFF AND DUP2 MSTORE PUSH1 0x20 ADD SWAP1 DUP2 MSTORE PUSH1 0x20 ADD PUSH1 0x0 KECCAK256 PUSH1 0x0 ADD PUSH1 0x0 PUSH2 0x100 EXP DUP2 SLOAD DUP2 PUSH1 0xFF MUL NOT AND SWAP1 DUP4 PUSH1 0x4 DUP2 GT ISZERO PUSH2 0x2AD3 JUMPI PUSH2 0x2AD2 PUSH2 0x3C8D JUMP JUMPDEST JUMPDEST MUL OR SWAP1 SSTORE POP TIMESTAMP PUSH1 0x1 PUSH1 0x0 PUSH2 0x2AE5 PUSH2 0x3047 JUMP JUMPDEST PUSH20 0xFFFFFFFFFFFFFFFFFFFFFFFFFFFFFFFFFFFFFFFF AND PUSH20 0xFFFFFFFFFFFFFFFFFFFFFFFFFFFFFFFFFFFFFFFF AND DUP2 MSTORE PUSH1 0x20 ADD SWAP1 DUP2 MSTORE PUSH1 0x20 ADD PUSH1 0x0 KECCAK256 PUSH1 0x1 ADD DUP2 SWAP1 SSTORE POP JUMP JUMPDEST PUSH2 0x2B31 DUP2 PUSH2 0x351C JUMP JUMPDEST POP JUMP JUMPDEST PUSH1 0x1 PUSH1 0x0 PUSH2 0x2B40 PUSH2 0x3047 JUMP JUMPDEST PUSH20 0xFFFFFFFFFFFFFFFFFFFFFFFFFFFFFFFFFFFFFFFF AND PUSH20 0xFFFFFFFFFFFFFFFFFFFFFFFFFFFFFFFFFFFFFFFF AND DUP2 MSTORE PUSH1 0x20 ADD SWAP1 DUP2 MSTORE PUSH1 0x20 ADD PUSH1 0x0 KECCAK256 PUSH1 0x0 ADD PUSH1 0x0 SWAP1 SLOAD SWAP1 PUSH2 0x100 EXP SWAP1 DIV PUSH1 0xFF AND PUSH1 0x4 DUP2 GT ISZERO PUSH2 0x2B9D JUMPI PUSH2 0x2B9C PUSH2 0x3C8D JUMP JUMPDEST JUMPDEST PUSH1 0x1 PUSH1 0x4 DUP2 GT ISZERO PUSH2 0x2BB1 JUMPI PUSH2 0x2BB0 PUSH2 0x3C8D JUMP JUMPDEST JUMPDEST EQ PUSH2 0x2BF1 JUMPI PUSH1 0x40 MLOAD PUSH32 0x8C379A000000000000000000000000000000000000000000000000000000000 DUP2 MSTORE PUSH1 0x4 ADD PUSH2 0x2BE8 SWAP1 PUSH2 0x412C JUMP JUMPDEST PUSH1 0x40 MLOAD DUP1 SWAP2 SUB SWAP1 REVERT JUMPDEST PUSH1 0x0 PUSH1 0x4 DUP2 GT ISZERO PUSH2 0x2C05 JUMPI PUSH2 0x2C04 PUSH2 0x3C8D JUMP JUMPDEST JUMPDEST PUSH1 0x2 PUSH1 0x0 DUP7 DUP2 MSTORE PUSH1 0x20 ADD SWAP1 DUP2 MSTORE PUSH1 0x20 ADD PUSH1 0x0 KECCAK256 PUSH1 0x1 ADD PUSH1 0x0 SWAP1 SLOAD SWAP1 PUSH2 0x100 EXP SWAP1 DIV PUSH1 0xFF AND PUSH1 0x4 DUP2 GT ISZERO PUSH2 0x2C3B JUMPI PUSH2 0x2C3A PUSH2 0x3C8D JUMP JUMPDEST JUMPDEST EQ PUSH2 0x2C45 JUMPI PUSH1 0x0 DUP1 REVERT JUMPDEST DUP1 PUSH20 0xFFFFFFFFFFFFFFFFFFFFFFFFFFFFFFFFFFFFFFFF AND PUSH4 0x40C10F19 DUP5 DUP5 PUSH1 0x40 MLOAD DUP4 PUSH4 0xFFFFFFFF AND PUSH1 0xE0 SHL DUP2 MSTORE PUSH1 0x4 ADD PUSH2 0x2C80 SWAP3 SWAP2 SWAP1 PUSH2 0x47C0 JUMP JUMPDEST PUSH1 0x0 PUSH1 0x40 MLOAD DUP1 DUP4 SUB DUP2 PUSH1 0x0 DUP8 DUP1 EXTCODESIZE ISZERO DUP1 ISZERO PUSH2 0x2C9A JUMPI PUSH1 0x0 DUP1 REVERT JUMPDEST POP GAS CALL ISZERO DUP1 ISZERO PUSH2 0x2CAE JUMPI RETURNDATASIZE PUSH1 0x0 DUP1 RETURNDATACOPY RETURNDATASIZE PUSH1 0x0 REVERT JUMPDEST POP POP POP POP PUSH1 0x40 MLOAD DUP1 PUSH1 0xE0 ADD PUSH1 0x40 MSTORE DUP1 PUSH1 0x0 DUP2 MSTORE PUSH1 0x20 ADD PUSH1 0x1 PUSH1 0x4 DUP2 GT ISZERO PUSH2 0x2CD8 JUMPI PUSH2 0x2CD7 PUSH2 0x3C8D JUMP JUMPDEST JUMPDEST DUP2 MSTORE PUSH1 0x20 ADD DUP5 PUSH20 0xFFFFFFFFFFFFFFFFFFFFFFFFFFFFFFFFFFFFFFFF AND DUP2 MSTORE PUSH1 0x20 ADD DUP4 DUP2 MSTORE PUSH1 0x20 ADD DUP3 PUSH20 0xFFFFFFFFFFFFFFFFFFFFFFFFFFFFFFFFFFFFFFFF AND DUP2 MSTORE PUSH1 0x20 ADD TIMESTAMP DUP2 MSTORE PUSH1 0x20 ADD PUSH2 0x2D29 PUSH2 0x3047 JUMP JUMPDEST PUSH20 0xFFFFFFFFFFFFFFFFFFFFFFFFFFFFFFFFFFFFFFFF AND DUP2 MSTORE POP PUSH1 0x2 PUSH1 0x0 DUP7 DUP2 MSTORE PUSH1 0x20 ADD SWAP1 DUP2 MSTORE PUSH1 0x20 ADD PUSH1 0x0 KECCAK256 PUSH1 0x0 DUP3 ADD MLOAD DUP2 PUSH1 0x0 ADD SSTORE PUSH1 0x20 DUP3 ADD MLOAD DUP2 PUSH1 0x1 ADD PUSH1 0x0 PUSH2 0x100 EXP DUP2 SLOAD DUP2 PUSH1 0xFF MUL NOT AND SWAP1 DUP4 PUSH1 0x4 DUP2 GT ISZERO PUSH2 0x2D8A JUMPI PUSH2 0x2D89 PUSH2 0x3C8D JUMP JUMPDEST JUMPDEST MUL OR SWAP1 SSTORE POP PUSH1 0x40 DUP3 ADD MLOAD DUP2 PUSH1 0x1 ADD PUSH1 0x1 PUSH2 0x100 EXP DUP2 SLOAD DUP2 PUSH20 0xFFFFFFFFFFFFFFFFFFFFFFFFFFFFFFFFFFFFFFFF MUL NOT AND SWAP1 DUP4 PUSH20 0xFFFFFFFFFFFFFFFFFFFFFFFFFFFFFFFFFFFFFFFF AND MUL OR SWAP1 SSTORE POP PUSH1 0x60 DUP3 ADD MLOAD DUP2 PUSH1 0x2 ADD SSTORE PUSH1 0x80 DUP3 ADD MLOAD DUP2 PUSH1 0x3 ADD PUSH1 0x0 PUSH2 0x100 EXP DUP2 SLOAD DUP2 PUSH20 0xFFFFFFFFFFFFFFFFFFFFFFFFFFFFFFFFFFFFFFFF MUL NOT AND SWAP1 DUP4 PUSH20 0xFFFFFFFFFFFFFFFFFFFFFFFFFFFFFFFFFFFFFFFF AND MUL OR SWAP1 SSTORE POP PUSH1 0xA0 DUP3 ADD MLOAD DUP2 PUSH1 0x4 ADD SSTORE PUSH1 0xC0 DUP3 ADD MLOAD DUP2 PUSH1 0x5 ADD PUSH1 0x0 PUSH2 0x100 EXP DUP2 SLOAD DUP2 PUSH20 0xFFFFFFFFFFFFFFFFFFFFFFFFFFFFFFFFFFFFFFFF MUL NOT AND SWAP1 DUP4 PUSH20 0xFFFFFFFFFFFFFFFFFFFFFFFFFFFFFFFFFFFFFFFF AND MUL OR SWAP1 SSTORE POP SWAP1 POP POP POP POP POP POP JUMP JUMPDEST PUSH2 0x2E89 PUSH2 0x3328 JUMP JUMPDEST PUSH1 0x0 PUSH20 0xFFFFFFFFFFFFFFFFFFFFFFFFFFFFFFFFFFFFFFFF AND DUP2 PUSH20 0xFFFFFFFFFFFFFFFFFFFFFFFFFFFFFFFFFFFFFFFF AND SUB PUSH2 0x2EF8 JUMPI PUSH1 0x40 MLOAD PUSH32 0x8C379A000000000000000000000000000000000000000000000000000000000 DUP2 MSTORE PUSH1 0x4 ADD PUSH2 0x2EEF SWAP1 PUSH2 0x504D JUMP JUMPDEST PUSH1 0x40 MLOAD DUP1 SWAP2 SUB SWAP1 REVERT JUMPDEST PUSH2 0x2F01 DUP2 PUSH2 0x33A6 JUMP JUMPDEST POP JUMP JUMPDEST PUSH1 0x3 PUSH1 0x20 MSTORE DUP1 PUSH1 0x0 MSTORE PUSH1 0x40 PUSH1 0x0 KECCAK256 PUSH1 0x0 SWAP2 POP SWAP1 POP DUP1 PUSH1 0x0 ADD PUSH1 0x0 SWAP1 SLOAD SWAP1 PUSH2 0x100 EXP SWAP1 DIV PUSH1 0xFF AND SWAP1 DUP1 PUSH1 0x1 ADD SLOAD SWAP1 DUP1 PUSH1 0x2 ADD PUSH1 0x0 SWAP1 SLOAD SWAP1 PUSH2 0x100 EXP SWAP1 DIV PUSH20 0xFFFFFFFFFFFFFFFFFFFFFFFFFFFFFFFFFFFFFFFF AND SWAP1 DUP1 PUSH1 0x3 ADD PUSH1 0x0 SWAP1 SLOAD SWAP1 PUSH2 0x100 EXP SWAP1 DIV PUSH20 0xFFFFFFFFFFFFFFFFFFFFFFFFFFFFFFFFFFFFFFFF AND SWAP1 DUP1 PUSH1 0x4 ADD SLOAD SWAP1 DUP1 PUSH1 0x5 ADD PUSH1 0x0 SWAP1 SLOAD SWAP1 PUSH2 0x100 EXP SWAP1 DIV PUSH20 0xFFFFFFFFFFFFFFFFFFFFFFFFFFFFFFFFFFFFFFFF AND SWAP1 DUP1 PUSH1 0x6 ADD PUSH1 0x0 SWAP1 SLOAD SWAP1 PUSH2 0x100 EXP SWAP1 DIV PUSH20 0xFFFFFFFFFFFFFFFFFFFFFFFFFFFFFFFFFFFFFFFF AND SWAP1 DUP1 PUSH1 0x7 ADD SLOAD SWAP1 DUP1 PUSH1 0x8 ADD PUSH1 0x0 SWAP1 SLOAD SWAP1 PUSH2 0x100 EXP SWAP1 DIV PUSH20 0xFFFFFFFFFFFFFFFFFFFFFFFFFFFFFFFFFFFFFFFF AND SWAP1 POP DUP10 JUMP JUMPDEST PUSH32 0x0 DUP2 JUMP JUMPDEST PUSH32 0x0 DUP2 JUMP JUMPDEST PUSH1 0x0 CALLER SWAP1 POP SWAP1 JUMP JUMPDEST PUSH1 0x1 PUSH1 0x0 PUSH2 0x305B PUSH2 0x3047 JUMP JUMPDEST PUSH20 0xFFFFFFFFFFFFFFFFFFFFFFFFFFFFFFFFFFFFFFFF AND PUSH20 0xFFFFFFFFFFFFFFFFFFFFFFFFFFFFFFFFFFFFFFFF AND DUP2 MSTORE PUSH1 0x20 ADD SWAP1 DUP2 MSTORE PUSH1 0x20 ADD PUSH1 0x0 KECCAK256 PUSH1 0x0 ADD PUSH1 0x0 SWAP1 SLOAD SWAP1 PUSH2 0x100 EXP SWAP1 DIV PUSH1 0xFF AND PUSH1 0x4 DUP2 GT ISZERO PUSH2 0x30B8 JUMPI PUSH2 0x30B7 PUSH2 0x3C8D JUMP JUMPDEST JUMPDEST PUSH1 0x1 PUSH1 0x4 DUP2 GT ISZERO PUSH2 0x30CC JUMPI PUSH2 0x30CB PUSH2 0x3C8D JUMP JUMPDEST JUMPDEST EQ PUSH2 0x310C JUMPI PUSH1 0x40 MLOAD PUSH32 0x8C379A000000000000000000000000000000000000000000000000000000000 DUP2 MSTORE PUSH1 0x4 ADD PUSH2 0x3103 SWAP1 PUSH2 0x412C JUMP JUMPDEST PUSH1 0x40 MLOAD DUP1 SWAP2 SUB SWAP1 REVERT JUMPDEST PUSH1 0x1 PUSH1 0x5 DUP2 GT ISZERO PUSH2 0x3120 JUMPI PUSH2 0x311F PUSH2 0x3C8D JUMP JUMPDEST JUMPDEST PUSH1 0x3 PUSH1 0x0 DUP4 DUP2 MSTORE PUSH1 0x20 ADD SWAP1 DUP2 MSTORE PUSH1 0x20 ADD PUSH1 0x0 KECCAK256 PUSH1 0x0 ADD PUSH1 0x0 SWAP1 SLOAD SWAP1 PUSH2 0x100 EXP SWAP1 DIV PUSH1 0xFF AND PUSH1 0x5 DUP2 GT ISZERO PUSH2 0x3156 JUMPI PUSH2 0x3155 PUSH2 0x3C8D JUMP JUMPDEST JUMPDEST EQ PUSH2 0x3196 JUMPI PUSH1 0x40 MLOAD PUSH32 0x8C379A000000000000000000000000000000000000000000000000000000000 DUP2 MSTORE PUSH1 0x4 ADD PUSH2 0x318D SWAP1 PUSH2 0x50DF JUMP JUMPDEST PUSH1 0x40 MLOAD DUP1 SWAP2 SUB SWAP1 REVERT JUMPDEST PUSH1 0x2 PUSH1 0x3 PUSH1 0x0 DUP4 DUP2 MSTORE PUSH1 0x20 ADD SWAP1 DUP2 MSTORE PUSH1 0x20 ADD PUSH1 0x0 KECCAK256 PUSH1 0x0 ADD PUSH1 0x0 PUSH2 0x100 EXP DUP2 SLOAD DUP2 PUSH1 0xFF MUL NOT AND SWAP1 DUP4 PUSH1 0x5 DUP2 GT ISZERO PUSH2 0x31D0 JUMPI PUSH2 0x31CF PUSH2 0x3C8D JUMP JUMPDEST JUMPDEST MUL OR SWAP1 SSTORE POP PUSH2 0x31DD PUSH2 0x3047 JUMP JUMPDEST PUSH1 0x3 PUSH1 0x0 DUP4 DUP2 MSTORE PUSH1 0x20 ADD SWAP1 DUP2 MSTORE PUSH1 0x20 ADD PUSH1 0x0 KECCAK256 PUSH1 0x8 ADD PUSH1 0x0 PUSH2 0x100 EXP DUP2 SLOAD DUP2 PUSH20 0xFFFFFFFFFFFFFFFFFFFFFFFFFFFFFFFFFFFFFFFF MUL NOT AND SWAP1 DUP4 PUSH20 0xFFFFFFFFFFFFFFFFFFFFFFFFFFFFFFFFFFFFFFFF AND MUL OR SWAP1 SSTORE POP TIMESTAMP PUSH1 0x3 PUSH1 0x0 DUP4 DUP2 MSTORE PUSH1 0x20 ADD SWAP1 DUP2 MSTORE PUSH1 0x20 ADD PUSH1 0x0 KECCAK256 PUSH1 0x7 ADD DUP2 SWAP1 SSTORE POP PUSH1 0x0 PUSH2 0x3256 PUSH2 0x3047 JUMP JUMPDEST PUSH20 0xFFFFFFFFFFFFFFFFFFFFFFFFFFFFFFFFFFFFFFFF AND PUSH1 0x3 PUSH1 0x0 DUP5 DUP2 MSTORE PUSH1 0x20 ADD SWAP1 DUP2 MSTORE PUSH1 0x20 ADD PUSH1 0x0 KECCAK256 PUSH1 0x1 ADD SLOAD PUSH1 0x40 MLOAD PUSH2 0x328F SWAP1 PUSH2 0x493E JUMP JUMPDEST PUSH1 0x0 PUSH1 0x40 MLOAD DUP1 DUP4 SUB DUP2 DUP6 DUP8 GAS CALL SWAP3 POP POP POP RETURNDATASIZE DUP1 PUSH1 0x0 DUP2 EQ PUSH2 0x32CC JUMPI PUSH1 0x40 MLOAD SWAP2 POP PUSH1 0x1F NOT PUSH1 0x3F RETURNDATASIZE ADD AND DUP3 ADD PUSH1 0x40 MSTORE RETURNDATASIZE DUP3 MSTORE RETURNDATASIZE PUSH1 0x0 PUSH1 0x20 DUP5 ADD RETURNDATACOPY PUSH2 0x32D1 JUMP JUMPDEST PUSH1 0x60 SWAP2 POP JUMPDEST POP POP SWAP1 POP DUP1 PUSH2 0x3315 JUMPI PUSH1 0x40 MLOAD PUSH32 0x8C379A000000000000000000000000000000000000000000000000000000000 DUP2 MSTORE PUSH1 0x4 ADD PUSH2 0x330C SWAP1 PUSH2 0x499F JUMP JUMPDEST PUSH1 0x40 MLOAD DUP1 SWAP2 SUB SWAP1 REVERT JUMPDEST POP POP JUMP JUMPDEST PUSH1 0x0 PUSH2 0x3323 PUSH2 0x3047 JUMP JUMPDEST SWAP1 POP SWAP1 JUMP JUMPDEST PUSH2 0x3330 PUSH2 0x3047 JUMP JUMPDEST PUSH20 0xFFFFFFFFFFFFFFFFFFFFFFFFFFFFFFFFFFFFFFFF AND PUSH2 0x334E PUSH2 0x1D13 JUMP JUMPDEST PUSH20 0xFFFFFFFFFFFFFFFFFFFFFFFFFFFFFFFFFFFFFFFF AND EQ PUSH2 0x33A4 JUMPI PUSH1 0x40 MLOAD PUSH32 0x8C379A000000000000000000000000000000000000000000000000000000000 DUP2 MSTORE PUSH1 0x4 ADD PUSH2 0x339B SWAP1 PUSH2 0x514B JUMP JUMPDEST PUSH1 0x40 MLOAD DUP1 SWAP2 SUB SWAP1 REVERT JUMPDEST JUMP JUMPDEST PUSH1 0x0 DUP1 PUSH1 0x0 SWAP1 SLOAD SWAP1 PUSH2 0x100 EXP SWAP1 DIV PUSH20 0xFFFFFFFFFFFFFFFFFFFFFFFFFFFFFFFFFFFFFFFF AND SWAP1 POP DUP2 PUSH1 0x0 DUP1 PUSH2 0x100 EXP DUP2 SLOAD DUP2 PUSH20 0xFFFFFFFFFFFFFFFFFFFFFFFFFFFFFFFFFFFFFFFF MUL NOT AND SWAP1 DUP4 PUSH20 0xFFFFFFFFFFFFFFFFFFFFFFFFFFFFFFFFFFFFFFFF AND MUL OR SWAP1 SSTORE POP DUP2 PUSH20 0xFFFFFFFFFFFFFFFFFFFFFFFFFFFFFFFFFFFFFFFF AND DUP2 PUSH20 0xFFFFFFFFFFFFFFFFFFFFFFFFFFFFFFFFFFFFFFFF AND PUSH32 0x8BE0079C531659141344CD1FD0A4F28419497F9722A3DAAFE3B4186F6B6457E0 PUSH1 0x40 MLOAD PUSH1 0x40 MLOAD DUP1 SWAP2 SUB SWAP1 LOG3 POP POP JUMP JUMPDEST PUSH32 0x0 PUSH20 0xFFFFFFFFFFFFFFFFFFFFFFFFFFFFFFFFFFFFFFFF AND PUSH4 0x4FF746F6 DUP3 PUSH1 0x40 MLOAD DUP3 PUSH4 0xFFFFFFFF AND PUSH1 0xE0 SHL DUP2 MSTORE PUSH1 0x4 ADD PUSH2 0x34C3 SWAP2 SWAP1 PUSH2 0x516B JUMP JUMPDEST PUSH1 0x0 PUSH1 0x40 MLOAD DUP1 DUP4 SUB DUP2 PUSH1 0x0 DUP8 DUP1 EXTCODESIZE ISZERO DUP1 ISZERO PUSH2 0x34DD JUMPI PUSH1 0x0 DUP1 REVERT JUMPDEST POP GAS CALL ISZERO DUP1 ISZERO PUSH2 0x34F1 JUMPI RETURNDATASIZE PUSH1 0x0 DUP1 RETURNDATACOPY RETURNDATASIZE PUSH1 0x0 REVERT JUMPDEST POP POP POP POP POP JUMP JUMPDEST PUSH1 0x0 DUP2 PUSH1 0x0 ADD SLOAD SWAP1 POP SWAP2 SWAP1 POP JUMP JUMPDEST PUSH1 0x1 DUP2 PUSH1 0x0 ADD PUSH1 0x0 DUP3 DUP3 SLOAD ADD SWAP3 POP POP DUP2 SWAP1 SSTORE POP POP JUMP JUMPDEST PUSH32 0x0 CALLVALUE EQ PUSH2 0x357E JUMPI PUSH1 0x40 MLOAD PUSH32 0x8C379A000000000000000000000000000000000000000000000000000000000 DUP2 MSTORE PUSH1 0x4 ADD PUSH2 0x3575 SWAP1 PUSH2 0x51FF JUMP JUMPDEST PUSH1 0x40 MLOAD DUP1 SWAP2 SUB SWAP1 REVERT JUMPDEST PUSH1 0x1 PUSH1 0x4 DUP2 GT ISZERO PUSH2 0x3592 JUMPI PUSH2 0x3591 PUSH2 0x3C8D JUMP JUMPDEST JUMPDEST PUSH1 0x2 PUSH1 0x0 DUP4 DUP2 MSTORE PUSH1 0x20 ADD SWAP1 DUP2 MSTORE PUSH1 0x20 ADD PUSH1 0x0 KECCAK256 PUSH1 0x1 ADD PUSH1 0x0 SWAP1 SLOAD SWAP1 PUSH2 0x100 EXP SWAP1 DIV PUSH1 0xFF AND PUSH1 0x4 DUP2 GT ISZERO PUSH2 0x35C8 JUMPI PUSH2 0x35C7 PUSH2 0x3C8D JUMP JUMPDEST JUMPDEST EQ PUSH2 0x3608 JUMPI PUSH1 0x40 MLOAD PUSH32 0x8C379A000000000000000000000000000000000000000000000000000000000 DUP2 MSTORE PUSH1 0x4 ADD PUSH2 0x35FF SWAP1 PUSH2 0x5291 JUMP JUMPDEST PUSH1 0x40 MLOAD DUP1 SWAP2 SUB SWAP1 REVERT JUMPDEST TIMESTAMP PUSH2 0x3840 PUSH1 0x2 PUSH1 0x0 DUP5 DUP2 MSTORE PUSH1 0x20 ADD SWAP1 DUP2 MSTORE PUSH1 0x20 ADD PUSH1 0x0 KECCAK256 PUSH1 0x4 ADD SLOAD PUSH2 0x362D SWAP2 SWAP1 PUSH2 0x44AF JUMP JUMPDEST GT PUSH2 0x366D JUMPI PUSH1 0x40 MLOAD PUSH32 0x8C379A000000000000000000000000000000000000000000000000000000000 DUP2 MSTORE PUSH1 0x4 ADD PUSH2 0x3664 SWAP1 PUSH2 0x5323 JUMP JUMPDEST PUSH1 0x40 MLOAD DUP1 SWAP2 SUB SWAP1 REVERT JUMPDEST PUSH1 0x0 PUSH1 0x2 DUP2 GT ISZERO PUSH2 0x3681 JUMPI PUSH2 0x3680 PUSH2 0x3C8D JUMP JUMPDEST JUMPDEST PUSH1 0x4 PUSH1 0x0 DUP4 DUP2 MSTORE PUSH1 0x20 ADD SWAP1 DUP2 MSTORE PUSH1 0x20 ADD PUSH1 0x0 KECCAK256 PUSH1 0x0 ADD PUSH1 0x14 SWAP1 SLOAD SWAP1 PUSH2 0x100 EXP SWAP1 DIV PUSH1 0xFF AND PUSH1 0x2 DUP2 GT ISZERO PUSH2 0x36B7 JUMPI PUSH2 0x36B6 PUSH2 0x3C8D JUMP JUMPDEST JUMPDEST EQ PUSH2 0x36F7 JUMPI PUSH1 0x40 MLOAD PUSH32 0x8C379A000000000000000000000000000000000000000000000000000000000 DUP2 MSTORE PUSH1 0x4 ADD PUSH2 0x36EE SWAP1 PUSH2 0x53B5 JUMP JUMPDEST PUSH1 0x40 MLOAD DUP1 SWAP2 SUB SWAP1 REVERT JUMPDEST PUSH1 0x2 DUP1 PUSH1 0x0 DUP4 DUP2 MSTORE PUSH1 0x20 ADD SWAP1 DUP2 MSTORE PUSH1 0x20 ADD PUSH1 0x0 KECCAK256 PUSH1 0x1 ADD PUSH1 0x0 PUSH2 0x100 EXP DUP2 SLOAD DUP2 PUSH1 0xFF MUL NOT AND SWAP1 DUP4 PUSH1 0x4 DUP2 GT ISZERO PUSH2 0x3730 JUMPI PUSH2 0x372F PUSH2 0x3C8D JUMP JUMPDEST JUMPDEST MUL OR SWAP1 SSTORE POP PUSH2 0x373D PUSH2 0x3047 JUMP JUMPDEST PUSH1 0x4 PUSH1 0x0 DUP4 DUP2 MSTORE PUSH1 0x20 ADD SWAP1 DUP2 MSTORE PUSH1 0x20 ADD PUSH1 0x0 KECCAK256 PUSH1 0x0 ADD PUSH1 0x0 PUSH2 0x100 EXP DUP2 SLOAD DUP2 PUSH20 0xFFFFFFFFFFFFFFFFFFFFFFFFFFFFFFFFFFFFFFFF MUL NOT AND SWAP1 DUP4 PUSH20 0xFFFFFFFFFFFFFFFFFFFFFFFFFFFFFFFFFFFFFFFF AND MUL OR SWAP1 SSTORE POP PUSH1 0x1 PUSH1 0x4 PUSH1 0x0 DUP4 DUP2 MSTORE PUSH1 0x20 ADD SWAP1 DUP2 MSTORE PUSH1 0x20 ADD PUSH1 0x0 KECCAK256 PUSH1 0x0 ADD PUSH1 0x14 PUSH2 0x100 EXP DUP2 SLOAD DUP2 PUSH1 0xFF MUL NOT AND SWAP1 DUP4 PUSH1 0x2 DUP2 GT ISZERO PUSH2 0x37CB JUMPI PUSH2 0x37CA PUSH2 0x3C8D JUMP JUMPDEST JUMPDEST MUL OR SWAP1 SSTORE POP PUSH1 0x3 PUSH1 0x1 PUSH1 0x0 PUSH1 0x2 PUSH1 0x0 DUP6 DUP2 MSTORE PUSH1 0x20 ADD SWAP1 DUP2 MSTORE PUSH1 0x20 ADD PUSH1 0x0 KECCAK256 PUSH1 0x5 ADD PUSH1 0x0 SWAP1 SLOAD SWAP1 PUSH2 0x100 EXP SWAP1 DIV PUSH20 0xFFFFFFFFFFFFFFFFFFFFFFFFFFFFFFFFFFFFFFFF AND PUSH20 0xFFFFFFFFFFFFFFFFFFFFFFFFFFFFFFFFFFFFFFFF AND PUSH20 0xFFFFFFFFFFFFFFFFFFFFFFFFFFFFFFFFFFFFFFFF AND DUP2 MSTORE PUSH1 0x20 ADD SWAP1 DUP2 MSTORE PUSH1 0x20 ADD PUSH1 0x0 KECCAK256 PUSH1 0x0 ADD PUSH1 0x0 PUSH2 0x100 EXP DUP2 SLOAD DUP2 PUSH1 0xFF MUL NOT AND SWAP1 DUP4 PUSH1 0x4 DUP2 GT ISZERO PUSH2 0x386C JUMPI PUSH2 0x386B PUSH2 0x3C8D JUMP JUMPDEST JUMPDEST MUL OR SWAP1 SSTORE POP POP JUMP JUMPDEST PUSH1 0x0 PUSH1 0x40 MLOAD SWAP1 POP SWAP1 JUMP JUMPDEST PUSH1 0x0 DUP1 REVERT JUMPDEST PUSH1 0x0 DUP1 REVERT JUMPDEST PUSH1 0x0 DUP2 SWAP1 POP SWAP2 SWAP1 POP JUMP JUMPDEST PUSH2 0x389B DUP2 PUSH2 0x3888 JUMP JUMPDEST DUP2 EQ PUSH2 0x38A6 JUMPI PUSH1 0x0 DUP1 REVERT JUMPDEST POP JUMP JUMPDEST PUSH1 0x0 DUP2 CALLDATALOAD SWAP1 POP PUSH2 0x38B8 DUP2 PUSH2 0x3892 JUMP JUMPDEST SWAP3 SWAP2 POP POP JUMP JUMPDEST PUSH1 0x0 PUSH1 0x20 DUP3 DUP5 SUB SLT ISZERO PUSH2 0x38D4 JUMPI PUSH2 0x38D3 PUSH2 0x387E JUMP JUMPDEST JUMPDEST PUSH1 0x0 PUSH2 0x38E2 DUP5 DUP3 DUP6 ADD PUSH2 0x38A9 JUMP JUMPDEST SWAP2 POP POP SWAP3 SWAP2 POP POP JUMP JUMPDEST PUSH1 0x0 PUSH20 0xFFFFFFFFFFFFFFFFFFFFFFFFFFFFFFFFFFFFFFFF DUP3 AND SWAP1 POP SWAP2 SWAP1 POP JUMP JUMPDEST PUSH1 0x0 PUSH2 0x3916 DUP3 PUSH2 0x38EB JUMP JUMPDEST SWAP1 POP SWAP2 SWAP1 POP JUMP JUMPDEST PUSH2 0x3926 DUP2 PUSH2 0x390B JUMP JUMPDEST DUP2 EQ PUSH2 0x3931 JUMPI PUSH1 0x0 DUP1 REVERT JUMPDEST POP JUMP JUMPDEST PUSH1 0x0 DUP2 CALLDATALOAD SWAP1 POP PUSH2 0x3943 DUP2 PUSH2 0x391D JUMP JUMPDEST SWAP3 SWAP2 POP POP JUMP JUMPDEST PUSH1 0x0 DUP1 REVERT JUMPDEST PUSH1 0x0 DUP1 REVERT JUMPDEST PUSH1 0x0 PUSH1 0x1F NOT PUSH1 0x1F DUP4 ADD AND SWAP1 POP SWAP2 SWAP1 POP JUMP JUMPDEST PUSH32 0x4E487B7100000000000000000000000000000000000000000000000000000000 PUSH1 0x0 MSTORE PUSH1 0x41 PUSH1 0x4 MSTORE PUSH1 0x24 PUSH1 0x0 REVERT JUMPDEST PUSH2 0x399C DUP3 PUSH2 0x3953 JUMP JUMPDEST DUP2 ADD DUP2 DUP2 LT PUSH8 0xFFFFFFFFFFFFFFFF DUP3 GT OR ISZERO PUSH2 0x39BB JUMPI PUSH2 0x39BA PUSH2 0x3964 JUMP JUMPDEST JUMPDEST DUP1 PUSH1 0x40 MSTORE POP POP POP JUMP JUMPDEST PUSH1 0x0 PUSH2 0x39CE PUSH2 0x3874 JUMP JUMPDEST SWAP1 POP PUSH2 0x39DA DUP3 DUP3 PUSH2 0x3993 JUMP JUMPDEST SWAP2 SWAP1 POP JUMP JUMPDEST PUSH1 0x0 PUSH8 0xFFFFFFFFFFFFFFFF DUP3 GT ISZERO PUSH2 0x39FA JUMPI PUSH2 0x39F9 PUSH2 0x3964 JUMP JUMPDEST JUMPDEST PUSH2 0x3A03 DUP3 PUSH2 0x3953 JUMP JUMPDEST SWAP1 POP PUSH1 0x20 DUP2 ADD SWAP1 POP SWAP2 SWAP1 POP JUMP JUMPDEST DUP3 DUP2 DUP4 CALLDATACOPY PUSH1 0x0 DUP4 DUP4 ADD MSTORE POP POP POP JUMP JUMPDEST PUSH1 0x0 PUSH2 0x3A32 PUSH2 0x3A2D DUP5 PUSH2 0x39DF JUMP JUMPDEST PUSH2 0x39C4 JUMP JUMPDEST SWAP1 POP DUP3 DUP2 MSTORE PUSH1 0x20 DUP2 ADD DUP5 DUP5 DUP5 ADD GT ISZERO PUSH2 0x3A4E JUMPI PUSH2 0x3A4D PUSH2 0x394E JUMP JUMPDEST JUMPDEST PUSH2 0x3A59 DUP5 DUP3 DUP6 PUSH2 0x3A10 JUMP JUMPDEST POP SWAP4 SWAP3 POP POP POP JUMP JUMPDEST PUSH1 0x0 DUP3 PUSH1 0x1F DUP4 ADD SLT PUSH2 0x3A76 JUMPI PUSH2 0x3A75 PUSH2 0x3949 JUMP JUMPDEST JUMPDEST DUP2 CALLDATALOAD PUSH2 0x3A86 DUP5 DUP3 PUSH1 0x20 DUP7 ADD PUSH2 0x3A1F JUMP JUMPDEST SWAP2 POP POP SWAP3 SWAP2 POP POP JUMP JUMPDEST PUSH1 0x0 DUP1 PUSH1 0x0 DUP1 PUSH1 0x80 DUP6 DUP8 SUB SLT ISZERO PUSH2 0x3AA9 JUMPI PUSH2 0x3AA8 PUSH2 0x387E JUMP JUMPDEST JUMPDEST PUSH1 0x0 PUSH2 0x3AB7 DUP8 DUP3 DUP9 ADD PUSH2 0x3934 JUMP JUMPDEST SWAP5 POP POP PUSH1 0x20 PUSH2 0x3AC8 DUP8 DUP3 DUP9 ADD PUSH2 0x3934 JUMP JUMPDEST SWAP4 POP POP PUSH1 0x40 PUSH2 0x3AD9 DUP8 DUP3 DUP9 ADD PUSH2 0x38A9 JUMP JUMPDEST SWAP3 POP POP PUSH1 0x60 DUP6 ADD CALLDATALOAD PUSH8 0xFFFFFFFFFFFFFFFF DUP2 GT ISZERO PUSH2 0x3AFA JUMPI PUSH2 0x3AF9 PUSH2 0x3883 JUMP JUMPDEST JUMPDEST PUSH2 0x3B06 DUP8 DUP3 DUP9 ADD PUSH2 0x3A61 JUMP JUMPDEST SWAP2 POP POP SWAP3 SWAP6 SWAP2 SWAP5 POP SWAP3 POP JUMP JUMPDEST PUSH1 0x0 PUSH32 0xFFFFFFFF00000000000000000000000000000000000000000000000000000000 DUP3 AND SWAP1 POP SWAP2 SWAP1 POP JUMP JUMPDEST PUSH2 0x3B47 DUP2 PUSH2 0x3B12 JUMP JUMPDEST DUP3 MSTORE POP POP JUMP JUMPDEST PUSH1 0x0 PUSH1 0x20 DUP3 ADD SWAP1 POP PUSH2 0x3B62 PUSH1 0x0 DUP4 ADD DUP5 PUSH2 0x3B3E JUMP JUMPDEST SWAP3 SWAP2 POP POP JUMP JUMPDEST PUSH1 0x0 PUSH1 0x20 DUP3 DUP5 SUB SLT ISZERO PUSH2 0x3B7E JUMPI PUSH2 0x3B7D PUSH2 0x387E JUMP JUMPDEST JUMPDEST PUSH1 0x0 DUP3 ADD CALLDATALOAD PUSH8 0xFFFFFFFFFFFFFFFF DUP2 GT ISZERO PUSH2 0x3B9C JUMPI PUSH2 0x3B9B PUSH2 0x3883 JUMP JUMPDEST JUMPDEST PUSH2 0x3BA8 DUP5 DUP3 DUP6 ADD PUSH2 0x3A61 JUMP JUMPDEST SWAP2 POP POP SWAP3 SWAP2 POP POP JUMP JUMPDEST PUSH1 0x0 DUP2 ISZERO ISZERO SWAP1 POP SWAP2 SWAP1 POP JUMP JUMPDEST PUSH2 0x3BC6 DUP2 PUSH2 0x3BB1 JUMP JUMPDEST DUP2 EQ PUSH2 0x3BD1 JUMPI PUSH1 0x0 DUP1 REVERT JUMPDEST POP JUMP JUMPDEST PUSH1 0x0 DUP2 CALLDATALOAD SWAP1 POP PUSH2 0x3BE3 DUP2 PUSH2 0x3BBD JUMP JUMPDEST SWAP3 SWAP2 POP POP JUMP JUMPDEST PUSH1 0x0 DUP1 PUSH1 0x40 DUP4 DUP6 SUB SLT ISZERO PUSH2 0x3C00 JUMPI PUSH2 0x3BFF PUSH2 0x387E JUMP JUMPDEST JUMPDEST PUSH1 0x0 PUSH2 0x3C0E DUP6 DUP3 DUP7 ADD PUSH2 0x38A9 JUMP JUMPDEST SWAP3 POP POP PUSH1 0x20 PUSH2 0x3C1F DUP6 DUP3 DUP7 ADD PUSH2 0x3BD4 JUMP JUMPDEST SWAP2 POP POP SWAP3 POP SWAP3 SWAP1 POP JUMP JUMPDEST PUSH2 0x3C32 DUP2 PUSH2 0x390B JUMP JUMPDEST DUP3 MSTORE POP POP JUMP JUMPDEST PUSH2 0x3C41 DUP2 PUSH2 0x3888 JUMP JUMPDEST DUP3 MSTORE POP POP JUMP JUMPDEST PUSH2 0x3C50 DUP2 PUSH2 0x3BB1 JUMP JUMPDEST DUP3 MSTORE POP POP JUMP JUMPDEST PUSH1 0x0 PUSH1 0x60 DUP3 ADD SWAP1 POP PUSH2 0x3C6B PUSH1 0x0 DUP4 ADD DUP7 PUSH2 0x3C29 JUMP JUMPDEST PUSH2 0x3C78 PUSH1 0x20 DUP4 ADD DUP6 PUSH2 0x3C38 JUMP JUMPDEST PUSH2 0x3C85 PUSH1 0x40 DUP4 ADD DUP5 PUSH2 0x3C47 JUMP JUMPDEST SWAP5 SWAP4 POP POP POP POP JUMP JUMPDEST PUSH32 0x4E487B7100000000000000000000000000000000000000000000000000000000 PUSH1 0x0 MSTORE PUSH1 0x21 PUSH1 0x4 MSTORE PUSH1 0x24 PUSH1 0x0 REVERT JUMPDEST PUSH1 0x3 DUP2 LT PUSH2 0x3CCD JUMPI PUSH2 0x3CCC PUSH2 0x3C8D JUMP JUMPDEST JUMPDEST POP JUMP JUMPDEST PUSH1 0x0 DUP2 SWAP1 POP PUSH2 0x3CDE DUP3 PUSH2 0x3CBC JUMP JUMPDEST SWAP2 SWAP1 POP JUMP JUMPDEST PUSH1 0x0 PUSH2 0x3CEE DUP3 PUSH2 0x3CD0 JUMP JUMPDEST SWAP1 POP SWAP2 SWAP1 POP JUMP JUMPDEST PUSH2 0x3CFE DUP2 PUSH2 0x3CE3 JUMP JUMPDEST DUP3 MSTORE POP POP JUMP JUMPDEST PUSH1 0x0 PUSH1 0x40 DUP3 ADD SWAP1 POP PUSH2 0x3D19 PUSH1 0x0 DUP4 ADD DUP6 PUSH2 0x3C29 JUMP JUMPDEST PUSH2 0x3D26 PUSH1 0x20 DUP4 ADD DUP5 PUSH2 0x3CF5 JUMP JUMPDEST SWAP4 SWAP3 POP POP POP JUMP JUMPDEST PUSH1 0x0 PUSH1 0x20 DUP3 ADD SWAP1 POP PUSH2 0x3D42 PUSH1 0x0 DUP4 ADD DUP5 PUSH2 0x3C38 JUMP JUMPDEST SWAP3 SWAP2 POP POP JUMP JUMPDEST PUSH1 0x0 PUSH1 0x20 DUP3 DUP5 SUB SLT ISZERO PUSH2 0x3D5E JUMPI PUSH2 0x3D5D PUSH2 0x387E JUMP JUMPDEST JUMPDEST PUSH1 0x0 PUSH2 0x3D6C DUP5 DUP3 DUP6 ADD PUSH2 0x3934 JUMP JUMPDEST SWAP2 POP POP SWAP3 SWAP2 POP POP JUMP JUMPDEST PUSH1 0x5 DUP2 LT PUSH2 0x3D86 JUMPI PUSH2 0x3D85 PUSH2 0x3C8D JUMP JUMPDEST JUMPDEST POP JUMP JUMPDEST PUSH1 0x0 DUP2 SWAP1 POP PUSH2 0x3D97 DUP3 PUSH2 0x3D75 JUMP JUMPDEST SWAP2 SWAP1 POP JUMP JUMPDEST PUSH1 0x0 PUSH2 0x3DA7 DUP3 PUSH2 0x3D89 JUMP JUMPDEST SWAP1 POP SWAP2 SWAP1 POP JUMP JUMPDEST PUSH2 0x3DB7 DUP2 PUSH2 0x3D9C JUMP JUMPDEST DUP3 MSTORE POP POP JUMP JUMPDEST PUSH1 0x0 PUSH1 0x60 DUP3 ADD SWAP1 POP PUSH2 0x3DD2 PUSH1 0x0 DUP4 ADD DUP7 PUSH2 0x3DAE JUMP JUMPDEST PUSH2 0x3DDF PUSH1 0x20 DUP4 ADD DUP6 PUSH2 0x3C38 JUMP JUMPDEST PUSH2 0x3DEC PUSH1 0x40 DUP4 ADD DUP5 PUSH2 0x3C38 JUMP JUMPDEST SWAP5 SWAP4 POP POP POP POP JUMP JUMPDEST PUSH1 0x0 PUSH1 0x20 DUP3 ADD SWAP1 POP PUSH2 0x3E09 PUSH1 0x0 DUP4 ADD DUP5 PUSH2 0x3C29 JUMP JUMPDEST SWAP3 SWAP2 POP POP JUMP JUMPDEST PUSH1 0x5 DUP2 LT PUSH2 0x3E20 JUMPI PUSH2 0x3E1F PUSH2 0x3C8D JUMP JUMPDEST JUMPDEST POP JUMP JUMPDEST PUSH1 0x0 DUP2 SWAP1 POP PUSH2 0x3E31 DUP3 PUSH2 0x3E0F JUMP JUMPDEST SWAP2 SWAP1 POP JUMP JUMPDEST PUSH1 0x0 PUSH2 0x3E41 DUP3 PUSH2 0x3E23 JUMP JUMPDEST SWAP1 POP SWAP2 SWAP1 POP JUMP JUMPDEST PUSH2 0x3E51 DUP2 PUSH2 0x3E36 JUMP JUMPDEST DUP3 MSTORE POP POP JUMP JUMPDEST PUSH1 0x0 PUSH1 0xE0 DUP3 ADD SWAP1 POP PUSH2 0x3E6C PUSH1 0x0 DUP4 ADD DUP11 PUSH2 0x3C38 JUMP JUMPDEST PUSH2 0x3E79 PUSH1 0x20 DUP4 ADD DUP10 PUSH2 0x3E48 JUMP JUMPDEST PUSH2 0x3E86 PUSH1 0x40 DUP4 ADD DUP9 PUSH2 0x3C29 JUMP JUMPDEST PUSH2 0x3E93 PUSH1 0x60 DUP4 ADD DUP8 PUSH2 0x3C38 JUMP JUMPDEST PUSH2 0x3EA0 PUSH1 0x80 DUP4 ADD DUP7 PUSH2 0x3C29 JUMP JUMPDEST PUSH2 0x3EAD PUSH1 0xA0 DUP4 ADD DUP6 PUSH2 0x3C38 JUMP JUMPDEST PUSH2 0x3EBA PUSH1 0xC0 DUP4 ADD DUP5 PUSH2 0x3C29 JUMP JUMPDEST SWAP9 SWAP8 POP POP POP POP POP POP POP POP JUMP JUMPDEST PUSH1 0x0 DUP1 PUSH1 0x40 DUP4 DUP6 SUB SLT ISZERO PUSH2 0x3EDD JUMPI PUSH2 0x3EDC PUSH2 0x387E JUMP JUMPDEST JUMPDEST PUSH1 0x0 PUSH2 0x3EEB DUP6 DUP3 DUP7 ADD PUSH2 0x3BD4 JUMP JUMPDEST SWAP3 POP POP PUSH1 0x20 PUSH2 0x3EFC DUP6 DUP3 DUP7 ADD PUSH2 0x38A9 JUMP JUMPDEST SWAP2 POP POP SWAP3 POP SWAP3 SWAP1 POP JUMP JUMPDEST PUSH1 0x0 DUP1 PUSH1 0x0 DUP1 PUSH1 0x80 DUP6 DUP8 SUB SLT ISZERO PUSH2 0x3F20 JUMPI PUSH2 0x3F1F PUSH2 0x387E JUMP JUMPDEST JUMPDEST PUSH1 0x0 PUSH2 0x3F2E DUP8 DUP3 DUP9 ADD PUSH2 0x3934 JUMP JUMPDEST SWAP5 POP POP PUSH1 0x20 PUSH2 0x3F3F DUP8 DUP3 DUP9 ADD PUSH2 0x38A9 JUMP JUMPDEST SWAP4 POP POP PUSH1 0x40 PUSH2 0x3F50 DUP8 DUP3 DUP9 ADD PUSH2 0x3934 JUMP JUMPDEST SWAP3 POP POP PUSH1 0x60 PUSH2 0x3F61 DUP8 DUP3 DUP9 ADD PUSH2 0x38A9 JUMP JUMPDEST SWAP2 POP POP SWAP3 SWAP6 SWAP2 SWAP5 POP SWAP3 POP JUMP JUMPDEST PUSH1 0x0 DUP1 PUSH1 0x0 DUP1 PUSH1 0x80 DUP6 DUP8 SUB SLT ISZERO PUSH2 0x3F87 JUMPI PUSH2 0x3F86 PUSH2 0x387E JUMP JUMPDEST JUMPDEST PUSH1 0x0 PUSH2 0x3F95 DUP8 DUP3 DUP9 ADD PUSH2 0x38A9 JUMP JUMPDEST SWAP5 POP POP PUSH1 0x20 PUSH2 0x3FA6 DUP8 DUP3 DUP9 ADD PUSH2 0x3934 JUMP JUMPDEST SWAP4 POP POP PUSH1 0x40 PUSH2 0x3FB7 DUP8 DUP3 DUP9 ADD PUSH2 0x38A9 JUMP JUMPDEST SWAP3 POP POP PUSH1 0x60 PUSH2 0x3FC8 DUP8 DUP3 DUP9 ADD PUSH2 0x3934 JUMP JUMPDEST SWAP2 POP POP SWAP3 SWAP6 SWAP2 SWAP5 POP SWAP3 POP JUMP JUMPDEST PUSH1 0x6 DUP2 LT PUSH2 0x3FE5 JUMPI PUSH2 0x3FE4 PUSH2 0x3C8D JUMP JUMPDEST JUMPDEST POP JUMP JUMPDEST PUSH1 0x0 DUP2 SWAP1 POP PUSH2 0x3FF6 DUP3 PUSH2 0x3FD4 JUMP JUMPDEST SWAP2 SWAP1 POP JUMP JUMPDEST PUSH1 0x0 PUSH2 0x4006 DUP3 PUSH2 0x3FE8 JUMP JUMPDEST SWAP1 POP SWAP2 SWAP1 POP JUMP JUMPDEST PUSH2 0x4016 DUP2 PUSH2 0x3FFB JUMP JUMPDEST DUP3 MSTORE POP POP JUMP JUMPDEST PUSH1 0x0 PUSH2 0x120 DUP3 ADD SWAP1 POP PUSH2 0x4032 PUSH1 0x0 DUP4 ADD DUP13 PUSH2 0x400D JUMP JUMPDEST PUSH2 0x403F PUSH1 0x20 DUP4 ADD DUP12 PUSH2 0x3C38 JUMP JUMPDEST PUSH2 0x404C PUSH1 0x40 DUP4 ADD DUP11 PUSH2 0x3C29 JUMP JUMPDEST PUSH2 0x4059 PUSH1 0x60 DUP4 ADD DUP10 PUSH2 0x3C29 JUMP JUMPDEST PUSH2 0x4066 PUSH1 0x80 DUP4 ADD DUP9 PUSH2 0x3C38 JUMP JUMPDEST PUSH2 0x4073 PUSH1 0xA0 DUP4 ADD DUP8 PUSH2 0x3C29 JUMP JUMPDEST PUSH2 0x4080 PUSH1 0xC0 DUP4 ADD DUP7 PUSH2 0x3C29 JUMP JUMPDEST PUSH2 0x408D PUSH1 0xE0 DUP4 ADD DUP6 PUSH2 0x3C38 JUMP JUMPDEST PUSH2 0x409B PUSH2 0x100 DUP4 ADD DUP5 PUSH2 0x3C29 JUMP JUMPDEST SWAP11 SWAP10 POP POP POP POP POP POP POP POP POP POP JUMP JUMPDEST PUSH1 0x0 DUP3 DUP3 MSTORE PUSH1 0x20 DUP3 ADD SWAP1 POP SWAP3 SWAP2 POP POP JUMP JUMPDEST PUSH32 0x53706F6B654272696467653A2063616C6C6572206973206E6F7420612072656C PUSH1 0x0 DUP3 ADD MSTORE PUSH32 0x6179657221000000000000000000000000000000000000000000000000000000 PUSH1 0x20 DUP3 ADD MSTORE POP JUMP JUMPDEST PUSH1 0x0 PUSH2 0x4116 PUSH1 0x25 DUP4 PUSH2 0x40A9 JUMP JUMPDEST SWAP2 POP PUSH2 0x4121 DUP3 PUSH2 0x40BA JUMP JUMPDEST PUSH1 0x40 DUP3 ADD SWAP1 POP SWAP2 SWAP1 POP JUMP JUMPDEST PUSH1 0x0 PUSH1 0x20 DUP3 ADD SWAP1 POP DUP2 DUP2 SUB PUSH1 0x0 DUP4 ADD MSTORE PUSH2 0x4145 DUP2 PUSH2 0x4109 JUMP JUMPDEST SWAP1 POP SWAP2 SWAP1 POP JUMP JUMPDEST PUSH32 0x53706F6B654272696467653A2063616C6C6572206973206E6F74207468652068 PUSH1 0x0 DUP3 ADD MSTORE PUSH32 0x7562210000000000000000000000000000000000000000000000000000000000 PUSH1 0x20 DUP3 ADD MSTORE POP JUMP JUMPDEST PUSH1 0x0 PUSH2 0x41A8 PUSH1 0x23 DUP4 PUSH2 0x40A9 JUMP JUMPDEST SWAP2 POP PUSH2 0x41B3 DUP3 PUSH2 0x414C JUMP JUMPDEST PUSH1 0x40 DUP3 ADD SWAP1 POP SWAP2 SWAP1 POP JUMP JUMPDEST PUSH1 0x0 PUSH1 0x20 DUP3 ADD SWAP1 POP DUP2 DUP2 SUB PUSH1 0x0 DUP4 ADD MSTORE PUSH2 0x41D7 DUP2 PUSH2 0x419B JUMP JUMPDEST SWAP1 POP SWAP2 SWAP1 POP JUMP JUMPDEST PUSH1 0x0 JUMPDEST DUP4 DUP2 LT ISZERO PUSH2 0x41FC JUMPI DUP1 DUP3 ADD MLOAD DUP2 DUP5 ADD MSTORE PUSH1 0x20 DUP2 ADD SWAP1 POP PUSH2 0x41E1 JUMP JUMPDEST PUSH1 0x0 DUP5 DUP5 ADD MSTORE POP POP POP POP JUMP JUMPDEST PUSH1 0x0 PUSH2 0x421B PUSH2 0x4216 DUP5 PUSH2 0x39DF JUMP JUMPDEST PUSH2 0x39C4 JUMP JUMPDEST SWAP1 POP DUP3 DUP2 MSTORE PUSH1 0x20 DUP2 ADD DUP5 DUP5 DUP5 ADD GT ISZERO PUSH2 0x4237 JUMPI PUSH2 0x4236 PUSH2 0x394E JUMP JUMPDEST JUMPDEST PUSH2 0x4242 DUP5 DUP3 DUP6 PUSH2 0x41DE JUMP JUMPDEST POP SWAP4 SWAP3 POP POP POP JUMP JUMPDEST PUSH1 0x0 DUP3 PUSH1 0x1F DUP4 ADD SLT PUSH2 0x425F JUMPI PUSH2 0x425E PUSH2 0x3949 JUMP JUMPDEST JUMPDEST DUP2 MLOAD PUSH2 0x426F DUP5 DUP3 PUSH1 0x20 DUP7 ADD PUSH2 0x4208 JUMP JUMPDEST SWAP2 POP POP SWAP3 SWAP2 POP POP JUMP JUMPDEST PUSH1 0x0 DUP2 MLOAD SWAP1 POP PUSH2 0x4287 DUP2 PUSH2 0x3BBD JUMP JUMPDEST SWAP3 SWAP2 POP POP JUMP JUMPDEST PUSH1 0x0 DUP1 PUSH1 0x40 DUP4 DUP6 SUB SLT ISZERO PUSH2 0x42A4 JUMPI PUSH2 0x42A3 PUSH2 0x387E JUMP JUMPDEST JUMPDEST PUSH1 0x0 DUP4 ADD MLOAD PUSH8 0xFFFFFFFFFFFFFFFF DUP2 GT ISZERO PUSH2 0x42C2 JUMPI PUSH2 0x42C1 PUSH2 0x3883 JUMP JUMPDEST JUMPDEST PUSH2 0x42CE DUP6 DUP3 DUP7 ADD PUSH2 0x424A JUMP JUMPDEST SWAP3 POP POP PUSH1 0x20 PUSH2 0x42DF DUP6 DUP3 DUP7 ADD PUSH2 0x4278 JUMP JUMPDEST SWAP2 POP POP SWAP3 POP SWAP3 SWAP1 POP JUMP JUMPDEST PUSH1 0x0 DUP2 MLOAD SWAP1 POP PUSH2 0x42F8 DUP2 PUSH2 0x3892 JUMP JUMPDEST SWAP3 SWAP2 POP POP JUMP JUMPDEST PUSH1 0x6 DUP2 LT PUSH2 0x430B JUMPI PUSH1 0x0 DUP1 REVERT JUMPDEST POP JUMP JUMPDEST PUSH1 0x0 DUP2 MLOAD SWAP1 POP PUSH2 0x431D DUP2 PUSH2 0x42FE JUMP JUMPDEST SWAP3 SWAP2 POP POP JUMP JUMPDEST PUSH1 0x0 PUSH2 0x432E DUP3 PUSH2 0x38EB JUMP JUMPDEST SWAP1 POP SWAP2 SWAP1 POP JUMP JUMPDEST PUSH2 0x433E DUP2 PUSH2 0x4323 JUMP JUMPDEST DUP2 EQ PUSH2 0x4349 JUMPI PUSH1 0x0 DUP1 REVERT JUMPDEST POP JUMP JUMPDEST PUSH1 0x0 DUP2 MLOAD SWAP1 POP PUSH2 0x435B DUP2 PUSH2 0x4335 JUMP JUMPDEST SWAP3 SWAP2 POP POP JUMP JUMPDEST PUSH1 0x0 DUP1 PUSH1 0x0 DUP1 PUSH1 0x0 DUP1 PUSH1 0xC0 DUP8 DUP10 SUB SLT ISZERO PUSH2 0x437E JUMPI PUSH2 0x437D PUSH2 0x387E JUMP JUMPDEST JUMPDEST PUSH1 0x0 PUSH2 0x438C DUP10 DUP3 DUP11 ADD PUSH2 0x42E9 JUMP JUMPDEST SWAP7 POP POP PUSH1 0x20 PUSH2 0x439D DUP10 DUP3 DUP11 ADD PUSH2 0x430E JUMP JUMPDEST SWAP6 POP POP PUSH1 0x40 PUSH2 0x43AE DUP10 DUP3 DUP11 ADD PUSH2 0x434C JUMP JUMPDEST SWAP5 POP POP PUSH1 0x60 PUSH2 0x43BF DUP10 DUP3 DUP11 ADD PUSH2 0x42E9 JUMP JUMPDEST SWAP4 POP POP PUSH1 0x80 PUSH2 0x43D0 DUP10 DUP3 DUP11 ADD PUSH2 0x434C JUMP JUMPDEST SWAP3 POP POP PUSH1 0xA0 PUSH2 0x43E1 DUP10 DUP3 DUP11 ADD PUSH2 0x434C JUMP JUMPDEST SWAP2 POP POP SWAP3 SWAP6 POP SWAP3 SWAP6 POP SWAP3 SWAP6 JUMP JUMPDEST PUSH32 0x44737453706F6B654272646967653A205468657265206973206E6F20636F7272 PUSH1 0x0 DUP3 ADD MSTORE PUSH32 0x6573706F6E64696E67206C6F63616C2062696421000000000000000000000000 PUSH1 0x20 DUP3 ADD MSTORE POP JUMP JUMPDEST PUSH1 0x0 PUSH2 0x444A PUSH1 0x34 DUP4 PUSH2 0x40A9 JUMP JUMPDEST SWAP2 POP PUSH2 0x4455 DUP3 PUSH2 0x43EE JUMP JUMPDEST PUSH1 0x40 DUP3 ADD SWAP1 POP SWAP2 SWAP1 POP JUMP JUMPDEST PUSH1 0x0 PUSH1 0x20 DUP3 ADD SWAP1 POP DUP2 DUP2 SUB PUSH1 0x0 DUP4 ADD MSTORE PUSH2 0x4479 DUP2 PUSH2 0x443D JUMP JUMPDEST SWAP1 POP SWAP2 SWAP1 POP JUMP JUMPDEST PUSH32 0x4E487B7100000000000000000000000000000000000000000000000000000000 PUSH1 0x0 MSTORE PUSH1 0x11 PUSH1 0x4 MSTORE PUSH1 0x24 PUSH1 0x0 REVERT JUMPDEST PUSH1 0x0 PUSH2 0x44BA DUP3 PUSH2 0x3888 JUMP JUMPDEST SWAP2 POP PUSH2 0x44C5 DUP4 PUSH2 0x3888 JUMP JUMPDEST SWAP3 POP DUP3 DUP3 ADD SWAP1 POP DUP1 DUP3 GT ISZERO PUSH2 0x44DD JUMPI PUSH2 0x44DC PUSH2 0x4480 JUMP JUMPDEST JUMPDEST SWAP3 SWAP2 POP POP JUMP JUMPDEST PUSH32 0x44737453706F6B654272696467653A2054696D652077696E646F772069732065 PUSH1 0x0 DUP3 ADD MSTORE PUSH32 0x7870697265642100000000000000000000000000000000000000000000000000 PUSH1 0x20 DUP3 ADD MSTORE POP JUMP JUMPDEST PUSH1 0x0 PUSH2 0x453F PUSH1 0x27 DUP4 PUSH2 0x40A9 JUMP JUMPDEST SWAP2 POP PUSH2 0x454A DUP3 PUSH2 0x44E3 JUMP JUMPDEST PUSH1 0x40 DUP3 ADD SWAP1 POP SWAP2 SWAP1 POP JUMP JUMPDEST PUSH1 0x0 PUSH1 0x20 DUP3 ADD SWAP1 POP DUP2 DUP2 SUB PUSH1 0x0 DUP4 ADD MSTORE PUSH2 0x456E DUP2 PUSH2 0x4532 JUMP JUMPDEST SWAP1 POP SWAP2 SWAP1 POP JUMP JUMPDEST PUSH32 0x4E487B7100000000000000000000000000000000000000000000000000000000 PUSH1 0x0 MSTORE PUSH1 0x12 PUSH1 0x4 MSTORE PUSH1 0x24 PUSH1 0x0 REVERT JUMPDEST PUSH1 0x0 PUSH2 0x45AF DUP3 PUSH2 0x3888 JUMP JUMPDEST SWAP2 POP PUSH2 0x45BA DUP4 PUSH2 0x3888 JUMP JUMPDEST SWAP3 POP DUP3 PUSH2 0x45CA JUMPI PUSH2 0x45C9 PUSH2 0x4575 JUMP JUMPDEST JUMPDEST DUP3 DUP3 DIV SWAP1 POP SWAP3 SWAP2 POP POP JUMP JUMPDEST PUSH1 0x5 DUP2 LT PUSH2 0x45E2 JUMPI PUSH1 0x0 DUP1 REVERT JUMPDEST POP JUMP JUMPDEST PUSH1 0x0 DUP2 MLOAD SWAP1 POP PUSH2 0x45F4 DUP2 PUSH2 0x45D5 JUMP JUMPDEST SWAP3 SWAP2 POP POP JUMP JUMPDEST PUSH1 0x0 DUP1 PUSH1 0x0 DUP1 PUSH1 0x0 DUP1 PUSH1 0x0 PUSH1 0xE0 DUP9 DUP11 SUB SLT ISZERO PUSH2 0x4619 JUMPI PUSH2 0x4618 PUSH2 0x387E JUMP JUMPDEST JUMPDEST PUSH1 0x0 PUSH2 0x4627 DUP11 DUP3 DUP12 ADD PUSH2 0x42E9 JUMP JUMPDEST SWAP8 POP POP PUSH1 0x20 PUSH2 0x4638 DUP11 DUP3 DUP12 ADD PUSH2 0x45E5 JUMP JUMPDEST SWAP7 POP POP PUSH1 0x40 PUSH2 0x4649 DUP11 DUP3 DUP12 ADD PUSH2 0x434C JUMP JUMPDEST SWAP6 POP POP PUSH1 0x60 PUSH2 0x465A DUP11 DUP3 DUP12 ADD PUSH2 0x42E9 JUMP JUMPDEST SWAP5 POP POP PUSH1 0x80 PUSH2 0x466B DUP11 DUP3 DUP12 ADD PUSH2 0x434C JUMP JUMPDEST SWAP4 POP POP PUSH1 0xA0 PUSH2 0x467C DUP11 DUP3 DUP12 ADD PUSH2 0x434C JUMP JUMPDEST SWAP3 POP POP PUSH1 0xC0 PUSH2 0x468D DUP11 DUP3 DUP12 ADD PUSH2 0x434C JUMP JUMPDEST SWAP2 POP POP SWAP3 SWAP6 SWAP9 SWAP2 SWAP5 SWAP8 POP SWAP3 SWAP6 POP JUMP JUMPDEST PUSH32 0x44737453706F6B654272696467653A2054696D652077696E646F77206973206E PUSH1 0x0 DUP3 ADD MSTORE PUSH32 0x6F74206578706972656421000000000000000000000000000000000000000000 PUSH1 0x20 DUP3 ADD MSTORE POP JUMP JUMPDEST PUSH1 0x0 PUSH2 0x46F8 PUSH1 0x2B DUP4 PUSH2 0x40A9 JUMP JUMPDEST SWAP2 POP PUSH2 0x4703 DUP3 PUSH2 0x469C JUMP JUMPDEST PUSH1 0x40 DUP3 ADD SWAP1 POP SWAP2 SWAP1 POP JUMP JUMPDEST PUSH1 0x0 PUSH1 0x20 DUP3 ADD SWAP1 POP DUP2 DUP2 SUB PUSH1 0x0 DUP4 ADD MSTORE PUSH2 0x4727 DUP2 PUSH2 0x46EB JUMP JUMPDEST SWAP1 POP SWAP2 SWAP1 POP JUMP JUMPDEST PUSH32 0x44737453706F6B654272696467653A2046616C7365206368616C6C656E67696E PUSH1 0x0 DUP3 ADD MSTORE PUSH32 0x6721000000000000000000000000000000000000000000000000000000000000 PUSH1 0x20 DUP3 ADD MSTORE POP JUMP JUMPDEST PUSH1 0x0 PUSH2 0x478A PUSH1 0x22 DUP4 PUSH2 0x40A9 JUMP JUMPDEST SWAP2 POP PUSH2 0x4795 DUP3 PUSH2 0x472E JUMP JUMPDEST PUSH1 0x40 DUP3 ADD SWAP1 POP SWAP2 SWAP1 POP JUMP JUMPDEST PUSH1 0x0 PUSH1 0x20 DUP3 ADD SWAP1 POP DUP2 DUP2 SUB PUSH1 0x0 DUP4 ADD MSTORE PUSH2 0x47B9 DUP2 PUSH2 0x477D JUMP JUMPDEST SWAP1 POP SWAP2 SWAP1 POP JUMP JUMPDEST PUSH1 0x0 PUSH1 0x40 DUP3 ADD SWAP1 POP PUSH2 0x47D5 PUSH1 0x0 DUP4 ADD DUP6 PUSH2 0x3C29 JUMP JUMPDEST PUSH2 0x47E2 PUSH1 0x20 DUP4 ADD DUP5 PUSH2 0x3C38 JUMP JUMPDEST SWAP4 SWAP3 POP POP POP JUMP JUMPDEST PUSH32 0x53706F6B654272696467653A2072657761726420697320616C72656164792063 PUSH1 0x0 DUP3 ADD MSTORE PUSH32 0x6C61696D65642100000000000000000000000000000000000000000000000000 PUSH1 0x20 DUP3 ADD MSTORE POP JUMP JUMPDEST PUSH1 0x0 PUSH2 0x4845 PUSH1 0x27 DUP4 PUSH2 0x40A9 JUMP JUMPDEST SWAP2 POP PUSH2 0x4850 DUP3 PUSH2 0x47E9 JUMP JUMPDEST PUSH1 0x40 DUP3 ADD SWAP1 POP SWAP2 SWAP1 POP JUMP JUMPDEST PUSH1 0x0 PUSH1 0x20 DUP3 ADD SWAP1 POP DUP2 DUP2 SUB PUSH1 0x0 DUP4 ADD MSTORE PUSH2 0x4874 DUP2 PUSH2 0x4838 JUMP JUMPDEST SWAP1 POP SWAP2 SWAP1 POP JUMP JUMPDEST PUSH32 0x53706F6B654272696467653A206368616C6C656E676572206973206E6F742074 PUSH1 0x0 DUP3 ADD MSTORE PUSH32 0x68652073656E6465722100000000000000000000000000000000000000000000 PUSH1 0x20 DUP3 ADD MSTORE POP JUMP JUMPDEST PUSH1 0x0 PUSH2 0x48D7 PUSH1 0x2A DUP4 PUSH2 0x40A9 JUMP JUMPDEST SWAP2 POP PUSH2 0x48E2 DUP3 PUSH2 0x487B JUMP JUMPDEST PUSH1 0x40 DUP3 ADD SWAP1 POP SWAP2 SWAP1 POP JUMP JUMPDEST PUSH1 0x0 PUSH1 0x20 DUP3 ADD SWAP1 POP DUP2 DUP2 SUB PUSH1 0x0 DUP4 ADD MSTORE PUSH2 0x4906 DUP2 PUSH2 0x48CA JUMP JUMPDEST SWAP1 POP SWAP2 SWAP1 POP JUMP JUMPDEST PUSH1 0x0 DUP2 SWAP1 POP SWAP3 SWAP2 POP POP JUMP JUMPDEST POP JUMP JUMPDEST PUSH1 0x0 PUSH2 0x4928 PUSH1 0x0 DUP4 PUSH2 0x490D JUMP JUMPDEST SWAP2 POP PUSH2 0x4933 DUP3 PUSH2 0x4918 JUMP JUMPDEST PUSH1 0x0 DUP3 ADD SWAP1 POP SWAP2 SWAP1 POP JUMP JUMPDEST PUSH1 0x0 PUSH2 0x4949 DUP3 PUSH2 0x491B JUMP JUMPDEST SWAP2 POP DUP2 SWAP1 POP SWAP2 SWAP1 POP JUMP JUMPDEST PUSH32 0x4661696C656420746F2073656E64204574686572000000000000000000000000 PUSH1 0x0 DUP3 ADD MSTORE POP JUMP JUMPDEST PUSH1 0x0 PUSH2 0x4989 PUSH1 0x14 DUP4 PUSH2 0x40A9 JUMP JUMPDEST SWAP2 POP PUSH2 0x4994 DUP3 PUSH2 0x4953 JUMP JUMPDEST PUSH1 0x20 DUP3 ADD SWAP1 POP SWAP2 SWAP1 POP JUMP JUMPDEST PUSH1 0x0 PUSH1 0x20 DUP3 ADD SWAP1 POP DUP2 DUP2 SUB PUSH1 0x0 DUP4 ADD MSTORE PUSH2 0x49B8 DUP2 PUSH2 0x497C JUMP JUMPDEST SWAP1 POP SWAP2 SWAP1 POP JUMP JUMPDEST PUSH32 0x53706F6B654272696467653A2063616C6C6572206973206E6F7420696E20756E PUSH1 0x0 DUP3 ADD MSTORE PUSH32 0x6465706F73697465642073746174652100000000000000000000000000000000 PUSH1 0x20 DUP3 ADD MSTORE POP JUMP JUMPDEST PUSH1 0x0 PUSH2 0x4A1B PUSH1 0x30 DUP4 PUSH2 0x40A9 JUMP JUMPDEST SWAP2 POP PUSH2 0x4A26 DUP3 PUSH2 0x49BF JUMP JUMPDEST PUSH1 0x40 DUP3 ADD SWAP1 POP SWAP2 SWAP1 POP JUMP JUMPDEST PUSH1 0x0 PUSH1 0x20 DUP3 ADD SWAP1 POP DUP2 DUP2 SUB PUSH1 0x0 DUP4 ADD MSTORE PUSH2 0x4A4A DUP2 PUSH2 0x4A0E JUMP JUMPDEST SWAP1 POP SWAP2 SWAP1 POP JUMP JUMPDEST PUSH32 0x53706F6B654272696467653A20322064617973206973206E6F74206578706972 PUSH1 0x0 DUP3 ADD MSTORE PUSH32 0x65642066726F6D2074686520756E6465706F736974696E672100000000000000 PUSH1 0x20 DUP3 ADD MSTORE POP JUMP JUMPDEST PUSH1 0x0 PUSH2 0x4AAD PUSH1 0x39 DUP4 PUSH2 0x40A9 JUMP JUMPDEST SWAP2 POP PUSH2 0x4AB8 DUP3 PUSH2 0x4A51 JUMP JUMPDEST PUSH1 0x40 DUP3 ADD SWAP1 POP SWAP2 SWAP1 POP JUMP JUMPDEST PUSH1 0x0 PUSH1 0x20 DUP3 ADD SWAP1 POP DUP2 DUP2 SUB PUSH1 0x0 DUP4 ADD MSTORE PUSH2 0x4ADC DUP2 PUSH2 0x4AA0 JUMP JUMPDEST SWAP1 POP SWAP2 SWAP1 POP JUMP JUMPDEST PUSH1 0x0 PUSH1 0xC0 DUP3 ADD SWAP1 POP PUSH2 0x4AF8 PUSH1 0x0 DUP4 ADD DUP10 PUSH2 0x3C38 JUMP JUMPDEST PUSH2 0x4B05 PUSH1 0x20 DUP4 ADD DUP9 PUSH2 0x400D JUMP JUMPDEST PUSH2 0x4B12 PUSH1 0x40 DUP4 ADD DUP8 PUSH2 0x3C29 JUMP JUMPDEST PUSH2 0x4B1F PUSH1 0x60 DUP4 ADD DUP7 PUSH2 0x3C38 JUMP JUMPDEST PUSH2 0x4B2C PUSH1 0x80 DUP4 ADD DUP6 PUSH2 0x3C29 JUMP JUMPDEST PUSH2 0x4B39 PUSH1 0xA0 DUP4 ADD DUP5 PUSH2 0x3C29 JUMP JUMPDEST SWAP8 SWAP7 POP POP POP POP POP POP POP JUMP JUMPDEST PUSH1 0x0 DUP2 MLOAD SWAP1 POP SWAP2 SWAP1 POP JUMP JUMPDEST PUSH1 0x0 DUP3 DUP3 MSTORE PUSH1 0x20 DUP3 ADD SWAP1 POP SWAP3 SWAP2 POP POP JUMP JUMPDEST PUSH1 0x0 PUSH2 0x4B6B DUP3 PUSH2 0x4B44 JUMP JUMPDEST PUSH2 0x4B75 DUP2 DUP6 PUSH2 0x4B4F JUMP JUMPDEST SWAP4 POP PUSH2 0x4B85 DUP2 DUP6 PUSH1 0x20 DUP7 ADD PUSH2 0x41DE JUMP JUMPDEST PUSH2 0x4B8E DUP2 PUSH2 0x3953 JUMP JUMPDEST DUP5 ADD SWAP2 POP POP SWAP3 SWAP2 POP POP JUMP JUMPDEST PUSH1 0x0 PUSH1 0x40 DUP3 ADD SWAP1 POP DUP2 DUP2 SUB PUSH1 0x0 DUP4 ADD MSTORE PUSH2 0x4BB3 DUP2 DUP6 PUSH2 0x4B60 JUMP JUMPDEST SWAP1 POP PUSH2 0x4BC2 PUSH1 0x20 DUP4 ADD DUP5 PUSH2 0x3C47 JUMP JUMPDEST SWAP4 SWAP3 POP POP POP JUMP JUMPDEST PUSH32 0x44737453706F6B654272696467653A20746F6F206561726C7920746F2073656E PUSH1 0x0 DUP3 ADD MSTORE PUSH32 0x642070726F6F6621000000000000000000000000000000000000000000000000 PUSH1 0x20 DUP3 ADD MSTORE POP JUMP JUMPDEST PUSH1 0x0 PUSH2 0x4C25 PUSH1 0x28 DUP4 PUSH2 0x40A9 JUMP JUMPDEST SWAP2 POP PUSH2 0x4C30 DUP3 PUSH2 0x4BC9 JUMP JUMPDEST PUSH1 0x40 DUP3 ADD SWAP1 POP SWAP2 SWAP1 POP JUMP JUMPDEST PUSH1 0x0 PUSH1 0x20 DUP3 ADD SWAP1 POP DUP2 DUP2 SUB PUSH1 0x0 DUP4 ADD MSTORE PUSH2 0x4C54 DUP2 PUSH2 0x4C18 JUMP JUMPDEST SWAP1 POP SWAP2 SWAP1 POP JUMP JUMPDEST PUSH1 0x0 PUSH1 0xE0 DUP3 ADD SWAP1 POP PUSH2 0x4C70 PUSH1 0x0 DUP4 ADD DUP11 PUSH2 0x3C38 JUMP JUMPDEST PUSH2 0x4C7D PUSH1 0x20 DUP4 ADD DUP10 PUSH2 0x3E48 JUMP JUMPDEST PUSH2 0x4C8A PUSH1 0x40 DUP4 ADD DUP9 PUSH2 0x3C29 JUMP JUMPDEST PUSH2 0x4C97 PUSH1 0x60 DUP4 ADD DUP8 PUSH2 0x3C38 JUMP JUMPDEST PUSH2 0x4CA4 PUSH1 0x80 DUP4 ADD DUP7 PUSH2 0x3C29 JUMP JUMPDEST PUSH2 0x4CB1 PUSH1 0xA0 DUP4 ADD DUP6 PUSH2 0x3C29 JUMP JUMPDEST PUSH2 0x4CBE PUSH1 0xC0 DUP4 ADD DUP5 PUSH2 0x3C29 JUMP JUMPDEST SWAP9 SWAP8 POP POP POP POP POP POP POP POP JUMP JUMPDEST PUSH32 0x53706F6B654272696467653A2063616C6C65722063616E6E6F74206265206120 PUSH1 0x0 DUP3 ADD MSTORE PUSH32 0x72656C6179657221000000000000000000000000000000000000000000000000 PUSH1 0x20 DUP3 ADD MSTORE POP JUMP JUMPDEST PUSH1 0x0 PUSH2 0x4D26 PUSH1 0x28 DUP4 PUSH2 0x40A9 JUMP JUMPDEST SWAP2 POP PUSH2 0x4D31 DUP3 PUSH2 0x4CCA JUMP JUMPDEST PUSH1 0x40 DUP3 ADD SWAP1 POP SWAP2 SWAP1 POP JUMP JUMPDEST PUSH1 0x0 PUSH1 0x20 DUP3 ADD SWAP1 POP DUP2 DUP2 SUB PUSH1 0x0 DUP4 ADD MSTORE PUSH2 0x4D55 DUP2 PUSH2 0x4D19 JUMP JUMPDEST SWAP1 POP SWAP2 SWAP1 POP JUMP JUMPDEST PUSH32 0x53706F6B654272696467653A206D73672E76616C7565206973206E6F74206170 PUSH1 0x0 DUP3 ADD MSTORE PUSH32 0x70726F7072696174652100000000000000000000000000000000000000000000 PUSH1 0x20 DUP3 ADD MSTORE POP JUMP JUMPDEST PUSH1 0x0 PUSH2 0x4DB8 PUSH1 0x2A DUP4 PUSH2 0x40A9 JUMP JUMPDEST SWAP2 POP PUSH2 0x4DC3 DUP3 PUSH2 0x4D5C JUMP JUMPDEST PUSH1 0x40 DUP3 ADD SWAP1 POP SWAP2 SWAP1 POP JUMP JUMPDEST PUSH1 0x0 PUSH1 0x20 DUP3 ADD SWAP1 POP DUP2 DUP2 SUB PUSH1 0x0 DUP4 ADD MSTORE PUSH2 0x4DE7 DUP2 PUSH2 0x4DAB JUMP JUMPDEST SWAP1 POP SWAP2 SWAP1 POP JUMP JUMPDEST PUSH32 0x44737453706F6B654272696467653A207468657265206973206E6F2066656520 PUSH1 0x0 DUP3 ADD MSTORE PUSH32 0x666F722072656C61796572732100000000000000000000000000000000000000 PUSH1 0x20 DUP3 ADD MSTORE POP JUMP JUMPDEST PUSH1 0x0 PUSH2 0x4E4A PUSH1 0x2D DUP4 PUSH2 0x40A9 JUMP JUMPDEST SWAP2 POP PUSH2 0x4E55 DUP3 PUSH2 0x4DEE JUMP JUMPDEST PUSH1 0x40 DUP3 ADD SWAP1 POP SWAP2 SWAP1 POP JUMP JUMPDEST PUSH1 0x0 PUSH1 0x20 DUP3 ADD SWAP1 POP DUP2 DUP2 SUB PUSH1 0x0 DUP4 ADD MSTORE PUSH2 0x4E79 DUP2 PUSH2 0x4E3D JUMP JUMPDEST SWAP1 POP SWAP2 SWAP1 POP JUMP JUMPDEST PUSH32 0x44737453706F6B654272696467653A20696E636F6D696E672062696420697320 PUSH1 0x0 DUP3 ADD MSTORE PUSH32 0x6E6F742072656C61796564210000000000000000000000000000000000000000 PUSH1 0x20 DUP3 ADD MSTORE POP JUMP JUMPDEST PUSH1 0x0 PUSH2 0x4EDC PUSH1 0x2C DUP4 PUSH2 0x40A9 JUMP JUMPDEST SWAP2 POP PUSH2 0x4EE7 DUP3 PUSH2 0x4E80 JUMP JUMPDEST PUSH1 0x40 DUP3 ADD SWAP1 POP SWAP2 SWAP1 POP JUMP JUMPDEST PUSH1 0x0 PUSH1 0x20 DUP3 ADD SWAP1 POP DUP2 DUP2 SUB PUSH1 0x0 DUP4 ADD MSTORE PUSH2 0x4F0B DUP2 PUSH2 0x4ECF JUMP JUMPDEST SWAP1 POP SWAP2 SWAP1 POP JUMP JUMPDEST PUSH32 0x44737453706F6B654272696467653A20746F6F206561726C7920756E77726170 PUSH1 0x0 DUP3 ADD MSTORE PUSH32 0x70696E6721000000000000000000000000000000000000000000000000000000 PUSH1 0x20 DUP3 ADD MSTORE POP JUMP JUMPDEST PUSH1 0x0 PUSH2 0x4F6E PUSH1 0x25 DUP4 PUSH2 0x40A9 JUMP JUMPDEST SWAP2 POP PUSH2 0x4F79 DUP3 PUSH2 0x4F12 JUMP JUMPDEST PUSH1 0x40 DUP3 ADD SWAP1 POP SWAP2 SWAP1 POP JUMP JUMPDEST PUSH1 0x0 PUSH1 0x20 DUP3 ADD SWAP1 POP DUP2 DUP2 SUB PUSH1 0x0 DUP4 ADD MSTORE PUSH2 0x4F9D DUP2 PUSH2 0x4F61 JUMP JUMPDEST SWAP1 POP SWAP2 SWAP1 POP JUMP JUMPDEST PUSH1 0x0 PUSH1 0x60 DUP3 ADD SWAP1 POP PUSH2 0x4FB9 PUSH1 0x0 DUP4 ADD DUP7 PUSH2 0x3C29 JUMP JUMPDEST PUSH2 0x4FC6 PUSH1 0x20 DUP4 ADD DUP6 PUSH2 0x3C29 JUMP JUMPDEST PUSH2 0x4FD3 PUSH1 0x40 DUP4 ADD DUP5 PUSH2 0x3C38 JUMP JUMPDEST SWAP5 SWAP4 POP POP POP POP JUMP JUMPDEST PUSH32 0x4F776E61626C653A206E6577206F776E657220697320746865207A65726F2061 PUSH1 0x0 DUP3 ADD MSTORE PUSH32 0x6464726573730000000000000000000000000000000000000000000000000000 PUSH1 0x20 DUP3 ADD MSTORE POP JUMP JUMPDEST PUSH1 0x0 PUSH2 0x5037 PUSH1 0x26 DUP4 PUSH2 0x40A9 JUMP JUMPDEST SWAP2 POP PUSH2 0x5042 DUP3 PUSH2 0x4FDB JUMP JUMPDEST PUSH1 0x40 DUP3 ADD SWAP1 POP SWAP2 SWAP1 POP JUMP JUMPDEST PUSH1 0x0 PUSH1 0x20 DUP3 ADD SWAP1 POP DUP2 DUP2 SUB PUSH1 0x0 DUP4 ADD MSTORE PUSH2 0x5066 DUP2 PUSH2 0x502A JUMP JUMPDEST SWAP1 POP SWAP2 SWAP1 POP JUMP JUMPDEST PUSH32 0x53706F6B654272696467653A2062696420646F6573206E6F7420686176652043 PUSH1 0x0 DUP3 ADD MSTORE PUSH32 0x7265617465642073746174650000000000000000000000000000000000000000 PUSH1 0x20 DUP3 ADD MSTORE POP JUMP JUMPDEST PUSH1 0x0 PUSH2 0x50C9 PUSH1 0x2C DUP4 PUSH2 0x40A9 JUMP JUMPDEST SWAP2 POP PUSH2 0x50D4 DUP3 PUSH2 0x506D JUMP JUMPDEST PUSH1 0x40 DUP3 ADD SWAP1 POP SWAP2 SWAP1 POP JUMP JUMPDEST PUSH1 0x0 PUSH1 0x20 DUP3 ADD SWAP1 POP DUP2 DUP2 SUB PUSH1 0x0 DUP4 ADD MSTORE PUSH2 0x50F8 DUP2 PUSH2 0x50BC JUMP JUMPDEST SWAP1 POP SWAP2 SWAP1 POP JUMP JUMPDEST PUSH32 0x4F776E61626C653A2063616C6C6572206973206E6F7420746865206F776E6572 PUSH1 0x0 DUP3 ADD MSTORE POP JUMP JUMPDEST PUSH1 0x0 PUSH2 0x5135 PUSH1 0x20 DUP4 PUSH2 0x40A9 JUMP JUMPDEST SWAP2 POP PUSH2 0x5140 DUP3 PUSH2 0x50FF JUMP JUMPDEST PUSH1 0x20 DUP3 ADD SWAP1 POP SWAP2 SWAP1 POP JUMP JUMPDEST PUSH1 0x0 PUSH1 0x20 DUP3 ADD SWAP1 POP DUP2 DUP2 SUB PUSH1 0x0 DUP4 ADD MSTORE PUSH2 0x5164 DUP2 PUSH2 0x5128 JUMP JUMPDEST SWAP1 POP SWAP2 SWAP1 POP JUMP JUMPDEST PUSH1 0x0 PUSH1 0x20 DUP3 ADD SWAP1 POP DUP2 DUP2 SUB PUSH1 0x0 DUP4 ADD MSTORE PUSH2 0x5185 DUP2 DUP5 PUSH2 0x4B60 JUMP JUMPDEST SWAP1 POP SWAP3 SWAP2 POP POP JUMP JUMPDEST PUSH32 0x53706F6B654272696467653A204E6F20656E6F75676820616D6F756E74206F66 PUSH1 0x0 DUP3 ADD MSTORE PUSH32 0x2045544820746F207374616B6521000000000000000000000000000000000000 PUSH1 0x20 DUP3 ADD MSTORE POP JUMP JUMPDEST PUSH1 0x0 PUSH2 0x51E9 PUSH1 0x2E DUP4 PUSH2 0x40A9 JUMP JUMPDEST SWAP2 POP PUSH2 0x51F4 DUP3 PUSH2 0x518D JUMP JUMPDEST PUSH1 0x40 DUP3 ADD SWAP1 POP SWAP2 SWAP1 POP JUMP JUMPDEST PUSH1 0x0 PUSH1 0x20 DUP3 ADD SWAP1 POP DUP2 DUP2 SUB PUSH1 0x0 DUP4 ADD MSTORE PUSH2 0x5218 DUP2 PUSH2 0x51DC JUMP JUMPDEST SWAP1 POP SWAP2 SWAP1 POP JUMP JUMPDEST PUSH32 0x53706F6B654272696467653A20436F72726573706F6E64696E6720696E636F6D PUSH1 0x0 DUP3 ADD MSTORE PUSH32 0x696E672062696420737461747573206973206E6F742072656C61796564210000 PUSH1 0x20 DUP3 ADD MSTORE POP JUMP JUMPDEST PUSH1 0x0 PUSH2 0x527B PUSH1 0x3E DUP4 PUSH2 0x40A9 JUMP JUMPDEST SWAP2 POP PUSH2 0x5286 DUP3 PUSH2 0x521F JUMP JUMPDEST PUSH1 0x40 DUP3 ADD SWAP1 POP SWAP2 SWAP1 POP JUMP JUMPDEST PUSH1 0x0 PUSH1 0x20 DUP3 ADD SWAP1 POP DUP2 DUP2 SUB PUSH1 0x0 DUP4 ADD MSTORE PUSH2 0x52AA DUP2 PUSH2 0x526E JUMP JUMPDEST SWAP1 POP SWAP2 SWAP1 POP JUMP JUMPDEST PUSH32 0x53706F6B654272696467653A20546865206469737075746520706572696F6420 PUSH1 0x0 DUP3 ADD MSTORE PUSH32 0x6973206578706972656421000000000000000000000000000000000000000000 PUSH1 0x20 DUP3 ADD MSTORE POP JUMP JUMPDEST PUSH1 0x0 PUSH2 0x530D PUSH1 0x2B DUP4 PUSH2 0x40A9 JUMP JUMPDEST SWAP2 POP PUSH2 0x5318 DUP3 PUSH2 0x52B1 JUMP JUMPDEST PUSH1 0x40 DUP3 ADD SWAP1 POP SWAP2 SWAP1 POP JUMP JUMPDEST PUSH1 0x0 PUSH1 0x20 DUP3 ADD SWAP1 POP DUP2 DUP2 SUB PUSH1 0x0 DUP4 ADD MSTORE PUSH2 0x533C DUP2 PUSH2 0x5300 JUMP JUMPDEST SWAP1 POP SWAP2 SWAP1 POP JUMP JUMPDEST PUSH32 0x53706F6B654272696467653A2062696420697320616C7265616479206368616C PUSH1 0x0 DUP3 ADD MSTORE PUSH32 0x6C656E6765642100000000000000000000000000000000000000000000000000 PUSH1 0x20 DUP3 ADD MSTORE POP JUMP JUMPDEST PUSH1 0x0 PUSH2 0x539F PUSH1 0x27 DUP4 PUSH2 0x40A9 JUMP JUMPDEST SWAP2 POP PUSH2 0x53AA DUP3 PUSH2 0x5343 JUMP JUMPDEST PUSH1 0x40 DUP3 ADD SWAP1 POP SWAP2 SWAP1 POP JUMP JUMPDEST PUSH1 0x0 PUSH1 0x20 DUP3 ADD SWAP1 POP DUP2 DUP2 SUB PUSH1 0x0 DUP4 ADD MSTORE PUSH2 0x53CE DUP2 PUSH2 0x5392 JUMP JUMPDEST SWAP1 POP SWAP2 SWAP1 POP JUMP INVALID LOG2 PUSH5 0x6970667358 0x22 SLT KECCAK256 0xD DUP5 0xDA PUSH15 0xA5448609F3C37D536B73B139EB6EAC 0xB0 0x2E 0xDF PUSH20 0xB7072E177D300348C964736F6C63430008120033 "},"methodIdentifiers":{"CHALLENGE_AMOUNT()":"f8840cf7","HUB()":"a4c52b86","STAKE_AMOUNT()":"faf5625f","TIME_LIMIT_OF_UNDEPOSIT()":"529e720a","buyBid(uint256)":"04ef2396","challengeMinting(uint256)":"d2b803a6","challengedIncomingBids(uint256)":"4d642623","claimChallengeReward(uint256,bool)":"3a5d0410","claimDeposite()":"7be6f7a7","createBid(address,uint256,address,uint256)":"bd3a27b0","deposite()":"a50ec326","id()":"af640d0f","incomingBids(uint256)":"8df99e90","incomingChallengeRewards(uint256)":"9c3709d9","minting(uint256,address,uint256,address)":"d690bfd9","onERC721Received(address,address,uint256,bytes)":"150b7a02","outgoingBids(uint256)":"f3786979","outgoingChallengeRewards(uint256)":"3bb984f4","owner()":"8da5cb5b","receiveProof(bytes)":"24bd801b","relayers(address)":"5300f841","renounceOwnership()":"715018a6","sendProof(bool,uint256)":"9123e475","transferOwnership(address)":"f2fde38b","undeposite()":"be7226ad"}}}}}