{"contracts/test/SimpleGatewaySrcSpokeBridge.sol":{"SimpleGatewaySrcSpokeBrdige":{"abi":[{"inputs":[{"internalType":"address","name":"_hub","type":"address"},{"internalType":"address","name":"_contractMap","type":"address"}],"stateMutability":"nonpayable","type":"constructor"},{"anonymous":false,"inputs":[{"indexed":false,"internalType":"address","name":"relayer","type":"address"},{"indexed":false,"internalType":"uint256","name":"bidId","type":"uint256"}],"name":"BidBought","type":"event"},{"anonymous":false,"inputs":[{"indexed":false,"internalType":"address","name":"challenger","type":"address"},{"indexed":false,"internalType":"address","name":"relayer","type":"address"},{"indexed":false,"internalType":"uint256","name":"bidId","type":"uint256"}],"name":"BidChallenged","type":"event"},{"anonymous":false,"inputs":[],"name":"BidCreated","type":"event"},{"anonymous":false,"inputs":[{"indexed":false,"internalType":"address","name":"contractAddress","type":"address"},{"indexed":false,"internalType":"uint256","name":"bidId","type":"uint256"},{"indexed":false,"internalType":"uint256","name":"id","type":"uint256"},{"indexed":false,"internalType":"address","name":"owner","type":"address"}],"name":"NFTUnwrapped","type":"event"},{"anonymous":false,"inputs":[{"indexed":true,"internalType":"address","name":"previousOwner","type":"address"},{"indexed":true,"internalType":"address","name":"newOwner","type":"address"}],"name":"OwnershipTransferred","type":"event"},{"anonymous":false,"inputs":[],"name":"ProofSent","type":"event"},{"inputs":[],"name":"CHALLENGE_AMOUNT","outputs":[{"internalType":"uint256","name":"","type":"uint256"}],"stateMutability":"view","type":"function"},{"inputs":[],"name":"HUB","outputs":[{"internalType":"address","name":"","type":"address"}],"stateMutability":"view","type":"function"},{"inputs":[],"name":"STAKE_AMOUNT","outputs":[{"internalType":"uint256","name":"","type":"uint256"}],"stateMutability":"view","type":"function"},{"inputs":[],"name":"TIME_LIMIT_OF_UNDEPOSIT","outputs":[{"internalType":"uint256","name":"","type":"uint256"}],"stateMutability":"view","type":"function"},{"inputs":[{"internalType":"uint256","name":"_bidId","type":"uint256"}],"name":"buyBid","outputs":[],"stateMutability":"nonpayable","type":"function"},{"inputs":[{"internalType":"uint256","name":"_bidId","type":"uint256"}],"name":"challengeUnlocking","outputs":[],"stateMutability":"payable","type":"function"},{"inputs":[{"internalType":"uint256","name":"","type":"uint256"}],"name":"challengedIncomingBids","outputs":[{"internalType":"address","name":"challenger","type":"address"},{"internalType":"enum SpokeBridge.ChallengeStatus","name":"status","type":"uint8"}],"stateMutability":"view","type":"function"},{"inputs":[{"internalType":"uint256","name":"_challengeId","type":"uint256"},{"internalType":"bool","name":"_isOutgoingBid","type":"bool"}],"name":"claimChallengeReward","outputs":[],"stateMutability":"nonpayable","type":"function"},{"inputs":[],"name":"claimDeposite","outputs":[],"stateMutability":"nonpayable","type":"function"},{"inputs":[{"internalType":"uint256","name":"_incomingBidId","type":"uint256"}],"name":"claimNFT","outputs":[],"stateMutability":"nonpayable","type":"function"},{"inputs":[],"name":"contractMap","outputs":[{"internalType":"address","name":"","type":"address"}],"stateMutability":"view","type":"function"},{"inputs":[{"internalType":"address","name":"_receiver","type":"address"},{"internalType":"uint256","name":"_tokenId","type":"uint256"},{"internalType":"address","name":"_erc721Contract","type":"address"}],"name":"createBid","outputs":[],"stateMutability":"payable","type":"function"},{"inputs":[],"name":"deposite","outputs":[],"stateMutability":"payable","type":"function"},{"inputs":[],"name":"id","outputs":[{"internalType":"uint256","name":"_value","type":"uint256"}],"stateMutability":"view","type":"function"},{"inputs":[{"internalType":"uint256","name":"","type":"uint256"}],"name":"incomingBids","outputs":[{"internalType":"uint256","name":"outgoingId","type":"uint256"},{"internalType":"enum SpokeBridge.IncomingBidStatus","name":"status","type":"uint8"},{"internalType":"address","name":"receiver","type":"address"},{"internalType":"uint256","name":"tokenId","type":"uint256"},{"internalType":"address","name":"remoteErc721Contract","type":"address"},{"internalType":"uint256","name":"timestampOfRelayed","type":"uint256"},{"internalType":"address","name":"relayer","type":"address"}],"stateMutability":"view","type":"function"},{"inputs":[{"internalType":"uint256","name":"","type":"uint256"}],"name":"incomingChallengeRewards","outputs":[{"internalType":"address","name":"challenger","type":"address"},{"internalType":"uint256","name":"amount","type":"uint256"},{"internalType":"bool","name":"isClaimed","type":"bool"}],"stateMutability":"view","type":"function"},{"inputs":[{"internalType":"address","name":"","type":"address"},{"internalType":"address","name":"","type":"address"},{"internalType":"uint256","name":"","type":"uint256"},{"internalType":"bytes","name":"","type":"bytes"}],"name":"onERC721Received","outputs":[{"internalType":"bytes4","name":"","type":"bytes4"}],"stateMutability":"nonpayable","type":"function"},{"inputs":[{"internalType":"uint256","name":"","type":"uint256"}],"name":"outgoingBids","outputs":[{"internalType":"enum SpokeBridge.OutgoingBidStatus","name":"status","type":"uint8"},{"internalType":"uint256","name":"fee","type":"uint256"},{"internalType":"address","name":"maker","type":"address"},{"internalType":"address","name":"receiver","type":"address"},{"internalType":"uint256","name":"tokenId","type":"uint256"},{"internalType":"address","name":"localErc721Contract","type":"address"},{"internalType":"address","name":"remoteErc721Contract","type":"address"},{"internalType":"uint256","name":"timestampOfBought","type":"uint256"},{"internalType":"address","name":"buyer","type":"address"}],"stateMutability":"view","type":"function"},{"inputs":[{"internalType":"uint256","name":"","type":"uint256"}],"name":"outgoingChallengeRewards","outputs":[{"internalType":"address","name":"challenger","type":"address"},{"internalType":"uint256","name":"amount","type":"uint256"},{"internalType":"bool","name":"isClaimed","type":"bool"}],"stateMutability":"view","type":"function"},{"inputs":[],"name":"owner","outputs":[{"internalType":"address","name":"","type":"address"}],"stateMutability":"view","type":"function"},{"inputs":[],"name":"receive","outputs":[],"stateMutability":"payable","type":"function"},{"inputs":[{"internalType":"bytes","name":"_proof","type":"bytes"}],"name":"receiveProof","outputs":[],"stateMutability":"nonpayable","type":"function"},{"inputs":[{"internalType":"address","name":"","type":"address"}],"name":"relayers","outputs":[{"internalType":"enum SpokeBridge.RelayerStatus","name":"status","type":"uint8"},{"internalType":"uint256","name":"dateOfUndeposited","type":"uint256"},{"internalType":"uint256","name":"stakedAmount","type":"uint256"}],"stateMutability":"view","type":"function"},{"inputs":[],"name":"renounceOwnership","outputs":[],"stateMutability":"nonpayable","type":"function"},{"inputs":[{"internalType":"bool","name":"_isOutgoingBid","type":"bool"},{"internalType":"uint256","name":"_bidId","type":"uint256"}],"name":"sendProof","outputs":[],"stateMutability":"nonpayable","type":"function"},{"inputs":[{"internalType":"address","name":"newOwner","type":"address"}],"name":"transferOwnership","outputs":[],"stateMutability":"nonpayable","type":"function"},{"inputs":[],"name":"undeposite","outputs":[],"stateMutability":"nonpayable","type":"function"},{"inputs":[{"internalType":"uint256","name":"_lockingBidId","type":"uint256"},{"internalType":"uint256","name":"_bidId","type":"uint256"},{"internalType":"address","name":"_to","type":"address"}],"name":"unlocking","outputs":[],"stateMutability":"nonpayable","type":"function"}],"evm":{"bytecode":{"linkReferences":{},"object":"6101006040523480156200001257600080fd5b5060405162005e6e38038062005e6e83398181016040528101906200003891906200023d565b8082806200005b6200004f6200010760201b60201c565b6200010f60201b60201c565b8073ffffffffffffffffffffffffffffffffffffffff1660e08173ffffffffffffffffffffffffffffffffffffffff16815250506801158e460913d0000060808181525050678ac7230489e8000060a081815250506202a30060c081815250505081600860006101000a81548173ffffffffffffffffffffffffffffffffffffffff021916908373ffffffffffffffffffffffffffffffffffffffff1602179055505050505062000284565b600033905090565b60008060009054906101000a900473ffffffffffffffffffffffffffffffffffffffff169050816000806101000a81548173ffffffffffffffffffffffffffffffffffffffff021916908373ffffffffffffffffffffffffffffffffffffffff1602179055508173ffffffffffffffffffffffffffffffffffffffff168173ffffffffffffffffffffffffffffffffffffffff167f8be0079c531659141344cd1fd0a4f28419497f9722a3daafe3b4186f6b6457e060405160405180910390a35050565b600080fd5b600073ffffffffffffffffffffffffffffffffffffffff82169050919050565b60006200020582620001d8565b9050919050565b6200021781620001f8565b81146200022357600080fd5b50565b60008151905062000237816200020c565b92915050565b60008060408385031215620002575762000256620001d3565b5b6000620002678582860162000226565b92505060206200027a8582860162000226565b9150509250929050565b60805160a05160c05160e051615b71620002fd60003960008181610f2001528181612f3c0152613d1501526000818161259501526126cd0152600081816115f40152818161344901526139bd0152600081816115c901528181611c43015281816127a30152818161301d015261346d0152615b716000f3fe6080604052600436106101b75760003560e01c80638da5cb5b116100ec578063af640d0f1161008a578063f378697911610064578063f378697914610595578063f8840cf7146105da578063faf5625f14610605578063fe5c873a14610630576101b7565b8063af640d0f1461052a578063be7226ad14610555578063f2fde38b1461056c576101b7565b80639c3709d9116100c65780639c3709d9146104ac578063a3e76c0f146104eb578063a4c52b86146104f5578063a50ec32614610520576101b7565b80638da5cb5b146104155780638df99e90146104405780639123e47514610483576101b7565b80633bb984f4116101595780635300f841116101335780635300f8411461038c578063715018a6146103cb5780637a965756146103e25780637be6f7a7146103fe576101b7565b80633bb984f4146102e45780634d64262314610323578063529e720a14610361576101b7565b80631d2f3682116101955780631d2f36821461024b57806324bd801b1461027657806334f507b81461029f5780633a5d0410146102bb576101b7565b806304ef2396146101bc578063150b7a02146101e55780631b392fbd14610222575b600080fd5b3480156101c857600080fd5b506101e360048036038101906101de9190613deb565b610659565b005b3480156101f157600080fd5b5061020c60048036038101906102079190613fbc565b610923565b604051610219919061407a565b60405180910390f35b34801561022e57600080fd5b5061024960048036038101906102449190614095565b610937565b005b34801561025757600080fd5b50610260610ef8565b60405161026d91906140f7565b60405180910390f35b34801561028257600080fd5b5061029d60048036038101906102989190614112565b610f1e565b005b6102b960048036038101906102b4919061415b565b611cd4565b005b3480156102c757600080fd5b506102e260048036038101906102dd91906141e6565b6120cb565b005b3480156102f057600080fd5b5061030b60048036038101906103069190613deb565b6124eb565b60405161031a93929190614244565b60405180910390f35b34801561032f57600080fd5b5061034a60048036038101906103459190613deb565b612542565b6040516103589291906142f2565b60405180910390f35b34801561036d57600080fd5b50610376612593565b604051610383919061431b565b60405180910390f35b34801561039857600080fd5b506103b360048036038101906103ae9190614336565b6125b7565b6040516103c2939291906143ab565b60405180910390f35b3480156103d757600080fd5b506103e06125ee565b005b6103fc60048036038101906103f79190613deb565b612602565b005b34801561040a57600080fd5b5061041361260e565b005b34801561042157600080fd5b5061042a6128c9565b60405161043791906140f7565b60405180910390f35b34801561044c57600080fd5b5061046760048036038101906104629190613deb565b6128f2565b60405161047a979695949392919061442a565b60405180910390f35b34801561048f57600080fd5b506104aa60048036038101906104a59190614499565b6129a1565b005b3480156104b857600080fd5b506104d360048036038101906104ce9190613deb565b612ee1565b6040516104e293929190614244565b60405180910390f35b6104f3612f38565b005b34801561050157600080fd5b5061050a612f3a565b60405161051791906140f7565b60405180910390f35b610528612f5e565b005b34801561053657600080fd5b5061053f61313e565b60405161054c919061431b565b60405180910390f35b34801561056157600080fd5b5061056a61314a565b005b34801561057857600080fd5b50610593600480360381019061058e9190614336565b6132c9565b005b3480156105a157600080fd5b506105bc60048036038101906105b79190613deb565b61334c565b6040516105d199989796959493929190614521565b60405180910390f35b3480156105e657600080fd5b506105ef613447565b6040516105fc919061431b565b60405180910390f35b34801561061157600080fd5b5061061a61346b565b604051610627919061431b565b60405180910390f35b34801561063c57600080fd5b5061065760048036038101906106529190613deb565b61348f565b005b6001600061066561383e565b73ffffffffffffffffffffffffffffffffffffffff1673ffffffffffffffffffffffffffffffffffffffff16815260200190815260200160002060000160009054906101000a900460ff1660048111156106c2576106c161427b565b5b600160048111156106d6576106d561427b565b5b14610716576040517f08c379a000000000000000000000000000000000000000000000000000000000815260040161070d90614631565b60405180910390fd5b6001600581111561072a5761072961427b565b5b6003600083815260200190815260200160002060000160009054906101000a900460ff1660058111156107605761075f61427b565b5b146107a0576040517f08c379a0000000000000000000000000000000000000000000000000000000008152600401610797906146c3565b60405180910390fd5b60026003600083815260200190815260200160002060000160006101000a81548160ff021916908360058111156107da576107d961427b565b5b02179055506107e761383e565b6003600083815260200190815260200160002060080160006101000a81548173ffffffffffffffffffffffffffffffffffffffff021916908373ffffffffffffffffffffffffffffffffffffffff160217905550426003600083815260200190815260200160002060070181905550600061086061383e565b73ffffffffffffffffffffffffffffffffffffffff16600360008481526020019081526020016000206001015460405161089990614714565b60006040518083038185875af1925050503d80600081146108d6576040519150601f19603f3d011682016040523d82523d6000602084013e6108db565b606091505b505090508061091f576040517f08c379a000000000000000000000000000000000000000000000000000000000815260040161091690614775565b60405180910390fd5b5050565b600063150b7a0260e01b9050949350505050565b6001600061094361383e565b73ffffffffffffffffffffffffffffffffffffffff1673ffffffffffffffffffffffffffffffffffffffff16815260200190815260200160002060000160009054906101000a900460ff1660048111156109a05761099f61427b565b5b600160048111156109b4576109b361427b565b5b146109f4576040517f08c379a00000000000000000000000000000000000000000000000000000000081526004016109eb90614631565b60405180910390fd5b60026005811115610a0857610a0761427b565b5b6003600085815260200190815260200160002060000160009054906101000a900460ff166005811115610a3e57610a3d61427b565b5b14610a7e576040517f08c379a0000000000000000000000000000000000000000000000000000000008152600401610a7590614807565b60405180910390fd5b60006004811115610a9257610a9161427b565b5b6002600084815260200190815260200160002060010160009054906101000a900460ff166004811115610ac857610ac761427b565b5b14610b08576040517f08c379a0000000000000000000000000000000000000000000000000000000008152600401610aff90614899565b60405180910390fd5b426138406003600086815260200190815260200160002060070154610b2d91906148e8565b10610b6d576040517f08c379a0000000000000000000000000000000000000000000000000000000008152600401610b649061498e565b60405180910390fd5b3073ffffffffffffffffffffffffffffffffffffffff166003600085815260200190815260200160002060050160009054906101000a900473ffffffffffffffffffffffffffffffffffffffff1673ffffffffffffffffffffffffffffffffffffffff16636352211e60036000878152602001908152602001600020600401546040518263ffffffff1660e01b8152600401610c09919061431b565b602060405180830381865afa158015610c26573d6000803e3d6000fd5b505050506040513d601f19601f82011682018060405250810190610c4a91906149c3565b73ffffffffffffffffffffffffffffffffffffffff1614610ca0576040517f08c379a0000000000000000000000000000000000000000000000000000000008152600401610c9790614a62565b60405180910390fd5b60056003600085815260200190815260200160002060000160006101000a81548160ff02191690836005811115610cda57610cd961427b565b5b02179055506040518060e0016040528084815260200160016004811115610d0457610d0361427b565b5b81526020018273ffffffffffffffffffffffffffffffffffffffff168152602001600360008681526020019081526020016000206004015481526020016003600086815260200190815260200160002060050160009054906101000a900473ffffffffffffffffffffffffffffffffffffffff1673ffffffffffffffffffffffffffffffffffffffff168152602001428152602001610da161383e565b73ffffffffffffffffffffffffffffffffffffffff16815250600260008481526020019081526020016000206000820151816000015560208201518160010160006101000a81548160ff02191690836004811115610e0257610e0161427b565b5b021790555060408201518160010160016101000a81548173ffffffffffffffffffffffffffffffffffffffff021916908373ffffffffffffffffffffffffffffffffffffffff1602179055506060820151816002015560808201518160030160006101000a81548173ffffffffffffffffffffffffffffffffffffffff021916908373ffffffffffffffffffffffffffffffffffffffff16021790555060a0820151816004015560c08201518160050160006101000a81548173ffffffffffffffffffffffffffffffffffffffff021916908373ffffffffffffffffffffffffffffffffffffffff160217905550905050505050565b600860009054906101000a900473ffffffffffffffffffffffffffffffffffffffff1681565b7f000000000000000000000000000000000000000000000000000000000000000073ffffffffffffffffffffffffffffffffffffffff16610f5d613846565b73ffffffffffffffffffffffffffffffffffffffff1614610fb3576040517f08c379a0000000000000000000000000000000000000000000000000000000008152600401610faa90614af4565b60405180910390fd5b60008082806020019051810190610fca9190614bc3565b9150915080156116845760008060008060008087806020019051810190610ff19190614c97565b9550955095509550955095506000600260008881526020019081526020016000206040518060e0016040529081600082015481526020016001820160009054906101000a900460ff16600481111561104c5761104b61427b565b5b600481111561105e5761105d61427b565b5b81526020016001820160019054906101000a900473ffffffffffffffffffffffffffffffffffffffff1673ffffffffffffffffffffffffffffffffffffffff1673ffffffffffffffffffffffffffffffffffffffff168152602001600282015481526020016003820160009054906101000a900473ffffffffffffffffffffffffffffffffffffffff1673ffffffffffffffffffffffffffffffffffffffff1673ffffffffffffffffffffffffffffffffffffffff168152602001600482015481526020016005820160009054906101000a900473ffffffffffffffffffffffffffffffffffffffff1673ffffffffffffffffffffffffffffffffffffffff1673ffffffffffffffffffffffffffffffffffffffff168152505090506000600481111561118e5761118d61427b565b5b816020015160048111156111a5576111a461427b565b5b036111e5576040517f08c379a00000000000000000000000000000000000000000000000000000000081526004016111dc90614d96565b60405180910390fd5b426138408260a001516111f891906148e8565b11611238576040517f08c379a000000000000000000000000000000000000000000000000000000000815260040161122f90614e28565b60405180910390fd5b6002600581111561124c5761124b61427b565b5b86600581111561125f5761125e61427b565b5b14801561129b57508473ffffffffffffffffffffffffffffffffffffffff16816040015173ffffffffffffffffffffffffffffffffffffffff16145b80156112aa5750838160600151145b80156112e557508273ffffffffffffffffffffffffffffffffffffffff16816080015173ffffffffffffffffffffffffffffffffffffffff16145b801561132057508173ffffffffffffffffffffffffffffffffffffffff168160c0015173ffffffffffffffffffffffffffffffffffffffff16145b156114085760018160200190600481111561133e5761133d61427b565b5b908160048111156113525761135161427b565b5b8152505060018060008360c0015173ffffffffffffffffffffffffffffffffffffffff1673ffffffffffffffffffffffffffffffffffffffff16815260200190815260200160002060000160006101000a81548160ff021916908360048111156113bf576113be61427b565b5b021790555060006004600089815260200190815260200160002060000160146101000a81548160ff021916908360028111156113fe576113fd61427b565b5b0217905550611678565b6003816020019060048111156114215761142061427b565b5b908160048111156114355761143461427b565b5b815250506004600160008360c0015173ffffffffffffffffffffffffffffffffffffffff1673ffffffffffffffffffffffffffffffffffffffff16815260200190815260200160002060000160006101000a81548160ff021916908360048111156114a3576114a261427b565b5b02179055506002600360008360000151815260200190815260200160002060000160006101000a81548160ff021916908360058111156114e6576114e561427b565b5b0217905550600160028111156114ff576114fe61427b565b5b6004600089815260200190815260200160002060000160149054906101000a900460ff1660028111156115355761153461427b565b5b03611638576004600088815260200190815260200160002060000160009054906101000a900473ffffffffffffffffffffffffffffffffffffffff166005600089815260200190815260200160002060000160006101000a81548173ffffffffffffffffffffffffffffffffffffffff021916908373ffffffffffffffffffffffffffffffffffffffff16021790555060047f00000000000000000000000000000000000000000000000000000000000000006115f29190614e77565b7f000000000000000000000000000000000000000000000000000000000000000061161d91906148e8565b60056000898152602001908152602001600020600101819055505b60026004600089815260200190815260200160002060000160146101000a81548160ff021916908360028111156116725761167161427b565b5b02179055505b50505050505050611ccf565b6000806000806000806000888060200190518101906116a39190614ecd565b9650965096509650965096509650600060036000898152602001908152602001600020604051806101200160405290816000820160009054906101000a900460ff1660058111156116f7576116f661427b565b5b60058111156117095761170861427b565b5b8152602001600182015481526020016002820160009054906101000a900473ffffffffffffffffffffffffffffffffffffffff1673ffffffffffffffffffffffffffffffffffffffff1673ffffffffffffffffffffffffffffffffffffffff1681526020016003820160009054906101000a900473ffffffffffffffffffffffffffffffffffffffff1673ffffffffffffffffffffffffffffffffffffffff1673ffffffffffffffffffffffffffffffffffffffff168152602001600482015481526020016005820160009054906101000a900473ffffffffffffffffffffffffffffffffffffffff1673ffffffffffffffffffffffffffffffffffffffff1673ffffffffffffffffffffffffffffffffffffffff1681526020016006820160009054906101000a900473ffffffffffffffffffffffffffffffffffffffff1673ffffffffffffffffffffffffffffffffffffffff1673ffffffffffffffffffffffffffffffffffffffff168152602001600782015481526020016008820160009054906101000a900473ffffffffffffffffffffffffffffffffffffffff1673ffffffffffffffffffffffffffffffffffffffff1673ffffffffffffffffffffffffffffffffffffffff16815250509050600060058111156118ef576118ee61427b565b5b816000015160058111156119065761190561427b565b5b03611946576040517f08c379a000000000000000000000000000000000000000000000000000000000815260040161193d90614d96565b60405180910390fd5b426138408260e0015161195991906148e8565b10611999576040517f08c379a000000000000000000000000000000000000000000000000000000000815260040161199090614fe1565b60405180910390fd5b600360048111156119ad576119ac61427b565b5b8760048111156119c0576119bf61427b565b5b141580156119fd57508573ffffffffffffffffffffffffffffffffffffffff16816060015173ffffffffffffffffffffffffffffffffffffffff16145b8015611a0c5750848160800151145b8015611a4757508373ffffffffffffffffffffffffffffffffffffffff168160c0015173ffffffffffffffffffffffffffffffffffffffff16145b8015611a8357508273ffffffffffffffffffffffffffffffffffffffff1681610100015173ffffffffffffffffffffffffffffffffffffffff16145b15611ace576000611ac9576040517f08c379a0000000000000000000000000000000000000000000000000000000008152600401611ac090615073565b60405180910390fd5b611cc6565b600481600001906005811115611ae757611ae661427b565b5b90816005811115611afb57611afa61427b565b5b8152505060046001600083610100015173ffffffffffffffffffffffffffffffffffffffff1673ffffffffffffffffffffffffffffffffffffffff16815260200190815260200160002060000160006101000a81548160ff02191690836004811115611b6a57611b6961427b565b5b02179055508060a0015173ffffffffffffffffffffffffffffffffffffffff166342842e0e30836040015184608001516040518463ffffffff1660e01b8152600401611bb893929190615093565b600060405180830381600087803b158015611bd257600080fd5b505af1158015611be6573d6000803e3d6000fd5b5050505081600660008a815260200190815260200160002060000160006101000a81548173ffffffffffffffffffffffffffffffffffffffff021916908373ffffffffffffffffffffffffffffffffffffffff16021790555060047f0000000000000000000000000000000000000000000000000000000000000000611c6c9190614e77565b600660008a8152602001908152602001600020600101819055506002600460008a815260200190815260200160002060000160146101000a81548160ff02191690836002811115611cc057611cbf61427b565b5b02179055505b50505050505050505b505050565b60003411611d17576040517f08c379a0000000000000000000000000000000000000000000000000000000008152600401611d0e9061513c565b60405180910390fd5b8073ffffffffffffffffffffffffffffffffffffffff166342842e0e3330856040518463ffffffff1660e01b8152600401611d5493929190615093565b600060405180830381600087803b158015611d6e57600080fd5b505af1158015611d82573d6000803e3d6000fd5b5050505060405180610120016040528060016005811115611da657611da561427b565b5b8152602001348152602001611db961383e565b73ffffffffffffffffffffffffffffffffffffffff1681526020018473ffffffffffffffffffffffffffffffffffffffff1681526020018381526020018273ffffffffffffffffffffffffffffffffffffffff168152602001600860009054906101000a900473ffffffffffffffffffffffffffffffffffffffff1673ffffffffffffffffffffffffffffffffffffffff16631d1c2af4846040518263ffffffff1660e01b8152600401611e6d91906140f7565b602060405180830381865afa158015611e8a573d6000803e3d6000fd5b505050506040513d601f19601f82011682018060405250810190611eae91906149c3565b73ffffffffffffffffffffffffffffffffffffffff16815260200160008152602001600073ffffffffffffffffffffffffffffffffffffffff1681525060036000611ef96007613855565b815260200190815260200160002060008201518160000160006101000a81548160ff02191690836005811115611f3257611f3161427b565b5b02179055506020820151816001015560408201518160020160006101000a81548173ffffffffffffffffffffffffffffffffffffffff021916908373ffffffffffffffffffffffffffffffffffffffff16021790555060608201518160030160006101000a81548173ffffffffffffffffffffffffffffffffffffffff021916908373ffffffffffffffffffffffffffffffffffffffff1602179055506080820151816004015560a08201518160050160006101000a81548173ffffffffffffffffffffffffffffffffffffffff021916908373ffffffffffffffffffffffffffffffffffffffff16021790555060c08201518160060160006101000a81548173ffffffffffffffffffffffffffffffffffffffff021916908373ffffffffffffffffffffffffffffffffffffffff16021790555060e082015181600701556101008201518160080160006101000a81548173ffffffffffffffffffffffffffffffffffffffff021916908373ffffffffffffffffffffffffffffffffffffffff1602179055509050506120c66007613863565b505050565b80156122de576006600083815260200190815260200160002060020160009054906101000a900460ff1615612135576040517f08c379a000000000000000000000000000000000000000000000000000000000815260040161212c906151ce565b60405180910390fd5b61213d61383e565b73ffffffffffffffffffffffffffffffffffffffff166006600084815260200190815260200160002060000160009054906101000a900473ffffffffffffffffffffffffffffffffffffffff1673ffffffffffffffffffffffffffffffffffffffff16146121e0576040517f08c379a00000000000000000000000000000000000000000000000000000000081526004016121d790615260565b60405180910390fd5b60016006600084815260200190815260200160002060020160006101000a81548160ff021916908315150217905550600061221961383e565b73ffffffffffffffffffffffffffffffffffffffff16600660008581526020019081526020016000206001015460405161225290614714565b60006040518083038185875af1925050503d806000811461228f576040519150601f19603f3d011682016040523d82523d6000602084013e612294565b606091505b50509050806122d8576040517f08c379a00000000000000000000000000000000000000000000000000000000081526004016122cf90614775565b60405180910390fd5b506124e7565b6005600083815260200190815260200160002060020160009054906101000a900460ff1615612342576040517f08c379a0000000000000000000000000000000000000000000000000000000008152600401612339906151ce565b60405180910390fd5b61234a61383e565b73ffffffffffffffffffffffffffffffffffffffff166005600084815260200190815260200160002060000160009054906101000a900473ffffffffffffffffffffffffffffffffffffffff1673ffffffffffffffffffffffffffffffffffffffff16146123ed576040517f08c379a00000000000000000000000000000000000000000000000000000000081526004016123e490615260565b60405180910390fd5b60016005600084815260200190815260200160002060020160006101000a81548160ff021916908315150217905550600061242661383e565b73ffffffffffffffffffffffffffffffffffffffff16600560008581526020019081526020016000206001015460405161245f90614714565b60006040518083038185875af1925050503d806000811461249c576040519150601f19603f3d011682016040523d82523d6000602084013e6124a1565b606091505b50509050806124e5576040517f08c379a00000000000000000000000000000000000000000000000000000000081526004016124dc90614775565b60405180910390fd5b505b5050565b60066020528060005260406000206000915090508060000160009054906101000a900473ffffffffffffffffffffffffffffffffffffffff16908060010154908060020160009054906101000a900460ff16905083565b60046020528060005260406000206000915090508060000160009054906101000a900473ffffffffffffffffffffffffffffffffffffffff16908060000160149054906101000a900460ff16905082565b7f000000000000000000000000000000000000000000000000000000000000000081565b60016020528060005260406000206000915090508060000160009054906101000a900460ff16908060010154908060020154905083565b6125f6613879565b61260060006138f7565b565b61260b816139bb565b50565b6001600061261a61383e565b73ffffffffffffffffffffffffffffffffffffffff1673ffffffffffffffffffffffffffffffffffffffff16815260200190815260200160002060000160009054906101000a900460ff1660048111156126775761267661427b565b5b6002600481111561268b5761268a61427b565b5b146126cb576040517f08c379a00000000000000000000000000000000000000000000000000000000081526004016126c2906152f2565b60405180910390fd5b7f0000000000000000000000000000000000000000000000000000000000000000600160006126f861383e565b73ffffffffffffffffffffffffffffffffffffffff1673ffffffffffffffffffffffffffffffffffffffff1681526020019081526020016000206001015461274091906148e8565b4211612781576040517f08c379a000000000000000000000000000000000000000000000000000000000815260040161277890615384565b60405180910390fd5b600061278b61383e565b73ffffffffffffffffffffffffffffffffffffffff167f00000000000000000000000000000000000000000000000000000000000000006040516127ce90614714565b60006040518083038185875af1925050503d806000811461280b576040519150601f19603f3d011682016040523d82523d6000602084013e612810565b606091505b5050905080612854576040517f08c379a000000000000000000000000000000000000000000000000000000000815260040161284b90614775565b60405180910390fd5b60006001600061286261383e565b73ffffffffffffffffffffffffffffffffffffffff1673ffffffffffffffffffffffffffffffffffffffff16815260200190815260200160002060000160006101000a81548160ff021916908360048111156128c1576128c061427b565b5b021790555050565b60008060009054906101000a900473ffffffffffffffffffffffffffffffffffffffff16905090565b60026020528060005260406000206000915090508060000154908060010160009054906101000a900460ff16908060010160019054906101000a900473ffffffffffffffffffffffffffffffffffffffff16908060020154908060030160009054906101000a900473ffffffffffffffffffffffffffffffffffffffff16908060040154908060050160009054906101000a900473ffffffffffffffffffffffffffffffffffffffff16905087565b8115612c4957600060036000838152602001908152602001600020604051806101200160405290816000820160009054906101000a900460ff1660058111156129ed576129ec61427b565b5b60058111156129ff576129fe61427b565b5b8152602001600182015481526020016002820160009054906101000a900473ffffffffffffffffffffffffffffffffffffffff1673ffffffffffffffffffffffffffffffffffffffff1673ffffffffffffffffffffffffffffffffffffffff1681526020016003820160009054906101000a900473ffffffffffffffffffffffffffffffffffffffff1673ffffffffffffffffffffffffffffffffffffffff1673ffffffffffffffffffffffffffffffffffffffff168152602001600482015481526020016005820160009054906101000a900473ffffffffffffffffffffffffffffffffffffffff1673ffffffffffffffffffffffffffffffffffffffff1673ffffffffffffffffffffffffffffffffffffffff1681526020016006820160009054906101000a900473ffffffffffffffffffffffffffffffffffffffff1673ffffffffffffffffffffffffffffffffffffffff1673ffffffffffffffffffffffffffffffffffffffff168152602001600782015481526020016008820160009054906101000a900473ffffffffffffffffffffffffffffffffffffffff1673ffffffffffffffffffffffffffffffffffffffff1673ffffffffffffffffffffffffffffffffffffffff168152505090506000828260000151836060015184608001518560c00151866101000151604051602001612c03969594939291906153a4565b6040516020818303038152906040529050806001604051602001612c2892919061545a565b6040516020818303038152906040529050612c4281613d13565b5050612edd565b426138406002600084815260200190815260200160002060040154612c6e91906148e8565b10612cae576040517f08c379a0000000000000000000000000000000000000000000000000000000008152600401612ca5906154fc565b60405180910390fd5b6000600260008381526020019081526020016000206040518060e0016040529081600082015481526020016001820160009054906101000a900460ff166004811115612cfd57612cfc61427b565b5b6004811115612d0f57612d0e61427b565b5b81526020016001820160019054906101000a900473ffffffffffffffffffffffffffffffffffffffff1673ffffffffffffffffffffffffffffffffffffffff1673ffffffffffffffffffffffffffffffffffffffff168152602001600282015481526020016003820160009054906101000a900473ffffffffffffffffffffffffffffffffffffffff1673ffffffffffffffffffffffffffffffffffffffff1673ffffffffffffffffffffffffffffffffffffffff168152602001600482015481526020016005820160009054906101000a900473ffffffffffffffffffffffffffffffffffffffff1673ffffffffffffffffffffffffffffffffffffffff1673ffffffffffffffffffffffffffffffffffffffff16815250509050600082826020015183604001518460600151600360008760000151815260200190815260200160002060060160009054906101000a900473ffffffffffffffffffffffffffffffffffffffff168660c00151612e8561383e565b604051602001612e9b979695949392919061551c565b6040516020818303038152906040529050806000604051602001612ec092919061545a565b6040516020818303038152906040529050612eda81613d13565b50505b5050565b60056020528060005260406000206000915090508060000160009054906101000a900473ffffffffffffffffffffffffffffffffffffffff16908060010154908060020160009054906101000a900460ff16905083565b565b7f000000000000000000000000000000000000000000000000000000000000000081565b60016000612f6a61383e565b73ffffffffffffffffffffffffffffffffffffffff1673ffffffffffffffffffffffffffffffffffffffff16815260200190815260200160002060000160009054906101000a900460ff166004811115612fc757612fc661427b565b5b60006004811115612fdb57612fda61427b565b5b1461301b576040517f08c379a0000000000000000000000000000000000000000000000000000000008152600401613012906155fd565b60405180910390fd5b7f0000000000000000000000000000000000000000000000000000000000000000341461307d576040517f08c379a00000000000000000000000000000000000000000000000000000000081526004016130749061568f565b60405180910390fd5b600180600061308a61383e565b73ffffffffffffffffffffffffffffffffffffffff1673ffffffffffffffffffffffffffffffffffffffff16815260200190815260200160002060000160006101000a81548160ff021916908360048111156130e9576130e861427b565b5b021790555034600160006130fb61383e565b73ffffffffffffffffffffffffffffffffffffffff1673ffffffffffffffffffffffffffffffffffffffff16815260200190815260200160002060020181905550565b60078060000154905081565b6001600061315661383e565b73ffffffffffffffffffffffffffffffffffffffff1673ffffffffffffffffffffffffffffffffffffffff16815260200190815260200160002060000160009054906101000a900460ff1660048111156131b3576131b261427b565b5b600160048111156131c7576131c661427b565b5b14613207576040517f08c379a00000000000000000000000000000000000000000000000000000000081526004016131fe90614631565b60405180910390fd5b60026001600061321561383e565b73ffffffffffffffffffffffffffffffffffffffff1673ffffffffffffffffffffffffffffffffffffffff16815260200190815260200160002060000160006101000a81548160ff021916908360048111156132745761327361427b565b5b0217905550426001600061328661383e565b73ffffffffffffffffffffffffffffffffffffffff1673ffffffffffffffffffffffffffffffffffffffff16815260200190815260200160002060010181905550565b6132d1613879565b600073ffffffffffffffffffffffffffffffffffffffff168173ffffffffffffffffffffffffffffffffffffffff1603613340576040517f08c379a000000000000000000000000000000000000000000000000000000000815260040161333790615721565b60405180910390fd5b613349816138f7565b50565b60036020528060005260406000206000915090508060000160009054906101000a900460ff16908060010154908060020160009054906101000a900473ffffffffffffffffffffffffffffffffffffffff16908060030160009054906101000a900473ffffffffffffffffffffffffffffffffffffffff16908060040154908060050160009054906101000a900473ffffffffffffffffffffffffffffffffffffffff16908060060160009054906101000a900473ffffffffffffffffffffffffffffffffffffffff16908060070154908060080160009054906101000a900473ffffffffffffffffffffffffffffffffffffffff16905089565b7f000000000000000000000000000000000000000000000000000000000000000081565b7f000000000000000000000000000000000000000000000000000000000000000081565b6000600260008381526020019081526020016000206040518060e0016040529081600082015481526020016001820160009054906101000a900460ff1660048111156134de576134dd61427b565b5b60048111156134f0576134ef61427b565b5b81526020016001820160019054906101000a900473ffffffffffffffffffffffffffffffffffffffff1673ffffffffffffffffffffffffffffffffffffffff1673ffffffffffffffffffffffffffffffffffffffff168152602001600282015481526020016003820160009054906101000a900473ffffffffffffffffffffffffffffffffffffffff1673ffffffffffffffffffffffffffffffffffffffff1673ffffffffffffffffffffffffffffffffffffffff168152602001600482015481526020016005820160009054906101000a900473ffffffffffffffffffffffffffffffffffffffff1673ffffffffffffffffffffffffffffffffffffffff1673ffffffffffffffffffffffffffffffffffffffff16815250509050600160048111156136205761361f61427b565b5b816020015160048111156136375761363661427b565b5b14613677576040517f08c379a000000000000000000000000000000000000000000000000000000000815260040161366e906157b3565b60405180910390fd5b426138408260a0015161368a91906148e8565b106136ca576040517f08c379a00000000000000000000000000000000000000000000000000000000081526004016136c19061498e565b60405180910390fd5b6136d261383e565b73ffffffffffffffffffffffffffffffffffffffff16816040015173ffffffffffffffffffffffffffffffffffffffff1614613743576040517f08c379a000000000000000000000000000000000000000000000000000000000815260040161373a90615845565b60405180910390fd5b60048160200190600481111561375c5761375b61427b565b5b908160048111156137705761376f61427b565b5b81525050600360006002600085815260200190815260200160002060000154815260200190815260200160002060050160009054906101000a900473ffffffffffffffffffffffffffffffffffffffff1673ffffffffffffffffffffffffffffffffffffffff166342842e0e306137e561383e565b84606001516040518463ffffffff1660e01b815260040161380893929190615093565b600060405180830381600087803b15801561382257600080fd5b505af1158015613836573d6000803e3d6000fd5b505050505050565b600033905090565b600061385061383e565b905090565b600081600001549050919050565b6001816000016000828254019250508190555050565b61388161383e565b73ffffffffffffffffffffffffffffffffffffffff1661389f6128c9565b73ffffffffffffffffffffffffffffffffffffffff16146138f5576040517f08c379a00000000000000000000000000000000000000000000000000000000081526004016138ec906158b1565b60405180910390fd5b565b60008060009054906101000a900473ffffffffffffffffffffffffffffffffffffffff169050816000806101000a81548173ffffffffffffffffffffffffffffffffffffffff021916908373ffffffffffffffffffffffffffffffffffffffff1602179055508173ffffffffffffffffffffffffffffffffffffffff168173ffffffffffffffffffffffffffffffffffffffff167f8be0079c531659141344cd1fd0a4f28419497f9722a3daafe3b4186f6b6457e060405160405180910390a35050565b7f00000000000000000000000000000000000000000000000000000000000000003414613a1d576040517f08c379a0000000000000000000000000000000000000000000000000000000008152600401613a1490615943565b60405180910390fd5b60016004811115613a3157613a3061427b565b5b6002600083815260200190815260200160002060010160009054906101000a900460ff166004811115613a6757613a6661427b565b5b14613aa7576040517f08c379a0000000000000000000000000000000000000000000000000000000008152600401613a9e906159d5565b60405180910390fd5b426138406002600084815260200190815260200160002060040154613acc91906148e8565b11613b0c576040517f08c379a0000000000000000000000000000000000000000000000000000000008152600401613b0390615a67565b60405180910390fd5b60006002811115613b2057613b1f61427b565b5b6004600083815260200190815260200160002060000160149054906101000a900460ff166002811115613b5657613b5561427b565b5b14613b96576040517f08c379a0000000000000000000000000000000000000000000000000000000008152600401613b8d90615af9565b60405180910390fd5b600280600083815260200190815260200160002060010160006101000a81548160ff02191690836004811115613bcf57613bce61427b565b5b0217905550613bdc61383e565b6004600083815260200190815260200160002060000160006101000a81548173ffffffffffffffffffffffffffffffffffffffff021916908373ffffffffffffffffffffffffffffffffffffffff16021790555060016004600083815260200190815260200160002060000160146101000a81548160ff02191690836002811115613c6a57613c6961427b565b5b02179055506003600160006002600085815260200190815260200160002060050160009054906101000a900473ffffffffffffffffffffffffffffffffffffffff1673ffffffffffffffffffffffffffffffffffffffff1673ffffffffffffffffffffffffffffffffffffffff16815260200190815260200160002060000160006101000a81548160ff02191690836004811115613d0b57613d0a61427b565b5b021790555050565b7f000000000000000000000000000000000000000000000000000000000000000073ffffffffffffffffffffffffffffffffffffffff16634ff746f6826040518263ffffffff1660e01b8152600401613d6c9190615b19565b600060405180830381600087803b158015613d8657600080fd5b505af1158015613d9a573d6000803e3d6000fd5b5050505050565b6000604051905090565b600080fd5b600080fd5b6000819050919050565b613dc881613db5565b8114613dd357600080fd5b50565b600081359050613de581613dbf565b92915050565b600060208284031215613e0157613e00613dab565b5b6000613e0f84828501613dd6565b91505092915050565b600073ffffffffffffffffffffffffffffffffffffffff82169050919050565b6000613e4382613e18565b9050919050565b613e5381613e38565b8114613e5e57600080fd5b50565b600081359050613e7081613e4a565b92915050565b600080fd5b600080fd5b6000601f19601f8301169050919050565b7f4e487b7100000000000000000000000000000000000000000000000000000000600052604160045260246000fd5b613ec982613e80565b810181811067ffffffffffffffff82111715613ee857613ee7613e91565b5b80604052505050565b6000613efb613da1565b9050613f078282613ec0565b919050565b600067ffffffffffffffff821115613f2757613f26613e91565b5b613f3082613e80565b9050602081019050919050565b82818337600083830152505050565b6000613f5f613f5a84613f0c565b613ef1565b905082815260208101848484011115613f7b57613f7a613e7b565b5b613f86848285613f3d565b509392505050565b600082601f830112613fa357613fa2613e76565b5b8135613fb3848260208601613f4c565b91505092915050565b60008060008060808587031215613fd657613fd5613dab565b5b6000613fe487828801613e61565b9450506020613ff587828801613e61565b935050604061400687828801613dd6565b925050606085013567ffffffffffffffff81111561402757614026613db0565b5b61403387828801613f8e565b91505092959194509250565b60007fffffffff0000000000000000000000000000000000000000000000000000000082169050919050565b6140748161403f565b82525050565b600060208201905061408f600083018461406b565b92915050565b6000806000606084860312156140ae576140ad613dab565b5b60006140bc86828701613dd6565b93505060206140cd86828701613dd6565b92505060406140de86828701613e61565b9150509250925092565b6140f181613e38565b82525050565b600060208201905061410c60008301846140e8565b92915050565b60006020828403121561412857614127613dab565b5b600082013567ffffffffffffffff81111561414657614145613db0565b5b61415284828501613f8e565b91505092915050565b60008060006060848603121561417457614173613dab565b5b600061418286828701613e61565b935050602061419386828701613dd6565b92505060406141a486828701613e61565b9150509250925092565b60008115159050919050565b6141c3816141ae565b81146141ce57600080fd5b50565b6000813590506141e0816141ba565b92915050565b600080604083850312156141fd576141fc613dab565b5b600061420b85828601613dd6565b925050602061421c858286016141d1565b9150509250929050565b61422f81613db5565b82525050565b61423e816141ae565b82525050565b600060608201905061425960008301866140e8565b6142666020830185614226565b6142736040830184614235565b949350505050565b7f4e487b7100000000000000000000000000000000000000000000000000000000600052602160045260246000fd5b600381106142bb576142ba61427b565b5b50565b60008190506142cc826142aa565b919050565b60006142dc826142be565b9050919050565b6142ec816142d1565b82525050565b600060408201905061430760008301856140e8565b61431460208301846142e3565b9392505050565b60006020820190506143306000830184614226565b92915050565b60006020828403121561434c5761434b613dab565b5b600061435a84828501613e61565b91505092915050565b600581106143745761437361427b565b5b50565b600081905061438582614363565b919050565b600061439582614377565b9050919050565b6143a58161438a565b82525050565b60006060820190506143c0600083018661439c565b6143cd6020830185614226565b6143da6040830184614226565b949350505050565b600581106143f3576143f261427b565b5b50565b6000819050614404826143e2565b919050565b6000614414826143f6565b9050919050565b61442481614409565b82525050565b600060e08201905061443f600083018a614226565b61444c602083018961441b565b61445960408301886140e8565b6144666060830187614226565b61447360808301866140e8565b61448060a0830185614226565b61448d60c08301846140e8565b98975050505050505050565b600080604083850312156144b0576144af613dab565b5b60006144be858286016141d1565b92505060206144cf85828601613dd6565b9150509250929050565b600681106144ea576144e961427b565b5b50565b60008190506144fb826144d9565b919050565b600061450b826144ed565b9050919050565b61451b81614500565b82525050565b600061012082019050614537600083018c614512565b614544602083018b614226565b614551604083018a6140e8565b61455e60608301896140e8565b61456b6080830188614226565b61457860a08301876140e8565b61458560c08301866140e8565b61459260e0830185614226565b6145a06101008301846140e8565b9a9950505050505050505050565b600082825260208201905092915050565b7f53706f6b654272696467653a2063616c6c6572206973206e6f7420612072656c60008201527f6179657221000000000000000000000000000000000000000000000000000000602082015250565b600061461b6025836145ae565b9150614626826145bf565b604082019050919050565b6000602082019050818103600083015261464a8161460e565b9050919050565b7f53706f6b654272696467653a2062696420646f6573206e6f742068617665204360008201527f7265617465642073746174650000000000000000000000000000000000000000602082015250565b60006146ad602c836145ae565b91506146b882614651565b604082019050919050565b600060208201905081810360008301526146dc816146a0565b9050919050565b600081905092915050565b50565b60006146fe6000836146e3565b9150614709826146ee565b600082019050919050565b600061471f826146f1565b9150819050919050565b7f4661696c656420746f2073656e64204574686572000000000000000000000000600082015250565b600061475f6014836145ae565b915061476a82614729565b602082019050919050565b6000602082019050818103600083015261478e81614752565b9050919050565b7f53726353706f6b654272696467653a20746865206f7574676f696e672062696460008201527f206973206e6f7420626f75676874210000000000000000000000000000000000602082015250565b60006147f1602f836145ae565b91506147fc82614795565b604082019050919050565b60006020820190508181036000830152614820816147e4565b9050919050565b7f53726353706f6b654272696467653a20746865726520697320616e20696e636f60008201527f6d696e67206269642077697468207468652073616d6520696421000000000000602082015250565b6000614883603a836145ae565b915061488e82614827565b604082019050919050565b600060208201905081810360008301526148b281614876565b9050919050565b7f4e487b7100000000000000000000000000000000000000000000000000000000600052601160045260246000fd5b60006148f382613db5565b91506148fe83613db5565b9250828201905080821115614916576149156148b9565b5b92915050565b7f53726353706f6b654272696467653a20746865206368616c6c656e67696e672060008201527f706572696f64206973206e6f7420657870697265642079657421000000000000602082015250565b6000614978603a836145ae565b91506149838261491c565b604082019050919050565b600060208201905081810360008301526149a78161496b565b9050919050565b6000815190506149bd81613e4a565b92915050565b6000602082840312156149d9576149d8613dab565b5b60006149e7848285016149ae565b91505092915050565b7f53726353706f6b654272696467653a207468657265206973206e6f206c6f636b60008201527f656420746f6b656e210000000000000000000000000000000000000000000000602082015250565b6000614a4c6029836145ae565b9150614a57826149f0565b604082019050919050565b60006020820190508181036000830152614a7b81614a3f565b9050919050565b7f53706f6b654272696467653a2063616c6c6572206973206e6f7420746865206860008201527f7562210000000000000000000000000000000000000000000000000000000000602082015250565b6000614ade6023836145ae565b9150614ae982614a82565b604082019050919050565b60006020820190508181036000830152614b0d81614ad1565b9050919050565b60005b83811015614b32578082015181840152602081019050614b17565b60008484015250505050565b6000614b51614b4c84613f0c565b613ef1565b905082815260208101848484011115614b6d57614b6c613e7b565b5b614b78848285614b14565b509392505050565b600082601f830112614b9557614b94613e76565b5b8151614ba5848260208601614b3e565b91505092915050565b600081519050614bbd816141ba565b92915050565b60008060408385031215614bda57614bd9613dab565b5b600083015167ffffffffffffffff811115614bf857614bf7613db0565b5b614c0485828601614b80565b9250506020614c1585828601614bae565b9150509250929050565b600081519050614c2e81613dbf565b92915050565b60068110614c4157600080fd5b50565b600081519050614c5381614c34565b92915050565b6000614c6482613e18565b9050919050565b614c7481614c59565b8114614c7f57600080fd5b50565b600081519050614c9181614c6b565b92915050565b60008060008060008060c08789031215614cb457614cb3613dab565b5b6000614cc289828a01614c1f565b9650506020614cd389828a01614c44565b9550506040614ce489828a01614c82565b9450506060614cf589828a01614c1f565b9350506080614d0689828a01614c82565b92505060a0614d1789828a01614c82565b9150509295509295509295565b7f53726353706f6b654272646967653a205468657265206973206e6f20636f727260008201527f6573706f6e64696e67206c6f63616c2062696421000000000000000000000000602082015250565b6000614d806034836145ae565b9150614d8b82614d24565b604082019050919050565b60006020820190508181036000830152614daf81614d73565b9050919050565b7f53726353706f6b654272696467653a2054696d652077696e646f77206973206560008201527f7870697265642100000000000000000000000000000000000000000000000000602082015250565b6000614e126027836145ae565b9150614e1d82614db6565b604082019050919050565b60006020820190508181036000830152614e4181614e05565b9050919050565b7f4e487b7100000000000000000000000000000000000000000000000000000000600052601260045260246000fd5b6000614e8282613db5565b9150614e8d83613db5565b925082614e9d57614e9c614e48565b5b828204905092915050565b60058110614eb557600080fd5b50565b600081519050614ec781614ea8565b92915050565b600080600080600080600060e0888a031215614eec57614eeb613dab565b5b6000614efa8a828b01614c1f565b9750506020614f0b8a828b01614eb8565b9650506040614f1c8a828b01614c82565b9550506060614f2d8a828b01614c1f565b9450506080614f3e8a828b01614c82565b93505060a0614f4f8a828b01614c82565b92505060c0614f608a828b01614c82565b91505092959891949750929550565b7f53726353706f6b654272696467653a2054696d652077696e646f77206973206e60008201527f6f74206578706972656421000000000000000000000000000000000000000000602082015250565b6000614fcb602b836145ae565b9150614fd682614f6f565b604082019050919050565b60006020820190508181036000830152614ffa81614fbe565b9050919050565b7f53726353706f6b654272696467653a2046616c7365206368616c6c656e67696e60008201527f6721000000000000000000000000000000000000000000000000000000000000602082015250565b600061505d6022836145ae565b915061506882615001565b604082019050919050565b6000602082019050818103600083015261508c81615050565b9050919050565b60006060820190506150a860008301866140e8565b6150b560208301856140e8565b6150c26040830184614226565b949350505050565b7f53726353706f6b654272696467653a207468657265206973206e6f206665652060008201527f666f722072656c61796572732100000000000000000000000000000000000000602082015250565b6000615126602d836145ae565b9150615131826150ca565b604082019050919050565b6000602082019050818103600083015261515581615119565b9050919050565b7f53706f6b654272696467653a2072657761726420697320616c7265616479206360008201527f6c61696d65642100000000000000000000000000000000000000000000000000602082015250565b60006151b86027836145ae565b91506151c38261515c565b604082019050919050565b600060208201905081810360008301526151e7816151ab565b9050919050565b7f53706f6b654272696467653a206368616c6c656e676572206973206e6f74207460008201527f68652073656e6465722100000000000000000000000000000000000000000000602082015250565b600061524a602a836145ae565b9150615255826151ee565b604082019050919050565b600060208201905081810360008301526152798161523d565b9050919050565b7f53706f6b654272696467653a2063616c6c6572206973206e6f7420696e20756e60008201527f6465706f73697465642073746174652100000000000000000000000000000000602082015250565b60006152dc6030836145ae565b91506152e782615280565b604082019050919050565b6000602082019050818103600083015261530b816152cf565b9050919050565b7f53706f6b654272696467653a20322064617973206973206e6f7420657870697260008201527f65642066726f6d2074686520756e6465706f736974696e672100000000000000602082015250565b600061536e6039836145ae565b915061537982615312565b604082019050919050565b6000602082019050818103600083015261539d81615361565b9050919050565b600060c0820190506153b96000830189614226565b6153c66020830188614512565b6153d360408301876140e8565b6153e06060830186614226565b6153ed60808301856140e8565b6153fa60a08301846140e8565b979650505050505050565b600081519050919050565b600082825260208201905092915050565b600061542c82615405565b6154368185615410565b9350615446818560208601614b14565b61544f81613e80565b840191505092915050565b600060408201905081810360008301526154748185615421565b90506154836020830184614235565b9392505050565b7f53726353706f6b654272696467653a20746f6f206561726c7920746f2073656e60008201527f642070726f6f6621000000000000000000000000000000000000000000000000602082015250565b60006154e66028836145ae565b91506154f18261548a565b604082019050919050565b60006020820190508181036000830152615515816154d9565b9050919050565b600060e082019050615531600083018a614226565b61553e602083018961441b565b61554b60408301886140e8565b6155586060830187614226565b61556560808301866140e8565b61557260a08301856140e8565b61557f60c08301846140e8565b98975050505050505050565b7f53706f6b654272696467653a2063616c6c65722063616e6e6f7420626520612060008201527f72656c6179657221000000000000000000000000000000000000000000000000602082015250565b60006155e76028836145ae565b91506155f28261558b565b604082019050919050565b60006020820190508181036000830152615616816155da565b9050919050565b7f53706f6b654272696467653a206d73672e76616c7565206973206e6f7420617060008201527f70726f7072696174652100000000000000000000000000000000000000000000602082015250565b6000615679602a836145ae565b91506156848261561d565b604082019050919050565b600060208201905081810360008301526156a88161566c565b9050919050565b7f4f776e61626c653a206e6577206f776e657220697320746865207a65726f206160008201527f6464726573730000000000000000000000000000000000000000000000000000602082015250565b600061570b6026836145ae565b9150615716826156af565b604082019050919050565b6000602082019050818103600083015261573a816156fe565b9050919050565b7f53726353706f6b6542726964653a20696e636f6d696e6720626964206861732060008201527f6e6f2052656c6179656420737461746521000000000000000000000000000000602082015250565b600061579d6031836145ae565b91506157a882615741565b604082019050919050565b600060208201905081810360008301526157cc81615790565b9050919050565b7f53726353706f6b654272696467653a20636c61696d6572206973206e6f74207460008201527f6865206f776e6572210000000000000000000000000000000000000000000000602082015250565b600061582f6029836145ae565b915061583a826157d3565b604082019050919050565b6000602082019050818103600083015261585e81615822565b9050919050565b7f4f776e61626c653a2063616c6c6572206973206e6f7420746865206f776e6572600082015250565b600061589b6020836145ae565b91506158a682615865565b602082019050919050565b600060208201905081810360008301526158ca8161588e565b9050919050565b7f53706f6b654272696467653a204e6f20656e6f75676820616d6f756e74206f6660008201527f2045544820746f207374616b6521000000000000000000000000000000000000602082015250565b600061592d602e836145ae565b9150615938826158d1565b604082019050919050565b6000602082019050818103600083015261595c81615920565b9050919050565b7f53706f6b654272696467653a20436f72726573706f6e64696e6720696e636f6d60008201527f696e672062696420737461747573206973206e6f742072656c61796564210000602082015250565b60006159bf603e836145ae565b91506159ca82615963565b604082019050919050565b600060208201905081810360008301526159ee816159b2565b9050919050565b7f53706f6b654272696467653a20546865206469737075746520706572696f642060008201527f6973206578706972656421000000000000000000000000000000000000000000602082015250565b6000615a51602b836145ae565b9150615a5c826159f5565b604082019050919050565b60006020820190508181036000830152615a8081615a44565b9050919050565b7f53706f6b654272696467653a2062696420697320616c7265616479206368616c60008201527f6c656e6765642100000000000000000000000000000000000000000000000000602082015250565b6000615ae36027836145ae565b9150615aee82615a87565b604082019050919050565b60006020820190508181036000830152615b1281615ad6565b9050919050565b60006020820190508181036000830152615b338184615421565b90509291505056fea2646970667358221220a593d55b3ecd2efb19be7270265e1b54aa675759605fe3b0c1f5c1deb316bf1f64736f6c63430008120033","opcodes":"PUSH2 0x100 PUSH1 0x40 MSTORE CALLVALUE DUP1 ISZERO PUSH3 0x12 JUMPI PUSH1 0x0 DUP1 REVERT JUMPDEST POP PUSH1 0x40 MLOAD PUSH3 0x5E6E CODESIZE SUB DUP1 PUSH3 0x5E6E DUP4 CODECOPY DUP2 DUP2 ADD PUSH1 0x40 MSTORE DUP2 ADD SWAP1 PUSH3 0x38 SWAP2 SWAP1 PUSH3 0x23D JUMP JUMPDEST DUP1 DUP3 DUP1 PUSH3 0x5B PUSH3 0x4F PUSH3 0x107 PUSH1 0x20 SHL PUSH1 0x20 SHR JUMP JUMPDEST PUSH3 0x10F PUSH1 0x20 SHL PUSH1 0x20 SHR JUMP JUMPDEST DUP1 PUSH20 0xFFFFFFFFFFFFFFFFFFFFFFFFFFFFFFFFFFFFFFFF AND PUSH1 0xE0 DUP2 PUSH20 0xFFFFFFFFFFFFFFFFFFFFFFFFFFFFFFFFFFFFFFFF AND DUP2 MSTORE POP POP PUSH9 0x1158E460913D00000 PUSH1 0x80 DUP2 DUP2 MSTORE POP POP PUSH8 0x8AC7230489E80000 PUSH1 0xA0 DUP2 DUP2 MSTORE POP POP PUSH3 0x2A300 PUSH1 0xC0 DUP2 DUP2 MSTORE POP POP POP DUP2 PUSH1 0x8 PUSH1 0x0 PUSH2 0x100 EXP DUP2 SLOAD DUP2 PUSH20 0xFFFFFFFFFFFFFFFFFFFFFFFFFFFFFFFFFFFFFFFF MUL NOT AND SWAP1 DUP4 PUSH20 0xFFFFFFFFFFFFFFFFFFFFFFFFFFFFFFFFFFFFFFFF AND MUL OR SWAP1 SSTORE POP POP POP POP POP PUSH3 0x284 JUMP JUMPDEST PUSH1 0x0 CALLER SWAP1 POP SWAP1 JUMP JUMPDEST PUSH1 0x0 DUP1 PUSH1 0x0 SWAP1 SLOAD SWAP1 PUSH2 0x100 EXP SWAP1 DIV PUSH20 0xFFFFFFFFFFFFFFFFFFFFFFFFFFFFFFFFFFFFFFFF AND SWAP1 POP DUP2 PUSH1 0x0 DUP1 PUSH2 0x100 EXP DUP2 SLOAD DUP2 PUSH20 0xFFFFFFFFFFFFFFFFFFFFFFFFFFFFFFFFFFFFFFFF MUL NOT AND SWAP1 DUP4 PUSH20 0xFFFFFFFFFFFFFFFFFFFFFFFFFFFFFFFFFFFFFFFF AND MUL OR SWAP1 SSTORE POP DUP2 PUSH20 0xFFFFFFFFFFFFFFFFFFFFFFFFFFFFFFFFFFFFFFFF AND DUP2 PUSH20 0xFFFFFFFFFFFFFFFFFFFFFFFFFFFFFFFFFFFFFFFF AND PUSH32 0x8BE0079C531659141344CD1FD0A4F28419497F9722A3DAAFE3B4186F6B6457E0 PUSH1 0x40 MLOAD PUSH1 0x40 MLOAD DUP1 SWAP2 SUB SWAP1 LOG3 POP POP JUMP JUMPDEST PUSH1 0x0 DUP1 REVERT JUMPDEST PUSH1 0x0 PUSH20 0xFFFFFFFFFFFFFFFFFFFFFFFFFFFFFFFFFFFFFFFF DUP3 AND SWAP1 POP SWAP2 SWAP1 POP JUMP JUMPDEST PUSH1 0x0 PUSH3 0x205 DUP3 PUSH3 0x1D8 JUMP JUMPDEST SWAP1 POP SWAP2 SWAP1 POP JUMP JUMPDEST PUSH3 0x217 DUP2 PUSH3 0x1F8 JUMP JUMPDEST DUP2 EQ PUSH3 0x223 JUMPI PUSH1 0x0 DUP1 REVERT JUMPDEST POP JUMP JUMPDEST PUSH1 0x0 DUP2 MLOAD SWAP1 POP PUSH3 0x237 DUP2 PUSH3 0x20C JUMP JUMPDEST SWAP3 SWAP2 POP POP JUMP JUMPDEST PUSH1 0x0 DUP1 PUSH1 0x40 DUP4 DUP6 SUB SLT ISZERO PUSH3 0x257 JUMPI PUSH3 0x256 PUSH3 0x1D3 JUMP JUMPDEST JUMPDEST PUSH1 0x0 PUSH3 0x267 DUP6 DUP3 DUP7 ADD PUSH3 0x226 JUMP JUMPDEST SWAP3 POP POP PUSH1 0x20 PUSH3 0x27A DUP6 DUP3 DUP7 ADD PUSH3 0x226 JUMP JUMPDEST SWAP2 POP POP SWAP3 POP SWAP3 SWAP1 POP JUMP JUMPDEST PUSH1 0x80 MLOAD PUSH1 0xA0 MLOAD PUSH1 0xC0 MLOAD PUSH1 0xE0 MLOAD PUSH2 0x5B71 PUSH3 0x2FD PUSH1 0x0 CODECOPY PUSH1 0x0 DUP2 DUP2 PUSH2 0xF20 ADD MSTORE DUP2 DUP2 PUSH2 0x2F3C ADD MSTORE PUSH2 0x3D15 ADD MSTORE PUSH1 0x0 DUP2 DUP2 PUSH2 0x2595 ADD MSTORE PUSH2 0x26CD ADD MSTORE PUSH1 0x0 DUP2 DUP2 PUSH2 0x15F4 ADD MSTORE DUP2 DUP2 PUSH2 0x3449 ADD MSTORE PUSH2 0x39BD ADD MSTORE PUSH1 0x0 DUP2 DUP2 PUSH2 0x15C9 ADD MSTORE DUP2 DUP2 PUSH2 0x1C43 ADD MSTORE DUP2 DUP2 PUSH2 0x27A3 ADD MSTORE DUP2 DUP2 PUSH2 0x301D ADD MSTORE PUSH2 0x346D ADD MSTORE PUSH2 0x5B71 PUSH1 0x0 RETURN INVALID PUSH1 0x80 PUSH1 0x40 MSTORE PUSH1 0x4 CALLDATASIZE LT PUSH2 0x1B7 JUMPI PUSH1 0x0 CALLDATALOAD PUSH1 0xE0 SHR DUP1 PUSH4 0x8DA5CB5B GT PUSH2 0xEC JUMPI DUP1 PUSH4 0xAF640D0F GT PUSH2 0x8A JUMPI DUP1 PUSH4 0xF3786979 GT PUSH2 0x64 JUMPI DUP1 PUSH4 0xF3786979 EQ PUSH2 0x595 JUMPI DUP1 PUSH4 0xF8840CF7 EQ PUSH2 0x5DA JUMPI DUP1 PUSH4 0xFAF5625F EQ PUSH2 0x605 JUMPI DUP1 PUSH4 0xFE5C873A EQ PUSH2 0x630 JUMPI PUSH2 0x1B7 JUMP JUMPDEST DUP1 PUSH4 0xAF640D0F EQ PUSH2 0x52A JUMPI DUP1 PUSH4 0xBE7226AD EQ PUSH2 0x555 JUMPI DUP1 PUSH4 0xF2FDE38B EQ PUSH2 0x56C JUMPI PUSH2 0x1B7 JUMP JUMPDEST DUP1 PUSH4 0x9C3709D9 GT PUSH2 0xC6 JUMPI DUP1 PUSH4 0x9C3709D9 EQ PUSH2 0x4AC JUMPI DUP1 PUSH4 0xA3E76C0F EQ PUSH2 0x4EB JUMPI DUP1 PUSH4 0xA4C52B86 EQ PUSH2 0x4F5 JUMPI DUP1 PUSH4 0xA50EC326 EQ PUSH2 0x520 JUMPI PUSH2 0x1B7 JUMP JUMPDEST DUP1 PUSH4 0x8DA5CB5B EQ PUSH2 0x415 JUMPI DUP1 PUSH4 0x8DF99E90 EQ PUSH2 0x440 JUMPI DUP1 PUSH4 0x9123E475 EQ PUSH2 0x483 JUMPI PUSH2 0x1B7 JUMP JUMPDEST DUP1 PUSH4 0x3BB984F4 GT PUSH2 0x159 JUMPI DUP1 PUSH4 0x5300F841 GT PUSH2 0x133 JUMPI DUP1 PUSH4 0x5300F841 EQ PUSH2 0x38C JUMPI DUP1 PUSH4 0x715018A6 EQ PUSH2 0x3CB JUMPI DUP1 PUSH4 0x7A965756 EQ PUSH2 0x3E2 JUMPI DUP1 PUSH4 0x7BE6F7A7 EQ PUSH2 0x3FE JUMPI PUSH2 0x1B7 JUMP JUMPDEST DUP1 PUSH4 0x3BB984F4 EQ PUSH2 0x2E4 JUMPI DUP1 PUSH4 0x4D642623 EQ PUSH2 0x323 JUMPI DUP1 PUSH4 0x529E720A EQ PUSH2 0x361 JUMPI PUSH2 0x1B7 JUMP JUMPDEST DUP1 PUSH4 0x1D2F3682 GT PUSH2 0x195 JUMPI DUP1 PUSH4 0x1D2F3682 EQ PUSH2 0x24B JUMPI DUP1 PUSH4 0x24BD801B EQ PUSH2 0x276 JUMPI DUP1 PUSH4 0x34F507B8 EQ PUSH2 0x29F JUMPI DUP1 PUSH4 0x3A5D0410 EQ PUSH2 0x2BB JUMPI PUSH2 0x1B7 JUMP JUMPDEST DUP1 PUSH4 0x4EF2396 EQ PUSH2 0x1BC JUMPI DUP1 PUSH4 0x150B7A02 EQ PUSH2 0x1E5 JUMPI DUP1 PUSH4 0x1B392FBD EQ PUSH2 0x222 JUMPI JUMPDEST PUSH1 0x0 DUP1 REVERT JUMPDEST CALLVALUE DUP1 ISZERO PUSH2 0x1C8 JUMPI PUSH1 0x0 DUP1 REVERT JUMPDEST POP PUSH2 0x1E3 PUSH1 0x4 DUP1 CALLDATASIZE SUB DUP2 ADD SWAP1 PUSH2 0x1DE SWAP2 SWAP1 PUSH2 0x3DEB JUMP JUMPDEST PUSH2 0x659 JUMP JUMPDEST STOP JUMPDEST CALLVALUE DUP1 ISZERO PUSH2 0x1F1 JUMPI PUSH1 0x0 DUP1 REVERT JUMPDEST POP PUSH2 0x20C PUSH1 0x4 DUP1 CALLDATASIZE SUB DUP2 ADD SWAP1 PUSH2 0x207 SWAP2 SWAP1 PUSH2 0x3FBC JUMP JUMPDEST PUSH2 0x923 JUMP JUMPDEST PUSH1 0x40 MLOAD PUSH2 0x219 SWAP2 SWAP1 PUSH2 0x407A JUMP JUMPDEST PUSH1 0x40 MLOAD DUP1 SWAP2 SUB SWAP1 RETURN JUMPDEST CALLVALUE DUP1 ISZERO PUSH2 0x22E JUMPI PUSH1 0x0 DUP1 REVERT JUMPDEST POP PUSH2 0x249 PUSH1 0x4 DUP1 CALLDATASIZE SUB DUP2 ADD SWAP1 PUSH2 0x244 SWAP2 SWAP1 PUSH2 0x4095 JUMP JUMPDEST PUSH2 0x937 JUMP JUMPDEST STOP JUMPDEST CALLVALUE DUP1 ISZERO PUSH2 0x257 JUMPI PUSH1 0x0 DUP1 REVERT JUMPDEST POP PUSH2 0x260 PUSH2 0xEF8 JUMP JUMPDEST PUSH1 0x40 MLOAD PUSH2 0x26D SWAP2 SWAP1 PUSH2 0x40F7 JUMP JUMPDEST PUSH1 0x40 MLOAD DUP1 SWAP2 SUB SWAP1 RETURN JUMPDEST CALLVALUE DUP1 ISZERO PUSH2 0x282 JUMPI PUSH1 0x0 DUP1 REVERT JUMPDEST POP PUSH2 0x29D PUSH1 0x4 DUP1 CALLDATASIZE SUB DUP2 ADD SWAP1 PUSH2 0x298 SWAP2 SWAP1 PUSH2 0x4112 JUMP JUMPDEST PUSH2 0xF1E JUMP JUMPDEST STOP JUMPDEST PUSH2 0x2B9 PUSH1 0x4 DUP1 CALLDATASIZE SUB DUP2 ADD SWAP1 PUSH2 0x2B4 SWAP2 SWAP1 PUSH2 0x415B JUMP JUMPDEST PUSH2 0x1CD4 JUMP JUMPDEST STOP JUMPDEST CALLVALUE DUP1 ISZERO PUSH2 0x2C7 JUMPI PUSH1 0x0 DUP1 REVERT JUMPDEST POP PUSH2 0x2E2 PUSH1 0x4 DUP1 CALLDATASIZE SUB DUP2 ADD SWAP1 PUSH2 0x2DD SWAP2 SWAP1 PUSH2 0x41E6 JUMP JUMPDEST PUSH2 0x20CB JUMP JUMPDEST STOP JUMPDEST CALLVALUE DUP1 ISZERO PUSH2 0x2F0 JUMPI PUSH1 0x0 DUP1 REVERT JUMPDEST POP PUSH2 0x30B PUSH1 0x4 DUP1 CALLDATASIZE SUB DUP2 ADD SWAP1 PUSH2 0x306 SWAP2 SWAP1 PUSH2 0x3DEB JUMP JUMPDEST PUSH2 0x24EB JUMP JUMPDEST PUSH1 0x40 MLOAD PUSH2 0x31A SWAP4 SWAP3 SWAP2 SWAP1 PUSH2 0x4244 JUMP JUMPDEST PUSH1 0x40 MLOAD DUP1 SWAP2 SUB SWAP1 RETURN JUMPDEST CALLVALUE DUP1 ISZERO PUSH2 0x32F JUMPI PUSH1 0x0 DUP1 REVERT JUMPDEST POP PUSH2 0x34A PUSH1 0x4 DUP1 CALLDATASIZE SUB DUP2 ADD SWAP1 PUSH2 0x345 SWAP2 SWAP1 PUSH2 0x3DEB JUMP JUMPDEST PUSH2 0x2542 JUMP JUMPDEST PUSH1 0x40 MLOAD PUSH2 0x358 SWAP3 SWAP2 SWAP1 PUSH2 0x42F2 JUMP JUMPDEST PUSH1 0x40 MLOAD DUP1 SWAP2 SUB SWAP1 RETURN JUMPDEST CALLVALUE DUP1 ISZERO PUSH2 0x36D JUMPI PUSH1 0x0 DUP1 REVERT JUMPDEST POP PUSH2 0x376 PUSH2 0x2593 JUMP JUMPDEST PUSH1 0x40 MLOAD PUSH2 0x383 SWAP2 SWAP1 PUSH2 0x431B JUMP JUMPDEST PUSH1 0x40 MLOAD DUP1 SWAP2 SUB SWAP1 RETURN JUMPDEST CALLVALUE DUP1 ISZERO PUSH2 0x398 JUMPI PUSH1 0x0 DUP1 REVERT JUMPDEST POP PUSH2 0x3B3 PUSH1 0x4 DUP1 CALLDATASIZE SUB DUP2 ADD SWAP1 PUSH2 0x3AE SWAP2 SWAP1 PUSH2 0x4336 JUMP JUMPDEST PUSH2 0x25B7 JUMP JUMPDEST PUSH1 0x40 MLOAD PUSH2 0x3C2 SWAP4 SWAP3 SWAP2 SWAP1 PUSH2 0x43AB JUMP JUMPDEST PUSH1 0x40 MLOAD DUP1 SWAP2 SUB SWAP1 RETURN JUMPDEST CALLVALUE DUP1 ISZERO PUSH2 0x3D7 JUMPI PUSH1 0x0 DUP1 REVERT JUMPDEST POP PUSH2 0x3E0 PUSH2 0x25EE JUMP JUMPDEST STOP JUMPDEST PUSH2 0x3FC PUSH1 0x4 DUP1 CALLDATASIZE SUB DUP2 ADD SWAP1 PUSH2 0x3F7 SWAP2 SWAP1 PUSH2 0x3DEB JUMP JUMPDEST PUSH2 0x2602 JUMP JUMPDEST STOP JUMPDEST CALLVALUE DUP1 ISZERO PUSH2 0x40A JUMPI PUSH1 0x0 DUP1 REVERT JUMPDEST POP PUSH2 0x413 PUSH2 0x260E JUMP JUMPDEST STOP JUMPDEST CALLVALUE DUP1 ISZERO PUSH2 0x421 JUMPI PUSH1 0x0 DUP1 REVERT JUMPDEST POP PUSH2 0x42A PUSH2 0x28C9 JUMP JUMPDEST PUSH1 0x40 MLOAD PUSH2 0x437 SWAP2 SWAP1 PUSH2 0x40F7 JUMP JUMPDEST PUSH1 0x40 MLOAD DUP1 SWAP2 SUB SWAP1 RETURN JUMPDEST CALLVALUE DUP1 ISZERO PUSH2 0x44C JUMPI PUSH1 0x0 DUP1 REVERT JUMPDEST POP PUSH2 0x467 PUSH1 0x4 DUP1 CALLDATASIZE SUB DUP2 ADD SWAP1 PUSH2 0x462 SWAP2 SWAP1 PUSH2 0x3DEB JUMP JUMPDEST PUSH2 0x28F2 JUMP JUMPDEST PUSH1 0x40 MLOAD PUSH2 0x47A SWAP8 SWAP7 SWAP6 SWAP5 SWAP4 SWAP3 SWAP2 SWAP1 PUSH2 0x442A JUMP JUMPDEST PUSH1 0x40 MLOAD DUP1 SWAP2 SUB SWAP1 RETURN JUMPDEST CALLVALUE DUP1 ISZERO PUSH2 0x48F JUMPI PUSH1 0x0 DUP1 REVERT JUMPDEST POP PUSH2 0x4AA PUSH1 0x4 DUP1 CALLDATASIZE SUB DUP2 ADD SWAP1 PUSH2 0x4A5 SWAP2 SWAP1 PUSH2 0x4499 JUMP JUMPDEST PUSH2 0x29A1 JUMP JUMPDEST STOP JUMPDEST CALLVALUE DUP1 ISZERO PUSH2 0x4B8 JUMPI PUSH1 0x0 DUP1 REVERT JUMPDEST POP PUSH2 0x4D3 PUSH1 0x4 DUP1 CALLDATASIZE SUB DUP2 ADD SWAP1 PUSH2 0x4CE SWAP2 SWAP1 PUSH2 0x3DEB JUMP JUMPDEST PUSH2 0x2EE1 JUMP JUMPDEST PUSH1 0x40 MLOAD PUSH2 0x4E2 SWAP4 SWAP3 SWAP2 SWAP1 PUSH2 0x4244 JUMP JUMPDEST PUSH1 0x40 MLOAD DUP1 SWAP2 SUB SWAP1 RETURN JUMPDEST PUSH2 0x4F3 PUSH2 0x2F38 JUMP JUMPDEST STOP JUMPDEST CALLVALUE DUP1 ISZERO PUSH2 0x501 JUMPI PUSH1 0x0 DUP1 REVERT JUMPDEST POP PUSH2 0x50A PUSH2 0x2F3A JUMP JUMPDEST PUSH1 0x40 MLOAD PUSH2 0x517 SWAP2 SWAP1 PUSH2 0x40F7 JUMP JUMPDEST PUSH1 0x40 MLOAD DUP1 SWAP2 SUB SWAP1 RETURN JUMPDEST PUSH2 0x528 PUSH2 0x2F5E JUMP JUMPDEST STOP JUMPDEST CALLVALUE DUP1 ISZERO PUSH2 0x536 JUMPI PUSH1 0x0 DUP1 REVERT JUMPDEST POP PUSH2 0x53F PUSH2 0x313E JUMP JUMPDEST PUSH1 0x40 MLOAD PUSH2 0x54C SWAP2 SWAP1 PUSH2 0x431B JUMP JUMPDEST PUSH1 0x40 MLOAD DUP1 SWAP2 SUB SWAP1 RETURN JUMPDEST CALLVALUE DUP1 ISZERO PUSH2 0x561 JUMPI PUSH1 0x0 DUP1 REVERT JUMPDEST POP PUSH2 0x56A PUSH2 0x314A JUMP JUMPDEST STOP JUMPDEST CALLVALUE DUP1 ISZERO PUSH2 0x578 JUMPI PUSH1 0x0 DUP1 REVERT JUMPDEST POP PUSH2 0x593 PUSH1 0x4 DUP1 CALLDATASIZE SUB DUP2 ADD SWAP1 PUSH2 0x58E SWAP2 SWAP1 PUSH2 0x4336 JUMP JUMPDEST PUSH2 0x32C9 JUMP JUMPDEST STOP JUMPDEST CALLVALUE DUP1 ISZERO PUSH2 0x5A1 JUMPI PUSH1 0x0 DUP1 REVERT JUMPDEST POP PUSH2 0x5BC PUSH1 0x4 DUP1 CALLDATASIZE SUB DUP2 ADD SWAP1 PUSH2 0x5B7 SWAP2 SWAP1 PUSH2 0x3DEB JUMP JUMPDEST PUSH2 0x334C JUMP JUMPDEST PUSH1 0x40 MLOAD PUSH2 0x5D1 SWAP10 SWAP9 SWAP8 SWAP7 SWAP6 SWAP5 SWAP4 SWAP3 SWAP2 SWAP1 PUSH2 0x4521 JUMP JUMPDEST PUSH1 0x40 MLOAD DUP1 SWAP2 SUB SWAP1 RETURN JUMPDEST CALLVALUE DUP1 ISZERO PUSH2 0x5E6 JUMPI PUSH1 0x0 DUP1 REVERT JUMPDEST POP PUSH2 0x5EF PUSH2 0x3447 JUMP JUMPDEST PUSH1 0x40 MLOAD PUSH2 0x5FC SWAP2 SWAP1 PUSH2 0x431B JUMP JUMPDEST PUSH1 0x40 MLOAD DUP1 SWAP2 SUB SWAP1 RETURN JUMPDEST CALLVALUE DUP1 ISZERO PUSH2 0x611 JUMPI PUSH1 0x0 DUP1 REVERT JUMPDEST POP PUSH2 0x61A PUSH2 0x346B JUMP JUMPDEST PUSH1 0x40 MLOAD PUSH2 0x627 SWAP2 SWAP1 PUSH2 0x431B JUMP JUMPDEST PUSH1 0x40 MLOAD DUP1 SWAP2 SUB SWAP1 RETURN JUMPDEST CALLVALUE DUP1 ISZERO PUSH2 0x63C JUMPI PUSH1 0x0 DUP1 REVERT JUMPDEST POP PUSH2 0x657 PUSH1 0x4 DUP1 CALLDATASIZE SUB DUP2 ADD SWAP1 PUSH2 0x652 SWAP2 SWAP1 PUSH2 0x3DEB JUMP JUMPDEST PUSH2 0x348F JUMP JUMPDEST STOP JUMPDEST PUSH1 0x1 PUSH1 0x0 PUSH2 0x665 PUSH2 0x383E JUMP JUMPDEST PUSH20 0xFFFFFFFFFFFFFFFFFFFFFFFFFFFFFFFFFFFFFFFF AND PUSH20 0xFFFFFFFFFFFFFFFFFFFFFFFFFFFFFFFFFFFFFFFF AND DUP2 MSTORE PUSH1 0x20 ADD SWAP1 DUP2 MSTORE PUSH1 0x20 ADD PUSH1 0x0 KECCAK256 PUSH1 0x0 ADD PUSH1 0x0 SWAP1 SLOAD SWAP1 PUSH2 0x100 EXP SWAP1 DIV PUSH1 0xFF AND PUSH1 0x4 DUP2 GT ISZERO PUSH2 0x6C2 JUMPI PUSH2 0x6C1 PUSH2 0x427B JUMP JUMPDEST JUMPDEST PUSH1 0x1 PUSH1 0x4 DUP2 GT ISZERO PUSH2 0x6D6 JUMPI PUSH2 0x6D5 PUSH2 0x427B JUMP JUMPDEST JUMPDEST EQ PUSH2 0x716 JUMPI PUSH1 0x40 MLOAD PUSH32 0x8C379A000000000000000000000000000000000000000000000000000000000 DUP2 MSTORE PUSH1 0x4 ADD PUSH2 0x70D SWAP1 PUSH2 0x4631 JUMP JUMPDEST PUSH1 0x40 MLOAD DUP1 SWAP2 SUB SWAP1 REVERT JUMPDEST PUSH1 0x1 PUSH1 0x5 DUP2 GT ISZERO PUSH2 0x72A JUMPI PUSH2 0x729 PUSH2 0x427B JUMP JUMPDEST JUMPDEST PUSH1 0x3 PUSH1 0x0 DUP4 DUP2 MSTORE PUSH1 0x20 ADD SWAP1 DUP2 MSTORE PUSH1 0x20 ADD PUSH1 0x0 KECCAK256 PUSH1 0x0 ADD PUSH1 0x0 SWAP1 SLOAD SWAP1 PUSH2 0x100 EXP SWAP1 DIV PUSH1 0xFF AND PUSH1 0x5 DUP2 GT ISZERO PUSH2 0x760 JUMPI PUSH2 0x75F PUSH2 0x427B JUMP JUMPDEST JUMPDEST EQ PUSH2 0x7A0 JUMPI PUSH1 0x40 MLOAD PUSH32 0x8C379A000000000000000000000000000000000000000000000000000000000 DUP2 MSTORE PUSH1 0x4 ADD PUSH2 0x797 SWAP1 PUSH2 0x46C3 JUMP JUMPDEST PUSH1 0x40 MLOAD DUP1 SWAP2 SUB SWAP1 REVERT JUMPDEST PUSH1 0x2 PUSH1 0x3 PUSH1 0x0 DUP4 DUP2 MSTORE PUSH1 0x20 ADD SWAP1 DUP2 MSTORE PUSH1 0x20 ADD PUSH1 0x0 KECCAK256 PUSH1 0x0 ADD PUSH1 0x0 PUSH2 0x100 EXP DUP2 SLOAD DUP2 PUSH1 0xFF MUL NOT AND SWAP1 DUP4 PUSH1 0x5 DUP2 GT ISZERO PUSH2 0x7DA JUMPI PUSH2 0x7D9 PUSH2 0x427B JUMP JUMPDEST JUMPDEST MUL OR SWAP1 SSTORE POP PUSH2 0x7E7 PUSH2 0x383E JUMP JUMPDEST PUSH1 0x3 PUSH1 0x0 DUP4 DUP2 MSTORE PUSH1 0x20 ADD SWAP1 DUP2 MSTORE PUSH1 0x20 ADD PUSH1 0x0 KECCAK256 PUSH1 0x8 ADD PUSH1 0x0 PUSH2 0x100 EXP DUP2 SLOAD DUP2 PUSH20 0xFFFFFFFFFFFFFFFFFFFFFFFFFFFFFFFFFFFFFFFF MUL NOT AND SWAP1 DUP4 PUSH20 0xFFFFFFFFFFFFFFFFFFFFFFFFFFFFFFFFFFFFFFFF AND MUL OR SWAP1 SSTORE POP TIMESTAMP PUSH1 0x3 PUSH1 0x0 DUP4 DUP2 MSTORE PUSH1 0x20 ADD SWAP1 DUP2 MSTORE PUSH1 0x20 ADD PUSH1 0x0 KECCAK256 PUSH1 0x7 ADD DUP2 SWAP1 SSTORE POP PUSH1 0x0 PUSH2 0x860 PUSH2 0x383E JUMP JUMPDEST PUSH20 0xFFFFFFFFFFFFFFFFFFFFFFFFFFFFFFFFFFFFFFFF AND PUSH1 0x3 PUSH1 0x0 DUP5 DUP2 MSTORE PUSH1 0x20 ADD SWAP1 DUP2 MSTORE PUSH1 0x20 ADD PUSH1 0x0 KECCAK256 PUSH1 0x1 ADD SLOAD PUSH1 0x40 MLOAD PUSH2 0x899 SWAP1 PUSH2 0x4714 JUMP JUMPDEST PUSH1 0x0 PUSH1 0x40 MLOAD DUP1 DUP4 SUB DUP2 DUP6 DUP8 GAS CALL SWAP3 POP POP POP RETURNDATASIZE DUP1 PUSH1 0x0 DUP2 EQ PUSH2 0x8D6 JUMPI PUSH1 0x40 MLOAD SWAP2 POP PUSH1 0x1F NOT PUSH1 0x3F RETURNDATASIZE ADD AND DUP3 ADD PUSH1 0x40 MSTORE RETURNDATASIZE DUP3 MSTORE RETURNDATASIZE PUSH1 0x0 PUSH1 0x20 DUP5 ADD RETURNDATACOPY PUSH2 0x8DB JUMP JUMPDEST PUSH1 0x60 SWAP2 POP JUMPDEST POP POP SWAP1 POP DUP1 PUSH2 0x91F JUMPI PUSH1 0x40 MLOAD PUSH32 0x8C379A000000000000000000000000000000000000000000000000000000000 DUP2 MSTORE PUSH1 0x4 ADD PUSH2 0x916 SWAP1 PUSH2 0x4775 JUMP JUMPDEST PUSH1 0x40 MLOAD DUP1 SWAP2 SUB SWAP1 REVERT JUMPDEST POP POP JUMP JUMPDEST PUSH1 0x0 PUSH4 0x150B7A02 PUSH1 0xE0 SHL SWAP1 POP SWAP5 SWAP4 POP POP POP POP JUMP JUMPDEST PUSH1 0x1 PUSH1 0x0 PUSH2 0x943 PUSH2 0x383E JUMP JUMPDEST PUSH20 0xFFFFFFFFFFFFFFFFFFFFFFFFFFFFFFFFFFFFFFFF AND PUSH20 0xFFFFFFFFFFFFFFFFFFFFFFFFFFFFFFFFFFFFFFFF AND DUP2 MSTORE PUSH1 0x20 ADD SWAP1 DUP2 MSTORE PUSH1 0x20 ADD PUSH1 0x0 KECCAK256 PUSH1 0x0 ADD PUSH1 0x0 SWAP1 SLOAD SWAP1 PUSH2 0x100 EXP SWAP1 DIV PUSH1 0xFF AND PUSH1 0x4 DUP2 GT ISZERO PUSH2 0x9A0 JUMPI PUSH2 0x99F PUSH2 0x427B JUMP JUMPDEST JUMPDEST PUSH1 0x1 PUSH1 0x4 DUP2 GT ISZERO PUSH2 0x9B4 JUMPI PUSH2 0x9B3 PUSH2 0x427B JUMP JUMPDEST JUMPDEST EQ PUSH2 0x9F4 JUMPI PUSH1 0x40 MLOAD PUSH32 0x8C379A000000000000000000000000000000000000000000000000000000000 DUP2 MSTORE PUSH1 0x4 ADD PUSH2 0x9EB SWAP1 PUSH2 0x4631 JUMP JUMPDEST PUSH1 0x40 MLOAD DUP1 SWAP2 SUB SWAP1 REVERT JUMPDEST PUSH1 0x2 PUSH1 0x5 DUP2 GT ISZERO PUSH2 0xA08 JUMPI PUSH2 0xA07 PUSH2 0x427B JUMP JUMPDEST JUMPDEST PUSH1 0x3 PUSH1 0x0 DUP6 DUP2 MSTORE PUSH1 0x20 ADD SWAP1 DUP2 MSTORE PUSH1 0x20 ADD PUSH1 0x0 KECCAK256 PUSH1 0x0 ADD PUSH1 0x0 SWAP1 SLOAD SWAP1 PUSH2 0x100 EXP SWAP1 DIV PUSH1 0xFF AND PUSH1 0x5 DUP2 GT ISZERO PUSH2 0xA3E JUMPI PUSH2 0xA3D PUSH2 0x427B JUMP JUMPDEST JUMPDEST EQ PUSH2 0xA7E JUMPI PUSH1 0x40 MLOAD PUSH32 0x8C379A000000000000000000000000000000000000000000000000000000000 DUP2 MSTORE PUSH1 0x4 ADD PUSH2 0xA75 SWAP1 PUSH2 0x4807 JUMP JUMPDEST PUSH1 0x40 MLOAD DUP1 SWAP2 SUB SWAP1 REVERT JUMPDEST PUSH1 0x0 PUSH1 0x4 DUP2 GT ISZERO PUSH2 0xA92 JUMPI PUSH2 0xA91 PUSH2 0x427B JUMP JUMPDEST JUMPDEST PUSH1 0x2 PUSH1 0x0 DUP5 DUP2 MSTORE PUSH1 0x20 ADD SWAP1 DUP2 MSTORE PUSH1 0x20 ADD PUSH1 0x0 KECCAK256 PUSH1 0x1 ADD PUSH1 0x0 SWAP1 SLOAD SWAP1 PUSH2 0x100 EXP SWAP1 DIV PUSH1 0xFF AND PUSH1 0x4 DUP2 GT ISZERO PUSH2 0xAC8 JUMPI PUSH2 0xAC7 PUSH2 0x427B JUMP JUMPDEST JUMPDEST EQ PUSH2 0xB08 JUMPI PUSH1 0x40 MLOAD PUSH32 0x8C379A000000000000000000000000000000000000000000000000000000000 DUP2 MSTORE PUSH1 0x4 ADD PUSH2 0xAFF SWAP1 PUSH2 0x4899 JUMP JUMPDEST PUSH1 0x40 MLOAD DUP1 SWAP2 SUB SWAP1 REVERT JUMPDEST TIMESTAMP PUSH2 0x3840 PUSH1 0x3 PUSH1 0x0 DUP7 DUP2 MSTORE PUSH1 0x20 ADD SWAP1 DUP2 MSTORE PUSH1 0x20 ADD PUSH1 0x0 KECCAK256 PUSH1 0x7 ADD SLOAD PUSH2 0xB2D SWAP2 SWAP1 PUSH2 0x48E8 JUMP JUMPDEST LT PUSH2 0xB6D JUMPI PUSH1 0x40 MLOAD PUSH32 0x8C379A000000000000000000000000000000000000000000000000000000000 DUP2 MSTORE PUSH1 0x4 ADD PUSH2 0xB64 SWAP1 PUSH2 0x498E JUMP JUMPDEST PUSH1 0x40 MLOAD DUP1 SWAP2 SUB SWAP1 REVERT JUMPDEST ADDRESS PUSH20 0xFFFFFFFFFFFFFFFFFFFFFFFFFFFFFFFFFFFFFFFF AND PUSH1 0x3 PUSH1 0x0 DUP6 DUP2 MSTORE PUSH1 0x20 ADD SWAP1 DUP2 MSTORE PUSH1 0x20 ADD PUSH1 0x0 KECCAK256 PUSH1 0x5 ADD PUSH1 0x0 SWAP1 SLOAD SWAP1 PUSH2 0x100 EXP SWAP1 DIV PUSH20 0xFFFFFFFFFFFFFFFFFFFFFFFFFFFFFFFFFFFFFFFF AND PUSH20 0xFFFFFFFFFFFFFFFFFFFFFFFFFFFFFFFFFFFFFFFF AND PUSH4 0x6352211E PUSH1 0x3 PUSH1 0x0 DUP8 DUP2 MSTORE PUSH1 0x20 ADD SWAP1 DUP2 MSTORE PUSH1 0x20 ADD PUSH1 0x0 KECCAK256 PUSH1 0x4 ADD SLOAD PUSH1 0x40 MLOAD DUP3 PUSH4 0xFFFFFFFF AND PUSH1 0xE0 SHL DUP2 MSTORE PUSH1 0x4 ADD PUSH2 0xC09 SWAP2 SWAP1 PUSH2 0x431B JUMP JUMPDEST PUSH1 0x20 PUSH1 0x40 MLOAD DUP1 DUP4 SUB DUP2 DUP7 GAS STATICCALL ISZERO DUP1 ISZERO PUSH2 0xC26 JUMPI RETURNDATASIZE PUSH1 0x0 DUP1 RETURNDATACOPY RETURNDATASIZE PUSH1 0x0 REVERT JUMPDEST POP POP POP POP PUSH1 0x40 MLOAD RETURNDATASIZE PUSH1 0x1F NOT PUSH1 0x1F DUP3 ADD AND DUP3 ADD DUP1 PUSH1 0x40 MSTORE POP DUP2 ADD SWAP1 PUSH2 0xC4A SWAP2 SWAP1 PUSH2 0x49C3 JUMP JUMPDEST PUSH20 0xFFFFFFFFFFFFFFFFFFFFFFFFFFFFFFFFFFFFFFFF AND EQ PUSH2 0xCA0 JUMPI PUSH1 0x40 MLOAD PUSH32 0x8C379A000000000000000000000000000000000000000000000000000000000 DUP2 MSTORE PUSH1 0x4 ADD PUSH2 0xC97 SWAP1 PUSH2 0x4A62 JUMP JUMPDEST PUSH1 0x40 MLOAD DUP1 SWAP2 SUB SWAP1 REVERT JUMPDEST PUSH1 0x5 PUSH1 0x3 PUSH1 0x0 DUP6 DUP2 MSTORE PUSH1 0x20 ADD SWAP1 DUP2 MSTORE PUSH1 0x20 ADD PUSH1 0x0 KECCAK256 PUSH1 0x0 ADD PUSH1 0x0 PUSH2 0x100 EXP DUP2 SLOAD DUP2 PUSH1 0xFF MUL NOT AND SWAP1 DUP4 PUSH1 0x5 DUP2 GT ISZERO PUSH2 0xCDA JUMPI PUSH2 0xCD9 PUSH2 0x427B JUMP JUMPDEST JUMPDEST MUL OR SWAP1 SSTORE POP PUSH1 0x40 MLOAD DUP1 PUSH1 0xE0 ADD PUSH1 0x40 MSTORE DUP1 DUP5 DUP2 MSTORE PUSH1 0x20 ADD PUSH1 0x1 PUSH1 0x4 DUP2 GT ISZERO PUSH2 0xD04 JUMPI PUSH2 0xD03 PUSH2 0x427B JUMP JUMPDEST JUMPDEST DUP2 MSTORE PUSH1 0x20 ADD DUP3 PUSH20 0xFFFFFFFFFFFFFFFFFFFFFFFFFFFFFFFFFFFFFFFF AND DUP2 MSTORE PUSH1 0x20 ADD PUSH1 0x3 PUSH1 0x0 DUP7 DUP2 MSTORE PUSH1 0x20 ADD SWAP1 DUP2 MSTORE PUSH1 0x20 ADD PUSH1 0x0 KECCAK256 PUSH1 0x4 ADD SLOAD DUP2 MSTORE PUSH1 0x20 ADD PUSH1 0x3 PUSH1 0x0 DUP7 DUP2 MSTORE PUSH1 0x20 ADD SWAP1 DUP2 MSTORE PUSH1 0x20 ADD PUSH1 0x0 KECCAK256 PUSH1 0x5 ADD PUSH1 0x0 SWAP1 SLOAD SWAP1 PUSH2 0x100 EXP SWAP1 DIV PUSH20 0xFFFFFFFFFFFFFFFFFFFFFFFFFFFFFFFFFFFFFFFF AND PUSH20 0xFFFFFFFFFFFFFFFFFFFFFFFFFFFFFFFFFFFFFFFF AND DUP2 MSTORE PUSH1 0x20 ADD TIMESTAMP DUP2 MSTORE PUSH1 0x20 ADD PUSH2 0xDA1 PUSH2 0x383E JUMP JUMPDEST PUSH20 0xFFFFFFFFFFFFFFFFFFFFFFFFFFFFFFFFFFFFFFFF AND DUP2 MSTORE POP PUSH1 0x2 PUSH1 0x0 DUP5 DUP2 MSTORE PUSH1 0x20 ADD SWAP1 DUP2 MSTORE PUSH1 0x20 ADD PUSH1 0x0 KECCAK256 PUSH1 0x0 DUP3 ADD MLOAD DUP2 PUSH1 0x0 ADD SSTORE PUSH1 0x20 DUP3 ADD MLOAD DUP2 PUSH1 0x1 ADD PUSH1 0x0 PUSH2 0x100 EXP DUP2 SLOAD DUP2 PUSH1 0xFF MUL NOT AND SWAP1 DUP4 PUSH1 0x4 DUP2 GT ISZERO PUSH2 0xE02 JUMPI PUSH2 0xE01 PUSH2 0x427B JUMP JUMPDEST JUMPDEST MUL OR SWAP1 SSTORE POP PUSH1 0x40 DUP3 ADD MLOAD DUP2 PUSH1 0x1 ADD PUSH1 0x1 PUSH2 0x100 EXP DUP2 SLOAD DUP2 PUSH20 0xFFFFFFFFFFFFFFFFFFFFFFFFFFFFFFFFFFFFFFFF MUL NOT AND SWAP1 DUP4 PUSH20 0xFFFFFFFFFFFFFFFFFFFFFFFFFFFFFFFFFFFFFFFF AND MUL OR SWAP1 SSTORE POP PUSH1 0x60 DUP3 ADD MLOAD DUP2 PUSH1 0x2 ADD SSTORE PUSH1 0x80 DUP3 ADD MLOAD DUP2 PUSH1 0x3 ADD PUSH1 0x0 PUSH2 0x100 EXP DUP2 SLOAD DUP2 PUSH20 0xFFFFFFFFFFFFFFFFFFFFFFFFFFFFFFFFFFFFFFFF MUL NOT AND SWAP1 DUP4 PUSH20 0xFFFFFFFFFFFFFFFFFFFFFFFFFFFFFFFFFFFFFFFF AND MUL OR SWAP1 SSTORE POP PUSH1 0xA0 DUP3 ADD MLOAD DUP2 PUSH1 0x4 ADD SSTORE PUSH1 0xC0 DUP3 ADD MLOAD DUP2 PUSH1 0x5 ADD PUSH1 0x0 PUSH2 0x100 EXP DUP2 SLOAD DUP2 PUSH20 0xFFFFFFFFFFFFFFFFFFFFFFFFFFFFFFFFFFFFFFFF MUL NOT AND SWAP1 DUP4 PUSH20 0xFFFFFFFFFFFFFFFFFFFFFFFFFFFFFFFFFFFFFFFF AND MUL OR SWAP1 SSTORE POP SWAP1 POP POP POP POP POP JUMP JUMPDEST PUSH1 0x8 PUSH1 0x0 SWAP1 SLOAD SWAP1 PUSH2 0x100 EXP SWAP1 DIV PUSH20 0xFFFFFFFFFFFFFFFFFFFFFFFFFFFFFFFFFFFFFFFF AND DUP2 JUMP JUMPDEST PUSH32 0x0 PUSH20 0xFFFFFFFFFFFFFFFFFFFFFFFFFFFFFFFFFFFFFFFF AND PUSH2 0xF5D PUSH2 0x3846 JUMP JUMPDEST PUSH20 0xFFFFFFFFFFFFFFFFFFFFFFFFFFFFFFFFFFFFFFFF AND EQ PUSH2 0xFB3 JUMPI PUSH1 0x40 MLOAD PUSH32 0x8C379A000000000000000000000000000000000000000000000000000000000 DUP2 MSTORE PUSH1 0x4 ADD PUSH2 0xFAA SWAP1 PUSH2 0x4AF4 JUMP JUMPDEST PUSH1 0x40 MLOAD DUP1 SWAP2 SUB SWAP1 REVERT JUMPDEST PUSH1 0x0 DUP1 DUP3 DUP1 PUSH1 0x20 ADD SWAP1 MLOAD DUP2 ADD SWAP1 PUSH2 0xFCA SWAP2 SWAP1 PUSH2 0x4BC3 JUMP JUMPDEST SWAP2 POP SWAP2 POP DUP1 ISZERO PUSH2 0x1684 JUMPI PUSH1 0x0 DUP1 PUSH1 0x0 DUP1 PUSH1 0x0 DUP1 DUP8 DUP1 PUSH1 0x20 ADD SWAP1 MLOAD DUP2 ADD SWAP1 PUSH2 0xFF1 SWAP2 SWAP1 PUSH2 0x4C97 JUMP JUMPDEST SWAP6 POP SWAP6 POP SWAP6 POP SWAP6 POP SWAP6 POP SWAP6 POP PUSH1 0x0 PUSH1 0x2 PUSH1 0x0 DUP9 DUP2 MSTORE PUSH1 0x20 ADD SWAP1 DUP2 MSTORE PUSH1 0x20 ADD PUSH1 0x0 KECCAK256 PUSH1 0x40 MLOAD DUP1 PUSH1 0xE0 ADD PUSH1 0x40 MSTORE SWAP1 DUP2 PUSH1 0x0 DUP3 ADD SLOAD DUP2 MSTORE PUSH1 0x20 ADD PUSH1 0x1 DUP3 ADD PUSH1 0x0 SWAP1 SLOAD SWAP1 PUSH2 0x100 EXP SWAP1 DIV PUSH1 0xFF AND PUSH1 0x4 DUP2 GT ISZERO PUSH2 0x104C JUMPI PUSH2 0x104B PUSH2 0x427B JUMP JUMPDEST JUMPDEST PUSH1 0x4 DUP2 GT ISZERO PUSH2 0x105E JUMPI PUSH2 0x105D PUSH2 0x427B JUMP JUMPDEST JUMPDEST DUP2 MSTORE PUSH1 0x20 ADD PUSH1 0x1 DUP3 ADD PUSH1 0x1 SWAP1 SLOAD SWAP1 PUSH2 0x100 EXP SWAP1 DIV PUSH20 0xFFFFFFFFFFFFFFFFFFFFFFFFFFFFFFFFFFFFFFFF AND PUSH20 0xFFFFFFFFFFFFFFFFFFFFFFFFFFFFFFFFFFFFFFFF AND PUSH20 0xFFFFFFFFFFFFFFFFFFFFFFFFFFFFFFFFFFFFFFFF AND DUP2 MSTORE PUSH1 0x20 ADD PUSH1 0x2 DUP3 ADD SLOAD DUP2 MSTORE PUSH1 0x20 ADD PUSH1 0x3 DUP3 ADD PUSH1 0x0 SWAP1 SLOAD SWAP1 PUSH2 0x100 EXP SWAP1 DIV PUSH20 0xFFFFFFFFFFFFFFFFFFFFFFFFFFFFFFFFFFFFFFFF AND PUSH20 0xFFFFFFFFFFFFFFFFFFFFFFFFFFFFFFFFFFFFFFFF AND PUSH20 0xFFFFFFFFFFFFFFFFFFFFFFFFFFFFFFFFFFFFFFFF AND DUP2 MSTORE PUSH1 0x20 ADD PUSH1 0x4 DUP3 ADD SLOAD DUP2 MSTORE PUSH1 0x20 ADD PUSH1 0x5 DUP3 ADD PUSH1 0x0 SWAP1 SLOAD SWAP1 PUSH2 0x100 EXP SWAP1 DIV PUSH20 0xFFFFFFFFFFFFFFFFFFFFFFFFFFFFFFFFFFFFFFFF AND PUSH20 0xFFFFFFFFFFFFFFFFFFFFFFFFFFFFFFFFFFFFFFFF AND PUSH20 0xFFFFFFFFFFFFFFFFFFFFFFFFFFFFFFFFFFFFFFFF AND DUP2 MSTORE POP POP SWAP1 POP PUSH1 0x0 PUSH1 0x4 DUP2 GT ISZERO PUSH2 0x118E JUMPI PUSH2 0x118D PUSH2 0x427B JUMP JUMPDEST JUMPDEST DUP2 PUSH1 0x20 ADD MLOAD PUSH1 0x4 DUP2 GT ISZERO PUSH2 0x11A5 JUMPI PUSH2 0x11A4 PUSH2 0x427B JUMP JUMPDEST JUMPDEST SUB PUSH2 0x11E5 JUMPI PUSH1 0x40 MLOAD PUSH32 0x8C379A000000000000000000000000000000000000000000000000000000000 DUP2 MSTORE PUSH1 0x4 ADD PUSH2 0x11DC SWAP1 PUSH2 0x4D96 JUMP JUMPDEST PUSH1 0x40 MLOAD DUP1 SWAP2 SUB SWAP1 REVERT JUMPDEST TIMESTAMP PUSH2 0x3840 DUP3 PUSH1 0xA0 ADD MLOAD PUSH2 0x11F8 SWAP2 SWAP1 PUSH2 0x48E8 JUMP JUMPDEST GT PUSH2 0x1238 JUMPI PUSH1 0x40 MLOAD PUSH32 0x8C379A000000000000000000000000000000000000000000000000000000000 DUP2 MSTORE PUSH1 0x4 ADD PUSH2 0x122F SWAP1 PUSH2 0x4E28 JUMP JUMPDEST PUSH1 0x40 MLOAD DUP1 SWAP2 SUB SWAP1 REVERT JUMPDEST PUSH1 0x2 PUSH1 0x5 DUP2 GT ISZERO PUSH2 0x124C JUMPI PUSH2 0x124B PUSH2 0x427B JUMP JUMPDEST JUMPDEST DUP7 PUSH1 0x5 DUP2 GT ISZERO PUSH2 0x125F JUMPI PUSH2 0x125E PUSH2 0x427B JUMP JUMPDEST JUMPDEST EQ DUP1 ISZERO PUSH2 0x129B JUMPI POP DUP5 PUSH20 0xFFFFFFFFFFFFFFFFFFFFFFFFFFFFFFFFFFFFFFFF AND DUP2 PUSH1 0x40 ADD MLOAD PUSH20 0xFFFFFFFFFFFFFFFFFFFFFFFFFFFFFFFFFFFFFFFF AND EQ JUMPDEST DUP1 ISZERO PUSH2 0x12AA JUMPI POP DUP4 DUP2 PUSH1 0x60 ADD MLOAD EQ JUMPDEST DUP1 ISZERO PUSH2 0x12E5 JUMPI POP DUP3 PUSH20 0xFFFFFFFFFFFFFFFFFFFFFFFFFFFFFFFFFFFFFFFF AND DUP2 PUSH1 0x80 ADD MLOAD PUSH20 0xFFFFFFFFFFFFFFFFFFFFFFFFFFFFFFFFFFFFFFFF AND EQ JUMPDEST DUP1 ISZERO PUSH2 0x1320 JUMPI POP DUP2 PUSH20 0xFFFFFFFFFFFFFFFFFFFFFFFFFFFFFFFFFFFFFFFF AND DUP2 PUSH1 0xC0 ADD MLOAD PUSH20 0xFFFFFFFFFFFFFFFFFFFFFFFFFFFFFFFFFFFFFFFF AND EQ JUMPDEST ISZERO PUSH2 0x1408 JUMPI PUSH1 0x1 DUP2 PUSH1 0x20 ADD SWAP1 PUSH1 0x4 DUP2 GT ISZERO PUSH2 0x133E JUMPI PUSH2 0x133D PUSH2 0x427B JUMP JUMPDEST JUMPDEST SWAP1 DUP2 PUSH1 0x4 DUP2 GT ISZERO PUSH2 0x1352 JUMPI PUSH2 0x1351 PUSH2 0x427B JUMP JUMPDEST JUMPDEST DUP2 MSTORE POP POP PUSH1 0x1 DUP1 PUSH1 0x0 DUP4 PUSH1 0xC0 ADD MLOAD PUSH20 0xFFFFFFFFFFFFFFFFFFFFFFFFFFFFFFFFFFFFFFFF AND PUSH20 0xFFFFFFFFFFFFFFFFFFFFFFFFFFFFFFFFFFFFFFFF AND DUP2 MSTORE PUSH1 0x20 ADD SWAP1 DUP2 MSTORE PUSH1 0x20 ADD PUSH1 0x0 KECCAK256 PUSH1 0x0 ADD PUSH1 0x0 PUSH2 0x100 EXP DUP2 SLOAD DUP2 PUSH1 0xFF MUL NOT AND SWAP1 DUP4 PUSH1 0x4 DUP2 GT ISZERO PUSH2 0x13BF JUMPI PUSH2 0x13BE PUSH2 0x427B JUMP JUMPDEST JUMPDEST MUL OR SWAP1 SSTORE POP PUSH1 0x0 PUSH1 0x4 PUSH1 0x0 DUP10 DUP2 MSTORE PUSH1 0x20 ADD SWAP1 DUP2 MSTORE PUSH1 0x20 ADD PUSH1 0x0 KECCAK256 PUSH1 0x0 ADD PUSH1 0x14 PUSH2 0x100 EXP DUP2 SLOAD DUP2 PUSH1 0xFF MUL NOT AND SWAP1 DUP4 PUSH1 0x2 DUP2 GT ISZERO PUSH2 0x13FE JUMPI PUSH2 0x13FD PUSH2 0x427B JUMP JUMPDEST JUMPDEST MUL OR SWAP1 SSTORE POP PUSH2 0x1678 JUMP JUMPDEST PUSH1 0x3 DUP2 PUSH1 0x20 ADD SWAP1 PUSH1 0x4 DUP2 GT ISZERO PUSH2 0x1421 JUMPI PUSH2 0x1420 PUSH2 0x427B JUMP JUMPDEST JUMPDEST SWAP1 DUP2 PUSH1 0x4 DUP2 GT ISZERO PUSH2 0x1435 JUMPI PUSH2 0x1434 PUSH2 0x427B JUMP JUMPDEST JUMPDEST DUP2 MSTORE POP POP PUSH1 0x4 PUSH1 0x1 PUSH1 0x0 DUP4 PUSH1 0xC0 ADD MLOAD PUSH20 0xFFFFFFFFFFFFFFFFFFFFFFFFFFFFFFFFFFFFFFFF AND PUSH20 0xFFFFFFFFFFFFFFFFFFFFFFFFFFFFFFFFFFFFFFFF AND DUP2 MSTORE PUSH1 0x20 ADD SWAP1 DUP2 MSTORE PUSH1 0x20 ADD PUSH1 0x0 KECCAK256 PUSH1 0x0 ADD PUSH1 0x0 PUSH2 0x100 EXP DUP2 SLOAD DUP2 PUSH1 0xFF MUL NOT AND SWAP1 DUP4 PUSH1 0x4 DUP2 GT ISZERO PUSH2 0x14A3 JUMPI PUSH2 0x14A2 PUSH2 0x427B JUMP JUMPDEST JUMPDEST MUL OR SWAP1 SSTORE POP PUSH1 0x2 PUSH1 0x3 PUSH1 0x0 DUP4 PUSH1 0x0 ADD MLOAD DUP2 MSTORE PUSH1 0x20 ADD SWAP1 DUP2 MSTORE PUSH1 0x20 ADD PUSH1 0x0 KECCAK256 PUSH1 0x0 ADD PUSH1 0x0 PUSH2 0x100 EXP DUP2 SLOAD DUP2 PUSH1 0xFF MUL NOT AND SWAP1 DUP4 PUSH1 0x5 DUP2 GT ISZERO PUSH2 0x14E6 JUMPI PUSH2 0x14E5 PUSH2 0x427B JUMP JUMPDEST JUMPDEST MUL OR SWAP1 SSTORE POP PUSH1 0x1 PUSH1 0x2 DUP2 GT ISZERO PUSH2 0x14FF JUMPI PUSH2 0x14FE PUSH2 0x427B JUMP JUMPDEST JUMPDEST PUSH1 0x4 PUSH1 0x0 DUP10 DUP2 MSTORE PUSH1 0x20 ADD SWAP1 DUP2 MSTORE PUSH1 0x20 ADD PUSH1 0x0 KECCAK256 PUSH1 0x0 ADD PUSH1 0x14 SWAP1 SLOAD SWAP1 PUSH2 0x100 EXP SWAP1 DIV PUSH1 0xFF AND PUSH1 0x2 DUP2 GT ISZERO PUSH2 0x1535 JUMPI PUSH2 0x1534 PUSH2 0x427B JUMP JUMPDEST JUMPDEST SUB PUSH2 0x1638 JUMPI PUSH1 0x4 PUSH1 0x0 DUP9 DUP2 MSTORE PUSH1 0x20 ADD SWAP1 DUP2 MSTORE PUSH1 0x20 ADD PUSH1 0x0 KECCAK256 PUSH1 0x0 ADD PUSH1 0x0 SWAP1 SLOAD SWAP1 PUSH2 0x100 EXP SWAP1 DIV PUSH20 0xFFFFFFFFFFFFFFFFFFFFFFFFFFFFFFFFFFFFFFFF AND PUSH1 0x5 PUSH1 0x0 DUP10 DUP2 MSTORE PUSH1 0x20 ADD SWAP1 DUP2 MSTORE PUSH1 0x20 ADD PUSH1 0x0 KECCAK256 PUSH1 0x0 ADD PUSH1 0x0 PUSH2 0x100 EXP DUP2 SLOAD DUP2 PUSH20 0xFFFFFFFFFFFFFFFFFFFFFFFFFFFFFFFFFFFFFFFF MUL NOT AND SWAP1 DUP4 PUSH20 0xFFFFFFFFFFFFFFFFFFFFFFFFFFFFFFFFFFFFFFFF AND MUL OR SWAP1 SSTORE POP PUSH1 0x4 PUSH32 0x0 PUSH2 0x15F2 SWAP2 SWAP1 PUSH2 0x4E77 JUMP JUMPDEST PUSH32 0x0 PUSH2 0x161D SWAP2 SWAP1 PUSH2 0x48E8 JUMP JUMPDEST PUSH1 0x5 PUSH1 0x0 DUP10 DUP2 MSTORE PUSH1 0x20 ADD SWAP1 DUP2 MSTORE PUSH1 0x20 ADD PUSH1 0x0 KECCAK256 PUSH1 0x1 ADD DUP2 SWAP1 SSTORE POP JUMPDEST PUSH1 0x2 PUSH1 0x4 PUSH1 0x0 DUP10 DUP2 MSTORE PUSH1 0x20 ADD SWAP1 DUP2 MSTORE PUSH1 0x20 ADD PUSH1 0x0 KECCAK256 PUSH1 0x0 ADD PUSH1 0x14 PUSH2 0x100 EXP DUP2 SLOAD DUP2 PUSH1 0xFF MUL NOT AND SWAP1 DUP4 PUSH1 0x2 DUP2 GT ISZERO PUSH2 0x1672 JUMPI PUSH2 0x1671 PUSH2 0x427B JUMP JUMPDEST JUMPDEST MUL OR SWAP1 SSTORE POP JUMPDEST POP POP POP POP POP POP POP PUSH2 0x1CCF JUMP JUMPDEST PUSH1 0x0 DUP1 PUSH1 0x0 DUP1 PUSH1 0x0 DUP1 PUSH1 0x0 DUP9 DUP1 PUSH1 0x20 ADD SWAP1 MLOAD DUP2 ADD SWAP1 PUSH2 0x16A3 SWAP2 SWAP1 PUSH2 0x4ECD JUMP JUMPDEST SWAP7 POP SWAP7 POP SWAP7 POP SWAP7 POP SWAP7 POP SWAP7 POP SWAP7 POP PUSH1 0x0 PUSH1 0x3 PUSH1 0x0 DUP10 DUP2 MSTORE PUSH1 0x20 ADD SWAP1 DUP2 MSTORE PUSH1 0x20 ADD PUSH1 0x0 KECCAK256 PUSH1 0x40 MLOAD DUP1 PUSH2 0x120 ADD PUSH1 0x40 MSTORE SWAP1 DUP2 PUSH1 0x0 DUP3 ADD PUSH1 0x0 SWAP1 SLOAD SWAP1 PUSH2 0x100 EXP SWAP1 DIV PUSH1 0xFF AND PUSH1 0x5 DUP2 GT ISZERO PUSH2 0x16F7 JUMPI PUSH2 0x16F6 PUSH2 0x427B JUMP JUMPDEST JUMPDEST PUSH1 0x5 DUP2 GT ISZERO PUSH2 0x1709 JUMPI PUSH2 0x1708 PUSH2 0x427B JUMP JUMPDEST JUMPDEST DUP2 MSTORE PUSH1 0x20 ADD PUSH1 0x1 DUP3 ADD SLOAD DUP2 MSTORE PUSH1 0x20 ADD PUSH1 0x2 DUP3 ADD PUSH1 0x0 SWAP1 SLOAD SWAP1 PUSH2 0x100 EXP SWAP1 DIV PUSH20 0xFFFFFFFFFFFFFFFFFFFFFFFFFFFFFFFFFFFFFFFF AND PUSH20 0xFFFFFFFFFFFFFFFFFFFFFFFFFFFFFFFFFFFFFFFF AND PUSH20 0xFFFFFFFFFFFFFFFFFFFFFFFFFFFFFFFFFFFFFFFF AND DUP2 MSTORE PUSH1 0x20 ADD PUSH1 0x3 DUP3 ADD PUSH1 0x0 SWAP1 SLOAD SWAP1 PUSH2 0x100 EXP SWAP1 DIV PUSH20 0xFFFFFFFFFFFFFFFFFFFFFFFFFFFFFFFFFFFFFFFF AND PUSH20 0xFFFFFFFFFFFFFFFFFFFFFFFFFFFFFFFFFFFFFFFF AND PUSH20 0xFFFFFFFFFFFFFFFFFFFFFFFFFFFFFFFFFFFFFFFF AND DUP2 MSTORE PUSH1 0x20 ADD PUSH1 0x4 DUP3 ADD SLOAD DUP2 MSTORE PUSH1 0x20 ADD PUSH1 0x5 DUP3 ADD PUSH1 0x0 SWAP1 SLOAD SWAP1 PUSH2 0x100 EXP SWAP1 DIV PUSH20 0xFFFFFFFFFFFFFFFFFFFFFFFFFFFFFFFFFFFFFFFF AND PUSH20 0xFFFFFFFFFFFFFFFFFFFFFFFFFFFFFFFFFFFFFFFF AND PUSH20 0xFFFFFFFFFFFFFFFFFFFFFFFFFFFFFFFFFFFFFFFF AND DUP2 MSTORE PUSH1 0x20 ADD PUSH1 0x6 DUP3 ADD PUSH1 0x0 SWAP1 SLOAD SWAP1 PUSH2 0x100 EXP SWAP1 DIV PUSH20 0xFFFFFFFFFFFFFFFFFFFFFFFFFFFFFFFFFFFFFFFF AND PUSH20 0xFFFFFFFFFFFFFFFFFFFFFFFFFFFFFFFFFFFFFFFF AND PUSH20 0xFFFFFFFFFFFFFFFFFFFFFFFFFFFFFFFFFFFFFFFF AND DUP2 MSTORE PUSH1 0x20 ADD PUSH1 0x7 DUP3 ADD SLOAD DUP2 MSTORE PUSH1 0x20 ADD PUSH1 0x8 DUP3 ADD PUSH1 0x0 SWAP1 SLOAD SWAP1 PUSH2 0x100 EXP SWAP1 DIV PUSH20 0xFFFFFFFFFFFFFFFFFFFFFFFFFFFFFFFFFFFFFFFF AND PUSH20 0xFFFFFFFFFFFFFFFFFFFFFFFFFFFFFFFFFFFFFFFF AND PUSH20 0xFFFFFFFFFFFFFFFFFFFFFFFFFFFFFFFFFFFFFFFF AND DUP2 MSTORE POP POP SWAP1 POP PUSH1 0x0 PUSH1 0x5 DUP2 GT ISZERO PUSH2 0x18EF JUMPI PUSH2 0x18EE PUSH2 0x427B JUMP JUMPDEST JUMPDEST DUP2 PUSH1 0x0 ADD MLOAD PUSH1 0x5 DUP2 GT ISZERO PUSH2 0x1906 JUMPI PUSH2 0x1905 PUSH2 0x427B JUMP JUMPDEST JUMPDEST SUB PUSH2 0x1946 JUMPI PUSH1 0x40 MLOAD PUSH32 0x8C379A000000000000000000000000000000000000000000000000000000000 DUP2 MSTORE PUSH1 0x4 ADD PUSH2 0x193D SWAP1 PUSH2 0x4D96 JUMP JUMPDEST PUSH1 0x40 MLOAD DUP1 SWAP2 SUB SWAP1 REVERT JUMPDEST TIMESTAMP PUSH2 0x3840 DUP3 PUSH1 0xE0 ADD MLOAD PUSH2 0x1959 SWAP2 SWAP1 PUSH2 0x48E8 JUMP JUMPDEST LT PUSH2 0x1999 JUMPI PUSH1 0x40 MLOAD PUSH32 0x8C379A000000000000000000000000000000000000000000000000000000000 DUP2 MSTORE PUSH1 0x4 ADD PUSH2 0x1990 SWAP1 PUSH2 0x4FE1 JUMP JUMPDEST PUSH1 0x40 MLOAD DUP1 SWAP2 SUB SWAP1 REVERT JUMPDEST PUSH1 0x3 PUSH1 0x4 DUP2 GT ISZERO PUSH2 0x19AD JUMPI PUSH2 0x19AC PUSH2 0x427B JUMP JUMPDEST JUMPDEST DUP8 PUSH1 0x4 DUP2 GT ISZERO PUSH2 0x19C0 JUMPI PUSH2 0x19BF PUSH2 0x427B JUMP JUMPDEST JUMPDEST EQ ISZERO DUP1 ISZERO PUSH2 0x19FD JUMPI POP DUP6 PUSH20 0xFFFFFFFFFFFFFFFFFFFFFFFFFFFFFFFFFFFFFFFF AND DUP2 PUSH1 0x60 ADD MLOAD PUSH20 0xFFFFFFFFFFFFFFFFFFFFFFFFFFFFFFFFFFFFFFFF AND EQ JUMPDEST DUP1 ISZERO PUSH2 0x1A0C JUMPI POP DUP5 DUP2 PUSH1 0x80 ADD MLOAD EQ JUMPDEST DUP1 ISZERO PUSH2 0x1A47 JUMPI POP DUP4 PUSH20 0xFFFFFFFFFFFFFFFFFFFFFFFFFFFFFFFFFFFFFFFF AND DUP2 PUSH1 0xC0 ADD MLOAD PUSH20 0xFFFFFFFFFFFFFFFFFFFFFFFFFFFFFFFFFFFFFFFF AND EQ JUMPDEST DUP1 ISZERO PUSH2 0x1A83 JUMPI POP DUP3 PUSH20 0xFFFFFFFFFFFFFFFFFFFFFFFFFFFFFFFFFFFFFFFF AND DUP2 PUSH2 0x100 ADD MLOAD PUSH20 0xFFFFFFFFFFFFFFFFFFFFFFFFFFFFFFFFFFFFFFFF AND EQ JUMPDEST ISZERO PUSH2 0x1ACE JUMPI PUSH1 0x0 PUSH2 0x1AC9 JUMPI PUSH1 0x40 MLOAD PUSH32 0x8C379A000000000000000000000000000000000000000000000000000000000 DUP2 MSTORE PUSH1 0x4 ADD PUSH2 0x1AC0 SWAP1 PUSH2 0x5073 JUMP JUMPDEST PUSH1 0x40 MLOAD DUP1 SWAP2 SUB SWAP1 REVERT JUMPDEST PUSH2 0x1CC6 JUMP JUMPDEST PUSH1 0x4 DUP2 PUSH1 0x0 ADD SWAP1 PUSH1 0x5 DUP2 GT ISZERO PUSH2 0x1AE7 JUMPI PUSH2 0x1AE6 PUSH2 0x427B JUMP JUMPDEST JUMPDEST SWAP1 DUP2 PUSH1 0x5 DUP2 GT ISZERO PUSH2 0x1AFB JUMPI PUSH2 0x1AFA PUSH2 0x427B JUMP JUMPDEST JUMPDEST DUP2 MSTORE POP POP PUSH1 0x4 PUSH1 0x1 PUSH1 0x0 DUP4 PUSH2 0x100 ADD MLOAD PUSH20 0xFFFFFFFFFFFFFFFFFFFFFFFFFFFFFFFFFFFFFFFF AND PUSH20 0xFFFFFFFFFFFFFFFFFFFFFFFFFFFFFFFFFFFFFFFF AND DUP2 MSTORE PUSH1 0x20 ADD SWAP1 DUP2 MSTORE PUSH1 0x20 ADD PUSH1 0x0 KECCAK256 PUSH1 0x0 ADD PUSH1 0x0 PUSH2 0x100 EXP DUP2 SLOAD DUP2 PUSH1 0xFF MUL NOT AND SWAP1 DUP4 PUSH1 0x4 DUP2 GT ISZERO PUSH2 0x1B6A JUMPI PUSH2 0x1B69 PUSH2 0x427B JUMP JUMPDEST JUMPDEST MUL OR SWAP1 SSTORE POP DUP1 PUSH1 0xA0 ADD MLOAD PUSH20 0xFFFFFFFFFFFFFFFFFFFFFFFFFFFFFFFFFFFFFFFF AND PUSH4 0x42842E0E ADDRESS DUP4 PUSH1 0x40 ADD MLOAD DUP5 PUSH1 0x80 ADD MLOAD PUSH1 0x40 MLOAD DUP5 PUSH4 0xFFFFFFFF AND PUSH1 0xE0 SHL DUP2 MSTORE PUSH1 0x4 ADD PUSH2 0x1BB8 SWAP4 SWAP3 SWAP2 SWAP1 PUSH2 0x5093 JUMP JUMPDEST PUSH1 0x0 PUSH1 0x40 MLOAD DUP1 DUP4 SUB DUP2 PUSH1 0x0 DUP8 DUP1 EXTCODESIZE ISZERO DUP1 ISZERO PUSH2 0x1BD2 JUMPI PUSH1 0x0 DUP1 REVERT JUMPDEST POP GAS CALL ISZERO DUP1 ISZERO PUSH2 0x1BE6 JUMPI RETURNDATASIZE PUSH1 0x0 DUP1 RETURNDATACOPY RETURNDATASIZE PUSH1 0x0 REVERT JUMPDEST POP POP POP POP DUP2 PUSH1 0x6 PUSH1 0x0 DUP11 DUP2 MSTORE PUSH1 0x20 ADD SWAP1 DUP2 MSTORE PUSH1 0x20 ADD PUSH1 0x0 KECCAK256 PUSH1 0x0 ADD PUSH1 0x0 PUSH2 0x100 EXP DUP2 SLOAD DUP2 PUSH20 0xFFFFFFFFFFFFFFFFFFFFFFFFFFFFFFFFFFFFFFFF MUL NOT AND SWAP1 DUP4 PUSH20 0xFFFFFFFFFFFFFFFFFFFFFFFFFFFFFFFFFFFFFFFF AND MUL OR SWAP1 SSTORE POP PUSH1 0x4 PUSH32 0x0 PUSH2 0x1C6C SWAP2 SWAP1 PUSH2 0x4E77 JUMP JUMPDEST PUSH1 0x6 PUSH1 0x0 DUP11 DUP2 MSTORE PUSH1 0x20 ADD SWAP1 DUP2 MSTORE PUSH1 0x20 ADD PUSH1 0x0 KECCAK256 PUSH1 0x1 ADD DUP2 SWAP1 SSTORE POP PUSH1 0x2 PUSH1 0x4 PUSH1 0x0 DUP11 DUP2 MSTORE PUSH1 0x20 ADD SWAP1 DUP2 MSTORE PUSH1 0x20 ADD PUSH1 0x0 KECCAK256 PUSH1 0x0 ADD PUSH1 0x14 PUSH2 0x100 EXP DUP2 SLOAD DUP2 PUSH1 0xFF MUL NOT AND SWAP1 DUP4 PUSH1 0x2 DUP2 GT ISZERO PUSH2 0x1CC0 JUMPI PUSH2 0x1CBF PUSH2 0x427B JUMP JUMPDEST JUMPDEST MUL OR SWAP1 SSTORE POP JUMPDEST POP POP POP POP POP POP POP POP JUMPDEST POP POP POP JUMP JUMPDEST PUSH1 0x0 CALLVALUE GT PUSH2 0x1D17 JUMPI PUSH1 0x40 MLOAD PUSH32 0x8C379A000000000000000000000000000000000000000000000000000000000 DUP2 MSTORE PUSH1 0x4 ADD PUSH2 0x1D0E SWAP1 PUSH2 0x513C JUMP JUMPDEST PUSH1 0x40 MLOAD DUP1 SWAP2 SUB SWAP1 REVERT JUMPDEST DUP1 PUSH20 0xFFFFFFFFFFFFFFFFFFFFFFFFFFFFFFFFFFFFFFFF AND PUSH4 0x42842E0E CALLER ADDRESS DUP6 PUSH1 0x40 MLOAD DUP5 PUSH4 0xFFFFFFFF AND PUSH1 0xE0 SHL DUP2 MSTORE PUSH1 0x4 ADD PUSH2 0x1D54 SWAP4 SWAP3 SWAP2 SWAP1 PUSH2 0x5093 JUMP JUMPDEST PUSH1 0x0 PUSH1 0x40 MLOAD DUP1 DUP4 SUB DUP2 PUSH1 0x0 DUP8 DUP1 EXTCODESIZE ISZERO DUP1 ISZERO PUSH2 0x1D6E JUMPI PUSH1 0x0 DUP1 REVERT JUMPDEST POP GAS CALL ISZERO DUP1 ISZERO PUSH2 0x1D82 JUMPI RETURNDATASIZE PUSH1 0x0 DUP1 RETURNDATACOPY RETURNDATASIZE PUSH1 0x0 REVERT JUMPDEST POP POP POP POP PUSH1 0x40 MLOAD DUP1 PUSH2 0x120 ADD PUSH1 0x40 MSTORE DUP1 PUSH1 0x1 PUSH1 0x5 DUP2 GT ISZERO PUSH2 0x1DA6 JUMPI PUSH2 0x1DA5 PUSH2 0x427B JUMP JUMPDEST JUMPDEST DUP2 MSTORE PUSH1 0x20 ADD CALLVALUE DUP2 MSTORE PUSH1 0x20 ADD PUSH2 0x1DB9 PUSH2 0x383E JUMP JUMPDEST PUSH20 0xFFFFFFFFFFFFFFFFFFFFFFFFFFFFFFFFFFFFFFFF AND DUP2 MSTORE PUSH1 0x20 ADD DUP5 PUSH20 0xFFFFFFFFFFFFFFFFFFFFFFFFFFFFFFFFFFFFFFFF AND DUP2 MSTORE PUSH1 0x20 ADD DUP4 DUP2 MSTORE PUSH1 0x20 ADD DUP3 PUSH20 0xFFFFFFFFFFFFFFFFFFFFFFFFFFFFFFFFFFFFFFFF AND DUP2 MSTORE PUSH1 0x20 ADD PUSH1 0x8 PUSH1 0x0 SWAP1 SLOAD SWAP1 PUSH2 0x100 EXP SWAP1 DIV PUSH20 0xFFFFFFFFFFFFFFFFFFFFFFFFFFFFFFFFFFFFFFFF AND PUSH20 0xFFFFFFFFFFFFFFFFFFFFFFFFFFFFFFFFFFFFFFFF AND PUSH4 0x1D1C2AF4 DUP5 PUSH1 0x40 MLOAD DUP3 PUSH4 0xFFFFFFFF AND PUSH1 0xE0 SHL DUP2 MSTORE PUSH1 0x4 ADD PUSH2 0x1E6D SWAP2 SWAP1 PUSH2 0x40F7 JUMP JUMPDEST PUSH1 0x20 PUSH1 0x40 MLOAD DUP1 DUP4 SUB DUP2 DUP7 GAS STATICCALL ISZERO DUP1 ISZERO PUSH2 0x1E8A JUMPI RETURNDATASIZE PUSH1 0x0 DUP1 RETURNDATACOPY RETURNDATASIZE PUSH1 0x0 REVERT JUMPDEST POP POP POP POP PUSH1 0x40 MLOAD RETURNDATASIZE PUSH1 0x1F NOT PUSH1 0x1F DUP3 ADD AND DUP3 ADD DUP1 PUSH1 0x40 MSTORE POP DUP2 ADD SWAP1 PUSH2 0x1EAE SWAP2 SWAP1 PUSH2 0x49C3 JUMP JUMPDEST PUSH20 0xFFFFFFFFFFFFFFFFFFFFFFFFFFFFFFFFFFFFFFFF AND DUP2 MSTORE PUSH1 0x20 ADD PUSH1 0x0 DUP2 MSTORE PUSH1 0x20 ADD PUSH1 0x0 PUSH20 0xFFFFFFFFFFFFFFFFFFFFFFFFFFFFFFFFFFFFFFFF AND DUP2 MSTORE POP PUSH1 0x3 PUSH1 0x0 PUSH2 0x1EF9 PUSH1 0x7 PUSH2 0x3855 JUMP JUMPDEST DUP2 MSTORE PUSH1 0x20 ADD SWAP1 DUP2 MSTORE PUSH1 0x20 ADD PUSH1 0x0 KECCAK256 PUSH1 0x0 DUP3 ADD MLOAD DUP2 PUSH1 0x0 ADD PUSH1 0x0 PUSH2 0x100 EXP DUP2 SLOAD DUP2 PUSH1 0xFF MUL NOT AND SWAP1 DUP4 PUSH1 0x5 DUP2 GT ISZERO PUSH2 0x1F32 JUMPI PUSH2 0x1F31 PUSH2 0x427B JUMP JUMPDEST JUMPDEST MUL OR SWAP1 SSTORE POP PUSH1 0x20 DUP3 ADD MLOAD DUP2 PUSH1 0x1 ADD SSTORE PUSH1 0x40 DUP3 ADD MLOAD DUP2 PUSH1 0x2 ADD PUSH1 0x0 PUSH2 0x100 EXP DUP2 SLOAD DUP2 PUSH20 0xFFFFFFFFFFFFFFFFFFFFFFFFFFFFFFFFFFFFFFFF MUL NOT AND SWAP1 DUP4 PUSH20 0xFFFFFFFFFFFFFFFFFFFFFFFFFFFFFFFFFFFFFFFF AND MUL OR SWAP1 SSTORE POP PUSH1 0x60 DUP3 ADD MLOAD DUP2 PUSH1 0x3 ADD PUSH1 0x0 PUSH2 0x100 EXP DUP2 SLOAD DUP2 PUSH20 0xFFFFFFFFFFFFFFFFFFFFFFFFFFFFFFFFFFFFFFFF MUL NOT AND SWAP1 DUP4 PUSH20 0xFFFFFFFFFFFFFFFFFFFFFFFFFFFFFFFFFFFFFFFF AND MUL OR SWAP1 SSTORE POP PUSH1 0x80 DUP3 ADD MLOAD DUP2 PUSH1 0x4 ADD SSTORE PUSH1 0xA0 DUP3 ADD MLOAD DUP2 PUSH1 0x5 ADD PUSH1 0x0 PUSH2 0x100 EXP DUP2 SLOAD DUP2 PUSH20 0xFFFFFFFFFFFFFFFFFFFFFFFFFFFFFFFFFFFFFFFF MUL NOT AND SWAP1 DUP4 PUSH20 0xFFFFFFFFFFFFFFFFFFFFFFFFFFFFFFFFFFFFFFFF AND MUL OR SWAP1 SSTORE POP PUSH1 0xC0 DUP3 ADD MLOAD DUP2 PUSH1 0x6 ADD PUSH1 0x0 PUSH2 0x100 EXP DUP2 SLOAD DUP2 PUSH20 0xFFFFFFFFFFFFFFFFFFFFFFFFFFFFFFFFFFFFFFFF MUL NOT AND SWAP1 DUP4 PUSH20 0xFFFFFFFFFFFFFFFFFFFFFFFFFFFFFFFFFFFFFFFF AND MUL OR SWAP1 SSTORE POP PUSH1 0xE0 DUP3 ADD MLOAD DUP2 PUSH1 0x7 ADD SSTORE PUSH2 0x100 DUP3 ADD MLOAD DUP2 PUSH1 0x8 ADD PUSH1 0x0 PUSH2 0x100 EXP DUP2 SLOAD DUP2 PUSH20 0xFFFFFFFFFFFFFFFFFFFFFFFFFFFFFFFFFFFFFFFF MUL NOT AND SWAP1 DUP4 PUSH20 0xFFFFFFFFFFFFFFFFFFFFFFFFFFFFFFFFFFFFFFFF AND MUL OR SWAP1 SSTORE POP SWAP1 POP POP PUSH2 0x20C6 PUSH1 0x7 PUSH2 0x3863 JUMP JUMPDEST POP POP POP JUMP JUMPDEST DUP1 ISZERO PUSH2 0x22DE JUMPI PUSH1 0x6 PUSH1 0x0 DUP4 DUP2 MSTORE PUSH1 0x20 ADD SWAP1 DUP2 MSTORE PUSH1 0x20 ADD PUSH1 0x0 KECCAK256 PUSH1 0x2 ADD PUSH1 0x0 SWAP1 SLOAD SWAP1 PUSH2 0x100 EXP SWAP1 DIV PUSH1 0xFF AND ISZERO PUSH2 0x2135 JUMPI PUSH1 0x40 MLOAD PUSH32 0x8C379A000000000000000000000000000000000000000000000000000000000 DUP2 MSTORE PUSH1 0x4 ADD PUSH2 0x212C SWAP1 PUSH2 0x51CE JUMP JUMPDEST PUSH1 0x40 MLOAD DUP1 SWAP2 SUB SWAP1 REVERT JUMPDEST PUSH2 0x213D PUSH2 0x383E JUMP JUMPDEST PUSH20 0xFFFFFFFFFFFFFFFFFFFFFFFFFFFFFFFFFFFFFFFF AND PUSH1 0x6 PUSH1 0x0 DUP5 DUP2 MSTORE PUSH1 0x20 ADD SWAP1 DUP2 MSTORE PUSH1 0x20 ADD PUSH1 0x0 KECCAK256 PUSH1 0x0 ADD PUSH1 0x0 SWAP1 SLOAD SWAP1 PUSH2 0x100 EXP SWAP1 DIV PUSH20 0xFFFFFFFFFFFFFFFFFFFFFFFFFFFFFFFFFFFFFFFF AND PUSH20 0xFFFFFFFFFFFFFFFFFFFFFFFFFFFFFFFFFFFFFFFF AND EQ PUSH2 0x21E0 JUMPI PUSH1 0x40 MLOAD PUSH32 0x8C379A000000000000000000000000000000000000000000000000000000000 DUP2 MSTORE PUSH1 0x4 ADD PUSH2 0x21D7 SWAP1 PUSH2 0x5260 JUMP JUMPDEST PUSH1 0x40 MLOAD DUP1 SWAP2 SUB SWAP1 REVERT JUMPDEST PUSH1 0x1 PUSH1 0x6 PUSH1 0x0 DUP5 DUP2 MSTORE PUSH1 0x20 ADD SWAP1 DUP2 MSTORE PUSH1 0x20 ADD PUSH1 0x0 KECCAK256 PUSH1 0x2 ADD PUSH1 0x0 PUSH2 0x100 EXP DUP2 SLOAD DUP2 PUSH1 0xFF MUL NOT AND SWAP1 DUP4 ISZERO ISZERO MUL OR SWAP1 SSTORE POP PUSH1 0x0 PUSH2 0x2219 PUSH2 0x383E JUMP JUMPDEST PUSH20 0xFFFFFFFFFFFFFFFFFFFFFFFFFFFFFFFFFFFFFFFF AND PUSH1 0x6 PUSH1 0x0 DUP6 DUP2 MSTORE PUSH1 0x20 ADD SWAP1 DUP2 MSTORE PUSH1 0x20 ADD PUSH1 0x0 KECCAK256 PUSH1 0x1 ADD SLOAD PUSH1 0x40 MLOAD PUSH2 0x2252 SWAP1 PUSH2 0x4714 JUMP JUMPDEST PUSH1 0x0 PUSH1 0x40 MLOAD DUP1 DUP4 SUB DUP2 DUP6 DUP8 GAS CALL SWAP3 POP POP POP RETURNDATASIZE DUP1 PUSH1 0x0 DUP2 EQ PUSH2 0x228F JUMPI PUSH1 0x40 MLOAD SWAP2 POP PUSH1 0x1F NOT PUSH1 0x3F RETURNDATASIZE ADD AND DUP3 ADD PUSH1 0x40 MSTORE RETURNDATASIZE DUP3 MSTORE RETURNDATASIZE PUSH1 0x0 PUSH1 0x20 DUP5 ADD RETURNDATACOPY PUSH2 0x2294 JUMP JUMPDEST PUSH1 0x60 SWAP2 POP JUMPDEST POP POP SWAP1 POP DUP1 PUSH2 0x22D8 JUMPI PUSH1 0x40 MLOAD PUSH32 0x8C379A000000000000000000000000000000000000000000000000000000000 DUP2 MSTORE PUSH1 0x4 ADD PUSH2 0x22CF SWAP1 PUSH2 0x4775 JUMP JUMPDEST PUSH1 0x40 MLOAD DUP1 SWAP2 SUB SWAP1 REVERT JUMPDEST POP PUSH2 0x24E7 JUMP JUMPDEST PUSH1 0x5 PUSH1 0x0 DUP4 DUP2 MSTORE PUSH1 0x20 ADD SWAP1 DUP2 MSTORE PUSH1 0x20 ADD PUSH1 0x0 KECCAK256 PUSH1 0x2 ADD PUSH1 0x0 SWAP1 SLOAD SWAP1 PUSH2 0x100 EXP SWAP1 DIV PUSH1 0xFF AND ISZERO PUSH2 0x2342 JUMPI PUSH1 0x40 MLOAD PUSH32 0x8C379A000000000000000000000000000000000000000000000000000000000 DUP2 MSTORE PUSH1 0x4 ADD PUSH2 0x2339 SWAP1 PUSH2 0x51CE JUMP JUMPDEST PUSH1 0x40 MLOAD DUP1 SWAP2 SUB SWAP1 REVERT JUMPDEST PUSH2 0x234A PUSH2 0x383E JUMP JUMPDEST PUSH20 0xFFFFFFFFFFFFFFFFFFFFFFFFFFFFFFFFFFFFFFFF AND PUSH1 0x5 PUSH1 0x0 DUP5 DUP2 MSTORE PUSH1 0x20 ADD SWAP1 DUP2 MSTORE PUSH1 0x20 ADD PUSH1 0x0 KECCAK256 PUSH1 0x0 ADD PUSH1 0x0 SWAP1 SLOAD SWAP1 PUSH2 0x100 EXP SWAP1 DIV PUSH20 0xFFFFFFFFFFFFFFFFFFFFFFFFFFFFFFFFFFFFFFFF AND PUSH20 0xFFFFFFFFFFFFFFFFFFFFFFFFFFFFFFFFFFFFFFFF AND EQ PUSH2 0x23ED JUMPI PUSH1 0x40 MLOAD PUSH32 0x8C379A000000000000000000000000000000000000000000000000000000000 DUP2 MSTORE PUSH1 0x4 ADD PUSH2 0x23E4 SWAP1 PUSH2 0x5260 JUMP JUMPDEST PUSH1 0x40 MLOAD DUP1 SWAP2 SUB SWAP1 REVERT JUMPDEST PUSH1 0x1 PUSH1 0x5 PUSH1 0x0 DUP5 DUP2 MSTORE PUSH1 0x20 ADD SWAP1 DUP2 MSTORE PUSH1 0x20 ADD PUSH1 0x0 KECCAK256 PUSH1 0x2 ADD PUSH1 0x0 PUSH2 0x100 EXP DUP2 SLOAD DUP2 PUSH1 0xFF MUL NOT AND SWAP1 DUP4 ISZERO ISZERO MUL OR SWAP1 SSTORE POP PUSH1 0x0 PUSH2 0x2426 PUSH2 0x383E JUMP JUMPDEST PUSH20 0xFFFFFFFFFFFFFFFFFFFFFFFFFFFFFFFFFFFFFFFF AND PUSH1 0x5 PUSH1 0x0 DUP6 DUP2 MSTORE PUSH1 0x20 ADD SWAP1 DUP2 MSTORE PUSH1 0x20 ADD PUSH1 0x0 KECCAK256 PUSH1 0x1 ADD SLOAD PUSH1 0x40 MLOAD PUSH2 0x245F SWAP1 PUSH2 0x4714 JUMP JUMPDEST PUSH1 0x0 PUSH1 0x40 MLOAD DUP1 DUP4 SUB DUP2 DUP6 DUP8 GAS CALL SWAP3 POP POP POP RETURNDATASIZE DUP1 PUSH1 0x0 DUP2 EQ PUSH2 0x249C JUMPI PUSH1 0x40 MLOAD SWAP2 POP PUSH1 0x1F NOT PUSH1 0x3F RETURNDATASIZE ADD AND DUP3 ADD PUSH1 0x40 MSTORE RETURNDATASIZE DUP3 MSTORE RETURNDATASIZE PUSH1 0x0 PUSH1 0x20 DUP5 ADD RETURNDATACOPY PUSH2 0x24A1 JUMP JUMPDEST PUSH1 0x60 SWAP2 POP JUMPDEST POP POP SWAP1 POP DUP1 PUSH2 0x24E5 JUMPI PUSH1 0x40 MLOAD PUSH32 0x8C379A000000000000000000000000000000000000000000000000000000000 DUP2 MSTORE PUSH1 0x4 ADD PUSH2 0x24DC SWAP1 PUSH2 0x4775 JUMP JUMPDEST PUSH1 0x40 MLOAD DUP1 SWAP2 SUB SWAP1 REVERT JUMPDEST POP JUMPDEST POP POP JUMP JUMPDEST PUSH1 0x6 PUSH1 0x20 MSTORE DUP1 PUSH1 0x0 MSTORE PUSH1 0x40 PUSH1 0x0 KECCAK256 PUSH1 0x0 SWAP2 POP SWAP1 POP DUP1 PUSH1 0x0 ADD PUSH1 0x0 SWAP1 SLOAD SWAP1 PUSH2 0x100 EXP SWAP1 DIV PUSH20 0xFFFFFFFFFFFFFFFFFFFFFFFFFFFFFFFFFFFFFFFF AND SWAP1 DUP1 PUSH1 0x1 ADD SLOAD SWAP1 DUP1 PUSH1 0x2 ADD PUSH1 0x0 SWAP1 SLOAD SWAP1 PUSH2 0x100 EXP SWAP1 DIV PUSH1 0xFF AND SWAP1 POP DUP4 JUMP JUMPDEST PUSH1 0x4 PUSH1 0x20 MSTORE DUP1 PUSH1 0x0 MSTORE PUSH1 0x40 PUSH1 0x0 KECCAK256 PUSH1 0x0 SWAP2 POP SWAP1 POP DUP1 PUSH1 0x0 ADD PUSH1 0x0 SWAP1 SLOAD SWAP1 PUSH2 0x100 EXP SWAP1 DIV PUSH20 0xFFFFFFFFFFFFFFFFFFFFFFFFFFFFFFFFFFFFFFFF AND SWAP1 DUP1 PUSH1 0x0 ADD PUSH1 0x14 SWAP1 SLOAD SWAP1 PUSH2 0x100 EXP SWAP1 DIV PUSH1 0xFF AND SWAP1 POP DUP3 JUMP JUMPDEST PUSH32 0x0 DUP2 JUMP JUMPDEST PUSH1 0x1 PUSH1 0x20 MSTORE DUP1 PUSH1 0x0 MSTORE PUSH1 0x40 PUSH1 0x0 KECCAK256 PUSH1 0x0 SWAP2 POP SWAP1 POP DUP1 PUSH1 0x0 ADD PUSH1 0x0 SWAP1 SLOAD SWAP1 PUSH2 0x100 EXP SWAP1 DIV PUSH1 0xFF AND SWAP1 DUP1 PUSH1 0x1 ADD SLOAD SWAP1 DUP1 PUSH1 0x2 ADD SLOAD SWAP1 POP DUP4 JUMP JUMPDEST PUSH2 0x25F6 PUSH2 0x3879 JUMP JUMPDEST PUSH2 0x2600 PUSH1 0x0 PUSH2 0x38F7 JUMP JUMPDEST JUMP JUMPDEST PUSH2 0x260B DUP2 PUSH2 0x39BB JUMP JUMPDEST POP JUMP JUMPDEST PUSH1 0x1 PUSH1 0x0 PUSH2 0x261A PUSH2 0x383E JUMP JUMPDEST PUSH20 0xFFFFFFFFFFFFFFFFFFFFFFFFFFFFFFFFFFFFFFFF AND PUSH20 0xFFFFFFFFFFFFFFFFFFFFFFFFFFFFFFFFFFFFFFFF AND DUP2 MSTORE PUSH1 0x20 ADD SWAP1 DUP2 MSTORE PUSH1 0x20 ADD PUSH1 0x0 KECCAK256 PUSH1 0x0 ADD PUSH1 0x0 SWAP1 SLOAD SWAP1 PUSH2 0x100 EXP SWAP1 DIV PUSH1 0xFF AND PUSH1 0x4 DUP2 GT ISZERO PUSH2 0x2677 JUMPI PUSH2 0x2676 PUSH2 0x427B JUMP JUMPDEST JUMPDEST PUSH1 0x2 PUSH1 0x4 DUP2 GT ISZERO PUSH2 0x268B JUMPI PUSH2 0x268A PUSH2 0x427B JUMP JUMPDEST JUMPDEST EQ PUSH2 0x26CB JUMPI PUSH1 0x40 MLOAD PUSH32 0x8C379A000000000000000000000000000000000000000000000000000000000 DUP2 MSTORE PUSH1 0x4 ADD PUSH2 0x26C2 SWAP1 PUSH2 0x52F2 JUMP JUMPDEST PUSH1 0x40 MLOAD DUP1 SWAP2 SUB SWAP1 REVERT JUMPDEST PUSH32 0x0 PUSH1 0x1 PUSH1 0x0 PUSH2 0x26F8 PUSH2 0x383E JUMP JUMPDEST PUSH20 0xFFFFFFFFFFFFFFFFFFFFFFFFFFFFFFFFFFFFFFFF AND PUSH20 0xFFFFFFFFFFFFFFFFFFFFFFFFFFFFFFFFFFFFFFFF AND DUP2 MSTORE PUSH1 0x20 ADD SWAP1 DUP2 MSTORE PUSH1 0x20 ADD PUSH1 0x0 KECCAK256 PUSH1 0x1 ADD SLOAD PUSH2 0x2740 SWAP2 SWAP1 PUSH2 0x48E8 JUMP JUMPDEST TIMESTAMP GT PUSH2 0x2781 JUMPI PUSH1 0x40 MLOAD PUSH32 0x8C379A000000000000000000000000000000000000000000000000000000000 DUP2 MSTORE PUSH1 0x4 ADD PUSH2 0x2778 SWAP1 PUSH2 0x5384 JUMP JUMPDEST PUSH1 0x40 MLOAD DUP1 SWAP2 SUB SWAP1 REVERT JUMPDEST PUSH1 0x0 PUSH2 0x278B PUSH2 0x383E JUMP JUMPDEST PUSH20 0xFFFFFFFFFFFFFFFFFFFFFFFFFFFFFFFFFFFFFFFF AND PUSH32 0x0 PUSH1 0x40 MLOAD PUSH2 0x27CE SWAP1 PUSH2 0x4714 JUMP JUMPDEST PUSH1 0x0 PUSH1 0x40 MLOAD DUP1 DUP4 SUB DUP2 DUP6 DUP8 GAS CALL SWAP3 POP POP POP RETURNDATASIZE DUP1 PUSH1 0x0 DUP2 EQ PUSH2 0x280B JUMPI PUSH1 0x40 MLOAD SWAP2 POP PUSH1 0x1F NOT PUSH1 0x3F RETURNDATASIZE ADD AND DUP3 ADD PUSH1 0x40 MSTORE RETURNDATASIZE DUP3 MSTORE RETURNDATASIZE PUSH1 0x0 PUSH1 0x20 DUP5 ADD RETURNDATACOPY PUSH2 0x2810 JUMP JUMPDEST PUSH1 0x60 SWAP2 POP JUMPDEST POP POP SWAP1 POP DUP1 PUSH2 0x2854 JUMPI PUSH1 0x40 MLOAD PUSH32 0x8C379A000000000000000000000000000000000000000000000000000000000 DUP2 MSTORE PUSH1 0x4 ADD PUSH2 0x284B SWAP1 PUSH2 0x4775 JUMP JUMPDEST PUSH1 0x40 MLOAD DUP1 SWAP2 SUB SWAP1 REVERT JUMPDEST PUSH1 0x0 PUSH1 0x1 PUSH1 0x0 PUSH2 0x2862 PUSH2 0x383E JUMP JUMPDEST PUSH20 0xFFFFFFFFFFFFFFFFFFFFFFFFFFFFFFFFFFFFFFFF AND PUSH20 0xFFFFFFFFFFFFFFFFFFFFFFFFFFFFFFFFFFFFFFFF AND DUP2 MSTORE PUSH1 0x20 ADD SWAP1 DUP2 MSTORE PUSH1 0x20 ADD PUSH1 0x0 KECCAK256 PUSH1 0x0 ADD PUSH1 0x0 PUSH2 0x100 EXP DUP2 SLOAD DUP2 PUSH1 0xFF MUL NOT AND SWAP1 DUP4 PUSH1 0x4 DUP2 GT ISZERO PUSH2 0x28C1 JUMPI PUSH2 0x28C0 PUSH2 0x427B JUMP JUMPDEST JUMPDEST MUL OR SWAP1 SSTORE POP POP JUMP JUMPDEST PUSH1 0x0 DUP1 PUSH1 0x0 SWAP1 SLOAD SWAP1 PUSH2 0x100 EXP SWAP1 DIV PUSH20 0xFFFFFFFFFFFFFFFFFFFFFFFFFFFFFFFFFFFFFFFF AND SWAP1 POP SWAP1 JUMP JUMPDEST PUSH1 0x2 PUSH1 0x20 MSTORE DUP1 PUSH1 0x0 MSTORE PUSH1 0x40 PUSH1 0x0 KECCAK256 PUSH1 0x0 SWAP2 POP SWAP1 POP DUP1 PUSH1 0x0 ADD SLOAD SWAP1 DUP1 PUSH1 0x1 ADD PUSH1 0x0 SWAP1 SLOAD SWAP1 PUSH2 0x100 EXP SWAP1 DIV PUSH1 0xFF AND SWAP1 DUP1 PUSH1 0x1 ADD PUSH1 0x1 SWAP1 SLOAD SWAP1 PUSH2 0x100 EXP SWAP1 DIV PUSH20 0xFFFFFFFFFFFFFFFFFFFFFFFFFFFFFFFFFFFFFFFF AND SWAP1 DUP1 PUSH1 0x2 ADD SLOAD SWAP1 DUP1 PUSH1 0x3 ADD PUSH1 0x0 SWAP1 SLOAD SWAP1 PUSH2 0x100 EXP SWAP1 DIV PUSH20 0xFFFFFFFFFFFFFFFFFFFFFFFFFFFFFFFFFFFFFFFF AND SWAP1 DUP1 PUSH1 0x4 ADD SLOAD SWAP1 DUP1 PUSH1 0x5 ADD PUSH1 0x0 SWAP1 SLOAD SWAP1 PUSH2 0x100 EXP SWAP1 DIV PUSH20 0xFFFFFFFFFFFFFFFFFFFFFFFFFFFFFFFFFFFFFFFF AND SWAP1 POP DUP8 JUMP JUMPDEST DUP2 ISZERO PUSH2 0x2C49 JUMPI PUSH1 0x0 PUSH1 0x3 PUSH1 0x0 DUP4 DUP2 MSTORE PUSH1 0x20 ADD SWAP1 DUP2 MSTORE PUSH1 0x20 ADD PUSH1 0x0 KECCAK256 PUSH1 0x40 MLOAD DUP1 PUSH2 0x120 ADD PUSH1 0x40 MSTORE SWAP1 DUP2 PUSH1 0x0 DUP3 ADD PUSH1 0x0 SWAP1 SLOAD SWAP1 PUSH2 0x100 EXP SWAP1 DIV PUSH1 0xFF AND PUSH1 0x5 DUP2 GT ISZERO PUSH2 0x29ED JUMPI PUSH2 0x29EC PUSH2 0x427B JUMP JUMPDEST JUMPDEST PUSH1 0x5 DUP2 GT ISZERO PUSH2 0x29FF JUMPI PUSH2 0x29FE PUSH2 0x427B JUMP JUMPDEST JUMPDEST DUP2 MSTORE PUSH1 0x20 ADD PUSH1 0x1 DUP3 ADD SLOAD DUP2 MSTORE PUSH1 0x20 ADD PUSH1 0x2 DUP3 ADD PUSH1 0x0 SWAP1 SLOAD SWAP1 PUSH2 0x100 EXP SWAP1 DIV PUSH20 0xFFFFFFFFFFFFFFFFFFFFFFFFFFFFFFFFFFFFFFFF AND PUSH20 0xFFFFFFFFFFFFFFFFFFFFFFFFFFFFFFFFFFFFFFFF AND PUSH20 0xFFFFFFFFFFFFFFFFFFFFFFFFFFFFFFFFFFFFFFFF AND DUP2 MSTORE PUSH1 0x20 ADD PUSH1 0x3 DUP3 ADD PUSH1 0x0 SWAP1 SLOAD SWAP1 PUSH2 0x100 EXP SWAP1 DIV PUSH20 0xFFFFFFFFFFFFFFFFFFFFFFFFFFFFFFFFFFFFFFFF AND PUSH20 0xFFFFFFFFFFFFFFFFFFFFFFFFFFFFFFFFFFFFFFFF AND PUSH20 0xFFFFFFFFFFFFFFFFFFFFFFFFFFFFFFFFFFFFFFFF AND DUP2 MSTORE PUSH1 0x20 ADD PUSH1 0x4 DUP3 ADD SLOAD DUP2 MSTORE PUSH1 0x20 ADD PUSH1 0x5 DUP3 ADD PUSH1 0x0 SWAP1 SLOAD SWAP1 PUSH2 0x100 EXP SWAP1 DIV PUSH20 0xFFFFFFFFFFFFFFFFFFFFFFFFFFFFFFFFFFFFFFFF AND PUSH20 0xFFFFFFFFFFFFFFFFFFFFFFFFFFFFFFFFFFFFFFFF AND PUSH20 0xFFFFFFFFFFFFFFFFFFFFFFFFFFFFFFFFFFFFFFFF AND DUP2 MSTORE PUSH1 0x20 ADD PUSH1 0x6 DUP3 ADD PUSH1 0x0 SWAP1 SLOAD SWAP1 PUSH2 0x100 EXP SWAP1 DIV PUSH20 0xFFFFFFFFFFFFFFFFFFFFFFFFFFFFFFFFFFFFFFFF AND PUSH20 0xFFFFFFFFFFFFFFFFFFFFFFFFFFFFFFFFFFFFFFFF AND PUSH20 0xFFFFFFFFFFFFFFFFFFFFFFFFFFFFFFFFFFFFFFFF AND DUP2 MSTORE PUSH1 0x20 ADD PUSH1 0x7 DUP3 ADD SLOAD DUP2 MSTORE PUSH1 0x20 ADD PUSH1 0x8 DUP3 ADD PUSH1 0x0 SWAP1 SLOAD SWAP1 PUSH2 0x100 EXP SWAP1 DIV PUSH20 0xFFFFFFFFFFFFFFFFFFFFFFFFFFFFFFFFFFFFFFFF AND PUSH20 0xFFFFFFFFFFFFFFFFFFFFFFFFFFFFFFFFFFFFFFFF AND PUSH20 0xFFFFFFFFFFFFFFFFFFFFFFFFFFFFFFFFFFFFFFFF AND DUP2 MSTORE POP POP SWAP1 POP PUSH1 0x0 DUP3 DUP3 PUSH1 0x0 ADD MLOAD DUP4 PUSH1 0x60 ADD MLOAD DUP5 PUSH1 0x80 ADD MLOAD DUP6 PUSH1 0xC0 ADD MLOAD DUP7 PUSH2 0x100 ADD MLOAD PUSH1 0x40 MLOAD PUSH1 0x20 ADD PUSH2 0x2C03 SWAP7 SWAP6 SWAP5 SWAP4 SWAP3 SWAP2 SWAP1 PUSH2 0x53A4 JUMP JUMPDEST PUSH1 0x40 MLOAD PUSH1 0x20 DUP2 DUP4 SUB SUB DUP2 MSTORE SWAP1 PUSH1 0x40 MSTORE SWAP1 POP DUP1 PUSH1 0x1 PUSH1 0x40 MLOAD PUSH1 0x20 ADD PUSH2 0x2C28 SWAP3 SWAP2 SWAP1 PUSH2 0x545A JUMP JUMPDEST PUSH1 0x40 MLOAD PUSH1 0x20 DUP2 DUP4 SUB SUB DUP2 MSTORE SWAP1 PUSH1 0x40 MSTORE SWAP1 POP PUSH2 0x2C42 DUP2 PUSH2 0x3D13 JUMP JUMPDEST POP POP PUSH2 0x2EDD JUMP JUMPDEST TIMESTAMP PUSH2 0x3840 PUSH1 0x2 PUSH1 0x0 DUP5 DUP2 MSTORE PUSH1 0x20 ADD SWAP1 DUP2 MSTORE PUSH1 0x20 ADD PUSH1 0x0 KECCAK256 PUSH1 0x4 ADD SLOAD PUSH2 0x2C6E SWAP2 SWAP1 PUSH2 0x48E8 JUMP JUMPDEST LT PUSH2 0x2CAE JUMPI PUSH1 0x40 MLOAD PUSH32 0x8C379A000000000000000000000000000000000000000000000000000000000 DUP2 MSTORE PUSH1 0x4 ADD PUSH2 0x2CA5 SWAP1 PUSH2 0x54FC JUMP JUMPDEST PUSH1 0x40 MLOAD DUP1 SWAP2 SUB SWAP1 REVERT JUMPDEST PUSH1 0x0 PUSH1 0x2 PUSH1 0x0 DUP4 DUP2 MSTORE PUSH1 0x20 ADD SWAP1 DUP2 MSTORE PUSH1 0x20 ADD PUSH1 0x0 KECCAK256 PUSH1 0x40 MLOAD DUP1 PUSH1 0xE0 ADD PUSH1 0x40 MSTORE SWAP1 DUP2 PUSH1 0x0 DUP3 ADD SLOAD DUP2 MSTORE PUSH1 0x20 ADD PUSH1 0x1 DUP3 ADD PUSH1 0x0 SWAP1 SLOAD SWAP1 PUSH2 0x100 EXP SWAP1 DIV PUSH1 0xFF AND PUSH1 0x4 DUP2 GT ISZERO PUSH2 0x2CFD JUMPI PUSH2 0x2CFC PUSH2 0x427B JUMP JUMPDEST JUMPDEST PUSH1 0x4 DUP2 GT ISZERO PUSH2 0x2D0F JUMPI PUSH2 0x2D0E PUSH2 0x427B JUMP JUMPDEST JUMPDEST DUP2 MSTORE PUSH1 0x20 ADD PUSH1 0x1 DUP3 ADD PUSH1 0x1 SWAP1 SLOAD SWAP1 PUSH2 0x100 EXP SWAP1 DIV PUSH20 0xFFFFFFFFFFFFFFFFFFFFFFFFFFFFFFFFFFFFFFFF AND PUSH20 0xFFFFFFFFFFFFFFFFFFFFFFFFFFFFFFFFFFFFFFFF AND PUSH20 0xFFFFFFFFFFFFFFFFFFFFFFFFFFFFFFFFFFFFFFFF AND DUP2 MSTORE PUSH1 0x20 ADD PUSH1 0x2 DUP3 ADD SLOAD DUP2 MSTORE PUSH1 0x20 ADD PUSH1 0x3 DUP3 ADD PUSH1 0x0 SWAP1 SLOAD SWAP1 PUSH2 0x100 EXP SWAP1 DIV PUSH20 0xFFFFFFFFFFFFFFFFFFFFFFFFFFFFFFFFFFFFFFFF AND PUSH20 0xFFFFFFFFFFFFFFFFFFFFFFFFFFFFFFFFFFFFFFFF AND PUSH20 0xFFFFFFFFFFFFFFFFFFFFFFFFFFFFFFFFFFFFFFFF AND DUP2 MSTORE PUSH1 0x20 ADD PUSH1 0x4 DUP3 ADD SLOAD DUP2 MSTORE PUSH1 0x20 ADD PUSH1 0x5 DUP3 ADD PUSH1 0x0 SWAP1 SLOAD SWAP1 PUSH2 0x100 EXP SWAP1 DIV PUSH20 0xFFFFFFFFFFFFFFFFFFFFFFFFFFFFFFFFFFFFFFFF AND PUSH20 0xFFFFFFFFFFFFFFFFFFFFFFFFFFFFFFFFFFFFFFFF AND PUSH20 0xFFFFFFFFFFFFFFFFFFFFFFFFFFFFFFFFFFFFFFFF AND DUP2 MSTORE POP POP SWAP1 POP PUSH1 0x0 DUP3 DUP3 PUSH1 0x20 ADD MLOAD DUP4 PUSH1 0x40 ADD MLOAD DUP5 PUSH1 0x60 ADD MLOAD PUSH1 0x3 PUSH1 0x0 DUP8 PUSH1 0x0 ADD MLOAD DUP2 MSTORE PUSH1 0x20 ADD SWAP1 DUP2 MSTORE PUSH1 0x20 ADD PUSH1 0x0 KECCAK256 PUSH1 0x6 ADD PUSH1 0x0 SWAP1 SLOAD SWAP1 PUSH2 0x100 EXP SWAP1 DIV PUSH20 0xFFFFFFFFFFFFFFFFFFFFFFFFFFFFFFFFFFFFFFFF AND DUP7 PUSH1 0xC0 ADD MLOAD PUSH2 0x2E85 PUSH2 0x383E JUMP JUMPDEST PUSH1 0x40 MLOAD PUSH1 0x20 ADD PUSH2 0x2E9B SWAP8 SWAP7 SWAP6 SWAP5 SWAP4 SWAP3 SWAP2 SWAP1 PUSH2 0x551C JUMP JUMPDEST PUSH1 0x40 MLOAD PUSH1 0x20 DUP2 DUP4 SUB SUB DUP2 MSTORE SWAP1 PUSH1 0x40 MSTORE SWAP1 POP DUP1 PUSH1 0x0 PUSH1 0x40 MLOAD PUSH1 0x20 ADD PUSH2 0x2EC0 SWAP3 SWAP2 SWAP1 PUSH2 0x545A JUMP JUMPDEST PUSH1 0x40 MLOAD PUSH1 0x20 DUP2 DUP4 SUB SUB DUP2 MSTORE SWAP1 PUSH1 0x40 MSTORE SWAP1 POP PUSH2 0x2EDA DUP2 PUSH2 0x3D13 JUMP JUMPDEST POP POP JUMPDEST POP POP JUMP JUMPDEST PUSH1 0x5 PUSH1 0x20 MSTORE DUP1 PUSH1 0x0 MSTORE PUSH1 0x40 PUSH1 0x0 KECCAK256 PUSH1 0x0 SWAP2 POP SWAP1 POP DUP1 PUSH1 0x0 ADD PUSH1 0x0 SWAP1 SLOAD SWAP1 PUSH2 0x100 EXP SWAP1 DIV PUSH20 0xFFFFFFFFFFFFFFFFFFFFFFFFFFFFFFFFFFFFFFFF AND SWAP1 DUP1 PUSH1 0x1 ADD SLOAD SWAP1 DUP1 PUSH1 0x2 ADD PUSH1 0x0 SWAP1 SLOAD SWAP1 PUSH2 0x100 EXP SWAP1 DIV PUSH1 0xFF AND SWAP1 POP DUP4 JUMP JUMPDEST JUMP JUMPDEST PUSH32 0x0 DUP2 JUMP JUMPDEST PUSH1 0x1 PUSH1 0x0 PUSH2 0x2F6A PUSH2 0x383E JUMP JUMPDEST PUSH20 0xFFFFFFFFFFFFFFFFFFFFFFFFFFFFFFFFFFFFFFFF AND PUSH20 0xFFFFFFFFFFFFFFFFFFFFFFFFFFFFFFFFFFFFFFFF AND DUP2 MSTORE PUSH1 0x20 ADD SWAP1 DUP2 MSTORE PUSH1 0x20 ADD PUSH1 0x0 KECCAK256 PUSH1 0x0 ADD PUSH1 0x0 SWAP1 SLOAD SWAP1 PUSH2 0x100 EXP SWAP1 DIV PUSH1 0xFF AND PUSH1 0x4 DUP2 GT ISZERO PUSH2 0x2FC7 JUMPI PUSH2 0x2FC6 PUSH2 0x427B JUMP JUMPDEST JUMPDEST PUSH1 0x0 PUSH1 0x4 DUP2 GT ISZERO PUSH2 0x2FDB JUMPI PUSH2 0x2FDA PUSH2 0x427B JUMP JUMPDEST JUMPDEST EQ PUSH2 0x301B JUMPI PUSH1 0x40 MLOAD PUSH32 0x8C379A000000000000000000000000000000000000000000000000000000000 DUP2 MSTORE PUSH1 0x4 ADD PUSH2 0x3012 SWAP1 PUSH2 0x55FD JUMP JUMPDEST PUSH1 0x40 MLOAD DUP1 SWAP2 SUB SWAP1 REVERT JUMPDEST PUSH32 0x0 CALLVALUE EQ PUSH2 0x307D JUMPI PUSH1 0x40 MLOAD PUSH32 0x8C379A000000000000000000000000000000000000000000000000000000000 DUP2 MSTORE PUSH1 0x4 ADD PUSH2 0x3074 SWAP1 PUSH2 0x568F JUMP JUMPDEST PUSH1 0x40 MLOAD DUP1 SWAP2 SUB SWAP1 REVERT JUMPDEST PUSH1 0x1 DUP1 PUSH1 0x0 PUSH2 0x308A PUSH2 0x383E JUMP JUMPDEST PUSH20 0xFFFFFFFFFFFFFFFFFFFFFFFFFFFFFFFFFFFFFFFF AND PUSH20 0xFFFFFFFFFFFFFFFFFFFFFFFFFFFFFFFFFFFFFFFF AND DUP2 MSTORE PUSH1 0x20 ADD SWAP1 DUP2 MSTORE PUSH1 0x20 ADD PUSH1 0x0 KECCAK256 PUSH1 0x0 ADD PUSH1 0x0 PUSH2 0x100 EXP DUP2 SLOAD DUP2 PUSH1 0xFF MUL NOT AND SWAP1 DUP4 PUSH1 0x4 DUP2 GT ISZERO PUSH2 0x30E9 JUMPI PUSH2 0x30E8 PUSH2 0x427B JUMP JUMPDEST JUMPDEST MUL OR SWAP1 SSTORE POP CALLVALUE PUSH1 0x1 PUSH1 0x0 PUSH2 0x30FB PUSH2 0x383E JUMP JUMPDEST PUSH20 0xFFFFFFFFFFFFFFFFFFFFFFFFFFFFFFFFFFFFFFFF AND PUSH20 0xFFFFFFFFFFFFFFFFFFFFFFFFFFFFFFFFFFFFFFFF AND DUP2 MSTORE PUSH1 0x20 ADD SWAP1 DUP2 MSTORE PUSH1 0x20 ADD PUSH1 0x0 KECCAK256 PUSH1 0x2 ADD DUP2 SWAP1 SSTORE POP JUMP JUMPDEST PUSH1 0x7 DUP1 PUSH1 0x0 ADD SLOAD SWAP1 POP DUP2 JUMP JUMPDEST PUSH1 0x1 PUSH1 0x0 PUSH2 0x3156 PUSH2 0x383E JUMP JUMPDEST PUSH20 0xFFFFFFFFFFFFFFFFFFFFFFFFFFFFFFFFFFFFFFFF AND PUSH20 0xFFFFFFFFFFFFFFFFFFFFFFFFFFFFFFFFFFFFFFFF AND DUP2 MSTORE PUSH1 0x20 ADD SWAP1 DUP2 MSTORE PUSH1 0x20 ADD PUSH1 0x0 KECCAK256 PUSH1 0x0 ADD PUSH1 0x0 SWAP1 SLOAD SWAP1 PUSH2 0x100 EXP SWAP1 DIV PUSH1 0xFF AND PUSH1 0x4 DUP2 GT ISZERO PUSH2 0x31B3 JUMPI PUSH2 0x31B2 PUSH2 0x427B JUMP JUMPDEST JUMPDEST PUSH1 0x1 PUSH1 0x4 DUP2 GT ISZERO PUSH2 0x31C7 JUMPI PUSH2 0x31C6 PUSH2 0x427B JUMP JUMPDEST JUMPDEST EQ PUSH2 0x3207 JUMPI PUSH1 0x40 MLOAD PUSH32 0x8C379A000000000000000000000000000000000000000000000000000000000 DUP2 MSTORE PUSH1 0x4 ADD PUSH2 0x31FE SWAP1 PUSH2 0x4631 JUMP JUMPDEST PUSH1 0x40 MLOAD DUP1 SWAP2 SUB SWAP1 REVERT JUMPDEST PUSH1 0x2 PUSH1 0x1 PUSH1 0x0 PUSH2 0x3215 PUSH2 0x383E JUMP JUMPDEST PUSH20 0xFFFFFFFFFFFFFFFFFFFFFFFFFFFFFFFFFFFFFFFF AND PUSH20 0xFFFFFFFFFFFFFFFFFFFFFFFFFFFFFFFFFFFFFFFF AND DUP2 MSTORE PUSH1 0x20 ADD SWAP1 DUP2 MSTORE PUSH1 0x20 ADD PUSH1 0x0 KECCAK256 PUSH1 0x0 ADD PUSH1 0x0 PUSH2 0x100 EXP DUP2 SLOAD DUP2 PUSH1 0xFF MUL NOT AND SWAP1 DUP4 PUSH1 0x4 DUP2 GT ISZERO PUSH2 0x3274 JUMPI PUSH2 0x3273 PUSH2 0x427B JUMP JUMPDEST JUMPDEST MUL OR SWAP1 SSTORE POP TIMESTAMP PUSH1 0x1 PUSH1 0x0 PUSH2 0x3286 PUSH2 0x383E JUMP JUMPDEST PUSH20 0xFFFFFFFFFFFFFFFFFFFFFFFFFFFFFFFFFFFFFFFF AND PUSH20 0xFFFFFFFFFFFFFFFFFFFFFFFFFFFFFFFFFFFFFFFF AND DUP2 MSTORE PUSH1 0x20 ADD SWAP1 DUP2 MSTORE PUSH1 0x20 ADD PUSH1 0x0 KECCAK256 PUSH1 0x1 ADD DUP2 SWAP1 SSTORE POP JUMP JUMPDEST PUSH2 0x32D1 PUSH2 0x3879 JUMP JUMPDEST PUSH1 0x0 PUSH20 0xFFFFFFFFFFFFFFFFFFFFFFFFFFFFFFFFFFFFFFFF AND DUP2 PUSH20 0xFFFFFFFFFFFFFFFFFFFFFFFFFFFFFFFFFFFFFFFF AND SUB PUSH2 0x3340 JUMPI PUSH1 0x40 MLOAD PUSH32 0x8C379A000000000000000000000000000000000000000000000000000000000 DUP2 MSTORE PUSH1 0x4 ADD PUSH2 0x3337 SWAP1 PUSH2 0x5721 JUMP JUMPDEST PUSH1 0x40 MLOAD DUP1 SWAP2 SUB SWAP1 REVERT JUMPDEST PUSH2 0x3349 DUP2 PUSH2 0x38F7 JUMP JUMPDEST POP JUMP JUMPDEST PUSH1 0x3 PUSH1 0x20 MSTORE DUP1 PUSH1 0x0 MSTORE PUSH1 0x40 PUSH1 0x0 KECCAK256 PUSH1 0x0 SWAP2 POP SWAP1 POP DUP1 PUSH1 0x0 ADD PUSH1 0x0 SWAP1 SLOAD SWAP1 PUSH2 0x100 EXP SWAP1 DIV PUSH1 0xFF AND SWAP1 DUP1 PUSH1 0x1 ADD SLOAD SWAP1 DUP1 PUSH1 0x2 ADD PUSH1 0x0 SWAP1 SLOAD SWAP1 PUSH2 0x100 EXP SWAP1 DIV PUSH20 0xFFFFFFFFFFFFFFFFFFFFFFFFFFFFFFFFFFFFFFFF AND SWAP1 DUP1 PUSH1 0x3 ADD PUSH1 0x0 SWAP1 SLOAD SWAP1 PUSH2 0x100 EXP SWAP1 DIV PUSH20 0xFFFFFFFFFFFFFFFFFFFFFFFFFFFFFFFFFFFFFFFF AND SWAP1 DUP1 PUSH1 0x4 ADD SLOAD SWAP1 DUP1 PUSH1 0x5 ADD PUSH1 0x0 SWAP1 SLOAD SWAP1 PUSH2 0x100 EXP SWAP1 DIV PUSH20 0xFFFFFFFFFFFFFFFFFFFFFFFFFFFFFFFFFFFFFFFF AND SWAP1 DUP1 PUSH1 0x6 ADD PUSH1 0x0 SWAP1 SLOAD SWAP1 PUSH2 0x100 EXP SWAP1 DIV PUSH20 0xFFFFFFFFFFFFFFFFFFFFFFFFFFFFFFFFFFFFFFFF AND SWAP1 DUP1 PUSH1 0x7 ADD SLOAD SWAP1 DUP1 PUSH1 0x8 ADD PUSH1 0x0 SWAP1 SLOAD SWAP1 PUSH2 0x100 EXP SWAP1 DIV PUSH20 0xFFFFFFFFFFFFFFFFFFFFFFFFFFFFFFFFFFFFFFFF AND SWAP1 POP DUP10 JUMP JUMPDEST PUSH32 0x0 DUP2 JUMP JUMPDEST PUSH32 0x0 DUP2 JUMP JUMPDEST PUSH1 0x0 PUSH1 0x2 PUSH1 0x0 DUP4 DUP2 MSTORE PUSH1 0x20 ADD SWAP1 DUP2 MSTORE PUSH1 0x20 ADD PUSH1 0x0 KECCAK256 PUSH1 0x40 MLOAD DUP1 PUSH1 0xE0 ADD PUSH1 0x40 MSTORE SWAP1 DUP2 PUSH1 0x0 DUP3 ADD SLOAD DUP2 MSTORE PUSH1 0x20 ADD PUSH1 0x1 DUP3 ADD PUSH1 0x0 SWAP1 SLOAD SWAP1 PUSH2 0x100 EXP SWAP1 DIV PUSH1 0xFF AND PUSH1 0x4 DUP2 GT ISZERO PUSH2 0x34DE JUMPI PUSH2 0x34DD PUSH2 0x427B JUMP JUMPDEST JUMPDEST PUSH1 0x4 DUP2 GT ISZERO PUSH2 0x34F0 JUMPI PUSH2 0x34EF PUSH2 0x427B JUMP JUMPDEST JUMPDEST DUP2 MSTORE PUSH1 0x20 ADD PUSH1 0x1 DUP3 ADD PUSH1 0x1 SWAP1 SLOAD SWAP1 PUSH2 0x100 EXP SWAP1 DIV PUSH20 0xFFFFFFFFFFFFFFFFFFFFFFFFFFFFFFFFFFFFFFFF AND PUSH20 0xFFFFFFFFFFFFFFFFFFFFFFFFFFFFFFFFFFFFFFFF AND PUSH20 0xFFFFFFFFFFFFFFFFFFFFFFFFFFFFFFFFFFFFFFFF AND DUP2 MSTORE PUSH1 0x20 ADD PUSH1 0x2 DUP3 ADD SLOAD DUP2 MSTORE PUSH1 0x20 ADD PUSH1 0x3 DUP3 ADD PUSH1 0x0 SWAP1 SLOAD SWAP1 PUSH2 0x100 EXP SWAP1 DIV PUSH20 0xFFFFFFFFFFFFFFFFFFFFFFFFFFFFFFFFFFFFFFFF AND PUSH20 0xFFFFFFFFFFFFFFFFFFFFFFFFFFFFFFFFFFFFFFFF AND PUSH20 0xFFFFFFFFFFFFFFFFFFFFFFFFFFFFFFFFFFFFFFFF AND DUP2 MSTORE PUSH1 0x20 ADD PUSH1 0x4 DUP3 ADD SLOAD DUP2 MSTORE PUSH1 0x20 ADD PUSH1 0x5 DUP3 ADD PUSH1 0x0 SWAP1 SLOAD SWAP1 PUSH2 0x100 EXP SWAP1 DIV PUSH20 0xFFFFFFFFFFFFFFFFFFFFFFFFFFFFFFFFFFFFFFFF AND PUSH20 0xFFFFFFFFFFFFFFFFFFFFFFFFFFFFFFFFFFFFFFFF AND PUSH20 0xFFFFFFFFFFFFFFFFFFFFFFFFFFFFFFFFFFFFFFFF AND DUP2 MSTORE POP POP SWAP1 POP PUSH1 0x1 PUSH1 0x4 DUP2 GT ISZERO PUSH2 0x3620 JUMPI PUSH2 0x361F PUSH2 0x427B JUMP JUMPDEST JUMPDEST DUP2 PUSH1 0x20 ADD MLOAD PUSH1 0x4 DUP2 GT ISZERO PUSH2 0x3637 JUMPI PUSH2 0x3636 PUSH2 0x427B JUMP JUMPDEST JUMPDEST EQ PUSH2 0x3677 JUMPI PUSH1 0x40 MLOAD PUSH32 0x8C379A000000000000000000000000000000000000000000000000000000000 DUP2 MSTORE PUSH1 0x4 ADD PUSH2 0x366E SWAP1 PUSH2 0x57B3 JUMP JUMPDEST PUSH1 0x40 MLOAD DUP1 SWAP2 SUB SWAP1 REVERT JUMPDEST TIMESTAMP PUSH2 0x3840 DUP3 PUSH1 0xA0 ADD MLOAD PUSH2 0x368A SWAP2 SWAP1 PUSH2 0x48E8 JUMP JUMPDEST LT PUSH2 0x36CA JUMPI PUSH1 0x40 MLOAD PUSH32 0x8C379A000000000000000000000000000000000000000000000000000000000 DUP2 MSTORE PUSH1 0x4 ADD PUSH2 0x36C1 SWAP1 PUSH2 0x498E JUMP JUMPDEST PUSH1 0x40 MLOAD DUP1 SWAP2 SUB SWAP1 REVERT JUMPDEST PUSH2 0x36D2 PUSH2 0x383E JUMP JUMPDEST PUSH20 0xFFFFFFFFFFFFFFFFFFFFFFFFFFFFFFFFFFFFFFFF AND DUP2 PUSH1 0x40 ADD MLOAD PUSH20 0xFFFFFFFFFFFFFFFFFFFFFFFFFFFFFFFFFFFFFFFF AND EQ PUSH2 0x3743 JUMPI PUSH1 0x40 MLOAD PUSH32 0x8C379A000000000000000000000000000000000000000000000000000000000 DUP2 MSTORE PUSH1 0x4 ADD PUSH2 0x373A SWAP1 PUSH2 0x5845 JUMP JUMPDEST PUSH1 0x40 MLOAD DUP1 SWAP2 SUB SWAP1 REVERT JUMPDEST PUSH1 0x4 DUP2 PUSH1 0x20 ADD SWAP1 PUSH1 0x4 DUP2 GT ISZERO PUSH2 0x375C JUMPI PUSH2 0x375B PUSH2 0x427B JUMP JUMPDEST JUMPDEST SWAP1 DUP2 PUSH1 0x4 DUP2 GT ISZERO PUSH2 0x3770 JUMPI PUSH2 0x376F PUSH2 0x427B JUMP JUMPDEST JUMPDEST DUP2 MSTORE POP POP PUSH1 0x3 PUSH1 0x0 PUSH1 0x2 PUSH1 0x0 DUP6 DUP2 MSTORE PUSH1 0x20 ADD SWAP1 DUP2 MSTORE PUSH1 0x20 ADD PUSH1 0x0 KECCAK256 PUSH1 0x0 ADD SLOAD DUP2 MSTORE PUSH1 0x20 ADD SWAP1 DUP2 MSTORE PUSH1 0x20 ADD PUSH1 0x0 KECCAK256 PUSH1 0x5 ADD PUSH1 0x0 SWAP1 SLOAD SWAP1 PUSH2 0x100 EXP SWAP1 DIV PUSH20 0xFFFFFFFFFFFFFFFFFFFFFFFFFFFFFFFFFFFFFFFF AND PUSH20 0xFFFFFFFFFFFFFFFFFFFFFFFFFFFFFFFFFFFFFFFF AND PUSH4 0x42842E0E ADDRESS PUSH2 0x37E5 PUSH2 0x383E JUMP JUMPDEST DUP5 PUSH1 0x60 ADD MLOAD PUSH1 0x40 MLOAD DUP5 PUSH4 0xFFFFFFFF AND PUSH1 0xE0 SHL DUP2 MSTORE PUSH1 0x4 ADD PUSH2 0x3808 SWAP4 SWAP3 SWAP2 SWAP1 PUSH2 0x5093 JUMP JUMPDEST PUSH1 0x0 PUSH1 0x40 MLOAD DUP1 DUP4 SUB DUP2 PUSH1 0x0 DUP8 DUP1 EXTCODESIZE ISZERO DUP1 ISZERO PUSH2 0x3822 JUMPI PUSH1 0x0 DUP1 REVERT JUMPDEST POP GAS CALL ISZERO DUP1 ISZERO PUSH2 0x3836 JUMPI RETURNDATASIZE PUSH1 0x0 DUP1 RETURNDATACOPY RETURNDATASIZE PUSH1 0x0 REVERT JUMPDEST POP POP POP POP POP POP JUMP JUMPDEST PUSH1 0x0 CALLER SWAP1 POP SWAP1 JUMP JUMPDEST PUSH1 0x0 PUSH2 0x3850 PUSH2 0x383E JUMP JUMPDEST SWAP1 POP SWAP1 JUMP JUMPDEST PUSH1 0x0 DUP2 PUSH1 0x0 ADD SLOAD SWAP1 POP SWAP2 SWAP1 POP JUMP JUMPDEST PUSH1 0x1 DUP2 PUSH1 0x0 ADD PUSH1 0x0 DUP3 DUP3 SLOAD ADD SWAP3 POP POP DUP2 SWAP1 SSTORE POP POP JUMP JUMPDEST PUSH2 0x3881 PUSH2 0x383E JUMP JUMPDEST PUSH20 0xFFFFFFFFFFFFFFFFFFFFFFFFFFFFFFFFFFFFFFFF AND PUSH2 0x389F PUSH2 0x28C9 JUMP JUMPDEST PUSH20 0xFFFFFFFFFFFFFFFFFFFFFFFFFFFFFFFFFFFFFFFF AND EQ PUSH2 0x38F5 JUMPI PUSH1 0x40 MLOAD PUSH32 0x8C379A000000000000000000000000000000000000000000000000000000000 DUP2 MSTORE PUSH1 0x4 ADD PUSH2 0x38EC SWAP1 PUSH2 0x58B1 JUMP JUMPDEST PUSH1 0x40 MLOAD DUP1 SWAP2 SUB SWAP1 REVERT JUMPDEST JUMP JUMPDEST PUSH1 0x0 DUP1 PUSH1 0x0 SWAP1 SLOAD SWAP1 PUSH2 0x100 EXP SWAP1 DIV PUSH20 0xFFFFFFFFFFFFFFFFFFFFFFFFFFFFFFFFFFFFFFFF AND SWAP1 POP DUP2 PUSH1 0x0 DUP1 PUSH2 0x100 EXP DUP2 SLOAD DUP2 PUSH20 0xFFFFFFFFFFFFFFFFFFFFFFFFFFFFFFFFFFFFFFFF MUL NOT AND SWAP1 DUP4 PUSH20 0xFFFFFFFFFFFFFFFFFFFFFFFFFFFFFFFFFFFFFFFF AND MUL OR SWAP1 SSTORE POP DUP2 PUSH20 0xFFFFFFFFFFFFFFFFFFFFFFFFFFFFFFFFFFFFFFFF AND DUP2 PUSH20 0xFFFFFFFFFFFFFFFFFFFFFFFFFFFFFFFFFFFFFFFF AND PUSH32 0x8BE0079C531659141344CD1FD0A4F28419497F9722A3DAAFE3B4186F6B6457E0 PUSH1 0x40 MLOAD PUSH1 0x40 MLOAD DUP1 SWAP2 SUB SWAP1 LOG3 POP POP JUMP JUMPDEST PUSH32 0x0 CALLVALUE EQ PUSH2 0x3A1D JUMPI PUSH1 0x40 MLOAD PUSH32 0x8C379A000000000000000000000000000000000000000000000000000000000 DUP2 MSTORE PUSH1 0x4 ADD PUSH2 0x3A14 SWAP1 PUSH2 0x5943 JUMP JUMPDEST PUSH1 0x40 MLOAD DUP1 SWAP2 SUB SWAP1 REVERT JUMPDEST PUSH1 0x1 PUSH1 0x4 DUP2 GT ISZERO PUSH2 0x3A31 JUMPI PUSH2 0x3A30 PUSH2 0x427B JUMP JUMPDEST JUMPDEST PUSH1 0x2 PUSH1 0x0 DUP4 DUP2 MSTORE PUSH1 0x20 ADD SWAP1 DUP2 MSTORE PUSH1 0x20 ADD PUSH1 0x0 KECCAK256 PUSH1 0x1 ADD PUSH1 0x0 SWAP1 SLOAD SWAP1 PUSH2 0x100 EXP SWAP1 DIV PUSH1 0xFF AND PUSH1 0x4 DUP2 GT ISZERO PUSH2 0x3A67 JUMPI PUSH2 0x3A66 PUSH2 0x427B JUMP JUMPDEST JUMPDEST EQ PUSH2 0x3AA7 JUMPI PUSH1 0x40 MLOAD PUSH32 0x8C379A000000000000000000000000000000000000000000000000000000000 DUP2 MSTORE PUSH1 0x4 ADD PUSH2 0x3A9E SWAP1 PUSH2 0x59D5 JUMP JUMPDEST PUSH1 0x40 MLOAD DUP1 SWAP2 SUB SWAP1 REVERT JUMPDEST TIMESTAMP PUSH2 0x3840 PUSH1 0x2 PUSH1 0x0 DUP5 DUP2 MSTORE PUSH1 0x20 ADD SWAP1 DUP2 MSTORE PUSH1 0x20 ADD PUSH1 0x0 KECCAK256 PUSH1 0x4 ADD SLOAD PUSH2 0x3ACC SWAP2 SWAP1 PUSH2 0x48E8 JUMP JUMPDEST GT PUSH2 0x3B0C JUMPI PUSH1 0x40 MLOAD PUSH32 0x8C379A000000000000000000000000000000000000000000000000000000000 DUP2 MSTORE PUSH1 0x4 ADD PUSH2 0x3B03 SWAP1 PUSH2 0x5A67 JUMP JUMPDEST PUSH1 0x40 MLOAD DUP1 SWAP2 SUB SWAP1 REVERT JUMPDEST PUSH1 0x0 PUSH1 0x2 DUP2 GT ISZERO PUSH2 0x3B20 JUMPI PUSH2 0x3B1F PUSH2 0x427B JUMP JUMPDEST JUMPDEST PUSH1 0x4 PUSH1 0x0 DUP4 DUP2 MSTORE PUSH1 0x20 ADD SWAP1 DUP2 MSTORE PUSH1 0x20 ADD PUSH1 0x0 KECCAK256 PUSH1 0x0 ADD PUSH1 0x14 SWAP1 SLOAD SWAP1 PUSH2 0x100 EXP SWAP1 DIV PUSH1 0xFF AND PUSH1 0x2 DUP2 GT ISZERO PUSH2 0x3B56 JUMPI PUSH2 0x3B55 PUSH2 0x427B JUMP JUMPDEST JUMPDEST EQ PUSH2 0x3B96 JUMPI PUSH1 0x40 MLOAD PUSH32 0x8C379A000000000000000000000000000000000000000000000000000000000 DUP2 MSTORE PUSH1 0x4 ADD PUSH2 0x3B8D SWAP1 PUSH2 0x5AF9 JUMP JUMPDEST PUSH1 0x40 MLOAD DUP1 SWAP2 SUB SWAP1 REVERT JUMPDEST PUSH1 0x2 DUP1 PUSH1 0x0 DUP4 DUP2 MSTORE PUSH1 0x20 ADD SWAP1 DUP2 MSTORE PUSH1 0x20 ADD PUSH1 0x0 KECCAK256 PUSH1 0x1 ADD PUSH1 0x0 PUSH2 0x100 EXP DUP2 SLOAD DUP2 PUSH1 0xFF MUL NOT AND SWAP1 DUP4 PUSH1 0x4 DUP2 GT ISZERO PUSH2 0x3BCF JUMPI PUSH2 0x3BCE PUSH2 0x427B JUMP JUMPDEST JUMPDEST MUL OR SWAP1 SSTORE POP PUSH2 0x3BDC PUSH2 0x383E JUMP JUMPDEST PUSH1 0x4 PUSH1 0x0 DUP4 DUP2 MSTORE PUSH1 0x20 ADD SWAP1 DUP2 MSTORE PUSH1 0x20 ADD PUSH1 0x0 KECCAK256 PUSH1 0x0 ADD PUSH1 0x0 PUSH2 0x100 EXP DUP2 SLOAD DUP2 PUSH20 0xFFFFFFFFFFFFFFFFFFFFFFFFFFFFFFFFFFFFFFFF MUL NOT AND SWAP1 DUP4 PUSH20 0xFFFFFFFFFFFFFFFFFFFFFFFFFFFFFFFFFFFFFFFF AND MUL OR SWAP1 SSTORE POP PUSH1 0x1 PUSH1 0x4 PUSH1 0x0 DUP4 DUP2 MSTORE PUSH1 0x20 ADD SWAP1 DUP2 MSTORE PUSH1 0x20 ADD PUSH1 0x0 KECCAK256 PUSH1 0x0 ADD PUSH1 0x14 PUSH2 0x100 EXP DUP2 SLOAD DUP2 PUSH1 0xFF MUL NOT AND SWAP1 DUP4 PUSH1 0x2 DUP2 GT ISZERO PUSH2 0x3C6A JUMPI PUSH2 0x3C69 PUSH2 0x427B JUMP JUMPDEST JUMPDEST MUL OR SWAP1 SSTORE POP PUSH1 0x3 PUSH1 0x1 PUSH1 0x0 PUSH1 0x2 PUSH1 0x0 DUP6 DUP2 MSTORE PUSH1 0x20 ADD SWAP1 DUP2 MSTORE PUSH1 0x20 ADD PUSH1 0x0 KECCAK256 PUSH1 0x5 ADD PUSH1 0x0 SWAP1 SLOAD SWAP1 PUSH2 0x100 EXP SWAP1 DIV PUSH20 0xFFFFFFFFFFFFFFFFFFFFFFFFFFFFFFFFFFFFFFFF AND PUSH20 0xFFFFFFFFFFFFFFFFFFFFFFFFFFFFFFFFFFFFFFFF AND PUSH20 0xFFFFFFFFFFFFFFFFFFFFFFFFFFFFFFFFFFFFFFFF AND DUP2 MSTORE PUSH1 0x20 ADD SWAP1 DUP2 MSTORE PUSH1 0x20 ADD PUSH1 0x0 KECCAK256 PUSH1 0x0 ADD PUSH1 0x0 PUSH2 0x100 EXP DUP2 SLOAD DUP2 PUSH1 0xFF MUL NOT AND SWAP1 DUP4 PUSH1 0x4 DUP2 GT ISZERO PUSH2 0x3D0B JUMPI PUSH2 0x3D0A PUSH2 0x427B JUMP JUMPDEST JUMPDEST MUL OR SWAP1 SSTORE POP POP JUMP JUMPDEST PUSH32 0x0 PUSH20 0xFFFFFFFFFFFFFFFFFFFFFFFFFFFFFFFFFFFFFFFF AND PUSH4 0x4FF746F6 DUP3 PUSH1 0x40 MLOAD DUP3 PUSH4 0xFFFFFFFF AND PUSH1 0xE0 SHL DUP2 MSTORE PUSH1 0x4 ADD PUSH2 0x3D6C SWAP2 SWAP1 PUSH2 0x5B19 JUMP JUMPDEST PUSH1 0x0 PUSH1 0x40 MLOAD DUP1 DUP4 SUB DUP2 PUSH1 0x0 DUP8 DUP1 EXTCODESIZE ISZERO DUP1 ISZERO PUSH2 0x3D86 JUMPI PUSH1 0x0 DUP1 REVERT JUMPDEST POP GAS CALL ISZERO DUP1 ISZERO PUSH2 0x3D9A JUMPI RETURNDATASIZE PUSH1 0x0 DUP1 RETURNDATACOPY RETURNDATASIZE PUSH1 0x0 REVERT JUMPDEST POP POP POP POP POP JUMP JUMPDEST PUSH1 0x0 PUSH1 0x40 MLOAD SWAP1 POP SWAP1 JUMP JUMPDEST PUSH1 0x0 DUP1 REVERT JUMPDEST PUSH1 0x0 DUP1 REVERT JUMPDEST PUSH1 0x0 DUP2 SWAP1 POP SWAP2 SWAP1 POP JUMP JUMPDEST PUSH2 0x3DC8 DUP2 PUSH2 0x3DB5 JUMP JUMPDEST DUP2 EQ PUSH2 0x3DD3 JUMPI PUSH1 0x0 DUP1 REVERT JUMPDEST POP JUMP JUMPDEST PUSH1 0x0 DUP2 CALLDATALOAD SWAP1 POP PUSH2 0x3DE5 DUP2 PUSH2 0x3DBF JUMP JUMPDEST SWAP3 SWAP2 POP POP JUMP JUMPDEST PUSH1 0x0 PUSH1 0x20 DUP3 DUP5 SUB SLT ISZERO PUSH2 0x3E01 JUMPI PUSH2 0x3E00 PUSH2 0x3DAB JUMP JUMPDEST JUMPDEST PUSH1 0x0 PUSH2 0x3E0F DUP5 DUP3 DUP6 ADD PUSH2 0x3DD6 JUMP JUMPDEST SWAP2 POP POP SWAP3 SWAP2 POP POP JUMP JUMPDEST PUSH1 0x0 PUSH20 0xFFFFFFFFFFFFFFFFFFFFFFFFFFFFFFFFFFFFFFFF DUP3 AND SWAP1 POP SWAP2 SWAP1 POP JUMP JUMPDEST PUSH1 0x0 PUSH2 0x3E43 DUP3 PUSH2 0x3E18 JUMP JUMPDEST SWAP1 POP SWAP2 SWAP1 POP JUMP JUMPDEST PUSH2 0x3E53 DUP2 PUSH2 0x3E38 JUMP JUMPDEST DUP2 EQ PUSH2 0x3E5E JUMPI PUSH1 0x0 DUP1 REVERT JUMPDEST POP JUMP JUMPDEST PUSH1 0x0 DUP2 CALLDATALOAD SWAP1 POP PUSH2 0x3E70 DUP2 PUSH2 0x3E4A JUMP JUMPDEST SWAP3 SWAP2 POP POP JUMP JUMPDEST PUSH1 0x0 DUP1 REVERT JUMPDEST PUSH1 0x0 DUP1 REVERT JUMPDEST PUSH1 0x0 PUSH1 0x1F NOT PUSH1 0x1F DUP4 ADD AND SWAP1 POP SWAP2 SWAP1 POP JUMP JUMPDEST PUSH32 0x4E487B7100000000000000000000000000000000000000000000000000000000 PUSH1 0x0 MSTORE PUSH1 0x41 PUSH1 0x4 MSTORE PUSH1 0x24 PUSH1 0x0 REVERT JUMPDEST PUSH2 0x3EC9 DUP3 PUSH2 0x3E80 JUMP JUMPDEST DUP2 ADD DUP2 DUP2 LT PUSH8 0xFFFFFFFFFFFFFFFF DUP3 GT OR ISZERO PUSH2 0x3EE8 JUMPI PUSH2 0x3EE7 PUSH2 0x3E91 JUMP JUMPDEST JUMPDEST DUP1 PUSH1 0x40 MSTORE POP POP POP JUMP JUMPDEST PUSH1 0x0 PUSH2 0x3EFB PUSH2 0x3DA1 JUMP JUMPDEST SWAP1 POP PUSH2 0x3F07 DUP3 DUP3 PUSH2 0x3EC0 JUMP JUMPDEST SWAP2 SWAP1 POP JUMP JUMPDEST PUSH1 0x0 PUSH8 0xFFFFFFFFFFFFFFFF DUP3 GT ISZERO PUSH2 0x3F27 JUMPI PUSH2 0x3F26 PUSH2 0x3E91 JUMP JUMPDEST JUMPDEST PUSH2 0x3F30 DUP3 PUSH2 0x3E80 JUMP JUMPDEST SWAP1 POP PUSH1 0x20 DUP2 ADD SWAP1 POP SWAP2 SWAP1 POP JUMP JUMPDEST DUP3 DUP2 DUP4 CALLDATACOPY PUSH1 0x0 DUP4 DUP4 ADD MSTORE POP POP POP JUMP JUMPDEST PUSH1 0x0 PUSH2 0x3F5F PUSH2 0x3F5A DUP5 PUSH2 0x3F0C JUMP JUMPDEST PUSH2 0x3EF1 JUMP JUMPDEST SWAP1 POP DUP3 DUP2 MSTORE PUSH1 0x20 DUP2 ADD DUP5 DUP5 DUP5 ADD GT ISZERO PUSH2 0x3F7B JUMPI PUSH2 0x3F7A PUSH2 0x3E7B JUMP JUMPDEST JUMPDEST PUSH2 0x3F86 DUP5 DUP3 DUP6 PUSH2 0x3F3D JUMP JUMPDEST POP SWAP4 SWAP3 POP POP POP JUMP JUMPDEST PUSH1 0x0 DUP3 PUSH1 0x1F DUP4 ADD SLT PUSH2 0x3FA3 JUMPI PUSH2 0x3FA2 PUSH2 0x3E76 JUMP JUMPDEST JUMPDEST DUP2 CALLDATALOAD PUSH2 0x3FB3 DUP5 DUP3 PUSH1 0x20 DUP7 ADD PUSH2 0x3F4C JUMP JUMPDEST SWAP2 POP POP SWAP3 SWAP2 POP POP JUMP JUMPDEST PUSH1 0x0 DUP1 PUSH1 0x0 DUP1 PUSH1 0x80 DUP6 DUP8 SUB SLT ISZERO PUSH2 0x3FD6 JUMPI PUSH2 0x3FD5 PUSH2 0x3DAB JUMP JUMPDEST JUMPDEST PUSH1 0x0 PUSH2 0x3FE4 DUP8 DUP3 DUP9 ADD PUSH2 0x3E61 JUMP JUMPDEST SWAP5 POP POP PUSH1 0x20 PUSH2 0x3FF5 DUP8 DUP3 DUP9 ADD PUSH2 0x3E61 JUMP JUMPDEST SWAP4 POP POP PUSH1 0x40 PUSH2 0x4006 DUP8 DUP3 DUP9 ADD PUSH2 0x3DD6 JUMP JUMPDEST SWAP3 POP POP PUSH1 0x60 DUP6 ADD CALLDATALOAD PUSH8 0xFFFFFFFFFFFFFFFF DUP2 GT ISZERO PUSH2 0x4027 JUMPI PUSH2 0x4026 PUSH2 0x3DB0 JUMP JUMPDEST JUMPDEST PUSH2 0x4033 DUP8 DUP3 DUP9 ADD PUSH2 0x3F8E JUMP JUMPDEST SWAP2 POP POP SWAP3 SWAP6 SWAP2 SWAP5 POP SWAP3 POP JUMP JUMPDEST PUSH1 0x0 PUSH32 0xFFFFFFFF00000000000000000000000000000000000000000000000000000000 DUP3 AND SWAP1 POP SWAP2 SWAP1 POP JUMP JUMPDEST PUSH2 0x4074 DUP2 PUSH2 0x403F JUMP JUMPDEST DUP3 MSTORE POP POP JUMP JUMPDEST PUSH1 0x0 PUSH1 0x20 DUP3 ADD SWAP1 POP PUSH2 0x408F PUSH1 0x0 DUP4 ADD DUP5 PUSH2 0x406B JUMP JUMPDEST SWAP3 SWAP2 POP POP JUMP JUMPDEST PUSH1 0x0 DUP1 PUSH1 0x0 PUSH1 0x60 DUP5 DUP7 SUB SLT ISZERO PUSH2 0x40AE JUMPI PUSH2 0x40AD PUSH2 0x3DAB JUMP JUMPDEST JUMPDEST PUSH1 0x0 PUSH2 0x40BC DUP7 DUP3 DUP8 ADD PUSH2 0x3DD6 JUMP JUMPDEST SWAP4 POP POP PUSH1 0x20 PUSH2 0x40CD DUP7 DUP3 DUP8 ADD PUSH2 0x3DD6 JUMP JUMPDEST SWAP3 POP POP PUSH1 0x40 PUSH2 0x40DE DUP7 DUP3 DUP8 ADD PUSH2 0x3E61 JUMP JUMPDEST SWAP2 POP POP SWAP3 POP SWAP3 POP SWAP3 JUMP JUMPDEST PUSH2 0x40F1 DUP2 PUSH2 0x3E38 JUMP JUMPDEST DUP3 MSTORE POP POP JUMP JUMPDEST PUSH1 0x0 PUSH1 0x20 DUP3 ADD SWAP1 POP PUSH2 0x410C PUSH1 0x0 DUP4 ADD DUP5 PUSH2 0x40E8 JUMP JUMPDEST SWAP3 SWAP2 POP POP JUMP JUMPDEST PUSH1 0x0 PUSH1 0x20 DUP3 DUP5 SUB SLT ISZERO PUSH2 0x4128 JUMPI PUSH2 0x4127 PUSH2 0x3DAB JUMP JUMPDEST JUMPDEST PUSH1 0x0 DUP3 ADD CALLDATALOAD PUSH8 0xFFFFFFFFFFFFFFFF DUP2 GT ISZERO PUSH2 0x4146 JUMPI PUSH2 0x4145 PUSH2 0x3DB0 JUMP JUMPDEST JUMPDEST PUSH2 0x4152 DUP5 DUP3 DUP6 ADD PUSH2 0x3F8E JUMP JUMPDEST SWAP2 POP POP SWAP3 SWAP2 POP POP JUMP JUMPDEST PUSH1 0x0 DUP1 PUSH1 0x0 PUSH1 0x60 DUP5 DUP7 SUB SLT ISZERO PUSH2 0x4174 JUMPI PUSH2 0x4173 PUSH2 0x3DAB JUMP JUMPDEST JUMPDEST PUSH1 0x0 PUSH2 0x4182 DUP7 DUP3 DUP8 ADD PUSH2 0x3E61 JUMP JUMPDEST SWAP4 POP POP PUSH1 0x20 PUSH2 0x4193 DUP7 DUP3 DUP8 ADD PUSH2 0x3DD6 JUMP JUMPDEST SWAP3 POP POP PUSH1 0x40 PUSH2 0x41A4 DUP7 DUP3 DUP8 ADD PUSH2 0x3E61 JUMP JUMPDEST SWAP2 POP POP SWAP3 POP SWAP3 POP SWAP3 JUMP JUMPDEST PUSH1 0x0 DUP2 ISZERO ISZERO SWAP1 POP SWAP2 SWAP1 POP JUMP JUMPDEST PUSH2 0x41C3 DUP2 PUSH2 0x41AE JUMP JUMPDEST DUP2 EQ PUSH2 0x41CE JUMPI PUSH1 0x0 DUP1 REVERT JUMPDEST POP JUMP JUMPDEST PUSH1 0x0 DUP2 CALLDATALOAD SWAP1 POP PUSH2 0x41E0 DUP2 PUSH2 0x41BA JUMP JUMPDEST SWAP3 SWAP2 POP POP JUMP JUMPDEST PUSH1 0x0 DUP1 PUSH1 0x40 DUP4 DUP6 SUB SLT ISZERO PUSH2 0x41FD JUMPI PUSH2 0x41FC PUSH2 0x3DAB JUMP JUMPDEST JUMPDEST PUSH1 0x0 PUSH2 0x420B DUP6 DUP3 DUP7 ADD PUSH2 0x3DD6 JUMP JUMPDEST SWAP3 POP POP PUSH1 0x20 PUSH2 0x421C DUP6 DUP3 DUP7 ADD PUSH2 0x41D1 JUMP JUMPDEST SWAP2 POP POP SWAP3 POP SWAP3 SWAP1 POP JUMP JUMPDEST PUSH2 0x422F DUP2 PUSH2 0x3DB5 JUMP JUMPDEST DUP3 MSTORE POP POP JUMP JUMPDEST PUSH2 0x423E DUP2 PUSH2 0x41AE JUMP JUMPDEST DUP3 MSTORE POP POP JUMP JUMPDEST PUSH1 0x0 PUSH1 0x60 DUP3 ADD SWAP1 POP PUSH2 0x4259 PUSH1 0x0 DUP4 ADD DUP7 PUSH2 0x40E8 JUMP JUMPDEST PUSH2 0x4266 PUSH1 0x20 DUP4 ADD DUP6 PUSH2 0x4226 JUMP JUMPDEST PUSH2 0x4273 PUSH1 0x40 DUP4 ADD DUP5 PUSH2 0x4235 JUMP JUMPDEST SWAP5 SWAP4 POP POP POP POP JUMP JUMPDEST PUSH32 0x4E487B7100000000000000000000000000000000000000000000000000000000 PUSH1 0x0 MSTORE PUSH1 0x21 PUSH1 0x4 MSTORE PUSH1 0x24 PUSH1 0x0 REVERT JUMPDEST PUSH1 0x3 DUP2 LT PUSH2 0x42BB JUMPI PUSH2 0x42BA PUSH2 0x427B JUMP JUMPDEST JUMPDEST POP JUMP JUMPDEST PUSH1 0x0 DUP2 SWAP1 POP PUSH2 0x42CC DUP3 PUSH2 0x42AA JUMP JUMPDEST SWAP2 SWAP1 POP JUMP JUMPDEST PUSH1 0x0 PUSH2 0x42DC DUP3 PUSH2 0x42BE JUMP JUMPDEST SWAP1 POP SWAP2 SWAP1 POP JUMP JUMPDEST PUSH2 0x42EC DUP2 PUSH2 0x42D1 JUMP JUMPDEST DUP3 MSTORE POP POP JUMP JUMPDEST PUSH1 0x0 PUSH1 0x40 DUP3 ADD SWAP1 POP PUSH2 0x4307 PUSH1 0x0 DUP4 ADD DUP6 PUSH2 0x40E8 JUMP JUMPDEST PUSH2 0x4314 PUSH1 0x20 DUP4 ADD DUP5 PUSH2 0x42E3 JUMP JUMPDEST SWAP4 SWAP3 POP POP POP JUMP JUMPDEST PUSH1 0x0 PUSH1 0x20 DUP3 ADD SWAP1 POP PUSH2 0x4330 PUSH1 0x0 DUP4 ADD DUP5 PUSH2 0x4226 JUMP JUMPDEST SWAP3 SWAP2 POP POP JUMP JUMPDEST PUSH1 0x0 PUSH1 0x20 DUP3 DUP5 SUB SLT ISZERO PUSH2 0x434C JUMPI PUSH2 0x434B PUSH2 0x3DAB JUMP JUMPDEST JUMPDEST PUSH1 0x0 PUSH2 0x435A DUP5 DUP3 DUP6 ADD PUSH2 0x3E61 JUMP JUMPDEST SWAP2 POP POP SWAP3 SWAP2 POP POP JUMP JUMPDEST PUSH1 0x5 DUP2 LT PUSH2 0x4374 JUMPI PUSH2 0x4373 PUSH2 0x427B JUMP JUMPDEST JUMPDEST POP JUMP JUMPDEST PUSH1 0x0 DUP2 SWAP1 POP PUSH2 0x4385 DUP3 PUSH2 0x4363 JUMP JUMPDEST SWAP2 SWAP1 POP JUMP JUMPDEST PUSH1 0x0 PUSH2 0x4395 DUP3 PUSH2 0x4377 JUMP JUMPDEST SWAP1 POP SWAP2 SWAP1 POP JUMP JUMPDEST PUSH2 0x43A5 DUP2 PUSH2 0x438A JUMP JUMPDEST DUP3 MSTORE POP POP JUMP JUMPDEST PUSH1 0x0 PUSH1 0x60 DUP3 ADD SWAP1 POP PUSH2 0x43C0 PUSH1 0x0 DUP4 ADD DUP7 PUSH2 0x439C JUMP JUMPDEST PUSH2 0x43CD PUSH1 0x20 DUP4 ADD DUP6 PUSH2 0x4226 JUMP JUMPDEST PUSH2 0x43DA PUSH1 0x40 DUP4 ADD DUP5 PUSH2 0x4226 JUMP JUMPDEST SWAP5 SWAP4 POP POP POP POP JUMP JUMPDEST PUSH1 0x5 DUP2 LT PUSH2 0x43F3 JUMPI PUSH2 0x43F2 PUSH2 0x427B JUMP JUMPDEST JUMPDEST POP JUMP JUMPDEST PUSH1 0x0 DUP2 SWAP1 POP PUSH2 0x4404 DUP3 PUSH2 0x43E2 JUMP JUMPDEST SWAP2 SWAP1 POP JUMP JUMPDEST PUSH1 0x0 PUSH2 0x4414 DUP3 PUSH2 0x43F6 JUMP JUMPDEST SWAP1 POP SWAP2 SWAP1 POP JUMP JUMPDEST PUSH2 0x4424 DUP2 PUSH2 0x4409 JUMP JUMPDEST DUP3 MSTORE POP POP JUMP JUMPDEST PUSH1 0x0 PUSH1 0xE0 DUP3 ADD SWAP1 POP PUSH2 0x443F PUSH1 0x0 DUP4 ADD DUP11 PUSH2 0x4226 JUMP JUMPDEST PUSH2 0x444C PUSH1 0x20 DUP4 ADD DUP10 PUSH2 0x441B JUMP JUMPDEST PUSH2 0x4459 PUSH1 0x40 DUP4 ADD DUP9 PUSH2 0x40E8 JUMP JUMPDEST PUSH2 0x4466 PUSH1 0x60 DUP4 ADD DUP8 PUSH2 0x4226 JUMP JUMPDEST PUSH2 0x4473 PUSH1 0x80 DUP4 ADD DUP7 PUSH2 0x40E8 JUMP JUMPDEST PUSH2 0x4480 PUSH1 0xA0 DUP4 ADD DUP6 PUSH2 0x4226 JUMP JUMPDEST PUSH2 0x448D PUSH1 0xC0 DUP4 ADD DUP5 PUSH2 0x40E8 JUMP JUMPDEST SWAP9 SWAP8 POP POP POP POP POP POP POP POP JUMP JUMPDEST PUSH1 0x0 DUP1 PUSH1 0x40 DUP4 DUP6 SUB SLT ISZERO PUSH2 0x44B0 JUMPI PUSH2 0x44AF PUSH2 0x3DAB JUMP JUMPDEST JUMPDEST PUSH1 0x0 PUSH2 0x44BE DUP6 DUP3 DUP7 ADD PUSH2 0x41D1 JUMP JUMPDEST SWAP3 POP POP PUSH1 0x20 PUSH2 0x44CF DUP6 DUP3 DUP7 ADD PUSH2 0x3DD6 JUMP JUMPDEST SWAP2 POP POP SWAP3 POP SWAP3 SWAP1 POP JUMP JUMPDEST PUSH1 0x6 DUP2 LT PUSH2 0x44EA JUMPI PUSH2 0x44E9 PUSH2 0x427B JUMP JUMPDEST JUMPDEST POP JUMP JUMPDEST PUSH1 0x0 DUP2 SWAP1 POP PUSH2 0x44FB DUP3 PUSH2 0x44D9 JUMP JUMPDEST SWAP2 SWAP1 POP JUMP JUMPDEST PUSH1 0x0 PUSH2 0x450B DUP3 PUSH2 0x44ED JUMP JUMPDEST SWAP1 POP SWAP2 SWAP1 POP JUMP JUMPDEST PUSH2 0x451B DUP2 PUSH2 0x4500 JUMP JUMPDEST DUP3 MSTORE POP POP JUMP JUMPDEST PUSH1 0x0 PUSH2 0x120 DUP3 ADD SWAP1 POP PUSH2 0x4537 PUSH1 0x0 DUP4 ADD DUP13 PUSH2 0x4512 JUMP JUMPDEST PUSH2 0x4544 PUSH1 0x20 DUP4 ADD DUP12 PUSH2 0x4226 JUMP JUMPDEST PUSH2 0x4551 PUSH1 0x40 DUP4 ADD DUP11 PUSH2 0x40E8 JUMP JUMPDEST PUSH2 0x455E PUSH1 0x60 DUP4 ADD DUP10 PUSH2 0x40E8 JUMP JUMPDEST PUSH2 0x456B PUSH1 0x80 DUP4 ADD DUP9 PUSH2 0x4226 JUMP JUMPDEST PUSH2 0x4578 PUSH1 0xA0 DUP4 ADD DUP8 PUSH2 0x40E8 JUMP JUMPDEST PUSH2 0x4585 PUSH1 0xC0 DUP4 ADD DUP7 PUSH2 0x40E8 JUMP JUMPDEST PUSH2 0x4592 PUSH1 0xE0 DUP4 ADD DUP6 PUSH2 0x4226 JUMP JUMPDEST PUSH2 0x45A0 PUSH2 0x100 DUP4 ADD DUP5 PUSH2 0x40E8 JUMP JUMPDEST SWAP11 SWAP10 POP POP POP POP POP POP POP POP POP POP JUMP JUMPDEST PUSH1 0x0 DUP3 DUP3 MSTORE PUSH1 0x20 DUP3 ADD SWAP1 POP SWAP3 SWAP2 POP POP JUMP JUMPDEST PUSH32 0x53706F6B654272696467653A2063616C6C6572206973206E6F7420612072656C PUSH1 0x0 DUP3 ADD MSTORE PUSH32 0x6179657221000000000000000000000000000000000000000000000000000000 PUSH1 0x20 DUP3 ADD MSTORE POP JUMP JUMPDEST PUSH1 0x0 PUSH2 0x461B PUSH1 0x25 DUP4 PUSH2 0x45AE JUMP JUMPDEST SWAP2 POP PUSH2 0x4626 DUP3 PUSH2 0x45BF JUMP JUMPDEST PUSH1 0x40 DUP3 ADD SWAP1 POP SWAP2 SWAP1 POP JUMP JUMPDEST PUSH1 0x0 PUSH1 0x20 DUP3 ADD SWAP1 POP DUP2 DUP2 SUB PUSH1 0x0 DUP4 ADD MSTORE PUSH2 0x464A DUP2 PUSH2 0x460E JUMP JUMPDEST SWAP1 POP SWAP2 SWAP1 POP JUMP JUMPDEST PUSH32 0x53706F6B654272696467653A2062696420646F6573206E6F7420686176652043 PUSH1 0x0 DUP3 ADD MSTORE PUSH32 0x7265617465642073746174650000000000000000000000000000000000000000 PUSH1 0x20 DUP3 ADD MSTORE POP JUMP JUMPDEST PUSH1 0x0 PUSH2 0x46AD PUSH1 0x2C DUP4 PUSH2 0x45AE JUMP JUMPDEST SWAP2 POP PUSH2 0x46B8 DUP3 PUSH2 0x4651 JUMP JUMPDEST PUSH1 0x40 DUP3 ADD SWAP1 POP SWAP2 SWAP1 POP JUMP JUMPDEST PUSH1 0x0 PUSH1 0x20 DUP3 ADD SWAP1 POP DUP2 DUP2 SUB PUSH1 0x0 DUP4 ADD MSTORE PUSH2 0x46DC DUP2 PUSH2 0x46A0 JUMP JUMPDEST SWAP1 POP SWAP2 SWAP1 POP JUMP JUMPDEST PUSH1 0x0 DUP2 SWAP1 POP SWAP3 SWAP2 POP POP JUMP JUMPDEST POP JUMP JUMPDEST PUSH1 0x0 PUSH2 0x46FE PUSH1 0x0 DUP4 PUSH2 0x46E3 JUMP JUMPDEST SWAP2 POP PUSH2 0x4709 DUP3 PUSH2 0x46EE JUMP JUMPDEST PUSH1 0x0 DUP3 ADD SWAP1 POP SWAP2 SWAP1 POP JUMP JUMPDEST PUSH1 0x0 PUSH2 0x471F DUP3 PUSH2 0x46F1 JUMP JUMPDEST SWAP2 POP DUP2 SWAP1 POP SWAP2 SWAP1 POP JUMP JUMPDEST PUSH32 0x4661696C656420746F2073656E64204574686572000000000000000000000000 PUSH1 0x0 DUP3 ADD MSTORE POP JUMP JUMPDEST PUSH1 0x0 PUSH2 0x475F PUSH1 0x14 DUP4 PUSH2 0x45AE JUMP JUMPDEST SWAP2 POP PUSH2 0x476A DUP3 PUSH2 0x4729 JUMP JUMPDEST PUSH1 0x20 DUP3 ADD SWAP1 POP SWAP2 SWAP1 POP JUMP JUMPDEST PUSH1 0x0 PUSH1 0x20 DUP3 ADD SWAP1 POP DUP2 DUP2 SUB PUSH1 0x0 DUP4 ADD MSTORE PUSH2 0x478E DUP2 PUSH2 0x4752 JUMP JUMPDEST SWAP1 POP SWAP2 SWAP1 POP JUMP JUMPDEST PUSH32 0x53726353706F6B654272696467653A20746865206F7574676F696E6720626964 PUSH1 0x0 DUP3 ADD MSTORE PUSH32 0x206973206E6F7420626F75676874210000000000000000000000000000000000 PUSH1 0x20 DUP3 ADD MSTORE POP JUMP JUMPDEST PUSH1 0x0 PUSH2 0x47F1 PUSH1 0x2F DUP4 PUSH2 0x45AE JUMP JUMPDEST SWAP2 POP PUSH2 0x47FC DUP3 PUSH2 0x4795 JUMP JUMPDEST PUSH1 0x40 DUP3 ADD SWAP1 POP SWAP2 SWAP1 POP JUMP JUMPDEST PUSH1 0x0 PUSH1 0x20 DUP3 ADD SWAP1 POP DUP2 DUP2 SUB PUSH1 0x0 DUP4 ADD MSTORE PUSH2 0x4820 DUP2 PUSH2 0x47E4 JUMP JUMPDEST SWAP1 POP SWAP2 SWAP1 POP JUMP JUMPDEST PUSH32 0x53726353706F6B654272696467653A20746865726520697320616E20696E636F PUSH1 0x0 DUP3 ADD MSTORE PUSH32 0x6D696E67206269642077697468207468652073616D6520696421000000000000 PUSH1 0x20 DUP3 ADD MSTORE POP JUMP JUMPDEST PUSH1 0x0 PUSH2 0x4883 PUSH1 0x3A DUP4 PUSH2 0x45AE JUMP JUMPDEST SWAP2 POP PUSH2 0x488E DUP3 PUSH2 0x4827 JUMP JUMPDEST PUSH1 0x40 DUP3 ADD SWAP1 POP SWAP2 SWAP1 POP JUMP JUMPDEST PUSH1 0x0 PUSH1 0x20 DUP3 ADD SWAP1 POP DUP2 DUP2 SUB PUSH1 0x0 DUP4 ADD MSTORE PUSH2 0x48B2 DUP2 PUSH2 0x4876 JUMP JUMPDEST SWAP1 POP SWAP2 SWAP1 POP JUMP JUMPDEST PUSH32 0x4E487B7100000000000000000000000000000000000000000000000000000000 PUSH1 0x0 MSTORE PUSH1 0x11 PUSH1 0x4 MSTORE PUSH1 0x24 PUSH1 0x0 REVERT JUMPDEST PUSH1 0x0 PUSH2 0x48F3 DUP3 PUSH2 0x3DB5 JUMP JUMPDEST SWAP2 POP PUSH2 0x48FE DUP4 PUSH2 0x3DB5 JUMP JUMPDEST SWAP3 POP DUP3 DUP3 ADD SWAP1 POP DUP1 DUP3 GT ISZERO PUSH2 0x4916 JUMPI PUSH2 0x4915 PUSH2 0x48B9 JUMP JUMPDEST JUMPDEST SWAP3 SWAP2 POP POP JUMP JUMPDEST PUSH32 0x53726353706F6B654272696467653A20746865206368616C6C656E67696E6720 PUSH1 0x0 DUP3 ADD MSTORE PUSH32 0x706572696F64206973206E6F7420657870697265642079657421000000000000 PUSH1 0x20 DUP3 ADD MSTORE POP JUMP JUMPDEST PUSH1 0x0 PUSH2 0x4978 PUSH1 0x3A DUP4 PUSH2 0x45AE JUMP JUMPDEST SWAP2 POP PUSH2 0x4983 DUP3 PUSH2 0x491C JUMP JUMPDEST PUSH1 0x40 DUP3 ADD SWAP1 POP SWAP2 SWAP1 POP JUMP JUMPDEST PUSH1 0x0 PUSH1 0x20 DUP3 ADD SWAP1 POP DUP2 DUP2 SUB PUSH1 0x0 DUP4 ADD MSTORE PUSH2 0x49A7 DUP2 PUSH2 0x496B JUMP JUMPDEST SWAP1 POP SWAP2 SWAP1 POP JUMP JUMPDEST PUSH1 0x0 DUP2 MLOAD SWAP1 POP PUSH2 0x49BD DUP2 PUSH2 0x3E4A JUMP JUMPDEST SWAP3 SWAP2 POP POP JUMP JUMPDEST PUSH1 0x0 PUSH1 0x20 DUP3 DUP5 SUB SLT ISZERO PUSH2 0x49D9 JUMPI PUSH2 0x49D8 PUSH2 0x3DAB JUMP JUMPDEST JUMPDEST PUSH1 0x0 PUSH2 0x49E7 DUP5 DUP3 DUP6 ADD PUSH2 0x49AE JUMP JUMPDEST SWAP2 POP POP SWAP3 SWAP2 POP POP JUMP JUMPDEST PUSH32 0x53726353706F6B654272696467653A207468657265206973206E6F206C6F636B PUSH1 0x0 DUP3 ADD MSTORE PUSH32 0x656420746F6B656E210000000000000000000000000000000000000000000000 PUSH1 0x20 DUP3 ADD MSTORE POP JUMP JUMPDEST PUSH1 0x0 PUSH2 0x4A4C PUSH1 0x29 DUP4 PUSH2 0x45AE JUMP JUMPDEST SWAP2 POP PUSH2 0x4A57 DUP3 PUSH2 0x49F0 JUMP JUMPDEST PUSH1 0x40 DUP3 ADD SWAP1 POP SWAP2 SWAP1 POP JUMP JUMPDEST PUSH1 0x0 PUSH1 0x20 DUP3 ADD SWAP1 POP DUP2 DUP2 SUB PUSH1 0x0 DUP4 ADD MSTORE PUSH2 0x4A7B DUP2 PUSH2 0x4A3F JUMP JUMPDEST SWAP1 POP SWAP2 SWAP1 POP JUMP JUMPDEST PUSH32 0x53706F6B654272696467653A2063616C6C6572206973206E6F74207468652068 PUSH1 0x0 DUP3 ADD MSTORE PUSH32 0x7562210000000000000000000000000000000000000000000000000000000000 PUSH1 0x20 DUP3 ADD MSTORE POP JUMP JUMPDEST PUSH1 0x0 PUSH2 0x4ADE PUSH1 0x23 DUP4 PUSH2 0x45AE JUMP JUMPDEST SWAP2 POP PUSH2 0x4AE9 DUP3 PUSH2 0x4A82 JUMP JUMPDEST PUSH1 0x40 DUP3 ADD SWAP1 POP SWAP2 SWAP1 POP JUMP JUMPDEST PUSH1 0x0 PUSH1 0x20 DUP3 ADD SWAP1 POP DUP2 DUP2 SUB PUSH1 0x0 DUP4 ADD MSTORE PUSH2 0x4B0D DUP2 PUSH2 0x4AD1 JUMP JUMPDEST SWAP1 POP SWAP2 SWAP1 POP JUMP JUMPDEST PUSH1 0x0 JUMPDEST DUP4 DUP2 LT ISZERO PUSH2 0x4B32 JUMPI DUP1 DUP3 ADD MLOAD DUP2 DUP5 ADD MSTORE PUSH1 0x20 DUP2 ADD SWAP1 POP PUSH2 0x4B17 JUMP JUMPDEST PUSH1 0x0 DUP5 DUP5 ADD MSTORE POP POP POP POP JUMP JUMPDEST PUSH1 0x0 PUSH2 0x4B51 PUSH2 0x4B4C DUP5 PUSH2 0x3F0C JUMP JUMPDEST PUSH2 0x3EF1 JUMP JUMPDEST SWAP1 POP DUP3 DUP2 MSTORE PUSH1 0x20 DUP2 ADD DUP5 DUP5 DUP5 ADD GT ISZERO PUSH2 0x4B6D JUMPI PUSH2 0x4B6C PUSH2 0x3E7B JUMP JUMPDEST JUMPDEST PUSH2 0x4B78 DUP5 DUP3 DUP6 PUSH2 0x4B14 JUMP JUMPDEST POP SWAP4 SWAP3 POP POP POP JUMP JUMPDEST PUSH1 0x0 DUP3 PUSH1 0x1F DUP4 ADD SLT PUSH2 0x4B95 JUMPI PUSH2 0x4B94 PUSH2 0x3E76 JUMP JUMPDEST JUMPDEST DUP2 MLOAD PUSH2 0x4BA5 DUP5 DUP3 PUSH1 0x20 DUP7 ADD PUSH2 0x4B3E JUMP JUMPDEST SWAP2 POP POP SWAP3 SWAP2 POP POP JUMP JUMPDEST PUSH1 0x0 DUP2 MLOAD SWAP1 POP PUSH2 0x4BBD DUP2 PUSH2 0x41BA JUMP JUMPDEST SWAP3 SWAP2 POP POP JUMP JUMPDEST PUSH1 0x0 DUP1 PUSH1 0x40 DUP4 DUP6 SUB SLT ISZERO PUSH2 0x4BDA JUMPI PUSH2 0x4BD9 PUSH2 0x3DAB JUMP JUMPDEST JUMPDEST PUSH1 0x0 DUP4 ADD MLOAD PUSH8 0xFFFFFFFFFFFFFFFF DUP2 GT ISZERO PUSH2 0x4BF8 JUMPI PUSH2 0x4BF7 PUSH2 0x3DB0 JUMP JUMPDEST JUMPDEST PUSH2 0x4C04 DUP6 DUP3 DUP7 ADD PUSH2 0x4B80 JUMP JUMPDEST SWAP3 POP POP PUSH1 0x20 PUSH2 0x4C15 DUP6 DUP3 DUP7 ADD PUSH2 0x4BAE JUMP JUMPDEST SWAP2 POP POP SWAP3 POP SWAP3 SWAP1 POP JUMP JUMPDEST PUSH1 0x0 DUP2 MLOAD SWAP1 POP PUSH2 0x4C2E DUP2 PUSH2 0x3DBF JUMP JUMPDEST SWAP3 SWAP2 POP POP JUMP JUMPDEST PUSH1 0x6 DUP2 LT PUSH2 0x4C41 JUMPI PUSH1 0x0 DUP1 REVERT JUMPDEST POP JUMP JUMPDEST PUSH1 0x0 DUP2 MLOAD SWAP1 POP PUSH2 0x4C53 DUP2 PUSH2 0x4C34 JUMP JUMPDEST SWAP3 SWAP2 POP POP JUMP JUMPDEST PUSH1 0x0 PUSH2 0x4C64 DUP3 PUSH2 0x3E18 JUMP JUMPDEST SWAP1 POP SWAP2 SWAP1 POP JUMP JUMPDEST PUSH2 0x4C74 DUP2 PUSH2 0x4C59 JUMP JUMPDEST DUP2 EQ PUSH2 0x4C7F JUMPI PUSH1 0x0 DUP1 REVERT JUMPDEST POP JUMP JUMPDEST PUSH1 0x0 DUP2 MLOAD SWAP1 POP PUSH2 0x4C91 DUP2 PUSH2 0x4C6B JUMP JUMPDEST SWAP3 SWAP2 POP POP JUMP JUMPDEST PUSH1 0x0 DUP1 PUSH1 0x0 DUP1 PUSH1 0x0 DUP1 PUSH1 0xC0 DUP8 DUP10 SUB SLT ISZERO PUSH2 0x4CB4 JUMPI PUSH2 0x4CB3 PUSH2 0x3DAB JUMP JUMPDEST JUMPDEST PUSH1 0x0 PUSH2 0x4CC2 DUP10 DUP3 DUP11 ADD PUSH2 0x4C1F JUMP JUMPDEST SWAP7 POP POP PUSH1 0x20 PUSH2 0x4CD3 DUP10 DUP3 DUP11 ADD PUSH2 0x4C44 JUMP JUMPDEST SWAP6 POP POP PUSH1 0x40 PUSH2 0x4CE4 DUP10 DUP3 DUP11 ADD PUSH2 0x4C82 JUMP JUMPDEST SWAP5 POP POP PUSH1 0x60 PUSH2 0x4CF5 DUP10 DUP3 DUP11 ADD PUSH2 0x4C1F JUMP JUMPDEST SWAP4 POP POP PUSH1 0x80 PUSH2 0x4D06 DUP10 DUP3 DUP11 ADD PUSH2 0x4C82 JUMP JUMPDEST SWAP3 POP POP PUSH1 0xA0 PUSH2 0x4D17 DUP10 DUP3 DUP11 ADD PUSH2 0x4C82 JUMP JUMPDEST SWAP2 POP POP SWAP3 SWAP6 POP SWAP3 SWAP6 POP SWAP3 SWAP6 JUMP JUMPDEST PUSH32 0x53726353706F6B654272646967653A205468657265206973206E6F20636F7272 PUSH1 0x0 DUP3 ADD MSTORE PUSH32 0x6573706F6E64696E67206C6F63616C2062696421000000000000000000000000 PUSH1 0x20 DUP3 ADD MSTORE POP JUMP JUMPDEST PUSH1 0x0 PUSH2 0x4D80 PUSH1 0x34 DUP4 PUSH2 0x45AE JUMP JUMPDEST SWAP2 POP PUSH2 0x4D8B DUP3 PUSH2 0x4D24 JUMP JUMPDEST PUSH1 0x40 DUP3 ADD SWAP1 POP SWAP2 SWAP1 POP JUMP JUMPDEST PUSH1 0x0 PUSH1 0x20 DUP3 ADD SWAP1 POP DUP2 DUP2 SUB PUSH1 0x0 DUP4 ADD MSTORE PUSH2 0x4DAF DUP2 PUSH2 0x4D73 JUMP JUMPDEST SWAP1 POP SWAP2 SWAP1 POP JUMP JUMPDEST PUSH32 0x53726353706F6B654272696467653A2054696D652077696E646F772069732065 PUSH1 0x0 DUP3 ADD MSTORE PUSH32 0x7870697265642100000000000000000000000000000000000000000000000000 PUSH1 0x20 DUP3 ADD MSTORE POP JUMP JUMPDEST PUSH1 0x0 PUSH2 0x4E12 PUSH1 0x27 DUP4 PUSH2 0x45AE JUMP JUMPDEST SWAP2 POP PUSH2 0x4E1D DUP3 PUSH2 0x4DB6 JUMP JUMPDEST PUSH1 0x40 DUP3 ADD SWAP1 POP SWAP2 SWAP1 POP JUMP JUMPDEST PUSH1 0x0 PUSH1 0x20 DUP3 ADD SWAP1 POP DUP2 DUP2 SUB PUSH1 0x0 DUP4 ADD MSTORE PUSH2 0x4E41 DUP2 PUSH2 0x4E05 JUMP JUMPDEST SWAP1 POP SWAP2 SWAP1 POP JUMP JUMPDEST PUSH32 0x4E487B7100000000000000000000000000000000000000000000000000000000 PUSH1 0x0 MSTORE PUSH1 0x12 PUSH1 0x4 MSTORE PUSH1 0x24 PUSH1 0x0 REVERT JUMPDEST PUSH1 0x0 PUSH2 0x4E82 DUP3 PUSH2 0x3DB5 JUMP JUMPDEST SWAP2 POP PUSH2 0x4E8D DUP4 PUSH2 0x3DB5 JUMP JUMPDEST SWAP3 POP DUP3 PUSH2 0x4E9D JUMPI PUSH2 0x4E9C PUSH2 0x4E48 JUMP JUMPDEST JUMPDEST DUP3 DUP3 DIV SWAP1 POP SWAP3 SWAP2 POP POP JUMP JUMPDEST PUSH1 0x5 DUP2 LT PUSH2 0x4EB5 JUMPI PUSH1 0x0 DUP1 REVERT JUMPDEST POP JUMP JUMPDEST PUSH1 0x0 DUP2 MLOAD SWAP1 POP PUSH2 0x4EC7 DUP2 PUSH2 0x4EA8 JUMP JUMPDEST SWAP3 SWAP2 POP POP JUMP JUMPDEST PUSH1 0x0 DUP1 PUSH1 0x0 DUP1 PUSH1 0x0 DUP1 PUSH1 0x0 PUSH1 0xE0 DUP9 DUP11 SUB SLT ISZERO PUSH2 0x4EEC JUMPI PUSH2 0x4EEB PUSH2 0x3DAB JUMP JUMPDEST JUMPDEST PUSH1 0x0 PUSH2 0x4EFA DUP11 DUP3 DUP12 ADD PUSH2 0x4C1F JUMP JUMPDEST SWAP8 POP POP PUSH1 0x20 PUSH2 0x4F0B DUP11 DUP3 DUP12 ADD PUSH2 0x4EB8 JUMP JUMPDEST SWAP7 POP POP PUSH1 0x40 PUSH2 0x4F1C DUP11 DUP3 DUP12 ADD PUSH2 0x4C82 JUMP JUMPDEST SWAP6 POP POP PUSH1 0x60 PUSH2 0x4F2D DUP11 DUP3 DUP12 ADD PUSH2 0x4C1F JUMP JUMPDEST SWAP5 POP POP PUSH1 0x80 PUSH2 0x4F3E DUP11 DUP3 DUP12 ADD PUSH2 0x4C82 JUMP JUMPDEST SWAP4 POP POP PUSH1 0xA0 PUSH2 0x4F4F DUP11 DUP3 DUP12 ADD PUSH2 0x4C82 JUMP JUMPDEST SWAP3 POP POP PUSH1 0xC0 PUSH2 0x4F60 DUP11 DUP3 DUP12 ADD PUSH2 0x4C82 JUMP JUMPDEST SWAP2 POP POP SWAP3 SWAP6 SWAP9 SWAP2 SWAP5 SWAP8 POP SWAP3 SWAP6 POP JUMP JUMPDEST PUSH32 0x53726353706F6B654272696467653A2054696D652077696E646F77206973206E PUSH1 0x0 DUP3 ADD MSTORE PUSH32 0x6F74206578706972656421000000000000000000000000000000000000000000 PUSH1 0x20 DUP3 ADD MSTORE POP JUMP JUMPDEST PUSH1 0x0 PUSH2 0x4FCB PUSH1 0x2B DUP4 PUSH2 0x45AE JUMP JUMPDEST SWAP2 POP PUSH2 0x4FD6 DUP3 PUSH2 0x4F6F JUMP JUMPDEST PUSH1 0x40 DUP3 ADD SWAP1 POP SWAP2 SWAP1 POP JUMP JUMPDEST PUSH1 0x0 PUSH1 0x20 DUP3 ADD SWAP1 POP DUP2 DUP2 SUB PUSH1 0x0 DUP4 ADD MSTORE PUSH2 0x4FFA DUP2 PUSH2 0x4FBE JUMP JUMPDEST SWAP1 POP SWAP2 SWAP1 POP JUMP JUMPDEST PUSH32 0x53726353706F6B654272696467653A2046616C7365206368616C6C656E67696E PUSH1 0x0 DUP3 ADD MSTORE PUSH32 0x6721000000000000000000000000000000000000000000000000000000000000 PUSH1 0x20 DUP3 ADD MSTORE POP JUMP JUMPDEST PUSH1 0x0 PUSH2 0x505D PUSH1 0x22 DUP4 PUSH2 0x45AE JUMP JUMPDEST SWAP2 POP PUSH2 0x5068 DUP3 PUSH2 0x5001 JUMP JUMPDEST PUSH1 0x40 DUP3 ADD SWAP1 POP SWAP2 SWAP1 POP JUMP JUMPDEST PUSH1 0x0 PUSH1 0x20 DUP3 ADD SWAP1 POP DUP2 DUP2 SUB PUSH1 0x0 DUP4 ADD MSTORE PUSH2 0x508C DUP2 PUSH2 0x5050 JUMP JUMPDEST SWAP1 POP SWAP2 SWAP1 POP JUMP JUMPDEST PUSH1 0x0 PUSH1 0x60 DUP3 ADD SWAP1 POP PUSH2 0x50A8 PUSH1 0x0 DUP4 ADD DUP7 PUSH2 0x40E8 JUMP JUMPDEST PUSH2 0x50B5 PUSH1 0x20 DUP4 ADD DUP6 PUSH2 0x40E8 JUMP JUMPDEST PUSH2 0x50C2 PUSH1 0x40 DUP4 ADD DUP5 PUSH2 0x4226 JUMP JUMPDEST SWAP5 SWAP4 POP POP POP POP JUMP JUMPDEST PUSH32 0x53726353706F6B654272696467653A207468657265206973206E6F2066656520 PUSH1 0x0 DUP3 ADD MSTORE PUSH32 0x666F722072656C61796572732100000000000000000000000000000000000000 PUSH1 0x20 DUP3 ADD MSTORE POP JUMP JUMPDEST PUSH1 0x0 PUSH2 0x5126 PUSH1 0x2D DUP4 PUSH2 0x45AE JUMP JUMPDEST SWAP2 POP PUSH2 0x5131 DUP3 PUSH2 0x50CA JUMP JUMPDEST PUSH1 0x40 DUP3 ADD SWAP1 POP SWAP2 SWAP1 POP JUMP JUMPDEST PUSH1 0x0 PUSH1 0x20 DUP3 ADD SWAP1 POP DUP2 DUP2 SUB PUSH1 0x0 DUP4 ADD MSTORE PUSH2 0x5155 DUP2 PUSH2 0x5119 JUMP JUMPDEST SWAP1 POP SWAP2 SWAP1 POP JUMP JUMPDEST PUSH32 0x53706F6B654272696467653A2072657761726420697320616C72656164792063 PUSH1 0x0 DUP3 ADD MSTORE PUSH32 0x6C61696D65642100000000000000000000000000000000000000000000000000 PUSH1 0x20 DUP3 ADD MSTORE POP JUMP JUMPDEST PUSH1 0x0 PUSH2 0x51B8 PUSH1 0x27 DUP4 PUSH2 0x45AE JUMP JUMPDEST SWAP2 POP PUSH2 0x51C3 DUP3 PUSH2 0x515C JUMP JUMPDEST PUSH1 0x40 DUP3 ADD SWAP1 POP SWAP2 SWAP1 POP JUMP JUMPDEST PUSH1 0x0 PUSH1 0x20 DUP3 ADD SWAP1 POP DUP2 DUP2 SUB PUSH1 0x0 DUP4 ADD MSTORE PUSH2 0x51E7 DUP2 PUSH2 0x51AB JUMP JUMPDEST SWAP1 POP SWAP2 SWAP1 POP JUMP JUMPDEST PUSH32 0x53706F6B654272696467653A206368616C6C656E676572206973206E6F742074 PUSH1 0x0 DUP3 ADD MSTORE PUSH32 0x68652073656E6465722100000000000000000000000000000000000000000000 PUSH1 0x20 DUP3 ADD MSTORE POP JUMP JUMPDEST PUSH1 0x0 PUSH2 0x524A PUSH1 0x2A DUP4 PUSH2 0x45AE JUMP JUMPDEST SWAP2 POP PUSH2 0x5255 DUP3 PUSH2 0x51EE JUMP JUMPDEST PUSH1 0x40 DUP3 ADD SWAP1 POP SWAP2 SWAP1 POP JUMP JUMPDEST PUSH1 0x0 PUSH1 0x20 DUP3 ADD SWAP1 POP DUP2 DUP2 SUB PUSH1 0x0 DUP4 ADD MSTORE PUSH2 0x5279 DUP2 PUSH2 0x523D JUMP JUMPDEST SWAP1 POP SWAP2 SWAP1 POP JUMP JUMPDEST PUSH32 0x53706F6B654272696467653A2063616C6C6572206973206E6F7420696E20756E PUSH1 0x0 DUP3 ADD MSTORE PUSH32 0x6465706F73697465642073746174652100000000000000000000000000000000 PUSH1 0x20 DUP3 ADD MSTORE POP JUMP JUMPDEST PUSH1 0x0 PUSH2 0x52DC PUSH1 0x30 DUP4 PUSH2 0x45AE JUMP JUMPDEST SWAP2 POP PUSH2 0x52E7 DUP3 PUSH2 0x5280 JUMP JUMPDEST PUSH1 0x40 DUP3 ADD SWAP1 POP SWAP2 SWAP1 POP JUMP JUMPDEST PUSH1 0x0 PUSH1 0x20 DUP3 ADD SWAP1 POP DUP2 DUP2 SUB PUSH1 0x0 DUP4 ADD MSTORE PUSH2 0x530B DUP2 PUSH2 0x52CF JUMP JUMPDEST SWAP1 POP SWAP2 SWAP1 POP JUMP JUMPDEST PUSH32 0x53706F6B654272696467653A20322064617973206973206E6F74206578706972 PUSH1 0x0 DUP3 ADD MSTORE PUSH32 0x65642066726F6D2074686520756E6465706F736974696E672100000000000000 PUSH1 0x20 DUP3 ADD MSTORE POP JUMP JUMPDEST PUSH1 0x0 PUSH2 0x536E PUSH1 0x39 DUP4 PUSH2 0x45AE JUMP JUMPDEST SWAP2 POP PUSH2 0x5379 DUP3 PUSH2 0x5312 JUMP JUMPDEST PUSH1 0x40 DUP3 ADD SWAP1 POP SWAP2 SWAP1 POP JUMP JUMPDEST PUSH1 0x0 PUSH1 0x20 DUP3 ADD SWAP1 POP DUP2 DUP2 SUB PUSH1 0x0 DUP4 ADD MSTORE PUSH2 0x539D DUP2 PUSH2 0x5361 JUMP JUMPDEST SWAP1 POP SWAP2 SWAP1 POP JUMP JUMPDEST PUSH1 0x0 PUSH1 0xC0 DUP3 ADD SWAP1 POP PUSH2 0x53B9 PUSH1 0x0 DUP4 ADD DUP10 PUSH2 0x4226 JUMP JUMPDEST PUSH2 0x53C6 PUSH1 0x20 DUP4 ADD DUP9 PUSH2 0x4512 JUMP JUMPDEST PUSH2 0x53D3 PUSH1 0x40 DUP4 ADD DUP8 PUSH2 0x40E8 JUMP JUMPDEST PUSH2 0x53E0 PUSH1 0x60 DUP4 ADD DUP7 PUSH2 0x4226 JUMP JUMPDEST PUSH2 0x53ED PUSH1 0x80 DUP4 ADD DUP6 PUSH2 0x40E8 JUMP JUMPDEST PUSH2 0x53FA PUSH1 0xA0 DUP4 ADD DUP5 PUSH2 0x40E8 JUMP JUMPDEST SWAP8 SWAP7 POP POP POP POP POP POP POP JUMP JUMPDEST PUSH1 0x0 DUP2 MLOAD SWAP1 POP SWAP2 SWAP1 POP JUMP JUMPDEST PUSH1 0x0 DUP3 DUP3 MSTORE PUSH1 0x20 DUP3 ADD SWAP1 POP SWAP3 SWAP2 POP POP JUMP JUMPDEST PUSH1 0x0 PUSH2 0x542C DUP3 PUSH2 0x5405 JUMP JUMPDEST PUSH2 0x5436 DUP2 DUP6 PUSH2 0x5410 JUMP JUMPDEST SWAP4 POP PUSH2 0x5446 DUP2 DUP6 PUSH1 0x20 DUP7 ADD PUSH2 0x4B14 JUMP JUMPDEST PUSH2 0x544F DUP2 PUSH2 0x3E80 JUMP JUMPDEST DUP5 ADD SWAP2 POP POP SWAP3 SWAP2 POP POP JUMP JUMPDEST PUSH1 0x0 PUSH1 0x40 DUP3 ADD SWAP1 POP DUP2 DUP2 SUB PUSH1 0x0 DUP4 ADD MSTORE PUSH2 0x5474 DUP2 DUP6 PUSH2 0x5421 JUMP JUMPDEST SWAP1 POP PUSH2 0x5483 PUSH1 0x20 DUP4 ADD DUP5 PUSH2 0x4235 JUMP JUMPDEST SWAP4 SWAP3 POP POP POP JUMP JUMPDEST PUSH32 0x53726353706F6B654272696467653A20746F6F206561726C7920746F2073656E PUSH1 0x0 DUP3 ADD MSTORE PUSH32 0x642070726F6F6621000000000000000000000000000000000000000000000000 PUSH1 0x20 DUP3 ADD MSTORE POP JUMP JUMPDEST PUSH1 0x0 PUSH2 0x54E6 PUSH1 0x28 DUP4 PUSH2 0x45AE JUMP JUMPDEST SWAP2 POP PUSH2 0x54F1 DUP3 PUSH2 0x548A JUMP JUMPDEST PUSH1 0x40 DUP3 ADD SWAP1 POP SWAP2 SWAP1 POP JUMP JUMPDEST PUSH1 0x0 PUSH1 0x20 DUP3 ADD SWAP1 POP DUP2 DUP2 SUB PUSH1 0x0 DUP4 ADD MSTORE PUSH2 0x5515 DUP2 PUSH2 0x54D9 JUMP JUMPDEST SWAP1 POP SWAP2 SWAP1 POP JUMP JUMPDEST PUSH1 0x0 PUSH1 0xE0 DUP3 ADD SWAP1 POP PUSH2 0x5531 PUSH1 0x0 DUP4 ADD DUP11 PUSH2 0x4226 JUMP JUMPDEST PUSH2 0x553E PUSH1 0x20 DUP4 ADD DUP10 PUSH2 0x441B JUMP JUMPDEST PUSH2 0x554B PUSH1 0x40 DUP4 ADD DUP9 PUSH2 0x40E8 JUMP JUMPDEST PUSH2 0x5558 PUSH1 0x60 DUP4 ADD DUP8 PUSH2 0x4226 JUMP JUMPDEST PUSH2 0x5565 PUSH1 0x80 DUP4 ADD DUP7 PUSH2 0x40E8 JUMP JUMPDEST PUSH2 0x5572 PUSH1 0xA0 DUP4 ADD DUP6 PUSH2 0x40E8 JUMP JUMPDEST PUSH2 0x557F PUSH1 0xC0 DUP4 ADD DUP5 PUSH2 0x40E8 JUMP JUMPDEST SWAP9 SWAP8 POP POP POP POP POP POP POP POP JUMP JUMPDEST PUSH32 0x53706F6B654272696467653A2063616C6C65722063616E6E6F74206265206120 PUSH1 0x0 DUP3 ADD MSTORE PUSH32 0x72656C6179657221000000000000000000000000000000000000000000000000 PUSH1 0x20 DUP3 ADD MSTORE POP JUMP JUMPDEST PUSH1 0x0 PUSH2 0x55E7 PUSH1 0x28 DUP4 PUSH2 0x45AE JUMP JUMPDEST SWAP2 POP PUSH2 0x55F2 DUP3 PUSH2 0x558B JUMP JUMPDEST PUSH1 0x40 DUP3 ADD SWAP1 POP SWAP2 SWAP1 POP JUMP JUMPDEST PUSH1 0x0 PUSH1 0x20 DUP3 ADD SWAP1 POP DUP2 DUP2 SUB PUSH1 0x0 DUP4 ADD MSTORE PUSH2 0x5616 DUP2 PUSH2 0x55DA JUMP JUMPDEST SWAP1 POP SWAP2 SWAP1 POP JUMP JUMPDEST PUSH32 0x53706F6B654272696467653A206D73672E76616C7565206973206E6F74206170 PUSH1 0x0 DUP3 ADD MSTORE PUSH32 0x70726F7072696174652100000000000000000000000000000000000000000000 PUSH1 0x20 DUP3 ADD MSTORE POP JUMP JUMPDEST PUSH1 0x0 PUSH2 0x5679 PUSH1 0x2A DUP4 PUSH2 0x45AE JUMP JUMPDEST SWAP2 POP PUSH2 0x5684 DUP3 PUSH2 0x561D JUMP JUMPDEST PUSH1 0x40 DUP3 ADD SWAP1 POP SWAP2 SWAP1 POP JUMP JUMPDEST PUSH1 0x0 PUSH1 0x20 DUP3 ADD SWAP1 POP DUP2 DUP2 SUB PUSH1 0x0 DUP4 ADD MSTORE PUSH2 0x56A8 DUP2 PUSH2 0x566C JUMP JUMPDEST SWAP1 POP SWAP2 SWAP1 POP JUMP JUMPDEST PUSH32 0x4F776E61626C653A206E6577206F776E657220697320746865207A65726F2061 PUSH1 0x0 DUP3 ADD MSTORE PUSH32 0x6464726573730000000000000000000000000000000000000000000000000000 PUSH1 0x20 DUP3 ADD MSTORE POP JUMP JUMPDEST PUSH1 0x0 PUSH2 0x570B PUSH1 0x26 DUP4 PUSH2 0x45AE JUMP JUMPDEST SWAP2 POP PUSH2 0x5716 DUP3 PUSH2 0x56AF JUMP JUMPDEST PUSH1 0x40 DUP3 ADD SWAP1 POP SWAP2 SWAP1 POP JUMP JUMPDEST PUSH1 0x0 PUSH1 0x20 DUP3 ADD SWAP1 POP DUP2 DUP2 SUB PUSH1 0x0 DUP4 ADD MSTORE PUSH2 0x573A DUP2 PUSH2 0x56FE JUMP JUMPDEST SWAP1 POP SWAP2 SWAP1 POP JUMP JUMPDEST PUSH32 0x53726353706F6B6542726964653A20696E636F6D696E67206269642068617320 PUSH1 0x0 DUP3 ADD MSTORE PUSH32 0x6E6F2052656C6179656420737461746521000000000000000000000000000000 PUSH1 0x20 DUP3 ADD MSTORE POP JUMP JUMPDEST PUSH1 0x0 PUSH2 0x579D PUSH1 0x31 DUP4 PUSH2 0x45AE JUMP JUMPDEST SWAP2 POP PUSH2 0x57A8 DUP3 PUSH2 0x5741 JUMP JUMPDEST PUSH1 0x40 DUP3 ADD SWAP1 POP SWAP2 SWAP1 POP JUMP JUMPDEST PUSH1 0x0 PUSH1 0x20 DUP3 ADD SWAP1 POP DUP2 DUP2 SUB PUSH1 0x0 DUP4 ADD MSTORE PUSH2 0x57CC DUP2 PUSH2 0x5790 JUMP JUMPDEST SWAP1 POP SWAP2 SWAP1 POP JUMP JUMPDEST PUSH32 0x53726353706F6B654272696467653A20636C61696D6572206973206E6F742074 PUSH1 0x0 DUP3 ADD MSTORE PUSH32 0x6865206F776E6572210000000000000000000000000000000000000000000000 PUSH1 0x20 DUP3 ADD MSTORE POP JUMP JUMPDEST PUSH1 0x0 PUSH2 0x582F PUSH1 0x29 DUP4 PUSH2 0x45AE JUMP JUMPDEST SWAP2 POP PUSH2 0x583A DUP3 PUSH2 0x57D3 JUMP JUMPDEST PUSH1 0x40 DUP3 ADD SWAP1 POP SWAP2 SWAP1 POP JUMP JUMPDEST PUSH1 0x0 PUSH1 0x20 DUP3 ADD SWAP1 POP DUP2 DUP2 SUB PUSH1 0x0 DUP4 ADD MSTORE PUSH2 0x585E DUP2 PUSH2 0x5822 JUMP JUMPDEST SWAP1 POP SWAP2 SWAP1 POP JUMP JUMPDEST PUSH32 0x4F776E61626C653A2063616C6C6572206973206E6F7420746865206F776E6572 PUSH1 0x0 DUP3 ADD MSTORE POP JUMP JUMPDEST PUSH1 0x0 PUSH2 0x589B PUSH1 0x20 DUP4 PUSH2 0x45AE JUMP JUMPDEST SWAP2 POP PUSH2 0x58A6 DUP3 PUSH2 0x5865 JUMP JUMPDEST PUSH1 0x20 DUP3 ADD SWAP1 POP SWAP2 SWAP1 POP JUMP JUMPDEST PUSH1 0x0 PUSH1 0x20 DUP3 ADD SWAP1 POP DUP2 DUP2 SUB PUSH1 0x0 DUP4 ADD MSTORE PUSH2 0x58CA DUP2 PUSH2 0x588E JUMP JUMPDEST SWAP1 POP SWAP2 SWAP1 POP JUMP JUMPDEST PUSH32 0x53706F6B654272696467653A204E6F20656E6F75676820616D6F756E74206F66 PUSH1 0x0 DUP3 ADD MSTORE PUSH32 0x2045544820746F207374616B6521000000000000000000000000000000000000 PUSH1 0x20 DUP3 ADD MSTORE POP JUMP JUMPDEST PUSH1 0x0 PUSH2 0x592D PUSH1 0x2E DUP4 PUSH2 0x45AE JUMP JUMPDEST SWAP2 POP PUSH2 0x5938 DUP3 PUSH2 0x58D1 JUMP JUMPDEST PUSH1 0x40 DUP3 ADD SWAP1 POP SWAP2 SWAP1 POP JUMP JUMPDEST PUSH1 0x0 PUSH1 0x20 DUP3 ADD SWAP1 POP DUP2 DUP2 SUB PUSH1 0x0 DUP4 ADD MSTORE PUSH2 0x595C DUP2 PUSH2 0x5920 JUMP JUMPDEST SWAP1 POP SWAP2 SWAP1 POP JUMP JUMPDEST PUSH32 0x53706F6B654272696467653A20436F72726573706F6E64696E6720696E636F6D PUSH1 0x0 DUP3 ADD MSTORE PUSH32 0x696E672062696420737461747573206973206E6F742072656C61796564210000 PUSH1 0x20 DUP3 ADD MSTORE POP JUMP JUMPDEST PUSH1 0x0 PUSH2 0x59BF PUSH1 0x3E DUP4 PUSH2 0x45AE JUMP JUMPDEST SWAP2 POP PUSH2 0x59CA DUP3 PUSH2 0x5963 JUMP JUMPDEST PUSH1 0x40 DUP3 ADD SWAP1 POP SWAP2 SWAP1 POP JUMP JUMPDEST PUSH1 0x0 PUSH1 0x20 DUP3 ADD SWAP1 POP DUP2 DUP2 SUB PUSH1 0x0 DUP4 ADD MSTORE PUSH2 0x59EE DUP2 PUSH2 0x59B2 JUMP JUMPDEST SWAP1 POP SWAP2 SWAP1 POP JUMP JUMPDEST PUSH32 0x53706F6B654272696467653A20546865206469737075746520706572696F6420 PUSH1 0x0 DUP3 ADD MSTORE PUSH32 0x6973206578706972656421000000000000000000000000000000000000000000 PUSH1 0x20 DUP3 ADD MSTORE POP JUMP JUMPDEST PUSH1 0x0 PUSH2 0x5A51 PUSH1 0x2B DUP4 PUSH2 0x45AE JUMP JUMPDEST SWAP2 POP PUSH2 0x5A5C DUP3 PUSH2 0x59F5 JUMP JUMPDEST PUSH1 0x40 DUP3 ADD SWAP1 POP SWAP2 SWAP1 POP JUMP JUMPDEST PUSH1 0x0 PUSH1 0x20 DUP3 ADD SWAP1 POP DUP2 DUP2 SUB PUSH1 0x0 DUP4 ADD MSTORE PUSH2 0x5A80 DUP2 PUSH2 0x5A44 JUMP JUMPDEST SWAP1 POP SWAP2 SWAP1 POP JUMP JUMPDEST PUSH32 0x53706F6B654272696467653A2062696420697320616C7265616479206368616C PUSH1 0x0 DUP3 ADD MSTORE PUSH32 0x6C656E6765642100000000000000000000000000000000000000000000000000 PUSH1 0x20 DUP3 ADD MSTORE POP JUMP JUMPDEST PUSH1 0x0 PUSH2 0x5AE3 PUSH1 0x27 DUP4 PUSH2 0x45AE JUMP JUMPDEST SWAP2 POP PUSH2 0x5AEE DUP3 PUSH2 0x5A87 JUMP JUMPDEST PUSH1 0x40 DUP3 ADD SWAP1 POP SWAP2 SWAP1 POP JUMP JUMPDEST PUSH1 0x0 PUSH1 0x20 DUP3 ADD SWAP1 POP DUP2 DUP2 SUB PUSH1 0x0 DUP4 ADD MSTORE PUSH2 0x5B12 DUP2 PUSH2 0x5AD6 JUMP JUMPDEST SWAP1 POP SWAP2 SWAP1 POP JUMP JUMPDEST PUSH1 0x0 PUSH1 0x20 DUP3 ADD SWAP1 POP DUP2 DUP2 SUB PUSH1 0x0 DUP4 ADD MSTORE PUSH2 0x5B33 DUP2 DUP5 PUSH2 0x5421 JUMP JUMPDEST SWAP1 POP SWAP3 SWAP2 POP POP JUMP INVALID LOG2 PUSH5 0x6970667358 0x22 SLT KECCAK256 0xA5 SWAP4 0xD5 JUMPDEST RETURNDATACOPY 0xCD 0x2E 0xFB NOT 0xBE PUSH19 0x70265E1B54AA675759605FE3B0C1F5C1DEB316 0xBF 0x1F PUSH5 0x736F6C6343 STOP ADDMOD SLT STOP CALLER "},"methodIdentifiers":{"CHALLENGE_AMOUNT()":"f8840cf7","HUB()":"a4c52b86","STAKE_AMOUNT()":"faf5625f","TIME_LIMIT_OF_UNDEPOSIT()":"529e720a","buyBid(uint256)":"04ef2396","challengeUnlocking(uint256)":"7a965756","challengedIncomingBids(uint256)":"4d642623","claimChallengeReward(uint256,bool)":"3a5d0410","claimDeposite()":"7be6f7a7","claimNFT(uint256)":"fe5c873a","contractMap()":"1d2f3682","createBid(address,uint256,address)":"34f507b8","deposite()":"a50ec326","id()":"af640d0f","incomingBids(uint256)":"8df99e90","incomingChallengeRewards(uint256)":"9c3709d9","onERC721Received(address,address,uint256,bytes)":"150b7a02","outgoingBids(uint256)":"f3786979","outgoingChallengeRewards(uint256)":"3bb984f4","owner()":"8da5cb5b","receive()":"a3e76c0f","receiveProof(bytes)":"24bd801b","relayers(address)":"5300f841","renounceOwnership()":"715018a6","sendProof(bool,uint256)":"9123e475","transferOwnership(address)":"f2fde38b","undeposite()":"be7226ad","unlocking(uint256,uint256,address)":"1b392fbd"}}}}}