{"contracts/test/SimpleGatewaySrcSpokeBridge.sol":{"SimpleGatewaySrcSpokeBrdige":{"abi":[{"inputs":[{"internalType":"address","name":"_hub","type":"address"},{"internalType":"address","name":"_contractMap","type":"address"}],"stateMutability":"nonpayable","type":"constructor"},{"anonymous":false,"inputs":[{"indexed":false,"internalType":"address","name":"relayer","type":"address"},{"indexed":false,"internalType":"uint256","name":"bidId","type":"uint256"}],"name":"BidBought","type":"event"},{"anonymous":false,"inputs":[{"indexed":false,"internalType":"address","name":"challenger","type":"address"},{"indexed":false,"internalType":"address","name":"relayer","type":"address"},{"indexed":false,"internalType":"uint256","name":"bidId","type":"uint256"}],"name":"BidChallenged","type":"event"},{"anonymous":false,"inputs":[],"name":"BidCreated","type":"event"},{"anonymous":false,"inputs":[{"indexed":false,"internalType":"address","name":"contractAddress","type":"address"},{"indexed":false,"internalType":"uint256","name":"bidId","type":"uint256"},{"indexed":false,"internalType":"uint256","name":"id","type":"uint256"},{"indexed":false,"internalType":"address","name":"owner","type":"address"}],"name":"NFTUnwrapped","type":"event"},{"anonymous":false,"inputs":[{"indexed":true,"internalType":"address","name":"previousOwner","type":"address"},{"indexed":true,"internalType":"address","name":"newOwner","type":"address"}],"name":"OwnershipTransferred","type":"event"},{"anonymous":false,"inputs":[],"name":"ProofSent","type":"event"},{"inputs":[],"name":"CHALLENGE_AMOUNT","outputs":[{"internalType":"uint256","name":"","type":"uint256"}],"stateMutability":"view","type":"function"},{"inputs":[],"name":"HUB","outputs":[{"internalType":"address","name":"","type":"address"}],"stateMutability":"view","type":"function"},{"inputs":[],"name":"STAKE_AMOUNT","outputs":[{"internalType":"uint256","name":"","type":"uint256"}],"stateMutability":"view","type":"function"},{"inputs":[],"name":"TIME_LIMIT_OF_UNDEPOSIT","outputs":[{"internalType":"uint256","name":"","type":"uint256"}],"stateMutability":"view","type":"function"},{"inputs":[{"internalType":"uint256","name":"_bidId","type":"uint256"}],"name":"buyBid","outputs":[],"stateMutability":"nonpayable","type":"function"},{"inputs":[{"internalType":"uint256","name":"_bidId","type":"uint256"}],"name":"challengeUnlocking","outputs":[],"stateMutability":"payable","type":"function"},{"inputs":[{"internalType":"uint256","name":"","type":"uint256"}],"name":"challengedIncomingBids","outputs":[{"internalType":"address","name":"challenger","type":"address"},{"internalType":"enum SpokeBridge.ChallengeStatus","name":"status","type":"uint8"}],"stateMutability":"view","type":"function"},{"inputs":[{"internalType":"uint256","name":"_challengeId","type":"uint256"},{"internalType":"bool","name":"_isOutgoingBid","type":"bool"}],"name":"claimChallengeReward","outputs":[],"stateMutability":"nonpayable","type":"function"},{"inputs":[],"name":"claimDeposite","outputs":[],"stateMutability":"nonpayable","type":"function"},{"inputs":[{"internalType":"uint256","name":"_incomingBidId","type":"uint256"}],"name":"claimNFT","outputs":[],"stateMutability":"nonpayable","type":"function"},{"inputs":[],"name":"contractMap","outputs":[{"internalType":"address","name":"","type":"address"}],"stateMutability":"view","type":"function"},{"inputs":[{"internalType":"address","name":"_receiver","type":"address"},{"internalType":"uint256","name":"_tokenId","type":"uint256"},{"internalType":"address","name":"_erc721Contract","type":"address"}],"name":"createBid","outputs":[],"stateMutability":"payable","type":"function"},{"inputs":[],"name":"deposite","outputs":[],"stateMutability":"payable","type":"function"},{"inputs":[],"name":"id","outputs":[{"internalType":"uint256","name":"_value","type":"uint256"}],"stateMutability":"view","type":"function"},{"inputs":[{"internalType":"uint256","name":"","type":"uint256"}],"name":"incomingBids","outputs":[{"internalType":"uint256","name":"outgoingId","type":"uint256"},{"internalType":"enum SpokeBridge.IncomingBidStatus","name":"status","type":"uint8"},{"internalType":"address","name":"receiver","type":"address"},{"internalType":"uint256","name":"tokenId","type":"uint256"},{"internalType":"address","name":"remoteErc721Contract","type":"address"},{"internalType":"uint256","name":"timestampOfRelayed","type":"uint256"},{"internalType":"address","name":"relayer","type":"address"}],"stateMutability":"view","type":"function"},{"inputs":[{"internalType":"uint256","name":"","type":"uint256"}],"name":"incomingChallengeRewards","outputs":[{"internalType":"address","name":"challenger","type":"address"},{"internalType":"uint256","name":"amount","type":"uint256"},{"internalType":"bool","name":"isClaimed","type":"bool"}],"stateMutability":"view","type":"function"},{"inputs":[{"internalType":"address","name":"","type":"address"},{"internalType":"address","name":"","type":"address"},{"internalType":"uint256","name":"","type":"uint256"},{"internalType":"bytes","name":"","type":"bytes"}],"name":"onERC721Received","outputs":[{"internalType":"bytes4","name":"","type":"bytes4"}],"stateMutability":"nonpayable","type":"function"},{"inputs":[{"internalType":"uint256","name":"","type":"uint256"}],"name":"outgoingBids","outputs":[{"internalType":"enum SpokeBridge.OutgoingBidStatus","name":"status","type":"uint8"},{"internalType":"uint256","name":"fee","type":"uint256"},{"internalType":"address","name":"maker","type":"address"},{"internalType":"address","name":"receiver","type":"address"},{"internalType":"uint256","name":"tokenId","type":"uint256"},{"internalType":"address","name":"localErc721Contract","type":"address"},{"internalType":"address","name":"remoteErc721Contract","type":"address"},{"internalType":"uint256","name":"timestampOfBought","type":"uint256"},{"internalType":"address","name":"buyer","type":"address"}],"stateMutability":"view","type":"function"},{"inputs":[{"internalType":"uint256","name":"","type":"uint256"}],"name":"outgoingChallengeRewards","outputs":[{"internalType":"address","name":"challenger","type":"address"},{"internalType":"uint256","name":"amount","type":"uint256"},{"internalType":"bool","name":"isClaimed","type":"bool"}],"stateMutability":"view","type":"function"},{"inputs":[],"name":"owner","outputs":[{"internalType":"address","name":"","type":"address"}],"stateMutability":"view","type":"function"},{"inputs":[{"internalType":"bytes","name":"_proof","type":"bytes"}],"name":"receiveProof","outputs":[],"stateMutability":"nonpayable","type":"function"},{"inputs":[{"internalType":"address","name":"","type":"address"}],"name":"relayers","outputs":[{"internalType":"enum SpokeBridge.RelayerStatus","name":"status","type":"uint8"},{"internalType":"uint256","name":"dateOfUndeposited","type":"uint256"},{"internalType":"uint256","name":"stakedAmount","type":"uint256"}],"stateMutability":"view","type":"function"},{"inputs":[],"name":"renounceOwnership","outputs":[],"stateMutability":"nonpayable","type":"function"},{"inputs":[{"internalType":"bool","name":"_isOutgoingBid","type":"bool"},{"internalType":"uint256","name":"_bidId","type":"uint256"}],"name":"sendProof","outputs":[],"stateMutability":"nonpayable","type":"function"},{"inputs":[{"internalType":"address","name":"newOwner","type":"address"}],"name":"transferOwnership","outputs":[],"stateMutability":"nonpayable","type":"function"},{"inputs":[],"name":"undeposite","outputs":[],"stateMutability":"nonpayable","type":"function"},{"inputs":[{"internalType":"uint256","name":"_lockingBidId","type":"uint256"},{"internalType":"uint256","name":"_bidId","type":"uint256"},{"internalType":"address","name":"_to","type":"address"}],"name":"unlocking","outputs":[],"stateMutability":"nonpayable","type":"function"}],"evm":{"bytecode":{"linkReferences":{},"object":"6101006040523480156200001257600080fd5b5060405162005e4738038062005e4783398181016040528101906200003891906200023d565b8082806200005b6200004f6200010760201b60201c565b6200010f60201b60201c565b8073ffffffffffffffffffffffffffffffffffffffff1660e08173ffffffffffffffffffffffffffffffffffffffff16815250506801158e460913d0000060808181525050678ac7230489e8000060a081815250506202a30060c081815250505081600860006101000a81548173ffffffffffffffffffffffffffffffffffffffff021916908373ffffffffffffffffffffffffffffffffffffffff1602179055505050505062000284565b600033905090565b60008060009054906101000a900473ffffffffffffffffffffffffffffffffffffffff169050816000806101000a81548173ffffffffffffffffffffffffffffffffffffffff021916908373ffffffffffffffffffffffffffffffffffffffff1602179055508173ffffffffffffffffffffffffffffffffffffffff168173ffffffffffffffffffffffffffffffffffffffff167f8be0079c531659141344cd1fd0a4f28419497f9722a3daafe3b4186f6b6457e060405160405180910390a35050565b600080fd5b600073ffffffffffffffffffffffffffffffffffffffff82169050919050565b60006200020582620001d8565b9050919050565b6200021781620001f8565b81146200022357600080fd5b50565b60008151905062000237816200020c565b92915050565b60008060408385031215620002575762000256620001d3565b5b6000620002678582860162000226565b92505060206200027a8582860162000226565b9150509250929050565b60805160a05160c05160e051615b4a620002fd60003960008181610efb01528181612f150152613cee01526000818161257001526126a80152600081816115cf0152818161342201526139960152600081816115a401528181611c1e0152818161277e01528181612ff601526134460152615b4a6000f3fe60806040526004361061019c5760003560e01c80637be6f7a7116100ec578063af640d0f1161008a578063f378697911610064578063f378697914610570578063f8840cf7146105b5578063faf5625f146105e0578063fe5c873a1461060b5761019c565b8063af640d0f14610505578063be7226ad14610530578063f2fde38b146105475761019c565b80639123e475116100c65780639123e475146104685780639c3709d914610491578063a4c52b86146104d0578063a50ec326146104fb5761019c565b80637be6f7a7146103e35780638da5cb5b146103fa5780638df99e90146104255761019c565b80633a5d041011610159578063529e720a11610133578063529e720a146103465780635300f84114610371578063715018a6146103b05780637a965756146103c75761019c565b80633a5d0410146102a05780633bb984f4146102c95780634d642623146103085761019c565b806304ef2396146101a1578063150b7a02146101ca5780631b392fbd146102075780631d2f36821461023057806324bd801b1461025b57806334f507b814610284575b600080fd5b3480156101ad57600080fd5b506101c860048036038101906101c39190613dc4565b610634565b005b3480156101d657600080fd5b506101f160048036038101906101ec9190613f95565b6108fe565b6040516101fe9190614053565b60405180910390f35b34801561021357600080fd5b5061022e6004803603810190610229919061406e565b610912565b005b34801561023c57600080fd5b50610245610ed3565b60405161025291906140d0565b60405180910390f35b34801561026757600080fd5b50610282600480360381019061027d91906140eb565b610ef9565b005b61029e60048036038101906102999190614134565b611caf565b005b3480156102ac57600080fd5b506102c760048036038101906102c291906141bf565b6120a6565b005b3480156102d557600080fd5b506102f060048036038101906102eb9190613dc4565b6124c6565b6040516102ff9392919061421d565b60405180910390f35b34801561031457600080fd5b5061032f600480360381019061032a9190613dc4565b61251d565b60405161033d9291906142cb565b60405180910390f35b34801561035257600080fd5b5061035b61256e565b60405161036891906142f4565b60405180910390f35b34801561037d57600080fd5b506103986004803603810190610393919061430f565b612592565b6040516103a793929190614384565b60405180910390f35b3480156103bc57600080fd5b506103c56125c9565b005b6103e160048036038101906103dc9190613dc4565b6125dd565b005b3480156103ef57600080fd5b506103f86125e9565b005b34801561040657600080fd5b5061040f6128a4565b60405161041c91906140d0565b60405180910390f35b34801561043157600080fd5b5061044c60048036038101906104479190613dc4565b6128cd565b60405161045f9796959493929190614403565b60405180910390f35b34801561047457600080fd5b5061048f600480360381019061048a9190614472565b61297c565b005b34801561049d57600080fd5b506104b860048036038101906104b39190613dc4565b612ebc565b6040516104c79392919061421d565b60405180910390f35b3480156104dc57600080fd5b506104e5612f13565b6040516104f291906140d0565b60405180910390f35b610503612f37565b005b34801561051157600080fd5b5061051a613117565b60405161052791906142f4565b60405180910390f35b34801561053c57600080fd5b50610545613123565b005b34801561055357600080fd5b5061056e6004803603810190610569919061430f565b6132a2565b005b34801561057c57600080fd5b5061059760048036038101906105929190613dc4565b613325565b6040516105ac999897969594939291906144fa565b60405180910390f35b3480156105c157600080fd5b506105ca613420565b6040516105d791906142f4565b60405180910390f35b3480156105ec57600080fd5b506105f5613444565b60405161060291906142f4565b60405180910390f35b34801561061757600080fd5b50610632600480360381019061062d9190613dc4565b613468565b005b60016000610640613817565b73ffffffffffffffffffffffffffffffffffffffff1673ffffffffffffffffffffffffffffffffffffffff16815260200190815260200160002060000160009054906101000a900460ff16600481111561069d5761069c614254565b5b600160048111156106b1576106b0614254565b5b146106f1576040517f08c379a00000000000000000000000000000000000000000000000000000000081526004016106e89061460a565b60405180910390fd5b6001600581111561070557610704614254565b5b6003600083815260200190815260200160002060000160009054906101000a900460ff16600581111561073b5761073a614254565b5b1461077b576040517f08c379a00000000000000000000000000000000000000000000000000000000081526004016107729061469c565b60405180910390fd5b60026003600083815260200190815260200160002060000160006101000a81548160ff021916908360058111156107b5576107b4614254565b5b02179055506107c2613817565b6003600083815260200190815260200160002060080160006101000a81548173ffffffffffffffffffffffffffffffffffffffff021916908373ffffffffffffffffffffffffffffffffffffffff160217905550426003600083815260200190815260200160002060070181905550600061083b613817565b73ffffffffffffffffffffffffffffffffffffffff166003600084815260200190815260200160002060010154604051610874906146ed565b60006040518083038185875af1925050503d80600081146108b1576040519150601f19603f3d011682016040523d82523d6000602084013e6108b6565b606091505b50509050806108fa576040517f08c379a00000000000000000000000000000000000000000000000000000000081526004016108f19061474e565b60405180910390fd5b5050565b600063150b7a0260e01b9050949350505050565b6001600061091e613817565b73ffffffffffffffffffffffffffffffffffffffff1673ffffffffffffffffffffffffffffffffffffffff16815260200190815260200160002060000160009054906101000a900460ff16600481111561097b5761097a614254565b5b6001600481111561098f5761098e614254565b5b146109cf576040517f08c379a00000000000000000000000000000000000000000000000000000000081526004016109c69061460a565b60405180910390fd5b600260058111156109e3576109e2614254565b5b6003600085815260200190815260200160002060000160009054906101000a900460ff166005811115610a1957610a18614254565b5b14610a59576040517f08c379a0000000000000000000000000000000000000000000000000000000008152600401610a50906147e0565b60405180910390fd5b60006004811115610a6d57610a6c614254565b5b6002600084815260200190815260200160002060010160009054906101000a900460ff166004811115610aa357610aa2614254565b5b14610ae3576040517f08c379a0000000000000000000000000000000000000000000000000000000008152600401610ada90614872565b60405180910390fd5b426138406003600086815260200190815260200160002060070154610b0891906148c1565b10610b48576040517f08c379a0000000000000000000000000000000000000000000000000000000008152600401610b3f90614967565b60405180910390fd5b3073ffffffffffffffffffffffffffffffffffffffff166003600085815260200190815260200160002060050160009054906101000a900473ffffffffffffffffffffffffffffffffffffffff1673ffffffffffffffffffffffffffffffffffffffff16636352211e60036000878152602001908152602001600020600401546040518263ffffffff1660e01b8152600401610be491906142f4565b602060405180830381865afa158015610c01573d6000803e3d6000fd5b505050506040513d601f19601f82011682018060405250810190610c25919061499c565b73ffffffffffffffffffffffffffffffffffffffff1614610c7b576040517f08c379a0000000000000000000000000000000000000000000000000000000008152600401610c7290614a3b565b60405180910390fd5b60056003600085815260200190815260200160002060000160006101000a81548160ff02191690836005811115610cb557610cb4614254565b5b02179055506040518060e0016040528084815260200160016004811115610cdf57610cde614254565b5b81526020018273ffffffffffffffffffffffffffffffffffffffff168152602001600360008681526020019081526020016000206004015481526020016003600086815260200190815260200160002060050160009054906101000a900473ffffffffffffffffffffffffffffffffffffffff1673ffffffffffffffffffffffffffffffffffffffff168152602001428152602001610d7c613817565b73ffffffffffffffffffffffffffffffffffffffff16815250600260008481526020019081526020016000206000820151816000015560208201518160010160006101000a81548160ff02191690836004811115610ddd57610ddc614254565b5b021790555060408201518160010160016101000a81548173ffffffffffffffffffffffffffffffffffffffff021916908373ffffffffffffffffffffffffffffffffffffffff1602179055506060820151816002015560808201518160030160006101000a81548173ffffffffffffffffffffffffffffffffffffffff021916908373ffffffffffffffffffffffffffffffffffffffff16021790555060a0820151816004015560c08201518160050160006101000a81548173ffffffffffffffffffffffffffffffffffffffff021916908373ffffffffffffffffffffffffffffffffffffffff160217905550905050505050565b600860009054906101000a900473ffffffffffffffffffffffffffffffffffffffff1681565b7f000000000000000000000000000000000000000000000000000000000000000073ffffffffffffffffffffffffffffffffffffffff16610f3861381f565b73ffffffffffffffffffffffffffffffffffffffff1614610f8e576040517f08c379a0000000000000000000000000000000000000000000000000000000008152600401610f8590614acd565b60405180910390fd5b60008082806020019051810190610fa59190614b9c565b91509150801561165f5760008060008060008087806020019051810190610fcc9190614c70565b9550955095509550955095506000600260008881526020019081526020016000206040518060e0016040529081600082015481526020016001820160009054906101000a900460ff16600481111561102757611026614254565b5b600481111561103957611038614254565b5b81526020016001820160019054906101000a900473ffffffffffffffffffffffffffffffffffffffff1673ffffffffffffffffffffffffffffffffffffffff1673ffffffffffffffffffffffffffffffffffffffff168152602001600282015481526020016003820160009054906101000a900473ffffffffffffffffffffffffffffffffffffffff1673ffffffffffffffffffffffffffffffffffffffff1673ffffffffffffffffffffffffffffffffffffffff168152602001600482015481526020016005820160009054906101000a900473ffffffffffffffffffffffffffffffffffffffff1673ffffffffffffffffffffffffffffffffffffffff1673ffffffffffffffffffffffffffffffffffffffff168152505090506000600481111561116957611168614254565b5b816020015160048111156111805761117f614254565b5b036111c0576040517f08c379a00000000000000000000000000000000000000000000000000000000081526004016111b790614d6f565b60405180910390fd5b426138408260a001516111d391906148c1565b11611213576040517f08c379a000000000000000000000000000000000000000000000000000000000815260040161120a90614e01565b60405180910390fd5b6002600581111561122757611226614254565b5b86600581111561123a57611239614254565b5b14801561127657508473ffffffffffffffffffffffffffffffffffffffff16816040015173ffffffffffffffffffffffffffffffffffffffff16145b80156112855750838160600151145b80156112c057508273ffffffffffffffffffffffffffffffffffffffff16816080015173ffffffffffffffffffffffffffffffffffffffff16145b80156112fb57508173ffffffffffffffffffffffffffffffffffffffff168160c0015173ffffffffffffffffffffffffffffffffffffffff16145b156113e35760018160200190600481111561131957611318614254565b5b9081600481111561132d5761132c614254565b5b8152505060018060008360c0015173ffffffffffffffffffffffffffffffffffffffff1673ffffffffffffffffffffffffffffffffffffffff16815260200190815260200160002060000160006101000a81548160ff0219169083600481111561139a57611399614254565b5b021790555060006004600089815260200190815260200160002060000160146101000a81548160ff021916908360028111156113d9576113d8614254565b5b0217905550611653565b6003816020019060048111156113fc576113fb614254565b5b908160048111156114105761140f614254565b5b815250506004600160008360c0015173ffffffffffffffffffffffffffffffffffffffff1673ffffffffffffffffffffffffffffffffffffffff16815260200190815260200160002060000160006101000a81548160ff0219169083600481111561147e5761147d614254565b5b02179055506002600360008360000151815260200190815260200160002060000160006101000a81548160ff021916908360058111156114c1576114c0614254565b5b0217905550600160028111156114da576114d9614254565b5b6004600089815260200190815260200160002060000160149054906101000a900460ff1660028111156115105761150f614254565b5b03611613576004600088815260200190815260200160002060000160009054906101000a900473ffffffffffffffffffffffffffffffffffffffff166005600089815260200190815260200160002060000160006101000a81548173ffffffffffffffffffffffffffffffffffffffff021916908373ffffffffffffffffffffffffffffffffffffffff16021790555060047f00000000000000000000000000000000000000000000000000000000000000006115cd9190614e50565b7f00000000000000000000000000000000000000000000000000000000000000006115f891906148c1565b60056000898152602001908152602001600020600101819055505b60026004600089815260200190815260200160002060000160146101000a81548160ff0219169083600281111561164d5761164c614254565b5b02179055505b50505050505050611caa565b60008060008060008060008880602001905181019061167e9190614ea6565b9650965096509650965096509650600060036000898152602001908152602001600020604051806101200160405290816000820160009054906101000a900460ff1660058111156116d2576116d1614254565b5b60058111156116e4576116e3614254565b5b8152602001600182015481526020016002820160009054906101000a900473ffffffffffffffffffffffffffffffffffffffff1673ffffffffffffffffffffffffffffffffffffffff1673ffffffffffffffffffffffffffffffffffffffff1681526020016003820160009054906101000a900473ffffffffffffffffffffffffffffffffffffffff1673ffffffffffffffffffffffffffffffffffffffff1673ffffffffffffffffffffffffffffffffffffffff168152602001600482015481526020016005820160009054906101000a900473ffffffffffffffffffffffffffffffffffffffff1673ffffffffffffffffffffffffffffffffffffffff1673ffffffffffffffffffffffffffffffffffffffff1681526020016006820160009054906101000a900473ffffffffffffffffffffffffffffffffffffffff1673ffffffffffffffffffffffffffffffffffffffff1673ffffffffffffffffffffffffffffffffffffffff168152602001600782015481526020016008820160009054906101000a900473ffffffffffffffffffffffffffffffffffffffff1673ffffffffffffffffffffffffffffffffffffffff1673ffffffffffffffffffffffffffffffffffffffff16815250509050600060058111156118ca576118c9614254565b5b816000015160058111156118e1576118e0614254565b5b03611921576040517f08c379a000000000000000000000000000000000000000000000000000000000815260040161191890614d6f565b60405180910390fd5b426138408260e0015161193491906148c1565b10611974576040517f08c379a000000000000000000000000000000000000000000000000000000000815260040161196b90614fba565b60405180910390fd5b6003600481111561198857611987614254565b5b87600481111561199b5761199a614254565b5b141580156119d857508573ffffffffffffffffffffffffffffffffffffffff16816060015173ffffffffffffffffffffffffffffffffffffffff16145b80156119e75750848160800151145b8015611a2257508373ffffffffffffffffffffffffffffffffffffffff168160c0015173ffffffffffffffffffffffffffffffffffffffff16145b8015611a5e57508273ffffffffffffffffffffffffffffffffffffffff1681610100015173ffffffffffffffffffffffffffffffffffffffff16145b15611aa9576000611aa4576040517f08c379a0000000000000000000000000000000000000000000000000000000008152600401611a9b9061504c565b60405180910390fd5b611ca1565b600481600001906005811115611ac257611ac1614254565b5b90816005811115611ad657611ad5614254565b5b8152505060046001600083610100015173ffffffffffffffffffffffffffffffffffffffff1673ffffffffffffffffffffffffffffffffffffffff16815260200190815260200160002060000160006101000a81548160ff02191690836004811115611b4557611b44614254565b5b02179055508060a0015173ffffffffffffffffffffffffffffffffffffffff166342842e0e30836040015184608001516040518463ffffffff1660e01b8152600401611b939392919061506c565b600060405180830381600087803b158015611bad57600080fd5b505af1158015611bc1573d6000803e3d6000fd5b5050505081600660008a815260200190815260200160002060000160006101000a81548173ffffffffffffffffffffffffffffffffffffffff021916908373ffffffffffffffffffffffffffffffffffffffff16021790555060047f0000000000000000000000000000000000000000000000000000000000000000611c479190614e50565b600660008a8152602001908152602001600020600101819055506002600460008a815260200190815260200160002060000160146101000a81548160ff02191690836002811115611c9b57611c9a614254565b5b02179055505b50505050505050505b505050565b60003411611cf2576040517f08c379a0000000000000000000000000000000000000000000000000000000008152600401611ce990615115565b60405180910390fd5b8073ffffffffffffffffffffffffffffffffffffffff166342842e0e3330856040518463ffffffff1660e01b8152600401611d2f9392919061506c565b600060405180830381600087803b158015611d4957600080fd5b505af1158015611d5d573d6000803e3d6000fd5b5050505060405180610120016040528060016005811115611d8157611d80614254565b5b8152602001348152602001611d94613817565b73ffffffffffffffffffffffffffffffffffffffff1681526020018473ffffffffffffffffffffffffffffffffffffffff1681526020018381526020018273ffffffffffffffffffffffffffffffffffffffff168152602001600860009054906101000a900473ffffffffffffffffffffffffffffffffffffffff1673ffffffffffffffffffffffffffffffffffffffff16631d1c2af4846040518263ffffffff1660e01b8152600401611e4891906140d0565b602060405180830381865afa158015611e65573d6000803e3d6000fd5b505050506040513d601f19601f82011682018060405250810190611e89919061499c565b73ffffffffffffffffffffffffffffffffffffffff16815260200160008152602001600073ffffffffffffffffffffffffffffffffffffffff1681525060036000611ed4600761382e565b815260200190815260200160002060008201518160000160006101000a81548160ff02191690836005811115611f0d57611f0c614254565b5b02179055506020820151816001015560408201518160020160006101000a81548173ffffffffffffffffffffffffffffffffffffffff021916908373ffffffffffffffffffffffffffffffffffffffff16021790555060608201518160030160006101000a81548173ffffffffffffffffffffffffffffffffffffffff021916908373ffffffffffffffffffffffffffffffffffffffff1602179055506080820151816004015560a08201518160050160006101000a81548173ffffffffffffffffffffffffffffffffffffffff021916908373ffffffffffffffffffffffffffffffffffffffff16021790555060c08201518160060160006101000a81548173ffffffffffffffffffffffffffffffffffffffff021916908373ffffffffffffffffffffffffffffffffffffffff16021790555060e082015181600701556101008201518160080160006101000a81548173ffffffffffffffffffffffffffffffffffffffff021916908373ffffffffffffffffffffffffffffffffffffffff1602179055509050506120a1600761383c565b505050565b80156122b9576006600083815260200190815260200160002060020160009054906101000a900460ff1615612110576040517f08c379a0000000000000000000000000000000000000000000000000000000008152600401612107906151a7565b60405180910390fd5b612118613817565b73ffffffffffffffffffffffffffffffffffffffff166006600084815260200190815260200160002060000160009054906101000a900473ffffffffffffffffffffffffffffffffffffffff1673ffffffffffffffffffffffffffffffffffffffff16146121bb576040517f08c379a00000000000000000000000000000000000000000000000000000000081526004016121b290615239565b60405180910390fd5b60016006600084815260200190815260200160002060020160006101000a81548160ff02191690831515021790555060006121f4613817565b73ffffffffffffffffffffffffffffffffffffffff16600660008581526020019081526020016000206001015460405161222d906146ed565b60006040518083038185875af1925050503d806000811461226a576040519150601f19603f3d011682016040523d82523d6000602084013e61226f565b606091505b50509050806122b3576040517f08c379a00000000000000000000000000000000000000000000000000000000081526004016122aa9061474e565b60405180910390fd5b506124c2565b6005600083815260200190815260200160002060020160009054906101000a900460ff161561231d576040517f08c379a0000000000000000000000000000000000000000000000000000000008152600401612314906151a7565b60405180910390fd5b612325613817565b73ffffffffffffffffffffffffffffffffffffffff166005600084815260200190815260200160002060000160009054906101000a900473ffffffffffffffffffffffffffffffffffffffff1673ffffffffffffffffffffffffffffffffffffffff16146123c8576040517f08c379a00000000000000000000000000000000000000000000000000000000081526004016123bf90615239565b60405180910390fd5b60016005600084815260200190815260200160002060020160006101000a81548160ff0219169083151502179055506000612401613817565b73ffffffffffffffffffffffffffffffffffffffff16600560008581526020019081526020016000206001015460405161243a906146ed565b60006040518083038185875af1925050503d8060008114612477576040519150601f19603f3d011682016040523d82523d6000602084013e61247c565b606091505b50509050806124c0576040517f08c379a00000000000000000000000000000000000000000000000000000000081526004016124b79061474e565b60405180910390fd5b505b5050565b60066020528060005260406000206000915090508060000160009054906101000a900473ffffffffffffffffffffffffffffffffffffffff16908060010154908060020160009054906101000a900460ff16905083565b60046020528060005260406000206000915090508060000160009054906101000a900473ffffffffffffffffffffffffffffffffffffffff16908060000160149054906101000a900460ff16905082565b7f000000000000000000000000000000000000000000000000000000000000000081565b60016020528060005260406000206000915090508060000160009054906101000a900460ff16908060010154908060020154905083565b6125d1613852565b6125db60006138d0565b565b6125e681613994565b50565b600160006125f5613817565b73ffffffffffffffffffffffffffffffffffffffff1673ffffffffffffffffffffffffffffffffffffffff16815260200190815260200160002060000160009054906101000a900460ff16600481111561265257612651614254565b5b6002600481111561266657612665614254565b5b146126a6576040517f08c379a000000000000000000000000000000000000000000000000000000000815260040161269d906152cb565b60405180910390fd5b7f0000000000000000000000000000000000000000000000000000000000000000600160006126d3613817565b73ffffffffffffffffffffffffffffffffffffffff1673ffffffffffffffffffffffffffffffffffffffff1681526020019081526020016000206001015461271b91906148c1565b421161275c576040517f08c379a00000000000000000000000000000000000000000000000000000000081526004016127539061535d565b60405180910390fd5b6000612766613817565b73ffffffffffffffffffffffffffffffffffffffff167f00000000000000000000000000000000000000000000000000000000000000006040516127a9906146ed565b60006040518083038185875af1925050503d80600081146127e6576040519150601f19603f3d011682016040523d82523d6000602084013e6127eb565b606091505b505090508061282f576040517f08c379a00000000000000000000000000000000000000000000000000000000081526004016128269061474e565b60405180910390fd5b60006001600061283d613817565b73ffffffffffffffffffffffffffffffffffffffff1673ffffffffffffffffffffffffffffffffffffffff16815260200190815260200160002060000160006101000a81548160ff0219169083600481111561289c5761289b614254565b5b021790555050565b60008060009054906101000a900473ffffffffffffffffffffffffffffffffffffffff16905090565b60026020528060005260406000206000915090508060000154908060010160009054906101000a900460ff16908060010160019054906101000a900473ffffffffffffffffffffffffffffffffffffffff16908060020154908060030160009054906101000a900473ffffffffffffffffffffffffffffffffffffffff16908060040154908060050160009054906101000a900473ffffffffffffffffffffffffffffffffffffffff16905087565b8115612c2457600060036000838152602001908152602001600020604051806101200160405290816000820160009054906101000a900460ff1660058111156129c8576129c7614254565b5b60058111156129da576129d9614254565b5b8152602001600182015481526020016002820160009054906101000a900473ffffffffffffffffffffffffffffffffffffffff1673ffffffffffffffffffffffffffffffffffffffff1673ffffffffffffffffffffffffffffffffffffffff1681526020016003820160009054906101000a900473ffffffffffffffffffffffffffffffffffffffff1673ffffffffffffffffffffffffffffffffffffffff1673ffffffffffffffffffffffffffffffffffffffff168152602001600482015481526020016005820160009054906101000a900473ffffffffffffffffffffffffffffffffffffffff1673ffffffffffffffffffffffffffffffffffffffff1673ffffffffffffffffffffffffffffffffffffffff1681526020016006820160009054906101000a900473ffffffffffffffffffffffffffffffffffffffff1673ffffffffffffffffffffffffffffffffffffffff1673ffffffffffffffffffffffffffffffffffffffff168152602001600782015481526020016008820160009054906101000a900473ffffffffffffffffffffffffffffffffffffffff1673ffffffffffffffffffffffffffffffffffffffff1673ffffffffffffffffffffffffffffffffffffffff168152505090506000828260000151836060015184608001518560c00151866101000151604051602001612bde9695949392919061537d565b6040516020818303038152906040529050806001604051602001612c03929190615433565b6040516020818303038152906040529050612c1d81613cec565b5050612eb8565b426138406002600084815260200190815260200160002060040154612c4991906148c1565b10612c89576040517f08c379a0000000000000000000000000000000000000000000000000000000008152600401612c80906154d5565b60405180910390fd5b6000600260008381526020019081526020016000206040518060e0016040529081600082015481526020016001820160009054906101000a900460ff166004811115612cd857612cd7614254565b5b6004811115612cea57612ce9614254565b5b81526020016001820160019054906101000a900473ffffffffffffffffffffffffffffffffffffffff1673ffffffffffffffffffffffffffffffffffffffff1673ffffffffffffffffffffffffffffffffffffffff168152602001600282015481526020016003820160009054906101000a900473ffffffffffffffffffffffffffffffffffffffff1673ffffffffffffffffffffffffffffffffffffffff1673ffffffffffffffffffffffffffffffffffffffff168152602001600482015481526020016005820160009054906101000a900473ffffffffffffffffffffffffffffffffffffffff1673ffffffffffffffffffffffffffffffffffffffff1673ffffffffffffffffffffffffffffffffffffffff16815250509050600082826020015183604001518460600151600360008760000151815260200190815260200160002060060160009054906101000a900473ffffffffffffffffffffffffffffffffffffffff168660c00151612e60613817565b604051602001612e7697969594939291906154f5565b6040516020818303038152906040529050806000604051602001612e9b929190615433565b6040516020818303038152906040529050612eb581613cec565b50505b5050565b60056020528060005260406000206000915090508060000160009054906101000a900473ffffffffffffffffffffffffffffffffffffffff16908060010154908060020160009054906101000a900460ff16905083565b7f000000000000000000000000000000000000000000000000000000000000000081565b60016000612f43613817565b73ffffffffffffffffffffffffffffffffffffffff1673ffffffffffffffffffffffffffffffffffffffff16815260200190815260200160002060000160009054906101000a900460ff166004811115612fa057612f9f614254565b5b60006004811115612fb457612fb3614254565b5b14612ff4576040517f08c379a0000000000000000000000000000000000000000000000000000000008152600401612feb906155d6565b60405180910390fd5b7f00000000000000000000000000000000000000000000000000000000000000003414613056576040517f08c379a000000000000000000000000000000000000000000000000000000000815260040161304d90615668565b60405180910390fd5b6001806000613063613817565b73ffffffffffffffffffffffffffffffffffffffff1673ffffffffffffffffffffffffffffffffffffffff16815260200190815260200160002060000160006101000a81548160ff021916908360048111156130c2576130c1614254565b5b021790555034600160006130d4613817565b73ffffffffffffffffffffffffffffffffffffffff1673ffffffffffffffffffffffffffffffffffffffff16815260200190815260200160002060020181905550565b60078060000154905081565b6001600061312f613817565b73ffffffffffffffffffffffffffffffffffffffff1673ffffffffffffffffffffffffffffffffffffffff16815260200190815260200160002060000160009054906101000a900460ff16600481111561318c5761318b614254565b5b600160048111156131a05761319f614254565b5b146131e0576040517f08c379a00000000000000000000000000000000000000000000000000000000081526004016131d79061460a565b60405180910390fd5b6002600160006131ee613817565b73ffffffffffffffffffffffffffffffffffffffff1673ffffffffffffffffffffffffffffffffffffffff16815260200190815260200160002060000160006101000a81548160ff0219169083600481111561324d5761324c614254565b5b0217905550426001600061325f613817565b73ffffffffffffffffffffffffffffffffffffffff1673ffffffffffffffffffffffffffffffffffffffff16815260200190815260200160002060010181905550565b6132aa613852565b600073ffffffffffffffffffffffffffffffffffffffff168173ffffffffffffffffffffffffffffffffffffffff1603613319576040517f08c379a0000000000000000000000000000000000000000000000000000000008152600401613310906156fa565b60405180910390fd5b613322816138d0565b50565b60036020528060005260406000206000915090508060000160009054906101000a900460ff16908060010154908060020160009054906101000a900473ffffffffffffffffffffffffffffffffffffffff16908060030160009054906101000a900473ffffffffffffffffffffffffffffffffffffffff16908060040154908060050160009054906101000a900473ffffffffffffffffffffffffffffffffffffffff16908060060160009054906101000a900473ffffffffffffffffffffffffffffffffffffffff16908060070154908060080160009054906101000a900473ffffffffffffffffffffffffffffffffffffffff16905089565b7f000000000000000000000000000000000000000000000000000000000000000081565b7f000000000000000000000000000000000000000000000000000000000000000081565b6000600260008381526020019081526020016000206040518060e0016040529081600082015481526020016001820160009054906101000a900460ff1660048111156134b7576134b6614254565b5b60048111156134c9576134c8614254565b5b81526020016001820160019054906101000a900473ffffffffffffffffffffffffffffffffffffffff1673ffffffffffffffffffffffffffffffffffffffff1673ffffffffffffffffffffffffffffffffffffffff168152602001600282015481526020016003820160009054906101000a900473ffffffffffffffffffffffffffffffffffffffff1673ffffffffffffffffffffffffffffffffffffffff1673ffffffffffffffffffffffffffffffffffffffff168152602001600482015481526020016005820160009054906101000a900473ffffffffffffffffffffffffffffffffffffffff1673ffffffffffffffffffffffffffffffffffffffff1673ffffffffffffffffffffffffffffffffffffffff16815250509050600160048111156135f9576135f8614254565b5b816020015160048111156136105761360f614254565b5b14613650576040517f08c379a00000000000000000000000000000000000000000000000000000000081526004016136479061578c565b60405180910390fd5b426138408260a0015161366391906148c1565b106136a3576040517f08c379a000000000000000000000000000000000000000000000000000000000815260040161369a90614967565b60405180910390fd5b6136ab613817565b73ffffffffffffffffffffffffffffffffffffffff16816040015173ffffffffffffffffffffffffffffffffffffffff161461371c576040517f08c379a00000000000000000000000000000000000000000000000000000000081526004016137139061581e565b60405180910390fd5b60048160200190600481111561373557613734614254565b5b9081600481111561374957613748614254565b5b81525050600360006002600085815260200190815260200160002060000154815260200190815260200160002060050160009054906101000a900473ffffffffffffffffffffffffffffffffffffffff1673ffffffffffffffffffffffffffffffffffffffff166342842e0e306137be613817565b84606001516040518463ffffffff1660e01b81526004016137e19392919061506c565b600060405180830381600087803b1580156137fb57600080fd5b505af115801561380f573d6000803e3d6000fd5b505050505050565b600033905090565b6000613829613817565b905090565b600081600001549050919050565b6001816000016000828254019250508190555050565b61385a613817565b73ffffffffffffffffffffffffffffffffffffffff166138786128a4565b73ffffffffffffffffffffffffffffffffffffffff16146138ce576040517f08c379a00000000000000000000000000000000000000000000000000000000081526004016138c59061588a565b60405180910390fd5b565b60008060009054906101000a900473ffffffffffffffffffffffffffffffffffffffff169050816000806101000a81548173ffffffffffffffffffffffffffffffffffffffff021916908373ffffffffffffffffffffffffffffffffffffffff1602179055508173ffffffffffffffffffffffffffffffffffffffff168173ffffffffffffffffffffffffffffffffffffffff167f8be0079c531659141344cd1fd0a4f28419497f9722a3daafe3b4186f6b6457e060405160405180910390a35050565b7f000000000000000000000000000000000000000000000000000000000000000034146139f6576040517f08c379a00000000000000000000000000000000000000000000000000000000081526004016139ed9061591c565b60405180910390fd5b60016004811115613a0a57613a09614254565b5b6002600083815260200190815260200160002060010160009054906101000a900460ff166004811115613a4057613a3f614254565b5b14613a80576040517f08c379a0000000000000000000000000000000000000000000000000000000008152600401613a77906159ae565b60405180910390fd5b426138406002600084815260200190815260200160002060040154613aa591906148c1565b11613ae5576040517f08c379a0000000000000000000000000000000000000000000000000000000008152600401613adc90615a40565b60405180910390fd5b60006002811115613af957613af8614254565b5b6004600083815260200190815260200160002060000160149054906101000a900460ff166002811115613b2f57613b2e614254565b5b14613b6f576040517f08c379a0000000000000000000000000000000000000000000000000000000008152600401613b6690615ad2565b60405180910390fd5b600280600083815260200190815260200160002060010160006101000a81548160ff02191690836004811115613ba857613ba7614254565b5b0217905550613bb5613817565b6004600083815260200190815260200160002060000160006101000a81548173ffffffffffffffffffffffffffffffffffffffff021916908373ffffffffffffffffffffffffffffffffffffffff16021790555060016004600083815260200190815260200160002060000160146101000a81548160ff02191690836002811115613c4357613c42614254565b5b02179055506003600160006002600085815260200190815260200160002060050160009054906101000a900473ffffffffffffffffffffffffffffffffffffffff1673ffffffffffffffffffffffffffffffffffffffff1673ffffffffffffffffffffffffffffffffffffffff16815260200190815260200160002060000160006101000a81548160ff02191690836004811115613ce457613ce3614254565b5b021790555050565b7f000000000000000000000000000000000000000000000000000000000000000073ffffffffffffffffffffffffffffffffffffffff16634ff746f6826040518263ffffffff1660e01b8152600401613d459190615af2565b600060405180830381600087803b158015613d5f57600080fd5b505af1158015613d73573d6000803e3d6000fd5b5050505050565b6000604051905090565b600080fd5b600080fd5b6000819050919050565b613da181613d8e565b8114613dac57600080fd5b50565b600081359050613dbe81613d98565b92915050565b600060208284031215613dda57613dd9613d84565b5b6000613de884828501613daf565b91505092915050565b600073ffffffffffffffffffffffffffffffffffffffff82169050919050565b6000613e1c82613df1565b9050919050565b613e2c81613e11565b8114613e3757600080fd5b50565b600081359050613e4981613e23565b92915050565b600080fd5b600080fd5b6000601f19601f8301169050919050565b7f4e487b7100000000000000000000000000000000000000000000000000000000600052604160045260246000fd5b613ea282613e59565b810181811067ffffffffffffffff82111715613ec157613ec0613e6a565b5b80604052505050565b6000613ed4613d7a565b9050613ee08282613e99565b919050565b600067ffffffffffffffff821115613f0057613eff613e6a565b5b613f0982613e59565b9050602081019050919050565b82818337600083830152505050565b6000613f38613f3384613ee5565b613eca565b905082815260208101848484011115613f5457613f53613e54565b5b613f5f848285613f16565b509392505050565b600082601f830112613f7c57613f7b613e4f565b5b8135613f8c848260208601613f25565b91505092915050565b60008060008060808587031215613faf57613fae613d84565b5b6000613fbd87828801613e3a565b9450506020613fce87828801613e3a565b9350506040613fdf87828801613daf565b925050606085013567ffffffffffffffff81111561400057613fff613d89565b5b61400c87828801613f67565b91505092959194509250565b60007fffffffff0000000000000000000000000000000000000000000000000000000082169050919050565b61404d81614018565b82525050565b60006020820190506140686000830184614044565b92915050565b60008060006060848603121561408757614086613d84565b5b600061409586828701613daf565b93505060206140a686828701613daf565b92505060406140b786828701613e3a565b9150509250925092565b6140ca81613e11565b82525050565b60006020820190506140e560008301846140c1565b92915050565b60006020828403121561410157614100613d84565b5b600082013567ffffffffffffffff81111561411f5761411e613d89565b5b61412b84828501613f67565b91505092915050565b60008060006060848603121561414d5761414c613d84565b5b600061415b86828701613e3a565b935050602061416c86828701613daf565b925050604061417d86828701613e3a565b9150509250925092565b60008115159050919050565b61419c81614187565b81146141a757600080fd5b50565b6000813590506141b981614193565b92915050565b600080604083850312156141d6576141d5613d84565b5b60006141e485828601613daf565b92505060206141f5858286016141aa565b9150509250929050565b61420881613d8e565b82525050565b61421781614187565b82525050565b600060608201905061423260008301866140c1565b61423f60208301856141ff565b61424c604083018461420e565b949350505050565b7f4e487b7100000000000000000000000000000000000000000000000000000000600052602160045260246000fd5b6003811061429457614293614254565b5b50565b60008190506142a582614283565b919050565b60006142b582614297565b9050919050565b6142c5816142aa565b82525050565b60006040820190506142e060008301856140c1565b6142ed60208301846142bc565b9392505050565b600060208201905061430960008301846141ff565b92915050565b60006020828403121561432557614324613d84565b5b600061433384828501613e3a565b91505092915050565b6005811061434d5761434c614254565b5b50565b600081905061435e8261433c565b919050565b600061436e82614350565b9050919050565b61437e81614363565b82525050565b60006060820190506143996000830186614375565b6143a660208301856141ff565b6143b360408301846141ff565b949350505050565b600581106143cc576143cb614254565b5b50565b60008190506143dd826143bb565b919050565b60006143ed826143cf565b9050919050565b6143fd816143e2565b82525050565b600060e082019050614418600083018a6141ff565b61442560208301896143f4565b61443260408301886140c1565b61443f60608301876141ff565b61444c60808301866140c1565b61445960a08301856141ff565b61446660c08301846140c1565b98975050505050505050565b6000806040838503121561448957614488613d84565b5b6000614497858286016141aa565b92505060206144a885828601613daf565b9150509250929050565b600681106144c3576144c2614254565b5b50565b60008190506144d4826144b2565b919050565b60006144e4826144c6565b9050919050565b6144f4816144d9565b82525050565b600061012082019050614510600083018c6144eb565b61451d602083018b6141ff565b61452a604083018a6140c1565b61453760608301896140c1565b61454460808301886141ff565b61455160a08301876140c1565b61455e60c08301866140c1565b61456b60e08301856141ff565b6145796101008301846140c1565b9a9950505050505050505050565b600082825260208201905092915050565b7f53706f6b654272696467653a2063616c6c6572206973206e6f7420612072656c60008201527f6179657221000000000000000000000000000000000000000000000000000000602082015250565b60006145f4602583614587565b91506145ff82614598565b604082019050919050565b60006020820190508181036000830152614623816145e7565b9050919050565b7f53706f6b654272696467653a2062696420646f6573206e6f742068617665204360008201527f7265617465642073746174650000000000000000000000000000000000000000602082015250565b6000614686602c83614587565b91506146918261462a565b604082019050919050565b600060208201905081810360008301526146b581614679565b9050919050565b600081905092915050565b50565b60006146d76000836146bc565b91506146e2826146c7565b600082019050919050565b60006146f8826146ca565b9150819050919050565b7f4661696c656420746f2073656e64204574686572000000000000000000000000600082015250565b6000614738601483614587565b915061474382614702565b602082019050919050565b600060208201905081810360008301526147678161472b565b9050919050565b7f53726353706f6b654272696467653a20746865206f7574676f696e672062696460008201527f206973206e6f7420626f75676874210000000000000000000000000000000000602082015250565b60006147ca602f83614587565b91506147d58261476e565b604082019050919050565b600060208201905081810360008301526147f9816147bd565b9050919050565b7f53726353706f6b654272696467653a20746865726520697320616e20696e636f60008201527f6d696e67206269642077697468207468652073616d6520696421000000000000602082015250565b600061485c603a83614587565b915061486782614800565b604082019050919050565b6000602082019050818103600083015261488b8161484f565b9050919050565b7f4e487b7100000000000000000000000000000000000000000000000000000000600052601160045260246000fd5b60006148cc82613d8e565b91506148d783613d8e565b92508282019050808211156148ef576148ee614892565b5b92915050565b7f53726353706f6b654272696467653a20746865206368616c6c656e67696e672060008201527f706572696f64206973206e6f7420657870697265642079657421000000000000602082015250565b6000614951603a83614587565b915061495c826148f5565b604082019050919050565b6000602082019050818103600083015261498081614944565b9050919050565b60008151905061499681613e23565b92915050565b6000602082840312156149b2576149b1613d84565b5b60006149c084828501614987565b91505092915050565b7f53726353706f6b654272696467653a207468657265206973206e6f206c6f636b60008201527f656420746f6b656e210000000000000000000000000000000000000000000000602082015250565b6000614a25602983614587565b9150614a30826149c9565b604082019050919050565b60006020820190508181036000830152614a5481614a18565b9050919050565b7f53706f6b654272696467653a2063616c6c6572206973206e6f7420746865206860008201527f7562210000000000000000000000000000000000000000000000000000000000602082015250565b6000614ab7602383614587565b9150614ac282614a5b565b604082019050919050565b60006020820190508181036000830152614ae681614aaa565b9050919050565b60005b83811015614b0b578082015181840152602081019050614af0565b60008484015250505050565b6000614b2a614b2584613ee5565b613eca565b905082815260208101848484011115614b4657614b45613e54565b5b614b51848285614aed565b509392505050565b600082601f830112614b6e57614b6d613e4f565b5b8151614b7e848260208601614b17565b91505092915050565b600081519050614b9681614193565b92915050565b60008060408385031215614bb357614bb2613d84565b5b600083015167ffffffffffffffff811115614bd157614bd0613d89565b5b614bdd85828601614b59565b9250506020614bee85828601614b87565b9150509250929050565b600081519050614c0781613d98565b92915050565b60068110614c1a57600080fd5b50565b600081519050614c2c81614c0d565b92915050565b6000614c3d82613df1565b9050919050565b614c4d81614c32565b8114614c5857600080fd5b50565b600081519050614c6a81614c44565b92915050565b60008060008060008060c08789031215614c8d57614c8c613d84565b5b6000614c9b89828a01614bf8565b9650506020614cac89828a01614c1d565b9550506040614cbd89828a01614c5b565b9450506060614cce89828a01614bf8565b9350506080614cdf89828a01614c5b565b92505060a0614cf089828a01614c5b565b9150509295509295509295565b7f53726353706f6b654272646967653a205468657265206973206e6f20636f727260008201527f6573706f6e64696e67206c6f63616c2062696421000000000000000000000000602082015250565b6000614d59603483614587565b9150614d6482614cfd565b604082019050919050565b60006020820190508181036000830152614d8881614d4c565b9050919050565b7f53726353706f6b654272696467653a2054696d652077696e646f77206973206560008201527f7870697265642100000000000000000000000000000000000000000000000000602082015250565b6000614deb602783614587565b9150614df682614d8f565b604082019050919050565b60006020820190508181036000830152614e1a81614dde565b9050919050565b7f4e487b7100000000000000000000000000000000000000000000000000000000600052601260045260246000fd5b6000614e5b82613d8e565b9150614e6683613d8e565b925082614e7657614e75614e21565b5b828204905092915050565b60058110614e8e57600080fd5b50565b600081519050614ea081614e81565b92915050565b600080600080600080600060e0888a031215614ec557614ec4613d84565b5b6000614ed38a828b01614bf8565b9750506020614ee48a828b01614e91565b9650506040614ef58a828b01614c5b565b9550506060614f068a828b01614bf8565b9450506080614f178a828b01614c5b565b93505060a0614f288a828b01614c5b565b92505060c0614f398a828b01614c5b565b91505092959891949750929550565b7f53726353706f6b654272696467653a2054696d652077696e646f77206973206e60008201527f6f74206578706972656421000000000000000000000000000000000000000000602082015250565b6000614fa4602b83614587565b9150614faf82614f48565b604082019050919050565b60006020820190508181036000830152614fd381614f97565b9050919050565b7f53726353706f6b654272696467653a2046616c7365206368616c6c656e67696e60008201527f6721000000000000000000000000000000000000000000000000000000000000602082015250565b6000615036602283614587565b915061504182614fda565b604082019050919050565b6000602082019050818103600083015261506581615029565b9050919050565b600060608201905061508160008301866140c1565b61508e60208301856140c1565b61509b60408301846141ff565b949350505050565b7f53726353706f6b654272696467653a207468657265206973206e6f206665652060008201527f666f722072656c61796572732100000000000000000000000000000000000000602082015250565b60006150ff602d83614587565b915061510a826150a3565b604082019050919050565b6000602082019050818103600083015261512e816150f2565b9050919050565b7f53706f6b654272696467653a2072657761726420697320616c7265616479206360008201527f6c61696d65642100000000000000000000000000000000000000000000000000602082015250565b6000615191602783614587565b915061519c82615135565b604082019050919050565b600060208201905081810360008301526151c081615184565b9050919050565b7f53706f6b654272696467653a206368616c6c656e676572206973206e6f74207460008201527f68652073656e6465722100000000000000000000000000000000000000000000602082015250565b6000615223602a83614587565b915061522e826151c7565b604082019050919050565b6000602082019050818103600083015261525281615216565b9050919050565b7f53706f6b654272696467653a2063616c6c6572206973206e6f7420696e20756e60008201527f6465706f73697465642073746174652100000000000000000000000000000000602082015250565b60006152b5603083614587565b91506152c082615259565b604082019050919050565b600060208201905081810360008301526152e4816152a8565b9050919050565b7f53706f6b654272696467653a20322064617973206973206e6f7420657870697260008201527f65642066726f6d2074686520756e6465706f736974696e672100000000000000602082015250565b6000615347603983614587565b9150615352826152eb565b604082019050919050565b600060208201905081810360008301526153768161533a565b9050919050565b600060c08201905061539260008301896141ff565b61539f60208301886144eb565b6153ac60408301876140c1565b6153b960608301866141ff565b6153c660808301856140c1565b6153d360a08301846140c1565b979650505050505050565b600081519050919050565b600082825260208201905092915050565b6000615405826153de565b61540f81856153e9565b935061541f818560208601614aed565b61542881613e59565b840191505092915050565b6000604082019050818103600083015261544d81856153fa565b905061545c602083018461420e565b9392505050565b7f53726353706f6b654272696467653a20746f6f206561726c7920746f2073656e60008201527f642070726f6f6621000000000000000000000000000000000000000000000000602082015250565b60006154bf602883614587565b91506154ca82615463565b604082019050919050565b600060208201905081810360008301526154ee816154b2565b9050919050565b600060e08201905061550a600083018a6141ff565b61551760208301896143f4565b61552460408301886140c1565b61553160608301876141ff565b61553e60808301866140c1565b61554b60a08301856140c1565b61555860c08301846140c1565b98975050505050505050565b7f53706f6b654272696467653a2063616c6c65722063616e6e6f7420626520612060008201527f72656c6179657221000000000000000000000000000000000000000000000000602082015250565b60006155c0602883614587565b91506155cb82615564565b604082019050919050565b600060208201905081810360008301526155ef816155b3565b9050919050565b7f53706f6b654272696467653a206d73672e76616c7565206973206e6f7420617060008201527f70726f7072696174652100000000000000000000000000000000000000000000602082015250565b6000615652602a83614587565b915061565d826155f6565b604082019050919050565b6000602082019050818103600083015261568181615645565b9050919050565b7f4f776e61626c653a206e6577206f776e657220697320746865207a65726f206160008201527f6464726573730000000000000000000000000000000000000000000000000000602082015250565b60006156e4602683614587565b91506156ef82615688565b604082019050919050565b60006020820190508181036000830152615713816156d7565b9050919050565b7f53726353706f6b6542726964653a20696e636f6d696e6720626964206861732060008201527f6e6f2052656c6179656420737461746521000000000000000000000000000000602082015250565b6000615776603183614587565b91506157818261571a565b604082019050919050565b600060208201905081810360008301526157a581615769565b9050919050565b7f53726353706f6b654272696467653a20636c61696d6572206973206e6f74207460008201527f6865206f776e6572210000000000000000000000000000000000000000000000602082015250565b6000615808602983614587565b9150615813826157ac565b604082019050919050565b60006020820190508181036000830152615837816157fb565b9050919050565b7f4f776e61626c653a2063616c6c6572206973206e6f7420746865206f776e6572600082015250565b6000615874602083614587565b915061587f8261583e565b602082019050919050565b600060208201905081810360008301526158a381615867565b9050919050565b7f53706f6b654272696467653a204e6f20656e6f75676820616d6f756e74206f6660008201527f2045544820746f207374616b6521000000000000000000000000000000000000602082015250565b6000615906602e83614587565b9150615911826158aa565b604082019050919050565b60006020820190508181036000830152615935816158f9565b9050919050565b7f53706f6b654272696467653a20436f72726573706f6e64696e6720696e636f6d60008201527f696e672062696420737461747573206973206e6f742072656c61796564210000602082015250565b6000615998603e83614587565b91506159a38261593c565b604082019050919050565b600060208201905081810360008301526159c78161598b565b9050919050565b7f53706f6b654272696467653a20546865206469737075746520706572696f642060008201527f6973206578706972656421000000000000000000000000000000000000000000602082015250565b6000615a2a602b83614587565b9150615a35826159ce565b604082019050919050565b60006020820190508181036000830152615a5981615a1d565b9050919050565b7f53706f6b654272696467653a2062696420697320616c7265616479206368616c60008201527f6c656e6765642100000000000000000000000000000000000000000000000000602082015250565b6000615abc602783614587565b9150615ac782615a60565b604082019050919050565b60006020820190508181036000830152615aeb81615aaf565b9050919050565b60006020820190508181036000830152615b0c81846153fa565b90509291505056fea2646970667358221220c4f00756477100a3285b98a7faab5cab21e5877b0a2227e1c15220be312bda9e64736f6c63430008120033","opcodes":"PUSH2 0x100 PUSH1 0x40 MSTORE CALLVALUE DUP1 ISZERO PUSH3 0x12 JUMPI PUSH1 0x0 DUP1 REVERT JUMPDEST POP PUSH1 0x40 MLOAD PUSH3 0x5E47 CODESIZE SUB DUP1 PUSH3 0x5E47 DUP4 CODECOPY DUP2 DUP2 ADD PUSH1 0x40 MSTORE DUP2 ADD SWAP1 PUSH3 0x38 SWAP2 SWAP1 PUSH3 0x23D JUMP JUMPDEST DUP1 DUP3 DUP1 PUSH3 0x5B PUSH3 0x4F PUSH3 0x107 PUSH1 0x20 SHL PUSH1 0x20 SHR JUMP JUMPDEST PUSH3 0x10F PUSH1 0x20 SHL PUSH1 0x20 SHR JUMP JUMPDEST DUP1 PUSH20 0xFFFFFFFFFFFFFFFFFFFFFFFFFFFFFFFFFFFFFFFF AND PUSH1 0xE0 DUP2 PUSH20 0xFFFFFFFFFFFFFFFFFFFFFFFFFFFFFFFFFFFFFFFF AND DUP2 MSTORE POP POP PUSH9 0x1158E460913D00000 PUSH1 0x80 DUP2 DUP2 MSTORE POP POP PUSH8 0x8AC7230489E80000 PUSH1 0xA0 DUP2 DUP2 MSTORE POP POP PUSH3 0x2A300 PUSH1 0xC0 DUP2 DUP2 MSTORE POP POP POP DUP2 PUSH1 0x8 PUSH1 0x0 PUSH2 0x100 EXP DUP2 SLOAD DUP2 PUSH20 0xFFFFFFFFFFFFFFFFFFFFFFFFFFFFFFFFFFFFFFFF MUL NOT AND SWAP1 DUP4 PUSH20 0xFFFFFFFFFFFFFFFFFFFFFFFFFFFFFFFFFFFFFFFF AND MUL OR SWAP1 SSTORE POP POP POP POP POP PUSH3 0x284 JUMP JUMPDEST PUSH1 0x0 CALLER SWAP1 POP SWAP1 JUMP JUMPDEST PUSH1 0x0 DUP1 PUSH1 0x0 SWAP1 SLOAD SWAP1 PUSH2 0x100 EXP SWAP1 DIV PUSH20 0xFFFFFFFFFFFFFFFFFFFFFFFFFFFFFFFFFFFFFFFF AND SWAP1 POP DUP2 PUSH1 0x0 DUP1 PUSH2 0x100 EXP DUP2 SLOAD DUP2 PUSH20 0xFFFFFFFFFFFFFFFFFFFFFFFFFFFFFFFFFFFFFFFF MUL NOT AND SWAP1 DUP4 PUSH20 0xFFFFFFFFFFFFFFFFFFFFFFFFFFFFFFFFFFFFFFFF AND MUL OR SWAP1 SSTORE POP DUP2 PUSH20 0xFFFFFFFFFFFFFFFFFFFFFFFFFFFFFFFFFFFFFFFF AND DUP2 PUSH20 0xFFFFFFFFFFFFFFFFFFFFFFFFFFFFFFFFFFFFFFFF AND PUSH32 0x8BE0079C531659141344CD1FD0A4F28419497F9722A3DAAFE3B4186F6B6457E0 PUSH1 0x40 MLOAD PUSH1 0x40 MLOAD DUP1 SWAP2 SUB SWAP1 LOG3 POP POP JUMP JUMPDEST PUSH1 0x0 DUP1 REVERT JUMPDEST PUSH1 0x0 PUSH20 0xFFFFFFFFFFFFFFFFFFFFFFFFFFFFFFFFFFFFFFFF DUP3 AND SWAP1 POP SWAP2 SWAP1 POP JUMP JUMPDEST PUSH1 0x0 PUSH3 0x205 DUP3 PUSH3 0x1D8 JUMP JUMPDEST SWAP1 POP SWAP2 SWAP1 POP JUMP JUMPDEST PUSH3 0x217 DUP2 PUSH3 0x1F8 JUMP JUMPDEST DUP2 EQ PUSH3 0x223 JUMPI PUSH1 0x0 DUP1 REVERT JUMPDEST POP JUMP JUMPDEST PUSH1 0x0 DUP2 MLOAD SWAP1 POP PUSH3 0x237 DUP2 PUSH3 0x20C JUMP JUMPDEST SWAP3 SWAP2 POP POP JUMP JUMPDEST PUSH1 0x0 DUP1 PUSH1 0x40 DUP4 DUP6 SUB SLT ISZERO PUSH3 0x257 JUMPI PUSH3 0x256 PUSH3 0x1D3 JUMP JUMPDEST JUMPDEST PUSH1 0x0 PUSH3 0x267 DUP6 DUP3 DUP7 ADD PUSH3 0x226 JUMP JUMPDEST SWAP3 POP POP PUSH1 0x20 PUSH3 0x27A DUP6 DUP3 DUP7 ADD PUSH3 0x226 JUMP JUMPDEST SWAP2 POP POP SWAP3 POP SWAP3 SWAP1 POP JUMP JUMPDEST PUSH1 0x80 MLOAD PUSH1 0xA0 MLOAD PUSH1 0xC0 MLOAD PUSH1 0xE0 MLOAD PUSH2 0x5B4A PUSH3 0x2FD PUSH1 0x0 CODECOPY PUSH1 0x0 DUP2 DUP2 PUSH2 0xEFB ADD MSTORE DUP2 DUP2 PUSH2 0x2F15 ADD MSTORE PUSH2 0x3CEE ADD MSTORE PUSH1 0x0 DUP2 DUP2 PUSH2 0x2570 ADD MSTORE PUSH2 0x26A8 ADD MSTORE PUSH1 0x0 DUP2 DUP2 PUSH2 0x15CF ADD MSTORE DUP2 DUP2 PUSH2 0x3422 ADD MSTORE PUSH2 0x3996 ADD MSTORE PUSH1 0x0 DUP2 DUP2 PUSH2 0x15A4 ADD MSTORE DUP2 DUP2 PUSH2 0x1C1E ADD MSTORE DUP2 DUP2 PUSH2 0x277E ADD MSTORE DUP2 DUP2 PUSH2 0x2FF6 ADD MSTORE PUSH2 0x3446 ADD MSTORE PUSH2 0x5B4A PUSH1 0x0 RETURN INVALID PUSH1 0x80 PUSH1 0x40 MSTORE PUSH1 0x4 CALLDATASIZE LT PUSH2 0x19C JUMPI PUSH1 0x0 CALLDATALOAD PUSH1 0xE0 SHR DUP1 PUSH4 0x7BE6F7A7 GT PUSH2 0xEC JUMPI DUP1 PUSH4 0xAF640D0F GT PUSH2 0x8A JUMPI DUP1 PUSH4 0xF3786979 GT PUSH2 0x64 JUMPI DUP1 PUSH4 0xF3786979 EQ PUSH2 0x570 JUMPI DUP1 PUSH4 0xF8840CF7 EQ PUSH2 0x5B5 JUMPI DUP1 PUSH4 0xFAF5625F EQ PUSH2 0x5E0 JUMPI DUP1 PUSH4 0xFE5C873A EQ PUSH2 0x60B JUMPI PUSH2 0x19C JUMP JUMPDEST DUP1 PUSH4 0xAF640D0F EQ PUSH2 0x505 JUMPI DUP1 PUSH4 0xBE7226AD EQ PUSH2 0x530 JUMPI DUP1 PUSH4 0xF2FDE38B EQ PUSH2 0x547 JUMPI PUSH2 0x19C JUMP JUMPDEST DUP1 PUSH4 0x9123E475 GT PUSH2 0xC6 JUMPI DUP1 PUSH4 0x9123E475 EQ PUSH2 0x468 JUMPI DUP1 PUSH4 0x9C3709D9 EQ PUSH2 0x491 JUMPI DUP1 PUSH4 0xA4C52B86 EQ PUSH2 0x4D0 JUMPI DUP1 PUSH4 0xA50EC326 EQ PUSH2 0x4FB JUMPI PUSH2 0x19C JUMP JUMPDEST DUP1 PUSH4 0x7BE6F7A7 EQ PUSH2 0x3E3 JUMPI DUP1 PUSH4 0x8DA5CB5B EQ PUSH2 0x3FA JUMPI DUP1 PUSH4 0x8DF99E90 EQ PUSH2 0x425 JUMPI PUSH2 0x19C JUMP JUMPDEST DUP1 PUSH4 0x3A5D0410 GT PUSH2 0x159 JUMPI DUP1 PUSH4 0x529E720A GT PUSH2 0x133 JUMPI DUP1 PUSH4 0x529E720A EQ PUSH2 0x346 JUMPI DUP1 PUSH4 0x5300F841 EQ PUSH2 0x371 JUMPI DUP1 PUSH4 0x715018A6 EQ PUSH2 0x3B0 JUMPI DUP1 PUSH4 0x7A965756 EQ PUSH2 0x3C7 JUMPI PUSH2 0x19C JUMP JUMPDEST DUP1 PUSH4 0x3A5D0410 EQ PUSH2 0x2A0 JUMPI DUP1 PUSH4 0x3BB984F4 EQ PUSH2 0x2C9 JUMPI DUP1 PUSH4 0x4D642623 EQ PUSH2 0x308 JUMPI PUSH2 0x19C JUMP JUMPDEST DUP1 PUSH4 0x4EF2396 EQ PUSH2 0x1A1 JUMPI DUP1 PUSH4 0x150B7A02 EQ PUSH2 0x1CA JUMPI DUP1 PUSH4 0x1B392FBD EQ PUSH2 0x207 JUMPI DUP1 PUSH4 0x1D2F3682 EQ PUSH2 0x230 JUMPI DUP1 PUSH4 0x24BD801B EQ PUSH2 0x25B JUMPI DUP1 PUSH4 0x34F507B8 EQ PUSH2 0x284 JUMPI JUMPDEST PUSH1 0x0 DUP1 REVERT JUMPDEST CALLVALUE DUP1 ISZERO PUSH2 0x1AD JUMPI PUSH1 0x0 DUP1 REVERT JUMPDEST POP PUSH2 0x1C8 PUSH1 0x4 DUP1 CALLDATASIZE SUB DUP2 ADD SWAP1 PUSH2 0x1C3 SWAP2 SWAP1 PUSH2 0x3DC4 JUMP JUMPDEST PUSH2 0x634 JUMP JUMPDEST STOP JUMPDEST CALLVALUE DUP1 ISZERO PUSH2 0x1D6 JUMPI PUSH1 0x0 DUP1 REVERT JUMPDEST POP PUSH2 0x1F1 PUSH1 0x4 DUP1 CALLDATASIZE SUB DUP2 ADD SWAP1 PUSH2 0x1EC SWAP2 SWAP1 PUSH2 0x3F95 JUMP JUMPDEST PUSH2 0x8FE JUMP JUMPDEST PUSH1 0x40 MLOAD PUSH2 0x1FE SWAP2 SWAP1 PUSH2 0x4053 JUMP JUMPDEST PUSH1 0x40 MLOAD DUP1 SWAP2 SUB SWAP1 RETURN JUMPDEST CALLVALUE DUP1 ISZERO PUSH2 0x213 JUMPI PUSH1 0x0 DUP1 REVERT JUMPDEST POP PUSH2 0x22E PUSH1 0x4 DUP1 CALLDATASIZE SUB DUP2 ADD SWAP1 PUSH2 0x229 SWAP2 SWAP1 PUSH2 0x406E JUMP JUMPDEST PUSH2 0x912 JUMP JUMPDEST STOP JUMPDEST CALLVALUE DUP1 ISZERO PUSH2 0x23C JUMPI PUSH1 0x0 DUP1 REVERT JUMPDEST POP PUSH2 0x245 PUSH2 0xED3 JUMP JUMPDEST PUSH1 0x40 MLOAD PUSH2 0x252 SWAP2 SWAP1 PUSH2 0x40D0 JUMP JUMPDEST PUSH1 0x40 MLOAD DUP1 SWAP2 SUB SWAP1 RETURN JUMPDEST CALLVALUE DUP1 ISZERO PUSH2 0x267 JUMPI PUSH1 0x0 DUP1 REVERT JUMPDEST POP PUSH2 0x282 PUSH1 0x4 DUP1 CALLDATASIZE SUB DUP2 ADD SWAP1 PUSH2 0x27D SWAP2 SWAP1 PUSH2 0x40EB JUMP JUMPDEST PUSH2 0xEF9 JUMP JUMPDEST STOP JUMPDEST PUSH2 0x29E PUSH1 0x4 DUP1 CALLDATASIZE SUB DUP2 ADD SWAP1 PUSH2 0x299 SWAP2 SWAP1 PUSH2 0x4134 JUMP JUMPDEST PUSH2 0x1CAF JUMP JUMPDEST STOP JUMPDEST CALLVALUE DUP1 ISZERO PUSH2 0x2AC JUMPI PUSH1 0x0 DUP1 REVERT JUMPDEST POP PUSH2 0x2C7 PUSH1 0x4 DUP1 CALLDATASIZE SUB DUP2 ADD SWAP1 PUSH2 0x2C2 SWAP2 SWAP1 PUSH2 0x41BF JUMP JUMPDEST PUSH2 0x20A6 JUMP JUMPDEST STOP JUMPDEST CALLVALUE DUP1 ISZERO PUSH2 0x2D5 JUMPI PUSH1 0x0 DUP1 REVERT JUMPDEST POP PUSH2 0x2F0 PUSH1 0x4 DUP1 CALLDATASIZE SUB DUP2 ADD SWAP1 PUSH2 0x2EB SWAP2 SWAP1 PUSH2 0x3DC4 JUMP JUMPDEST PUSH2 0x24C6 JUMP JUMPDEST PUSH1 0x40 MLOAD PUSH2 0x2FF SWAP4 SWAP3 SWAP2 SWAP1 PUSH2 0x421D JUMP JUMPDEST PUSH1 0x40 MLOAD DUP1 SWAP2 SUB SWAP1 RETURN JUMPDEST CALLVALUE DUP1 ISZERO PUSH2 0x314 JUMPI PUSH1 0x0 DUP1 REVERT JUMPDEST POP PUSH2 0x32F PUSH1 0x4 DUP1 CALLDATASIZE SUB DUP2 ADD SWAP1 PUSH2 0x32A SWAP2 SWAP1 PUSH2 0x3DC4 JUMP JUMPDEST PUSH2 0x251D JUMP JUMPDEST PUSH1 0x40 MLOAD PUSH2 0x33D SWAP3 SWAP2 SWAP1 PUSH2 0x42CB JUMP JUMPDEST PUSH1 0x40 MLOAD DUP1 SWAP2 SUB SWAP1 RETURN JUMPDEST CALLVALUE DUP1 ISZERO PUSH2 0x352 JUMPI PUSH1 0x0 DUP1 REVERT JUMPDEST POP PUSH2 0x35B PUSH2 0x256E JUMP JUMPDEST PUSH1 0x40 MLOAD PUSH2 0x368 SWAP2 SWAP1 PUSH2 0x42F4 JUMP JUMPDEST PUSH1 0x40 MLOAD DUP1 SWAP2 SUB SWAP1 RETURN JUMPDEST CALLVALUE DUP1 ISZERO PUSH2 0x37D JUMPI PUSH1 0x0 DUP1 REVERT JUMPDEST POP PUSH2 0x398 PUSH1 0x4 DUP1 CALLDATASIZE SUB DUP2 ADD SWAP1 PUSH2 0x393 SWAP2 SWAP1 PUSH2 0x430F JUMP JUMPDEST PUSH2 0x2592 JUMP JUMPDEST PUSH1 0x40 MLOAD PUSH2 0x3A7 SWAP4 SWAP3 SWAP2 SWAP1 PUSH2 0x4384 JUMP JUMPDEST PUSH1 0x40 MLOAD DUP1 SWAP2 SUB SWAP1 RETURN JUMPDEST CALLVALUE DUP1 ISZERO PUSH2 0x3BC JUMPI PUSH1 0x0 DUP1 REVERT JUMPDEST POP PUSH2 0x3C5 PUSH2 0x25C9 JUMP JUMPDEST STOP JUMPDEST PUSH2 0x3E1 PUSH1 0x4 DUP1 CALLDATASIZE SUB DUP2 ADD SWAP1 PUSH2 0x3DC SWAP2 SWAP1 PUSH2 0x3DC4 JUMP JUMPDEST PUSH2 0x25DD JUMP JUMPDEST STOP JUMPDEST CALLVALUE DUP1 ISZERO PUSH2 0x3EF JUMPI PUSH1 0x0 DUP1 REVERT JUMPDEST POP PUSH2 0x3F8 PUSH2 0x25E9 JUMP JUMPDEST STOP JUMPDEST CALLVALUE DUP1 ISZERO PUSH2 0x406 JUMPI PUSH1 0x0 DUP1 REVERT JUMPDEST POP PUSH2 0x40F PUSH2 0x28A4 JUMP JUMPDEST PUSH1 0x40 MLOAD PUSH2 0x41C SWAP2 SWAP1 PUSH2 0x40D0 JUMP JUMPDEST PUSH1 0x40 MLOAD DUP1 SWAP2 SUB SWAP1 RETURN JUMPDEST CALLVALUE DUP1 ISZERO PUSH2 0x431 JUMPI PUSH1 0x0 DUP1 REVERT JUMPDEST POP PUSH2 0x44C PUSH1 0x4 DUP1 CALLDATASIZE SUB DUP2 ADD SWAP1 PUSH2 0x447 SWAP2 SWAP1 PUSH2 0x3DC4 JUMP JUMPDEST PUSH2 0x28CD JUMP JUMPDEST PUSH1 0x40 MLOAD PUSH2 0x45F SWAP8 SWAP7 SWAP6 SWAP5 SWAP4 SWAP3 SWAP2 SWAP1 PUSH2 0x4403 JUMP JUMPDEST PUSH1 0x40 MLOAD DUP1 SWAP2 SUB SWAP1 RETURN JUMPDEST CALLVALUE DUP1 ISZERO PUSH2 0x474 JUMPI PUSH1 0x0 DUP1 REVERT JUMPDEST POP PUSH2 0x48F PUSH1 0x4 DUP1 CALLDATASIZE SUB DUP2 ADD SWAP1 PUSH2 0x48A SWAP2 SWAP1 PUSH2 0x4472 JUMP JUMPDEST PUSH2 0x297C JUMP JUMPDEST STOP JUMPDEST CALLVALUE DUP1 ISZERO PUSH2 0x49D JUMPI PUSH1 0x0 DUP1 REVERT JUMPDEST POP PUSH2 0x4B8 PUSH1 0x4 DUP1 CALLDATASIZE SUB DUP2 ADD SWAP1 PUSH2 0x4B3 SWAP2 SWAP1 PUSH2 0x3DC4 JUMP JUMPDEST PUSH2 0x2EBC JUMP JUMPDEST PUSH1 0x40 MLOAD PUSH2 0x4C7 SWAP4 SWAP3 SWAP2 SWAP1 PUSH2 0x421D JUMP JUMPDEST PUSH1 0x40 MLOAD DUP1 SWAP2 SUB SWAP1 RETURN JUMPDEST CALLVALUE DUP1 ISZERO PUSH2 0x4DC JUMPI PUSH1 0x0 DUP1 REVERT JUMPDEST POP PUSH2 0x4E5 PUSH2 0x2F13 JUMP JUMPDEST PUSH1 0x40 MLOAD PUSH2 0x4F2 SWAP2 SWAP1 PUSH2 0x40D0 JUMP JUMPDEST PUSH1 0x40 MLOAD DUP1 SWAP2 SUB SWAP1 RETURN JUMPDEST PUSH2 0x503 PUSH2 0x2F37 JUMP JUMPDEST STOP JUMPDEST CALLVALUE DUP1 ISZERO PUSH2 0x511 JUMPI PUSH1 0x0 DUP1 REVERT JUMPDEST POP PUSH2 0x51A PUSH2 0x3117 JUMP JUMPDEST PUSH1 0x40 MLOAD PUSH2 0x527 SWAP2 SWAP1 PUSH2 0x42F4 JUMP JUMPDEST PUSH1 0x40 MLOAD DUP1 SWAP2 SUB SWAP1 RETURN JUMPDEST CALLVALUE DUP1 ISZERO PUSH2 0x53C JUMPI PUSH1 0x0 DUP1 REVERT JUMPDEST POP PUSH2 0x545 PUSH2 0x3123 JUMP JUMPDEST STOP JUMPDEST CALLVALUE DUP1 ISZERO PUSH2 0x553 JUMPI PUSH1 0x0 DUP1 REVERT JUMPDEST POP PUSH2 0x56E PUSH1 0x4 DUP1 CALLDATASIZE SUB DUP2 ADD SWAP1 PUSH2 0x569 SWAP2 SWAP1 PUSH2 0x430F JUMP JUMPDEST PUSH2 0x32A2 JUMP JUMPDEST STOP JUMPDEST CALLVALUE DUP1 ISZERO PUSH2 0x57C JUMPI PUSH1 0x0 DUP1 REVERT JUMPDEST POP PUSH2 0x597 PUSH1 0x4 DUP1 CALLDATASIZE SUB DUP2 ADD SWAP1 PUSH2 0x592 SWAP2 SWAP1 PUSH2 0x3DC4 JUMP JUMPDEST PUSH2 0x3325 JUMP JUMPDEST PUSH1 0x40 MLOAD PUSH2 0x5AC SWAP10 SWAP9 SWAP8 SWAP7 SWAP6 SWAP5 SWAP4 SWAP3 SWAP2 SWAP1 PUSH2 0x44FA JUMP JUMPDEST PUSH1 0x40 MLOAD DUP1 SWAP2 SUB SWAP1 RETURN JUMPDEST CALLVALUE DUP1 ISZERO PUSH2 0x5C1 JUMPI PUSH1 0x0 DUP1 REVERT JUMPDEST POP PUSH2 0x5CA PUSH2 0x3420 JUMP JUMPDEST PUSH1 0x40 MLOAD PUSH2 0x5D7 SWAP2 SWAP1 PUSH2 0x42F4 JUMP JUMPDEST PUSH1 0x40 MLOAD DUP1 SWAP2 SUB SWAP1 RETURN JUMPDEST CALLVALUE DUP1 ISZERO PUSH2 0x5EC JUMPI PUSH1 0x0 DUP1 REVERT JUMPDEST POP PUSH2 0x5F5 PUSH2 0x3444 JUMP JUMPDEST PUSH1 0x40 MLOAD PUSH2 0x602 SWAP2 SWAP1 PUSH2 0x42F4 JUMP JUMPDEST PUSH1 0x40 MLOAD DUP1 SWAP2 SUB SWAP1 RETURN JUMPDEST CALLVALUE DUP1 ISZERO PUSH2 0x617 JUMPI PUSH1 0x0 DUP1 REVERT JUMPDEST POP PUSH2 0x632 PUSH1 0x4 DUP1 CALLDATASIZE SUB DUP2 ADD SWAP1 PUSH2 0x62D SWAP2 SWAP1 PUSH2 0x3DC4 JUMP JUMPDEST PUSH2 0x3468 JUMP JUMPDEST STOP JUMPDEST PUSH1 0x1 PUSH1 0x0 PUSH2 0x640 PUSH2 0x3817 JUMP JUMPDEST PUSH20 0xFFFFFFFFFFFFFFFFFFFFFFFFFFFFFFFFFFFFFFFF AND PUSH20 0xFFFFFFFFFFFFFFFFFFFFFFFFFFFFFFFFFFFFFFFF AND DUP2 MSTORE PUSH1 0x20 ADD SWAP1 DUP2 MSTORE PUSH1 0x20 ADD PUSH1 0x0 KECCAK256 PUSH1 0x0 ADD PUSH1 0x0 SWAP1 SLOAD SWAP1 PUSH2 0x100 EXP SWAP1 DIV PUSH1 0xFF AND PUSH1 0x4 DUP2 GT ISZERO PUSH2 0x69D JUMPI PUSH2 0x69C PUSH2 0x4254 JUMP JUMPDEST JUMPDEST PUSH1 0x1 PUSH1 0x4 DUP2 GT ISZERO PUSH2 0x6B1 JUMPI PUSH2 0x6B0 PUSH2 0x4254 JUMP JUMPDEST JUMPDEST EQ PUSH2 0x6F1 JUMPI PUSH1 0x40 MLOAD PUSH32 0x8C379A000000000000000000000000000000000000000000000000000000000 DUP2 MSTORE PUSH1 0x4 ADD PUSH2 0x6E8 SWAP1 PUSH2 0x460A JUMP JUMPDEST PUSH1 0x40 MLOAD DUP1 SWAP2 SUB SWAP1 REVERT JUMPDEST PUSH1 0x1 PUSH1 0x5 DUP2 GT ISZERO PUSH2 0x705 JUMPI PUSH2 0x704 PUSH2 0x4254 JUMP JUMPDEST JUMPDEST PUSH1 0x3 PUSH1 0x0 DUP4 DUP2 MSTORE PUSH1 0x20 ADD SWAP1 DUP2 MSTORE PUSH1 0x20 ADD PUSH1 0x0 KECCAK256 PUSH1 0x0 ADD PUSH1 0x0 SWAP1 SLOAD SWAP1 PUSH2 0x100 EXP SWAP1 DIV PUSH1 0xFF AND PUSH1 0x5 DUP2 GT ISZERO PUSH2 0x73B JUMPI PUSH2 0x73A PUSH2 0x4254 JUMP JUMPDEST JUMPDEST EQ PUSH2 0x77B JUMPI PUSH1 0x40 MLOAD PUSH32 0x8C379A000000000000000000000000000000000000000000000000000000000 DUP2 MSTORE PUSH1 0x4 ADD PUSH2 0x772 SWAP1 PUSH2 0x469C JUMP JUMPDEST PUSH1 0x40 MLOAD DUP1 SWAP2 SUB SWAP1 REVERT JUMPDEST PUSH1 0x2 PUSH1 0x3 PUSH1 0x0 DUP4 DUP2 MSTORE PUSH1 0x20 ADD SWAP1 DUP2 MSTORE PUSH1 0x20 ADD PUSH1 0x0 KECCAK256 PUSH1 0x0 ADD PUSH1 0x0 PUSH2 0x100 EXP DUP2 SLOAD DUP2 PUSH1 0xFF MUL NOT AND SWAP1 DUP4 PUSH1 0x5 DUP2 GT ISZERO PUSH2 0x7B5 JUMPI PUSH2 0x7B4 PUSH2 0x4254 JUMP JUMPDEST JUMPDEST MUL OR SWAP1 SSTORE POP PUSH2 0x7C2 PUSH2 0x3817 JUMP JUMPDEST PUSH1 0x3 PUSH1 0x0 DUP4 DUP2 MSTORE PUSH1 0x20 ADD SWAP1 DUP2 MSTORE PUSH1 0x20 ADD PUSH1 0x0 KECCAK256 PUSH1 0x8 ADD PUSH1 0x0 PUSH2 0x100 EXP DUP2 SLOAD DUP2 PUSH20 0xFFFFFFFFFFFFFFFFFFFFFFFFFFFFFFFFFFFFFFFF MUL NOT AND SWAP1 DUP4 PUSH20 0xFFFFFFFFFFFFFFFFFFFFFFFFFFFFFFFFFFFFFFFF AND MUL OR SWAP1 SSTORE POP TIMESTAMP PUSH1 0x3 PUSH1 0x0 DUP4 DUP2 MSTORE PUSH1 0x20 ADD SWAP1 DUP2 MSTORE PUSH1 0x20 ADD PUSH1 0x0 KECCAK256 PUSH1 0x7 ADD DUP2 SWAP1 SSTORE POP PUSH1 0x0 PUSH2 0x83B PUSH2 0x3817 JUMP JUMPDEST PUSH20 0xFFFFFFFFFFFFFFFFFFFFFFFFFFFFFFFFFFFFFFFF AND PUSH1 0x3 PUSH1 0x0 DUP5 DUP2 MSTORE PUSH1 0x20 ADD SWAP1 DUP2 MSTORE PUSH1 0x20 ADD PUSH1 0x0 KECCAK256 PUSH1 0x1 ADD SLOAD PUSH1 0x40 MLOAD PUSH2 0x874 SWAP1 PUSH2 0x46ED JUMP JUMPDEST PUSH1 0x0 PUSH1 0x40 MLOAD DUP1 DUP4 SUB DUP2 DUP6 DUP8 GAS CALL SWAP3 POP POP POP RETURNDATASIZE DUP1 PUSH1 0x0 DUP2 EQ PUSH2 0x8B1 JUMPI PUSH1 0x40 MLOAD SWAP2 POP PUSH1 0x1F NOT PUSH1 0x3F RETURNDATASIZE ADD AND DUP3 ADD PUSH1 0x40 MSTORE RETURNDATASIZE DUP3 MSTORE RETURNDATASIZE PUSH1 0x0 PUSH1 0x20 DUP5 ADD RETURNDATACOPY PUSH2 0x8B6 JUMP JUMPDEST PUSH1 0x60 SWAP2 POP JUMPDEST POP POP SWAP1 POP DUP1 PUSH2 0x8FA JUMPI PUSH1 0x40 MLOAD PUSH32 0x8C379A000000000000000000000000000000000000000000000000000000000 DUP2 MSTORE PUSH1 0x4 ADD PUSH2 0x8F1 SWAP1 PUSH2 0x474E JUMP JUMPDEST PUSH1 0x40 MLOAD DUP1 SWAP2 SUB SWAP1 REVERT JUMPDEST POP POP JUMP JUMPDEST PUSH1 0x0 PUSH4 0x150B7A02 PUSH1 0xE0 SHL SWAP1 POP SWAP5 SWAP4 POP POP POP POP JUMP JUMPDEST PUSH1 0x1 PUSH1 0x0 PUSH2 0x91E PUSH2 0x3817 JUMP JUMPDEST PUSH20 0xFFFFFFFFFFFFFFFFFFFFFFFFFFFFFFFFFFFFFFFF AND PUSH20 0xFFFFFFFFFFFFFFFFFFFFFFFFFFFFFFFFFFFFFFFF AND DUP2 MSTORE PUSH1 0x20 ADD SWAP1 DUP2 MSTORE PUSH1 0x20 ADD PUSH1 0x0 KECCAK256 PUSH1 0x0 ADD PUSH1 0x0 SWAP1 SLOAD SWAP1 PUSH2 0x100 EXP SWAP1 DIV PUSH1 0xFF AND PUSH1 0x4 DUP2 GT ISZERO PUSH2 0x97B JUMPI PUSH2 0x97A PUSH2 0x4254 JUMP JUMPDEST JUMPDEST PUSH1 0x1 PUSH1 0x4 DUP2 GT ISZERO PUSH2 0x98F JUMPI PUSH2 0x98E PUSH2 0x4254 JUMP JUMPDEST JUMPDEST EQ PUSH2 0x9CF JUMPI PUSH1 0x40 MLOAD PUSH32 0x8C379A000000000000000000000000000000000000000000000000000000000 DUP2 MSTORE PUSH1 0x4 ADD PUSH2 0x9C6 SWAP1 PUSH2 0x460A JUMP JUMPDEST PUSH1 0x40 MLOAD DUP1 SWAP2 SUB SWAP1 REVERT JUMPDEST PUSH1 0x2 PUSH1 0x5 DUP2 GT ISZERO PUSH2 0x9E3 JUMPI PUSH2 0x9E2 PUSH2 0x4254 JUMP JUMPDEST JUMPDEST PUSH1 0x3 PUSH1 0x0 DUP6 DUP2 MSTORE PUSH1 0x20 ADD SWAP1 DUP2 MSTORE PUSH1 0x20 ADD PUSH1 0x0 KECCAK256 PUSH1 0x0 ADD PUSH1 0x0 SWAP1 SLOAD SWAP1 PUSH2 0x100 EXP SWAP1 DIV PUSH1 0xFF AND PUSH1 0x5 DUP2 GT ISZERO PUSH2 0xA19 JUMPI PUSH2 0xA18 PUSH2 0x4254 JUMP JUMPDEST JUMPDEST EQ PUSH2 0xA59 JUMPI PUSH1 0x40 MLOAD PUSH32 0x8C379A000000000000000000000000000000000000000000000000000000000 DUP2 MSTORE PUSH1 0x4 ADD PUSH2 0xA50 SWAP1 PUSH2 0x47E0 JUMP JUMPDEST PUSH1 0x40 MLOAD DUP1 SWAP2 SUB SWAP1 REVERT JUMPDEST PUSH1 0x0 PUSH1 0x4 DUP2 GT ISZERO PUSH2 0xA6D JUMPI PUSH2 0xA6C PUSH2 0x4254 JUMP JUMPDEST JUMPDEST PUSH1 0x2 PUSH1 0x0 DUP5 DUP2 MSTORE PUSH1 0x20 ADD SWAP1 DUP2 MSTORE PUSH1 0x20 ADD PUSH1 0x0 KECCAK256 PUSH1 0x1 ADD PUSH1 0x0 SWAP1 SLOAD SWAP1 PUSH2 0x100 EXP SWAP1 DIV PUSH1 0xFF AND PUSH1 0x4 DUP2 GT ISZERO PUSH2 0xAA3 JUMPI PUSH2 0xAA2 PUSH2 0x4254 JUMP JUMPDEST JUMPDEST EQ PUSH2 0xAE3 JUMPI PUSH1 0x40 MLOAD PUSH32 0x8C379A000000000000000000000000000000000000000000000000000000000 DUP2 MSTORE PUSH1 0x4 ADD PUSH2 0xADA SWAP1 PUSH2 0x4872 JUMP JUMPDEST PUSH1 0x40 MLOAD DUP1 SWAP2 SUB SWAP1 REVERT JUMPDEST TIMESTAMP PUSH2 0x3840 PUSH1 0x3 PUSH1 0x0 DUP7 DUP2 MSTORE PUSH1 0x20 ADD SWAP1 DUP2 MSTORE PUSH1 0x20 ADD PUSH1 0x0 KECCAK256 PUSH1 0x7 ADD SLOAD PUSH2 0xB08 SWAP2 SWAP1 PUSH2 0x48C1 JUMP JUMPDEST LT PUSH2 0xB48 JUMPI PUSH1 0x40 MLOAD PUSH32 0x8C379A000000000000000000000000000000000000000000000000000000000 DUP2 MSTORE PUSH1 0x4 ADD PUSH2 0xB3F SWAP1 PUSH2 0x4967 JUMP JUMPDEST PUSH1 0x40 MLOAD DUP1 SWAP2 SUB SWAP1 REVERT JUMPDEST ADDRESS PUSH20 0xFFFFFFFFFFFFFFFFFFFFFFFFFFFFFFFFFFFFFFFF AND PUSH1 0x3 PUSH1 0x0 DUP6 DUP2 MSTORE PUSH1 0x20 ADD SWAP1 DUP2 MSTORE PUSH1 0x20 ADD PUSH1 0x0 KECCAK256 PUSH1 0x5 ADD PUSH1 0x0 SWAP1 SLOAD SWAP1 PUSH2 0x100 EXP SWAP1 DIV PUSH20 0xFFFFFFFFFFFFFFFFFFFFFFFFFFFFFFFFFFFFFFFF AND PUSH20 0xFFFFFFFFFFFFFFFFFFFFFFFFFFFFFFFFFFFFFFFF AND PUSH4 0x6352211E PUSH1 0x3 PUSH1 0x0 DUP8 DUP2 MSTORE PUSH1 0x20 ADD SWAP1 DUP2 MSTORE PUSH1 0x20 ADD PUSH1 0x0 KECCAK256 PUSH1 0x4 ADD SLOAD PUSH1 0x40 MLOAD DUP3 PUSH4 0xFFFFFFFF AND PUSH1 0xE0 SHL DUP2 MSTORE PUSH1 0x4 ADD PUSH2 0xBE4 SWAP2 SWAP1 PUSH2 0x42F4 JUMP JUMPDEST PUSH1 0x20 PUSH1 0x40 MLOAD DUP1 DUP4 SUB DUP2 DUP7 GAS STATICCALL ISZERO DUP1 ISZERO PUSH2 0xC01 JUMPI RETURNDATASIZE PUSH1 0x0 DUP1 RETURNDATACOPY RETURNDATASIZE PUSH1 0x0 REVERT JUMPDEST POP POP POP POP PUSH1 0x40 MLOAD RETURNDATASIZE PUSH1 0x1F NOT PUSH1 0x1F DUP3 ADD AND DUP3 ADD DUP1 PUSH1 0x40 MSTORE POP DUP2 ADD SWAP1 PUSH2 0xC25 SWAP2 SWAP1 PUSH2 0x499C JUMP JUMPDEST PUSH20 0xFFFFFFFFFFFFFFFFFFFFFFFFFFFFFFFFFFFFFFFF AND EQ PUSH2 0xC7B JUMPI PUSH1 0x40 MLOAD PUSH32 0x8C379A000000000000000000000000000000000000000000000000000000000 DUP2 MSTORE PUSH1 0x4 ADD PUSH2 0xC72 SWAP1 PUSH2 0x4A3B JUMP JUMPDEST PUSH1 0x40 MLOAD DUP1 SWAP2 SUB SWAP1 REVERT JUMPDEST PUSH1 0x5 PUSH1 0x3 PUSH1 0x0 DUP6 DUP2 MSTORE PUSH1 0x20 ADD SWAP1 DUP2 MSTORE PUSH1 0x20 ADD PUSH1 0x0 KECCAK256 PUSH1 0x0 ADD PUSH1 0x0 PUSH2 0x100 EXP DUP2 SLOAD DUP2 PUSH1 0xFF MUL NOT AND SWAP1 DUP4 PUSH1 0x5 DUP2 GT ISZERO PUSH2 0xCB5 JUMPI PUSH2 0xCB4 PUSH2 0x4254 JUMP JUMPDEST JUMPDEST MUL OR SWAP1 SSTORE POP PUSH1 0x40 MLOAD DUP1 PUSH1 0xE0 ADD PUSH1 0x40 MSTORE DUP1 DUP5 DUP2 MSTORE PUSH1 0x20 ADD PUSH1 0x1 PUSH1 0x4 DUP2 GT ISZERO PUSH2 0xCDF JUMPI PUSH2 0xCDE PUSH2 0x4254 JUMP JUMPDEST JUMPDEST DUP2 MSTORE PUSH1 0x20 ADD DUP3 PUSH20 0xFFFFFFFFFFFFFFFFFFFFFFFFFFFFFFFFFFFFFFFF AND DUP2 MSTORE PUSH1 0x20 ADD PUSH1 0x3 PUSH1 0x0 DUP7 DUP2 MSTORE PUSH1 0x20 ADD SWAP1 DUP2 MSTORE PUSH1 0x20 ADD PUSH1 0x0 KECCAK256 PUSH1 0x4 ADD SLOAD DUP2 MSTORE PUSH1 0x20 ADD PUSH1 0x3 PUSH1 0x0 DUP7 DUP2 MSTORE PUSH1 0x20 ADD SWAP1 DUP2 MSTORE PUSH1 0x20 ADD PUSH1 0x0 KECCAK256 PUSH1 0x5 ADD PUSH1 0x0 SWAP1 SLOAD SWAP1 PUSH2 0x100 EXP SWAP1 DIV PUSH20 0xFFFFFFFFFFFFFFFFFFFFFFFFFFFFFFFFFFFFFFFF AND PUSH20 0xFFFFFFFFFFFFFFFFFFFFFFFFFFFFFFFFFFFFFFFF AND DUP2 MSTORE PUSH1 0x20 ADD TIMESTAMP DUP2 MSTORE PUSH1 0x20 ADD PUSH2 0xD7C PUSH2 0x3817 JUMP JUMPDEST PUSH20 0xFFFFFFFFFFFFFFFFFFFFFFFFFFFFFFFFFFFFFFFF AND DUP2 MSTORE POP PUSH1 0x2 PUSH1 0x0 DUP5 DUP2 MSTORE PUSH1 0x20 ADD SWAP1 DUP2 MSTORE PUSH1 0x20 ADD PUSH1 0x0 KECCAK256 PUSH1 0x0 DUP3 ADD MLOAD DUP2 PUSH1 0x0 ADD SSTORE PUSH1 0x20 DUP3 ADD MLOAD DUP2 PUSH1 0x1 ADD PUSH1 0x0 PUSH2 0x100 EXP DUP2 SLOAD DUP2 PUSH1 0xFF MUL NOT AND SWAP1 DUP4 PUSH1 0x4 DUP2 GT ISZERO PUSH2 0xDDD JUMPI PUSH2 0xDDC PUSH2 0x4254 JUMP JUMPDEST JUMPDEST MUL OR SWAP1 SSTORE POP PUSH1 0x40 DUP3 ADD MLOAD DUP2 PUSH1 0x1 ADD PUSH1 0x1 PUSH2 0x100 EXP DUP2 SLOAD DUP2 PUSH20 0xFFFFFFFFFFFFFFFFFFFFFFFFFFFFFFFFFFFFFFFF MUL NOT AND SWAP1 DUP4 PUSH20 0xFFFFFFFFFFFFFFFFFFFFFFFFFFFFFFFFFFFFFFFF AND MUL OR SWAP1 SSTORE POP PUSH1 0x60 DUP3 ADD MLOAD DUP2 PUSH1 0x2 ADD SSTORE PUSH1 0x80 DUP3 ADD MLOAD DUP2 PUSH1 0x3 ADD PUSH1 0x0 PUSH2 0x100 EXP DUP2 SLOAD DUP2 PUSH20 0xFFFFFFFFFFFFFFFFFFFFFFFFFFFFFFFFFFFFFFFF MUL NOT AND SWAP1 DUP4 PUSH20 0xFFFFFFFFFFFFFFFFFFFFFFFFFFFFFFFFFFFFFFFF AND MUL OR SWAP1 SSTORE POP PUSH1 0xA0 DUP3 ADD MLOAD DUP2 PUSH1 0x4 ADD SSTORE PUSH1 0xC0 DUP3 ADD MLOAD DUP2 PUSH1 0x5 ADD PUSH1 0x0 PUSH2 0x100 EXP DUP2 SLOAD DUP2 PUSH20 0xFFFFFFFFFFFFFFFFFFFFFFFFFFFFFFFFFFFFFFFF MUL NOT AND SWAP1 DUP4 PUSH20 0xFFFFFFFFFFFFFFFFFFFFFFFFFFFFFFFFFFFFFFFF AND MUL OR SWAP1 SSTORE POP SWAP1 POP POP POP POP POP JUMP JUMPDEST PUSH1 0x8 PUSH1 0x0 SWAP1 SLOAD SWAP1 PUSH2 0x100 EXP SWAP1 DIV PUSH20 0xFFFFFFFFFFFFFFFFFFFFFFFFFFFFFFFFFFFFFFFF AND DUP2 JUMP JUMPDEST PUSH32 0x0 PUSH20 0xFFFFFFFFFFFFFFFFFFFFFFFFFFFFFFFFFFFFFFFF AND PUSH2 0xF38 PUSH2 0x381F JUMP JUMPDEST PUSH20 0xFFFFFFFFFFFFFFFFFFFFFFFFFFFFFFFFFFFFFFFF AND EQ PUSH2 0xF8E JUMPI PUSH1 0x40 MLOAD PUSH32 0x8C379A000000000000000000000000000000000000000000000000000000000 DUP2 MSTORE PUSH1 0x4 ADD PUSH2 0xF85 SWAP1 PUSH2 0x4ACD JUMP JUMPDEST PUSH1 0x40 MLOAD DUP1 SWAP2 SUB SWAP1 REVERT JUMPDEST PUSH1 0x0 DUP1 DUP3 DUP1 PUSH1 0x20 ADD SWAP1 MLOAD DUP2 ADD SWAP1 PUSH2 0xFA5 SWAP2 SWAP1 PUSH2 0x4B9C JUMP JUMPDEST SWAP2 POP SWAP2 POP DUP1 ISZERO PUSH2 0x165F JUMPI PUSH1 0x0 DUP1 PUSH1 0x0 DUP1 PUSH1 0x0 DUP1 DUP8 DUP1 PUSH1 0x20 ADD SWAP1 MLOAD DUP2 ADD SWAP1 PUSH2 0xFCC SWAP2 SWAP1 PUSH2 0x4C70 JUMP JUMPDEST SWAP6 POP SWAP6 POP SWAP6 POP SWAP6 POP SWAP6 POP SWAP6 POP PUSH1 0x0 PUSH1 0x2 PUSH1 0x0 DUP9 DUP2 MSTORE PUSH1 0x20 ADD SWAP1 DUP2 MSTORE PUSH1 0x20 ADD PUSH1 0x0 KECCAK256 PUSH1 0x40 MLOAD DUP1 PUSH1 0xE0 ADD PUSH1 0x40 MSTORE SWAP1 DUP2 PUSH1 0x0 DUP3 ADD SLOAD DUP2 MSTORE PUSH1 0x20 ADD PUSH1 0x1 DUP3 ADD PUSH1 0x0 SWAP1 SLOAD SWAP1 PUSH2 0x100 EXP SWAP1 DIV PUSH1 0xFF AND PUSH1 0x4 DUP2 GT ISZERO PUSH2 0x1027 JUMPI PUSH2 0x1026 PUSH2 0x4254 JUMP JUMPDEST JUMPDEST PUSH1 0x4 DUP2 GT ISZERO PUSH2 0x1039 JUMPI PUSH2 0x1038 PUSH2 0x4254 JUMP JUMPDEST JUMPDEST DUP2 MSTORE PUSH1 0x20 ADD PUSH1 0x1 DUP3 ADD PUSH1 0x1 SWAP1 SLOAD SWAP1 PUSH2 0x100 EXP SWAP1 DIV PUSH20 0xFFFFFFFFFFFFFFFFFFFFFFFFFFFFFFFFFFFFFFFF AND PUSH20 0xFFFFFFFFFFFFFFFFFFFFFFFFFFFFFFFFFFFFFFFF AND PUSH20 0xFFFFFFFFFFFFFFFFFFFFFFFFFFFFFFFFFFFFFFFF AND DUP2 MSTORE PUSH1 0x20 ADD PUSH1 0x2 DUP3 ADD SLOAD DUP2 MSTORE PUSH1 0x20 ADD PUSH1 0x3 DUP3 ADD PUSH1 0x0 SWAP1 SLOAD SWAP1 PUSH2 0x100 EXP SWAP1 DIV PUSH20 0xFFFFFFFFFFFFFFFFFFFFFFFFFFFFFFFFFFFFFFFF AND PUSH20 0xFFFFFFFFFFFFFFFFFFFFFFFFFFFFFFFFFFFFFFFF AND PUSH20 0xFFFFFFFFFFFFFFFFFFFFFFFFFFFFFFFFFFFFFFFF AND DUP2 MSTORE PUSH1 0x20 ADD PUSH1 0x4 DUP3 ADD SLOAD DUP2 MSTORE PUSH1 0x20 ADD PUSH1 0x5 DUP3 ADD PUSH1 0x0 SWAP1 SLOAD SWAP1 PUSH2 0x100 EXP SWAP1 DIV PUSH20 0xFFFFFFFFFFFFFFFFFFFFFFFFFFFFFFFFFFFFFFFF AND PUSH20 0xFFFFFFFFFFFFFFFFFFFFFFFFFFFFFFFFFFFFFFFF AND PUSH20 0xFFFFFFFFFFFFFFFFFFFFFFFFFFFFFFFFFFFFFFFF AND DUP2 MSTORE POP POP SWAP1 POP PUSH1 0x0 PUSH1 0x4 DUP2 GT ISZERO PUSH2 0x1169 JUMPI PUSH2 0x1168 PUSH2 0x4254 JUMP JUMPDEST JUMPDEST DUP2 PUSH1 0x20 ADD MLOAD PUSH1 0x4 DUP2 GT ISZERO PUSH2 0x1180 JUMPI PUSH2 0x117F PUSH2 0x4254 JUMP JUMPDEST JUMPDEST SUB PUSH2 0x11C0 JUMPI PUSH1 0x40 MLOAD PUSH32 0x8C379A000000000000000000000000000000000000000000000000000000000 DUP2 MSTORE PUSH1 0x4 ADD PUSH2 0x11B7 SWAP1 PUSH2 0x4D6F JUMP JUMPDEST PUSH1 0x40 MLOAD DUP1 SWAP2 SUB SWAP1 REVERT JUMPDEST TIMESTAMP PUSH2 0x3840 DUP3 PUSH1 0xA0 ADD MLOAD PUSH2 0x11D3 SWAP2 SWAP1 PUSH2 0x48C1 JUMP JUMPDEST GT PUSH2 0x1213 JUMPI PUSH1 0x40 MLOAD PUSH32 0x8C379A000000000000000000000000000000000000000000000000000000000 DUP2 MSTORE PUSH1 0x4 ADD PUSH2 0x120A SWAP1 PUSH2 0x4E01 JUMP JUMPDEST PUSH1 0x40 MLOAD DUP1 SWAP2 SUB SWAP1 REVERT JUMPDEST PUSH1 0x2 PUSH1 0x5 DUP2 GT ISZERO PUSH2 0x1227 JUMPI PUSH2 0x1226 PUSH2 0x4254 JUMP JUMPDEST JUMPDEST DUP7 PUSH1 0x5 DUP2 GT ISZERO PUSH2 0x123A JUMPI PUSH2 0x1239 PUSH2 0x4254 JUMP JUMPDEST JUMPDEST EQ DUP1 ISZERO PUSH2 0x1276 JUMPI POP DUP5 PUSH20 0xFFFFFFFFFFFFFFFFFFFFFFFFFFFFFFFFFFFFFFFF AND DUP2 PUSH1 0x40 ADD MLOAD PUSH20 0xFFFFFFFFFFFFFFFFFFFFFFFFFFFFFFFFFFFFFFFF AND EQ JUMPDEST DUP1 ISZERO PUSH2 0x1285 JUMPI POP DUP4 DUP2 PUSH1 0x60 ADD MLOAD EQ JUMPDEST DUP1 ISZERO PUSH2 0x12C0 JUMPI POP DUP3 PUSH20 0xFFFFFFFFFFFFFFFFFFFFFFFFFFFFFFFFFFFFFFFF AND DUP2 PUSH1 0x80 ADD MLOAD PUSH20 0xFFFFFFFFFFFFFFFFFFFFFFFFFFFFFFFFFFFFFFFF AND EQ JUMPDEST DUP1 ISZERO PUSH2 0x12FB JUMPI POP DUP2 PUSH20 0xFFFFFFFFFFFFFFFFFFFFFFFFFFFFFFFFFFFFFFFF AND DUP2 PUSH1 0xC0 ADD MLOAD PUSH20 0xFFFFFFFFFFFFFFFFFFFFFFFFFFFFFFFFFFFFFFFF AND EQ JUMPDEST ISZERO PUSH2 0x13E3 JUMPI PUSH1 0x1 DUP2 PUSH1 0x20 ADD SWAP1 PUSH1 0x4 DUP2 GT ISZERO PUSH2 0x1319 JUMPI PUSH2 0x1318 PUSH2 0x4254 JUMP JUMPDEST JUMPDEST SWAP1 DUP2 PUSH1 0x4 DUP2 GT ISZERO PUSH2 0x132D JUMPI PUSH2 0x132C PUSH2 0x4254 JUMP JUMPDEST JUMPDEST DUP2 MSTORE POP POP PUSH1 0x1 DUP1 PUSH1 0x0 DUP4 PUSH1 0xC0 ADD MLOAD PUSH20 0xFFFFFFFFFFFFFFFFFFFFFFFFFFFFFFFFFFFFFFFF AND PUSH20 0xFFFFFFFFFFFFFFFFFFFFFFFFFFFFFFFFFFFFFFFF AND DUP2 MSTORE PUSH1 0x20 ADD SWAP1 DUP2 MSTORE PUSH1 0x20 ADD PUSH1 0x0 KECCAK256 PUSH1 0x0 ADD PUSH1 0x0 PUSH2 0x100 EXP DUP2 SLOAD DUP2 PUSH1 0xFF MUL NOT AND SWAP1 DUP4 PUSH1 0x4 DUP2 GT ISZERO PUSH2 0x139A JUMPI PUSH2 0x1399 PUSH2 0x4254 JUMP JUMPDEST JUMPDEST MUL OR SWAP1 SSTORE POP PUSH1 0x0 PUSH1 0x4 PUSH1 0x0 DUP10 DUP2 MSTORE PUSH1 0x20 ADD SWAP1 DUP2 MSTORE PUSH1 0x20 ADD PUSH1 0x0 KECCAK256 PUSH1 0x0 ADD PUSH1 0x14 PUSH2 0x100 EXP DUP2 SLOAD DUP2 PUSH1 0xFF MUL NOT AND SWAP1 DUP4 PUSH1 0x2 DUP2 GT ISZERO PUSH2 0x13D9 JUMPI PUSH2 0x13D8 PUSH2 0x4254 JUMP JUMPDEST JUMPDEST MUL OR SWAP1 SSTORE POP PUSH2 0x1653 JUMP JUMPDEST PUSH1 0x3 DUP2 PUSH1 0x20 ADD SWAP1 PUSH1 0x4 DUP2 GT ISZERO PUSH2 0x13FC JUMPI PUSH2 0x13FB PUSH2 0x4254 JUMP JUMPDEST JUMPDEST SWAP1 DUP2 PUSH1 0x4 DUP2 GT ISZERO PUSH2 0x1410 JUMPI PUSH2 0x140F PUSH2 0x4254 JUMP JUMPDEST JUMPDEST DUP2 MSTORE POP POP PUSH1 0x4 PUSH1 0x1 PUSH1 0x0 DUP4 PUSH1 0xC0 ADD MLOAD PUSH20 0xFFFFFFFFFFFFFFFFFFFFFFFFFFFFFFFFFFFFFFFF AND PUSH20 0xFFFFFFFFFFFFFFFFFFFFFFFFFFFFFFFFFFFFFFFF AND DUP2 MSTORE PUSH1 0x20 ADD SWAP1 DUP2 MSTORE PUSH1 0x20 ADD PUSH1 0x0 KECCAK256 PUSH1 0x0 ADD PUSH1 0x0 PUSH2 0x100 EXP DUP2 SLOAD DUP2 PUSH1 0xFF MUL NOT AND SWAP1 DUP4 PUSH1 0x4 DUP2 GT ISZERO PUSH2 0x147E JUMPI PUSH2 0x147D PUSH2 0x4254 JUMP JUMPDEST JUMPDEST MUL OR SWAP1 SSTORE POP PUSH1 0x2 PUSH1 0x3 PUSH1 0x0 DUP4 PUSH1 0x0 ADD MLOAD DUP2 MSTORE PUSH1 0x20 ADD SWAP1 DUP2 MSTORE PUSH1 0x20 ADD PUSH1 0x0 KECCAK256 PUSH1 0x0 ADD PUSH1 0x0 PUSH2 0x100 EXP DUP2 SLOAD DUP2 PUSH1 0xFF MUL NOT AND SWAP1 DUP4 PUSH1 0x5 DUP2 GT ISZERO PUSH2 0x14C1 JUMPI PUSH2 0x14C0 PUSH2 0x4254 JUMP JUMPDEST JUMPDEST MUL OR SWAP1 SSTORE POP PUSH1 0x1 PUSH1 0x2 DUP2 GT ISZERO PUSH2 0x14DA JUMPI PUSH2 0x14D9 PUSH2 0x4254 JUMP JUMPDEST JUMPDEST PUSH1 0x4 PUSH1 0x0 DUP10 DUP2 MSTORE PUSH1 0x20 ADD SWAP1 DUP2 MSTORE PUSH1 0x20 ADD PUSH1 0x0 KECCAK256 PUSH1 0x0 ADD PUSH1 0x14 SWAP1 SLOAD SWAP1 PUSH2 0x100 EXP SWAP1 DIV PUSH1 0xFF AND PUSH1 0x2 DUP2 GT ISZERO PUSH2 0x1510 JUMPI PUSH2 0x150F PUSH2 0x4254 JUMP JUMPDEST JUMPDEST SUB PUSH2 0x1613 JUMPI PUSH1 0x4 PUSH1 0x0 DUP9 DUP2 MSTORE PUSH1 0x20 ADD SWAP1 DUP2 MSTORE PUSH1 0x20 ADD PUSH1 0x0 KECCAK256 PUSH1 0x0 ADD PUSH1 0x0 SWAP1 SLOAD SWAP1 PUSH2 0x100 EXP SWAP1 DIV PUSH20 0xFFFFFFFFFFFFFFFFFFFFFFFFFFFFFFFFFFFFFFFF AND PUSH1 0x5 PUSH1 0x0 DUP10 DUP2 MSTORE PUSH1 0x20 ADD SWAP1 DUP2 MSTORE PUSH1 0x20 ADD PUSH1 0x0 KECCAK256 PUSH1 0x0 ADD PUSH1 0x0 PUSH2 0x100 EXP DUP2 SLOAD DUP2 PUSH20 0xFFFFFFFFFFFFFFFFFFFFFFFFFFFFFFFFFFFFFFFF MUL NOT AND SWAP1 DUP4 PUSH20 0xFFFFFFFFFFFFFFFFFFFFFFFFFFFFFFFFFFFFFFFF AND MUL OR SWAP1 SSTORE POP PUSH1 0x4 PUSH32 0x0 PUSH2 0x15CD SWAP2 SWAP1 PUSH2 0x4E50 JUMP JUMPDEST PUSH32 0x0 PUSH2 0x15F8 SWAP2 SWAP1 PUSH2 0x48C1 JUMP JUMPDEST PUSH1 0x5 PUSH1 0x0 DUP10 DUP2 MSTORE PUSH1 0x20 ADD SWAP1 DUP2 MSTORE PUSH1 0x20 ADD PUSH1 0x0 KECCAK256 PUSH1 0x1 ADD DUP2 SWAP1 SSTORE POP JUMPDEST PUSH1 0x2 PUSH1 0x4 PUSH1 0x0 DUP10 DUP2 MSTORE PUSH1 0x20 ADD SWAP1 DUP2 MSTORE PUSH1 0x20 ADD PUSH1 0x0 KECCAK256 PUSH1 0x0 ADD PUSH1 0x14 PUSH2 0x100 EXP DUP2 SLOAD DUP2 PUSH1 0xFF MUL NOT AND SWAP1 DUP4 PUSH1 0x2 DUP2 GT ISZERO PUSH2 0x164D JUMPI PUSH2 0x164C PUSH2 0x4254 JUMP JUMPDEST JUMPDEST MUL OR SWAP1 SSTORE POP JUMPDEST POP POP POP POP POP POP POP PUSH2 0x1CAA JUMP JUMPDEST PUSH1 0x0 DUP1 PUSH1 0x0 DUP1 PUSH1 0x0 DUP1 PUSH1 0x0 DUP9 DUP1 PUSH1 0x20 ADD SWAP1 MLOAD DUP2 ADD SWAP1 PUSH2 0x167E SWAP2 SWAP1 PUSH2 0x4EA6 JUMP JUMPDEST SWAP7 POP SWAP7 POP SWAP7 POP SWAP7 POP SWAP7 POP SWAP7 POP SWAP7 POP PUSH1 0x0 PUSH1 0x3 PUSH1 0x0 DUP10 DUP2 MSTORE PUSH1 0x20 ADD SWAP1 DUP2 MSTORE PUSH1 0x20 ADD PUSH1 0x0 KECCAK256 PUSH1 0x40 MLOAD DUP1 PUSH2 0x120 ADD PUSH1 0x40 MSTORE SWAP1 DUP2 PUSH1 0x0 DUP3 ADD PUSH1 0x0 SWAP1 SLOAD SWAP1 PUSH2 0x100 EXP SWAP1 DIV PUSH1 0xFF AND PUSH1 0x5 DUP2 GT ISZERO PUSH2 0x16D2 JUMPI PUSH2 0x16D1 PUSH2 0x4254 JUMP JUMPDEST JUMPDEST PUSH1 0x5 DUP2 GT ISZERO PUSH2 0x16E4 JUMPI PUSH2 0x16E3 PUSH2 0x4254 JUMP JUMPDEST JUMPDEST DUP2 MSTORE PUSH1 0x20 ADD PUSH1 0x1 DUP3 ADD SLOAD DUP2 MSTORE PUSH1 0x20 ADD PUSH1 0x2 DUP3 ADD PUSH1 0x0 SWAP1 SLOAD SWAP1 PUSH2 0x100 EXP SWAP1 DIV PUSH20 0xFFFFFFFFFFFFFFFFFFFFFFFFFFFFFFFFFFFFFFFF AND PUSH20 0xFFFFFFFFFFFFFFFFFFFFFFFFFFFFFFFFFFFFFFFF AND PUSH20 0xFFFFFFFFFFFFFFFFFFFFFFFFFFFFFFFFFFFFFFFF AND DUP2 MSTORE PUSH1 0x20 ADD PUSH1 0x3 DUP3 ADD PUSH1 0x0 SWAP1 SLOAD SWAP1 PUSH2 0x100 EXP SWAP1 DIV PUSH20 0xFFFFFFFFFFFFFFFFFFFFFFFFFFFFFFFFFFFFFFFF AND PUSH20 0xFFFFFFFFFFFFFFFFFFFFFFFFFFFFFFFFFFFFFFFF AND PUSH20 0xFFFFFFFFFFFFFFFFFFFFFFFFFFFFFFFFFFFFFFFF AND DUP2 MSTORE PUSH1 0x20 ADD PUSH1 0x4 DUP3 ADD SLOAD DUP2 MSTORE PUSH1 0x20 ADD PUSH1 0x5 DUP3 ADD PUSH1 0x0 SWAP1 SLOAD SWAP1 PUSH2 0x100 EXP SWAP1 DIV PUSH20 0xFFFFFFFFFFFFFFFFFFFFFFFFFFFFFFFFFFFFFFFF AND PUSH20 0xFFFFFFFFFFFFFFFFFFFFFFFFFFFFFFFFFFFFFFFF AND PUSH20 0xFFFFFFFFFFFFFFFFFFFFFFFFFFFFFFFFFFFFFFFF AND DUP2 MSTORE PUSH1 0x20 ADD PUSH1 0x6 DUP3 ADD PUSH1 0x0 SWAP1 SLOAD SWAP1 PUSH2 0x100 EXP SWAP1 DIV PUSH20 0xFFFFFFFFFFFFFFFFFFFFFFFFFFFFFFFFFFFFFFFF AND PUSH20 0xFFFFFFFFFFFFFFFFFFFFFFFFFFFFFFFFFFFFFFFF AND PUSH20 0xFFFFFFFFFFFFFFFFFFFFFFFFFFFFFFFFFFFFFFFF AND DUP2 MSTORE PUSH1 0x20 ADD PUSH1 0x7 DUP3 ADD SLOAD DUP2 MSTORE PUSH1 0x20 ADD PUSH1 0x8 DUP3 ADD PUSH1 0x0 SWAP1 SLOAD SWAP1 PUSH2 0x100 EXP SWAP1 DIV PUSH20 0xFFFFFFFFFFFFFFFFFFFFFFFFFFFFFFFFFFFFFFFF AND PUSH20 0xFFFFFFFFFFFFFFFFFFFFFFFFFFFFFFFFFFFFFFFF AND PUSH20 0xFFFFFFFFFFFFFFFFFFFFFFFFFFFFFFFFFFFFFFFF AND DUP2 MSTORE POP POP SWAP1 POP PUSH1 0x0 PUSH1 0x5 DUP2 GT ISZERO PUSH2 0x18CA JUMPI PUSH2 0x18C9 PUSH2 0x4254 JUMP JUMPDEST JUMPDEST DUP2 PUSH1 0x0 ADD MLOAD PUSH1 0x5 DUP2 GT ISZERO PUSH2 0x18E1 JUMPI PUSH2 0x18E0 PUSH2 0x4254 JUMP JUMPDEST JUMPDEST SUB PUSH2 0x1921 JUMPI PUSH1 0x40 MLOAD PUSH32 0x8C379A000000000000000000000000000000000000000000000000000000000 DUP2 MSTORE PUSH1 0x4 ADD PUSH2 0x1918 SWAP1 PUSH2 0x4D6F JUMP JUMPDEST PUSH1 0x40 MLOAD DUP1 SWAP2 SUB SWAP1 REVERT JUMPDEST TIMESTAMP PUSH2 0x3840 DUP3 PUSH1 0xE0 ADD MLOAD PUSH2 0x1934 SWAP2 SWAP1 PUSH2 0x48C1 JUMP JUMPDEST LT PUSH2 0x1974 JUMPI PUSH1 0x40 MLOAD PUSH32 0x8C379A000000000000000000000000000000000000000000000000000000000 DUP2 MSTORE PUSH1 0x4 ADD PUSH2 0x196B SWAP1 PUSH2 0x4FBA JUMP JUMPDEST PUSH1 0x40 MLOAD DUP1 SWAP2 SUB SWAP1 REVERT JUMPDEST PUSH1 0x3 PUSH1 0x4 DUP2 GT ISZERO PUSH2 0x1988 JUMPI PUSH2 0x1987 PUSH2 0x4254 JUMP JUMPDEST JUMPDEST DUP8 PUSH1 0x4 DUP2 GT ISZERO PUSH2 0x199B JUMPI PUSH2 0x199A PUSH2 0x4254 JUMP JUMPDEST JUMPDEST EQ ISZERO DUP1 ISZERO PUSH2 0x19D8 JUMPI POP DUP6 PUSH20 0xFFFFFFFFFFFFFFFFFFFFFFFFFFFFFFFFFFFFFFFF AND DUP2 PUSH1 0x60 ADD MLOAD PUSH20 0xFFFFFFFFFFFFFFFFFFFFFFFFFFFFFFFFFFFFFFFF AND EQ JUMPDEST DUP1 ISZERO PUSH2 0x19E7 JUMPI POP DUP5 DUP2 PUSH1 0x80 ADD MLOAD EQ JUMPDEST DUP1 ISZERO PUSH2 0x1A22 JUMPI POP DUP4 PUSH20 0xFFFFFFFFFFFFFFFFFFFFFFFFFFFFFFFFFFFFFFFF AND DUP2 PUSH1 0xC0 ADD MLOAD PUSH20 0xFFFFFFFFFFFFFFFFFFFFFFFFFFFFFFFFFFFFFFFF AND EQ JUMPDEST DUP1 ISZERO PUSH2 0x1A5E JUMPI POP DUP3 PUSH20 0xFFFFFFFFFFFFFFFFFFFFFFFFFFFFFFFFFFFFFFFF AND DUP2 PUSH2 0x100 ADD MLOAD PUSH20 0xFFFFFFFFFFFFFFFFFFFFFFFFFFFFFFFFFFFFFFFF AND EQ JUMPDEST ISZERO PUSH2 0x1AA9 JUMPI PUSH1 0x0 PUSH2 0x1AA4 JUMPI PUSH1 0x40 MLOAD PUSH32 0x8C379A000000000000000000000000000000000000000000000000000000000 DUP2 MSTORE PUSH1 0x4 ADD PUSH2 0x1A9B SWAP1 PUSH2 0x504C JUMP JUMPDEST PUSH1 0x40 MLOAD DUP1 SWAP2 SUB SWAP1 REVERT JUMPDEST PUSH2 0x1CA1 JUMP JUMPDEST PUSH1 0x4 DUP2 PUSH1 0x0 ADD SWAP1 PUSH1 0x5 DUP2 GT ISZERO PUSH2 0x1AC2 JUMPI PUSH2 0x1AC1 PUSH2 0x4254 JUMP JUMPDEST JUMPDEST SWAP1 DUP2 PUSH1 0x5 DUP2 GT ISZERO PUSH2 0x1AD6 JUMPI PUSH2 0x1AD5 PUSH2 0x4254 JUMP JUMPDEST JUMPDEST DUP2 MSTORE POP POP PUSH1 0x4 PUSH1 0x1 PUSH1 0x0 DUP4 PUSH2 0x100 ADD MLOAD PUSH20 0xFFFFFFFFFFFFFFFFFFFFFFFFFFFFFFFFFFFFFFFF AND PUSH20 0xFFFFFFFFFFFFFFFFFFFFFFFFFFFFFFFFFFFFFFFF AND DUP2 MSTORE PUSH1 0x20 ADD SWAP1 DUP2 MSTORE PUSH1 0x20 ADD PUSH1 0x0 KECCAK256 PUSH1 0x0 ADD PUSH1 0x0 PUSH2 0x100 EXP DUP2 SLOAD DUP2 PUSH1 0xFF MUL NOT AND SWAP1 DUP4 PUSH1 0x4 DUP2 GT ISZERO PUSH2 0x1B45 JUMPI PUSH2 0x1B44 PUSH2 0x4254 JUMP JUMPDEST JUMPDEST MUL OR SWAP1 SSTORE POP DUP1 PUSH1 0xA0 ADD MLOAD PUSH20 0xFFFFFFFFFFFFFFFFFFFFFFFFFFFFFFFFFFFFFFFF AND PUSH4 0x42842E0E ADDRESS DUP4 PUSH1 0x40 ADD MLOAD DUP5 PUSH1 0x80 ADD MLOAD PUSH1 0x40 MLOAD DUP5 PUSH4 0xFFFFFFFF AND PUSH1 0xE0 SHL DUP2 MSTORE PUSH1 0x4 ADD PUSH2 0x1B93 SWAP4 SWAP3 SWAP2 SWAP1 PUSH2 0x506C JUMP JUMPDEST PUSH1 0x0 PUSH1 0x40 MLOAD DUP1 DUP4 SUB DUP2 PUSH1 0x0 DUP8 DUP1 EXTCODESIZE ISZERO DUP1 ISZERO PUSH2 0x1BAD JUMPI PUSH1 0x0 DUP1 REVERT JUMPDEST POP GAS CALL ISZERO DUP1 ISZERO PUSH2 0x1BC1 JUMPI RETURNDATASIZE PUSH1 0x0 DUP1 RETURNDATACOPY RETURNDATASIZE PUSH1 0x0 REVERT JUMPDEST POP POP POP POP DUP2 PUSH1 0x6 PUSH1 0x0 DUP11 DUP2 MSTORE PUSH1 0x20 ADD SWAP1 DUP2 MSTORE PUSH1 0x20 ADD PUSH1 0x0 KECCAK256 PUSH1 0x0 ADD PUSH1 0x0 PUSH2 0x100 EXP DUP2 SLOAD DUP2 PUSH20 0xFFFFFFFFFFFFFFFFFFFFFFFFFFFFFFFFFFFFFFFF MUL NOT AND SWAP1 DUP4 PUSH20 0xFFFFFFFFFFFFFFFFFFFFFFFFFFFFFFFFFFFFFFFF AND MUL OR SWAP1 SSTORE POP PUSH1 0x4 PUSH32 0x0 PUSH2 0x1C47 SWAP2 SWAP1 PUSH2 0x4E50 JUMP JUMPDEST PUSH1 0x6 PUSH1 0x0 DUP11 DUP2 MSTORE PUSH1 0x20 ADD SWAP1 DUP2 MSTORE PUSH1 0x20 ADD PUSH1 0x0 KECCAK256 PUSH1 0x1 ADD DUP2 SWAP1 SSTORE POP PUSH1 0x2 PUSH1 0x4 PUSH1 0x0 DUP11 DUP2 MSTORE PUSH1 0x20 ADD SWAP1 DUP2 MSTORE PUSH1 0x20 ADD PUSH1 0x0 KECCAK256 PUSH1 0x0 ADD PUSH1 0x14 PUSH2 0x100 EXP DUP2 SLOAD DUP2 PUSH1 0xFF MUL NOT AND SWAP1 DUP4 PUSH1 0x2 DUP2 GT ISZERO PUSH2 0x1C9B JUMPI PUSH2 0x1C9A PUSH2 0x4254 JUMP JUMPDEST JUMPDEST MUL OR SWAP1 SSTORE POP JUMPDEST POP POP POP POP POP POP POP POP JUMPDEST POP POP POP JUMP JUMPDEST PUSH1 0x0 CALLVALUE GT PUSH2 0x1CF2 JUMPI PUSH1 0x40 MLOAD PUSH32 0x8C379A000000000000000000000000000000000000000000000000000000000 DUP2 MSTORE PUSH1 0x4 ADD PUSH2 0x1CE9 SWAP1 PUSH2 0x5115 JUMP JUMPDEST PUSH1 0x40 MLOAD DUP1 SWAP2 SUB SWAP1 REVERT JUMPDEST DUP1 PUSH20 0xFFFFFFFFFFFFFFFFFFFFFFFFFFFFFFFFFFFFFFFF AND PUSH4 0x42842E0E CALLER ADDRESS DUP6 PUSH1 0x40 MLOAD DUP5 PUSH4 0xFFFFFFFF AND PUSH1 0xE0 SHL DUP2 MSTORE PUSH1 0x4 ADD PUSH2 0x1D2F SWAP4 SWAP3 SWAP2 SWAP1 PUSH2 0x506C JUMP JUMPDEST PUSH1 0x0 PUSH1 0x40 MLOAD DUP1 DUP4 SUB DUP2 PUSH1 0x0 DUP8 DUP1 EXTCODESIZE ISZERO DUP1 ISZERO PUSH2 0x1D49 JUMPI PUSH1 0x0 DUP1 REVERT JUMPDEST POP GAS CALL ISZERO DUP1 ISZERO PUSH2 0x1D5D JUMPI RETURNDATASIZE PUSH1 0x0 DUP1 RETURNDATACOPY RETURNDATASIZE PUSH1 0x0 REVERT JUMPDEST POP POP POP POP PUSH1 0x40 MLOAD DUP1 PUSH2 0x120 ADD PUSH1 0x40 MSTORE DUP1 PUSH1 0x1 PUSH1 0x5 DUP2 GT ISZERO PUSH2 0x1D81 JUMPI PUSH2 0x1D80 PUSH2 0x4254 JUMP JUMPDEST JUMPDEST DUP2 MSTORE PUSH1 0x20 ADD CALLVALUE DUP2 MSTORE PUSH1 0x20 ADD PUSH2 0x1D94 PUSH2 0x3817 JUMP JUMPDEST PUSH20 0xFFFFFFFFFFFFFFFFFFFFFFFFFFFFFFFFFFFFFFFF AND DUP2 MSTORE PUSH1 0x20 ADD DUP5 PUSH20 0xFFFFFFFFFFFFFFFFFFFFFFFFFFFFFFFFFFFFFFFF AND DUP2 MSTORE PUSH1 0x20 ADD DUP4 DUP2 MSTORE PUSH1 0x20 ADD DUP3 PUSH20 0xFFFFFFFFFFFFFFFFFFFFFFFFFFFFFFFFFFFFFFFF AND DUP2 MSTORE PUSH1 0x20 ADD PUSH1 0x8 PUSH1 0x0 SWAP1 SLOAD SWAP1 PUSH2 0x100 EXP SWAP1 DIV PUSH20 0xFFFFFFFFFFFFFFFFFFFFFFFFFFFFFFFFFFFFFFFF AND PUSH20 0xFFFFFFFFFFFFFFFFFFFFFFFFFFFFFFFFFFFFFFFF AND PUSH4 0x1D1C2AF4 DUP5 PUSH1 0x40 MLOAD DUP3 PUSH4 0xFFFFFFFF AND PUSH1 0xE0 SHL DUP2 MSTORE PUSH1 0x4 ADD PUSH2 0x1E48 SWAP2 SWAP1 PUSH2 0x40D0 JUMP JUMPDEST PUSH1 0x20 PUSH1 0x40 MLOAD DUP1 DUP4 SUB DUP2 DUP7 GAS STATICCALL ISZERO DUP1 ISZERO PUSH2 0x1E65 JUMPI RETURNDATASIZE PUSH1 0x0 DUP1 RETURNDATACOPY RETURNDATASIZE PUSH1 0x0 REVERT JUMPDEST POP POP POP POP PUSH1 0x40 MLOAD RETURNDATASIZE PUSH1 0x1F NOT PUSH1 0x1F DUP3 ADD AND DUP3 ADD DUP1 PUSH1 0x40 MSTORE POP DUP2 ADD SWAP1 PUSH2 0x1E89 SWAP2 SWAP1 PUSH2 0x499C JUMP JUMPDEST PUSH20 0xFFFFFFFFFFFFFFFFFFFFFFFFFFFFFFFFFFFFFFFF AND DUP2 MSTORE PUSH1 0x20 ADD PUSH1 0x0 DUP2 MSTORE PUSH1 0x20 ADD PUSH1 0x0 PUSH20 0xFFFFFFFFFFFFFFFFFFFFFFFFFFFFFFFFFFFFFFFF AND DUP2 MSTORE POP PUSH1 0x3 PUSH1 0x0 PUSH2 0x1ED4 PUSH1 0x7 PUSH2 0x382E JUMP JUMPDEST DUP2 MSTORE PUSH1 0x20 ADD SWAP1 DUP2 MSTORE PUSH1 0x20 ADD PUSH1 0x0 KECCAK256 PUSH1 0x0 DUP3 ADD MLOAD DUP2 PUSH1 0x0 ADD PUSH1 0x0 PUSH2 0x100 EXP DUP2 SLOAD DUP2 PUSH1 0xFF MUL NOT AND SWAP1 DUP4 PUSH1 0x5 DUP2 GT ISZERO PUSH2 0x1F0D JUMPI PUSH2 0x1F0C PUSH2 0x4254 JUMP JUMPDEST JUMPDEST MUL OR SWAP1 SSTORE POP PUSH1 0x20 DUP3 ADD MLOAD DUP2 PUSH1 0x1 ADD SSTORE PUSH1 0x40 DUP3 ADD MLOAD DUP2 PUSH1 0x2 ADD PUSH1 0x0 PUSH2 0x100 EXP DUP2 SLOAD DUP2 PUSH20 0xFFFFFFFFFFFFFFFFFFFFFFFFFFFFFFFFFFFFFFFF MUL NOT AND SWAP1 DUP4 PUSH20 0xFFFFFFFFFFFFFFFFFFFFFFFFFFFFFFFFFFFFFFFF AND MUL OR SWAP1 SSTORE POP PUSH1 0x60 DUP3 ADD MLOAD DUP2 PUSH1 0x3 ADD PUSH1 0x0 PUSH2 0x100 EXP DUP2 SLOAD DUP2 PUSH20 0xFFFFFFFFFFFFFFFFFFFFFFFFFFFFFFFFFFFFFFFF MUL NOT AND SWAP1 DUP4 PUSH20 0xFFFFFFFFFFFFFFFFFFFFFFFFFFFFFFFFFFFFFFFF AND MUL OR SWAP1 SSTORE POP PUSH1 0x80 DUP3 ADD MLOAD DUP2 PUSH1 0x4 ADD SSTORE PUSH1 0xA0 DUP3 ADD MLOAD DUP2 PUSH1 0x5 ADD PUSH1 0x0 PUSH2 0x100 EXP DUP2 SLOAD DUP2 PUSH20 0xFFFFFFFFFFFFFFFFFFFFFFFFFFFFFFFFFFFFFFFF MUL NOT AND SWAP1 DUP4 PUSH20 0xFFFFFFFFFFFFFFFFFFFFFFFFFFFFFFFFFFFFFFFF AND MUL OR SWAP1 SSTORE POP PUSH1 0xC0 DUP3 ADD MLOAD DUP2 PUSH1 0x6 ADD PUSH1 0x0 PUSH2 0x100 EXP DUP2 SLOAD DUP2 PUSH20 0xFFFFFFFFFFFFFFFFFFFFFFFFFFFFFFFFFFFFFFFF MUL NOT AND SWAP1 DUP4 PUSH20 0xFFFFFFFFFFFFFFFFFFFFFFFFFFFFFFFFFFFFFFFF AND MUL OR SWAP1 SSTORE POP PUSH1 0xE0 DUP3 ADD MLOAD DUP2 PUSH1 0x7 ADD SSTORE PUSH2 0x100 DUP3 ADD MLOAD DUP2 PUSH1 0x8 ADD PUSH1 0x0 PUSH2 0x100 EXP DUP2 SLOAD DUP2 PUSH20 0xFFFFFFFFFFFFFFFFFFFFFFFFFFFFFFFFFFFFFFFF MUL NOT AND SWAP1 DUP4 PUSH20 0xFFFFFFFFFFFFFFFFFFFFFFFFFFFFFFFFFFFFFFFF AND MUL OR SWAP1 SSTORE POP SWAP1 POP POP PUSH2 0x20A1 PUSH1 0x7 PUSH2 0x383C JUMP JUMPDEST POP POP POP JUMP JUMPDEST DUP1 ISZERO PUSH2 0x22B9 JUMPI PUSH1 0x6 PUSH1 0x0 DUP4 DUP2 MSTORE PUSH1 0x20 ADD SWAP1 DUP2 MSTORE PUSH1 0x20 ADD PUSH1 0x0 KECCAK256 PUSH1 0x2 ADD PUSH1 0x0 SWAP1 SLOAD SWAP1 PUSH2 0x100 EXP SWAP1 DIV PUSH1 0xFF AND ISZERO PUSH2 0x2110 JUMPI PUSH1 0x40 MLOAD PUSH32 0x8C379A000000000000000000000000000000000000000000000000000000000 DUP2 MSTORE PUSH1 0x4 ADD PUSH2 0x2107 SWAP1 PUSH2 0x51A7 JUMP JUMPDEST PUSH1 0x40 MLOAD DUP1 SWAP2 SUB SWAP1 REVERT JUMPDEST PUSH2 0x2118 PUSH2 0x3817 JUMP JUMPDEST PUSH20 0xFFFFFFFFFFFFFFFFFFFFFFFFFFFFFFFFFFFFFFFF AND PUSH1 0x6 PUSH1 0x0 DUP5 DUP2 MSTORE PUSH1 0x20 ADD SWAP1 DUP2 MSTORE PUSH1 0x20 ADD PUSH1 0x0 KECCAK256 PUSH1 0x0 ADD PUSH1 0x0 SWAP1 SLOAD SWAP1 PUSH2 0x100 EXP SWAP1 DIV PUSH20 0xFFFFFFFFFFFFFFFFFFFFFFFFFFFFFFFFFFFFFFFF AND PUSH20 0xFFFFFFFFFFFFFFFFFFFFFFFFFFFFFFFFFFFFFFFF AND EQ PUSH2 0x21BB JUMPI PUSH1 0x40 MLOAD PUSH32 0x8C379A000000000000000000000000000000000000000000000000000000000 DUP2 MSTORE PUSH1 0x4 ADD PUSH2 0x21B2 SWAP1 PUSH2 0x5239 JUMP JUMPDEST PUSH1 0x40 MLOAD DUP1 SWAP2 SUB SWAP1 REVERT JUMPDEST PUSH1 0x1 PUSH1 0x6 PUSH1 0x0 DUP5 DUP2 MSTORE PUSH1 0x20 ADD SWAP1 DUP2 MSTORE PUSH1 0x20 ADD PUSH1 0x0 KECCAK256 PUSH1 0x2 ADD PUSH1 0x0 PUSH2 0x100 EXP DUP2 SLOAD DUP2 PUSH1 0xFF MUL NOT AND SWAP1 DUP4 ISZERO ISZERO MUL OR SWAP1 SSTORE POP PUSH1 0x0 PUSH2 0x21F4 PUSH2 0x3817 JUMP JUMPDEST PUSH20 0xFFFFFFFFFFFFFFFFFFFFFFFFFFFFFFFFFFFFFFFF AND PUSH1 0x6 PUSH1 0x0 DUP6 DUP2 MSTORE PUSH1 0x20 ADD SWAP1 DUP2 MSTORE PUSH1 0x20 ADD PUSH1 0x0 KECCAK256 PUSH1 0x1 ADD SLOAD PUSH1 0x40 MLOAD PUSH2 0x222D SWAP1 PUSH2 0x46ED JUMP JUMPDEST PUSH1 0x0 PUSH1 0x40 MLOAD DUP1 DUP4 SUB DUP2 DUP6 DUP8 GAS CALL SWAP3 POP POP POP RETURNDATASIZE DUP1 PUSH1 0x0 DUP2 EQ PUSH2 0x226A JUMPI PUSH1 0x40 MLOAD SWAP2 POP PUSH1 0x1F NOT PUSH1 0x3F RETURNDATASIZE ADD AND DUP3 ADD PUSH1 0x40 MSTORE RETURNDATASIZE DUP3 MSTORE RETURNDATASIZE PUSH1 0x0 PUSH1 0x20 DUP5 ADD RETURNDATACOPY PUSH2 0x226F JUMP JUMPDEST PUSH1 0x60 SWAP2 POP JUMPDEST POP POP SWAP1 POP DUP1 PUSH2 0x22B3 JUMPI PUSH1 0x40 MLOAD PUSH32 0x8C379A000000000000000000000000000000000000000000000000000000000 DUP2 MSTORE PUSH1 0x4 ADD PUSH2 0x22AA SWAP1 PUSH2 0x474E JUMP JUMPDEST PUSH1 0x40 MLOAD DUP1 SWAP2 SUB SWAP1 REVERT JUMPDEST POP PUSH2 0x24C2 JUMP JUMPDEST PUSH1 0x5 PUSH1 0x0 DUP4 DUP2 MSTORE PUSH1 0x20 ADD SWAP1 DUP2 MSTORE PUSH1 0x20 ADD PUSH1 0x0 KECCAK256 PUSH1 0x2 ADD PUSH1 0x0 SWAP1 SLOAD SWAP1 PUSH2 0x100 EXP SWAP1 DIV PUSH1 0xFF AND ISZERO PUSH2 0x231D JUMPI PUSH1 0x40 MLOAD PUSH32 0x8C379A000000000000000000000000000000000000000000000000000000000 DUP2 MSTORE PUSH1 0x4 ADD PUSH2 0x2314 SWAP1 PUSH2 0x51A7 JUMP JUMPDEST PUSH1 0x40 MLOAD DUP1 SWAP2 SUB SWAP1 REVERT JUMPDEST PUSH2 0x2325 PUSH2 0x3817 JUMP JUMPDEST PUSH20 0xFFFFFFFFFFFFFFFFFFFFFFFFFFFFFFFFFFFFFFFF AND PUSH1 0x5 PUSH1 0x0 DUP5 DUP2 MSTORE PUSH1 0x20 ADD SWAP1 DUP2 MSTORE PUSH1 0x20 ADD PUSH1 0x0 KECCAK256 PUSH1 0x0 ADD PUSH1 0x0 SWAP1 SLOAD SWAP1 PUSH2 0x100 EXP SWAP1 DIV PUSH20 0xFFFFFFFFFFFFFFFFFFFFFFFFFFFFFFFFFFFFFFFF AND PUSH20 0xFFFFFFFFFFFFFFFFFFFFFFFFFFFFFFFFFFFFFFFF AND EQ PUSH2 0x23C8 JUMPI PUSH1 0x40 MLOAD PUSH32 0x8C379A000000000000000000000000000000000000000000000000000000000 DUP2 MSTORE PUSH1 0x4 ADD PUSH2 0x23BF SWAP1 PUSH2 0x5239 JUMP JUMPDEST PUSH1 0x40 MLOAD DUP1 SWAP2 SUB SWAP1 REVERT JUMPDEST PUSH1 0x1 PUSH1 0x5 PUSH1 0x0 DUP5 DUP2 MSTORE PUSH1 0x20 ADD SWAP1 DUP2 MSTORE PUSH1 0x20 ADD PUSH1 0x0 KECCAK256 PUSH1 0x2 ADD PUSH1 0x0 PUSH2 0x100 EXP DUP2 SLOAD DUP2 PUSH1 0xFF MUL NOT AND SWAP1 DUP4 ISZERO ISZERO MUL OR SWAP1 SSTORE POP PUSH1 0x0 PUSH2 0x2401 PUSH2 0x3817 JUMP JUMPDEST PUSH20 0xFFFFFFFFFFFFFFFFFFFFFFFFFFFFFFFFFFFFFFFF AND PUSH1 0x5 PUSH1 0x0 DUP6 DUP2 MSTORE PUSH1 0x20 ADD SWAP1 DUP2 MSTORE PUSH1 0x20 ADD PUSH1 0x0 KECCAK256 PUSH1 0x1 ADD SLOAD PUSH1 0x40 MLOAD PUSH2 0x243A SWAP1 PUSH2 0x46ED JUMP JUMPDEST PUSH1 0x0 PUSH1 0x40 MLOAD DUP1 DUP4 SUB DUP2 DUP6 DUP8 GAS CALL SWAP3 POP POP POP RETURNDATASIZE DUP1 PUSH1 0x0 DUP2 EQ PUSH2 0x2477 JUMPI PUSH1 0x40 MLOAD SWAP2 POP PUSH1 0x1F NOT PUSH1 0x3F RETURNDATASIZE ADD AND DUP3 ADD PUSH1 0x40 MSTORE RETURNDATASIZE DUP3 MSTORE RETURNDATASIZE PUSH1 0x0 PUSH1 0x20 DUP5 ADD RETURNDATACOPY PUSH2 0x247C JUMP JUMPDEST PUSH1 0x60 SWAP2 POP JUMPDEST POP POP SWAP1 POP DUP1 PUSH2 0x24C0 JUMPI PUSH1 0x40 MLOAD PUSH32 0x8C379A000000000000000000000000000000000000000000000000000000000 DUP2 MSTORE PUSH1 0x4 ADD PUSH2 0x24B7 SWAP1 PUSH2 0x474E JUMP JUMPDEST PUSH1 0x40 MLOAD DUP1 SWAP2 SUB SWAP1 REVERT JUMPDEST POP JUMPDEST POP POP JUMP JUMPDEST PUSH1 0x6 PUSH1 0x20 MSTORE DUP1 PUSH1 0x0 MSTORE PUSH1 0x40 PUSH1 0x0 KECCAK256 PUSH1 0x0 SWAP2 POP SWAP1 POP DUP1 PUSH1 0x0 ADD PUSH1 0x0 SWAP1 SLOAD SWAP1 PUSH2 0x100 EXP SWAP1 DIV PUSH20 0xFFFFFFFFFFFFFFFFFFFFFFFFFFFFFFFFFFFFFFFF AND SWAP1 DUP1 PUSH1 0x1 ADD SLOAD SWAP1 DUP1 PUSH1 0x2 ADD PUSH1 0x0 SWAP1 SLOAD SWAP1 PUSH2 0x100 EXP SWAP1 DIV PUSH1 0xFF AND SWAP1 POP DUP4 JUMP JUMPDEST PUSH1 0x4 PUSH1 0x20 MSTORE DUP1 PUSH1 0x0 MSTORE PUSH1 0x40 PUSH1 0x0 KECCAK256 PUSH1 0x0 SWAP2 POP SWAP1 POP DUP1 PUSH1 0x0 ADD PUSH1 0x0 SWAP1 SLOAD SWAP1 PUSH2 0x100 EXP SWAP1 DIV PUSH20 0xFFFFFFFFFFFFFFFFFFFFFFFFFFFFFFFFFFFFFFFF AND SWAP1 DUP1 PUSH1 0x0 ADD PUSH1 0x14 SWAP1 SLOAD SWAP1 PUSH2 0x100 EXP SWAP1 DIV PUSH1 0xFF AND SWAP1 POP DUP3 JUMP JUMPDEST PUSH32 0x0 DUP2 JUMP JUMPDEST PUSH1 0x1 PUSH1 0x20 MSTORE DUP1 PUSH1 0x0 MSTORE PUSH1 0x40 PUSH1 0x0 KECCAK256 PUSH1 0x0 SWAP2 POP SWAP1 POP DUP1 PUSH1 0x0 ADD PUSH1 0x0 SWAP1 SLOAD SWAP1 PUSH2 0x100 EXP SWAP1 DIV PUSH1 0xFF AND SWAP1 DUP1 PUSH1 0x1 ADD SLOAD SWAP1 DUP1 PUSH1 0x2 ADD SLOAD SWAP1 POP DUP4 JUMP JUMPDEST PUSH2 0x25D1 PUSH2 0x3852 JUMP JUMPDEST PUSH2 0x25DB PUSH1 0x0 PUSH2 0x38D0 JUMP JUMPDEST JUMP JUMPDEST PUSH2 0x25E6 DUP2 PUSH2 0x3994 JUMP JUMPDEST POP JUMP JUMPDEST PUSH1 0x1 PUSH1 0x0 PUSH2 0x25F5 PUSH2 0x3817 JUMP JUMPDEST PUSH20 0xFFFFFFFFFFFFFFFFFFFFFFFFFFFFFFFFFFFFFFFF AND PUSH20 0xFFFFFFFFFFFFFFFFFFFFFFFFFFFFFFFFFFFFFFFF AND DUP2 MSTORE PUSH1 0x20 ADD SWAP1 DUP2 MSTORE PUSH1 0x20 ADD PUSH1 0x0 KECCAK256 PUSH1 0x0 ADD PUSH1 0x0 SWAP1 SLOAD SWAP1 PUSH2 0x100 EXP SWAP1 DIV PUSH1 0xFF AND PUSH1 0x4 DUP2 GT ISZERO PUSH2 0x2652 JUMPI PUSH2 0x2651 PUSH2 0x4254 JUMP JUMPDEST JUMPDEST PUSH1 0x2 PUSH1 0x4 DUP2 GT ISZERO PUSH2 0x2666 JUMPI PUSH2 0x2665 PUSH2 0x4254 JUMP JUMPDEST JUMPDEST EQ PUSH2 0x26A6 JUMPI PUSH1 0x40 MLOAD PUSH32 0x8C379A000000000000000000000000000000000000000000000000000000000 DUP2 MSTORE PUSH1 0x4 ADD PUSH2 0x269D SWAP1 PUSH2 0x52CB JUMP JUMPDEST PUSH1 0x40 MLOAD DUP1 SWAP2 SUB SWAP1 REVERT JUMPDEST PUSH32 0x0 PUSH1 0x1 PUSH1 0x0 PUSH2 0x26D3 PUSH2 0x3817 JUMP JUMPDEST PUSH20 0xFFFFFFFFFFFFFFFFFFFFFFFFFFFFFFFFFFFFFFFF AND PUSH20 0xFFFFFFFFFFFFFFFFFFFFFFFFFFFFFFFFFFFFFFFF AND DUP2 MSTORE PUSH1 0x20 ADD SWAP1 DUP2 MSTORE PUSH1 0x20 ADD PUSH1 0x0 KECCAK256 PUSH1 0x1 ADD SLOAD PUSH2 0x271B SWAP2 SWAP1 PUSH2 0x48C1 JUMP JUMPDEST TIMESTAMP GT PUSH2 0x275C JUMPI PUSH1 0x40 MLOAD PUSH32 0x8C379A000000000000000000000000000000000000000000000000000000000 DUP2 MSTORE PUSH1 0x4 ADD PUSH2 0x2753 SWAP1 PUSH2 0x535D JUMP JUMPDEST PUSH1 0x40 MLOAD DUP1 SWAP2 SUB SWAP1 REVERT JUMPDEST PUSH1 0x0 PUSH2 0x2766 PUSH2 0x3817 JUMP JUMPDEST PUSH20 0xFFFFFFFFFFFFFFFFFFFFFFFFFFFFFFFFFFFFFFFF AND PUSH32 0x0 PUSH1 0x40 MLOAD PUSH2 0x27A9 SWAP1 PUSH2 0x46ED JUMP JUMPDEST PUSH1 0x0 PUSH1 0x40 MLOAD DUP1 DUP4 SUB DUP2 DUP6 DUP8 GAS CALL SWAP3 POP POP POP RETURNDATASIZE DUP1 PUSH1 0x0 DUP2 EQ PUSH2 0x27E6 JUMPI PUSH1 0x40 MLOAD SWAP2 POP PUSH1 0x1F NOT PUSH1 0x3F RETURNDATASIZE ADD AND DUP3 ADD PUSH1 0x40 MSTORE RETURNDATASIZE DUP3 MSTORE RETURNDATASIZE PUSH1 0x0 PUSH1 0x20 DUP5 ADD RETURNDATACOPY PUSH2 0x27EB JUMP JUMPDEST PUSH1 0x60 SWAP2 POP JUMPDEST POP POP SWAP1 POP DUP1 PUSH2 0x282F JUMPI PUSH1 0x40 MLOAD PUSH32 0x8C379A000000000000000000000000000000000000000000000000000000000 DUP2 MSTORE PUSH1 0x4 ADD PUSH2 0x2826 SWAP1 PUSH2 0x474E JUMP JUMPDEST PUSH1 0x40 MLOAD DUP1 SWAP2 SUB SWAP1 REVERT JUMPDEST PUSH1 0x0 PUSH1 0x1 PUSH1 0x0 PUSH2 0x283D PUSH2 0x3817 JUMP JUMPDEST PUSH20 0xFFFFFFFFFFFFFFFFFFFFFFFFFFFFFFFFFFFFFFFF AND PUSH20 0xFFFFFFFFFFFFFFFFFFFFFFFFFFFFFFFFFFFFFFFF AND DUP2 MSTORE PUSH1 0x20 ADD SWAP1 DUP2 MSTORE PUSH1 0x20 ADD PUSH1 0x0 KECCAK256 PUSH1 0x0 ADD PUSH1 0x0 PUSH2 0x100 EXP DUP2 SLOAD DUP2 PUSH1 0xFF MUL NOT AND SWAP1 DUP4 PUSH1 0x4 DUP2 GT ISZERO PUSH2 0x289C JUMPI PUSH2 0x289B PUSH2 0x4254 JUMP JUMPDEST JUMPDEST MUL OR SWAP1 SSTORE POP POP JUMP JUMPDEST PUSH1 0x0 DUP1 PUSH1 0x0 SWAP1 SLOAD SWAP1 PUSH2 0x100 EXP SWAP1 DIV PUSH20 0xFFFFFFFFFFFFFFFFFFFFFFFFFFFFFFFFFFFFFFFF AND SWAP1 POP SWAP1 JUMP JUMPDEST PUSH1 0x2 PUSH1 0x20 MSTORE DUP1 PUSH1 0x0 MSTORE PUSH1 0x40 PUSH1 0x0 KECCAK256 PUSH1 0x0 SWAP2 POP SWAP1 POP DUP1 PUSH1 0x0 ADD SLOAD SWAP1 DUP1 PUSH1 0x1 ADD PUSH1 0x0 SWAP1 SLOAD SWAP1 PUSH2 0x100 EXP SWAP1 DIV PUSH1 0xFF AND SWAP1 DUP1 PUSH1 0x1 ADD PUSH1 0x1 SWAP1 SLOAD SWAP1 PUSH2 0x100 EXP SWAP1 DIV PUSH20 0xFFFFFFFFFFFFFFFFFFFFFFFFFFFFFFFFFFFFFFFF AND SWAP1 DUP1 PUSH1 0x2 ADD SLOAD SWAP1 DUP1 PUSH1 0x3 ADD PUSH1 0x0 SWAP1 SLOAD SWAP1 PUSH2 0x100 EXP SWAP1 DIV PUSH20 0xFFFFFFFFFFFFFFFFFFFFFFFFFFFFFFFFFFFFFFFF AND SWAP1 DUP1 PUSH1 0x4 ADD SLOAD SWAP1 DUP1 PUSH1 0x5 ADD PUSH1 0x0 SWAP1 SLOAD SWAP1 PUSH2 0x100 EXP SWAP1 DIV PUSH20 0xFFFFFFFFFFFFFFFFFFFFFFFFFFFFFFFFFFFFFFFF AND SWAP1 POP DUP8 JUMP JUMPDEST DUP2 ISZERO PUSH2 0x2C24 JUMPI PUSH1 0x0 PUSH1 0x3 PUSH1 0x0 DUP4 DUP2 MSTORE PUSH1 0x20 ADD SWAP1 DUP2 MSTORE PUSH1 0x20 ADD PUSH1 0x0 KECCAK256 PUSH1 0x40 MLOAD DUP1 PUSH2 0x120 ADD PUSH1 0x40 MSTORE SWAP1 DUP2 PUSH1 0x0 DUP3 ADD PUSH1 0x0 SWAP1 SLOAD SWAP1 PUSH2 0x100 EXP SWAP1 DIV PUSH1 0xFF AND PUSH1 0x5 DUP2 GT ISZERO PUSH2 0x29C8 JUMPI PUSH2 0x29C7 PUSH2 0x4254 JUMP JUMPDEST JUMPDEST PUSH1 0x5 DUP2 GT ISZERO PUSH2 0x29DA JUMPI PUSH2 0x29D9 PUSH2 0x4254 JUMP JUMPDEST JUMPDEST DUP2 MSTORE PUSH1 0x20 ADD PUSH1 0x1 DUP3 ADD SLOAD DUP2 MSTORE PUSH1 0x20 ADD PUSH1 0x2 DUP3 ADD PUSH1 0x0 SWAP1 SLOAD SWAP1 PUSH2 0x100 EXP SWAP1 DIV PUSH20 0xFFFFFFFFFFFFFFFFFFFFFFFFFFFFFFFFFFFFFFFF AND PUSH20 0xFFFFFFFFFFFFFFFFFFFFFFFFFFFFFFFFFFFFFFFF AND PUSH20 0xFFFFFFFFFFFFFFFFFFFFFFFFFFFFFFFFFFFFFFFF AND DUP2 MSTORE PUSH1 0x20 ADD PUSH1 0x3 DUP3 ADD PUSH1 0x0 SWAP1 SLOAD SWAP1 PUSH2 0x100 EXP SWAP1 DIV PUSH20 0xFFFFFFFFFFFFFFFFFFFFFFFFFFFFFFFFFFFFFFFF AND PUSH20 0xFFFFFFFFFFFFFFFFFFFFFFFFFFFFFFFFFFFFFFFF AND PUSH20 0xFFFFFFFFFFFFFFFFFFFFFFFFFFFFFFFFFFFFFFFF AND DUP2 MSTORE PUSH1 0x20 ADD PUSH1 0x4 DUP3 ADD SLOAD DUP2 MSTORE PUSH1 0x20 ADD PUSH1 0x5 DUP3 ADD PUSH1 0x0 SWAP1 SLOAD SWAP1 PUSH2 0x100 EXP SWAP1 DIV PUSH20 0xFFFFFFFFFFFFFFFFFFFFFFFFFFFFFFFFFFFFFFFF AND PUSH20 0xFFFFFFFFFFFFFFFFFFFFFFFFFFFFFFFFFFFFFFFF AND PUSH20 0xFFFFFFFFFFFFFFFFFFFFFFFFFFFFFFFFFFFFFFFF AND DUP2 MSTORE PUSH1 0x20 ADD PUSH1 0x6 DUP3 ADD PUSH1 0x0 SWAP1 SLOAD SWAP1 PUSH2 0x100 EXP SWAP1 DIV PUSH20 0xFFFFFFFFFFFFFFFFFFFFFFFFFFFFFFFFFFFFFFFF AND PUSH20 0xFFFFFFFFFFFFFFFFFFFFFFFFFFFFFFFFFFFFFFFF AND PUSH20 0xFFFFFFFFFFFFFFFFFFFFFFFFFFFFFFFFFFFFFFFF AND DUP2 MSTORE PUSH1 0x20 ADD PUSH1 0x7 DUP3 ADD SLOAD DUP2 MSTORE PUSH1 0x20 ADD PUSH1 0x8 DUP3 ADD PUSH1 0x0 SWAP1 SLOAD SWAP1 PUSH2 0x100 EXP SWAP1 DIV PUSH20 0xFFFFFFFFFFFFFFFFFFFFFFFFFFFFFFFFFFFFFFFF AND PUSH20 0xFFFFFFFFFFFFFFFFFFFFFFFFFFFFFFFFFFFFFFFF AND PUSH20 0xFFFFFFFFFFFFFFFFFFFFFFFFFFFFFFFFFFFFFFFF AND DUP2 MSTORE POP POP SWAP1 POP PUSH1 0x0 DUP3 DUP3 PUSH1 0x0 ADD MLOAD DUP4 PUSH1 0x60 ADD MLOAD DUP5 PUSH1 0x80 ADD MLOAD DUP6 PUSH1 0xC0 ADD MLOAD DUP7 PUSH2 0x100 ADD MLOAD PUSH1 0x40 MLOAD PUSH1 0x20 ADD PUSH2 0x2BDE SWAP7 SWAP6 SWAP5 SWAP4 SWAP3 SWAP2 SWAP1 PUSH2 0x537D JUMP JUMPDEST PUSH1 0x40 MLOAD PUSH1 0x20 DUP2 DUP4 SUB SUB DUP2 MSTORE SWAP1 PUSH1 0x40 MSTORE SWAP1 POP DUP1 PUSH1 0x1 PUSH1 0x40 MLOAD PUSH1 0x20 ADD PUSH2 0x2C03 SWAP3 SWAP2 SWAP1 PUSH2 0x5433 JUMP JUMPDEST PUSH1 0x40 MLOAD PUSH1 0x20 DUP2 DUP4 SUB SUB DUP2 MSTORE SWAP1 PUSH1 0x40 MSTORE SWAP1 POP PUSH2 0x2C1D DUP2 PUSH2 0x3CEC JUMP JUMPDEST POP POP PUSH2 0x2EB8 JUMP JUMPDEST TIMESTAMP PUSH2 0x3840 PUSH1 0x2 PUSH1 0x0 DUP5 DUP2 MSTORE PUSH1 0x20 ADD SWAP1 DUP2 MSTORE PUSH1 0x20 ADD PUSH1 0x0 KECCAK256 PUSH1 0x4 ADD SLOAD PUSH2 0x2C49 SWAP2 SWAP1 PUSH2 0x48C1 JUMP JUMPDEST LT PUSH2 0x2C89 JUMPI PUSH1 0x40 MLOAD PUSH32 0x8C379A000000000000000000000000000000000000000000000000000000000 DUP2 MSTORE PUSH1 0x4 ADD PUSH2 0x2C80 SWAP1 PUSH2 0x54D5 JUMP JUMPDEST PUSH1 0x40 MLOAD DUP1 SWAP2 SUB SWAP1 REVERT JUMPDEST PUSH1 0x0 PUSH1 0x2 PUSH1 0x0 DUP4 DUP2 MSTORE PUSH1 0x20 ADD SWAP1 DUP2 MSTORE PUSH1 0x20 ADD PUSH1 0x0 KECCAK256 PUSH1 0x40 MLOAD DUP1 PUSH1 0xE0 ADD PUSH1 0x40 MSTORE SWAP1 DUP2 PUSH1 0x0 DUP3 ADD SLOAD DUP2 MSTORE PUSH1 0x20 ADD PUSH1 0x1 DUP3 ADD PUSH1 0x0 SWAP1 SLOAD SWAP1 PUSH2 0x100 EXP SWAP1 DIV PUSH1 0xFF AND PUSH1 0x4 DUP2 GT ISZERO PUSH2 0x2CD8 JUMPI PUSH2 0x2CD7 PUSH2 0x4254 JUMP JUMPDEST JUMPDEST PUSH1 0x4 DUP2 GT ISZERO PUSH2 0x2CEA JUMPI PUSH2 0x2CE9 PUSH2 0x4254 JUMP JUMPDEST JUMPDEST DUP2 MSTORE PUSH1 0x20 ADD PUSH1 0x1 DUP3 ADD PUSH1 0x1 SWAP1 SLOAD SWAP1 PUSH2 0x100 EXP SWAP1 DIV PUSH20 0xFFFFFFFFFFFFFFFFFFFFFFFFFFFFFFFFFFFFFFFF AND PUSH20 0xFFFFFFFFFFFFFFFFFFFFFFFFFFFFFFFFFFFFFFFF AND PUSH20 0xFFFFFFFFFFFFFFFFFFFFFFFFFFFFFFFFFFFFFFFF AND DUP2 MSTORE PUSH1 0x20 ADD PUSH1 0x2 DUP3 ADD SLOAD DUP2 MSTORE PUSH1 0x20 ADD PUSH1 0x3 DUP3 ADD PUSH1 0x0 SWAP1 SLOAD SWAP1 PUSH2 0x100 EXP SWAP1 DIV PUSH20 0xFFFFFFFFFFFFFFFFFFFFFFFFFFFFFFFFFFFFFFFF AND PUSH20 0xFFFFFFFFFFFFFFFFFFFFFFFFFFFFFFFFFFFFFFFF AND PUSH20 0xFFFFFFFFFFFFFFFFFFFFFFFFFFFFFFFFFFFFFFFF AND DUP2 MSTORE PUSH1 0x20 ADD PUSH1 0x4 DUP3 ADD SLOAD DUP2 MSTORE PUSH1 0x20 ADD PUSH1 0x5 DUP3 ADD PUSH1 0x0 SWAP1 SLOAD SWAP1 PUSH2 0x100 EXP SWAP1 DIV PUSH20 0xFFFFFFFFFFFFFFFFFFFFFFFFFFFFFFFFFFFFFFFF AND PUSH20 0xFFFFFFFFFFFFFFFFFFFFFFFFFFFFFFFFFFFFFFFF AND PUSH20 0xFFFFFFFFFFFFFFFFFFFFFFFFFFFFFFFFFFFFFFFF AND DUP2 MSTORE POP POP SWAP1 POP PUSH1 0x0 DUP3 DUP3 PUSH1 0x20 ADD MLOAD DUP4 PUSH1 0x40 ADD MLOAD DUP5 PUSH1 0x60 ADD MLOAD PUSH1 0x3 PUSH1 0x0 DUP8 PUSH1 0x0 ADD MLOAD DUP2 MSTORE PUSH1 0x20 ADD SWAP1 DUP2 MSTORE PUSH1 0x20 ADD PUSH1 0x0 KECCAK256 PUSH1 0x6 ADD PUSH1 0x0 SWAP1 SLOAD SWAP1 PUSH2 0x100 EXP SWAP1 DIV PUSH20 0xFFFFFFFFFFFFFFFFFFFFFFFFFFFFFFFFFFFFFFFF AND DUP7 PUSH1 0xC0 ADD MLOAD PUSH2 0x2E60 PUSH2 0x3817 JUMP JUMPDEST PUSH1 0x40 MLOAD PUSH1 0x20 ADD PUSH2 0x2E76 SWAP8 SWAP7 SWAP6 SWAP5 SWAP4 SWAP3 SWAP2 SWAP1 PUSH2 0x54F5 JUMP JUMPDEST PUSH1 0x40 MLOAD PUSH1 0x20 DUP2 DUP4 SUB SUB DUP2 MSTORE SWAP1 PUSH1 0x40 MSTORE SWAP1 POP DUP1 PUSH1 0x0 PUSH1 0x40 MLOAD PUSH1 0x20 ADD PUSH2 0x2E9B SWAP3 SWAP2 SWAP1 PUSH2 0x5433 JUMP JUMPDEST PUSH1 0x40 MLOAD PUSH1 0x20 DUP2 DUP4 SUB SUB DUP2 MSTORE SWAP1 PUSH1 0x40 MSTORE SWAP1 POP PUSH2 0x2EB5 DUP2 PUSH2 0x3CEC JUMP JUMPDEST POP POP JUMPDEST POP POP JUMP JUMPDEST PUSH1 0x5 PUSH1 0x20 MSTORE DUP1 PUSH1 0x0 MSTORE PUSH1 0x40 PUSH1 0x0 KECCAK256 PUSH1 0x0 SWAP2 POP SWAP1 POP DUP1 PUSH1 0x0 ADD PUSH1 0x0 SWAP1 SLOAD SWAP1 PUSH2 0x100 EXP SWAP1 DIV PUSH20 0xFFFFFFFFFFFFFFFFFFFFFFFFFFFFFFFFFFFFFFFF AND SWAP1 DUP1 PUSH1 0x1 ADD SLOAD SWAP1 DUP1 PUSH1 0x2 ADD PUSH1 0x0 SWAP1 SLOAD SWAP1 PUSH2 0x100 EXP SWAP1 DIV PUSH1 0xFF AND SWAP1 POP DUP4 JUMP JUMPDEST PUSH32 0x0 DUP2 JUMP JUMPDEST PUSH1 0x1 PUSH1 0x0 PUSH2 0x2F43 PUSH2 0x3817 JUMP JUMPDEST PUSH20 0xFFFFFFFFFFFFFFFFFFFFFFFFFFFFFFFFFFFFFFFF AND PUSH20 0xFFFFFFFFFFFFFFFFFFFFFFFFFFFFFFFFFFFFFFFF AND DUP2 MSTORE PUSH1 0x20 ADD SWAP1 DUP2 MSTORE PUSH1 0x20 ADD PUSH1 0x0 KECCAK256 PUSH1 0x0 ADD PUSH1 0x0 SWAP1 SLOAD SWAP1 PUSH2 0x100 EXP SWAP1 DIV PUSH1 0xFF AND PUSH1 0x4 DUP2 GT ISZERO PUSH2 0x2FA0 JUMPI PUSH2 0x2F9F PUSH2 0x4254 JUMP JUMPDEST JUMPDEST PUSH1 0x0 PUSH1 0x4 DUP2 GT ISZERO PUSH2 0x2FB4 JUMPI PUSH2 0x2FB3 PUSH2 0x4254 JUMP JUMPDEST JUMPDEST EQ PUSH2 0x2FF4 JUMPI PUSH1 0x40 MLOAD PUSH32 0x8C379A000000000000000000000000000000000000000000000000000000000 DUP2 MSTORE PUSH1 0x4 ADD PUSH2 0x2FEB SWAP1 PUSH2 0x55D6 JUMP JUMPDEST PUSH1 0x40 MLOAD DUP1 SWAP2 SUB SWAP1 REVERT JUMPDEST PUSH32 0x0 CALLVALUE EQ PUSH2 0x3056 JUMPI PUSH1 0x40 MLOAD PUSH32 0x8C379A000000000000000000000000000000000000000000000000000000000 DUP2 MSTORE PUSH1 0x4 ADD PUSH2 0x304D SWAP1 PUSH2 0x5668 JUMP JUMPDEST PUSH1 0x40 MLOAD DUP1 SWAP2 SUB SWAP1 REVERT JUMPDEST PUSH1 0x1 DUP1 PUSH1 0x0 PUSH2 0x3063 PUSH2 0x3817 JUMP JUMPDEST PUSH20 0xFFFFFFFFFFFFFFFFFFFFFFFFFFFFFFFFFFFFFFFF AND PUSH20 0xFFFFFFFFFFFFFFFFFFFFFFFFFFFFFFFFFFFFFFFF AND DUP2 MSTORE PUSH1 0x20 ADD SWAP1 DUP2 MSTORE PUSH1 0x20 ADD PUSH1 0x0 KECCAK256 PUSH1 0x0 ADD PUSH1 0x0 PUSH2 0x100 EXP DUP2 SLOAD DUP2 PUSH1 0xFF MUL NOT AND SWAP1 DUP4 PUSH1 0x4 DUP2 GT ISZERO PUSH2 0x30C2 JUMPI PUSH2 0x30C1 PUSH2 0x4254 JUMP JUMPDEST JUMPDEST MUL OR SWAP1 SSTORE POP CALLVALUE PUSH1 0x1 PUSH1 0x0 PUSH2 0x30D4 PUSH2 0x3817 JUMP JUMPDEST PUSH20 0xFFFFFFFFFFFFFFFFFFFFFFFFFFFFFFFFFFFFFFFF AND PUSH20 0xFFFFFFFFFFFFFFFFFFFFFFFFFFFFFFFFFFFFFFFF AND DUP2 MSTORE PUSH1 0x20 ADD SWAP1 DUP2 MSTORE PUSH1 0x20 ADD PUSH1 0x0 KECCAK256 PUSH1 0x2 ADD DUP2 SWAP1 SSTORE POP JUMP JUMPDEST PUSH1 0x7 DUP1 PUSH1 0x0 ADD SLOAD SWAP1 POP DUP2 JUMP JUMPDEST PUSH1 0x1 PUSH1 0x0 PUSH2 0x312F PUSH2 0x3817 JUMP JUMPDEST PUSH20 0xFFFFFFFFFFFFFFFFFFFFFFFFFFFFFFFFFFFFFFFF AND PUSH20 0xFFFFFFFFFFFFFFFFFFFFFFFFFFFFFFFFFFFFFFFF AND DUP2 MSTORE PUSH1 0x20 ADD SWAP1 DUP2 MSTORE PUSH1 0x20 ADD PUSH1 0x0 KECCAK256 PUSH1 0x0 ADD PUSH1 0x0 SWAP1 SLOAD SWAP1 PUSH2 0x100 EXP SWAP1 DIV PUSH1 0xFF AND PUSH1 0x4 DUP2 GT ISZERO PUSH2 0x318C JUMPI PUSH2 0x318B PUSH2 0x4254 JUMP JUMPDEST JUMPDEST PUSH1 0x1 PUSH1 0x4 DUP2 GT ISZERO PUSH2 0x31A0 JUMPI PUSH2 0x319F PUSH2 0x4254 JUMP JUMPDEST JUMPDEST EQ PUSH2 0x31E0 JUMPI PUSH1 0x40 MLOAD PUSH32 0x8C379A000000000000000000000000000000000000000000000000000000000 DUP2 MSTORE PUSH1 0x4 ADD PUSH2 0x31D7 SWAP1 PUSH2 0x460A JUMP JUMPDEST PUSH1 0x40 MLOAD DUP1 SWAP2 SUB SWAP1 REVERT JUMPDEST PUSH1 0x2 PUSH1 0x1 PUSH1 0x0 PUSH2 0x31EE PUSH2 0x3817 JUMP JUMPDEST PUSH20 0xFFFFFFFFFFFFFFFFFFFFFFFFFFFFFFFFFFFFFFFF AND PUSH20 0xFFFFFFFFFFFFFFFFFFFFFFFFFFFFFFFFFFFFFFFF AND DUP2 MSTORE PUSH1 0x20 ADD SWAP1 DUP2 MSTORE PUSH1 0x20 ADD PUSH1 0x0 KECCAK256 PUSH1 0x0 ADD PUSH1 0x0 PUSH2 0x100 EXP DUP2 SLOAD DUP2 PUSH1 0xFF MUL NOT AND SWAP1 DUP4 PUSH1 0x4 DUP2 GT ISZERO PUSH2 0x324D JUMPI PUSH2 0x324C PUSH2 0x4254 JUMP JUMPDEST JUMPDEST MUL OR SWAP1 SSTORE POP TIMESTAMP PUSH1 0x1 PUSH1 0x0 PUSH2 0x325F PUSH2 0x3817 JUMP JUMPDEST PUSH20 0xFFFFFFFFFFFFFFFFFFFFFFFFFFFFFFFFFFFFFFFF AND PUSH20 0xFFFFFFFFFFFFFFFFFFFFFFFFFFFFFFFFFFFFFFFF AND DUP2 MSTORE PUSH1 0x20 ADD SWAP1 DUP2 MSTORE PUSH1 0x20 ADD PUSH1 0x0 KECCAK256 PUSH1 0x1 ADD DUP2 SWAP1 SSTORE POP JUMP JUMPDEST PUSH2 0x32AA PUSH2 0x3852 JUMP JUMPDEST PUSH1 0x0 PUSH20 0xFFFFFFFFFFFFFFFFFFFFFFFFFFFFFFFFFFFFFFFF AND DUP2 PUSH20 0xFFFFFFFFFFFFFFFFFFFFFFFFFFFFFFFFFFFFFFFF AND SUB PUSH2 0x3319 JUMPI PUSH1 0x40 MLOAD PUSH32 0x8C379A000000000000000000000000000000000000000000000000000000000 DUP2 MSTORE PUSH1 0x4 ADD PUSH2 0x3310 SWAP1 PUSH2 0x56FA JUMP JUMPDEST PUSH1 0x40 MLOAD DUP1 SWAP2 SUB SWAP1 REVERT JUMPDEST PUSH2 0x3322 DUP2 PUSH2 0x38D0 JUMP JUMPDEST POP JUMP JUMPDEST PUSH1 0x3 PUSH1 0x20 MSTORE DUP1 PUSH1 0x0 MSTORE PUSH1 0x40 PUSH1 0x0 KECCAK256 PUSH1 0x0 SWAP2 POP SWAP1 POP DUP1 PUSH1 0x0 ADD PUSH1 0x0 SWAP1 SLOAD SWAP1 PUSH2 0x100 EXP SWAP1 DIV PUSH1 0xFF AND SWAP1 DUP1 PUSH1 0x1 ADD SLOAD SWAP1 DUP1 PUSH1 0x2 ADD PUSH1 0x0 SWAP1 SLOAD SWAP1 PUSH2 0x100 EXP SWAP1 DIV PUSH20 0xFFFFFFFFFFFFFFFFFFFFFFFFFFFFFFFFFFFFFFFF AND SWAP1 DUP1 PUSH1 0x3 ADD PUSH1 0x0 SWAP1 SLOAD SWAP1 PUSH2 0x100 EXP SWAP1 DIV PUSH20 0xFFFFFFFFFFFFFFFFFFFFFFFFFFFFFFFFFFFFFFFF AND SWAP1 DUP1 PUSH1 0x4 ADD SLOAD SWAP1 DUP1 PUSH1 0x5 ADD PUSH1 0x0 SWAP1 SLOAD SWAP1 PUSH2 0x100 EXP SWAP1 DIV PUSH20 0xFFFFFFFFFFFFFFFFFFFFFFFFFFFFFFFFFFFFFFFF AND SWAP1 DUP1 PUSH1 0x6 ADD PUSH1 0x0 SWAP1 SLOAD SWAP1 PUSH2 0x100 EXP SWAP1 DIV PUSH20 0xFFFFFFFFFFFFFFFFFFFFFFFFFFFFFFFFFFFFFFFF AND SWAP1 DUP1 PUSH1 0x7 ADD SLOAD SWAP1 DUP1 PUSH1 0x8 ADD PUSH1 0x0 SWAP1 SLOAD SWAP1 PUSH2 0x100 EXP SWAP1 DIV PUSH20 0xFFFFFFFFFFFFFFFFFFFFFFFFFFFFFFFFFFFFFFFF AND SWAP1 POP DUP10 JUMP JUMPDEST PUSH32 0x0 DUP2 JUMP JUMPDEST PUSH32 0x0 DUP2 JUMP JUMPDEST PUSH1 0x0 PUSH1 0x2 PUSH1 0x0 DUP4 DUP2 MSTORE PUSH1 0x20 ADD SWAP1 DUP2 MSTORE PUSH1 0x20 ADD PUSH1 0x0 KECCAK256 PUSH1 0x40 MLOAD DUP1 PUSH1 0xE0 ADD PUSH1 0x40 MSTORE SWAP1 DUP2 PUSH1 0x0 DUP3 ADD SLOAD DUP2 MSTORE PUSH1 0x20 ADD PUSH1 0x1 DUP3 ADD PUSH1 0x0 SWAP1 SLOAD SWAP1 PUSH2 0x100 EXP SWAP1 DIV PUSH1 0xFF AND PUSH1 0x4 DUP2 GT ISZERO PUSH2 0x34B7 JUMPI PUSH2 0x34B6 PUSH2 0x4254 JUMP JUMPDEST JUMPDEST PUSH1 0x4 DUP2 GT ISZERO PUSH2 0x34C9 JUMPI PUSH2 0x34C8 PUSH2 0x4254 JUMP JUMPDEST JUMPDEST DUP2 MSTORE PUSH1 0x20 ADD PUSH1 0x1 DUP3 ADD PUSH1 0x1 SWAP1 SLOAD SWAP1 PUSH2 0x100 EXP SWAP1 DIV PUSH20 0xFFFFFFFFFFFFFFFFFFFFFFFFFFFFFFFFFFFFFFFF AND PUSH20 0xFFFFFFFFFFFFFFFFFFFFFFFFFFFFFFFFFFFFFFFF AND PUSH20 0xFFFFFFFFFFFFFFFFFFFFFFFFFFFFFFFFFFFFFFFF AND DUP2 MSTORE PUSH1 0x20 ADD PUSH1 0x2 DUP3 ADD SLOAD DUP2 MSTORE PUSH1 0x20 ADD PUSH1 0x3 DUP3 ADD PUSH1 0x0 SWAP1 SLOAD SWAP1 PUSH2 0x100 EXP SWAP1 DIV PUSH20 0xFFFFFFFFFFFFFFFFFFFFFFFFFFFFFFFFFFFFFFFF AND PUSH20 0xFFFFFFFFFFFFFFFFFFFFFFFFFFFFFFFFFFFFFFFF AND PUSH20 0xFFFFFFFFFFFFFFFFFFFFFFFFFFFFFFFFFFFFFFFF AND DUP2 MSTORE PUSH1 0x20 ADD PUSH1 0x4 DUP3 ADD SLOAD DUP2 MSTORE PUSH1 0x20 ADD PUSH1 0x5 DUP3 ADD PUSH1 0x0 SWAP1 SLOAD SWAP1 PUSH2 0x100 EXP SWAP1 DIV PUSH20 0xFFFFFFFFFFFFFFFFFFFFFFFFFFFFFFFFFFFFFFFF AND PUSH20 0xFFFFFFFFFFFFFFFFFFFFFFFFFFFFFFFFFFFFFFFF AND PUSH20 0xFFFFFFFFFFFFFFFFFFFFFFFFFFFFFFFFFFFFFFFF AND DUP2 MSTORE POP POP SWAP1 POP PUSH1 0x1 PUSH1 0x4 DUP2 GT ISZERO PUSH2 0x35F9 JUMPI PUSH2 0x35F8 PUSH2 0x4254 JUMP JUMPDEST JUMPDEST DUP2 PUSH1 0x20 ADD MLOAD PUSH1 0x4 DUP2 GT ISZERO PUSH2 0x3610 JUMPI PUSH2 0x360F PUSH2 0x4254 JUMP JUMPDEST JUMPDEST EQ PUSH2 0x3650 JUMPI PUSH1 0x40 MLOAD PUSH32 0x8C379A000000000000000000000000000000000000000000000000000000000 DUP2 MSTORE PUSH1 0x4 ADD PUSH2 0x3647 SWAP1 PUSH2 0x578C JUMP JUMPDEST PUSH1 0x40 MLOAD DUP1 SWAP2 SUB SWAP1 REVERT JUMPDEST TIMESTAMP PUSH2 0x3840 DUP3 PUSH1 0xA0 ADD MLOAD PUSH2 0x3663 SWAP2 SWAP1 PUSH2 0x48C1 JUMP JUMPDEST LT PUSH2 0x36A3 JUMPI PUSH1 0x40 MLOAD PUSH32 0x8C379A000000000000000000000000000000000000000000000000000000000 DUP2 MSTORE PUSH1 0x4 ADD PUSH2 0x369A SWAP1 PUSH2 0x4967 JUMP JUMPDEST PUSH1 0x40 MLOAD DUP1 SWAP2 SUB SWAP1 REVERT JUMPDEST PUSH2 0x36AB PUSH2 0x3817 JUMP JUMPDEST PUSH20 0xFFFFFFFFFFFFFFFFFFFFFFFFFFFFFFFFFFFFFFFF AND DUP2 PUSH1 0x40 ADD MLOAD PUSH20 0xFFFFFFFFFFFFFFFFFFFFFFFFFFFFFFFFFFFFFFFF AND EQ PUSH2 0x371C JUMPI PUSH1 0x40 MLOAD PUSH32 0x8C379A000000000000000000000000000000000000000000000000000000000 DUP2 MSTORE PUSH1 0x4 ADD PUSH2 0x3713 SWAP1 PUSH2 0x581E JUMP JUMPDEST PUSH1 0x40 MLOAD DUP1 SWAP2 SUB SWAP1 REVERT JUMPDEST PUSH1 0x4 DUP2 PUSH1 0x20 ADD SWAP1 PUSH1 0x4 DUP2 GT ISZERO PUSH2 0x3735 JUMPI PUSH2 0x3734 PUSH2 0x4254 JUMP JUMPDEST JUMPDEST SWAP1 DUP2 PUSH1 0x4 DUP2 GT ISZERO PUSH2 0x3749 JUMPI PUSH2 0x3748 PUSH2 0x4254 JUMP JUMPDEST JUMPDEST DUP2 MSTORE POP POP PUSH1 0x3 PUSH1 0x0 PUSH1 0x2 PUSH1 0x0 DUP6 DUP2 MSTORE PUSH1 0x20 ADD SWAP1 DUP2 MSTORE PUSH1 0x20 ADD PUSH1 0x0 KECCAK256 PUSH1 0x0 ADD SLOAD DUP2 MSTORE PUSH1 0x20 ADD SWAP1 DUP2 MSTORE PUSH1 0x20 ADD PUSH1 0x0 KECCAK256 PUSH1 0x5 ADD PUSH1 0x0 SWAP1 SLOAD SWAP1 PUSH2 0x100 EXP SWAP1 DIV PUSH20 0xFFFFFFFFFFFFFFFFFFFFFFFFFFFFFFFFFFFFFFFF AND PUSH20 0xFFFFFFFFFFFFFFFFFFFFFFFFFFFFFFFFFFFFFFFF AND PUSH4 0x42842E0E ADDRESS PUSH2 0x37BE PUSH2 0x3817 JUMP JUMPDEST DUP5 PUSH1 0x60 ADD MLOAD PUSH1 0x40 MLOAD DUP5 PUSH4 0xFFFFFFFF AND PUSH1 0xE0 SHL DUP2 MSTORE PUSH1 0x4 ADD PUSH2 0x37E1 SWAP4 SWAP3 SWAP2 SWAP1 PUSH2 0x506C JUMP JUMPDEST PUSH1 0x0 PUSH1 0x40 MLOAD DUP1 DUP4 SUB DUP2 PUSH1 0x0 DUP8 DUP1 EXTCODESIZE ISZERO DUP1 ISZERO PUSH2 0x37FB JUMPI PUSH1 0x0 DUP1 REVERT JUMPDEST POP GAS CALL ISZERO DUP1 ISZERO PUSH2 0x380F JUMPI RETURNDATASIZE PUSH1 0x0 DUP1 RETURNDATACOPY RETURNDATASIZE PUSH1 0x0 REVERT JUMPDEST POP POP POP POP POP POP JUMP JUMPDEST PUSH1 0x0 CALLER SWAP1 POP SWAP1 JUMP JUMPDEST PUSH1 0x0 PUSH2 0x3829 PUSH2 0x3817 JUMP JUMPDEST SWAP1 POP SWAP1 JUMP JUMPDEST PUSH1 0x0 DUP2 PUSH1 0x0 ADD SLOAD SWAP1 POP SWAP2 SWAP1 POP JUMP JUMPDEST PUSH1 0x1 DUP2 PUSH1 0x0 ADD PUSH1 0x0 DUP3 DUP3 SLOAD ADD SWAP3 POP POP DUP2 SWAP1 SSTORE POP POP JUMP JUMPDEST PUSH2 0x385A PUSH2 0x3817 JUMP JUMPDEST PUSH20 0xFFFFFFFFFFFFFFFFFFFFFFFFFFFFFFFFFFFFFFFF AND PUSH2 0x3878 PUSH2 0x28A4 JUMP JUMPDEST PUSH20 0xFFFFFFFFFFFFFFFFFFFFFFFFFFFFFFFFFFFFFFFF AND EQ PUSH2 0x38CE JUMPI PUSH1 0x40 MLOAD PUSH32 0x8C379A000000000000000000000000000000000000000000000000000000000 DUP2 MSTORE PUSH1 0x4 ADD PUSH2 0x38C5 SWAP1 PUSH2 0x588A JUMP JUMPDEST PUSH1 0x40 MLOAD DUP1 SWAP2 SUB SWAP1 REVERT JUMPDEST JUMP JUMPDEST PUSH1 0x0 DUP1 PUSH1 0x0 SWAP1 SLOAD SWAP1 PUSH2 0x100 EXP SWAP1 DIV PUSH20 0xFFFFFFFFFFFFFFFFFFFFFFFFFFFFFFFFFFFFFFFF AND SWAP1 POP DUP2 PUSH1 0x0 DUP1 PUSH2 0x100 EXP DUP2 SLOAD DUP2 PUSH20 0xFFFFFFFFFFFFFFFFFFFFFFFFFFFFFFFFFFFFFFFF MUL NOT AND SWAP1 DUP4 PUSH20 0xFFFFFFFFFFFFFFFFFFFFFFFFFFFFFFFFFFFFFFFF AND MUL OR SWAP1 SSTORE POP DUP2 PUSH20 0xFFFFFFFFFFFFFFFFFFFFFFFFFFFFFFFFFFFFFFFF AND DUP2 PUSH20 0xFFFFFFFFFFFFFFFFFFFFFFFFFFFFFFFFFFFFFFFF AND PUSH32 0x8BE0079C531659141344CD1FD0A4F28419497F9722A3DAAFE3B4186F6B6457E0 PUSH1 0x40 MLOAD PUSH1 0x40 MLOAD DUP1 SWAP2 SUB SWAP1 LOG3 POP POP JUMP JUMPDEST PUSH32 0x0 CALLVALUE EQ PUSH2 0x39F6 JUMPI PUSH1 0x40 MLOAD PUSH32 0x8C379A000000000000000000000000000000000000000000000000000000000 DUP2 MSTORE PUSH1 0x4 ADD PUSH2 0x39ED SWAP1 PUSH2 0x591C JUMP JUMPDEST PUSH1 0x40 MLOAD DUP1 SWAP2 SUB SWAP1 REVERT JUMPDEST PUSH1 0x1 PUSH1 0x4 DUP2 GT ISZERO PUSH2 0x3A0A JUMPI PUSH2 0x3A09 PUSH2 0x4254 JUMP JUMPDEST JUMPDEST PUSH1 0x2 PUSH1 0x0 DUP4 DUP2 MSTORE PUSH1 0x20 ADD SWAP1 DUP2 MSTORE PUSH1 0x20 ADD PUSH1 0x0 KECCAK256 PUSH1 0x1 ADD PUSH1 0x0 SWAP1 SLOAD SWAP1 PUSH2 0x100 EXP SWAP1 DIV PUSH1 0xFF AND PUSH1 0x4 DUP2 GT ISZERO PUSH2 0x3A40 JUMPI PUSH2 0x3A3F PUSH2 0x4254 JUMP JUMPDEST JUMPDEST EQ PUSH2 0x3A80 JUMPI PUSH1 0x40 MLOAD PUSH32 0x8C379A000000000000000000000000000000000000000000000000000000000 DUP2 MSTORE PUSH1 0x4 ADD PUSH2 0x3A77 SWAP1 PUSH2 0x59AE JUMP JUMPDEST PUSH1 0x40 MLOAD DUP1 SWAP2 SUB SWAP1 REVERT JUMPDEST TIMESTAMP PUSH2 0x3840 PUSH1 0x2 PUSH1 0x0 DUP5 DUP2 MSTORE PUSH1 0x20 ADD SWAP1 DUP2 MSTORE PUSH1 0x20 ADD PUSH1 0x0 KECCAK256 PUSH1 0x4 ADD SLOAD PUSH2 0x3AA5 SWAP2 SWAP1 PUSH2 0x48C1 JUMP JUMPDEST GT PUSH2 0x3AE5 JUMPI PUSH1 0x40 MLOAD PUSH32 0x8C379A000000000000000000000000000000000000000000000000000000000 DUP2 MSTORE PUSH1 0x4 ADD PUSH2 0x3ADC SWAP1 PUSH2 0x5A40 JUMP JUMPDEST PUSH1 0x40 MLOAD DUP1 SWAP2 SUB SWAP1 REVERT JUMPDEST PUSH1 0x0 PUSH1 0x2 DUP2 GT ISZERO PUSH2 0x3AF9 JUMPI PUSH2 0x3AF8 PUSH2 0x4254 JUMP JUMPDEST JUMPDEST PUSH1 0x4 PUSH1 0x0 DUP4 DUP2 MSTORE PUSH1 0x20 ADD SWAP1 DUP2 MSTORE PUSH1 0x20 ADD PUSH1 0x0 KECCAK256 PUSH1 0x0 ADD PUSH1 0x14 SWAP1 SLOAD SWAP1 PUSH2 0x100 EXP SWAP1 DIV PUSH1 0xFF AND PUSH1 0x2 DUP2 GT ISZERO PUSH2 0x3B2F JUMPI PUSH2 0x3B2E PUSH2 0x4254 JUMP JUMPDEST JUMPDEST EQ PUSH2 0x3B6F JUMPI PUSH1 0x40 MLOAD PUSH32 0x8C379A000000000000000000000000000000000000000000000000000000000 DUP2 MSTORE PUSH1 0x4 ADD PUSH2 0x3B66 SWAP1 PUSH2 0x5AD2 JUMP JUMPDEST PUSH1 0x40 MLOAD DUP1 SWAP2 SUB SWAP1 REVERT JUMPDEST PUSH1 0x2 DUP1 PUSH1 0x0 DUP4 DUP2 MSTORE PUSH1 0x20 ADD SWAP1 DUP2 MSTORE PUSH1 0x20 ADD PUSH1 0x0 KECCAK256 PUSH1 0x1 ADD PUSH1 0x0 PUSH2 0x100 EXP DUP2 SLOAD DUP2 PUSH1 0xFF MUL NOT AND SWAP1 DUP4 PUSH1 0x4 DUP2 GT ISZERO PUSH2 0x3BA8 JUMPI PUSH2 0x3BA7 PUSH2 0x4254 JUMP JUMPDEST JUMPDEST MUL OR SWAP1 SSTORE POP PUSH2 0x3BB5 PUSH2 0x3817 JUMP JUMPDEST PUSH1 0x4 PUSH1 0x0 DUP4 DUP2 MSTORE PUSH1 0x20 ADD SWAP1 DUP2 MSTORE PUSH1 0x20 ADD PUSH1 0x0 KECCAK256 PUSH1 0x0 ADD PUSH1 0x0 PUSH2 0x100 EXP DUP2 SLOAD DUP2 PUSH20 0xFFFFFFFFFFFFFFFFFFFFFFFFFFFFFFFFFFFFFFFF MUL NOT AND SWAP1 DUP4 PUSH20 0xFFFFFFFFFFFFFFFFFFFFFFFFFFFFFFFFFFFFFFFF AND MUL OR SWAP1 SSTORE POP PUSH1 0x1 PUSH1 0x4 PUSH1 0x0 DUP4 DUP2 MSTORE PUSH1 0x20 ADD SWAP1 DUP2 MSTORE PUSH1 0x20 ADD PUSH1 0x0 KECCAK256 PUSH1 0x0 ADD PUSH1 0x14 PUSH2 0x100 EXP DUP2 SLOAD DUP2 PUSH1 0xFF MUL NOT AND SWAP1 DUP4 PUSH1 0x2 DUP2 GT ISZERO PUSH2 0x3C43 JUMPI PUSH2 0x3C42 PUSH2 0x4254 JUMP JUMPDEST JUMPDEST MUL OR SWAP1 SSTORE POP PUSH1 0x3 PUSH1 0x1 PUSH1 0x0 PUSH1 0x2 PUSH1 0x0 DUP6 DUP2 MSTORE PUSH1 0x20 ADD SWAP1 DUP2 MSTORE PUSH1 0x20 ADD PUSH1 0x0 KECCAK256 PUSH1 0x5 ADD PUSH1 0x0 SWAP1 SLOAD SWAP1 PUSH2 0x100 EXP SWAP1 DIV PUSH20 0xFFFFFFFFFFFFFFFFFFFFFFFFFFFFFFFFFFFFFFFF AND PUSH20 0xFFFFFFFFFFFFFFFFFFFFFFFFFFFFFFFFFFFFFFFF AND PUSH20 0xFFFFFFFFFFFFFFFFFFFFFFFFFFFFFFFFFFFFFFFF AND DUP2 MSTORE PUSH1 0x20 ADD SWAP1 DUP2 MSTORE PUSH1 0x20 ADD PUSH1 0x0 KECCAK256 PUSH1 0x0 ADD PUSH1 0x0 PUSH2 0x100 EXP DUP2 SLOAD DUP2 PUSH1 0xFF MUL NOT AND SWAP1 DUP4 PUSH1 0x4 DUP2 GT ISZERO PUSH2 0x3CE4 JUMPI PUSH2 0x3CE3 PUSH2 0x4254 JUMP JUMPDEST JUMPDEST MUL OR SWAP1 SSTORE POP POP JUMP JUMPDEST PUSH32 0x0 PUSH20 0xFFFFFFFFFFFFFFFFFFFFFFFFFFFFFFFFFFFFFFFF AND PUSH4 0x4FF746F6 DUP3 PUSH1 0x40 MLOAD DUP3 PUSH4 0xFFFFFFFF AND PUSH1 0xE0 SHL DUP2 MSTORE PUSH1 0x4 ADD PUSH2 0x3D45 SWAP2 SWAP1 PUSH2 0x5AF2 JUMP JUMPDEST PUSH1 0x0 PUSH1 0x40 MLOAD DUP1 DUP4 SUB DUP2 PUSH1 0x0 DUP8 DUP1 EXTCODESIZE ISZERO DUP1 ISZERO PUSH2 0x3D5F JUMPI PUSH1 0x0 DUP1 REVERT JUMPDEST POP GAS CALL ISZERO DUP1 ISZERO PUSH2 0x3D73 JUMPI RETURNDATASIZE PUSH1 0x0 DUP1 RETURNDATACOPY RETURNDATASIZE PUSH1 0x0 REVERT JUMPDEST POP POP POP POP POP JUMP JUMPDEST PUSH1 0x0 PUSH1 0x40 MLOAD SWAP1 POP SWAP1 JUMP JUMPDEST PUSH1 0x0 DUP1 REVERT JUMPDEST PUSH1 0x0 DUP1 REVERT JUMPDEST PUSH1 0x0 DUP2 SWAP1 POP SWAP2 SWAP1 POP JUMP JUMPDEST PUSH2 0x3DA1 DUP2 PUSH2 0x3D8E JUMP JUMPDEST DUP2 EQ PUSH2 0x3DAC JUMPI PUSH1 0x0 DUP1 REVERT JUMPDEST POP JUMP JUMPDEST PUSH1 0x0 DUP2 CALLDATALOAD SWAP1 POP PUSH2 0x3DBE DUP2 PUSH2 0x3D98 JUMP JUMPDEST SWAP3 SWAP2 POP POP JUMP JUMPDEST PUSH1 0x0 PUSH1 0x20 DUP3 DUP5 SUB SLT ISZERO PUSH2 0x3DDA JUMPI PUSH2 0x3DD9 PUSH2 0x3D84 JUMP JUMPDEST JUMPDEST PUSH1 0x0 PUSH2 0x3DE8 DUP5 DUP3 DUP6 ADD PUSH2 0x3DAF JUMP JUMPDEST SWAP2 POP POP SWAP3 SWAP2 POP POP JUMP JUMPDEST PUSH1 0x0 PUSH20 0xFFFFFFFFFFFFFFFFFFFFFFFFFFFFFFFFFFFFFFFF DUP3 AND SWAP1 POP SWAP2 SWAP1 POP JUMP JUMPDEST PUSH1 0x0 PUSH2 0x3E1C DUP3 PUSH2 0x3DF1 JUMP JUMPDEST SWAP1 POP SWAP2 SWAP1 POP JUMP JUMPDEST PUSH2 0x3E2C DUP2 PUSH2 0x3E11 JUMP JUMPDEST DUP2 EQ PUSH2 0x3E37 JUMPI PUSH1 0x0 DUP1 REVERT JUMPDEST POP JUMP JUMPDEST PUSH1 0x0 DUP2 CALLDATALOAD SWAP1 POP PUSH2 0x3E49 DUP2 PUSH2 0x3E23 JUMP JUMPDEST SWAP3 SWAP2 POP POP JUMP JUMPDEST PUSH1 0x0 DUP1 REVERT JUMPDEST PUSH1 0x0 DUP1 REVERT JUMPDEST PUSH1 0x0 PUSH1 0x1F NOT PUSH1 0x1F DUP4 ADD AND SWAP1 POP SWAP2 SWAP1 POP JUMP JUMPDEST PUSH32 0x4E487B7100000000000000000000000000000000000000000000000000000000 PUSH1 0x0 MSTORE PUSH1 0x41 PUSH1 0x4 MSTORE PUSH1 0x24 PUSH1 0x0 REVERT JUMPDEST PUSH2 0x3EA2 DUP3 PUSH2 0x3E59 JUMP JUMPDEST DUP2 ADD DUP2 DUP2 LT PUSH8 0xFFFFFFFFFFFFFFFF DUP3 GT OR ISZERO PUSH2 0x3EC1 JUMPI PUSH2 0x3EC0 PUSH2 0x3E6A JUMP JUMPDEST JUMPDEST DUP1 PUSH1 0x40 MSTORE POP POP POP JUMP JUMPDEST PUSH1 0x0 PUSH2 0x3ED4 PUSH2 0x3D7A JUMP JUMPDEST SWAP1 POP PUSH2 0x3EE0 DUP3 DUP3 PUSH2 0x3E99 JUMP JUMPDEST SWAP2 SWAP1 POP JUMP JUMPDEST PUSH1 0x0 PUSH8 0xFFFFFFFFFFFFFFFF DUP3 GT ISZERO PUSH2 0x3F00 JUMPI PUSH2 0x3EFF PUSH2 0x3E6A JUMP JUMPDEST JUMPDEST PUSH2 0x3F09 DUP3 PUSH2 0x3E59 JUMP JUMPDEST SWAP1 POP PUSH1 0x20 DUP2 ADD SWAP1 POP SWAP2 SWAP1 POP JUMP JUMPDEST DUP3 DUP2 DUP4 CALLDATACOPY PUSH1 0x0 DUP4 DUP4 ADD MSTORE POP POP POP JUMP JUMPDEST PUSH1 0x0 PUSH2 0x3F38 PUSH2 0x3F33 DUP5 PUSH2 0x3EE5 JUMP JUMPDEST PUSH2 0x3ECA JUMP JUMPDEST SWAP1 POP DUP3 DUP2 MSTORE PUSH1 0x20 DUP2 ADD DUP5 DUP5 DUP5 ADD GT ISZERO PUSH2 0x3F54 JUMPI PUSH2 0x3F53 PUSH2 0x3E54 JUMP JUMPDEST JUMPDEST PUSH2 0x3F5F DUP5 DUP3 DUP6 PUSH2 0x3F16 JUMP JUMPDEST POP SWAP4 SWAP3 POP POP POP JUMP JUMPDEST PUSH1 0x0 DUP3 PUSH1 0x1F DUP4 ADD SLT PUSH2 0x3F7C JUMPI PUSH2 0x3F7B PUSH2 0x3E4F JUMP JUMPDEST JUMPDEST DUP2 CALLDATALOAD PUSH2 0x3F8C DUP5 DUP3 PUSH1 0x20 DUP7 ADD PUSH2 0x3F25 JUMP JUMPDEST SWAP2 POP POP SWAP3 SWAP2 POP POP JUMP JUMPDEST PUSH1 0x0 DUP1 PUSH1 0x0 DUP1 PUSH1 0x80 DUP6 DUP8 SUB SLT ISZERO PUSH2 0x3FAF JUMPI PUSH2 0x3FAE PUSH2 0x3D84 JUMP JUMPDEST JUMPDEST PUSH1 0x0 PUSH2 0x3FBD DUP8 DUP3 DUP9 ADD PUSH2 0x3E3A JUMP JUMPDEST SWAP5 POP POP PUSH1 0x20 PUSH2 0x3FCE DUP8 DUP3 DUP9 ADD PUSH2 0x3E3A JUMP JUMPDEST SWAP4 POP POP PUSH1 0x40 PUSH2 0x3FDF DUP8 DUP3 DUP9 ADD PUSH2 0x3DAF JUMP JUMPDEST SWAP3 POP POP PUSH1 0x60 DUP6 ADD CALLDATALOAD PUSH8 0xFFFFFFFFFFFFFFFF DUP2 GT ISZERO PUSH2 0x4000 JUMPI PUSH2 0x3FFF PUSH2 0x3D89 JUMP JUMPDEST JUMPDEST PUSH2 0x400C DUP8 DUP3 DUP9 ADD PUSH2 0x3F67 JUMP JUMPDEST SWAP2 POP POP SWAP3 SWAP6 SWAP2 SWAP5 POP SWAP3 POP JUMP JUMPDEST PUSH1 0x0 PUSH32 0xFFFFFFFF00000000000000000000000000000000000000000000000000000000 DUP3 AND SWAP1 POP SWAP2 SWAP1 POP JUMP JUMPDEST PUSH2 0x404D DUP2 PUSH2 0x4018 JUMP JUMPDEST DUP3 MSTORE POP POP JUMP JUMPDEST PUSH1 0x0 PUSH1 0x20 DUP3 ADD SWAP1 POP PUSH2 0x4068 PUSH1 0x0 DUP4 ADD DUP5 PUSH2 0x4044 JUMP JUMPDEST SWAP3 SWAP2 POP POP JUMP JUMPDEST PUSH1 0x0 DUP1 PUSH1 0x0 PUSH1 0x60 DUP5 DUP7 SUB SLT ISZERO PUSH2 0x4087 JUMPI PUSH2 0x4086 PUSH2 0x3D84 JUMP JUMPDEST JUMPDEST PUSH1 0x0 PUSH2 0x4095 DUP7 DUP3 DUP8 ADD PUSH2 0x3DAF JUMP JUMPDEST SWAP4 POP POP PUSH1 0x20 PUSH2 0x40A6 DUP7 DUP3 DUP8 ADD PUSH2 0x3DAF JUMP JUMPDEST SWAP3 POP POP PUSH1 0x40 PUSH2 0x40B7 DUP7 DUP3 DUP8 ADD PUSH2 0x3E3A JUMP JUMPDEST SWAP2 POP POP SWAP3 POP SWAP3 POP SWAP3 JUMP JUMPDEST PUSH2 0x40CA DUP2 PUSH2 0x3E11 JUMP JUMPDEST DUP3 MSTORE POP POP JUMP JUMPDEST PUSH1 0x0 PUSH1 0x20 DUP3 ADD SWAP1 POP PUSH2 0x40E5 PUSH1 0x0 DUP4 ADD DUP5 PUSH2 0x40C1 JUMP JUMPDEST SWAP3 SWAP2 POP POP JUMP JUMPDEST PUSH1 0x0 PUSH1 0x20 DUP3 DUP5 SUB SLT ISZERO PUSH2 0x4101 JUMPI PUSH2 0x4100 PUSH2 0x3D84 JUMP JUMPDEST JUMPDEST PUSH1 0x0 DUP3 ADD CALLDATALOAD PUSH8 0xFFFFFFFFFFFFFFFF DUP2 GT ISZERO PUSH2 0x411F JUMPI PUSH2 0x411E PUSH2 0x3D89 JUMP JUMPDEST JUMPDEST PUSH2 0x412B DUP5 DUP3 DUP6 ADD PUSH2 0x3F67 JUMP JUMPDEST SWAP2 POP POP SWAP3 SWAP2 POP POP JUMP JUMPDEST PUSH1 0x0 DUP1 PUSH1 0x0 PUSH1 0x60 DUP5 DUP7 SUB SLT ISZERO PUSH2 0x414D JUMPI PUSH2 0x414C PUSH2 0x3D84 JUMP JUMPDEST JUMPDEST PUSH1 0x0 PUSH2 0x415B DUP7 DUP3 DUP8 ADD PUSH2 0x3E3A JUMP JUMPDEST SWAP4 POP POP PUSH1 0x20 PUSH2 0x416C DUP7 DUP3 DUP8 ADD PUSH2 0x3DAF JUMP JUMPDEST SWAP3 POP POP PUSH1 0x40 PUSH2 0x417D DUP7 DUP3 DUP8 ADD PUSH2 0x3E3A JUMP JUMPDEST SWAP2 POP POP SWAP3 POP SWAP3 POP SWAP3 JUMP JUMPDEST PUSH1 0x0 DUP2 ISZERO ISZERO SWAP1 POP SWAP2 SWAP1 POP JUMP JUMPDEST PUSH2 0x419C DUP2 PUSH2 0x4187 JUMP JUMPDEST DUP2 EQ PUSH2 0x41A7 JUMPI PUSH1 0x0 DUP1 REVERT JUMPDEST POP JUMP JUMPDEST PUSH1 0x0 DUP2 CALLDATALOAD SWAP1 POP PUSH2 0x41B9 DUP2 PUSH2 0x4193 JUMP JUMPDEST SWAP3 SWAP2 POP POP JUMP JUMPDEST PUSH1 0x0 DUP1 PUSH1 0x40 DUP4 DUP6 SUB SLT ISZERO PUSH2 0x41D6 JUMPI PUSH2 0x41D5 PUSH2 0x3D84 JUMP JUMPDEST JUMPDEST PUSH1 0x0 PUSH2 0x41E4 DUP6 DUP3 DUP7 ADD PUSH2 0x3DAF JUMP JUMPDEST SWAP3 POP POP PUSH1 0x20 PUSH2 0x41F5 DUP6 DUP3 DUP7 ADD PUSH2 0x41AA JUMP JUMPDEST SWAP2 POP POP SWAP3 POP SWAP3 SWAP1 POP JUMP JUMPDEST PUSH2 0x4208 DUP2 PUSH2 0x3D8E JUMP JUMPDEST DUP3 MSTORE POP POP JUMP JUMPDEST PUSH2 0x4217 DUP2 PUSH2 0x4187 JUMP JUMPDEST DUP3 MSTORE POP POP JUMP JUMPDEST PUSH1 0x0 PUSH1 0x60 DUP3 ADD SWAP1 POP PUSH2 0x4232 PUSH1 0x0 DUP4 ADD DUP7 PUSH2 0x40C1 JUMP JUMPDEST PUSH2 0x423F PUSH1 0x20 DUP4 ADD DUP6 PUSH2 0x41FF JUMP JUMPDEST PUSH2 0x424C PUSH1 0x40 DUP4 ADD DUP5 PUSH2 0x420E JUMP JUMPDEST SWAP5 SWAP4 POP POP POP POP JUMP JUMPDEST PUSH32 0x4E487B7100000000000000000000000000000000000000000000000000000000 PUSH1 0x0 MSTORE PUSH1 0x21 PUSH1 0x4 MSTORE PUSH1 0x24 PUSH1 0x0 REVERT JUMPDEST PUSH1 0x3 DUP2 LT PUSH2 0x4294 JUMPI PUSH2 0x4293 PUSH2 0x4254 JUMP JUMPDEST JUMPDEST POP JUMP JUMPDEST PUSH1 0x0 DUP2 SWAP1 POP PUSH2 0x42A5 DUP3 PUSH2 0x4283 JUMP JUMPDEST SWAP2 SWAP1 POP JUMP JUMPDEST PUSH1 0x0 PUSH2 0x42B5 DUP3 PUSH2 0x4297 JUMP JUMPDEST SWAP1 POP SWAP2 SWAP1 POP JUMP JUMPDEST PUSH2 0x42C5 DUP2 PUSH2 0x42AA JUMP JUMPDEST DUP3 MSTORE POP POP JUMP JUMPDEST PUSH1 0x0 PUSH1 0x40 DUP3 ADD SWAP1 POP PUSH2 0x42E0 PUSH1 0x0 DUP4 ADD DUP6 PUSH2 0x40C1 JUMP JUMPDEST PUSH2 0x42ED PUSH1 0x20 DUP4 ADD DUP5 PUSH2 0x42BC JUMP JUMPDEST SWAP4 SWAP3 POP POP POP JUMP JUMPDEST PUSH1 0x0 PUSH1 0x20 DUP3 ADD SWAP1 POP PUSH2 0x4309 PUSH1 0x0 DUP4 ADD DUP5 PUSH2 0x41FF JUMP JUMPDEST SWAP3 SWAP2 POP POP JUMP JUMPDEST PUSH1 0x0 PUSH1 0x20 DUP3 DUP5 SUB SLT ISZERO PUSH2 0x4325 JUMPI PUSH2 0x4324 PUSH2 0x3D84 JUMP JUMPDEST JUMPDEST PUSH1 0x0 PUSH2 0x4333 DUP5 DUP3 DUP6 ADD PUSH2 0x3E3A JUMP JUMPDEST SWAP2 POP POP SWAP3 SWAP2 POP POP JUMP JUMPDEST PUSH1 0x5 DUP2 LT PUSH2 0x434D JUMPI PUSH2 0x434C PUSH2 0x4254 JUMP JUMPDEST JUMPDEST POP JUMP JUMPDEST PUSH1 0x0 DUP2 SWAP1 POP PUSH2 0x435E DUP3 PUSH2 0x433C JUMP JUMPDEST SWAP2 SWAP1 POP JUMP JUMPDEST PUSH1 0x0 PUSH2 0x436E DUP3 PUSH2 0x4350 JUMP JUMPDEST SWAP1 POP SWAP2 SWAP1 POP JUMP JUMPDEST PUSH2 0x437E DUP2 PUSH2 0x4363 JUMP JUMPDEST DUP3 MSTORE POP POP JUMP JUMPDEST PUSH1 0x0 PUSH1 0x60 DUP3 ADD SWAP1 POP PUSH2 0x4399 PUSH1 0x0 DUP4 ADD DUP7 PUSH2 0x4375 JUMP JUMPDEST PUSH2 0x43A6 PUSH1 0x20 DUP4 ADD DUP6 PUSH2 0x41FF JUMP JUMPDEST PUSH2 0x43B3 PUSH1 0x40 DUP4 ADD DUP5 PUSH2 0x41FF JUMP JUMPDEST SWAP5 SWAP4 POP POP POP POP JUMP JUMPDEST PUSH1 0x5 DUP2 LT PUSH2 0x43CC JUMPI PUSH2 0x43CB PUSH2 0x4254 JUMP JUMPDEST JUMPDEST POP JUMP JUMPDEST PUSH1 0x0 DUP2 SWAP1 POP PUSH2 0x43DD DUP3 PUSH2 0x43BB JUMP JUMPDEST SWAP2 SWAP1 POP JUMP JUMPDEST PUSH1 0x0 PUSH2 0x43ED DUP3 PUSH2 0x43CF JUMP JUMPDEST SWAP1 POP SWAP2 SWAP1 POP JUMP JUMPDEST PUSH2 0x43FD DUP2 PUSH2 0x43E2 JUMP JUMPDEST DUP3 MSTORE POP POP JUMP JUMPDEST PUSH1 0x0 PUSH1 0xE0 DUP3 ADD SWAP1 POP PUSH2 0x4418 PUSH1 0x0 DUP4 ADD DUP11 PUSH2 0x41FF JUMP JUMPDEST PUSH2 0x4425 PUSH1 0x20 DUP4 ADD DUP10 PUSH2 0x43F4 JUMP JUMPDEST PUSH2 0x4432 PUSH1 0x40 DUP4 ADD DUP9 PUSH2 0x40C1 JUMP JUMPDEST PUSH2 0x443F PUSH1 0x60 DUP4 ADD DUP8 PUSH2 0x41FF JUMP JUMPDEST PUSH2 0x444C PUSH1 0x80 DUP4 ADD DUP7 PUSH2 0x40C1 JUMP JUMPDEST PUSH2 0x4459 PUSH1 0xA0 DUP4 ADD DUP6 PUSH2 0x41FF JUMP JUMPDEST PUSH2 0x4466 PUSH1 0xC0 DUP4 ADD DUP5 PUSH2 0x40C1 JUMP JUMPDEST SWAP9 SWAP8 POP POP POP POP POP POP POP POP JUMP JUMPDEST PUSH1 0x0 DUP1 PUSH1 0x40 DUP4 DUP6 SUB SLT ISZERO PUSH2 0x4489 JUMPI PUSH2 0x4488 PUSH2 0x3D84 JUMP JUMPDEST JUMPDEST PUSH1 0x0 PUSH2 0x4497 DUP6 DUP3 DUP7 ADD PUSH2 0x41AA JUMP JUMPDEST SWAP3 POP POP PUSH1 0x20 PUSH2 0x44A8 DUP6 DUP3 DUP7 ADD PUSH2 0x3DAF JUMP JUMPDEST SWAP2 POP POP SWAP3 POP SWAP3 SWAP1 POP JUMP JUMPDEST PUSH1 0x6 DUP2 LT PUSH2 0x44C3 JUMPI PUSH2 0x44C2 PUSH2 0x4254 JUMP JUMPDEST JUMPDEST POP JUMP JUMPDEST PUSH1 0x0 DUP2 SWAP1 POP PUSH2 0x44D4 DUP3 PUSH2 0x44B2 JUMP JUMPDEST SWAP2 SWAP1 POP JUMP JUMPDEST PUSH1 0x0 PUSH2 0x44E4 DUP3 PUSH2 0x44C6 JUMP JUMPDEST SWAP1 POP SWAP2 SWAP1 POP JUMP JUMPDEST PUSH2 0x44F4 DUP2 PUSH2 0x44D9 JUMP JUMPDEST DUP3 MSTORE POP POP JUMP JUMPDEST PUSH1 0x0 PUSH2 0x120 DUP3 ADD SWAP1 POP PUSH2 0x4510 PUSH1 0x0 DUP4 ADD DUP13 PUSH2 0x44EB JUMP JUMPDEST PUSH2 0x451D PUSH1 0x20 DUP4 ADD DUP12 PUSH2 0x41FF JUMP JUMPDEST PUSH2 0x452A PUSH1 0x40 DUP4 ADD DUP11 PUSH2 0x40C1 JUMP JUMPDEST PUSH2 0x4537 PUSH1 0x60 DUP4 ADD DUP10 PUSH2 0x40C1 JUMP JUMPDEST PUSH2 0x4544 PUSH1 0x80 DUP4 ADD DUP9 PUSH2 0x41FF JUMP JUMPDEST PUSH2 0x4551 PUSH1 0xA0 DUP4 ADD DUP8 PUSH2 0x40C1 JUMP JUMPDEST PUSH2 0x455E PUSH1 0xC0 DUP4 ADD DUP7 PUSH2 0x40C1 JUMP JUMPDEST PUSH2 0x456B PUSH1 0xE0 DUP4 ADD DUP6 PUSH2 0x41FF JUMP JUMPDEST PUSH2 0x4579 PUSH2 0x100 DUP4 ADD DUP5 PUSH2 0x40C1 JUMP JUMPDEST SWAP11 SWAP10 POP POP POP POP POP POP POP POP POP POP JUMP JUMPDEST PUSH1 0x0 DUP3 DUP3 MSTORE PUSH1 0x20 DUP3 ADD SWAP1 POP SWAP3 SWAP2 POP POP JUMP JUMPDEST PUSH32 0x53706F6B654272696467653A2063616C6C6572206973206E6F7420612072656C PUSH1 0x0 DUP3 ADD MSTORE PUSH32 0x6179657221000000000000000000000000000000000000000000000000000000 PUSH1 0x20 DUP3 ADD MSTORE POP JUMP JUMPDEST PUSH1 0x0 PUSH2 0x45F4 PUSH1 0x25 DUP4 PUSH2 0x4587 JUMP JUMPDEST SWAP2 POP PUSH2 0x45FF DUP3 PUSH2 0x4598 JUMP JUMPDEST PUSH1 0x40 DUP3 ADD SWAP1 POP SWAP2 SWAP1 POP JUMP JUMPDEST PUSH1 0x0 PUSH1 0x20 DUP3 ADD SWAP1 POP DUP2 DUP2 SUB PUSH1 0x0 DUP4 ADD MSTORE PUSH2 0x4623 DUP2 PUSH2 0x45E7 JUMP JUMPDEST SWAP1 POP SWAP2 SWAP1 POP JUMP JUMPDEST PUSH32 0x53706F6B654272696467653A2062696420646F6573206E6F7420686176652043 PUSH1 0x0 DUP3 ADD MSTORE PUSH32 0x7265617465642073746174650000000000000000000000000000000000000000 PUSH1 0x20 DUP3 ADD MSTORE POP JUMP JUMPDEST PUSH1 0x0 PUSH2 0x4686 PUSH1 0x2C DUP4 PUSH2 0x4587 JUMP JUMPDEST SWAP2 POP PUSH2 0x4691 DUP3 PUSH2 0x462A JUMP JUMPDEST PUSH1 0x40 DUP3 ADD SWAP1 POP SWAP2 SWAP1 POP JUMP JUMPDEST PUSH1 0x0 PUSH1 0x20 DUP3 ADD SWAP1 POP DUP2 DUP2 SUB PUSH1 0x0 DUP4 ADD MSTORE PUSH2 0x46B5 DUP2 PUSH2 0x4679 JUMP JUMPDEST SWAP1 POP SWAP2 SWAP1 POP JUMP JUMPDEST PUSH1 0x0 DUP2 SWAP1 POP SWAP3 SWAP2 POP POP JUMP JUMPDEST POP JUMP JUMPDEST PUSH1 0x0 PUSH2 0x46D7 PUSH1 0x0 DUP4 PUSH2 0x46BC JUMP JUMPDEST SWAP2 POP PUSH2 0x46E2 DUP3 PUSH2 0x46C7 JUMP JUMPDEST PUSH1 0x0 DUP3 ADD SWAP1 POP SWAP2 SWAP1 POP JUMP JUMPDEST PUSH1 0x0 PUSH2 0x46F8 DUP3 PUSH2 0x46CA JUMP JUMPDEST SWAP2 POP DUP2 SWAP1 POP SWAP2 SWAP1 POP JUMP JUMPDEST PUSH32 0x4661696C656420746F2073656E64204574686572000000000000000000000000 PUSH1 0x0 DUP3 ADD MSTORE POP JUMP JUMPDEST PUSH1 0x0 PUSH2 0x4738 PUSH1 0x14 DUP4 PUSH2 0x4587 JUMP JUMPDEST SWAP2 POP PUSH2 0x4743 DUP3 PUSH2 0x4702 JUMP JUMPDEST PUSH1 0x20 DUP3 ADD SWAP1 POP SWAP2 SWAP1 POP JUMP JUMPDEST PUSH1 0x0 PUSH1 0x20 DUP3 ADD SWAP1 POP DUP2 DUP2 SUB PUSH1 0x0 DUP4 ADD MSTORE PUSH2 0x4767 DUP2 PUSH2 0x472B JUMP JUMPDEST SWAP1 POP SWAP2 SWAP1 POP JUMP JUMPDEST PUSH32 0x53726353706F6B654272696467653A20746865206F7574676F696E6720626964 PUSH1 0x0 DUP3 ADD MSTORE PUSH32 0x206973206E6F7420626F75676874210000000000000000000000000000000000 PUSH1 0x20 DUP3 ADD MSTORE POP JUMP JUMPDEST PUSH1 0x0 PUSH2 0x47CA PUSH1 0x2F DUP4 PUSH2 0x4587 JUMP JUMPDEST SWAP2 POP PUSH2 0x47D5 DUP3 PUSH2 0x476E JUMP JUMPDEST PUSH1 0x40 DUP3 ADD SWAP1 POP SWAP2 SWAP1 POP JUMP JUMPDEST PUSH1 0x0 PUSH1 0x20 DUP3 ADD SWAP1 POP DUP2 DUP2 SUB PUSH1 0x0 DUP4 ADD MSTORE PUSH2 0x47F9 DUP2 PUSH2 0x47BD JUMP JUMPDEST SWAP1 POP SWAP2 SWAP1 POP JUMP JUMPDEST PUSH32 0x53726353706F6B654272696467653A20746865726520697320616E20696E636F PUSH1 0x0 DUP3 ADD MSTORE PUSH32 0x6D696E67206269642077697468207468652073616D6520696421000000000000 PUSH1 0x20 DUP3 ADD MSTORE POP JUMP JUMPDEST PUSH1 0x0 PUSH2 0x485C PUSH1 0x3A DUP4 PUSH2 0x4587 JUMP JUMPDEST SWAP2 POP PUSH2 0x4867 DUP3 PUSH2 0x4800 JUMP JUMPDEST PUSH1 0x40 DUP3 ADD SWAP1 POP SWAP2 SWAP1 POP JUMP JUMPDEST PUSH1 0x0 PUSH1 0x20 DUP3 ADD SWAP1 POP DUP2 DUP2 SUB PUSH1 0x0 DUP4 ADD MSTORE PUSH2 0x488B DUP2 PUSH2 0x484F JUMP JUMPDEST SWAP1 POP SWAP2 SWAP1 POP JUMP JUMPDEST PUSH32 0x4E487B7100000000000000000000000000000000000000000000000000000000 PUSH1 0x0 MSTORE PUSH1 0x11 PUSH1 0x4 MSTORE PUSH1 0x24 PUSH1 0x0 REVERT JUMPDEST PUSH1 0x0 PUSH2 0x48CC DUP3 PUSH2 0x3D8E JUMP JUMPDEST SWAP2 POP PUSH2 0x48D7 DUP4 PUSH2 0x3D8E JUMP JUMPDEST SWAP3 POP DUP3 DUP3 ADD SWAP1 POP DUP1 DUP3 GT ISZERO PUSH2 0x48EF JUMPI PUSH2 0x48EE PUSH2 0x4892 JUMP JUMPDEST JUMPDEST SWAP3 SWAP2 POP POP JUMP JUMPDEST PUSH32 0x53726353706F6B654272696467653A20746865206368616C6C656E67696E6720 PUSH1 0x0 DUP3 ADD MSTORE PUSH32 0x706572696F64206973206E6F7420657870697265642079657421000000000000 PUSH1 0x20 DUP3 ADD MSTORE POP JUMP JUMPDEST PUSH1 0x0 PUSH2 0x4951 PUSH1 0x3A DUP4 PUSH2 0x4587 JUMP JUMPDEST SWAP2 POP PUSH2 0x495C DUP3 PUSH2 0x48F5 JUMP JUMPDEST PUSH1 0x40 DUP3 ADD SWAP1 POP SWAP2 SWAP1 POP JUMP JUMPDEST PUSH1 0x0 PUSH1 0x20 DUP3 ADD SWAP1 POP DUP2 DUP2 SUB PUSH1 0x0 DUP4 ADD MSTORE PUSH2 0x4980 DUP2 PUSH2 0x4944 JUMP JUMPDEST SWAP1 POP SWAP2 SWAP1 POP JUMP JUMPDEST PUSH1 0x0 DUP2 MLOAD SWAP1 POP PUSH2 0x4996 DUP2 PUSH2 0x3E23 JUMP JUMPDEST SWAP3 SWAP2 POP POP JUMP JUMPDEST PUSH1 0x0 PUSH1 0x20 DUP3 DUP5 SUB SLT ISZERO PUSH2 0x49B2 JUMPI PUSH2 0x49B1 PUSH2 0x3D84 JUMP JUMPDEST JUMPDEST PUSH1 0x0 PUSH2 0x49C0 DUP5 DUP3 DUP6 ADD PUSH2 0x4987 JUMP JUMPDEST SWAP2 POP POP SWAP3 SWAP2 POP POP JUMP JUMPDEST PUSH32 0x53726353706F6B654272696467653A207468657265206973206E6F206C6F636B PUSH1 0x0 DUP3 ADD MSTORE PUSH32 0x656420746F6B656E210000000000000000000000000000000000000000000000 PUSH1 0x20 DUP3 ADD MSTORE POP JUMP JUMPDEST PUSH1 0x0 PUSH2 0x4A25 PUSH1 0x29 DUP4 PUSH2 0x4587 JUMP JUMPDEST SWAP2 POP PUSH2 0x4A30 DUP3 PUSH2 0x49C9 JUMP JUMPDEST PUSH1 0x40 DUP3 ADD SWAP1 POP SWAP2 SWAP1 POP JUMP JUMPDEST PUSH1 0x0 PUSH1 0x20 DUP3 ADD SWAP1 POP DUP2 DUP2 SUB PUSH1 0x0 DUP4 ADD MSTORE PUSH2 0x4A54 DUP2 PUSH2 0x4A18 JUMP JUMPDEST SWAP1 POP SWAP2 SWAP1 POP JUMP JUMPDEST PUSH32 0x53706F6B654272696467653A2063616C6C6572206973206E6F74207468652068 PUSH1 0x0 DUP3 ADD MSTORE PUSH32 0x7562210000000000000000000000000000000000000000000000000000000000 PUSH1 0x20 DUP3 ADD MSTORE POP JUMP JUMPDEST PUSH1 0x0 PUSH2 0x4AB7 PUSH1 0x23 DUP4 PUSH2 0x4587 JUMP JUMPDEST SWAP2 POP PUSH2 0x4AC2 DUP3 PUSH2 0x4A5B JUMP JUMPDEST PUSH1 0x40 DUP3 ADD SWAP1 POP SWAP2 SWAP1 POP JUMP JUMPDEST PUSH1 0x0 PUSH1 0x20 DUP3 ADD SWAP1 POP DUP2 DUP2 SUB PUSH1 0x0 DUP4 ADD MSTORE PUSH2 0x4AE6 DUP2 PUSH2 0x4AAA JUMP JUMPDEST SWAP1 POP SWAP2 SWAP1 POP JUMP JUMPDEST PUSH1 0x0 JUMPDEST DUP4 DUP2 LT ISZERO PUSH2 0x4B0B JUMPI DUP1 DUP3 ADD MLOAD DUP2 DUP5 ADD MSTORE PUSH1 0x20 DUP2 ADD SWAP1 POP PUSH2 0x4AF0 JUMP JUMPDEST PUSH1 0x0 DUP5 DUP5 ADD MSTORE POP POP POP POP JUMP JUMPDEST PUSH1 0x0 PUSH2 0x4B2A PUSH2 0x4B25 DUP5 PUSH2 0x3EE5 JUMP JUMPDEST PUSH2 0x3ECA JUMP JUMPDEST SWAP1 POP DUP3 DUP2 MSTORE PUSH1 0x20 DUP2 ADD DUP5 DUP5 DUP5 ADD GT ISZERO PUSH2 0x4B46 JUMPI PUSH2 0x4B45 PUSH2 0x3E54 JUMP JUMPDEST JUMPDEST PUSH2 0x4B51 DUP5 DUP3 DUP6 PUSH2 0x4AED JUMP JUMPDEST POP SWAP4 SWAP3 POP POP POP JUMP JUMPDEST PUSH1 0x0 DUP3 PUSH1 0x1F DUP4 ADD SLT PUSH2 0x4B6E JUMPI PUSH2 0x4B6D PUSH2 0x3E4F JUMP JUMPDEST JUMPDEST DUP2 MLOAD PUSH2 0x4B7E DUP5 DUP3 PUSH1 0x20 DUP7 ADD PUSH2 0x4B17 JUMP JUMPDEST SWAP2 POP POP SWAP3 SWAP2 POP POP JUMP JUMPDEST PUSH1 0x0 DUP2 MLOAD SWAP1 POP PUSH2 0x4B96 DUP2 PUSH2 0x4193 JUMP JUMPDEST SWAP3 SWAP2 POP POP JUMP JUMPDEST PUSH1 0x0 DUP1 PUSH1 0x40 DUP4 DUP6 SUB SLT ISZERO PUSH2 0x4BB3 JUMPI PUSH2 0x4BB2 PUSH2 0x3D84 JUMP JUMPDEST JUMPDEST PUSH1 0x0 DUP4 ADD MLOAD PUSH8 0xFFFFFFFFFFFFFFFF DUP2 GT ISZERO PUSH2 0x4BD1 JUMPI PUSH2 0x4BD0 PUSH2 0x3D89 JUMP JUMPDEST JUMPDEST PUSH2 0x4BDD DUP6 DUP3 DUP7 ADD PUSH2 0x4B59 JUMP JUMPDEST SWAP3 POP POP PUSH1 0x20 PUSH2 0x4BEE DUP6 DUP3 DUP7 ADD PUSH2 0x4B87 JUMP JUMPDEST SWAP2 POP POP SWAP3 POP SWAP3 SWAP1 POP JUMP JUMPDEST PUSH1 0x0 DUP2 MLOAD SWAP1 POP PUSH2 0x4C07 DUP2 PUSH2 0x3D98 JUMP JUMPDEST SWAP3 SWAP2 POP POP JUMP JUMPDEST PUSH1 0x6 DUP2 LT PUSH2 0x4C1A JUMPI PUSH1 0x0 DUP1 REVERT JUMPDEST POP JUMP JUMPDEST PUSH1 0x0 DUP2 MLOAD SWAP1 POP PUSH2 0x4C2C DUP2 PUSH2 0x4C0D JUMP JUMPDEST SWAP3 SWAP2 POP POP JUMP JUMPDEST PUSH1 0x0 PUSH2 0x4C3D DUP3 PUSH2 0x3DF1 JUMP JUMPDEST SWAP1 POP SWAP2 SWAP1 POP JUMP JUMPDEST PUSH2 0x4C4D DUP2 PUSH2 0x4C32 JUMP JUMPDEST DUP2 EQ PUSH2 0x4C58 JUMPI PUSH1 0x0 DUP1 REVERT JUMPDEST POP JUMP JUMPDEST PUSH1 0x0 DUP2 MLOAD SWAP1 POP PUSH2 0x4C6A DUP2 PUSH2 0x4C44 JUMP JUMPDEST SWAP3 SWAP2 POP POP JUMP JUMPDEST PUSH1 0x0 DUP1 PUSH1 0x0 DUP1 PUSH1 0x0 DUP1 PUSH1 0xC0 DUP8 DUP10 SUB SLT ISZERO PUSH2 0x4C8D JUMPI PUSH2 0x4C8C PUSH2 0x3D84 JUMP JUMPDEST JUMPDEST PUSH1 0x0 PUSH2 0x4C9B DUP10 DUP3 DUP11 ADD PUSH2 0x4BF8 JUMP JUMPDEST SWAP7 POP POP PUSH1 0x20 PUSH2 0x4CAC DUP10 DUP3 DUP11 ADD PUSH2 0x4C1D JUMP JUMPDEST SWAP6 POP POP PUSH1 0x40 PUSH2 0x4CBD DUP10 DUP3 DUP11 ADD PUSH2 0x4C5B JUMP JUMPDEST SWAP5 POP POP PUSH1 0x60 PUSH2 0x4CCE DUP10 DUP3 DUP11 ADD PUSH2 0x4BF8 JUMP JUMPDEST SWAP4 POP POP PUSH1 0x80 PUSH2 0x4CDF DUP10 DUP3 DUP11 ADD PUSH2 0x4C5B JUMP JUMPDEST SWAP3 POP POP PUSH1 0xA0 PUSH2 0x4CF0 DUP10 DUP3 DUP11 ADD PUSH2 0x4C5B JUMP JUMPDEST SWAP2 POP POP SWAP3 SWAP6 POP SWAP3 SWAP6 POP SWAP3 SWAP6 JUMP JUMPDEST PUSH32 0x53726353706F6B654272646967653A205468657265206973206E6F20636F7272 PUSH1 0x0 DUP3 ADD MSTORE PUSH32 0x6573706F6E64696E67206C6F63616C2062696421000000000000000000000000 PUSH1 0x20 DUP3 ADD MSTORE POP JUMP JUMPDEST PUSH1 0x0 PUSH2 0x4D59 PUSH1 0x34 DUP4 PUSH2 0x4587 JUMP JUMPDEST SWAP2 POP PUSH2 0x4D64 DUP3 PUSH2 0x4CFD JUMP JUMPDEST PUSH1 0x40 DUP3 ADD SWAP1 POP SWAP2 SWAP1 POP JUMP JUMPDEST PUSH1 0x0 PUSH1 0x20 DUP3 ADD SWAP1 POP DUP2 DUP2 SUB PUSH1 0x0 DUP4 ADD MSTORE PUSH2 0x4D88 DUP2 PUSH2 0x4D4C JUMP JUMPDEST SWAP1 POP SWAP2 SWAP1 POP JUMP JUMPDEST PUSH32 0x53726353706F6B654272696467653A2054696D652077696E646F772069732065 PUSH1 0x0 DUP3 ADD MSTORE PUSH32 0x7870697265642100000000000000000000000000000000000000000000000000 PUSH1 0x20 DUP3 ADD MSTORE POP JUMP JUMPDEST PUSH1 0x0 PUSH2 0x4DEB PUSH1 0x27 DUP4 PUSH2 0x4587 JUMP JUMPDEST SWAP2 POP PUSH2 0x4DF6 DUP3 PUSH2 0x4D8F JUMP JUMPDEST PUSH1 0x40 DUP3 ADD SWAP1 POP SWAP2 SWAP1 POP JUMP JUMPDEST PUSH1 0x0 PUSH1 0x20 DUP3 ADD SWAP1 POP DUP2 DUP2 SUB PUSH1 0x0 DUP4 ADD MSTORE PUSH2 0x4E1A DUP2 PUSH2 0x4DDE JUMP JUMPDEST SWAP1 POP SWAP2 SWAP1 POP JUMP JUMPDEST PUSH32 0x4E487B7100000000000000000000000000000000000000000000000000000000 PUSH1 0x0 MSTORE PUSH1 0x12 PUSH1 0x4 MSTORE PUSH1 0x24 PUSH1 0x0 REVERT JUMPDEST PUSH1 0x0 PUSH2 0x4E5B DUP3 PUSH2 0x3D8E JUMP JUMPDEST SWAP2 POP PUSH2 0x4E66 DUP4 PUSH2 0x3D8E JUMP JUMPDEST SWAP3 POP DUP3 PUSH2 0x4E76 JUMPI PUSH2 0x4E75 PUSH2 0x4E21 JUMP JUMPDEST JUMPDEST DUP3 DUP3 DIV SWAP1 POP SWAP3 SWAP2 POP POP JUMP JUMPDEST PUSH1 0x5 DUP2 LT PUSH2 0x4E8E JUMPI PUSH1 0x0 DUP1 REVERT JUMPDEST POP JUMP JUMPDEST PUSH1 0x0 DUP2 MLOAD SWAP1 POP PUSH2 0x4EA0 DUP2 PUSH2 0x4E81 JUMP JUMPDEST SWAP3 SWAP2 POP POP JUMP JUMPDEST PUSH1 0x0 DUP1 PUSH1 0x0 DUP1 PUSH1 0x0 DUP1 PUSH1 0x0 PUSH1 0xE0 DUP9 DUP11 SUB SLT ISZERO PUSH2 0x4EC5 JUMPI PUSH2 0x4EC4 PUSH2 0x3D84 JUMP JUMPDEST JUMPDEST PUSH1 0x0 PUSH2 0x4ED3 DUP11 DUP3 DUP12 ADD PUSH2 0x4BF8 JUMP JUMPDEST SWAP8 POP POP PUSH1 0x20 PUSH2 0x4EE4 DUP11 DUP3 DUP12 ADD PUSH2 0x4E91 JUMP JUMPDEST SWAP7 POP POP PUSH1 0x40 PUSH2 0x4EF5 DUP11 DUP3 DUP12 ADD PUSH2 0x4C5B JUMP JUMPDEST SWAP6 POP POP PUSH1 0x60 PUSH2 0x4F06 DUP11 DUP3 DUP12 ADD PUSH2 0x4BF8 JUMP JUMPDEST SWAP5 POP POP PUSH1 0x80 PUSH2 0x4F17 DUP11 DUP3 DUP12 ADD PUSH2 0x4C5B JUMP JUMPDEST SWAP4 POP POP PUSH1 0xA0 PUSH2 0x4F28 DUP11 DUP3 DUP12 ADD PUSH2 0x4C5B JUMP JUMPDEST SWAP3 POP POP PUSH1 0xC0 PUSH2 0x4F39 DUP11 DUP3 DUP12 ADD PUSH2 0x4C5B JUMP JUMPDEST SWAP2 POP POP SWAP3 SWAP6 SWAP9 SWAP2 SWAP5 SWAP8 POP SWAP3 SWAP6 POP JUMP JUMPDEST PUSH32 0x53726353706F6B654272696467653A2054696D652077696E646F77206973206E PUSH1 0x0 DUP3 ADD MSTORE PUSH32 0x6F74206578706972656421000000000000000000000000000000000000000000 PUSH1 0x20 DUP3 ADD MSTORE POP JUMP JUMPDEST PUSH1 0x0 PUSH2 0x4FA4 PUSH1 0x2B DUP4 PUSH2 0x4587 JUMP JUMPDEST SWAP2 POP PUSH2 0x4FAF DUP3 PUSH2 0x4F48 JUMP JUMPDEST PUSH1 0x40 DUP3 ADD SWAP1 POP SWAP2 SWAP1 POP JUMP JUMPDEST PUSH1 0x0 PUSH1 0x20 DUP3 ADD SWAP1 POP DUP2 DUP2 SUB PUSH1 0x0 DUP4 ADD MSTORE PUSH2 0x4FD3 DUP2 PUSH2 0x4F97 JUMP JUMPDEST SWAP1 POP SWAP2 SWAP1 POP JUMP JUMPDEST PUSH32 0x53726353706F6B654272696467653A2046616C7365206368616C6C656E67696E PUSH1 0x0 DUP3 ADD MSTORE PUSH32 0x6721000000000000000000000000000000000000000000000000000000000000 PUSH1 0x20 DUP3 ADD MSTORE POP JUMP JUMPDEST PUSH1 0x0 PUSH2 0x5036 PUSH1 0x22 DUP4 PUSH2 0x4587 JUMP JUMPDEST SWAP2 POP PUSH2 0x5041 DUP3 PUSH2 0x4FDA JUMP JUMPDEST PUSH1 0x40 DUP3 ADD SWAP1 POP SWAP2 SWAP1 POP JUMP JUMPDEST PUSH1 0x0 PUSH1 0x20 DUP3 ADD SWAP1 POP DUP2 DUP2 SUB PUSH1 0x0 DUP4 ADD MSTORE PUSH2 0x5065 DUP2 PUSH2 0x5029 JUMP JUMPDEST SWAP1 POP SWAP2 SWAP1 POP JUMP JUMPDEST PUSH1 0x0 PUSH1 0x60 DUP3 ADD SWAP1 POP PUSH2 0x5081 PUSH1 0x0 DUP4 ADD DUP7 PUSH2 0x40C1 JUMP JUMPDEST PUSH2 0x508E PUSH1 0x20 DUP4 ADD DUP6 PUSH2 0x40C1 JUMP JUMPDEST PUSH2 0x509B PUSH1 0x40 DUP4 ADD DUP5 PUSH2 0x41FF JUMP JUMPDEST SWAP5 SWAP4 POP POP POP POP JUMP JUMPDEST PUSH32 0x53726353706F6B654272696467653A207468657265206973206E6F2066656520 PUSH1 0x0 DUP3 ADD MSTORE PUSH32 0x666F722072656C61796572732100000000000000000000000000000000000000 PUSH1 0x20 DUP3 ADD MSTORE POP JUMP JUMPDEST PUSH1 0x0 PUSH2 0x50FF PUSH1 0x2D DUP4 PUSH2 0x4587 JUMP JUMPDEST SWAP2 POP PUSH2 0x510A DUP3 PUSH2 0x50A3 JUMP JUMPDEST PUSH1 0x40 DUP3 ADD SWAP1 POP SWAP2 SWAP1 POP JUMP JUMPDEST PUSH1 0x0 PUSH1 0x20 DUP3 ADD SWAP1 POP DUP2 DUP2 SUB PUSH1 0x0 DUP4 ADD MSTORE PUSH2 0x512E DUP2 PUSH2 0x50F2 JUMP JUMPDEST SWAP1 POP SWAP2 SWAP1 POP JUMP JUMPDEST PUSH32 0x53706F6B654272696467653A2072657761726420697320616C72656164792063 PUSH1 0x0 DUP3 ADD MSTORE PUSH32 0x6C61696D65642100000000000000000000000000000000000000000000000000 PUSH1 0x20 DUP3 ADD MSTORE POP JUMP JUMPDEST PUSH1 0x0 PUSH2 0x5191 PUSH1 0x27 DUP4 PUSH2 0x4587 JUMP JUMPDEST SWAP2 POP PUSH2 0x519C DUP3 PUSH2 0x5135 JUMP JUMPDEST PUSH1 0x40 DUP3 ADD SWAP1 POP SWAP2 SWAP1 POP JUMP JUMPDEST PUSH1 0x0 PUSH1 0x20 DUP3 ADD SWAP1 POP DUP2 DUP2 SUB PUSH1 0x0 DUP4 ADD MSTORE PUSH2 0x51C0 DUP2 PUSH2 0x5184 JUMP JUMPDEST SWAP1 POP SWAP2 SWAP1 POP JUMP JUMPDEST PUSH32 0x53706F6B654272696467653A206368616C6C656E676572206973206E6F742074 PUSH1 0x0 DUP3 ADD MSTORE PUSH32 0x68652073656E6465722100000000000000000000000000000000000000000000 PUSH1 0x20 DUP3 ADD MSTORE POP JUMP JUMPDEST PUSH1 0x0 PUSH2 0x5223 PUSH1 0x2A DUP4 PUSH2 0x4587 JUMP JUMPDEST SWAP2 POP PUSH2 0x522E DUP3 PUSH2 0x51C7 JUMP JUMPDEST PUSH1 0x40 DUP3 ADD SWAP1 POP SWAP2 SWAP1 POP JUMP JUMPDEST PUSH1 0x0 PUSH1 0x20 DUP3 ADD SWAP1 POP DUP2 DUP2 SUB PUSH1 0x0 DUP4 ADD MSTORE PUSH2 0x5252 DUP2 PUSH2 0x5216 JUMP JUMPDEST SWAP1 POP SWAP2 SWAP1 POP JUMP JUMPDEST PUSH32 0x53706F6B654272696467653A2063616C6C6572206973206E6F7420696E20756E PUSH1 0x0 DUP3 ADD MSTORE PUSH32 0x6465706F73697465642073746174652100000000000000000000000000000000 PUSH1 0x20 DUP3 ADD MSTORE POP JUMP JUMPDEST PUSH1 0x0 PUSH2 0x52B5 PUSH1 0x30 DUP4 PUSH2 0x4587 JUMP JUMPDEST SWAP2 POP PUSH2 0x52C0 DUP3 PUSH2 0x5259 JUMP JUMPDEST PUSH1 0x40 DUP3 ADD SWAP1 POP SWAP2 SWAP1 POP JUMP JUMPDEST PUSH1 0x0 PUSH1 0x20 DUP3 ADD SWAP1 POP DUP2 DUP2 SUB PUSH1 0x0 DUP4 ADD MSTORE PUSH2 0x52E4 DUP2 PUSH2 0x52A8 JUMP JUMPDEST SWAP1 POP SWAP2 SWAP1 POP JUMP JUMPDEST PUSH32 0x53706F6B654272696467653A20322064617973206973206E6F74206578706972 PUSH1 0x0 DUP3 ADD MSTORE PUSH32 0x65642066726F6D2074686520756E6465706F736974696E672100000000000000 PUSH1 0x20 DUP3 ADD MSTORE POP JUMP JUMPDEST PUSH1 0x0 PUSH2 0x5347 PUSH1 0x39 DUP4 PUSH2 0x4587 JUMP JUMPDEST SWAP2 POP PUSH2 0x5352 DUP3 PUSH2 0x52EB JUMP JUMPDEST PUSH1 0x40 DUP3 ADD SWAP1 POP SWAP2 SWAP1 POP JUMP JUMPDEST PUSH1 0x0 PUSH1 0x20 DUP3 ADD SWAP1 POP DUP2 DUP2 SUB PUSH1 0x0 DUP4 ADD MSTORE PUSH2 0x5376 DUP2 PUSH2 0x533A JUMP JUMPDEST SWAP1 POP SWAP2 SWAP1 POP JUMP JUMPDEST PUSH1 0x0 PUSH1 0xC0 DUP3 ADD SWAP1 POP PUSH2 0x5392 PUSH1 0x0 DUP4 ADD DUP10 PUSH2 0x41FF JUMP JUMPDEST PUSH2 0x539F PUSH1 0x20 DUP4 ADD DUP9 PUSH2 0x44EB JUMP JUMPDEST PUSH2 0x53AC PUSH1 0x40 DUP4 ADD DUP8 PUSH2 0x40C1 JUMP JUMPDEST PUSH2 0x53B9 PUSH1 0x60 DUP4 ADD DUP7 PUSH2 0x41FF JUMP JUMPDEST PUSH2 0x53C6 PUSH1 0x80 DUP4 ADD DUP6 PUSH2 0x40C1 JUMP JUMPDEST PUSH2 0x53D3 PUSH1 0xA0 DUP4 ADD DUP5 PUSH2 0x40C1 JUMP JUMPDEST SWAP8 SWAP7 POP POP POP POP POP POP POP JUMP JUMPDEST PUSH1 0x0 DUP2 MLOAD SWAP1 POP SWAP2 SWAP1 POP JUMP JUMPDEST PUSH1 0x0 DUP3 DUP3 MSTORE PUSH1 0x20 DUP3 ADD SWAP1 POP SWAP3 SWAP2 POP POP JUMP JUMPDEST PUSH1 0x0 PUSH2 0x5405 DUP3 PUSH2 0x53DE JUMP JUMPDEST PUSH2 0x540F DUP2 DUP6 PUSH2 0x53E9 JUMP JUMPDEST SWAP4 POP PUSH2 0x541F DUP2 DUP6 PUSH1 0x20 DUP7 ADD PUSH2 0x4AED JUMP JUMPDEST PUSH2 0x5428 DUP2 PUSH2 0x3E59 JUMP JUMPDEST DUP5 ADD SWAP2 POP POP SWAP3 SWAP2 POP POP JUMP JUMPDEST PUSH1 0x0 PUSH1 0x40 DUP3 ADD SWAP1 POP DUP2 DUP2 SUB PUSH1 0x0 DUP4 ADD MSTORE PUSH2 0x544D DUP2 DUP6 PUSH2 0x53FA JUMP JUMPDEST SWAP1 POP PUSH2 0x545C PUSH1 0x20 DUP4 ADD DUP5 PUSH2 0x420E JUMP JUMPDEST SWAP4 SWAP3 POP POP POP JUMP JUMPDEST PUSH32 0x53726353706F6B654272696467653A20746F6F206561726C7920746F2073656E PUSH1 0x0 DUP3 ADD MSTORE PUSH32 0x642070726F6F6621000000000000000000000000000000000000000000000000 PUSH1 0x20 DUP3 ADD MSTORE POP JUMP JUMPDEST PUSH1 0x0 PUSH2 0x54BF PUSH1 0x28 DUP4 PUSH2 0x4587 JUMP JUMPDEST SWAP2 POP PUSH2 0x54CA DUP3 PUSH2 0x5463 JUMP JUMPDEST PUSH1 0x40 DUP3 ADD SWAP1 POP SWAP2 SWAP1 POP JUMP JUMPDEST PUSH1 0x0 PUSH1 0x20 DUP3 ADD SWAP1 POP DUP2 DUP2 SUB PUSH1 0x0 DUP4 ADD MSTORE PUSH2 0x54EE DUP2 PUSH2 0x54B2 JUMP JUMPDEST SWAP1 POP SWAP2 SWAP1 POP JUMP JUMPDEST PUSH1 0x0 PUSH1 0xE0 DUP3 ADD SWAP1 POP PUSH2 0x550A PUSH1 0x0 DUP4 ADD DUP11 PUSH2 0x41FF JUMP JUMPDEST PUSH2 0x5517 PUSH1 0x20 DUP4 ADD DUP10 PUSH2 0x43F4 JUMP JUMPDEST PUSH2 0x5524 PUSH1 0x40 DUP4 ADD DUP9 PUSH2 0x40C1 JUMP JUMPDEST PUSH2 0x5531 PUSH1 0x60 DUP4 ADD DUP8 PUSH2 0x41FF JUMP JUMPDEST PUSH2 0x553E PUSH1 0x80 DUP4 ADD DUP7 PUSH2 0x40C1 JUMP JUMPDEST PUSH2 0x554B PUSH1 0xA0 DUP4 ADD DUP6 PUSH2 0x40C1 JUMP JUMPDEST PUSH2 0x5558 PUSH1 0xC0 DUP4 ADD DUP5 PUSH2 0x40C1 JUMP JUMPDEST SWAP9 SWAP8 POP POP POP POP POP POP POP POP JUMP JUMPDEST PUSH32 0x53706F6B654272696467653A2063616C6C65722063616E6E6F74206265206120 PUSH1 0x0 DUP3 ADD MSTORE PUSH32 0x72656C6179657221000000000000000000000000000000000000000000000000 PUSH1 0x20 DUP3 ADD MSTORE POP JUMP JUMPDEST PUSH1 0x0 PUSH2 0x55C0 PUSH1 0x28 DUP4 PUSH2 0x4587 JUMP JUMPDEST SWAP2 POP PUSH2 0x55CB DUP3 PUSH2 0x5564 JUMP JUMPDEST PUSH1 0x40 DUP3 ADD SWAP1 POP SWAP2 SWAP1 POP JUMP JUMPDEST PUSH1 0x0 PUSH1 0x20 DUP3 ADD SWAP1 POP DUP2 DUP2 SUB PUSH1 0x0 DUP4 ADD MSTORE PUSH2 0x55EF DUP2 PUSH2 0x55B3 JUMP JUMPDEST SWAP1 POP SWAP2 SWAP1 POP JUMP JUMPDEST PUSH32 0x53706F6B654272696467653A206D73672E76616C7565206973206E6F74206170 PUSH1 0x0 DUP3 ADD MSTORE PUSH32 0x70726F7072696174652100000000000000000000000000000000000000000000 PUSH1 0x20 DUP3 ADD MSTORE POP JUMP JUMPDEST PUSH1 0x0 PUSH2 0x5652 PUSH1 0x2A DUP4 PUSH2 0x4587 JUMP JUMPDEST SWAP2 POP PUSH2 0x565D DUP3 PUSH2 0x55F6 JUMP JUMPDEST PUSH1 0x40 DUP3 ADD SWAP1 POP SWAP2 SWAP1 POP JUMP JUMPDEST PUSH1 0x0 PUSH1 0x20 DUP3 ADD SWAP1 POP DUP2 DUP2 SUB PUSH1 0x0 DUP4 ADD MSTORE PUSH2 0x5681 DUP2 PUSH2 0x5645 JUMP JUMPDEST SWAP1 POP SWAP2 SWAP1 POP JUMP JUMPDEST PUSH32 0x4F776E61626C653A206E6577206F776E657220697320746865207A65726F2061 PUSH1 0x0 DUP3 ADD MSTORE PUSH32 0x6464726573730000000000000000000000000000000000000000000000000000 PUSH1 0x20 DUP3 ADD MSTORE POP JUMP JUMPDEST PUSH1 0x0 PUSH2 0x56E4 PUSH1 0x26 DUP4 PUSH2 0x4587 JUMP JUMPDEST SWAP2 POP PUSH2 0x56EF DUP3 PUSH2 0x5688 JUMP JUMPDEST PUSH1 0x40 DUP3 ADD SWAP1 POP SWAP2 SWAP1 POP JUMP JUMPDEST PUSH1 0x0 PUSH1 0x20 DUP3 ADD SWAP1 POP DUP2 DUP2 SUB PUSH1 0x0 DUP4 ADD MSTORE PUSH2 0x5713 DUP2 PUSH2 0x56D7 JUMP JUMPDEST SWAP1 POP SWAP2 SWAP1 POP JUMP JUMPDEST PUSH32 0x53726353706F6B6542726964653A20696E636F6D696E67206269642068617320 PUSH1 0x0 DUP3 ADD MSTORE PUSH32 0x6E6F2052656C6179656420737461746521000000000000000000000000000000 PUSH1 0x20 DUP3 ADD MSTORE POP JUMP JUMPDEST PUSH1 0x0 PUSH2 0x5776 PUSH1 0x31 DUP4 PUSH2 0x4587 JUMP JUMPDEST SWAP2 POP PUSH2 0x5781 DUP3 PUSH2 0x571A JUMP JUMPDEST PUSH1 0x40 DUP3 ADD SWAP1 POP SWAP2 SWAP1 POP JUMP JUMPDEST PUSH1 0x0 PUSH1 0x20 DUP3 ADD SWAP1 POP DUP2 DUP2 SUB PUSH1 0x0 DUP4 ADD MSTORE PUSH2 0x57A5 DUP2 PUSH2 0x5769 JUMP JUMPDEST SWAP1 POP SWAP2 SWAP1 POP JUMP JUMPDEST PUSH32 0x53726353706F6B654272696467653A20636C61696D6572206973206E6F742074 PUSH1 0x0 DUP3 ADD MSTORE PUSH32 0x6865206F776E6572210000000000000000000000000000000000000000000000 PUSH1 0x20 DUP3 ADD MSTORE POP JUMP JUMPDEST PUSH1 0x0 PUSH2 0x5808 PUSH1 0x29 DUP4 PUSH2 0x4587 JUMP JUMPDEST SWAP2 POP PUSH2 0x5813 DUP3 PUSH2 0x57AC JUMP JUMPDEST PUSH1 0x40 DUP3 ADD SWAP1 POP SWAP2 SWAP1 POP JUMP JUMPDEST PUSH1 0x0 PUSH1 0x20 DUP3 ADD SWAP1 POP DUP2 DUP2 SUB PUSH1 0x0 DUP4 ADD MSTORE PUSH2 0x5837 DUP2 PUSH2 0x57FB JUMP JUMPDEST SWAP1 POP SWAP2 SWAP1 POP JUMP JUMPDEST PUSH32 0x4F776E61626C653A2063616C6C6572206973206E6F7420746865206F776E6572 PUSH1 0x0 DUP3 ADD MSTORE POP JUMP JUMPDEST PUSH1 0x0 PUSH2 0x5874 PUSH1 0x20 DUP4 PUSH2 0x4587 JUMP JUMPDEST SWAP2 POP PUSH2 0x587F DUP3 PUSH2 0x583E JUMP JUMPDEST PUSH1 0x20 DUP3 ADD SWAP1 POP SWAP2 SWAP1 POP JUMP JUMPDEST PUSH1 0x0 PUSH1 0x20 DUP3 ADD SWAP1 POP DUP2 DUP2 SUB PUSH1 0x0 DUP4 ADD MSTORE PUSH2 0x58A3 DUP2 PUSH2 0x5867 JUMP JUMPDEST SWAP1 POP SWAP2 SWAP1 POP JUMP JUMPDEST PUSH32 0x53706F6B654272696467653A204E6F20656E6F75676820616D6F756E74206F66 PUSH1 0x0 DUP3 ADD MSTORE PUSH32 0x2045544820746F207374616B6521000000000000000000000000000000000000 PUSH1 0x20 DUP3 ADD MSTORE POP JUMP JUMPDEST PUSH1 0x0 PUSH2 0x5906 PUSH1 0x2E DUP4 PUSH2 0x4587 JUMP JUMPDEST SWAP2 POP PUSH2 0x5911 DUP3 PUSH2 0x58AA JUMP JUMPDEST PUSH1 0x40 DUP3 ADD SWAP1 POP SWAP2 SWAP1 POP JUMP JUMPDEST PUSH1 0x0 PUSH1 0x20 DUP3 ADD SWAP1 POP DUP2 DUP2 SUB PUSH1 0x0 DUP4 ADD MSTORE PUSH2 0x5935 DUP2 PUSH2 0x58F9 JUMP JUMPDEST SWAP1 POP SWAP2 SWAP1 POP JUMP JUMPDEST PUSH32 0x53706F6B654272696467653A20436F72726573706F6E64696E6720696E636F6D PUSH1 0x0 DUP3 ADD MSTORE PUSH32 0x696E672062696420737461747573206973206E6F742072656C61796564210000 PUSH1 0x20 DUP3 ADD MSTORE POP JUMP JUMPDEST PUSH1 0x0 PUSH2 0x5998 PUSH1 0x3E DUP4 PUSH2 0x4587 JUMP JUMPDEST SWAP2 POP PUSH2 0x59A3 DUP3 PUSH2 0x593C JUMP JUMPDEST PUSH1 0x40 DUP3 ADD SWAP1 POP SWAP2 SWAP1 POP JUMP JUMPDEST PUSH1 0x0 PUSH1 0x20 DUP3 ADD SWAP1 POP DUP2 DUP2 SUB PUSH1 0x0 DUP4 ADD MSTORE PUSH2 0x59C7 DUP2 PUSH2 0x598B JUMP JUMPDEST SWAP1 POP SWAP2 SWAP1 POP JUMP JUMPDEST PUSH32 0x53706F6B654272696467653A20546865206469737075746520706572696F6420 PUSH1 0x0 DUP3 ADD MSTORE PUSH32 0x6973206578706972656421000000000000000000000000000000000000000000 PUSH1 0x20 DUP3 ADD MSTORE POP JUMP JUMPDEST PUSH1 0x0 PUSH2 0x5A2A PUSH1 0x2B DUP4 PUSH2 0x4587 JUMP JUMPDEST SWAP2 POP PUSH2 0x5A35 DUP3 PUSH2 0x59CE JUMP JUMPDEST PUSH1 0x40 DUP3 ADD SWAP1 POP SWAP2 SWAP1 POP JUMP JUMPDEST PUSH1 0x0 PUSH1 0x20 DUP3 ADD SWAP1 POP DUP2 DUP2 SUB PUSH1 0x0 DUP4 ADD MSTORE PUSH2 0x5A59 DUP2 PUSH2 0x5A1D JUMP JUMPDEST SWAP1 POP SWAP2 SWAP1 POP JUMP JUMPDEST PUSH32 0x53706F6B654272696467653A2062696420697320616C7265616479206368616C PUSH1 0x0 DUP3 ADD MSTORE PUSH32 0x6C656E6765642100000000000000000000000000000000000000000000000000 PUSH1 0x20 DUP3 ADD MSTORE POP JUMP JUMPDEST PUSH1 0x0 PUSH2 0x5ABC PUSH1 0x27 DUP4 PUSH2 0x4587 JUMP JUMPDEST SWAP2 POP PUSH2 0x5AC7 DUP3 PUSH2 0x5A60 JUMP JUMPDEST PUSH1 0x40 DUP3 ADD SWAP1 POP SWAP2 SWAP1 POP JUMP JUMPDEST PUSH1 0x0 PUSH1 0x20 DUP3 ADD SWAP1 POP DUP2 DUP2 SUB PUSH1 0x0 DUP4 ADD MSTORE PUSH2 0x5AEB DUP2 PUSH2 0x5AAF JUMP JUMPDEST SWAP1 POP SWAP2 SWAP1 POP JUMP JUMPDEST PUSH1 0x0 PUSH1 0x20 DUP3 ADD SWAP1 POP DUP2 DUP2 SUB PUSH1 0x0 DUP4 ADD MSTORE PUSH2 0x5B0C DUP2 DUP5 PUSH2 0x53FA JUMP JUMPDEST SWAP1 POP SWAP3 SWAP2 POP POP JUMP INVALID LOG2 PUSH5 0x6970667358 0x22 SLT KECCAK256 0xC4 CREATE SMOD JUMP SELFBALANCE PUSH18 0xA3285B98A7FAAB5CAB21E5877B0A2227E1 0xC1 MSTORE KECCAK256 0xBE BALANCE 0x2B 0xDA SWAP15 PUSH5 0x736F6C6343 STOP ADDMOD SLT STOP CALLER "},"methodIdentifiers":{"CHALLENGE_AMOUNT()":"f8840cf7","HUB()":"a4c52b86","STAKE_AMOUNT()":"faf5625f","TIME_LIMIT_OF_UNDEPOSIT()":"529e720a","buyBid(uint256)":"04ef2396","challengeUnlocking(uint256)":"7a965756","challengedIncomingBids(uint256)":"4d642623","claimChallengeReward(uint256,bool)":"3a5d0410","claimDeposite()":"7be6f7a7","claimNFT(uint256)":"fe5c873a","contractMap()":"1d2f3682","createBid(address,uint256,address)":"34f507b8","deposite()":"a50ec326","id()":"af640d0f","incomingBids(uint256)":"8df99e90","incomingChallengeRewards(uint256)":"9c3709d9","onERC721Received(address,address,uint256,bytes)":"150b7a02","outgoingBids(uint256)":"f3786979","outgoingChallengeRewards(uint256)":"3bb984f4","owner()":"8da5cb5b","receiveProof(bytes)":"24bd801b","relayers(address)":"5300f841","renounceOwnership()":"715018a6","sendProof(bool,uint256)":"9123e475","transferOwnership(address)":"f2fde38b","undeposite()":"be7226ad","unlocking(uint256,uint256,address)":"1b392fbd"}}}}}