{
  "_format": "hh-sol-artifact-1",
  "contractName": "L1CrossDomainMessenger",
  "sourceName": "contracts/L1/messaging/L1CrossDomainMessenger.sol",
  "abi": [
    {
      "inputs": [],
      "stateMutability": "nonpayable",
      "type": "constructor"
    },
    {
      "anonymous": false,
      "inputs": [
        {
          "indexed": true,
          "internalType": "bytes32",
          "name": "msgHash",
          "type": "bytes32"
        }
      ],
      "name": "FailedRelayedMessage",
      "type": "event"
    },
    {
      "anonymous": false,
      "inputs": [
        {
          "indexed": false,
          "internalType": "uint8",
          "name": "version",
          "type": "uint8"
        }
      ],
      "name": "Initialized",
      "type": "event"
    },
    {
      "anonymous": false,
      "inputs": [
        {
          "indexed": true,
          "internalType": "bytes32",
          "name": "_xDomainCalldataHash",
          "type": "bytes32"
        }
      ],
      "name": "MessageAllowed",
      "type": "event"
    },
    {
      "anonymous": false,
      "inputs": [
        {
          "indexed": true,
          "internalType": "bytes32",
          "name": "_xDomainCalldataHash",
          "type": "bytes32"
        }
      ],
      "name": "MessageBlocked",
      "type": "event"
    },
    {
      "anonymous": false,
      "inputs": [
        {
          "indexed": true,
          "internalType": "address",
          "name": "previousOwner",
          "type": "address"
        },
        {
          "indexed": true,
          "internalType": "address",
          "name": "newOwner",
          "type": "address"
        }
      ],
      "name": "OwnershipTransferred",
      "type": "event"
    },
    {
      "anonymous": false,
      "inputs": [
        {
          "indexed": false,
          "internalType": "address",
          "name": "account",
          "type": "address"
        }
      ],
      "name": "Paused",
      "type": "event"
    },
    {
      "anonymous": false,
      "inputs": [
        {
          "indexed": true,
          "internalType": "bytes32",
          "name": "msgHash",
          "type": "bytes32"
        }
      ],
      "name": "RelayedMessage",
      "type": "event"
    },
    {
      "anonymous": false,
      "inputs": [
        {
          "indexed": true,
          "internalType": "address",
          "name": "target",
          "type": "address"
        },
        {
          "indexed": false,
          "internalType": "address",
          "name": "sender",
          "type": "address"
        },
        {
          "indexed": false,
          "internalType": "bytes",
          "name": "message",
          "type": "bytes"
        },
        {
          "indexed": false,
          "internalType": "uint256",
          "name": "messageNonce",
          "type": "uint256"
        },
        {
          "indexed": false,
          "internalType": "uint256",
          "name": "gasLimit",
          "type": "uint256"
        }
      ],
      "name": "SentMessage",
      "type": "event"
    },
    {
      "anonymous": false,
      "inputs": [
        {
          "indexed": false,
          "internalType": "address",
          "name": "account",
          "type": "address"
        }
      ],
      "name": "Unpaused",
      "type": "event"
    },
    {
      "inputs": [
        {
          "internalType": "bytes32",
          "name": "_xDomainCalldataHash",
          "type": "bytes32"
        }
      ],
      "name": "allowMessage",
      "outputs": [],
      "stateMutability": "nonpayable",
      "type": "function"
    },
    {
      "inputs": [
        {
          "internalType": "bytes32",
          "name": "_xDomainCalldataHash",
          "type": "bytes32"
        }
      ],
      "name": "blockMessage",
      "outputs": [],
      "stateMutability": "nonpayable",
      "type": "function"
    },
    {
      "inputs": [
        {
          "internalType": "bytes32",
          "name": "",
          "type": "bytes32"
        }
      ],
      "name": "blockedMessages",
      "outputs": [
        {
          "internalType": "bool",
          "name": "",
          "type": "bool"
        }
      ],
      "stateMutability": "view",
      "type": "function"
    },
    {
      "inputs": [
        {
          "internalType": "address",
          "name": "_libAddressManager",
          "type": "address"
        }
      ],
      "name": "initialize",
      "outputs": [],
      "stateMutability": "nonpayable",
      "type": "function"
    },
    {
      "inputs": [],
      "name": "libAddressManager",
      "outputs": [
        {
          "internalType": "contract Lib_AddressManager",
          "name": "",
          "type": "address"
        }
      ],
      "stateMutability": "view",
      "type": "function"
    },
    {
      "inputs": [],
      "name": "owner",
      "outputs": [
        {
          "internalType": "address",
          "name": "",
          "type": "address"
        }
      ],
      "stateMutability": "view",
      "type": "function"
    },
    {
      "inputs": [],
      "name": "pause",
      "outputs": [],
      "stateMutability": "nonpayable",
      "type": "function"
    },
    {
      "inputs": [],
      "name": "paused",
      "outputs": [
        {
          "internalType": "bool",
          "name": "",
          "type": "bool"
        }
      ],
      "stateMutability": "view",
      "type": "function"
    },
    {
      "inputs": [
        {
          "internalType": "address",
          "name": "_target",
          "type": "address"
        },
        {
          "internalType": "address",
          "name": "_sender",
          "type": "address"
        },
        {
          "internalType": "bytes",
          "name": "_message",
          "type": "bytes"
        },
        {
          "internalType": "uint256",
          "name": "_messageNonce",
          "type": "uint256"
        },
        {
          "components": [
            {
              "internalType": "bytes32",
              "name": "stateRoot",
              "type": "bytes32"
            },
            {
              "components": [
                {
                  "internalType": "uint256",
                  "name": "batchIndex",
                  "type": "uint256"
                },
                {
                  "internalType": "bytes32",
                  "name": "batchRoot",
                  "type": "bytes32"
                },
                {
                  "internalType": "uint256",
                  "name": "batchSize",
                  "type": "uint256"
                },
                {
                  "internalType": "uint256",
                  "name": "prevTotalElements",
                  "type": "uint256"
                },
                {
                  "internalType": "bytes",
                  "name": "extraData",
                  "type": "bytes"
                }
              ],
              "internalType": "struct Lib_OVMCodec.ChainBatchHeader",
              "name": "stateRootBatchHeader",
              "type": "tuple"
            },
            {
              "components": [
                {
                  "internalType": "uint256",
                  "name": "index",
                  "type": "uint256"
                },
                {
                  "internalType": "bytes32[]",
                  "name": "siblings",
                  "type": "bytes32[]"
                }
              ],
              "internalType": "struct Lib_OVMCodec.ChainInclusionProof",
              "name": "stateRootProof",
              "type": "tuple"
            },
            {
              "internalType": "bytes",
              "name": "stateTrieWitness",
              "type": "bytes"
            },
            {
              "internalType": "bytes",
              "name": "storageTrieWitness",
              "type": "bytes"
            }
          ],
          "internalType": "struct IL1CrossDomainMessenger.L2MessageInclusionProof",
          "name": "_proof",
          "type": "tuple"
        }
      ],
      "name": "relayMessage",
      "outputs": [],
      "stateMutability": "nonpayable",
      "type": "function"
    },
    {
      "inputs": [
        {
          "internalType": "bytes32",
          "name": "",
          "type": "bytes32"
        }
      ],
      "name": "relayedMessages",
      "outputs": [
        {
          "internalType": "bool",
          "name": "",
          "type": "bool"
        }
      ],
      "stateMutability": "view",
      "type": "function"
    },
    {
      "inputs": [],
      "name": "renounceOwnership",
      "outputs": [],
      "stateMutability": "nonpayable",
      "type": "function"
    },
    {
      "inputs": [
        {
          "internalType": "address",
          "name": "_target",
          "type": "address"
        },
        {
          "internalType": "address",
          "name": "_sender",
          "type": "address"
        },
        {
          "internalType": "bytes",
          "name": "_message",
          "type": "bytes"
        },
        {
          "internalType": "uint256",
          "name": "_queueIndex",
          "type": "uint256"
        },
        {
          "internalType": "uint32",
          "name": "_oldGasLimit",
          "type": "uint32"
        },
        {
          "internalType": "uint32",
          "name": "_newGasLimit",
          "type": "uint32"
        }
      ],
      "name": "replayMessage",
      "outputs": [],
      "stateMutability": "nonpayable",
      "type": "function"
    },
    {
      "inputs": [
        {
          "internalType": "string",
          "name": "_name",
          "type": "string"
        }
      ],
      "name": "resolve",
      "outputs": [
        {
          "internalType": "address",
          "name": "",
          "type": "address"
        }
      ],
      "stateMutability": "view",
      "type": "function"
    },
    {
      "inputs": [
        {
          "internalType": "address",
          "name": "_target",
          "type": "address"
        },
        {
          "internalType": "bytes",
          "name": "_message",
          "type": "bytes"
        },
        {
          "internalType": "uint32",
          "name": "_gasLimit",
          "type": "uint32"
        }
      ],
      "name": "sendMessage",
      "outputs": [],
      "stateMutability": "nonpayable",
      "type": "function"
    },
    {
      "inputs": [
        {
          "internalType": "bytes32",
          "name": "",
          "type": "bytes32"
        }
      ],
      "name": "successfulMessages",
      "outputs": [
        {
          "internalType": "bool",
          "name": "",
          "type": "bool"
        }
      ],
      "stateMutability": "view",
      "type": "function"
    },
    {
      "inputs": [
        {
          "internalType": "address",
          "name": "newOwner",
          "type": "address"
        }
      ],
      "name": "transferOwnership",
      "outputs": [],
      "stateMutability": "nonpayable",
      "type": "function"
    },
    {
      "inputs": [],
      "name": "xDomainMessageSender",
      "outputs": [
        {
          "internalType": "address",
          "name": "",
          "type": "address"
        }
      ],
      "stateMutability": "view",
      "type": "function"
    }
  ],
  "bytecode": "0x608060405261dead60cc60006101000a81548173ffffffffffffffffffffffffffffffffffffffff021916908373ffffffffffffffffffffffffffffffffffffffff16021790555034801561005357600080fd5b506000806000806101000a81548173ffffffffffffffffffffffffffffffffffffffff021916908373ffffffffffffffffffffffffffffffffffffffff160217905550506151fd806100a66000396000f3fe608060405234801561001057600080fd5b506004361061010b5760003560e01c8063715018a6116100a2578063b1b1b20911610071578063b1b1b2091461026c578063c4d66de81461029c578063c6b94ab0146102b8578063d7fd19dd146102e8578063f2fde38b146103045761010b565b8063715018a61461021e57806381ada46c146102285780638456cb59146102445780638da5cb5b1461024e5761010b565b8063461a4478116100de578063461a4478146101965780635c975abb146101c65780636e296e45146101e45780636f1c8d47146102025761010b565b80630ecf2eea1461011057806321d800ec1461012c578063299ca4781461015c5780633dbb202b1461017a575b600080fd5b61012a60048036038101906101259190612da8565b610320565b005b61014660048036038101906101419190612da8565b610384565b6040516101539190612df0565b60405180910390f35b6101646103a4565b6040516101719190612e8a565b60405180910390f35b610194600480360381019061018f9190613065565b6103c8565b005b6101b060048036038101906101ab9190613175565b610501565b6040516101bd91906131cd565b60405180910390f35b6101ce6105a5565b6040516101db9190612df0565b60405180910390f35b6101ec6105bc565b6040516101f991906131cd565b60405180910390f35b61021c6004803603810190610217919061321e565b610678565b005b6102266107f8565b005b610242600480360381019061023d9190612da8565b61080c565b005b61024c610870565b005b610256610882565b60405161026391906131cd565b60405180910390f35b61028660048036038101906102819190612da8565b6108ac565b6040516102939190612df0565b60405180910390f35b6102b660048036038101906102b191906132c7565b6108cc565b005b6102d260048036038101906102cd9190612da8565b610b3a565b6040516102df9190612df0565b60405180910390f35b61030260048036038101906102fd91906135d6565b610b5a565b005b61031e600480360381019061031991906132c7565b610f46565b005b610328610fc9565b600160c9600083815260200190815260200160002060006101000a81548160ff021916908315150217905550807ff52508d5339edf0d7e5060a416df98db067af561bdc60872d29c0439eaa13a0260405160405180910390a250565b60ca6020528060005260406000206000915054906101000a900460ff1681565b60008054906101000a900473ffffffffffffffffffffffffffffffffffffffff1681565b60006104086040518060400160405280601981526020017f43616e6f6e6963616c5472616e73616374696f6e436861696e00000000000000815250610501565b905060008173ffffffffffffffffffffffffffffffffffffffff1663b8f770056040518163ffffffff1660e01b8152600401602060405180830381865afa158015610457573d6000803e3d6000fd5b505050506040513d601f19601f8201168201806040525081019061047b91906136c6565b905060006104928633878564ffffffffff16611047565b90506104a583828663ffffffff166110e7565b8573ffffffffffffffffffffffffffffffffffffffff167fcb0f7ffd78f9aee47a248fae8db181db6eee833039123e026dcbff529522e52a338785886040516104f194939291906137d4565b60405180910390a2505050505050565b60008060009054906101000a900473ffffffffffffffffffffffffffffffffffffffff1673ffffffffffffffffffffffffffffffffffffffff1663bf40fac1836040518263ffffffff1660e01b815260040161055d9190613875565b602060405180830381865afa15801561057a573d6000803e3d6000fd5b505050506040513d601f19601f8201168201806040525081019061059e91906138ac565b9050919050565b6000606560009054906101000a900460ff16905090565b600061dead73ffffffffffffffffffffffffffffffffffffffff1660cc60009054906101000a900473ffffffffffffffffffffffffffffffffffffffff1673ffffffffffffffffffffffffffffffffffffffff1603610650576040517f08c379a000000000000000000000000000000000000000000000000000000000815260040161064790613925565b60405180910390fd5b60cc60009054906101000a900473ffffffffffffffffffffffffffffffffffffffff16905090565b60006106b86040518060400160405280601981526020017f43616e6f6e6963616c5472616e73616374696f6e436861696e00000000000000815250610501565b905060008173ffffffffffffffffffffffffffffffffffffffff16632a7f18be866040518263ffffffff1660e01b81526004016106f59190613954565b606060405180830381865afa158015610712573d6000803e3d6000fd5b505050506040513d601f19601f8201168201806040525081019061073691906139e8565b9050600061074689898989611047565b905060006107533061116f565b734200000000000000000000000000000000000007878460405160200161077d9493929190613a24565b604051602081830303815290604052805190602001209050826000015181146107db576040517f08c379a00000000000000000000000000000000000000000000000000000000081526004016107d290613ae2565b60405180910390fd5b6107ec84838763ffffffff166110e7565b50505050505050505050565b610800610fc9565b61080a600061118f565b565b610814610fc9565b600060c9600083815260200190815260200160002060006101000a81548160ff021916908315150217905550807f52c8a2680a9f4cc0ad0bf88f32096eadbebf0646ea611d93a0ce6a29a024040560405160405180910390a250565b610878610fc9565b610880611255565b565b6000603360009054906101000a900473ffffffffffffffffffffffffffffffffffffffff16905090565b60cb6020528060005260406000206000915054906101000a900460ff1681565b60008060159054906101000a900460ff161590508080156108ff57506001600060149054906101000a900460ff1660ff16105b8061092e575061090e306112b8565b15801561092d57506001600060149054906101000a900460ff1660ff16145b5b61096d576040517f08c379a000000000000000000000000000000000000000000000000000000000815260040161096490613b74565b60405180910390fd5b6001600060146101000a81548160ff021916908360ff16021790555080156109ab576001600060156101000a81548160ff0219169083151502179055505b600073ffffffffffffffffffffffffffffffffffffffff1660008054906101000a900473ffffffffffffffffffffffffffffffffffffffff1673ffffffffffffffffffffffffffffffffffffffff1614610a3a576040517f08c379a0000000000000000000000000000000000000000000000000000000008152600401610a3190613c06565b60405180910390fd5b816000806101000a81548173ffffffffffffffffffffffffffffffffffffffff021916908373ffffffffffffffffffffffffffffffffffffffff16021790555061dead60cc60006101000a81548173ffffffffffffffffffffffffffffffffffffffff021916908373ffffffffffffffffffffffffffffffffffffffff160217905550610ac56112db565b610acd61132c565b610ad561138d565b610add6113f9565b8015610b365760008060156101000a81548160ff0219169083151502179055507f7f26b83ff96e1f2b6a682f133852f6798a09c465da95921460cefb38474024986001604051610b2d9190613c6e565b60405180910390a15b5050565b60c96020528060005260406000206000915054906101000a900460ff1681565b610b62611452565b610b6a6114a1565b6000610b7886868686611047565b905060011515610b8882846114eb565b151514610bca576040517f08c379a0000000000000000000000000000000000000000000000000000000008152600401610bc190613cfb565b60405180910390fd5b6000818051906020012090506000151560cb600083815260200190815260200160002060009054906101000a900460ff16151514610c3d576040517f08c379a0000000000000000000000000000000000000000000000000000000008152600401610c3490613d8d565b60405180910390fd5b6000151560c9600083815260200190815260200160002060009054906101000a900460ff16151514610ca4576040517f08c379a0000000000000000000000000000000000000000000000000000000008152600401610c9b90613e1f565b60405180910390fd5b610ce26040518060400160405280601981526020017f43616e6f6e6963616c5472616e73616374696f6e436861696e00000000000000815250610501565b73ffffffffffffffffffffffffffffffffffffffff168773ffffffffffffffffffffffffffffffffffffffff1603610d4f576040517f08c379a0000000000000000000000000000000000000000000000000000000008152600401610d4690613eb1565b60405180910390fd5b8560cc60006101000a81548173ffffffffffffffffffffffffffffffffffffffff021916908373ffffffffffffffffffffffffffffffffffffffff16021790555060008773ffffffffffffffffffffffffffffffffffffffff1686604051610db79190613f0d565b6000604051808303816000865af19150503d8060008114610df4576040519150601f19603f3d011682016040523d82523d6000602084013e610df9565b606091505b5050905061dead60cc60006101000a81548173ffffffffffffffffffffffffffffffffffffffff021916908373ffffffffffffffffffffffffffffffffffffffff1602179055506001151581151503610eaa57600160cb600084815260200190815260200160002060006101000a81548160ff021916908315150217905550817f4641df4a962071e12719d8c8c8e5ac7fc4d97b927346a3d7a335b1f7517e133c60405160405180910390a2610ed8565b817f99d0e048484baa1b1540b1367cb128acd7ab2946d1ed91ec10e3c85e4bf51b8f60405160405180910390a25b6000833343604051602001610eef93929190613f8d565b604051602081830303815290604052805190602001209050600160ca600083815260200190815260200160002060006101000a81548160ff02191690831515021790555050505050610f3f611510565b5050505050565b610f4e610fc9565b600073ffffffffffffffffffffffffffffffffffffffff168173ffffffffffffffffffffffffffffffffffffffff1603610fbd576040517f08c379a0000000000000000000000000000000000000000000000000000000008152600401610fb490614038565b60405180910390fd5b610fc68161118f565b50565b610fd161151a565b73ffffffffffffffffffffffffffffffffffffffff16610fef610882565b73ffffffffffffffffffffffffffffffffffffffff1614611045576040517f08c379a000000000000000000000000000000000000000000000000000000000815260040161103c906140a4565b60405180910390fd5b565b60608484848460405160240161106094939291906140c4565b6040516020818303038152906040527fcbd4ece9000000000000000000000000000000000000000000000000000000007bffffffffffffffffffffffffffffffffffffffffffffffffffffffff19166020820180517bffffffffffffffffffffffffffffffffffffffffffffffffffffffff83818316178352505050509050949350505050565b8273ffffffffffffffffffffffffffffffffffffffff16636fee07e073420000000000000000000000000000000000000783856040518463ffffffff1660e01b815260040161113893929190614110565b600060405180830381600087803b15801561115257600080fd5b505af1158015611166573d6000803e3d6000fd5b50505050505050565b600073111100000000000000000000000000000000111182019050919050565b6000603360009054906101000a900473ffffffffffffffffffffffffffffffffffffffff16905081603360006101000a81548173ffffffffffffffffffffffffffffffffffffffff021916908373ffffffffffffffffffffffffffffffffffffffff1602179055508173ffffffffffffffffffffffffffffffffffffffff168173ffffffffffffffffffffffffffffffffffffffff167f8be0079c531659141344cd1fd0a4f28419497f9722a3daafe3b4186f6b6457e060405160405180910390a35050565b61125d6114a1565b6001606560006101000a81548160ff0219169083151502179055507f62e78cea01bee320cd4e420270b5ea74000d11b0c9f74754ebdbfc544b05a2586112a161151a565b6040516112ae91906131cd565b60405180910390a1565b6000808273ffffffffffffffffffffffffffffffffffffffff163b119050919050565b600060159054906101000a900460ff1661132a576040517f08c379a0000000000000000000000000000000000000000000000000000000008152600401611321906141c0565b60405180910390fd5b565b600060159054906101000a900460ff1661137b576040517f08c379a0000000000000000000000000000000000000000000000000000000008152600401611372906141c0565b60405180910390fd5b61138b61138661151a565b61118f565b565b600060159054906101000a900460ff166113dc576040517f08c379a00000000000000000000000000000000000000000000000000000000081526004016113d3906141c0565b60405180910390fd5b6000606560006101000a81548160ff021916908315150217905550565b600060159054906101000a900460ff16611448576040517f08c379a000000000000000000000000000000000000000000000000000000000815260040161143f906141c0565b60405180910390fd5b6001609781905550565b600260975403611497576040517f08c379a000000000000000000000000000000000000000000000000000000000815260040161148e9061422c565b60405180910390fd5b6002609781905550565b6114a96105a5565b156114e9576040517f08c379a00000000000000000000000000000000000000000000000000000000081526004016114e090614298565b60405180910390fd5b565b60006114f682611522565b801561150857506115078383611684565b5b905092915050565b6001609781905550565b600033905090565b6000806115636040518060400160405280601481526020017f5374617465436f6d6d69746d656e74436861696e000000000000000000000000815250610501565b9050600015158173ffffffffffffffffffffffffffffffffffffffff16639418bddd85602001516040518263ffffffff1660e01b81526004016115a69190614396565b602060405180830381865afa1580156115c3573d6000803e3d6000fd5b505050506040513d601f19601f820116820180604052508101906115e791906143e4565b151514801561167c57508073ffffffffffffffffffffffffffffffffffffffff16634d69ee578460000151856020015186604001516040518463ffffffff1660e01b815260040161163a9392919061450c565b602060405180830381865afa158015611657573d6000803e3d6000fd5b505050506040513d601f19601f8201168201806040525081019061167b91906143e4565b5b915050919050565b600080837342000000000000000000000000000000000000076040516020016116ae929190614551565b6040516020818303038152906040528051906020012060006040516020016116d792919061459a565b60405160208183030381529060405280519060200120905060008061173873420000000000000000000000000000000000000060405160200161171a91906145c6565b604051602081830303815290604052866060015187600001516117ef565b915091506001151582151514611783576040517f08c379a000000000000000000000000000000000000000000000000000000000815260040161177a90614679565b60405180910390fd5b600061178e82611818565b90506117e3846040516020016117a49190614699565b60405160208183030381529060405260016040516020016117c591906146ea565b604051602081830303815290604052886080015184604001516118e2565b94505050505092915050565b6000606060006117fe86611907565b905061180b818686611937565b9250925050935093915050565b611820612cfc565b600061182b83611a10565b9050604051806080016040528061185c8360008151811061184f5761184e614705565b5b6020026020010151611a2a565b81526020016118858360018151811061187857611877614705565b5b6020026020010151611a2a565b81526020016118ae836002815181106118a1576118a0614705565b5b6020026020010151611a3f565b81526020016118d7836003815181106118ca576118c9614705565b5b6020026020010151611a3f565b815250915050919050565b6000806118ee86611907565b90506118fc81868686611b41565b915050949350505050565b606081805190602001206040516020016119219190614699565b6040516020818303038152906040529050919050565b60006060600061194685611b74565b90506000806000611958848a89611c69565b9250925092506000808351149050808061196f5750815b6119ae576040517f08c379a00000000000000000000000000000000000000000000000000000000081526004016119a590614780565b60405180910390fd5b6000816119ca57604051806020016040528060008152506119fa565b6119f9866001876119db91906147cf565b815181106119ec576119eb614705565b5b60200260200101516120d2565b5b9050818197509750505050505050935093915050565b6060611a23611a1e83612113565b612141565b9050919050565b6000611a3582611a3f565b60001c9050919050565b6000602182600001511115611a89576040517f08c379a0000000000000000000000000000000000000000000000000000000008152600401611a809061484f565b60405180910390fd5b6000806000611a9785612338565b92509250925060006001811115611ab157611ab061486f565b5b816001811115611ac457611ac361486f565b5b14611b04576040517f08c379a0000000000000000000000000000000000000000000000000000000008152600401611afb9061484f565b60405180910390fd5b6000838660200151611b16919061489e565b90506000815190506020841015611b3457836020036101000a810490505b8095505050505050919050565b6000806000611b51878686611937565b91509150818015611b685750611b678682612651565b5b92505050949350505050565b60606000611b8183611a10565b90506000815167ffffffffffffffff811115611ba057611b9f612efe565b5b604051908082528060200260200182016040528015611bd957816020015b611bc6612d2a565b815260200190600190039081611bbe5790505b50905060005b8251811015611c5e576000611c0d848381518110611c0057611bff614705565b5b602002602001015161266c565b90506040518060400160405280828152602001611c2983611a10565b815250838381518110611c3f57611c3e614705565b5b6020026020010181905250508080611c56906148d2565b915050611bdf565b508092505050919050565b60006060600080600090506000611c7f87612702565b90506000869050600080611c91612d2a565b60005b8c51811015612082578c8181518110611cb057611caf614705565b5b602002602001015191508284611cc6919061489e565b9350600187611cd5919061489e565b965060008403611d31578482600001518051906020012014611d2c576040517f08c379a0000000000000000000000000000000000000000000000000000000008152600401611d2390614966565b60405180910390fd5b611de0565b602082600001515110611d90578482600001518051906020012014611d8b576040517f08c379a0000000000000000000000000000000000000000000000000000000008152600401611d82906149d2565b60405180910390fd5b611ddf565b84611d9e83600001516128a7565b14611dde576040517f08c379a0000000000000000000000000000000000000000000000000000000008152600401611dd590614a3e565b60405180910390fd5b5b5b60016010611dee919061489e565b82602001515103611e63578551840315612082576000868581518110611e1757611e16614705565b5b602001015160f81c60f81b60f81c9050600083602001518260ff1681518110611e4357611e42614705565b5b60200260200101519050611e56816128e1565b965060019450505061206f565b600282602001515103612034576000611e7b8361291f565b9050600081600081518110611e9357611e92614705565b5b602001015160f81c60f81b60f81c90506000600282611eb29190614a8d565b6002611ebe9190614abe565b90506000611ecf848360ff16612958565b90506000611edd8b8a612958565b90506000611eeb8383612999565b9050600260ff168560ff161480611f085750600360ff168560ff16145b15611f6557808351148015611f1d5750808251145b15611f3157808a611f2e919061489e565b99505b608060f81b7effffffffffffffffffffffffffffffffffffffffffffffffffffffffffffff19169a50505050505050612082565b600060ff168560ff161480611f805750600160ff168560ff16145b15611ff95782518114611fc157608060f81b7effffffffffffffffffffffffffffffffffffffffffffffffffffffffffffff19169a50505050505050612082565b611fe98860200151600181518110611fdc57611fdb614705565b5b60200260200101516128e1565b9a5080985050505050505061206f565b6040517f08c379a000000000000000000000000000000000000000000000000000000000815260040161202b90614b65565b60405180910390fd5b6040517f08c379a000000000000000000000000000000000000000000000000000000000815260040161206690614bd1565b60405180910390fd5b808061207a906148d2565b915050611c94565b506000608060f81b7effffffffffffffffffffffffffffffffffffffffffffffffffffffffffffff191685149050866120bb8786612958565b829950995099505050505050505093509350939050565b606061210c826020015160018460200151516120ee91906147cf565b815181106120ff576120fe614705565b5b602002602001015161266c565b9050919050565b61211b612d44565b600060208301905060405180604001604052808451815260200182815250915050919050565b606060008061214f84612338565b92505091506001808111156121675761216661486f565b5b81600181111561217a5761217961486f565b5b146121ba576040517f08c379a00000000000000000000000000000000000000000000000000000000081526004016121b190614c3d565b60405180910390fd5b6000602067ffffffffffffffff8111156121d7576121d6612efe565b5b60405190808252806020026020018201604052801561221057816020015b6121fd612d44565b8152602001906001900390816121f55790505b5090506000808490505b86600001518110156123285760208210612269576040517f08c379a000000000000000000000000000000000000000000000000000000000815260040161226090614ccf565b60405180910390fd5b6000806122a76040518060400160405280858c6000015161228a91906147cf565b8152602001858c6020015161229f919061489e565b815250612338565b5091509150604051806040016040528083836122c3919061489e565b8152602001848b602001516122d8919061489e565b8152508585815181106122ee576122ed614705565b5b6020026020010181905250600184612306919061489e565b93508082612314919061489e565b8361231f919061489e565b9250505061221a565b8183528295505050505050919050565b600080600080846000015111612383576040517f08c379a000000000000000000000000000000000000000000000000000000000815260040161237a90614d3b565b60405180910390fd5b6000846020015190506000815160001a9050607f81116123b057600060016000945094509450505061264a565b60b781116124225760006080826123c791906147cf565b90508087600001511161240f576040517f08c379a000000000000000000000000000000000000000000000000000000000815260040161240690614da7565b60405180910390fd5b600181600095509550955050505061264a565b60bf811161250357600060b78261243991906147cf565b905080876000015111612481576040517f08c379a000000000000000000000000000000000000000000000000000000000815260040161247890614e13565b60405180910390fd5b6000816020036101000a6001850151049050808261249f919061489e565b8860000151116124e4576040517f08c379a00000000000000000000000000000000000000000000000000000000081526004016124db90614e7f565b60405180910390fd5b8160016124f1919061489e565b8160009650965096505050505061264a565b60f7811161257557600060c08261251a91906147cf565b905080876000015111612562576040517f08c379a000000000000000000000000000000000000000000000000000000000815260040161255990614eeb565b60405180910390fd5b600181600195509550955050505061264a565b600060f78261258491906147cf565b9050808760000151116125cc576040517f08c379a00000000000000000000000000000000000000000000000000000000081526004016125c390614f57565b60405180910390fd5b6000816020036101000a600185015104905080826125ea919061489e565b88600001511161262f576040517f08c379a000000000000000000000000000000000000000000000000000000000815260040161262690614fc3565b60405180910390fd5b81600161263c919061489e565b816001965096509650505050505b9193909250565b60008180519060200120838051906020012014905092915050565b6060600080600061267c85612338565b925092509250600060018111156126965761269561486f565b5b8160018111156126a9576126a861486f565b5b146126e9576040517f08c379a00000000000000000000000000000000000000000000000000000000081526004016126e09061502f565b60405180910390fd5b6126f885602001518484612a5c565b9350505050919050565b6060600060028351612714919061504f565b67ffffffffffffffff81111561272d5761272c612efe565b5b6040519080825280601f01601f19166020018201604052801561275f5781602001600182028036833780820191505090505b50905060005b835181101561289d57600484828151811061278357612782614705565b5b602001015160f81c60f81b7effffffffffffffffffffffffffffffffffffffffffffffffffffffffffffff1916901c826002836127c0919061504f565b815181106127d1576127d0614705565b5b60200101907effffffffffffffffffffffffffffffffffffffffffffffffffffffffffffff1916908160001a905350601084828151811061281557612814614705565b5b602001015160f81c60f81b60f81c61282d9190614a8d565b60f81b826001600284612840919061504f565b61284a919061489e565b8151811061285b5761285a614705565b5b60200101907effffffffffffffffffffffffffffffffffffffffffffffffffffffffffffff1916908160001a9053508080612895906148d2565b915050612765565b5080915050919050565b60006020825110156128c557600060208301519050809150506128dc565b818060200190518101906128d99190615091565b90505b919050565b60006060602083600001511015612902576128fb83612b61565b905061290e565b61290b8361266c565b90505b612917816128a7565b915050919050565b606061295161294c836020015160008151811061293f5761293e614705565b5b602002602001015161266c565b612702565b9050919050565b60608251821061297957604051806020016040528060008152509050612993565b612990838384865161298b91906147cf565b612b73565b90505b92915050565b600080600090505b8084511180156129b15750808351115b8015612a3a57508281815181106129cb576129ca614705565b5b602001015160f81c60f81b7effffffffffffffffffffffffffffffffffffffffffffffffffffffffffffff1916848281518110612a0b57612a0a614705565b5b602001015160f81c60f81b7effffffffffffffffffffffffffffffffffffffffffffffffffffffffffffff1916145b15612a52578080612a4a906148d2565b9150506129a1565b8091505092915050565b606060008267ffffffffffffffff811115612a7a57612a79612efe565b5b6040519080825280601f01601f191660200182016040528015612aac5781602001600182028036833780820191505090505b5090506000815103612ac15780915050612b5a565b60008486612acf919061489e565b9050600060208301905060005b602086612ae991906150be565b811015612b255782518252602083612b01919061489e565b9250602082612b10919061489e565b91508080612b1d906148d2565b915050612adc565b506000600160208781612b3b57612b3a614a5e565b5b066020036101000a039050808251168119845116178252839450505050505b9392505050565b6060612b6c82612cdf565b9050919050565b606081601f83612b83919061489e565b1015612bc4576040517f08c379a0000000000000000000000000000000000000000000000000000000008152600401612bbb9061513b565b60405180910390fd5b828284612bd1919061489e565b1015612c12576040517f08c379a0000000000000000000000000000000000000000000000000000000008152600401612c099061513b565b60405180910390fd5b8183612c1e919061489e565b84511015612c61576040517f08c379a0000000000000000000000000000000000000000000000000000000008152600401612c58906151a7565b60405180910390fd5b6060821560008114612c825760405191506000825260208201604052612cd3565b6040519150601f8416801560200281840101858101878315602002848b0101015b81831015612cc05780518352602083019250602081019050612ca3565b50868552601f19601f8301166040525050505b50809150509392505050565b6060612cf5826020015160008460000151612a5c565b9050919050565b6040518060800160405280600081526020016000815260200160008019168152602001600080191681525090565b604051806040016040528060608152602001606081525090565b604051806040016040528060008152602001600081525090565b6000604051905090565b600080fd5b600080fd5b6000819050919050565b612d8581612d72565b8114612d9057600080fd5b50565b600081359050612da281612d7c565b92915050565b600060208284031215612dbe57612dbd612d68565b5b6000612dcc84828501612d93565b91505092915050565b60008115159050919050565b612dea81612dd5565b82525050565b6000602082019050612e056000830184612de1565b92915050565b600073ffffffffffffffffffffffffffffffffffffffff82169050919050565b6000819050919050565b6000612e50612e4b612e4684612e0b565b612e2b565b612e0b565b9050919050565b6000612e6282612e35565b9050919050565b6000612e7482612e57565b9050919050565b612e8481612e69565b82525050565b6000602082019050612e9f6000830184612e7b565b92915050565b6000612eb082612e0b565b9050919050565b612ec081612ea5565b8114612ecb57600080fd5b50565b600081359050612edd81612eb7565b92915050565b600080fd5b600080fd5b6000601f19601f8301169050919050565b7f4e487b7100000000000000000000000000000000000000000000000000000000600052604160045260246000fd5b612f3682612eed565b810181811067ffffffffffffffff82111715612f5557612f54612efe565b5b80604052505050565b6000612f68612d5e565b9050612f748282612f2d565b919050565b600067ffffffffffffffff821115612f9457612f93612efe565b5b612f9d82612eed565b9050602081019050919050565b82818337600083830152505050565b6000612fcc612fc784612f79565b612f5e565b905082815260208101848484011115612fe857612fe7612ee8565b5b612ff3848285612faa565b509392505050565b600082601f8301126130105761300f612ee3565b5b8135613020848260208601612fb9565b91505092915050565b600063ffffffff82169050919050565b61304281613029565b811461304d57600080fd5b50565b60008135905061305f81613039565b92915050565b60008060006060848603121561307e5761307d612d68565b5b600061308c86828701612ece565b935050602084013567ffffffffffffffff8111156130ad576130ac612d6d565b5b6130b986828701612ffb565b92505060406130ca86828701613050565b9150509250925092565b600067ffffffffffffffff8211156130ef576130ee612efe565b5b6130f882612eed565b9050602081019050919050565b6000613118613113846130d4565b612f5e565b90508281526020810184848401111561313457613133612ee8565b5b61313f848285612faa565b509392505050565b600082601f83011261315c5761315b612ee3565b5b813561316c848260208601613105565b91505092915050565b60006020828403121561318b5761318a612d68565b5b600082013567ffffffffffffffff8111156131a9576131a8612d6d565b5b6131b584828501613147565b91505092915050565b6131c781612ea5565b82525050565b60006020820190506131e260008301846131be565b92915050565b6000819050919050565b6131fb816131e8565b811461320657600080fd5b50565b600081359050613218816131f2565b92915050565b60008060008060008060c0878903121561323b5761323a612d68565b5b600061324989828a01612ece565b965050602061325a89828a01612ece565b955050604087013567ffffffffffffffff81111561327b5761327a612d6d565b5b61328789828a01612ffb565b945050606061329889828a01613209565b93505060806132a989828a01613050565b92505060a06132ba89828a01613050565b9150509295509295509295565b6000602082840312156132dd576132dc612d68565b5b60006132eb84828501612ece565b91505092915050565b600080fd5b600080fd5b600060a08284031215613314576133136132f4565b5b61331e60a0612f5e565b9050600061332e84828501613209565b600083015250602061334284828501612d93565b602083015250604061335684828501613209565b604083015250606061336a84828501613209565b606083015250608082013567ffffffffffffffff81111561338e5761338d6132f9565b5b61339a84828501612ffb565b60808301525092915050565b600067ffffffffffffffff8211156133c1576133c0612efe565b5b602082029050602081019050919050565b600080fd5b60006133ea6133e5846133a6565b612f5e565b9050808382526020820190506020840283018581111561340d5761340c6133d2565b5b835b8181101561343657806134228882612d93565b84526020840193505060208101905061340f565b5050509392505050565b600082601f83011261345557613454612ee3565b5b81356134658482602086016133d7565b91505092915050565b600060408284031215613484576134836132f4565b5b61348e6040612f5e565b9050600061349e84828501613209565b600083015250602082013567ffffffffffffffff8111156134c2576134c16132f9565b5b6134ce84828501613440565b60208301525092915050565b600060a082840312156134f0576134ef6132f4565b5b6134fa60a0612f5e565b9050600061350a84828501612d93565b600083015250602082013567ffffffffffffffff81111561352e5761352d6132f9565b5b61353a848285016132fe565b602083015250604082013567ffffffffffffffff81111561355e5761355d6132f9565b5b61356a8482850161346e565b604083015250606082013567ffffffffffffffff81111561358e5761358d6132f9565b5b61359a84828501612ffb565b606083015250608082013567ffffffffffffffff8111156135be576135bd6132f9565b5b6135ca84828501612ffb565b60808301525092915050565b600080600080600060a086880312156135f2576135f1612d68565b5b600061360088828901612ece565b955050602061361188828901612ece565b945050604086013567ffffffffffffffff81111561363257613631612d6d565b5b61363e88828901612ffb565b935050606061364f88828901613209565b925050608086013567ffffffffffffffff8111156136705761366f612d6d565b5b61367c888289016134da565b9150509295509295909350565b600064ffffffffff82169050919050565b6136a381613689565b81146136ae57600080fd5b50565b6000815190506136c08161369a565b92915050565b6000602082840312156136dc576136db612d68565b5b60006136ea848285016136b1565b91505092915050565b600081519050919050565b600082825260208201905092915050565b60005b8381101561372d578082015181840152602081019050613712565b60008484015250505050565b6000613744826136f3565b61374e81856136fe565b935061375e81856020860161370f565b61376781612eed565b840191505092915050565b600061378d61378861378384613689565b612e2b565b6131e8565b9050919050565b61379d81613772565b82525050565b60006137be6137b96137b484613029565b612e2b565b6131e8565b9050919050565b6137ce816137a3565b82525050565b60006080820190506137e960008301876131be565b81810360208301526137fb8186613739565b905061380a6040830185613794565b61381760608301846137c5565b95945050505050565b600081519050919050565b600082825260208201905092915050565b600061384782613820565b613851818561382b565b935061386181856020860161370f565b61386a81612eed565b840191505092915050565b6000602082019050818103600083015261388f818461383c565b905092915050565b6000815190506138a681612eb7565b92915050565b6000602082840312156138c2576138c1612d68565b5b60006138d084828501613897565b91505092915050565b7f78446f6d61696e4d65737361676553656e646572206973206e6f742073657400600082015250565b600061390f601f8361382b565b915061391a826138d9565b602082019050919050565b6000602082019050818103600083015261393e81613902565b9050919050565b61394e816131e8565b82525050565b60006020820190506139696000830184613945565b92915050565b60008151905061397e81612d7c565b92915050565b60006060828403121561399a576139996132f4565b5b6139a46060612f5e565b905060006139b48482850161396f565b60008301525060206139c8848285016136b1565b60208301525060406139dc848285016136b1565b60408301525092915050565b6000606082840312156139fe576139fd612d68565b5b6000613a0c84828501613984565b91505092915050565b613a1e81613029565b82525050565b6000608082019050613a3960008301876131be565b613a4660208301866131be565b613a536040830185613a15565b8181036060830152613a658184613739565b905095945050505050565b7f50726f7669646564206d65737361676520686173206e6f74206265656e20656e60008201527f7175657565642e00000000000000000000000000000000000000000000000000602082015250565b6000613acc60278361382b565b9150613ad782613a70565b604082019050919050565b60006020820190508181036000830152613afb81613abf565b9050919050565b7f496e697469616c697a61626c653a20636f6e747261637420697320616c72656160008201527f647920696e697469616c697a6564000000000000000000000000000000000000602082015250565b6000613b5e602e8361382b565b9150613b6982613b02565b604082019050919050565b60006020820190508181036000830152613b8d81613b51565b9050919050565b7f4c3143726f7373446f6d61696e4d657373656e67657220616c7265616479206960008201527f6e7469616c697a65642e00000000000000000000000000000000000000000000602082015250565b6000613bf0602a8361382b565b9150613bfb82613b94565b604082019050919050565b60006020820190508181036000830152613c1f81613be3565b9050919050565b6000819050919050565b600060ff82169050919050565b6000613c58613c53613c4e84613c26565b612e2b565b613c30565b9050919050565b613c6881613c3d565b82525050565b6000602082019050613c836000830184613c5f565b92915050565b7f50726f7669646564206d65737361676520636f756c64206e6f7420626520766560008201527f7269666965642e00000000000000000000000000000000000000000000000000602082015250565b6000613ce560278361382b565b9150613cf082613c89565b604082019050919050565b60006020820190508181036000830152613d1481613cd8565b9050919050565b7f50726f7669646564206d6573736167652068617320616c72656164792062656560008201527f6e2072656365697665642e000000000000000000000000000000000000000000602082015250565b6000613d77602b8361382b565b9150613d8282613d1b565b604082019050919050565b60006020820190508181036000830152613da681613d6a565b9050919050565b7f50726f7669646564206d65737361676520686173206265656e20626c6f636b6560008201527f642e000000000000000000000000000000000000000000000000000000000000602082015250565b6000613e0960228361382b565b9150613e1482613dad565b604082019050919050565b60006020820190508181036000830152613e3881613dfc565b9050919050565b7f43616e6e6f742073656e64204c322d3e4c31206d6573736167657320746f204c60008201527f312073797374656d20636f6e7472616374732e00000000000000000000000000602082015250565b6000613e9b60338361382b565b9150613ea682613e3f565b604082019050919050565b60006020820190508181036000830152613eca81613e8e565b9050919050565b600081905092915050565b6000613ee7826136f3565b613ef18185613ed1565b9350613f0181856020860161370f565b80840191505092915050565b6000613f198284613edc565b915081905092915050565b60008160601b9050919050565b6000613f3c82613f24565b9050919050565b6000613f4e82613f31565b9050919050565b613f66613f6182612ea5565b613f43565b82525050565b6000819050919050565b613f87613f82826131e8565b613f6c565b82525050565b6000613f998286613edc565b9150613fa58285613f55565b601482019150613fb58284613f76565b602082019150819050949350505050565b7f4f776e61626c653a206e6577206f776e657220697320746865207a65726f206160008201527f6464726573730000000000000000000000000000000000000000000000000000602082015250565b600061402260268361382b565b915061402d82613fc6565b604082019050919050565b6000602082019050818103600083015261405181614015565b9050919050565b7f4f776e61626c653a2063616c6c6572206973206e6f7420746865206f776e6572600082015250565b600061408e60208361382b565b915061409982614058565b602082019050919050565b600060208201905081810360008301526140bd81614081565b9050919050565b60006080820190506140d960008301876131be565b6140e660208301866131be565b81810360408301526140f88185613739565b90506141076060830184613945565b95945050505050565b600060608201905061412560008301866131be565b6141326020830185613945565b81810360408301526141448184613739565b9050949350505050565b7f496e697469616c697a61626c653a20636f6e7472616374206973206e6f74206960008201527f6e697469616c697a696e67000000000000000000000000000000000000000000602082015250565b60006141aa602b8361382b565b91506141b58261414e565b604082019050919050565b600060208201905081810360008301526141d98161419d565b9050919050565b7f5265656e7472616e637947756172643a207265656e7472616e742063616c6c00600082015250565b6000614216601f8361382b565b9150614221826141e0565b602082019050919050565b6000602082019050818103600083015261424581614209565b9050919050565b7f5061757361626c653a2070617573656400000000000000000000000000000000600082015250565b600061428260108361382b565b915061428d8261424c565b602082019050919050565b600060208201905081810360008301526142b181614275565b9050919050565b6142c1816131e8565b82525050565b6142d081612d72565b82525050565b600082825260208201905092915050565b60006142f2826136f3565b6142fc81856142d6565b935061430c81856020860161370f565b61431581612eed565b840191505092915050565b600060a08301600083015161433860008601826142b8565b50602083015161434b60208601826142c7565b50604083015161435e60408601826142b8565b50606083015161437160608601826142b8565b506080830151848203608086015261438982826142e7565b9150508091505092915050565b600060208201905081810360008301526143b08184614320565b905092915050565b6143c181612dd5565b81146143cc57600080fd5b50565b6000815190506143de816143b8565b92915050565b6000602082840312156143fa576143f9612d68565b5b6000614408848285016143cf565b91505092915050565b61441a81612d72565b82525050565b600081519050919050565b600082825260208201905092915050565b6000819050602082019050919050565b600061445883836142c7565b60208301905092915050565b6000602082019050919050565b600061447c82614420565b614486818561442b565b93506144918361443c565b8060005b838110156144c25781516144a9888261444c565b97506144b483614464565b925050600181019050614495565b5085935050505092915050565b60006040830160008301516144e760008601826142b8565b50602083015184820360208601526144ff8282614471565b9150508091505092915050565b60006060820190506145216000830186614411565b81810360208301526145338185614320565b9050818103604083015261454781846144cf565b9050949350505050565b600061455d8285613edc565b91506145698284613f55565b6014820191508190509392505050565b6000819050919050565b61459461458f82612d72565b614579565b82525050565b60006145a68285614583565b6020820191506145b68284613f76565b6020820191508190509392505050565b60006145d28284613f55565b60148201915081905092915050565b7f4d6573736167652070617373696e67207072656465706c6f7920686173206e6f60008201527f74206265656e20696e697469616c697a6564206f7220696e76616c696420707260208201527f6f6f662070726f76696465642e00000000000000000000000000000000000000604082015250565b6000614663604d8361382b565b915061466e826145e1565b606082019050919050565b6000602082019050818103600083015261469281614656565b9050919050565b60006146a58284614583565b60208201915081905092915050565b60008160f81b9050919050565b60006146cc826146b4565b9050919050565b6146e46146df82613c30565b6146c1565b82525050565b60006146f682846146d3565b60018201915081905092915050565b7f4e487b7100000000000000000000000000000000000000000000000000000000600052603260045260246000fd5b7f50726f76696465642070726f6f6620697320696e76616c69642e000000000000600082015250565b600061476a601a8361382b565b915061477582614734565b602082019050919050565b600060208201905081810360008301526147998161475d565b9050919050565b7f4e487b7100000000000000000000000000000000000000000000000000000000600052601160045260246000fd5b60006147da826131e8565b91506147e5836131e8565b92508282039050818111156147fd576147fc6147a0565b5b92915050565b7f496e76616c696420524c5020627974657333322076616c75652e000000000000600082015250565b6000614839601a8361382b565b915061484482614803565b602082019050919050565b600060208201905081810360008301526148688161482c565b9050919050565b7f4e487b7100000000000000000000000000000000000000000000000000000000600052602160045260246000fd5b60006148a9826131e8565b91506148b4836131e8565b92508282019050808211156148cc576148cb6147a0565b5b92915050565b60006148dd826131e8565b91507fffffffffffffffffffffffffffffffffffffffffffffffffffffffffffffffff820361490f5761490e6147a0565b5b600182019050919050565b7f496e76616c696420726f6f742068617368000000000000000000000000000000600082015250565b600061495060118361382b565b915061495b8261491a565b602082019050919050565b6000602082019050818103600083015261497f81614943565b9050919050565b7f496e76616c6964206c6172676520696e7465726e616c20686173680000000000600082015250565b60006149bc601b8361382b565b91506149c782614986565b602082019050919050565b600060208201905081810360008301526149eb816149af565b9050919050565b7f496e76616c696420696e7465726e616c206e6f64652068617368000000000000600082015250565b6000614a28601a8361382b565b9150614a33826149f2565b602082019050919050565b60006020820190508181036000830152614a5781614a1b565b9050919050565b7f4e487b7100000000000000000000000000000000000000000000000000000000600052601260045260246000fd5b6000614a9882613c30565b9150614aa383613c30565b925082614ab357614ab2614a5e565b5b828206905092915050565b6000614ac982613c30565b9150614ad483613c30565b9250828203905060ff811115614aed57614aec6147a0565b5b92915050565b7f52656365697665642061206e6f6465207769746820616e20756e6b6e6f776e2060008201527f7072656669780000000000000000000000000000000000000000000000000000602082015250565b6000614b4f60268361382b565b9150614b5a82614af3565b604082019050919050565b60006020820190508181036000830152614b7e81614b42565b9050919050565b7f526563656976656420616e20756e706172736561626c65206e6f64652e000000600082015250565b6000614bbb601d8361382b565b9150614bc682614b85565b602082019050919050565b60006020820190508181036000830152614bea81614bae565b9050919050565b7f496e76616c696420524c50206c6973742076616c75652e000000000000000000600082015250565b6000614c2760178361382b565b9150614c3282614bf1565b602082019050919050565b60006020820190508181036000830152614c5681614c1a565b9050919050565b7f50726f766964656420524c50206c6973742065786365656473206d6178206c6960008201527f7374206c656e6774682e00000000000000000000000000000000000000000000602082015250565b6000614cb9602a8361382b565b9150614cc482614c5d565b604082019050919050565b60006020820190508181036000830152614ce881614cac565b9050919050565b7f524c50206974656d2063616e6e6f74206265206e756c6c2e0000000000000000600082015250565b6000614d2560188361382b565b9150614d3082614cef565b602082019050919050565b60006020820190508181036000830152614d5481614d18565b9050919050565b7f496e76616c696420524c502073686f727420737472696e672e00000000000000600082015250565b6000614d9160198361382b565b9150614d9c82614d5b565b602082019050919050565b60006020820190508181036000830152614dc081614d84565b9050919050565b7f496e76616c696420524c50206c6f6e6720737472696e67206c656e6774682e00600082015250565b6000614dfd601f8361382b565b9150614e0882614dc7565b602082019050919050565b60006020820190508181036000830152614e2c81614df0565b9050919050565b7f496e76616c696420524c50206c6f6e6720737472696e672e0000000000000000600082015250565b6000614e6960188361382b565b9150614e7482614e33565b602082019050919050565b60006020820190508181036000830152614e9881614e5c565b9050919050565b7f496e76616c696420524c502073686f7274206c6973742e000000000000000000600082015250565b6000614ed560178361382b565b9150614ee082614e9f565b602082019050919050565b60006020820190508181036000830152614f0481614ec8565b9050919050565b7f496e76616c696420524c50206c6f6e67206c697374206c656e6774682e000000600082015250565b6000614f41601d8361382b565b9150614f4c82614f0b565b602082019050919050565b60006020820190508181036000830152614f7081614f34565b9050919050565b7f496e76616c696420524c50206c6f6e67206c6973742e00000000000000000000600082015250565b6000614fad60168361382b565b9150614fb882614f77565b602082019050919050565b60006020820190508181036000830152614fdc81614fa0565b9050919050565b7f496e76616c696420524c502062797465732076616c75652e0000000000000000600082015250565b600061501960188361382b565b915061502482614fe3565b602082019050919050565b600060208201905081810360008301526150488161500c565b9050919050565b600061505a826131e8565b9150615065836131e8565b9250828202615073816131e8565b9150828204841483151761508a576150896147a0565b5b5092915050565b6000602082840312156150a7576150a6612d68565b5b60006150b58482850161396f565b91505092915050565b60006150c9826131e8565b91506150d4836131e8565b9250826150e4576150e3614a5e565b5b828204905092915050565b7f736c6963655f6f766572666c6f77000000000000000000000000000000000000600082015250565b6000615125600e8361382b565b9150615130826150ef565b602082019050919050565b6000602082019050818103600083015261515481615118565b9050919050565b7f736c6963655f6f75744f66426f756e6473000000000000000000000000000000600082015250565b600061519160118361382b565b915061519c8261515b565b602082019050919050565b600060208201905081810360008301526151c081615184565b905091905056fea26469706673582212206ec6e02cc076ae3a3ded9968da71e30ac46859b9bccf45e8839aadb1e1e3cc0364736f6c63430008120033",
  "linkReferences": {},
  "deployedLinkReferences": {}
}