{
  "_format": "hh-sol-artifact-1",
  "contractName": "L1CrossDomainMessenger",
  "sourceName": "contracts/L1/messaging/L1CrossDomainMessenger.sol",
  "abi": [
    {
      "inputs": [],
      "stateMutability": "nonpayable",
      "type": "constructor"
    },
    {
      "anonymous": false,
      "inputs": [
        {
          "indexed": true,
          "internalType": "bytes32",
          "name": "msgHash",
          "type": "bytes32"
        }
      ],
      "name": "FailedRelayedMessage",
      "type": "event"
    },
    {
      "anonymous": false,
      "inputs": [
        {
          "indexed": false,
          "internalType": "uint8",
          "name": "version",
          "type": "uint8"
        }
      ],
      "name": "Initialized",
      "type": "event"
    },
    {
      "anonymous": false,
      "inputs": [
        {
          "indexed": true,
          "internalType": "bytes32",
          "name": "_xDomainCalldataHash",
          "type": "bytes32"
        }
      ],
      "name": "MessageAllowed",
      "type": "event"
    },
    {
      "anonymous": false,
      "inputs": [
        {
          "indexed": true,
          "internalType": "bytes32",
          "name": "_xDomainCalldataHash",
          "type": "bytes32"
        }
      ],
      "name": "MessageBlocked",
      "type": "event"
    },
    {
      "anonymous": false,
      "inputs": [
        {
          "indexed": true,
          "internalType": "address",
          "name": "previousOwner",
          "type": "address"
        },
        {
          "indexed": true,
          "internalType": "address",
          "name": "newOwner",
          "type": "address"
        }
      ],
      "name": "OwnershipTransferred",
      "type": "event"
    },
    {
      "anonymous": false,
      "inputs": [
        {
          "indexed": false,
          "internalType": "address",
          "name": "account",
          "type": "address"
        }
      ],
      "name": "Paused",
      "type": "event"
    },
    {
      "anonymous": false,
      "inputs": [
        {
          "indexed": true,
          "internalType": "bytes32",
          "name": "msgHash",
          "type": "bytes32"
        }
      ],
      "name": "RelayedMessage",
      "type": "event"
    },
    {
      "anonymous": false,
      "inputs": [
        {
          "indexed": true,
          "internalType": "address",
          "name": "target",
          "type": "address"
        },
        {
          "indexed": false,
          "internalType": "address",
          "name": "sender",
          "type": "address"
        },
        {
          "indexed": false,
          "internalType": "bytes",
          "name": "message",
          "type": "bytes"
        },
        {
          "indexed": false,
          "internalType": "uint256",
          "name": "messageNonce",
          "type": "uint256"
        },
        {
          "indexed": false,
          "internalType": "uint256",
          "name": "gasLimit",
          "type": "uint256"
        }
      ],
      "name": "SentMessage",
      "type": "event"
    },
    {
      "anonymous": false,
      "inputs": [
        {
          "indexed": false,
          "internalType": "address",
          "name": "account",
          "type": "address"
        }
      ],
      "name": "Unpaused",
      "type": "event"
    },
    {
      "inputs": [
        {
          "internalType": "bytes32",
          "name": "_xDomainCalldataHash",
          "type": "bytes32"
        }
      ],
      "name": "allowMessage",
      "outputs": [],
      "stateMutability": "nonpayable",
      "type": "function"
    },
    {
      "inputs": [
        {
          "internalType": "bytes32",
          "name": "_xDomainCalldataHash",
          "type": "bytes32"
        }
      ],
      "name": "blockMessage",
      "outputs": [],
      "stateMutability": "nonpayable",
      "type": "function"
    },
    {
      "inputs": [
        {
          "internalType": "bytes32",
          "name": "",
          "type": "bytes32"
        }
      ],
      "name": "blockedMessages",
      "outputs": [
        {
          "internalType": "bool",
          "name": "",
          "type": "bool"
        }
      ],
      "stateMutability": "view",
      "type": "function"
    },
    {
      "inputs": [
        {
          "internalType": "address",
          "name": "_libAddressManager",
          "type": "address"
        }
      ],
      "name": "initialize",
      "outputs": [],
      "stateMutability": "nonpayable",
      "type": "function"
    },
    {
      "inputs": [],
      "name": "libAddressManager",
      "outputs": [
        {
          "internalType": "contract Lib_AddressManager",
          "name": "",
          "type": "address"
        }
      ],
      "stateMutability": "view",
      "type": "function"
    },
    {
      "inputs": [],
      "name": "owner",
      "outputs": [
        {
          "internalType": "address",
          "name": "",
          "type": "address"
        }
      ],
      "stateMutability": "view",
      "type": "function"
    },
    {
      "inputs": [],
      "name": "pause",
      "outputs": [],
      "stateMutability": "nonpayable",
      "type": "function"
    },
    {
      "inputs": [],
      "name": "paused",
      "outputs": [
        {
          "internalType": "bool",
          "name": "",
          "type": "bool"
        }
      ],
      "stateMutability": "view",
      "type": "function"
    },
    {
      "inputs": [
        {
          "internalType": "address",
          "name": "_target",
          "type": "address"
        },
        {
          "internalType": "address",
          "name": "_sender",
          "type": "address"
        },
        {
          "internalType": "bytes",
          "name": "_message",
          "type": "bytes"
        },
        {
          "internalType": "uint256",
          "name": "_messageNonce",
          "type": "uint256"
        },
        {
          "components": [
            {
              "internalType": "bytes32",
              "name": "stateRoot",
              "type": "bytes32"
            },
            {
              "components": [
                {
                  "internalType": "uint256",
                  "name": "batchIndex",
                  "type": "uint256"
                },
                {
                  "internalType": "bytes32",
                  "name": "batchRoot",
                  "type": "bytes32"
                },
                {
                  "internalType": "uint256",
                  "name": "batchSize",
                  "type": "uint256"
                },
                {
                  "internalType": "uint256",
                  "name": "prevTotalElements",
                  "type": "uint256"
                },
                {
                  "internalType": "bytes",
                  "name": "extraData",
                  "type": "bytes"
                }
              ],
              "internalType": "struct Lib_OVMCodec.ChainBatchHeader",
              "name": "stateRootBatchHeader",
              "type": "tuple"
            },
            {
              "components": [
                {
                  "internalType": "uint256",
                  "name": "index",
                  "type": "uint256"
                },
                {
                  "internalType": "bytes32[]",
                  "name": "siblings",
                  "type": "bytes32[]"
                }
              ],
              "internalType": "struct Lib_OVMCodec.ChainInclusionProof",
              "name": "stateRootProof",
              "type": "tuple"
            },
            {
              "internalType": "bytes",
              "name": "stateTrieWitness",
              "type": "bytes"
            },
            {
              "internalType": "bytes",
              "name": "storageTrieWitness",
              "type": "bytes"
            }
          ],
          "internalType": "struct IL1CrossDomainMessenger.L2MessageInclusionProof",
          "name": "_proof",
          "type": "tuple"
        }
      ],
      "name": "relayMessage",
      "outputs": [],
      "stateMutability": "nonpayable",
      "type": "function"
    },
    {
      "inputs": [
        {
          "internalType": "bytes32",
          "name": "",
          "type": "bytes32"
        }
      ],
      "name": "relayedMessages",
      "outputs": [
        {
          "internalType": "bool",
          "name": "",
          "type": "bool"
        }
      ],
      "stateMutability": "view",
      "type": "function"
    },
    {
      "inputs": [],
      "name": "renounceOwnership",
      "outputs": [],
      "stateMutability": "nonpayable",
      "type": "function"
    },
    {
      "inputs": [
        {
          "internalType": "address",
          "name": "_target",
          "type": "address"
        },
        {
          "internalType": "address",
          "name": "_sender",
          "type": "address"
        },
        {
          "internalType": "bytes",
          "name": "_message",
          "type": "bytes"
        },
        {
          "internalType": "uint256",
          "name": "_queueIndex",
          "type": "uint256"
        },
        {
          "internalType": "uint32",
          "name": "_oldGasLimit",
          "type": "uint32"
        },
        {
          "internalType": "uint32",
          "name": "_newGasLimit",
          "type": "uint32"
        }
      ],
      "name": "replayMessage",
      "outputs": [],
      "stateMutability": "nonpayable",
      "type": "function"
    },
    {
      "inputs": [
        {
          "internalType": "string",
          "name": "_name",
          "type": "string"
        }
      ],
      "name": "resolve",
      "outputs": [
        {
          "internalType": "address",
          "name": "",
          "type": "address"
        }
      ],
      "stateMutability": "view",
      "type": "function"
    },
    {
      "inputs": [
        {
          "internalType": "address",
          "name": "_target",
          "type": "address"
        },
        {
          "internalType": "bytes",
          "name": "_message",
          "type": "bytes"
        },
        {
          "internalType": "uint32",
          "name": "_gasLimit",
          "type": "uint32"
        }
      ],
      "name": "sendMessage",
      "outputs": [],
      "stateMutability": "nonpayable",
      "type": "function"
    },
    {
      "inputs": [
        {
          "internalType": "bytes32",
          "name": "",
          "type": "bytes32"
        }
      ],
      "name": "successfulMessages",
      "outputs": [
        {
          "internalType": "bool",
          "name": "",
          "type": "bool"
        }
      ],
      "stateMutability": "view",
      "type": "function"
    },
    {
      "inputs": [
        {
          "internalType": "address",
          "name": "newOwner",
          "type": "address"
        }
      ],
      "name": "transferOwnership",
      "outputs": [],
      "stateMutability": "nonpayable",
      "type": "function"
    },
    {
      "inputs": [],
      "name": "xDomainMessageSender",
      "outputs": [
        {
          "internalType": "address",
          "name": "",
          "type": "address"
        }
      ],
      "stateMutability": "view",
      "type": "function"
    }
  ],
  "bytecode": "0x608060405260cc80546001600160a01b03191661dead17905534801561002457600080fd5b50600080546001600160a01b03191690556133c3806100446000396000f3fe608060405234801561001057600080fd5b506004361061011b5760003560e01c8063715018a6116100b2578063b1b1b20911610081578063c6b94ab011610066578063c6b94ab01461024e578063d7fd19dd14610271578063f2fde38b1461028457600080fd5b8063b1b1b20914610218578063c4d66de81461023b57600080fd5b8063715018a6146101e457806381ada46c146101ec5780638456cb59146101ff5780638da5cb5b1461020757600080fd5b8063461a4478116100ee578063461a4478146101ab5780635c975abb146101be5780636e296e45146101c95780636f1c8d47146101d157600080fd5b80630ecf2eea1461012057806321d800ec14610135578063299ca4781461016d5780633dbb202b14610198575b600080fd5b61013361012e3660046129f2565b610297565b005b6101586101433660046129f2565b60ca6020526000908152604090205460ff1681565b60405190151581526020015b60405180910390f35b600054610180906001600160a01b031681565b6040516001600160a01b039091168152602001610164565b6101336101a6366004612b44565b6102e2565b6101806101b9366004612ba4565b610401565b60655460ff16610158565b610180610492565b6101336101df366004612bf5565b610507565b6101336106d2565b6101336101fa3660046129f2565b6106e6565b61013361072e565b6033546001600160a01b0316610180565b6101586102263660046129f2565b60cb6020526000908152604090205460ff1681565b610133610249366004612c81565b61073e565b61015861025c3660046129f2565b60c96020526000908152604090205460ff1681565b61013361027f366004612dca565b610964565b610133610292366004612c81565b610d5d565b61029f610ded565b600081815260c96020526040808220805460ff191660011790555182917ff52508d5339edf0d7e5060a416df98db067af561bdc60872d29c0439eaa13a0291a250565b60006103226040518060400160405280601981526020017f43616e6f6e6963616c5472616e73616374696f6e436861696e00000000000000815250610401565b90506000816001600160a01b031663b8f770056040518163ffffffff1660e01b8152600401602060405180830381865afa158015610364573d6000803e3d6000fd5b505050506040513d601f19601f820116820180604052508101906103889190612f18565b9050600061039f8633878564ffffffffff16610e47565b90506103b283828663ffffffff16610ec2565b856001600160a01b03167fcb0f7ffd78f9aee47a248fae8db181db6eee833039123e026dcbff529522e52a338785886040516103f19493929190612f83565b60405180910390a2505050505050565b600080546040517fbf40fac10000000000000000000000000000000000000000000000000000000081526001600160a01b039091169063bf40fac19061044b908590600401612fc9565b602060405180830381865afa158015610468573d6000803e3d6000fd5b505050506040513d601f19601f8201168201806040525081019061048c9190612fdc565b92915050565b60cc546000906001600160a01b031661deac19016104f75760405162461bcd60e51b815260206004820152601f60248201527f78446f6d61696e4d65737361676553656e646572206973206e6f74207365740060448201526064015b60405180910390fd5b5060cc546001600160a01b031690565b60006105476040518060400160405280601981526020017f43616e6f6e6963616c5472616e73616374696f6e436861696e00000000000000815250610401565b6040517f2a7f18be000000000000000000000000000000000000000000000000000000008152600481018690529091506000906001600160a01b03831690632a7f18be90602401606060405180830381865afa1580156105ab573d6000803e3d6000fd5b505050506040513d601f19601f820116820180604052508101906105cf9190612ff9565b905060006105df89898989610e47565b9050600073111100000000000000000000000000000000111130017342000000000000000000000000000000000000078784604051602001610624949392919061305e565b604051602081830303815290604052805190602001209050826000015181146106b55760405162461bcd60e51b815260206004820152602760248201527f50726f7669646564206d65737361676520686173206e6f74206265656e20656e60448201527f7175657565642e0000000000000000000000000000000000000000000000000060648201526084016104ee565b6106c684838763ffffffff16610ec2565b50505050505050505050565b6106da610ded565b6106e46000610f56565b565b6106ee610ded565b600081815260c96020526040808220805460ff191690555182917f52c8a2680a9f4cc0ad0bf88f32096eadbebf0646ea611d93a0ce6a29a024040591a250565b610736610ded565b6106e4610fb5565b600054600160a81b900460ff161580801561076657506000546001600160a01b90910460ff16105b806107875750303b1580156107875750600054600160a01b900460ff166001145b6107f95760405162461bcd60e51b815260206004820152602e60248201527f496e697469616c697a61626c653a20636f6e747261637420697320616c72656160448201527f647920696e697469616c697a656400000000000000000000000000000000000060648201526084016104ee565b600080547fffffffffffffffffffffff00ffffffffffffffffffffffffffffffffffffffff16600160a01b1790558015610841576000805460ff60a81b1916600160a81b1790555b6000546001600160a01b0316156108c05760405162461bcd60e51b815260206004820152602a60248201527f4c3143726f7373446f6d61696e4d657373656e67657220616c7265616479206960448201527f6e7469616c697a65642e0000000000000000000000000000000000000000000060648201526084016104ee565b600080546001600160a01b03841673ffffffffffffffffffffffffffffffffffffffff199182161790915560cc805490911661dead17905561090061100f565b61090861107c565b6109106110f2565b61091861116b565b8015610960576000805460ff60a81b19169055604051600181527f7f26b83ff96e1f2b6a682f133852f6798a09c465da95921460cefb38474024989060200160405180910390a15b5050565b61096c6111df565b610974611238565b600061098286868686610e47565b905061098e818361128b565b1515600114610a055760405162461bcd60e51b815260206004820152602760248201527f50726f7669646564206d65737361676520636f756c64206e6f7420626520766560448201527f7269666965642e0000000000000000000000000000000000000000000000000060648201526084016104ee565b8051602080830191909120600081815260cb90925260409091205460ff1615610a965760405162461bcd60e51b815260206004820152602b60248201527f50726f7669646564206d6573736167652068617320616c72656164792062656560448201527f6e2072656365697665642e00000000000000000000000000000000000000000060648201526084016104ee565b600081815260c9602052604090205460ff1615610b1b5760405162461bcd60e51b815260206004820152602260248201527f50726f7669646564206d65737361676520686173206265656e20626c6f636b6560448201527f642e00000000000000000000000000000000000000000000000000000000000060648201526084016104ee565b610b596040518060400160405280601981526020017f43616e6f6e6963616c5472616e73616374696f6e436861696e00000000000000815250610401565b6001600160a01b0316876001600160a01b031603610bdf5760405162461bcd60e51b815260206004820152603360248201527f43616e6e6f742073656e64204c322d3e4c31206d6573736167657320746f204c60448201527f312073797374656d20636f6e7472616374732e0000000000000000000000000060648201526084016104ee565b60cc805473ffffffffffffffffffffffffffffffffffffffff19166001600160a01b0388811691909117909155604051600091891690610c20908890613096565b6000604051808303816000865af19150503d8060008114610c5d576040519150601f19603f3d011682016040523d82523d6000602084013e610c62565b606091505b505060cc805473ffffffffffffffffffffffffffffffffffffffff191661dead1790559050801515600103610cd657600082815260cb6020526040808220805460ff191660011790555183917f4641df4a962071e12719d8c8c8e5ac7fc4d97b927346a3d7a335b1f7517e133c91a2610d02565b60405182907f99d0e048484baa1b1540b1367cb128acd7ab2946d1ed91ec10e3c85e4bf51b8f90600090a25b6000833343604051602001610d19939291906130b2565b60408051601f198184030181529181528151602092830120600090815260ca9092529020805460ff1916600117905550610d5692506111d8915050565b5050505050565b610d65610ded565b6001600160a01b038116610de15760405162461bcd60e51b815260206004820152602660248201527f4f776e61626c653a206e6577206f776e657220697320746865207a65726f206160448201527f646472657373000000000000000000000000000000000000000000000000000060648201526084016104ee565b610dea81610f56565b50565b6033546001600160a01b031633146106e45760405162461bcd60e51b815260206004820181905260248201527f4f776e61626c653a2063616c6c6572206973206e6f7420746865206f776e657260448201526064016104ee565b606084848484604051602401610e6094939291906130f1565b60408051601f198184030181529190526020810180517bffffffffffffffffffffffffffffffffffffffffffffffffffffffff167fcbd4ece9000000000000000000000000000000000000000000000000000000001790529050949350505050565b6040517f6fee07e00000000000000000000000000000000000000000000000000000000081526001600160a01b03841690636fee07e090610f1f90734200000000000000000000000000000000000007908590879060040161312e565b600060405180830381600087803b158015610f3957600080fd5b505af1158015610f4d573d6000803e3d6000fd5b50505050505050565b603380546001600160a01b0383811673ffffffffffffffffffffffffffffffffffffffff19831681179093556040519116919082907f8be0079c531659141344cd1fd0a4f28419497f9722a3daafe3b4186f6b6457e090600090a35050565b610fbd611238565b6065805460ff191660011790557f62e78cea01bee320cd4e420270b5ea74000d11b0c9f74754ebdbfc544b05a258610ff23390565b6040516001600160a01b03909116815260200160405180910390a1565b600054600160a81b900460ff166106e45760405162461bcd60e51b815260206004820152602b60248201527f496e697469616c697a61626c653a20636f6e7472616374206973206e6f74206960448201526a6e697469616c697a696e6760a81b60648201526084016104ee565b600054600160a81b900460ff166110e95760405162461bcd60e51b815260206004820152602b60248201527f496e697469616c697a61626c653a20636f6e7472616374206973206e6f74206960448201526a6e697469616c697a696e6760a81b60648201526084016104ee565b6106e433610f56565b600054600160a81b900460ff1661115f5760405162461bcd60e51b815260206004820152602b60248201527f496e697469616c697a61626c653a20636f6e7472616374206973206e6f74206960448201526a6e697469616c697a696e6760a81b60648201526084016104ee565b6065805460ff19169055565b600054600160a81b900460ff166111d85760405162461bcd60e51b815260206004820152602b60248201527f496e697469616c697a61626c653a20636f6e7472616374206973206e6f74206960448201526a6e697469616c697a696e6760a81b60648201526084016104ee565b6001609755565b6002609754036112315760405162461bcd60e51b815260206004820152601f60248201527f5265656e7472616e637947756172643a207265656e7472616e742063616c6c0060448201526064016104ee565b6002609755565b60655460ff16156106e45760405162461bcd60e51b815260206004820152601060248201527f5061757361626c653a207061757365640000000000000000000000000000000060448201526064016104ee565b6000611296826112ae565b80156112a757506112a78383611418565b9392505050565b6000806112ef6040518060400160405280601481526020017f5374617465436f6d6d69746d656e74436861696e000000000000000000000000815250610401565b60208401516040517f9418bddd0000000000000000000000000000000000000000000000000000000081529192506001600160a01b03831691639418bddd9161133a91600401613193565b602060405180830381865afa158015611357573d6000803e3d6000fd5b505050506040513d601f19601f8201168201806040525081019061137b91906131a6565b1580156112a757508251602084015160408086015190517f4d69ee570000000000000000000000000000000000000000000000000000000081526001600160a01b03851693634d69ee57936113d79391929091906004016131c8565b602060405180830381865afa1580156113f4573d6000803e3d6000fd5b505050506040513d601f19601f820116820180604052508101906112a791906131a6565b60008083734200000000000000000000000000000000000007604051602001611442929190613240565b60408051601f1981840301815282825280516020918201209083015260009082015260600160408051601f198184030181529082905280516020918201207f420000000000000000000000000000000000000000000000000000000000000091830191909152915060009081906114d29060340160408051601f19818403018152919052606087015187516115fc565b90925090506001821515146115755760405162461bcd60e51b815260206004820152604d60248201527f4d6573736167652070617373696e67207072656465706c6f7920686173206e6f60448201527f74206265656e20696e697469616c697a6564206f7220696e76616c696420707260648201527f6f6f662070726f76696465642e00000000000000000000000000000000000000608482015260a4016104ee565b600061158082611625565b90506115f18460405160200161159891815260200190565b60408051601f19818403018152908290527f0100000000000000000000000000000000000000000000000000000000000000602083015290602101604051602081830303815290604052886080015184604001516116e9565b979650505050505050565b60006060600061160b8661170d565b905061161881868661173f565b9250925050935093915050565b6040805160808101825260008082526020820181905291810182905260608101829052906116528361181a565b905060405180608001604052806116828360008151811061167557611675613277565b602002602001015161184d565b815260200161169d8360018151811061167557611675613277565b81526020016116c5836002815181106116b8576116b8613277565b6020026020010151611854565b81526020016116e0836003815181106116b8576116b8613277565b90529392505050565b6000806116f58661170d565b905061170381868686611956565b9695505050505050565b6060818051906020012060405160200161172991815260200190565b6040516020818303038152906040529050919050565b60006060600061174e8561198c565b90506000806000611760848a89611a87565b815192955090935091501580806117745750815b6117c05760405162461bcd60e51b815260206004820152601a60248201527f50726f76696465642070726f6f6620697320696e76616c69642e00000000000060448201526064016104ee565b6000816117dc5760405180602001604052806000815250611808565b611808866117eb6001886132a3565b815181106117fb576117fb613277565b6020026020010151611ec9565b919b919a509098505050505050505050565b60408051808201825260008082526020918201528151808301909252825182528083019082015260609061048c90611ef3565b600061048c825b60006021826000015111156118ab5760405162461bcd60e51b815260206004820152601a60248201527f496e76616c696420524c5020627974657333322076616c75652e00000000000060448201526064016104ee565b60008060006118b9856120f2565b9194509250905060008160018111156118d4576118d46132b6565b146119215760405162461bcd60e51b815260206004820152601a60248201527f496e76616c696420524c5020627974657333322076616c75652e00000000000060448201526064016104ee565b600083866020015161193391906132cc565b805190915060208410156117035760208490036101000a90049695505050505050565b600080600061196687868661173f565b915091508180156115f157508051602080830191909120875191880191909120146115f1565b606060006119998361181a565b90506000815167ffffffffffffffff8111156119b7576119b7612a20565b6040519080825280602002602001820160405280156119fc57816020015b60408051808201909152606080825260208201528152602001906001900390816119d55790505b50905060005b8251811015611a7f576000611a2f848381518110611a2257611a22613277565b6020026020010151612443565b90506040518060400160405280828152602001611a4b8361181a565b815250838381518110611a6057611a60613277565b6020026020010181905250508080611a77906132df565b915050611a02565b509392505050565b60006060818080611a97876124d3565b90506000869050600080611abe604051806040016040528060608152602001606081525090565b60005b8c51811015611ea1578c8181518110611adc57611adc613277565b602002602001015191508284611af291906132cc565b9350611aff6001886132cc565b965083600003611b6657815180516020909101208514611b615760405162461bcd60e51b815260206004820152601160248201527f496e76616c696420726f6f74206861736800000000000000000000000000000060448201526064016104ee565b611c23565b815151602011611bc857815180516020909101208514611b615760405162461bcd60e51b815260206004820152601b60248201527f496e76616c6964206c6172676520696e7465726e616c2068617368000000000060448201526064016104ee565b84611bd68360000151612626565b14611c235760405162461bcd60e51b815260206004820152601a60248201527f496e76616c696420696e7465726e616c206e6f6465206861736800000000000060448201526064016104ee565b611c2f601060016132cc565b82602001515103611ca15785518414611ea1576000868581518110611c5657611c56613277565b602001015160f81c60f81b60f81c9050600083602001518260ff1681518110611c8157611c81613277565b60200260200101519050611c948161264e565b9650600194505050611e8f565b600282602001515103611e47576000611cb983612684565b9050600081600081518110611cd057611cd0613277565b016020015160f81c90506000611ce760028361330e565b611cf2906002613330565b90506000611d03848360ff166126a8565b90506000611d118b8a6126a8565b90506000611d1f83836126de565b905060ff851660021480611d36575060ff85166003145b15611d7057808351148015611d4b5750808251145b15611d5d57611d5a818b6132cc565b99505b50600160ff1b9950611ea1945050505050565b60ff85161580611d83575060ff85166001145b15611dd95782518114611da35750600160ff1b9950611ea1945050505050565b611dca8860200151600181518110611dbd57611dbd613277565b602002602001015161264e565b9a509750611e8f945050505050565b60405162461bcd60e51b815260206004820152602660248201527f52656365697665642061206e6f6465207769746820616e20756e6b6e6f776e2060448201527f707265666978000000000000000000000000000000000000000000000000000060648201526084016104ee565b60405162461bcd60e51b815260206004820152601d60248201527f526563656976656420616e20756e706172736561626c65206e6f64652e00000060448201526064016104ee565b80611e99816132df565b915050611ac1565b50600160ff1b841486611eb487866126a8565b909e909d50909b509950505050505050505050565b6020810151805160609161048c91611ee3906001906132a3565b81518110611a2257611a22613277565b6060600080611f01846120f2565b91935090915060019050816001811115611f1d57611f1d6132b6565b14611f6a5760405162461bcd60e51b815260206004820152601760248201527f496e76616c696420524c50206c6973742076616c75652e00000000000000000060448201526064016104ee565b6040805160208082526104208201909252600091816020015b6040805180820190915260008082526020820152815260200190600190039081611f835790505090506000835b86518110156120e7576020821061202f5760405162461bcd60e51b815260206004820152602a60248201527f50726f766964656420524c50206c6973742065786365656473206d6178206c6960448201527f7374206c656e6774682e0000000000000000000000000000000000000000000060648201526084016104ee565b60008061206c6040518060400160405280858c6000015161205091906132a3565b8152602001858c6020015161206591906132cc565b90526120f2565b50915091506040518060400160405280838361208891906132cc565b8152602001848b6020015161209d91906132cc565b8152508585815181106120b2576120b2613277565b60209081029190910101526120c86001856132cc565b93506120d481836132cc565b6120de90846132cc565b92505050611fb0565b508152949350505050565b60008060008084600001511161214a5760405162461bcd60e51b815260206004820152601860248201527f524c50206974656d2063616e6e6f74206265206e756c6c2e000000000000000060448201526064016104ee565b6020840151805160001a607f811161216f57600060016000945094509450505061243c565b60b781116121eb5760006121846080836132a3565b9050808760000151116121d95760405162461bcd60e51b815260206004820152601960248201527f496e76616c696420524c502073686f727420737472696e672e0000000000000060448201526064016104ee565b6001955093506000925061243c915050565b60bf81116122da57600061220060b7836132a3565b9050808760000151116122555760405162461bcd60e51b815260206004820152601f60248201527f496e76616c696420524c50206c6f6e6720737472696e67206c656e6774682e0060448201526064016104ee565b600183015160208290036101000a900461226f81836132cc565b8851116122be5760405162461bcd60e51b815260206004820152601860248201527f496e76616c696420524c50206c6f6e6720737472696e672e000000000000000060448201526064016104ee565b6122c98260016132cc565b965094506000935061243c92505050565b60f781116123555760006122ef60c0836132a3565b9050808760000151116123445760405162461bcd60e51b815260206004820152601760248201527f496e76616c696420524c502073686f7274206c6973742e00000000000000000060448201526064016104ee565b60019550935084925061243c915050565b600061236260f7836132a3565b9050808760000151116123b75760405162461bcd60e51b815260206004820152601d60248201527f496e76616c696420524c50206c6f6e67206c697374206c656e6774682e00000060448201526064016104ee565b600183015160208290036101000a90046123d181836132cc565b8851116124205760405162461bcd60e51b815260206004820152601660248201527f496e76616c696420524c50206c6f6e67206c6973742e0000000000000000000060448201526064016104ee565b61242b8260016132cc565b965094506001935061243c92505050565b9193909250565b60606000806000612453856120f2565b91945092509050600081600181111561246e5761246e6132b6565b146124bb5760405162461bcd60e51b815260206004820152601860248201527f496e76616c696420524c502062797465732076616c75652e000000000000000060448201526064016104ee565b6124ca85602001518484612772565b95945050505050565b60606000825160026124e59190613349565b67ffffffffffffffff8111156124fd576124fd612a20565b6040519080825280601f01601f191660200182016040528015612527576020820181803683370190505b50905060005b835181101561261f57600484828151811061254a5761254a613277565b01602001517fff0000000000000000000000000000000000000000000000000000000000000016901c8261257f836002613349565b8151811061258f5761258f613277565b60200101906001600160f81b031916908160001a90535060108482815181106125ba576125ba613277565b01602001516125cc919060f81c61330e565b60f81b826125db836002613349565b6125e69060016132cc565b815181106125f6576125f6613277565b60200101906001600160f81b031916908160001a90535080612617816132df565b91505061252d565b5092915050565b600060208251101561263a57506020015190565b8180602001905181019061048c9190613360565b6000606060208360000151101561266f5761266883612850565b905061267b565b61267883612443565b90505b6112a781612626565b606061048c6126a38360200151600081518110611a2257611a22613277565b6124d3565b6060825182106126c7575060408051602081019091526000815261048c565b6112a783838486516126d991906132a3565b61285b565b6000805b8084511180156126f25750808351115b801561275b575082818151811061270b5761270b613277565b602001015160f81c60f81b6001600160f81b03191684828151811061273257612732613277565b01602001517fff0000000000000000000000000000000000000000000000000000000000000016145b156112a7578061276a816132df565b9150506126e2565b606060008267ffffffffffffffff81111561278f5761278f612a20565b6040519080825280601f01601f1916602001820160405280156127b9576020820181803683370190505b50905080516000036127cc5790506112a7565b60006127d885876132cc565b90506020820160005b6127ec602087613379565b81101561282357825182526128026020846132cc565b925061280f6020836132cc565b91508061281b816132df565b9150506127e1565b5060006001602087066020036101000a039050808251168119845116178252839450505050509392505050565b606061048c826129dc565b60608161286981601f6132cc565b10156128b75760405162461bcd60e51b815260206004820152600e60248201527f736c6963655f6f766572666c6f7700000000000000000000000000000000000060448201526064016104ee565b826128c283826132cc565b10156129105760405162461bcd60e51b815260206004820152600e60248201527f736c6963655f6f766572666c6f7700000000000000000000000000000000000060448201526064016104ee565b61291a82846132cc565b8451101561296a5760405162461bcd60e51b815260206004820152601160248201527f736c6963655f6f75744f66426f756e647300000000000000000000000000000060448201526064016104ee565b60608215801561298957604051915060008252602082016040526129d3565b6040519150601f8416801560200281840101858101878315602002848b0101015b818310156129c25780518352602092830192016129aa565b5050858452601f01601f1916604052505b50949350505050565b606061048c826020015160008460000151612772565b600060208284031215612a0457600080fd5b5035919050565b6001600160a01b0381168114610dea57600080fd5b634e487b7160e01b600052604160045260246000fd5b60405160a0810167ffffffffffffffff81118282101715612a5957612a59612a20565b60405290565b6040805190810167ffffffffffffffff81118282101715612a5957612a59612a20565b604051601f8201601f1916810167ffffffffffffffff81118282101715612aab57612aab612a20565b604052919050565b600067ffffffffffffffff831115612acd57612acd612a20565b612ae0601f8401601f1916602001612a82565b9050828152838383011115612af457600080fd5b828260208301376000602084830101529392505050565b600082601f830112612b1c57600080fd5b6112a783833560208501612ab3565b803563ffffffff81168114612b3f57600080fd5b919050565b600080600060608486031215612b5957600080fd5b8335612b6481612a0b565b9250602084013567ffffffffffffffff811115612b8057600080fd5b612b8c86828701612b0b565b925050612b9b60408501612b2b565b90509250925092565b600060208284031215612bb657600080fd5b813567ffffffffffffffff811115612bcd57600080fd5b8201601f81018413612bde57600080fd5b612bed84823560208401612ab3565b949350505050565b60008060008060008060c08789031215612c0e57600080fd5b8635612c1981612a0b565b95506020870135612c2981612a0b565b9450604087013567ffffffffffffffff811115612c4557600080fd5b612c5189828a01612b0b565b94505060608701359250612c6760808801612b2b565b9150612c7560a08801612b2b565b90509295509295509295565b600060208284031215612c9357600080fd5b81356112a781612a0b565b600060a08284031215612cb057600080fd5b612cb8612a36565b905081358152602082013560208201526040820135604082015260608201356060820152608082013567ffffffffffffffff811115612cf657600080fd5b612d0284828501612b0b565b60808301525092915050565b600060408284031215612d2057600080fd5b612d28612a5f565b90508135815260208083013567ffffffffffffffff80821115612d4a57600080fd5b818501915085601f830112612d5e57600080fd5b813581811115612d7057612d70612a20565b8060051b9150612d81848301612a82565b8181529183018401918481019088841115612d9b57600080fd5b938501935b83851015612db957843582529385019390850190612da0565b808688015250505050505092915050565b600080600080600060a08688031215612de257600080fd5b8535612ded81612a0b565b94506020860135612dfd81612a0b565b9350604086013567ffffffffffffffff80821115612e1a57600080fd5b612e2689838a01612b0b565b9450606088013593506080880135915080821115612e4357600080fd5b9087019060a0828a031215612e5757600080fd5b612e5f612a36565b82358152602083013582811115612e7557600080fd5b612e818b828601612c9e565b602083015250604083013582811115612e9957600080fd5b612ea58b828601612d0e565b604083015250606083013582811115612ebd57600080fd5b612ec98b828601612b0b565b606083015250608083013582811115612ee157600080fd5b612eed8b828601612b0b565b6080830152508093505050509295509295909350565b805164ffffffffff81168114612b3f57600080fd5b600060208284031215612f2a57600080fd5b6112a782612f03565b60005b83811015612f4e578181015183820152602001612f36565b50506000910152565b60008151808452612f6f816020860160208601612f33565b601f01601f19169290920160200192915050565b6001600160a01b0385168152608060208201526000612fa56080830186612f57565b905064ffffffffff8416604083015263ffffffff8316606083015295945050505050565b6020815260006112a76020830184612f57565b600060208284031215612fee57600080fd5b81516112a781612a0b565b60006060828403121561300b57600080fd5b6040516060810181811067ffffffffffffffff8211171561302e5761302e612a20565b6040528251815261304160208401612f03565b602082015261305260408401612f03565b60408201529392505050565b60006001600160a01b03808716835280861660208401525063ffffffff84166040830152608060608301526117036080830184612f57565b600082516130a8818460208701612f33565b9190910192915050565b600084516130c4818460208901612f33565b60609490941b6bffffffffffffffffffffffff191691909301908152601481019190915260340192915050565b60006001600160a01b0380871683528086166020840152506080604083015261311d6080830185612f57565b905082606083015295945050505050565b6001600160a01b03841681528260208201526060604082015260006124ca6060830184612f57565b805182526020810151602083015260408101516040830152606081015160608301526000608082015160a06080850152612bed60a0850182612f57565b6020815260006112a76020830184613156565b6000602082840312156131b857600080fd5b815180151581146112a757600080fd5b838152600060206060818401526131e26060840186613156565b83810360408501526040810185518252828601516040848401528181518084526060850191508583019450600093505b808410156132325784518252938501936001939093019290850190613212565b509998505050505050505050565b60008351613252818460208801612f33565b60609390931b6bffffffffffffffffffffffff19169190920190815260140192915050565b634e487b7160e01b600052603260045260246000fd5b634e487b7160e01b600052601160045260246000fd5b8181038181111561048c5761048c61328d565b634e487b7160e01b600052602160045260246000fd5b8082018082111561048c5761048c61328d565b6000600182016132f1576132f161328d565b5060010190565b634e487b7160e01b600052601260045260246000fd5b600060ff831680613321576133216132f8565b8060ff84160691505092915050565b60ff828116828216039081111561048c5761048c61328d565b808202811582820484141761048c5761048c61328d565b60006020828403121561337257600080fd5b5051919050565b600082613388576133886132f8565b50049056fea26469706673582212203f4e8c3d93a64a19313a8014935e2532d3c8dab1d62ff656121076f002eee1b064736f6c63430008120033",
  "linkReferences": {},
  "deployedLinkReferences": {}
}