{
  "_format": "hh-sol-artifact-1",
  "contractName": "SimpleGatewayHub",
  "sourceName": "contracts/test/SimpleGatewayHub.sol",
  "abi": [
    {
      "anonymous": false,
      "inputs": [
        {
          "indexed": true,
          "internalType": "address",
          "name": "previousOwner",
          "type": "address"
        },
        {
          "indexed": true,
          "internalType": "address",
          "name": "newOwner",
          "type": "address"
        }
      ],
      "name": "OwnershipTransferred",
      "type": "event"
    },
    {
      "inputs": [
        {
          "internalType": "address",
          "name": "_srcContract",
          "type": "address"
        },
        {
          "internalType": "address",
          "name": "_dstContract",
          "type": "address"
        }
      ],
      "name": "addSpokeBridge",
      "outputs": [],
      "stateMutability": "nonpayable",
      "type": "function"
    },
    {
      "inputs": [
        {
          "internalType": "address",
          "name": "",
          "type": "address"
        }
      ],
      "name": "bridgeToBrdige",
      "outputs": [
        {
          "internalType": "address",
          "name": "",
          "type": "address"
        }
      ],
      "stateMutability": "view",
      "type": "function"
    },
    {
      "inputs": [
        {
          "internalType": "bool",
          "name": "_isOutgoingBid",
          "type": "bool"
        }
      ],
      "name": "getMessage",
      "outputs": [
        {
          "internalType": "bytes",
          "name": "",
          "type": "bytes"
        }
      ],
      "stateMutability": "view",
      "type": "function"
    },
    {
      "inputs": [],
      "name": "owner",
      "outputs": [
        {
          "internalType": "address",
          "name": "",
          "type": "address"
        }
      ],
      "stateMutability": "view",
      "type": "function"
    },
    {
      "inputs": [
        {
          "internalType": "bytes",
          "name": "_data",
          "type": "bytes"
        }
      ],
      "name": "processMessage",
      "outputs": [],
      "stateMutability": "nonpayable",
      "type": "function"
    },
    {
      "inputs": [],
      "name": "renounceOwnership",
      "outputs": [],
      "stateMutability": "nonpayable",
      "type": "function"
    },
    {
      "inputs": [
        {
          "internalType": "address",
          "name": "newOwner",
          "type": "address"
        }
      ],
      "name": "transferOwnership",
      "outputs": [],
      "stateMutability": "nonpayable",
      "type": "function"
    }
  ],
  "bytecode": "0x608060405234801561001057600080fd5b5061002d61002261003260201b60201c565b61003a60201b60201c565b6100fe565b600033905090565b60008060009054906101000a900473ffffffffffffffffffffffffffffffffffffffff169050816000806101000a81548173ffffffffffffffffffffffffffffffffffffffff021916908373ffffffffffffffffffffffffffffffffffffffff1602179055508173ffffffffffffffffffffffffffffffffffffffff168173ffffffffffffffffffffffffffffffffffffffff167f8be0079c531659141344cd1fd0a4f28419497f9722a3daafe3b4186f6b6457e060405160405180910390a35050565b6110c48061010d6000396000f3fe608060405234801561001057600080fd5b506004361061007d5760003560e01c80638da5cb5b1161005b5780638da5cb5b146100d8578063bcfeb92d146100f6578063cb01f4ca14610126578063f2fde38b146101425761007d565b80633336fff4146100825780634ff746f6146100b2578063715018a6146100ce575b600080fd5b61009c60048036038101906100979190610901565b61015e565b6040516100a991906109be565b60405180910390f35b6100cc60048036038101906100c79190610b15565b61022b565b005b6100d66103d4565b005b6100e06103e8565b6040516100ed9190610b9f565b60405180910390f35b610110600480360381019061010b9190610be6565b610411565b60405161011d9190610b9f565b60405180910390f35b610140600480360381019061013b9190610c13565b610444565b005b61015c60048036038101906101579190610be6565b6106e8565b005b606081156101c65760006001806000600160008060405160200161018796959493929190610ca5565b60405160208183030381529060405290508060016040516020016101ac929190610d15565b604051602081830303815290604052905080915050610226565b6000600160026000600260008060006040516020016101eb9796959493929190610d80565b6040516020818303038152906040529050806000604051602001610210929190610d15565b6040516020818303038152906040529050809150505b919050565b600073ffffffffffffffffffffffffffffffffffffffff166001600061024f61076b565b73ffffffffffffffffffffffffffffffffffffffff1673ffffffffffffffffffffffffffffffffffffffff16815260200190815260200160002060009054906101000a900473ffffffffffffffffffffffffffffffffffffffff1673ffffffffffffffffffffffffffffffffffffffff1603610300576040517f08c379a00000000000000000000000000000000000000000000000000000000081526004016102f790610e4c565b60405180910390fd5b6001600061030c61076b565b73ffffffffffffffffffffffffffffffffffffffff1673ffffffffffffffffffffffffffffffffffffffff16815260200190815260200160002060009054906101000a900473ffffffffffffffffffffffffffffffffffffffff1673ffffffffffffffffffffffffffffffffffffffff166324bd801b826040518263ffffffff1660e01b815260040161039f91906109be565b600060405180830381600087803b1580156103b957600080fd5b505af11580156103cd573d6000803e3d6000fd5b5050505050565b6103dc610773565b6103e660006107f1565b565b60008060009054906101000a900473ffffffffffffffffffffffffffffffffffffffff16905090565b60016020528060005260406000206000915054906101000a900473ffffffffffffffffffffffffffffffffffffffff1681565b61044c610773565b600073ffffffffffffffffffffffffffffffffffffffff16600160008473ffffffffffffffffffffffffffffffffffffffff1673ffffffffffffffffffffffffffffffffffffffff16815260200190815260200160002060009054906101000a900473ffffffffffffffffffffffffffffffffffffffff1673ffffffffffffffffffffffffffffffffffffffff161461051a576040517f08c379a000000000000000000000000000000000000000000000000000000000815260040161051190610ede565b60405180910390fd5b600073ffffffffffffffffffffffffffffffffffffffff16600160008373ffffffffffffffffffffffffffffffffffffffff1673ffffffffffffffffffffffffffffffffffffffff16815260200190815260200160002060009054906101000a900473ffffffffffffffffffffffffffffffffffffffff1673ffffffffffffffffffffffffffffffffffffffff16146105e8576040517f08c379a00000000000000000000000000000000000000000000000000000000081526004016105df90610f70565b60405180910390fd5b80600160008473ffffffffffffffffffffffffffffffffffffffff1673ffffffffffffffffffffffffffffffffffffffff16815260200190815260200160002060006101000a81548173ffffffffffffffffffffffffffffffffffffffff021916908373ffffffffffffffffffffffffffffffffffffffff16021790555081600160008373ffffffffffffffffffffffffffffffffffffffff1673ffffffffffffffffffffffffffffffffffffffff16815260200190815260200160002060006101000a81548173ffffffffffffffffffffffffffffffffffffffff021916908373ffffffffffffffffffffffffffffffffffffffff1602179055505050565b6106f0610773565b600073ffffffffffffffffffffffffffffffffffffffff168173ffffffffffffffffffffffffffffffffffffffff160361075f576040517f08c379a000000000000000000000000000000000000000000000000000000000815260040161075690611002565b60405180910390fd5b610768816107f1565b50565b600033905090565b61077b61076b565b73ffffffffffffffffffffffffffffffffffffffff166107996103e8565b73ffffffffffffffffffffffffffffffffffffffff16146107ef576040517f08c379a00000000000000000000000000000000000000000000000000000000081526004016107e69061106e565b60405180910390fd5b565b60008060009054906101000a900473ffffffffffffffffffffffffffffffffffffffff169050816000806101000a81548173ffffffffffffffffffffffffffffffffffffffff021916908373ffffffffffffffffffffffffffffffffffffffff1602179055508173ffffffffffffffffffffffffffffffffffffffff168173ffffffffffffffffffffffffffffffffffffffff167f8be0079c531659141344cd1fd0a4f28419497f9722a3daafe3b4186f6b6457e060405160405180910390a35050565b6000604051905090565b600080fd5b600080fd5b60008115159050919050565b6108de816108c9565b81146108e957600080fd5b50565b6000813590506108fb816108d5565b92915050565b600060208284031215610917576109166108bf565b5b6000610925848285016108ec565b91505092915050565b600081519050919050565b600082825260208201905092915050565b60005b8381101561096857808201518184015260208101905061094d565b60008484015250505050565b6000601f19601f8301169050919050565b60006109908261092e565b61099a8185610939565b93506109aa81856020860161094a565b6109b381610974565b840191505092915050565b600060208201905081810360008301526109d88184610985565b905092915050565b600080fd5b600080fd5b7f4e487b7100000000000000000000000000000000000000000000000000000000600052604160045260246000fd5b610a2282610974565b810181811067ffffffffffffffff82111715610a4157610a406109ea565b5b80604052505050565b6000610a546108b5565b9050610a608282610a19565b919050565b600067ffffffffffffffff821115610a8057610a7f6109ea565b5b610a8982610974565b9050602081019050919050565b82818337600083830152505050565b6000610ab8610ab384610a65565b610a4a565b905082815260208101848484011115610ad457610ad36109e5565b5b610adf848285610a96565b509392505050565b600082601f830112610afc57610afb6109e0565b5b8135610b0c848260208601610aa5565b91505092915050565b600060208284031215610b2b57610b2a6108bf565b5b600082013567ffffffffffffffff811115610b4957610b486108c4565b5b610b5584828501610ae7565b91505092915050565b600073ffffffffffffffffffffffffffffffffffffffff82169050919050565b6000610b8982610b5e565b9050919050565b610b9981610b7e565b82525050565b6000602082019050610bb46000830184610b90565b92915050565b610bc381610b7e565b8114610bce57600080fd5b50565b600081359050610be081610bba565b92915050565b600060208284031215610bfc57610bfb6108bf565b5b6000610c0a84828501610bd1565b91505092915050565b60008060408385031215610c2a57610c296108bf565b5b6000610c3885828601610bd1565b9250506020610c4985828601610bd1565b9150509250929050565b6000819050919050565b600060ff82169050919050565b6000819050919050565b6000610c8f610c8a610c8584610c53565b610c6a565b610c5d565b9050919050565b610c9f81610c74565b82525050565b600060c082019050610cba6000830189610c96565b610cc76020830188610c96565b610cd46040830187610b90565b610ce16060830186610c96565b610cee6080830185610b90565b610cfb60a0830184610b90565b979650505050505050565b610d0f816108c9565b82525050565b60006040820190508181036000830152610d2f8185610985565b9050610d3e6020830184610d06565b9392505050565b6000819050919050565b6000610d6a610d65610d6084610d45565b610c6a565b610c5d565b9050919050565b610d7a81610d4f565b82525050565b600060e082019050610d95600083018a610c96565b610da26020830189610d71565b610daf6040830188610b90565b610dbc6060830187610d71565b610dc96080830186610b90565b610dd660a0830185610b90565b610de360c0830184610b90565b98975050505050505050565b600082825260208201905092915050565b7f4875623a20636f6e747261637420686173206e6f207061697221000000000000600082015250565b6000610e36601a83610def565b9150610e4182610e00565b602082019050919050565b60006020820190508181036000830152610e6581610e29565b9050919050565b7f4875623a2073726320636f6e747261637420616c72656164792068617320612060008201527f7061697221000000000000000000000000000000000000000000000000000000602082015250565b6000610ec8602583610def565b9150610ed382610e6c565b604082019050919050565b60006020820190508181036000830152610ef781610ebb565b9050919050565b7f4875623a2064737420636f6e747261637420616c72656164792068617320612060008201527f7061697221000000000000000000000000000000000000000000000000000000602082015250565b6000610f5a602583610def565b9150610f6582610efe565b604082019050919050565b60006020820190508181036000830152610f8981610f4d565b9050919050565b7f4f776e61626c653a206e6577206f776e657220697320746865207a65726f206160008201527f6464726573730000000000000000000000000000000000000000000000000000602082015250565b6000610fec602683610def565b9150610ff782610f90565b604082019050919050565b6000602082019050818103600083015261101b81610fdf565b9050919050565b7f4f776e61626c653a2063616c6c6572206973206e6f7420746865206f776e6572600082015250565b6000611058602083610def565b915061106382611022565b602082019050919050565b600060208201905081810360008301526110878161104b565b905091905056fea2646970667358221220a0d59e1ed809d0d687b3242681204e2ac02055e98f6c769764a35f5554c7024064736f6c63430008120033",
  "linkReferences": {},
  "deployedLinkReferences": {}
}