{
  "_format": "hh-sol-artifact-1",
  "contractName": "Hashi721Bridge",
  "sourceName": "contracts/Hashi721Bridge.sol",
  "abi": [
    {
      "anonymous": false,
      "inputs": [
        {
          "indexed": true,
          "internalType": "uint32",
          "name": "domainId",
          "type": "uint32"
        },
        {
          "indexed": true,
          "internalType": "address",
          "name": "bridge",
          "type": "address"
        }
      ],
      "name": "BridgeSet",
      "type": "event"
    },
    {
      "anonymous": false,
      "inputs": [
        {
          "indexed": false,
          "internalType": "uint8",
          "name": "version",
          "type": "uint8"
        }
      ],
      "name": "Initialized",
      "type": "event"
    },
    {
      "anonymous": false,
      "inputs": [
        {
          "indexed": true,
          "internalType": "address",
          "name": "previousOwner",
          "type": "address"
        },
        {
          "indexed": true,
          "internalType": "address",
          "name": "newOwner",
          "type": "address"
        }
      ],
      "name": "OwnershipTransferred",
      "type": "event"
    },
    {
      "inputs": [],
      "name": "CONNEXT_AMOUNT_FOR_NONE",
      "outputs": [
        {
          "internalType": "uint256",
          "name": "",
          "type": "uint256"
        }
      ],
      "stateMutability": "view",
      "type": "function"
    },
    {
      "inputs": [],
      "name": "CONNEXT_ASSET_FOR_NONE",
      "outputs": [
        {
          "internalType": "address",
          "name": "",
          "type": "address"
        }
      ],
      "stateMutability": "view",
      "type": "function"
    },
    {
      "inputs": [
        {
          "internalType": "uint32",
          "name": "originalDomainId",
          "type": "uint32"
        },
        {
          "internalType": "address",
          "name": "originalAsset",
          "type": "address"
        },
        {
          "internalType": "address",
          "name": "to",
          "type": "address"
        },
        {
          "internalType": "uint256",
          "name": "tokenId",
          "type": "uint256"
        },
        {
          "internalType": "string",
          "name": "tokenURI",
          "type": "string"
        }
      ],
      "name": "_encodeCallData",
      "outputs": [
        {
          "internalType": "bytes",
          "name": "",
          "type": "bytes"
        }
      ],
      "stateMutability": "pure",
      "type": "function"
    },
    {
      "inputs": [
        {
          "internalType": "uint32",
          "name": "",
          "type": "uint32"
        }
      ],
      "name": "bridges",
      "outputs": [
        {
          "internalType": "address",
          "name": "",
          "type": "address"
        }
      ],
      "stateMutability": "view",
      "type": "function"
    },
    {
      "inputs": [],
      "name": "connext",
      "outputs": [
        {
          "internalType": "address",
          "name": "",
          "type": "address"
        }
      ],
      "stateMutability": "view",
      "type": "function"
    },
    {
      "inputs": [
        {
          "internalType": "address",
          "name": "connext_",
          "type": "address"
        },
        {
          "internalType": "address",
          "name": "wrappedHashi721Implementation_",
          "type": "address"
        }
      ],
      "name": "initialize",
      "outputs": [],
      "stateMutability": "nonpayable",
      "type": "function"
    },
    {
      "inputs": [
        {
          "internalType": "address",
          "name": "",
          "type": "address"
        },
        {
          "internalType": "address",
          "name": "",
          "type": "address"
        },
        {
          "internalType": "uint256",
          "name": "",
          "type": "uint256"
        },
        {
          "internalType": "bytes",
          "name": "",
          "type": "bytes"
        }
      ],
      "name": "onERC721Received",
      "outputs": [
        {
          "internalType": "bytes4",
          "name": "",
          "type": "bytes4"
        }
      ],
      "stateMutability": "nonpayable",
      "type": "function"
    },
    {
      "inputs": [
        {
          "internalType": "address",
          "name": "",
          "type": "address"
        }
      ],
      "name": "originalAssets",
      "outputs": [
        {
          "internalType": "address",
          "name": "",
          "type": "address"
        }
      ],
      "stateMutability": "view",
      "type": "function"
    },
    {
      "inputs": [
        {
          "internalType": "address",
          "name": "",
          "type": "address"
        }
      ],
      "name": "originalDomainIds",
      "outputs": [
        {
          "internalType": "uint32",
          "name": "",
          "type": "uint32"
        }
      ],
      "stateMutability": "view",
      "type": "function"
    },
    {
      "inputs": [],
      "name": "owner",
      "outputs": [
        {
          "internalType": "address",
          "name": "",
          "type": "address"
        }
      ],
      "stateMutability": "view",
      "type": "function"
    },
    {
      "inputs": [],
      "name": "renounceOwnership",
      "outputs": [],
      "stateMutability": "nonpayable",
      "type": "function"
    },
    {
      "inputs": [
        {
          "internalType": "uint32",
          "name": "domainId_",
          "type": "uint32"
        },
        {
          "internalType": "address",
          "name": "bridge",
          "type": "address"
        }
      ],
      "name": "setBridge",
      "outputs": [],
      "stateMutability": "nonpayable",
      "type": "function"
    },
    {
      "inputs": [
        {
          "internalType": "address",
          "name": "_asset",
          "type": "address"
        },
        {
          "internalType": "uint32",
          "name": "_originalDomainId",
          "type": "uint32"
        },
        {
          "internalType": "address",
          "name": "_originalAsset",
          "type": "address"
        }
      ],
      "name": "setForWrapper",
      "outputs": [],
      "stateMutability": "nonpayable",
      "type": "function"
    },
    {
      "inputs": [
        {
          "internalType": "address",
          "name": "newOwner",
          "type": "address"
        }
      ],
      "name": "transferOwnership",
      "outputs": [],
      "stateMutability": "nonpayable",
      "type": "function"
    },
    {
      "inputs": [],
      "name": "wrappedHashi721Implementation",
      "outputs": [
        {
          "internalType": "address",
          "name": "",
          "type": "address"
        }
      ],
      "stateMutability": "view",
      "type": "function"
    },
    {
      "inputs": [
        {
          "internalType": "uint32",
          "name": "destination",
          "type": "uint32"
        },
        {
          "internalType": "uint256",
          "name": "relayerFee",
          "type": "uint256"
        },
        {
          "internalType": "uint256",
          "name": "slippage",
          "type": "uint256"
        },
        {
          "internalType": "address",
          "name": "asset",
          "type": "address"
        },
        {
          "internalType": "address",
          "name": "to",
          "type": "address"
        },
        {
          "internalType": "uint256",
          "name": "tokenId",
          "type": "uint256"
        },
        {
          "internalType": "bool",
          "name": "isTokenURIIgnored",
          "type": "bool"
        }
      ],
      "name": "xCall",
      "outputs": [
        {
          "internalType": "bytes32",
          "name": "",
          "type": "bytes32"
        }
      ],
      "stateMutability": "payable",
      "type": "function"
    },
    {
      "inputs": [
        {
          "internalType": "bytes32",
          "name": "transferId",
          "type": "bytes32"
        },
        {
          "internalType": "uint256",
          "name": "amount",
          "type": "uint256"
        },
        {
          "internalType": "address",
          "name": "asset",
          "type": "address"
        },
        {
          "internalType": "address",
          "name": "originSender",
          "type": "address"
        },
        {
          "internalType": "uint32",
          "name": "origin",
          "type": "uint32"
        },
        {
          "internalType": "bytes",
          "name": "callData",
          "type": "bytes"
        }
      ],
      "name": "xReceive",
      "outputs": [
        {
          "internalType": "bytes",
          "name": "",
          "type": "bytes"
        }
      ],
      "stateMutability": "nonpayable",
      "type": "function"
    }
  ],
  "bytecode": "0x608060405234801561001057600080fd5b50612e6c806100206000396000f3fe6080604052600436106100fe5760003560e01c8063802ef73911610095578063c656591611610064578063c65659161461033a578063dae74dd414610377578063de4b0548146103a2578063f2fde38b146103cd578063fd614f41146103f6576100fe565b8063802ef739146102895780638da5cb5b146102b9578063a0f0a312146102e4578063c34f6ec41461030f576100fe565b8063485cc955116100d1578063485cc955146101e3578063539ee2091461020c57806368b2ba6814610249578063715018a614610272576100fe565b80630b8931cb14610103578063150b7a021461014057806325013d3c1461017d5780633ae45528146101a6575b600080fd5b34801561010f57600080fd5b5061012a60048036038101906101259190611b2f565b610433565b6040516101379190611b9d565b60405180910390f35b34801561014c57600080fd5b5061016760048036038101906101629190611d60565b610466565b6040516101749190611e1e565b60405180910390f35b34801561018957600080fd5b506101a4600480360381019061019f9190611e39565b61047a565b005b3480156101b257600080fd5b506101cd60048036038101906101c89190611e8c565b61055b565b6040516101da9190611b9d565b60405180910390f35b3480156101ef57600080fd5b5061020a60048036038101906102059190611eb9565b61058e565b005b34801561021857600080fd5b50610233600480360381019061022e9190611e8c565b610718565b6040516102409190611f08565b60405180910390f35b34801561025557600080fd5b50610270600480360381019061026b9190611f23565b61073b565b005b34801561027e57600080fd5b506102876107ef565b005b6102a3600480360381019061029e9190611f9b565b610803565b6040516102b09190612056565b60405180910390f35b3480156102c557600080fd5b506102ce610e11565b6040516102db9190611b9d565b60405180910390f35b3480156102f057600080fd5b506102f9610e3b565b6040516103069190611b9d565b60405180910390f35b34801561031b57600080fd5b50610324610e40565b6040516103319190612080565b60405180910390f35b34801561034657600080fd5b50610361600480360381019061035c919061213c565b610e45565b60405161036e9190612252565b60405180910390f35b34801561038357600080fd5b5061038c610e7a565b6040516103999190611b9d565b60405180910390f35b3480156103ae57600080fd5b506103b7610ea0565b6040516103c49190611b9d565b60405180910390f35b3480156103d957600080fd5b506103f460048036038101906103ef9190611e8c565b610ec6565b005b34801561040257600080fd5b5061041d600480360381019061041891906122a0565b610f49565b60405161042a9190612252565b60405180910390f35b60976020528060005260406000206000915054906101000a900473ffffffffffffffffffffffffffffffffffffffff1681565b600063150b7a0260e01b9050949350505050565b81609960008573ffffffffffffffffffffffffffffffffffffffff1673ffffffffffffffffffffffffffffffffffffffff16815260200190815260200160002060006101000a81548163ffffffff021916908363ffffffff16021790555080609a60008573ffffffffffffffffffffffffffffffffffffffff1673ffffffffffffffffffffffffffffffffffffffff16815260200190815260200160002060006101000a81548173ffffffffffffffffffffffffffffffffffffffff021916908373ffffffffffffffffffffffffffffffffffffffff160217905550505050565b609a6020528060005260406000206000915054906101000a900473ffffffffffffffffffffffffffffffffffffffff1681565b60008060019054906101000a900460ff161590508080156105bf5750600160008054906101000a900460ff1660ff16105b806105ec57506105ce3061116c565b1580156105eb5750600160008054906101000a900460ff1660ff16145b5b61062b576040517f08c379a0000000000000000000000000000000000000000000000000000000008152600401610622906123cc565b60405180910390fd5b60016000806101000a81548160ff021916908360ff1602179055508015610668576001600060016101000a81548160ff0219169083151502179055505b61067061118f565b610679836111e0565b81609b60006101000a81548173ffffffffffffffffffffffffffffffffffffffff021916908373ffffffffffffffffffffffffffffffffffffffff16021790555080156107135760008060016101000a81548160ff0219169083151502179055507f7f26b83ff96e1f2b6a682f133852f6798a09c465da95921460cefb3847402498600160405161070a919061243e565b60405180910390a15b505050565b60996020528060005260406000206000915054906101000a900463ffffffff1681565b610743611243565b80609760008463ffffffff1663ffffffff16815260200190815260200160002060006101000a81548173ffffffffffffffffffffffffffffffffffffffff021916908373ffffffffffffffffffffffffffffffffffffffff1602179055508073ffffffffffffffffffffffffffffffffffffffff168263ffffffff167fb95f7bd4ed333200a22dcfdd4921bfe48e8abc90a7d14f82334e7946479db83960405160405180910390a35050565b6107f7611243565b61080160006112c1565b565b6000808573ffffffffffffffffffffffffffffffffffffffff16636352211e856040518263ffffffff1660e01b815260040161083f9190612080565b602060405180830381865afa15801561085c573d6000803e3d6000fd5b505050506040513d601f19601f82011682018060405250810190610880919061246e565b905061088a611387565b73ffffffffffffffffffffffffffffffffffffffff168173ffffffffffffffffffffffffffffffffffffffff16148061096e57506108c6611387565b73ffffffffffffffffffffffffffffffffffffffff168673ffffffffffffffffffffffffffffffffffffffff1663081812fc866040518263ffffffff1660e01b81526004016109159190612080565b602060405180830381865afa158015610932573d6000803e3d6000fd5b505050506040513d601f19601f82011682018060405250810190610956919061246e565b73ffffffffffffffffffffffffffffffffffffffff16145b806109f857508573ffffffffffffffffffffffffffffffffffffffff1663e985e9c582610999611387565b6040518363ffffffff1660e01b81526004016109b692919061249b565b602060405180830381865afa1580156109d3573d6000803e3d6000fd5b505050506040513d601f19601f820116820180604052508101906109f791906124d9565b5b610a37576040517f08c379a0000000000000000000000000000000000000000000000000000000008152600401610a2e90612578565b60405180910390fd5b606083610ac0578673ffffffffffffffffffffffffffffffffffffffff1663c87b56dd866040518263ffffffff1660e01b8152600401610a779190612080565b600060405180830381865afa158015610a94573d6000803e3d6000fd5b505050506040513d6000823e3d601f19601f82011682018060405250810190610abd9190612608565b90505b600080600073ffffffffffffffffffffffffffffffffffffffff16609a60008b73ffffffffffffffffffffffffffffffffffffffff1673ffffffffffffffffffffffffffffffffffffffff16815260200190815260200160002060009054906101000a900473ffffffffffffffffffffffffffffffffffffffff1673ffffffffffffffffffffffffffffffffffffffff16148015610bb357506000609960008b73ffffffffffffffffffffffffffffffffffffffff1673ffffffffffffffffffffffffffffffffffffffff16815260200190815260200160002060009054906101000a900463ffffffff1663ffffffff16145b15610cc2578873ffffffffffffffffffffffffffffffffffffffff166323b872dd85308a6040518463ffffffff1660e01b8152600401610bf593929190612651565b600060405180830381600087803b158015610c0f57600080fd5b505af1158015610c23573d6000803e3d6000fd5b50505050609860009054906101000a900473ffffffffffffffffffffffffffffffffffffffff1673ffffffffffffffffffffffffffffffffffffffff1663c2fb26a66040518163ffffffff1660e01b8152600401602060405180830381865afa158015610c94573d6000803e3d6000fd5b505050506040513d601f19601f82011682018060405250810190610cb8919061269d565b9150889050610de2565b8873ffffffffffffffffffffffffffffffffffffffff166342966c68886040518263ffffffff1660e01b8152600401610cfb9190612080565b600060405180830381600087803b158015610d1557600080fd5b505af1158015610d29573d6000803e3d6000fd5b50505050609960008a73ffffffffffffffffffffffffffffffffffffffff1673ffffffffffffffffffffffffffffffffffffffff16815260200190815260200160002060009054906101000a900463ffffffff169150609a60008a73ffffffffffffffffffffffffffffffffffffffff1673ffffffffffffffffffffffffffffffffffffffff16815260200190815260200160002060009054906101000a900473ffffffffffffffffffffffffffffffffffffffff1690505b6000610df183838b8b88610e45565b9050610dff8d8d8d8461138f565b95505050505050979650505050505050565b6000606560009054906101000a900473ffffffffffffffffffffffffffffffffffffffff16905090565b600081565b600081565b60608585858585604051602001610e6095949392919061270e565b604051602081830303815290604052905095945050505050565b609b60009054906101000a900473ffffffffffffffffffffffffffffffffffffffff1681565b609860009054906101000a900473ffffffffffffffffffffffffffffffffffffffff1681565b610ece611243565b600073ffffffffffffffffffffffffffffffffffffffff168173ffffffffffffffffffffffffffffffffffffffff1603610f3d576040517f08c379a0000000000000000000000000000000000000000000000000000000008152600401610f34906127da565b60405180910390fd5b610f46816112c1565b50565b6060600073ffffffffffffffffffffffffffffffffffffffff168573ffffffffffffffffffffffffffffffffffffffff1614610fba576040517f08c379a0000000000000000000000000000000000000000000000000000000008152600401610fb19061286c565b60405180910390fd5b60008614610ffd576040517f08c379a0000000000000000000000000000000000000000000000000000000008152600401610ff4906128fe565b60405180910390fd5b6000609760008563ffffffff1663ffffffff16815260200190815260200160002060009054906101000a900473ffffffffffffffffffffffffffffffffffffffff1690508473ffffffffffffffffffffffffffffffffffffffff168173ffffffffffffffffffffffffffffffffffffffff16146110af576040517f08c379a00000000000000000000000000000000000000000000000000000000081526004016110a690612990565b60405180910390fd5b609860009054906101000a900473ffffffffffffffffffffffffffffffffffffffff1673ffffffffffffffffffffffffffffffffffffffff166110f0611387565b73ffffffffffffffffffffffffffffffffffffffff1614611146576040517f08c379a000000000000000000000000000000000000000000000000000000000815260040161113d90612a22565b60405180910390fd5b61114f83611501565b604051806020016040528060008152509150509695505050505050565b6000808273ffffffffffffffffffffffffffffffffffffffff163b119050919050565b600060019054906101000a900460ff166111de576040517f08c379a00000000000000000000000000000000000000000000000000000000081526004016111d590612ab4565b60405180910390fd5b565b600060019054906101000a900460ff1661122f576040517f08c379a000000000000000000000000000000000000000000000000000000000815260040161122690612ab4565b60405180910390fd5b61123761188a565b611240816118eb565b50565b61124b611387565b73ffffffffffffffffffffffffffffffffffffffff16611269610e11565b73ffffffffffffffffffffffffffffffffffffffff16146112bf576040517f08c379a00000000000000000000000000000000000000000000000000000000081526004016112b690612b20565b60405180910390fd5b565b6000606560009054906101000a900473ffffffffffffffffffffffffffffffffffffffff16905081606560006101000a81548173ffffffffffffffffffffffffffffffffffffffff021916908373ffffffffffffffffffffffffffffffffffffffff1602179055508173ffffffffffffffffffffffffffffffffffffffff168173ffffffffffffffffffffffffffffffffffffffff167f8be0079c531659141344cd1fd0a4f28419497f9722a3daafe3b4186f6b6457e060405160405180910390a35050565b600033905090565b600080609760008763ffffffff1663ffffffff16815260200190815260200160002060009054906101000a900473ffffffffffffffffffffffffffffffffffffffff169050600073ffffffffffffffffffffffffffffffffffffffff168173ffffffffffffffffffffffffffffffffffffffff1603611443576040517f08c379a000000000000000000000000000000000000000000000000000000000815260040161143a90612990565b60405180910390fd5b609860009054906101000a900473ffffffffffffffffffffffffffffffffffffffff1673ffffffffffffffffffffffffffffffffffffffff16638aac16ba8783600061148d611387565b60008a8a6040518863ffffffff1660e01b81526004016114b39796959493929190612b40565b6020604051808303816000875af11580156114d2573d6000803e3d6000fd5b505050506040513d601f19601f820116820180604052508101906114f69190612bcb565b915050949350505050565b60008060008060006115128661197e565b94509450945094509450609860009054906101000a900473ffffffffffffffffffffffffffffffffffffffff1673ffffffffffffffffffffffffffffffffffffffff1663c2fb26a66040518163ffffffff1660e01b8152600401602060405180830381865afa158015611589573d6000803e3d6000fd5b505050506040513d601f19601f820116820180604052508101906115ad919061269d565b63ffffffff168563ffffffff161461180c57600085856040516020016115d4929190612c76565b604051602081830303815290604052805190602001209050600061161a609b60009054906101000a900473ffffffffffffffffffffffffffffffffffffffff16836119ad565b90508590506116288161116c565b61179657611658609b60009054906101000a900473ffffffffffffffffffffffffffffffffffffffff16836119c2565b508073ffffffffffffffffffffffffffffffffffffffff16638129fc1c6040518163ffffffff1660e01b8152600401600060405180830381600087803b1580156116a157600080fd5b505af11580156116b5573d6000803e3d6000fd5b5050505086609960008373ffffffffffffffffffffffffffffffffffffffff1673ffffffffffffffffffffffffffffffffffffffff16815260200190815260200160002060006101000a81548163ffffffff021916908363ffffffff16021790555085609a60008373ffffffffffffffffffffffffffffffffffffffff1673ffffffffffffffffffffffffffffffffffffffff16815260200190815260200160002060006101000a81548173ffffffffffffffffffffffffffffffffffffffff021916908373ffffffffffffffffffffffffffffffffffffffff1602179055505b8073ffffffffffffffffffffffffffffffffffffffff1663d3fc98648686866040518463ffffffff1660e01b81526004016117d393929190612ca2565b600060405180830381600087803b1580156117ed57600080fd5b505af1158015611801573d6000803e3d6000fd5b505050505050611882565b60008490508073ffffffffffffffffffffffffffffffffffffffff166342842e0e3086866040518463ffffffff1660e01b815260040161184e93929190612651565b600060405180830381600087803b15801561186857600080fd5b505af115801561187c573d6000803e3d6000fd5b50505050505b505050505050565b600060019054906101000a900460ff166118d9576040517f08c379a00000000000000000000000000000000000000000000000000000000081526004016118d090612ab4565b60405180910390fd5b6118e96118e4611387565b6112c1565b565b600060019054906101000a900460ff1661193a576040517f08c379a000000000000000000000000000000000000000000000000000000000815260040161193190612ab4565b60405180910390fd5b80609860006101000a81548173ffffffffffffffffffffffffffffffffffffffff021916908373ffffffffffffffffffffffffffffffffffffffff16021790555050565b60008060008060608580602001905181019061199a9190612d33565b9450945094509450945091939590929450565b60006119ba838330611a7e565b905092915050565b6000763d602d80600a3d3981f3363d3d373d3d3d363d730000008360601b60e81c176000526e5af43d82803e903d91602b57fd5bf38360781b1760205281603760096000f59050600073ffffffffffffffffffffffffffffffffffffffff168173ffffffffffffffffffffffffffffffffffffffff1603611a78576040517f08c379a0000000000000000000000000000000000000000000000000000000008152600401611a6f90612e16565b60405180910390fd5b92915050565b60006040518260388201526f5af43d82803e903d91602b57fd5bf3ff6024820152846014820152733d602d80600a3d3981f3363d3d373d3d3d363d7381528360588201526037600c8201206078820152605560438201209150509392505050565b6000604051905090565b600080fd5b600080fd5b600063ffffffff82169050919050565b611b0c81611af3565b8114611b1757600080fd5b50565b600081359050611b2981611b03565b92915050565b600060208284031215611b4557611b44611ae9565b5b6000611b5384828501611b1a565b91505092915050565b600073ffffffffffffffffffffffffffffffffffffffff82169050919050565b6000611b8782611b5c565b9050919050565b611b9781611b7c565b82525050565b6000602082019050611bb26000830184611b8e565b92915050565b611bc181611b7c565b8114611bcc57600080fd5b50565b600081359050611bde81611bb8565b92915050565b6000819050919050565b611bf781611be4565b8114611c0257600080fd5b50565b600081359050611c1481611bee565b92915050565b600080fd5b600080fd5b6000601f19601f8301169050919050565b7f4e487b7100000000000000000000000000000000000000000000000000000000600052604160045260246000fd5b611c6d82611c24565b810181811067ffffffffffffffff82111715611c8c57611c8b611c35565b5b80604052505050565b6000611c9f611adf565b9050611cab8282611c64565b919050565b600067ffffffffffffffff821115611ccb57611cca611c35565b5b611cd482611c24565b9050602081019050919050565b82818337600083830152505050565b6000611d03611cfe84611cb0565b611c95565b905082815260208101848484011115611d1f57611d1e611c1f565b5b611d2a848285611ce1565b509392505050565b600082601f830112611d4757611d46611c1a565b5b8135611d57848260208601611cf0565b91505092915050565b60008060008060808587031215611d7a57611d79611ae9565b5b6000611d8887828801611bcf565b9450506020611d9987828801611bcf565b9350506040611daa87828801611c05565b925050606085013567ffffffffffffffff811115611dcb57611dca611aee565b5b611dd787828801611d32565b91505092959194509250565b60007fffffffff0000000000000000000000000000000000000000000000000000000082169050919050565b611e1881611de3565b82525050565b6000602082019050611e336000830184611e0f565b92915050565b600080600060608486031215611e5257611e51611ae9565b5b6000611e6086828701611bcf565b9350506020611e7186828701611b1a565b9250506040611e8286828701611bcf565b9150509250925092565b600060208284031215611ea257611ea1611ae9565b5b6000611eb084828501611bcf565b91505092915050565b60008060408385031215611ed057611ecf611ae9565b5b6000611ede85828601611bcf565b9250506020611eef85828601611bcf565b9150509250929050565b611f0281611af3565b82525050565b6000602082019050611f1d6000830184611ef9565b92915050565b60008060408385031215611f3a57611f39611ae9565b5b6000611f4885828601611b1a565b9250506020611f5985828601611bcf565b9150509250929050565b60008115159050919050565b611f7881611f63565b8114611f8357600080fd5b50565b600081359050611f9581611f6f565b92915050565b600080600080600080600060e0888a031215611fba57611fb9611ae9565b5b6000611fc88a828b01611b1a565b9750506020611fd98a828b01611c05565b9650506040611fea8a828b01611c05565b9550506060611ffb8a828b01611bcf565b945050608061200c8a828b01611bcf565b93505060a061201d8a828b01611c05565b92505060c061202e8a828b01611f86565b91505092959891949750929550565b6000819050919050565b6120508161203d565b82525050565b600060208201905061206b6000830184612047565b92915050565b61207a81611be4565b82525050565b60006020820190506120956000830184612071565b92915050565b600067ffffffffffffffff8211156120b6576120b5611c35565b5b6120bf82611c24565b9050602081019050919050565b60006120df6120da8461209b565b611c95565b9050828152602081018484840111156120fb576120fa611c1f565b5b612106848285611ce1565b509392505050565b600082601f83011261212357612122611c1a565b5b81356121338482602086016120cc565b91505092915050565b600080600080600060a0868803121561215857612157611ae9565b5b600061216688828901611b1a565b955050602061217788828901611bcf565b945050604061218888828901611bcf565b935050606061219988828901611c05565b925050608086013567ffffffffffffffff8111156121ba576121b9611aee565b5b6121c68882890161210e565b9150509295509295909350565b600081519050919050565b600082825260208201905092915050565b60005b8381101561220d5780820151818401526020810190506121f2565b60008484015250505050565b6000612224826121d3565b61222e81856121de565b935061223e8185602086016121ef565b61224781611c24565b840191505092915050565b6000602082019050818103600083015261226c8184612219565b905092915050565b61227d8161203d565b811461228857600080fd5b50565b60008135905061229a81612274565b92915050565b60008060008060008060c087890312156122bd576122bc611ae9565b5b60006122cb89828a0161228b565b96505060206122dc89828a01611c05565b95505060406122ed89828a01611bcf565b94505060606122fe89828a01611bcf565b935050608061230f89828a01611b1a565b92505060a087013567ffffffffffffffff8111156123305761232f611aee565b5b61233c89828a01611d32565b9150509295509295509295565b600082825260208201905092915050565b7f496e697469616c697a61626c653a20636f6e747261637420697320616c72656160008201527f647920696e697469616c697a6564000000000000000000000000000000000000602082015250565b60006123b6602e83612349565b91506123c18261235a565b604082019050919050565b600060208201905081810360008301526123e5816123a9565b9050919050565b6000819050919050565b600060ff82169050919050565b6000819050919050565b600061242861242361241e846123ec565b612403565b6123f6565b9050919050565b6124388161240d565b82525050565b6000602082019050612453600083018461242f565b92915050565b60008151905061246881611bb8565b92915050565b60006020828403121561248457612483611ae9565b5b600061249284828501612459565b91505092915050565b60006040820190506124b06000830185611b8e565b6124bd6020830184611b8e565b9392505050565b6000815190506124d381611f6f565b92915050565b6000602082840312156124ef576124ee611ae9565b5b60006124fd848285016124c4565b91505092915050565b7f48617368693732314272696467653a206d73672073656e64657220697320696e60008201527f76616c6964200000000000000000000000000000000000000000000000000000602082015250565b6000612562602683612349565b915061256d82612506565b604082019050919050565b6000602082019050818103600083015261259181612555565b9050919050565b60006125ab6125a68461209b565b611c95565b9050828152602081018484840111156125c7576125c6611c1f565b5b6125d28482856121ef565b509392505050565b600082601f8301126125ef576125ee611c1a565b5b81516125ff848260208601612598565b91505092915050565b60006020828403121561261e5761261d611ae9565b5b600082015167ffffffffffffffff81111561263c5761263b611aee565b5b612648848285016125da565b91505092915050565b60006060820190506126666000830186611b8e565b6126736020830185611b8e565b6126806040830184612071565b949350505050565b60008151905061269781611bee565b92915050565b6000602082840312156126b3576126b2611ae9565b5b60006126c184828501612688565b91505092915050565b600081519050919050565b60006126e0826126ca565b6126ea8185612349565b93506126fa8185602086016121ef565b61270381611c24565b840191505092915050565b600060a0820190506127236000830188611ef9565b6127306020830187611b8e565b61273d6040830186611b8e565b61274a6060830185612071565b818103608083015261275c81846126d5565b90509695505050505050565b7f4f776e61626c653a206e6577206f776e657220697320746865207a65726f206160008201527f6464726573730000000000000000000000000000000000000000000000000000602082015250565b60006127c4602683612349565b91506127cf82612768565b604082019050919050565b600060208201905081810360008301526127f3816127b7565b9050919050565b7f4861736869436f6e6e657874416461707465723a20617373657420697320696e60008201527f76616c6964000000000000000000000000000000000000000000000000000000602082015250565b6000612856602583612349565b9150612861826127fa565b604082019050919050565b6000602082019050818103600083015261288581612849565b9050919050565b7f4861736869436f6e6e657874416461707465723a20616d6f756e74206973206960008201527f6e76616c69640000000000000000000000000000000000000000000000000000602082015250565b60006128e8602683612349565b91506128f38261288c565b604082019050919050565b60006020820190508181036000830152612917816128db565b9050919050565b7f4861736869436f6e6e657874416461707465723a20627269646765206973206960008201527f6e76616c69640000000000000000000000000000000000000000000000000000602082015250565b600061297a602683612349565b91506129858261291e565b604082019050919050565b600060208201905081810360008301526129a98161296d565b9050919050565b7f4861736869436f6e6e657874416461707465723a206d73672073656e6465722060008201527f697320696e76616c696420000000000000000000000000000000000000000000602082015250565b6000612a0c602b83612349565b9150612a17826129b0565b604082019050919050565b60006020820190508181036000830152612a3b816129ff565b9050919050565b7f496e697469616c697a61626c653a20636f6e7472616374206973206e6f74206960008201527f6e697469616c697a696e67000000000000000000000000000000000000000000602082015250565b6000612a9e602b83612349565b9150612aa982612a42565b604082019050919050565b60006020820190508181036000830152612acd81612a91565b9050919050565b7f4f776e61626c653a2063616c6c6572206973206e6f7420746865206f776e6572600082015250565b6000612b0a602083612349565b9150612b1582612ad4565b602082019050919050565b60006020820190508181036000830152612b3981612afd565b9050919050565b600060e082019050612b55600083018a611ef9565b612b626020830189611b8e565b612b6f6040830188611b8e565b612b7c6060830187611b8e565b612b896080830186612071565b612b9660a0830185612071565b81810360c0830152612ba88184612219565b905098975050505050505050565b600081519050612bc581612274565b92915050565b600060208284031215612be157612be0611ae9565b5b6000612bef84828501612bb6565b91505092915050565b60008160e01b9050919050565b6000612c1082612bf8565b9050919050565b612c28612c2382611af3565b612c05565b82525050565b60008160601b9050919050565b6000612c4682612c2e565b9050919050565b6000612c5882612c3b565b9050919050565b612c70612c6b82611b7c565b612c4d565b82525050565b6000612c828285612c17565b600482019150612c928284612c5f565b6014820191508190509392505050565b6000606082019050612cb76000830186611b8e565b612cc46020830185612071565b8181036040830152612cd681846126d5565b9050949350505050565b600081519050612cef81611b03565b92915050565b6000612d0082611b5c565b9050919050565b612d1081612cf5565b8114612d1b57600080fd5b50565b600081519050612d2d81612d07565b92915050565b600080600080600060a08688031215612d4f57612d4e611ae9565b5b6000612d5d88828901612ce0565b9550506020612d6e88828901612d1e565b9450506040612d7f88828901612d1e565b9350506060612d9088828901612688565b925050608086015167ffffffffffffffff811115612db157612db0611aee565b5b612dbd888289016125da565b9150509295509295909350565b7f455243313136373a2063726561746532206661696c6564000000000000000000600082015250565b6000612e00601783612349565b9150612e0b82612dca565b602082019050919050565b60006020820190508181036000830152612e2f81612df3565b905091905056fea2646970667358221220c10b116d59881a65c3b182037f37e68aec975f8682093eb23b882acf5f25ee2a64736f6c63430008110033",
  "linkReferences": {},
  "deployedLinkReferences": {}
}