{
  "_format": "hh-sol-artifact-1",
  "contractName": "Hashi721Bridge",
  "sourceName": "contracts/Hashi721Bridge.sol",
  "abi": [
    {
      "anonymous": false,
      "inputs": [
        {
          "indexed": true,
          "internalType": "uint32",
          "name": "domainId",
          "type": "uint32"
        },
        {
          "indexed": true,
          "internalType": "address",
          "name": "bridge",
          "type": "address"
        }
      ],
      "name": "BridgeSet",
      "type": "event"
    },
    {
      "anonymous": false,
      "inputs": [
        {
          "indexed": false,
          "internalType": "uint8",
          "name": "version",
          "type": "uint8"
        }
      ],
      "name": "Initialized",
      "type": "event"
    },
    {
      "anonymous": false,
      "inputs": [
        {
          "indexed": true,
          "internalType": "address",
          "name": "previousOwner",
          "type": "address"
        },
        {
          "indexed": true,
          "internalType": "address",
          "name": "newOwner",
          "type": "address"
        }
      ],
      "name": "OwnershipTransferred",
      "type": "event"
    },
    {
      "inputs": [],
      "name": "CONNEXT_AMOUNT_FOR_NONE",
      "outputs": [
        {
          "internalType": "uint256",
          "name": "",
          "type": "uint256"
        }
      ],
      "stateMutability": "view",
      "type": "function"
    },
    {
      "inputs": [],
      "name": "CONNEXT_ASSET_FOR_NONE",
      "outputs": [
        {
          "internalType": "address",
          "name": "",
          "type": "address"
        }
      ],
      "stateMutability": "view",
      "type": "function"
    },
    {
      "inputs": [
        {
          "internalType": "uint32",
          "name": "originalDomainId",
          "type": "uint32"
        },
        {
          "internalType": "address",
          "name": "originalAsset",
          "type": "address"
        },
        {
          "internalType": "address",
          "name": "to",
          "type": "address"
        },
        {
          "internalType": "uint256",
          "name": "tokenId",
          "type": "uint256"
        },
        {
          "internalType": "string",
          "name": "tokenURI",
          "type": "string"
        }
      ],
      "name": "_encodeCallData",
      "outputs": [
        {
          "internalType": "bytes",
          "name": "",
          "type": "bytes"
        }
      ],
      "stateMutability": "pure",
      "type": "function"
    },
    {
      "inputs": [
        {
          "internalType": "uint32",
          "name": "",
          "type": "uint32"
        }
      ],
      "name": "bridges",
      "outputs": [
        {
          "internalType": "address",
          "name": "",
          "type": "address"
        }
      ],
      "stateMutability": "view",
      "type": "function"
    },
    {
      "inputs": [],
      "name": "connext",
      "outputs": [
        {
          "internalType": "address",
          "name": "",
          "type": "address"
        }
      ],
      "stateMutability": "view",
      "type": "function"
    },
    {
      "inputs": [
        {
          "internalType": "address",
          "name": "connext_",
          "type": "address"
        },
        {
          "internalType": "address",
          "name": "wrappedHashi721Implementation_",
          "type": "address"
        }
      ],
      "name": "initialize",
      "outputs": [],
      "stateMutability": "nonpayable",
      "type": "function"
    },
    {
      "inputs": [
        {
          "internalType": "address",
          "name": "",
          "type": "address"
        },
        {
          "internalType": "address",
          "name": "",
          "type": "address"
        },
        {
          "internalType": "uint256",
          "name": "",
          "type": "uint256"
        },
        {
          "internalType": "bytes",
          "name": "",
          "type": "bytes"
        }
      ],
      "name": "onERC721Received",
      "outputs": [
        {
          "internalType": "bytes4",
          "name": "",
          "type": "bytes4"
        }
      ],
      "stateMutability": "nonpayable",
      "type": "function"
    },
    {
      "inputs": [
        {
          "internalType": "address",
          "name": "",
          "type": "address"
        }
      ],
      "name": "originalAssets",
      "outputs": [
        {
          "internalType": "address",
          "name": "",
          "type": "address"
        }
      ],
      "stateMutability": "view",
      "type": "function"
    },
    {
      "inputs": [
        {
          "internalType": "address",
          "name": "",
          "type": "address"
        }
      ],
      "name": "originalDomainIds",
      "outputs": [
        {
          "internalType": "uint32",
          "name": "",
          "type": "uint32"
        }
      ],
      "stateMutability": "view",
      "type": "function"
    },
    {
      "inputs": [],
      "name": "owner",
      "outputs": [
        {
          "internalType": "address",
          "name": "",
          "type": "address"
        }
      ],
      "stateMutability": "view",
      "type": "function"
    },
    {
      "inputs": [],
      "name": "renounceOwnership",
      "outputs": [],
      "stateMutability": "nonpayable",
      "type": "function"
    },
    {
      "inputs": [
        {
          "internalType": "uint32",
          "name": "domainId_",
          "type": "uint32"
        },
        {
          "internalType": "address",
          "name": "bridge",
          "type": "address"
        }
      ],
      "name": "setBridge",
      "outputs": [],
      "stateMutability": "nonpayable",
      "type": "function"
    },
    {
      "inputs": [
        {
          "internalType": "address",
          "name": "_asset",
          "type": "address"
        },
        {
          "internalType": "uint32",
          "name": "_originalDomainId",
          "type": "uint32"
        },
        {
          "internalType": "address",
          "name": "_originalAsset",
          "type": "address"
        }
      ],
      "name": "setForWrapper",
      "outputs": [],
      "stateMutability": "nonpayable",
      "type": "function"
    },
    {
      "inputs": [
        {
          "internalType": "address",
          "name": "newOwner",
          "type": "address"
        }
      ],
      "name": "transferOwnership",
      "outputs": [],
      "stateMutability": "nonpayable",
      "type": "function"
    },
    {
      "inputs": [],
      "name": "wrappedHashi721Implementation",
      "outputs": [
        {
          "internalType": "address",
          "name": "",
          "type": "address"
        }
      ],
      "stateMutability": "view",
      "type": "function"
    },
    {
      "inputs": [
        {
          "internalType": "uint32",
          "name": "destination",
          "type": "uint32"
        },
        {
          "internalType": "uint256",
          "name": "relayerFee",
          "type": "uint256"
        },
        {
          "internalType": "uint256",
          "name": "slippage",
          "type": "uint256"
        },
        {
          "internalType": "address",
          "name": "asset",
          "type": "address"
        },
        {
          "internalType": "address",
          "name": "to",
          "type": "address"
        },
        {
          "internalType": "uint256",
          "name": "tokenId",
          "type": "uint256"
        },
        {
          "internalType": "bool",
          "name": "isTokenURIIgnored",
          "type": "bool"
        }
      ],
      "name": "xCall",
      "outputs": [
        {
          "internalType": "bytes32",
          "name": "",
          "type": "bytes32"
        }
      ],
      "stateMutability": "payable",
      "type": "function"
    },
    {
      "inputs": [
        {
          "internalType": "bytes32",
          "name": "transferId",
          "type": "bytes32"
        },
        {
          "internalType": "uint256",
          "name": "amount",
          "type": "uint256"
        },
        {
          "internalType": "address",
          "name": "asset",
          "type": "address"
        },
        {
          "internalType": "address",
          "name": "originSender",
          "type": "address"
        },
        {
          "internalType": "uint32",
          "name": "origin",
          "type": "uint32"
        },
        {
          "internalType": "bytes",
          "name": "callData",
          "type": "bytes"
        }
      ],
      "name": "xReceive",
      "outputs": [
        {
          "internalType": "bytes",
          "name": "",
          "type": "bytes"
        }
      ],
      "stateMutability": "nonpayable",
      "type": "function"
    }
  ],
  "bytecode": "0x608060405234801561001057600080fd5b50611c2f806100206000396000f3fe60806040526004361061010e5760003560e01c8063802ef739116100a5578063c656591611610074578063de4b054811610059578063de4b0548146103d3578063f2fde38b146103f3578063fd614f411461041357600080fd5b8063c656591614610386578063dae74dd4146103b357600080fd5b8063802ef7391461031d5780638da5cb5b1461033e578063a0f0a3121461035c578063c34f6ec41461037157600080fd5b8063485cc955116100e1578063485cc95514610280578063539ee209146102a057806368b2ba68146102e8578063715018a61461030857600080fd5b80630b8931cb14610113578063150b7a021461016657806325013d3c146101db5780633ae455281461024a575b600080fd5b34801561011f57600080fd5b5061014961012e36600461158c565b6097602052600090815260409020546001600160a01b031681565b6040516001600160a01b0390911681526020015b60405180910390f35b34801561017257600080fd5b506101aa6101813660046116ab565b7f150b7a0200000000000000000000000000000000000000000000000000000000949350505050565b6040517fffffffff00000000000000000000000000000000000000000000000000000000909116815260200161015d565b3480156101e757600080fd5b506102486101f6366004611717565b6001600160a01b039283166000908152609960209081526040808320805463ffffffff191663ffffffff9690961695909517909455609a90529190912080546001600160a01b03191691909216179055565b005b34801561025657600080fd5b50610149610265366004611762565b609a602052600090815260409020546001600160a01b031681565b34801561028c57600080fd5b5061024861029b36600461177f565b610433565b3480156102ac57600080fd5b506102d36102bb366004611762565b60996020526000908152604090205463ffffffff1681565b60405163ffffffff909116815260200161015d565b3480156102f457600080fd5b506102486103033660046117b8565b61057e565b34801561031457600080fd5b506102486105e4565b61033061032b3660046117e4565b6105f8565b60405190815260200161015d565b34801561034a57600080fd5b506065546001600160a01b0316610149565b34801561036857600080fd5b50610149600081565b34801561037d57600080fd5b50610330600081565b34801561039257600080fd5b506103a66103a136600461185f565b610ae9565b60405161015d9190611942565b3480156103bf57600080fd5b50609b54610149906001600160a01b031681565b3480156103df57600080fd5b50609854610149906001600160a01b031681565b3480156103ff57600080fd5b5061024861040e366004611762565b610b1e565b34801561041f57600080fd5b506103a661042e366004611955565b610bae565b600054610100900460ff16158080156104535750600054600160ff909116105b8061046d5750303b15801561046d575060005460ff166001145b6104e45760405162461bcd60e51b815260206004820152602e60248201527f496e697469616c697a61626c653a20636f6e747261637420697320616c72656160448201527f647920696e697469616c697a656400000000000000000000000000000000000060648201526084015b60405180910390fd5b6000805460ff191660011790558015610507576000805461ff0019166101001790555b61050f610db8565b61051883610e23565b609b80546001600160a01b0319166001600160a01b0384161790558015610579576000805461ff0019169055604051600181527f7f26b83ff96e1f2b6a682f133852f6798a09c465da95921460cefb38474024989060200160405180910390a15b505050565b610586610e9f565b63ffffffff821660008181526097602052604080822080546001600160a01b0319166001600160a01b03861690811790915590519092917fb95f7bd4ed333200a22dcfdd4921bfe48e8abc90a7d14f82334e7946479db83991a35050565b6105ec610e9f565b6105f66000610ef9565b565b6040517f6352211e0000000000000000000000000000000000000000000000000000000081526004810183905260009081906001600160a01b03871690636352211e90602401602060405180830381865afa15801561065b573d6000803e3d6000fd5b505050506040513d601f19601f8201168201806040525081019061067f91906119dc565b90506001600160a01b0381163314806107255750336040517f081812fc000000000000000000000000000000000000000000000000000000008152600481018690526001600160a01b039182169188169063081812fc90602401602060405180830381865afa1580156106f6573d6000803e3d6000fd5b505050506040513d601f19601f8201168201806040525081019061071a91906119dc565b6001600160a01b0316145b806107c357506001600160a01b03861663e985e9c582336040517fffffffff0000000000000000000000000000000000000000000000000000000060e085901b1681526001600160a01b03928316600482015291166024820152604401602060405180830381865afa15801561079f573d6000803e3d6000fd5b505050506040513d601f19601f820116820180604052508101906107c391906119f9565b6108355760405162461bcd60e51b815260206004820152602660248201527f48617368693732314272696467653a206d73672073656e64657220697320696e60448201527f76616c696420000000000000000000000000000000000000000000000000000060648201526084016104db565b6060836108c5576040517fc87b56dd000000000000000000000000000000000000000000000000000000008152600481018690526001600160a01b0388169063c87b56dd90602401600060405180830381865afa15801561089a573d6000803e3d6000fd5b505050506040513d6000823e601f3d908101601f191682016040526108c29190810190611a63565b90505b6001600160a01b038781166000908152609a6020526040812054909182911615801561090d57506001600160a01b03891660009081526099602052604090205463ffffffff16155b15610a14576040517f23b872dd0000000000000000000000000000000000000000000000000000000081526001600160a01b038581166004830152306024830152604482018990528a16906323b872dd90606401600060405180830381600087803b15801561097b57600080fd5b505af115801561098f573d6000803e3d6000fd5b50505050609860009054906101000a90046001600160a01b03166001600160a01b031663c2fb26a66040518163ffffffff1660e01b8152600401602060405180830381865afa1580156109e6573d6000803e3d6000fd5b505050506040513d601f19601f82011682018060405250810190610a0a9190611a98565b9150889050610abb565b6040517f42966c68000000000000000000000000000000000000000000000000000000008152600481018890526001600160a01b038a16906342966c6890602401600060405180830381600087803b158015610a6f57600080fd5b505af1158015610a83573d6000803e3d6000fd5b5050506001600160a01b03808b16600090815260996020908152604080832054609a9092529091205463ffffffff9091169450169150505b6000610aca83838b8b88610ae9565b9050610ad88d8d8d84610f4b565b9d9c50505050505050505050505050565b60608585858585604051602001610b04959493929190611ab1565b604051602081830303815290604052905095945050505050565b610b26610e9f565b6001600160a01b038116610ba25760405162461bcd60e51b815260206004820152602660248201527f4f776e61626c653a206e6577206f776e657220697320746865207a65726f206160448201527f646472657373000000000000000000000000000000000000000000000000000060648201526084016104db565b610bab81610ef9565b50565b60606001600160a01b03851615610c2d5760405162461bcd60e51b815260206004820152602560248201527f4861736869436f6e6e657874416461707465723a20617373657420697320696e60448201527f76616c696400000000000000000000000000000000000000000000000000000060648201526084016104db565b8515610c8a5760405162461bcd60e51b815260206004820152602660248201527f4861736869436f6e6e657874416461707465723a20616d6f756e7420697320696044820152651b9d985b1a5960d21b60648201526084016104db565b63ffffffff83166000908152609760205260409020546001600160a01b039081169085168114610d0b5760405162461bcd60e51b815260206004820152602660248201527f4861736869436f6e6e657874416461707465723a2062726964676520697320696044820152651b9d985b1a5960d21b60648201526084016104db565b6098546001600160a01b0316336001600160a01b031614610d945760405162461bcd60e51b815260206004820152602b60248201527f4861736869436f6e6e657874416461707465723a206d73672073656e6465722060448201527f697320696e76616c69642000000000000000000000000000000000000000000060648201526084016104db565b610d9d8361104f565b50506040805160208101909152600081529695505050505050565b600054610100900460ff166105f65760405162461bcd60e51b815260206004820152602b60248201527f496e697469616c697a61626c653a20636f6e7472616374206973206e6f74206960448201526a6e697469616c697a696e6760a81b60648201526084016104db565b600054610100900460ff16610e8e5760405162461bcd60e51b815260206004820152602b60248201527f496e697469616c697a61626c653a20636f6e7472616374206973206e6f74206960448201526a6e697469616c697a696e6760a81b60648201526084016104db565b610e96611349565b610bab816113bd565b6065546001600160a01b031633146105f65760405162461bcd60e51b815260206004820181905260248201527f4f776e61626c653a2063616c6c6572206973206e6f7420746865206f776e657260448201526064016104db565b606580546001600160a01b038381166001600160a01b0319831681179093556040519116919082907f8be0079c531659141344cd1fd0a4f28419497f9722a3daafe3b4186f6b6457e090600090a35050565b63ffffffff84166000908152609760205260408120546001600160a01b031680610fc65760405162461bcd60e51b815260206004820152602660248201527f4861736869436f6e6e657874416461707465723a2062726964676520697320696044820152651b9d985b1a5960d21b60648201526084016104db565b6098546001600160a01b0316638aac16ba878360003360008a8a6040518863ffffffff1660e01b81526004016110029796959493929190611afa565b6020604051808303816000875af1158015611021573d6000803e3d6000fd5b505050506040513d601f19601f820116820180604052508101906110459190611a98565b9695505050505050565b60008060008060006110608661144a565b94509450945094509450609860009054906101000a90046001600160a01b03166001600160a01b031663c2fb26a66040518163ffffffff1660e01b8152600401602060405180830381865afa1580156110bd573d6000803e3d6000fd5b505050506040513d601f19601f820116820180604052508101906110e19190611a98565b63ffffffff168563ffffffff16146112bb576040805160e087901b7fffffffff0000000000000000000000000000000000000000000000000000000016602080830191909152606087901b6bffffffffffffffffffffffff191660248301528251601881840301815260389092019092528051910120609b54600090611170906001600160a01b031683611478565b508590506001600160a01b0381163b61123957609b54611199906001600160a01b0316836114dd565b50806001600160a01b0316638129fc1c6040518163ffffffff1660e01b8152600401600060405180830381600087803b1580156111d557600080fd5b505af11580156111e9573d6000803e3d6000fd5b505050506001600160a01b038181166000908152609960209081526040808320805463ffffffff191663ffffffff8d16179055609a909152902080546001600160a01b0319169188169190911790555b6040517fd3fc98640000000000000000000000000000000000000000000000000000000081526001600160a01b0382169063d3fc98649061128290889088908890600401611b53565b600060405180830381600087803b15801561129c57600080fd5b505af11580156112b0573d6000803e3d6000fd5b505050505050611341565b6040517f42842e0e0000000000000000000000000000000000000000000000000000000081523060048201526001600160a01b038481166024830152604482018490528591908216906342842e0e90606401600060405180830381600087803b15801561132757600080fd5b505af115801561133b573d6000803e3d6000fd5b50505050505b505050505050565b600054610100900460ff166113b45760405162461bcd60e51b815260206004820152602b60248201527f496e697469616c697a61626c653a20636f6e7472616374206973206e6f74206960448201526a6e697469616c697a696e6760a81b60648201526084016104db565b6105f633610ef9565b600054610100900460ff166114285760405162461bcd60e51b815260206004820152602b60248201527f496e697469616c697a61626c653a20636f6e7472616374206973206e6f74206960448201526a6e697469616c697a696e6760a81b60648201526084016104db565b609880546001600160a01b0319166001600160a01b0392909216919091179055565b6000806000806060858060200190518101906114669190611b84565b939a9299509097509550909350915050565b6040513060388201526f5af43d82803e903d91602b57fd5bf3ff602482015260148101839052733d602d80600a3d3981f3363d3d373d3d3d363d738152605881018290526037600c820120607882015260556043909101206000905b90505b92915050565b6000763d602d80600a3d3981f3363d3d373d3d3d363d730000008360601b60e81c176000526e5af43d82803e903d91602b57fd5bf38360781b1760205281603760096000f590506001600160a01b0381166114d75760405162461bcd60e51b815260206004820152601760248201527f455243313136373a2063726561746532206661696c656400000000000000000060448201526064016104db565b63ffffffff81168114610bab57600080fd5b60006020828403121561159e57600080fd5b81356115a98161157a565b9392505050565b6001600160a01b0381168114610bab57600080fd5b7f4e487b7100000000000000000000000000000000000000000000000000000000600052604160045260246000fd5b604051601f8201601f1916810167ffffffffffffffff8111828210171561161d5761161d6115c5565b604052919050565b600067ffffffffffffffff82111561163f5761163f6115c5565b50601f01601f191660200190565b600061166061165b84611625565b6115f4565b905082815283838301111561167457600080fd5b828260208301376000602084830101529392505050565b600082601f83011261169c57600080fd5b6114d48383356020850161164d565b600080600080608085870312156116c157600080fd5b84356116cc816115b0565b935060208501356116dc816115b0565b925060408501359150606085013567ffffffffffffffff8111156116ff57600080fd5b61170b8782880161168b565b91505092959194509250565b60008060006060848603121561172c57600080fd5b8335611737816115b0565b925060208401356117478161157a565b91506040840135611757816115b0565b809150509250925092565b60006020828403121561177457600080fd5b81356115a9816115b0565b6000806040838503121561179257600080fd5b823561179d816115b0565b915060208301356117ad816115b0565b809150509250929050565b600080604083850312156117cb57600080fd5b823561179d8161157a565b8015158114610bab57600080fd5b600080600080600080600060e0888a0312156117ff57600080fd5b873561180a8161157a565b965060208801359550604088013594506060880135611828816115b0565b93506080880135611838816115b0565b925060a0880135915060c088013561184f816117d6565b8091505092959891949750929550565b600080600080600060a0868803121561187757600080fd5b85356118828161157a565b94506020860135611892816115b0565b935060408601356118a2816115b0565b925060608601359150608086013567ffffffffffffffff8111156118c557600080fd5b8601601f810188136118d657600080fd5b6118e58882356020840161164d565b9150509295509295909350565b60005b8381101561190d5781810151838201526020016118f5565b50506000910152565b6000815180845261192e8160208601602086016118f2565b601f01601f19169290920160200192915050565b6020815260006114d46020830184611916565b60008060008060008060c0878903121561196e57600080fd5b86359550602087013594506040870135611987816115b0565b93506060870135611997816115b0565b925060808701356119a78161157a565b915060a087013567ffffffffffffffff8111156119c357600080fd5b6119cf89828a0161168b565b9150509295509295509295565b6000602082840312156119ee57600080fd5b81516115a9816115b0565b600060208284031215611a0b57600080fd5b81516115a9816117d6565b600082601f830112611a2757600080fd5b8151611a3561165b82611625565b818152846020838601011115611a4a57600080fd5b611a5b8260208301602087016118f2565b949350505050565b600060208284031215611a7557600080fd5b815167ffffffffffffffff811115611a8c57600080fd5b611a5b84828501611a16565b600060208284031215611aaa57600080fd5b5051919050565b63ffffffff8616815260006001600160a01b03808716602084015280861660408401525083606083015260a06080830152611aef60a0830184611916565b979650505050505050565b63ffffffff8816815260006001600160a01b03808916602084015280881660408401528087166060840152508460808301528360a083015260e060c0830152611b4660e0830184611916565b9998505050505050505050565b6001600160a01b0384168152826020820152606060408201526000611b7b6060830184611916565b95945050505050565b600080600080600060a08688031215611b9c57600080fd5b8551611ba78161157a565b6020870151909550611bb8816115b0565b6040870151909450611bc9816115b0565b60608701516080880151919450925067ffffffffffffffff811115611bed57600080fd5b6118e588828901611a1656fea2646970667358221220e9a09f94c4c1a52df82aa96e70e7305309e83a71b0a1d9cddb99a7e6e8997ded64736f6c63430008110033",
  "linkReferences": {},
  "deployedLinkReferences": {}
}