{"contracts/MinimalMessageBus.sol":{"MinimalMessageBus":{"abi":[{"inputs":[{"internalType":"bytes","name":"","type":"bytes"}],"name":"calcFee","outputs":[{"internalType":"uint256","name":"","type":"uint256"}],"stateMutability":"view","type":"function"},{"inputs":[{"internalType":"bytes","name":"","type":"bytes"},{"components":[{"internalType":"address","name":"sender","type":"address"},{"internalType":"address","name":"receiver","type":"address"},{"internalType":"uint64","name":"srcChainId","type":"uint64"},{"internalType":"bytes32","name":"srcTxHash","type":"bytes32"}],"internalType":"struct MsgDataTypes.RouteInfo","name":"","type":"tuple"},{"internalType":"bytes[]","name":"","type":"bytes[]"},{"internalType":"address[]","name":"","type":"address[]"},{"internalType":"uint256[]","name":"","type":"uint256[]"}],"name":"executeMessage","outputs":[],"stateMutability":"payable","type":"function"},{"inputs":[{"internalType":"bytes","name":"","type":"bytes"},{"components":[{"internalType":"enum MsgDataTypes.TransferType","name":"t","type":"uint8"},{"internalType":"address","name":"sender","type":"address"},{"internalType":"address","name":"receiver","type":"address"},{"internalType":"address","name":"token","type":"address"},{"internalType":"uint256","name":"amount","type":"uint256"},{"internalType":"uint64","name":"wdseq","type":"uint64"},{"internalType":"uint64","name":"srcChainId","type":"uint64"},{"internalType":"bytes32","name":"refId","type":"bytes32"},{"internalType":"bytes32","name":"srcTxHash","type":"bytes32"}],"internalType":"struct MsgDataTypes.TransferInfo","name":"","type":"tuple"},{"internalType":"bytes[]","name":"","type":"bytes[]"},{"internalType":"address[]","name":"","type":"address[]"},{"internalType":"uint256[]","name":"","type":"uint256[]"}],"name":"executeMessageWithTransfer","outputs":[],"stateMutability":"payable","type":"function"},{"inputs":[{"internalType":"bytes","name":"","type":"bytes"},{"components":[{"internalType":"enum MsgDataTypes.TransferType","name":"t","type":"uint8"},{"internalType":"address","name":"sender","type":"address"},{"internalType":"address","name":"receiver","type":"address"},{"internalType":"address","name":"token","type":"address"},{"internalType":"uint256","name":"amount","type":"uint256"},{"internalType":"uint64","name":"wdseq","type":"uint64"},{"internalType":"uint64","name":"srcChainId","type":"uint64"},{"internalType":"bytes32","name":"refId","type":"bytes32"},{"internalType":"bytes32","name":"srcTxHash","type":"bytes32"}],"internalType":"struct MsgDataTypes.TransferInfo","name":"","type":"tuple"},{"internalType":"bytes[]","name":"","type":"bytes[]"},{"internalType":"address[]","name":"","type":"address[]"},{"internalType":"uint256[]","name":"","type":"uint256[]"}],"name":"executeMessageWithTransferRefund","outputs":[],"stateMutability":"payable","type":"function"},{"inputs":[{"internalType":"address","name":"_user","type":"address"},{"internalType":"address","name":"_nft","type":"address"},{"internalType":"uint256","name":"_id","type":"uint256"},{"internalType":"string","name":"_uri","type":"string"}],"name":"getEncodedData","outputs":[{"internalType":"bytes","name":"","type":"bytes"}],"stateMutability":"pure","type":"function"},{"inputs":[],"name":"liquidityBridge","outputs":[{"internalType":"address","name":"","type":"address"}],"stateMutability":"view","type":"function"},{"inputs":[],"name":"pegBridge","outputs":[{"internalType":"address","name":"","type":"address"}],"stateMutability":"view","type":"function"},{"inputs":[],"name":"pegBridgeV2","outputs":[{"internalType":"address","name":"","type":"address"}],"stateMutability":"view","type":"function"},{"inputs":[],"name":"pegVault","outputs":[{"internalType":"address","name":"","type":"address"}],"stateMutability":"view","type":"function"},{"inputs":[],"name":"pegVaultV2","outputs":[{"internalType":"address","name":"","type":"address"}],"stateMutability":"view","type":"function"},{"inputs":[{"internalType":"address","name":"","type":"address"},{"internalType":"uint256","name":"","type":"uint256"},{"internalType":"bytes","name":"","type":"bytes"}],"name":"sendMessage","outputs":[],"stateMutability":"payable","type":"function"},{"inputs":[{"internalType":"address","name":"","type":"address"},{"internalType":"uint256","name":"","type":"uint256"},{"internalType":"address","name":"","type":"address"},{"internalType":"bytes32","name":"","type":"bytes32"},{"internalType":"bytes","name":"","type":"bytes"}],"name":"sendMessageWithTransfer","outputs":[],"stateMutability":"payable","type":"function"},{"inputs":[{"internalType":"address","name":"","type":"address"},{"internalType":"uint256","name":"","type":"uint256"},{"internalType":"bytes[]","name":"","type":"bytes[]"},{"internalType":"address[]","name":"","type":"address[]"},{"internalType":"uint256[]","name":"","type":"uint256[]"}],"name":"withdrawFee","outputs":[],"stateMutability":"nonpayable","type":"function"}],"evm":{"bytecode":{"linkReferences":{},"object":"608060405234801561001057600080fd5b506116fc806100206000396000f3fe6080604052600436106100c25760003560e01c80637b80ab201161007f5780639f3ce55a116100595780639f3ce55a14610230578063c66a9c5a1461024c578063d8257d1714610277578063dfa2dbaf146102a2576100c2565b80637b80ab20146101be57806382980dc4146101da57806395b12c2714610205576100c2565b80632ff4c411146100c75780633f395aff146100f05780634289fbb31461010c578063468a2d04146101285780635335dca214610144578063786f91ce14610181575b600080fd5b3480156100d357600080fd5b506100ee60048036038101906100e991906107f7565b6102cd565b005b61010a6004803603810190610105919061094e565b610318565b005b61012660048036038101906101219190610a84565b610364565b005b610142600480360381019061013d9190610b3d565b6103ad565b005b34801561015057600080fd5b5061016b60048036038101906101669190610c3a565b6103f9565b6040516101789190610c96565b60405180910390f35b34801561018d57600080fd5b506101a860048036038101906101a39190610df2565b610401565b6040516101b59190610efd565b60405180910390f35b6101d860048036038101906101d3919061094e565b61047f565b005b3480156101e657600080fd5b506101ef6104cb565b6040516101fc9190610f2e565b60405180910390f35b34801561021157600080fd5b5061021a610514565b6040516102279190610f2e565b60405180910390f35b61024a60048036038101906102459190610f49565b61055d565b005b34801561025857600080fd5b50610261610563565b60405161026e9190610f2e565b60405180910390f35b34801561028357600080fd5b5061028c6105ac565b6040516102999190610f2e565b60405180910390f35b3480156102ae57600080fd5b506102b76105f5565b6040516102c49190610f2e565b60405180910390f35b600061030e576040517f08c379a000000000000000000000000000000000000000000000000000000000815260040161030590611040565b60405180910390fd5b5050505050505050565b6000610359576040517f08c379a0000000000000000000000000000000000000000000000000000000008152600401610350906110f8565b60405180910390fd5b505050505050505050565b60006103a5576040517f08c379a000000000000000000000000000000000000000000000000000000000815260040161039c9061118a565b60405180910390fd5b505050505050565b60006103ee576040517f08c379a00000000000000000000000000000000000000000000000000000000081526004016103e59061121c565b60405180910390fd5b505050505050505050565b600092915050565b6060600060405180608001604052808773ffffffffffffffffffffffffffffffffffffffff1681526020018673ffffffffffffffffffffffffffffffffffffffff168152602001858152602001848152506040516020016104629190611312565b604051602081830303815290604052905080915050949350505050565b60006104c0576040517f08c379a00000000000000000000000000000000000000000000000000000000081526004016104b7906113cc565b60405180910390fd5b505050505050505050565b60008061050d576040517f08c379a00000000000000000000000000000000000000000000000000000000081526004016105049061145e565b60405180910390fd5b6000905090565b600080610556576040517f08c379a000000000000000000000000000000000000000000000000000000000815260040161054d906114f0565b60405180910390fd5b6000905090565b50505050565b6000806105a5576040517f08c379a000000000000000000000000000000000000000000000000000000000815260040161059c90611582565b60405180910390fd5b6000905090565b6000806105ee576040517f08c379a00000000000000000000000000000000000000000000000000000000081526004016105e590611614565b60405180910390fd5b6000905090565b600080610637576040517f08c379a000000000000000000000000000000000000000000000000000000000815260040161062e906116a6565b60405180910390fd5b6000905090565b6000604051905090565b600080fd5b600080fd5b600073ffffffffffffffffffffffffffffffffffffffff82169050919050565b600061067d82610652565b9050919050565b61068d81610672565b811461069857600080fd5b50565b6000813590506106aa81610684565b92915050565b6000819050919050565b6106c3816106b0565b81146106ce57600080fd5b50565b6000813590506106e0816106ba565b92915050565b600080fd5b600080fd5b600080fd5b60008083601f84011261070b5761070a6106e6565b5b8235905067ffffffffffffffff811115610728576107276106eb565b5b602083019150836020820283011115610744576107436106f0565b5b9250929050565b60008083601f840112610761576107606106e6565b5b8235905067ffffffffffffffff81111561077e5761077d6106eb565b5b60208301915083602082028301111561079a576107996106f0565b5b9250929050565b60008083601f8401126107b7576107b66106e6565b5b8235905067ffffffffffffffff8111156107d4576107d36106eb565b5b6020830191508360208202830111156107f0576107ef6106f0565b5b9250929050565b60008060008060008060008060a0898b03121561081757610816610648565b5b60006108258b828c0161069b565b98505060206108368b828c016106d1565b975050604089013567ffffffffffffffff8111156108575761085661064d565b5b6108638b828c016106f5565b9650965050606089013567ffffffffffffffff8111156108865761088561064d565b5b6108928b828c0161074b565b9450945050608089013567ffffffffffffffff8111156108b5576108b461064d565b5b6108c18b828c016107a1565b92509250509295985092959890939650565b60008083601f8401126108e9576108e86106e6565b5b8235905067ffffffffffffffff811115610906576109056106eb565b5b602083019150836001820283011115610922576109216106f0565b5b9250929050565b600080fd5b6000610120828403121561094557610944610929565b5b81905092915050565b60008060008060008060008060006101a08a8c03121561097157610970610648565b5b60008a013567ffffffffffffffff81111561098f5761098e61064d565b5b61099b8c828d016108d3565b995099505060206109ae8c828d0161092e565b9750506101408a013567ffffffffffffffff8111156109d0576109cf61064d565b5b6109dc8c828d016106f5565b96509650506101608a013567ffffffffffffffff811115610a00576109ff61064d565b5b610a0c8c828d0161074b565b94509450506101808a013567ffffffffffffffff811115610a3057610a2f61064d565b5b610a3c8c828d016107a1565b92509250509295985092959850929598565b6000819050919050565b610a6181610a4e565b8114610a6c57600080fd5b50565b600081359050610a7e81610a58565b92915050565b60008060008060008060a08789031215610aa157610aa0610648565b5b6000610aaf89828a0161069b565b9650506020610ac089828a016106d1565b9550506040610ad189828a0161069b565b9450506060610ae289828a01610a6f565b935050608087013567ffffffffffffffff811115610b0357610b0261064d565b5b610b0f89828a016108d3565b92509250509295509295509295565b600060808284031215610b3457610b33610929565b5b81905092915050565b60008060008060008060008060006101008a8c031215610b6057610b5f610648565b5b60008a013567ffffffffffffffff811115610b7e57610b7d61064d565b5b610b8a8c828d016108d3565b99509950506020610b9d8c828d01610b1e565b97505060a08a013567ffffffffffffffff811115610bbe57610bbd61064d565b5b610bca8c828d016106f5565b965096505060c08a013567ffffffffffffffff811115610bed57610bec61064d565b5b610bf98c828d0161074b565b945094505060e08a013567ffffffffffffffff811115610c1c57610c1b61064d565b5b610c288c828d016107a1565b92509250509295985092959850929598565b60008060208385031215610c5157610c50610648565b5b600083013567ffffffffffffffff811115610c6f57610c6e61064d565b5b610c7b858286016108d3565b92509250509250929050565b610c90816106b0565b82525050565b6000602082019050610cab6000830184610c87565b92915050565b600080fd5b6000601f19601f8301169050919050565b7f4e487b7100000000000000000000000000000000000000000000000000000000600052604160045260246000fd5b610cff82610cb6565b810181811067ffffffffffffffff82111715610d1e57610d1d610cc7565b5b80604052505050565b6000610d3161063e565b9050610d3d8282610cf6565b919050565b600067ffffffffffffffff821115610d5d57610d5c610cc7565b5b610d6682610cb6565b9050602081019050919050565b82818337600083830152505050565b6000610d95610d9084610d42565b610d27565b905082815260208101848484011115610db157610db0610cb1565b5b610dbc848285610d73565b509392505050565b600082601f830112610dd957610dd86106e6565b5b8135610de9848260208601610d82565b91505092915050565b60008060008060808587031215610e0c57610e0b610648565b5b6000610e1a8782880161069b565b9450506020610e2b8782880161069b565b9350506040610e3c878288016106d1565b925050606085013567ffffffffffffffff811115610e5d57610e5c61064d565b5b610e6987828801610dc4565b91505092959194509250565b600081519050919050565b600082825260208201905092915050565b60005b83811015610eaf578082015181840152602081019050610e94565b83811115610ebe576000848401525b50505050565b6000610ecf82610e75565b610ed98185610e80565b9350610ee9818560208601610e91565b610ef281610cb6565b840191505092915050565b60006020820190508181036000830152610f178184610ec4565b905092915050565b610f2881610672565b82525050565b6000602082019050610f436000830184610f1f565b92915050565b60008060008060608587031215610f6357610f62610648565b5b6000610f718782880161069b565b9450506020610f82878288016106d1565b935050604085013567ffffffffffffffff811115610fa357610fa261064d565b5b610faf878288016108d3565b925092505092959194509250565b600082825260208201905092915050565b7f4d696e696d616c4d6573736167654275733a207769746864726177466565206960008201527f73206e6f7420696d706c656d656e746564210000000000000000000000000000602082015250565b600061102a603283610fbd565b915061103582610fce565b604082019050919050565b600060208201905081810360008301526110598161101d565b9050919050565b7f4d696e696d616c4d6573736167654275733a20657865637574654d657373616760008201527f65576974685472616e73666572206973206e6f7420696d706c656d656e74656460208201527f2100000000000000000000000000000000000000000000000000000000000000604082015250565b60006110e2604183610fbd565b91506110ed82611060565b606082019050919050565b60006020820190508181036000830152611111816110d5565b9050919050565b7f4d696e696d616c4d6573736167654275733a2073656e644d657373616765576960008201527f74685472616e73666572206973206e6f7420696d706c656d656e746564210000602082015250565b6000611174603e83610fbd565b915061117f82611118565b604082019050919050565b600060208201905081810360008301526111a381611167565b9050919050565b7f4d696e696d616c4d6573736167654275733a20657865637574654d657373616760008201527f65206973206e6f7420696d706c656d656e746564210000000000000000000000602082015250565b6000611206603583610fbd565b9150611211826111aa565b604082019050919050565b60006020820190508181036000830152611235816111f9565b9050919050565b61124581610672565b82525050565b611254816106b0565b82525050565b600081519050919050565b600082825260208201905092915050565b60006112818261125a565b61128b8185611265565b935061129b818560208601610e91565b6112a481610cb6565b840191505092915050565b60006080830160008301516112c7600086018261123c565b5060208301516112da602086018261123c565b5060408301516112ed604086018261124b565b50606083015184820360608601526113058282611276565b9150508091505092915050565b6000602082019050818103600083015261132c81846112af565b905092915050565b7f4d696e696d616c4d6573736167654275733a20657865637574654d657373616760008201527f65576974685472616e73666572526566756e64206973206e6f7420696d706c6560208201527f6d656e7465642100000000000000000000000000000000000000000000000000604082015250565b60006113b6604783610fbd565b91506113c182611334565b606082019050919050565b600060208201905081810360008301526113e5816113a9565b9050919050565b7f4d696e696d616c4d6573736167654275733a206c69717569646974794272696460008201527f6765206973206e6f7420696d706c656d656e7465642100000000000000000000602082015250565b6000611448603683610fbd565b9150611453826113ec565b604082019050919050565b600060208201905081810360008301526114778161143b565b9050919050565b7f4d696e696d616c4d6573736167654275733a207065674272696467655632206960008201527f73206e6f7420696d706c656d656e746564210000000000000000000000000000602082015250565b60006114da603283610fbd565b91506114e58261147e565b604082019050919050565b60006020820190508181036000830152611509816114cd565b9050919050565b7f4d696e696d616c4d6573736167654275733a207065675661756c74563220697360008201527f206e6f7420696d706c656d656e74656421000000000000000000000000000000602082015250565b600061156c603183610fbd565b915061157782611510565b604082019050919050565b6000602082019050818103600083015261159b8161155f565b9050919050565b7f4d696e696d616c4d6573736167654275733a207065675661756c74206973206e60008201527f6f7420696d706c656d656e746564210000000000000000000000000000000000602082015250565b60006115fe602f83610fbd565b9150611609826115a2565b604082019050919050565b6000602082019050818103600083015261162d816115f1565b9050919050565b7f4d696e696d616c4d6573736167654275733a207065674272696467652069732060008201527f6e6f7420696d706c656d656e7465642100000000000000000000000000000000602082015250565b6000611690603083610fbd565b915061169b82611634565b604082019050919050565b600060208201905081810360008301526116bf81611683565b905091905056fea2646970667358221220e0bf29fe28393e18ba73c0708881dbd7f3e80677881e1913326edb55ec8e37fb64736f6c63430008090033","opcodes":"PUSH1 0x80 PUSH1 0x40 MSTORE CALLVALUE DUP1 ISZERO PUSH2 0x10 JUMPI PUSH1 0x0 DUP1 REVERT JUMPDEST POP PUSH2 0x16FC DUP1 PUSH2 0x20 PUSH1 0x0 CODECOPY PUSH1 0x0 RETURN INVALID PUSH1 0x80 PUSH1 0x40 MSTORE PUSH1 0x4 CALLDATASIZE LT PUSH2 0xC2 JUMPI PUSH1 0x0 CALLDATALOAD PUSH1 0xE0 SHR DUP1 PUSH4 0x7B80AB20 GT PUSH2 0x7F JUMPI DUP1 PUSH4 0x9F3CE55A GT PUSH2 0x59 JUMPI DUP1 PUSH4 0x9F3CE55A EQ PUSH2 0x230 JUMPI DUP1 PUSH4 0xC66A9C5A EQ PUSH2 0x24C JUMPI DUP1 PUSH4 0xD8257D17 EQ PUSH2 0x277 JUMPI DUP1 PUSH4 0xDFA2DBAF EQ PUSH2 0x2A2 JUMPI PUSH2 0xC2 JUMP JUMPDEST DUP1 PUSH4 0x7B80AB20 EQ PUSH2 0x1BE JUMPI DUP1 PUSH4 0x82980DC4 EQ PUSH2 0x1DA JUMPI DUP1 PUSH4 0x95B12C27 EQ PUSH2 0x205 JUMPI PUSH2 0xC2 JUMP JUMPDEST DUP1 PUSH4 0x2FF4C411 EQ PUSH2 0xC7 JUMPI DUP1 PUSH4 0x3F395AFF EQ PUSH2 0xF0 JUMPI DUP1 PUSH4 0x4289FBB3 EQ PUSH2 0x10C JUMPI DUP1 PUSH4 0x468A2D04 EQ PUSH2 0x128 JUMPI DUP1 PUSH4 0x5335DCA2 EQ PUSH2 0x144 JUMPI DUP1 PUSH4 0x786F91CE EQ PUSH2 0x181 JUMPI JUMPDEST PUSH1 0x0 DUP1 REVERT JUMPDEST CALLVALUE DUP1 ISZERO PUSH2 0xD3 JUMPI PUSH1 0x0 DUP1 REVERT JUMPDEST POP PUSH2 0xEE PUSH1 0x4 DUP1 CALLDATASIZE SUB DUP2 ADD SWAP1 PUSH2 0xE9 SWAP2 SWAP1 PUSH2 0x7F7 JUMP JUMPDEST PUSH2 0x2CD JUMP JUMPDEST STOP JUMPDEST PUSH2 0x10A PUSH1 0x4 DUP1 CALLDATASIZE SUB DUP2 ADD SWAP1 PUSH2 0x105 SWAP2 SWAP1 PUSH2 0x94E JUMP JUMPDEST PUSH2 0x318 JUMP JUMPDEST STOP JUMPDEST PUSH2 0x126 PUSH1 0x4 DUP1 CALLDATASIZE SUB DUP2 ADD SWAP1 PUSH2 0x121 SWAP2 SWAP1 PUSH2 0xA84 JUMP JUMPDEST PUSH2 0x364 JUMP JUMPDEST STOP JUMPDEST PUSH2 0x142 PUSH1 0x4 DUP1 CALLDATASIZE SUB DUP2 ADD SWAP1 PUSH2 0x13D SWAP2 SWAP1 PUSH2 0xB3D JUMP JUMPDEST PUSH2 0x3AD JUMP JUMPDEST STOP JUMPDEST CALLVALUE DUP1 ISZERO PUSH2 0x150 JUMPI PUSH1 0x0 DUP1 REVERT JUMPDEST POP PUSH2 0x16B PUSH1 0x4 DUP1 CALLDATASIZE SUB DUP2 ADD SWAP1 PUSH2 0x166 SWAP2 SWAP1 PUSH2 0xC3A JUMP JUMPDEST PUSH2 0x3F9 JUMP JUMPDEST PUSH1 0x40 MLOAD PUSH2 0x178 SWAP2 SWAP1 PUSH2 0xC96 JUMP JUMPDEST PUSH1 0x40 MLOAD DUP1 SWAP2 SUB SWAP1 RETURN JUMPDEST CALLVALUE DUP1 ISZERO PUSH2 0x18D JUMPI PUSH1 0x0 DUP1 REVERT JUMPDEST POP PUSH2 0x1A8 PUSH1 0x4 DUP1 CALLDATASIZE SUB DUP2 ADD SWAP1 PUSH2 0x1A3 SWAP2 SWAP1 PUSH2 0xDF2 JUMP JUMPDEST PUSH2 0x401 JUMP JUMPDEST PUSH1 0x40 MLOAD PUSH2 0x1B5 SWAP2 SWAP1 PUSH2 0xEFD JUMP JUMPDEST PUSH1 0x40 MLOAD DUP1 SWAP2 SUB SWAP1 RETURN JUMPDEST PUSH2 0x1D8 PUSH1 0x4 DUP1 CALLDATASIZE SUB DUP2 ADD SWAP1 PUSH2 0x1D3 SWAP2 SWAP1 PUSH2 0x94E JUMP JUMPDEST PUSH2 0x47F JUMP JUMPDEST STOP JUMPDEST CALLVALUE DUP1 ISZERO PUSH2 0x1E6 JUMPI PUSH1 0x0 DUP1 REVERT JUMPDEST POP PUSH2 0x1EF PUSH2 0x4CB JUMP JUMPDEST PUSH1 0x40 MLOAD PUSH2 0x1FC SWAP2 SWAP1 PUSH2 0xF2E JUMP JUMPDEST PUSH1 0x40 MLOAD DUP1 SWAP2 SUB SWAP1 RETURN JUMPDEST CALLVALUE DUP1 ISZERO PUSH2 0x211 JUMPI PUSH1 0x0 DUP1 REVERT JUMPDEST POP PUSH2 0x21A PUSH2 0x514 JUMP JUMPDEST PUSH1 0x40 MLOAD PUSH2 0x227 SWAP2 SWAP1 PUSH2 0xF2E JUMP JUMPDEST PUSH1 0x40 MLOAD DUP1 SWAP2 SUB SWAP1 RETURN JUMPDEST PUSH2 0x24A PUSH1 0x4 DUP1 CALLDATASIZE SUB DUP2 ADD SWAP1 PUSH2 0x245 SWAP2 SWAP1 PUSH2 0xF49 JUMP JUMPDEST PUSH2 0x55D JUMP JUMPDEST STOP JUMPDEST CALLVALUE DUP1 ISZERO PUSH2 0x258 JUMPI PUSH1 0x0 DUP1 REVERT JUMPDEST POP PUSH2 0x261 PUSH2 0x563 JUMP JUMPDEST PUSH1 0x40 MLOAD PUSH2 0x26E SWAP2 SWAP1 PUSH2 0xF2E JUMP JUMPDEST PUSH1 0x40 MLOAD DUP1 SWAP2 SUB SWAP1 RETURN JUMPDEST CALLVALUE DUP1 ISZERO PUSH2 0x283 JUMPI PUSH1 0x0 DUP1 REVERT JUMPDEST POP PUSH2 0x28C PUSH2 0x5AC JUMP JUMPDEST PUSH1 0x40 MLOAD PUSH2 0x299 SWAP2 SWAP1 PUSH2 0xF2E JUMP JUMPDEST PUSH1 0x40 MLOAD DUP1 SWAP2 SUB SWAP1 RETURN JUMPDEST CALLVALUE DUP1 ISZERO PUSH2 0x2AE JUMPI PUSH1 0x0 DUP1 REVERT JUMPDEST POP PUSH2 0x2B7 PUSH2 0x5F5 JUMP JUMPDEST PUSH1 0x40 MLOAD PUSH2 0x2C4 SWAP2 SWAP1 PUSH2 0xF2E JUMP JUMPDEST PUSH1 0x40 MLOAD DUP1 SWAP2 SUB SWAP1 RETURN JUMPDEST PUSH1 0x0 PUSH2 0x30E JUMPI PUSH1 0x40 MLOAD PUSH32 0x8C379A000000000000000000000000000000000000000000000000000000000 DUP2 MSTORE PUSH1 0x4 ADD PUSH2 0x305 SWAP1 PUSH2 0x1040 JUMP JUMPDEST PUSH1 0x40 MLOAD DUP1 SWAP2 SUB SWAP1 REVERT JUMPDEST POP POP POP POP POP POP POP POP JUMP JUMPDEST PUSH1 0x0 PUSH2 0x359 JUMPI PUSH1 0x40 MLOAD PUSH32 0x8C379A000000000000000000000000000000000000000000000000000000000 DUP2 MSTORE PUSH1 0x4 ADD PUSH2 0x350 SWAP1 PUSH2 0x10F8 JUMP JUMPDEST PUSH1 0x40 MLOAD DUP1 SWAP2 SUB SWAP1 REVERT JUMPDEST POP POP POP POP POP POP POP POP POP JUMP JUMPDEST PUSH1 0x0 PUSH2 0x3A5 JUMPI PUSH1 0x40 MLOAD PUSH32 0x8C379A000000000000000000000000000000000000000000000000000000000 DUP2 MSTORE PUSH1 0x4 ADD PUSH2 0x39C SWAP1 PUSH2 0x118A JUMP JUMPDEST PUSH1 0x40 MLOAD DUP1 SWAP2 SUB SWAP1 REVERT JUMPDEST POP POP POP POP POP POP JUMP JUMPDEST PUSH1 0x0 PUSH2 0x3EE JUMPI PUSH1 0x40 MLOAD PUSH32 0x8C379A000000000000000000000000000000000000000000000000000000000 DUP2 MSTORE PUSH1 0x4 ADD PUSH2 0x3E5 SWAP1 PUSH2 0x121C JUMP JUMPDEST PUSH1 0x40 MLOAD DUP1 SWAP2 SUB SWAP1 REVERT JUMPDEST POP POP POP POP POP POP POP POP POP JUMP JUMPDEST PUSH1 0x0 SWAP3 SWAP2 POP POP JUMP JUMPDEST PUSH1 0x60 PUSH1 0x0 PUSH1 0x40 MLOAD DUP1 PUSH1 0x80 ADD PUSH1 0x40 MSTORE DUP1 DUP8 PUSH20 0xFFFFFFFFFFFFFFFFFFFFFFFFFFFFFFFFFFFFFFFF AND DUP2 MSTORE PUSH1 0x20 ADD DUP7 PUSH20 0xFFFFFFFFFFFFFFFFFFFFFFFFFFFFFFFFFFFFFFFF AND DUP2 MSTORE PUSH1 0x20 ADD DUP6 DUP2 MSTORE PUSH1 0x20 ADD DUP5 DUP2 MSTORE POP PUSH1 0x40 MLOAD PUSH1 0x20 ADD PUSH2 0x462 SWAP2 SWAP1 PUSH2 0x1312 JUMP JUMPDEST PUSH1 0x40 MLOAD PUSH1 0x20 DUP2 DUP4 SUB SUB DUP2 MSTORE SWAP1 PUSH1 0x40 MSTORE SWAP1 POP DUP1 SWAP2 POP POP SWAP5 SWAP4 POP POP POP POP JUMP JUMPDEST PUSH1 0x0 PUSH2 0x4C0 JUMPI PUSH1 0x40 MLOAD PUSH32 0x8C379A000000000000000000000000000000000000000000000000000000000 DUP2 MSTORE PUSH1 0x4 ADD PUSH2 0x4B7 SWAP1 PUSH2 0x13CC JUMP JUMPDEST PUSH1 0x40 MLOAD DUP1 SWAP2 SUB SWAP1 REVERT JUMPDEST POP POP POP POP POP POP POP POP POP JUMP JUMPDEST PUSH1 0x0 DUP1 PUSH2 0x50D JUMPI PUSH1 0x40 MLOAD PUSH32 0x8C379A000000000000000000000000000000000000000000000000000000000 DUP2 MSTORE PUSH1 0x4 ADD PUSH2 0x504 SWAP1 PUSH2 0x145E JUMP JUMPDEST PUSH1 0x40 MLOAD DUP1 SWAP2 SUB SWAP1 REVERT JUMPDEST PUSH1 0x0 SWAP1 POP SWAP1 JUMP JUMPDEST PUSH1 0x0 DUP1 PUSH2 0x556 JUMPI PUSH1 0x40 MLOAD PUSH32 0x8C379A000000000000000000000000000000000000000000000000000000000 DUP2 MSTORE PUSH1 0x4 ADD PUSH2 0x54D SWAP1 PUSH2 0x14F0 JUMP JUMPDEST PUSH1 0x40 MLOAD DUP1 SWAP2 SUB SWAP1 REVERT JUMPDEST PUSH1 0x0 SWAP1 POP SWAP1 JUMP JUMPDEST POP POP POP POP JUMP JUMPDEST PUSH1 0x0 DUP1 PUSH2 0x5A5 JUMPI PUSH1 0x40 MLOAD PUSH32 0x8C379A000000000000000000000000000000000000000000000000000000000 DUP2 MSTORE PUSH1 0x4 ADD PUSH2 0x59C SWAP1 PUSH2 0x1582 JUMP JUMPDEST PUSH1 0x40 MLOAD DUP1 SWAP2 SUB SWAP1 REVERT JUMPDEST PUSH1 0x0 SWAP1 POP SWAP1 JUMP JUMPDEST PUSH1 0x0 DUP1 PUSH2 0x5EE JUMPI PUSH1 0x40 MLOAD PUSH32 0x8C379A000000000000000000000000000000000000000000000000000000000 DUP2 MSTORE PUSH1 0x4 ADD PUSH2 0x5E5 SWAP1 PUSH2 0x1614 JUMP JUMPDEST PUSH1 0x40 MLOAD DUP1 SWAP2 SUB SWAP1 REVERT JUMPDEST PUSH1 0x0 SWAP1 POP SWAP1 JUMP JUMPDEST PUSH1 0x0 DUP1 PUSH2 0x637 JUMPI PUSH1 0x40 MLOAD PUSH32 0x8C379A000000000000000000000000000000000000000000000000000000000 DUP2 MSTORE PUSH1 0x4 ADD PUSH2 0x62E SWAP1 PUSH2 0x16A6 JUMP JUMPDEST PUSH1 0x40 MLOAD DUP1 SWAP2 SUB SWAP1 REVERT JUMPDEST PUSH1 0x0 SWAP1 POP SWAP1 JUMP JUMPDEST PUSH1 0x0 PUSH1 0x40 MLOAD SWAP1 POP SWAP1 JUMP JUMPDEST PUSH1 0x0 DUP1 REVERT JUMPDEST PUSH1 0x0 DUP1 REVERT JUMPDEST PUSH1 0x0 PUSH20 0xFFFFFFFFFFFFFFFFFFFFFFFFFFFFFFFFFFFFFFFF DUP3 AND SWAP1 POP SWAP2 SWAP1 POP JUMP JUMPDEST PUSH1 0x0 PUSH2 0x67D DUP3 PUSH2 0x652 JUMP JUMPDEST SWAP1 POP SWAP2 SWAP1 POP JUMP JUMPDEST PUSH2 0x68D DUP2 PUSH2 0x672 JUMP JUMPDEST DUP2 EQ PUSH2 0x698 JUMPI PUSH1 0x0 DUP1 REVERT JUMPDEST POP JUMP JUMPDEST PUSH1 0x0 DUP2 CALLDATALOAD SWAP1 POP PUSH2 0x6AA DUP2 PUSH2 0x684 JUMP JUMPDEST SWAP3 SWAP2 POP POP JUMP JUMPDEST PUSH1 0x0 DUP2 SWAP1 POP SWAP2 SWAP1 POP JUMP JUMPDEST PUSH2 0x6C3 DUP2 PUSH2 0x6B0 JUMP JUMPDEST DUP2 EQ PUSH2 0x6CE JUMPI PUSH1 0x0 DUP1 REVERT JUMPDEST POP JUMP JUMPDEST PUSH1 0x0 DUP2 CALLDATALOAD SWAP1 POP PUSH2 0x6E0 DUP2 PUSH2 0x6BA JUMP JUMPDEST SWAP3 SWAP2 POP POP JUMP JUMPDEST PUSH1 0x0 DUP1 REVERT JUMPDEST PUSH1 0x0 DUP1 REVERT JUMPDEST PUSH1 0x0 DUP1 REVERT JUMPDEST PUSH1 0x0 DUP1 DUP4 PUSH1 0x1F DUP5 ADD SLT PUSH2 0x70B JUMPI PUSH2 0x70A PUSH2 0x6E6 JUMP JUMPDEST JUMPDEST DUP3 CALLDATALOAD SWAP1 POP PUSH8 0xFFFFFFFFFFFFFFFF DUP2 GT ISZERO PUSH2 0x728 JUMPI PUSH2 0x727 PUSH2 0x6EB JUMP JUMPDEST JUMPDEST PUSH1 0x20 DUP4 ADD SWAP2 POP DUP4 PUSH1 0x20 DUP3 MUL DUP4 ADD GT ISZERO PUSH2 0x744 JUMPI PUSH2 0x743 PUSH2 0x6F0 JUMP JUMPDEST JUMPDEST SWAP3 POP SWAP3 SWAP1 POP JUMP JUMPDEST PUSH1 0x0 DUP1 DUP4 PUSH1 0x1F DUP5 ADD SLT PUSH2 0x761 JUMPI PUSH2 0x760 PUSH2 0x6E6 JUMP JUMPDEST JUMPDEST DUP3 CALLDATALOAD SWAP1 POP PUSH8 0xFFFFFFFFFFFFFFFF DUP2 GT ISZERO PUSH2 0x77E JUMPI PUSH2 0x77D PUSH2 0x6EB JUMP JUMPDEST JUMPDEST PUSH1 0x20 DUP4 ADD SWAP2 POP DUP4 PUSH1 0x20 DUP3 MUL DUP4 ADD GT ISZERO PUSH2 0x79A JUMPI PUSH2 0x799 PUSH2 0x6F0 JUMP JUMPDEST JUMPDEST SWAP3 POP SWAP3 SWAP1 POP JUMP JUMPDEST PUSH1 0x0 DUP1 DUP4 PUSH1 0x1F DUP5 ADD SLT PUSH2 0x7B7 JUMPI PUSH2 0x7B6 PUSH2 0x6E6 JUMP JUMPDEST JUMPDEST DUP3 CALLDATALOAD SWAP1 POP PUSH8 0xFFFFFFFFFFFFFFFF DUP2 GT ISZERO PUSH2 0x7D4 JUMPI PUSH2 0x7D3 PUSH2 0x6EB JUMP JUMPDEST JUMPDEST PUSH1 0x20 DUP4 ADD SWAP2 POP DUP4 PUSH1 0x20 DUP3 MUL DUP4 ADD GT ISZERO PUSH2 0x7F0 JUMPI PUSH2 0x7EF PUSH2 0x6F0 JUMP JUMPDEST JUMPDEST SWAP3 POP SWAP3 SWAP1 POP JUMP JUMPDEST PUSH1 0x0 DUP1 PUSH1 0x0 DUP1 PUSH1 0x0 DUP1 PUSH1 0x0 DUP1 PUSH1 0xA0 DUP10 DUP12 SUB SLT ISZERO PUSH2 0x817 JUMPI PUSH2 0x816 PUSH2 0x648 JUMP JUMPDEST JUMPDEST PUSH1 0x0 PUSH2 0x825 DUP12 DUP3 DUP13 ADD PUSH2 0x69B JUMP JUMPDEST SWAP9 POP POP PUSH1 0x20 PUSH2 0x836 DUP12 DUP3 DUP13 ADD PUSH2 0x6D1 JUMP JUMPDEST SWAP8 POP POP PUSH1 0x40 DUP10 ADD CALLDATALOAD PUSH8 0xFFFFFFFFFFFFFFFF DUP2 GT ISZERO PUSH2 0x857 JUMPI PUSH2 0x856 PUSH2 0x64D JUMP JUMPDEST JUMPDEST PUSH2 0x863 DUP12 DUP3 DUP13 ADD PUSH2 0x6F5 JUMP JUMPDEST SWAP7 POP SWAP7 POP POP PUSH1 0x60 DUP10 ADD CALLDATALOAD PUSH8 0xFFFFFFFFFFFFFFFF DUP2 GT ISZERO PUSH2 0x886 JUMPI PUSH2 0x885 PUSH2 0x64D JUMP JUMPDEST JUMPDEST PUSH2 0x892 DUP12 DUP3 DUP13 ADD PUSH2 0x74B JUMP JUMPDEST SWAP5 POP SWAP5 POP POP PUSH1 0x80 DUP10 ADD CALLDATALOAD PUSH8 0xFFFFFFFFFFFFFFFF DUP2 GT ISZERO PUSH2 0x8B5 JUMPI PUSH2 0x8B4 PUSH2 0x64D JUMP JUMPDEST JUMPDEST PUSH2 0x8C1 DUP12 DUP3 DUP13 ADD PUSH2 0x7A1 JUMP JUMPDEST SWAP3 POP SWAP3 POP POP SWAP3 SWAP6 SWAP9 POP SWAP3 SWAP6 SWAP9 SWAP1 SWAP4 SWAP7 POP JUMP JUMPDEST PUSH1 0x0 DUP1 DUP4 PUSH1 0x1F DUP5 ADD SLT PUSH2 0x8E9 JUMPI PUSH2 0x8E8 PUSH2 0x6E6 JUMP JUMPDEST JUMPDEST DUP3 CALLDATALOAD SWAP1 POP PUSH8 0xFFFFFFFFFFFFFFFF DUP2 GT ISZERO PUSH2 0x906 JUMPI PUSH2 0x905 PUSH2 0x6EB JUMP JUMPDEST JUMPDEST PUSH1 0x20 DUP4 ADD SWAP2 POP DUP4 PUSH1 0x1 DUP3 MUL DUP4 ADD GT ISZERO PUSH2 0x922 JUMPI PUSH2 0x921 PUSH2 0x6F0 JUMP JUMPDEST JUMPDEST SWAP3 POP SWAP3 SWAP1 POP JUMP JUMPDEST PUSH1 0x0 DUP1 REVERT JUMPDEST PUSH1 0x0 PUSH2 0x120 DUP3 DUP5 SUB SLT ISZERO PUSH2 0x945 JUMPI PUSH2 0x944 PUSH2 0x929 JUMP JUMPDEST JUMPDEST DUP2 SWAP1 POP SWAP3 SWAP2 POP POP JUMP JUMPDEST PUSH1 0x0 DUP1 PUSH1 0x0 DUP1 PUSH1 0x0 DUP1 PUSH1 0x0 DUP1 PUSH1 0x0 PUSH2 0x1A0 DUP11 DUP13 SUB SLT ISZERO PUSH2 0x971 JUMPI PUSH2 0x970 PUSH2 0x648 JUMP JUMPDEST JUMPDEST PUSH1 0x0 DUP11 ADD CALLDATALOAD PUSH8 0xFFFFFFFFFFFFFFFF DUP2 GT ISZERO PUSH2 0x98F JUMPI PUSH2 0x98E PUSH2 0x64D JUMP JUMPDEST JUMPDEST PUSH2 0x99B DUP13 DUP3 DUP14 ADD PUSH2 0x8D3 JUMP JUMPDEST SWAP10 POP SWAP10 POP POP PUSH1 0x20 PUSH2 0x9AE DUP13 DUP3 DUP14 ADD PUSH2 0x92E JUMP JUMPDEST SWAP8 POP POP PUSH2 0x140 DUP11 ADD CALLDATALOAD PUSH8 0xFFFFFFFFFFFFFFFF DUP2 GT ISZERO PUSH2 0x9D0 JUMPI PUSH2 0x9CF PUSH2 0x64D JUMP JUMPDEST JUMPDEST PUSH2 0x9DC DUP13 DUP3 DUP14 ADD PUSH2 0x6F5 JUMP JUMPDEST SWAP7 POP SWAP7 POP POP PUSH2 0x160 DUP11 ADD CALLDATALOAD PUSH8 0xFFFFFFFFFFFFFFFF DUP2 GT ISZERO PUSH2 0xA00 JUMPI PUSH2 0x9FF PUSH2 0x64D JUMP JUMPDEST JUMPDEST PUSH2 0xA0C DUP13 DUP3 DUP14 ADD PUSH2 0x74B JUMP JUMPDEST SWAP5 POP SWAP5 POP POP PUSH2 0x180 DUP11 ADD CALLDATALOAD PUSH8 0xFFFFFFFFFFFFFFFF DUP2 GT ISZERO PUSH2 0xA30 JUMPI PUSH2 0xA2F PUSH2 0x64D JUMP JUMPDEST JUMPDEST PUSH2 0xA3C DUP13 DUP3 DUP14 ADD PUSH2 0x7A1 JUMP JUMPDEST SWAP3 POP SWAP3 POP POP SWAP3 SWAP6 SWAP9 POP SWAP3 SWAP6 SWAP9 POP SWAP3 SWAP6 SWAP9 JUMP JUMPDEST PUSH1 0x0 DUP2 SWAP1 POP SWAP2 SWAP1 POP JUMP JUMPDEST PUSH2 0xA61 DUP2 PUSH2 0xA4E JUMP JUMPDEST DUP2 EQ PUSH2 0xA6C JUMPI PUSH1 0x0 DUP1 REVERT JUMPDEST POP JUMP JUMPDEST PUSH1 0x0 DUP2 CALLDATALOAD SWAP1 POP PUSH2 0xA7E DUP2 PUSH2 0xA58 JUMP JUMPDEST SWAP3 SWAP2 POP POP JUMP JUMPDEST PUSH1 0x0 DUP1 PUSH1 0x0 DUP1 PUSH1 0x0 DUP1 PUSH1 0xA0 DUP8 DUP10 SUB SLT ISZERO PUSH2 0xAA1 JUMPI PUSH2 0xAA0 PUSH2 0x648 JUMP JUMPDEST JUMPDEST PUSH1 0x0 PUSH2 0xAAF DUP10 DUP3 DUP11 ADD PUSH2 0x69B JUMP JUMPDEST SWAP7 POP POP PUSH1 0x20 PUSH2 0xAC0 DUP10 DUP3 DUP11 ADD PUSH2 0x6D1 JUMP JUMPDEST SWAP6 POP POP PUSH1 0x40 PUSH2 0xAD1 DUP10 DUP3 DUP11 ADD PUSH2 0x69B JUMP JUMPDEST SWAP5 POP POP PUSH1 0x60 PUSH2 0xAE2 DUP10 DUP3 DUP11 ADD PUSH2 0xA6F JUMP JUMPDEST SWAP4 POP POP PUSH1 0x80 DUP8 ADD CALLDATALOAD PUSH8 0xFFFFFFFFFFFFFFFF DUP2 GT ISZERO PUSH2 0xB03 JUMPI PUSH2 0xB02 PUSH2 0x64D JUMP JUMPDEST JUMPDEST PUSH2 0xB0F DUP10 DUP3 DUP11 ADD PUSH2 0x8D3 JUMP JUMPDEST SWAP3 POP SWAP3 POP POP SWAP3 SWAP6 POP SWAP3 SWAP6 POP SWAP3 SWAP6 JUMP JUMPDEST PUSH1 0x0 PUSH1 0x80 DUP3 DUP5 SUB SLT ISZERO PUSH2 0xB34 JUMPI PUSH2 0xB33 PUSH2 0x929 JUMP JUMPDEST JUMPDEST DUP2 SWAP1 POP SWAP3 SWAP2 POP POP JUMP JUMPDEST PUSH1 0x0 DUP1 PUSH1 0x0 DUP1 PUSH1 0x0 DUP1 PUSH1 0x0 DUP1 PUSH1 0x0 PUSH2 0x100 DUP11 DUP13 SUB SLT ISZERO PUSH2 0xB60 JUMPI PUSH2 0xB5F PUSH2 0x648 JUMP JUMPDEST JUMPDEST PUSH1 0x0 DUP11 ADD CALLDATALOAD PUSH8 0xFFFFFFFFFFFFFFFF DUP2 GT ISZERO PUSH2 0xB7E JUMPI PUSH2 0xB7D PUSH2 0x64D JUMP JUMPDEST JUMPDEST PUSH2 0xB8A DUP13 DUP3 DUP14 ADD PUSH2 0x8D3 JUMP JUMPDEST SWAP10 POP SWAP10 POP POP PUSH1 0x20 PUSH2 0xB9D DUP13 DUP3 DUP14 ADD PUSH2 0xB1E JUMP JUMPDEST SWAP8 POP POP PUSH1 0xA0 DUP11 ADD CALLDATALOAD PUSH8 0xFFFFFFFFFFFFFFFF DUP2 GT ISZERO PUSH2 0xBBE JUMPI PUSH2 0xBBD PUSH2 0x64D JUMP JUMPDEST JUMPDEST PUSH2 0xBCA DUP13 DUP3 DUP14 ADD PUSH2 0x6F5 JUMP JUMPDEST SWAP7 POP SWAP7 POP POP PUSH1 0xC0 DUP11 ADD CALLDATALOAD PUSH8 0xFFFFFFFFFFFFFFFF DUP2 GT ISZERO PUSH2 0xBED JUMPI PUSH2 0xBEC PUSH2 0x64D JUMP JUMPDEST JUMPDEST PUSH2 0xBF9 DUP13 DUP3 DUP14 ADD PUSH2 0x74B JUMP JUMPDEST SWAP5 POP SWAP5 POP POP PUSH1 0xE0 DUP11 ADD CALLDATALOAD PUSH8 0xFFFFFFFFFFFFFFFF DUP2 GT ISZERO PUSH2 0xC1C JUMPI PUSH2 0xC1B PUSH2 0x64D JUMP JUMPDEST JUMPDEST PUSH2 0xC28 DUP13 DUP3 DUP14 ADD PUSH2 0x7A1 JUMP JUMPDEST SWAP3 POP SWAP3 POP POP SWAP3 SWAP6 SWAP9 POP SWAP3 SWAP6 SWAP9 POP SWAP3 SWAP6 SWAP9 JUMP JUMPDEST PUSH1 0x0 DUP1 PUSH1 0x20 DUP4 DUP6 SUB SLT ISZERO PUSH2 0xC51 JUMPI PUSH2 0xC50 PUSH2 0x648 JUMP JUMPDEST JUMPDEST PUSH1 0x0 DUP4 ADD CALLDATALOAD PUSH8 0xFFFFFFFFFFFFFFFF DUP2 GT ISZERO PUSH2 0xC6F JUMPI PUSH2 0xC6E PUSH2 0x64D JUMP JUMPDEST JUMPDEST PUSH2 0xC7B DUP6 DUP3 DUP7 ADD PUSH2 0x8D3 JUMP JUMPDEST SWAP3 POP SWAP3 POP POP SWAP3 POP SWAP3 SWAP1 POP JUMP JUMPDEST PUSH2 0xC90 DUP2 PUSH2 0x6B0 JUMP JUMPDEST DUP3 MSTORE POP POP JUMP JUMPDEST PUSH1 0x0 PUSH1 0x20 DUP3 ADD SWAP1 POP PUSH2 0xCAB PUSH1 0x0 DUP4 ADD DUP5 PUSH2 0xC87 JUMP JUMPDEST SWAP3 SWAP2 POP POP JUMP JUMPDEST PUSH1 0x0 DUP1 REVERT JUMPDEST PUSH1 0x0 PUSH1 0x1F NOT PUSH1 0x1F DUP4 ADD AND SWAP1 POP SWAP2 SWAP1 POP JUMP JUMPDEST PUSH32 0x4E487B7100000000000000000000000000000000000000000000000000000000 PUSH1 0x0 MSTORE PUSH1 0x41 PUSH1 0x4 MSTORE PUSH1 0x24 PUSH1 0x0 REVERT JUMPDEST PUSH2 0xCFF DUP3 PUSH2 0xCB6 JUMP JUMPDEST DUP2 ADD DUP2 DUP2 LT PUSH8 0xFFFFFFFFFFFFFFFF DUP3 GT OR ISZERO PUSH2 0xD1E JUMPI PUSH2 0xD1D PUSH2 0xCC7 JUMP JUMPDEST JUMPDEST DUP1 PUSH1 0x40 MSTORE POP POP POP JUMP JUMPDEST PUSH1 0x0 PUSH2 0xD31 PUSH2 0x63E JUMP JUMPDEST SWAP1 POP PUSH2 0xD3D DUP3 DUP3 PUSH2 0xCF6 JUMP JUMPDEST SWAP2 SWAP1 POP JUMP JUMPDEST PUSH1 0x0 PUSH8 0xFFFFFFFFFFFFFFFF DUP3 GT ISZERO PUSH2 0xD5D JUMPI PUSH2 0xD5C PUSH2 0xCC7 JUMP JUMPDEST JUMPDEST PUSH2 0xD66 DUP3 PUSH2 0xCB6 JUMP JUMPDEST SWAP1 POP PUSH1 0x20 DUP2 ADD SWAP1 POP SWAP2 SWAP1 POP JUMP JUMPDEST DUP3 DUP2 DUP4 CALLDATACOPY PUSH1 0x0 DUP4 DUP4 ADD MSTORE POP POP POP JUMP JUMPDEST PUSH1 0x0 PUSH2 0xD95 PUSH2 0xD90 DUP5 PUSH2 0xD42 JUMP JUMPDEST PUSH2 0xD27 JUMP JUMPDEST SWAP1 POP DUP3 DUP2 MSTORE PUSH1 0x20 DUP2 ADD DUP5 DUP5 DUP5 ADD GT ISZERO PUSH2 0xDB1 JUMPI PUSH2 0xDB0 PUSH2 0xCB1 JUMP JUMPDEST JUMPDEST PUSH2 0xDBC DUP5 DUP3 DUP6 PUSH2 0xD73 JUMP JUMPDEST POP SWAP4 SWAP3 POP POP POP JUMP JUMPDEST PUSH1 0x0 DUP3 PUSH1 0x1F DUP4 ADD SLT PUSH2 0xDD9 JUMPI PUSH2 0xDD8 PUSH2 0x6E6 JUMP JUMPDEST JUMPDEST DUP2 CALLDATALOAD PUSH2 0xDE9 DUP5 DUP3 PUSH1 0x20 DUP7 ADD PUSH2 0xD82 JUMP JUMPDEST SWAP2 POP POP SWAP3 SWAP2 POP POP JUMP JUMPDEST PUSH1 0x0 DUP1 PUSH1 0x0 DUP1 PUSH1 0x80 DUP6 DUP8 SUB SLT ISZERO PUSH2 0xE0C JUMPI PUSH2 0xE0B PUSH2 0x648 JUMP JUMPDEST JUMPDEST PUSH1 0x0 PUSH2 0xE1A DUP8 DUP3 DUP9 ADD PUSH2 0x69B JUMP JUMPDEST SWAP5 POP POP PUSH1 0x20 PUSH2 0xE2B DUP8 DUP3 DUP9 ADD PUSH2 0x69B JUMP JUMPDEST SWAP4 POP POP PUSH1 0x40 PUSH2 0xE3C DUP8 DUP3 DUP9 ADD PUSH2 0x6D1 JUMP JUMPDEST SWAP3 POP POP PUSH1 0x60 DUP6 ADD CALLDATALOAD PUSH8 0xFFFFFFFFFFFFFFFF DUP2 GT ISZERO PUSH2 0xE5D JUMPI PUSH2 0xE5C PUSH2 0x64D JUMP JUMPDEST JUMPDEST PUSH2 0xE69 DUP8 DUP3 DUP9 ADD PUSH2 0xDC4 JUMP JUMPDEST SWAP2 POP POP SWAP3 SWAP6 SWAP2 SWAP5 POP SWAP3 POP JUMP JUMPDEST PUSH1 0x0 DUP2 MLOAD SWAP1 POP SWAP2 SWAP1 POP JUMP JUMPDEST PUSH1 0x0 DUP3 DUP3 MSTORE PUSH1 0x20 DUP3 ADD SWAP1 POP SWAP3 SWAP2 POP POP JUMP JUMPDEST PUSH1 0x0 JUMPDEST DUP4 DUP2 LT ISZERO PUSH2 0xEAF JUMPI DUP1 DUP3 ADD MLOAD DUP2 DUP5 ADD MSTORE PUSH1 0x20 DUP2 ADD SWAP1 POP PUSH2 0xE94 JUMP JUMPDEST DUP4 DUP2 GT ISZERO PUSH2 0xEBE JUMPI PUSH1 0x0 DUP5 DUP5 ADD MSTORE JUMPDEST POP POP POP POP JUMP JUMPDEST PUSH1 0x0 PUSH2 0xECF DUP3 PUSH2 0xE75 JUMP JUMPDEST PUSH2 0xED9 DUP2 DUP6 PUSH2 0xE80 JUMP JUMPDEST SWAP4 POP PUSH2 0xEE9 DUP2 DUP6 PUSH1 0x20 DUP7 ADD PUSH2 0xE91 JUMP JUMPDEST PUSH2 0xEF2 DUP2 PUSH2 0xCB6 JUMP JUMPDEST DUP5 ADD SWAP2 POP POP SWAP3 SWAP2 POP POP JUMP JUMPDEST PUSH1 0x0 PUSH1 0x20 DUP3 ADD SWAP1 POP DUP2 DUP2 SUB PUSH1 0x0 DUP4 ADD MSTORE PUSH2 0xF17 DUP2 DUP5 PUSH2 0xEC4 JUMP JUMPDEST SWAP1 POP SWAP3 SWAP2 POP POP JUMP JUMPDEST PUSH2 0xF28 DUP2 PUSH2 0x672 JUMP JUMPDEST DUP3 MSTORE POP POP JUMP JUMPDEST PUSH1 0x0 PUSH1 0x20 DUP3 ADD SWAP1 POP PUSH2 0xF43 PUSH1 0x0 DUP4 ADD DUP5 PUSH2 0xF1F JUMP JUMPDEST SWAP3 SWAP2 POP POP JUMP JUMPDEST PUSH1 0x0 DUP1 PUSH1 0x0 DUP1 PUSH1 0x60 DUP6 DUP8 SUB SLT ISZERO PUSH2 0xF63 JUMPI PUSH2 0xF62 PUSH2 0x648 JUMP JUMPDEST JUMPDEST PUSH1 0x0 PUSH2 0xF71 DUP8 DUP3 DUP9 ADD PUSH2 0x69B JUMP JUMPDEST SWAP5 POP POP PUSH1 0x20 PUSH2 0xF82 DUP8 DUP3 DUP9 ADD PUSH2 0x6D1 JUMP JUMPDEST SWAP4 POP POP PUSH1 0x40 DUP6 ADD CALLDATALOAD PUSH8 0xFFFFFFFFFFFFFFFF DUP2 GT ISZERO PUSH2 0xFA3 JUMPI PUSH2 0xFA2 PUSH2 0x64D JUMP JUMPDEST JUMPDEST PUSH2 0xFAF DUP8 DUP3 DUP9 ADD PUSH2 0x8D3 JUMP JUMPDEST SWAP3 POP SWAP3 POP POP SWAP3 SWAP6 SWAP2 SWAP5 POP SWAP3 POP JUMP JUMPDEST PUSH1 0x0 DUP3 DUP3 MSTORE PUSH1 0x20 DUP3 ADD SWAP1 POP SWAP3 SWAP2 POP POP JUMP JUMPDEST PUSH32 0x4D696E696D616C4D6573736167654275733A2077697468647261774665652069 PUSH1 0x0 DUP3 ADD MSTORE PUSH32 0x73206E6F7420696D706C656D656E746564210000000000000000000000000000 PUSH1 0x20 DUP3 ADD MSTORE POP JUMP JUMPDEST PUSH1 0x0 PUSH2 0x102A PUSH1 0x32 DUP4 PUSH2 0xFBD JUMP JUMPDEST SWAP2 POP PUSH2 0x1035 DUP3 PUSH2 0xFCE JUMP JUMPDEST PUSH1 0x40 DUP3 ADD SWAP1 POP SWAP2 SWAP1 POP JUMP JUMPDEST PUSH1 0x0 PUSH1 0x20 DUP3 ADD SWAP1 POP DUP2 DUP2 SUB PUSH1 0x0 DUP4 ADD MSTORE PUSH2 0x1059 DUP2 PUSH2 0x101D JUMP JUMPDEST SWAP1 POP SWAP2 SWAP1 POP JUMP JUMPDEST PUSH32 0x4D696E696D616C4D6573736167654275733A20657865637574654D6573736167 PUSH1 0x0 DUP3 ADD MSTORE PUSH32 0x65576974685472616E73666572206973206E6F7420696D706C656D656E746564 PUSH1 0x20 DUP3 ADD MSTORE PUSH32 0x2100000000000000000000000000000000000000000000000000000000000000 PUSH1 0x40 DUP3 ADD MSTORE POP JUMP JUMPDEST PUSH1 0x0 PUSH2 0x10E2 PUSH1 0x41 DUP4 PUSH2 0xFBD JUMP JUMPDEST SWAP2 POP PUSH2 0x10ED DUP3 PUSH2 0x1060 JUMP JUMPDEST PUSH1 0x60 DUP3 ADD SWAP1 POP SWAP2 SWAP1 POP JUMP JUMPDEST PUSH1 0x0 PUSH1 0x20 DUP3 ADD SWAP1 POP DUP2 DUP2 SUB PUSH1 0x0 DUP4 ADD MSTORE PUSH2 0x1111 DUP2 PUSH2 0x10D5 JUMP JUMPDEST SWAP1 POP SWAP2 SWAP1 POP JUMP JUMPDEST PUSH32 0x4D696E696D616C4D6573736167654275733A2073656E644D6573736167655769 PUSH1 0x0 DUP3 ADD MSTORE PUSH32 0x74685472616E73666572206973206E6F7420696D706C656D656E746564210000 PUSH1 0x20 DUP3 ADD MSTORE POP JUMP JUMPDEST PUSH1 0x0 PUSH2 0x1174 PUSH1 0x3E DUP4 PUSH2 0xFBD JUMP JUMPDEST SWAP2 POP PUSH2 0x117F DUP3 PUSH2 0x1118 JUMP JUMPDEST PUSH1 0x40 DUP3 ADD SWAP1 POP SWAP2 SWAP1 POP JUMP JUMPDEST PUSH1 0x0 PUSH1 0x20 DUP3 ADD SWAP1 POP DUP2 DUP2 SUB PUSH1 0x0 DUP4 ADD MSTORE PUSH2 0x11A3 DUP2 PUSH2 0x1167 JUMP JUMPDEST SWAP1 POP SWAP2 SWAP1 POP JUMP JUMPDEST PUSH32 0x4D696E696D616C4D6573736167654275733A20657865637574654D6573736167 PUSH1 0x0 DUP3 ADD MSTORE PUSH32 0x65206973206E6F7420696D706C656D656E746564210000000000000000000000 PUSH1 0x20 DUP3 ADD MSTORE POP JUMP JUMPDEST PUSH1 0x0 PUSH2 0x1206 PUSH1 0x35 DUP4 PUSH2 0xFBD JUMP JUMPDEST SWAP2 POP PUSH2 0x1211 DUP3 PUSH2 0x11AA JUMP JUMPDEST PUSH1 0x40 DUP3 ADD SWAP1 POP SWAP2 SWAP1 POP JUMP JUMPDEST PUSH1 0x0 PUSH1 0x20 DUP3 ADD SWAP1 POP DUP2 DUP2 SUB PUSH1 0x0 DUP4 ADD MSTORE PUSH2 0x1235 DUP2 PUSH2 0x11F9 JUMP JUMPDEST SWAP1 POP SWAP2 SWAP1 POP JUMP JUMPDEST PUSH2 0x1245 DUP2 PUSH2 0x672 JUMP JUMPDEST DUP3 MSTORE POP POP JUMP JUMPDEST PUSH2 0x1254 DUP2 PUSH2 0x6B0 JUMP JUMPDEST DUP3 MSTORE POP POP JUMP JUMPDEST PUSH1 0x0 DUP2 MLOAD SWAP1 POP SWAP2 SWAP1 POP JUMP JUMPDEST PUSH1 0x0 DUP3 DUP3 MSTORE PUSH1 0x20 DUP3 ADD SWAP1 POP SWAP3 SWAP2 POP POP JUMP JUMPDEST PUSH1 0x0 PUSH2 0x1281 DUP3 PUSH2 0x125A JUMP JUMPDEST PUSH2 0x128B DUP2 DUP6 PUSH2 0x1265 JUMP JUMPDEST SWAP4 POP PUSH2 0x129B DUP2 DUP6 PUSH1 0x20 DUP7 ADD PUSH2 0xE91 JUMP JUMPDEST PUSH2 0x12A4 DUP2 PUSH2 0xCB6 JUMP JUMPDEST DUP5 ADD SWAP2 POP POP SWAP3 SWAP2 POP POP JUMP JUMPDEST PUSH1 0x0 PUSH1 0x80 DUP4 ADD PUSH1 0x0 DUP4 ADD MLOAD PUSH2 0x12C7 PUSH1 0x0 DUP7 ADD DUP3 PUSH2 0x123C JUMP JUMPDEST POP PUSH1 0x20 DUP4 ADD MLOAD PUSH2 0x12DA PUSH1 0x20 DUP7 ADD DUP3 PUSH2 0x123C JUMP JUMPDEST POP PUSH1 0x40 DUP4 ADD MLOAD PUSH2 0x12ED PUSH1 0x40 DUP7 ADD DUP3 PUSH2 0x124B JUMP JUMPDEST POP PUSH1 0x60 DUP4 ADD MLOAD DUP5 DUP3 SUB PUSH1 0x60 DUP7 ADD MSTORE PUSH2 0x1305 DUP3 DUP3 PUSH2 0x1276 JUMP JUMPDEST SWAP2 POP POP DUP1 SWAP2 POP POP SWAP3 SWAP2 POP POP JUMP JUMPDEST PUSH1 0x0 PUSH1 0x20 DUP3 ADD SWAP1 POP DUP2 DUP2 SUB PUSH1 0x0 DUP4 ADD MSTORE PUSH2 0x132C DUP2 DUP5 PUSH2 0x12AF JUMP JUMPDEST SWAP1 POP SWAP3 SWAP2 POP POP JUMP JUMPDEST PUSH32 0x4D696E696D616C4D6573736167654275733A20657865637574654D6573736167 PUSH1 0x0 DUP3 ADD MSTORE PUSH32 0x65576974685472616E73666572526566756E64206973206E6F7420696D706C65 PUSH1 0x20 DUP3 ADD MSTORE PUSH32 0x6D656E7465642100000000000000000000000000000000000000000000000000 PUSH1 0x40 DUP3 ADD MSTORE POP JUMP JUMPDEST PUSH1 0x0 PUSH2 0x13B6 PUSH1 0x47 DUP4 PUSH2 0xFBD JUMP JUMPDEST SWAP2 POP PUSH2 0x13C1 DUP3 PUSH2 0x1334 JUMP JUMPDEST PUSH1 0x60 DUP3 ADD SWAP1 POP SWAP2 SWAP1 POP JUMP JUMPDEST PUSH1 0x0 PUSH1 0x20 DUP3 ADD SWAP1 POP DUP2 DUP2 SUB PUSH1 0x0 DUP4 ADD MSTORE PUSH2 0x13E5 DUP2 PUSH2 0x13A9 JUMP JUMPDEST SWAP1 POP SWAP2 SWAP1 POP JUMP JUMPDEST PUSH32 0x4D696E696D616C4D6573736167654275733A206C697175696469747942726964 PUSH1 0x0 DUP3 ADD MSTORE PUSH32 0x6765206973206E6F7420696D706C656D656E7465642100000000000000000000 PUSH1 0x20 DUP3 ADD MSTORE POP JUMP JUMPDEST PUSH1 0x0 PUSH2 0x1448 PUSH1 0x36 DUP4 PUSH2 0xFBD JUMP JUMPDEST SWAP2 POP PUSH2 0x1453 DUP3 PUSH2 0x13EC JUMP JUMPDEST PUSH1 0x40 DUP3 ADD SWAP1 POP SWAP2 SWAP1 POP JUMP JUMPDEST PUSH1 0x0 PUSH1 0x20 DUP3 ADD SWAP1 POP DUP2 DUP2 SUB PUSH1 0x0 DUP4 ADD MSTORE PUSH2 0x1477 DUP2 PUSH2 0x143B JUMP JUMPDEST SWAP1 POP SWAP2 SWAP1 POP JUMP JUMPDEST PUSH32 0x4D696E696D616C4D6573736167654275733A2070656742726964676556322069 PUSH1 0x0 DUP3 ADD MSTORE PUSH32 0x73206E6F7420696D706C656D656E746564210000000000000000000000000000 PUSH1 0x20 DUP3 ADD MSTORE POP JUMP JUMPDEST PUSH1 0x0 PUSH2 0x14DA PUSH1 0x32 DUP4 PUSH2 0xFBD JUMP JUMPDEST SWAP2 POP PUSH2 0x14E5 DUP3 PUSH2 0x147E JUMP JUMPDEST PUSH1 0x40 DUP3 ADD SWAP1 POP SWAP2 SWAP1 POP JUMP JUMPDEST PUSH1 0x0 PUSH1 0x20 DUP3 ADD SWAP1 POP DUP2 DUP2 SUB PUSH1 0x0 DUP4 ADD MSTORE PUSH2 0x1509 DUP2 PUSH2 0x14CD JUMP JUMPDEST SWAP1 POP SWAP2 SWAP1 POP JUMP JUMPDEST PUSH32 0x4D696E696D616C4D6573736167654275733A207065675661756C745632206973 PUSH1 0x0 DUP3 ADD MSTORE PUSH32 0x206E6F7420696D706C656D656E74656421000000000000000000000000000000 PUSH1 0x20 DUP3 ADD MSTORE POP JUMP JUMPDEST PUSH1 0x0 PUSH2 0x156C PUSH1 0x31 DUP4 PUSH2 0xFBD JUMP JUMPDEST SWAP2 POP PUSH2 0x1577 DUP3 PUSH2 0x1510 JUMP JUMPDEST PUSH1 0x40 DUP3 ADD SWAP1 POP SWAP2 SWAP1 POP JUMP JUMPDEST PUSH1 0x0 PUSH1 0x20 DUP3 ADD SWAP1 POP DUP2 DUP2 SUB PUSH1 0x0 DUP4 ADD MSTORE PUSH2 0x159B DUP2 PUSH2 0x155F JUMP JUMPDEST SWAP1 POP SWAP2 SWAP1 POP JUMP JUMPDEST PUSH32 0x4D696E696D616C4D6573736167654275733A207065675661756C74206973206E PUSH1 0x0 DUP3 ADD MSTORE PUSH32 0x6F7420696D706C656D656E746564210000000000000000000000000000000000 PUSH1 0x20 DUP3 ADD MSTORE POP JUMP JUMPDEST PUSH1 0x0 PUSH2 0x15FE PUSH1 0x2F DUP4 PUSH2 0xFBD JUMP JUMPDEST SWAP2 POP PUSH2 0x1609 DUP3 PUSH2 0x15A2 JUMP JUMPDEST PUSH1 0x40 DUP3 ADD SWAP1 POP SWAP2 SWAP1 POP JUMP JUMPDEST PUSH1 0x0 PUSH1 0x20 DUP3 ADD SWAP1 POP DUP2 DUP2 SUB PUSH1 0x0 DUP4 ADD MSTORE PUSH2 0x162D DUP2 PUSH2 0x15F1 JUMP JUMPDEST SWAP1 POP SWAP2 SWAP1 POP JUMP JUMPDEST PUSH32 0x4D696E696D616C4D6573736167654275733A2070656742726964676520697320 PUSH1 0x0 DUP3 ADD MSTORE PUSH32 0x6E6F7420696D706C656D656E7465642100000000000000000000000000000000 PUSH1 0x20 DUP3 ADD MSTORE POP JUMP JUMPDEST PUSH1 0x0 PUSH2 0x1690 PUSH1 0x30 DUP4 PUSH2 0xFBD JUMP JUMPDEST SWAP2 POP PUSH2 0x169B DUP3 PUSH2 0x1634 JUMP JUMPDEST PUSH1 0x40 DUP3 ADD SWAP1 POP SWAP2 SWAP1 POP JUMP JUMPDEST PUSH1 0x0 PUSH1 0x20 DUP3 ADD SWAP1 POP DUP2 DUP2 SUB PUSH1 0x0 DUP4 ADD MSTORE PUSH2 0x16BF DUP2 PUSH2 0x1683 JUMP JUMPDEST SWAP1 POP SWAP2 SWAP1 POP JUMP INVALID LOG2 PUSH5 0x6970667358 0x22 SLT KECCAK256 0xE0 0xBF 0x29 INVALID 0x28 CODECOPY RETURNDATACOPY XOR 0xBA PUSH20 0xC0708881DBD7F3E80677881E1913326EDB55EC8E CALLDATACOPY 0xFB PUSH5 0x736F6C6343 STOP ADDMOD MULMOD STOP CALLER "},"methodIdentifiers":{"calcFee(bytes)":"5335dca2","executeMessage(bytes,(address,address,uint64,bytes32),bytes[],address[],uint256[])":"468a2d04","executeMessageWithTransfer(bytes,(uint8,address,address,address,uint256,uint64,uint64,bytes32,bytes32),bytes[],address[],uint256[])":"3f395aff","executeMessageWithTransferRefund(bytes,(uint8,address,address,address,uint256,uint64,uint64,bytes32,bytes32),bytes[],address[],uint256[])":"7b80ab20","getEncodedData(address,address,uint256,string)":"786f91ce","liquidityBridge()":"82980dc4","pegBridge()":"dfa2dbaf","pegBridgeV2()":"95b12c27","pegVault()":"d8257d17","pegVaultV2()":"c66a9c5a","sendMessage(address,uint256,bytes)":"9f3ce55a","sendMessageWithTransfer(address,uint256,address,bytes32,bytes)":"4289fbb3","withdrawFee(address,uint256,bytes[],address[],uint256[])":"2ff4c411"}}}}}