{
  "_format": "hh-sol-artifact-1",
  "contractName": "RemoteERC721",
  "sourceName": "contracts/RemoteERC721.sol",
  "abi": [
    {
      "inputs": [
        {
          "internalType": "address",
          "name": "_bridge",
          "type": "address"
        },
        {
          "internalType": "address",
          "name": "_remoteToken",
          "type": "address"
        }
      ],
      "stateMutability": "nonpayable",
      "type": "constructor"
    },
    {
      "anonymous": false,
      "inputs": [
        {
          "indexed": true,
          "internalType": "address",
          "name": "owner",
          "type": "address"
        },
        {
          "indexed": true,
          "internalType": "address",
          "name": "approved",
          "type": "address"
        },
        {
          "indexed": true,
          "internalType": "uint256",
          "name": "tokenId",
          "type": "uint256"
        }
      ],
      "name": "Approval",
      "type": "event"
    },
    {
      "anonymous": false,
      "inputs": [
        {
          "indexed": true,
          "internalType": "address",
          "name": "owner",
          "type": "address"
        },
        {
          "indexed": true,
          "internalType": "address",
          "name": "operator",
          "type": "address"
        },
        {
          "indexed": false,
          "internalType": "bool",
          "name": "approved",
          "type": "bool"
        }
      ],
      "name": "ApprovalForAll",
      "type": "event"
    },
    {
      "anonymous": false,
      "inputs": [
        {
          "indexed": true,
          "internalType": "address",
          "name": "account",
          "type": "address"
        },
        {
          "indexed": false,
          "internalType": "uint256",
          "name": "tokenId",
          "type": "uint256"
        }
      ],
      "name": "Burn",
      "type": "event"
    },
    {
      "anonymous": false,
      "inputs": [
        {
          "indexed": true,
          "internalType": "address",
          "name": "account",
          "type": "address"
        },
        {
          "indexed": false,
          "internalType": "uint256",
          "name": "tokenId",
          "type": "uint256"
        }
      ],
      "name": "Mint",
      "type": "event"
    },
    {
      "anonymous": false,
      "inputs": [
        {
          "indexed": true,
          "internalType": "address",
          "name": "from",
          "type": "address"
        },
        {
          "indexed": true,
          "internalType": "address",
          "name": "to",
          "type": "address"
        },
        {
          "indexed": true,
          "internalType": "uint256",
          "name": "tokenId",
          "type": "uint256"
        }
      ],
      "name": "Transfer",
      "type": "event"
    },
    {
      "inputs": [],
      "name": "BRIDGE",
      "outputs": [
        {
          "internalType": "address",
          "name": "",
          "type": "address"
        }
      ],
      "stateMutability": "view",
      "type": "function"
    },
    {
      "inputs": [],
      "name": "REMOTE_CHAIN_ID",
      "outputs": [
        {
          "internalType": "uint256",
          "name": "",
          "type": "uint256"
        }
      ],
      "stateMutability": "view",
      "type": "function"
    },
    {
      "inputs": [],
      "name": "REMOTE_TOKEN",
      "outputs": [
        {
          "internalType": "address",
          "name": "",
          "type": "address"
        }
      ],
      "stateMutability": "view",
      "type": "function"
    },
    {
      "inputs": [
        {
          "internalType": "address",
          "name": "to",
          "type": "address"
        },
        {
          "internalType": "uint256",
          "name": "tokenId",
          "type": "uint256"
        }
      ],
      "name": "approve",
      "outputs": [],
      "stateMutability": "nonpayable",
      "type": "function"
    },
    {
      "inputs": [
        {
          "internalType": "address",
          "name": "owner",
          "type": "address"
        }
      ],
      "name": "balanceOf",
      "outputs": [
        {
          "internalType": "uint256",
          "name": "",
          "type": "uint256"
        }
      ],
      "stateMutability": "view",
      "type": "function"
    },
    {
      "inputs": [],
      "name": "baseTokenURI",
      "outputs": [
        {
          "internalType": "string",
          "name": "",
          "type": "string"
        }
      ],
      "stateMutability": "view",
      "type": "function"
    },
    {
      "inputs": [],
      "name": "bridge",
      "outputs": [
        {
          "internalType": "address",
          "name": "",
          "type": "address"
        }
      ],
      "stateMutability": "view",
      "type": "function"
    },
    {
      "inputs": [
        {
          "internalType": "address",
          "name": "_from",
          "type": "address"
        },
        {
          "internalType": "uint256",
          "name": "_tokenId",
          "type": "uint256"
        }
      ],
      "name": "burn",
      "outputs": [],
      "stateMutability": "nonpayable",
      "type": "function"
    },
    {
      "inputs": [
        {
          "internalType": "uint256",
          "name": "tokenId",
          "type": "uint256"
        }
      ],
      "name": "getApproved",
      "outputs": [
        {
          "internalType": "address",
          "name": "",
          "type": "address"
        }
      ],
      "stateMutability": "view",
      "type": "function"
    },
    {
      "inputs": [
        {
          "internalType": "address",
          "name": "owner",
          "type": "address"
        },
        {
          "internalType": "address",
          "name": "operator",
          "type": "address"
        }
      ],
      "name": "isApprovedForAll",
      "outputs": [
        {
          "internalType": "bool",
          "name": "",
          "type": "bool"
        }
      ],
      "stateMutability": "view",
      "type": "function"
    },
    {
      "inputs": [],
      "name": "name",
      "outputs": [
        {
          "internalType": "string",
          "name": "",
          "type": "string"
        }
      ],
      "stateMutability": "view",
      "type": "function"
    },
    {
      "inputs": [
        {
          "internalType": "uint256",
          "name": "tokenId",
          "type": "uint256"
        }
      ],
      "name": "ownerOf",
      "outputs": [
        {
          "internalType": "address",
          "name": "",
          "type": "address"
        }
      ],
      "stateMutability": "view",
      "type": "function"
    },
    {
      "inputs": [],
      "name": "remoteChainId",
      "outputs": [
        {
          "internalType": "uint256",
          "name": "",
          "type": "uint256"
        }
      ],
      "stateMutability": "view",
      "type": "function"
    },
    {
      "inputs": [],
      "name": "remoteToken",
      "outputs": [
        {
          "internalType": "address",
          "name": "",
          "type": "address"
        }
      ],
      "stateMutability": "view",
      "type": "function"
    },
    {
      "inputs": [
        {
          "internalType": "address",
          "name": "_to",
          "type": "address"
        },
        {
          "internalType": "uint256",
          "name": "_tokenId",
          "type": "uint256"
        }
      ],
      "name": "safeMint",
      "outputs": [],
      "stateMutability": "nonpayable",
      "type": "function"
    },
    {
      "inputs": [
        {
          "internalType": "address",
          "name": "from",
          "type": "address"
        },
        {
          "internalType": "address",
          "name": "to",
          "type": "address"
        },
        {
          "internalType": "uint256",
          "name": "tokenId",
          "type": "uint256"
        }
      ],
      "name": "safeTransferFrom",
      "outputs": [],
      "stateMutability": "nonpayable",
      "type": "function"
    },
    {
      "inputs": [
        {
          "internalType": "address",
          "name": "from",
          "type": "address"
        },
        {
          "internalType": "address",
          "name": "to",
          "type": "address"
        },
        {
          "internalType": "uint256",
          "name": "tokenId",
          "type": "uint256"
        },
        {
          "internalType": "bytes",
          "name": "data",
          "type": "bytes"
        }
      ],
      "name": "safeTransferFrom",
      "outputs": [],
      "stateMutability": "nonpayable",
      "type": "function"
    },
    {
      "inputs": [
        {
          "internalType": "address",
          "name": "operator",
          "type": "address"
        },
        {
          "internalType": "bool",
          "name": "approved",
          "type": "bool"
        }
      ],
      "name": "setApprovalForAll",
      "outputs": [],
      "stateMutability": "nonpayable",
      "type": "function"
    },
    {
      "inputs": [
        {
          "internalType": "bytes4",
          "name": "_interfaceId",
          "type": "bytes4"
        }
      ],
      "name": "supportsInterface",
      "outputs": [
        {
          "internalType": "bool",
          "name": "",
          "type": "bool"
        }
      ],
      "stateMutability": "view",
      "type": "function"
    },
    {
      "inputs": [],
      "name": "symbol",
      "outputs": [
        {
          "internalType": "string",
          "name": "",
          "type": "string"
        }
      ],
      "stateMutability": "view",
      "type": "function"
    },
    {
      "inputs": [
        {
          "internalType": "uint256",
          "name": "index",
          "type": "uint256"
        }
      ],
      "name": "tokenByIndex",
      "outputs": [
        {
          "internalType": "uint256",
          "name": "",
          "type": "uint256"
        }
      ],
      "stateMutability": "view",
      "type": "function"
    },
    {
      "inputs": [
        {
          "internalType": "address",
          "name": "owner",
          "type": "address"
        },
        {
          "internalType": "uint256",
          "name": "index",
          "type": "uint256"
        }
      ],
      "name": "tokenOfOwnerByIndex",
      "outputs": [
        {
          "internalType": "uint256",
          "name": "",
          "type": "uint256"
        }
      ],
      "stateMutability": "view",
      "type": "function"
    },
    {
      "inputs": [
        {
          "internalType": "uint256",
          "name": "tokenId",
          "type": "uint256"
        }
      ],
      "name": "tokenURI",
      "outputs": [
        {
          "internalType": "string",
          "name": "",
          "type": "string"
        }
      ],
      "stateMutability": "view",
      "type": "function"
    },
    {
      "inputs": [],
      "name": "totalSupply",
      "outputs": [
        {
          "internalType": "uint256",
          "name": "",
          "type": "uint256"
        }
      ],
      "stateMutability": "view",
      "type": "function"
    },
    {
      "inputs": [
        {
          "internalType": "address",
          "name": "from",
          "type": "address"
        },
        {
          "internalType": "address",
          "name": "to",
          "type": "address"
        },
        {
          "internalType": "uint256",
          "name": "tokenId",
          "type": "uint256"
        }
      ],
      "name": "transferFrom",
      "outputs": [],
      "stateMutability": "nonpayable",
      "type": "function"
    },
    {
      "inputs": [],
      "name": "version",
      "outputs": [
        {
          "internalType": "string",
          "name": "",
          "type": "string"
        }
      ],
      "stateMutability": "view",
      "type": "function"
    }
  ],
  "bytecode": "0x6101406040523480156200001257600080fd5b5060405162004aae38038062004aae83398181016040528101906200003891906200074e565b816005826040518060400160405280600981526020017f52656d6f746545524300000000000000000000000000000000000000000000008152506040518060400160405280600381526020017f5245520000000000000000000000000000000000000000000000000000000000815250600160008084848160009081620000c0919062000a0f565b508060019081620000d2919062000a0f565b50505082608081815250508160a081815250508060c08181525050505050600073ffffffffffffffffffffffffffffffffffffffff168573ffffffffffffffffffffffffffffffffffffffff160362000162576040517f08c379a0000000000000000000000000000000000000000000000000000000008152600401620001599062000b7d565b60405180910390fd5b60008403620001a8576040517f08c379a00000000000000000000000000000000000000000000000000000000081526004016200019f9062000c15565b60405180910390fd5b600073ffffffffffffffffffffffffffffffffffffffff168373ffffffffffffffffffffffffffffffffffffffff16036200021a576040517f08c379a0000000000000000000000000000000000000000000000000000000008152600401620002119062000cad565b60405180910390fd5b8360e081815250508273ffffffffffffffffffffffffffffffffffffffff166101008173ffffffffffffffffffffffffffffffffffffffff16815250508473ffffffffffffffffffffffffffffffffffffffff166101208173ffffffffffffffffffffffffffffffffffffffff1681525050620002ba8373ffffffffffffffffffffffffffffffffffffffff1660146200031060201b620010f61760201c565b620002d0856200056b60201b620013321760201c565b604051602001620002e392919062000e37565b604051602081830303815290604052600a908162000302919062000a0f565b505050505050505062001169565b60606000600283600262000325919062000eb5565b62000331919062000f16565b67ffffffffffffffff8111156200034d576200034c620007a0565b5b6040519080825280601f01601f191660200182016040528015620003805781602001600182028036833780820191505090505b5090507f300000000000000000000000000000000000000000000000000000000000000081600081518110620003bb57620003ba62000f73565b5b60200101907effffffffffffffffffffffffffffffffffffffffffffffffffffffffffffff1916908160001a9053507f78000000000000000000000000000000000000000000000000000000000000008160018151811062000422576200042162000f73565b5b60200101907effffffffffffffffffffffffffffffffffffffffffffffffffffffffffffff1916908160001a9053506000600184600262000464919062000eb5565b62000470919062000f16565b90505b60018111156200051a577f3031323334353637383961626364656600000000000000000000000000000000600f861660108110620004b657620004b562000f73565b5b1a60f81b828281518110620004d057620004cf62000f73565b5b60200101907effffffffffffffffffffffffffffffffffffffffffffffffffffffffffffff1916908160001a905350600485901c945080620005129062000fa2565b905062000473565b506000841462000561576040517f08c379a0000000000000000000000000000000000000000000000000000000008152600401620005589062001020565b60405180910390fd5b8091505092915050565b606060008203620005b4576040518060400160405280600181526020017f30000000000000000000000000000000000000000000000000000000000000008152509050620006df565b600082905060005b60008214620005ec578080620005d29062001042565b915050600a82620005e49190620010be565b9150620005bc565b60008167ffffffffffffffff8111156200060b576200060a620007a0565b5b6040519080825280601f01601f1916602001820160405280156200063e5781602001600182028036833780820191505090505b5090505b60008514620006d8576001826200065a9190620010f6565b9150600a856200066b919062001131565b603062000679919062000f16565b60f81b81838151811062000692576200069162000f73565b5b60200101907effffffffffffffffffffffffffffffffffffffffffffffffffffffffffffff1916908160001a905350600a85620006d09190620010be565b945062000642565b8093505050505b919050565b600080fd5b600073ffffffffffffffffffffffffffffffffffffffff82169050919050565b60006200071682620006e9565b9050919050565b620007288162000709565b81146200073457600080fd5b50565b60008151905062000748816200071d565b92915050565b60008060408385031215620007685762000767620006e4565b5b6000620007788582860162000737565b92505060206200078b8582860162000737565b9150509250929050565b600081519050919050565b7f4e487b7100000000000000000000000000000000000000000000000000000000600052604160045260246000fd5b7f4e487b7100000000000000000000000000000000000000000000000000000000600052602260045260246000fd5b600060028204905060018216806200081757607f821691505b6020821081036200082d576200082c620007cf565b5b50919050565b60008190508160005260206000209050919050565b60006020601f8301049050919050565b600082821b905092915050565b600060088302620008977fffffffffffffffffffffffffffffffffffffffffffffffffffffffffffffffff8262000858565b620008a3868362000858565b95508019841693508086168417925050509392505050565b6000819050919050565b6000819050919050565b6000620008f0620008ea620008e484620008bb565b620008c5565b620008bb565b9050919050565b6000819050919050565b6200090c83620008cf565b620009246200091b82620008f7565b84845462000865565b825550505050565b600090565b6200093b6200092c565b6200094881848462000901565b505050565b5b8181101562000970576200096460008262000931565b6001810190506200094e565b5050565b601f821115620009bf57620009898162000833565b620009948462000848565b81016020851015620009a4578190505b620009bc620009b38562000848565b8301826200094d565b50505b505050565b600082821c905092915050565b6000620009e460001984600802620009c4565b1980831691505092915050565b6000620009ff8383620009d1565b9150826002028217905092915050565b62000a1a8262000795565b67ffffffffffffffff81111562000a365762000a35620007a0565b5b62000a428254620007fe565b62000a4f82828562000974565b600060209050601f83116001811462000a87576000841562000a72578287015190505b62000a7e8582620009f1565b86555062000aee565b601f19841662000a978662000833565b60005b8281101562000ac15784890151825560018201915060208501945060208101905062000a9a565b8683101562000ae1578489015162000add601f891682620009d1565b8355505b6001600288020188555050505b505050505050565b600082825260208201905092915050565b7f4f7074696d69736d4d696e7461626c654552433732313a20627269646765206360008201527f616e6e6f74206265206164647265737328302900000000000000000000000000602082015250565b600062000b6560338362000af6565b915062000b728262000b07565b604082019050919050565b6000602082019050818103600083015262000b988162000b56565b9050919050565b7f4f7074696d69736d4d696e7461626c654552433732313a2072656d6f7465206360008201527f6861696e2069642063616e6e6f74206265207a65726f00000000000000000000602082015250565b600062000bfd60368362000af6565b915062000c0a8262000b9f565b604082019050919050565b6000602082019050818103600083015262000c308162000bee565b9050919050565b7f4f7074696d69736d4d696e7461626c654552433732313a2072656d6f7465207460008201527f6f6b656e2063616e6e6f74206265206164647265737328302900000000000000602082015250565b600062000c9560398362000af6565b915062000ca28262000c37565b604082019050919050565b6000602082019050818103600083015262000cc88162000c86565b9050919050565b600081905092915050565b7f657468657265756d3a0000000000000000000000000000000000000000000000600082015250565b600062000d1260098362000ccf565b915062000d1f8262000cda565b600982019050919050565b60005b8381101562000d4a57808201518184015260208101905062000d2d565b8381111562000d5a576000848401525b50505050565b600062000d6d8262000795565b62000d79818562000ccf565b935062000d8b81856020860162000d2a565b80840191505092915050565b7f4000000000000000000000000000000000000000000000000000000000000000600082015250565b600062000dcf60018362000ccf565b915062000ddc8262000d97565b600182019050919050565b7f2f746f6b656e5552493f75696e743235363d0000000000000000000000000000600082015250565b600062000e1f60128362000ccf565b915062000e2c8262000de7565b601282019050919050565b600062000e448262000d03565b915062000e52828562000d60565b915062000e5f8262000dc0565b915062000e6d828462000d60565b915062000e7a8262000e10565b91508190509392505050565b7f4e487b7100000000000000000000000000000000000000000000000000000000600052601160045260246000fd5b600062000ec282620008bb565b915062000ecf83620008bb565b9250817fffffffffffffffffffffffffffffffffffffffffffffffffffffffffffffffff048311821515161562000f0b5762000f0a62000e86565b5b828202905092915050565b600062000f2382620008bb565b915062000f3083620008bb565b9250827fffffffffffffffffffffffffffffffffffffffffffffffffffffffffffffffff0382111562000f685762000f6762000e86565b5b828201905092915050565b7f4e487b7100000000000000000000000000000000000000000000000000000000600052603260045260246000fd5b600062000faf82620008bb565b91506000820362000fc55762000fc462000e86565b5b600182039050919050565b7f537472696e67733a20686578206c656e67746820696e73756666696369656e74600082015250565b60006200100860208362000af6565b9150620010158262000fd0565b602082019050919050565b600060208201905081810360008301526200103b8162000ff9565b9050919050565b60006200104f82620008bb565b91507fffffffffffffffffffffffffffffffffffffffffffffffffffffffffffffffff820362001084576200108362000e86565b5b600182019050919050565b7f4e487b7100000000000000000000000000000000000000000000000000000000600052601260045260246000fd5b6000620010cb82620008bb565b9150620010d883620008bb565b925082620010eb57620010ea6200108f565b5b828204905092915050565b60006200110382620008bb565b91506200111083620008bb565b92508282101562001126576200112562000e86565b5b828203905092915050565b60006200113e82620008bb565b91506200114b83620008bb565b9250826200115e576200115d6200108f565b5b828206905092915050565b60805160a05160c05160e05161010051610120516138d2620011dc60003960008181610c8701528181610d7001528181610ff201526110d40152600081816106100152610fca015260008181610bd1015261101a01526000610a1d015260006109f4015260006109cb01526138d26000f3fe608060405234801561001057600080fd5b506004361061018e5760003560e01c80637d1d0c5b116100de578063c87b56dd11610097578063e78cea9211610071578063e78cea9214610497578063e9518196146104b5578063e985e9c5146104d3578063ee9a31a2146105035761018e565b8063c87b56dd1461042b578063d547cfb71461045b578063d6c0b2c4146104795761018e565b80637d1d0c5b1461037f57806395d89b411461039d5780639dc29fac146103bb578063a1448194146103d7578063a22cb465146103f3578063b88d4fde1461040f5761018e565b806323b872dd1161014b5780634f6ccce7116101255780634f6ccce7146102d157806354fd4d50146103015780636352211e1461031f57806370a082311461034f5761018e565b806323b872dd146102695780632f745c591461028557806342842e0e146102b55761018e565b806301ffc9a714610193578063033964be146101c357806306fdde03146101e1578063081812fc146101ff578063095ea7b31461022f57806318160ddd1461024b575b600080fd5b6101ad60048036038101906101a891906126cc565b610521565b6040516101ba9190612714565b60405180910390f35b6101cb61060e565b6040516101d89190612770565b60405180910390f35b6101e9610632565b6040516101f69190612824565b60405180910390f35b6102196004803603810190610214919061287c565b6106c4565b6040516102269190612770565b60405180910390f35b610249600480360381019061024491906128d5565b61070a565b005b610253610821565b6040516102609190612924565b60405180910390f35b610283600480360381019061027e919061293f565b61082e565b005b61029f600480360381019061029a91906128d5565b61088e565b6040516102ac9190612924565b60405180910390f35b6102cf60048036038101906102ca919061293f565b610933565b005b6102eb60048036038101906102e6919061287c565b610953565b6040516102f89190612924565b60405180910390f35b6103096109c4565b6040516103169190612824565b60405180910390f35b6103396004803603810190610334919061287c565b610a67565b6040516103469190612770565b60405180910390f35b61036960048036038101906103649190612992565b610b18565b6040516103769190612924565b60405180910390f35b610387610bcf565b6040516103949190612924565b60405180910390f35b6103a5610bf3565b6040516103b29190612824565b60405180910390f35b6103d560048036038101906103d091906128d5565b610c85565b005b6103f160048036038101906103ec91906128d5565b610d6e565b005b61040d600480360381019061040891906129eb565b610e58565b005b61042960048036038101906104249190612b60565b610e6e565b005b6104456004803603810190610440919061287c565b610ed0565b6040516104529190612824565b60405180910390f35b610463610f38565b6040516104709190612824565b60405180910390f35b610481610fc6565b60405161048e9190612770565b60405180910390f35b61049f610fee565b6040516104ac9190612770565b60405180910390f35b6104bd611016565b6040516104ca9190612924565b60405180910390f35b6104ed60048036038101906104e89190612be3565b61103e565b6040516104fa9190612714565b60405180910390f35b61050b6110d2565b6040516105189190612770565b60405180910390f35b6000807f01ffc9a700000000000000000000000000000000000000000000000000000000905060007f74259ebf000000000000000000000000000000000000000000000000000000009050817bffffffffffffffffffffffffffffffffffffffffffffffffffffffff1916847bffffffffffffffffffffffffffffffffffffffffffffffffffffffff191614806105f55750807bffffffffffffffffffffffffffffffffffffffffffffffffffffffff1916847bffffffffffffffffffffffffffffffffffffffffffffffffffffffff1916145b80610605575061060484611492565b5b92505050919050565b7f000000000000000000000000000000000000000000000000000000000000000081565b60606000805461064190612c52565b80601f016020809104026020016040519081016040528092919081815260200182805461066d90612c52565b80156106ba5780601f1061068f576101008083540402835291602001916106ba565b820191906000526020600020905b81548152906001019060200180831161069d57829003601f168201915b5050505050905090565b60006106cf8261150c565b6004600083815260200190815260200160002060009054906101000a900473ffffffffffffffffffffffffffffffffffffffff169050919050565b600061071582610a67565b90508073ffffffffffffffffffffffffffffffffffffffff168373ffffffffffffffffffffffffffffffffffffffff1603610785576040517f08c379a000000000000000000000000000000000000000000000000000000000815260040161077c90612cf5565b60405180910390fd5b8073ffffffffffffffffffffffffffffffffffffffff166107a4611557565b73ffffffffffffffffffffffffffffffffffffffff1614806107d357506107d2816107cd611557565b61103e565b5b610812576040517f08c379a000000000000000000000000000000000000000000000000000000000815260040161080990612d87565b60405180910390fd5b61081c838361155f565b505050565b6000600880549050905090565b61083f610839611557565b82611618565b61087e576040517f08c379a000000000000000000000000000000000000000000000000000000000815260040161087590612e19565b60405180910390fd5b6108898383836116ad565b505050565b600061089983610b18565b82106108da576040517f08c379a00000000000000000000000000000000000000000000000000000000081526004016108d190612eab565b60405180910390fd5b600660008473ffffffffffffffffffffffffffffffffffffffff1673ffffffffffffffffffffffffffffffffffffffff168152602001908152602001600020600083815260200190815260200160002054905092915050565b61094e83838360405180602001604052806000815250610e6e565b505050565b600061095d610821565b821061099e576040517f08c379a000000000000000000000000000000000000000000000000000000000815260040161099590612f3d565b60405180910390fd5b600882815481106109b2576109b1612f5d565b5b90600052602060002001549050919050565b60606109ef7f0000000000000000000000000000000000000000000000000000000000000000611332565b610a187f0000000000000000000000000000000000000000000000000000000000000000611332565b610a417f0000000000000000000000000000000000000000000000000000000000000000611332565b604051602001610a5393929190613014565b604051602081830303815290604052905090565b6000806002600084815260200190815260200160002060009054906101000a900473ffffffffffffffffffffffffffffffffffffffff169050600073ffffffffffffffffffffffffffffffffffffffff168173ffffffffffffffffffffffffffffffffffffffff1603610b0f576040517f08c379a0000000000000000000000000000000000000000000000000000000008152600401610b06906130a7565b60405180910390fd5b80915050919050565b60008073ffffffffffffffffffffffffffffffffffffffff168273ffffffffffffffffffffffffffffffffffffffff1603610b88576040517f08c379a0000000000000000000000000000000000000000000000000000000008152600401610b7f90613139565b60405180910390fd5b600360008373ffffffffffffffffffffffffffffffffffffffff1673ffffffffffffffffffffffffffffffffffffffff168152602001908152602001600020549050919050565b7f000000000000000000000000000000000000000000000000000000000000000081565b606060018054610c0290612c52565b80601f0160208091040260200160405190810160405280929190818152602001828054610c2e90612c52565b8015610c7b5780601f10610c5057610100808354040283529160200191610c7b565b820191906000526020600020905b815481529060010190602001808311610c5e57829003601f168201915b5050505050905090565b7f000000000000000000000000000000000000000000000000000000000000000073ffffffffffffffffffffffffffffffffffffffff163373ffffffffffffffffffffffffffffffffffffffff1614610d13576040517f08c379a0000000000000000000000000000000000000000000000000000000008152600401610d0a906131cb565b60405180910390fd5b610d1c81611913565b8173ffffffffffffffffffffffffffffffffffffffff167fcc16f5dbb4873280815c1ee09dbd06736cffcc184412cf7a71a0fdb75d397ca582604051610d629190612924565b60405180910390a25050565b7f000000000000000000000000000000000000000000000000000000000000000073ffffffffffffffffffffffffffffffffffffffff163373ffffffffffffffffffffffffffffffffffffffff1614610dfc576040517f08c379a0000000000000000000000000000000000000000000000000000000008152600401610df3906131cb565b60405180910390fd5b610e068282611a30565b8173ffffffffffffffffffffffffffffffffffffffff167f0f6798a560793a54c3bcfe86a93cde1e73087d944c0ea20544137d412139688582604051610e4c9190612924565b60405180910390a25050565b610e6a610e63611557565b8383611a4e565b5050565b610e7f610e79611557565b83611618565b610ebe576040517f08c379a0000000000000000000000000000000000000000000000000000000008152600401610eb590612e19565b60405180910390fd5b610eca84848484611bba565b50505050565b6060610edb8261150c565b6000610ee5611c16565b90506000815111610f055760405180602001604052806000815250610f30565b80610f0f84611332565b604051602001610f209291906131eb565b6040516020818303038152906040525b915050919050565b600a8054610f4590612c52565b80601f0160208091040260200160405190810160405280929190818152602001828054610f7190612c52565b8015610fbe5780601f10610f9357610100808354040283529160200191610fbe565b820191906000526020600020905b815481529060010190602001808311610fa157829003601f168201915b505050505081565b60007f0000000000000000000000000000000000000000000000000000000000000000905090565b60007f0000000000000000000000000000000000000000000000000000000000000000905090565b60007f0000000000000000000000000000000000000000000000000000000000000000905090565b6000600560008473ffffffffffffffffffffffffffffffffffffffff1673ffffffffffffffffffffffffffffffffffffffff16815260200190815260200160002060008373ffffffffffffffffffffffffffffffffffffffff1673ffffffffffffffffffffffffffffffffffffffff16815260200190815260200160002060009054906101000a900460ff16905092915050565b7f000000000000000000000000000000000000000000000000000000000000000081565b606060006002836002611109919061323e565b6111139190613298565b67ffffffffffffffff81111561112c5761112b612a35565b5b6040519080825280601f01601f19166020018201604052801561115e5781602001600182028036833780820191505090505b5090507f30000000000000000000000000000000000000000000000000000000000000008160008151811061119657611195612f5d565b5b60200101907effffffffffffffffffffffffffffffffffffffffffffffffffffffffffffff1916908160001a9053507f7800000000000000000000000000000000000000000000000000000000000000816001815181106111fa576111f9612f5d565b5b60200101907effffffffffffffffffffffffffffffffffffffffffffffffffffffffffffff1916908160001a9053506000600184600261123a919061323e565b6112449190613298565b90505b60018111156112e4577f3031323334353637383961626364656600000000000000000000000000000000600f86166010811061128657611285612f5d565b5b1a60f81b82828151811061129d5761129c612f5d565b5b60200101907effffffffffffffffffffffffffffffffffffffffffffffffffffffffffffff1916908160001a905350600485901c9450806112dd906132ee565b9050611247565b5060008414611328576040517f08c379a000000000000000000000000000000000000000000000000000000000815260040161131f90613363565b60405180910390fd5b8091505092915050565b606060008203611379576040518060400160405280600181526020017f3000000000000000000000000000000000000000000000000000000000000000815250905061148d565b600082905060005b600082146113ab57808061139490613383565b915050600a826113a491906133fa565b9150611381565b60008167ffffffffffffffff8111156113c7576113c6612a35565b5b6040519080825280601f01601f1916602001820160405280156113f95781602001600182028036833780820191505090505b5090505b6000851461148657600182611412919061342b565b9150600a85611421919061345f565b603061142d9190613298565b60f81b81838151811061144357611442612f5d565b5b60200101907effffffffffffffffffffffffffffffffffffffffffffffffffffffffffffff1916908160001a905350600a8561147f91906133fa565b94506113fd565b8093505050505b919050565b60007f780e9d63000000000000000000000000000000000000000000000000000000007bffffffffffffffffffffffffffffffffffffffffffffffffffffffff1916827bffffffffffffffffffffffffffffffffffffffffffffffffffffffff19161480611505575061150482611ca8565b5b9050919050565b61151581611d8a565b611554576040517f08c379a000000000000000000000000000000000000000000000000000000000815260040161154b906130a7565b60405180910390fd5b50565b600033905090565b816004600083815260200190815260200160002060006101000a81548173ffffffffffffffffffffffffffffffffffffffff021916908373ffffffffffffffffffffffffffffffffffffffff160217905550808273ffffffffffffffffffffffffffffffffffffffff166115d283610a67565b73ffffffffffffffffffffffffffffffffffffffff167f8c5be1e5ebec7d5bd14f71427d1e84f3dd0314c0f7b2291e5b200ac8c7c3b92560405160405180910390a45050565b60008061162483610a67565b90508073ffffffffffffffffffffffffffffffffffffffff168473ffffffffffffffffffffffffffffffffffffffff1614806116665750611665818561103e565b5b806116a457508373ffffffffffffffffffffffffffffffffffffffff1661168c846106c4565b73ffffffffffffffffffffffffffffffffffffffff16145b91505092915050565b8273ffffffffffffffffffffffffffffffffffffffff166116cd82610a67565b73ffffffffffffffffffffffffffffffffffffffff1614611723576040517f08c379a000000000000000000000000000000000000000000000000000000000815260040161171a90613502565b60405180910390fd5b600073ffffffffffffffffffffffffffffffffffffffff168273ffffffffffffffffffffffffffffffffffffffff1603611792576040517f08c379a000000000000000000000000000000000000000000000000000000000815260040161178990613594565b60405180910390fd5b61179d838383611df6565b6117a860008261155f565b6001600360008573ffffffffffffffffffffffffffffffffffffffff1673ffffffffffffffffffffffffffffffffffffffff16815260200190815260200160002060008282546117f8919061342b565b925050819055506001600360008473ffffffffffffffffffffffffffffffffffffffff1673ffffffffffffffffffffffffffffffffffffffff168152602001908152602001600020600082825461184f9190613298565b92505081905550816002600083815260200190815260200160002060006101000a81548173ffffffffffffffffffffffffffffffffffffffff021916908373ffffffffffffffffffffffffffffffffffffffff160217905550808273ffffffffffffffffffffffffffffffffffffffff168473ffffffffffffffffffffffffffffffffffffffff167fddf252ad1be2c89b69c2b068fc378daa952ba7f163c4a11628f55a4df523b3ef60405160405180910390a461190e838383611f08565b505050565b600061191e82610a67565b905061192c81600084611df6565b61193760008361155f565b6001600360008373ffffffffffffffffffffffffffffffffffffffff1673ffffffffffffffffffffffffffffffffffffffff1681526020019081526020016000206000828254611987919061342b565b925050819055506002600083815260200190815260200160002060006101000a81549073ffffffffffffffffffffffffffffffffffffffff021916905581600073ffffffffffffffffffffffffffffffffffffffff168273ffffffffffffffffffffffffffffffffffffffff167fddf252ad1be2c89b69c2b068fc378daa952ba7f163c4a11628f55a4df523b3ef60405160405180910390a4611a2c81600084611f08565b5050565b611a4a828260405180602001604052806000815250611f0d565b5050565b8173ffffffffffffffffffffffffffffffffffffffff168373ffffffffffffffffffffffffffffffffffffffff1603611abc576040517f08c379a0000000000000000000000000000000000000000000000000000000008152600401611ab390613600565b60405180910390fd5b80600560008573ffffffffffffffffffffffffffffffffffffffff1673ffffffffffffffffffffffffffffffffffffffff16815260200190815260200160002060008473ffffffffffffffffffffffffffffffffffffffff1673ffffffffffffffffffffffffffffffffffffffff16815260200190815260200160002060006101000a81548160ff0219169083151502179055508173ffffffffffffffffffffffffffffffffffffffff168373ffffffffffffffffffffffffffffffffffffffff167f17307eab39ab6107e8899845ad3d59bd9653f200f220920489ca2b5937696c3183604051611bad9190612714565b60405180910390a3505050565b611bc58484846116ad565b611bd184848484611f68565b611c10576040517f08c379a0000000000000000000000000000000000000000000000000000000008152600401611c0790613692565b60405180910390fd5b50505050565b6060600a8054611c2590612c52565b80601f0160208091040260200160405190810160405280929190818152602001828054611c5190612c52565b8015611c9e5780601f10611c7357610100808354040283529160200191611c9e565b820191906000526020600020905b815481529060010190602001808311611c8157829003601f168201915b5050505050905090565b60007f80ac58cd000000000000000000000000000000000000000000000000000000007bffffffffffffffffffffffffffffffffffffffffffffffffffffffff1916827bffffffffffffffffffffffffffffffffffffffffffffffffffffffff19161480611d7357507f5b5e139f000000000000000000000000000000000000000000000000000000007bffffffffffffffffffffffffffffffffffffffffffffffffffffffff1916827bffffffffffffffffffffffffffffffffffffffffffffffffffffffff1916145b80611d835750611d82826120ef565b5b9050919050565b60008073ffffffffffffffffffffffffffffffffffffffff166002600084815260200190815260200160002060009054906101000a900473ffffffffffffffffffffffffffffffffffffffff1673ffffffffffffffffffffffffffffffffffffffff1614159050919050565b611e01838383612159565b600073ffffffffffffffffffffffffffffffffffffffff168373ffffffffffffffffffffffffffffffffffffffff1603611e4357611e3e8161215e565b611e82565b8173ffffffffffffffffffffffffffffffffffffffff168373ffffffffffffffffffffffffffffffffffffffff1614611e8157611e8083826121a7565b5b5b600073ffffffffffffffffffffffffffffffffffffffff168273ffffffffffffffffffffffffffffffffffffffff1603611ec457611ebf81612314565b611f03565b8273ffffffffffffffffffffffffffffffffffffffff168273ffffffffffffffffffffffffffffffffffffffff1614611f0257611f0182826123e5565b5b5b505050565b505050565b611f178383612464565b611f246000848484611f68565b611f63576040517f08c379a0000000000000000000000000000000000000000000000000000000008152600401611f5a90613692565b60405180910390fd5b505050565b6000611f898473ffffffffffffffffffffffffffffffffffffffff1661263d565b156120e2578373ffffffffffffffffffffffffffffffffffffffff1663150b7a02611fb2611557565b8786866040518563ffffffff1660e01b8152600401611fd49493929190613707565b6020604051808303816000875af192505050801561201057506040513d601f19601f8201168201806040525081019061200d9190613768565b60015b612092573d8060008114612040576040519150601f19603f3d011682016040523d82523d6000602084013e612045565b606091505b50600081510361208a576040517f08c379a000000000000000000000000000000000000000000000000000000000815260040161208190613692565b60405180910390fd5b805181602001fd5b63150b7a0260e01b7bffffffffffffffffffffffffffffffffffffffffffffffffffffffff1916817bffffffffffffffffffffffffffffffffffffffffffffffffffffffff1916149150506120e7565b600190505b949350505050565b60007f01ffc9a7000000000000000000000000000000000000000000000000000000007bffffffffffffffffffffffffffffffffffffffffffffffffffffffff1916827bffffffffffffffffffffffffffffffffffffffffffffffffffffffff1916149050919050565b505050565b6008805490506009600083815260200190815260200160002081905550600881908060018154018082558091505060019003906000526020600020016000909190919091505550565b600060016121b484610b18565b6121be919061342b565b90506000600760008481526020019081526020016000205490508181146122a3576000600660008673ffffffffffffffffffffffffffffffffffffffff1673ffffffffffffffffffffffffffffffffffffffff168152602001908152602001600020600084815260200190815260200160002054905080600660008773ffffffffffffffffffffffffffffffffffffffff1673ffffffffffffffffffffffffffffffffffffffff168152602001908152602001600020600084815260200190815260200160002081905550816007600083815260200190815260200160002081905550505b6007600084815260200190815260200160002060009055600660008573ffffffffffffffffffffffffffffffffffffffff1673ffffffffffffffffffffffffffffffffffffffff16815260200190815260200160002060008381526020019081526020016000206000905550505050565b60006001600880549050612328919061342b565b905060006009600084815260200190815260200160002054905060006008838154811061235857612357612f5d565b5b90600052602060002001549050806008838154811061237a57612379612f5d565b5b9060005260206000200181905550816009600083815260200190815260200160002081905550600960008581526020019081526020016000206000905560088054806123c9576123c8613795565b5b6001900381819060005260206000200160009055905550505050565b60006123f083610b18565b905081600660008573ffffffffffffffffffffffffffffffffffffffff1673ffffffffffffffffffffffffffffffffffffffff168152602001908152602001600020600083815260200190815260200160002081905550806007600084815260200190815260200160002081905550505050565b600073ffffffffffffffffffffffffffffffffffffffff168273ffffffffffffffffffffffffffffffffffffffff16036124d3576040517f08c379a00000000000000000000000000000000000000000000000000000000081526004016124ca90613810565b60405180910390fd5b6124dc81611d8a565b1561251c576040517f08c379a00000000000000000000000000000000000000000000000000000000081526004016125139061387c565b60405180910390fd5b61252860008383611df6565b6001600360008473ffffffffffffffffffffffffffffffffffffffff1673ffffffffffffffffffffffffffffffffffffffff16815260200190815260200160002060008282546125789190613298565b92505081905550816002600083815260200190815260200160002060006101000a81548173ffffffffffffffffffffffffffffffffffffffff021916908373ffffffffffffffffffffffffffffffffffffffff160217905550808273ffffffffffffffffffffffffffffffffffffffff16600073ffffffffffffffffffffffffffffffffffffffff167fddf252ad1be2c89b69c2b068fc378daa952ba7f163c4a11628f55a4df523b3ef60405160405180910390a461263960008383611f08565b5050565b6000808273ffffffffffffffffffffffffffffffffffffffff163b119050919050565b6000604051905090565b600080fd5b600080fd5b60007fffffffff0000000000000000000000000000000000000000000000000000000082169050919050565b6126a981612674565b81146126b457600080fd5b50565b6000813590506126c6816126a0565b92915050565b6000602082840312156126e2576126e161266a565b5b60006126f0848285016126b7565b91505092915050565b60008115159050919050565b61270e816126f9565b82525050565b60006020820190506127296000830184612705565b92915050565b600073ffffffffffffffffffffffffffffffffffffffff82169050919050565b600061275a8261272f565b9050919050565b61276a8161274f565b82525050565b60006020820190506127856000830184612761565b92915050565b600081519050919050565b600082825260208201905092915050565b60005b838110156127c55780820151818401526020810190506127aa565b838111156127d4576000848401525b50505050565b6000601f19601f8301169050919050565b60006127f68261278b565b6128008185612796565b93506128108185602086016127a7565b612819816127da565b840191505092915050565b6000602082019050818103600083015261283e81846127eb565b905092915050565b6000819050919050565b61285981612846565b811461286457600080fd5b50565b60008135905061287681612850565b92915050565b6000602082840312156128925761289161266a565b5b60006128a084828501612867565b91505092915050565b6128b28161274f565b81146128bd57600080fd5b50565b6000813590506128cf816128a9565b92915050565b600080604083850312156128ec576128eb61266a565b5b60006128fa858286016128c0565b925050602061290b85828601612867565b9150509250929050565b61291e81612846565b82525050565b60006020820190506129396000830184612915565b92915050565b6000806000606084860312156129585761295761266a565b5b6000612966868287016128c0565b9350506020612977868287016128c0565b925050604061298886828701612867565b9150509250925092565b6000602082840312156129a8576129a761266a565b5b60006129b6848285016128c0565b91505092915050565b6129c8816126f9565b81146129d357600080fd5b50565b6000813590506129e5816129bf565b92915050565b60008060408385031215612a0257612a0161266a565b5b6000612a10858286016128c0565b9250506020612a21858286016129d6565b9150509250929050565b600080fd5b600080fd5b7f4e487b7100000000000000000000000000000000000000000000000000000000600052604160045260246000fd5b612a6d826127da565b810181811067ffffffffffffffff82111715612a8c57612a8b612a35565b5b80604052505050565b6000612a9f612660565b9050612aab8282612a64565b919050565b600067ffffffffffffffff821115612acb57612aca612a35565b5b612ad4826127da565b9050602081019050919050565b82818337600083830152505050565b6000612b03612afe84612ab0565b612a95565b905082815260208101848484011115612b1f57612b1e612a30565b5b612b2a848285612ae1565b509392505050565b600082601f830112612b4757612b46612a2b565b5b8135612b57848260208601612af0565b91505092915050565b60008060008060808587031215612b7a57612b7961266a565b5b6000612b88878288016128c0565b9450506020612b99878288016128c0565b9350506040612baa87828801612867565b925050606085013567ffffffffffffffff811115612bcb57612bca61266f565b5b612bd787828801612b32565b91505092959194509250565b60008060408385031215612bfa57612bf961266a565b5b6000612c08858286016128c0565b9250506020612c19858286016128c0565b9150509250929050565b7f4e487b7100000000000000000000000000000000000000000000000000000000600052602260045260246000fd5b60006002820490506001821680612c6a57607f821691505b602082108103612c7d57612c7c612c23565b5b50919050565b7f4552433732313a20617070726f76616c20746f2063757272656e74206f776e6560008201527f7200000000000000000000000000000000000000000000000000000000000000602082015250565b6000612cdf602183612796565b9150612cea82612c83565b604082019050919050565b60006020820190508181036000830152612d0e81612cd2565b9050919050565b7f4552433732313a20617070726f76652063616c6c6572206973206e6f7420746f60008201527f6b656e206f776e6572206e6f7220617070726f76656420666f7220616c6c0000602082015250565b6000612d71603e83612796565b9150612d7c82612d15565b604082019050919050565b60006020820190508181036000830152612da081612d64565b9050919050565b7f4552433732313a2063616c6c6572206973206e6f7420746f6b656e206f776e6560008201527f72206e6f7220617070726f766564000000000000000000000000000000000000602082015250565b6000612e03602e83612796565b9150612e0e82612da7565b604082019050919050565b60006020820190508181036000830152612e3281612df6565b9050919050565b7f455243373231456e756d657261626c653a206f776e657220696e646578206f7560008201527f74206f6620626f756e6473000000000000000000000000000000000000000000602082015250565b6000612e95602b83612796565b9150612ea082612e39565b604082019050919050565b60006020820190508181036000830152612ec481612e88565b9050919050565b7f455243373231456e756d657261626c653a20676c6f62616c20696e646578206f60008201527f7574206f6620626f756e64730000000000000000000000000000000000000000602082015250565b6000612f27602c83612796565b9150612f3282612ecb565b604082019050919050565b60006020820190508181036000830152612f5681612f1a565b9050919050565b7f4e487b7100000000000000000000000000000000000000000000000000000000600052603260045260246000fd5b600081905092915050565b6000612fa28261278b565b612fac8185612f8c565b9350612fbc8185602086016127a7565b80840191505092915050565b7f2e00000000000000000000000000000000000000000000000000000000000000600082015250565b6000612ffe600183612f8c565b915061300982612fc8565b600182019050919050565b60006130208286612f97565b915061302b82612ff1565b91506130378285612f97565b915061304282612ff1565b915061304e8284612f97565b9150819050949350505050565b7f4552433732313a20696e76616c696420746f6b656e2049440000000000000000600082015250565b6000613091601883612796565b915061309c8261305b565b602082019050919050565b600060208201905081810360008301526130c081613084565b9050919050565b7f4552433732313a2061646472657373207a65726f206973206e6f74206120766160008201527f6c6964206f776e65720000000000000000000000000000000000000000000000602082015250565b6000613123602983612796565b915061312e826130c7565b604082019050919050565b6000602082019050818103600083015261315281613116565b9050919050565b7f4f7074696d69736d4d696e7461626c654552433732313a206f6e6c792062726960008201527f6467652063616e2063616c6c20746869732066756e6374696f6e000000000000602082015250565b60006131b5603a83612796565b91506131c082613159565b604082019050919050565b600060208201905081810360008301526131e4816131a8565b9050919050565b60006131f78285612f97565b91506132038284612f97565b91508190509392505050565b7f4e487b7100000000000000000000000000000000000000000000000000000000600052601160045260246000fd5b600061324982612846565b915061325483612846565b9250817fffffffffffffffffffffffffffffffffffffffffffffffffffffffffffffffff048311821515161561328d5761328c61320f565b5b828202905092915050565b60006132a382612846565b91506132ae83612846565b9250827fffffffffffffffffffffffffffffffffffffffffffffffffffffffffffffffff038211156132e3576132e261320f565b5b828201905092915050565b60006132f982612846565b91506000820361330c5761330b61320f565b5b600182039050919050565b7f537472696e67733a20686578206c656e67746820696e73756666696369656e74600082015250565b600061334d602083612796565b915061335882613317565b602082019050919050565b6000602082019050818103600083015261337c81613340565b9050919050565b600061338e82612846565b91507fffffffffffffffffffffffffffffffffffffffffffffffffffffffffffffffff82036133c0576133bf61320f565b5b600182019050919050565b7f4e487b7100000000000000000000000000000000000000000000000000000000600052601260045260246000fd5b600061340582612846565b915061341083612846565b9250826134205761341f6133cb565b5b828204905092915050565b600061343682612846565b915061344183612846565b9250828210156134545761345361320f565b5b828203905092915050565b600061346a82612846565b915061347583612846565b925082613485576134846133cb565b5b828206905092915050565b7f4552433732313a207472616e736665722066726f6d20696e636f72726563742060008201527f6f776e6572000000000000000000000000000000000000000000000000000000602082015250565b60006134ec602583612796565b91506134f782613490565b604082019050919050565b6000602082019050818103600083015261351b816134df565b9050919050565b7f4552433732313a207472616e7366657220746f20746865207a65726f2061646460008201527f7265737300000000000000000000000000000000000000000000000000000000602082015250565b600061357e602483612796565b915061358982613522565b604082019050919050565b600060208201905081810360008301526135ad81613571565b9050919050565b7f4552433732313a20617070726f766520746f2063616c6c657200000000000000600082015250565b60006135ea601983612796565b91506135f5826135b4565b602082019050919050565b60006020820190508181036000830152613619816135dd565b9050919050565b7f4552433732313a207472616e7366657220746f206e6f6e20455243373231526560008201527f63656976657220696d706c656d656e7465720000000000000000000000000000602082015250565b600061367c603283612796565b915061368782613620565b604082019050919050565b600060208201905081810360008301526136ab8161366f565b9050919050565b600081519050919050565b600082825260208201905092915050565b60006136d9826136b2565b6136e381856136bd565b93506136f38185602086016127a7565b6136fc816127da565b840191505092915050565b600060808201905061371c6000830187612761565b6137296020830186612761565b6137366040830185612915565b818103606083015261374881846136ce565b905095945050505050565b600081519050613762816126a0565b92915050565b60006020828403121561377e5761377d61266a565b5b600061378c84828501613753565b91505092915050565b7f4e487b7100000000000000000000000000000000000000000000000000000000600052603160045260246000fd5b7f4552433732313a206d696e7420746f20746865207a65726f2061646472657373600082015250565b60006137fa602083612796565b9150613805826137c4565b602082019050919050565b60006020820190508181036000830152613829816137ed565b9050919050565b7f4552433732313a20746f6b656e20616c7265616479206d696e74656400000000600082015250565b6000613866601c83612796565b915061387182613830565b602082019050919050565b6000602082019050818103600083015261389581613859565b905091905056fea264697066735822122096f8df9346709bf6d1505a70993e0c5556779befb9f6c9d995944e1b81bb667364736f6c634300080f0033",
  "linkReferences": {},
  "deployedLinkReferences": {}
}