{
  "_format": "hh-sol-artifact-1",
  "contractName": "TestConnext",
  "sourceName": "contracts/test/TestConnext.sol",
  "abi": [
    {
      "inputs": [
        {
          "internalType": "uint256",
          "name": "domain_",
          "type": "uint256"
        }
      ],
      "stateMutability": "nonpayable",
      "type": "constructor"
    },
    {
      "anonymous": false,
      "inputs": [
        {
          "indexed": false,
          "internalType": "uint256",
          "name": "relayerFee",
          "type": "uint256"
        },
        {
          "indexed": false,
          "internalType": "uint32",
          "name": "destination",
          "type": "uint32"
        },
        {
          "indexed": false,
          "internalType": "address",
          "name": "to",
          "type": "address"
        },
        {
          "indexed": false,
          "internalType": "address",
          "name": "asset",
          "type": "address"
        },
        {
          "indexed": false,
          "internalType": "address",
          "name": "delegate",
          "type": "address"
        },
        {
          "indexed": false,
          "internalType": "uint256",
          "name": "amount",
          "type": "uint256"
        },
        {
          "indexed": false,
          "internalType": "uint256",
          "name": "slippage",
          "type": "uint256"
        },
        {
          "indexed": false,
          "internalType": "bytes",
          "name": "callData",
          "type": "bytes"
        }
      ],
      "name": "XCallCalled",
      "type": "event"
    },
    {
      "inputs": [],
      "name": "domain",
      "outputs": [
        {
          "internalType": "uint256",
          "name": "",
          "type": "uint256"
        }
      ],
      "stateMutability": "view",
      "type": "function"
    },
    {
      "inputs": [
        {
          "internalType": "address",
          "name": "receiver",
          "type": "address"
        },
        {
          "internalType": "bytes32",
          "name": "transferId",
          "type": "bytes32"
        },
        {
          "internalType": "uint256",
          "name": "amount",
          "type": "uint256"
        },
        {
          "internalType": "address",
          "name": "asset",
          "type": "address"
        },
        {
          "internalType": "address",
          "name": "originSender",
          "type": "address"
        },
        {
          "internalType": "uint32",
          "name": "origin",
          "type": "uint32"
        },
        {
          "internalType": "bytes",
          "name": "callData",
          "type": "bytes"
        }
      ],
      "name": "testXReceive",
      "outputs": [],
      "stateMutability": "nonpayable",
      "type": "function"
    },
    {
      "inputs": [
        {
          "internalType": "uint32",
          "name": "destination",
          "type": "uint32"
        },
        {
          "internalType": "address",
          "name": "to",
          "type": "address"
        },
        {
          "internalType": "address",
          "name": "asset",
          "type": "address"
        },
        {
          "internalType": "address",
          "name": "delegate",
          "type": "address"
        },
        {
          "internalType": "uint256",
          "name": "amount",
          "type": "uint256"
        },
        {
          "internalType": "uint256",
          "name": "slippage",
          "type": "uint256"
        },
        {
          "internalType": "bytes",
          "name": "callData",
          "type": "bytes"
        }
      ],
      "name": "xcall",
      "outputs": [
        {
          "internalType": "bytes32",
          "name": "",
          "type": "bytes32"
        }
      ],
      "stateMutability": "payable",
      "type": "function"
    }
  ],
  "bytecode": "0x608060405234801561001057600080fd5b5060405161099f38038061099f8339818101604052810190610032919061007a565b80600081905550506100a7565b600080fd5b6000819050919050565b61005781610044565b811461006257600080fd5b50565b6000815190506100748161004e565b92915050565b6000602082840312156100905761008f61003f565b5b600061009e84828501610065565b91505092915050565b6108e9806100b66000396000f3fe6080604052600436106100345760003560e01c80638aac16ba146100395780638e66d04f14610069578063c2fb26a614610092575b600080fd5b610053600480360381019061004e91906102f6565b6100bd565b60405161006091906103d1565b60405180910390f35b34801561007557600080fd5b50610090600480360381019061008b9190610559565b610112565b005b34801561009e57600080fd5b506100a76101a7565b6040516100b49190610626565b60405180910390f35b60007fd03c4eeedab4a174e843af571fa9928d4440d6ca0e259df45294922ad5f39f66348a8a8a8a8a8a8a8a6040516100fe9998979695949392919061069d565b60405180910390a198975050505050505050565b8673ffffffffffffffffffffffffffffffffffffffff1663fd614f418787878787876040518763ffffffff1660e01b815260040161015596959493929190610792565b6000604051808303816000875af1158015610174573d6000803e3d6000fd5b505050506040513d6000823e3d601f19601f8201168201806040525081019061019d919061086a565b5050505050505050565b60005481565b6000604051905090565b600080fd5b600080fd5b600063ffffffff82169050919050565b6101da816101c1565b81146101e557600080fd5b50565b6000813590506101f7816101d1565b92915050565b600073ffffffffffffffffffffffffffffffffffffffff82169050919050565b6000610228826101fd565b9050919050565b6102388161021d565b811461024357600080fd5b50565b6000813590506102558161022f565b92915050565b6000819050919050565b61026e8161025b565b811461027957600080fd5b50565b60008135905061028b81610265565b92915050565b600080fd5b600080fd5b600080fd5b60008083601f8401126102b6576102b5610291565b5b8235905067ffffffffffffffff8111156102d3576102d2610296565b5b6020830191508360018202830111156102ef576102ee61029b565b5b9250929050565b60008060008060008060008060e0898b031215610316576103156101b7565b5b60006103248b828c016101e8565b98505060206103358b828c01610246565b97505060406103468b828c01610246565b96505060606103578b828c01610246565b95505060806103688b828c0161027c565b94505060a06103798b828c0161027c565b93505060c089013567ffffffffffffffff81111561039a576103996101bc565b5b6103a68b828c016102a0565b92509250509295985092959890939650565b6000819050919050565b6103cb816103b8565b82525050565b60006020820190506103e660008301846103c2565b92915050565b6103f5816103b8565b811461040057600080fd5b50565b600081359050610412816103ec565b92915050565b600080fd5b6000601f19601f8301169050919050565b7f4e487b7100000000000000000000000000000000000000000000000000000000600052604160045260246000fd5b6104668261041d565b810181811067ffffffffffffffff821117156104855761048461042e565b5b80604052505050565b60006104986101ad565b90506104a4828261045d565b919050565b600067ffffffffffffffff8211156104c4576104c361042e565b5b6104cd8261041d565b9050602081019050919050565b82818337600083830152505050565b60006104fc6104f7846104a9565b61048e565b90508281526020810184848401111561051857610517610418565b5b6105238482856104da565b509392505050565b600082601f8301126105405761053f610291565b5b81356105508482602086016104e9565b91505092915050565b600080600080600080600060e0888a031215610578576105776101b7565b5b60006105868a828b01610246565b97505060206105978a828b01610403565b96505060406105a88a828b0161027c565b95505060606105b98a828b01610246565b94505060806105ca8a828b01610246565b93505060a06105db8a828b016101e8565b92505060c088013567ffffffffffffffff8111156105fc576105fb6101bc565b5b6106088a828b0161052b565b91505092959891949750929550565b6106208161025b565b82525050565b600060208201905061063b6000830184610617565b92915050565b61064a816101c1565b82525050565b6106598161021d565b82525050565b600082825260208201905092915050565b600061067c838561065f565b93506106898385846104da565b6106928361041d565b840190509392505050565b6000610100820190506106b3600083018c610617565b6106c0602083018b610641565b6106cd604083018a610650565b6106da6060830189610650565b6106e76080830188610650565b6106f460a0830187610617565b61070160c0830186610617565b81810360e0830152610714818486610670565b90509a9950505050505050505050565b600081519050919050565b60005b8381101561074d578082015181840152602081019050610732565b60008484015250505050565b600061076482610724565b61076e818561065f565b935061077e81856020860161072f565b6107878161041d565b840191505092915050565b600060c0820190506107a760008301896103c2565b6107b46020830188610617565b6107c16040830187610650565b6107ce6060830186610650565b6107db6080830185610641565b81810360a08301526107ed8184610759565b9050979650505050505050565b600061080d610808846104a9565b61048e565b90508281526020810184848401111561082957610828610418565b5b61083484828561072f565b509392505050565b600082601f83011261085157610850610291565b5b81516108618482602086016107fa565b91505092915050565b6000602082840312156108805761087f6101b7565b5b600082015167ffffffffffffffff81111561089e5761089d6101bc565b5b6108aa8482850161083c565b9150509291505056fea264697066735822122063deaf3029defe6e7dd3e47318ef0ebfd2a36a5ce3bed6f51c3bd5d083bafd7964736f6c63430008110033",
  "linkReferences": {},
  "deployedLinkReferences": {}
}