{
  "_format": "hh-sol-artifact-1",
  "contractName": "TestConnext",
  "sourceName": "contracts/test/TestConnext.sol",
  "abi": [
    {
      "inputs": [
        {
          "internalType": "uint256",
          "name": "domain_",
          "type": "uint256"
        }
      ],
      "stateMutability": "nonpayable",
      "type": "constructor"
    },
    {
      "anonymous": false,
      "inputs": [
        {
          "indexed": false,
          "internalType": "uint256",
          "name": "relayerFee",
          "type": "uint256"
        },
        {
          "indexed": false,
          "internalType": "uint32",
          "name": "destination",
          "type": "uint32"
        },
        {
          "indexed": false,
          "internalType": "address",
          "name": "to",
          "type": "address"
        },
        {
          "indexed": false,
          "internalType": "address",
          "name": "asset",
          "type": "address"
        },
        {
          "indexed": false,
          "internalType": "address",
          "name": "delegate",
          "type": "address"
        },
        {
          "indexed": false,
          "internalType": "uint256",
          "name": "amount",
          "type": "uint256"
        },
        {
          "indexed": false,
          "internalType": "uint256",
          "name": "slippage",
          "type": "uint256"
        },
        {
          "indexed": false,
          "internalType": "bytes",
          "name": "callData",
          "type": "bytes"
        }
      ],
      "name": "XCallCalled",
      "type": "event"
    },
    {
      "inputs": [],
      "name": "domain",
      "outputs": [
        {
          "internalType": "uint256",
          "name": "",
          "type": "uint256"
        }
      ],
      "stateMutability": "view",
      "type": "function"
    },
    {
      "inputs": [
        {
          "internalType": "address",
          "name": "receiver",
          "type": "address"
        },
        {
          "internalType": "bytes32",
          "name": "transferId",
          "type": "bytes32"
        },
        {
          "internalType": "uint256",
          "name": "amount",
          "type": "uint256"
        },
        {
          "internalType": "address",
          "name": "asset",
          "type": "address"
        },
        {
          "internalType": "address",
          "name": "originSender",
          "type": "address"
        },
        {
          "internalType": "uint32",
          "name": "origin",
          "type": "uint32"
        },
        {
          "internalType": "bytes",
          "name": "callData",
          "type": "bytes"
        }
      ],
      "name": "testXReceive",
      "outputs": [],
      "stateMutability": "nonpayable",
      "type": "function"
    },
    {
      "inputs": [
        {
          "internalType": "uint32",
          "name": "destination",
          "type": "uint32"
        },
        {
          "internalType": "address",
          "name": "to",
          "type": "address"
        },
        {
          "internalType": "address",
          "name": "asset",
          "type": "address"
        },
        {
          "internalType": "address",
          "name": "delegate",
          "type": "address"
        },
        {
          "internalType": "uint256",
          "name": "amount",
          "type": "uint256"
        },
        {
          "internalType": "uint256",
          "name": "slippage",
          "type": "uint256"
        },
        {
          "internalType": "bytes",
          "name": "callData",
          "type": "bytes"
        }
      ],
      "name": "xcall",
      "outputs": [
        {
          "internalType": "bytes32",
          "name": "",
          "type": "bytes32"
        }
      ],
      "stateMutability": "payable",
      "type": "function"
    }
  ],
  "bytecode": "0x608060405234801561001057600080fd5b5060405161062838038061062883398101604081905261002f91610037565b600055610050565b60006020828403121561004957600080fd5b5051919050565b6105c98061005f6000396000f3fe6080604052600436106100345760003560e01c80638aac16ba146100395780638e66d04f1461005e578063c2fb26a614610080575b600080fd5b61004c6100473660046101d5565b610096565b60405190815260200160405180910390f35b34801561006a57600080fd5b5061007e610079366004610325565b6100eb565b005b34801561008c57600080fd5b5061004c60005481565b60007fd03c4eeedab4a174e843af571fa9928d4440d6ca0e259df45294922ad5f39f66348a8a8a8a8a8a8a8a6040516100d7999897969594939291906103fb565b60405180910390a198975050505050505050565b6040517ffd614f4100000000000000000000000000000000000000000000000000000000815273ffffffffffffffffffffffffffffffffffffffff88169063fd614f4190610147908990899089908990899089906004016104a6565b6000604051808303816000875af1158015610166573d6000803e3d6000fd5b505050506040513d6000823e601f3d908101601f1916820160405261018e919081019061051c565b5050505050505050565b803563ffffffff811681146101ac57600080fd5b919050565b803573ffffffffffffffffffffffffffffffffffffffff811681146101ac57600080fd5b60008060008060008060008060e0898b0312156101f157600080fd5b6101fa89610198565b975061020860208a016101b1565b965061021660408a016101b1565b955061022460608a016101b1565b94506080890135935060a0890135925060c089013567ffffffffffffffff8082111561024f57600080fd5b818b0191508b601f83011261026357600080fd5b81358181111561027257600080fd5b8c602082850101111561028457600080fd5b6020830194508093505050509295985092959890939650565b7f4e487b7100000000000000000000000000000000000000000000000000000000600052604160045260246000fd5b604051601f8201601f1916810167ffffffffffffffff811182821017156102f5576102f561029d565b604052919050565b600067ffffffffffffffff8211156103175761031761029d565b50601f01601f191660200190565b600080600080600080600060e0888a03121561034057600080fd5b610349886101b1565b96506020880135955060408801359450610365606089016101b1565b9350610373608089016101b1565b925061038160a08901610198565b915060c088013567ffffffffffffffff81111561039d57600080fd5b8801601f81018a136103ae57600080fd5b80356103c16103bc826102fd565b6102cc565b8181528b60208385010111156103d657600080fd5b8160208401602083013760006020838301015280935050505092959891949750929550565b60006101008b835263ffffffff8b16602084015273ffffffffffffffffffffffffffffffffffffffff808b166040850152808a1660608501528089166080850152508660a08401528560c08401528060e08401528381840152506101208385828501376000838501820152601f909301601f19169091019091019998505050505050505050565b60005b8381101561049d578181015183820152602001610485565b50506000910152565b868152856020820152600073ffffffffffffffffffffffffffffffffffffffff808716604084015280861660608401525063ffffffff8416608083015260c060a083015282518060c08401526105038160e0850160208701610482565b601f01601f19169190910160e001979650505050505050565b60006020828403121561052e57600080fd5b815167ffffffffffffffff81111561054557600080fd5b8201601f8101841361055657600080fd5b80516105646103bc826102fd565b81815285602083850101111561057957600080fd5b61058a826020830160208601610482565b9594505050505056fea2646970667358221220094e0acd9a90e460de6c725882d18ab274dd9b320048ffdc804665931821369a64736f6c63430008110033",
  "linkReferences": {},
  "deployedLinkReferences": {}
}