{
  "_format": "hh-sol-artifact-1",
  "contractName": "OVM_DeployerWhitelist",
  "sourceName": "contracts/L2/predeploys/OVM_DeployerWhitelist.sol",
  "abi": [
    {
      "anonymous": false,
      "inputs": [
        {
          "indexed": false,
          "internalType": "address",
          "name": "oldOwner",
          "type": "address"
        },
        {
          "indexed": false,
          "internalType": "address",
          "name": "newOwner",
          "type": "address"
        }
      ],
      "name": "OwnerChanged",
      "type": "event"
    },
    {
      "anonymous": false,
      "inputs": [
        {
          "indexed": false,
          "internalType": "address",
          "name": "oldOwner",
          "type": "address"
        }
      ],
      "name": "WhitelistDisabled",
      "type": "event"
    },
    {
      "anonymous": false,
      "inputs": [
        {
          "indexed": false,
          "internalType": "address",
          "name": "deployer",
          "type": "address"
        },
        {
          "indexed": false,
          "internalType": "bool",
          "name": "whitelisted",
          "type": "bool"
        }
      ],
      "name": "WhitelistStatusChanged",
      "type": "event"
    },
    {
      "inputs": [],
      "name": "enableArbitraryContractDeployment",
      "outputs": [],
      "stateMutability": "nonpayable",
      "type": "function"
    },
    {
      "inputs": [
        {
          "internalType": "address",
          "name": "_deployer",
          "type": "address"
        }
      ],
      "name": "isDeployerAllowed",
      "outputs": [
        {
          "internalType": "bool",
          "name": "",
          "type": "bool"
        }
      ],
      "stateMutability": "view",
      "type": "function"
    },
    {
      "inputs": [],
      "name": "owner",
      "outputs": [
        {
          "internalType": "address",
          "name": "",
          "type": "address"
        }
      ],
      "stateMutability": "view",
      "type": "function"
    },
    {
      "inputs": [
        {
          "internalType": "address",
          "name": "_owner",
          "type": "address"
        }
      ],
      "name": "setOwner",
      "outputs": [],
      "stateMutability": "nonpayable",
      "type": "function"
    },
    {
      "inputs": [
        {
          "internalType": "address",
          "name": "_deployer",
          "type": "address"
        },
        {
          "internalType": "bool",
          "name": "_isWhitelisted",
          "type": "bool"
        }
      ],
      "name": "setWhitelistedDeployer",
      "outputs": [],
      "stateMutability": "nonpayable",
      "type": "function"
    },
    {
      "inputs": [
        {
          "internalType": "address",
          "name": "",
          "type": "address"
        }
      ],
      "name": "whitelist",
      "outputs": [
        {
          "internalType": "bool",
          "name": "",
          "type": "bool"
        }
      ],
      "stateMutability": "view",
      "type": "function"
    }
  ],
  "bytecode": "0x608060405234801561001057600080fd5b50610939806100206000396000f3fe608060405234801561001057600080fd5b50600436106100625760003560e01c806308fd63221461006757806313af4035146100835780638da5cb5b1461009f5780639b19251a146100bd578063b1540a01146100ed578063bdc7b54f1461011d575b600080fd5b610081600480360381019061007c9190610695565b610127565b005b61009d600480360381019061009891906106d5565b610249565b005b6100a76103e2565b6040516100b49190610711565b60405180910390f35b6100d760048036038101906100d291906106d5565b610406565b6040516100e4919061073b565b60405180910390f35b610107600480360381019061010291906106d5565b610426565b604051610114919061073b565b60405180910390f35b6101256104d2565b005b60008054906101000a900473ffffffffffffffffffffffffffffffffffffffff1673ffffffffffffffffffffffffffffffffffffffff163373ffffffffffffffffffffffffffffffffffffffff16146101b5576040517f08c379a00000000000000000000000000000000000000000000000000000000081526004016101ac906107d9565b60405180910390fd5b80600160008473ffffffffffffffffffffffffffffffffffffffff1673ffffffffffffffffffffffffffffffffffffffff16815260200190815260200160002060006101000a81548160ff0219169083151502179055507f8daaf060c3306c38e068a75c054bf96ecd85a3db1252712c4d93632744c42e0d828260405161023d9291906107f9565b60405180910390a15050565b60008054906101000a900473ffffffffffffffffffffffffffffffffffffffff1673ffffffffffffffffffffffffffffffffffffffff163373ffffffffffffffffffffffffffffffffffffffff16146102d7576040517f08c379a00000000000000000000000000000000000000000000000000000000081526004016102ce906107d9565b60405180910390fd5b600073ffffffffffffffffffffffffffffffffffffffff168173ffffffffffffffffffffffffffffffffffffffff1603610346576040517f08c379a000000000000000000000000000000000000000000000000000000000815260040161033d906108ba565b60405180910390fd5b7fb532073b38c83145e3e5135377a08bf9aab55bc0fd7c1179cd4fb995d2a5159c60008054906101000a900473ffffffffffffffffffffffffffffffffffffffff16826040516103979291906108da565b60405180910390a1806000806101000a81548173ffffffffffffffffffffffffffffffffffffffff021916908373ffffffffffffffffffffffffffffffffffffffff16021790555050565b60008054906101000a900473ffffffffffffffffffffffffffffffffffffffff1681565b60016020528060005260406000206000915054906101000a900460ff1681565b60008073ffffffffffffffffffffffffffffffffffffffff1660008054906101000a900473ffffffffffffffffffffffffffffffffffffffff1673ffffffffffffffffffffffffffffffffffffffff1614806104cb5750600160008373ffffffffffffffffffffffffffffffffffffffff1673ffffffffffffffffffffffffffffffffffffffff16815260200190815260200160002060009054906101000a900460ff165b9050919050565b60008054906101000a900473ffffffffffffffffffffffffffffffffffffffff1673ffffffffffffffffffffffffffffffffffffffff163373ffffffffffffffffffffffffffffffffffffffff1614610560576040517f08c379a0000000000000000000000000000000000000000000000000000000008152600401610557906107d9565b60405180910390fd5b7fc0e106cf568e50698fdbde1eff56f5a5c966cc7958e37e276918e9e4ccdf8cd460008054906101000a900473ffffffffffffffffffffffffffffffffffffffff166040516105af9190610711565b60405180910390a160008060006101000a81548173ffffffffffffffffffffffffffffffffffffffff021916908373ffffffffffffffffffffffffffffffffffffffff160217905550565b600080fd5b600073ffffffffffffffffffffffffffffffffffffffff82169050919050565b600061062a826105ff565b9050919050565b61063a8161061f565b811461064557600080fd5b50565b60008135905061065781610631565b92915050565b60008115159050919050565b6106728161065d565b811461067d57600080fd5b50565b60008135905061068f81610669565b92915050565b600080604083850312156106ac576106ab6105fa565b5b60006106ba85828601610648565b92505060206106cb85828601610680565b9150509250929050565b6000602082840312156106eb576106ea6105fa565b5b60006106f984828501610648565b91505092915050565b61070b8161061f565b82525050565b60006020820190506107266000830184610702565b92915050565b6107358161065d565b82525050565b6000602082019050610750600083018461072c565b92915050565b600082825260208201905092915050565b7f46756e6374696f6e2063616e206f6e6c792062652063616c6c6564206279207460008201527f6865206f776e6572206f66207468697320636f6e74726163742e000000000000602082015250565b60006107c3603a83610756565b91506107ce82610767565b604082019050919050565b600060208201905081810360008301526107f2816107b6565b9050919050565b600060408201905061080e6000830185610702565b61081b602083018461072c565b9392505050565b7f4f564d5f4465706c6f79657257686974656c6973743a2063616e206f6e6c792060008201527f62652064697361626c65642076696120656e61626c654172626974726172794360208201527f6f6e74726163744465706c6f796d656e74000000000000000000000000000000604082015250565b60006108a4605183610756565b91506108af82610822565b606082019050919050565b600060208201905081810360008301526108d381610897565b9050919050565b60006040820190506108ef6000830185610702565b6108fc6020830184610702565b939250505056fea26469706673582212206116d1dc8564a4a3f4f8d238a4d02966a4e664a36f2c0e056392cf17977cb2d364736f6c63430008120033",
  "linkReferences": {},
  "deployedLinkReferences": {}
}