{
  "_format": "hh-sol-artifact-1",
  "contractName": "OVM_DeployerWhitelist",
  "sourceName": "contracts/L2/predeploys/OVM_DeployerWhitelist.sol",
  "abi": [
    {
      "anonymous": false,
      "inputs": [
        {
          "indexed": false,
          "internalType": "address",
          "name": "oldOwner",
          "type": "address"
        },
        {
          "indexed": false,
          "internalType": "address",
          "name": "newOwner",
          "type": "address"
        }
      ],
      "name": "OwnerChanged",
      "type": "event"
    },
    {
      "anonymous": false,
      "inputs": [
        {
          "indexed": false,
          "internalType": "address",
          "name": "oldOwner",
          "type": "address"
        }
      ],
      "name": "WhitelistDisabled",
      "type": "event"
    },
    {
      "anonymous": false,
      "inputs": [
        {
          "indexed": false,
          "internalType": "address",
          "name": "deployer",
          "type": "address"
        },
        {
          "indexed": false,
          "internalType": "bool",
          "name": "whitelisted",
          "type": "bool"
        }
      ],
      "name": "WhitelistStatusChanged",
      "type": "event"
    },
    {
      "inputs": [],
      "name": "enableArbitraryContractDeployment",
      "outputs": [],
      "stateMutability": "nonpayable",
      "type": "function"
    },
    {
      "inputs": [
        {
          "internalType": "address",
          "name": "_deployer",
          "type": "address"
        }
      ],
      "name": "isDeployerAllowed",
      "outputs": [
        {
          "internalType": "bool",
          "name": "",
          "type": "bool"
        }
      ],
      "stateMutability": "view",
      "type": "function"
    },
    {
      "inputs": [],
      "name": "owner",
      "outputs": [
        {
          "internalType": "address",
          "name": "",
          "type": "address"
        }
      ],
      "stateMutability": "view",
      "type": "function"
    },
    {
      "inputs": [
        {
          "internalType": "address",
          "name": "_owner",
          "type": "address"
        }
      ],
      "name": "setOwner",
      "outputs": [],
      "stateMutability": "nonpayable",
      "type": "function"
    },
    {
      "inputs": [
        {
          "internalType": "address",
          "name": "_deployer",
          "type": "address"
        },
        {
          "internalType": "bool",
          "name": "_isWhitelisted",
          "type": "bool"
        }
      ],
      "name": "setWhitelistedDeployer",
      "outputs": [],
      "stateMutability": "nonpayable",
      "type": "function"
    },
    {
      "inputs": [
        {
          "internalType": "address",
          "name": "",
          "type": "address"
        }
      ],
      "name": "whitelist",
      "outputs": [
        {
          "internalType": "bool",
          "name": "",
          "type": "bool"
        }
      ],
      "stateMutability": "view",
      "type": "function"
    }
  ],
  "bytecode": "0x608060405234801561001057600080fd5b50610563806100206000396000f3fe608060405234801561001057600080fd5b50600436106100725760003560e01c80639b19251a116100505780639b19251a146100cf578063b1540a0114610102578063bdc7b54f1461011557600080fd5b806308fd63221461007757806313af40351461008c5780638da5cb5b1461009f575b600080fd5b61008a6100853660046104cf565b61011d565b005b61008a61009a36600461050b565b610205565b6000546100b2906001600160a01b031681565b6040516001600160a01b0390911681526020015b60405180910390f35b6100f26100dd36600461050b565b60016020526000908152604090205460ff1681565b60405190151581526020016100c6565b6100f261011036600461050b565b61039d565b61008a6103d4565b6000546001600160a01b031633146101a25760405162461bcd60e51b815260206004820152603a60248201527f46756e6374696f6e2063616e206f6e6c792062652063616c6c6564206279207460448201527f6865206f776e6572206f66207468697320636f6e74726163742e00000000000060648201526084015b60405180910390fd5b6001600160a01b038216600081815260016020908152604091829020805460ff19168515159081179091558251938452908301527f8daaf060c3306c38e068a75c054bf96ecd85a3db1252712c4d93632744c42e0d910160405180910390a15050565b6000546001600160a01b031633146102855760405162461bcd60e51b815260206004820152603a60248201527f46756e6374696f6e2063616e206f6e6c792062652063616c6c6564206279207460448201527f6865206f776e6572206f66207468697320636f6e74726163742e0000000000006064820152608401610199565b6001600160a01b0381166103275760405162461bcd60e51b815260206004820152605160248201527f4f564d5f4465706c6f79657257686974656c6973743a2063616e206f6e6c792060448201527f62652064697361626c65642076696120656e61626c654172626974726172794360648201527f6f6e74726163744465706c6f796d656e74000000000000000000000000000000608482015260a401610199565b600054604080516001600160a01b03928316815291831660208301527fb532073b38c83145e3e5135377a08bf9aab55bc0fd7c1179cd4fb995d2a5159c910160405180910390a16000805473ffffffffffffffffffffffffffffffffffffffff19166001600160a01b0392909216919091179055565b600080546001600160a01b031615806103ce57506001600160a01b03821660009081526001602052604090205460ff165b92915050565b6000546001600160a01b031633146104545760405162461bcd60e51b815260206004820152603a60248201527f46756e6374696f6e2063616e206f6e6c792062652063616c6c6564206279207460448201527f6865206f776e6572206f66207468697320636f6e74726163742e0000000000006064820152608401610199565b6000546040516001600160a01b0390911681527fc0e106cf568e50698fdbde1eff56f5a5c966cc7958e37e276918e9e4ccdf8cd49060200160405180910390a16000805473ffffffffffffffffffffffffffffffffffffffff19169055565b80356001600160a01b03811681146104ca57600080fd5b919050565b600080604083850312156104e257600080fd5b6104eb836104b3565b91506020830135801515811461050057600080fd5b809150509250929050565b60006020828403121561051d57600080fd5b610526826104b3565b939250505056fea264697066735822122020e66db6510dffd980adb507e4ea09921e680cc396af1c56150d3919481e49c964736f6c63430008120033",
  "linkReferences": {},
  "deployedLinkReferences": {}
}