{
  "_format": "hh-sol-artifact-1",
  "contractName": "L2CrossDomainMessenger",
  "sourceName": "contracts/L2/messaging/L2CrossDomainMessenger.sol",
  "abi": [
    {
      "inputs": [
        {
          "internalType": "address",
          "name": "_l1CrossDomainMessenger",
          "type": "address"
        },
        {
          "internalType": "address",
          "name": "_messagePasser",
          "type": "address"
        }
      ],
      "stateMutability": "nonpayable",
      "type": "constructor"
    },
    {
      "anonymous": false,
      "inputs": [
        {
          "indexed": true,
          "internalType": "bytes32",
          "name": "msgHash",
          "type": "bytes32"
        }
      ],
      "name": "FailedRelayedMessage",
      "type": "event"
    },
    {
      "anonymous": false,
      "inputs": [
        {
          "indexed": true,
          "internalType": "bytes32",
          "name": "msgHash",
          "type": "bytes32"
        }
      ],
      "name": "RelayedMessage",
      "type": "event"
    },
    {
      "anonymous": false,
      "inputs": [
        {
          "indexed": true,
          "internalType": "address",
          "name": "target",
          "type": "address"
        },
        {
          "indexed": false,
          "internalType": "address",
          "name": "sender",
          "type": "address"
        },
        {
          "indexed": false,
          "internalType": "bytes",
          "name": "message",
          "type": "bytes"
        },
        {
          "indexed": false,
          "internalType": "uint256",
          "name": "messageNonce",
          "type": "uint256"
        },
        {
          "indexed": false,
          "internalType": "uint256",
          "name": "gasLimit",
          "type": "uint256"
        }
      ],
      "name": "SentMessage",
      "type": "event"
    },
    {
      "inputs": [],
      "name": "l1CrossDomainMessenger",
      "outputs": [
        {
          "internalType": "address",
          "name": "",
          "type": "address"
        }
      ],
      "stateMutability": "view",
      "type": "function"
    },
    {
      "inputs": [],
      "name": "messageNonce",
      "outputs": [
        {
          "internalType": "uint256",
          "name": "",
          "type": "uint256"
        }
      ],
      "stateMutability": "view",
      "type": "function"
    },
    {
      "inputs": [],
      "name": "messagePasser",
      "outputs": [
        {
          "internalType": "address",
          "name": "",
          "type": "address"
        }
      ],
      "stateMutability": "view",
      "type": "function"
    },
    {
      "inputs": [
        {
          "internalType": "address",
          "name": "_target",
          "type": "address"
        },
        {
          "internalType": "address",
          "name": "_sender",
          "type": "address"
        },
        {
          "internalType": "bytes",
          "name": "_message",
          "type": "bytes"
        },
        {
          "internalType": "uint256",
          "name": "_messageNonce",
          "type": "uint256"
        }
      ],
      "name": "relayMessage",
      "outputs": [],
      "stateMutability": "nonpayable",
      "type": "function"
    },
    {
      "inputs": [
        {
          "internalType": "bytes32",
          "name": "",
          "type": "bytes32"
        }
      ],
      "name": "relayedMessages",
      "outputs": [
        {
          "internalType": "bool",
          "name": "",
          "type": "bool"
        }
      ],
      "stateMutability": "view",
      "type": "function"
    },
    {
      "inputs": [
        {
          "internalType": "address",
          "name": "_target",
          "type": "address"
        },
        {
          "internalType": "bytes",
          "name": "_message",
          "type": "bytes"
        },
        {
          "internalType": "uint32",
          "name": "_gasLimit",
          "type": "uint32"
        }
      ],
      "name": "sendMessage",
      "outputs": [],
      "stateMutability": "nonpayable",
      "type": "function"
    },
    {
      "inputs": [
        {
          "internalType": "bytes32",
          "name": "",
          "type": "bytes32"
        }
      ],
      "name": "sentMessages",
      "outputs": [
        {
          "internalType": "bool",
          "name": "",
          "type": "bool"
        }
      ],
      "stateMutability": "view",
      "type": "function"
    },
    {
      "inputs": [
        {
          "internalType": "bytes32",
          "name": "",
          "type": "bytes32"
        }
      ],
      "name": "successfulMessages",
      "outputs": [
        {
          "internalType": "bool",
          "name": "",
          "type": "bool"
        }
      ],
      "stateMutability": "view",
      "type": "function"
    },
    {
      "inputs": [],
      "name": "xDomainMessageSender",
      "outputs": [
        {
          "internalType": "address",
          "name": "",
          "type": "address"
        }
      ],
      "stateMutability": "view",
      "type": "function"
    }
  ],
  "bytecode": "0x608060405261dead600460006101000a81548173ffffffffffffffffffffffffffffffffffffffff021916908373ffffffffffffffffffffffffffffffffffffffff1602179055503480156200005457600080fd5b50604051620013453803806200134583398181016040528101906200007a91906200016e565b81600560006101000a81548173ffffffffffffffffffffffffffffffffffffffff021916908373ffffffffffffffffffffffffffffffffffffffff16021790555080600660006101000a81548173ffffffffffffffffffffffffffffffffffffffff021916908373ffffffffffffffffffffffffffffffffffffffff1602179055505050620001b5565b600080fd5b600073ffffffffffffffffffffffffffffffffffffffff82169050919050565b6000620001368262000109565b9050919050565b620001488162000129565b81146200015457600080fd5b50565b60008151905062000168816200013d565b92915050565b6000806040838503121562000188576200018762000104565b5b6000620001988582860162000157565b9250506020620001ab8582860162000157565b9150509250929050565b61118080620001c56000396000f3fe608060405234801561001057600080fd5b50600436106100935760003560e01c8063a711986911610066578063a711986914610132578063b1b1b20914610150578063cbd4ece914610180578063ecc704281461019c578063fe8810df146101ba57610093565b806321d800ec146100985780633dbb202b146100c85780636e296e45146100e457806382e3702d14610102575b600080fd5b6100b260048036038101906100ad919061091e565b6101d8565b6040516100bf9190610966565b60405180910390f35b6100e260048036038101906100dd9190610b61565b6101f8565b005b6100ec610340565b6040516100f99190610bdf565b60405180910390f35b61011c6004803603810190610117919061091e565b6103fc565b6040516101299190610966565b60405180910390f35b61013a61041c565b6040516101479190610bdf565b60405180910390f35b61016a6004803603810190610165919061091e565b610442565b6040516101779190610966565b60405180910390f35b61019a60048036038101906101959190610c30565b610462565b005b6101a46107e3565b6040516101b19190610cc2565b60405180910390f35b6101c26107e9565b6040516101cf9190610bdf565b60405180910390f35b60006020528060005260406000206000915054906101000a900460ff1681565b600061020884338560035461080f565b90506001600260008380519060200120815260200190815260200160002060006101000a81548160ff021916908315150217905550600660009054906101000a900473ffffffffffffffffffffffffffffffffffffffff1673ffffffffffffffffffffffffffffffffffffffff1663cafa81dc826040518263ffffffff1660e01b81526004016102989190610d5c565b600060405180830381600087803b1580156102b257600080fd5b505af11580156102c6573d6000803e3d6000fd5b505050508373ffffffffffffffffffffffffffffffffffffffff167fcb0f7ffd78f9aee47a248fae8db181db6eee833039123e026dcbff529522e52a3385600354866040516103189493929190610db9565b60405180910390a26001600360008282546103339190610e34565b9250508190555050505050565b600061dead73ffffffffffffffffffffffffffffffffffffffff16600460009054906101000a900473ffffffffffffffffffffffffffffffffffffffff1673ffffffffffffffffffffffffffffffffffffffff16036103d4576040517f08c379a00000000000000000000000000000000000000000000000000000000081526004016103cb90610ec5565b60405180910390fd5b600460009054906101000a900473ffffffffffffffffffffffffffffffffffffffff16905090565b60026020528060005260406000206000915054906101000a900460ff1681565b600560009054906101000a900473ffffffffffffffffffffffffffffffffffffffff1681565b60016020528060005260406000206000915054906101000a900460ff1681565b600560009054906101000a900473ffffffffffffffffffffffffffffffffffffffff1673ffffffffffffffffffffffffffffffffffffffff166104a4336108af565b73ffffffffffffffffffffffffffffffffffffffff16146104fa576040517f08c379a00000000000000000000000000000000000000000000000000000000081526004016104f190610f57565b60405180910390fd5b60006105088585858561080f565b9050600081805190602001209050600015156001600083815260200190815260200160002060009054906101000a900460ff1615151461057d576040517f08c379a000000000000000000000000000000000000000000000000000000000815260040161057490610fe9565b60405180910390fd5b73420000000000000000000000000000000000000073ffffffffffffffffffffffffffffffffffffffff168673ffffffffffffffffffffffffffffffffffffffff16036105f657600180600083815260200190815260200160002060006101000a81548160ff02191690831515021790555050506107dd565b84600460006101000a81548173ffffffffffffffffffffffffffffffffffffffff021916908373ffffffffffffffffffffffffffffffffffffffff16021790555060008673ffffffffffffffffffffffffffffffffffffffff168560405161065e9190611045565b6000604051808303816000865af19150503d806000811461069b576040519150601f19603f3d011682016040523d82523d6000602084013e6106a0565b606091505b5050905061dead600460006101000a81548173ffffffffffffffffffffffffffffffffffffffff021916908373ffffffffffffffffffffffffffffffffffffffff160217905550600115158115150361075057600180600084815260200190815260200160002060006101000a81548160ff021916908315150217905550817f4641df4a962071e12719d8c8c8e5ac7fc4d97b927346a3d7a335b1f7517e133c60405160405180910390a261077e565b817f99d0e048484baa1b1540b1367cb128acd7ab2946d1ed91ec10e3c85e4bf51b8f60405160405180910390a25b6000833343604051602001610795939291906110c5565b604051602081830303815290604052805190602001209050600160008083815260200190815260200160002060006101000a81548160ff021916908315150217905550505050505b50505050565b60035481565b600660009054906101000a900473ffffffffffffffffffffffffffffffffffffffff1681565b60608484848460405160240161082894939291906110fe565b6040516020818303038152906040527fcbd4ece9000000000000000000000000000000000000000000000000000000007bffffffffffffffffffffffffffffffffffffffffffffffffffffffff19166020820180517bffffffffffffffffffffffffffffffffffffffffffffffffffffffff83818316178352505050509050949350505050565b6000807311110000000000000000000000000000000011118303905050819050919050565b6000604051905090565b600080fd5b600080fd5b6000819050919050565b6108fb816108e8565b811461090657600080fd5b50565b600081359050610918816108f2565b92915050565b600060208284031215610934576109336108de565b5b600061094284828501610909565b91505092915050565b60008115159050919050565b6109608161094b565b82525050565b600060208201905061097b6000830184610957565b92915050565b600073ffffffffffffffffffffffffffffffffffffffff82169050919050565b60006109ac82610981565b9050919050565b6109bc816109a1565b81146109c757600080fd5b50565b6000813590506109d9816109b3565b92915050565b600080fd5b600080fd5b6000601f19601f8301169050919050565b7f4e487b7100000000000000000000000000000000000000000000000000000000600052604160045260246000fd5b610a32826109e9565b810181811067ffffffffffffffff82111715610a5157610a506109fa565b5b80604052505050565b6000610a646108d4565b9050610a708282610a29565b919050565b600067ffffffffffffffff821115610a9057610a8f6109fa565b5b610a99826109e9565b9050602081019050919050565b82818337600083830152505050565b6000610ac8610ac384610a75565b610a5a565b905082815260208101848484011115610ae457610ae36109e4565b5b610aef848285610aa6565b509392505050565b600082601f830112610b0c57610b0b6109df565b5b8135610b1c848260208601610ab5565b91505092915050565b600063ffffffff82169050919050565b610b3e81610b25565b8114610b4957600080fd5b50565b600081359050610b5b81610b35565b92915050565b600080600060608486031215610b7a57610b796108de565b5b6000610b88868287016109ca565b935050602084013567ffffffffffffffff811115610ba957610ba86108e3565b5b610bb586828701610af7565b9250506040610bc686828701610b4c565b9150509250925092565b610bd9816109a1565b82525050565b6000602082019050610bf46000830184610bd0565b92915050565b6000819050919050565b610c0d81610bfa565b8114610c1857600080fd5b50565b600081359050610c2a81610c04565b92915050565b60008060008060808587031215610c4a57610c496108de565b5b6000610c58878288016109ca565b9450506020610c69878288016109ca565b935050604085013567ffffffffffffffff811115610c8a57610c896108e3565b5b610c9687828801610af7565b9250506060610ca787828801610c1b565b91505092959194509250565b610cbc81610bfa565b82525050565b6000602082019050610cd76000830184610cb3565b92915050565b600081519050919050565b600082825260208201905092915050565b60005b83811015610d17578082015181840152602081019050610cfc565b60008484015250505050565b6000610d2e82610cdd565b610d388185610ce8565b9350610d48818560208601610cf9565b610d51816109e9565b840191505092915050565b60006020820190508181036000830152610d768184610d23565b905092915050565b6000819050919050565b6000610da3610d9e610d9984610b25565b610d7e565b610bfa565b9050919050565b610db381610d88565b82525050565b6000608082019050610dce6000830187610bd0565b8181036020830152610de08186610d23565b9050610def6040830185610cb3565b610dfc6060830184610daa565b95945050505050565b7f4e487b7100000000000000000000000000000000000000000000000000000000600052601160045260246000fd5b6000610e3f82610bfa565b9150610e4a83610bfa565b9250828201905080821115610e6257610e61610e05565b5b92915050565b600082825260208201905092915050565b7f78446f6d61696e4d65737361676553656e646572206973206e6f742073657400600082015250565b6000610eaf601f83610e68565b9150610eba82610e79565b602082019050919050565b60006020820190508181036000830152610ede81610ea2565b9050919050565b7f50726f7669646564206d65737361676520636f756c64206e6f7420626520766560008201527f7269666965642e00000000000000000000000000000000000000000000000000602082015250565b6000610f41602783610e68565b9150610f4c82610ee5565b604082019050919050565b60006020820190508181036000830152610f7081610f34565b9050919050565b7f50726f7669646564206d6573736167652068617320616c72656164792062656560008201527f6e2072656365697665642e000000000000000000000000000000000000000000602082015250565b6000610fd3602b83610e68565b9150610fde82610f77565b604082019050919050565b6000602082019050818103600083015261100281610fc6565b9050919050565b600081905092915050565b600061101f82610cdd565b6110298185611009565b9350611039818560208601610cf9565b80840191505092915050565b60006110518284611014565b915081905092915050565b60008160601b9050919050565b60006110748261105c565b9050919050565b600061108682611069565b9050919050565b61109e611099826109a1565b61107b565b82525050565b6000819050919050565b6110bf6110ba82610bfa565b6110a4565b82525050565b60006110d18286611014565b91506110dd828561108d565b6014820191506110ed82846110ae565b602082019150819050949350505050565b60006080820190506111136000830187610bd0565b6111206020830186610bd0565b81810360408301526111328185610d23565b90506111416060830184610cb3565b9594505050505056fea26469706673582212208549b371862e491310a095de25b1bcb4df8d3a742f8212dba84277dd9120669364736f6c63430008120033",
  "linkReferences": {},
  "deployedLinkReferences": {}
}