{
  "_format": "hh-sol-artifact-1",
  "contractName": "L2CrossDomainMessenger",
  "sourceName": "contracts/L2/messaging/L2CrossDomainMessenger.sol",
  "abi": [
    {
      "inputs": [
        {
          "internalType": "address",
          "name": "_l1CrossDomainMessenger",
          "type": "address"
        },
        {
          "internalType": "address",
          "name": "_messagePasser",
          "type": "address"
        }
      ],
      "stateMutability": "nonpayable",
      "type": "constructor"
    },
    {
      "anonymous": false,
      "inputs": [
        {
          "indexed": true,
          "internalType": "bytes32",
          "name": "msgHash",
          "type": "bytes32"
        }
      ],
      "name": "FailedRelayedMessage",
      "type": "event"
    },
    {
      "anonymous": false,
      "inputs": [
        {
          "indexed": true,
          "internalType": "bytes32",
          "name": "msgHash",
          "type": "bytes32"
        }
      ],
      "name": "RelayedMessage",
      "type": "event"
    },
    {
      "anonymous": false,
      "inputs": [
        {
          "indexed": true,
          "internalType": "address",
          "name": "target",
          "type": "address"
        },
        {
          "indexed": false,
          "internalType": "address",
          "name": "sender",
          "type": "address"
        },
        {
          "indexed": false,
          "internalType": "bytes",
          "name": "message",
          "type": "bytes"
        },
        {
          "indexed": false,
          "internalType": "uint256",
          "name": "messageNonce",
          "type": "uint256"
        },
        {
          "indexed": false,
          "internalType": "uint256",
          "name": "gasLimit",
          "type": "uint256"
        }
      ],
      "name": "SentMessage",
      "type": "event"
    },
    {
      "inputs": [],
      "name": "l1CrossDomainMessenger",
      "outputs": [
        {
          "internalType": "address",
          "name": "",
          "type": "address"
        }
      ],
      "stateMutability": "view",
      "type": "function"
    },
    {
      "inputs": [],
      "name": "messageNonce",
      "outputs": [
        {
          "internalType": "uint256",
          "name": "",
          "type": "uint256"
        }
      ],
      "stateMutability": "view",
      "type": "function"
    },
    {
      "inputs": [],
      "name": "messagePasser",
      "outputs": [
        {
          "internalType": "address",
          "name": "",
          "type": "address"
        }
      ],
      "stateMutability": "view",
      "type": "function"
    },
    {
      "inputs": [
        {
          "internalType": "address",
          "name": "_target",
          "type": "address"
        },
        {
          "internalType": "address",
          "name": "_sender",
          "type": "address"
        },
        {
          "internalType": "bytes",
          "name": "_message",
          "type": "bytes"
        },
        {
          "internalType": "uint256",
          "name": "_messageNonce",
          "type": "uint256"
        }
      ],
      "name": "relayMessage",
      "outputs": [],
      "stateMutability": "nonpayable",
      "type": "function"
    },
    {
      "inputs": [
        {
          "internalType": "bytes32",
          "name": "",
          "type": "bytes32"
        }
      ],
      "name": "relayedMessages",
      "outputs": [
        {
          "internalType": "bool",
          "name": "",
          "type": "bool"
        }
      ],
      "stateMutability": "view",
      "type": "function"
    },
    {
      "inputs": [
        {
          "internalType": "address",
          "name": "_target",
          "type": "address"
        },
        {
          "internalType": "bytes",
          "name": "_message",
          "type": "bytes"
        },
        {
          "internalType": "uint32",
          "name": "_gasLimit",
          "type": "uint32"
        }
      ],
      "name": "sendMessage",
      "outputs": [],
      "stateMutability": "nonpayable",
      "type": "function"
    },
    {
      "inputs": [
        {
          "internalType": "bytes32",
          "name": "",
          "type": "bytes32"
        }
      ],
      "name": "sentMessages",
      "outputs": [
        {
          "internalType": "bool",
          "name": "",
          "type": "bool"
        }
      ],
      "stateMutability": "view",
      "type": "function"
    },
    {
      "inputs": [
        {
          "internalType": "bytes32",
          "name": "",
          "type": "bytes32"
        }
      ],
      "name": "successfulMessages",
      "outputs": [
        {
          "internalType": "bool",
          "name": "",
          "type": "bool"
        }
      ],
      "stateMutability": "view",
      "type": "function"
    },
    {
      "inputs": [],
      "name": "xDomainMessageSender",
      "outputs": [
        {
          "internalType": "address",
          "name": "",
          "type": "address"
        }
      ],
      "stateMutability": "view",
      "type": "function"
    }
  ],
  "bytecode": "0x6080604052600480546001600160a01b03191661dead17905534801561002457600080fd5b50604051610ac0380380610ac083398101604081905261004391610090565b600580546001600160a01b039384166001600160a01b031991821617909155600680549290931691161790556100c3565b80516001600160a01b038116811461008b57600080fd5b919050565b600080604083850312156100a357600080fd5b6100ac83610074565b91506100ba60208401610074565b90509250929050565b6109ee806100d26000396000f3fe608060405234801561001057600080fd5b50600436106100a35760003560e01c8063a711986911610076578063cbd4ece91161005b578063cbd4ece91461016e578063ecc7042814610181578063fe8810df1461019857600080fd5b8063a711986914610138578063b1b1b2091461014b57600080fd5b806321d800ec146100a85780633dbb202b146100e05780636e296e45146100f557806382e3702d14610115575b600080fd5b6100cb6100b63660046106a7565b60006020819052908152604090205460ff1681565b60405190151581526020015b60405180910390f35b6100f36100ee36600461077f565b6101ab565b005b6100fd6102c3565b6040516001600160a01b0390911681526020016100d7565b6100cb6101233660046106a7565b60026020526000908152604090205460ff1681565b6005546100fd906001600160a01b031681565b6100cb6101593660046106a7565b60016020526000908152604090205460ff1681565b6100f361017c3660046107ea565b610338565b61018a60035481565b6040519081526020016100d7565b6006546100fd906001600160a01b031681565b60006101bb84338560035461062c565b805160208083019190912060009081526002909152604090819020805460ff1916600117905560065490517fcafa81dc0000000000000000000000000000000000000000000000000000000081529192506001600160a01b03169063cafa81dc9061022a9084906004016108a0565b600060405180830381600087803b15801561024457600080fd5b505af1158015610258573d6000803e3d6000fd5b50505050836001600160a01b03167fcb0f7ffd78f9aee47a248fae8db181db6eee833039123e026dcbff529522e52a33856003548660405161029d94939291906108ba565b60405180910390a26001600360008282546102b891906108f9565b909155505050505050565b6004546000906001600160a01b031661deac19016103285760405162461bcd60e51b815260206004820152601f60248201527f78446f6d61696e4d65737361676553656e646572206973206e6f74207365740060448201526064015b60405180910390fd5b506004546001600160a01b031690565b6005546001600160a01b0316336001600160a01b0316146103c15760405162461bcd60e51b815260206004820152602760248201527f50726f7669646564206d65737361676520636f756c64206e6f7420626520766560448201527f7269666965642e00000000000000000000000000000000000000000000000000606482015260840161031f565b60006103cf8585858561062c565b8051602080830191909120600081815260019092526040909120549192509060ff16156104645760405162461bcd60e51b815260206004820152602b60248201527f50726f7669646564206d6573736167652068617320616c72656164792062656560448201527f6e2072656365697665642e000000000000000000000000000000000000000000606482015260840161031f565b7fffffffffffffffffffffffffbe000000000000000000000000000000000000006001600160a01b038716016104b6576000908152600160208190526040909120805460ff1916909117905550610626565b6004805473ffffffffffffffffffffffffffffffffffffffff19166001600160a01b03878116919091179091556040516000918816906104f7908790610920565b6000604051808303816000865af19150503d8060008114610534576040519150601f19603f3d011682016040523d82523d6000602084013e610539565b606091505b50506004805473ffffffffffffffffffffffffffffffffffffffff191661dead17905590508015156001036105b0576000828152600160208190526040808320805460ff19169092179091555183917f4641df4a962071e12719d8c8c8e5ac7fc4d97b927346a3d7a335b1f7517e133c91a26105dc565b60405182907f99d0e048484baa1b1540b1367cb128acd7ab2946d1ed91ec10e3c85e4bf51b8f90600090a25b60008333436040516020016105f39392919061093c565b60408051601f1981840301815291815281516020928301206000908152918290529020805460ff19166001179055505050505b50505050565b606084848484604051602401610645949392919061097b565b60408051601f198184030181529190526020810180517bffffffffffffffffffffffffffffffffffffffffffffffffffffffff167fcbd4ece9000000000000000000000000000000000000000000000000000000001790529050949350505050565b6000602082840312156106b957600080fd5b5035919050565b80356001600160a01b03811681146106d757600080fd5b919050565b634e487b7160e01b600052604160045260246000fd5b600082601f83011261070357600080fd5b813567ffffffffffffffff8082111561071e5761071e6106dc565b604051601f8301601f19908116603f01168101908282118183101715610746576107466106dc565b8160405283815286602085880101111561075f57600080fd5b836020870160208301376000602085830101528094505050505092915050565b60008060006060848603121561079457600080fd5b61079d846106c0565b9250602084013567ffffffffffffffff8111156107b957600080fd5b6107c5868287016106f2565b925050604084013563ffffffff811681146107df57600080fd5b809150509250925092565b6000806000806080858703121561080057600080fd5b610809856106c0565b9350610817602086016106c0565b9250604085013567ffffffffffffffff81111561083357600080fd5b61083f878288016106f2565b949793965093946060013593505050565b60005b8381101561086b578181015183820152602001610853565b50506000910152565b6000815180845261088c816020860160208601610850565b601f01601f19169290920160200192915050565b6020815260006108b36020830184610874565b9392505050565b6001600160a01b03851681526080602082015260006108dc6080830186610874565b905083604083015263ffffffff8316606083015295945050505050565b8082018082111561091a57634e487b7160e01b600052601160045260246000fd5b92915050565b60008251610932818460208701610850565b9190910192915050565b6000845161094e818460208901610850565b60609490941b6bffffffffffffffffffffffff191691909301908152601481019190915260340192915050565b60006001600160a01b038087168352808616602084015250608060408301526109a76080830185610874565b90508260608301529594505050505056fea2646970667358221220d7580ff69365133a1d5792469e66aba2892801a7cc2ae4698a6813dfd483f0ba64736f6c63430008120033",
  "linkReferences": {},
  "deployedLinkReferences": {}
}