{
  "_format": "hh-sol-artifact-1",
  "contractName": "MCNNFT",
  "sourceName": "contracts/MCNNFT.sol",
  "abi": [
    {
      "inputs": [
        {
          "internalType": "string",
          "name": "name_",
          "type": "string"
        },
        {
          "internalType": "string",
          "name": "symbol_",
          "type": "string"
        },
        {
          "internalType": "address",
          "name": "_nftBridge",
          "type": "address"
        }
      ],
      "stateMutability": "nonpayable",
      "type": "constructor"
    },
    {
      "anonymous": false,
      "inputs": [
        {
          "indexed": true,
          "internalType": "address",
          "name": "owner",
          "type": "address"
        },
        {
          "indexed": true,
          "internalType": "address",
          "name": "approved",
          "type": "address"
        },
        {
          "indexed": true,
          "internalType": "uint256",
          "name": "tokenId",
          "type": "uint256"
        }
      ],
      "name": "Approval",
      "type": "event"
    },
    {
      "anonymous": false,
      "inputs": [
        {
          "indexed": true,
          "internalType": "address",
          "name": "owner",
          "type": "address"
        },
        {
          "indexed": true,
          "internalType": "address",
          "name": "operator",
          "type": "address"
        },
        {
          "indexed": false,
          "internalType": "bool",
          "name": "approved",
          "type": "bool"
        }
      ],
      "name": "ApprovalForAll",
      "type": "event"
    },
    {
      "anonymous": false,
      "inputs": [
        {
          "indexed": false,
          "internalType": "address",
          "name": "",
          "type": "address"
        }
      ],
      "name": "NFTBridgeUpdated",
      "type": "event"
    },
    {
      "anonymous": false,
      "inputs": [
        {
          "indexed": true,
          "internalType": "address",
          "name": "previousOwner",
          "type": "address"
        },
        {
          "indexed": true,
          "internalType": "address",
          "name": "newOwner",
          "type": "address"
        }
      ],
      "name": "OwnershipTransferred",
      "type": "event"
    },
    {
      "anonymous": false,
      "inputs": [
        {
          "indexed": false,
          "internalType": "address",
          "name": "account",
          "type": "address"
        }
      ],
      "name": "Paused",
      "type": "event"
    },
    {
      "anonymous": false,
      "inputs": [
        {
          "indexed": false,
          "internalType": "address",
          "name": "account",
          "type": "address"
        }
      ],
      "name": "PauserAdded",
      "type": "event"
    },
    {
      "anonymous": false,
      "inputs": [
        {
          "indexed": false,
          "internalType": "address",
          "name": "account",
          "type": "address"
        }
      ],
      "name": "PauserRemoved",
      "type": "event"
    },
    {
      "anonymous": false,
      "inputs": [
        {
          "indexed": true,
          "internalType": "address",
          "name": "from",
          "type": "address"
        },
        {
          "indexed": true,
          "internalType": "address",
          "name": "to",
          "type": "address"
        },
        {
          "indexed": true,
          "internalType": "uint256",
          "name": "tokenId",
          "type": "uint256"
        }
      ],
      "name": "Transfer",
      "type": "event"
    },
    {
      "anonymous": false,
      "inputs": [
        {
          "indexed": false,
          "internalType": "address",
          "name": "account",
          "type": "address"
        }
      ],
      "name": "Unpaused",
      "type": "event"
    },
    {
      "inputs": [
        {
          "internalType": "address",
          "name": "account",
          "type": "address"
        }
      ],
      "name": "addPauser",
      "outputs": [],
      "stateMutability": "nonpayable",
      "type": "function"
    },
    {
      "inputs": [
        {
          "internalType": "address",
          "name": "to",
          "type": "address"
        },
        {
          "internalType": "uint256",
          "name": "tokenId",
          "type": "uint256"
        }
      ],
      "name": "approve",
      "outputs": [],
      "stateMutability": "nonpayable",
      "type": "function"
    },
    {
      "inputs": [
        {
          "internalType": "address",
          "name": "owner",
          "type": "address"
        }
      ],
      "name": "balanceOf",
      "outputs": [
        {
          "internalType": "uint256",
          "name": "",
          "type": "uint256"
        }
      ],
      "stateMutability": "view",
      "type": "function"
    },
    {
      "inputs": [
        {
          "internalType": "address",
          "name": "to",
          "type": "address"
        },
        {
          "internalType": "uint256",
          "name": "id",
          "type": "uint256"
        },
        {
          "internalType": "string",
          "name": "uri",
          "type": "string"
        }
      ],
      "name": "bridgeMint",
      "outputs": [],
      "stateMutability": "nonpayable",
      "type": "function"
    },
    {
      "inputs": [
        {
          "internalType": "uint64",
          "name": "_dstChid",
          "type": "uint64"
        },
        {
          "internalType": "uint256",
          "name": "_id",
          "type": "uint256"
        },
        {
          "internalType": "bytes",
          "name": "_receiver",
          "type": "bytes"
        }
      ],
      "name": "crossChain",
      "outputs": [],
      "stateMutability": "payable",
      "type": "function"
    },
    {
      "inputs": [
        {
          "internalType": "uint64",
          "name": "_dstChid",
          "type": "uint64"
        },
        {
          "internalType": "uint256",
          "name": "_id",
          "type": "uint256"
        },
        {
          "internalType": "address",
          "name": "_receiver",
          "type": "address"
        }
      ],
      "name": "crossChain",
      "outputs": [],
      "stateMutability": "payable",
      "type": "function"
    },
    {
      "inputs": [
        {
          "internalType": "uint256",
          "name": "tokenId",
          "type": "uint256"
        }
      ],
      "name": "getApproved",
      "outputs": [
        {
          "internalType": "address",
          "name": "",
          "type": "address"
        }
      ],
      "stateMutability": "view",
      "type": "function"
    },
    {
      "inputs": [
        {
          "internalType": "address",
          "name": "owner",
          "type": "address"
        },
        {
          "internalType": "address",
          "name": "operator",
          "type": "address"
        }
      ],
      "name": "isApprovedForAll",
      "outputs": [
        {
          "internalType": "bool",
          "name": "",
          "type": "bool"
        }
      ],
      "stateMutability": "view",
      "type": "function"
    },
    {
      "inputs": [
        {
          "internalType": "address",
          "name": "account",
          "type": "address"
        }
      ],
      "name": "isPauser",
      "outputs": [
        {
          "internalType": "bool",
          "name": "",
          "type": "bool"
        }
      ],
      "stateMutability": "view",
      "type": "function"
    },
    {
      "inputs": [
        {
          "internalType": "address",
          "name": "to",
          "type": "address"
        },
        {
          "internalType": "uint256",
          "name": "id",
          "type": "uint256"
        },
        {
          "internalType": "string",
          "name": "uri",
          "type": "string"
        }
      ],
      "name": "mint",
      "outputs": [],
      "stateMutability": "nonpayable",
      "type": "function"
    },
    {
      "inputs": [],
      "name": "name",
      "outputs": [
        {
          "internalType": "string",
          "name": "",
          "type": "string"
        }
      ],
      "stateMutability": "view",
      "type": "function"
    },
    {
      "inputs": [],
      "name": "nftBridge",
      "outputs": [
        {
          "internalType": "address",
          "name": "",
          "type": "address"
        }
      ],
      "stateMutability": "view",
      "type": "function"
    },
    {
      "inputs": [],
      "name": "owner",
      "outputs": [
        {
          "internalType": "address",
          "name": "",
          "type": "address"
        }
      ],
      "stateMutability": "view",
      "type": "function"
    },
    {
      "inputs": [
        {
          "internalType": "uint256",
          "name": "tokenId",
          "type": "uint256"
        }
      ],
      "name": "ownerOf",
      "outputs": [
        {
          "internalType": "address",
          "name": "",
          "type": "address"
        }
      ],
      "stateMutability": "view",
      "type": "function"
    },
    {
      "inputs": [],
      "name": "pause",
      "outputs": [],
      "stateMutability": "nonpayable",
      "type": "function"
    },
    {
      "inputs": [],
      "name": "paused",
      "outputs": [
        {
          "internalType": "bool",
          "name": "",
          "type": "bool"
        }
      ],
      "stateMutability": "view",
      "type": "function"
    },
    {
      "inputs": [
        {
          "internalType": "address",
          "name": "",
          "type": "address"
        }
      ],
      "name": "pausers",
      "outputs": [
        {
          "internalType": "bool",
          "name": "",
          "type": "bool"
        }
      ],
      "stateMutability": "view",
      "type": "function"
    },
    {
      "inputs": [
        {
          "internalType": "address",
          "name": "account",
          "type": "address"
        }
      ],
      "name": "removePauser",
      "outputs": [],
      "stateMutability": "nonpayable",
      "type": "function"
    },
    {
      "inputs": [],
      "name": "renouncePauser",
      "outputs": [],
      "stateMutability": "nonpayable",
      "type": "function"
    },
    {
      "inputs": [
        {
          "internalType": "address",
          "name": "from",
          "type": "address"
        },
        {
          "internalType": "address",
          "name": "to",
          "type": "address"
        },
        {
          "internalType": "uint256",
          "name": "tokenId",
          "type": "uint256"
        }
      ],
      "name": "safeTransferFrom",
      "outputs": [],
      "stateMutability": "nonpayable",
      "type": "function"
    },
    {
      "inputs": [
        {
          "internalType": "address",
          "name": "from",
          "type": "address"
        },
        {
          "internalType": "address",
          "name": "to",
          "type": "address"
        },
        {
          "internalType": "uint256",
          "name": "tokenId",
          "type": "uint256"
        },
        {
          "internalType": "bytes",
          "name": "data",
          "type": "bytes"
        }
      ],
      "name": "safeTransferFrom",
      "outputs": [],
      "stateMutability": "nonpayable",
      "type": "function"
    },
    {
      "inputs": [
        {
          "internalType": "address",
          "name": "operator",
          "type": "address"
        },
        {
          "internalType": "bool",
          "name": "approved",
          "type": "bool"
        }
      ],
      "name": "setApprovalForAll",
      "outputs": [],
      "stateMutability": "nonpayable",
      "type": "function"
    },
    {
      "inputs": [
        {
          "internalType": "address",
          "name": "_newBridge",
          "type": "address"
        }
      ],
      "name": "setNFTBridge",
      "outputs": [],
      "stateMutability": "nonpayable",
      "type": "function"
    },
    {
      "inputs": [
        {
          "internalType": "bytes4",
          "name": "interfaceId",
          "type": "bytes4"
        }
      ],
      "name": "supportsInterface",
      "outputs": [
        {
          "internalType": "bool",
          "name": "",
          "type": "bool"
        }
      ],
      "stateMutability": "view",
      "type": "function"
    },
    {
      "inputs": [],
      "name": "symbol",
      "outputs": [
        {
          "internalType": "string",
          "name": "",
          "type": "string"
        }
      ],
      "stateMutability": "view",
      "type": "function"
    },
    {
      "inputs": [
        {
          "internalType": "uint256",
          "name": "tokenId",
          "type": "uint256"
        }
      ],
      "name": "tokenURI",
      "outputs": [
        {
          "internalType": "string",
          "name": "",
          "type": "string"
        }
      ],
      "stateMutability": "view",
      "type": "function"
    },
    {
      "inputs": [
        {
          "internalType": "uint64",
          "name": "_dstChid",
          "type": "uint64"
        },
        {
          "internalType": "uint256",
          "name": "_id",
          "type": "uint256"
        }
      ],
      "name": "totalFee",
      "outputs": [
        {
          "internalType": "uint256",
          "name": "",
          "type": "uint256"
        }
      ],
      "stateMutability": "view",
      "type": "function"
    },
    {
      "inputs": [
        {
          "internalType": "address",
          "name": "from",
          "type": "address"
        },
        {
          "internalType": "address",
          "name": "to",
          "type": "address"
        },
        {
          "internalType": "uint256",
          "name": "tokenId",
          "type": "uint256"
        }
      ],
      "name": "transferFrom",
      "outputs": [],
      "stateMutability": "nonpayable",
      "type": "function"
    },
    {
      "inputs": [
        {
          "internalType": "address",
          "name": "newOwner",
          "type": "address"
        }
      ],
      "name": "transferOwnership",
      "outputs": [],
      "stateMutability": "nonpayable",
      "type": "function"
    },
    {
      "inputs": [],
      "name": "unpause",
      "outputs": [],
      "stateMutability": "nonpayable",
      "type": "function"
    }
  ],
  "bytecode": "0x60806040523480156200001157600080fd5b5060405162004944380380620049448339818101604052810190620000379190620005a8565b82826200004a33620000f460201b60201c565b816001908051906020019062000062929190620002f6565b5080600290805190602001906200007b929190620002f6565b5050506000600860006101000a81548160ff021916908315150217905550620000aa33620001b860201b60201c565b80600a60006101000a81548173ffffffffffffffffffffffffffffffffffffffff021916908373ffffffffffffffffffffffffffffffffffffffff16021790555050505062000758565b60008060009054906101000a900473ffffffffffffffffffffffffffffffffffffffff169050816000806101000a81548173ffffffffffffffffffffffffffffffffffffffff021916908373ffffffffffffffffffffffffffffffffffffffff1602179055508173ffffffffffffffffffffffffffffffffffffffff168173ffffffffffffffffffffffffffffffffffffffff167f8be0079c531659141344cd1fd0a4f28419497f9722a3daafe3b4186f6b6457e060405160405180910390a35050565b620001c981620002a060201b60201c565b156200020c576040517f08c379a00000000000000000000000000000000000000000000000000000000081526004016200020390620006a3565b60405180910390fd5b6001600960008373ffffffffffffffffffffffffffffffffffffffff1673ffffffffffffffffffffffffffffffffffffffff16815260200190815260200160002060006101000a81548160ff0219169083151502179055507f6719d08c1888103bea251a4ed56406bd0c3e69723c8a1686e017e7bbe159b6f881604051620002959190620006d6565b60405180910390a150565b6000600960008373ffffffffffffffffffffffffffffffffffffffff1673ffffffffffffffffffffffffffffffffffffffff16815260200190815260200160002060009054906101000a900460ff169050919050565b828054620003049062000722565b90600052602060002090601f01602090048101928262000328576000855562000374565b82601f106200034357805160ff191683800117855562000374565b8280016001018555821562000374579182015b828111156200037357825182559160200191906001019062000356565b5b50905062000383919062000387565b5090565b5b80821115620003a257600081600090555060010162000388565b5090565b6000604051905090565b600080fd5b600080fd5b600080fd5b600080fd5b6000601f19601f8301169050919050565b7f4e487b7100000000000000000000000000000000000000000000000000000000600052604160045260246000fd5b6200040f82620003c4565b810181811067ffffffffffffffff82111715620004315762000430620003d5565b5b80604052505050565b600062000446620003a6565b905062000454828262000404565b919050565b600067ffffffffffffffff821115620004775762000476620003d5565b5b6200048282620003c4565b9050602081019050919050565b60005b83811015620004af57808201518184015260208101905062000492565b83811115620004bf576000848401525b50505050565b6000620004dc620004d68462000459565b6200043a565b905082815260208101848484011115620004fb57620004fa620003bf565b5b620005088482856200048f565b509392505050565b600082601f830112620005285762000527620003ba565b5b81516200053a848260208601620004c5565b91505092915050565b600073ffffffffffffffffffffffffffffffffffffffff82169050919050565b6000620005708262000543565b9050919050565b620005828162000563565b81146200058e57600080fd5b50565b600081519050620005a28162000577565b92915050565b600080600060608486031215620005c457620005c3620003b0565b5b600084015167ffffffffffffffff811115620005e557620005e4620003b5565b5b620005f38682870162000510565b935050602084015167ffffffffffffffff811115620006175762000616620003b5565b5b620006258682870162000510565b9250506040620006388682870162000591565b9150509250925092565b600082825260208201905092915050565b7f4163636f756e7420697320616c72656164792070617573657200000000000000600082015250565b60006200068b60198362000642565b9150620006988262000653565b602082019050919050565b60006020820190508181036000830152620006be816200067c565b9050919050565b620006d08162000563565b82525050565b6000602082019050620006ed6000830184620006c5565b92915050565b7f4e487b7100000000000000000000000000000000000000000000000000000000600052602260045260246000fd5b600060028204905060018216806200073b57607f821691505b60208210811415620007525762000751620006f3565b5b50919050565b6141dc80620007686000396000f3fe6080604052600436106101cd5760003560e01c80636ef8d66d116100f7578063a22cb46511610095578063c87b56dd11610064578063c87b56dd14610642578063d3fc98641461067f578063e985e9c5146106a8578063f2fde38b146106e5576101cd565b8063a22cb4651461059c578063a481d59b146105c5578063af91b174146105ee578063b88d4fde14610619576101cd565b806382dc1ec4116100d157806382dc1ec4146105065780638456cb591461052f5780638da5cb5b1461054657806395d89b4114610571576101cd565b80636ef8d66d1461047557806370a082311461048c57806380f51c12146104c9576101cd565b80633f4ba83a1161016f5780635c975abb1161013e5780635c975abb146103bb5780636352211e146103e657806367d74de2146104235780636b2c0f551461044c576101cd565b80633f4ba83a1461032257806342842e0e14610339578063446456b81461036257806346fbf68e1461037e576101cd565b8063095ea7b3116101ab578063095ea7b314610277578063183b4273146102a057806323b872dd146102dd57806331c9cbcf14610306576101cd565b806301ffc9a7146101d257806306fdde031461020f578063081812fc1461023a575b600080fd5b3480156101de57600080fd5b506101f960048036038101906101f49190612c21565b61070e565b6040516102069190612c69565b60405180910390f35b34801561021b57600080fd5b506102246107f0565b6040516102319190612d1d565b60405180910390f35b34801561024657600080fd5b50610261600480360381019061025c9190612d75565b610882565b60405161026e9190612de3565b60405180910390f35b34801561028357600080fd5b5061029e60048036038101906102999190612e2a565b6108c8565b005b3480156102ac57600080fd5b506102c760048036038101906102c29190612eaa565b6109e0565b6040516102d49190612ef9565b60405180910390f35b3480156102e957600080fd5b5061030460048036038101906102ff9190612f14565b610a99565b005b610320600480360381019061031b9190612fcc565b610af9565b005b34801561032e57600080fd5b50610337610c2c565b005b34801561034557600080fd5b50610360600480360381019061035b9190612f14565b610c7e565b005b61037c60048036038101906103779190613040565b610c9e565b005b34801561038a57600080fd5b506103a560048036038101906103a09190613093565b610dce565b6040516103b29190612c69565b60405180910390f35b3480156103c757600080fd5b506103d0610e24565b6040516103dd9190612c69565b60405180910390f35b3480156103f257600080fd5b5061040d60048036038101906104089190612d75565b610e3b565b60405161041a9190612de3565b60405180910390f35b34801561042f57600080fd5b5061044a600480360381019061044591906131f0565b610ec2565b005b34801561045857600080fd5b50610473600480360381019061046e9190613093565b610f6b565b005b34801561048157600080fd5b5061048a610fec565b005b34801561049857600080fd5b506104b360048036038101906104ae9190613093565b610ff7565b6040516104c09190612ef9565b60405180910390f35b3480156104d557600080fd5b506104f060048036038101906104eb9190613093565b6110af565b6040516104fd9190612c69565b60405180910390f35b34801561051257600080fd5b5061052d60048036038101906105289190613093565b6110cf565b005b34801561053b57600080fd5b50610544611150565b005b34801561055257600080fd5b5061055b6111a2565b6040516105689190612de3565b60405180910390f35b34801561057d57600080fd5b506105866111cb565b6040516105939190612d1d565b60405180910390f35b3480156105a857600080fd5b506105c360048036038101906105be919061328b565b61125d565b005b3480156105d157600080fd5b506105ec60048036038101906105e79190613093565b611273565b005b3480156105fa57600080fd5b50610603611363565b6040516106109190612de3565b60405180910390f35b34801561062557600080fd5b50610640600480360381019061063b919061336c565b611389565b005b34801561064e57600080fd5b5061066960048036038101906106649190612d75565b6113eb565b6040516106769190612d1d565b60405180910390f35b34801561068b57600080fd5b506106a660048036038101906106a191906131f0565b6114fe565b005b3480156106b457600080fd5b506106cf60048036038101906106ca91906133ef565b61158c565b6040516106dc9190612c69565b60405180910390f35b3480156106f157600080fd5b5061070c60048036038101906107079190613093565b611620565b005b60007f80ac58cd000000000000000000000000000000000000000000000000000000007bffffffffffffffffffffffffffffffffffffffffffffffffffffffff1916827bffffffffffffffffffffffffffffffffffffffffffffffffffffffff191614806107d957507f5b5e139f000000000000000000000000000000000000000000000000000000007bffffffffffffffffffffffffffffffffffffffffffffffffffffffff1916827bffffffffffffffffffffffffffffffffffffffffffffffffffffffff1916145b806107e957506107e882611711565b5b9050919050565b6060600180546107ff9061345e565b80601f016020809104026020016040519081016040528092919081815260200182805461082b9061345e565b80156108785780601f1061084d57610100808354040283529160200191610878565b820191906000526020600020905b81548152906001019060200180831161085b57829003601f168201915b5050505050905090565b600061088d8261177b565b6005600083815260200190815260200160002060009054906101000a900473ffffffffffffffffffffffffffffffffffffffff169050919050565b60006108d382610e3b565b90508073ffffffffffffffffffffffffffffffffffffffff168373ffffffffffffffffffffffffffffffffffffffff161415610944576040517f08c379a000000000000000000000000000000000000000000000000000000000815260040161093b90613502565b60405180910390fd5b8073ffffffffffffffffffffffffffffffffffffffff166109636117c6565b73ffffffffffffffffffffffffffffffffffffffff16148061099257506109918161098c6117c6565b61158c565b5b6109d1576040517f08c379a00000000000000000000000000000000000000000000000000000000081526004016109c890613594565b60405180910390fd5b6109db83836117ce565b505050565b6000600a60009054906101000a900473ffffffffffffffffffffffffffffffffffffffff1673ffffffffffffffffffffffffffffffffffffffff16639c1a65bd8430856040518463ffffffff1660e01b8152600401610a41939291906135c3565b60206040518083038186803b158015610a5957600080fd5b505afa158015610a6d573d6000803e3d6000fd5b505050506040513d601f19601f82011682018060405250810190610a91919061360f565b905092915050565b610aaa610aa46117c6565b82611887565b610ae9576040517f08c379a0000000000000000000000000000000000000000000000000000000008152600401610ae0906136ae565b60405180910390fd5b610af483838361191c565b505050565b610b01611c16565b610b0a83610e3b565b73ffffffffffffffffffffffffffffffffffffffff163373ffffffffffffffffffffffffffffffffffffffff1614610b77576040517f08c379a0000000000000000000000000000000000000000000000000000000008152600401610b6e9061371a565b60405180910390fd5b6000610b82846113eb565b9050610b8d84611c60565b600a60009054906101000a900473ffffffffffffffffffffffffffffffffffffffff1673ffffffffffffffffffffffffffffffffffffffff1663ee91bab834873387878a886040518863ffffffff1660e01b8152600401610bf396959493929190613778565b6000604051808303818588803b158015610c0c57600080fd5b505af1158015610c20573d6000803e3d6000fd5b50505050505050505050565b610c3533610dce565b610c74576040517f08c379a0000000000000000000000000000000000000000000000000000000008152600401610c6b90613827565b60405180910390fd5b610c7c611cb3565b565b610c9983838360405180602001604052806000815250611389565b505050565b610ca6611c16565b610caf82610e3b565b73ffffffffffffffffffffffffffffffffffffffff163373ffffffffffffffffffffffffffffffffffffffff1614610d1c576040517f08c379a0000000000000000000000000000000000000000000000000000000008152600401610d139061371a565b60405180910390fd5b6000610d27836113eb565b9050610d3283611c60565b600a60009054906101000a900473ffffffffffffffffffffffffffffffffffffffff1673ffffffffffffffffffffffffffffffffffffffff1663f0cb57ce3486338688876040518763ffffffff1660e01b8152600401610d96959493929190613847565b6000604051808303818588803b158015610daf57600080fd5b505af1158015610dc3573d6000803e3d6000fd5b505050505050505050565b6000600960008373ffffffffffffffffffffffffffffffffffffffff1673ffffffffffffffffffffffffffffffffffffffff16815260200190815260200160002060009054906101000a900460ff169050919050565b6000600860009054906101000a900460ff16905090565b600080610e4783611d16565b9050600073ffffffffffffffffffffffffffffffffffffffff168173ffffffffffffffffffffffffffffffffffffffff161415610eb9576040517f08c379a0000000000000000000000000000000000000000000000000000000008152600401610eb0906138ed565b60405180910390fd5b80915050919050565b600a60009054906101000a900473ffffffffffffffffffffffffffffffffffffffff1673ffffffffffffffffffffffffffffffffffffffff163373ffffffffffffffffffffffffffffffffffffffff1614610f52576040517f08c379a0000000000000000000000000000000000000000000000000000000008152600401610f4990613959565b60405180910390fd5b610f5c8383611d53565b610f668282611f71565b505050565b3373ffffffffffffffffffffffffffffffffffffffff16610f8a6111a2565b73ffffffffffffffffffffffffffffffffffffffff1614610fe0576040517f08c379a0000000000000000000000000000000000000000000000000000000008152600401610fd7906139c5565b60405180910390fd5b610fe981611fe5565b50565b610ff533611fe5565b565b60008073ffffffffffffffffffffffffffffffffffffffff168273ffffffffffffffffffffffffffffffffffffffff161415611068576040517f08c379a000000000000000000000000000000000000000000000000000000000815260040161105f90613a57565b60405180910390fd5b600460008373ffffffffffffffffffffffffffffffffffffffff1673ffffffffffffffffffffffffffffffffffffffff168152602001908152602001600020549050919050565b60096020528060005260406000206000915054906101000a900460ff1681565b3373ffffffffffffffffffffffffffffffffffffffff166110ee6111a2565b73ffffffffffffffffffffffffffffffffffffffff1614611144576040517f08c379a000000000000000000000000000000000000000000000000000000000815260040161113b906139c5565b60405180910390fd5b61114d816120bf565b50565b61115933610dce565b611198576040517f08c379a000000000000000000000000000000000000000000000000000000000815260040161118f90613827565b60405180910390fd5b6111a061219a565b565b60008060009054906101000a900473ffffffffffffffffffffffffffffffffffffffff16905090565b6060600280546111da9061345e565b80601f01602080910402602001604051908101604052809291908181526020018280546112069061345e565b80156112535780601f1061122857610100808354040283529160200191611253565b820191906000526020600020905b81548152906001019060200180831161123657829003601f168201915b5050505050905090565b61126f6112686117c6565b83836121fd565b5050565b3373ffffffffffffffffffffffffffffffffffffffff166112926111a2565b73ffffffffffffffffffffffffffffffffffffffff16146112e8576040517f08c379a00000000000000000000000000000000000000000000000000000000081526004016112df906139c5565b60405180910390fd5b80600a60006101000a81548173ffffffffffffffffffffffffffffffffffffffff021916908373ffffffffffffffffffffffffffffffffffffffff1602179055507ff4bc0bf59fb83d1858c773c97d46d5e804f4245cd5091252952b86ee5f3ba210816040516113589190612de3565b60405180910390a150565b600a60009054906101000a900473ffffffffffffffffffffffffffffffffffffffff1681565b61139a6113946117c6565b83611887565b6113d9576040517f08c379a00000000000000000000000000000000000000000000000000000000081526004016113d0906136ae565b60405180910390fd5b6113e58484848461236a565b50505050565b60606113f68261177b565b60006007600084815260200190815260200160002080546114169061345e565b80601f01602080910402602001604051908101604052809291908181526020018280546114429061345e565b801561148f5780601f106114645761010080835404028352916020019161148f565b820191906000526020600020905b81548152906001019060200180831161147257829003601f168201915b5050505050905060006114a06123c6565b90506000815114156114b65781925050506114f9565b6000825111156114eb5780826040516020016114d3929190613ab3565b604051602081830303815290604052925050506114f9565b6114f4846123dd565b925050505b919050565b3373ffffffffffffffffffffffffffffffffffffffff1661151d6111a2565b73ffffffffffffffffffffffffffffffffffffffff1614611573576040517f08c379a000000000000000000000000000000000000000000000000000000000815260040161156a906139c5565b60405180910390fd5b61157d8383611d53565b6115878282611f71565b505050565b6000600660008473ffffffffffffffffffffffffffffffffffffffff1673ffffffffffffffffffffffffffffffffffffffff16815260200190815260200160002060008373ffffffffffffffffffffffffffffffffffffffff1673ffffffffffffffffffffffffffffffffffffffff16815260200190815260200160002060009054906101000a900460ff16905092915050565b3373ffffffffffffffffffffffffffffffffffffffff1661163f6111a2565b73ffffffffffffffffffffffffffffffffffffffff1614611695576040517f08c379a000000000000000000000000000000000000000000000000000000000815260040161168c906139c5565b60405180910390fd5b600073ffffffffffffffffffffffffffffffffffffffff168173ffffffffffffffffffffffffffffffffffffffff161415611705576040517f08c379a00000000000000000000000000000000000000000000000000000000081526004016116fc90613b49565b60405180910390fd5b61170e81612445565b50565b60007f01ffc9a7000000000000000000000000000000000000000000000000000000007bffffffffffffffffffffffffffffffffffffffffffffffffffffffff1916827bffffffffffffffffffffffffffffffffffffffffffffffffffffffff1916149050919050565b61178481612509565b6117c3576040517f08c379a00000000000000000000000000000000000000000000000000000000081526004016117ba906138ed565b60405180910390fd5b50565b600033905090565b816005600083815260200190815260200160002060006101000a81548173ffffffffffffffffffffffffffffffffffffffff021916908373ffffffffffffffffffffffffffffffffffffffff160217905550808273ffffffffffffffffffffffffffffffffffffffff1661184183610e3b565b73ffffffffffffffffffffffffffffffffffffffff167f8c5be1e5ebec7d5bd14f71427d1e84f3dd0314c0f7b2291e5b200ac8c7c3b92560405160405180910390a45050565b60008061189383610e3b565b90508073ffffffffffffffffffffffffffffffffffffffff168473ffffffffffffffffffffffffffffffffffffffff1614806118d557506118d4818561158c565b5b8061191357508373ffffffffffffffffffffffffffffffffffffffff166118fb84610882565b73ffffffffffffffffffffffffffffffffffffffff16145b91505092915050565b8273ffffffffffffffffffffffffffffffffffffffff1661193c82610e3b565b73ffffffffffffffffffffffffffffffffffffffff1614611992576040517f08c379a000000000000000000000000000000000000000000000000000000000815260040161198990613bdb565b60405180910390fd5b600073ffffffffffffffffffffffffffffffffffffffff168273ffffffffffffffffffffffffffffffffffffffff161415611a02576040517f08c379a00000000000000000000000000000000000000000000000000000000081526004016119f990613c6d565b60405180910390fd5b611a0f838383600161254a565b8273ffffffffffffffffffffffffffffffffffffffff16611a2f82610e3b565b73ffffffffffffffffffffffffffffffffffffffff1614611a85576040517f08c379a0000000000000000000000000000000000000000000000000000000008152600401611a7c90613bdb565b60405180910390fd5b6005600082815260200190815260200160002060006101000a81549073ffffffffffffffffffffffffffffffffffffffff02191690556001600460008573ffffffffffffffffffffffffffffffffffffffff1673ffffffffffffffffffffffffffffffffffffffff168152602001908152602001600020600082825403925050819055506001600460008473ffffffffffffffffffffffffffffffffffffffff1673ffffffffffffffffffffffffffffffffffffffff16815260200190815260200160002060008282540192505081905550816003600083815260200190815260200160002060006101000a81548173ffffffffffffffffffffffffffffffffffffffff021916908373ffffffffffffffffffffffffffffffffffffffff160217905550808273ffffffffffffffffffffffffffffffffffffffff168473ffffffffffffffffffffffffffffffffffffffff167fddf252ad1be2c89b69c2b068fc378daa952ba7f163c4a11628f55a4df523b3ef60405160405180910390a4611c118383836001612550565b505050565b611c1e610e24565b15611c5e576040517f08c379a0000000000000000000000000000000000000000000000000000000008152600401611c5590613cd9565b60405180910390fd5b565b611c6981612556565b6000600760008381526020019081526020016000208054611c899061345e565b905014611cb057600760008281526020019081526020016000206000611caf9190612ad2565b5b50565b611cbb6126a4565b6000600860006101000a81548160ff0219169083151502179055507f5db9ee0a495bf2e6ff9c91a7834c1ba4fdd244a5e8aa4e537bd38aeae4b073aa611cff6117c6565b604051611d0c9190612de3565b60405180910390a1565b60006003600083815260200190815260200160002060009054906101000a900473ffffffffffffffffffffffffffffffffffffffff169050919050565b600073ffffffffffffffffffffffffffffffffffffffff168273ffffffffffffffffffffffffffffffffffffffff161415611dc3576040517f08c379a0000000000000000000000000000000000000000000000000000000008152600401611dba90613d45565b60405180910390fd5b611dcc81612509565b15611e0c576040517f08c379a0000000000000000000000000000000000000000000000000000000008152600401611e0390613db1565b60405180910390fd5b611e1a60008383600161254a565b611e2381612509565b15611e63576040517f08c379a0000000000000000000000000000000000000000000000000000000008152600401611e5a90613db1565b60405180910390fd5b6001600460008473ffffffffffffffffffffffffffffffffffffffff1673ffffffffffffffffffffffffffffffffffffffff16815260200190815260200160002060008282540192505081905550816003600083815260200190815260200160002060006101000a81548173ffffffffffffffffffffffffffffffffffffffff021916908373ffffffffffffffffffffffffffffffffffffffff160217905550808273ffffffffffffffffffffffffffffffffffffffff16600073ffffffffffffffffffffffffffffffffffffffff167fddf252ad1be2c89b69c2b068fc378daa952ba7f163c4a11628f55a4df523b3ef60405160405180910390a4611f6d600083836001612550565b5050565b611f7a82612509565b611fb9576040517f08c379a0000000000000000000000000000000000000000000000000000000008152600401611fb090613e43565b60405180910390fd5b80600760008481526020019081526020016000209080519060200190611fe0929190612b12565b505050565b611fee81610dce565b61202d576040517f08c379a000000000000000000000000000000000000000000000000000000000815260040161202490613eaf565b60405180910390fd5b6000600960008373ffffffffffffffffffffffffffffffffffffffff1673ffffffffffffffffffffffffffffffffffffffff16815260200190815260200160002060006101000a81548160ff0219169083151502179055507fcd265ebaf09df2871cc7bd4133404a235ba12eff2041bb89d9c714a2621c7c7e816040516120b49190612de3565b60405180910390a150565b6120c881610dce565b15612108576040517f08c379a00000000000000000000000000000000000000000000000000000000081526004016120ff90613f1b565b60405180910390fd5b6001600960008373ffffffffffffffffffffffffffffffffffffffff1673ffffffffffffffffffffffffffffffffffffffff16815260200190815260200160002060006101000a81548160ff0219169083151502179055507f6719d08c1888103bea251a4ed56406bd0c3e69723c8a1686e017e7bbe159b6f88160405161218f9190612de3565b60405180910390a150565b6121a2611c16565b6001600860006101000a81548160ff0219169083151502179055507f62e78cea01bee320cd4e420270b5ea74000d11b0c9f74754ebdbfc544b05a2586121e66117c6565b6040516121f39190612de3565b60405180910390a1565b8173ffffffffffffffffffffffffffffffffffffffff168373ffffffffffffffffffffffffffffffffffffffff16141561226c576040517f08c379a000000000000000000000000000000000000000000000000000000000815260040161226390613f87565b60405180910390fd5b80600660008573ffffffffffffffffffffffffffffffffffffffff1673ffffffffffffffffffffffffffffffffffffffff16815260200190815260200160002060008473ffffffffffffffffffffffffffffffffffffffff1673ffffffffffffffffffffffffffffffffffffffff16815260200190815260200160002060006101000a81548160ff0219169083151502179055508173ffffffffffffffffffffffffffffffffffffffff168373ffffffffffffffffffffffffffffffffffffffff167f17307eab39ab6107e8899845ad3d59bd9653f200f220920489ca2b5937696c318360405161235d9190612c69565b60405180910390a3505050565b61237584848461191c565b612381848484846126ed565b6123c0576040517f08c379a00000000000000000000000000000000000000000000000000000000081526004016123b790614019565b60405180910390fd5b50505050565b606060405180602001604052806000815250905090565b60606123e88261177b565b60006123f26123c6565b90506000815111612412576040518060200160405280600081525061243d565b8061241c84612884565b60405160200161242d929190613ab3565b6040516020818303038152906040525b915050919050565b60008060009054906101000a900473ffffffffffffffffffffffffffffffffffffffff169050816000806101000a81548173ffffffffffffffffffffffffffffffffffffffff021916908373ffffffffffffffffffffffffffffffffffffffff1602179055508173ffffffffffffffffffffffffffffffffffffffff168173ffffffffffffffffffffffffffffffffffffffff167f8be0079c531659141344cd1fd0a4f28419497f9722a3daafe3b4186f6b6457e060405160405180910390a35050565b60008073ffffffffffffffffffffffffffffffffffffffff1661252b83611d16565b73ffffffffffffffffffffffffffffffffffffffff1614159050919050565b50505050565b50505050565b600061256182610e3b565b905061257181600084600161254a565b61257a82610e3b565b90506005600083815260200190815260200160002060006101000a81549073ffffffffffffffffffffffffffffffffffffffff02191690556001600460008373ffffffffffffffffffffffffffffffffffffffff1673ffffffffffffffffffffffffffffffffffffffff168152602001908152602001600020600082825403925050819055506003600083815260200190815260200160002060006101000a81549073ffffffffffffffffffffffffffffffffffffffff021916905581600073ffffffffffffffffffffffffffffffffffffffff168273ffffffffffffffffffffffffffffffffffffffff167fddf252ad1be2c89b69c2b068fc378daa952ba7f163c4a11628f55a4df523b3ef60405160405180910390a46126a0816000846001612550565b5050565b6126ac610e24565b6126eb576040517f08c379a00000000000000000000000000000000000000000000000000000000081526004016126e290614085565b60405180910390fd5b565b600061270e8473ffffffffffffffffffffffffffffffffffffffff1661295c565b15612877578373ffffffffffffffffffffffffffffffffffffffff1663150b7a026127376117c6565b8786866040518563ffffffff1660e01b815260040161275994939291906140e9565b602060405180830381600087803b15801561277357600080fd5b505af19250505080156127a457506040513d601f19601f820116820180604052508101906127a1919061414a565b60015b612827573d80600081146127d4576040519150601f19603f3d011682016040523d82523d6000602084013e6127d9565b606091505b5060008151141561281f576040517f08c379a000000000000000000000000000000000000000000000000000000000815260040161281690614019565b60405180910390fd5b805181602001fd5b63150b7a0260e01b7bffffffffffffffffffffffffffffffffffffffffffffffffffffffff1916817bffffffffffffffffffffffffffffffffffffffffffffffffffffffff19161491505061287c565b600190505b949350505050565b6060600060016128938461297f565b01905060008167ffffffffffffffff8111156128b2576128b16130c5565b5b6040519080825280601f01601f1916602001820160405280156128e45781602001600182028036833780820191505090505b509050600082602001820190505b600115612951578080600190039150507f3031323334353637383961626364656600000000000000000000000000000000600a86061a8153600a858161293b5761293a614177565b5b049450600085141561294c57612951565b6128f2565b819350505050919050565b6000808273ffffffffffffffffffffffffffffffffffffffff163b119050919050565b600080600090507a184f03e93ff9f4daa797ed6e38ed64bf6a1f01000000000000000083106129dd577a184f03e93ff9f4daa797ed6e38ed64bf6a1f01000000000000000083816129d3576129d2614177565b5b0492506040810190505b6d04ee2d6d415b85acef81000000008310612a1a576d04ee2d6d415b85acef81000000008381612a1057612a0f614177565b5b0492506020810190505b662386f26fc100008310612a4957662386f26fc100008381612a3f57612a3e614177565b5b0492506010810190505b6305f5e1008310612a72576305f5e1008381612a6857612a67614177565b5b0492506008810190505b6127108310612a97576127108381612a8d57612a8c614177565b5b0492506004810190505b60648310612aba5760648381612ab057612aaf614177565b5b0492506002810190505b600a8310612ac9576001810190505b80915050919050565b508054612ade9061345e565b6000825580601f10612af05750612b0f565b601f016020900490600052602060002090810190612b0e9190612b98565b5b50565b828054612b1e9061345e565b90600052602060002090601f016020900481019282612b405760008555612b87565b82601f10612b5957805160ff1916838001178555612b87565b82800160010185558215612b87579182015b82811115612b86578251825591602001919060010190612b6b565b5b509050612b949190612b98565b5090565b5b80821115612bb1576000816000905550600101612b99565b5090565b6000604051905090565b600080fd5b600080fd5b60007fffffffff0000000000000000000000000000000000000000000000000000000082169050919050565b612bfe81612bc9565b8114612c0957600080fd5b50565b600081359050612c1b81612bf5565b92915050565b600060208284031215612c3757612c36612bbf565b5b6000612c4584828501612c0c565b91505092915050565b60008115159050919050565b612c6381612c4e565b82525050565b6000602082019050612c7e6000830184612c5a565b92915050565b600081519050919050565b600082825260208201905092915050565b60005b83811015612cbe578082015181840152602081019050612ca3565b83811115612ccd576000848401525b50505050565b6000601f19601f8301169050919050565b6000612cef82612c84565b612cf98185612c8f565b9350612d09818560208601612ca0565b612d1281612cd3565b840191505092915050565b60006020820190508181036000830152612d378184612ce4565b905092915050565b6000819050919050565b612d5281612d3f565b8114612d5d57600080fd5b50565b600081359050612d6f81612d49565b92915050565b600060208284031215612d8b57612d8a612bbf565b5b6000612d9984828501612d60565b91505092915050565b600073ffffffffffffffffffffffffffffffffffffffff82169050919050565b6000612dcd82612da2565b9050919050565b612ddd81612dc2565b82525050565b6000602082019050612df86000830184612dd4565b92915050565b612e0781612dc2565b8114612e1257600080fd5b50565b600081359050612e2481612dfe565b92915050565b60008060408385031215612e4157612e40612bbf565b5b6000612e4f85828601612e15565b9250506020612e6085828601612d60565b9150509250929050565b600067ffffffffffffffff82169050919050565b612e8781612e6a565b8114612e9257600080fd5b50565b600081359050612ea481612e7e565b92915050565b60008060408385031215612ec157612ec0612bbf565b5b6000612ecf85828601612e95565b9250506020612ee085828601612d60565b9150509250929050565b612ef381612d3f565b82525050565b6000602082019050612f0e6000830184612eea565b92915050565b600080600060608486031215612f2d57612f2c612bbf565b5b6000612f3b86828701612e15565b9350506020612f4c86828701612e15565b9250506040612f5d86828701612d60565b9150509250925092565b600080fd5b600080fd5b600080fd5b60008083601f840112612f8c57612f8b612f67565b5b8235905067ffffffffffffffff811115612fa957612fa8612f6c565b5b602083019150836001820283011115612fc557612fc4612f71565b5b9250929050565b60008060008060608587031215612fe657612fe5612bbf565b5b6000612ff487828801612e95565b945050602061300587828801612d60565b935050604085013567ffffffffffffffff81111561302657613025612bc4565b5b61303287828801612f76565b925092505092959194509250565b60008060006060848603121561305957613058612bbf565b5b600061306786828701612e95565b935050602061307886828701612d60565b925050604061308986828701612e15565b9150509250925092565b6000602082840312156130a9576130a8612bbf565b5b60006130b784828501612e15565b91505092915050565b600080fd5b7f4e487b7100000000000000000000000000000000000000000000000000000000600052604160045260246000fd5b6130fd82612cd3565b810181811067ffffffffffffffff8211171561311c5761311b6130c5565b5b80604052505050565b600061312f612bb5565b905061313b82826130f4565b919050565b600067ffffffffffffffff82111561315b5761315a6130c5565b5b61316482612cd3565b9050602081019050919050565b82818337600083830152505050565b600061319361318e84613140565b613125565b9050828152602081018484840111156131af576131ae6130c0565b5b6131ba848285613171565b509392505050565b600082601f8301126131d7576131d6612f67565b5b81356131e7848260208601613180565b91505092915050565b60008060006060848603121561320957613208612bbf565b5b600061321786828701612e15565b935050602061322886828701612d60565b925050604084013567ffffffffffffffff81111561324957613248612bc4565b5b613255868287016131c2565b9150509250925092565b61326881612c4e565b811461327357600080fd5b50565b6000813590506132858161325f565b92915050565b600080604083850312156132a2576132a1612bbf565b5b60006132b085828601612e15565b92505060206132c185828601613276565b9150509250929050565b600067ffffffffffffffff8211156132e6576132e56130c5565b5b6132ef82612cd3565b9050602081019050919050565b600061330f61330a846132cb565b613125565b90508281526020810184848401111561332b5761332a6130c0565b5b613336848285613171565b509392505050565b600082601f83011261335357613352612f67565b5b81356133638482602086016132fc565b91505092915050565b6000806000806080858703121561338657613385612bbf565b5b600061339487828801612e15565b94505060206133a587828801612e15565b93505060406133b687828801612d60565b925050606085013567ffffffffffffffff8111156133d7576133d6612bc4565b5b6133e38782880161333e565b91505092959194509250565b6000806040838503121561340657613405612bbf565b5b600061341485828601612e15565b925050602061342585828601612e15565b9150509250929050565b7f4e487b7100000000000000000000000000000000000000000000000000000000600052602260045260246000fd5b6000600282049050600182168061347657607f821691505b6020821081141561348a5761348961342f565b5b50919050565b7f4552433732313a20617070726f76616c20746f2063757272656e74206f776e6560008201527f7200000000000000000000000000000000000000000000000000000000000000602082015250565b60006134ec602183612c8f565b91506134f782613490565b604082019050919050565b6000602082019050818103600083015261351b816134df565b9050919050565b7f4552433732313a20617070726f76652063616c6c6572206973206e6f7420746f60008201527f6b656e206f776e6572206f7220617070726f76656420666f7220616c6c000000602082015250565b600061357e603d83612c8f565b915061358982613522565b604082019050919050565b600060208201905081810360008301526135ad81613571565b9050919050565b6135bd81612e6a565b82525050565b60006060820190506135d860008301866135b4565b6135e56020830185612dd4565b6135f26040830184612eea565b949350505050565b60008151905061360981612d49565b92915050565b60006020828403121561362557613624612bbf565b5b6000613633848285016135fa565b91505092915050565b7f4552433732313a2063616c6c6572206973206e6f7420746f6b656e206f776e6560008201527f72206f7220617070726f76656400000000000000000000000000000000000000602082015250565b6000613698602d83612c8f565b91506136a38261363c565b604082019050919050565b600060208201905081810360008301526136c78161368b565b9050919050565b7f6e6f7420746f6b656e206f776e65720000000000000000000000000000000000600082015250565b6000613704600f83612c8f565b915061370f826136ce565b602082019050919050565b60006020820190508181036000830152613733816136f7565b9050919050565b600082825260208201905092915050565b6000613757838561373a565b9350613764838584613171565b61376d83612cd3565b840190509392505050565b600060a08201905061378d60008301896135b4565b61379a6020830188612dd4565b81810360408301526137ad81868861374b565b90506137bc6060830185612eea565b81810360808301526137ce8184612ce4565b9050979650505050505050565b7f43616c6c6572206973206e6f7420706175736572000000000000000000000000600082015250565b6000613811601483612c8f565b915061381c826137db565b602082019050919050565b6000602082019050818103600083015261384081613804565b9050919050565b600060a08201905061385c60008301886135b4565b6138696020830187612dd4565b6138766040830186612dd4565b6138836060830185612eea565b81810360808301526138958184612ce4565b90509695505050505050565b7f4552433732313a20696e76616c696420746f6b656e2049440000000000000000600082015250565b60006138d7601883612c8f565b91506138e2826138a1565b602082019050919050565b60006020820190508181036000830152613906816138ca565b9050919050565b7f63616c6c6572206973206e6f7420627269646765000000000000000000000000600082015250565b6000613943601483612c8f565b915061394e8261390d565b602082019050919050565b6000602082019050818103600083015261397281613936565b9050919050565b7f4f776e61626c653a2063616c6c6572206973206e6f7420746865206f776e6572600082015250565b60006139af602083612c8f565b91506139ba82613979565b602082019050919050565b600060208201905081810360008301526139de816139a2565b9050919050565b7f4552433732313a2061646472657373207a65726f206973206e6f74206120766160008201527f6c6964206f776e65720000000000000000000000000000000000000000000000602082015250565b6000613a41602983612c8f565b9150613a4c826139e5565b604082019050919050565b60006020820190508181036000830152613a7081613a34565b9050919050565b600081905092915050565b6000613a8d82612c84565b613a978185613a77565b9350613aa7818560208601612ca0565b80840191505092915050565b6000613abf8285613a82565b9150613acb8284613a82565b91508190509392505050565b7f4f776e61626c653a206e6577206f776e657220697320746865207a65726f206160008201527f6464726573730000000000000000000000000000000000000000000000000000602082015250565b6000613b33602683612c8f565b9150613b3e82613ad7565b604082019050919050565b60006020820190508181036000830152613b6281613b26565b9050919050565b7f4552433732313a207472616e736665722066726f6d20696e636f72726563742060008201527f6f776e6572000000000000000000000000000000000000000000000000000000602082015250565b6000613bc5602583612c8f565b9150613bd082613b69565b604082019050919050565b60006020820190508181036000830152613bf481613bb8565b9050919050565b7f4552433732313a207472616e7366657220746f20746865207a65726f2061646460008201527f7265737300000000000000000000000000000000000000000000000000000000602082015250565b6000613c57602483612c8f565b9150613c6282613bfb565b604082019050919050565b60006020820190508181036000830152613c8681613c4a565b9050919050565b7f5061757361626c653a2070617573656400000000000000000000000000000000600082015250565b6000613cc3601083612c8f565b9150613cce82613c8d565b602082019050919050565b60006020820190508181036000830152613cf281613cb6565b9050919050565b7f4552433732313a206d696e7420746f20746865207a65726f2061646472657373600082015250565b6000613d2f602083612c8f565b9150613d3a82613cf9565b602082019050919050565b60006020820190508181036000830152613d5e81613d22565b9050919050565b7f4552433732313a20746f6b656e20616c7265616479206d696e74656400000000600082015250565b6000613d9b601c83612c8f565b9150613da682613d65565b602082019050919050565b60006020820190508181036000830152613dca81613d8e565b9050919050565b7f45524337323155524953746f726167653a2055524920736574206f66206e6f6e60008201527f6578697374656e7420746f6b656e000000000000000000000000000000000000602082015250565b6000613e2d602e83612c8f565b9150613e3882613dd1565b604082019050919050565b60006020820190508181036000830152613e5c81613e20565b9050919050565b7f4163636f756e74206973206e6f74207061757365720000000000000000000000600082015250565b6000613e99601583612c8f565b9150613ea482613e63565b602082019050919050565b60006020820190508181036000830152613ec881613e8c565b9050919050565b7f4163636f756e7420697320616c72656164792070617573657200000000000000600082015250565b6000613f05601983612c8f565b9150613f1082613ecf565b602082019050919050565b60006020820190508181036000830152613f3481613ef8565b9050919050565b7f4552433732313a20617070726f766520746f2063616c6c657200000000000000600082015250565b6000613f71601983612c8f565b9150613f7c82613f3b565b602082019050919050565b60006020820190508181036000830152613fa081613f64565b9050919050565b7f4552433732313a207472616e7366657220746f206e6f6e20455243373231526560008201527f63656976657220696d706c656d656e7465720000000000000000000000000000602082015250565b6000614003603283612c8f565b915061400e82613fa7565b604082019050919050565b6000602082019050818103600083015261403281613ff6565b9050919050565b7f5061757361626c653a206e6f7420706175736564000000000000000000000000600082015250565b600061406f601483612c8f565b915061407a82614039565b602082019050919050565b6000602082019050818103600083015261409e81614062565b9050919050565b600081519050919050565b60006140bb826140a5565b6140c5818561373a565b93506140d5818560208601612ca0565b6140de81612cd3565b840191505092915050565b60006080820190506140fe6000830187612dd4565b61410b6020830186612dd4565b6141186040830185612eea565b818103606083015261412a81846140b0565b905095945050505050565b60008151905061414481612bf5565b92915050565b6000602082840312156141605761415f612bbf565b5b600061416e84828501614135565b91505092915050565b7f4e487b7100000000000000000000000000000000000000000000000000000000600052601260045260246000fdfea2646970667358221220a24265ac53efc2d0ec39c33323bac8b87f6372b9f04e31e6a7627b21620ea5fe64736f6c63430008090033",
  "linkReferences": {},
  "deployedLinkReferences": {}
}