{
  "_format": "hh-sol-artifact-1",
  "contractName": "CanonicalTransactionChain",
  "sourceName": "contracts/L1/rollup/CanonicalTransactionChain.sol",
  "abi": [
    {
      "inputs": [
        {
          "internalType": "address",
          "name": "_libAddressManager",
          "type": "address"
        },
        {
          "internalType": "uint256",
          "name": "_maxTransactionGasLimit",
          "type": "uint256"
        },
        {
          "internalType": "uint256",
          "name": "_l2GasDiscountDivisor",
          "type": "uint256"
        },
        {
          "internalType": "uint256",
          "name": "_enqueueGasCost",
          "type": "uint256"
        }
      ],
      "stateMutability": "nonpayable",
      "type": "constructor"
    },
    {
      "anonymous": false,
      "inputs": [
        {
          "indexed": false,
          "internalType": "uint256",
          "name": "l2GasDiscountDivisor",
          "type": "uint256"
        },
        {
          "indexed": false,
          "internalType": "uint256",
          "name": "enqueueGasCost",
          "type": "uint256"
        },
        {
          "indexed": false,
          "internalType": "uint256",
          "name": "enqueueL2GasPrepaid",
          "type": "uint256"
        }
      ],
      "name": "L2GasParamsUpdated",
      "type": "event"
    },
    {
      "anonymous": false,
      "inputs": [
        {
          "indexed": false,
          "internalType": "uint256",
          "name": "_startingQueueIndex",
          "type": "uint256"
        },
        {
          "indexed": false,
          "internalType": "uint256",
          "name": "_numQueueElements",
          "type": "uint256"
        },
        {
          "indexed": false,
          "internalType": "uint256",
          "name": "_totalElements",
          "type": "uint256"
        }
      ],
      "name": "QueueBatchAppended",
      "type": "event"
    },
    {
      "anonymous": false,
      "inputs": [
        {
          "indexed": false,
          "internalType": "uint256",
          "name": "_startingQueueIndex",
          "type": "uint256"
        },
        {
          "indexed": false,
          "internalType": "uint256",
          "name": "_numQueueElements",
          "type": "uint256"
        },
        {
          "indexed": false,
          "internalType": "uint256",
          "name": "_totalElements",
          "type": "uint256"
        }
      ],
      "name": "SequencerBatchAppended",
      "type": "event"
    },
    {
      "anonymous": false,
      "inputs": [
        {
          "indexed": true,
          "internalType": "uint256",
          "name": "_batchIndex",
          "type": "uint256"
        },
        {
          "indexed": false,
          "internalType": "bytes32",
          "name": "_batchRoot",
          "type": "bytes32"
        },
        {
          "indexed": false,
          "internalType": "uint256",
          "name": "_batchSize",
          "type": "uint256"
        },
        {
          "indexed": false,
          "internalType": "uint256",
          "name": "_prevTotalElements",
          "type": "uint256"
        },
        {
          "indexed": false,
          "internalType": "bytes",
          "name": "_extraData",
          "type": "bytes"
        }
      ],
      "name": "TransactionBatchAppended",
      "type": "event"
    },
    {
      "anonymous": false,
      "inputs": [
        {
          "indexed": true,
          "internalType": "address",
          "name": "_l1TxOrigin",
          "type": "address"
        },
        {
          "indexed": true,
          "internalType": "address",
          "name": "_target",
          "type": "address"
        },
        {
          "indexed": false,
          "internalType": "uint256",
          "name": "_gasLimit",
          "type": "uint256"
        },
        {
          "indexed": false,
          "internalType": "bytes",
          "name": "_data",
          "type": "bytes"
        },
        {
          "indexed": true,
          "internalType": "uint256",
          "name": "_queueIndex",
          "type": "uint256"
        },
        {
          "indexed": false,
          "internalType": "uint256",
          "name": "_timestamp",
          "type": "uint256"
        }
      ],
      "name": "TransactionEnqueued",
      "type": "event"
    },
    {
      "inputs": [],
      "name": "MAX_ROLLUP_TX_SIZE",
      "outputs": [
        {
          "internalType": "uint256",
          "name": "",
          "type": "uint256"
        }
      ],
      "stateMutability": "view",
      "type": "function"
    },
    {
      "inputs": [],
      "name": "MIN_ROLLUP_TX_GAS",
      "outputs": [
        {
          "internalType": "uint256",
          "name": "",
          "type": "uint256"
        }
      ],
      "stateMutability": "view",
      "type": "function"
    },
    {
      "inputs": [],
      "name": "appendSequencerBatch",
      "outputs": [],
      "stateMutability": "nonpayable",
      "type": "function"
    },
    {
      "inputs": [],
      "name": "batches",
      "outputs": [
        {
          "internalType": "contract IChainStorageContainer",
          "name": "",
          "type": "address"
        }
      ],
      "stateMutability": "view",
      "type": "function"
    },
    {
      "inputs": [
        {
          "internalType": "address",
          "name": "_target",
          "type": "address"
        },
        {
          "internalType": "uint256",
          "name": "_gasLimit",
          "type": "uint256"
        },
        {
          "internalType": "bytes",
          "name": "_data",
          "type": "bytes"
        }
      ],
      "name": "enqueue",
      "outputs": [],
      "stateMutability": "nonpayable",
      "type": "function"
    },
    {
      "inputs": [],
      "name": "enqueueGasCost",
      "outputs": [
        {
          "internalType": "uint256",
          "name": "",
          "type": "uint256"
        }
      ],
      "stateMutability": "view",
      "type": "function"
    },
    {
      "inputs": [],
      "name": "enqueueL2GasPrepaid",
      "outputs": [
        {
          "internalType": "uint256",
          "name": "",
          "type": "uint256"
        }
      ],
      "stateMutability": "view",
      "type": "function"
    },
    {
      "inputs": [],
      "name": "getLastBlockNumber",
      "outputs": [
        {
          "internalType": "uint40",
          "name": "",
          "type": "uint40"
        }
      ],
      "stateMutability": "view",
      "type": "function"
    },
    {
      "inputs": [],
      "name": "getLastTimestamp",
      "outputs": [
        {
          "internalType": "uint40",
          "name": "",
          "type": "uint40"
        }
      ],
      "stateMutability": "view",
      "type": "function"
    },
    {
      "inputs": [],
      "name": "getNextQueueIndex",
      "outputs": [
        {
          "internalType": "uint40",
          "name": "",
          "type": "uint40"
        }
      ],
      "stateMutability": "view",
      "type": "function"
    },
    {
      "inputs": [],
      "name": "getNumPendingQueueElements",
      "outputs": [
        {
          "internalType": "uint40",
          "name": "",
          "type": "uint40"
        }
      ],
      "stateMutability": "view",
      "type": "function"
    },
    {
      "inputs": [
        {
          "internalType": "uint256",
          "name": "_index",
          "type": "uint256"
        }
      ],
      "name": "getQueueElement",
      "outputs": [
        {
          "components": [
            {
              "internalType": "bytes32",
              "name": "transactionHash",
              "type": "bytes32"
            },
            {
              "internalType": "uint40",
              "name": "timestamp",
              "type": "uint40"
            },
            {
              "internalType": "uint40",
              "name": "blockNumber",
              "type": "uint40"
            }
          ],
          "internalType": "struct Lib_OVMCodec.QueueElement",
          "name": "_element",
          "type": "tuple"
        }
      ],
      "stateMutability": "view",
      "type": "function"
    },
    {
      "inputs": [],
      "name": "getQueueLength",
      "outputs": [
        {
          "internalType": "uint40",
          "name": "",
          "type": "uint40"
        }
      ],
      "stateMutability": "view",
      "type": "function"
    },
    {
      "inputs": [],
      "name": "getTotalBatches",
      "outputs": [
        {
          "internalType": "uint256",
          "name": "_totalBatches",
          "type": "uint256"
        }
      ],
      "stateMutability": "view",
      "type": "function"
    },
    {
      "inputs": [],
      "name": "getTotalElements",
      "outputs": [
        {
          "internalType": "uint256",
          "name": "_totalElements",
          "type": "uint256"
        }
      ],
      "stateMutability": "view",
      "type": "function"
    },
    {
      "inputs": [],
      "name": "l2GasDiscountDivisor",
      "outputs": [
        {
          "internalType": "uint256",
          "name": "",
          "type": "uint256"
        }
      ],
      "stateMutability": "view",
      "type": "function"
    },
    {
      "inputs": [],
      "name": "libAddressManager",
      "outputs": [
        {
          "internalType": "contract Lib_AddressManager",
          "name": "",
          "type": "address"
        }
      ],
      "stateMutability": "view",
      "type": "function"
    },
    {
      "inputs": [],
      "name": "maxTransactionGasLimit",
      "outputs": [
        {
          "internalType": "uint256",
          "name": "",
          "type": "uint256"
        }
      ],
      "stateMutability": "view",
      "type": "function"
    },
    {
      "inputs": [
        {
          "internalType": "string",
          "name": "_name",
          "type": "string"
        }
      ],
      "name": "resolve",
      "outputs": [
        {
          "internalType": "address",
          "name": "",
          "type": "address"
        }
      ],
      "stateMutability": "view",
      "type": "function"
    },
    {
      "inputs": [
        {
          "internalType": "uint256",
          "name": "_l2GasDiscountDivisor",
          "type": "uint256"
        },
        {
          "internalType": "uint256",
          "name": "_enqueueGasCost",
          "type": "uint256"
        }
      ],
      "name": "setGasParams",
      "outputs": [],
      "stateMutability": "nonpayable",
      "type": "function"
    }
  ],
  "bytecode": "0x608060405234801561001057600080fd5b506040516116f93803806116f983398101604081905261002f91610070565b600080546001600160a01b0319166001600160a01b03861617905560048390556002829055600181905561006381836100bb565b600355506100e692505050565b6000806000806080858703121561008657600080fd5b84516001600160a01b038116811461009d57600080fd5b60208601516040870151606090970151919890975090945092505050565b80820281158282048414176100e057634e487b7160e01b600052601160045260246000fd5b92915050565b611604806100f56000396000f3fe608060405234801561001057600080fd5b506004361061016c5760003560e01c8063876ed5cb116100cd578063d0f8934411610081578063e654b1fb11610066578063e654b1fb146102a6578063edcc4a45146102af578063f722b41a146102c257600080fd5b8063d0f8934414610296578063e561dddc1461029e57600080fd5b8063b8f77005116100b2578063b8f770051461027d578063ccf987c814610285578063cfdf677e1461028e57600080fd5b8063876ed5cb1461026b5780638d38c6c11461027457600080fd5b80635ae6256d1161012457806378f4b2f21161010957806378f4b2f21461024a5780637a167a8a146102545780637aa63a861461026357600080fd5b80635ae6256d1461022d5780636fee07e01461023557600080fd5b80632a7f18be116101555780632a7f18be146101b857806337899770146101fc578063461a44781461021a57600080fd5b80630b3dfa9714610171578063299ca4781461018d575b600080fd5b61017a60035481565b6040519081526020015b60405180910390f35b6000546101a0906001600160a01b031681565b6040516001600160a01b039091168152602001610184565b6101cb6101c6366004611184565b6102ca565b604080518251815260208084015164ffffffffff908116918301919091529282015190921690820152606001610184565b610204610348565b60405164ffffffffff9091168152602001610184565b6101a0610228366004611229565b61035c565b6102046103ed565b610248610243366004611292565b610401565b005b61017a620186a081565b60055464ffffffffff16610204565b61017a6107ad565b61017a61c35081565b61017a60045481565b600654610204565b61017a60025481565b6101a06107c8565b6102486107f0565b61017a610c6f565b61017a60015481565b6102486102bd3660046112ff565b610cda565b610204610e14565b6040805160608101825260008082526020820181905291810191909152600682815481106102fa576102fa611321565b6000918252602091829020604080516060810182526002909302909101805483526001015464ffffffffff808216948401949094526501000000000090049092169181019190915292915050565b600080610353610e30565b50949350505050565b600080546040517fbf40fac10000000000000000000000000000000000000000000000000000000081526001600160a01b039091169063bf40fac1906103a690859060040161137d565b602060405180830381865afa1580156103c3573d6000803e3d6000fd5b505050506040513d601f19601f820116820180604052508101906103e79190611397565b92915050565b6000806103f8610e30565b95945050505050565b61c3508151111561047f5760405162461bcd60e51b815260206004820152603d60248201527f5472616e73616374696f6e20646174612073697a652065786365656473206d6160448201527f78696d756d20666f7220726f6c6c7570207472616e73616374696f6e2e00000060648201526084015b60405180910390fd5b6004548211156104f75760405162461bcd60e51b815260206004820152603d60248201527f5472616e73616374696f6e20676173206c696d69742065786365656473206d6160448201527f78696d756d20666f7220726f6c6c7570207472616e73616374696f6e2e0000006064820152608401610476565b620186a08210156105705760405162461bcd60e51b815260206004820152602960248201527f5472616e73616374696f6e20676173206c696d697420746f6f206c6f7720746f60448201527f20656e71756575652e00000000000000000000000000000000000000000000006064820152608401610476565b60035482111561063e5760006002546003548461058d91906113ca565b61059791906113dd565b905060005a90508181116106135760405162461bcd60e51b815260206004820152602b60248201527f496e73756666696369656e742067617320666f72204c322072617465206c696d60448201527f6974696e67206275726e2e0000000000000000000000000000000000000000006064820152608401610476565b60005b825a61062290846113ca565b101561063a5780610632816113ff565b915050610616565b5050505b600032330361064e575033610667565b5033731111000000000000000000000000000000001111015b6000818585856040516020016106809493929190611418565b60408051601f19818403018152828252805160209182012060608401835280845264ffffffffff42811692850192835243811693850193845260068054600181810183556000838152975160029092027ff652222313e28459528d920b65115c16c04f3efc82aaedc97be59f3f377c0d3f81019290925594517ff652222313e28459528d920b65115c16c04f3efc82aaedc97be59f3f377c0d40909101805496518416650100000000000269ffffffffffffffffffff1990971691909316179490941790559154919350610753916113ca565b905080866001600160a01b0316846001600160a01b03167f4b388aecf9fa6cc92253704e5975a6129a4f735bdbd99567df4ed0094ee4ceb588884260405161079d93929190611454565b60405180910390a4505050505050565b6000806107b8610e30565b50505064ffffffffff1692915050565b60006107eb6040518060600160405280602181526020016115ae6021913961035c565b905090565b60043560d81c60093560e890811c90600c35901c61080c6107ad565b8364ffffffffff16146108875760405162461bcd60e51b815260206004820152603d60248201527f41637475616c20626174636820737461727420696e64657820646f6573206e6f60448201527f74206d6174636820657870656374656420737461727420696e6465782e0000006064820152608401610476565b6108c56040518060400160405280600d81526020017f4f564d5f53657175656e6365720000000000000000000000000000000000000081525061035c565b6001600160a01b0316336001600160a01b03161461094b5760405162461bcd60e51b815260206004820152602d60248201527f46756e6374696f6e2063616e206f6e6c792062652063616c6c6564206279207460448201527f68652053657175656e6365722e000000000000000000000000000000000000006064820152608401610476565b600061095d62ffffff8316601061147d565b61096890600f611494565b905064ffffffffff81163610156109e75760405162461bcd60e51b815260206004820152602260248201527f4e6f7420656e6f756768204261746368436f6e74657874732070726f7669646560448201527f642e0000000000000000000000000000000000000000000000000000000000006064820152608401610476565b6005546040805160808101825260008082526020820181905291810182905260608101829052909164ffffffffff169060005b8562ffffff168163ffffffff161015610a78576000610a3e8263ffffffff16610ecf565b8051909350839150610a5090866114a7565b9450826020015184610a6291906114cb565b9350508080610a70906114e9565b915050610a1a565b5060065464ffffffffff83161115610b1e5760405162461bcd60e51b815260206004820152604260248201527f417474656d7074656420746f20617070656e64206d6f726520656c656d656e7460448201527f73207468616e2061726520617661696c61626c6520696e20746865207175657560648201527f652e000000000000000000000000000000000000000000000000000000000000608482015260a401610476565b6000610b2f8462ffffff891661150c565b63ffffffff1690506000808360200151600003610b5757505060408201516060830151610bc8565b60006006610b66600188611529565b64ffffffffff1681548110610b7d57610b7d611321565b6000918252602091829020604080516060810182526002909302909101805483526001015464ffffffffff808216948401859052650100000000009091041691018190529093509150505b610bec610bd66001436113ca565b408a62ffffff168564ffffffffff168585610f56565b7f602f1aeac0ca2e7a13e281a9ef0ad7838542712ce16780fa2ecffd351f05f899610c178487611529565b84610c206107ad565b6040805164ffffffffff94851681529390921660208401529082015260600160405180910390a150506005805464ffffffffff191664ffffffffff949094169390931790925550505050505050565b6000610c796107c8565b6001600160a01b0316631f7b6d326040518163ffffffff1660e01b8152600401602060405180830381865afa158015610cb6573d6000803e3d6000fd5b505050506040513d601f19601f820116820180604052508101906107eb9190611547565b60008054906101000a90046001600160a01b03166001600160a01b0316638da5cb5b6040518163ffffffff1660e01b8152600401602060405180830381865afa158015610d2b573d6000803e3d6000fd5b505050506040513d601f19601f82011682018060405250810190610d4f9190611397565b6001600160a01b0316336001600160a01b031614610daf5760405162461bcd60e51b815260206004820181905260248201527f4f6e6c792063616c6c61626c6520627920746865204275726e2041646d696e2e6044820152606401610476565b60018190556002829055610dc3818361147d565b60038190556002546001546040805192835260208301919091528101919091527fc6ed75e96b8b18b71edc1a6e82a9d677f8268c774a262c624eeb2cf0a8b3e07e9060600160405180910390a15050565b6005546006546000916107eb9164ffffffffff90911690611529565b6000806000806000610e406107c8565b6001600160a01b031663ccf8f9696040518163ffffffff1660e01b8152600401602060405180830381865afa158015610e7d573d6000803e3d6000fd5b505050506040513d601f19601f82011682018060405250810190610ea19190611560565b64ffffffffff602882901c811697605083901c82169750607883901c8216965060a09290921c169350915050565b610efa6040518060800160405280600081526020016000815260200160008152602001600081525090565b6000610f0760108461147d565b610f1290600f611494565b60408051608081018252823560e890811c82526003840135901c6020820152600683013560d890811c92820192909252600b90920135901c60608201529392505050565b6000610f606107c8565b9050600080610f6d610e30565b50509150915060006040518060a00160405280856001600160a01b0316631f7b6d326040518163ffffffff1660e01b8152600401602060405180830381865afa158015610fbe573d6000803e3d6000fd5b505050506040513d601f19601f82011682018060405250810190610fe29190611547565b81526020018a81526020018981526020018464ffffffffff16815260200160405180602001604052806000815250815250905080600001517f127186556e7be68c7e31263195225b4de02820707889540969f62c05cf73525e826020015183604001518460600151856080015160405161105f9493929190611588565b60405180910390a260006110728261113e565b905060006110ad83604001518661108991906114cb565b6110938b876114cb565b602890811b9190911760508b901b1760788a901b17901b90565b6040517f2015276c0000000000000000000000000000000000000000000000000000000081526004810184905264ffffffffff19821660248201529091506001600160a01b03871690632015276c90604401600060405180830381600087803b15801561111957600080fd5b505af115801561112d573d6000803e3d6000fd5b505050505050505050505050505050565b600081602001518260400151836060015184608001516040516020016111679493929190611588565b604051602081830303815290604052805190602001209050919050565b60006020828403121561119657600080fd5b5035919050565b634e487b7160e01b600052604160045260246000fd5b600067ffffffffffffffff808411156111ce576111ce61119d565b604051601f8501601f19908116603f011681019082821181831017156111f6576111f661119d565b8160405280935085815286868601111561120f57600080fd5b858560208301376000602087830101525050509392505050565b60006020828403121561123b57600080fd5b813567ffffffffffffffff81111561125257600080fd5b8201601f8101841361126357600080fd5b611272848235602084016111b3565b949350505050565b6001600160a01b038116811461128f57600080fd5b50565b6000806000606084860312156112a757600080fd5b83356112b28161127a565b925060208401359150604084013567ffffffffffffffff8111156112d557600080fd5b8401601f810186136112e657600080fd5b6112f5868235602084016111b3565b9150509250925092565b6000806040838503121561131257600080fd5b50508035926020909101359150565b634e487b7160e01b600052603260045260246000fd5b6000815180845260005b8181101561135d57602081850181015186830182015201611341565b506000602082860101526020601f19601f83011685010191505092915050565b6020815260006113906020830184611337565b9392505050565b6000602082840312156113a957600080fd5b81516113908161127a565b634e487b7160e01b600052601160045260246000fd5b818103818111156103e7576103e76113b4565b6000826113fa57634e487b7160e01b600052601260045260246000fd5b500490565b600060018201611411576114116113b4565b5060010190565b60006001600160a01b0380871683528086166020840152508360408301526080606083015261144a6080830184611337565b9695505050505050565b83815260606020820152600061146d6060830185611337565b9050826040830152949350505050565b80820281158282048414176103e7576103e76113b4565b808201808211156103e7576103e76113b4565b63ffffffff8181168382160190808211156114c4576114c46113b4565b5092915050565b64ffffffffff8181168382160190808211156114c4576114c46113b4565b600063ffffffff808316818103611502576115026113b4565b6001019392505050565b63ffffffff8281168282160390808211156114c4576114c46113b4565b64ffffffffff8281168282160390808211156114c4576114c46113b4565b60006020828403121561155957600080fd5b5051919050565b60006020828403121561157257600080fd5b815164ffffffffff198116811461139057600080fd5b84815283602082015282604082015260806060820152600061144a608083018461133756fe436861696e53746f72616765436f6e7461696e65722d4354432d62617463686573a2646970667358221220b532685134919ac9ce00c4bf7bf2ec9d9cc298c24716e791b74087e56bc7993764736f6c63430008120033",
  "linkReferences": {},
  "deployedLinkReferences": {}
}