{
  "_format": "hh-sol-artifact-1",
  "contractName": "CanonicalTransactionChain",
  "sourceName": "contracts/L1/rollup/CanonicalTransactionChain.sol",
  "abi": [
    {
      "inputs": [
        {
          "internalType": "address",
          "name": "_libAddressManager",
          "type": "address"
        },
        {
          "internalType": "uint256",
          "name": "_maxTransactionGasLimit",
          "type": "uint256"
        },
        {
          "internalType": "uint256",
          "name": "_l2GasDiscountDivisor",
          "type": "uint256"
        },
        {
          "internalType": "uint256",
          "name": "_enqueueGasCost",
          "type": "uint256"
        }
      ],
      "stateMutability": "nonpayable",
      "type": "constructor"
    },
    {
      "anonymous": false,
      "inputs": [
        {
          "indexed": false,
          "internalType": "uint256",
          "name": "l2GasDiscountDivisor",
          "type": "uint256"
        },
        {
          "indexed": false,
          "internalType": "uint256",
          "name": "enqueueGasCost",
          "type": "uint256"
        },
        {
          "indexed": false,
          "internalType": "uint256",
          "name": "enqueueL2GasPrepaid",
          "type": "uint256"
        }
      ],
      "name": "L2GasParamsUpdated",
      "type": "event"
    },
    {
      "anonymous": false,
      "inputs": [
        {
          "indexed": false,
          "internalType": "uint256",
          "name": "_startingQueueIndex",
          "type": "uint256"
        },
        {
          "indexed": false,
          "internalType": "uint256",
          "name": "_numQueueElements",
          "type": "uint256"
        },
        {
          "indexed": false,
          "internalType": "uint256",
          "name": "_totalElements",
          "type": "uint256"
        }
      ],
      "name": "QueueBatchAppended",
      "type": "event"
    },
    {
      "anonymous": false,
      "inputs": [
        {
          "indexed": false,
          "internalType": "uint256",
          "name": "_startingQueueIndex",
          "type": "uint256"
        },
        {
          "indexed": false,
          "internalType": "uint256",
          "name": "_numQueueElements",
          "type": "uint256"
        },
        {
          "indexed": false,
          "internalType": "uint256",
          "name": "_totalElements",
          "type": "uint256"
        }
      ],
      "name": "SequencerBatchAppended",
      "type": "event"
    },
    {
      "anonymous": false,
      "inputs": [
        {
          "indexed": true,
          "internalType": "uint256",
          "name": "_batchIndex",
          "type": "uint256"
        },
        {
          "indexed": false,
          "internalType": "bytes32",
          "name": "_batchRoot",
          "type": "bytes32"
        },
        {
          "indexed": false,
          "internalType": "uint256",
          "name": "_batchSize",
          "type": "uint256"
        },
        {
          "indexed": false,
          "internalType": "uint256",
          "name": "_prevTotalElements",
          "type": "uint256"
        },
        {
          "indexed": false,
          "internalType": "bytes",
          "name": "_extraData",
          "type": "bytes"
        }
      ],
      "name": "TransactionBatchAppended",
      "type": "event"
    },
    {
      "anonymous": false,
      "inputs": [
        {
          "indexed": true,
          "internalType": "address",
          "name": "_l1TxOrigin",
          "type": "address"
        },
        {
          "indexed": true,
          "internalType": "address",
          "name": "_target",
          "type": "address"
        },
        {
          "indexed": false,
          "internalType": "uint256",
          "name": "_gasLimit",
          "type": "uint256"
        },
        {
          "indexed": false,
          "internalType": "bytes",
          "name": "_data",
          "type": "bytes"
        },
        {
          "indexed": true,
          "internalType": "uint256",
          "name": "_queueIndex",
          "type": "uint256"
        },
        {
          "indexed": false,
          "internalType": "uint256",
          "name": "_timestamp",
          "type": "uint256"
        }
      ],
      "name": "TransactionEnqueued",
      "type": "event"
    },
    {
      "inputs": [],
      "name": "MAX_ROLLUP_TX_SIZE",
      "outputs": [
        {
          "internalType": "uint256",
          "name": "",
          "type": "uint256"
        }
      ],
      "stateMutability": "view",
      "type": "function"
    },
    {
      "inputs": [],
      "name": "MIN_ROLLUP_TX_GAS",
      "outputs": [
        {
          "internalType": "uint256",
          "name": "",
          "type": "uint256"
        }
      ],
      "stateMutability": "view",
      "type": "function"
    },
    {
      "inputs": [],
      "name": "appendSequencerBatch",
      "outputs": [],
      "stateMutability": "nonpayable",
      "type": "function"
    },
    {
      "inputs": [],
      "name": "batches",
      "outputs": [
        {
          "internalType": "contract IChainStorageContainer",
          "name": "",
          "type": "address"
        }
      ],
      "stateMutability": "view",
      "type": "function"
    },
    {
      "inputs": [
        {
          "internalType": "address",
          "name": "_target",
          "type": "address"
        },
        {
          "internalType": "uint256",
          "name": "_gasLimit",
          "type": "uint256"
        },
        {
          "internalType": "bytes",
          "name": "_data",
          "type": "bytes"
        }
      ],
      "name": "enqueue",
      "outputs": [],
      "stateMutability": "nonpayable",
      "type": "function"
    },
    {
      "inputs": [],
      "name": "enqueueGasCost",
      "outputs": [
        {
          "internalType": "uint256",
          "name": "",
          "type": "uint256"
        }
      ],
      "stateMutability": "view",
      "type": "function"
    },
    {
      "inputs": [],
      "name": "enqueueL2GasPrepaid",
      "outputs": [
        {
          "internalType": "uint256",
          "name": "",
          "type": "uint256"
        }
      ],
      "stateMutability": "view",
      "type": "function"
    },
    {
      "inputs": [],
      "name": "getLastBlockNumber",
      "outputs": [
        {
          "internalType": "uint40",
          "name": "",
          "type": "uint40"
        }
      ],
      "stateMutability": "view",
      "type": "function"
    },
    {
      "inputs": [],
      "name": "getLastTimestamp",
      "outputs": [
        {
          "internalType": "uint40",
          "name": "",
          "type": "uint40"
        }
      ],
      "stateMutability": "view",
      "type": "function"
    },
    {
      "inputs": [],
      "name": "getNextQueueIndex",
      "outputs": [
        {
          "internalType": "uint40",
          "name": "",
          "type": "uint40"
        }
      ],
      "stateMutability": "view",
      "type": "function"
    },
    {
      "inputs": [],
      "name": "getNumPendingQueueElements",
      "outputs": [
        {
          "internalType": "uint40",
          "name": "",
          "type": "uint40"
        }
      ],
      "stateMutability": "view",
      "type": "function"
    },
    {
      "inputs": [
        {
          "internalType": "uint256",
          "name": "_index",
          "type": "uint256"
        }
      ],
      "name": "getQueueElement",
      "outputs": [
        {
          "components": [
            {
              "internalType": "bytes32",
              "name": "transactionHash",
              "type": "bytes32"
            },
            {
              "internalType": "uint40",
              "name": "timestamp",
              "type": "uint40"
            },
            {
              "internalType": "uint40",
              "name": "blockNumber",
              "type": "uint40"
            }
          ],
          "internalType": "struct Lib_OVMCodec.QueueElement",
          "name": "_element",
          "type": "tuple"
        }
      ],
      "stateMutability": "view",
      "type": "function"
    },
    {
      "inputs": [],
      "name": "getQueueLength",
      "outputs": [
        {
          "internalType": "uint40",
          "name": "",
          "type": "uint40"
        }
      ],
      "stateMutability": "view",
      "type": "function"
    },
    {
      "inputs": [],
      "name": "getTotalBatches",
      "outputs": [
        {
          "internalType": "uint256",
          "name": "_totalBatches",
          "type": "uint256"
        }
      ],
      "stateMutability": "view",
      "type": "function"
    },
    {
      "inputs": [],
      "name": "getTotalElements",
      "outputs": [
        {
          "internalType": "uint256",
          "name": "_totalElements",
          "type": "uint256"
        }
      ],
      "stateMutability": "view",
      "type": "function"
    },
    {
      "inputs": [],
      "name": "l2GasDiscountDivisor",
      "outputs": [
        {
          "internalType": "uint256",
          "name": "",
          "type": "uint256"
        }
      ],
      "stateMutability": "view",
      "type": "function"
    },
    {
      "inputs": [],
      "name": "libAddressManager",
      "outputs": [
        {
          "internalType": "contract Lib_AddressManager",
          "name": "",
          "type": "address"
        }
      ],
      "stateMutability": "view",
      "type": "function"
    },
    {
      "inputs": [],
      "name": "maxTransactionGasLimit",
      "outputs": [
        {
          "internalType": "uint256",
          "name": "",
          "type": "uint256"
        }
      ],
      "stateMutability": "view",
      "type": "function"
    },
    {
      "inputs": [
        {
          "internalType": "string",
          "name": "_name",
          "type": "string"
        }
      ],
      "name": "resolve",
      "outputs": [
        {
          "internalType": "address",
          "name": "",
          "type": "address"
        }
      ],
      "stateMutability": "view",
      "type": "function"
    },
    {
      "inputs": [
        {
          "internalType": "uint256",
          "name": "_l2GasDiscountDivisor",
          "type": "uint256"
        },
        {
          "internalType": "uint256",
          "name": "_enqueueGasCost",
          "type": "uint256"
        }
      ],
      "name": "setGasParams",
      "outputs": [],
      "stateMutability": "nonpayable",
      "type": "function"
    }
  ],
  "bytecode": "0x60806040523480156200001157600080fd5b50604051620026c8380380620026c8833981810160405281019062000037919062000151565b83806000806101000a81548173ffffffffffffffffffffffffffffffffffffffff021916908373ffffffffffffffffffffffffffffffffffffffff1602179055505082600481905550816002819055508060018190555080826200009c9190620001f2565b600381905550505050506200023d565b600080fd5b600073ffffffffffffffffffffffffffffffffffffffff82169050919050565b6000620000de82620000b1565b9050919050565b620000f081620000d1565b8114620000fc57600080fd5b50565b6000815190506200011081620000e5565b92915050565b6000819050919050565b6200012b8162000116565b81146200013757600080fd5b50565b6000815190506200014b8162000120565b92915050565b600080600080608085870312156200016e576200016d620000ac565b5b60006200017e87828801620000ff565b945050602062000191878288016200013a565b9350506040620001a4878288016200013a565b9250506060620001b7878288016200013a565b91505092959194509250565b7f4e487b7100000000000000000000000000000000000000000000000000000000600052601160045260246000fd5b6000620001ff8262000116565b91506200020c8362000116565b92508282026200021c8162000116565b91508282048414831517620002365762000235620001c3565b5b5092915050565b61247b806200024d6000396000f3fe608060405234801561001057600080fd5b506004361061012c5760003560e01c8063876ed5cb116100ad578063d0f8934411610071578063d0f8934414610315578063e561dddc1461031f578063e654b1fb1461033d578063edcc4a451461035b578063f722b41a146103775761012c565b8063876ed5cb1461027f5780638d38c6c11461029d578063b8f77005146102bb578063ccf987c8146102d9578063cfdf677e146102f75761012c565b80635ae6256d116100f45780635ae6256d146101eb5780636fee07e01461020957806378f4b2f2146102255780637a167a8a146102435780637aa63a86146102615761012c565b80630b3dfa9714610131578063299ca4781461014f5780632a7f18be1461016d578063378997701461019d578063461a4478146101bb575b600080fd5b610139610395565b6040516101469190611314565b60405180910390f35b61015761039b565b60405161016491906113ae565b60405180910390f35b61018760048036038101906101829190611409565b6103bf565b60405161019491906114b1565b60405180910390f35b6101a5610457565b6040516101b291906114db565b60405180910390f35b6101d560048036038101906101d0919061163c565b61046e565b6040516101e291906116a6565b60405180910390f35b6101f3610512565b60405161020091906114db565b60405180910390f35b610223600480360381019061021e919061178e565b610529565b005b61022d61084b565b60405161023a9190611314565b60405180910390f35b61024b610852565b60405161025891906114db565b60405180910390f35b61026961086d565b6040516102769190611314565b60405180910390f35b61028761088b565b6040516102949190611314565b60405180910390f35b6102a5610891565b6040516102b29190611314565b60405180910390f35b6102c3610897565b6040516102d091906114db565b60405180910390f35b6102e16108a4565b6040516102ee9190611314565b60405180910390f35b6102ff6108aa565b60405161030c919061181e565b60405180910390f35b61031d6108d2565b005b610327610cbe565b6040516103349190611314565b60405180910390f35b610345610d3b565b6040516103529190611314565b60405180910390f35b61037560048036038101906103709190611839565b610d41565b005b61037f610ea2565b60405161038c91906114db565b60405180910390f35b60035481565b60008054906101000a900473ffffffffffffffffffffffffffffffffffffffff1681565b6103c76112a1565b600682815481106103db576103da611879565b5b9060005260206000209060020201604051806060016040529081600082015481526020016001820160009054906101000a900464ffffffffff1664ffffffffff1664ffffffffff1681526020016001820160059054906101000a900464ffffffffff1664ffffffffff1664ffffffffff16815250509050919050565b600080610462610ecd565b50925050508091505090565b60008060009054906101000a900473ffffffffffffffffffffffffffffffffffffffff1673ffffffffffffffffffffffffffffffffffffffff1663bf40fac1836040518263ffffffff1660e01b81526004016104ca9190611927565b602060405180830381865afa1580156104e7573d6000803e3d6000fd5b505050506040513d601f19601f8201168201806040525081019061050b919061195e565b9050919050565b60008061051d610ecd565b93505050508091505090565b61c3508151111561056f576040517f08c379a0000000000000000000000000000000000000000000000000000000008152600401610566906119fd565b60405180910390fd5b6004548211156105b4576040517f08c379a00000000000000000000000000000000000000000000000000000000081526004016105ab90611a8f565b60405180910390fd5b620186a08210156105fa576040517f08c379a00000000000000000000000000000000000000000000000000000000081526004016105f190611b21565b60405180910390fd5b600354821115610697576000600254600354846106179190611b70565b6106219190611bd3565b905060005a905081811161066a576040517f08c379a000000000000000000000000000000000000000000000000000000000815260040161066190611c76565b60405180910390fd5b60005b825a8361067a9190611b70565b101561069357808061068b90611c96565b91505061066d565b5050505b60003273ffffffffffffffffffffffffffffffffffffffff163373ffffffffffffffffffffffffffffffffffffffff16036106d4573390506106e0565b6106dd33610fbf565b90505b6000818585856040516020016106f99493929190611d33565b604051602081830303815290604052805190602001209050600660405180606001604052808381526020014264ffffffffff1681526020014364ffffffffff1681525090806001815401808255809150506001900390600052602060002090600202016000909190919091506000820151816000015560208201518160010160006101000a81548164ffffffffff021916908364ffffffffff16021790555060408201518160010160056101000a81548164ffffffffff021916908364ffffffffff1602179055505050600060016006805490506107d79190611b70565b9050808673ffffffffffffffffffffffffffffffffffffffff168473ffffffffffffffffffffffffffffffffffffffff167f4b388aecf9fa6cc92253704e5975a6129a4f735bdbd99567df4ed0094ee4ceb588884260405161083b93929190611d7f565b60405180910390a4505050505050565b620186a081565b6000600560009054906101000a900464ffffffffff16905090565b600080610878610ecd565b50505090508064ffffffffff1691505090565b61c35081565b60045481565b6000600680549050905090565b60025481565b60006108cd6040518060600160405280602181526020016124256021913961046e565b905090565b600080600060043560d81c925060093560e81c9150600c3560e81c90506108f761086d565b8364ffffffffff161461093f576040517f08c379a000000000000000000000000000000000000000000000000000000000815260040161093690611e2f565b60405180910390fd5b61097d6040518060400160405280600d81526020017f4f564d5f53657175656e6365720000000000000000000000000000000000000081525061046e565b73ffffffffffffffffffffffffffffffffffffffff163373ffffffffffffffffffffffffffffffffffffffff16146109ea576040517f08c379a00000000000000000000000000000000000000000000000000000000081526004016109e190611ec1565b60405180910390fd5b60008162ffffff1660106109fe9190611ee1565b600f610a0a9190611f23565b90508064ffffffffff1660003690501015610a5a576040517f08c379a0000000000000000000000000000000000000000000000000000000008152600401610a5190611fc9565b60405180910390fd5b600080600560009054906101000a900464ffffffffff169050610a7b6112d3565b60005b8562ffffff168163ffffffff161015610adf576000610aa28263ffffffff16610fdf565b9050809250826000015185610ab79190611ff9565b9450826020015184610ac99190612031565b9350508080610ad79061206a565b915050610a7e565b506006805490508264ffffffffff161115610b2f576040517f08c379a0000000000000000000000000000000000000000000000000000000008152600401610b269061212e565b60405180910390fd5b6000838762ffffff16610b42919061214e565b63ffffffff1690506000806000846020015103610b6c578360400151915083606001519050610c1c565b60006006600187610b7d9190612186565b64ffffffffff1681548110610b9557610b94611879565b5b9060005260206000209060020201604051806060016040529081600082015481526020016001820160009054906101000a900464ffffffffff1664ffffffffff1664ffffffffff1681526020016001820160059054906101000a900464ffffffffff1664ffffffffff1664ffffffffff168152505090508060200151925080604001519150505b610c42600143610c2c9190611b70565b408a62ffffff168564ffffffffff16858561105c565b7f602f1aeac0ca2e7a13e281a9ef0ad7838542712ce16780fa2ecffd351f05f8998386610c6f9190612186565b84610c7861086d565b604051610c87939291906121f0565b60405180910390a184600560006101000a81548164ffffffffff021916908364ffffffffff16021790555050505050505050505050565b6000610cc86108aa565b73ffffffffffffffffffffffffffffffffffffffff16631f7b6d326040518163ffffffff1660e01b8152600401602060405180830381865afa158015610d12573d6000803e3d6000fd5b505050506040513d601f19601f82011682018060405250810190610d36919061223c565b905090565b60015481565b60008054906101000a900473ffffffffffffffffffffffffffffffffffffffff1673ffffffffffffffffffffffffffffffffffffffff16638da5cb5b6040518163ffffffff1660e01b8152600401602060405180830381865afa158015610dac573d6000803e3d6000fd5b505050506040513d601f19601f82011682018060405250810190610dd0919061195e565b73ffffffffffffffffffffffffffffffffffffffff163373ffffffffffffffffffffffffffffffffffffffff1614610e3d576040517f08c379a0000000000000000000000000000000000000000000000000000000008152600401610e34906122b5565b60405180910390fd5b80600181905550816002819055508082610e579190611ee1565b6003819055507fc6ed75e96b8b18b71edc1a6e82a9d677f8268c774a262c624eeb2cf0a8b3e07e600254600154600354604051610e96939291906122d5565b60405180910390a15050565b6000600560009054906101000a900464ffffffffff16600680549050610ec89190612186565b905090565b6000806000806000610edd6108aa565b73ffffffffffffffffffffffffffffffffffffffff1663ccf8f9696040518163ffffffff1660e01b8152600401602060405180830381865afa158015610f27573d6000803e3d6000fd5b505050506040513d601f19601f82011682018060405250810190610f4b9190612364565b90506000806000808460281c945064ffffffffff8516935069ffffffffff0000000000851660281c92506effffffffff00000000000000000000851660501c915073ffffffffff000000000000000000000000000000851660781c9050838383839850985098509850505050505090919293565b600073111100000000000000000000000000000000111182019050919050565b610fe76112d3565b6000601083610ff69190611ee1565b600f6110029190611f23565b9050600080600080843560e81c9350600385013560e81c9250600685013560d81c9150600b85013560d81c905060405180608001604052808581526020018481526020018381526020018281525095505050505050919050565b60006110666108aa565b9050600080611073610ecd565b50509150915060006040518060a001604052808573ffffffffffffffffffffffffffffffffffffffff16631f7b6d326040518163ffffffff1660e01b8152600401602060405180830381865afa1580156110d1573d6000803e3d6000fd5b505050506040513d601f19601f820116820180604052508101906110f5919061223c565b81526020018a81526020018981526020018464ffffffffff16815260200160405180602001604052806000815250815250905080600001517f127186556e7be68c7e31263195225b4de02820707889540969f62c05cf73525e826020015183604001518460600151856080015160405161117294939291906123a0565b60405180910390a260006111858261122b565b905060006111af83604001518661119c9190612031565b8a866111a89190612031565b8a8a611271565b90508573ffffffffffffffffffffffffffffffffffffffff16632015276c83836040518363ffffffff1660e01b81526004016111ec9291906123fb565b600060405180830381600087803b15801561120657600080fd5b505af115801561121a573d6000803e3d6000fd5b505050505050505050505050505050565b6000816020015182604001518360600151846080015160405160200161125494939291906123a0565b604051602081830303815290604052805190602001209050919050565b6000808590508460281b811790508360501b811790508260781b811790508060281b905080915050949350505050565b604051806060016040528060008019168152602001600064ffffffffff168152602001600064ffffffffff1681525090565b6040518060800160405280600081526020016000815260200160008152602001600081525090565b6000819050919050565b61130e816112fb565b82525050565b60006020820190506113296000830184611305565b92915050565b600073ffffffffffffffffffffffffffffffffffffffff82169050919050565b6000819050919050565b600061137461136f61136a8461132f565b61134f565b61132f565b9050919050565b600061138682611359565b9050919050565b60006113988261137b565b9050919050565b6113a88161138d565b82525050565b60006020820190506113c3600083018461139f565b92915050565b6000604051905090565b600080fd5b600080fd5b6113e6816112fb565b81146113f157600080fd5b50565b600081359050611403816113dd565b92915050565b60006020828403121561141f5761141e6113d3565b5b600061142d848285016113f4565b91505092915050565b6000819050919050565b61144981611436565b82525050565b600064ffffffffff82169050919050565b6114698161144f565b82525050565b6060820160008201516114856000850182611440565b5060208201516114986020850182611460565b5060408201516114ab6040850182611460565b50505050565b60006060820190506114c6600083018461146f565b92915050565b6114d58161144f565b82525050565b60006020820190506114f060008301846114cc565b92915050565b600080fd5b600080fd5b6000601f19601f8301169050919050565b7f4e487b7100000000000000000000000000000000000000000000000000000000600052604160045260246000fd5b61154982611500565b810181811067ffffffffffffffff8211171561156857611567611511565b5b80604052505050565b600061157b6113c9565b90506115878282611540565b919050565b600067ffffffffffffffff8211156115a7576115a6611511565b5b6115b082611500565b9050602081019050919050565b82818337600083830152505050565b60006115df6115da8461158c565b611571565b9050828152602081018484840111156115fb576115fa6114fb565b5b6116068482856115bd565b509392505050565b600082601f830112611623576116226114f6565b5b81356116338482602086016115cc565b91505092915050565b600060208284031215611652576116516113d3565b5b600082013567ffffffffffffffff8111156116705761166f6113d8565b5b61167c8482850161160e565b91505092915050565b60006116908261132f565b9050919050565b6116a081611685565b82525050565b60006020820190506116bb6000830184611697565b92915050565b6116ca81611685565b81146116d557600080fd5b50565b6000813590506116e7816116c1565b92915050565b600067ffffffffffffffff82111561170857611707611511565b5b61171182611500565b9050602081019050919050565b600061173161172c846116ed565b611571565b90508281526020810184848401111561174d5761174c6114fb565b5b6117588482856115bd565b509392505050565b600082601f830112611775576117746114f6565b5b813561178584826020860161171e565b91505092915050565b6000806000606084860312156117a7576117a66113d3565b5b60006117b5868287016116d8565b93505060206117c6868287016113f4565b925050604084013567ffffffffffffffff8111156117e7576117e66113d8565b5b6117f386828701611760565b9150509250925092565b60006118088261137b565b9050919050565b611818816117fd565b82525050565b6000602082019050611833600083018461180f565b92915050565b600080604083850312156118505761184f6113d3565b5b600061185e858286016113f4565b925050602061186f858286016113f4565b9150509250929050565b7f4e487b7100000000000000000000000000000000000000000000000000000000600052603260045260246000fd5b600081519050919050565b600082825260208201905092915050565b60005b838110156118e25780820151818401526020810190506118c7565b60008484015250505050565b60006118f9826118a8565b61190381856118b3565b93506119138185602086016118c4565b61191c81611500565b840191505092915050565b6000602082019050818103600083015261194181846118ee565b905092915050565b600081519050611958816116c1565b92915050565b600060208284031215611974576119736113d3565b5b600061198284828501611949565b91505092915050565b7f5472616e73616374696f6e20646174612073697a652065786365656473206d6160008201527f78696d756d20666f7220726f6c6c7570207472616e73616374696f6e2e000000602082015250565b60006119e7603d836118b3565b91506119f28261198b565b604082019050919050565b60006020820190508181036000830152611a16816119da565b9050919050565b7f5472616e73616374696f6e20676173206c696d69742065786365656473206d6160008201527f78696d756d20666f7220726f6c6c7570207472616e73616374696f6e2e000000602082015250565b6000611a79603d836118b3565b9150611a8482611a1d565b604082019050919050565b60006020820190508181036000830152611aa881611a6c565b9050919050565b7f5472616e73616374696f6e20676173206c696d697420746f6f206c6f7720746f60008201527f20656e71756575652e0000000000000000000000000000000000000000000000602082015250565b6000611b0b6029836118b3565b9150611b1682611aaf565b604082019050919050565b60006020820190508181036000830152611b3a81611afe565b9050919050565b7f4e487b7100000000000000000000000000000000000000000000000000000000600052601160045260246000fd5b6000611b7b826112fb565b9150611b86836112fb565b9250828203905081811115611b9e57611b9d611b41565b5b92915050565b7f4e487b7100000000000000000000000000000000000000000000000000000000600052601260045260246000fd5b6000611bde826112fb565b9150611be9836112fb565b925082611bf957611bf8611ba4565b5b828204905092915050565b7f496e73756666696369656e742067617320666f72204c322072617465206c696d60008201527f6974696e67206275726e2e000000000000000000000000000000000000000000602082015250565b6000611c60602b836118b3565b9150611c6b82611c04565b604082019050919050565b60006020820190508181036000830152611c8f81611c53565b9050919050565b6000611ca1826112fb565b91507fffffffffffffffffffffffffffffffffffffffffffffffffffffffffffffffff8203611cd357611cd2611b41565b5b600182019050919050565b600081519050919050565b600082825260208201905092915050565b6000611d0582611cde565b611d0f8185611ce9565b9350611d1f8185602086016118c4565b611d2881611500565b840191505092915050565b6000608082019050611d486000830187611697565b611d556020830186611697565b611d626040830185611305565b8181036060830152611d748184611cfa565b905095945050505050565b6000606082019050611d946000830186611305565b8181036020830152611da68185611cfa565b9050611db56040830184611305565b949350505050565b7f41637475616c20626174636820737461727420696e64657820646f6573206e6f60008201527f74206d6174636820657870656374656420737461727420696e6465782e000000602082015250565b6000611e19603d836118b3565b9150611e2482611dbd565b604082019050919050565b60006020820190508181036000830152611e4881611e0c565b9050919050565b7f46756e6374696f6e2063616e206f6e6c792062652063616c6c6564206279207460008201527f68652053657175656e6365722e00000000000000000000000000000000000000602082015250565b6000611eab602d836118b3565b9150611eb682611e4f565b604082019050919050565b60006020820190508181036000830152611eda81611e9e565b9050919050565b6000611eec826112fb565b9150611ef7836112fb565b9250828202611f05816112fb565b91508282048414831517611f1c57611f1b611b41565b5b5092915050565b6000611f2e826112fb565b9150611f39836112fb565b9250828201905080821115611f5157611f50611b41565b5b92915050565b7f4e6f7420656e6f756768204261746368436f6e74657874732070726f7669646560008201527f642e000000000000000000000000000000000000000000000000000000000000602082015250565b6000611fb36022836118b3565b9150611fbe82611f57565b604082019050919050565b60006020820190508181036000830152611fe281611fa6565b9050919050565b600063ffffffff82169050919050565b600061200482611fe9565b915061200f83611fe9565b9250828201905063ffffffff81111561202b5761202a611b41565b5b92915050565b600061203c8261144f565b91506120478361144f565b9250828201905064ffffffffff81111561206457612063611b41565b5b92915050565b600061207582611fe9565b915063ffffffff820361208b5761208a611b41565b5b600182019050919050565b7f417474656d7074656420746f20617070656e64206d6f726520656c656d656e7460008201527f73207468616e2061726520617661696c61626c6520696e20746865207175657560208201527f652e000000000000000000000000000000000000000000000000000000000000604082015250565b60006121186042836118b3565b915061212382612096565b606082019050919050565b600060208201905081810360008301526121478161210b565b9050919050565b600061215982611fe9565b915061216483611fe9565b9250828203905063ffffffff8111156121805761217f611b41565b5b92915050565b60006121918261144f565b915061219c8361144f565b9250828203905064ffffffffff8111156121b9576121b8611b41565b5b92915050565b60006121da6121d56121d08461144f565b61134f565b6112fb565b9050919050565b6121ea816121bf565b82525050565b600060608201905061220560008301866121e1565b61221260208301856121e1565b61221f6040830184611305565b949350505050565b600081519050612236816113dd565b92915050565b600060208284031215612252576122516113d3565b5b600061226084828501612227565b91505092915050565b7f4f6e6c792063616c6c61626c6520627920746865204275726e2041646d696e2e600082015250565b600061229f6020836118b3565b91506122aa82612269565b602082019050919050565b600060208201905081810360008301526122ce81612292565b9050919050565b60006060820190506122ea6000830186611305565b6122f76020830185611305565b6123046040830184611305565b949350505050565b60007fffffffffffffffffffffffffffffffffffffffffffffffffffffff000000000082169050919050565b6123418161230c565b811461234c57600080fd5b50565b60008151905061235e81612338565b92915050565b60006020828403121561237a576123796113d3565b5b60006123888482850161234f565b91505092915050565b61239a81611436565b82525050565b60006080820190506123b56000830187612391565b6123c26020830186611305565b6123cf6040830185611305565b81810360608301526123e18184611cfa565b905095945050505050565b6123f58161230c565b82525050565b60006040820190506124106000830185612391565b61241d60208301846123ec565b939250505056fe436861696e53746f72616765436f6e7461696e65722d4354432d62617463686573a26469706673582212208a0438580464b427be528bbad243c4c673bafc616bc14fd55254130758a62f7664736f6c63430008120033",
  "linkReferences": {},
  "deployedLinkReferences": {}
}