{
  "_format": "hh-sol-artifact-1",
  "contractName": "PegNFT",
  "sourceName": "contracts/PegNFT.sol",
  "abi": [
    {
      "inputs": [
        {
          "internalType": "string",
          "name": "name_",
          "type": "string"
        },
        {
          "internalType": "string",
          "name": "symbol_",
          "type": "string"
        },
        {
          "internalType": "address",
          "name": "_nftBridge",
          "type": "address"
        }
      ],
      "stateMutability": "nonpayable",
      "type": "constructor"
    },
    {
      "anonymous": false,
      "inputs": [
        {
          "indexed": true,
          "internalType": "address",
          "name": "owner",
          "type": "address"
        },
        {
          "indexed": true,
          "internalType": "address",
          "name": "approved",
          "type": "address"
        },
        {
          "indexed": true,
          "internalType": "uint256",
          "name": "tokenId",
          "type": "uint256"
        }
      ],
      "name": "Approval",
      "type": "event"
    },
    {
      "anonymous": false,
      "inputs": [
        {
          "indexed": true,
          "internalType": "address",
          "name": "owner",
          "type": "address"
        },
        {
          "indexed": true,
          "internalType": "address",
          "name": "operator",
          "type": "address"
        },
        {
          "indexed": false,
          "internalType": "bool",
          "name": "approved",
          "type": "bool"
        }
      ],
      "name": "ApprovalForAll",
      "type": "event"
    },
    {
      "anonymous": false,
      "inputs": [
        {
          "indexed": true,
          "internalType": "address",
          "name": "from",
          "type": "address"
        },
        {
          "indexed": true,
          "internalType": "address",
          "name": "to",
          "type": "address"
        },
        {
          "indexed": true,
          "internalType": "uint256",
          "name": "tokenId",
          "type": "uint256"
        }
      ],
      "name": "Transfer",
      "type": "event"
    },
    {
      "inputs": [
        {
          "internalType": "address",
          "name": "to",
          "type": "address"
        },
        {
          "internalType": "uint256",
          "name": "tokenId",
          "type": "uint256"
        }
      ],
      "name": "approve",
      "outputs": [],
      "stateMutability": "nonpayable",
      "type": "function"
    },
    {
      "inputs": [
        {
          "internalType": "address",
          "name": "owner",
          "type": "address"
        }
      ],
      "name": "balanceOf",
      "outputs": [
        {
          "internalType": "uint256",
          "name": "",
          "type": "uint256"
        }
      ],
      "stateMutability": "view",
      "type": "function"
    },
    {
      "inputs": [
        {
          "internalType": "address",
          "name": "to",
          "type": "address"
        },
        {
          "internalType": "uint256",
          "name": "id",
          "type": "uint256"
        },
        {
          "internalType": "string",
          "name": "uri",
          "type": "string"
        }
      ],
      "name": "bridgeMint",
      "outputs": [],
      "stateMutability": "nonpayable",
      "type": "function"
    },
    {
      "inputs": [
        {
          "internalType": "uint256",
          "name": "id",
          "type": "uint256"
        }
      ],
      "name": "burn",
      "outputs": [],
      "stateMutability": "nonpayable",
      "type": "function"
    },
    {
      "inputs": [
        {
          "internalType": "uint256",
          "name": "tokenId",
          "type": "uint256"
        }
      ],
      "name": "getApproved",
      "outputs": [
        {
          "internalType": "address",
          "name": "",
          "type": "address"
        }
      ],
      "stateMutability": "view",
      "type": "function"
    },
    {
      "inputs": [
        {
          "internalType": "address",
          "name": "owner",
          "type": "address"
        },
        {
          "internalType": "address",
          "name": "operator",
          "type": "address"
        }
      ],
      "name": "isApprovedForAll",
      "outputs": [
        {
          "internalType": "bool",
          "name": "",
          "type": "bool"
        }
      ],
      "stateMutability": "view",
      "type": "function"
    },
    {
      "inputs": [],
      "name": "name",
      "outputs": [
        {
          "internalType": "string",
          "name": "",
          "type": "string"
        }
      ],
      "stateMutability": "view",
      "type": "function"
    },
    {
      "inputs": [],
      "name": "nftBridge",
      "outputs": [
        {
          "internalType": "address",
          "name": "",
          "type": "address"
        }
      ],
      "stateMutability": "view",
      "type": "function"
    },
    {
      "inputs": [
        {
          "internalType": "uint256",
          "name": "tokenId",
          "type": "uint256"
        }
      ],
      "name": "ownerOf",
      "outputs": [
        {
          "internalType": "address",
          "name": "",
          "type": "address"
        }
      ],
      "stateMutability": "view",
      "type": "function"
    },
    {
      "inputs": [
        {
          "internalType": "address",
          "name": "from",
          "type": "address"
        },
        {
          "internalType": "address",
          "name": "to",
          "type": "address"
        },
        {
          "internalType": "uint256",
          "name": "tokenId",
          "type": "uint256"
        }
      ],
      "name": "safeTransferFrom",
      "outputs": [],
      "stateMutability": "nonpayable",
      "type": "function"
    },
    {
      "inputs": [
        {
          "internalType": "address",
          "name": "from",
          "type": "address"
        },
        {
          "internalType": "address",
          "name": "to",
          "type": "address"
        },
        {
          "internalType": "uint256",
          "name": "tokenId",
          "type": "uint256"
        },
        {
          "internalType": "bytes",
          "name": "data",
          "type": "bytes"
        }
      ],
      "name": "safeTransferFrom",
      "outputs": [],
      "stateMutability": "nonpayable",
      "type": "function"
    },
    {
      "inputs": [
        {
          "internalType": "address",
          "name": "operator",
          "type": "address"
        },
        {
          "internalType": "bool",
          "name": "approved",
          "type": "bool"
        }
      ],
      "name": "setApprovalForAll",
      "outputs": [],
      "stateMutability": "nonpayable",
      "type": "function"
    },
    {
      "inputs": [
        {
          "internalType": "bytes4",
          "name": "interfaceId",
          "type": "bytes4"
        }
      ],
      "name": "supportsInterface",
      "outputs": [
        {
          "internalType": "bool",
          "name": "",
          "type": "bool"
        }
      ],
      "stateMutability": "view",
      "type": "function"
    },
    {
      "inputs": [],
      "name": "symbol",
      "outputs": [
        {
          "internalType": "string",
          "name": "",
          "type": "string"
        }
      ],
      "stateMutability": "view",
      "type": "function"
    },
    {
      "inputs": [
        {
          "internalType": "uint256",
          "name": "tokenId",
          "type": "uint256"
        }
      ],
      "name": "tokenURI",
      "outputs": [
        {
          "internalType": "string",
          "name": "",
          "type": "string"
        }
      ],
      "stateMutability": "view",
      "type": "function"
    },
    {
      "inputs": [
        {
          "internalType": "address",
          "name": "from",
          "type": "address"
        },
        {
          "internalType": "address",
          "name": "to",
          "type": "address"
        },
        {
          "internalType": "uint256",
          "name": "tokenId",
          "type": "uint256"
        }
      ],
      "name": "transferFrom",
      "outputs": [],
      "stateMutability": "nonpayable",
      "type": "function"
    }
  ],
  "bytecode": "0x60a06040523480156200001157600080fd5b50604051620030c9380380620030c983398181016040528101906200003791906200035c565b8282816000908051906020019062000051929190620000aa565b5080600190805190602001906200006a929190620000aa565b5050508073ffffffffffffffffffffffffffffffffffffffff1660808173ffffffffffffffffffffffffffffffffffffffff16815250505050506200045b565b828054620000b89062000425565b90600052602060002090601f016020900481019282620000dc576000855562000128565b82601f10620000f757805160ff191683800117855562000128565b8280016001018555821562000128579182015b82811115620001275782518255916020019190600101906200010a565b5b5090506200013791906200013b565b5090565b5b80821115620001565760008160009055506001016200013c565b5090565b6000604051905090565b600080fd5b600080fd5b600080fd5b600080fd5b6000601f19601f8301169050919050565b7f4e487b7100000000000000000000000000000000000000000000000000000000600052604160045260246000fd5b620001c38262000178565b810181811067ffffffffffffffff82111715620001e557620001e462000189565b5b80604052505050565b6000620001fa6200015a565b9050620002088282620001b8565b919050565b600067ffffffffffffffff8211156200022b576200022a62000189565b5b620002368262000178565b9050602081019050919050565b60005b838110156200026357808201518184015260208101905062000246565b8381111562000273576000848401525b50505050565b6000620002906200028a846200020d565b620001ee565b905082815260208101848484011115620002af57620002ae62000173565b5b620002bc84828562000243565b509392505050565b600082601f830112620002dc57620002db6200016e565b5b8151620002ee84826020860162000279565b91505092915050565b600073ffffffffffffffffffffffffffffffffffffffff82169050919050565b60006200032482620002f7565b9050919050565b620003368162000317565b81146200034257600080fd5b50565b60008151905062000356816200032b565b92915050565b60008060006060848603121562000378576200037762000164565b5b600084015167ffffffffffffffff81111562000399576200039862000169565b5b620003a786828701620002c4565b935050602084015167ffffffffffffffff811115620003cb57620003ca62000169565b5b620003d986828701620002c4565b9250506040620003ec8682870162000345565b9150509250925092565b7f4e487b7100000000000000000000000000000000000000000000000000000000600052602260045260246000fd5b600060028204905060018216806200043e57607f821691505b60208210811415620004555762000454620003f6565b5b50919050565b608051612c446200048560003960008181610697015281816107b801526109bf0152612c446000f3fe608060405234801561001057600080fd5b50600436106101005760003560e01c806367d74de211610097578063af91b17411610066578063af91b174146102a9578063b88d4fde146102c7578063c87b56dd146102e3578063e985e9c51461031357610100565b806367d74de21461022357806370a082311461023f57806395d89b411461026f578063a22cb4651461028d57610100565b806323b872dd116100d357806323b872dd1461019f57806342842e0e146101bb57806342966c68146101d75780636352211e146101f357610100565b806301ffc9a71461010557806306fdde0314610135578063081812fc14610153578063095ea7b314610183575b600080fd5b61011f600480360381019061011a9190611d28565b610343565b60405161012c9190611d70565b60405180910390f35b61013d610425565b60405161014a9190611e24565b60405180910390f35b61016d60048036038101906101689190611e7c565b6104b7565b60405161017a9190611eea565b60405180910390f35b61019d60048036038101906101989190611f31565b6104fd565b005b6101b960048036038101906101b49190611f71565b610615565b005b6101d560048036038101906101d09190611f71565b610675565b005b6101f160048036038101906101ec9190611e7c565b610695565b005b61020d60048036038101906102089190611e7c565b61072f565b60405161021a9190611eea565b60405180910390f35b61023d600480360381019061023891906120f9565b6107b6565b005b61025960048036038101906102549190612168565b61085d565b60405161026691906121a4565b60405180910390f35b610277610915565b6040516102849190611e24565b60405180910390f35b6102a760048036038101906102a291906121eb565b6109a7565b005b6102b16109bd565b6040516102be9190611eea565b60405180910390f35b6102e160048036038101906102dc91906122cc565b6109e1565b005b6102fd60048036038101906102f89190611e7c565b610a43565b60405161030a9190611e24565b60405180910390f35b61032d6004803603810190610328919061234f565b610b56565b60405161033a9190611d70565b60405180910390f35b60007f80ac58cd000000000000000000000000000000000000000000000000000000007bffffffffffffffffffffffffffffffffffffffffffffffffffffffff1916827bffffffffffffffffffffffffffffffffffffffffffffffffffffffff1916148061040e57507f5b5e139f000000000000000000000000000000000000000000000000000000007bffffffffffffffffffffffffffffffffffffffffffffffffffffffff1916827bffffffffffffffffffffffffffffffffffffffffffffffffffffffff1916145b8061041e575061041d82610bea565b5b9050919050565b606060008054610434906123be565b80601f0160208091040260200160405190810160405280929190818152602001828054610460906123be565b80156104ad5780601f10610482576101008083540402835291602001916104ad565b820191906000526020600020905b81548152906001019060200180831161049057829003601f168201915b5050505050905090565b60006104c282610c54565b6004600083815260200190815260200160002060009054906101000a900473ffffffffffffffffffffffffffffffffffffffff169050919050565b60006105088261072f565b90508073ffffffffffffffffffffffffffffffffffffffff168373ffffffffffffffffffffffffffffffffffffffff161415610579576040517f08c379a000000000000000000000000000000000000000000000000000000000815260040161057090612462565b60405180910390fd5b8073ffffffffffffffffffffffffffffffffffffffff16610598610c9f565b73ffffffffffffffffffffffffffffffffffffffff1614806105c757506105c6816105c1610c9f565b610b56565b5b610606576040517f08c379a00000000000000000000000000000000000000000000000000000000081526004016105fd906124f4565b60405180910390fd5b6106108383610ca7565b505050565b610626610620610c9f565b82610d60565b610665576040517f08c379a000000000000000000000000000000000000000000000000000000000815260040161065c90612586565b60405180910390fd5b610670838383610df5565b505050565b610690838383604051806020016040528060008152506109e1565b505050565b7f000000000000000000000000000000000000000000000000000000000000000073ffffffffffffffffffffffffffffffffffffffff163373ffffffffffffffffffffffffffffffffffffffff1614610723576040517f08c379a000000000000000000000000000000000000000000000000000000000815260040161071a906125f2565b60405180910390fd5b61072c816110ef565b50565b60008061073b83611142565b9050600073ffffffffffffffffffffffffffffffffffffffff168173ffffffffffffffffffffffffffffffffffffffff1614156107ad576040517f08c379a00000000000000000000000000000000000000000000000000000000081526004016107a49061265e565b60405180910390fd5b80915050919050565b7f000000000000000000000000000000000000000000000000000000000000000073ffffffffffffffffffffffffffffffffffffffff163373ffffffffffffffffffffffffffffffffffffffff1614610844576040517f08c379a000000000000000000000000000000000000000000000000000000000815260040161083b906125f2565b60405180910390fd5b61084e838361117f565b610858828261139d565b505050565b60008073ffffffffffffffffffffffffffffffffffffffff168273ffffffffffffffffffffffffffffffffffffffff1614156108ce576040517f08c379a00000000000000000000000000000000000000000000000000000000081526004016108c5906126f0565b60405180910390fd5b600360008373ffffffffffffffffffffffffffffffffffffffff1673ffffffffffffffffffffffffffffffffffffffff168152602001908152602001600020549050919050565b606060018054610924906123be565b80601f0160208091040260200160405190810160405280929190818152602001828054610950906123be565b801561099d5780601f106109725761010080835404028352916020019161099d565b820191906000526020600020905b81548152906001019060200180831161098057829003601f168201915b5050505050905090565b6109b96109b2610c9f565b8383611411565b5050565b7f000000000000000000000000000000000000000000000000000000000000000081565b6109f26109ec610c9f565b83610d60565b610a31576040517f08c379a0000000000000000000000000000000000000000000000000000000008152600401610a2890612586565b60405180910390fd5b610a3d8484848461157e565b50505050565b6060610a4e82610c54565b6000600660008481526020019081526020016000208054610a6e906123be565b80601f0160208091040260200160405190810160405280929190818152602001828054610a9a906123be565b8015610ae75780601f10610abc57610100808354040283529160200191610ae7565b820191906000526020600020905b815481529060010190602001808311610aca57829003601f168201915b505050505090506000610af86115da565b9050600081511415610b0e578192505050610b51565b600082511115610b43578082604051602001610b2b92919061274c565b60405160208183030381529060405292505050610b51565b610b4c846115f1565b925050505b919050565b6000600560008473ffffffffffffffffffffffffffffffffffffffff1673ffffffffffffffffffffffffffffffffffffffff16815260200190815260200160002060008373ffffffffffffffffffffffffffffffffffffffff1673ffffffffffffffffffffffffffffffffffffffff16815260200190815260200160002060009054906101000a900460ff16905092915050565b60007f01ffc9a7000000000000000000000000000000000000000000000000000000007bffffffffffffffffffffffffffffffffffffffffffffffffffffffff1916827bffffffffffffffffffffffffffffffffffffffffffffffffffffffff1916149050919050565b610c5d81611659565b610c9c576040517f08c379a0000000000000000000000000000000000000000000000000000000008152600401610c939061265e565b60405180910390fd5b50565b600033905090565b816004600083815260200190815260200160002060006101000a81548173ffffffffffffffffffffffffffffffffffffffff021916908373ffffffffffffffffffffffffffffffffffffffff160217905550808273ffffffffffffffffffffffffffffffffffffffff16610d1a8361072f565b73ffffffffffffffffffffffffffffffffffffffff167f8c5be1e5ebec7d5bd14f71427d1e84f3dd0314c0f7b2291e5b200ac8c7c3b92560405160405180910390a45050565b600080610d6c8361072f565b90508073ffffffffffffffffffffffffffffffffffffffff168473ffffffffffffffffffffffffffffffffffffffff161480610dae5750610dad8185610b56565b5b80610dec57508373ffffffffffffffffffffffffffffffffffffffff16610dd4846104b7565b73ffffffffffffffffffffffffffffffffffffffff16145b91505092915050565b8273ffffffffffffffffffffffffffffffffffffffff16610e158261072f565b73ffffffffffffffffffffffffffffffffffffffff1614610e6b576040517f08c379a0000000000000000000000000000000000000000000000000000000008152600401610e62906127e2565b60405180910390fd5b600073ffffffffffffffffffffffffffffffffffffffff168273ffffffffffffffffffffffffffffffffffffffff161415610edb576040517f08c379a0000000000000000000000000000000000000000000000000000000008152600401610ed290612874565b60405180910390fd5b610ee8838383600161169a565b8273ffffffffffffffffffffffffffffffffffffffff16610f088261072f565b73ffffffffffffffffffffffffffffffffffffffff1614610f5e576040517f08c379a0000000000000000000000000000000000000000000000000000000008152600401610f55906127e2565b60405180910390fd5b6004600082815260200190815260200160002060006101000a81549073ffffffffffffffffffffffffffffffffffffffff02191690556001600360008573ffffffffffffffffffffffffffffffffffffffff1673ffffffffffffffffffffffffffffffffffffffff168152602001908152602001600020600082825403925050819055506001600360008473ffffffffffffffffffffffffffffffffffffffff1673ffffffffffffffffffffffffffffffffffffffff16815260200190815260200160002060008282540192505081905550816002600083815260200190815260200160002060006101000a81548173ffffffffffffffffffffffffffffffffffffffff021916908373ffffffffffffffffffffffffffffffffffffffff160217905550808273ffffffffffffffffffffffffffffffffffffffff168473ffffffffffffffffffffffffffffffffffffffff167fddf252ad1be2c89b69c2b068fc378daa952ba7f163c4a11628f55a4df523b3ef60405160405180910390a46110ea83838360016116a0565b505050565b6110f8816116a6565b6000600660008381526020019081526020016000208054611118906123be565b90501461113f5760066000828152602001908152602001600020600061113e9190611bd9565b5b50565b60006002600083815260200190815260200160002060009054906101000a900473ffffffffffffffffffffffffffffffffffffffff169050919050565b600073ffffffffffffffffffffffffffffffffffffffff168273ffffffffffffffffffffffffffffffffffffffff1614156111ef576040517f08c379a00000000000000000000000000000000000000000000000000000000081526004016111e6906128e0565b60405180910390fd5b6111f881611659565b15611238576040517f08c379a000000000000000000000000000000000000000000000000000000000815260040161122f9061294c565b60405180910390fd5b61124660008383600161169a565b61124f81611659565b1561128f576040517f08c379a00000000000000000000000000000000000000000000000000000000081526004016112869061294c565b60405180910390fd5b6001600360008473ffffffffffffffffffffffffffffffffffffffff1673ffffffffffffffffffffffffffffffffffffffff16815260200190815260200160002060008282540192505081905550816002600083815260200190815260200160002060006101000a81548173ffffffffffffffffffffffffffffffffffffffff021916908373ffffffffffffffffffffffffffffffffffffffff160217905550808273ffffffffffffffffffffffffffffffffffffffff16600073ffffffffffffffffffffffffffffffffffffffff167fddf252ad1be2c89b69c2b068fc378daa952ba7f163c4a11628f55a4df523b3ef60405160405180910390a46113996000838360016116a0565b5050565b6113a682611659565b6113e5576040517f08c379a00000000000000000000000000000000000000000000000000000000081526004016113dc906129de565b60405180910390fd5b8060066000848152602001908152602001600020908051906020019061140c929190611c19565b505050565b8173ffffffffffffffffffffffffffffffffffffffff168373ffffffffffffffffffffffffffffffffffffffff161415611480576040517f08c379a000000000000000000000000000000000000000000000000000000000815260040161147790612a4a565b60405180910390fd5b80600560008573ffffffffffffffffffffffffffffffffffffffff1673ffffffffffffffffffffffffffffffffffffffff16815260200190815260200160002060008473ffffffffffffffffffffffffffffffffffffffff1673ffffffffffffffffffffffffffffffffffffffff16815260200190815260200160002060006101000a81548160ff0219169083151502179055508173ffffffffffffffffffffffffffffffffffffffff168373ffffffffffffffffffffffffffffffffffffffff167f17307eab39ab6107e8899845ad3d59bd9653f200f220920489ca2b5937696c31836040516115719190611d70565b60405180910390a3505050565b611589848484610df5565b611595848484846117f4565b6115d4576040517f08c379a00000000000000000000000000000000000000000000000000000000081526004016115cb90612adc565b60405180910390fd5b50505050565b606060405180602001604052806000815250905090565b60606115fc82610c54565b60006116066115da565b905060008151116116265760405180602001604052806000815250611651565b806116308461198b565b60405160200161164192919061274c565b6040516020818303038152906040525b915050919050565b60008073ffffffffffffffffffffffffffffffffffffffff1661167b83611142565b73ffffffffffffffffffffffffffffffffffffffff1614159050919050565b50505050565b50505050565b60006116b18261072f565b90506116c181600084600161169a565b6116ca8261072f565b90506004600083815260200190815260200160002060006101000a81549073ffffffffffffffffffffffffffffffffffffffff02191690556001600360008373ffffffffffffffffffffffffffffffffffffffff1673ffffffffffffffffffffffffffffffffffffffff168152602001908152602001600020600082825403925050819055506002600083815260200190815260200160002060006101000a81549073ffffffffffffffffffffffffffffffffffffffff021916905581600073ffffffffffffffffffffffffffffffffffffffff168273ffffffffffffffffffffffffffffffffffffffff167fddf252ad1be2c89b69c2b068fc378daa952ba7f163c4a11628f55a4df523b3ef60405160405180910390a46117f08160008460016116a0565b5050565b60006118158473ffffffffffffffffffffffffffffffffffffffff16611a63565b1561197e578373ffffffffffffffffffffffffffffffffffffffff1663150b7a0261183e610c9f565b8786866040518563ffffffff1660e01b81526004016118609493929190612b51565b602060405180830381600087803b15801561187a57600080fd5b505af19250505080156118ab57506040513d601f19601f820116820180604052508101906118a89190612bb2565b60015b61192e573d80600081146118db576040519150601f19603f3d011682016040523d82523d6000602084013e6118e0565b606091505b50600081511415611926576040517f08c379a000000000000000000000000000000000000000000000000000000000815260040161191d90612adc565b60405180910390fd5b805181602001fd5b63150b7a0260e01b7bffffffffffffffffffffffffffffffffffffffffffffffffffffffff1916817bffffffffffffffffffffffffffffffffffffffffffffffffffffffff191614915050611983565b600190505b949350505050565b60606000600161199a84611a86565b01905060008167ffffffffffffffff8111156119b9576119b8611fce565b5b6040519080825280601f01601f1916602001820160405280156119eb5781602001600182028036833780820191505090505b509050600082602001820190505b600115611a58578080600190039150507f3031323334353637383961626364656600000000000000000000000000000000600a86061a8153600a8581611a4257611a41612bdf565b5b0494506000851415611a5357611a58565b6119f9565b819350505050919050565b6000808273ffffffffffffffffffffffffffffffffffffffff163b119050919050565b600080600090507a184f03e93ff9f4daa797ed6e38ed64bf6a1f0100000000000000008310611ae4577a184f03e93ff9f4daa797ed6e38ed64bf6a1f0100000000000000008381611ada57611ad9612bdf565b5b0492506040810190505b6d04ee2d6d415b85acef81000000008310611b21576d04ee2d6d415b85acef81000000008381611b1757611b16612bdf565b5b0492506020810190505b662386f26fc100008310611b5057662386f26fc100008381611b4657611b45612bdf565b5b0492506010810190505b6305f5e1008310611b79576305f5e1008381611b6f57611b6e612bdf565b5b0492506008810190505b6127108310611b9e576127108381611b9457611b93612bdf565b5b0492506004810190505b60648310611bc15760648381611bb757611bb6612bdf565b5b0492506002810190505b600a8310611bd0576001810190505b80915050919050565b508054611be5906123be565b6000825580601f10611bf75750611c16565b601f016020900490600052602060002090810190611c159190611c9f565b5b50565b828054611c25906123be565b90600052602060002090601f016020900481019282611c475760008555611c8e565b82601f10611c6057805160ff1916838001178555611c8e565b82800160010185558215611c8e579182015b82811115611c8d578251825591602001919060010190611c72565b5b509050611c9b9190611c9f565b5090565b5b80821115611cb8576000816000905550600101611ca0565b5090565b6000604051905090565b600080fd5b600080fd5b60007fffffffff0000000000000000000000000000000000000000000000000000000082169050919050565b611d0581611cd0565b8114611d1057600080fd5b50565b600081359050611d2281611cfc565b92915050565b600060208284031215611d3e57611d3d611cc6565b5b6000611d4c84828501611d13565b91505092915050565b60008115159050919050565b611d6a81611d55565b82525050565b6000602082019050611d856000830184611d61565b92915050565b600081519050919050565b600082825260208201905092915050565b60005b83811015611dc5578082015181840152602081019050611daa565b83811115611dd4576000848401525b50505050565b6000601f19601f8301169050919050565b6000611df682611d8b565b611e008185611d96565b9350611e10818560208601611da7565b611e1981611dda565b840191505092915050565b60006020820190508181036000830152611e3e8184611deb565b905092915050565b6000819050919050565b611e5981611e46565b8114611e6457600080fd5b50565b600081359050611e7681611e50565b92915050565b600060208284031215611e9257611e91611cc6565b5b6000611ea084828501611e67565b91505092915050565b600073ffffffffffffffffffffffffffffffffffffffff82169050919050565b6000611ed482611ea9565b9050919050565b611ee481611ec9565b82525050565b6000602082019050611eff6000830184611edb565b92915050565b611f0e81611ec9565b8114611f1957600080fd5b50565b600081359050611f2b81611f05565b92915050565b60008060408385031215611f4857611f47611cc6565b5b6000611f5685828601611f1c565b9250506020611f6785828601611e67565b9150509250929050565b600080600060608486031215611f8a57611f89611cc6565b5b6000611f9886828701611f1c565b9350506020611fa986828701611f1c565b9250506040611fba86828701611e67565b9150509250925092565b600080fd5b600080fd5b7f4e487b7100000000000000000000000000000000000000000000000000000000600052604160045260246000fd5b61200682611dda565b810181811067ffffffffffffffff8211171561202557612024611fce565b5b80604052505050565b6000612038611cbc565b90506120448282611ffd565b919050565b600067ffffffffffffffff82111561206457612063611fce565b5b61206d82611dda565b9050602081019050919050565b82818337600083830152505050565b600061209c61209784612049565b61202e565b9050828152602081018484840111156120b8576120b7611fc9565b5b6120c384828561207a565b509392505050565b600082601f8301126120e0576120df611fc4565b5b81356120f0848260208601612089565b91505092915050565b60008060006060848603121561211257612111611cc6565b5b600061212086828701611f1c565b935050602061213186828701611e67565b925050604084013567ffffffffffffffff81111561215257612151611ccb565b5b61215e868287016120cb565b9150509250925092565b60006020828403121561217e5761217d611cc6565b5b600061218c84828501611f1c565b91505092915050565b61219e81611e46565b82525050565b60006020820190506121b96000830184612195565b92915050565b6121c881611d55565b81146121d357600080fd5b50565b6000813590506121e5816121bf565b92915050565b6000806040838503121561220257612201611cc6565b5b600061221085828601611f1c565b9250506020612221858286016121d6565b9150509250929050565b600067ffffffffffffffff82111561224657612245611fce565b5b61224f82611dda565b9050602081019050919050565b600061226f61226a8461222b565b61202e565b90508281526020810184848401111561228b5761228a611fc9565b5b61229684828561207a565b509392505050565b600082601f8301126122b3576122b2611fc4565b5b81356122c384826020860161225c565b91505092915050565b600080600080608085870312156122e6576122e5611cc6565b5b60006122f487828801611f1c565b945050602061230587828801611f1c565b935050604061231687828801611e67565b925050606085013567ffffffffffffffff81111561233757612336611ccb565b5b6123438782880161229e565b91505092959194509250565b6000806040838503121561236657612365611cc6565b5b600061237485828601611f1c565b925050602061238585828601611f1c565b9150509250929050565b7f4e487b7100000000000000000000000000000000000000000000000000000000600052602260045260246000fd5b600060028204905060018216806123d657607f821691505b602082108114156123ea576123e961238f565b5b50919050565b7f4552433732313a20617070726f76616c20746f2063757272656e74206f776e6560008201527f7200000000000000000000000000000000000000000000000000000000000000602082015250565b600061244c602183611d96565b9150612457826123f0565b604082019050919050565b6000602082019050818103600083015261247b8161243f565b9050919050565b7f4552433732313a20617070726f76652063616c6c6572206973206e6f7420746f60008201527f6b656e206f776e6572206f7220617070726f76656420666f7220616c6c000000602082015250565b60006124de603d83611d96565b91506124e982612482565b604082019050919050565b6000602082019050818103600083015261250d816124d1565b9050919050565b7f4552433732313a2063616c6c6572206973206e6f7420746f6b656e206f776e6560008201527f72206f7220617070726f76656400000000000000000000000000000000000000602082015250565b6000612570602d83611d96565b915061257b82612514565b604082019050919050565b6000602082019050818103600083015261259f81612563565b9050919050565b7f63616c6c6572206973206e6f7420627269646765000000000000000000000000600082015250565b60006125dc601483611d96565b91506125e7826125a6565b602082019050919050565b6000602082019050818103600083015261260b816125cf565b9050919050565b7f4552433732313a20696e76616c696420746f6b656e2049440000000000000000600082015250565b6000612648601883611d96565b915061265382612612565b602082019050919050565b600060208201905081810360008301526126778161263b565b9050919050565b7f4552433732313a2061646472657373207a65726f206973206e6f74206120766160008201527f6c6964206f776e65720000000000000000000000000000000000000000000000602082015250565b60006126da602983611d96565b91506126e58261267e565b604082019050919050565b60006020820190508181036000830152612709816126cd565b9050919050565b600081905092915050565b600061272682611d8b565b6127308185612710565b9350612740818560208601611da7565b80840191505092915050565b6000612758828561271b565b9150612764828461271b565b91508190509392505050565b7f4552433732313a207472616e736665722066726f6d20696e636f72726563742060008201527f6f776e6572000000000000000000000000000000000000000000000000000000602082015250565b60006127cc602583611d96565b91506127d782612770565b604082019050919050565b600060208201905081810360008301526127fb816127bf565b9050919050565b7f4552433732313a207472616e7366657220746f20746865207a65726f2061646460008201527f7265737300000000000000000000000000000000000000000000000000000000602082015250565b600061285e602483611d96565b915061286982612802565b604082019050919050565b6000602082019050818103600083015261288d81612851565b9050919050565b7f4552433732313a206d696e7420746f20746865207a65726f2061646472657373600082015250565b60006128ca602083611d96565b91506128d582612894565b602082019050919050565b600060208201905081810360008301526128f9816128bd565b9050919050565b7f4552433732313a20746f6b656e20616c7265616479206d696e74656400000000600082015250565b6000612936601c83611d96565b915061294182612900565b602082019050919050565b6000602082019050818103600083015261296581612929565b9050919050565b7f45524337323155524953746f726167653a2055524920736574206f66206e6f6e60008201527f6578697374656e7420746f6b656e000000000000000000000000000000000000602082015250565b60006129c8602e83611d96565b91506129d38261296c565b604082019050919050565b600060208201905081810360008301526129f7816129bb565b9050919050565b7f4552433732313a20617070726f766520746f2063616c6c657200000000000000600082015250565b6000612a34601983611d96565b9150612a3f826129fe565b602082019050919050565b60006020820190508181036000830152612a6381612a27565b9050919050565b7f4552433732313a207472616e7366657220746f206e6f6e20455243373231526560008201527f63656976657220696d706c656d656e7465720000000000000000000000000000602082015250565b6000612ac6603283611d96565b9150612ad182612a6a565b604082019050919050565b60006020820190508181036000830152612af581612ab9565b9050919050565b600081519050919050565b600082825260208201905092915050565b6000612b2382612afc565b612b2d8185612b07565b9350612b3d818560208601611da7565b612b4681611dda565b840191505092915050565b6000608082019050612b666000830187611edb565b612b736020830186611edb565b612b806040830185612195565b8181036060830152612b928184612b18565b905095945050505050565b600081519050612bac81611cfc565b92915050565b600060208284031215612bc857612bc7611cc6565b5b6000612bd684828501612b9d565b91505092915050565b7f4e487b7100000000000000000000000000000000000000000000000000000000600052601260045260246000fdfea26469706673582212203b197526804bf35577fa693b0d071bc4f99b3cf07188d0907ba54ad6a9c7e1fc64736f6c63430008090033",
  "linkReferences": {},
  "deployedLinkReferences": {}
}