{
  "_format": "hh-sol-artifact-1",
  "contractName": "OptimismGasHelper",
  "sourceName": "contracts/OptimismGasHelper.sol",
  "abi": [
    {
      "inputs": [
        {
          "internalType": "uint256",
          "name": "_l1BaseFee",
          "type": "uint256"
        }
      ],
      "stateMutability": "nonpayable",
      "type": "constructor"
    },
    {
      "inputs": [],
      "name": "decimals",
      "outputs": [
        {
          "internalType": "uint256",
          "name": "",
          "type": "uint256"
        }
      ],
      "stateMutability": "view",
      "type": "function"
    },
    {
      "inputs": [],
      "name": "gasPrice",
      "outputs": [
        {
          "internalType": "uint256",
          "name": "",
          "type": "uint256"
        }
      ],
      "stateMutability": "view",
      "type": "function"
    },
    {
      "inputs": [
        {
          "internalType": "bytes",
          "name": "_data",
          "type": "bytes"
        }
      ],
      "name": "getL1Fee",
      "outputs": [
        {
          "internalType": "uint256",
          "name": "",
          "type": "uint256"
        }
      ],
      "stateMutability": "view",
      "type": "function"
    },
    {
      "inputs": [
        {
          "internalType": "bytes",
          "name": "_data",
          "type": "bytes"
        }
      ],
      "name": "getL1GasUsed",
      "outputs": [
        {
          "internalType": "uint256",
          "name": "",
          "type": "uint256"
        }
      ],
      "stateMutability": "view",
      "type": "function"
    },
    {
      "inputs": [],
      "name": "l1BaseFee",
      "outputs": [
        {
          "internalType": "uint256",
          "name": "",
          "type": "uint256"
        }
      ],
      "stateMutability": "view",
      "type": "function"
    },
    {
      "inputs": [],
      "name": "maxUint256",
      "outputs": [
        {
          "internalType": "uint256",
          "name": "",
          "type": "uint256"
        }
      ],
      "stateMutability": "view",
      "type": "function"
    },
    {
      "inputs": [],
      "name": "overhead",
      "outputs": [
        {
          "internalType": "uint256",
          "name": "",
          "type": "uint256"
        }
      ],
      "stateMutability": "view",
      "type": "function"
    },
    {
      "inputs": [],
      "name": "scalar",
      "outputs": [
        {
          "internalType": "uint256",
          "name": "",
          "type": "uint256"
        }
      ],
      "stateMutability": "view",
      "type": "function"
    }
  ],
  "bytecode": "0x6080604052620f4240600055610834600255620f4240600355600660045534801561002957600080fd5b5060405161053a38038061053a83398101604081905261004891610062565b60018181556100599060001961007b565b600555506100a2565b60006020828403121561007457600080fd5b5051919050565b8181038181111561009c57634e487b7160e01b600052601160045260246000fd5b92915050565b610489806100b16000396000f3fe608060405234801561001057600080fd5b50600436106100885760003560e01c8063b93308291161005b578063b9330829146100cd578063de26c4a1146100d6578063f45e65d8146100e9578063fe173b97146100f257600080fd5b80630c18c1621461008d578063313ce567146100a857806349948e0e146100b1578063519b4bd3146100c4575b600080fd5b61009660025481565b60405190815260200160405180910390f35b61009660045481565b6100966100bf366004610214565b6100fb565b61009660015481565b61009660055481565b6100966100e4366004610214565b610157565b61009660035481565b61009660005481565b60008061010783610157565b905060006001548261011991906102db565b90506000600454600a61012c91906103dc565b905060006003548361013e91906102db565b9050600061014c83836103ef565b979650505050505050565b600080805b83518110156101d75783818151811061017757610177610411565b01602001517fff00000000000000000000000000000000000000000000000000000000000000166000036101b7576101b0600483610427565b91506101c5565b6101c2601083610427565b91505b806101cf8161043a565b91505061015c565b506000600254826101e89190610427565b90506101f681610440610427565b949350505050565b634e487b7160e01b600052604160045260246000fd5b60006020828403121561022657600080fd5b813567ffffffffffffffff8082111561023e57600080fd5b818401915084601f83011261025257600080fd5b813581811115610264576102646101fe565b604051601f8201601f19908116603f0116810190838211818310171561028c5761028c6101fe565b816040528281528760208487010111156102a557600080fd5b826020860160208301376000928101602001929092525095945050505050565b634e487b7160e01b600052601160045260246000fd5b80820281158282048414176102f2576102f26102c5565b92915050565b600181815b80851115610333578160001904821115610319576103196102c5565b8085161561032657918102915b93841c93908002906102fd565b509250929050565b60008261034a575060016102f2565b81610357575060006102f2565b816001811461036d576002811461037757610393565b60019150506102f2565b60ff841115610388576103886102c5565b50506001821b6102f2565b5060208310610133831016604e8410600b84101617156103b6575081810a6102f2565b6103c083836102f8565b80600019048211156103d4576103d46102c5565b029392505050565b60006103e8838361033b565b9392505050565b60008261040c57634e487b7160e01b600052601260045260246000fd5b500490565b634e487b7160e01b600052603260045260246000fd5b808201808211156102f2576102f26102c5565b60006001820161044c5761044c6102c5565b506001019056fea2646970667358221220377d978b5f4ed5b03c909464455e0024a02d167108c2bf64a0d029f47a72f92e64736f6c63430008110033",
  "linkReferences": {},
  "deployedLinkReferences": {}
}