{
  "_format": "hh-sol-artifact-1",
  "contractName": "WatcherManager",
  "sourceName": "contracts/messaging/WatcherManager.sol",
  "abi": [
    {
      "inputs": [],
      "stateMutability": "nonpayable",
      "type": "constructor"
    },
    {
      "inputs": [],
      "name": "ProposedOwnable__onlyOwner_notOwner",
      "type": "error"
    },
    {
      "inputs": [],
      "name": "ProposedOwnable__onlyProposed_notProposedOwner",
      "type": "error"
    },
    {
      "inputs": [],
      "name": "ProposedOwnable__ownershipDelayElapsed_delayNotElapsed",
      "type": "error"
    },
    {
      "inputs": [],
      "name": "ProposedOwnable__proposeNewOwner_invalidProposal",
      "type": "error"
    },
    {
      "inputs": [],
      "name": "ProposedOwnable__proposeNewOwner_noOwnershipChange",
      "type": "error"
    },
    {
      "inputs": [],
      "name": "ProposedOwnable__renounceOwnership_invalidProposal",
      "type": "error"
    },
    {
      "inputs": [],
      "name": "ProposedOwnable__renounceOwnership_noProposal",
      "type": "error"
    },
    {
      "anonymous": false,
      "inputs": [
        {
          "indexed": true,
          "internalType": "address",
          "name": "proposedOwner",
          "type": "address"
        }
      ],
      "name": "OwnershipProposed",
      "type": "event"
    },
    {
      "anonymous": false,
      "inputs": [
        {
          "indexed": true,
          "internalType": "address",
          "name": "previousOwner",
          "type": "address"
        },
        {
          "indexed": true,
          "internalType": "address",
          "name": "newOwner",
          "type": "address"
        }
      ],
      "name": "OwnershipTransferred",
      "type": "event"
    },
    {
      "anonymous": false,
      "inputs": [
        {
          "indexed": false,
          "internalType": "address",
          "name": "watcher",
          "type": "address"
        }
      ],
      "name": "WatcherAdded",
      "type": "event"
    },
    {
      "anonymous": false,
      "inputs": [
        {
          "indexed": false,
          "internalType": "address",
          "name": "watcher",
          "type": "address"
        }
      ],
      "name": "WatcherRemoved",
      "type": "event"
    },
    {
      "inputs": [],
      "name": "acceptProposedOwner",
      "outputs": [],
      "stateMutability": "nonpayable",
      "type": "function"
    },
    {
      "inputs": [
        {
          "internalType": "address",
          "name": "_watcher",
          "type": "address"
        }
      ],
      "name": "addWatcher",
      "outputs": [],
      "stateMutability": "nonpayable",
      "type": "function"
    },
    {
      "inputs": [],
      "name": "delay",
      "outputs": [
        {
          "internalType": "uint256",
          "name": "",
          "type": "uint256"
        }
      ],
      "stateMutability": "view",
      "type": "function"
    },
    {
      "inputs": [
        {
          "internalType": "address",
          "name": "",
          "type": "address"
        }
      ],
      "name": "isWatcher",
      "outputs": [
        {
          "internalType": "bool",
          "name": "",
          "type": "bool"
        }
      ],
      "stateMutability": "view",
      "type": "function"
    },
    {
      "inputs": [],
      "name": "owner",
      "outputs": [
        {
          "internalType": "address",
          "name": "",
          "type": "address"
        }
      ],
      "stateMutability": "view",
      "type": "function"
    },
    {
      "inputs": [
        {
          "internalType": "address",
          "name": "newlyProposed",
          "type": "address"
        }
      ],
      "name": "proposeNewOwner",
      "outputs": [],
      "stateMutability": "nonpayable",
      "type": "function"
    },
    {
      "inputs": [],
      "name": "proposed",
      "outputs": [
        {
          "internalType": "address",
          "name": "",
          "type": "address"
        }
      ],
      "stateMutability": "view",
      "type": "function"
    },
    {
      "inputs": [],
      "name": "proposedTimestamp",
      "outputs": [
        {
          "internalType": "uint256",
          "name": "",
          "type": "uint256"
        }
      ],
      "stateMutability": "view",
      "type": "function"
    },
    {
      "inputs": [
        {
          "internalType": "address",
          "name": "_watcher",
          "type": "address"
        }
      ],
      "name": "removeWatcher",
      "outputs": [],
      "stateMutability": "nonpayable",
      "type": "function"
    },
    {
      "inputs": [],
      "name": "renounceOwnership",
      "outputs": [],
      "stateMutability": "nonpayable",
      "type": "function"
    },
    {
      "inputs": [],
      "name": "renounced",
      "outputs": [
        {
          "internalType": "bool",
          "name": "",
          "type": "bool"
        }
      ],
      "stateMutability": "view",
      "type": "function"
    }
  ],
  "bytecode": "0x608060405234801561001057600080fd5b506100203361002560201b60201c565b61010d565b8073ffffffffffffffffffffffffffffffffffffffff1660008054906101000a900473ffffffffffffffffffffffffffffffffffffffff1673ffffffffffffffffffffffffffffffffffffffff167f8be0079c531659141344cd1fd0a4f28419497f9722a3daafe3b4186f6b6457e060405160405180910390a3806000806101000a81548173ffffffffffffffffffffffffffffffffffffffff021916908373ffffffffffffffffffffffffffffffffffffffff160217905550600260009055600160006101000a81549073ffffffffffffffffffffffffffffffffffffffff021916905550565b610d458061011c6000396000f3fe608060405234801561001057600080fd5b50600436106100a95760003560e01c80638da5cb5b116100715780638da5cb5b14610140578063b1f8100d1461015e578063c5b350df1461017a578063d1851c9214610184578063d232c220146101a2578063ec2b1345146101c0576100a9565b806324bdff8c146100ae5780633cf52ffb146100ca5780636a42b8f8146100e8578063715018a61461010657806384785ecd14610110575b600080fd5b6100c860048036038101906100c39190610b02565b6101dc565b005b6100d2610380565b6040516100df9190610b48565b60405180910390f35b6100f061038a565b6040516100fd9190610b48565b60405180910390f35b61010e610395565b005b61012a60048036038101906101259190610b02565b61041c565b6040516101379190610b7e565b60405180910390f35b61014861043c565b6040516101559190610ba8565b60405180910390f35b61017860048036038101906101739190610b02565b610465565b005b610182610612565b005b61018c61070f565b6040516101999190610ba8565b60405180910390f35b6101aa610739565b6040516101b79190610b7e565b60405180910390f35b6101da60048036038101906101d59190610b02565b61078f565b005b3373ffffffffffffffffffffffffffffffffffffffff1660008054906101000a900473ffffffffffffffffffffffffffffffffffffffff1673ffffffffffffffffffffffffffffffffffffffff1614610261576040517f8d450dd800000000000000000000000000000000000000000000000000000000815260040160405180910390fd5b600360008273ffffffffffffffffffffffffffffffffffffffff1673ffffffffffffffffffffffffffffffffffffffff16815260200190815260200160002060009054906101000a900460ff16156102ee576040517f08c379a00000000000000000000000000000000000000000000000000000000081526004016102e590610c20565b60405180910390fd5b6001600360008373ffffffffffffffffffffffffffffffffffffffff1673ffffffffffffffffffffffffffffffffffffffff16815260200190815260200160002060006101000a81548160ff0219169083151502179055507fbd71030f437353231b6e5bedade573b1e0da5cb6e8bdde37c33c1fea986c29c7816040516103759190610ba8565b60405180910390a150565b6000600254905090565b600062093a80905090565b3373ffffffffffffffffffffffffffffffffffffffff1660008054906101000a900473ffffffffffffffffffffffffffffffffffffffff1673ffffffffffffffffffffffffffffffffffffffff161461041a576040517f8d450dd800000000000000000000000000000000000000000000000000000000815260040160405180910390fd5b565b60036020528060005260406000206000915054906101000a900460ff1681565b60008060009054906101000a900473ffffffffffffffffffffffffffffffffffffffff16905090565b3373ffffffffffffffffffffffffffffffffffffffff1660008054906101000a900473ffffffffffffffffffffffffffffffffffffffff1673ffffffffffffffffffffffffffffffffffffffff16146104ea576040517f8d450dd800000000000000000000000000000000000000000000000000000000815260040160405180910390fd5b8073ffffffffffffffffffffffffffffffffffffffff16600160009054906101000a900473ffffffffffffffffffffffffffffffffffffffff1673ffffffffffffffffffffffffffffffffffffffff1614801561054a5750600060025414155b15610581576040517f23780cca00000000000000000000000000000000000000000000000000000000815260040160405180910390fd5b8073ffffffffffffffffffffffffffffffffffffffff1660008054906101000a900473ffffffffffffffffffffffffffffffffffffffff1673ffffffffffffffffffffffffffffffffffffffff1603610606576040517f945f6e7e00000000000000000000000000000000000000000000000000000000815260040160405180910390fd5b61060f81610929565b50565b3373ffffffffffffffffffffffffffffffffffffffff16600160009054906101000a900473ffffffffffffffffffffffffffffffffffffffff1673ffffffffffffffffffffffffffffffffffffffff1614610699576040517f234fe4e200000000000000000000000000000000000000000000000000000000815260040160405180910390fd5b62093a80600254426106ab9190610c6f565b116106e2576040517f9380a17c00000000000000000000000000000000000000000000000000000000815260040160405180910390fd5b61070d600160009054906101000a900473ffffffffffffffffffffffffffffffffffffffff166109b7565b565b6000600160009054906101000a900473ffffffffffffffffffffffffffffffffffffffff16905090565b60008073ffffffffffffffffffffffffffffffffffffffff1660008054906101000a900473ffffffffffffffffffffffffffffffffffffffff1673ffffffffffffffffffffffffffffffffffffffff1614905090565b3373ffffffffffffffffffffffffffffffffffffffff1660008054906101000a900473ffffffffffffffffffffffffffffffffffffffff1673ffffffffffffffffffffffffffffffffffffffff1614610814576040517f8d450dd800000000000000000000000000000000000000000000000000000000815260040160405180910390fd5b600360008273ffffffffffffffffffffffffffffffffffffffff1673ffffffffffffffffffffffffffffffffffffffff16815260200190815260200160002060009054906101000a900460ff166108a0576040517f08c379a000000000000000000000000000000000000000000000000000000000815260040161089790610cef565b60405180910390fd5b600360008273ffffffffffffffffffffffffffffffffffffffff1673ffffffffffffffffffffffffffffffffffffffff16815260200190815260200160002060006101000a81549060ff02191690557ffa8eab6357bec870e7048c2413cbaa813236bb29ebac113541a76fef429e94dc8160405161091e9190610ba8565b60405180910390a150565b4260028190555080600160006101000a81548173ffffffffffffffffffffffffffffffffffffffff021916908373ffffffffffffffffffffffffffffffffffffffff1602179055508073ffffffffffffffffffffffffffffffffffffffff167f6ab4d119f23076e8ad491bc65ce85f017fb0591dce08755ba8591059cc51737a60405160405180910390a250565b8073ffffffffffffffffffffffffffffffffffffffff1660008054906101000a900473ffffffffffffffffffffffffffffffffffffffff1673ffffffffffffffffffffffffffffffffffffffff167f8be0079c531659141344cd1fd0a4f28419497f9722a3daafe3b4186f6b6457e060405160405180910390a3806000806101000a81548173ffffffffffffffffffffffffffffffffffffffff021916908373ffffffffffffffffffffffffffffffffffffffff160217905550600260009055600160006101000a81549073ffffffffffffffffffffffffffffffffffffffff021916905550565b600080fd5b600073ffffffffffffffffffffffffffffffffffffffff82169050919050565b6000610acf82610aa4565b9050919050565b610adf81610ac4565b8114610aea57600080fd5b50565b600081359050610afc81610ad6565b92915050565b600060208284031215610b1857610b17610a9f565b5b6000610b2684828501610aed565b91505092915050565b6000819050919050565b610b4281610b2f565b82525050565b6000602082019050610b5d6000830184610b39565b92915050565b60008115159050919050565b610b7881610b63565b82525050565b6000602082019050610b936000830184610b6f565b92915050565b610ba281610ac4565b82525050565b6000602082019050610bbd6000830184610b99565b92915050565b600082825260208201905092915050565b7f616c726561647920776174636865720000000000000000000000000000000000600082015250565b6000610c0a600f83610bc3565b9150610c1582610bd4565b602082019050919050565b60006020820190508181036000830152610c3981610bfd565b9050919050565b7f4e487b7100000000000000000000000000000000000000000000000000000000600052601160045260246000fd5b6000610c7a82610b2f565b9150610c8583610b2f565b9250828203905081811115610c9d57610c9c610c40565b5b92915050565b7f2165786973740000000000000000000000000000000000000000000000000000600082015250565b6000610cd9600683610bc3565b9150610ce482610ca3565b602082019050919050565b60006020820190508181036000830152610d0881610ccc565b905091905056fea26469706673582212203ec0eba30fd4cb0a7c7a93974a4d6932b4b0e7f9b01da367ab557ac4c4f3967664736f6c63430008110033",
  "linkReferences": {},
  "deployedLinkReferences": {}
}