{
  "_format": "hh-sol-artifact-1",
  "contractName": "L2Bridge",
  "sourceName": "contracts/L2Bridge.sol",
  "abi": [
    {
      "inputs": [
        {
          "internalType": "address",
          "name": "_messenger",
          "type": "address"
        },
        {
          "internalType": "address",
          "name": "_otherBridge",
          "type": "address"
        }
      ],
      "stateMutability": "nonpayable",
      "type": "constructor"
    },
    {
      "anonymous": false,
      "inputs": [
        {
          "indexed": true,
          "internalType": "address",
          "name": "localToken",
          "type": "address"
        },
        {
          "indexed": true,
          "internalType": "address",
          "name": "remoteToken",
          "type": "address"
        },
        {
          "indexed": true,
          "internalType": "address",
          "name": "from",
          "type": "address"
        },
        {
          "indexed": false,
          "internalType": "address",
          "name": "to",
          "type": "address"
        },
        {
          "indexed": false,
          "internalType": "uint256",
          "name": "tokenId",
          "type": "uint256"
        },
        {
          "indexed": false,
          "internalType": "bytes",
          "name": "extraData",
          "type": "bytes"
        }
      ],
      "name": "ERC721BridgeFinalized",
      "type": "event"
    },
    {
      "anonymous": false,
      "inputs": [
        {
          "indexed": true,
          "internalType": "address",
          "name": "localToken",
          "type": "address"
        },
        {
          "indexed": true,
          "internalType": "address",
          "name": "remoteToken",
          "type": "address"
        },
        {
          "indexed": true,
          "internalType": "address",
          "name": "from",
          "type": "address"
        },
        {
          "indexed": false,
          "internalType": "address",
          "name": "to",
          "type": "address"
        },
        {
          "indexed": false,
          "internalType": "uint256",
          "name": "tokenId",
          "type": "uint256"
        },
        {
          "indexed": false,
          "internalType": "bytes",
          "name": "extraData",
          "type": "bytes"
        }
      ],
      "name": "ERC721BridgeInitiated",
      "type": "event"
    },
    {
      "inputs": [],
      "name": "MESSENGER",
      "outputs": [
        {
          "internalType": "contract CrossDomainMessenger",
          "name": "",
          "type": "address"
        }
      ],
      "stateMutability": "view",
      "type": "function"
    },
    {
      "inputs": [],
      "name": "OTHER_BRIDGE",
      "outputs": [
        {
          "internalType": "address",
          "name": "",
          "type": "address"
        }
      ],
      "stateMutability": "view",
      "type": "function"
    },
    {
      "inputs": [
        {
          "internalType": "address",
          "name": "_localToken",
          "type": "address"
        },
        {
          "internalType": "address",
          "name": "_remoteToken",
          "type": "address"
        },
        {
          "internalType": "uint256",
          "name": "_tokenId",
          "type": "uint256"
        },
        {
          "internalType": "uint32",
          "name": "_minGasLimit",
          "type": "uint32"
        },
        {
          "internalType": "bytes",
          "name": "_extraData",
          "type": "bytes"
        }
      ],
      "name": "bridgeERC721",
      "outputs": [],
      "stateMutability": "nonpayable",
      "type": "function"
    },
    {
      "inputs": [
        {
          "internalType": "address",
          "name": "_localToken",
          "type": "address"
        },
        {
          "internalType": "address",
          "name": "_remoteToken",
          "type": "address"
        },
        {
          "internalType": "address",
          "name": "_to",
          "type": "address"
        },
        {
          "internalType": "uint256",
          "name": "_tokenId",
          "type": "uint256"
        },
        {
          "internalType": "uint32",
          "name": "_minGasLimit",
          "type": "uint32"
        },
        {
          "internalType": "bytes",
          "name": "_extraData",
          "type": "bytes"
        }
      ],
      "name": "bridgeERC721To",
      "outputs": [],
      "stateMutability": "nonpayable",
      "type": "function"
    },
    {
      "inputs": [
        {
          "internalType": "address",
          "name": "_localToken",
          "type": "address"
        },
        {
          "internalType": "address",
          "name": "_remoteToken",
          "type": "address"
        },
        {
          "internalType": "address",
          "name": "_from",
          "type": "address"
        },
        {
          "internalType": "address",
          "name": "_to",
          "type": "address"
        },
        {
          "internalType": "uint256",
          "name": "_tokenId",
          "type": "uint256"
        },
        {
          "internalType": "bytes",
          "name": "_extraData",
          "type": "bytes"
        }
      ],
      "name": "finalizeBridgeERC721",
      "outputs": [],
      "stateMutability": "nonpayable",
      "type": "function"
    },
    {
      "inputs": [],
      "name": "messenger",
      "outputs": [
        {
          "internalType": "contract CrossDomainMessenger",
          "name": "",
          "type": "address"
        }
      ],
      "stateMutability": "view",
      "type": "function"
    },
    {
      "inputs": [],
      "name": "otherBridge",
      "outputs": [
        {
          "internalType": "address",
          "name": "",
          "type": "address"
        }
      ],
      "stateMutability": "view",
      "type": "function"
    },
    {
      "inputs": [],
      "name": "version",
      "outputs": [
        {
          "internalType": "string",
          "name": "",
          "type": "string"
        }
      ],
      "stateMutability": "view",
      "type": "function"
    }
  ],
  "bytecode": "0x6101206040523480156200001257600080fd5b50604051620022373803806200223783398181016040528101906200003891906200021f565b818160018060008484600073ffffffffffffffffffffffffffffffffffffffff168273ffffffffffffffffffffffffffffffffffffffff1603620000b3576040517f08c379a0000000000000000000000000000000000000000000000000000000008152600401620000aa90620002ed565b60405180910390fd5b600073ffffffffffffffffffffffffffffffffffffffff168173ffffffffffffffffffffffffffffffffffffffff160362000125576040517f08c379a00000000000000000000000000000000000000000000000000000000081526004016200011c9062000385565b60405180910390fd5b8173ffffffffffffffffffffffffffffffffffffffff1660808173ffffffffffffffffffffffffffffffffffffffff16815250508073ffffffffffffffffffffffffffffffffffffffff1660a08173ffffffffffffffffffffffffffffffffffffffff168152505050508260c081815250508160e0818152505080610100818152505050505050505050620003a7565b600080fd5b600073ffffffffffffffffffffffffffffffffffffffff82169050919050565b6000620001e782620001ba565b9050919050565b620001f981620001da565b81146200020557600080fd5b50565b6000815190506200021981620001ee565b92915050565b60008060408385031215620002395762000238620001b5565b5b6000620002498582860162000208565b92505060206200025c8582860162000208565b9150509250929050565b600082825260208201905092915050565b7f4552433732314272696467653a206d657373656e6765722063616e6e6f74206260008201527f6520616464726573732830290000000000000000000000000000000000000000602082015250565b6000620002d5602c8362000266565b9150620002e28262000277565b604082019050919050565b600060208201905081810360008301526200030881620002c6565b9050919050565b7f4552433732314272696467653a206f74686572206272696467652063616e6e6f60008201527f7420626520616464726573732830290000000000000000000000000000000000602082015250565b60006200036d602f8362000266565b91506200037a826200030f565b604082019050919050565b60006020820190508181036000830152620003a0816200035e565b9050919050565b60805160a05160c05160e05161010051611e1a6200041d600039600061025901526000610230015260006102070152600081816102fb015281816106c3015281816107950152610b440152600081816101dc015281816102a501528181610332015281816106e70152610b080152611e1a6000f3fe608060405234801561001057600080fd5b50600436106100885760003560e01c80637f46ddb21161005b5780637f46ddb214610101578063927ede2d1461011f578063aa5574521461013d578063c89701a21461015957610088565b80633687011a1461008d5780633cb747bf146100a957806354fd4d50146100c7578063761f4493146100e5575b600080fd5b6100a760048036038101906100a29190611013565b610177565b005b6100b16101d8565b6040516100be919061110c565b60405180910390f35b6100cf610200565b6040516100dc91906111c0565b60405180910390f35b6100ff60048036038101906100fa91906111e2565b6102a3565b005b6101096106c1565b60405161011691906112a0565b60405180910390f35b6101276106e5565b604051610134919061110c565b60405180910390f35b610157600480360381019061015291906112bb565b610709565b005b610161610791565b60405161016e91906112a0565b60405180910390f35b610180336107b9565b156101c0576040517f08c379a00000000000000000000000000000000000000000000000000000000081526004016101b7906113dc565b60405180910390fd5b6101d086863333888888886107dc565b505050505050565b60007f0000000000000000000000000000000000000000000000000000000000000000905090565b606061022b7f0000000000000000000000000000000000000000000000000000000000000000610c43565b6102547f0000000000000000000000000000000000000000000000000000000000000000610c43565b61027d7f0000000000000000000000000000000000000000000000000000000000000000610c43565b60405160200161028f93929190611484565b604051602081830303815290604052905090565b7f000000000000000000000000000000000000000000000000000000000000000073ffffffffffffffffffffffffffffffffffffffff163373ffffffffffffffffffffffffffffffffffffffff161480156103d757507f000000000000000000000000000000000000000000000000000000000000000073ffffffffffffffffffffffffffffffffffffffff167f000000000000000000000000000000000000000000000000000000000000000073ffffffffffffffffffffffffffffffffffffffff16636e296e456040518163ffffffff1660e01b8152600401602060405180830381865afa15801561039b573d6000803e3d6000fd5b505050506040513d601f19601f820116820180604052508101906103bf91906114e0565b73ffffffffffffffffffffffffffffffffffffffff16145b610416576040517f08c379a000000000000000000000000000000000000000000000000000000000815260040161040d9061157f565b60405180910390fd5b3073ffffffffffffffffffffffffffffffffffffffff168773ffffffffffffffffffffffffffffffffffffffff1603610484576040517f08c379a000000000000000000000000000000000000000000000000000000000815260040161047b90611611565b60405180910390fd5b6104ae877f74259ebf00000000000000000000000000000000000000000000000000000000610da3565b6104ed576040517f08c379a00000000000000000000000000000000000000000000000000000000081526004016104e4906116a3565b60405180910390fd5b8673ffffffffffffffffffffffffffffffffffffffff1663d6c0b2c46040518163ffffffff1660e01b8152600401602060405180830381865afa158015610538573d6000803e3d6000fd5b505050506040513d601f19601f8201168201806040525081019061055c91906114e0565b73ffffffffffffffffffffffffffffffffffffffff168673ffffffffffffffffffffffffffffffffffffffff16146105c9576040517f08c379a00000000000000000000000000000000000000000000000000000000081526004016105c09061175b565b60405180910390fd5b8673ffffffffffffffffffffffffffffffffffffffff1663a144819485856040518363ffffffff1660e01b815260040161060492919061178a565b600060405180830381600087803b15801561061e57600080fd5b505af1158015610632573d6000803e3d6000fd5b505050508473ffffffffffffffffffffffffffffffffffffffff168673ffffffffffffffffffffffffffffffffffffffff168873ffffffffffffffffffffffffffffffffffffffff167f1f39bf6707b5d608453e0ae4c067b562bcc4c85c0f562ef5d2c774d2e7f131ac878787876040516106b09493929190611800565b60405180910390a450505050505050565b7f000000000000000000000000000000000000000000000000000000000000000081565b7f000000000000000000000000000000000000000000000000000000000000000081565b600073ffffffffffffffffffffffffffffffffffffffff168573ffffffffffffffffffffffffffffffffffffffff1603610778576040517f08c379a000000000000000000000000000000000000000000000000000000000815260040161076f906118b2565b60405180910390fd5b61078887873388888888886107dc565b50505050505050565b60007f0000000000000000000000000000000000000000000000000000000000000000905090565b6000808273ffffffffffffffffffffffffffffffffffffffff163b119050919050565b600073ffffffffffffffffffffffffffffffffffffffff168773ffffffffffffffffffffffffffffffffffffffff160361084b576040517f08c379a000000000000000000000000000000000000000000000000000000000815260040161084290611944565b60405180910390fd5b8773ffffffffffffffffffffffffffffffffffffffff16636352211e856040518263ffffffff1660e01b81526004016108849190611964565b602060405180830381865afa1580156108a1573d6000803e3d6000fd5b505050506040513d601f19601f820116820180604052508101906108c591906114e0565b73ffffffffffffffffffffffffffffffffffffffff168673ffffffffffffffffffffffffffffffffffffffff1614610932576040517f08c379a0000000000000000000000000000000000000000000000000000000008152600401610929906119f1565b60405180910390fd5b60008873ffffffffffffffffffffffffffffffffffffffff1663d6c0b2c46040518163ffffffff1660e01b8152600401602060405180830381865afa15801561097f573d6000803e3d6000fd5b505050506040513d601f19601f820116820180604052508101906109a391906114e0565b90508773ffffffffffffffffffffffffffffffffffffffff168173ffffffffffffffffffffffffffffffffffffffff1614610a13576040517f08c379a0000000000000000000000000000000000000000000000000000000008152600401610a0a90611a83565b60405180910390fd5b8873ffffffffffffffffffffffffffffffffffffffff16639dc29fac88876040518363ffffffff1660e01b8152600401610a4e92919061178a565b600060405180830381600087803b158015610a6857600080fd5b505af1158015610a7c573d6000803e3d6000fd5b50505050600063761f449360e01b828b8a8a8a8989604051602401610aa79796959493929190611aa3565b604051602081830303815290604052907bffffffffffffffffffffffffffffffffffffffffffffffffffffffff19166020820180517bffffffffffffffffffffffffffffffffffffffffffffffffffffffff838183161783525050505090507f000000000000000000000000000000000000000000000000000000000000000073ffffffffffffffffffffffffffffffffffffffff16633dbb202b7f000000000000000000000000000000000000000000000000000000000000000083886040518463ffffffff1660e01b8152600401610b8393929190611b60565b600060405180830381600087803b158015610b9d57600080fd5b505af1158015610bb1573d6000803e3d6000fd5b505050508773ffffffffffffffffffffffffffffffffffffffff168273ffffffffffffffffffffffffffffffffffffffff168b73ffffffffffffffffffffffffffffffffffffffff167fb7460e2a880f256ebef3406116ff3eee0cee51ebccdc2a40698f87ebb2e9c1a58a8a8989604051610c2f9493929190611800565b60405180910390a450505050505050505050565b606060008203610c8a576040518060400160405280600181526020017f30000000000000000000000000000000000000000000000000000000000000008152509050610d9e565b600082905060005b60008214610cbc578080610ca590611bcd565b915050600a82610cb59190611c44565b9150610c92565b60008167ffffffffffffffff811115610cd857610cd7611c75565b5b6040519080825280601f01601f191660200182016040528015610d0a5781602001600182028036833780820191505090505b5090505b60008514610d9757600182610d239190611ca4565b9150600a85610d329190611cd8565b6030610d3e9190611d09565b60f81b818381518110610d5457610d53611d5f565b5b60200101907effffffffffffffffffffffffffffffffffffffffffffffffffffffffffffff1916908160001a905350600a85610d909190611c44565b9450610d0e565b8093505050505b919050565b6000610dae83610dc8565b8015610dc05750610dbf8383610e15565b5b905092915050565b6000610df4827f01ffc9a700000000000000000000000000000000000000000000000000000000610e15565b8015610e0e5750610e0c8263ffffffff60e01b610e15565b155b9050919050565b6000806301ffc9a760e01b83604051602401610e319190611dc9565b604051602081830303815290604052907bffffffffffffffffffffffffffffffffffffffffffffffffffffffff19166020820180517bffffffffffffffffffffffffffffffffffffffffffffffffffffffff838183161783525050505090506000806000602060008551602087018a617530fa92503d91506000519050828015610ebc575060208210155b8015610ec85750600081115b94505050505092915050565b600080fd5b600080fd5b600073ffffffffffffffffffffffffffffffffffffffff82169050919050565b6000610f0982610ede565b9050919050565b610f1981610efe565b8114610f2457600080fd5b50565b600081359050610f3681610f10565b92915050565b6000819050919050565b610f4f81610f3c565b8114610f5a57600080fd5b50565b600081359050610f6c81610f46565b92915050565b600063ffffffff82169050919050565b610f8b81610f72565b8114610f9657600080fd5b50565b600081359050610fa881610f82565b92915050565b600080fd5b600080fd5b600080fd5b60008083601f840112610fd357610fd2610fae565b5b8235905067ffffffffffffffff811115610ff057610fef610fb3565b5b60208301915083600182028301111561100c5761100b610fb8565b5b9250929050565b60008060008060008060a087890312156110305761102f610ed4565b5b600061103e89828a01610f27565b965050602061104f89828a01610f27565b955050604061106089828a01610f5d565b945050606061107189828a01610f99565b935050608087013567ffffffffffffffff81111561109257611091610ed9565b5b61109e89828a01610fbd565b92509250509295509295509295565b6000819050919050565b60006110d26110cd6110c884610ede565b6110ad565b610ede565b9050919050565b60006110e4826110b7565b9050919050565b60006110f6826110d9565b9050919050565b611106816110eb565b82525050565b600060208201905061112160008301846110fd565b92915050565b600081519050919050565b600082825260208201905092915050565b60005b83811015611161578082015181840152602081019050611146565b83811115611170576000848401525b50505050565b6000601f19601f8301169050919050565b600061119282611127565b61119c8185611132565b93506111ac818560208601611143565b6111b581611176565b840191505092915050565b600060208201905081810360008301526111da8184611187565b905092915050565b600080600080600080600060c0888a03121561120157611200610ed4565b5b600061120f8a828b01610f27565b97505060206112208a828b01610f27565b96505060406112318a828b01610f27565b95505060606112428a828b01610f27565b94505060806112538a828b01610f5d565b93505060a088013567ffffffffffffffff81111561127457611273610ed9565b5b6112808a828b01610fbd565b925092505092959891949750929550565b61129a81610efe565b82525050565b60006020820190506112b56000830184611291565b92915050565b600080600080600080600060c0888a0312156112da576112d9610ed4565b5b60006112e88a828b01610f27565b97505060206112f98a828b01610f27565b965050604061130a8a828b01610f27565b955050606061131b8a828b01610f5d565b945050608061132c8a828b01610f99565b93505060a088013567ffffffffffffffff81111561134d5761134c610ed9565b5b6113598a828b01610fbd565b925092505092959891949750929550565b7f4552433732314272696467653a206163636f756e74206973206e6f742065787460008201527f65726e616c6c79206f776e656400000000000000000000000000000000000000602082015250565b60006113c6602d83611132565b91506113d18261136a565b604082019050919050565b600060208201905081810360008301526113f5816113b9565b9050919050565b600081905092915050565b600061141282611127565b61141c81856113fc565b935061142c818560208601611143565b80840191505092915050565b7f2e00000000000000000000000000000000000000000000000000000000000000600082015250565b600061146e6001836113fc565b915061147982611438565b600182019050919050565b60006114908286611407565b915061149b82611461565b91506114a78285611407565b91506114b282611461565b91506114be8284611407565b9150819050949350505050565b6000815190506114da81610f10565b92915050565b6000602082840312156114f6576114f5610ed4565b5b6000611504848285016114cb565b91505092915050565b7f4552433732314272696467653a2066756e6374696f6e2063616e206f6e6c792060008201527f62652063616c6c65642066726f6d20746865206f746865722062726964676500602082015250565b6000611569603f83611132565b91506115748261150d565b604082019050919050565b600060208201905081810360008301526115988161155c565b9050919050565b7f4c324552433732314272696467653a206c6f63616c20746f6b656e2063616e6e60008201527f6f742062652073656c6600000000000000000000000000000000000000000000602082015250565b60006115fb602a83611132565b91506116068261159f565b604082019050919050565b6000602082019050818103600083015261162a816115ee565b9050919050565b7f4c324552433732314272696467653a206c6f63616c20746f6b656e20696e746560008201527f7266616365206973206e6f7420636f6d706c69616e7400000000000000000000602082015250565b600061168d603683611132565b915061169882611631565b604082019050919050565b600060208201905081810360008301526116bc81611680565b9050919050565b7f4c324552433732314272696467653a2077726f6e672072656d6f746520746f6b60008201527f656e20666f72204f7074696d69736d204d696e7461626c65204552433732312060208201527f6c6f63616c20746f6b656e000000000000000000000000000000000000000000604082015250565b6000611745604b83611132565b9150611750826116c3565b606082019050919050565b6000602082019050818103600083015261177481611738565b9050919050565b61178481610f3c565b82525050565b600060408201905061179f6000830185611291565b6117ac602083018461177b565b9392505050565b600082825260208201905092915050565b82818337600083830152505050565b60006117df83856117b3565b93506117ec8385846117c4565b6117f583611176565b840190509392505050565b60006060820190506118156000830187611291565b611822602083018661177b565b81810360408301526118358184866117d3565b905095945050505050565b7f4552433732314272696467653a206e667420726563697069656e742063616e6e60008201527f6f74206265206164647265737328302900000000000000000000000000000000602082015250565b600061189c603083611132565b91506118a782611840565b604082019050919050565b600060208201905081810360008301526118cb8161188f565b9050919050565b7f4c324552433732314272696467653a2072656d6f746520746f6b656e2063616e60008201527f6e6f742062652061646472657373283029000000000000000000000000000000602082015250565b600061192e603183611132565b9150611939826118d2565b604082019050919050565b6000602082019050818103600083015261195d81611921565b9050919050565b6000602082019050611979600083018461177b565b92915050565b7f4c324552433732314272696467653a205769746864726177616c206973206e6f60008201527f74206265696e6720696e69746961746564206279204e4654206f776e65720000602082015250565b60006119db603e83611132565b91506119e68261197f565b604082019050919050565b60006020820190508181036000830152611a0a816119ce565b9050919050565b7f4c324552433732314272696467653a2072656d6f746520746f6b656e20646f6560008201527f73206e6f74206d6174636820676976656e2076616c7565000000000000000000602082015250565b6000611a6d603783611132565b9150611a7882611a11565b604082019050919050565b60006020820190508181036000830152611a9c81611a60565b9050919050565b600060c082019050611ab8600083018a611291565b611ac56020830189611291565b611ad26040830188611291565b611adf6060830187611291565b611aec608083018661177b565b81810360a0830152611aff8184866117d3565b905098975050505050505050565b600081519050919050565b6000611b2382611b0d565b611b2d81856117b3565b9350611b3d818560208601611143565b611b4681611176565b840191505092915050565b611b5a81610f72565b82525050565b6000606082019050611b756000830186611291565b8181036020830152611b878185611b18565b9050611b966040830184611b51565b949350505050565b7f4e487b7100000000000000000000000000000000000000000000000000000000600052601160045260246000fd5b6000611bd882610f3c565b91507fffffffffffffffffffffffffffffffffffffffffffffffffffffffffffffffff8203611c0a57611c09611b9e565b5b600182019050919050565b7f4e487b7100000000000000000000000000000000000000000000000000000000600052601260045260246000fd5b6000611c4f82610f3c565b9150611c5a83610f3c565b925082611c6a57611c69611c15565b5b828204905092915050565b7f4e487b7100000000000000000000000000000000000000000000000000000000600052604160045260246000fd5b6000611caf82610f3c565b9150611cba83610f3c565b925082821015611ccd57611ccc611b9e565b5b828203905092915050565b6000611ce382610f3c565b9150611cee83610f3c565b925082611cfe57611cfd611c15565b5b828206905092915050565b6000611d1482610f3c565b9150611d1f83610f3c565b9250827fffffffffffffffffffffffffffffffffffffffffffffffffffffffffffffffff03821115611d5457611d53611b9e565b5b828201905092915050565b7f4e487b7100000000000000000000000000000000000000000000000000000000600052603260045260246000fd5b60007fffffffff0000000000000000000000000000000000000000000000000000000082169050919050565b611dc381611d8e565b82525050565b6000602082019050611dde6000830184611dba565b9291505056fea2646970667358221220c6342b4d71ca5d37fb49eab448e2022144af72854b78486099584c020f55aa3864736f6c634300080f0033",
  "linkReferences": {},
  "deployedLinkReferences": {}
}