{"@eth-optimism/contracts-bedrock/contracts/L2/L2ERC721Bridge.sol":{"L2ERC721Bridge":{"abi":[{"inputs":[{"internalType":"address","name":"_messenger","type":"address"},{"internalType":"address","name":"_otherBridge","type":"address"}],"stateMutability":"nonpayable","type":"constructor"},{"anonymous":false,"inputs":[{"indexed":true,"internalType":"address","name":"localToken","type":"address"},{"indexed":true,"internalType":"address","name":"remoteToken","type":"address"},{"indexed":true,"internalType":"address","name":"from","type":"address"},{"indexed":false,"internalType":"address","name":"to","type":"address"},{"indexed":false,"internalType":"uint256","name":"tokenId","type":"uint256"},{"indexed":false,"internalType":"bytes","name":"extraData","type":"bytes"}],"name":"ERC721BridgeFinalized","type":"event"},{"anonymous":false,"inputs":[{"indexed":true,"internalType":"address","name":"localToken","type":"address"},{"indexed":true,"internalType":"address","name":"remoteToken","type":"address"},{"indexed":true,"internalType":"address","name":"from","type":"address"},{"indexed":false,"internalType":"address","name":"to","type":"address"},{"indexed":false,"internalType":"uint256","name":"tokenId","type":"uint256"},{"indexed":false,"internalType":"bytes","name":"extraData","type":"bytes"}],"name":"ERC721BridgeInitiated","type":"event"},{"inputs":[],"name":"MESSENGER","outputs":[{"internalType":"contract CrossDomainMessenger","name":"","type":"address"}],"stateMutability":"view","type":"function"},{"inputs":[],"name":"OTHER_BRIDGE","outputs":[{"internalType":"address","name":"","type":"address"}],"stateMutability":"view","type":"function"},{"inputs":[{"internalType":"address","name":"_localToken","type":"address"},{"internalType":"address","name":"_remoteToken","type":"address"},{"internalType":"uint256","name":"_tokenId","type":"uint256"},{"internalType":"uint32","name":"_minGasLimit","type":"uint32"},{"internalType":"bytes","name":"_extraData","type":"bytes"}],"name":"bridgeERC721","outputs":[],"stateMutability":"nonpayable","type":"function"},{"inputs":[{"internalType":"address","name":"_localToken","type":"address"},{"internalType":"address","name":"_remoteToken","type":"address"},{"internalType":"address","name":"_to","type":"address"},{"internalType":"uint256","name":"_tokenId","type":"uint256"},{"internalType":"uint32","name":"_minGasLimit","type":"uint32"},{"internalType":"bytes","name":"_extraData","type":"bytes"}],"name":"bridgeERC721To","outputs":[],"stateMutability":"nonpayable","type":"function"},{"inputs":[{"internalType":"address","name":"_localToken","type":"address"},{"internalType":"address","name":"_remoteToken","type":"address"},{"internalType":"address","name":"_from","type":"address"},{"internalType":"address","name":"_to","type":"address"},{"internalType":"uint256","name":"_tokenId","type":"uint256"},{"internalType":"bytes","name":"_extraData","type":"bytes"}],"name":"finalizeBridgeERC721","outputs":[],"stateMutability":"nonpayable","type":"function"},{"inputs":[],"name":"messenger","outputs":[{"internalType":"contract CrossDomainMessenger","name":"","type":"address"}],"stateMutability":"view","type":"function"},{"inputs":[],"name":"otherBridge","outputs":[{"internalType":"address","name":"","type":"address"}],"stateMutability":"view","type":"function"},{"inputs":[],"name":"version","outputs":[{"internalType":"string","name":"","type":"string"}],"stateMutability":"view","type":"function"}],"evm":{"bytecode":{"linkReferences":{},"object":"6101206040523480156200001257600080fd5b50604051620022333803806200223383398181016040528101906200003891906200021b565b60018060008484600073ffffffffffffffffffffffffffffffffffffffff168273ffffffffffffffffffffffffffffffffffffffff1603620000b1576040517f08c379a0000000000000000000000000000000000000000000000000000000008152600401620000a890620002e9565b60405180910390fd5b600073ffffffffffffffffffffffffffffffffffffffff168173ffffffffffffffffffffffffffffffffffffffff160362000123576040517f08c379a00000000000000000000000000000000000000000000000000000000081526004016200011a9062000381565b60405180910390fd5b8173ffffffffffffffffffffffffffffffffffffffff1660808173ffffffffffffffffffffffffffffffffffffffff16815250508073ffffffffffffffffffffffffffffffffffffffff1660a08173ffffffffffffffffffffffffffffffffffffffff168152505050508260c081815250508160e081815250508061010081815250505050505050620003a3565b600080fd5b600073ffffffffffffffffffffffffffffffffffffffff82169050919050565b6000620001e382620001b6565b9050919050565b620001f581620001d6565b81146200020157600080fd5b50565b6000815190506200021581620001ea565b92915050565b60008060408385031215620002355762000234620001b1565b5b6000620002458582860162000204565b9250506020620002588582860162000204565b9150509250929050565b600082825260208201905092915050565b7f4552433732314272696467653a206d657373656e6765722063616e6e6f74206260008201527f6520616464726573732830290000000000000000000000000000000000000000602082015250565b6000620002d1602c8362000262565b9150620002de8262000273565b604082019050919050565b600060208201905081810360008301526200030481620002c2565b9050919050565b7f4552433732314272696467653a206f74686572206272696467652063616e6e6f60008201527f7420626520616464726573732830290000000000000000000000000000000000602082015250565b600062000369602f8362000262565b915062000376826200030b565b604082019050919050565b600060208201905081810360008301526200039c816200035a565b9050919050565b60805160a05160c05160e05161010051611e1a62000419600039600061025901526000610230015260006102070152600081816102fb015281816106c3015281816107950152610b440152600081816101dc015281816102a501528181610332015281816106e70152610b080152611e1a6000f3fe608060405234801561001057600080fd5b50600436106100885760003560e01c80637f46ddb21161005b5780637f46ddb214610101578063927ede2d1461011f578063aa5574521461013d578063c89701a21461015957610088565b80633687011a1461008d5780633cb747bf146100a957806354fd4d50146100c7578063761f4493146100e5575b600080fd5b6100a760048036038101906100a29190611013565b610177565b005b6100b16101d8565b6040516100be919061110c565b60405180910390f35b6100cf610200565b6040516100dc91906111c0565b60405180910390f35b6100ff60048036038101906100fa91906111e2565b6102a3565b005b6101096106c1565b60405161011691906112a0565b60405180910390f35b6101276106e5565b604051610134919061110c565b60405180910390f35b610157600480360381019061015291906112bb565b610709565b005b610161610791565b60405161016e91906112a0565b60405180910390f35b610180336107b9565b156101c0576040517f08c379a00000000000000000000000000000000000000000000000000000000081526004016101b7906113dc565b60405180910390fd5b6101d086863333888888886107dc565b505050505050565b60007f0000000000000000000000000000000000000000000000000000000000000000905090565b606061022b7f0000000000000000000000000000000000000000000000000000000000000000610c43565b6102547f0000000000000000000000000000000000000000000000000000000000000000610c43565b61027d7f0000000000000000000000000000000000000000000000000000000000000000610c43565b60405160200161028f93929190611484565b604051602081830303815290604052905090565b7f000000000000000000000000000000000000000000000000000000000000000073ffffffffffffffffffffffffffffffffffffffff163373ffffffffffffffffffffffffffffffffffffffff161480156103d757507f000000000000000000000000000000000000000000000000000000000000000073ffffffffffffffffffffffffffffffffffffffff167f000000000000000000000000000000000000000000000000000000000000000073ffffffffffffffffffffffffffffffffffffffff16636e296e456040518163ffffffff1660e01b8152600401602060405180830381865afa15801561039b573d6000803e3d6000fd5b505050506040513d601f19601f820116820180604052508101906103bf91906114e0565b73ffffffffffffffffffffffffffffffffffffffff16145b610416576040517f08c379a000000000000000000000000000000000000000000000000000000000815260040161040d9061157f565b60405180910390fd5b3073ffffffffffffffffffffffffffffffffffffffff168773ffffffffffffffffffffffffffffffffffffffff1603610484576040517f08c379a000000000000000000000000000000000000000000000000000000000815260040161047b90611611565b60405180910390fd5b6104ae877f74259ebf00000000000000000000000000000000000000000000000000000000610da3565b6104ed576040517f08c379a00000000000000000000000000000000000000000000000000000000081526004016104e4906116a3565b60405180910390fd5b8673ffffffffffffffffffffffffffffffffffffffff1663d6c0b2c46040518163ffffffff1660e01b8152600401602060405180830381865afa158015610538573d6000803e3d6000fd5b505050506040513d601f19601f8201168201806040525081019061055c91906114e0565b73ffffffffffffffffffffffffffffffffffffffff168673ffffffffffffffffffffffffffffffffffffffff16146105c9576040517f08c379a00000000000000000000000000000000000000000000000000000000081526004016105c09061175b565b60405180910390fd5b8673ffffffffffffffffffffffffffffffffffffffff1663a144819485856040518363ffffffff1660e01b815260040161060492919061178a565b600060405180830381600087803b15801561061e57600080fd5b505af1158015610632573d6000803e3d6000fd5b505050508473ffffffffffffffffffffffffffffffffffffffff168673ffffffffffffffffffffffffffffffffffffffff168873ffffffffffffffffffffffffffffffffffffffff167f1f39bf6707b5d608453e0ae4c067b562bcc4c85c0f562ef5d2c774d2e7f131ac878787876040516106b09493929190611800565b60405180910390a450505050505050565b7f000000000000000000000000000000000000000000000000000000000000000081565b7f000000000000000000000000000000000000000000000000000000000000000081565b600073ffffffffffffffffffffffffffffffffffffffff168573ffffffffffffffffffffffffffffffffffffffff1603610778576040517f08c379a000000000000000000000000000000000000000000000000000000000815260040161076f906118b2565b60405180910390fd5b61078887873388888888886107dc565b50505050505050565b60007f0000000000000000000000000000000000000000000000000000000000000000905090565b6000808273ffffffffffffffffffffffffffffffffffffffff163b119050919050565b600073ffffffffffffffffffffffffffffffffffffffff168773ffffffffffffffffffffffffffffffffffffffff160361084b576040517f08c379a000000000000000000000000000000000000000000000000000000000815260040161084290611944565b60405180910390fd5b8773ffffffffffffffffffffffffffffffffffffffff16636352211e856040518263ffffffff1660e01b81526004016108849190611964565b602060405180830381865afa1580156108a1573d6000803e3d6000fd5b505050506040513d601f19601f820116820180604052508101906108c591906114e0565b73ffffffffffffffffffffffffffffffffffffffff168673ffffffffffffffffffffffffffffffffffffffff1614610932576040517f08c379a0000000000000000000000000000000000000000000000000000000008152600401610929906119f1565b60405180910390fd5b60008873ffffffffffffffffffffffffffffffffffffffff1663d6c0b2c46040518163ffffffff1660e01b8152600401602060405180830381865afa15801561097f573d6000803e3d6000fd5b505050506040513d601f19601f820116820180604052508101906109a391906114e0565b90508773ffffffffffffffffffffffffffffffffffffffff168173ffffffffffffffffffffffffffffffffffffffff1614610a13576040517f08c379a0000000000000000000000000000000000000000000000000000000008152600401610a0a90611a83565b60405180910390fd5b8873ffffffffffffffffffffffffffffffffffffffff16639dc29fac88876040518363ffffffff1660e01b8152600401610a4e92919061178a565b600060405180830381600087803b158015610a6857600080fd5b505af1158015610a7c573d6000803e3d6000fd5b50505050600063761f449360e01b828b8a8a8a8989604051602401610aa79796959493929190611aa3565b604051602081830303815290604052907bffffffffffffffffffffffffffffffffffffffffffffffffffffffff19166020820180517bffffffffffffffffffffffffffffffffffffffffffffffffffffffff838183161783525050505090507f000000000000000000000000000000000000000000000000000000000000000073ffffffffffffffffffffffffffffffffffffffff16633dbb202b7f000000000000000000000000000000000000000000000000000000000000000083886040518463ffffffff1660e01b8152600401610b8393929190611b60565b600060405180830381600087803b158015610b9d57600080fd5b505af1158015610bb1573d6000803e3d6000fd5b505050508773ffffffffffffffffffffffffffffffffffffffff168273ffffffffffffffffffffffffffffffffffffffff168b73ffffffffffffffffffffffffffffffffffffffff167fb7460e2a880f256ebef3406116ff3eee0cee51ebccdc2a40698f87ebb2e9c1a58a8a8989604051610c2f9493929190611800565b60405180910390a450505050505050505050565b606060008203610c8a576040518060400160405280600181526020017f30000000000000000000000000000000000000000000000000000000000000008152509050610d9e565b600082905060005b60008214610cbc578080610ca590611bcd565b915050600a82610cb59190611c44565b9150610c92565b60008167ffffffffffffffff811115610cd857610cd7611c75565b5b6040519080825280601f01601f191660200182016040528015610d0a5781602001600182028036833780820191505090505b5090505b60008514610d9757600182610d239190611ca4565b9150600a85610d329190611cd8565b6030610d3e9190611d09565b60f81b818381518110610d5457610d53611d5f565b5b60200101907effffffffffffffffffffffffffffffffffffffffffffffffffffffffffffff1916908160001a905350600a85610d909190611c44565b9450610d0e565b8093505050505b919050565b6000610dae83610dc8565b8015610dc05750610dbf8383610e15565b5b905092915050565b6000610df4827f01ffc9a700000000000000000000000000000000000000000000000000000000610e15565b8015610e0e5750610e0c8263ffffffff60e01b610e15565b155b9050919050565b6000806301ffc9a760e01b83604051602401610e319190611dc9565b604051602081830303815290604052907bffffffffffffffffffffffffffffffffffffffffffffffffffffffff19166020820180517bffffffffffffffffffffffffffffffffffffffffffffffffffffffff838183161783525050505090506000806000602060008551602087018a617530fa92503d91506000519050828015610ebc575060208210155b8015610ec85750600081115b94505050505092915050565b600080fd5b600080fd5b600073ffffffffffffffffffffffffffffffffffffffff82169050919050565b6000610f0982610ede565b9050919050565b610f1981610efe565b8114610f2457600080fd5b50565b600081359050610f3681610f10565b92915050565b6000819050919050565b610f4f81610f3c565b8114610f5a57600080fd5b50565b600081359050610f6c81610f46565b92915050565b600063ffffffff82169050919050565b610f8b81610f72565b8114610f9657600080fd5b50565b600081359050610fa881610f82565b92915050565b600080fd5b600080fd5b600080fd5b60008083601f840112610fd357610fd2610fae565b5b8235905067ffffffffffffffff811115610ff057610fef610fb3565b5b60208301915083600182028301111561100c5761100b610fb8565b5b9250929050565b60008060008060008060a087890312156110305761102f610ed4565b5b600061103e89828a01610f27565b965050602061104f89828a01610f27565b955050604061106089828a01610f5d565b945050606061107189828a01610f99565b935050608087013567ffffffffffffffff81111561109257611091610ed9565b5b61109e89828a01610fbd565b92509250509295509295509295565b6000819050919050565b60006110d26110cd6110c884610ede565b6110ad565b610ede565b9050919050565b60006110e4826110b7565b9050919050565b60006110f6826110d9565b9050919050565b611106816110eb565b82525050565b600060208201905061112160008301846110fd565b92915050565b600081519050919050565b600082825260208201905092915050565b60005b83811015611161578082015181840152602081019050611146565b83811115611170576000848401525b50505050565b6000601f19601f8301169050919050565b600061119282611127565b61119c8185611132565b93506111ac818560208601611143565b6111b581611176565b840191505092915050565b600060208201905081810360008301526111da8184611187565b905092915050565b600080600080600080600060c0888a03121561120157611200610ed4565b5b600061120f8a828b01610f27565b97505060206112208a828b01610f27565b96505060406112318a828b01610f27565b95505060606112428a828b01610f27565b94505060806112538a828b01610f5d565b93505060a088013567ffffffffffffffff81111561127457611273610ed9565b5b6112808a828b01610fbd565b925092505092959891949750929550565b61129a81610efe565b82525050565b60006020820190506112b56000830184611291565b92915050565b600080600080600080600060c0888a0312156112da576112d9610ed4565b5b60006112e88a828b01610f27565b97505060206112f98a828b01610f27565b965050604061130a8a828b01610f27565b955050606061131b8a828b01610f5d565b945050608061132c8a828b01610f99565b93505060a088013567ffffffffffffffff81111561134d5761134c610ed9565b5b6113598a828b01610fbd565b925092505092959891949750929550565b7f4552433732314272696467653a206163636f756e74206973206e6f742065787460008201527f65726e616c6c79206f776e656400000000000000000000000000000000000000602082015250565b60006113c6602d83611132565b91506113d18261136a565b604082019050919050565b600060208201905081810360008301526113f5816113b9565b9050919050565b600081905092915050565b600061141282611127565b61141c81856113fc565b935061142c818560208601611143565b80840191505092915050565b7f2e00000000000000000000000000000000000000000000000000000000000000600082015250565b600061146e6001836113fc565b915061147982611438565b600182019050919050565b60006114908286611407565b915061149b82611461565b91506114a78285611407565b91506114b282611461565b91506114be8284611407565b9150819050949350505050565b6000815190506114da81610f10565b92915050565b6000602082840312156114f6576114f5610ed4565b5b6000611504848285016114cb565b91505092915050565b7f4552433732314272696467653a2066756e6374696f6e2063616e206f6e6c792060008201527f62652063616c6c65642066726f6d20746865206f746865722062726964676500602082015250565b6000611569603f83611132565b91506115748261150d565b604082019050919050565b600060208201905081810360008301526115988161155c565b9050919050565b7f4c324552433732314272696467653a206c6f63616c20746f6b656e2063616e6e60008201527f6f742062652073656c6600000000000000000000000000000000000000000000602082015250565b60006115fb602a83611132565b91506116068261159f565b604082019050919050565b6000602082019050818103600083015261162a816115ee565b9050919050565b7f4c324552433732314272696467653a206c6f63616c20746f6b656e20696e746560008201527f7266616365206973206e6f7420636f6d706c69616e7400000000000000000000602082015250565b600061168d603683611132565b915061169882611631565b604082019050919050565b600060208201905081810360008301526116bc81611680565b9050919050565b7f4c324552433732314272696467653a2077726f6e672072656d6f746520746f6b60008201527f656e20666f72204f7074696d69736d204d696e7461626c65204552433732312060208201527f6c6f63616c20746f6b656e000000000000000000000000000000000000000000604082015250565b6000611745604b83611132565b9150611750826116c3565b606082019050919050565b6000602082019050818103600083015261177481611738565b9050919050565b61178481610f3c565b82525050565b600060408201905061179f6000830185611291565b6117ac602083018461177b565b9392505050565b600082825260208201905092915050565b82818337600083830152505050565b60006117df83856117b3565b93506117ec8385846117c4565b6117f583611176565b840190509392505050565b60006060820190506118156000830187611291565b611822602083018661177b565b81810360408301526118358184866117d3565b905095945050505050565b7f4552433732314272696467653a206e667420726563697069656e742063616e6e60008201527f6f74206265206164647265737328302900000000000000000000000000000000602082015250565b600061189c603083611132565b91506118a782611840565b604082019050919050565b600060208201905081810360008301526118cb8161188f565b9050919050565b7f4c324552433732314272696467653a2072656d6f746520746f6b656e2063616e60008201527f6e6f742062652061646472657373283029000000000000000000000000000000602082015250565b600061192e603183611132565b9150611939826118d2565b604082019050919050565b6000602082019050818103600083015261195d81611921565b9050919050565b6000602082019050611979600083018461177b565b92915050565b7f4c324552433732314272696467653a205769746864726177616c206973206e6f60008201527f74206265696e6720696e69746961746564206279204e4654206f776e65720000602082015250565b60006119db603e83611132565b91506119e68261197f565b604082019050919050565b60006020820190508181036000830152611a0a816119ce565b9050919050565b7f4c324552433732314272696467653a2072656d6f746520746f6b656e20646f6560008201527f73206e6f74206d6174636820676976656e2076616c7565000000000000000000602082015250565b6000611a6d603783611132565b9150611a7882611a11565b604082019050919050565b60006020820190508181036000830152611a9c81611a60565b9050919050565b600060c082019050611ab8600083018a611291565b611ac56020830189611291565b611ad26040830188611291565b611adf6060830187611291565b611aec608083018661177b565b81810360a0830152611aff8184866117d3565b905098975050505050505050565b600081519050919050565b6000611b2382611b0d565b611b2d81856117b3565b9350611b3d818560208601611143565b611b4681611176565b840191505092915050565b611b5a81610f72565b82525050565b6000606082019050611b756000830186611291565b8181036020830152611b878185611b18565b9050611b966040830184611b51565b949350505050565b7f4e487b7100000000000000000000000000000000000000000000000000000000600052601160045260246000fd5b6000611bd882610f3c565b91507fffffffffffffffffffffffffffffffffffffffffffffffffffffffffffffffff8203611c0a57611c09611b9e565b5b600182019050919050565b7f4e487b7100000000000000000000000000000000000000000000000000000000600052601260045260246000fd5b6000611c4f82610f3c565b9150611c5a83610f3c565b925082611c6a57611c69611c15565b5b828204905092915050565b7f4e487b7100000000000000000000000000000000000000000000000000000000600052604160045260246000fd5b6000611caf82610f3c565b9150611cba83610f3c565b925082821015611ccd57611ccc611b9e565b5b828203905092915050565b6000611ce382610f3c565b9150611cee83610f3c565b925082611cfe57611cfd611c15565b5b828206905092915050565b6000611d1482610f3c565b9150611d1f83610f3c565b9250827fffffffffffffffffffffffffffffffffffffffffffffffffffffffffffffffff03821115611d5457611d53611b9e565b5b828201905092915050565b7f4e487b7100000000000000000000000000000000000000000000000000000000600052603260045260246000fd5b60007fffffffff0000000000000000000000000000000000000000000000000000000082169050919050565b611dc381611d8e565b82525050565b6000602082019050611dde6000830184611dba565b9291505056fea2646970667358221220c729d7f4f0e40858100677d65830d978cada21e0fc3f93c554597cf084c9481064736f6c634300080f0033","opcodes":"PUSH2 0x120 PUSH1 0x40 MSTORE CALLVALUE DUP1 ISZERO PUSH3 0x12 JUMPI PUSH1 0x0 DUP1 REVERT JUMPDEST POP PUSH1 0x40 MLOAD PUSH3 0x2233 CODESIZE SUB DUP1 PUSH3 0x2233 DUP4 CODECOPY DUP2 DUP2 ADD PUSH1 0x40 MSTORE DUP2 ADD SWAP1 PUSH3 0x38 SWAP2 SWAP1 PUSH3 0x21B JUMP JUMPDEST PUSH1 0x1 DUP1 PUSH1 0x0 DUP5 DUP5 PUSH1 0x0 PUSH20 0xFFFFFFFFFFFFFFFFFFFFFFFFFFFFFFFFFFFFFFFF AND DUP3 PUSH20 0xFFFFFFFFFFFFFFFFFFFFFFFFFFFFFFFFFFFFFFFF AND SUB PUSH3 0xB1 JUMPI PUSH1 0x40 MLOAD PUSH32 0x8C379A000000000000000000000000000000000000000000000000000000000 DUP2 MSTORE PUSH1 0x4 ADD PUSH3 0xA8 SWAP1 PUSH3 0x2E9 JUMP JUMPDEST PUSH1 0x40 MLOAD DUP1 SWAP2 SUB SWAP1 REVERT JUMPDEST PUSH1 0x0 PUSH20 0xFFFFFFFFFFFFFFFFFFFFFFFFFFFFFFFFFFFFFFFF AND DUP2 PUSH20 0xFFFFFFFFFFFFFFFFFFFFFFFFFFFFFFFFFFFFFFFF AND SUB PUSH3 0x123 JUMPI PUSH1 0x40 MLOAD PUSH32 0x8C379A000000000000000000000000000000000000000000000000000000000 DUP2 MSTORE PUSH1 0x4 ADD PUSH3 0x11A SWAP1 PUSH3 0x381 JUMP JUMPDEST PUSH1 0x40 MLOAD DUP1 SWAP2 SUB SWAP1 REVERT JUMPDEST DUP2 PUSH20 0xFFFFFFFFFFFFFFFFFFFFFFFFFFFFFFFFFFFFFFFF AND PUSH1 0x80 DUP2 PUSH20 0xFFFFFFFFFFFFFFFFFFFFFFFFFFFFFFFFFFFFFFFF AND DUP2 MSTORE POP POP DUP1 PUSH20 0xFFFFFFFFFFFFFFFFFFFFFFFFFFFFFFFFFFFFFFFF AND PUSH1 0xA0 DUP2 PUSH20 0xFFFFFFFFFFFFFFFFFFFFFFFFFFFFFFFFFFFFFFFF AND DUP2 MSTORE POP POP POP POP DUP3 PUSH1 0xC0 DUP2 DUP2 MSTORE POP POP DUP2 PUSH1 0xE0 DUP2 DUP2 MSTORE POP POP DUP1 PUSH2 0x100 DUP2 DUP2 MSTORE POP POP POP POP POP POP POP PUSH3 0x3A3 JUMP JUMPDEST PUSH1 0x0 DUP1 REVERT JUMPDEST PUSH1 0x0 PUSH20 0xFFFFFFFFFFFFFFFFFFFFFFFFFFFFFFFFFFFFFFFF DUP3 AND SWAP1 POP SWAP2 SWAP1 POP JUMP JUMPDEST PUSH1 0x0 PUSH3 0x1E3 DUP3 PUSH3 0x1B6 JUMP JUMPDEST SWAP1 POP SWAP2 SWAP1 POP JUMP JUMPDEST PUSH3 0x1F5 DUP2 PUSH3 0x1D6 JUMP JUMPDEST DUP2 EQ PUSH3 0x201 JUMPI PUSH1 0x0 DUP1 REVERT JUMPDEST POP JUMP JUMPDEST PUSH1 0x0 DUP2 MLOAD SWAP1 POP PUSH3 0x215 DUP2 PUSH3 0x1EA JUMP JUMPDEST SWAP3 SWAP2 POP POP JUMP JUMPDEST PUSH1 0x0 DUP1 PUSH1 0x40 DUP4 DUP6 SUB SLT ISZERO PUSH3 0x235 JUMPI PUSH3 0x234 PUSH3 0x1B1 JUMP JUMPDEST JUMPDEST PUSH1 0x0 PUSH3 0x245 DUP6 DUP3 DUP7 ADD PUSH3 0x204 JUMP JUMPDEST SWAP3 POP POP PUSH1 0x20 PUSH3 0x258 DUP6 DUP3 DUP7 ADD PUSH3 0x204 JUMP JUMPDEST SWAP2 POP POP SWAP3 POP SWAP3 SWAP1 POP JUMP JUMPDEST PUSH1 0x0 DUP3 DUP3 MSTORE PUSH1 0x20 DUP3 ADD SWAP1 POP SWAP3 SWAP2 POP POP JUMP JUMPDEST PUSH32 0x4552433732314272696467653A206D657373656E6765722063616E6E6F742062 PUSH1 0x0 DUP3 ADD MSTORE PUSH32 0x6520616464726573732830290000000000000000000000000000000000000000 PUSH1 0x20 DUP3 ADD MSTORE POP JUMP JUMPDEST PUSH1 0x0 PUSH3 0x2D1 PUSH1 0x2C DUP4 PUSH3 0x262 JUMP JUMPDEST SWAP2 POP PUSH3 0x2DE DUP3 PUSH3 0x273 JUMP JUMPDEST PUSH1 0x40 DUP3 ADD SWAP1 POP SWAP2 SWAP1 POP JUMP JUMPDEST PUSH1 0x0 PUSH1 0x20 DUP3 ADD SWAP1 POP DUP2 DUP2 SUB PUSH1 0x0 DUP4 ADD MSTORE PUSH3 0x304 DUP2 PUSH3 0x2C2 JUMP JUMPDEST SWAP1 POP SWAP2 SWAP1 POP JUMP JUMPDEST PUSH32 0x4552433732314272696467653A206F74686572206272696467652063616E6E6F PUSH1 0x0 DUP3 ADD MSTORE PUSH32 0x7420626520616464726573732830290000000000000000000000000000000000 PUSH1 0x20 DUP3 ADD MSTORE POP JUMP JUMPDEST PUSH1 0x0 PUSH3 0x369 PUSH1 0x2F DUP4 PUSH3 0x262 JUMP JUMPDEST SWAP2 POP PUSH3 0x376 DUP3 PUSH3 0x30B JUMP JUMPDEST PUSH1 0x40 DUP3 ADD SWAP1 POP SWAP2 SWAP1 POP JUMP JUMPDEST PUSH1 0x0 PUSH1 0x20 DUP3 ADD SWAP1 POP DUP2 DUP2 SUB PUSH1 0x0 DUP4 ADD MSTORE PUSH3 0x39C DUP2 PUSH3 0x35A JUMP JUMPDEST SWAP1 POP SWAP2 SWAP1 POP JUMP JUMPDEST PUSH1 0x80 MLOAD PUSH1 0xA0 MLOAD PUSH1 0xC0 MLOAD PUSH1 0xE0 MLOAD PUSH2 0x100 MLOAD PUSH2 0x1E1A PUSH3 0x419 PUSH1 0x0 CODECOPY PUSH1 0x0 PUSH2 0x259 ADD MSTORE PUSH1 0x0 PUSH2 0x230 ADD MSTORE PUSH1 0x0 PUSH2 0x207 ADD MSTORE PUSH1 0x0 DUP2 DUP2 PUSH2 0x2FB ADD MSTORE DUP2 DUP2 PUSH2 0x6C3 ADD MSTORE DUP2 DUP2 PUSH2 0x795 ADD MSTORE PUSH2 0xB44 ADD MSTORE PUSH1 0x0 DUP2 DUP2 PUSH2 0x1DC ADD MSTORE DUP2 DUP2 PUSH2 0x2A5 ADD MSTORE DUP2 DUP2 PUSH2 0x332 ADD MSTORE DUP2 DUP2 PUSH2 0x6E7 ADD MSTORE PUSH2 0xB08 ADD MSTORE PUSH2 0x1E1A PUSH1 0x0 RETURN INVALID PUSH1 0x80 PUSH1 0x40 MSTORE CALLVALUE DUP1 ISZERO PUSH2 0x10 JUMPI PUSH1 0x0 DUP1 REVERT JUMPDEST POP PUSH1 0x4 CALLDATASIZE LT PUSH2 0x88 JUMPI PUSH1 0x0 CALLDATALOAD PUSH1 0xE0 SHR DUP1 PUSH4 0x7F46DDB2 GT PUSH2 0x5B JUMPI DUP1 PUSH4 0x7F46DDB2 EQ PUSH2 0x101 JUMPI DUP1 PUSH4 0x927EDE2D EQ PUSH2 0x11F JUMPI DUP1 PUSH4 0xAA557452 EQ PUSH2 0x13D JUMPI DUP1 PUSH4 0xC89701A2 EQ PUSH2 0x159 JUMPI PUSH2 0x88 JUMP JUMPDEST DUP1 PUSH4 0x3687011A EQ PUSH2 0x8D JUMPI DUP1 PUSH4 0x3CB747BF EQ PUSH2 0xA9 JUMPI DUP1 PUSH4 0x54FD4D50 EQ PUSH2 0xC7 JUMPI DUP1 PUSH4 0x761F4493 EQ PUSH2 0xE5 JUMPI JUMPDEST PUSH1 0x0 DUP1 REVERT JUMPDEST PUSH2 0xA7 PUSH1 0x4 DUP1 CALLDATASIZE SUB DUP2 ADD SWAP1 PUSH2 0xA2 SWAP2 SWAP1 PUSH2 0x1013 JUMP JUMPDEST PUSH2 0x177 JUMP JUMPDEST STOP JUMPDEST PUSH2 0xB1 PUSH2 0x1D8 JUMP JUMPDEST PUSH1 0x40 MLOAD PUSH2 0xBE SWAP2 SWAP1 PUSH2 0x110C JUMP JUMPDEST PUSH1 0x40 MLOAD DUP1 SWAP2 SUB SWAP1 RETURN JUMPDEST PUSH2 0xCF PUSH2 0x200 JUMP JUMPDEST PUSH1 0x40 MLOAD PUSH2 0xDC SWAP2 SWAP1 PUSH2 0x11C0 JUMP JUMPDEST PUSH1 0x40 MLOAD DUP1 SWAP2 SUB SWAP1 RETURN JUMPDEST PUSH2 0xFF PUSH1 0x4 DUP1 CALLDATASIZE SUB DUP2 ADD SWAP1 PUSH2 0xFA SWAP2 SWAP1 PUSH2 0x11E2 JUMP JUMPDEST PUSH2 0x2A3 JUMP JUMPDEST STOP JUMPDEST PUSH2 0x109 PUSH2 0x6C1 JUMP JUMPDEST PUSH1 0x40 MLOAD PUSH2 0x116 SWAP2 SWAP1 PUSH2 0x12A0 JUMP JUMPDEST PUSH1 0x40 MLOAD DUP1 SWAP2 SUB SWAP1 RETURN JUMPDEST PUSH2 0x127 PUSH2 0x6E5 JUMP JUMPDEST PUSH1 0x40 MLOAD PUSH2 0x134 SWAP2 SWAP1 PUSH2 0x110C JUMP JUMPDEST PUSH1 0x40 MLOAD DUP1 SWAP2 SUB SWAP1 RETURN JUMPDEST PUSH2 0x157 PUSH1 0x4 DUP1 CALLDATASIZE SUB DUP2 ADD SWAP1 PUSH2 0x152 SWAP2 SWAP1 PUSH2 0x12BB JUMP JUMPDEST PUSH2 0x709 JUMP JUMPDEST STOP JUMPDEST PUSH2 0x161 PUSH2 0x791 JUMP JUMPDEST PUSH1 0x40 MLOAD PUSH2 0x16E SWAP2 SWAP1 PUSH2 0x12A0 JUMP JUMPDEST PUSH1 0x40 MLOAD DUP1 SWAP2 SUB SWAP1 RETURN JUMPDEST PUSH2 0x180 CALLER PUSH2 0x7B9 JUMP JUMPDEST ISZERO PUSH2 0x1C0 JUMPI PUSH1 0x40 MLOAD PUSH32 0x8C379A000000000000000000000000000000000000000000000000000000000 DUP2 MSTORE PUSH1 0x4 ADD PUSH2 0x1B7 SWAP1 PUSH2 0x13DC JUMP JUMPDEST PUSH1 0x40 MLOAD DUP1 SWAP2 SUB SWAP1 REVERT JUMPDEST PUSH2 0x1D0 DUP7 DUP7 CALLER CALLER DUP9 DUP9 DUP9 DUP9 PUSH2 0x7DC JUMP JUMPDEST POP POP POP POP POP POP JUMP JUMPDEST PUSH1 0x0 PUSH32 0x0 SWAP1 POP SWAP1 JUMP JUMPDEST PUSH1 0x60 PUSH2 0x22B PUSH32 0x0 PUSH2 0xC43 JUMP JUMPDEST PUSH2 0x254 PUSH32 0x0 PUSH2 0xC43 JUMP JUMPDEST PUSH2 0x27D PUSH32 0x0 PUSH2 0xC43 JUMP JUMPDEST PUSH1 0x40 MLOAD PUSH1 0x20 ADD PUSH2 0x28F SWAP4 SWAP3 SWAP2 SWAP1 PUSH2 0x1484 JUMP JUMPDEST PUSH1 0x40 MLOAD PUSH1 0x20 DUP2 DUP4 SUB SUB DUP2 MSTORE SWAP1 PUSH1 0x40 MSTORE SWAP1 POP SWAP1 JUMP JUMPDEST PUSH32 0x0 PUSH20 0xFFFFFFFFFFFFFFFFFFFFFFFFFFFFFFFFFFFFFFFF AND CALLER PUSH20 0xFFFFFFFFFFFFFFFFFFFFFFFFFFFFFFFFFFFFFFFF AND EQ DUP1 ISZERO PUSH2 0x3D7 JUMPI POP PUSH32 0x0 PUSH20 0xFFFFFFFFFFFFFFFFFFFFFFFFFFFFFFFFFFFFFFFF AND PUSH32 0x0 PUSH20 0xFFFFFFFFFFFFFFFFFFFFFFFFFFFFFFFFFFFFFFFF AND PUSH4 0x6E296E45 PUSH1 0x40 MLOAD DUP2 PUSH4 0xFFFFFFFF AND PUSH1 0xE0 SHL DUP2 MSTORE PUSH1 0x4 ADD PUSH1 0x20 PUSH1 0x40 MLOAD DUP1 DUP4 SUB DUP2 DUP7 GAS STATICCALL ISZERO DUP1 ISZERO PUSH2 0x39B JUMPI RETURNDATASIZE PUSH1 0x0 DUP1 RETURNDATACOPY RETURNDATASIZE PUSH1 0x0 REVERT JUMPDEST POP POP POP POP PUSH1 0x40 MLOAD RETURNDATASIZE PUSH1 0x1F NOT PUSH1 0x1F DUP3 ADD AND DUP3 ADD DUP1 PUSH1 0x40 MSTORE POP DUP2 ADD SWAP1 PUSH2 0x3BF SWAP2 SWAP1 PUSH2 0x14E0 JUMP JUMPDEST PUSH20 0xFFFFFFFFFFFFFFFFFFFFFFFFFFFFFFFFFFFFFFFF AND EQ JUMPDEST PUSH2 0x416 JUMPI PUSH1 0x40 MLOAD PUSH32 0x8C379A000000000000000000000000000000000000000000000000000000000 DUP2 MSTORE PUSH1 0x4 ADD PUSH2 0x40D SWAP1 PUSH2 0x157F JUMP JUMPDEST PUSH1 0x40 MLOAD DUP1 SWAP2 SUB SWAP1 REVERT JUMPDEST ADDRESS PUSH20 0xFFFFFFFFFFFFFFFFFFFFFFFFFFFFFFFFFFFFFFFF AND DUP8 PUSH20 0xFFFFFFFFFFFFFFFFFFFFFFFFFFFFFFFFFFFFFFFF AND SUB PUSH2 0x484 JUMPI PUSH1 0x40 MLOAD PUSH32 0x8C379A000000000000000000000000000000000000000000000000000000000 DUP2 MSTORE PUSH1 0x4 ADD PUSH2 0x47B SWAP1 PUSH2 0x1611 JUMP JUMPDEST PUSH1 0x40 MLOAD DUP1 SWAP2 SUB SWAP1 REVERT JUMPDEST PUSH2 0x4AE DUP8 PUSH32 0x74259EBF00000000000000000000000000000000000000000000000000000000 PUSH2 0xDA3 JUMP JUMPDEST PUSH2 0x4ED JUMPI PUSH1 0x40 MLOAD PUSH32 0x8C379A000000000000000000000000000000000000000000000000000000000 DUP2 MSTORE PUSH1 0x4 ADD PUSH2 0x4E4 SWAP1 PUSH2 0x16A3 JUMP JUMPDEST PUSH1 0x40 MLOAD DUP1 SWAP2 SUB SWAP1 REVERT JUMPDEST DUP7 PUSH20 0xFFFFFFFFFFFFFFFFFFFFFFFFFFFFFFFFFFFFFFFF AND PUSH4 0xD6C0B2C4 PUSH1 0x40 MLOAD DUP2 PUSH4 0xFFFFFFFF AND PUSH1 0xE0 SHL DUP2 MSTORE PUSH1 0x4 ADD PUSH1 0x20 PUSH1 0x40 MLOAD DUP1 DUP4 SUB DUP2 DUP7 GAS STATICCALL ISZERO DUP1 ISZERO PUSH2 0x538 JUMPI RETURNDATASIZE PUSH1 0x0 DUP1 RETURNDATACOPY RETURNDATASIZE PUSH1 0x0 REVERT JUMPDEST POP POP POP POP PUSH1 0x40 MLOAD RETURNDATASIZE PUSH1 0x1F NOT PUSH1 0x1F DUP3 ADD AND DUP3 ADD DUP1 PUSH1 0x40 MSTORE POP DUP2 ADD SWAP1 PUSH2 0x55C SWAP2 SWAP1 PUSH2 0x14E0 JUMP JUMPDEST PUSH20 0xFFFFFFFFFFFFFFFFFFFFFFFFFFFFFFFFFFFFFFFF AND DUP7 PUSH20 0xFFFFFFFFFFFFFFFFFFFFFFFFFFFFFFFFFFFFFFFF AND EQ PUSH2 0x5C9 JUMPI PUSH1 0x40 MLOAD PUSH32 0x8C379A000000000000000000000000000000000000000000000000000000000 DUP2 MSTORE PUSH1 0x4 ADD PUSH2 0x5C0 SWAP1 PUSH2 0x175B JUMP JUMPDEST PUSH1 0x40 MLOAD DUP1 SWAP2 SUB SWAP1 REVERT JUMPDEST DUP7 PUSH20 0xFFFFFFFFFFFFFFFFFFFFFFFFFFFFFFFFFFFFFFFF AND PUSH4 0xA1448194 DUP6 DUP6 PUSH1 0x40 MLOAD DUP4 PUSH4 0xFFFFFFFF AND PUSH1 0xE0 SHL DUP2 MSTORE PUSH1 0x4 ADD PUSH2 0x604 SWAP3 SWAP2 SWAP1 PUSH2 0x178A JUMP JUMPDEST PUSH1 0x0 PUSH1 0x40 MLOAD DUP1 DUP4 SUB DUP2 PUSH1 0x0 DUP8 DUP1 EXTCODESIZE ISZERO DUP1 ISZERO PUSH2 0x61E JUMPI PUSH1 0x0 DUP1 REVERT JUMPDEST POP GAS CALL ISZERO DUP1 ISZERO PUSH2 0x632 JUMPI RETURNDATASIZE PUSH1 0x0 DUP1 RETURNDATACOPY RETURNDATASIZE PUSH1 0x0 REVERT JUMPDEST POP POP POP POP DUP5 PUSH20 0xFFFFFFFFFFFFFFFFFFFFFFFFFFFFFFFFFFFFFFFF AND DUP7 PUSH20 0xFFFFFFFFFFFFFFFFFFFFFFFFFFFFFFFFFFFFFFFF AND DUP9 PUSH20 0xFFFFFFFFFFFFFFFFFFFFFFFFFFFFFFFFFFFFFFFF AND PUSH32 0x1F39BF6707B5D608453E0AE4C067B562BCC4C85C0F562EF5D2C774D2E7F131AC DUP8 DUP8 DUP8 DUP8 PUSH1 0x40 MLOAD PUSH2 0x6B0 SWAP5 SWAP4 SWAP3 SWAP2 SWAP1 PUSH2 0x1800 JUMP JUMPDEST PUSH1 0x40 MLOAD DUP1 SWAP2 SUB SWAP1 LOG4 POP POP POP POP POP POP POP JUMP JUMPDEST PUSH32 0x0 DUP2 JUMP JUMPDEST PUSH32 0x0 DUP2 JUMP JUMPDEST PUSH1 0x0 PUSH20 0xFFFFFFFFFFFFFFFFFFFFFFFFFFFFFFFFFFFFFFFF AND DUP6 PUSH20 0xFFFFFFFFFFFFFFFFFFFFFFFFFFFFFFFFFFFFFFFF AND SUB PUSH2 0x778 JUMPI PUSH1 0x40 MLOAD PUSH32 0x8C379A000000000000000000000000000000000000000000000000000000000 DUP2 MSTORE PUSH1 0x4 ADD PUSH2 0x76F SWAP1 PUSH2 0x18B2 JUMP JUMPDEST PUSH1 0x40 MLOAD DUP1 SWAP2 SUB SWAP1 REVERT JUMPDEST PUSH2 0x788 DUP8 DUP8 CALLER DUP9 DUP9 DUP9 DUP9 DUP9 PUSH2 0x7DC JUMP JUMPDEST POP POP POP POP POP POP POP JUMP JUMPDEST PUSH1 0x0 PUSH32 0x0 SWAP1 POP SWAP1 JUMP JUMPDEST PUSH1 0x0 DUP1 DUP3 PUSH20 0xFFFFFFFFFFFFFFFFFFFFFFFFFFFFFFFFFFFFFFFF AND EXTCODESIZE GT SWAP1 POP SWAP2 SWAP1 POP JUMP JUMPDEST PUSH1 0x0 PUSH20 0xFFFFFFFFFFFFFFFFFFFFFFFFFFFFFFFFFFFFFFFF AND DUP8 PUSH20 0xFFFFFFFFFFFFFFFFFFFFFFFFFFFFFFFFFFFFFFFF AND SUB PUSH2 0x84B JUMPI PUSH1 0x40 MLOAD PUSH32 0x8C379A000000000000000000000000000000000000000000000000000000000 DUP2 MSTORE PUSH1 0x4 ADD PUSH2 0x842 SWAP1 PUSH2 0x1944 JUMP JUMPDEST PUSH1 0x40 MLOAD DUP1 SWAP2 SUB SWAP1 REVERT JUMPDEST DUP8 PUSH20 0xFFFFFFFFFFFFFFFFFFFFFFFFFFFFFFFFFFFFFFFF AND PUSH4 0x6352211E DUP6 PUSH1 0x40 MLOAD DUP3 PUSH4 0xFFFFFFFF AND PUSH1 0xE0 SHL DUP2 MSTORE PUSH1 0x4 ADD PUSH2 0x884 SWAP2 SWAP1 PUSH2 0x1964 JUMP JUMPDEST PUSH1 0x20 PUSH1 0x40 MLOAD DUP1 DUP4 SUB DUP2 DUP7 GAS STATICCALL ISZERO DUP1 ISZERO PUSH2 0x8A1 JUMPI RETURNDATASIZE PUSH1 0x0 DUP1 RETURNDATACOPY RETURNDATASIZE PUSH1 0x0 REVERT JUMPDEST POP POP POP POP PUSH1 0x40 MLOAD RETURNDATASIZE PUSH1 0x1F NOT PUSH1 0x1F DUP3 ADD AND DUP3 ADD DUP1 PUSH1 0x40 MSTORE POP DUP2 ADD SWAP1 PUSH2 0x8C5 SWAP2 SWAP1 PUSH2 0x14E0 JUMP JUMPDEST PUSH20 0xFFFFFFFFFFFFFFFFFFFFFFFFFFFFFFFFFFFFFFFF AND DUP7 PUSH20 0xFFFFFFFFFFFFFFFFFFFFFFFFFFFFFFFFFFFFFFFF AND EQ PUSH2 0x932 JUMPI PUSH1 0x40 MLOAD PUSH32 0x8C379A000000000000000000000000000000000000000000000000000000000 DUP2 MSTORE PUSH1 0x4 ADD PUSH2 0x929 SWAP1 PUSH2 0x19F1 JUMP JUMPDEST PUSH1 0x40 MLOAD DUP1 SWAP2 SUB SWAP1 REVERT JUMPDEST PUSH1 0x0 DUP9 PUSH20 0xFFFFFFFFFFFFFFFFFFFFFFFFFFFFFFFFFFFFFFFF AND PUSH4 0xD6C0B2C4 PUSH1 0x40 MLOAD DUP2 PUSH4 0xFFFFFFFF AND PUSH1 0xE0 SHL DUP2 MSTORE PUSH1 0x4 ADD PUSH1 0x20 PUSH1 0x40 MLOAD DUP1 DUP4 SUB DUP2 DUP7 GAS STATICCALL ISZERO DUP1 ISZERO PUSH2 0x97F JUMPI RETURNDATASIZE PUSH1 0x0 DUP1 RETURNDATACOPY RETURNDATASIZE PUSH1 0x0 REVERT JUMPDEST POP POP POP POP PUSH1 0x40 MLOAD RETURNDATASIZE PUSH1 0x1F NOT PUSH1 0x1F DUP3 ADD AND DUP3 ADD DUP1 PUSH1 0x40 MSTORE POP DUP2 ADD SWAP1 PUSH2 0x9A3 SWAP2 SWAP1 PUSH2 0x14E0 JUMP JUMPDEST SWAP1 POP DUP8 PUSH20 0xFFFFFFFFFFFFFFFFFFFFFFFFFFFFFFFFFFFFFFFF AND DUP2 PUSH20 0xFFFFFFFFFFFFFFFFFFFFFFFFFFFFFFFFFFFFFFFF AND EQ PUSH2 0xA13 JUMPI PUSH1 0x40 MLOAD PUSH32 0x8C379A000000000000000000000000000000000000000000000000000000000 DUP2 MSTORE PUSH1 0x4 ADD PUSH2 0xA0A SWAP1 PUSH2 0x1A83 JUMP JUMPDEST PUSH1 0x40 MLOAD DUP1 SWAP2 SUB SWAP1 REVERT JUMPDEST DUP9 PUSH20 0xFFFFFFFFFFFFFFFFFFFFFFFFFFFFFFFFFFFFFFFF AND PUSH4 0x9DC29FAC DUP9 DUP8 PUSH1 0x40 MLOAD DUP4 PUSH4 0xFFFFFFFF AND PUSH1 0xE0 SHL DUP2 MSTORE PUSH1 0x4 ADD PUSH2 0xA4E SWAP3 SWAP2 SWAP1 PUSH2 0x178A JUMP JUMPDEST PUSH1 0x0 PUSH1 0x40 MLOAD DUP1 DUP4 SUB DUP2 PUSH1 0x0 DUP8 DUP1 EXTCODESIZE ISZERO DUP1 ISZERO PUSH2 0xA68 JUMPI PUSH1 0x0 DUP1 REVERT JUMPDEST POP GAS CALL ISZERO DUP1 ISZERO PUSH2 0xA7C JUMPI RETURNDATASIZE PUSH1 0x0 DUP1 RETURNDATACOPY RETURNDATASIZE PUSH1 0x0 REVERT JUMPDEST POP POP POP POP PUSH1 0x0 PUSH4 0x761F4493 PUSH1 0xE0 SHL DUP3 DUP12 DUP11 DUP11 DUP11 DUP10 DUP10 PUSH1 0x40 MLOAD PUSH1 0x24 ADD PUSH2 0xAA7 SWAP8 SWAP7 SWAP6 SWAP5 SWAP4 SWAP3 SWAP2 SWAP1 PUSH2 0x1AA3 JUMP JUMPDEST PUSH1 0x40 MLOAD PUSH1 0x20 DUP2 DUP4 SUB SUB DUP2 MSTORE SWAP1 PUSH1 0x40 MSTORE SWAP1 PUSH28 0xFFFFFFFFFFFFFFFFFFFFFFFFFFFFFFFFFFFFFFFFFFFFFFFFFFFFFFFF NOT AND PUSH1 0x20 DUP3 ADD DUP1 MLOAD PUSH28 0xFFFFFFFFFFFFFFFFFFFFFFFFFFFFFFFFFFFFFFFFFFFFFFFFFFFFFFFF DUP4 DUP2 DUP4 AND OR DUP4 MSTORE POP POP POP POP SWAP1 POP PUSH32 0x0 PUSH20 0xFFFFFFFFFFFFFFFFFFFFFFFFFFFFFFFFFFFFFFFF AND PUSH4 0x3DBB202B PUSH32 0x0 DUP4 DUP9 PUSH1 0x40 MLOAD DUP5 PUSH4 0xFFFFFFFF AND PUSH1 0xE0 SHL DUP2 MSTORE PUSH1 0x4 ADD PUSH2 0xB83 SWAP4 SWAP3 SWAP2 SWAP1 PUSH2 0x1B60 JUMP JUMPDEST PUSH1 0x0 PUSH1 0x40 MLOAD DUP1 DUP4 SUB DUP2 PUSH1 0x0 DUP8 DUP1 EXTCODESIZE ISZERO DUP1 ISZERO PUSH2 0xB9D JUMPI PUSH1 0x0 DUP1 REVERT JUMPDEST POP GAS CALL ISZERO DUP1 ISZERO PUSH2 0xBB1 JUMPI RETURNDATASIZE PUSH1 0x0 DUP1 RETURNDATACOPY RETURNDATASIZE PUSH1 0x0 REVERT JUMPDEST POP POP POP POP DUP8 PUSH20 0xFFFFFFFFFFFFFFFFFFFFFFFFFFFFFFFFFFFFFFFF AND DUP3 PUSH20 0xFFFFFFFFFFFFFFFFFFFFFFFFFFFFFFFFFFFFFFFF AND DUP12 PUSH20 0xFFFFFFFFFFFFFFFFFFFFFFFFFFFFFFFFFFFFFFFF AND PUSH32 0xB7460E2A880F256EBEF3406116FF3EEE0CEE51EBCCDC2A40698F87EBB2E9C1A5 DUP11 DUP11 DUP10 DUP10 PUSH1 0x40 MLOAD PUSH2 0xC2F SWAP5 SWAP4 SWAP3 SWAP2 SWAP1 PUSH2 0x1800 JUMP JUMPDEST PUSH1 0x40 MLOAD DUP1 SWAP2 SUB SWAP1 LOG4 POP POP POP POP POP POP POP POP POP POP JUMP JUMPDEST PUSH1 0x60 PUSH1 0x0 DUP3 SUB PUSH2 0xC8A JUMPI PUSH1 0x40 MLOAD DUP1 PUSH1 0x40 ADD PUSH1 0x40 MSTORE DUP1 PUSH1 0x1 DUP2 MSTORE PUSH1 0x20 ADD PUSH32 0x3000000000000000000000000000000000000000000000000000000000000000 DUP2 MSTORE POP SWAP1 POP PUSH2 0xD9E JUMP JUMPDEST PUSH1 0x0 DUP3 SWAP1 POP PUSH1 0x0 JUMPDEST PUSH1 0x0 DUP3 EQ PUSH2 0xCBC JUMPI DUP1 DUP1 PUSH2 0xCA5 SWAP1 PUSH2 0x1BCD JUMP JUMPDEST SWAP2 POP POP PUSH1 0xA DUP3 PUSH2 0xCB5 SWAP2 SWAP1 PUSH2 0x1C44 JUMP JUMPDEST SWAP2 POP PUSH2 0xC92 JUMP JUMPDEST PUSH1 0x0 DUP2 PUSH8 0xFFFFFFFFFFFFFFFF DUP2 GT ISZERO PUSH2 0xCD8 JUMPI PUSH2 0xCD7 PUSH2 0x1C75 JUMP JUMPDEST JUMPDEST PUSH1 0x40 MLOAD SWAP1 DUP1 DUP3 MSTORE DUP1 PUSH1 0x1F ADD PUSH1 0x1F NOT AND PUSH1 0x20 ADD DUP3 ADD PUSH1 0x40 MSTORE DUP1 ISZERO PUSH2 0xD0A JUMPI DUP2 PUSH1 0x20 ADD PUSH1 0x1 DUP3 MUL DUP1 CALLDATASIZE DUP4 CALLDATACOPY DUP1 DUP3 ADD SWAP2 POP POP SWAP1 POP JUMPDEST POP SWAP1 POP JUMPDEST PUSH1 0x0 DUP6 EQ PUSH2 0xD97 JUMPI PUSH1 0x1 DUP3 PUSH2 0xD23 SWAP2 SWAP1 PUSH2 0x1CA4 JUMP JUMPDEST SWAP2 POP PUSH1 0xA DUP6 PUSH2 0xD32 SWAP2 SWAP1 PUSH2 0x1CD8 JUMP JUMPDEST PUSH1 0x30 PUSH2 0xD3E SWAP2 SWAP1 PUSH2 0x1D09 JUMP JUMPDEST PUSH1 0xF8 SHL DUP2 DUP4 DUP2 MLOAD DUP2 LT PUSH2 0xD54 JUMPI PUSH2 0xD53 PUSH2 0x1D5F JUMP JUMPDEST JUMPDEST PUSH1 0x20 ADD ADD SWAP1 PUSH31 0xFFFFFFFFFFFFFFFFFFFFFFFFFFFFFFFFFFFFFFFFFFFFFFFFFFFFFFFFFFFFFF NOT AND SWAP1 DUP2 PUSH1 0x0 BYTE SWAP1 MSTORE8 POP PUSH1 0xA DUP6 PUSH2 0xD90 SWAP2 SWAP1 PUSH2 0x1C44 JUMP JUMPDEST SWAP5 POP PUSH2 0xD0E JUMP JUMPDEST DUP1 SWAP4 POP POP POP POP JUMPDEST SWAP2 SWAP1 POP JUMP JUMPDEST PUSH1 0x0 PUSH2 0xDAE DUP4 PUSH2 0xDC8 JUMP JUMPDEST DUP1 ISZERO PUSH2 0xDC0 JUMPI POP PUSH2 0xDBF DUP4 DUP4 PUSH2 0xE15 JUMP JUMPDEST JUMPDEST SWAP1 POP SWAP3 SWAP2 POP POP JUMP JUMPDEST PUSH1 0x0 PUSH2 0xDF4 DUP3 PUSH32 0x1FFC9A700000000000000000000000000000000000000000000000000000000 PUSH2 0xE15 JUMP JUMPDEST DUP1 ISZERO PUSH2 0xE0E JUMPI POP PUSH2 0xE0C DUP3 PUSH4 0xFFFFFFFF PUSH1 0xE0 SHL PUSH2 0xE15 JUMP JUMPDEST ISZERO JUMPDEST SWAP1 POP SWAP2 SWAP1 POP JUMP JUMPDEST PUSH1 0x0 DUP1 PUSH4 0x1FFC9A7 PUSH1 0xE0 SHL DUP4 PUSH1 0x40 MLOAD PUSH1 0x24 ADD PUSH2 0xE31 SWAP2 SWAP1 PUSH2 0x1DC9 JUMP JUMPDEST PUSH1 0x40 MLOAD PUSH1 0x20 DUP2 DUP4 SUB SUB DUP2 MSTORE SWAP1 PUSH1 0x40 MSTORE SWAP1 PUSH28 0xFFFFFFFFFFFFFFFFFFFFFFFFFFFFFFFFFFFFFFFFFFFFFFFFFFFFFFFF NOT AND PUSH1 0x20 DUP3 ADD DUP1 MLOAD PUSH28 0xFFFFFFFFFFFFFFFFFFFFFFFFFFFFFFFFFFFFFFFFFFFFFFFFFFFFFFFF DUP4 DUP2 DUP4 AND OR DUP4 MSTORE POP POP POP POP SWAP1 POP PUSH1 0x0 DUP1 PUSH1 0x0 PUSH1 0x20 PUSH1 0x0 DUP6 MLOAD PUSH1 0x20 DUP8 ADD DUP11 PUSH2 0x7530 STATICCALL SWAP3 POP RETURNDATASIZE SWAP2 POP PUSH1 0x0 MLOAD SWAP1 POP DUP3 DUP1 ISZERO PUSH2 0xEBC JUMPI POP PUSH1 0x20 DUP3 LT ISZERO JUMPDEST DUP1 ISZERO PUSH2 0xEC8 JUMPI POP PUSH1 0x0 DUP2 GT JUMPDEST SWAP5 POP POP POP POP POP SWAP3 SWAP2 POP POP JUMP JUMPDEST PUSH1 0x0 DUP1 REVERT JUMPDEST PUSH1 0x0 DUP1 REVERT JUMPDEST PUSH1 0x0 PUSH20 0xFFFFFFFFFFFFFFFFFFFFFFFFFFFFFFFFFFFFFFFF DUP3 AND SWAP1 POP SWAP2 SWAP1 POP JUMP JUMPDEST PUSH1 0x0 PUSH2 0xF09 DUP3 PUSH2 0xEDE JUMP JUMPDEST SWAP1 POP SWAP2 SWAP1 POP JUMP JUMPDEST PUSH2 0xF19 DUP2 PUSH2 0xEFE JUMP JUMPDEST DUP2 EQ PUSH2 0xF24 JUMPI PUSH1 0x0 DUP1 REVERT JUMPDEST POP JUMP JUMPDEST PUSH1 0x0 DUP2 CALLDATALOAD SWAP1 POP PUSH2 0xF36 DUP2 PUSH2 0xF10 JUMP JUMPDEST SWAP3 SWAP2 POP POP JUMP JUMPDEST PUSH1 0x0 DUP2 SWAP1 POP SWAP2 SWAP1 POP JUMP JUMPDEST PUSH2 0xF4F DUP2 PUSH2 0xF3C JUMP JUMPDEST DUP2 EQ PUSH2 0xF5A JUMPI PUSH1 0x0 DUP1 REVERT JUMPDEST POP JUMP JUMPDEST PUSH1 0x0 DUP2 CALLDATALOAD SWAP1 POP PUSH2 0xF6C DUP2 PUSH2 0xF46 JUMP JUMPDEST SWAP3 SWAP2 POP POP JUMP JUMPDEST PUSH1 0x0 PUSH4 0xFFFFFFFF DUP3 AND SWAP1 POP SWAP2 SWAP1 POP JUMP JUMPDEST PUSH2 0xF8B DUP2 PUSH2 0xF72 JUMP JUMPDEST DUP2 EQ PUSH2 0xF96 JUMPI PUSH1 0x0 DUP1 REVERT JUMPDEST POP JUMP JUMPDEST PUSH1 0x0 DUP2 CALLDATALOAD SWAP1 POP PUSH2 0xFA8 DUP2 PUSH2 0xF82 JUMP JUMPDEST SWAP3 SWAP2 POP POP JUMP JUMPDEST PUSH1 0x0 DUP1 REVERT JUMPDEST PUSH1 0x0 DUP1 REVERT JUMPDEST PUSH1 0x0 DUP1 REVERT JUMPDEST PUSH1 0x0 DUP1 DUP4 PUSH1 0x1F DUP5 ADD SLT PUSH2 0xFD3 JUMPI PUSH2 0xFD2 PUSH2 0xFAE JUMP JUMPDEST JUMPDEST DUP3 CALLDATALOAD SWAP1 POP PUSH8 0xFFFFFFFFFFFFFFFF DUP2 GT ISZERO PUSH2 0xFF0 JUMPI PUSH2 0xFEF PUSH2 0xFB3 JUMP JUMPDEST JUMPDEST PUSH1 0x20 DUP4 ADD SWAP2 POP DUP4 PUSH1 0x1 DUP3 MUL DUP4 ADD GT ISZERO PUSH2 0x100C JUMPI PUSH2 0x100B PUSH2 0xFB8 JUMP JUMPDEST JUMPDEST SWAP3 POP SWAP3 SWAP1 POP JUMP JUMPDEST PUSH1 0x0 DUP1 PUSH1 0x0 DUP1 PUSH1 0x0 DUP1 PUSH1 0xA0 DUP8 DUP10 SUB SLT ISZERO PUSH2 0x1030 JUMPI PUSH2 0x102F PUSH2 0xED4 JUMP JUMPDEST JUMPDEST PUSH1 0x0 PUSH2 0x103E DUP10 DUP3 DUP11 ADD PUSH2 0xF27 JUMP JUMPDEST SWAP7 POP POP PUSH1 0x20 PUSH2 0x104F DUP10 DUP3 DUP11 ADD PUSH2 0xF27 JUMP JUMPDEST SWAP6 POP POP PUSH1 0x40 PUSH2 0x1060 DUP10 DUP3 DUP11 ADD PUSH2 0xF5D JUMP JUMPDEST SWAP5 POP POP PUSH1 0x60 PUSH2 0x1071 DUP10 DUP3 DUP11 ADD PUSH2 0xF99 JUMP JUMPDEST SWAP4 POP POP PUSH1 0x80 DUP8 ADD CALLDATALOAD PUSH8 0xFFFFFFFFFFFFFFFF DUP2 GT ISZERO PUSH2 0x1092 JUMPI PUSH2 0x1091 PUSH2 0xED9 JUMP JUMPDEST JUMPDEST PUSH2 0x109E DUP10 DUP3 DUP11 ADD PUSH2 0xFBD JUMP JUMPDEST SWAP3 POP SWAP3 POP POP SWAP3 SWAP6 POP SWAP3 SWAP6 POP SWAP3 SWAP6 JUMP JUMPDEST PUSH1 0x0 DUP2 SWAP1 POP SWAP2 SWAP1 POP JUMP JUMPDEST PUSH1 0x0 PUSH2 0x10D2 PUSH2 0x10CD PUSH2 0x10C8 DUP5 PUSH2 0xEDE JUMP JUMPDEST PUSH2 0x10AD JUMP JUMPDEST PUSH2 0xEDE JUMP JUMPDEST SWAP1 POP SWAP2 SWAP1 POP JUMP JUMPDEST PUSH1 0x0 PUSH2 0x10E4 DUP3 PUSH2 0x10B7 JUMP JUMPDEST SWAP1 POP SWAP2 SWAP1 POP JUMP JUMPDEST PUSH1 0x0 PUSH2 0x10F6 DUP3 PUSH2 0x10D9 JUMP JUMPDEST SWAP1 POP SWAP2 SWAP1 POP JUMP JUMPDEST PUSH2 0x1106 DUP2 PUSH2 0x10EB JUMP JUMPDEST DUP3 MSTORE POP POP JUMP JUMPDEST PUSH1 0x0 PUSH1 0x20 DUP3 ADD SWAP1 POP PUSH2 0x1121 PUSH1 0x0 DUP4 ADD DUP5 PUSH2 0x10FD JUMP JUMPDEST SWAP3 SWAP2 POP POP JUMP JUMPDEST PUSH1 0x0 DUP2 MLOAD SWAP1 POP SWAP2 SWAP1 POP JUMP JUMPDEST PUSH1 0x0 DUP3 DUP3 MSTORE PUSH1 0x20 DUP3 ADD SWAP1 POP SWAP3 SWAP2 POP POP JUMP JUMPDEST PUSH1 0x0 JUMPDEST DUP4 DUP2 LT ISZERO PUSH2 0x1161 JUMPI DUP1 DUP3 ADD MLOAD DUP2 DUP5 ADD MSTORE PUSH1 0x20 DUP2 ADD SWAP1 POP PUSH2 0x1146 JUMP JUMPDEST DUP4 DUP2 GT ISZERO PUSH2 0x1170 JUMPI PUSH1 0x0 DUP5 DUP5 ADD MSTORE JUMPDEST POP POP POP POP JUMP JUMPDEST PUSH1 0x0 PUSH1 0x1F NOT PUSH1 0x1F DUP4 ADD AND SWAP1 POP SWAP2 SWAP1 POP JUMP JUMPDEST PUSH1 0x0 PUSH2 0x1192 DUP3 PUSH2 0x1127 JUMP JUMPDEST PUSH2 0x119C DUP2 DUP6 PUSH2 0x1132 JUMP JUMPDEST SWAP4 POP PUSH2 0x11AC DUP2 DUP6 PUSH1 0x20 DUP7 ADD PUSH2 0x1143 JUMP JUMPDEST PUSH2 0x11B5 DUP2 PUSH2 0x1176 JUMP JUMPDEST DUP5 ADD SWAP2 POP POP SWAP3 SWAP2 POP POP JUMP JUMPDEST PUSH1 0x0 PUSH1 0x20 DUP3 ADD SWAP1 POP DUP2 DUP2 SUB PUSH1 0x0 DUP4 ADD MSTORE PUSH2 0x11DA DUP2 DUP5 PUSH2 0x1187 JUMP JUMPDEST SWAP1 POP SWAP3 SWAP2 POP POP JUMP JUMPDEST PUSH1 0x0 DUP1 PUSH1 0x0 DUP1 PUSH1 0x0 DUP1 PUSH1 0x0 PUSH1 0xC0 DUP9 DUP11 SUB SLT ISZERO PUSH2 0x1201 JUMPI PUSH2 0x1200 PUSH2 0xED4 JUMP JUMPDEST JUMPDEST PUSH1 0x0 PUSH2 0x120F DUP11 DUP3 DUP12 ADD PUSH2 0xF27 JUMP JUMPDEST SWAP8 POP POP PUSH1 0x20 PUSH2 0x1220 DUP11 DUP3 DUP12 ADD PUSH2 0xF27 JUMP JUMPDEST SWAP7 POP POP PUSH1 0x40 PUSH2 0x1231 DUP11 DUP3 DUP12 ADD PUSH2 0xF27 JUMP JUMPDEST SWAP6 POP POP PUSH1 0x60 PUSH2 0x1242 DUP11 DUP3 DUP12 ADD PUSH2 0xF27 JUMP JUMPDEST SWAP5 POP POP PUSH1 0x80 PUSH2 0x1253 DUP11 DUP3 DUP12 ADD PUSH2 0xF5D JUMP JUMPDEST SWAP4 POP POP PUSH1 0xA0 DUP9 ADD CALLDATALOAD PUSH8 0xFFFFFFFFFFFFFFFF DUP2 GT ISZERO PUSH2 0x1274 JUMPI PUSH2 0x1273 PUSH2 0xED9 JUMP JUMPDEST JUMPDEST PUSH2 0x1280 DUP11 DUP3 DUP12 ADD PUSH2 0xFBD JUMP JUMPDEST SWAP3 POP SWAP3 POP POP SWAP3 SWAP6 SWAP9 SWAP2 SWAP5 SWAP8 POP SWAP3 SWAP6 POP JUMP JUMPDEST PUSH2 0x129A DUP2 PUSH2 0xEFE JUMP JUMPDEST DUP3 MSTORE POP POP JUMP JUMPDEST PUSH1 0x0 PUSH1 0x20 DUP3 ADD SWAP1 POP PUSH2 0x12B5 PUSH1 0x0 DUP4 ADD DUP5 PUSH2 0x1291 JUMP JUMPDEST SWAP3 SWAP2 POP POP JUMP JUMPDEST PUSH1 0x0 DUP1 PUSH1 0x0 DUP1 PUSH1 0x0 DUP1 PUSH1 0x0 PUSH1 0xC0 DUP9 DUP11 SUB SLT ISZERO PUSH2 0x12DA JUMPI PUSH2 0x12D9 PUSH2 0xED4 JUMP JUMPDEST JUMPDEST PUSH1 0x0 PUSH2 0x12E8 DUP11 DUP3 DUP12 ADD PUSH2 0xF27 JUMP JUMPDEST SWAP8 POP POP PUSH1 0x20 PUSH2 0x12F9 DUP11 DUP3 DUP12 ADD PUSH2 0xF27 JUMP JUMPDEST SWAP7 POP POP PUSH1 0x40 PUSH2 0x130A DUP11 DUP3 DUP12 ADD PUSH2 0xF27 JUMP JUMPDEST SWAP6 POP POP PUSH1 0x60 PUSH2 0x131B DUP11 DUP3 DUP12 ADD PUSH2 0xF5D JUMP JUMPDEST SWAP5 POP POP PUSH1 0x80 PUSH2 0x132C DUP11 DUP3 DUP12 ADD PUSH2 0xF99 JUMP JUMPDEST SWAP4 POP POP PUSH1 0xA0 DUP9 ADD CALLDATALOAD PUSH8 0xFFFFFFFFFFFFFFFF DUP2 GT ISZERO PUSH2 0x134D JUMPI PUSH2 0x134C PUSH2 0xED9 JUMP JUMPDEST JUMPDEST PUSH2 0x1359 DUP11 DUP3 DUP12 ADD PUSH2 0xFBD JUMP JUMPDEST SWAP3 POP SWAP3 POP POP SWAP3 SWAP6 SWAP9 SWAP2 SWAP5 SWAP8 POP SWAP3 SWAP6 POP JUMP JUMPDEST PUSH32 0x4552433732314272696467653A206163636F756E74206973206E6F7420657874 PUSH1 0x0 DUP3 ADD MSTORE PUSH32 0x65726E616C6C79206F776E656400000000000000000000000000000000000000 PUSH1 0x20 DUP3 ADD MSTORE POP JUMP JUMPDEST PUSH1 0x0 PUSH2 0x13C6 PUSH1 0x2D DUP4 PUSH2 0x1132 JUMP JUMPDEST SWAP2 POP PUSH2 0x13D1 DUP3 PUSH2 0x136A JUMP JUMPDEST PUSH1 0x40 DUP3 ADD SWAP1 POP SWAP2 SWAP1 POP JUMP JUMPDEST PUSH1 0x0 PUSH1 0x20 DUP3 ADD SWAP1 POP DUP2 DUP2 SUB PUSH1 0x0 DUP4 ADD MSTORE PUSH2 0x13F5 DUP2 PUSH2 0x13B9 JUMP JUMPDEST SWAP1 POP SWAP2 SWAP1 POP JUMP JUMPDEST PUSH1 0x0 DUP2 SWAP1 POP SWAP3 SWAP2 POP POP JUMP JUMPDEST PUSH1 0x0 PUSH2 0x1412 DUP3 PUSH2 0x1127 JUMP JUMPDEST PUSH2 0x141C DUP2 DUP6 PUSH2 0x13FC JUMP JUMPDEST SWAP4 POP PUSH2 0x142C DUP2 DUP6 PUSH1 0x20 DUP7 ADD PUSH2 0x1143 JUMP JUMPDEST DUP1 DUP5 ADD SWAP2 POP POP SWAP3 SWAP2 POP POP JUMP JUMPDEST PUSH32 0x2E00000000000000000000000000000000000000000000000000000000000000 PUSH1 0x0 DUP3 ADD MSTORE POP JUMP JUMPDEST PUSH1 0x0 PUSH2 0x146E PUSH1 0x1 DUP4 PUSH2 0x13FC JUMP JUMPDEST SWAP2 POP PUSH2 0x1479 DUP3 PUSH2 0x1438 JUMP JUMPDEST PUSH1 0x1 DUP3 ADD SWAP1 POP SWAP2 SWAP1 POP JUMP JUMPDEST PUSH1 0x0 PUSH2 0x1490 DUP3 DUP7 PUSH2 0x1407 JUMP JUMPDEST SWAP2 POP PUSH2 0x149B DUP3 PUSH2 0x1461 JUMP JUMPDEST SWAP2 POP PUSH2 0x14A7 DUP3 DUP6 PUSH2 0x1407 JUMP JUMPDEST SWAP2 POP PUSH2 0x14B2 DUP3 PUSH2 0x1461 JUMP JUMPDEST SWAP2 POP PUSH2 0x14BE DUP3 DUP5 PUSH2 0x1407 JUMP JUMPDEST SWAP2 POP DUP2 SWAP1 POP SWAP5 SWAP4 POP POP POP POP JUMP JUMPDEST PUSH1 0x0 DUP2 MLOAD SWAP1 POP PUSH2 0x14DA DUP2 PUSH2 0xF10 JUMP JUMPDEST SWAP3 SWAP2 POP POP JUMP JUMPDEST PUSH1 0x0 PUSH1 0x20 DUP3 DUP5 SUB SLT ISZERO PUSH2 0x14F6 JUMPI PUSH2 0x14F5 PUSH2 0xED4 JUMP JUMPDEST JUMPDEST PUSH1 0x0 PUSH2 0x1504 DUP5 DUP3 DUP6 ADD PUSH2 0x14CB JUMP JUMPDEST SWAP2 POP POP SWAP3 SWAP2 POP POP JUMP JUMPDEST PUSH32 0x4552433732314272696467653A2066756E6374696F6E2063616E206F6E6C7920 PUSH1 0x0 DUP3 ADD MSTORE PUSH32 0x62652063616C6C65642066726F6D20746865206F746865722062726964676500 PUSH1 0x20 DUP3 ADD MSTORE POP JUMP JUMPDEST PUSH1 0x0 PUSH2 0x1569 PUSH1 0x3F DUP4 PUSH2 0x1132 JUMP JUMPDEST SWAP2 POP PUSH2 0x1574 DUP3 PUSH2 0x150D JUMP JUMPDEST PUSH1 0x40 DUP3 ADD SWAP1 POP SWAP2 SWAP1 POP JUMP JUMPDEST PUSH1 0x0 PUSH1 0x20 DUP3 ADD SWAP1 POP DUP2 DUP2 SUB PUSH1 0x0 DUP4 ADD MSTORE PUSH2 0x1598 DUP2 PUSH2 0x155C JUMP JUMPDEST SWAP1 POP SWAP2 SWAP1 POP JUMP JUMPDEST PUSH32 0x4C324552433732314272696467653A206C6F63616C20746F6B656E2063616E6E PUSH1 0x0 DUP3 ADD MSTORE PUSH32 0x6F742062652073656C6600000000000000000000000000000000000000000000 PUSH1 0x20 DUP3 ADD MSTORE POP JUMP JUMPDEST PUSH1 0x0 PUSH2 0x15FB PUSH1 0x2A DUP4 PUSH2 0x1132 JUMP JUMPDEST SWAP2 POP PUSH2 0x1606 DUP3 PUSH2 0x159F JUMP JUMPDEST PUSH1 0x40 DUP3 ADD SWAP1 POP SWAP2 SWAP1 POP JUMP JUMPDEST PUSH1 0x0 PUSH1 0x20 DUP3 ADD SWAP1 POP DUP2 DUP2 SUB PUSH1 0x0 DUP4 ADD MSTORE PUSH2 0x162A DUP2 PUSH2 0x15EE JUMP JUMPDEST SWAP1 POP SWAP2 SWAP1 POP JUMP JUMPDEST PUSH32 0x4C324552433732314272696467653A206C6F63616C20746F6B656E20696E7465 PUSH1 0x0 DUP3 ADD MSTORE PUSH32 0x7266616365206973206E6F7420636F6D706C69616E7400000000000000000000 PUSH1 0x20 DUP3 ADD MSTORE POP JUMP JUMPDEST PUSH1 0x0 PUSH2 0x168D PUSH1 0x36 DUP4 PUSH2 0x1132 JUMP JUMPDEST SWAP2 POP PUSH2 0x1698 DUP3 PUSH2 0x1631 JUMP JUMPDEST PUSH1 0x40 DUP3 ADD SWAP1 POP SWAP2 SWAP1 POP JUMP JUMPDEST PUSH1 0x0 PUSH1 0x20 DUP3 ADD SWAP1 POP DUP2 DUP2 SUB PUSH1 0x0 DUP4 ADD MSTORE PUSH2 0x16BC DUP2 PUSH2 0x1680 JUMP JUMPDEST SWAP1 POP SWAP2 SWAP1 POP JUMP JUMPDEST PUSH32 0x4C324552433732314272696467653A2077726F6E672072656D6F746520746F6B PUSH1 0x0 DUP3 ADD MSTORE PUSH32 0x656E20666F72204F7074696D69736D204D696E7461626C652045524337323120 PUSH1 0x20 DUP3 ADD MSTORE PUSH32 0x6C6F63616C20746F6B656E000000000000000000000000000000000000000000 PUSH1 0x40 DUP3 ADD MSTORE POP JUMP JUMPDEST PUSH1 0x0 PUSH2 0x1745 PUSH1 0x4B DUP4 PUSH2 0x1132 JUMP JUMPDEST SWAP2 POP PUSH2 0x1750 DUP3 PUSH2 0x16C3 JUMP JUMPDEST PUSH1 0x60 DUP3 ADD SWAP1 POP SWAP2 SWAP1 POP JUMP JUMPDEST PUSH1 0x0 PUSH1 0x20 DUP3 ADD SWAP1 POP DUP2 DUP2 SUB PUSH1 0x0 DUP4 ADD MSTORE PUSH2 0x1774 DUP2 PUSH2 0x1738 JUMP JUMPDEST SWAP1 POP SWAP2 SWAP1 POP JUMP JUMPDEST PUSH2 0x1784 DUP2 PUSH2 0xF3C JUMP JUMPDEST DUP3 MSTORE POP POP JUMP JUMPDEST PUSH1 0x0 PUSH1 0x40 DUP3 ADD SWAP1 POP PUSH2 0x179F PUSH1 0x0 DUP4 ADD DUP6 PUSH2 0x1291 JUMP JUMPDEST PUSH2 0x17AC PUSH1 0x20 DUP4 ADD DUP5 PUSH2 0x177B JUMP JUMPDEST SWAP4 SWAP3 POP POP POP JUMP JUMPDEST PUSH1 0x0 DUP3 DUP3 MSTORE PUSH1 0x20 DUP3 ADD SWAP1 POP SWAP3 SWAP2 POP POP JUMP JUMPDEST DUP3 DUP2 DUP4 CALLDATACOPY PUSH1 0x0 DUP4 DUP4 ADD MSTORE POP POP POP JUMP JUMPDEST PUSH1 0x0 PUSH2 0x17DF DUP4 DUP6 PUSH2 0x17B3 JUMP JUMPDEST SWAP4 POP PUSH2 0x17EC DUP4 DUP6 DUP5 PUSH2 0x17C4 JUMP JUMPDEST PUSH2 0x17F5 DUP4 PUSH2 0x1176 JUMP JUMPDEST DUP5 ADD SWAP1 POP SWAP4 SWAP3 POP POP POP JUMP JUMPDEST PUSH1 0x0 PUSH1 0x60 DUP3 ADD SWAP1 POP PUSH2 0x1815 PUSH1 0x0 DUP4 ADD DUP8 PUSH2 0x1291 JUMP JUMPDEST PUSH2 0x1822 PUSH1 0x20 DUP4 ADD DUP7 PUSH2 0x177B JUMP JUMPDEST DUP2 DUP2 SUB PUSH1 0x40 DUP4 ADD MSTORE PUSH2 0x1835 DUP2 DUP5 DUP7 PUSH2 0x17D3 JUMP JUMPDEST SWAP1 POP SWAP6 SWAP5 POP POP POP POP POP JUMP JUMPDEST PUSH32 0x4552433732314272696467653A206E667420726563697069656E742063616E6E PUSH1 0x0 DUP3 ADD MSTORE PUSH32 0x6F74206265206164647265737328302900000000000000000000000000000000 PUSH1 0x20 DUP3 ADD MSTORE POP JUMP JUMPDEST PUSH1 0x0 PUSH2 0x189C PUSH1 0x30 DUP4 PUSH2 0x1132 JUMP JUMPDEST SWAP2 POP PUSH2 0x18A7 DUP3 PUSH2 0x1840 JUMP JUMPDEST PUSH1 0x40 DUP3 ADD SWAP1 POP SWAP2 SWAP1 POP JUMP JUMPDEST PUSH1 0x0 PUSH1 0x20 DUP3 ADD SWAP1 POP DUP2 DUP2 SUB PUSH1 0x0 DUP4 ADD MSTORE PUSH2 0x18CB DUP2 PUSH2 0x188F JUMP JUMPDEST SWAP1 POP SWAP2 SWAP1 POP JUMP JUMPDEST PUSH32 0x4C324552433732314272696467653A2072656D6F746520746F6B656E2063616E PUSH1 0x0 DUP3 ADD MSTORE PUSH32 0x6E6F742062652061646472657373283029000000000000000000000000000000 PUSH1 0x20 DUP3 ADD MSTORE POP JUMP JUMPDEST PUSH1 0x0 PUSH2 0x192E PUSH1 0x31 DUP4 PUSH2 0x1132 JUMP JUMPDEST SWAP2 POP PUSH2 0x1939 DUP3 PUSH2 0x18D2 JUMP JUMPDEST PUSH1 0x40 DUP3 ADD SWAP1 POP SWAP2 SWAP1 POP JUMP JUMPDEST PUSH1 0x0 PUSH1 0x20 DUP3 ADD SWAP1 POP DUP2 DUP2 SUB PUSH1 0x0 DUP4 ADD MSTORE PUSH2 0x195D DUP2 PUSH2 0x1921 JUMP JUMPDEST SWAP1 POP SWAP2 SWAP1 POP JUMP JUMPDEST PUSH1 0x0 PUSH1 0x20 DUP3 ADD SWAP1 POP PUSH2 0x1979 PUSH1 0x0 DUP4 ADD DUP5 PUSH2 0x177B JUMP JUMPDEST SWAP3 SWAP2 POP POP JUMP JUMPDEST PUSH32 0x4C324552433732314272696467653A205769746864726177616C206973206E6F PUSH1 0x0 DUP3 ADD MSTORE PUSH32 0x74206265696E6720696E69746961746564206279204E4654206F776E65720000 PUSH1 0x20 DUP3 ADD MSTORE POP JUMP JUMPDEST PUSH1 0x0 PUSH2 0x19DB PUSH1 0x3E DUP4 PUSH2 0x1132 JUMP JUMPDEST SWAP2 POP PUSH2 0x19E6 DUP3 PUSH2 0x197F JUMP JUMPDEST PUSH1 0x40 DUP3 ADD SWAP1 POP SWAP2 SWAP1 POP JUMP JUMPDEST PUSH1 0x0 PUSH1 0x20 DUP3 ADD SWAP1 POP DUP2 DUP2 SUB PUSH1 0x0 DUP4 ADD MSTORE PUSH2 0x1A0A DUP2 PUSH2 0x19CE JUMP JUMPDEST SWAP1 POP SWAP2 SWAP1 POP JUMP JUMPDEST PUSH32 0x4C324552433732314272696467653A2072656D6F746520746F6B656E20646F65 PUSH1 0x0 DUP3 ADD MSTORE PUSH32 0x73206E6F74206D6174636820676976656E2076616C7565000000000000000000 PUSH1 0x20 DUP3 ADD MSTORE POP JUMP JUMPDEST PUSH1 0x0 PUSH2 0x1A6D PUSH1 0x37 DUP4 PUSH2 0x1132 JUMP JUMPDEST SWAP2 POP PUSH2 0x1A78 DUP3 PUSH2 0x1A11 JUMP JUMPDEST PUSH1 0x40 DUP3 ADD SWAP1 POP SWAP2 SWAP1 POP JUMP JUMPDEST PUSH1 0x0 PUSH1 0x20 DUP3 ADD SWAP1 POP DUP2 DUP2 SUB PUSH1 0x0 DUP4 ADD MSTORE PUSH2 0x1A9C DUP2 PUSH2 0x1A60 JUMP JUMPDEST SWAP1 POP SWAP2 SWAP1 POP JUMP JUMPDEST PUSH1 0x0 PUSH1 0xC0 DUP3 ADD SWAP1 POP PUSH2 0x1AB8 PUSH1 0x0 DUP4 ADD DUP11 PUSH2 0x1291 JUMP JUMPDEST PUSH2 0x1AC5 PUSH1 0x20 DUP4 ADD DUP10 PUSH2 0x1291 JUMP JUMPDEST PUSH2 0x1AD2 PUSH1 0x40 DUP4 ADD DUP9 PUSH2 0x1291 JUMP JUMPDEST PUSH2 0x1ADF PUSH1 0x60 DUP4 ADD DUP8 PUSH2 0x1291 JUMP JUMPDEST PUSH2 0x1AEC PUSH1 0x80 DUP4 ADD DUP7 PUSH2 0x177B JUMP JUMPDEST DUP2 DUP2 SUB PUSH1 0xA0 DUP4 ADD MSTORE PUSH2 0x1AFF DUP2 DUP5 DUP7 PUSH2 0x17D3 JUMP JUMPDEST SWAP1 POP SWAP9 SWAP8 POP POP POP POP POP POP POP POP JUMP JUMPDEST PUSH1 0x0 DUP2 MLOAD SWAP1 POP SWAP2 SWAP1 POP JUMP JUMPDEST PUSH1 0x0 PUSH2 0x1B23 DUP3 PUSH2 0x1B0D JUMP JUMPDEST PUSH2 0x1B2D DUP2 DUP6 PUSH2 0x17B3 JUMP JUMPDEST SWAP4 POP PUSH2 0x1B3D DUP2 DUP6 PUSH1 0x20 DUP7 ADD PUSH2 0x1143 JUMP JUMPDEST PUSH2 0x1B46 DUP2 PUSH2 0x1176 JUMP JUMPDEST DUP5 ADD SWAP2 POP POP SWAP3 SWAP2 POP POP JUMP JUMPDEST PUSH2 0x1B5A DUP2 PUSH2 0xF72 JUMP JUMPDEST DUP3 MSTORE POP POP JUMP JUMPDEST PUSH1 0x0 PUSH1 0x60 DUP3 ADD SWAP1 POP PUSH2 0x1B75 PUSH1 0x0 DUP4 ADD DUP7 PUSH2 0x1291 JUMP JUMPDEST DUP2 DUP2 SUB PUSH1 0x20 DUP4 ADD MSTORE PUSH2 0x1B87 DUP2 DUP6 PUSH2 0x1B18 JUMP JUMPDEST SWAP1 POP PUSH2 0x1B96 PUSH1 0x40 DUP4 ADD DUP5 PUSH2 0x1B51 JUMP JUMPDEST SWAP5 SWAP4 POP POP POP POP JUMP JUMPDEST PUSH32 0x4E487B7100000000000000000000000000000000000000000000000000000000 PUSH1 0x0 MSTORE PUSH1 0x11 PUSH1 0x4 MSTORE PUSH1 0x24 PUSH1 0x0 REVERT JUMPDEST PUSH1 0x0 PUSH2 0x1BD8 DUP3 PUSH2 0xF3C JUMP JUMPDEST SWAP2 POP PUSH32 0xFFFFFFFFFFFFFFFFFFFFFFFFFFFFFFFFFFFFFFFFFFFFFFFFFFFFFFFFFFFFFFFF DUP3 SUB PUSH2 0x1C0A JUMPI PUSH2 0x1C09 PUSH2 0x1B9E JUMP JUMPDEST JUMPDEST PUSH1 0x1 DUP3 ADD SWAP1 POP SWAP2 SWAP1 POP JUMP JUMPDEST PUSH32 0x4E487B7100000000000000000000000000000000000000000000000000000000 PUSH1 0x0 MSTORE PUSH1 0x12 PUSH1 0x4 MSTORE PUSH1 0x24 PUSH1 0x0 REVERT JUMPDEST PUSH1 0x0 PUSH2 0x1C4F DUP3 PUSH2 0xF3C JUMP JUMPDEST SWAP2 POP PUSH2 0x1C5A DUP4 PUSH2 0xF3C JUMP JUMPDEST SWAP3 POP DUP3 PUSH2 0x1C6A JUMPI PUSH2 0x1C69 PUSH2 0x1C15 JUMP JUMPDEST JUMPDEST DUP3 DUP3 DIV SWAP1 POP SWAP3 SWAP2 POP POP JUMP JUMPDEST PUSH32 0x4E487B7100000000000000000000000000000000000000000000000000000000 PUSH1 0x0 MSTORE PUSH1 0x41 PUSH1 0x4 MSTORE PUSH1 0x24 PUSH1 0x0 REVERT JUMPDEST PUSH1 0x0 PUSH2 0x1CAF DUP3 PUSH2 0xF3C JUMP JUMPDEST SWAP2 POP PUSH2 0x1CBA DUP4 PUSH2 0xF3C JUMP JUMPDEST SWAP3 POP DUP3 DUP3 LT ISZERO PUSH2 0x1CCD JUMPI PUSH2 0x1CCC PUSH2 0x1B9E JUMP JUMPDEST JUMPDEST DUP3 DUP3 SUB SWAP1 POP SWAP3 SWAP2 POP POP JUMP JUMPDEST PUSH1 0x0 PUSH2 0x1CE3 DUP3 PUSH2 0xF3C JUMP JUMPDEST SWAP2 POP PUSH2 0x1CEE DUP4 PUSH2 0xF3C JUMP JUMPDEST SWAP3 POP DUP3 PUSH2 0x1CFE JUMPI PUSH2 0x1CFD PUSH2 0x1C15 JUMP JUMPDEST JUMPDEST DUP3 DUP3 MOD SWAP1 POP SWAP3 SWAP2 POP POP JUMP JUMPDEST PUSH1 0x0 PUSH2 0x1D14 DUP3 PUSH2 0xF3C JUMP JUMPDEST SWAP2 POP PUSH2 0x1D1F DUP4 PUSH2 0xF3C JUMP JUMPDEST SWAP3 POP DUP3 PUSH32 0xFFFFFFFFFFFFFFFFFFFFFFFFFFFFFFFFFFFFFFFFFFFFFFFFFFFFFFFFFFFFFFFF SUB DUP3 GT ISZERO PUSH2 0x1D54 JUMPI PUSH2 0x1D53 PUSH2 0x1B9E JUMP JUMPDEST JUMPDEST DUP3 DUP3 ADD SWAP1 POP SWAP3 SWAP2 POP POP JUMP JUMPDEST PUSH32 0x4E487B7100000000000000000000000000000000000000000000000000000000 PUSH1 0x0 MSTORE PUSH1 0x32 PUSH1 0x4 MSTORE PUSH1 0x24 PUSH1 0x0 REVERT JUMPDEST PUSH1 0x0 PUSH32 0xFFFFFFFF00000000000000000000000000000000000000000000000000000000 DUP3 AND SWAP1 POP SWAP2 SWAP1 POP JUMP JUMPDEST PUSH2 0x1DC3 DUP2 PUSH2 0x1D8E JUMP JUMPDEST DUP3 MSTORE POP POP JUMP JUMPDEST PUSH1 0x0 PUSH1 0x20 DUP3 ADD SWAP1 POP PUSH2 0x1DDE PUSH1 0x0 DUP4 ADD DUP5 PUSH2 0x1DBA JUMP JUMPDEST SWAP3 SWAP2 POP POP JUMP INVALID LOG2 PUSH5 0x6970667358 0x22 SLT KECCAK256 0xC7 0x29 0xD7 DELEGATECALL CREATE 0xE4 ADDMOD PC LT MOD PUSH24 0xD65830D978CADA21E0FC3F93C554597CF084C9481064736F PUSH13 0x634300080F0033000000000000 "},"methodIdentifiers":{"MESSENGER()":"927ede2d","OTHER_BRIDGE()":"7f46ddb2","bridgeERC721(address,address,uint256,uint32,bytes)":"3687011a","bridgeERC721To(address,address,address,uint256,uint32,bytes)":"aa557452","finalizeBridgeERC721(address,address,address,address,uint256,bytes)":"761f4493","messenger()":"3cb747bf","otherBridge()":"c89701a2","version()":"54fd4d50"}}}}}