{
  "_format": "hh-sol-artifact-1",
  "contractName": "Lib_AddressManager",
  "sourceName": "contracts/libraries/resolver/Lib_AddressManager.sol",
  "abi": [
    {
      "anonymous": false,
      "inputs": [
        {
          "indexed": true,
          "internalType": "string",
          "name": "_name",
          "type": "string"
        },
        {
          "indexed": false,
          "internalType": "address",
          "name": "_newAddress",
          "type": "address"
        },
        {
          "indexed": false,
          "internalType": "address",
          "name": "_oldAddress",
          "type": "address"
        }
      ],
      "name": "AddressSet",
      "type": "event"
    },
    {
      "anonymous": false,
      "inputs": [
        {
          "indexed": true,
          "internalType": "address",
          "name": "previousOwner",
          "type": "address"
        },
        {
          "indexed": true,
          "internalType": "address",
          "name": "newOwner",
          "type": "address"
        }
      ],
      "name": "OwnershipTransferred",
      "type": "event"
    },
    {
      "inputs": [
        {
          "internalType": "string",
          "name": "_name",
          "type": "string"
        }
      ],
      "name": "getAddress",
      "outputs": [
        {
          "internalType": "address",
          "name": "",
          "type": "address"
        }
      ],
      "stateMutability": "view",
      "type": "function"
    },
    {
      "inputs": [],
      "name": "owner",
      "outputs": [
        {
          "internalType": "address",
          "name": "",
          "type": "address"
        }
      ],
      "stateMutability": "view",
      "type": "function"
    },
    {
      "inputs": [],
      "name": "renounceOwnership",
      "outputs": [],
      "stateMutability": "nonpayable",
      "type": "function"
    },
    {
      "inputs": [
        {
          "internalType": "string",
          "name": "_name",
          "type": "string"
        },
        {
          "internalType": "address",
          "name": "_address",
          "type": "address"
        }
      ],
      "name": "setAddress",
      "outputs": [],
      "stateMutability": "nonpayable",
      "type": "function"
    },
    {
      "inputs": [
        {
          "internalType": "address",
          "name": "newOwner",
          "type": "address"
        }
      ],
      "name": "transferOwnership",
      "outputs": [],
      "stateMutability": "nonpayable",
      "type": "function"
    }
  ],
  "bytecode": "0x608060405234801561001057600080fd5b5061001a3361001f565b61006f565b600080546001600160a01b038381166001600160a01b0319831681178455604051919092169283917f8be0079c531659141344cd1fd0a4f28419497f9722a3daafe3b4186f6b6457e09190a35050565b61052f8061007e6000396000f3fe608060405234801561001057600080fd5b50600436106100675760003560e01c80639b2ea4bd116100505780639b2ea4bd1461009f578063bf40fac1146100b2578063f2fde38b146100c557600080fd5b8063715018a61461006c5780638da5cb5b14610076575b600080fd5b6100746100d8565b005b6000546001600160a01b03165b6040516001600160a01b03909116815260200160405180910390f35b6100746100ad36600461041d565b6100ec565b6100836100c036600461046b565b61019a565b6100746100d33660046104a8565b6101c9565b6100e061025e565b6100ea60006102b8565b565b6100f461025e565b60006100ff83610315565b6000818152600160205260409081902080546001600160a01b0386811673ffffffffffffffffffffffffffffffffffffffff198316179092559151929350169061014a9085906104ca565b604080519182900382206001600160a01b03808716845284166020840152917f9416a153a346f93d95f94b064ae3f148b6460473c6e82b3f9fc2521b873fcd6c910160405180910390a250505050565b6000600160006101a984610315565b81526020810191909152604001600020546001600160a01b031692915050565b6101d161025e565b6001600160a01b0381166102525760405162461bcd60e51b815260206004820152602660248201527f4f776e61626c653a206e6577206f776e657220697320746865207a65726f206160448201527f646472657373000000000000000000000000000000000000000000000000000060648201526084015b60405180910390fd5b61025b816102b8565b50565b6000546001600160a01b031633146100ea5760405162461bcd60e51b815260206004820181905260248201527f4f776e61626c653a2063616c6c6572206973206e6f7420746865206f776e65726044820152606401610249565b600080546001600160a01b0383811673ffffffffffffffffffffffffffffffffffffffff19831681178455604051919092169283917f8be0079c531659141344cd1fd0a4f28419497f9722a3daafe3b4186f6b6457e09190a35050565b60008160405160200161032891906104ca565b604051602081830303815290604052805190602001209050919050565b7f4e487b7100000000000000000000000000000000000000000000000000000000600052604160045260246000fd5b600082601f83011261038557600080fd5b813567ffffffffffffffff808211156103a0576103a0610345565b604051601f8301601f19908116603f011681019082821181831017156103c8576103c8610345565b816040528381528660208588010111156103e157600080fd5b836020870160208301376000602085830101528094505050505092915050565b80356001600160a01b038116811461041857600080fd5b919050565b6000806040838503121561043057600080fd5b823567ffffffffffffffff81111561044757600080fd5b61045385828601610374565b92505061046260208401610401565b90509250929050565b60006020828403121561047d57600080fd5b813567ffffffffffffffff81111561049457600080fd5b6104a084828501610374565b949350505050565b6000602082840312156104ba57600080fd5b6104c382610401565b9392505050565b6000825160005b818110156104eb57602081860181015185830152016104d1565b50600092019182525091905056fea2646970667358221220c0287ba08ccd388bff11bea61a98b06e5323c0eff9fa3950977120ce65d086d164736f6c63430008120033",
  "linkReferences": {},
  "deployedLinkReferences": {}
}