{
  "_format": "hh-sol-artifact-1",
  "contractName": "LocalERC721",
  "sourceName": "contracts/LocalERC721.sol",
  "abi": [
    {
      "inputs": [],
      "stateMutability": "nonpayable",
      "type": "constructor"
    },
    {
      "anonymous": false,
      "inputs": [
        {
          "indexed": true,
          "internalType": "address",
          "name": "owner",
          "type": "address"
        },
        {
          "indexed": true,
          "internalType": "address",
          "name": "approved",
          "type": "address"
        },
        {
          "indexed": true,
          "internalType": "uint256",
          "name": "tokenId",
          "type": "uint256"
        }
      ],
      "name": "Approval",
      "type": "event"
    },
    {
      "anonymous": false,
      "inputs": [
        {
          "indexed": true,
          "internalType": "address",
          "name": "owner",
          "type": "address"
        },
        {
          "indexed": true,
          "internalType": "address",
          "name": "operator",
          "type": "address"
        },
        {
          "indexed": false,
          "internalType": "bool",
          "name": "approved",
          "type": "bool"
        }
      ],
      "name": "ApprovalForAll",
      "type": "event"
    },
    {
      "anonymous": false,
      "inputs": [
        {
          "indexed": true,
          "internalType": "address",
          "name": "previousOwner",
          "type": "address"
        },
        {
          "indexed": true,
          "internalType": "address",
          "name": "newOwner",
          "type": "address"
        }
      ],
      "name": "OwnershipTransferred",
      "type": "event"
    },
    {
      "anonymous": false,
      "inputs": [
        {
          "indexed": true,
          "internalType": "address",
          "name": "from",
          "type": "address"
        },
        {
          "indexed": true,
          "internalType": "address",
          "name": "to",
          "type": "address"
        },
        {
          "indexed": true,
          "internalType": "uint256",
          "name": "tokenId",
          "type": "uint256"
        }
      ],
      "name": "Transfer",
      "type": "event"
    },
    {
      "inputs": [
        {
          "internalType": "address",
          "name": "to",
          "type": "address"
        },
        {
          "internalType": "uint256",
          "name": "tokenId",
          "type": "uint256"
        }
      ],
      "name": "approve",
      "outputs": [],
      "stateMutability": "nonpayable",
      "type": "function"
    },
    {
      "inputs": [
        {
          "internalType": "address",
          "name": "owner",
          "type": "address"
        }
      ],
      "name": "balanceOf",
      "outputs": [
        {
          "internalType": "uint256",
          "name": "",
          "type": "uint256"
        }
      ],
      "stateMutability": "view",
      "type": "function"
    },
    {
      "inputs": [
        {
          "internalType": "uint256",
          "name": "_id",
          "type": "uint256"
        }
      ],
      "name": "burn",
      "outputs": [],
      "stateMutability": "nonpayable",
      "type": "function"
    },
    {
      "inputs": [
        {
          "internalType": "uint256",
          "name": "tokenId",
          "type": "uint256"
        }
      ],
      "name": "getApproved",
      "outputs": [
        {
          "internalType": "address",
          "name": "",
          "type": "address"
        }
      ],
      "stateMutability": "view",
      "type": "function"
    },
    {
      "inputs": [
        {
          "internalType": "address",
          "name": "owner",
          "type": "address"
        },
        {
          "internalType": "address",
          "name": "operator",
          "type": "address"
        }
      ],
      "name": "isApprovedForAll",
      "outputs": [
        {
          "internalType": "bool",
          "name": "",
          "type": "bool"
        }
      ],
      "stateMutability": "view",
      "type": "function"
    },
    {
      "inputs": [
        {
          "internalType": "address",
          "name": "_to",
          "type": "address"
        },
        {
          "internalType": "uint256",
          "name": "_id",
          "type": "uint256"
        }
      ],
      "name": "mint",
      "outputs": [],
      "stateMutability": "nonpayable",
      "type": "function"
    },
    {
      "inputs": [],
      "name": "name",
      "outputs": [
        {
          "internalType": "string",
          "name": "",
          "type": "string"
        }
      ],
      "stateMutability": "view",
      "type": "function"
    },
    {
      "inputs": [],
      "name": "owner",
      "outputs": [
        {
          "internalType": "address",
          "name": "",
          "type": "address"
        }
      ],
      "stateMutability": "view",
      "type": "function"
    },
    {
      "inputs": [
        {
          "internalType": "uint256",
          "name": "tokenId",
          "type": "uint256"
        }
      ],
      "name": "ownerOf",
      "outputs": [
        {
          "internalType": "address",
          "name": "",
          "type": "address"
        }
      ],
      "stateMutability": "view",
      "type": "function"
    },
    {
      "inputs": [],
      "name": "renounceOwnership",
      "outputs": [],
      "stateMutability": "nonpayable",
      "type": "function"
    },
    {
      "inputs": [
        {
          "internalType": "address",
          "name": "from",
          "type": "address"
        },
        {
          "internalType": "address",
          "name": "to",
          "type": "address"
        },
        {
          "internalType": "uint256",
          "name": "tokenId",
          "type": "uint256"
        }
      ],
      "name": "safeTransferFrom",
      "outputs": [],
      "stateMutability": "nonpayable",
      "type": "function"
    },
    {
      "inputs": [
        {
          "internalType": "address",
          "name": "from",
          "type": "address"
        },
        {
          "internalType": "address",
          "name": "to",
          "type": "address"
        },
        {
          "internalType": "uint256",
          "name": "tokenId",
          "type": "uint256"
        },
        {
          "internalType": "bytes",
          "name": "data",
          "type": "bytes"
        }
      ],
      "name": "safeTransferFrom",
      "outputs": [],
      "stateMutability": "nonpayable",
      "type": "function"
    },
    {
      "inputs": [
        {
          "internalType": "address",
          "name": "operator",
          "type": "address"
        },
        {
          "internalType": "bool",
          "name": "approved",
          "type": "bool"
        }
      ],
      "name": "setApprovalForAll",
      "outputs": [],
      "stateMutability": "nonpayable",
      "type": "function"
    },
    {
      "inputs": [
        {
          "internalType": "bytes4",
          "name": "interfaceId",
          "type": "bytes4"
        }
      ],
      "name": "supportsInterface",
      "outputs": [
        {
          "internalType": "bool",
          "name": "",
          "type": "bool"
        }
      ],
      "stateMutability": "view",
      "type": "function"
    },
    {
      "inputs": [],
      "name": "symbol",
      "outputs": [
        {
          "internalType": "string",
          "name": "",
          "type": "string"
        }
      ],
      "stateMutability": "view",
      "type": "function"
    },
    {
      "inputs": [
        {
          "internalType": "uint256",
          "name": "tokenId",
          "type": "uint256"
        }
      ],
      "name": "tokenURI",
      "outputs": [
        {
          "internalType": "string",
          "name": "",
          "type": "string"
        }
      ],
      "stateMutability": "view",
      "type": "function"
    },
    {
      "inputs": [
        {
          "internalType": "address",
          "name": "from",
          "type": "address"
        },
        {
          "internalType": "address",
          "name": "to",
          "type": "address"
        },
        {
          "internalType": "uint256",
          "name": "tokenId",
          "type": "uint256"
        }
      ],
      "name": "transferFrom",
      "outputs": [],
      "stateMutability": "nonpayable",
      "type": "function"
    },
    {
      "inputs": [
        {
          "internalType": "address",
          "name": "newOwner",
          "type": "address"
        }
      ],
      "name": "transferOwnership",
      "outputs": [],
      "stateMutability": "nonpayable",
      "type": "function"
    }
  ],
  "bytecode": "0x60806040523480156200001157600080fd5b506040518060400160405280600881526020017f4c6f63616c4552430000000000000000000000000000000000000000000000008152506040518060400160405280600381526020017f4c4552000000000000000000000000000000000000000000000000000000000081525081600090816200008f919062000412565b508060019081620000a1919062000412565b505050620000c4620000b8620000ca60201b60201c565b620000d260201b60201c565b620004f9565b600033905090565b6000600660009054906101000a900473ffffffffffffffffffffffffffffffffffffffff16905081600660006101000a81548173ffffffffffffffffffffffffffffffffffffffff021916908373ffffffffffffffffffffffffffffffffffffffff1602179055508173ffffffffffffffffffffffffffffffffffffffff168173ffffffffffffffffffffffffffffffffffffffff167f8be0079c531659141344cd1fd0a4f28419497f9722a3daafe3b4186f6b6457e060405160405180910390a35050565b600081519050919050565b7f4e487b7100000000000000000000000000000000000000000000000000000000600052604160045260246000fd5b7f4e487b7100000000000000000000000000000000000000000000000000000000600052602260045260246000fd5b600060028204905060018216806200021a57607f821691505b60208210810362000230576200022f620001d2565b5b50919050565b60008190508160005260206000209050919050565b60006020601f8301049050919050565b600082821b905092915050565b6000600883026200029a7fffffffffffffffffffffffffffffffffffffffffffffffffffffffffffffffff826200025b565b620002a686836200025b565b95508019841693508086168417925050509392505050565b6000819050919050565b6000819050919050565b6000620002f3620002ed620002e784620002be565b620002c8565b620002be565b9050919050565b6000819050919050565b6200030f83620002d2565b620003276200031e82620002fa565b84845462000268565b825550505050565b600090565b6200033e6200032f565b6200034b81848462000304565b505050565b5b8181101562000373576200036760008262000334565b60018101905062000351565b5050565b601f821115620003c2576200038c8162000236565b62000397846200024b565b81016020851015620003a7578190505b620003bf620003b6856200024b565b83018262000350565b50505b505050565b600082821c905092915050565b6000620003e760001984600802620003c7565b1980831691505092915050565b6000620004028383620003d4565b9150826002028217905092915050565b6200041d8262000198565b67ffffffffffffffff811115620004395762000438620001a3565b5b62000445825462000201565b6200045282828562000377565b600060209050601f8311600181146200048a576000841562000475578287015190505b620004818582620003f4565b865550620004f1565b601f1984166200049a8662000236565b60005b82811015620004c4578489015182556001820191506020850194506020810190506200049d565b86831015620004e45784890151620004e0601f891682620003d4565b8355505b6001600288020188555050505b505050505050565b6129b580620005096000396000f3fe608060405234801561001057600080fd5b50600436106101165760003560e01c806370a08231116100a2578063a22cb46511610071578063a22cb465146102cb578063b88d4fde146102e7578063c87b56dd14610303578063e985e9c514610333578063f2fde38b1461036357610116565b806370a0823114610255578063715018a6146102855780638da5cb5b1461028f57806395d89b41146102ad57610116565b806323b872dd116100e957806323b872dd146101b557806340c10f19146101d157806342842e0e146101ed57806342966c68146102095780636352211e1461022557610116565b806301ffc9a71461011b57806306fdde031461014b578063081812fc14610169578063095ea7b314610199575b600080fd5b61013560048036038101906101309190611a18565b61037f565b6040516101429190611a60565b60405180910390f35b610153610461565b6040516101609190611b14565b60405180910390f35b610183600480360381019061017e9190611b6c565b6104f3565b6040516101909190611bda565b60405180910390f35b6101b360048036038101906101ae9190611c21565b610539565b005b6101cf60048036038101906101ca9190611c61565b610650565b005b6101eb60048036038101906101e69190611c21565b6106b0565b005b61020760048036038101906102029190611c61565b6106c6565b005b610223600480360381019061021e9190611b6c565b6106e6565b005b61023f600480360381019061023a9190611b6c565b6106fa565b60405161024c9190611bda565b60405180910390f35b61026f600480360381019061026a9190611cb4565b6107ab565b60405161027c9190611cf0565b60405180910390f35b61028d610862565b005b610297610876565b6040516102a49190611bda565b60405180910390f35b6102b56108a0565b6040516102c29190611b14565b60405180910390f35b6102e560048036038101906102e09190611d37565b610932565b005b61030160048036038101906102fc9190611eac565b610948565b005b61031d60048036038101906103189190611b6c565b6109aa565b60405161032a9190611b14565b60405180910390f35b61034d60048036038101906103489190611f2f565b610a12565b60405161035a9190611a60565b60405180910390f35b61037d60048036038101906103789190611cb4565b610aa6565b005b60007f80ac58cd000000000000000000000000000000000000000000000000000000007bffffffffffffffffffffffffffffffffffffffffffffffffffffffff1916827bffffffffffffffffffffffffffffffffffffffffffffffffffffffff1916148061044a57507f5b5e139f000000000000000000000000000000000000000000000000000000007bffffffffffffffffffffffffffffffffffffffffffffffffffffffff1916827bffffffffffffffffffffffffffffffffffffffffffffffffffffffff1916145b8061045a575061045982610b29565b5b9050919050565b60606000805461047090611f9e565b80601f016020809104026020016040519081016040528092919081815260200182805461049c90611f9e565b80156104e95780601f106104be576101008083540402835291602001916104e9565b820191906000526020600020905b8154815290600101906020018083116104cc57829003601f168201915b5050505050905090565b60006104fe82610b93565b6004600083815260200190815260200160002060009054906101000a900473ffffffffffffffffffffffffffffffffffffffff169050919050565b6000610544826106fa565b90508073ffffffffffffffffffffffffffffffffffffffff168373ffffffffffffffffffffffffffffffffffffffff16036105b4576040517f08c379a00000000000000000000000000000000000000000000000000000000081526004016105ab90612041565b60405180910390fd5b8073ffffffffffffffffffffffffffffffffffffffff166105d3610bde565b73ffffffffffffffffffffffffffffffffffffffff1614806106025750610601816105fc610bde565b610a12565b5b610641576040517f08c379a0000000000000000000000000000000000000000000000000000000008152600401610638906120d3565b60405180910390fd5b61064b8383610be6565b505050565b61066161065b610bde565b82610c9f565b6106a0576040517f08c379a000000000000000000000000000000000000000000000000000000000815260040161069790612165565b60405180910390fd5b6106ab838383610d34565b505050565b6106b8610f9a565b6106c28282611018565b5050565b6106e183838360405180602001604052806000815250610948565b505050565b6106ee610f9a565b6106f781611036565b50565b6000806002600084815260200190815260200160002060009054906101000a900473ffffffffffffffffffffffffffffffffffffffff169050600073ffffffffffffffffffffffffffffffffffffffff168173ffffffffffffffffffffffffffffffffffffffff16036107a2576040517f08c379a0000000000000000000000000000000000000000000000000000000008152600401610799906121d1565b60405180910390fd5b80915050919050565b60008073ffffffffffffffffffffffffffffffffffffffff168273ffffffffffffffffffffffffffffffffffffffff160361081b576040517f08c379a000000000000000000000000000000000000000000000000000000000815260040161081290612263565b60405180910390fd5b600360008373ffffffffffffffffffffffffffffffffffffffff1673ffffffffffffffffffffffffffffffffffffffff168152602001908152602001600020549050919050565b61086a610f9a565b6108746000611153565b565b6000600660009054906101000a900473ffffffffffffffffffffffffffffffffffffffff16905090565b6060600180546108af90611f9e565b80601f01602080910402602001604051908101604052809291908181526020018280546108db90611f9e565b80156109285780601f106108fd57610100808354040283529160200191610928565b820191906000526020600020905b81548152906001019060200180831161090b57829003601f168201915b5050505050905090565b61094461093d610bde565b8383611219565b5050565b610959610953610bde565b83610c9f565b610998576040517f08c379a000000000000000000000000000000000000000000000000000000000815260040161098f90612165565b60405180910390fd5b6109a484848484611385565b50505050565b60606109b582610b93565b60006109bf6113e1565b905060008151116109df5760405180602001604052806000815250610a0a565b806109e9846113f8565b6040516020016109fa9291906122bf565b6040516020818303038152906040525b915050919050565b6000600560008473ffffffffffffffffffffffffffffffffffffffff1673ffffffffffffffffffffffffffffffffffffffff16815260200190815260200160002060008373ffffffffffffffffffffffffffffffffffffffff1673ffffffffffffffffffffffffffffffffffffffff16815260200190815260200160002060009054906101000a900460ff16905092915050565b610aae610f9a565b600073ffffffffffffffffffffffffffffffffffffffff168173ffffffffffffffffffffffffffffffffffffffff1603610b1d576040517f08c379a0000000000000000000000000000000000000000000000000000000008152600401610b1490612355565b60405180910390fd5b610b2681611153565b50565b60007f01ffc9a7000000000000000000000000000000000000000000000000000000007bffffffffffffffffffffffffffffffffffffffffffffffffffffffff1916827bffffffffffffffffffffffffffffffffffffffffffffffffffffffff1916149050919050565b610b9c81611558565b610bdb576040517f08c379a0000000000000000000000000000000000000000000000000000000008152600401610bd2906121d1565b60405180910390fd5b50565b600033905090565b816004600083815260200190815260200160002060006101000a81548173ffffffffffffffffffffffffffffffffffffffff021916908373ffffffffffffffffffffffffffffffffffffffff160217905550808273ffffffffffffffffffffffffffffffffffffffff16610c59836106fa565b73ffffffffffffffffffffffffffffffffffffffff167f8c5be1e5ebec7d5bd14f71427d1e84f3dd0314c0f7b2291e5b200ac8c7c3b92560405160405180910390a45050565b600080610cab836106fa565b90508073ffffffffffffffffffffffffffffffffffffffff168473ffffffffffffffffffffffffffffffffffffffff161480610ced5750610cec8185610a12565b5b80610d2b57508373ffffffffffffffffffffffffffffffffffffffff16610d13846104f3565b73ffffffffffffffffffffffffffffffffffffffff16145b91505092915050565b8273ffffffffffffffffffffffffffffffffffffffff16610d54826106fa565b73ffffffffffffffffffffffffffffffffffffffff1614610daa576040517f08c379a0000000000000000000000000000000000000000000000000000000008152600401610da1906123e7565b60405180910390fd5b600073ffffffffffffffffffffffffffffffffffffffff168273ffffffffffffffffffffffffffffffffffffffff1603610e19576040517f08c379a0000000000000000000000000000000000000000000000000000000008152600401610e1090612479565b60405180910390fd5b610e248383836115c4565b610e2f600082610be6565b6001600360008573ffffffffffffffffffffffffffffffffffffffff1673ffffffffffffffffffffffffffffffffffffffff1681526020019081526020016000206000828254610e7f91906124c8565b925050819055506001600360008473ffffffffffffffffffffffffffffffffffffffff1673ffffffffffffffffffffffffffffffffffffffff1681526020019081526020016000206000828254610ed691906124fc565b92505081905550816002600083815260200190815260200160002060006101000a81548173ffffffffffffffffffffffffffffffffffffffff021916908373ffffffffffffffffffffffffffffffffffffffff160217905550808273ffffffffffffffffffffffffffffffffffffffff168473ffffffffffffffffffffffffffffffffffffffff167fddf252ad1be2c89b69c2b068fc378daa952ba7f163c4a11628f55a4df523b3ef60405160405180910390a4610f958383836115c9565b505050565b610fa2610bde565b73ffffffffffffffffffffffffffffffffffffffff16610fc0610876565b73ffffffffffffffffffffffffffffffffffffffff1614611016576040517f08c379a000000000000000000000000000000000000000000000000000000000815260040161100d9061259e565b60405180910390fd5b565b6110328282604051806020016040528060008152506115ce565b5050565b6000611041826106fa565b905061104f816000846115c4565b61105a600083610be6565b6001600360008373ffffffffffffffffffffffffffffffffffffffff1673ffffffffffffffffffffffffffffffffffffffff16815260200190815260200160002060008282546110aa91906124c8565b925050819055506002600083815260200190815260200160002060006101000a81549073ffffffffffffffffffffffffffffffffffffffff021916905581600073ffffffffffffffffffffffffffffffffffffffff168273ffffffffffffffffffffffffffffffffffffffff167fddf252ad1be2c89b69c2b068fc378daa952ba7f163c4a11628f55a4df523b3ef60405160405180910390a461114f816000846115c9565b5050565b6000600660009054906101000a900473ffffffffffffffffffffffffffffffffffffffff16905081600660006101000a81548173ffffffffffffffffffffffffffffffffffffffff021916908373ffffffffffffffffffffffffffffffffffffffff1602179055508173ffffffffffffffffffffffffffffffffffffffff168173ffffffffffffffffffffffffffffffffffffffff167f8be0079c531659141344cd1fd0a4f28419497f9722a3daafe3b4186f6b6457e060405160405180910390a35050565b8173ffffffffffffffffffffffffffffffffffffffff168373ffffffffffffffffffffffffffffffffffffffff1603611287576040517f08c379a000000000000000000000000000000000000000000000000000000000815260040161127e9061260a565b60405180910390fd5b80600560008573ffffffffffffffffffffffffffffffffffffffff1673ffffffffffffffffffffffffffffffffffffffff16815260200190815260200160002060008473ffffffffffffffffffffffffffffffffffffffff1673ffffffffffffffffffffffffffffffffffffffff16815260200190815260200160002060006101000a81548160ff0219169083151502179055508173ffffffffffffffffffffffffffffffffffffffff168373ffffffffffffffffffffffffffffffffffffffff167f17307eab39ab6107e8899845ad3d59bd9653f200f220920489ca2b5937696c31836040516113789190611a60565b60405180910390a3505050565b611390848484610d34565b61139c84848484611629565b6113db576040517f08c379a00000000000000000000000000000000000000000000000000000000081526004016113d29061269c565b60405180910390fd5b50505050565b606060405180602001604052806000815250905090565b60606000820361143f576040518060400160405280600181526020017f30000000000000000000000000000000000000000000000000000000000000008152509050611553565b600082905060005b6000821461147157808061145a906126bc565b915050600a8261146a9190612733565b9150611447565b60008167ffffffffffffffff81111561148d5761148c611d81565b5b6040519080825280601f01601f1916602001820160405280156114bf5781602001600182028036833780820191505090505b5090505b6000851461154c576001826114d891906124c8565b9150600a856114e79190612764565b60306114f391906124fc565b60f81b81838151811061150957611508612795565b5b60200101907effffffffffffffffffffffffffffffffffffffffffffffffffffffffffffff1916908160001a905350600a856115459190612733565b94506114c3565b8093505050505b919050565b60008073ffffffffffffffffffffffffffffffffffffffff166002600084815260200190815260200160002060009054906101000a900473ffffffffffffffffffffffffffffffffffffffff1673ffffffffffffffffffffffffffffffffffffffff1614159050919050565b505050565b505050565b6115d883836117b0565b6115e56000848484611629565b611624576040517f08c379a000000000000000000000000000000000000000000000000000000000815260040161161b9061269c565b60405180910390fd5b505050565b600061164a8473ffffffffffffffffffffffffffffffffffffffff16611989565b156117a3578373ffffffffffffffffffffffffffffffffffffffff1663150b7a02611673610bde565b8786866040518563ffffffff1660e01b81526004016116959493929190612819565b6020604051808303816000875af19250505080156116d157506040513d601f19601f820116820180604052508101906116ce919061287a565b60015b611753573d8060008114611701576040519150601f19603f3d011682016040523d82523d6000602084013e611706565b606091505b50600081510361174b576040517f08c379a00000000000000000000000000000000000000000000000000000000081526004016117429061269c565b60405180910390fd5b805181602001fd5b63150b7a0260e01b7bffffffffffffffffffffffffffffffffffffffffffffffffffffffff1916817bffffffffffffffffffffffffffffffffffffffffffffffffffffffff1916149150506117a8565b600190505b949350505050565b600073ffffffffffffffffffffffffffffffffffffffff168273ffffffffffffffffffffffffffffffffffffffff160361181f576040517f08c379a0000000000000000000000000000000000000000000000000000000008152600401611816906128f3565b60405180910390fd5b61182881611558565b15611868576040517f08c379a000000000000000000000000000000000000000000000000000000000815260040161185f9061295f565b60405180910390fd5b611874600083836115c4565b6001600360008473ffffffffffffffffffffffffffffffffffffffff1673ffffffffffffffffffffffffffffffffffffffff16815260200190815260200160002060008282546118c491906124fc565b92505081905550816002600083815260200190815260200160002060006101000a81548173ffffffffffffffffffffffffffffffffffffffff021916908373ffffffffffffffffffffffffffffffffffffffff160217905550808273ffffffffffffffffffffffffffffffffffffffff16600073ffffffffffffffffffffffffffffffffffffffff167fddf252ad1be2c89b69c2b068fc378daa952ba7f163c4a11628f55a4df523b3ef60405160405180910390a4611985600083836115c9565b5050565b6000808273ffffffffffffffffffffffffffffffffffffffff163b119050919050565b6000604051905090565b600080fd5b600080fd5b60007fffffffff0000000000000000000000000000000000000000000000000000000082169050919050565b6119f5816119c0565b8114611a0057600080fd5b50565b600081359050611a12816119ec565b92915050565b600060208284031215611a2e57611a2d6119b6565b5b6000611a3c84828501611a03565b91505092915050565b60008115159050919050565b611a5a81611a45565b82525050565b6000602082019050611a756000830184611a51565b92915050565b600081519050919050565b600082825260208201905092915050565b60005b83811015611ab5578082015181840152602081019050611a9a565b83811115611ac4576000848401525b50505050565b6000601f19601f8301169050919050565b6000611ae682611a7b565b611af08185611a86565b9350611b00818560208601611a97565b611b0981611aca565b840191505092915050565b60006020820190508181036000830152611b2e8184611adb565b905092915050565b6000819050919050565b611b4981611b36565b8114611b5457600080fd5b50565b600081359050611b6681611b40565b92915050565b600060208284031215611b8257611b816119b6565b5b6000611b9084828501611b57565b91505092915050565b600073ffffffffffffffffffffffffffffffffffffffff82169050919050565b6000611bc482611b99565b9050919050565b611bd481611bb9565b82525050565b6000602082019050611bef6000830184611bcb565b92915050565b611bfe81611bb9565b8114611c0957600080fd5b50565b600081359050611c1b81611bf5565b92915050565b60008060408385031215611c3857611c376119b6565b5b6000611c4685828601611c0c565b9250506020611c5785828601611b57565b9150509250929050565b600080600060608486031215611c7a57611c796119b6565b5b6000611c8886828701611c0c565b9350506020611c9986828701611c0c565b9250506040611caa86828701611b57565b9150509250925092565b600060208284031215611cca57611cc96119b6565b5b6000611cd884828501611c0c565b91505092915050565b611cea81611b36565b82525050565b6000602082019050611d056000830184611ce1565b92915050565b611d1481611a45565b8114611d1f57600080fd5b50565b600081359050611d3181611d0b565b92915050565b60008060408385031215611d4e57611d4d6119b6565b5b6000611d5c85828601611c0c565b9250506020611d6d85828601611d22565b9150509250929050565b600080fd5b600080fd5b7f4e487b7100000000000000000000000000000000000000000000000000000000600052604160045260246000fd5b611db982611aca565b810181811067ffffffffffffffff82111715611dd857611dd7611d81565b5b80604052505050565b6000611deb6119ac565b9050611df78282611db0565b919050565b600067ffffffffffffffff821115611e1757611e16611d81565b5b611e2082611aca565b9050602081019050919050565b82818337600083830152505050565b6000611e4f611e4a84611dfc565b611de1565b905082815260208101848484011115611e6b57611e6a611d7c565b5b611e76848285611e2d565b509392505050565b600082601f830112611e9357611e92611d77565b5b8135611ea3848260208601611e3c565b91505092915050565b60008060008060808587031215611ec657611ec56119b6565b5b6000611ed487828801611c0c565b9450506020611ee587828801611c0c565b9350506040611ef687828801611b57565b925050606085013567ffffffffffffffff811115611f1757611f166119bb565b5b611f2387828801611e7e565b91505092959194509250565b60008060408385031215611f4657611f456119b6565b5b6000611f5485828601611c0c565b9250506020611f6585828601611c0c565b9150509250929050565b7f4e487b7100000000000000000000000000000000000000000000000000000000600052602260045260246000fd5b60006002820490506001821680611fb657607f821691505b602082108103611fc957611fc8611f6f565b5b50919050565b7f4552433732313a20617070726f76616c20746f2063757272656e74206f776e6560008201527f7200000000000000000000000000000000000000000000000000000000000000602082015250565b600061202b602183611a86565b915061203682611fcf565b604082019050919050565b6000602082019050818103600083015261205a8161201e565b9050919050565b7f4552433732313a20617070726f76652063616c6c6572206973206e6f7420746f60008201527f6b656e206f776e6572206e6f7220617070726f76656420666f7220616c6c0000602082015250565b60006120bd603e83611a86565b91506120c882612061565b604082019050919050565b600060208201905081810360008301526120ec816120b0565b9050919050565b7f4552433732313a2063616c6c6572206973206e6f7420746f6b656e206f776e6560008201527f72206e6f7220617070726f766564000000000000000000000000000000000000602082015250565b600061214f602e83611a86565b915061215a826120f3565b604082019050919050565b6000602082019050818103600083015261217e81612142565b9050919050565b7f4552433732313a20696e76616c696420746f6b656e2049440000000000000000600082015250565b60006121bb601883611a86565b91506121c682612185565b602082019050919050565b600060208201905081810360008301526121ea816121ae565b9050919050565b7f4552433732313a2061646472657373207a65726f206973206e6f74206120766160008201527f6c6964206f776e65720000000000000000000000000000000000000000000000602082015250565b600061224d602983611a86565b9150612258826121f1565b604082019050919050565b6000602082019050818103600083015261227c81612240565b9050919050565b600081905092915050565b600061229982611a7b565b6122a38185612283565b93506122b3818560208601611a97565b80840191505092915050565b60006122cb828561228e565b91506122d7828461228e565b91508190509392505050565b7f4f776e61626c653a206e6577206f776e657220697320746865207a65726f206160008201527f6464726573730000000000000000000000000000000000000000000000000000602082015250565b600061233f602683611a86565b915061234a826122e3565b604082019050919050565b6000602082019050818103600083015261236e81612332565b9050919050565b7f4552433732313a207472616e736665722066726f6d20696e636f72726563742060008201527f6f776e6572000000000000000000000000000000000000000000000000000000602082015250565b60006123d1602583611a86565b91506123dc82612375565b604082019050919050565b60006020820190508181036000830152612400816123c4565b9050919050565b7f4552433732313a207472616e7366657220746f20746865207a65726f2061646460008201527f7265737300000000000000000000000000000000000000000000000000000000602082015250565b6000612463602483611a86565b915061246e82612407565b604082019050919050565b6000602082019050818103600083015261249281612456565b9050919050565b7f4e487b7100000000000000000000000000000000000000000000000000000000600052601160045260246000fd5b60006124d382611b36565b91506124de83611b36565b9250828210156124f1576124f0612499565b5b828203905092915050565b600061250782611b36565b915061251283611b36565b9250827fffffffffffffffffffffffffffffffffffffffffffffffffffffffffffffffff0382111561254757612546612499565b5b828201905092915050565b7f4f776e61626c653a2063616c6c6572206973206e6f7420746865206f776e6572600082015250565b6000612588602083611a86565b915061259382612552565b602082019050919050565b600060208201905081810360008301526125b78161257b565b9050919050565b7f4552433732313a20617070726f766520746f2063616c6c657200000000000000600082015250565b60006125f4601983611a86565b91506125ff826125be565b602082019050919050565b60006020820190508181036000830152612623816125e7565b9050919050565b7f4552433732313a207472616e7366657220746f206e6f6e20455243373231526560008201527f63656976657220696d706c656d656e7465720000000000000000000000000000602082015250565b6000612686603283611a86565b91506126918261262a565b604082019050919050565b600060208201905081810360008301526126b581612679565b9050919050565b60006126c782611b36565b91507fffffffffffffffffffffffffffffffffffffffffffffffffffffffffffffffff82036126f9576126f8612499565b5b600182019050919050565b7f4e487b7100000000000000000000000000000000000000000000000000000000600052601260045260246000fd5b600061273e82611b36565b915061274983611b36565b92508261275957612758612704565b5b828204905092915050565b600061276f82611b36565b915061277a83611b36565b92508261278a57612789612704565b5b828206905092915050565b7f4e487b7100000000000000000000000000000000000000000000000000000000600052603260045260246000fd5b600081519050919050565b600082825260208201905092915050565b60006127eb826127c4565b6127f581856127cf565b9350612805818560208601611a97565b61280e81611aca565b840191505092915050565b600060808201905061282e6000830187611bcb565b61283b6020830186611bcb565b6128486040830185611ce1565b818103606083015261285a81846127e0565b905095945050505050565b600081519050612874816119ec565b92915050565b6000602082840312156128905761288f6119b6565b5b600061289e84828501612865565b91505092915050565b7f4552433732313a206d696e7420746f20746865207a65726f2061646472657373600082015250565b60006128dd602083611a86565b91506128e8826128a7565b602082019050919050565b6000602082019050818103600083015261290c816128d0565b9050919050565b7f4552433732313a20746f6b656e20616c7265616479206d696e74656400000000600082015250565b6000612949601c83611a86565b915061295482612913565b602082019050919050565b600060208201905081810360008301526129788161293c565b905091905056fea2646970667358221220ccd8c5997f3f63f912425afccf7536220f8ab2043c4fc076fb9ffb6111c4762864736f6c634300080f0033",
  "linkReferences": {},
  "deployedLinkReferences": {}
}