{
  "_format": "hh-sol-artifact-1",
  "contractName": "HelperOptimismAmb",
  "sourceName": "contracts/HelperOptimismAmb.sol",
  "abi": [
    {
      "inputs": [
        {
          "internalType": "bytes",
          "name": "message",
          "type": "bytes"
        },
        {
          "internalType": "bytes32[32]",
          "name": "_aggregatePath",
          "type": "bytes32[32]"
        },
        {
          "internalType": "uint256",
          "name": "_aggregateIndex",
          "type": "uint256"
        }
      ],
      "name": "calculateMessageRoot",
      "outputs": [
        {
          "internalType": "bytes32",
          "name": "",
          "type": "bytes32"
        }
      ],
      "stateMutability": "view",
      "type": "function"
    },
    {
      "inputs": [
        {
          "internalType": "bytes32",
          "name": "_messageHash",
          "type": "bytes32"
        },
        {
          "internalType": "bytes32[32]",
          "name": "_aggregatePath",
          "type": "bytes32[32]"
        },
        {
          "internalType": "uint256",
          "name": "_aggregateIndex",
          "type": "uint256"
        }
      ],
      "name": "calculateRoot",
      "outputs": [
        {
          "internalType": "bytes32",
          "name": "",
          "type": "bytes32"
        }
      ],
      "stateMutability": "view",
      "type": "function"
    },
    {
      "inputs": [
        {
          "internalType": "uint32",
          "name": "_originDomain",
          "type": "uint32"
        },
        {
          "internalType": "bytes32",
          "name": "_sender",
          "type": "bytes32"
        },
        {
          "internalType": "uint32",
          "name": "_nonce",
          "type": "uint32"
        },
        {
          "internalType": "uint32",
          "name": "_destinationDomain",
          "type": "uint32"
        },
        {
          "internalType": "bytes32",
          "name": "_recipient",
          "type": "bytes32"
        },
        {
          "internalType": "bytes",
          "name": "_messageBody",
          "type": "bytes"
        }
      ],
      "name": "formatMessage",
      "outputs": [
        {
          "internalType": "bytes",
          "name": "",
          "type": "bytes"
        }
      ],
      "stateMutability": "view",
      "type": "function"
    },
    {
      "inputs": [
        {
          "internalType": "address",
          "name": "_target",
          "type": "address"
        },
        {
          "internalType": "bytes",
          "name": "_message",
          "type": "bytes"
        },
        {
          "internalType": "uint32",
          "name": "_gasLimit",
          "type": "uint32"
        }
      ],
      "name": "sendMessage",
      "outputs": [],
      "stateMutability": "nonpayable",
      "type": "function"
    },
    {
      "inputs": [
        {
          "internalType": "address",
          "name": "_sender",
          "type": "address"
        }
      ],
      "name": "setSender",
      "outputs": [],
      "stateMutability": "nonpayable",
      "type": "function"
    },
    {
      "inputs": [],
      "name": "xDomainMessageSender",
      "outputs": [
        {
          "internalType": "address",
          "name": "",
          "type": "address"
        }
      ],
      "stateMutability": "view",
      "type": "function"
    }
  ],
  "bytecode": "0x608060405234801561001057600080fd5b50610e1a806100206000396000f3fe608060405234801561001057600080fd5b50600436106100625760003560e01c8063235ad685146100675780632651fb15146100975780633dbb202b146100c75780636e296e45146100e3578063bab55e3c14610101578063ced32b0c14610131575b600080fd5b610081600480360381019061007c9190610896565b61014d565b60405161008e91906108fa565b60405180910390f35b6100b160048036038101906100ac9190610a06565b610163565b6040516100be9190610b2e565b60405180910390f35b6100e160048036038101906100dc9190610bae565b61017f565b005b6100eb610184565b6040516100f89190610c2c565b60405180910390f35b61011b60048036038101906101169190610c47565b6101ad565b60405161012891906108fa565b60405180910390f35b61014b60048036038101906101469190610cb8565b6101cf565b005b600061015a848484610212565b90509392505050565b6060610173878787878787610697565b90509695505050505050565b505050565b60008060009054906101000a900473ffffffffffffffffffffffffffffffffffffffff16905090565b600080848051906020012090506101c5818585610212565b9150509392505050565b806000806101000a81548173ffffffffffffffffffffffffffffffffffffffff021916908373ffffffffffffffffffffffffffffffffffffffff16021790555050565b60008390508260006001841660051b905082815281518160200352604060002092506001801b84161560051b9050828160200352600160051b820151815260406000209250600160021b84161560051b9050828160200352600260051b820151815260406000209250600160031b84161560051b9050828160200352600360051b820151815260406000209250600160041b84161560051b9050828160200352600460051b820151815260406000209250600160051b84161560051b90508281602003526005801b820151815260406000209250600160061b84161560051b9050828160200352600660051b820151815260406000209250600160071b84161560051b9050828160200352600760051b820151815260406000209250600160081b84161560051b9050828160200352600860051b820151815260406000209250600160091b84161560051b9050828160200352600960051b8201518152604060002092506001600a1b84161560051b9050828160200352600a60051b8201518152604060002092506001600b1b84161560051b9050828160200352600b60051b8201518152604060002092506001600c1b84161560051b9050828160200352600c60051b8201518152604060002092506001600d1b84161560051b9050828160200352600d60051b8201518152604060002092506001600e1b84161560051b9050828160200352600e60051b8201518152604060002092506001600f1b84161560051b9050828160200352600f60051b820151815260406000209250600160101b84161560051b9050828160200352601060051b820151815260406000209250600160111b84161560051b9050828160200352601160051b820151815260406000209250600160121b84161560051b9050828160200352601260051b820151815260406000209250600160131b84161560051b9050828160200352601360051b820151815260406000209250600160141b84161560051b9050828160200352601460051b820151815260406000209250600160151b84161560051b9050828160200352601560051b820151815260406000209250600160161b84161560051b9050828160200352601660051b820151815260406000209250600160171b84161560051b9050828160200352601760051b820151815260406000209250600160181b84161560051b9050828160200352601860051b820151815260406000209250600160191b84161560051b9050828160200352601960051b8201518152604060002092506001601a1b84161560051b9050828160200352601a60051b8201518152604060002092506001601b1b84161560051b9050828160200352601b60051b8201518152604060002092506001601c1b84161560051b9050828160200352601c60051b8201518152604060002092506001601d1b84161560051b9050828160200352601d60051b8201518152604060002092506001601e1b84161560051b9050828160200352601e60051b8201518152604060002092506001601f1b84161560051b9050828160200352601f60051b82015181526040600020925050509392505050565b60608686868686866040516020016106b496959493929190610d78565b60405160208183030381529060405290509695505050505050565b6000604051905090565b600080fd5b600080fd5b6000819050919050565b6106f6816106e3565b811461070157600080fd5b50565b600081359050610713816106ed565b92915050565b600080fd5b6000601f19601f8301169050919050565b7f4e487b7100000000000000000000000000000000000000000000000000000000600052604160045260246000fd5b6107678261071e565b810181811067ffffffffffffffff821117156107865761078561072f565b5b80604052505050565b60006107996106cf565b90506107a5828261075e565b919050565b600067ffffffffffffffff8211156107c5576107c461072f565b5b602082029050919050565b600080fd5b60006107e86107e3846107aa565b61078f565b90508060208402830185811115610802576108016107d0565b5b835b8181101561082b57806108178882610704565b845260208401935050602081019050610804565b5050509392505050565b600082601f83011261084a57610849610719565b5b60206108578482856107d5565b91505092915050565b6000819050919050565b61087381610860565b811461087e57600080fd5b50565b6000813590506108908161086a565b92915050565b600080600061044084860312156108b0576108af6106d9565b5b60006108be86828701610704565b93505060206108cf86828701610835565b9250506104206108e186828701610881565b9150509250925092565b6108f4816106e3565b82525050565b600060208201905061090f60008301846108eb565b92915050565b600063ffffffff82169050919050565b61092e81610915565b811461093957600080fd5b50565b60008135905061094b81610925565b92915050565b600080fd5b600067ffffffffffffffff8211156109715761097061072f565b5b61097a8261071e565b9050602081019050919050565b82818337600083830152505050565b60006109a96109a484610956565b61078f565b9050828152602081018484840111156109c5576109c4610951565b5b6109d0848285610987565b509392505050565b600082601f8301126109ed576109ec610719565b5b81356109fd848260208601610996565b91505092915050565b60008060008060008060c08789031215610a2357610a226106d9565b5b6000610a3189828a0161093c565b9650506020610a4289828a01610704565b9550506040610a5389828a0161093c565b9450506060610a6489828a0161093c565b9350506080610a7589828a01610704565b92505060a087013567ffffffffffffffff811115610a9657610a956106de565b5b610aa289828a016109d8565b9150509295509295509295565b600081519050919050565b600082825260208201905092915050565b60005b83811015610ae9578082015181840152602081019050610ace565b60008484015250505050565b6000610b0082610aaf565b610b0a8185610aba565b9350610b1a818560208601610acb565b610b238161071e565b840191505092915050565b60006020820190508181036000830152610b488184610af5565b905092915050565b600073ffffffffffffffffffffffffffffffffffffffff82169050919050565b6000610b7b82610b50565b9050919050565b610b8b81610b70565b8114610b9657600080fd5b50565b600081359050610ba881610b82565b92915050565b600080600060608486031215610bc757610bc66106d9565b5b6000610bd586828701610b99565b935050602084013567ffffffffffffffff811115610bf657610bf56106de565b5b610c02868287016109d8565b9250506040610c138682870161093c565b9150509250925092565b610c2681610b70565b82525050565b6000602082019050610c416000830184610c1d565b92915050565b60008060006104408486031215610c6157610c606106d9565b5b600084013567ffffffffffffffff811115610c7f57610c7e6106de565b5b610c8b868287016109d8565b9350506020610c9c86828701610835565b925050610420610cae86828701610881565b9150509250925092565b600060208284031215610cce57610ccd6106d9565b5b6000610cdc84828501610b99565b91505092915050565b60008160e01b9050919050565b6000610cfd82610ce5565b9050919050565b610d15610d1082610915565b610cf2565b82525050565b6000819050919050565b610d36610d31826106e3565b610d1b565b82525050565b600081905092915050565b6000610d5282610aaf565b610d5c8185610d3c565b9350610d6c818560208601610acb565b80840191505092915050565b6000610d848289610d04565b600482019150610d948288610d25565b602082019150610da48287610d04565b600482019150610db48286610d04565b600482019150610dc48285610d25565b602082019150610dd48284610d47565b915081905097965050505050505056fea2646970667358221220becd4f8af957d925838d84309b296628266e1225d384eee270a267600e35999d64736f6c63430008110033",
  "linkReferences": {},
  "deployedLinkReferences": {}
}