{
  "_format": "hh-sol-artifact-1",
  "contractName": "OVM_GasPriceOracle",
  "sourceName": "contracts/L2/predeploys/OVM_GasPriceOracle.sol",
  "abi": [
    {
      "inputs": [
        {
          "internalType": "address",
          "name": "_owner",
          "type": "address"
        }
      ],
      "stateMutability": "nonpayable",
      "type": "constructor"
    },
    {
      "anonymous": false,
      "inputs": [
        {
          "indexed": false,
          "internalType": "uint256",
          "name": "",
          "type": "uint256"
        }
      ],
      "name": "DecimalsUpdated",
      "type": "event"
    },
    {
      "anonymous": false,
      "inputs": [
        {
          "indexed": false,
          "internalType": "uint256",
          "name": "",
          "type": "uint256"
        }
      ],
      "name": "GasPriceUpdated",
      "type": "event"
    },
    {
      "anonymous": false,
      "inputs": [
        {
          "indexed": false,
          "internalType": "uint256",
          "name": "",
          "type": "uint256"
        }
      ],
      "name": "L1BaseFeeUpdated",
      "type": "event"
    },
    {
      "anonymous": false,
      "inputs": [
        {
          "indexed": false,
          "internalType": "uint256",
          "name": "",
          "type": "uint256"
        }
      ],
      "name": "OverheadUpdated",
      "type": "event"
    },
    {
      "anonymous": false,
      "inputs": [
        {
          "indexed": true,
          "internalType": "address",
          "name": "previousOwner",
          "type": "address"
        },
        {
          "indexed": true,
          "internalType": "address",
          "name": "newOwner",
          "type": "address"
        }
      ],
      "name": "OwnershipTransferred",
      "type": "event"
    },
    {
      "anonymous": false,
      "inputs": [
        {
          "indexed": false,
          "internalType": "uint256",
          "name": "",
          "type": "uint256"
        }
      ],
      "name": "ScalarUpdated",
      "type": "event"
    },
    {
      "inputs": [],
      "name": "decimals",
      "outputs": [
        {
          "internalType": "uint256",
          "name": "",
          "type": "uint256"
        }
      ],
      "stateMutability": "view",
      "type": "function"
    },
    {
      "inputs": [],
      "name": "gasPrice",
      "outputs": [
        {
          "internalType": "uint256",
          "name": "",
          "type": "uint256"
        }
      ],
      "stateMutability": "view",
      "type": "function"
    },
    {
      "inputs": [
        {
          "internalType": "bytes",
          "name": "_data",
          "type": "bytes"
        }
      ],
      "name": "getL1Fee",
      "outputs": [
        {
          "internalType": "uint256",
          "name": "",
          "type": "uint256"
        }
      ],
      "stateMutability": "view",
      "type": "function"
    },
    {
      "inputs": [
        {
          "internalType": "bytes",
          "name": "_data",
          "type": "bytes"
        }
      ],
      "name": "getL1GasUsed",
      "outputs": [
        {
          "internalType": "uint256",
          "name": "",
          "type": "uint256"
        }
      ],
      "stateMutability": "view",
      "type": "function"
    },
    {
      "inputs": [],
      "name": "l1BaseFee",
      "outputs": [
        {
          "internalType": "uint256",
          "name": "",
          "type": "uint256"
        }
      ],
      "stateMutability": "view",
      "type": "function"
    },
    {
      "inputs": [],
      "name": "overhead",
      "outputs": [
        {
          "internalType": "uint256",
          "name": "",
          "type": "uint256"
        }
      ],
      "stateMutability": "view",
      "type": "function"
    },
    {
      "inputs": [],
      "name": "owner",
      "outputs": [
        {
          "internalType": "address",
          "name": "",
          "type": "address"
        }
      ],
      "stateMutability": "view",
      "type": "function"
    },
    {
      "inputs": [],
      "name": "renounceOwnership",
      "outputs": [],
      "stateMutability": "nonpayable",
      "type": "function"
    },
    {
      "inputs": [],
      "name": "scalar",
      "outputs": [
        {
          "internalType": "uint256",
          "name": "",
          "type": "uint256"
        }
      ],
      "stateMutability": "view",
      "type": "function"
    },
    {
      "inputs": [
        {
          "internalType": "uint256",
          "name": "_decimals",
          "type": "uint256"
        }
      ],
      "name": "setDecimals",
      "outputs": [],
      "stateMutability": "nonpayable",
      "type": "function"
    },
    {
      "inputs": [
        {
          "internalType": "uint256",
          "name": "_gasPrice",
          "type": "uint256"
        }
      ],
      "name": "setGasPrice",
      "outputs": [],
      "stateMutability": "nonpayable",
      "type": "function"
    },
    {
      "inputs": [
        {
          "internalType": "uint256",
          "name": "_baseFee",
          "type": "uint256"
        }
      ],
      "name": "setL1BaseFee",
      "outputs": [],
      "stateMutability": "nonpayable",
      "type": "function"
    },
    {
      "inputs": [
        {
          "internalType": "uint256",
          "name": "_overhead",
          "type": "uint256"
        }
      ],
      "name": "setOverhead",
      "outputs": [],
      "stateMutability": "nonpayable",
      "type": "function"
    },
    {
      "inputs": [
        {
          "internalType": "uint256",
          "name": "_scalar",
          "type": "uint256"
        }
      ],
      "name": "setScalar",
      "outputs": [],
      "stateMutability": "nonpayable",
      "type": "function"
    },
    {
      "inputs": [
        {
          "internalType": "address",
          "name": "newOwner",
          "type": "address"
        }
      ],
      "name": "transferOwnership",
      "outputs": [],
      "stateMutability": "nonpayable",
      "type": "function"
    }
  ],
  "bytecode": "0x60806040523480156200001157600080fd5b50604051620012eb380380620012eb8339818101604052810190620000379190620002f5565b620000576200004b6200006f60201b60201c565b6200007760201b60201c565b62000068816200013b60201b60201c565b5062000442565b600033905090565b60008060009054906101000a900473ffffffffffffffffffffffffffffffffffffffff169050816000806101000a81548173ffffffffffffffffffffffffffffffffffffffff021916908373ffffffffffffffffffffffffffffffffffffffff1602179055508173ffffffffffffffffffffffffffffffffffffffff168173ffffffffffffffffffffffffffffffffffffffff167f8be0079c531659141344cd1fd0a4f28419497f9722a3daafe3b4186f6b6457e060405160405180910390a35050565b6200014b620001d160201b60201c565b600073ffffffffffffffffffffffffffffffffffffffff168173ffffffffffffffffffffffffffffffffffffffff1603620001bd576040517f08c379a0000000000000000000000000000000000000000000000000000000008152600401620001b490620003ae565b60405180910390fd5b620001ce816200007760201b60201c565b50565b620001e16200006f60201b60201c565b73ffffffffffffffffffffffffffffffffffffffff16620002076200026260201b60201c565b73ffffffffffffffffffffffffffffffffffffffff161462000260576040517f08c379a0000000000000000000000000000000000000000000000000000000008152600401620002579062000420565b60405180910390fd5b565b60008060009054906101000a900473ffffffffffffffffffffffffffffffffffffffff16905090565b600080fd5b600073ffffffffffffffffffffffffffffffffffffffff82169050919050565b6000620002bd8262000290565b9050919050565b620002cf81620002b0565b8114620002db57600080fd5b50565b600081519050620002ef81620002c4565b92915050565b6000602082840312156200030e576200030d6200028b565b5b60006200031e84828501620002de565b91505092915050565b600082825260208201905092915050565b7f4f776e61626c653a206e6577206f776e657220697320746865207a65726f206160008201527f6464726573730000000000000000000000000000000000000000000000000000602082015250565b60006200039660268362000327565b9150620003a38262000338565b604082019050919050565b60006020820190508181036000830152620003c98162000387565b9050919050565b7f4f776e61626c653a2063616c6c6572206973206e6f7420746865206f776e6572600082015250565b60006200040860208362000327565b91506200041582620003d0565b602082019050919050565b600060208201905081810360008301526200043b81620003f9565b9050919050565b610e9980620004526000396000f3fe608060405234801561001057600080fd5b50600436106100f55760003560e01c80638c8885c811610097578063de26c4a111610066578063de26c4a114610238578063f2fde38b14610268578063f45e65d814610284578063fe173b97146102a2576100f5565b80638c8885c8146101c65780638da5cb5b146101e2578063bede39b514610200578063bf1fe4201461021c576100f5565b806349948e0e116100d357806349948e0e14610152578063519b4bd31461018257806370465597146101a0578063715018a6146101bc576100f5565b80630c18c162146100fa578063313ce567146101185780633577afc514610136575b600080fd5b6101026102c0565b60405161010f919061078e565b60405180910390f35b6101206102c6565b60405161012d919061078e565b60405180910390f35b610150600480360381019061014b91906107e9565b6102cc565b005b61016c6004803603810190610167919061095c565b610315565b604051610179919061078e565b60405180910390f35b61018a610377565b604051610197919061078e565b60405180910390f35b6101ba60048036038101906101b591906107e9565b61037d565b005b6101c46103c6565b005b6101e060048036038101906101db91906107e9565b6103da565b005b6101ea610423565b6040516101f791906109e6565b60405180910390f35b61021a600480360381019061021591906107e9565b61044c565b005b610236600480360381019061023191906107e9565b610495565b005b610252600480360381019061024d919061095c565b6104de565b60405161025f919061078e565b60405180910390f35b610282600480360381019061027d9190610a2d565b61059c565b005b61028c61061f565b604051610299919061078e565b60405180910390f35b6102aa610625565b6040516102b7919061078e565b60405180910390f35b60035481565b60055481565b6102d461062b565b806003819055507f32740b35c0ea213650f60d44366b4fb211c9033b50714e4a1d34e65d5beb9bb48160405161030a919061078e565b60405180910390a150565b600080610321836104de565b90506000600254826103339190610a89565b90506000600554600a6103469190610bfe565b90506000600454836103589190610a89565b9050600082826103689190610c78565b90508095505050505050919050565b60025481565b61038561062b565b806004819055507f3336cd9708eaf2769a0f0dc0679f30e80f15dcd88d1921b5a16858e8b85c591a816040516103bb919061078e565b60405180910390a150565b6103ce61062b565b6103d860006106a9565b565b6103e261062b565b806005819055507fd68112a8707e326d08be3656b528c1bcc5bbbfc47f4177e2179b14d8640838c181604051610418919061078e565b60405180910390a150565b60008060009054906101000a900473ffffffffffffffffffffffffffffffffffffffff16905090565b61045461062b565b806002819055507f351fb23757bb5ea0546c85b7996ddd7155f96b939ebaa5ff7bc49c75f27f2c448160405161048a919061078e565b60405180910390a150565b61049d61062b565b806001819055507ffcdccc6074c6c42e4bd578aa9870c697dc976a270968452d2b8c8dc369fae396816040516104d3919061078e565b60405180910390a150565b6000806000905060005b835181101561057257600060f81b84828151811061050957610508610ca9565b5b602001015160f81c60f81b7effffffffffffffffffffffffffffffffffffffffffffffffffffffffffffff19160361054f576004826105489190610cd8565b915061055f565b60108261055c9190610cd8565b91505b808061056a90610d0c565b9150506104e8565b506000600354826105839190610cd8565b9050610440816105939190610cd8565b92505050919050565b6105a461062b565b600073ffffffffffffffffffffffffffffffffffffffff168173ffffffffffffffffffffffffffffffffffffffff1603610613576040517f08c379a000000000000000000000000000000000000000000000000000000000815260040161060a90610dd7565b60405180910390fd5b61061c816106a9565b50565b60045481565b60015481565b61063361076d565b73ffffffffffffffffffffffffffffffffffffffff16610651610423565b73ffffffffffffffffffffffffffffffffffffffff16146106a7576040517f08c379a000000000000000000000000000000000000000000000000000000000815260040161069e90610e43565b60405180910390fd5b565b60008060009054906101000a900473ffffffffffffffffffffffffffffffffffffffff169050816000806101000a81548173ffffffffffffffffffffffffffffffffffffffff021916908373ffffffffffffffffffffffffffffffffffffffff1602179055508173ffffffffffffffffffffffffffffffffffffffff168173ffffffffffffffffffffffffffffffffffffffff167f8be0079c531659141344cd1fd0a4f28419497f9722a3daafe3b4186f6b6457e060405160405180910390a35050565b600033905090565b6000819050919050565b61078881610775565b82525050565b60006020820190506107a3600083018461077f565b92915050565b6000604051905090565b600080fd5b600080fd5b6107c681610775565b81146107d157600080fd5b50565b6000813590506107e3816107bd565b92915050565b6000602082840312156107ff576107fe6107b3565b5b600061080d848285016107d4565b91505092915050565b600080fd5b600080fd5b6000601f19601f8301169050919050565b7f4e487b7100000000000000000000000000000000000000000000000000000000600052604160045260246000fd5b61086982610820565b810181811067ffffffffffffffff8211171561088857610887610831565b5b80604052505050565b600061089b6107a9565b90506108a78282610860565b919050565b600067ffffffffffffffff8211156108c7576108c6610831565b5b6108d082610820565b9050602081019050919050565b82818337600083830152505050565b60006108ff6108fa846108ac565b610891565b90508281526020810184848401111561091b5761091a61081b565b5b6109268482856108dd565b509392505050565b600082601f83011261094357610942610816565b5b81356109538482602086016108ec565b91505092915050565b600060208284031215610972576109716107b3565b5b600082013567ffffffffffffffff8111156109905761098f6107b8565b5b61099c8482850161092e565b91505092915050565b600073ffffffffffffffffffffffffffffffffffffffff82169050919050565b60006109d0826109a5565b9050919050565b6109e0816109c5565b82525050565b60006020820190506109fb60008301846109d7565b92915050565b610a0a816109c5565b8114610a1557600080fd5b50565b600081359050610a2781610a01565b92915050565b600060208284031215610a4357610a426107b3565b5b6000610a5184828501610a18565b91505092915050565b7f4e487b7100000000000000000000000000000000000000000000000000000000600052601160045260246000fd5b6000610a9482610775565b9150610a9f83610775565b9250828202610aad81610775565b91508282048414831517610ac457610ac3610a5a565b5b5092915050565b60008160011c9050919050565b6000808291508390505b6001851115610b2257808604811115610afe57610afd610a5a565b5b6001851615610b0d5780820291505b8081029050610b1b85610acb565b9450610ae2565b94509492505050565b600082610b3b5760019050610bf7565b81610b495760009050610bf7565b8160018114610b5f5760028114610b6957610b98565b6001915050610bf7565b60ff841115610b7b57610b7a610a5a565b5b8360020a915084821115610b9257610b91610a5a565b5b50610bf7565b5060208310610133831016604e8410600b8410161715610bcd5782820a905083811115610bc857610bc7610a5a565b5b610bf7565b610bda8484846001610ad8565b92509050818404811115610bf157610bf0610a5a565b5b81810290505b9392505050565b6000610c0982610775565b9150610c1483610775565b9250610c417fffffffffffffffffffffffffffffffffffffffffffffffffffffffffffffffff8484610b2b565b905092915050565b7f4e487b7100000000000000000000000000000000000000000000000000000000600052601260045260246000fd5b6000610c8382610775565b9150610c8e83610775565b925082610c9e57610c9d610c49565b5b828204905092915050565b7f4e487b7100000000000000000000000000000000000000000000000000000000600052603260045260246000fd5b6000610ce382610775565b9150610cee83610775565b9250828201905080821115610d0657610d05610a5a565b5b92915050565b6000610d1782610775565b91507fffffffffffffffffffffffffffffffffffffffffffffffffffffffffffffffff8203610d4957610d48610a5a565b5b600182019050919050565b600082825260208201905092915050565b7f4f776e61626c653a206e6577206f776e657220697320746865207a65726f206160008201527f6464726573730000000000000000000000000000000000000000000000000000602082015250565b6000610dc1602683610d54565b9150610dcc82610d65565b604082019050919050565b60006020820190508181036000830152610df081610db4565b9050919050565b7f4f776e61626c653a2063616c6c6572206973206e6f7420746865206f776e6572600082015250565b6000610e2d602083610d54565b9150610e3882610df7565b602082019050919050565b60006020820190508181036000830152610e5c81610e20565b905091905056fea2646970667358221220fee7f1b5b0faad058bcd28fcbc2dd54e653fd45f266022b203ed381a54686ab964736f6c63430008120033",
  "linkReferences": {},
  "deployedLinkReferences": {}
}