{
  "_format": "hh-sol-artifact-1",
  "contractName": "LPToken",
  "sourceName": "@connext/nxtp-contracts/contracts/core/connext/helpers/LPToken.sol",
  "abi": [
    {
      "anonymous": false,
      "inputs": [
        {
          "indexed": true,
          "internalType": "address",
          "name": "owner",
          "type": "address"
        },
        {
          "indexed": true,
          "internalType": "address",
          "name": "spender",
          "type": "address"
        },
        {
          "indexed": false,
          "internalType": "uint256",
          "name": "value",
          "type": "uint256"
        }
      ],
      "name": "Approval",
      "type": "event"
    },
    {
      "anonymous": false,
      "inputs": [
        {
          "indexed": false,
          "internalType": "uint8",
          "name": "version",
          "type": "uint8"
        }
      ],
      "name": "Initialized",
      "type": "event"
    },
    {
      "anonymous": false,
      "inputs": [
        {
          "indexed": true,
          "internalType": "address",
          "name": "previousOwner",
          "type": "address"
        },
        {
          "indexed": true,
          "internalType": "address",
          "name": "newOwner",
          "type": "address"
        }
      ],
      "name": "OwnershipTransferred",
      "type": "event"
    },
    {
      "anonymous": false,
      "inputs": [
        {
          "indexed": true,
          "internalType": "address",
          "name": "from",
          "type": "address"
        },
        {
          "indexed": true,
          "internalType": "address",
          "name": "to",
          "type": "address"
        },
        {
          "indexed": false,
          "internalType": "uint256",
          "name": "value",
          "type": "uint256"
        }
      ],
      "name": "Transfer",
      "type": "event"
    },
    {
      "inputs": [
        {
          "internalType": "address",
          "name": "owner",
          "type": "address"
        },
        {
          "internalType": "address",
          "name": "spender",
          "type": "address"
        }
      ],
      "name": "allowance",
      "outputs": [
        {
          "internalType": "uint256",
          "name": "",
          "type": "uint256"
        }
      ],
      "stateMutability": "view",
      "type": "function"
    },
    {
      "inputs": [
        {
          "internalType": "address",
          "name": "spender",
          "type": "address"
        },
        {
          "internalType": "uint256",
          "name": "amount",
          "type": "uint256"
        }
      ],
      "name": "approve",
      "outputs": [
        {
          "internalType": "bool",
          "name": "",
          "type": "bool"
        }
      ],
      "stateMutability": "nonpayable",
      "type": "function"
    },
    {
      "inputs": [
        {
          "internalType": "address",
          "name": "account",
          "type": "address"
        }
      ],
      "name": "balanceOf",
      "outputs": [
        {
          "internalType": "uint256",
          "name": "",
          "type": "uint256"
        }
      ],
      "stateMutability": "view",
      "type": "function"
    },
    {
      "inputs": [
        {
          "internalType": "address",
          "name": "account",
          "type": "address"
        },
        {
          "internalType": "uint256",
          "name": "amount",
          "type": "uint256"
        }
      ],
      "name": "burnFrom",
      "outputs": [],
      "stateMutability": "nonpayable",
      "type": "function"
    },
    {
      "inputs": [],
      "name": "decimals",
      "outputs": [
        {
          "internalType": "uint8",
          "name": "",
          "type": "uint8"
        }
      ],
      "stateMutability": "view",
      "type": "function"
    },
    {
      "inputs": [
        {
          "internalType": "address",
          "name": "spender",
          "type": "address"
        },
        {
          "internalType": "uint256",
          "name": "subtractedValue",
          "type": "uint256"
        }
      ],
      "name": "decreaseAllowance",
      "outputs": [
        {
          "internalType": "bool",
          "name": "",
          "type": "bool"
        }
      ],
      "stateMutability": "nonpayable",
      "type": "function"
    },
    {
      "inputs": [
        {
          "internalType": "address",
          "name": "spender",
          "type": "address"
        },
        {
          "internalType": "uint256",
          "name": "addedValue",
          "type": "uint256"
        }
      ],
      "name": "increaseAllowance",
      "outputs": [
        {
          "internalType": "bool",
          "name": "",
          "type": "bool"
        }
      ],
      "stateMutability": "nonpayable",
      "type": "function"
    },
    {
      "inputs": [
        {
          "internalType": "string",
          "name": "name",
          "type": "string"
        },
        {
          "internalType": "string",
          "name": "symbol",
          "type": "string"
        }
      ],
      "name": "initialize",
      "outputs": [
        {
          "internalType": "bool",
          "name": "",
          "type": "bool"
        }
      ],
      "stateMutability": "nonpayable",
      "type": "function"
    },
    {
      "inputs": [
        {
          "internalType": "address",
          "name": "recipient",
          "type": "address"
        },
        {
          "internalType": "uint256",
          "name": "amount",
          "type": "uint256"
        }
      ],
      "name": "mint",
      "outputs": [],
      "stateMutability": "nonpayable",
      "type": "function"
    },
    {
      "inputs": [],
      "name": "name",
      "outputs": [
        {
          "internalType": "string",
          "name": "",
          "type": "string"
        }
      ],
      "stateMutability": "view",
      "type": "function"
    },
    {
      "inputs": [],
      "name": "owner",
      "outputs": [
        {
          "internalType": "address",
          "name": "",
          "type": "address"
        }
      ],
      "stateMutability": "view",
      "type": "function"
    },
    {
      "inputs": [],
      "name": "renounceOwnership",
      "outputs": [],
      "stateMutability": "nonpayable",
      "type": "function"
    },
    {
      "inputs": [],
      "name": "symbol",
      "outputs": [
        {
          "internalType": "string",
          "name": "",
          "type": "string"
        }
      ],
      "stateMutability": "view",
      "type": "function"
    },
    {
      "inputs": [],
      "name": "totalSupply",
      "outputs": [
        {
          "internalType": "uint256",
          "name": "",
          "type": "uint256"
        }
      ],
      "stateMutability": "view",
      "type": "function"
    },
    {
      "inputs": [
        {
          "internalType": "address",
          "name": "to",
          "type": "address"
        },
        {
          "internalType": "uint256",
          "name": "amount",
          "type": "uint256"
        }
      ],
      "name": "transfer",
      "outputs": [
        {
          "internalType": "bool",
          "name": "",
          "type": "bool"
        }
      ],
      "stateMutability": "nonpayable",
      "type": "function"
    },
    {
      "inputs": [
        {
          "internalType": "address",
          "name": "from",
          "type": "address"
        },
        {
          "internalType": "address",
          "name": "to",
          "type": "address"
        },
        {
          "internalType": "uint256",
          "name": "amount",
          "type": "uint256"
        }
      ],
      "name": "transferFrom",
      "outputs": [
        {
          "internalType": "bool",
          "name": "",
          "type": "bool"
        }
      ],
      "stateMutability": "nonpayable",
      "type": "function"
    },
    {
      "inputs": [
        {
          "internalType": "address",
          "name": "newOwner",
          "type": "address"
        }
      ],
      "name": "transferOwnership",
      "outputs": [],
      "stateMutability": "nonpayable",
      "type": "function"
    }
  ],
  "bytecode": "0x608060405234801561001057600080fd5b506125ee806100206000396000f3fe608060405234801561001057600080fd5b506004361061010b5760003560e01c806370a08231116100a257806395d89b411161007157806395d89b41146102ba578063a457c2d7146102d8578063a9059cbb14610308578063dd62ed3e14610338578063f2fde38b146103685761010b565b806370a0823114610246578063715018a61461027657806379cc6790146102805780638da5cb5b1461029c5761010b565b8063313ce567116100de578063313ce567146101ac57806339509351146101ca57806340c10f19146101fa5780634cd88b76146102165761010b565b806306fdde0314610110578063095ea7b31461012e57806318160ddd1461015e57806323b872dd1461017c575b600080fd5b610118610384565b604051610125919061151b565b60405180910390f35b610148600480360381019061014391906115e5565b610416565b6040516101559190611640565b60405180910390f35b610166610439565b604051610173919061166a565b60405180910390f35b61019660048036038101906101919190611685565b610443565b6040516101a39190611640565b60405180910390f35b6101b4610472565b6040516101c191906116f4565b60405180910390f35b6101e460048036038101906101df91906115e5565b61047b565b6040516101f19190611640565b60405180910390f35b610214600480360381019061020f91906115e5565b6104b2565b005b610230600480360381019061022b9190611844565b61050b565b60405161023d9190611640565b60405180910390f35b610260600480360381019061025b91906118bc565b610665565b60405161026d919061166a565b60405180910390f35b61027e6106ae565b005b61029a600480360381019061029591906115e5565b6106c2565b005b6102a461071b565b6040516102b191906118f8565b60405180910390f35b6102c2610745565b6040516102cf919061151b565b60405180910390f35b6102f260048036038101906102ed91906115e5565b6107d7565b6040516102ff9190611640565b60405180910390f35b610322600480360381019061031d91906115e5565b61084e565b60405161032f9190611640565b60405180910390f35b610352600480360381019061034d9190611913565b610871565b60405161035f919061166a565b60405180910390f35b610382600480360381019061037d91906118bc565b6108f8565b005b60606036805461039390611982565b80601f01602080910402602001604051908101604052809291908181526020018280546103bf90611982565b801561040c5780601f106103e15761010080835404028352916020019161040c565b820191906000526020600020905b8154815290600101906020018083116103ef57829003601f168201915b5050505050905090565b60008061042161097b565b905061042e818585610983565b600191505092915050565b6000603554905090565b60008061044e61097b565b905061045b858285610b4c565b610466858585610bd8565b60019150509392505050565b60006012905090565b60008061048661097b565b90506104a78185856104988589610871565b6104a291906119e2565b610983565b600191505092915050565b6104ba610e51565b600081036104fd576040517f08c379a00000000000000000000000000000000000000000000000000000000081526004016104f490611a62565b60405180910390fd5b6105078282610ecf565b5050565b600080600060019054906101000a900460ff1615905080801561053e5750600160008054906101000a900460ff1660ff16105b8061056b575061054d30611026565b15801561056a5750600160008054906101000a900460ff1660ff16145b5b6105aa576040517f08c379a00000000000000000000000000000000000000000000000000000000081526004016105a190611af4565b60405180910390fd5b60016000806101000a81548160ff021916908360ff16021790555080156105e7576001600060016101000a81548160ff0219169083151502179055505b6105ef611049565b6105f9848461109a565b61060161110d565b60019150801561065e5760008060016101000a81548160ff0219169083151502179055507f7f26b83ff96e1f2b6a682f133852f6798a09c465da95921460cefb384740249860016040516106559190611b59565b60405180910390a15b5092915050565b6000603360008373ffffffffffffffffffffffffffffffffffffffff1673ffffffffffffffffffffffffffffffffffffffff168152602001908152602001600020549050919050565b6106b6610e51565b6106c0600061116e565b565b6106ca610e51565b6000810361070d576040517f08c379a000000000000000000000000000000000000000000000000000000000815260040161070490611bc0565b60405180910390fd5b6107178282611234565b5050565b6000606560009054906101000a900473ffffffffffffffffffffffffffffffffffffffff16905090565b60606037805461075490611982565b80601f016020809104026020016040519081016040528092919081815260200182805461078090611982565b80156107cd5780601f106107a2576101008083540402835291602001916107cd565b820191906000526020600020905b8154815290600101906020018083116107b057829003601f168201915b5050505050905090565b6000806107e261097b565b905060006107f08286610871565b905083811015610835576040517f08c379a000000000000000000000000000000000000000000000000000000000815260040161082c90611c52565b60405180910390fd5b6108428286868403610983565b60019250505092915050565b60008061085961097b565b9050610866818585610bd8565b600191505092915050565b6000603460008473ffffffffffffffffffffffffffffffffffffffff1673ffffffffffffffffffffffffffffffffffffffff16815260200190815260200160002060008373ffffffffffffffffffffffffffffffffffffffff1673ffffffffffffffffffffffffffffffffffffffff16815260200190815260200160002054905092915050565b610900610e51565b600073ffffffffffffffffffffffffffffffffffffffff168173ffffffffffffffffffffffffffffffffffffffff160361096f576040517f08c379a000000000000000000000000000000000000000000000000000000000815260040161096690611ce4565b60405180910390fd5b6109788161116e565b50565b600033905090565b600073ffffffffffffffffffffffffffffffffffffffff168373ffffffffffffffffffffffffffffffffffffffff16036109f2576040517f08c379a00000000000000000000000000000000000000000000000000000000081526004016109e990611d76565b60405180910390fd5b600073ffffffffffffffffffffffffffffffffffffffff168273ffffffffffffffffffffffffffffffffffffffff1603610a61576040517f08c379a0000000000000000000000000000000000000000000000000000000008152600401610a5890611e08565b60405180910390fd5b80603460008573ffffffffffffffffffffffffffffffffffffffff1673ffffffffffffffffffffffffffffffffffffffff16815260200190815260200160002060008473ffffffffffffffffffffffffffffffffffffffff1673ffffffffffffffffffffffffffffffffffffffff168152602001908152602001600020819055508173ffffffffffffffffffffffffffffffffffffffff168373ffffffffffffffffffffffffffffffffffffffff167f8c5be1e5ebec7d5bd14f71427d1e84f3dd0314c0f7b2291e5b200ac8c7c3b92583604051610b3f919061166a565b60405180910390a3505050565b6000610b588484610871565b90507fffffffffffffffffffffffffffffffffffffffffffffffffffffffffffffffff8114610bd25781811015610bc4576040517f08c379a0000000000000000000000000000000000000000000000000000000008152600401610bbb90611e74565b60405180910390fd5b610bd18484848403610983565b5b50505050565b600073ffffffffffffffffffffffffffffffffffffffff168373ffffffffffffffffffffffffffffffffffffffff1603610c47576040517f08c379a0000000000000000000000000000000000000000000000000000000008152600401610c3e90611f06565b60405180910390fd5b600073ffffffffffffffffffffffffffffffffffffffff168273ffffffffffffffffffffffffffffffffffffffff1603610cb6576040517f08c379a0000000000000000000000000000000000000000000000000000000008152600401610cad90611f98565b60405180910390fd5b610cc1838383611403565b6000603360008573ffffffffffffffffffffffffffffffffffffffff1673ffffffffffffffffffffffffffffffffffffffff16815260200190815260200160002054905081811015610d48576040517f08c379a0000000000000000000000000000000000000000000000000000000008152600401610d3f9061202a565b60405180910390fd5b818103603360008673ffffffffffffffffffffffffffffffffffffffff1673ffffffffffffffffffffffffffffffffffffffff1681526020019081526020016000208190555081603360008573ffffffffffffffffffffffffffffffffffffffff1673ffffffffffffffffffffffffffffffffffffffff168152602001908152602001600020600082825401925050819055508273ffffffffffffffffffffffffffffffffffffffff168473ffffffffffffffffffffffffffffffffffffffff167fddf252ad1be2c89b69c2b068fc378daa952ba7f163c4a11628f55a4df523b3ef84604051610e38919061166a565b60405180910390a3610e4b848484611481565b50505050565b610e5961097b565b73ffffffffffffffffffffffffffffffffffffffff16610e7761071b565b73ffffffffffffffffffffffffffffffffffffffff1614610ecd576040517f08c379a0000000000000000000000000000000000000000000000000000000008152600401610ec490612096565b60405180910390fd5b565b600073ffffffffffffffffffffffffffffffffffffffff168273ffffffffffffffffffffffffffffffffffffffff1603610f3e576040517f08c379a0000000000000000000000000000000000000000000000000000000008152600401610f3590612102565b60405180910390fd5b610f4a60008383611403565b8060356000828254610f5c91906119e2565b9250508190555080603360008473ffffffffffffffffffffffffffffffffffffffff1673ffffffffffffffffffffffffffffffffffffffff168152602001908152602001600020600082825401925050819055508173ffffffffffffffffffffffffffffffffffffffff16600073ffffffffffffffffffffffffffffffffffffffff167fddf252ad1be2c89b69c2b068fc378daa952ba7f163c4a11628f55a4df523b3ef8360405161100e919061166a565b60405180910390a361102260008383611481565b5050565b6000808273ffffffffffffffffffffffffffffffffffffffff163b119050919050565b600060019054906101000a900460ff16611098576040517f08c379a000000000000000000000000000000000000000000000000000000000815260040161108f90612194565b60405180910390fd5b565b600060019054906101000a900460ff166110e9576040517f08c379a00000000000000000000000000000000000000000000000000000000081526004016110e090612194565b60405180910390fd5b81603690816110f89190612356565b5080603790816111089190612356565b505050565b600060019054906101000a900460ff1661115c576040517f08c379a000000000000000000000000000000000000000000000000000000000815260040161115390612194565b60405180910390fd5b61116c61116761097b565b61116e565b565b6000606560009054906101000a900473ffffffffffffffffffffffffffffffffffffffff16905081606560006101000a81548173ffffffffffffffffffffffffffffffffffffffff021916908373ffffffffffffffffffffffffffffffffffffffff1602179055508173ffffffffffffffffffffffffffffffffffffffff168173ffffffffffffffffffffffffffffffffffffffff167f8be0079c531659141344cd1fd0a4f28419497f9722a3daafe3b4186f6b6457e060405160405180910390a35050565b600073ffffffffffffffffffffffffffffffffffffffff168273ffffffffffffffffffffffffffffffffffffffff16036112a3576040517f08c379a000000000000000000000000000000000000000000000000000000000815260040161129a9061249a565b60405180910390fd5b6112af82600083611403565b6000603360008473ffffffffffffffffffffffffffffffffffffffff1673ffffffffffffffffffffffffffffffffffffffff16815260200190815260200160002054905081811015611336576040517f08c379a000000000000000000000000000000000000000000000000000000000815260040161132d9061252c565b60405180910390fd5b818103603360008573ffffffffffffffffffffffffffffffffffffffff1673ffffffffffffffffffffffffffffffffffffffff1681526020019081526020016000208190555081603560008282540392505081905550600073ffffffffffffffffffffffffffffffffffffffff168373ffffffffffffffffffffffffffffffffffffffff167fddf252ad1be2c89b69c2b068fc378daa952ba7f163c4a11628f55a4df523b3ef846040516113ea919061166a565b60405180910390a36113fe83600084611481565b505050565b61140e838383611486565b3073ffffffffffffffffffffffffffffffffffffffff168273ffffffffffffffffffffffffffffffffffffffff160361147c576040517f08c379a000000000000000000000000000000000000000000000000000000000815260040161147390612598565b60405180910390fd5b505050565b505050565b505050565b600081519050919050565b600082825260208201905092915050565b60005b838110156114c55780820151818401526020810190506114aa565b60008484015250505050565b6000601f19601f8301169050919050565b60006114ed8261148b565b6114f78185611496565b93506115078185602086016114a7565b611510816114d1565b840191505092915050565b6000602082019050818103600083015261153581846114e2565b905092915050565b6000604051905090565b600080fd5b600080fd5b600073ffffffffffffffffffffffffffffffffffffffff82169050919050565b600061157c82611551565b9050919050565b61158c81611571565b811461159757600080fd5b50565b6000813590506115a981611583565b92915050565b6000819050919050565b6115c2816115af565b81146115cd57600080fd5b50565b6000813590506115df816115b9565b92915050565b600080604083850312156115fc576115fb611547565b5b600061160a8582860161159a565b925050602061161b858286016115d0565b9150509250929050565b60008115159050919050565b61163a81611625565b82525050565b60006020820190506116556000830184611631565b92915050565b611664816115af565b82525050565b600060208201905061167f600083018461165b565b92915050565b60008060006060848603121561169e5761169d611547565b5b60006116ac8682870161159a565b93505060206116bd8682870161159a565b92505060406116ce868287016115d0565b9150509250925092565b600060ff82169050919050565b6116ee816116d8565b82525050565b600060208201905061170960008301846116e5565b92915050565b600080fd5b600080fd5b7f4e487b7100000000000000000000000000000000000000000000000000000000600052604160045260246000fd5b611751826114d1565b810181811067ffffffffffffffff821117156117705761176f611719565b5b80604052505050565b600061178361153d565b905061178f8282611748565b919050565b600067ffffffffffffffff8211156117af576117ae611719565b5b6117b8826114d1565b9050602081019050919050565b82818337600083830152505050565b60006117e76117e284611794565b611779565b90508281526020810184848401111561180357611802611714565b5b61180e8482856117c5565b509392505050565b600082601f83011261182b5761182a61170f565b5b813561183b8482602086016117d4565b91505092915050565b6000806040838503121561185b5761185a611547565b5b600083013567ffffffffffffffff8111156118795761187861154c565b5b61188585828601611816565b925050602083013567ffffffffffffffff8111156118a6576118a561154c565b5b6118b285828601611816565b9150509250929050565b6000602082840312156118d2576118d1611547565b5b60006118e08482850161159a565b91505092915050565b6118f281611571565b82525050565b600060208201905061190d60008301846118e9565b92915050565b6000806040838503121561192a57611929611547565b5b60006119388582860161159a565b92505060206119498582860161159a565b9150509250929050565b7f4e487b7100000000000000000000000000000000000000000000000000000000600052602260045260246000fd5b6000600282049050600182168061199a57607f821691505b6020821081036119ad576119ac611953565b5b50919050565b7f4e487b7100000000000000000000000000000000000000000000000000000000600052601160045260246000fd5b60006119ed826115af565b91506119f8836115af565b9250828201905080821115611a1057611a0f6119b3565b5b92915050565b7f4c50546f6b656e3a2063616e6e6f74206d696e74203000000000000000000000600082015250565b6000611a4c601683611496565b9150611a5782611a16565b602082019050919050565b60006020820190508181036000830152611a7b81611a3f565b9050919050565b7f496e697469616c697a61626c653a20636f6e747261637420697320616c72656160008201527f647920696e697469616c697a6564000000000000000000000000000000000000602082015250565b6000611ade602e83611496565b9150611ae982611a82565b604082019050919050565b60006020820190508181036000830152611b0d81611ad1565b9050919050565b6000819050919050565b6000819050919050565b6000611b43611b3e611b3984611b14565b611b1e565b6116d8565b9050919050565b611b5381611b28565b82525050565b6000602082019050611b6e6000830184611b4a565b92915050565b7f4c50546f6b656e3a2063616e6e6f74206275726e203000000000000000000000600082015250565b6000611baa601683611496565b9150611bb582611b74565b602082019050919050565b60006020820190508181036000830152611bd981611b9d565b9050919050565b7f45524332303a2064656372656173656420616c6c6f77616e63652062656c6f7760008201527f207a65726f000000000000000000000000000000000000000000000000000000602082015250565b6000611c3c602583611496565b9150611c4782611be0565b604082019050919050565b60006020820190508181036000830152611c6b81611c2f565b9050919050565b7f4f776e61626c653a206e6577206f776e657220697320746865207a65726f206160008201527f6464726573730000000000000000000000000000000000000000000000000000602082015250565b6000611cce602683611496565b9150611cd982611c72565b604082019050919050565b60006020820190508181036000830152611cfd81611cc1565b9050919050565b7f45524332303a20617070726f76652066726f6d20746865207a65726f2061646460008201527f7265737300000000000000000000000000000000000000000000000000000000602082015250565b6000611d60602483611496565b9150611d6b82611d04565b604082019050919050565b60006020820190508181036000830152611d8f81611d53565b9050919050565b7f45524332303a20617070726f766520746f20746865207a65726f20616464726560008201527f7373000000000000000000000000000000000000000000000000000000000000602082015250565b6000611df2602283611496565b9150611dfd82611d96565b604082019050919050565b60006020820190508181036000830152611e2181611de5565b9050919050565b7f45524332303a20696e73756666696369656e7420616c6c6f77616e6365000000600082015250565b6000611e5e601d83611496565b9150611e6982611e28565b602082019050919050565b60006020820190508181036000830152611e8d81611e51565b9050919050565b7f45524332303a207472616e736665722066726f6d20746865207a65726f20616460008201527f6472657373000000000000000000000000000000000000000000000000000000602082015250565b6000611ef0602583611496565b9150611efb82611e94565b604082019050919050565b60006020820190508181036000830152611f1f81611ee3565b9050919050565b7f45524332303a207472616e7366657220746f20746865207a65726f206164647260008201527f6573730000000000000000000000000000000000000000000000000000000000602082015250565b6000611f82602383611496565b9150611f8d82611f26565b604082019050919050565b60006020820190508181036000830152611fb181611f75565b9050919050565b7f45524332303a207472616e7366657220616d6f756e742065786365656473206260008201527f616c616e63650000000000000000000000000000000000000000000000000000602082015250565b6000612014602683611496565b915061201f82611fb8565b604082019050919050565b6000602082019050818103600083015261204381612007565b9050919050565b7f4f776e61626c653a2063616c6c6572206973206e6f7420746865206f776e6572600082015250565b6000612080602083611496565b915061208b8261204a565b602082019050919050565b600060208201905081810360008301526120af81612073565b9050919050565b7f45524332303a206d696e7420746f20746865207a65726f206164647265737300600082015250565b60006120ec601f83611496565b91506120f7826120b6565b602082019050919050565b6000602082019050818103600083015261211b816120df565b9050919050565b7f496e697469616c697a61626c653a20636f6e7472616374206973206e6f74206960008201527f6e697469616c697a696e67000000000000000000000000000000000000000000602082015250565b600061217e602b83611496565b915061218982612122565b604082019050919050565b600060208201905081810360008301526121ad81612171565b9050919050565b60008190508160005260206000209050919050565b60006020601f8301049050919050565b600082821b905092915050565b6000600883026122167fffffffffffffffffffffffffffffffffffffffffffffffffffffffffffffffff826121d9565b61222086836121d9565b95508019841693508086168417925050509392505050565b600061225361224e612249846115af565b611b1e565b6115af565b9050919050565b6000819050919050565b61226d83612238565b6122816122798261225a565b8484546121e6565b825550505050565b600090565b612296612289565b6122a1818484612264565b505050565b5b818110156122c5576122ba60008261228e565b6001810190506122a7565b5050565b601f82111561230a576122db816121b4565b6122e4846121c9565b810160208510156122f3578190505b6123076122ff856121c9565b8301826122a6565b50505b505050565b600082821c905092915050565b600061232d6000198460080261230f565b1980831691505092915050565b6000612346838361231c565b9150826002028217905092915050565b61235f8261148b565b67ffffffffffffffff81111561237857612377611719565b5b6123828254611982565b61238d8282856122c9565b600060209050601f8311600181146123c057600084156123ae578287015190505b6123b8858261233a565b865550612420565b601f1984166123ce866121b4565b60005b828110156123f6578489015182556001820191506020850194506020810190506123d1565b86831015612413578489015161240f601f89168261231c565b8355505b6001600288020188555050505b505050505050565b7f45524332303a206275726e2066726f6d20746865207a65726f2061646472657360008201527f7300000000000000000000000000000000000000000000000000000000000000602082015250565b6000612484602183611496565b915061248f82612428565b604082019050919050565b600060208201905081810360008301526124b381612477565b9050919050565b7f45524332303a206275726e20616d6f756e7420657863656564732062616c616e60008201527f6365000000000000000000000000000000000000000000000000000000000000602082015250565b6000612516602283611496565b9150612521826124ba565b604082019050919050565b6000602082019050818103600083015261254581612509565b9050919050565b7f4c50546f6b656e3a2063616e6e6f742073656e6420746f20697473656c660000600082015250565b6000612582601e83611496565b915061258d8261254c565b602082019050919050565b600060208201905081810360008301526125b181612575565b905091905056fea26469706673582212208c07212b2e1d8ddfa32c535c1316732da30bf8936db57bc99257043eec937c3464736f6c63430008110033",
  "linkReferences": {},
  "deployedLinkReferences": {}
}