{
  "_format": "hh-sol-artifact-1",
  "contractName": "LPToken",
  "sourceName": "@connext/nxtp-contracts/contracts/core/connext/helpers/LPToken.sol",
  "abi": [
    {
      "anonymous": false,
      "inputs": [
        {
          "indexed": true,
          "internalType": "address",
          "name": "owner",
          "type": "address"
        },
        {
          "indexed": true,
          "internalType": "address",
          "name": "spender",
          "type": "address"
        },
        {
          "indexed": false,
          "internalType": "uint256",
          "name": "value",
          "type": "uint256"
        }
      ],
      "name": "Approval",
      "type": "event"
    },
    {
      "anonymous": false,
      "inputs": [
        {
          "indexed": false,
          "internalType": "uint8",
          "name": "version",
          "type": "uint8"
        }
      ],
      "name": "Initialized",
      "type": "event"
    },
    {
      "anonymous": false,
      "inputs": [
        {
          "indexed": true,
          "internalType": "address",
          "name": "previousOwner",
          "type": "address"
        },
        {
          "indexed": true,
          "internalType": "address",
          "name": "newOwner",
          "type": "address"
        }
      ],
      "name": "OwnershipTransferred",
      "type": "event"
    },
    {
      "anonymous": false,
      "inputs": [
        {
          "indexed": true,
          "internalType": "address",
          "name": "from",
          "type": "address"
        },
        {
          "indexed": true,
          "internalType": "address",
          "name": "to",
          "type": "address"
        },
        {
          "indexed": false,
          "internalType": "uint256",
          "name": "value",
          "type": "uint256"
        }
      ],
      "name": "Transfer",
      "type": "event"
    },
    {
      "inputs": [
        {
          "internalType": "address",
          "name": "owner",
          "type": "address"
        },
        {
          "internalType": "address",
          "name": "spender",
          "type": "address"
        }
      ],
      "name": "allowance",
      "outputs": [
        {
          "internalType": "uint256",
          "name": "",
          "type": "uint256"
        }
      ],
      "stateMutability": "view",
      "type": "function"
    },
    {
      "inputs": [
        {
          "internalType": "address",
          "name": "spender",
          "type": "address"
        },
        {
          "internalType": "uint256",
          "name": "amount",
          "type": "uint256"
        }
      ],
      "name": "approve",
      "outputs": [
        {
          "internalType": "bool",
          "name": "",
          "type": "bool"
        }
      ],
      "stateMutability": "nonpayable",
      "type": "function"
    },
    {
      "inputs": [
        {
          "internalType": "address",
          "name": "account",
          "type": "address"
        }
      ],
      "name": "balanceOf",
      "outputs": [
        {
          "internalType": "uint256",
          "name": "",
          "type": "uint256"
        }
      ],
      "stateMutability": "view",
      "type": "function"
    },
    {
      "inputs": [
        {
          "internalType": "address",
          "name": "account",
          "type": "address"
        },
        {
          "internalType": "uint256",
          "name": "amount",
          "type": "uint256"
        }
      ],
      "name": "burnFrom",
      "outputs": [],
      "stateMutability": "nonpayable",
      "type": "function"
    },
    {
      "inputs": [],
      "name": "decimals",
      "outputs": [
        {
          "internalType": "uint8",
          "name": "",
          "type": "uint8"
        }
      ],
      "stateMutability": "view",
      "type": "function"
    },
    {
      "inputs": [
        {
          "internalType": "address",
          "name": "spender",
          "type": "address"
        },
        {
          "internalType": "uint256",
          "name": "subtractedValue",
          "type": "uint256"
        }
      ],
      "name": "decreaseAllowance",
      "outputs": [
        {
          "internalType": "bool",
          "name": "",
          "type": "bool"
        }
      ],
      "stateMutability": "nonpayable",
      "type": "function"
    },
    {
      "inputs": [
        {
          "internalType": "address",
          "name": "spender",
          "type": "address"
        },
        {
          "internalType": "uint256",
          "name": "addedValue",
          "type": "uint256"
        }
      ],
      "name": "increaseAllowance",
      "outputs": [
        {
          "internalType": "bool",
          "name": "",
          "type": "bool"
        }
      ],
      "stateMutability": "nonpayable",
      "type": "function"
    },
    {
      "inputs": [
        {
          "internalType": "string",
          "name": "name",
          "type": "string"
        },
        {
          "internalType": "string",
          "name": "symbol",
          "type": "string"
        }
      ],
      "name": "initialize",
      "outputs": [
        {
          "internalType": "bool",
          "name": "",
          "type": "bool"
        }
      ],
      "stateMutability": "nonpayable",
      "type": "function"
    },
    {
      "inputs": [
        {
          "internalType": "address",
          "name": "recipient",
          "type": "address"
        },
        {
          "internalType": "uint256",
          "name": "amount",
          "type": "uint256"
        }
      ],
      "name": "mint",
      "outputs": [],
      "stateMutability": "nonpayable",
      "type": "function"
    },
    {
      "inputs": [],
      "name": "name",
      "outputs": [
        {
          "internalType": "string",
          "name": "",
          "type": "string"
        }
      ],
      "stateMutability": "view",
      "type": "function"
    },
    {
      "inputs": [],
      "name": "owner",
      "outputs": [
        {
          "internalType": "address",
          "name": "",
          "type": "address"
        }
      ],
      "stateMutability": "view",
      "type": "function"
    },
    {
      "inputs": [],
      "name": "renounceOwnership",
      "outputs": [],
      "stateMutability": "nonpayable",
      "type": "function"
    },
    {
      "inputs": [],
      "name": "symbol",
      "outputs": [
        {
          "internalType": "string",
          "name": "",
          "type": "string"
        }
      ],
      "stateMutability": "view",
      "type": "function"
    },
    {
      "inputs": [],
      "name": "totalSupply",
      "outputs": [
        {
          "internalType": "uint256",
          "name": "",
          "type": "uint256"
        }
      ],
      "stateMutability": "view",
      "type": "function"
    },
    {
      "inputs": [
        {
          "internalType": "address",
          "name": "to",
          "type": "address"
        },
        {
          "internalType": "uint256",
          "name": "amount",
          "type": "uint256"
        }
      ],
      "name": "transfer",
      "outputs": [
        {
          "internalType": "bool",
          "name": "",
          "type": "bool"
        }
      ],
      "stateMutability": "nonpayable",
      "type": "function"
    },
    {
      "inputs": [
        {
          "internalType": "address",
          "name": "from",
          "type": "address"
        },
        {
          "internalType": "address",
          "name": "to",
          "type": "address"
        },
        {
          "internalType": "uint256",
          "name": "amount",
          "type": "uint256"
        }
      ],
      "name": "transferFrom",
      "outputs": [
        {
          "internalType": "bool",
          "name": "",
          "type": "bool"
        }
      ],
      "stateMutability": "nonpayable",
      "type": "function"
    },
    {
      "inputs": [
        {
          "internalType": "address",
          "name": "newOwner",
          "type": "address"
        }
      ],
      "name": "transferOwnership",
      "outputs": [],
      "stateMutability": "nonpayable",
      "type": "function"
    }
  ],
  "bytecode": "0x608060405234801561001057600080fd5b506113a3806100206000396000f3fe608060405234801561001057600080fd5b506004361061011b5760003560e01c806370a08231116100b257806395d89b4111610081578063a9059cbb11610066578063a9059cbb1461024a578063dd62ed3e1461025d578063f2fde38b1461029657600080fd5b806395d89b411461022f578063a457c2d71461023757600080fd5b806370a08231146101d0578063715018a6146101f957806379cc6790146102015780638da5cb5b1461021457600080fd5b8063313ce567116100ee578063313ce56714610186578063395093511461019557806340c10f19146101a85780634cd88b76146101bd57600080fd5b806306fdde0314610120578063095ea7b31461013e57806318160ddd1461016157806323b872dd14610173575b600080fd5b6101286102a9565b6040516101359190610fd8565b60405180910390f35b61015161014c366004611042565b61033b565b6040519015158152602001610135565b6035545b604051908152602001610135565b61015161018136600461106c565b610355565b60405160128152602001610135565b6101516101a3366004611042565b610379565b6101bb6101b6366004611042565b6103b8565b005b6101516101cb36600461114b565b610423565b6101656101de3660046111af565b6001600160a01b031660009081526033602052604090205490565b6101bb61055e565b6101bb61020f366004611042565b610572565b6065546040516001600160a01b039091168152602001610135565b6101286105d4565b610151610245366004611042565b6105e3565b610151610258366004611042565b61068d565b61016561026b3660046111d1565b6001600160a01b03918216600090815260346020908152604080832093909416825291909152205490565b6101bb6102a43660046111af565b61069b565b6060603680546102b890611204565b80601f01602080910402602001604051908101604052809291908181526020018280546102e490611204565b80156103315780601f1061030657610100808354040283529160200191610331565b820191906000526020600020905b81548152906001019060200180831161031457829003601f168201915b5050505050905090565b60003361034981858561072b565b60019150505b92915050565b600033610363858285610883565b61036e858585610915565b506001949350505050565b3360008181526034602090815260408083206001600160a01b038716845290915281205490919061034990829086906103b390879061123e565b61072b565b6103c0610b14565b806000036104155760405162461bcd60e51b815260206004820152601660248201527f4c50546f6b656e3a2063616e6e6f74206d696e7420300000000000000000000060448201526064015b60405180910390fd5b61041f8282610b6e565b5050565b60008054610100900460ff16158080156104445750600054600160ff909116105b8061045e5750303b15801561045e575060005460ff166001145b6104d05760405162461bcd60e51b815260206004820152602e60248201527f496e697469616c697a61626c653a20636f6e747261637420697320616c72656160448201527f647920696e697469616c697a6564000000000000000000000000000000000000606482015260840161040c565b6000805460ff1916600117905580156104f3576000805461ff0019166101001790555b6104fb610c3b565b6105058484610ca6565b61050d610d2f565b600191508015610557576000805461ff0019169055604051600181527f7f26b83ff96e1f2b6a682f133852f6798a09c465da95921460cefb38474024989060200160405180910390a15b5092915050565b610566610b14565b6105706000610d9f565b565b61057a610b14565b806000036105ca5760405162461bcd60e51b815260206004820152601660248201527f4c50546f6b656e3a2063616e6e6f74206275726e203000000000000000000000604482015260640161040c565b61041f8282610e09565b6060603780546102b890611204565b3360008181526034602090815260408083206001600160a01b0387168452909152812054909190838110156106805760405162461bcd60e51b815260206004820152602560248201527f45524332303a2064656372656173656420616c6c6f77616e63652062656c6f7760448201527f207a65726f000000000000000000000000000000000000000000000000000000606482015260840161040c565b61036e828686840361072b565b600033610349818585610915565b6106a3610b14565b6001600160a01b03811661071f5760405162461bcd60e51b815260206004820152602660248201527f4f776e61626c653a206e6577206f776e657220697320746865207a65726f206160448201527f6464726573730000000000000000000000000000000000000000000000000000606482015260840161040c565b61072881610d9f565b50565b6001600160a01b0383166107a65760405162461bcd60e51b8152602060048201526024808201527f45524332303a20617070726f76652066726f6d20746865207a65726f2061646460448201527f7265737300000000000000000000000000000000000000000000000000000000606482015260840161040c565b6001600160a01b0382166108225760405162461bcd60e51b815260206004820152602260248201527f45524332303a20617070726f766520746f20746865207a65726f20616464726560448201527f7373000000000000000000000000000000000000000000000000000000000000606482015260840161040c565b6001600160a01b0383811660008181526034602090815260408083209487168084529482529182902085905590518481527f8c5be1e5ebec7d5bd14f71427d1e84f3dd0314c0f7b2291e5b200ac8c7c3b925910160405180910390a3505050565b6001600160a01b03838116600090815260346020908152604080832093861683529290522054600019811461090f57818110156109025760405162461bcd60e51b815260206004820152601d60248201527f45524332303a20696e73756666696369656e7420616c6c6f77616e6365000000604482015260640161040c565b61090f848484840361072b565b50505050565b6001600160a01b0383166109915760405162461bcd60e51b815260206004820152602560248201527f45524332303a207472616e736665722066726f6d20746865207a65726f20616460448201527f6472657373000000000000000000000000000000000000000000000000000000606482015260840161040c565b6001600160a01b038216610a0d5760405162461bcd60e51b815260206004820152602360248201527f45524332303a207472616e7366657220746f20746865207a65726f206164647260448201527f6573730000000000000000000000000000000000000000000000000000000000606482015260840161040c565b610a18838383610f80565b6001600160a01b03831660009081526033602052604090205481811015610aa75760405162461bcd60e51b815260206004820152602660248201527f45524332303a207472616e7366657220616d6f756e742065786365656473206260448201527f616c616e63650000000000000000000000000000000000000000000000000000606482015260840161040c565b6001600160a01b0380851660008181526033602052604080822086860390559286168082529083902080548601905591517fddf252ad1be2c89b69c2b068fc378daa952ba7f163c4a11628f55a4df523b3ef90610b079086815260200190565b60405180910390a361090f565b6065546001600160a01b031633146105705760405162461bcd60e51b815260206004820181905260248201527f4f776e61626c653a2063616c6c6572206973206e6f7420746865206f776e6572604482015260640161040c565b6001600160a01b038216610bc45760405162461bcd60e51b815260206004820152601f60248201527f45524332303a206d696e7420746f20746865207a65726f206164647265737300604482015260640161040c565b610bd060008383610f80565b8060356000828254610be2919061123e565b90915550506001600160a01b0382166000818152603360209081526040808320805486019055518481527fddf252ad1be2c89b69c2b068fc378daa952ba7f163c4a11628f55a4df523b3ef910160405180910390a35050565b600054610100900460ff166105705760405162461bcd60e51b815260206004820152602b60248201527f496e697469616c697a61626c653a20636f6e7472616374206973206e6f74206960448201526a6e697469616c697a696e6760a81b606482015260840161040c565b600054610100900460ff16610d115760405162461bcd60e51b815260206004820152602b60248201527f496e697469616c697a61626c653a20636f6e7472616374206973206e6f74206960448201526a6e697469616c697a696e6760a81b606482015260840161040c565b6036610d1d83826112ad565b506037610d2a82826112ad565b505050565b600054610100900460ff16610d9a5760405162461bcd60e51b815260206004820152602b60248201527f496e697469616c697a61626c653a20636f6e7472616374206973206e6f74206960448201526a6e697469616c697a696e6760a81b606482015260840161040c565b610570335b606580546001600160a01b038381167fffffffffffffffffffffffff0000000000000000000000000000000000000000831681179093556040519116919082907f8be0079c531659141344cd1fd0a4f28419497f9722a3daafe3b4186f6b6457e090600090a35050565b6001600160a01b038216610e855760405162461bcd60e51b815260206004820152602160248201527f45524332303a206275726e2066726f6d20746865207a65726f2061646472657360448201527f7300000000000000000000000000000000000000000000000000000000000000606482015260840161040c565b610e9182600083610f80565b6001600160a01b03821660009081526033602052604090205481811015610f205760405162461bcd60e51b815260206004820152602260248201527f45524332303a206275726e20616d6f756e7420657863656564732062616c616e60448201527f6365000000000000000000000000000000000000000000000000000000000000606482015260840161040c565b6001600160a01b03831660008181526033602090815260408083208686039055603580548790039055518581529192917fddf252ad1be2c89b69c2b068fc378daa952ba7f163c4a11628f55a4df523b3ef910160405180910390a3505050565b306001600160a01b03831603610d2a5760405162461bcd60e51b815260206004820152601e60248201527f4c50546f6b656e3a2063616e6e6f742073656e6420746f20697473656c660000604482015260640161040c565b600060208083528351808285015260005b8181101561100557858101830151858201604001528201610fe9565b506000604082860101526040601f19601f8301168501019250505092915050565b80356001600160a01b038116811461103d57600080fd5b919050565b6000806040838503121561105557600080fd5b61105e83611026565b946020939093013593505050565b60008060006060848603121561108157600080fd5b61108a84611026565b925061109860208501611026565b9150604084013590509250925092565b634e487b7160e01b600052604160045260246000fd5b600082601f8301126110cf57600080fd5b813567ffffffffffffffff808211156110ea576110ea6110a8565b604051601f8301601f19908116603f01168101908282118183101715611112576111126110a8565b8160405283815286602085880101111561112b57600080fd5b836020870160208301376000602085830101528094505050505092915050565b6000806040838503121561115e57600080fd5b823567ffffffffffffffff8082111561117657600080fd5b611182868387016110be565b9350602085013591508082111561119857600080fd5b506111a5858286016110be565b9150509250929050565b6000602082840312156111c157600080fd5b6111ca82611026565b9392505050565b600080604083850312156111e457600080fd5b6111ed83611026565b91506111fb60208401611026565b90509250929050565b600181811c9082168061121857607f821691505b60208210810361123857634e487b7160e01b600052602260045260246000fd5b50919050565b8082018082111561034f57634e487b7160e01b600052601160045260246000fd5b601f821115610d2a57600081815260208120601f850160051c810160208610156112865750805b601f850160051c820191505b818110156112a557828155600101611292565b505050505050565b815167ffffffffffffffff8111156112c7576112c76110a8565b6112db816112d58454611204565b8461125f565b602080601f83116001811461131057600084156112f85750858301515b600019600386901b1c1916600185901b1785556112a5565b600085815260208120601f198616915b8281101561133f57888601518255948401946001909101908401611320565b508582101561135d5787850151600019600388901b60f8161c191681555b5050505050600190811b0190555056fea264697066735822122074d662441514da4087884e7ce577368cd46e7d37af737aaef88548e8e406e38664736f6c63430008110033",
  "linkReferences": {},
  "deployedLinkReferences": {}
}