{
  "_format": "hh-sol-artifact-1",
  "contractName": "OptimismSpokeConnector",
  "sourceName": "contracts/messaging/connectors/optimism/OptimismSpokeConnector.sol",
  "abi": [
    {
      "inputs": [
        {
          "internalType": "uint32",
          "name": "_domain",
          "type": "uint32"
        },
        {
          "internalType": "uint32",
          "name": "_mirrorDomain",
          "type": "uint32"
        },
        {
          "internalType": "address",
          "name": "_amb",
          "type": "address"
        },
        {
          "internalType": "address",
          "name": "_rootManager",
          "type": "address"
        },
        {
          "internalType": "address",
          "name": "_mirrorConnector",
          "type": "address"
        },
        {
          "internalType": "uint256",
          "name": "_processGas",
          "type": "uint256"
        },
        {
          "internalType": "uint256",
          "name": "_reserveGas",
          "type": "uint256"
        },
        {
          "internalType": "uint256",
          "name": "_delayBlocks",
          "type": "uint256"
        },
        {
          "internalType": "address",
          "name": "_merkle",
          "type": "address"
        },
        {
          "internalType": "address",
          "name": "_watcherManager",
          "type": "address"
        },
        {
          "internalType": "uint256",
          "name": "_gasCap",
          "type": "uint256"
        }
      ],
      "stateMutability": "nonpayable",
      "type": "constructor"
    },
    {
      "inputs": [],
      "name": "Connector__processMessage_notUsed",
      "type": "error"
    },
    {
      "inputs": [],
      "name": "ProposedOwnable__onlyOwner_notOwner",
      "type": "error"
    },
    {
      "inputs": [],
      "name": "ProposedOwnable__onlyProposed_notProposedOwner",
      "type": "error"
    },
    {
      "inputs": [],
      "name": "ProposedOwnable__ownershipDelayElapsed_delayNotElapsed",
      "type": "error"
    },
    {
      "inputs": [],
      "name": "ProposedOwnable__proposeNewOwner_invalidProposal",
      "type": "error"
    },
    {
      "inputs": [],
      "name": "ProposedOwnable__proposeNewOwner_noOwnershipChange",
      "type": "error"
    },
    {
      "inputs": [],
      "name": "ProposedOwnable__renounceOwnership_invalidProposal",
      "type": "error"
    },
    {
      "inputs": [],
      "name": "ProposedOwnable__renounceOwnership_noProposal",
      "type": "error"
    },
    {
      "inputs": [],
      "name": "RateLimited__rateLimited_messageSendRateExceeded",
      "type": "error"
    },
    {
      "inputs": [],
      "name": "TypedMemView__index_indexMoreThan32Bytes",
      "type": "error"
    },
    {
      "inputs": [
        {
          "internalType": "uint256",
          "name": "loc",
          "type": "uint256"
        },
        {
          "internalType": "uint256",
          "name": "len",
          "type": "uint256"
        },
        {
          "internalType": "uint256",
          "name": "index",
          "type": "uint256"
        },
        {
          "internalType": "uint256",
          "name": "slice",
          "type": "uint256"
        }
      ],
      "name": "TypedMemView__index_overrun",
      "type": "error"
    },
    {
      "inputs": [],
      "name": "TypedMemView__unsafeCopyTo_identityOOG",
      "type": "error"
    },
    {
      "inputs": [],
      "name": "TypedMemView__unsafeCopyTo_invalidPointer",
      "type": "error"
    },
    {
      "inputs": [],
      "name": "TypedMemView__unsafeCopyTo_nullPointer",
      "type": "error"
    },
    {
      "anonymous": false,
      "inputs": [
        {
          "indexed": false,
          "internalType": "bytes32",
          "name": "root",
          "type": "bytes32"
        }
      ],
      "name": "AggregateRootReceived",
      "type": "event"
    },
    {
      "anonymous": false,
      "inputs": [
        {
          "indexed": false,
          "internalType": "bytes32",
          "name": "root",
          "type": "bytes32"
        }
      ],
      "name": "AggregateRootRemoved",
      "type": "event"
    },
    {
      "anonymous": false,
      "inputs": [
        {
          "indexed": true,
          "internalType": "bytes32",
          "name": "root",
          "type": "bytes32"
        }
      ],
      "name": "AggregateRootVerified",
      "type": "event"
    },
    {
      "anonymous": false,
      "inputs": [
        {
          "indexed": true,
          "internalType": "uint256",
          "name": "updated",
          "type": "uint256"
        },
        {
          "indexed": false,
          "internalType": "address",
          "name": "caller",
          "type": "address"
        }
      ],
      "name": "DelayBlocksUpdated",
      "type": "event"
    },
    {
      "anonymous": false,
      "inputs": [
        {
          "indexed": false,
          "internalType": "bytes32",
          "name": "leaf",
          "type": "bytes32"
        },
        {
          "indexed": false,
          "internalType": "uint256",
          "name": "index",
          "type": "uint256"
        },
        {
          "indexed": false,
          "internalType": "bytes32",
          "name": "root",
          "type": "bytes32"
        },
        {
          "indexed": false,
          "internalType": "bytes",
          "name": "message",
          "type": "bytes"
        }
      ],
      "name": "Dispatch",
      "type": "event"
    },
    {
      "anonymous": false,
      "inputs": [
        {
          "indexed": true,
          "internalType": "address",
          "name": "to",
          "type": "address"
        },
        {
          "indexed": false,
          "internalType": "uint256",
          "name": "amount",
          "type": "uint256"
        }
      ],
      "name": "FundsWithdrawn",
      "type": "event"
    },
    {
      "anonymous": false,
      "inputs": [
        {
          "indexed": false,
          "internalType": "uint256",
          "name": "_previous",
          "type": "uint256"
        },
        {
          "indexed": false,
          "internalType": "uint256",
          "name": "_updated",
          "type": "uint256"
        }
      ],
      "name": "GasCapUpdated",
      "type": "event"
    },
    {
      "anonymous": false,
      "inputs": [
        {
          "indexed": false,
          "internalType": "bytes",
          "name": "data",
          "type": "bytes"
        },
        {
          "indexed": false,
          "internalType": "address",
          "name": "caller",
          "type": "address"
        }
      ],
      "name": "MessageProcessed",
      "type": "event"
    },
    {
      "anonymous": false,
      "inputs": [
        {
          "indexed": true,
          "internalType": "bytes32",
          "name": "leaf",
          "type": "bytes32"
        },
        {
          "indexed": true,
          "internalType": "bytes32",
          "name": "aggregateRoot",
          "type": "bytes32"
        },
        {
          "indexed": false,
          "internalType": "uint256",
          "name": "aggregateIndex",
          "type": "uint256"
        }
      ],
      "name": "MessageProven",
      "type": "event"
    },
    {
      "anonymous": false,
      "inputs": [
        {
          "indexed": false,
          "internalType": "bytes",
          "name": "data",
          "type": "bytes"
        },
        {
          "indexed": false,
          "internalType": "bytes",
          "name": "encodedData",
          "type": "bytes"
        },
        {
          "indexed": false,
          "internalType": "address",
          "name": "caller",
          "type": "address"
        }
      ],
      "name": "MessageSent",
      "type": "event"
    },
    {
      "anonymous": false,
      "inputs": [
        {
          "indexed": false,
          "internalType": "address",
          "name": "previous",
          "type": "address"
        },
        {
          "indexed": false,
          "internalType": "address",
          "name": "current",
          "type": "address"
        }
      ],
      "name": "MirrorConnectorUpdated",
      "type": "event"
    },
    {
      "anonymous": false,
      "inputs": [
        {
          "indexed": true,
          "internalType": "uint32",
          "name": "domain",
          "type": "uint32"
        },
        {
          "indexed": true,
          "internalType": "uint32",
          "name": "mirrorDomain",
          "type": "uint32"
        },
        {
          "indexed": false,
          "internalType": "address",
          "name": "amb",
          "type": "address"
        },
        {
          "indexed": false,
          "internalType": "address",
          "name": "rootManager",
          "type": "address"
        },
        {
          "indexed": false,
          "internalType": "address",
          "name": "mirrorConnector",
          "type": "address"
        }
      ],
      "name": "NewConnector",
      "type": "event"
    },
    {
      "anonymous": false,
      "inputs": [
        {
          "indexed": true,
          "internalType": "address",
          "name": "proposedOwner",
          "type": "address"
        }
      ],
      "name": "OwnershipProposed",
      "type": "event"
    },
    {
      "anonymous": false,
      "inputs": [
        {
          "indexed": true,
          "internalType": "address",
          "name": "previousOwner",
          "type": "address"
        },
        {
          "indexed": true,
          "internalType": "address",
          "name": "newOwner",
          "type": "address"
        }
      ],
      "name": "OwnershipTransferred",
      "type": "event"
    },
    {
      "anonymous": false,
      "inputs": [
        {
          "indexed": false,
          "internalType": "address",
          "name": "account",
          "type": "address"
        }
      ],
      "name": "Paused",
      "type": "event"
    },
    {
      "anonymous": false,
      "inputs": [
        {
          "indexed": false,
          "internalType": "bytes32",
          "name": "leaf",
          "type": "bytes32"
        },
        {
          "indexed": false,
          "internalType": "bool",
          "name": "success",
          "type": "bool"
        },
        {
          "indexed": false,
          "internalType": "bytes",
          "name": "returnData",
          "type": "bytes"
        }
      ],
      "name": "Process",
      "type": "event"
    },
    {
      "anonymous": false,
      "inputs": [
        {
          "indexed": false,
          "internalType": "address",
          "name": "updater",
          "type": "address"
        },
        {
          "indexed": false,
          "internalType": "uint256",
          "name": "newRateLimit",
          "type": "uint256"
        }
      ],
      "name": "SendRateLimitUpdated",
      "type": "event"
    },
    {
      "anonymous": false,
      "inputs": [
        {
          "indexed": false,
          "internalType": "address",
          "name": "sender",
          "type": "address"
        }
      ],
      "name": "SenderAdded",
      "type": "event"
    },
    {
      "anonymous": false,
      "inputs": [
        {
          "indexed": false,
          "internalType": "address",
          "name": "sender",
          "type": "address"
        }
      ],
      "name": "SenderRemoved",
      "type": "event"
    },
    {
      "anonymous": false,
      "inputs": [
        {
          "indexed": false,
          "internalType": "address",
          "name": "account",
          "type": "address"
        }
      ],
      "name": "Unpaused",
      "type": "event"
    },
    {
      "anonymous": false,
      "inputs": [
        {
          "indexed": false,
          "internalType": "address",
          "name": "watcherManager",
          "type": "address"
        }
      ],
      "name": "WatcherManagerChanged",
      "type": "event"
    },
    {
      "inputs": [],
      "name": "AMB",
      "outputs": [
        {
          "internalType": "address",
          "name": "",
          "type": "address"
        }
      ],
      "stateMutability": "view",
      "type": "function"
    },
    {
      "inputs": [],
      "name": "DOMAIN",
      "outputs": [
        {
          "internalType": "uint32",
          "name": "",
          "type": "uint32"
        }
      ],
      "stateMutability": "view",
      "type": "function"
    },
    {
      "inputs": [],
      "name": "MERKLE",
      "outputs": [
        {
          "internalType": "contract MerkleTreeManager",
          "name": "",
          "type": "address"
        }
      ],
      "stateMutability": "view",
      "type": "function"
    },
    {
      "inputs": [],
      "name": "MIRROR_DOMAIN",
      "outputs": [
        {
          "internalType": "uint32",
          "name": "",
          "type": "uint32"
        }
      ],
      "stateMutability": "view",
      "type": "function"
    },
    {
      "inputs": [],
      "name": "PROCESS_GAS",
      "outputs": [
        {
          "internalType": "uint256",
          "name": "",
          "type": "uint256"
        }
      ],
      "stateMutability": "view",
      "type": "function"
    },
    {
      "inputs": [],
      "name": "RESERVE_GAS",
      "outputs": [
        {
          "internalType": "uint256",
          "name": "",
          "type": "uint256"
        }
      ],
      "stateMutability": "view",
      "type": "function"
    },
    {
      "inputs": [],
      "name": "ROOT_MANAGER",
      "outputs": [
        {
          "internalType": "address",
          "name": "",
          "type": "address"
        }
      ],
      "stateMutability": "view",
      "type": "function"
    },
    {
      "inputs": [],
      "name": "acceptProposedOwner",
      "outputs": [],
      "stateMutability": "nonpayable",
      "type": "function"
    },
    {
      "inputs": [
        {
          "internalType": "address",
          "name": "_sender",
          "type": "address"
        }
      ],
      "name": "addSender",
      "outputs": [],
      "stateMutability": "nonpayable",
      "type": "function"
    },
    {
      "inputs": [
        {
          "internalType": "address",
          "name": "",
          "type": "address"
        }
      ],
      "name": "allowlistedSenders",
      "outputs": [
        {
          "internalType": "bool",
          "name": "",
          "type": "bool"
        }
      ],
      "stateMutability": "view",
      "type": "function"
    },
    {
      "inputs": [],
      "name": "delay",
      "outputs": [
        {
          "internalType": "uint256",
          "name": "",
          "type": "uint256"
        }
      ],
      "stateMutability": "view",
      "type": "function"
    },
    {
      "inputs": [],
      "name": "delayBlocks",
      "outputs": [
        {
          "internalType": "uint256",
          "name": "",
          "type": "uint256"
        }
      ],
      "stateMutability": "view",
      "type": "function"
    },
    {
      "inputs": [
        {
          "internalType": "uint32",
          "name": "_destinationDomain",
          "type": "uint32"
        },
        {
          "internalType": "bytes32",
          "name": "_recipientAddress",
          "type": "bytes32"
        },
        {
          "internalType": "bytes",
          "name": "_messageBody",
          "type": "bytes"
        }
      ],
      "name": "dispatch",
      "outputs": [
        {
          "internalType": "bytes32",
          "name": "",
          "type": "bytes32"
        },
        {
          "internalType": "bytes",
          "name": "",
          "type": "bytes"
        }
      ],
      "stateMutability": "nonpayable",
      "type": "function"
    },
    {
      "inputs": [],
      "name": "home",
      "outputs": [
        {
          "internalType": "contract IOutbox",
          "name": "",
          "type": "address"
        }
      ],
      "stateMutability": "view",
      "type": "function"
    },
    {
      "inputs": [
        {
          "internalType": "address",
          "name": "_potentialReplica",
          "type": "address"
        }
      ],
      "name": "isReplica",
      "outputs": [
        {
          "internalType": "bool",
          "name": "",
          "type": "bool"
        }
      ],
      "stateMutability": "view",
      "type": "function"
    },
    {
      "inputs": [],
      "name": "lastSentBlock",
      "outputs": [
        {
          "internalType": "uint256",
          "name": "",
          "type": "uint256"
        }
      ],
      "stateMutability": "view",
      "type": "function"
    },
    {
      "inputs": [],
      "name": "localDomain",
      "outputs": [
        {
          "internalType": "uint32",
          "name": "",
          "type": "uint32"
        }
      ],
      "stateMutability": "view",
      "type": "function"
    },
    {
      "inputs": [
        {
          "internalType": "bytes32",
          "name": "",
          "type": "bytes32"
        }
      ],
      "name": "messages",
      "outputs": [
        {
          "internalType": "enum SpokeConnector.MessageStatus",
          "name": "",
          "type": "uint8"
        }
      ],
      "stateMutability": "view",
      "type": "function"
    },
    {
      "inputs": [],
      "name": "mirrorConnector",
      "outputs": [
        {
          "internalType": "address",
          "name": "",
          "type": "address"
        }
      ],
      "stateMutability": "view",
      "type": "function"
    },
    {
      "inputs": [
        {
          "internalType": "uint32",
          "name": "",
          "type": "uint32"
        }
      ],
      "name": "nonces",
      "outputs": [
        {
          "internalType": "uint32",
          "name": "",
          "type": "uint32"
        }
      ],
      "stateMutability": "view",
      "type": "function"
    },
    {
      "inputs": [],
      "name": "outboundRoot",
      "outputs": [
        {
          "internalType": "bytes32",
          "name": "",
          "type": "bytes32"
        }
      ],
      "stateMutability": "view",
      "type": "function"
    },
    {
      "inputs": [],
      "name": "owner",
      "outputs": [
        {
          "internalType": "address",
          "name": "",
          "type": "address"
        }
      ],
      "stateMutability": "view",
      "type": "function"
    },
    {
      "inputs": [],
      "name": "pause",
      "outputs": [],
      "stateMutability": "nonpayable",
      "type": "function"
    },
    {
      "inputs": [],
      "name": "paused",
      "outputs": [
        {
          "internalType": "bool",
          "name": "",
          "type": "bool"
        }
      ],
      "stateMutability": "view",
      "type": "function"
    },
    {
      "inputs": [
        {
          "internalType": "bytes32",
          "name": "",
          "type": "bytes32"
        }
      ],
      "name": "pendingAggregateRoots",
      "outputs": [
        {
          "internalType": "uint256",
          "name": "",
          "type": "uint256"
        }
      ],
      "stateMutability": "view",
      "type": "function"
    },
    {
      "inputs": [
        {
          "internalType": "bytes",
          "name": "_data",
          "type": "bytes"
        }
      ],
      "name": "processMessage",
      "outputs": [],
      "stateMutability": "nonpayable",
      "type": "function"
    },
    {
      "inputs": [
        {
          "internalType": "address",
          "name": "newlyProposed",
          "type": "address"
        }
      ],
      "name": "proposeNewOwner",
      "outputs": [],
      "stateMutability": "nonpayable",
      "type": "function"
    },
    {
      "inputs": [],
      "name": "proposed",
      "outputs": [
        {
          "internalType": "address",
          "name": "",
          "type": "address"
        }
      ],
      "stateMutability": "view",
      "type": "function"
    },
    {
      "inputs": [],
      "name": "proposedTimestamp",
      "outputs": [
        {
          "internalType": "uint256",
          "name": "",
          "type": "uint256"
        }
      ],
      "stateMutability": "view",
      "type": "function"
    },
    {
      "inputs": [
        {
          "components": [
            {
              "internalType": "bytes",
              "name": "message",
              "type": "bytes"
            },
            {
              "internalType": "bytes32[32]",
              "name": "path",
              "type": "bytes32[32]"
            },
            {
              "internalType": "uint256",
              "name": "index",
              "type": "uint256"
            }
          ],
          "internalType": "struct SpokeConnector.Proof[]",
          "name": "_proofs",
          "type": "tuple[]"
        },
        {
          "internalType": "bytes32",
          "name": "_aggregateRoot",
          "type": "bytes32"
        },
        {
          "internalType": "bytes32[32]",
          "name": "_aggregatePath",
          "type": "bytes32[32]"
        },
        {
          "internalType": "uint256",
          "name": "_aggregateIndex",
          "type": "uint256"
        }
      ],
      "name": "proveAndProcess",
      "outputs": [],
      "stateMutability": "nonpayable",
      "type": "function"
    },
    {
      "inputs": [
        {
          "internalType": "bytes32",
          "name": "",
          "type": "bytes32"
        }
      ],
      "name": "provenAggregateRoots",
      "outputs": [
        {
          "internalType": "bool",
          "name": "",
          "type": "bool"
        }
      ],
      "stateMutability": "view",
      "type": "function"
    },
    {
      "inputs": [
        {
          "internalType": "bytes32",
          "name": "",
          "type": "bytes32"
        }
      ],
      "name": "provenMessageRoots",
      "outputs": [
        {
          "internalType": "bool",
          "name": "",
          "type": "bool"
        }
      ],
      "stateMutability": "view",
      "type": "function"
    },
    {
      "inputs": [],
      "name": "rateLimitBlocks",
      "outputs": [
        {
          "internalType": "uint256",
          "name": "",
          "type": "uint256"
        }
      ],
      "stateMutability": "view",
      "type": "function"
    },
    {
      "inputs": [
        {
          "internalType": "bytes32",
          "name": "_fraudulentRoot",
          "type": "bytes32"
        }
      ],
      "name": "removePendingAggregateRoot",
      "outputs": [],
      "stateMutability": "nonpayable",
      "type": "function"
    },
    {
      "inputs": [
        {
          "internalType": "address",
          "name": "_sender",
          "type": "address"
        }
      ],
      "name": "removeSender",
      "outputs": [],
      "stateMutability": "nonpayable",
      "type": "function"
    },
    {
      "inputs": [],
      "name": "renounceOwnership",
      "outputs": [],
      "stateMutability": "nonpayable",
      "type": "function"
    },
    {
      "inputs": [],
      "name": "renounced",
      "outputs": [
        {
          "internalType": "bool",
          "name": "",
          "type": "bool"
        }
      ],
      "stateMutability": "view",
      "type": "function"
    },
    {
      "inputs": [
        {
          "internalType": "bytes",
          "name": "_encodedData",
          "type": "bytes"
        }
      ],
      "name": "send",
      "outputs": [],
      "stateMutability": "payable",
      "type": "function"
    },
    {
      "inputs": [
        {
          "internalType": "bytes32",
          "name": "",
          "type": "bytes32"
        }
      ],
      "name": "sentMessageRoots",
      "outputs": [
        {
          "internalType": "bool",
          "name": "",
          "type": "bool"
        }
      ],
      "stateMutability": "view",
      "type": "function"
    },
    {
      "inputs": [
        {
          "internalType": "uint256",
          "name": "_delayBlocks",
          "type": "uint256"
        }
      ],
      "name": "setDelayBlocks",
      "outputs": [],
      "stateMutability": "nonpayable",
      "type": "function"
    },
    {
      "inputs": [
        {
          "internalType": "uint256",
          "name": "_gasCap",
          "type": "uint256"
        }
      ],
      "name": "setGasCap",
      "outputs": [],
      "stateMutability": "nonpayable",
      "type": "function"
    },
    {
      "inputs": [
        {
          "internalType": "address",
          "name": "_mirrorConnector",
          "type": "address"
        }
      ],
      "name": "setMirrorConnector",
      "outputs": [],
      "stateMutability": "nonpayable",
      "type": "function"
    },
    {
      "inputs": [
        {
          "internalType": "uint256",
          "name": "_rateLimit",
          "type": "uint256"
        }
      ],
      "name": "setRateLimitBlocks",
      "outputs": [],
      "stateMutability": "nonpayable",
      "type": "function"
    },
    {
      "inputs": [
        {
          "internalType": "address",
          "name": "_watcherManager",
          "type": "address"
        }
      ],
      "name": "setWatcherManager",
      "outputs": [],
      "stateMutability": "nonpayable",
      "type": "function"
    },
    {
      "inputs": [],
      "name": "unpause",
      "outputs": [],
      "stateMutability": "nonpayable",
      "type": "function"
    },
    {
      "inputs": [
        {
          "internalType": "address",
          "name": "_expected",
          "type": "address"
        }
      ],
      "name": "verifySender",
      "outputs": [
        {
          "internalType": "bool",
          "name": "",
          "type": "bool"
        }
      ],
      "stateMutability": "nonpayable",
      "type": "function"
    },
    {
      "inputs": [],
      "name": "watcherManager",
      "outputs": [
        {
          "internalType": "contract WatcherManager",
          "name": "",
          "type": "address"
        }
      ],
      "stateMutability": "view",
      "type": "function"
    },
    {
      "inputs": [
        {
          "internalType": "address",
          "name": "_to",
          "type": "address"
        }
      ],
      "name": "withdrawFunds",
      "outputs": [],
      "stateMutability": "nonpayable",
      "type": "function"
    },
    {
      "stateMutability": "payable",
      "type": "receive"
    }
  ],
  "bytecode": "0x6101606040523480156200001257600080fd5b5060405162006cd138038062006cd18339818101604052810190620000389190620006d8565b80808c8c8c8c8c8c8c8c8c8c808a8a8a8a8a6200005b336200042260201b60201c565b60008563ffffffff1603620000a7576040517f08c379a00000000000000000000000000000000000000000000000000000000081526004016200009e9062000846565b60405180910390fd5b600073ffffffffffffffffffffffffffffffffffffffff168273ffffffffffffffffffffffffffffffffffffffff160362000119576040517f08c379a00000000000000000000000000000000000000000000000000000000081526004016200011090620008b8565b60405180910390fd5b8463ffffffff1660808163ffffffff16815250508273ffffffffffffffffffffffffffffffffffffffff1660a08173ffffffffffffffffffffffffffffffffffffffff16815250508173ffffffffffffffffffffffffffffffffffffffff1660c08173ffffffffffffffffffffffffffffffffffffffff16815250508363ffffffff1660e08163ffffffff1681525050600073ffffffffffffffffffffffffffffffffffffffff168173ffffffffffffffffffffffffffffffffffffffff1614620001f057620001ef816200050a60201b60201c565b5b8363ffffffff168563ffffffff167f4f9c27c2fe3f84576ea469d367d044da53c45e951617e8389f2b5ed8db9d25f08585856040516200023393929190620008eb565b60405180910390a350505050506000600360146101000a81548160ff02191690831515021790555080600460006101000a81548173ffffffffffffffffffffffffffffffffffffffff021916908373ffffffffffffffffffffffffffffffffffffffff160217905550506001600781905550620cf84f8511620002ed576040517f08c379a0000000000000000000000000000000000000000000000000000000008152600401620002e49062000978565b60405180910390fd5b613a97841162000334576040517f08c379a00000000000000000000000000000000000000000000000000000000081526004016200032b90620009ea565b60405180910390fd5b846101208181525050836101408181525050600073ffffffffffffffffffffffffffffffffffffffff168273ffffffffffffffffffffffffffffffffffffffff1603620003b8576040517f08c379a0000000000000000000000000000000000000000000000000000000008152600401620003af9062000a5c565b60405180910390fd5b8173ffffffffffffffffffffffffffffffffffffffff166101008173ffffffffffffffffffffffffffffffffffffffff168152505082600881905550505050505050505050506200040f81620005ab60201b60201c565b5050505050505050505050505062000ae9565b8073ffffffffffffffffffffffffffffffffffffffff1660008054906101000a900473ffffffffffffffffffffffffffffffffffffffff1673ffffffffffffffffffffffffffffffffffffffff167f8be0079c531659141344cd1fd0a4f28419497f9722a3daafe3b4186f6b6457e060405160405180910390a3806000806101000a81548173ffffffffffffffffffffffffffffffffffffffff021916908373ffffffffffffffffffffffffffffffffffffffff160217905550600260009055600160006101000a81549073ffffffffffffffffffffffffffffffffffffffff021916905550565b7fc77bec288fc88f168427f2f7da682eadb26cac89d8d591af6e443da98dff2bbc600360009054906101000a900473ffffffffffffffffffffffffffffffffffffffff16826040516200055f92919062000a7e565b60405180910390a180600360006101000a81548173ffffffffffffffffffffffffffffffffffffffff021916908373ffffffffffffffffffffffffffffffffffffffff16021790555050565b7f877a02cb809da0364d23adca3cd50c451b53f279d3df632e1fc11eb66335bce560105482604051620005e092919062000abc565b60405180910390a18060108190555050565b600080fd5b600063ffffffff82169050919050565b6200061281620005f7565b81146200061e57600080fd5b50565b600081519050620006328162000607565b92915050565b600073ffffffffffffffffffffffffffffffffffffffff82169050919050565b6000620006658262000638565b9050919050565b620006778162000658565b81146200068357600080fd5b50565b60008151905062000697816200066c565b92915050565b6000819050919050565b620006b2816200069d565b8114620006be57600080fd5b50565b600081519050620006d281620006a7565b92915050565b60008060008060008060008060008060006101608c8e031215620007015762000700620005f2565b5b6000620007118e828f0162000621565b9b50506020620007248e828f0162000621565b9a50506040620007378e828f0162000686565b99505060606200074a8e828f0162000686565b98505060806200075d8e828f0162000686565b97505060a0620007708e828f01620006c1565b96505060c0620007838e828f01620006c1565b95505060e0620007968e828f01620006c1565b945050610100620007aa8e828f0162000686565b935050610120620007be8e828f0162000686565b925050610140620007d28e828f01620006c1565b9150509295989b509295989b9093969950565b600082825260208201905092915050565b7f656d70747920646f6d61696e0000000000000000000000000000000000000000600082015250565b60006200082e600c83620007e5565b91506200083b82620007f6565b602082019050919050565b6000602082019050818103600083015262000861816200081f565b9050919050565b7f656d70747920726f6f744d616e61676572000000000000000000000000000000600082015250565b6000620008a0601183620007e5565b9150620008ad8262000868565b602082019050919050565b60006020820190508181036000830152620008d38162000891565b9050919050565b620008e58162000658565b82525050565b6000606082019050620009026000830186620008da565b620009116020830185620008da565b620009206040830184620008da565b949350505050565b7f2170726f63657373206761730000000000000000000000000000000000000000600082015250565b600062000960600c83620007e5565b91506200096d8262000928565b602082019050919050565b60006020820190508181036000830152620009938162000951565b9050919050565b7f2172657365727665206761730000000000000000000000000000000000000000600082015250565b6000620009d2600c83620007e5565b9150620009df826200099a565b602082019050919050565b6000602082019050818103600083015262000a0581620009c3565b9050919050565b7f217a65726f206d65726b6c650000000000000000000000000000000000000000600082015250565b600062000a44600c83620007e5565b915062000a518262000a0c565b602082019050919050565b6000602082019050818103600083015262000a778162000a35565b9050919050565b600060408201905062000a956000830185620008da565b62000aa46020830184620008da565b9392505050565b62000ab6816200069d565b82525050565b600060408201905062000ad3600083018562000aab565b62000ae2602083018462000aab565b9392505050565b60805160a05160c05160e05161010051610120516101405161613962000b9860003960008181610c220152612b900152600081816121af01528181612bb10152612c3c015260008181610ca0015281816114be01528181611a0d01526123b001526000610af301526000611478015260008181610f1301528181612185015281816125b301526131b60152600081816113860152818161197e0152818161236c0152612a3c01526161396000f3fe6080604052600436106102975760003560e01c80638456cb591161015a578063b95a2001116100c1578063d69f9d611161007a578063d69f9d61146109cc578063d7d317b3146109f7578063d88beda214610a22578063db1b765914610a4d578063e0fed01014610a8a578063fa31de0114610ab35761029e565b8063b95a2001146108ce578063c5b350df1461090b578063cc39428314610922578063d1851c921461094d578063d232c22014610978578063d2a3cc71146109a35761029e565b8063a01892a511610113578063a01892a5146107d2578063a792c29b146107fd578063ad9c0c2e14610828578063b1f8100d14610853578063b2f876431461087c578063b697f531146108a55761029e565b80638456cb59146106c05780638d3638f4146106d75780638da5cb5b1461070257806398c9f2b91461072d5780639d3117c71461076a5780639fa92f9d146107a75761029e565b8063572386ca116101fe57806365eaf11b116101b757806365eaf11b146105d857806368742da6146106035780636a42b8f81461062c5780636b04a93314610657578063715018a6146106805780637850b020146106975761029e565b8063572386ca146104b4578063579c1618146104f15780635bd11efc1461051c5780635c975abb146105455780635f61e3ec146105705780636159ada11461059b5761029e565b80633cf52ffb116102505780633cf52ffb146103b85780633f4ba83a146103e35780634ff746f6146103fa578063508a109b146104235780635190bc531461044c57806352a9674b146104895761029e565b806314168416146102a35780631eeaabea146102ce57806325e3beda146102f75780632bb1ae7c146103225780632bbd59ca1461033e578063301f07c31461037b5761029e565b3661029e57005b600080fd5b3480156102af57600080fd5b506102b8610af1565b6040516102c591906143a4565b60405180910390f35b3480156102da57600080fd5b506102f560048036038101906102f09190614409565b610b15565b005b34801561030357600080fd5b5061030c610c20565b6040516103199190614445565b60405180910390f35b61033c600480360381019061033791906145a6565b610c44565b005b34801561034a57600080fd5b5061036560048036038101906103609190614625565b610e30565b60405161037291906146c9565b60405180910390f35b34801561038757600080fd5b506103a2600480360381019061039d9190614625565b610e50565b6040516103af91906146ff565b60405180910390f35b3480156103c457600080fd5b506103cd610e70565b6040516103da9190614445565b60405180910390f35b3480156103ef57600080fd5b506103f8610e7a565b005b34801561040657600080fd5b50610421600480360381019061041c91906145a6565b610f11565b005b34801561042f57600080fd5b5061044a6004803603810190610445919061479b565b610fe4565b005b34801561045857600080fd5b50610473600480360381019061046e9190614883565b61134c565b60405161048091906146ff565b60405180910390f35b34801561049557600080fd5b5061049e611384565b6040516104ab91906143a4565b60405180910390f35b3480156104c057600080fd5b506104db60048036038101906104d69190614625565b6113a8565b6040516104e891906146ff565b60405180910390f35b3480156104fd57600080fd5b506105066113c8565b6040516105139190614445565b60405180910390f35b34801561052857600080fd5b50610543600480360381019061053e9190614883565b6113ce565b005b34801561055157600080fd5b5061055a61145f565b60405161056791906146ff565b60405180910390f35b34801561057c57600080fd5b50610585611476565b60405161059291906148bf565b60405180910390f35b3480156105a757600080fd5b506105c260048036038101906105bd9190614883565b61149a565b6040516105cf91906146ff565b60405180910390f35b3480156105e457600080fd5b506105ed6114ba565b6040516105fa91906148e9565b60405180910390f35b34801561060f57600080fd5b5061062a60048036038101906106259190614883565b611550565b005b34801561063857600080fd5b50610641611636565b60405161064e9190614445565b60405180910390f35b34801561066357600080fd5b5061067e60048036038101906106799190614625565b611641565b005b34801561068c57600080fd5b50610695611775565b005b3480156106a357600080fd5b506106be60048036038101906106b99190614409565b6117fc565b005b3480156106cc57600080fd5b506106d561188d565b005b3480156106e357600080fd5b506106ec61197a565b6040516106f991906143a4565b60405180910390f35b34801561070e57600080fd5b506107176119a2565b60405161072491906148bf565b60405180910390f35b34801561073957600080fd5b50610754600480360381019061074f9190614625565b6119cb565b60405161076191906146ff565b60405180910390f35b34801561077657600080fd5b50610791600480360381019061078c9190614625565b6119eb565b60405161079e9190614445565b60405180910390f35b3480156107b357600080fd5b506107bc611a03565b6040516107c99190614963565b60405180910390f35b3480156107de57600080fd5b506107e7611a0b565b6040516107f4919061499f565b60405180910390f35b34801561080957600080fd5b50610812611a2f565b60405161081f91906149db565b60405180910390f35b34801561083457600080fd5b5061083d611a55565b60405161084a9190614445565b60405180910390f35b34801561085f57600080fd5b5061087a60048036038101906108759190614883565b611a5b565b005b34801561088857600080fd5b506108a3600480360381019061089e9190614883565b611c08565b005b3480156108b157600080fd5b506108cc60048036038101906108c79190614883565b611d16565b005b3480156108da57600080fd5b506108f560048036038101906108f09190614a22565b611e2d565b60405161090291906143a4565b60405180910390f35b34801561091757600080fd5b50610920611e50565b005b34801561092e57600080fd5b50610937611f4d565b60405161094491906148bf565b60405180910390f35b34801561095957600080fd5b50610962611f73565b60405161096f91906148bf565b60405180910390f35b34801561098457600080fd5b5061098d611f9d565b60405161099a91906146ff565b60405180910390f35b3480156109af57600080fd5b506109ca60048036038101906109c59190614883565b611ff3565b005b3480156109d857600080fd5b506109e1612183565b6040516109ee91906148bf565b60405180910390f35b348015610a0357600080fd5b50610a0c6121a7565b604051610a199190614445565b60405180910390f35b348015610a2e57600080fd5b50610a376121ad565b604051610a449190614445565b60405180910390f35b348015610a5957600080fd5b50610a746004803603810190610a6f9190614883565b6121d1565b604051610a8191906146ff565b60405180910390f35b348015610a9657600080fd5b50610ab16004803603810190610aac9190614409565b6121e3565b005b348015610abf57600080fd5b50610ada6004803603810190610ad59190614a4f565b612274565b604051610ae8929190614b3d565b60405180910390f35b7f000000000000000000000000000000000000000000000000000000000000000081565b3373ffffffffffffffffffffffffffffffffffffffff1660008054906101000a900473ffffffffffffffffffffffffffffffffffffffff1673ffffffffffffffffffffffffffffffffffffffff1614610b9a576040517f8d450dd800000000000000000000000000000000000000000000000000000000815260040160405180910390fd5b6008548103610bde576040517f08c379a0000000000000000000000000000000000000000000000000000000008152600401610bd590614bca565b60405180910390fd5b807f8bd16320f3b60336ed5fd2a770eb7453e7e71cfef4462addffd7ae9dfe201c8e33604051610c0e91906148bf565b60405180910390a28060088190555050565b7f000000000000000000000000000000000000000000000000000000000000000081565b610c4c6124a9565b43600554600654610c5d9190614c19565b1115610c95576040517f8d9e55e200000000000000000000000000000000000000000000000000000000815260040160405180910390fd5b4360068190555060007f000000000000000000000000000000000000000000000000000000000000000073ffffffffffffffffffffffffffffffffffffffff1663ebf0c7176040518163ffffffff1660e01b8152600401602060405180830381865afa158015610d09573d6000803e3d6000fd5b505050506040513d601f19601f82011682018060405250810190610d2d9190614c62565b905060001515600c600083815260200190815260200160002060009054906101000a900460ff16151514610d96576040517f08c379a0000000000000000000000000000000000000000000000000000000008152600401610d8d90614cdb565b60405180910390fd5b600081604051602001610da99190614d1c565b6040516020818303038152906040529050610dc481846124f3565b6001600c600084815260200190815260200160002060006101000a81548160ff0219169083151502179055507fdcaa37a042a0087de79018c629bbd29cee82ca80bd9be394e1696bf9e9355077818433604051610e2393929190614d37565b60405180910390a1505050565b600f6020528060005260406000206000915054906101000a900460ff1681565b600a6020528060005260406000206000915054906101000a900460ff1681565b6000600254905090565b3373ffffffffffffffffffffffffffffffffffffffff1660008054906101000a900473ffffffffffffffffffffffffffffffffffffffff1673ffffffffffffffffffffffffffffffffffffffff1614610eff576040517f8d450dd800000000000000000000000000000000000000000000000000000000815260040160405180910390fd5b610f0761266f565b610f0f6126b8565b565b7f000000000000000000000000000000000000000000000000000000000000000073ffffffffffffffffffffffffffffffffffffffff163373ffffffffffffffffffffffffffffffffffffffff1614610f9f576040517f08c379a0000000000000000000000000000000000000000000000000000000008152600401610f9690614dc8565b60405180910390fd5b610fa88161271b565b7fb3abc57bfeebd2cac918901db582f71972a8e628bccf19f5ae3e3482b98a5ced8133604051610fd9929190614de8565b60405180910390a150565b610fec6124a9565b610ff46127de565b6000858590501161103a576040517f08c379a000000000000000000000000000000000000000000000000000000000815260040161103190614e64565b60405180910390fd5b6000858560008181106110505761104f614e84565b5b90506020028101906110629190614ec2565b80600001906110719190614eeb565b60405161107f929190614f7e565b6040518091039020905060006110e882888860008181106110a3576110a2614e84565b5b90506020028101906110b59190614ec2565b602001898960008181106110cc576110cb614e84565b5b90506020028101906110de9190614ec2565b610420013561282d565b90506110f6818686866128ff565b6001600f600084815260200190815260200160002060006101000a81548160ff0219169083600281111561112d5761112c614652565b5b021790555060008787905090506000600190505b818163ffffffff1610156112965788888263ffffffff1681811061116857611167614e84565b5b905060200281019061117a9190614ec2565b80600001906111899190614eeb565b604051611197929190614f7e565b60405180910390209350600061120a858b8b8563ffffffff168181106111c0576111bf614e84565b5b90506020028101906111d29190614ec2565b6020018c8c8663ffffffff168181106111ee576111ed614e84565b5b90506020028101906112009190614ec2565b610420013561282d565b905083811461124e576040517f08c379a000000000000000000000000000000000000000000000000000000000815260040161124590614fe3565b60405180910390fd5b6001600f600087815260200190815260200160002060006101000a81548160ff0219169083600281111561128557611284614652565b5b021790555081600101915050611141565b5060005b818163ffffffff1610156113395761132d89898363ffffffff168181106112c4576112c3614e84565b5b90506020028101906112d69190614ec2565b80600001906112e59190614eeb565b8080601f016020809104026020016040519081016040528093929190818152602001838380828437600081840152601f19601f82011690508083019250505050505050612a21565b5080600101905061129a565b50505050611345612df4565b5050505050565b60003073ffffffffffffffffffffffffffffffffffffffff168273ffffffffffffffffffffffffffffffffffffffff16149050919050565b7f000000000000000000000000000000000000000000000000000000000000000081565b600c6020528060005260406000206000915054906101000a900460ff1681565b60055481565b3373ffffffffffffffffffffffffffffffffffffffff1660008054906101000a900473ffffffffffffffffffffffffffffffffffffffff1673ffffffffffffffffffffffffffffffffffffffff1614611453576040517f8d450dd800000000000000000000000000000000000000000000000000000000815260040160405180910390fd5b61145c81612dfe565b50565b6000600360149054906101000a900460ff16905090565b7f000000000000000000000000000000000000000000000000000000000000000081565b600d6020528060005260406000206000915054906101000a900460ff1681565b60007f000000000000000000000000000000000000000000000000000000000000000073ffffffffffffffffffffffffffffffffffffffff1663ebf0c7176040518163ffffffff1660e01b8152600401602060405180830381865afa158015611527573d6000803e3d6000fd5b505050506040513d601f19601f8201168201806040525081019061154b9190614c62565b905090565b3373ffffffffffffffffffffffffffffffffffffffff1660008054906101000a900473ffffffffffffffffffffffffffffffffffffffff1673ffffffffffffffffffffffffffffffffffffffff16146115d5576040517f8d450dd800000000000000000000000000000000000000000000000000000000815260040160405180910390fd5b60004790506115e48282612e9d565b8173ffffffffffffffffffffffffffffffffffffffff167feaff4b37086828766ad3268786972c0cd24259d4c87a80f9d3963a3c3d999b0d8260405161162a9190614445565b60405180910390a25050565b600062093a80905090565b3373ffffffffffffffffffffffffffffffffffffffff1660008054906101000a900473ffffffffffffffffffffffffffffffffffffffff1673ffffffffffffffffffffffffffffffffffffffff16146116c6576040517f8d450dd800000000000000000000000000000000000000000000000000000000815260040160405180910390fd5b6116ce61266f565b6000600960008381526020019081526020016000205403611724576040517f08c379a000000000000000000000000000000000000000000000000000000000815260040161171b9061504f565b60405180910390fd5b60096000828152602001908152602001600020600090557ff51534ecf10a58db36ce4f5180f59deddf3b3eb7c5e7454e602c2f80a40cc7398160405161176a91906148e9565b60405180910390a150565b3373ffffffffffffffffffffffffffffffffffffffff1660008054906101000a900473ffffffffffffffffffffffffffffffffffffffff1673ffffffffffffffffffffffffffffffffffffffff16146117fa576040517f8d450dd800000000000000000000000000000000000000000000000000000000815260040160405180910390fd5b565b3373ffffffffffffffffffffffffffffffffffffffff1660008054906101000a900473ffffffffffffffffffffffffffffffffffffffff1673ffffffffffffffffffffffffffffffffffffffff1614611881576040517f8d450dd800000000000000000000000000000000000000000000000000000000815260040160405180910390fd5b61188a81612f91565b50565b600460009054906101000a900473ffffffffffffffffffffffffffffffffffffffff1673ffffffffffffffffffffffffffffffffffffffff166384785ecd336040518263ffffffff1660e01b81526004016118e891906148bf565b602060405180830381865afa158015611905573d6000803e3d6000fd5b505050506040513d601f19601f82011682018060405250810190611929919061509b565b611968576040517f08c379a000000000000000000000000000000000000000000000000000000000815260040161195f90615114565b60405180910390fd5b6119706124a9565b611978612fd6565b565b60007f0000000000000000000000000000000000000000000000000000000000000000905090565b60008060009054906101000a900473ffffffffffffffffffffffffffffffffffffffff16905090565b600b6020528060005260406000206000915054906101000a900460ff1681565b60096020528060005260406000206000915090505481565b600030905090565b7f000000000000000000000000000000000000000000000000000000000000000081565b600460009054906101000a900473ffffffffffffffffffffffffffffffffffffffff1681565b60085481565b3373ffffffffffffffffffffffffffffffffffffffff1660008054906101000a900473ffffffffffffffffffffffffffffffffffffffff1673ffffffffffffffffffffffffffffffffffffffff1614611ae0576040517f8d450dd800000000000000000000000000000000000000000000000000000000815260040160405180910390fd5b8073ffffffffffffffffffffffffffffffffffffffff16600160009054906101000a900473ffffffffffffffffffffffffffffffffffffffff1673ffffffffffffffffffffffffffffffffffffffff16148015611b405750600060025414155b15611b77576040517f23780cca00000000000000000000000000000000000000000000000000000000815260040160405180910390fd5b8073ffffffffffffffffffffffffffffffffffffffff1660008054906101000a900473ffffffffffffffffffffffffffffffffffffffff1673ffffffffffffffffffffffffffffffffffffffff1603611bfc576040517f945f6e7e00000000000000000000000000000000000000000000000000000000815260040160405180910390fd5b611c0581613039565b50565b3373ffffffffffffffffffffffffffffffffffffffff1660008054906101000a900473ffffffffffffffffffffffffffffffffffffffff1673ffffffffffffffffffffffffffffffffffffffff1614611c8d576040517f8d450dd800000000000000000000000000000000000000000000000000000000815260040160405180910390fd5b600d60008273ffffffffffffffffffffffffffffffffffffffff1673ffffffffffffffffffffffffffffffffffffffff16815260200190815260200160002060006101000a81549060ff02191690557f384859c5ef5fafac31e8bc92ce7fb48b1f2c74c4dd5e212eb84ec202fa5d9fad81604051611d0b91906148bf565b60405180910390a150565b3373ffffffffffffffffffffffffffffffffffffffff1660008054906101000a900473ffffffffffffffffffffffffffffffffffffffff1673ffffffffffffffffffffffffffffffffffffffff1614611d9b576040517f8d450dd800000000000000000000000000000000000000000000000000000000815260040160405180910390fd5b6001600d60008373ffffffffffffffffffffffffffffffffffffffff1673ffffffffffffffffffffffffffffffffffffffff16815260200190815260200160002060006101000a81548160ff0219169083151502179055507fd65eca5d561d3a4568c87b9b13ced4ab52a69edadfdfdb22d76bc595f36d7d8781604051611e2291906148bf565b60405180910390a150565b600e6020528060005260406000206000915054906101000a900463ffffffff1681565b3373ffffffffffffffffffffffffffffffffffffffff16600160009054906101000a900473ffffffffffffffffffffffffffffffffffffffff1673ffffffffffffffffffffffffffffffffffffffff1614611ed7576040517f234fe4e200000000000000000000000000000000000000000000000000000000815260040160405180910390fd5b62093a8060025442611ee99190615134565b11611f20576040517f9380a17c00000000000000000000000000000000000000000000000000000000815260040160405180910390fd5b611f4b600160009054906101000a900473ffffffffffffffffffffffffffffffffffffffff166130c7565b565b600360009054906101000a900473ffffffffffffffffffffffffffffffffffffffff1681565b6000600160009054906101000a900473ffffffffffffffffffffffffffffffffffffffff16905090565b60008073ffffffffffffffffffffffffffffffffffffffff1660008054906101000a900473ffffffffffffffffffffffffffffffffffffffff1673ffffffffffffffffffffffffffffffffffffffff1614905090565b3373ffffffffffffffffffffffffffffffffffffffff1660008054906101000a900473ffffffffffffffffffffffffffffffffffffffff1673ffffffffffffffffffffffffffffffffffffffff1614612078576040517f8d450dd800000000000000000000000000000000000000000000000000000000815260040160405180910390fd5b600460009054906101000a900473ffffffffffffffffffffffffffffffffffffffff1673ffffffffffffffffffffffffffffffffffffffff168173ffffffffffffffffffffffffffffffffffffffff1603612108576040517f08c379a00000000000000000000000000000000000000000000000000000000081526004016120ff906151b4565b60405180910390fd5b80600460006101000a81548173ffffffffffffffffffffffffffffffffffffffff021916908373ffffffffffffffffffffffffffffffffffffffff1602179055507fc16d059e43d7f8e29ccb4e001a2f249d3c59e274925d6a6bc3912943441d9f6c8160405161217891906148bf565b60405180910390a150565b7f000000000000000000000000000000000000000000000000000000000000000081565b60065481565b7f000000000000000000000000000000000000000000000000000000000000000081565b60006121dc826131af565b9050919050565b3373ffffffffffffffffffffffffffffffffffffffff1660008054906101000a900473ffffffffffffffffffffffffffffffffffffffff1673ffffffffffffffffffffffffffffffffffffffff1614612268576040517f8d450dd800000000000000000000000000000000000000000000000000000000815260040160405180910390fd5b612271816131e2565b50565b60006060600d60003373ffffffffffffffffffffffffffffffffffffffff1673ffffffffffffffffffffffffffffffffffffffff16815260200190815260200160002060009054906101000a900460ff16612304576040517f08c379a00000000000000000000000000000000000000000000000000000000081526004016122fb90615220565b60405180910390fd5b6000600e60008763ffffffff1663ffffffff168152602001908152602001600020600081819054906101000a900463ffffffff168092919061234590615240565b91906101000a81548163ffffffff021916908363ffffffff1602179055509050600061239d7f000000000000000000000000000000000000000000000000000000000000000061239433613269565b848a8a8a61328c565b90506000818051906020012090506000807f000000000000000000000000000000000000000000000000000000000000000073ffffffffffffffffffffffffffffffffffffffff16632d287e43846040518263ffffffff1660e01b815260040161240791906148e9565b60408051808303816000875af1158015612425573d6000803e3d6000fd5b505050506040513d601f19601f820116820180604052508101906124499190615281565b915091507f40f08ee347fc927ae45902edc87debb024aab1a311943731968607f603f2152f8360018361247c9190615134565b848760405161248e94939291906152c1565b60405180910390a18284965096505050505050935093915050565b6124b161145f565b156124f1576040517f08c379a00000000000000000000000000000000000000000000000000000000081526004016124e890615359565b60405180910390fd5b565b6020825114612537576040517f08c379a000000000000000000000000000000000000000000000000000000000815260040161252e906153c5565b60405180910390fd5b6000634ff746f660e01b8360405160240161255291906153e5565b604051602081830303815290604052907bffffffffffffffffffffffffffffffffffffffffffffffffffffffff19166020820180517bffffffffffffffffffffffffffffffffffffffffffffffffffffffff838183161783525050505090507f000000000000000000000000000000000000000000000000000000000000000073ffffffffffffffffffffffffffffffffffffffff16633dbb202b600360009054906101000a900473ffffffffffffffffffffffffffffffffffffffff168361261a866132c4565b6040518463ffffffff1660e01b815260040161263893929190615407565b600060405180830381600087803b15801561265257600080fd5b505af1158015612666573d6000803e3d6000fd5b50505050505050565b61267761145f565b6126b6576040517f08c379a00000000000000000000000000000000000000000000000000000000081526004016126ad90615491565b60405180910390fd5b565b6126c061266f565b6000600360146101000a81548160ff0219169083151502179055507f5db9ee0a495bf2e6ff9c91a7834c1ba4fdd244a5e8aa4e537bd38aeae4b073aa61270461332d565b60405161271191906148bf565b60405180910390a1565b612746600360009054906101000a900473ffffffffffffffffffffffffffffffffffffffff166131af565b612785576040517f08c379a000000000000000000000000000000000000000000000000000000000815260040161277c906154fd565b60405180910390fd5b60208151146127c9576040517f08c379a00000000000000000000000000000000000000000000000000000000081526004016127c090615569565b60405180910390fd5b6127db816127d6906155bb565b613335565b50565b600260075403612823576040517f08c379a000000000000000000000000000000000000000000000000000000000815260040161281a9061566e565b60405180910390fd5b6002600781905550565b600080600281111561284257612841614652565b5b600f600086815260200190815260200160002060009054906101000a900460ff16600281111561287557612874614652565b5b146128b5576040517f08c379a00000000000000000000000000000000000000000000000000000000081526004016128ac906156da565b60405180910390fd5b6128f6848460208060200260405190810160405280929190826020800280828437600081840152601f19601f82011690508083019250505050505084613484565b90509392505050565b600b600085815260200190815260200160002060009054906101000a900460ff16612a1b5761292d83613909565b6000612970858460208060200260405190810160405280929190826020800280828437600081840152601f19601f82011690508083019250505050505084613484565b90508381146129b4576040517f08c379a00000000000000000000000000000000000000000000000000000000081526004016129ab90615746565b60405180910390fd5b6001600b600087815260200190815260200160002060006101000a81548160ff02191690831515021790555083857f7ec1ea51fe3db53e55ed9d922854bc2156f467ff2f87d74e2086dae2c84a88a884604051612a119190614445565b60405180910390a3505b50505050565b600080612a38600084613a9490919063ffffffff16565b90507f000000000000000000000000000000000000000000000000000000000000000063ffffffff16612a708262ffffff1916613abf565b63ffffffff1614612ab6576040517f08c379a0000000000000000000000000000000000000000000000000000000008152600401612aad906157b2565b60405180910390fd5b6000612ac78262ffffff1916613ae5565b905060016002811115612add57612adc614652565b5b600f600083815260200190815260200160002060009054906101000a900460ff166002811115612b1057612b0f614652565b5b14612b50576040517f08c379a0000000000000000000000000000000000000000000000000000000008152600401612b479061581e565b60405180910390fd5b6002600f600083815260200190815260200160002060006101000a81548160ff02191690836002811115612b8757612b86614652565b5b021790555060017f00000000000000000000000000000000000000000000000000000000000000007f0000000000000000000000000000000000000000000000000000000000000000612bda9190614c19565b612be49190615134565b5a11612c25576040517f08c379a0000000000000000000000000000000000000000000000000000000008152600401612c1c9061588a565b60405180910390fd5b6000612c368362ffffff1916613b28565b905060007f000000000000000000000000000000000000000000000000000000000000000090506000610100905060008161ffff1667ffffffffffffffff811115612c8457612c8361447b565b5b6040519080825280601f01601f191660200182016040528015612cb65781602001600182028036833780820191505090505b5090506000612cca8762ffffff1916613b42565b612cd98862ffffff1916613b68565b612ce88962ffffff1916613b8e565b612d05612cfa8b62ffffff1916613bb4565b62ffffff1916613c03565b604051602401612d1894939291906158aa565b6040516020818303038152906040527fab2dc3f5000000000000000000000000000000000000000000000000000000007bffffffffffffffffffffffffffffffffffffffffffffffffffffffff19166020820180517bffffffffffffffffffffffffffffffffffffffffffffffffffffffff83818316178352505050509050612da5858560008685613c4a565b80935081995050507fd42de95a9b26f1be134c8ecce389dc4fcfa18753d01661b7b361233569e8fe48868984604051612de0939291906158f6565b60405180910390a150505050505050919050565b6001600781905550565b7fc77bec288fc88f168427f2f7da682eadb26cac89d8d591af6e443da98dff2bbc600360009054906101000a900473ffffffffffffffffffffffffffffffffffffffff1682604051612e51929190615934565b60405180910390a180600360006101000a81548173ffffffffffffffffffffffffffffffffffffffff021916908373ffffffffffffffffffffffffffffffffffffffff16021790555050565b80471015612ee0576040517f08c379a0000000000000000000000000000000000000000000000000000000008152600401612ed7906159a9565b60405180910390fd5b60008273ffffffffffffffffffffffffffffffffffffffff1682604051612f06906159ef565b60006040518083038185875af1925050503d8060008114612f43576040519150601f19603f3d011682016040523d82523d6000602084013e612f48565b606091505b5050905080612f8c576040517f08c379a0000000000000000000000000000000000000000000000000000000008152600401612f8390615a76565b60405180910390fd5b505050565b7f877a02cb809da0364d23adca3cd50c451b53f279d3df632e1fc11eb66335bce560105482604051612fc4929190615a96565b60405180910390a18060108190555050565b612fde6124a9565b6001600360146101000a81548160ff0219169083151502179055507f62e78cea01bee320cd4e420270b5ea74000d11b0c9f74754ebdbfc544b05a25861302261332d565b60405161302f91906148bf565b60405180910390a1565b4260028190555080600160006101000a81548173ffffffffffffffffffffffffffffffffffffffff021916908373ffffffffffffffffffffffffffffffffffffffff1602179055508073ffffffffffffffffffffffffffffffffffffffff167f6ab4d119f23076e8ad491bc65ce85f017fb0591dce08755ba8591059cc51737a60405160405180910390a250565b8073ffffffffffffffffffffffffffffffffffffffff1660008054906101000a900473ffffffffffffffffffffffffffffffffffffffff1673ffffffffffffffffffffffffffffffffffffffff167f8be0079c531659141344cd1fd0a4f28419497f9722a3daafe3b4186f6b6457e060405160405180910390a3806000806101000a81548173ffffffffffffffffffffffffffffffffffffffff021916908373ffffffffffffffffffffffffffffffffffffffff160217905550600260009055600160006101000a81549073ffffffffffffffffffffffffffffffffffffffff021916905550565b60006131db7f000000000000000000000000000000000000000000000000000000000000000083613ce2565b9050919050565b6005548103613226576040517f08c379a000000000000000000000000000000000000000000000000000000000815260040161321d90615b0b565b60405180910390fd5b806005819055507f8e7fa5e406cb856aab05575e45ea011c6748376cc1b5229e3d67b92986406a15338260405161325e929190615b2b565b60405180910390a150565b60008173ffffffffffffffffffffffffffffffffffffffff1660001b9050919050565b60608686868686866040516020016132a996959493929190615bbb565b60405160208183030381529060405290509695505050505050565b6000602082511461330a576040517f08c379a0000000000000000000000000000000000000000000000000000000008152600401613301906153c5565b60405180910390fd5b613326828060200190518101906133219190615c27565b613df7565b9050919050565b600033905090565b6000801916810361337b576040517f08c379a000000000000000000000000000000000000000000000000000000000815260040161337290615ca0565b60405180910390fd5b60006009600083815260200190815260200160002054146133d1576040517f08c379a00000000000000000000000000000000000000000000000000000000081526004016133c890615d0c565b60405180910390fd5b600a600082815260200190815260200160002060009054906101000a900460ff1615613432576040517f08c379a000000000000000000000000000000000000000000000000000000000815260040161342990615d78565b60405180910390fd5b4360096000838152602001908152602001600020819055507f84ef18531155afdb0e64ff905d67044ae3aac63a6fba4661cfd9c4c14f289bc88160405161347991906148e9565b60405180910390a150565b60008390508260006001841660051b905082815281518160200352604060002092506001801b84161560051b9050828160200352600160051b820151815260406000209250600160021b84161560051b9050828160200352600260051b820151815260406000209250600160031b84161560051b9050828160200352600360051b820151815260406000209250600160041b84161560051b9050828160200352600460051b820151815260406000209250600160051b84161560051b90508281602003526005801b820151815260406000209250600160061b84161560051b9050828160200352600660051b820151815260406000209250600160071b84161560051b9050828160200352600760051b820151815260406000209250600160081b84161560051b9050828160200352600860051b820151815260406000209250600160091b84161560051b9050828160200352600960051b8201518152604060002092506001600a1b84161560051b9050828160200352600a60051b8201518152604060002092506001600b1b84161560051b9050828160200352600b60051b8201518152604060002092506001600c1b84161560051b9050828160200352600c60051b8201518152604060002092506001600d1b84161560051b9050828160200352600d60051b8201518152604060002092506001600e1b84161560051b9050828160200352600e60051b8201518152604060002092506001600f1b84161560051b9050828160200352600f60051b820151815260406000209250600160101b84161560051b9050828160200352601060051b820151815260406000209250600160111b84161560051b9050828160200352601160051b820151815260406000209250600160121b84161560051b9050828160200352601260051b820151815260406000209250600160131b84161560051b9050828160200352601360051b820151815260406000209250600160141b84161560051b9050828160200352601460051b820151815260406000209250600160151b84161560051b9050828160200352601560051b820151815260406000209250600160161b84161560051b9050828160200352601660051b820151815260406000209250600160171b84161560051b9050828160200352601760051b820151815260406000209250600160181b84161560051b9050828160200352601860051b820151815260406000209250600160191b84161560051b9050828160200352601960051b8201518152604060002092506001601a1b84161560051b9050828160200352601a60051b8201518152604060002092506001601b1b84161560051b9050828160200352601b60051b8201518152604060002092506001601c1b84161560051b9050828160200352601c60051b8201518152604060002092506001601d1b84161560051b9050828160200352601d60051b8201518152604060002092506001601e1b84161560051b9050828160200352601e60051b8201518152604060002092506001601f1b84161560051b9050828160200352601f60051b82015181526040600020925050509392505050565b6000801916810361394f576040517f08c379a000000000000000000000000000000000000000000000000000000000815260040161394690615de4565b60405180910390fd5b600a600082815260200190815260200160002060009054906101000a900460ff16613a9157600060096000838152602001908152602001600020549050600081036139cf576040517f08c379a00000000000000000000000000000000000000000000000000000000081526004016139c690615e50565b60405180910390fd5b60085481436139de9190615134565b1015613a1f576040517f08c379a0000000000000000000000000000000000000000000000000000000008152600401613a1690615ebc565b60405180910390fd5b6001600a600084815260200190815260200160002060006101000a81548160ff021916908315150217905550817f36b314aba9f663b4d3ef3288ae489341cc5e6a2725a05fa2b72df7a27e03f42a60405160405180910390a26009600083815260200190815260200160002060009055505b50565b600080835190506000602085019050613ab58464ffffffffff168284613e11565b9250505092915050565b6000613ade602860048462ffffff1916613e789092919063ffffffff16565b9050919050565b600080613af183613eaf565b6bffffffffffffffffffffffff1690506000613b0c84613ecf565b6bffffffffffffffffffffffff16905080822092505050919050565b6000613b3b613b3683613eef565b613f15565b9050919050565b6000613b61600060048462ffffff1916613e789092919063ffffffff16565b9050919050565b6000613b87602460048462ffffff1916613e789092919063ffffffff16565b9050919050565b6000613bad600460208462ffffff1916613f229092919063ffffffff16565b9050919050565b6000613bfc604c80613bcb8562ffffff1916613ecf565b6bffffffffffffffffffffffff16613be39190615134565b60008562ffffff191661403c909392919063ffffffff16565b9050919050565b6060600080613c1184613ecf565b6bffffffffffffffffffffffff1690506040519150819250613c3684602084016140d3565b506020818301016040528082525050919050565b6000606060008060008661ffff1667ffffffffffffffff811115613c7157613c7061447b565b5b6040519080825280601f01601f191660200182016040528015613ca35781602001600182028036833780820191505090505b5090506000808751602089018b8e8ef191503d925086831115613cc4578692505b828152826000602083013e8181945094505050509550959350505050565b60008273ffffffffffffffffffffffffffffffffffffffff163373ffffffffffffffffffffffffffffffffffffffff1614613d52576040517f08c379a0000000000000000000000000000000000000000000000000000000008152600401613d4990615f28565b60405180910390fd5b8173ffffffffffffffffffffffffffffffffffffffff168373ffffffffffffffffffffffffffffffffffffffff16636e296e456040518163ffffffff1660e01b8152600401602060405180830381865afa158015613db4573d6000803e3d6000fd5b505050506040513d601f19601f82011682018060405250810190613dd89190615f5d565b73ffffffffffffffffffffffffffffffffffffffff1614905092915050565b6000601054821115613e095760105491505b819050919050565b6000808284613e209190614c19565b9050604051811115613e3157600090505b60008103613e62577fffffffffffffffffffffffffffffffffffffffffffffffffffffffffff000000915050613e71565b613e6d858585614208565b9150505b9392505050565b60006008826020613e899190615f97565b613e939190615fcc565b60ff16613ea1858585613f22565b60001c901c90509392505050565b6000806bffffffffffffffffffffffff9050808360781c16915050919050565b6000806bffffffffffffffffffffffff9050808360181c16915050919050565b6000613f0e602c60208462ffffff1916613f229092919063ffffffff16565b9050919050565b60008160001c9050919050565b6000808260ff1603613f39576000801b9050614035565b613f4284613ecf565b6bffffffffffffffffffffffff168260ff1684613f5f9190614c19565b1115613fbb57613f6e84613eaf565b613f7785613ecf565b848460ff166040517f78218d29000000000000000000000000000000000000000000000000000000008152600401613fb29493929190616052565b60405180910390fd5b60208260ff161115613ff9576040517f045df3f900000000000000000000000000000000000000000000000000000000815260040160405180910390fd5b6000600883029050600061400c86613eaf565b6bffffffffffffffffffffffff1690506000614027836142a6565b905080868301511693505050505b9392505050565b60008061404886613eaf565b6bffffffffffffffffffffffff169050614061866142d5565b84868361406e9190614c19565b6140789190614c19565b11156140a7577fffffffffffffffffffffffffffffffffffffffffffffffffffffffffff0000009150506140cb565b84816140b39190614c19565b90506140c78364ffffffffff168286613e11565b9150505b949350505050565b60006140de836142ff565b15614115576040517f523544cc00000000000000000000000000000000000000000000000000000000815260040160405180910390fd5b61411e83614337565b15614155576040517f5dc1292200000000000000000000000000000000000000000000000000000000815260040160405180910390fd5b600061416084613ecf565b6bffffffffffffffffffffffff169050600061417b85613eaf565b6bffffffffffffffffffffffff1690506000806040519150858211156141a15760206060fd5b8386858560045afa9050806141e2576040517fabc6f66c00000000000000000000000000000000000000000000000000000000815260040160405180910390fd5b6141fc6141ee88614378565b64ffffffffff168786614208565b94505050505092915050565b600080606090506000601890506000849050600086905085826bffffffffffffffffffffffff16148015614249575086816bffffffffffffffffffffffff16145b614288576040517f08c379a000000000000000000000000000000000000000000000000000000000815260040161427f906160e3565b60405180910390fd5b87841b9450808517841b9450818517831b9450505050509392505050565b60007f8000000000000000000000000000000000000000000000000000000000000000600183031d9050919050565b60006142e082613ecf565b6142e983613eaf565b016bffffffffffffffffffffffff169050919050565b60007fffffffffffffffffffffffffffffffffffffffffffffffffffffffffff00000062ffffff19168262ffffff1916149050919050565b600064ffffffffff61434883614378565b64ffffffffff160361435d5760019050614373565b6000614368836142d5565b905060405181119150505b919050565b60008160d81c9050919050565b600063ffffffff82169050919050565b61439e81614385565b82525050565b60006020820190506143b96000830184614395565b92915050565b6000604051905090565b600080fd5b600080fd5b6000819050919050565b6143e6816143d3565b81146143f157600080fd5b50565b600081359050614403816143dd565b92915050565b60006020828403121561441f5761441e6143c9565b5b600061442d848285016143f4565b91505092915050565b61443f816143d3565b82525050565b600060208201905061445a6000830184614436565b92915050565b600080fd5b600080fd5b6000601f19601f8301169050919050565b7f4e487b7100000000000000000000000000000000000000000000000000000000600052604160045260246000fd5b6144b38261446a565b810181811067ffffffffffffffff821117156144d2576144d161447b565b5b80604052505050565b60006144e56143bf565b90506144f182826144aa565b919050565b600067ffffffffffffffff8211156145115761451061447b565b5b61451a8261446a565b9050602081019050919050565b82818337600083830152505050565b6000614549614544846144f6565b6144db565b90508281526020810184848401111561456557614564614465565b5b614570848285614527565b509392505050565b600082601f83011261458d5761458c614460565b5b813561459d848260208601614536565b91505092915050565b6000602082840312156145bc576145bb6143c9565b5b600082013567ffffffffffffffff8111156145da576145d96143ce565b5b6145e684828501614578565b91505092915050565b6000819050919050565b614602816145ef565b811461460d57600080fd5b50565b60008135905061461f816145f9565b92915050565b60006020828403121561463b5761463a6143c9565b5b600061464984828501614610565b91505092915050565b7f4e487b7100000000000000000000000000000000000000000000000000000000600052602160045260246000fd5b6003811061469257614691614652565b5b50565b60008190506146a382614681565b919050565b60006146b382614695565b9050919050565b6146c3816146a8565b82525050565b60006020820190506146de60008301846146ba565b92915050565b60008115159050919050565b6146f9816146e4565b82525050565b600060208201905061471460008301846146f0565b92915050565b600080fd5b600080fd5b60008083601f84011261473a57614739614460565b5b8235905067ffffffffffffffff8111156147575761475661471a565b5b6020830191508360208202830111156147735761477261471f565b5b9250929050565b60008190508260208002820111156147955761479461471f565b5b92915050565b600080600080600061046086880312156147b8576147b76143c9565b5b600086013567ffffffffffffffff8111156147d6576147d56143ce565b5b6147e288828901614724565b955095505060206147f588828901614610565b93505060406148068882890161477a565b925050610440614818888289016143f4565b9150509295509295909350565b600073ffffffffffffffffffffffffffffffffffffffff82169050919050565b600061485082614825565b9050919050565b61486081614845565b811461486b57600080fd5b50565b60008135905061487d81614857565b92915050565b600060208284031215614899576148986143c9565b5b60006148a78482850161486e565b91505092915050565b6148b981614845565b82525050565b60006020820190506148d460008301846148b0565b92915050565b6148e3816145ef565b82525050565b60006020820190506148fe60008301846148da565b92915050565b6000819050919050565b600061492961492461491f84614825565b614904565b614825565b9050919050565b600061493b8261490e565b9050919050565b600061494d82614930565b9050919050565b61495d81614942565b82525050565b60006020820190506149786000830184614954565b92915050565b600061498982614930565b9050919050565b6149998161497e565b82525050565b60006020820190506149b46000830184614990565b92915050565b60006149c582614930565b9050919050565b6149d5816149ba565b82525050565b60006020820190506149f060008301846149cc565b92915050565b6149ff81614385565b8114614a0a57600080fd5b50565b600081359050614a1c816149f6565b92915050565b600060208284031215614a3857614a376143c9565b5b6000614a4684828501614a0d565b91505092915050565b600080600060608486031215614a6857614a676143c9565b5b6000614a7686828701614a0d565b9350506020614a8786828701614610565b925050604084013567ffffffffffffffff811115614aa857614aa76143ce565b5b614ab486828701614578565b9150509250925092565b600081519050919050565b600082825260208201905092915050565b60005b83811015614af8578082015181840152602081019050614add565b60008484015250505050565b6000614b0f82614abe565b614b198185614ac9565b9350614b29818560208601614ada565b614b328161446a565b840191505092915050565b6000604082019050614b5260008301856148da565b8181036020830152614b648184614b04565b90509392505050565b600082825260208201905092915050565b7f2164656c6179426c6f636b730000000000000000000000000000000000000000600082015250565b6000614bb4600c83614b6d565b9150614bbf82614b7e565b602082019050919050565b60006020820190508181036000830152614be381614ba7565b9050919050565b7f4e487b7100000000000000000000000000000000000000000000000000000000600052601160045260246000fd5b6000614c24826143d3565b9150614c2f836143d3565b9250828201905080821115614c4757614c46614bea565b5b92915050565b600081519050614c5c816145f9565b92915050565b600060208284031215614c7857614c776143c9565b5b6000614c8684828501614c4d565b91505092915050565b7f726f6f7420616c72656164792073656e74000000000000000000000000000000600082015250565b6000614cc5601183614b6d565b9150614cd082614c8f565b602082019050919050565b60006020820190508181036000830152614cf481614cb8565b9050919050565b6000819050919050565b614d16614d11826145ef565b614cfb565b82525050565b6000614d288284614d05565b60208201915081905092915050565b60006060820190508181036000830152614d518186614b04565b90508181036020830152614d658185614b04565b9050614d7460408301846148b0565b949350505050565b7f21414d4200000000000000000000000000000000000000000000000000000000600082015250565b6000614db2600483614b6d565b9150614dbd82614d7c565b602082019050919050565b60006020820190508181036000830152614de181614da5565b9050919050565b60006040820190508181036000830152614e028185614b04565b9050614e1160208301846148b0565b9392505050565b7f2170726f6f667300000000000000000000000000000000000000000000000000600082015250565b6000614e4e600783614b6d565b9150614e5982614e18565b602082019050919050565b60006020820190508181036000830152614e7d81614e41565b9050919050565b7f4e487b7100000000000000000000000000000000000000000000000000000000600052603260045260246000fd5b600080fd5b600080fd5b600080fd5b60008235600161044003833603038112614edf57614ede614eb3565b5b80830191505092915050565b60008083356001602003843603038112614f0857614f07614eb3565b5b80840192508235915067ffffffffffffffff821115614f2a57614f29614eb8565b5b602083019250600182023603831315614f4657614f45614ebd565b5b509250929050565b600081905092915050565b6000614f658385614f4e565b9350614f72838584614527565b82840190509392505050565b6000614f8b828486614f59565b91508190509392505050565b7f21736861726564526f6f74000000000000000000000000000000000000000000600082015250565b6000614fcd600b83614b6d565b9150614fd882614f97565b602082019050919050565b60006020820190508181036000830152614ffc81614fc0565b9050919050565b7f616767726567617465526f6f7420216578697374730000000000000000000000600082015250565b6000615039601583614b6d565b915061504482615003565b602082019050919050565b600060208201905081810360008301526150688161502c565b9050919050565b615078816146e4565b811461508357600080fd5b50565b6000815190506150958161506f565b92915050565b6000602082840312156150b1576150b06143c9565b5b60006150bf84828501615086565b91505092915050565b7f2177617463686572000000000000000000000000000000000000000000000000600082015250565b60006150fe600883614b6d565b9150615109826150c8565b602082019050919050565b6000602082019050818103600083015261512d816150f1565b9050919050565b600061513f826143d3565b915061514a836143d3565b925082820390508181111561516257615161614bea565b5b92915050565b7f616c72656164792077617463686572206d616e61676572000000000000000000600082015250565b600061519e601783614b6d565b91506151a982615168565b602082019050919050565b600060208201905081810360008301526151cd81615191565b9050919050565b7f21616c6c6f776c69737465640000000000000000000000000000000000000000600082015250565b600061520a600c83614b6d565b9150615215826151d4565b602082019050919050565b60006020820190508181036000830152615239816151fd565b9050919050565b600061524b82614385565b915063ffffffff820361526157615260614bea565b5b600182019050919050565b60008151905061527b816143dd565b92915050565b60008060408385031215615298576152976143c9565b5b60006152a685828601614c4d565b92505060206152b78582860161526c565b9150509250929050565b60006080820190506152d660008301876148da565b6152e36020830186614436565b6152f060408301856148da565b81810360608301526153028184614b04565b905095945050505050565b7f5061757361626c653a2070617573656400000000000000000000000000000000600082015250565b6000615343601083614b6d565b915061534e8261530d565b602082019050919050565b6000602082019050818103600083015261537281615336565b9050919050565b7f2164617461206c656e6774680000000000000000000000000000000000000000600082015250565b60006153af600c83614b6d565b91506153ba82615379565b602082019050919050565b600060208201905081810360008301526153de816153a2565b9050919050565b600060208201905081810360008301526153ff8184614b04565b905092915050565b600060608201905061541c60008301866148b0565b818103602083015261542e8185614b04565b905061543d6040830184614395565b949350505050565b7f5061757361626c653a206e6f7420706175736564000000000000000000000000600082015250565b600061547b601483614b6d565b915061548682615445565b602082019050919050565b600060208201905081810360008301526154aa8161546e565b9050919050565b7f216d6972726f72436f6e6e6563746f7200000000000000000000000000000000600082015250565b60006154e7601083614b6d565b91506154f2826154b1565b602082019050919050565b60006020820190508181036000830152615516816154da565b9050919050565b7f216c656e67746800000000000000000000000000000000000000000000000000600082015250565b6000615553600783614b6d565b915061555e8261551d565b602082019050919050565b6000602082019050818103600083015261558281615546565b9050919050565b6000819050602082019050919050565b60006155a582516145ef565b80915050919050565b600082821b905092915050565b60006155c682614abe565b826155d084615589565b90506155db81615599565b9250602082101561561b576156167fffffffffffffffffffffffffffffffffffffffffffffffffffffffffffffffff836020036008026155ae565b831692505b5050919050565b7f5265656e7472616e637947756172643a207265656e7472616e742063616c6c00600082015250565b6000615658601f83614b6d565b915061566382615622565b602082019050919050565b600060208201905081810360008301526156878161564b565b9050919050565b7f214d6573736167655374617475732e4e6f6e6500000000000000000000000000600082015250565b60006156c4601383614b6d565b91506156cf8261568e565b602082019050919050565b600060208201905081810360008301526156f3816156b7565b9050919050565b7f696e76616c696420696e626f756e64526f6f7400000000000000000000000000600082015250565b6000615730601383614b6d565b915061573b826156fa565b602082019050919050565b6000602082019050818103600083015261575f81615723565b9050919050565b7f2164657374696e6174696f6e0000000000000000000000000000000000000000600082015250565b600061579c600c83614b6d565b91506157a782615766565b602082019050919050565b600060208201905081810360008301526157cb8161578f565b9050919050565b7f2170726f76656e00000000000000000000000000000000000000000000000000600082015250565b6000615808600783614b6d565b9150615813826157d2565b602082019050919050565b60006020820190508181036000830152615837816157fb565b9050919050565b7f2167617300000000000000000000000000000000000000000000000000000000600082015250565b6000615874600483614b6d565b915061587f8261583e565b602082019050919050565b600060208201905081810360008301526158a381615867565b9050919050565b60006080820190506158bf6000830187614395565b6158cc6020830186614395565b6158d960408301856148da565b81810360608301526158eb8184614b04565b905095945050505050565b600060608201905061590b60008301866148da565b61591860208301856146f0565b818103604083015261592a8184614b04565b9050949350505050565b600060408201905061594960008301856148b0565b61595660208301846148b0565b9392505050565b7f416464726573733a20696e73756666696369656e742062616c616e6365000000600082015250565b6000615993601d83614b6d565b915061599e8261595d565b602082019050919050565b600060208201905081810360008301526159c281615986565b9050919050565b50565b60006159d9600083614f4e565b91506159e4826159c9565b600082019050919050565b60006159fa826159cc565b9150819050919050565b7f416464726573733a20756e61626c6520746f2073656e642076616c75652c207260008201527f6563697069656e74206d61792068617665207265766572746564000000000000602082015250565b6000615a60603a83614b6d565b9150615a6b82615a04565b604082019050919050565b60006020820190508181036000830152615a8f81615a53565b9050919050565b6000604082019050615aab6000830185614436565b615ab86020830184614436565b9392505050565b7f216e65772072617465206c696d69740000000000000000000000000000000000600082015250565b6000615af5600f83614b6d565b9150615b0082615abf565b602082019050919050565b60006020820190508181036000830152615b2481615ae8565b9050919050565b6000604082019050615b4060008301856148b0565b615b4d6020830184614436565b9392505050565b60008160e01b9050919050565b6000615b6c82615b54565b9050919050565b615b84615b7f82614385565b615b61565b82525050565b6000615b9582614abe565b615b9f8185614f4e565b9350615baf818560208601614ada565b80840191505092915050565b6000615bc78289615b73565b600482019150615bd78288614d05565b602082019150615be78287615b73565b600482019150615bf78286615b73565b600482019150615c078285614d05565b602082019150615c178284615b8a565b9150819050979650505050505050565b600060208284031215615c3d57615c3c6143c9565b5b6000615c4b8482850161526c565b91505092915050565b7f6e657720726f6f7420656d707479000000000000000000000000000000000000600082015250565b6000615c8a600e83614b6d565b9150615c9582615c54565b602082019050919050565b60006020820190508181036000830152615cb981615c7d565b9050919050565b7f726f6f7420616c72656164792070656e64696e67000000000000000000000000600082015250565b6000615cf6601483614b6d565b9150615d0182615cc0565b602082019050919050565b60006020820190508181036000830152615d2581615ce9565b9050919050565b7f726f6f7420616c72656164792070726f76656e00000000000000000000000000600082015250565b6000615d62601383614b6d565b9150615d6d82615d2c565b602082019050919050565b60006020820190508181036000830152615d9181615d55565b9050919050565b7f616767726567617465526f6f7420656d70747900000000000000000000000000600082015250565b6000615dce601383614b6d565b9150615dd982615d98565b602082019050919050565b60006020820190508181036000830152615dfd81615dc1565b9050919050565b7f616767726567617465526f6f7420216578697374000000000000000000000000600082015250565b6000615e3a601483614b6d565b9150615e4582615e04565b602082019050919050565b60006020820190508181036000830152615e6981615e2d565b9050919050565b7f616767726567617465526f6f7420217665726966696564000000000000000000600082015250565b6000615ea6601783614b6d565b9150615eb182615e70565b602082019050919050565b60006020820190508181036000830152615ed581615e99565b9050919050565b7f2162726964676500000000000000000000000000000000000000000000000000600082015250565b6000615f12600783614b6d565b9150615f1d82615edc565b602082019050919050565b60006020820190508181036000830152615f4181615f05565b9050919050565b600081519050615f5781614857565b92915050565b600060208284031215615f7357615f726143c9565b5b6000615f8184828501615f48565b91505092915050565b600060ff82169050919050565b6000615fa282615f8a565b9150615fad83615f8a565b9250828203905060ff811115615fc657615fc5614bea565b5b92915050565b6000615fd782615f8a565b9150615fe283615f8a565b9250828202615ff081615f8a565b915080821461600257616001614bea565b5b5092915050565b60006bffffffffffffffffffffffff82169050919050565b600061603c61603761603284616009565b614904565b6143d3565b9050919050565b61604c81616021565b82525050565b60006080820190506160676000830187616043565b6160746020830186616043565b6160816040830185614436565b61608e6060830184614436565b95945050505050565b7f217472756e636174656400000000000000000000000000000000000000000000600082015250565b60006160cd600a83614b6d565b91506160d882616097565b602082019050919050565b600060208201905081810360008301526160fc816160c0565b905091905056fea26469706673582212203e84710e74723323d36e8650ae93f775af5f4da2383ad7ec914c2d34cbab948e64736f6c63430008110033",
  "linkReferences": {},
  "deployedLinkReferences": {}
}