{
  "_format": "hh-sol-artifact-1",
  "contractName": "OVM_SequencerFeeVault",
  "sourceName": "contracts/L2/predeploys/OVM_SequencerFeeVault.sol",
  "abi": [
    {
      "inputs": [
        {
          "internalType": "address",
          "name": "_l1FeeWallet",
          "type": "address"
        }
      ],
      "stateMutability": "nonpayable",
      "type": "constructor"
    },
    {
      "inputs": [],
      "name": "MIN_WITHDRAWAL_AMOUNT",
      "outputs": [
        {
          "internalType": "uint256",
          "name": "",
          "type": "uint256"
        }
      ],
      "stateMutability": "view",
      "type": "function"
    },
    {
      "inputs": [],
      "name": "l1FeeWallet",
      "outputs": [
        {
          "internalType": "address",
          "name": "",
          "type": "address"
        }
      ],
      "stateMutability": "view",
      "type": "function"
    },
    {
      "inputs": [],
      "name": "withdraw",
      "outputs": [],
      "stateMutability": "nonpayable",
      "type": "function"
    },
    {
      "stateMutability": "payable",
      "type": "receive"
    }
  ],
  "bytecode": "0x608060405234801561001057600080fd5b50604051610633380380610633833981810160405281019061003291906100db565b806000806101000a81548173ffffffffffffffffffffffffffffffffffffffff021916908373ffffffffffffffffffffffffffffffffffffffff16021790555050610108565b600080fd5b600073ffffffffffffffffffffffffffffffffffffffff82169050919050565b60006100a88261007d565b9050919050565b6100b88161009d565b81146100c357600080fd5b50565b6000815190506100d5816100af565b92915050565b6000602082840312156100f1576100f0610078565b5b60006100ff848285016100c6565b91505092915050565b61051c806101176000396000f3fe6080604052600436106100385760003560e01c80633ccfd60b14610044578063d3e5792b1461005b578063d4ff9218146100865761003f565b3661003f57005b600080fd5b34801561005057600080fd5b506100596100b1565b005b34801561006757600080fd5b506100706101c9565b60405161007d9190610212565b60405180910390f35b34801561009257600080fd5b5061009b6101d5565b6040516100a8919061026e565b60405180910390f35b67d02ab486cedc00004710156100fc576040517f08c379a00000000000000000000000000000000000000000000000000000000081526004016100f390610332565b60405180910390fd5b73420000000000000000000000000000000000001073ffffffffffffffffffffffffffffffffffffffff1663a3a7954873deaddeaddeaddeaddeaddeaddeaddeaddead000060008054906101000a900473ffffffffffffffffffffffffffffffffffffffff16476000604051806020016040528060008152506040518663ffffffff1660e01b815260040161019595949392919061048c565b600060405180830381600087803b1580156101af57600080fd5b505af11580156101c3573d6000803e3d6000fd5b50505050565b67d02ab486cedc000081565b60008054906101000a900473ffffffffffffffffffffffffffffffffffffffff1681565b6000819050919050565b61020c816101f9565b82525050565b60006020820190506102276000830184610203565b92915050565b600073ffffffffffffffffffffffffffffffffffffffff82169050919050565b60006102588261022d565b9050919050565b6102688161024d565b82525050565b6000602082019050610283600083018461025f565b92915050565b600082825260208201905092915050565b7f4f564d5f53657175656e6365724665655661756c743a2077697468647261776160008201527f6c20616d6f756e74206d7573742062652067726561746572207468616e206d6960208201527f6e696d756d207769746864726177616c20616d6f756e74000000000000000000604082015250565b600061031c605783610289565b91506103278261029a565b606082019050919050565b6000602082019050818103600083015261034b8161030f565b9050919050565b6000819050919050565b600061037761037261036d8461022d565b610352565b61022d565b9050919050565b60006103898261035c565b9050919050565b600061039b8261037e565b9050919050565b6103ab81610390565b82525050565b6000819050919050565b600063ffffffff82169050919050565b60006103e66103e16103dc846103b1565b610352565b6103bb565b9050919050565b6103f6816103cb565b82525050565b600081519050919050565b600082825260208201905092915050565b60005b8381101561043657808201518184015260208101905061041b565b60008484015250505050565b6000601f19601f8301169050919050565b600061045e826103fc565b6104688185610407565b9350610478818560208601610418565b61048181610442565b840191505092915050565b600060a0820190506104a160008301886103a2565b6104ae602083018761025f565b6104bb6040830186610203565b6104c860608301856103ed565b81810360808301526104da8184610453565b9050969550505050505056fea264697066735822122081630dd10a5179df592f91ff6060d3f24df942596faf85aab92ac80186d619c764736f6c63430008120033",
  "linkReferences": {},
  "deployedLinkReferences": {}
}