{"contracts/test/SimpleGatewayDstSpokeBrdige.sol":{"SimpleGatewayDstSpokeBrdige":{"abi":[{"inputs":[{"internalType":"address","name":"_hub","type":"address"},{"internalType":"uint256","name":"_transferPerBlock","type":"uint256"},{"internalType":"uint256","name":"_transFee","type":"uint256"}],"stateMutability":"nonpayable","type":"constructor"},{"anonymous":false,"inputs":[{"indexed":false,"internalType":"address","name":"relayer","type":"address"},{"indexed":false,"internalType":"uint256","name":"bidId","type":"uint256"}],"name":"BidBought","type":"event"},{"anonymous":false,"inputs":[{"indexed":false,"internalType":"address","name":"challenger","type":"address"},{"indexed":false,"internalType":"address","name":"relayer","type":"address"},{"indexed":false,"internalType":"uint256","name":"bidId","type":"uint256"}],"name":"BidChallenged","type":"event"},{"anonymous":false,"inputs":[],"name":"BidCreated","type":"event"},{"anonymous":false,"inputs":[{"indexed":false,"internalType":"address","name":"contractAddress","type":"address"},{"indexed":false,"internalType":"uint256","name":"bidId","type":"uint256"},{"indexed":false,"internalType":"uint256","name":"id","type":"uint256"},{"indexed":false,"internalType":"address","name":"owner","type":"address"}],"name":"NFTUnwrapped","type":"event"},{"anonymous":false,"inputs":[{"indexed":true,"internalType":"address","name":"previousOwner","type":"address"},{"indexed":true,"internalType":"address","name":"newOwner","type":"address"}],"name":"OwnershipTransferred","type":"event"},{"anonymous":false,"inputs":[],"name":"ProofSent","type":"event"},{"inputs":[],"name":"CHALLENGE_AMOUNT","outputs":[{"internalType":"uint256","name":"","type":"uint256"}],"stateMutability":"view","type":"function"},{"inputs":[],"name":"HUB","outputs":[{"internalType":"address","name":"","type":"address"}],"stateMutability":"view","type":"function"},{"inputs":[],"name":"STAKE_AMOUNT","outputs":[{"internalType":"uint256","name":"","type":"uint256"}],"stateMutability":"view","type":"function"},{"inputs":[],"name":"TIME_LIMIT_OF_UNDEPOSIT","outputs":[{"internalType":"uint256","name":"","type":"uint256"}],"stateMutability":"view","type":"function"},{"inputs":[],"name":"TRANS_FEE","outputs":[{"internalType":"uint256","name":"","type":"uint256"}],"stateMutability":"view","type":"function"},{"inputs":[],"name":"TRANS_PER_BLOCK","outputs":[{"internalType":"uint256","name":"","type":"uint256"}],"stateMutability":"view","type":"function"},{"inputs":[{"internalType":"bytes32","name":"_transactionRoot","type":"bytes32"}],"name":"addIncomingBlock","outputs":[],"stateMutability":"nonpayable","type":"function"},{"inputs":[{"internalType":"address","name":"_newReceiver","type":"address"},{"internalType":"uint256","name":"_incomingBlockId","type":"uint256"},{"components":[{"internalType":"uint256","name":"tokenId","type":"uint256"},{"internalType":"address","name":"maker","type":"address"},{"internalType":"address","name":"receiver","type":"address"},{"internalType":"address","name":"localErc721Contract","type":"address"},{"internalType":"address","name":"remoteErc721Contract","type":"address"}],"internalType":"struct LibLocalTransaction.LocalTransaction","name":"_transaction","type":"tuple"},{"internalType":"bytes32[]","name":"_proof","type":"bytes32[]"},{"internalType":"uint256","name":"_index","type":"uint256"}],"name":"addNewTransactionToBlock","outputs":[],"stateMutability":"nonpayable","type":"function"},{"inputs":[{"components":[{"internalType":"uint256","name":"tokenId","type":"uint256"},{"internalType":"address","name":"maker","type":"address"},{"internalType":"address","name":"receiver","type":"address"},{"internalType":"address","name":"localErc721Contract","type":"address"},{"internalType":"address","name":"remoteErc721Contract","type":"address"}],"internalType":"struct LibLocalTransaction.LocalTransaction[]","name":"_transactions","type":"tuple[]"}],"name":"calculateHashes","outputs":[],"stateMutability":"nonpayable","type":"function"},{"inputs":[{"internalType":"uint256","name":"blockId","type":"uint256"}],"name":"calculateTransactionHashes","outputs":[],"stateMutability":"nonpayable","type":"function"},{"inputs":[{"internalType":"uint256","name":"_height","type":"uint256"}],"name":"challengeIncomingBlock","outputs":[],"stateMutability":"payable","type":"function"},{"inputs":[{"internalType":"uint256","name":"","type":"uint256"}],"name":"challengedIncomingBlocks","outputs":[{"internalType":"address","name":"challenger","type":"address"},{"internalType":"enum SpokeBridge.ChallengeStatus","name":"status","type":"uint8"}],"stateMutability":"view","type":"function"},{"inputs":[],"name":"claimChallengeReward","outputs":[],"stateMutability":"nonpayable","type":"function"},{"inputs":[],"name":"claimDeposite","outputs":[],"stateMutability":"nonpayable","type":"function"},{"inputs":[{"internalType":"uint256","name":"_incomingBlockId","type":"uint256"},{"components":[{"internalType":"uint256","name":"tokenId","type":"uint256"},{"internalType":"address","name":"maker","type":"address"},{"internalType":"address","name":"receiver","type":"address"},{"internalType":"address","name":"localErc721Contract","type":"address"},{"internalType":"address","name":"remoteErc721Contract","type":"address"}],"internalType":"struct LibLocalTransaction.LocalTransaction","name":"_transaction","type":"tuple"},{"internalType":"bytes32[]","name":"_proof","type":"bytes32[]"},{"internalType":"uint256","name":"_index","type":"uint256"}],"name":"claimNFT","outputs":[],"stateMutability":"payable","type":"function"},{"inputs":[],"name":"deposite","outputs":[],"stateMutability":"payable","type":"function"},{"inputs":[],"name":"firstMaliciousBlockHeight","outputs":[{"internalType":"uint256","name":"","type":"uint256"}],"stateMutability":"view","type":"function"},{"inputs":[{"internalType":"uint256","name":"_blockNum","type":"uint256"},{"internalType":"uint256","name":"_txIdx","type":"uint256"}],"name":"getLocalTransaction","outputs":[{"components":[{"internalType":"uint256","name":"tokenId","type":"uint256"},{"internalType":"address","name":"maker","type":"address"},{"internalType":"address","name":"receiver","type":"address"},{"internalType":"address","name":"localErc721Contract","type":"address"},{"internalType":"address","name":"remoteErc721Contract","type":"address"}],"internalType":"struct LibLocalTransaction.LocalTransaction","name":"","type":"tuple"}],"stateMutability":"view","type":"function"},{"inputs":[],"name":"getRoot","outputs":[{"internalType":"bytes32","name":"","type":"bytes32"}],"stateMutability":"view","type":"function"},{"inputs":[{"internalType":"uint256","name":"","type":"uint256"}],"name":"hashes","outputs":[{"internalType":"bytes32","name":"","type":"bytes32"}],"stateMutability":"view","type":"function"},{"inputs":[{"internalType":"uint256","name":"","type":"uint256"}],"name":"incomingBlocks","outputs":[{"internalType":"bytes32","name":"transactionRoot","type":"bytes32"},{"internalType":"uint256","name":"timestampOfIncoming","type":"uint256"},{"internalType":"enum SpokeBridge.IncomingBlockStatus","name":"status","type":"uint8"},{"internalType":"address","name":"relayer","type":"address"}],"stateMutability":"view","type":"function"},{"inputs":[{"internalType":"address","name":"","type":"address"}],"name":"incomingChallengeRewards","outputs":[{"internalType":"uint256","name":"amount","type":"uint256"},{"internalType":"bool","name":"isClaimed","type":"bool"}],"stateMutability":"view","type":"function"},{"inputs":[],"name":"localBlockId","outputs":[{"internalType":"uint256","name":"_value","type":"uint256"}],"stateMutability":"view","type":"function"},{"inputs":[],"name":"numberOfChallenges","outputs":[{"internalType":"uint256","name":"_value","type":"uint256"}],"stateMutability":"view","type":"function"},{"inputs":[{"internalType":"address","name":"","type":"address"},{"internalType":"address","name":"","type":"address"},{"internalType":"uint256","name":"","type":"uint256"},{"internalType":"bytes","name":"","type":"bytes"}],"name":"onERC721Received","outputs":[{"internalType":"bytes4","name":"","type":"bytes4"}],"stateMutability":"nonpayable","type":"function"},{"inputs":[],"name":"owner","outputs":[{"internalType":"address","name":"","type":"address"}],"stateMutability":"view","type":"function"},{"inputs":[{"internalType":"bytes","name":"_root","type":"bytes"}],"name":"receiveProof","outputs":[],"stateMutability":"nonpayable","type":"function"},{"inputs":[{"internalType":"address","name":"","type":"address"}],"name":"relayers","outputs":[{"internalType":"enum SpokeBridge.RelayerStatus","name":"status","type":"uint8"},{"internalType":"uint256","name":"dateOfUndeposited","type":"uint256"},{"internalType":"uint256","name":"stakedAmount","type":"uint256"},{"components":[{"internalType":"uint256","name":"_value","type":"uint256"}],"internalType":"struct Counters.Counter","name":"againstChallenges","type":"tuple"}],"stateMutability":"view","type":"function"},{"inputs":[],"name":"renounceOwnership","outputs":[],"stateMutability":"nonpayable","type":"function"},{"inputs":[],"name":"restore","outputs":[],"stateMutability":"nonpayable","type":"function"},{"inputs":[{"internalType":"uint256","name":"_height","type":"uint256"}],"name":"sendProof","outputs":[],"stateMutability":"nonpayable","type":"function"},{"inputs":[],"name":"status","outputs":[{"internalType":"enum SpokeBridge.BridgeStatus","name":"","type":"uint8"}],"stateMutability":"view","type":"function"},{"inputs":[{"internalType":"address","name":"newOwner","type":"address"}],"name":"transferOwnership","outputs":[],"stateMutability":"nonpayable","type":"function"},{"inputs":[],"name":"undeposite","outputs":[],"stateMutability":"nonpayable","type":"function"}],"evm":{"bytecode":{"linkReferences":{},"object":"6101406040523480156200001257600080fd5b506040516200649538038062006495833981810160405281019062000038919062000250565b8282828282826200005e62000052620000df60201b60201c565b620000e760201b60201c565b8273ffffffffffffffffffffffffffffffffffffffff166101208173ffffffffffffffffffffffffffffffffffffffff16815250506801158e460913d0000060808181525050678ac7230489e8000060a081815250506202a30060c081815250508160e08181525050806101008181525050505050505050505050620002ac565b600033905090565b60008060009054906101000a900473ffffffffffffffffffffffffffffffffffffffff169050816000806101000a81548173ffffffffffffffffffffffffffffffffffffffff021916908373ffffffffffffffffffffffffffffffffffffffff1602179055508173ffffffffffffffffffffffffffffffffffffffff168173ffffffffffffffffffffffffffffffffffffffff167f8be0079c531659141344cd1fd0a4f28419497f9722a3daafe3b4186f6b6457e060405160405180910390a35050565b600080fd5b600073ffffffffffffffffffffffffffffffffffffffff82169050919050565b6000620001dd82620001b0565b9050919050565b620001ef81620001d0565b8114620001fb57600080fd5b50565b6000815190506200020f81620001e4565b92915050565b6000819050919050565b6200022a8162000215565b81146200023657600080fd5b50565b6000815190506200024a816200021f565b92915050565b6000806000606084860312156200026c576200026b620001ab565b5b60006200027c86828701620001fe565b93505060206200028f8682870162000239565b9250506040620002a28682870162000239565b9150509250925092565b60805160a05160c05160e051610100516101205161614c6200034960003960008181610a3701528181612afa0152613bb80152600081816115c70152818161184201526120c90152600081816114350152612557015260008181611a9201526126fa01526000818161114d0152818161318501526138b9015260008181611122015281816127d001528181612c5101526138dd015261614c6000f3fe6080604052600436106101f95760003560e01c80636ae90c7d1161010d578063ae110875116100a0578063db77f2b91161006f578063db77f2b9146106c5578063f2fde38b146106e1578063f80f6cd21461070a578063f8840cf714610733578063faf5625f1461075e576101f9565b8063ae1108751461061b578063b24c49fa14610646578063b8b7f51414610683578063be7226ad146106ae576101f9565b80638da5cb5b116100dc5780638da5cb5b1461057d578063a4c52b86146105a8578063a50ec326146105d3578063a6762f40146105dd576101f9565b80636ae90c7d146104fd578063715018a6146105265780637be6f7a71461053d57806387cf416e14610554576101f9565b80633d95d1ed116101905780635300f8411161015f5780635300f8411461042757806359cbe82c146104675780635b9eb5c31461047e5780635ca1e165146104a75780636a89c63a146104d2576101f9565b80633d95d1ed14610378578063440de89c14610394578063501895ae146103bf578063529e720a146103fc576101f9565b806324bd801b116101cc57806324bd801b146102cf5780632fda332e146102f8578063342652371461030f57806335cc073b1461033a576101f9565b8063012cf18c146101fe578063150b7a02146102275780631efa009e14610264578063200d2ed2146102a4575b600080fd5b34801561020a57600080fd5b5061022560048036038101906102209190614138565b610789565b005b34801561023357600080fd5b5061024e60048036038101906102499190614309565b6109b1565b60405161025b91906143c7565b60405180910390f35b34801561027057600080fd5b5061028b60048036038101906102869190614138565b6109c5565b60405161029b9493929190614490565b60405180910390f35b3480156102b057600080fd5b506102b9610a22565b6040516102c6919061451d565b60405180910390f35b3480156102db57600080fd5b506102f660048036038101906102f19190614538565b610a35565b005b34801561030457600080fd5b5061030d6112b9565b005b34801561031b57600080fd5b50610324611433565b6040516103319190614581565b60405180910390f35b34801561034657600080fd5b50610361600480360381019061035c919061459c565b611457565b60405161036f9291906145e4565b60405180910390f35b610392600480360381019061038d9190614691565b611488565b005b3480156103a057600080fd5b506103a9611a66565b6040516103b69190614581565b60405180910390f35b3480156103cb57600080fd5b506103e660048036038101906103e19190614138565b611a6c565b6040516103f3919061471a565b60405180910390f35b34801561040857600080fd5b50610411611a90565b60405161041e9190614581565b60405180910390f35b34801561043357600080fd5b5061044e6004803603810190610449919061459c565b611ab4565b60405161045e94939291906147a8565b60405180910390f35b34801561047357600080fd5b5061047c611b05565b005b34801561048a57600080fd5b506104a560048036038101906104a09190614819565b611e4e565b005b3480156104b357600080fd5b506104bc612090565b6040516104c9919061471a565b60405180910390f35b3480156104de57600080fd5b506104e76120c7565b6040516104f49190614581565b60405180910390f35b34801561050957600080fd5b50610524600480360381019061051f9190614846565b6120eb565b005b34801561053257600080fd5b5061053b6125b1565b005b34801561054957600080fd5b506105526125c5565b005b34801561056057600080fd5b5061057b60048036038101906105769190614138565b6128f6565b005b34801561058957600080fd5b50610592612acf565b60405161059f91906148e2565b60405180910390f35b3480156105b457600080fd5b506105bd612af8565b6040516105ca91906148e2565b60405180910390f35b6105db612b1c565b005b3480156105e957600080fd5b5061060460048036038101906105ff9190614138565b612d72565b604051610612929190614945565b60405180910390f35b34801561062757600080fd5b50610630612dc3565b60405161063d9190614581565b60405180910390f35b34801561065257600080fd5b5061066d6004803603810190610668919061496e565b612dcf565b60405161067a9190614a25565b60405180910390f35b34801561068f57600080fd5b50610698612f82565b6040516106a59190614581565b60405180910390f35b3480156106ba57600080fd5b506106c3612f8e565b005b6106df60048036038101906106da9190614138565b613183565b005b3480156106ed57600080fd5b506107086004803603810190610703919061459c565b613606565b005b34801561071657600080fd5b50610731600480360381019061072c9190614b94565b613689565b005b34801561073f57600080fd5b506107486138b7565b6040516107559190614581565b60405180910390f35b34801561076a57600080fd5b506107736138db565b6040516107809190614581565b60405180910390f35b600061079560036138ff565b82106109765761097160026000848152602001908152602001600020600001805480602002602001604051908101604052809291908181526020016000905b8282101561096857838290600052602060002090600502016040518060a0016040529081600082015481526020016001820160009054906101000a900473ffffffffffffffffffffffffffffffffffffffff1673ffffffffffffffffffffffffffffffffffffffff1673ffffffffffffffffffffffffffffffffffffffff1681526020016002820160009054906101000a900473ffffffffffffffffffffffffffffffffffffffff1673ffffffffffffffffffffffffffffffffffffffff1673ffffffffffffffffffffffffffffffffffffffff1681526020016003820160009054906101000a900473ffffffffffffffffffffffffffffffffffffffff1673ffffffffffffffffffffffffffffffffffffffff1673ffffffffffffffffffffffffffffffffffffffff1681526020016004820160009054906101000a900473ffffffffffffffffffffffffffffffffffffffff1673ffffffffffffffffffffffffffffffffffffffff1673ffffffffffffffffffffffffffffffffffffffff1681525050815260200190600101906107d4565b5050505061390d565b61097b565b6000801b5b905060008282604051602001610992929190614bdd565b60405160208183030381529060405290506109ac81613bb6565b505050565b600063150b7a0260e01b9050949350505050565b60046020528060005260406000206000915090508060000154908060010154908060020160009054906101000a900460ff16908060020160019054906101000a900473ffffffffffffffffffffffffffffffffffffffff16905084565b600060149054906101000a900460ff1681565b7f000000000000000000000000000000000000000000000000000000000000000073ffffffffffffffffffffffffffffffffffffffff16610a74613c44565b73ffffffffffffffffffffffffffffffffffffffff1614610aca576040517f08c379a0000000000000000000000000000000000000000000000000000000008152600401610ac190614c89565b60405180910390fd5b60006002811115610ade57610add61440a565b5b600060149054906101000a900460ff166002811115610b0057610aff61440a565b5b03610b40576040517f08c379a0000000000000000000000000000000000000000000000000000000008152600401610b3790614d1b565b60405180910390fd5b60008082806020019051810190610b579190614d8c565b915091506000600460008463ffffffff168152602001908152602001600020905060026003811115610b8c57610b8b61440a565b5b8160020160009054906101000a900460ff166003811115610bb057610baf61440a565b5b14610bf0576040517f08c379a0000000000000000000000000000000000000000000000000000000008152600401610be790614e3e565b60405180910390fd5b81816000015403610f0e5760018160020160006101000a81548160ff02191690836003811115610c2357610c2261440a565b5b0217905550610c96600160008360020160019054906101000a900473ffffffffffffffffffffffffffffffffffffffff1673ffffffffffffffffffffffffffffffffffffffff1673ffffffffffffffffffffffffffffffffffffffff168152602001908152602001600020600301613c53565b6000610d06600160008460020160019054906101000a900473ffffffffffffffffffffffffffffffffffffffff1673ffffffffffffffffffffffffffffffffffffffff1673ffffffffffffffffffffffffffffffffffffffff1681526020019081526020016000206003016138ff565b148015610daa575060036004811115610d2257610d2161440a565b5b600160008360020160019054906101000a900473ffffffffffffffffffffffffffffffffffffffff1673ffffffffffffffffffffffffffffffffffffffff1673ffffffffffffffffffffffffffffffffffffffff16815260200190815260200160002060000160009054906101000a900460ff166004811115610da857610da761440a565b5b145b15610e3e5760018060008360020160019054906101000a900473ffffffffffffffffffffffffffffffffffffffff1673ffffffffffffffffffffffffffffffffffffffff1673ffffffffffffffffffffffffffffffffffffffff16815260200190815260200160002060000160006101000a81548160ff02191690836004811115610e3857610e3761440a565b5b02179055505b6000600660008563ffffffff16815260200190815260200160002060000160146101000a81548160ff02191690836003811115610e7e57610e7d61440a565b5b0217905550610e8d6008613c53565b6000610e9960086138ff565b148015610ed9575060016002811115610eb557610eb461440a565b5b600060149054906101000a900460ff166002811115610ed757610ed661440a565b5b145b15610f095760008060146101000a81548160ff02191690836002811115610f0357610f0261440a565b5b02179055505b6112b3565b60038160020160006101000a81548160ff02191690836003811115610f3657610f3561440a565b5b0217905550610fa9600160008360020160019054906101000a900473ffffffffffffffffffffffffffffffffffffffff1673ffffffffffffffffffffffffffffffffffffffff1673ffffffffffffffffffffffffffffffffffffffff168152602001908152602001600020600301613c53565b6004600160008360020160019054906101000a900473ffffffffffffffffffffffffffffffffffffffff1673ffffffffffffffffffffffffffffffffffffffff1673ffffffffffffffffffffffffffffffffffffffff16815260200190815260200160002060000160006101000a81548160ff021916908360048111156110335761103261440a565b5b02179055506001600281111561104c5761104b61440a565b5b600060149054906101000a900460ff16600281111561106e5761106d61440a565b5b148061108157508263ffffffff16600954115b15611094578263ffffffff166009819055505b61109e6008613c53565b6002600060146101000a81548160ff021916908360028111156110c4576110c361440a565b5b0217905550600160038111156110dd576110dc61440a565b5b600660008563ffffffff16815260200190815260200160002060000160149054906101000a900460ff1660038111156111195761111861440a565b5b0361126d5760047f000000000000000000000000000000000000000000000000000000000000000061114b9190614ebc565b7f00000000000000000000000000000000000000000000000000000000000000006111769190614eed565b60076000600660008763ffffffff16815260200190815260200160002060000160009054906101000a900473ffffffffffffffffffffffffffffffffffffffff1673ffffffffffffffffffffffffffffffffffffffff1673ffffffffffffffffffffffffffffffffffffffff16815260200190815260200160002060000160008282546112039190614eed565b92505081905550600060076000611218613caf565b73ffffffffffffffffffffffffffffffffffffffff1673ffffffffffffffffffffffffffffffffffffffff16815260200190815260200160002060010160006101000a81548160ff0219169083151502179055505b6002600660008563ffffffff16815260200190815260200160002060000160146101000a81548160ff021916908360038111156112ad576112ac61440a565b5b02179055505b50505050565b6002808111156112cc576112cb61440a565b5b600060149054906101000a900460ff1660028111156112ee576112ed61440a565b5b1461132e576040517f08c379a000000000000000000000000000000000000000000000000000000000815260040161132590614f93565b60405180910390fd5b60008060146101000a81548160ff021916908360028111156113535761135261440a565b5b0217905550600060095490505b6005548110156113fb5760006004600083815260200190815260200160002060020160006101000a81548160ff021916908360038111156113a4576113a361440a565b5b021790555060006006600083815260200190815260200160002060000160146101000a81548160ff021916908360038111156113e3576113e261440a565b5b021790555080806113f390614fb3565b915050611360565b506000600954146114205760016009546114159190614ffb565b600581905550611429565b60006005819055505b6000600981905550565b7f000000000000000000000000000000000000000000000000000000000000000081565b60076020528060005260406000206000915090508060000154908060010160009054906101000a900460ff16905082565b6000600281111561149c5761149b61440a565b5b600060149054906101000a900460ff1660028111156114be576114bd61440a565b5b146114fe576040517f08c379a00000000000000000000000000000000000000000000000000000000081526004016114f5906150a1565b60405180910390fd5b60006004600087815260200190815260200160002060405180608001604052908160008201548152602001600182015481526020016002820160009054906101000a900460ff1660038111156115575761155661440a565b5b60038111156115695761156861440a565b5b81526020016002820160019054906101000a900473ffffffffffffffffffffffffffffffffffffffff1673ffffffffffffffffffffffffffffffffffffffff1673ffffffffffffffffffffffffffffffffffffffff168152505090507f00000000000000000000000000000000000000000000000000000000000000003414611627576040517f08c379a000000000000000000000000000000000000000000000000000000000815260040161161e90615133565b60405180910390fd5b6001600381111561163b5761163a61440a565b5b816040015160038111156116525761165161440a565b5b14611692576040517f08c379a0000000000000000000000000000000000000000000000000000000008152600401611689906151c5565b60405180910390fd5b600160048111156116a6576116a561440a565b5b60016000836060015173ffffffffffffffffffffffffffffffffffffffff1673ffffffffffffffffffffffffffffffffffffffff16815260200190815260200160002060000160009054906101000a900460ff16600481111561170c5761170b61440a565b5b1461174c576040517f08c379a000000000000000000000000000000000000000000000000000000000815260040161174390615257565b60405180910390fd5b61175d848483600001518886613cb7565b61179c576040517f08c379a0000000000000000000000000000000000000000000000000000000008152600401611793906152e9565b60405180910390fd5b6117a4613caf565b73ffffffffffffffffffffffffffffffffffffffff168560400160208101906117cd919061459c565b73ffffffffffffffffffffffffffffffffffffffff1614611823576040517f08c379a000000000000000000000000000000000000000000000000000000000815260040161181a9061537b565b60405180910390fd5b6000816060015173ffffffffffffffffffffffffffffffffffffffff167f000000000000000000000000000000000000000000000000000000000000000060405161186d906153cc565b60006040518083038185875af1925050503d80600081146118aa576040519150601f19603f3d011682016040523d82523d6000602084013e6118af565b606091505b50509050806118f3576040517f08c379a00000000000000000000000000000000000000000000000000000000081526004016118ea9061542d565b60405180910390fd5b600073ffffffffffffffffffffffffffffffffffffffff1661192b876080016020810190611921919061459c565b8860000135613e06565b73ffffffffffffffffffffffffffffffffffffffff16146119c857856080016020810190611959919061459c565b73ffffffffffffffffffffffffffffffffffffffff166342966c6887600001356040518263ffffffff1660e01b81526004016119959190614581565b600060405180830381600087803b1580156119af57600080fd5b505af11580156119c3573d6000803e3d6000fd5b505050505b8560800160208101906119db919061459c565b73ffffffffffffffffffffffffffffffffffffffff166340c10f19876040016020810190611a09919061459c565b88600001356040518363ffffffff1660e01b8152600401611a2b92919061544d565b600060405180830381600087803b158015611a4557600080fd5b505af1158015611a59573d6000803e3d6000fd5b5050505050505050505050565b60095481565b600a8181548110611a7c57600080fd5b906000526020600020016000915090505481565b7f000000000000000000000000000000000000000000000000000000000000000081565b60016020528060005260406000206000915090508060000160009054906101000a900460ff169080600101549080600201549080600301604051806020016040529081600082015481525050905084565b60006002811115611b1957611b1861440a565b5b600060149054906101000a900460ff166002811115611b3b57611b3a61440a565b5b14611b7b576040517f08c379a0000000000000000000000000000000000000000000000000000000008152600401611b72906150a1565b60405180910390fd5b600060076000611b89613caf565b73ffffffffffffffffffffffffffffffffffffffff1673ffffffffffffffffffffffffffffffffffffffff1681526020019081526020016000206000015403611c07576040517f08c379a0000000000000000000000000000000000000000000000000000000008152600401611bfe906154c2565b60405180910390fd5b60076000611c13613caf565b73ffffffffffffffffffffffffffffffffffffffff1673ffffffffffffffffffffffffffffffffffffffff16815260200190815260200160002060010160009054906101000a900460ff1615611c9e576040517f08c379a0000000000000000000000000000000000000000000000000000000008152600401611c9590615554565b60405180910390fd5b600160076000611cac613caf565b73ffffffffffffffffffffffffffffffffffffffff1673ffffffffffffffffffffffffffffffffffffffff16815260200190815260200160002060010160006101000a81548160ff0219169083151502179055506000611d0a613caf565b73ffffffffffffffffffffffffffffffffffffffff1660076000611d2c613caf565b73ffffffffffffffffffffffffffffffffffffffff1673ffffffffffffffffffffffffffffffffffffffff16815260200190815260200160002060000154604051611d76906153cc565b60006040518083038185875af1925050503d8060008114611db3576040519150601f19603f3d011682016040523d82523d6000602084013e611db8565b606091505b5050905080611dfc576040517f08c379a0000000000000000000000000000000000000000000000000000000008152600401611df39061542d565b60405180910390fd5b600060076000611e0a613caf565b73ffffffffffffffffffffffffffffffffffffffff1673ffffffffffffffffffffffffffffffffffffffff1681526020019081526020016000206000018190555050565b60006002811115611e6257611e6161440a565b5b600060149054906101000a900460ff166002811115611e8457611e8361440a565b5b14611ec4576040517f08c379a0000000000000000000000000000000000000000000000000000000008152600401611ebb906150a1565b60405180910390fd5b60016000611ed0613caf565b73ffffffffffffffffffffffffffffffffffffffff1673ffffffffffffffffffffffffffffffffffffffff16815260200190815260200160002060000160009054906101000a900460ff166004811115611f2d57611f2c61440a565b5b60016004811115611f4157611f4061440a565b5b14611f81576040517f08c379a0000000000000000000000000000000000000000000000000000000008152600401611f78906155e6565b60405180910390fd5b604051806080016040528082815260200142815260200160016003811115611fac57611fab61440a565b5b8152602001611fb9613caf565b73ffffffffffffffffffffffffffffffffffffffff16815250600460006005548152602001908152602001600020600082015181600001556020820151816001015560408201518160020160006101000a81548160ff021916908360038111156120265761202561440a565b5b021790555060608201518160020160016101000a81548173ffffffffffffffffffffffffffffffffffffffff021916908373ffffffffffffffffffffffffffffffffffffffff1602179055509050506005600081548092919061208890614fb3565b919050555050565b6000600a6001600a805490506120a69190614ffb565b815481106120b7576120b6615606565b5b9060005260206000200154905090565b7f000000000000000000000000000000000000000000000000000000000000000081565b61210e838360046000898152602001908152602001600020600001548785613cb7565b61214d576040517f08c379a0000000000000000000000000000000000000000000000000000000008152600401612144906156a7565b60405180910390fd5b612155613caf565b73ffffffffffffffffffffffffffffffffffffffff1684608001602081019061217e919061459c565b73ffffffffffffffffffffffffffffffffffffffff16636352211e86600001356040518263ffffffff1660e01b81526004016121ba9190614581565b602060405180830381865afa1580156121d7573d6000803e3d6000fd5b505050506040513d601f19601f820116820180604052508101906121fb91906156dc565b73ffffffffffffffffffffffffffffffffffffffff1614612251576040517f08c379a00000000000000000000000000000000000000000000000000000000081526004016122489061577b565b60405180910390fd5b4261384060046000888152602001908152602001600020600101546122769190614eed565b106122b6576040517f08c379a00000000000000000000000000000000000000000000000000000000081526004016122ad9061580d565b60405180910390fd5b8360800160208101906122c9919061459c565b73ffffffffffffffffffffffffffffffffffffffff166342966c6885600001356040518263ffffffff1660e01b81526004016123059190614581565b600060405180830381600087803b15801561231f57600080fd5b505af1158015612333573d6000803e3d6000fd5b505050506002600061234560036138ff565b81526020019081526020016000206000016040518060a0016040528086600001358152602001612373613caf565b73ffffffffffffffffffffffffffffffffffffffff1681526020018873ffffffffffffffffffffffffffffffffffffffff1681526020018660600160208101906123bd919061459c565b73ffffffffffffffffffffffffffffffffffffffff1681526020018660800160208101906123eb919061459c565b73ffffffffffffffffffffffffffffffffffffffff1681525090806001815401808255809150506001900390600052602060002090600502016000909190919091506000820151816000015560208201518160010160006101000a81548173ffffffffffffffffffffffffffffffffffffffff021916908373ffffffffffffffffffffffffffffffffffffffff16021790555060408201518160020160006101000a81548173ffffffffffffffffffffffffffffffffffffffff021916908373ffffffffffffffffffffffffffffffffffffffff16021790555060608201518160030160006101000a81548173ffffffffffffffffffffffffffffffffffffffff021916908373ffffffffffffffffffffffffffffffffffffffff16021790555060808201518160040160006101000a81548173ffffffffffffffffffffffffffffffffffffffff021916908373ffffffffffffffffffffffffffffffffffffffff16021790555050507f00000000000000000000000000000000000000000000000000000000000000006002600061258460036138ff565b815260200190815260200160002060000180549050036125a9576125a86003613ed1565b5b505050505050565b6125b9613ee7565b6125c36000613f65565b565b600060028111156125d9576125d861440a565b5b600060149054906101000a900460ff1660028111156125fb576125fa61440a565b5b1461263b576040517f08c379a0000000000000000000000000000000000000000000000000000000008152600401612632906150a1565b60405180910390fd5b60016000612647613caf565b73ffffffffffffffffffffffffffffffffffffffff1673ffffffffffffffffffffffffffffffffffffffff16815260200190815260200160002060000160009054906101000a900460ff1660048111156126a4576126a361440a565b5b600260048111156126b8576126b761440a565b5b146126f8576040517f08c379a00000000000000000000000000000000000000000000000000000000081526004016126ef9061589f565b60405180910390fd5b7f000000000000000000000000000000000000000000000000000000000000000060016000612725613caf565b73ffffffffffffffffffffffffffffffffffffffff1673ffffffffffffffffffffffffffffffffffffffff1681526020019081526020016000206001015461276d9190614eed565b42116127ae576040517f08c379a00000000000000000000000000000000000000000000000000000000081526004016127a590615931565b60405180910390fd5b60006127b8613caf565b73ffffffffffffffffffffffffffffffffffffffff167f00000000000000000000000000000000000000000000000000000000000000006040516127fb906153cc565b60006040518083038185875af1925050503d8060008114612838576040519150601f19603f3d011682016040523d82523d6000602084013e61283d565b606091505b5050905080612881576040517f08c379a00000000000000000000000000000000000000000000000000000000081526004016128789061542d565b60405180910390fd5b60006001600061288f613caf565b73ffffffffffffffffffffffffffffffffffffffff1673ffffffffffffffffffffffffffffffffffffffff16815260200190815260200160002060000160006101000a81548160ff021916908360048111156128ee576128ed61440a565b5b021790555050565b612acc60026000838152602001908152602001600020600001805480602002602001604051908101604052809291908181526020016000905b82821015612ac357838290600052602060002090600502016040518060a0016040529081600082015481526020016001820160009054906101000a900473ffffffffffffffffffffffffffffffffffffffff1673ffffffffffffffffffffffffffffffffffffffff1673ffffffffffffffffffffffffffffffffffffffff1681526020016002820160009054906101000a900473ffffffffffffffffffffffffffffffffffffffff1673ffffffffffffffffffffffffffffffffffffffff1673ffffffffffffffffffffffffffffffffffffffff1681526020016003820160009054906101000a900473ffffffffffffffffffffffffffffffffffffffff1673ffffffffffffffffffffffffffffffffffffffff1673ffffffffffffffffffffffffffffffffffffffff1681526020016004820160009054906101000a900473ffffffffffffffffffffffffffffffffffffffff1673ffffffffffffffffffffffffffffffffffffffff1673ffffffffffffffffffffffffffffffffffffffff16815250508152602001906001019061292f565b50505050613689565b50565b60008060009054906101000a900473ffffffffffffffffffffffffffffffffffffffff16905090565b7f000000000000000000000000000000000000000000000000000000000000000081565b60006002811115612b3057612b2f61440a565b5b600060149054906101000a900460ff166002811115612b5257612b5161440a565b5b14612b92576040517f08c379a0000000000000000000000000000000000000000000000000000000008152600401612b89906150a1565b60405180910390fd5b60016000612b9e613caf565b73ffffffffffffffffffffffffffffffffffffffff1673ffffffffffffffffffffffffffffffffffffffff16815260200190815260200160002060000160009054906101000a900460ff166004811115612bfb57612bfa61440a565b5b60006004811115612c0f57612c0e61440a565b5b14612c4f576040517f08c379a0000000000000000000000000000000000000000000000000000000008152600401612c46906159c3565b60405180910390fd5b7f00000000000000000000000000000000000000000000000000000000000000003414612cb1576040517f08c379a0000000000000000000000000000000000000000000000000000000008152600401612ca890615a55565b60405180910390fd5b6001806000612cbe613caf565b73ffffffffffffffffffffffffffffffffffffffff1673ffffffffffffffffffffffffffffffffffffffff16815260200190815260200160002060000160006101000a81548160ff02191690836004811115612d1d57612d1c61440a565b5b02179055503460016000612d2f613caf565b73ffffffffffffffffffffffffffffffffffffffff1673ffffffffffffffffffffffffffffffffffffffff16815260200190815260200160002060020181905550565b60066020528060005260406000206000915090508060000160009054906101000a900473ffffffffffffffffffffffffffffffffffffffff16908060000160149054906101000a900460ff16905082565b60088060000154905081565b612dd7614029565b600260008481526020019081526020016000206000018281548110612dff57612dfe615606565b5b90600052602060002090600502016040518060a0016040529081600082015481526020016001820160009054906101000a900473ffffffffffffffffffffffffffffffffffffffff1673ffffffffffffffffffffffffffffffffffffffff1673ffffffffffffffffffffffffffffffffffffffff1681526020016002820160009054906101000a900473ffffffffffffffffffffffffffffffffffffffff1673ffffffffffffffffffffffffffffffffffffffff1673ffffffffffffffffffffffffffffffffffffffff1681526020016003820160009054906101000a900473ffffffffffffffffffffffffffffffffffffffff1673ffffffffffffffffffffffffffffffffffffffff1673ffffffffffffffffffffffffffffffffffffffff1681526020016004820160009054906101000a900473ffffffffffffffffffffffffffffffffffffffff1673ffffffffffffffffffffffffffffffffffffffff1673ffffffffffffffffffffffffffffffffffffffff1681525050905092915050565b60038060000154905081565b60006002811115612fa257612fa161440a565b5b600060149054906101000a900460ff166002811115612fc457612fc361440a565b5b14613004576040517f08c379a0000000000000000000000000000000000000000000000000000000008152600401612ffb906150a1565b60405180910390fd5b60016000613010613caf565b73ffffffffffffffffffffffffffffffffffffffff1673ffffffffffffffffffffffffffffffffffffffff16815260200190815260200160002060000160009054906101000a900460ff16600481111561306d5761306c61440a565b5b600160048111156130815761308061440a565b5b146130c1576040517f08c379a00000000000000000000000000000000000000000000000000000000081526004016130b8906155e6565b60405180910390fd5b6002600160006130cf613caf565b73ffffffffffffffffffffffffffffffffffffffff1673ffffffffffffffffffffffffffffffffffffffff16815260200190815260200160002060000160006101000a81548160ff0219169083600481111561312e5761312d61440a565b5b02179055504260016000613140613caf565b73ffffffffffffffffffffffffffffffffffffffff1673ffffffffffffffffffffffffffffffffffffffff16815260200190815260200160002060010181905550565b7f000000000000000000000000000000000000000000000000000000000000000034146131e5576040517f08c379a00000000000000000000000000000000000000000000000000000000081526004016131dc90615ae7565b60405180910390fd5b600160038111156131f9576131f861440a565b5b6004600083815260200190815260200160002060020160009054906101000a900460ff16600381111561322f5761322e61440a565b5b1461326f576040517f08c379a000000000000000000000000000000000000000000000000000000000815260040161326690615b79565b60405180910390fd5b4261384060046000848152602001908152602001600020600101546132949190614eed565b116132d4576040517f08c379a00000000000000000000000000000000000000000000000000000000081526004016132cb90615c0b565b60405180910390fd5b600060038111156132e8576132e761440a565b5b6006600083815260200190815260200160002060000160149054906101000a900460ff16600381111561331e5761331d61440a565b5b1461335e576040517f08c379a000000000000000000000000000000000000000000000000000000000815260040161335590615c9d565b60405180910390fd5b6002808111156133715761337061440a565b5b600060149054906101000a900460ff1660028111156133935761339261440a565b5b036133d3576040517f08c379a00000000000000000000000000000000000000000000000000000000081526004016133ca90615d2f565b60405180910390fd5b6001600060146101000a81548160ff021916908360028111156133f9576133f861440a565b5b02179055506134086008613ed1565b60026004600083815260200190815260200160002060020160006101000a81548160ff021916908360038111156134425761344161440a565b5b021790555061344f613caf565b6006600083815260200190815260200160002060000160006101000a81548173ffffffffffffffffffffffffffffffffffffffff021916908373ffffffffffffffffffffffffffffffffffffffff16021790555060016006600083815260200190815260200160002060000160146101000a81548160ff021916908360038111156134dd576134dc61440a565b5b0217905550613562600160006004600085815260200190815260200160002060020160019054906101000a900473ffffffffffffffffffffffffffffffffffffffff1673ffffffffffffffffffffffffffffffffffffffff1673ffffffffffffffffffffffffffffffffffffffff168152602001908152602001600020600301613ed1565b6003600160006004600085815260200190815260200160002060020160019054906101000a900473ffffffffffffffffffffffffffffffffffffffff1673ffffffffffffffffffffffffffffffffffffffff1673ffffffffffffffffffffffffffffffffffffffff16815260200190815260200160002060000160006101000a81548160ff021916908360048111156135fe576135fd61440a565b5b021790555050565b61360e613ee7565b600073ffffffffffffffffffffffffffffffffffffffff168173ffffffffffffffffffffffffffffffffffffffff160361367d576040517f08c379a000000000000000000000000000000000000000000000000000000000815260040161367490615dc1565b60405180910390fd5b61368681613f65565b50565b600a600061369791906140b0565b60005b81518110156137a357600a8282815181106136b8576136b7615606565b5b6020026020010151600001518383815181106136d7576136d6615606565b5b6020026020010151602001518484815181106136f6576136f5615606565b5b60200260200101516040015185858151811061371557613714615606565b5b60200260200101516060015186868151811061373457613733615606565b5b602002602001015160800151604051602001613754959493929190615de1565b604051602081830303815290604052805190602001209080600181540180825580915050600190039060005260206000200160009091909190915055808061379b90614fb3565b91505061369a565b5060008151905060005b60008211156138b25760005b6001836137c69190614ffb565b81101561388f57600a8082846137dc9190614eed565b815481106137ed576137ec615606565b5b9060005260206000200154600a600184866138089190614eed565b6138129190614eed565b8154811061382357613822615606565b5b906000526020600020015460405160200161383f929190615e55565b6040516020818303038152906040528051906020012090806001815401808255809150506001900390600052602060002001600090919091909150556002816138889190614eed565b90506137b9565b50818161389c9190614eed565b90506002826138ab9190614ebc565b91506137ad565b505050565b7f000000000000000000000000000000000000000000000000000000000000000081565b7f000000000000000000000000000000000000000000000000000000000000000081565b600081600001549050919050565b600080825167ffffffffffffffff81111561392b5761392a6141de565b5b6040519080825280602002602001820160405280156139595781602001602082028036833780820191505090505b5090506000805b8451811015613a725784818151811061397c5761397b615606565b5b60200260200101516000015185828151811061399b5761399a615606565b5b6020026020010151602001518683815181106139ba576139b9615606565b5b6020026020010151604001518784815181106139d9576139d8615606565b5b6020026020010151606001518885815181106139f8576139f7615606565b5b602002602001015160800151604051602001613a18959493929190615de1565b60405160208183030381529060405280519060200120838380613a3a90615e81565b945063ffffffff1681518110613a5357613a52615606565b5b6020026020010181815250508080613a6a90614fb3565b915050613960565b5060008451905060005b6000821115613b835760005b600183613a959190614ffb565b811015613b6057848183613aa99190614eed565b81518110613aba57613ab9615606565b5b60200260200101518560018385613ad19190614eed565b613adb9190614eed565b81518110613aec57613aeb615606565b5b6020026020010151604051602001613b05929190615e55565b60405160208183030381529060405280519060200120858580613b2790615e81565b965063ffffffff1681518110613b4057613b3f615606565b5b602002602001018181525050600281613b599190614eed565b9050613a88565b508181613b6d9190614eed565b9050600282613b7c9190614ebc565b9150613a7c565b8360018551613b929190614ffb565b81518110613ba357613ba2615606565b5b6020026020010151945050505050919050565b7f000000000000000000000000000000000000000000000000000000000000000073ffffffffffffffffffffffffffffffffffffffff16634ff746f6826040518263ffffffff1660e01b8152600401613c0f9190615f2c565b600060405180830381600087803b158015613c2957600080fd5b505af1158015613c3d573d6000803e3d6000fd5b5050505050565b6000613c4e613caf565b905090565b60008160000154905060008111613c9f576040517f08c379a0000000000000000000000000000000000000000000000000000000008152600401613c9690615f9a565b60405180910390fd5b6001810382600001819055505050565b600033905090565b6000808360000135846020016020810190613cd2919061459c565b856040016020810190613ce5919061459c565b866060016020810190613cf8919061459c565b876080016020810190613d0b919061459c565b604051602001613d1f959493929190615de1565b60405160208183030381529060405280519060200120905060005b87879050811015613df6576000888883818110613d5a57613d59615606565b5b9050602002013590506000600286613d729190615fba565b03613da7578281604051602001613d8a929190615e55565b604051602081830303815290604052805190602001209250613dd3565b8083604051602001613dba929190615e55565b6040516020818303038152906040528051906020012092505b600285613de09190614ebc565b9450508080613dee90614fb3565b915050613d3a565b5084811491505095945050505050565b60008273ffffffffffffffffffffffffffffffffffffffff16636352211e836040518263ffffffff1660e01b8152600401613e419190614581565b602060405180830381865afa925050508015613e7b57506040513d601f19601f82011682018060405250810190613e7891906156dc565b60015b613ebd57613e87615ff8565b806308c379a003613eac5750613e9b61601a565b80613ea65750613eae565b50613eb8565b505b3d6000803e3d6000fd5b613ec6565b80915050613ecb565b600090505b92915050565b6001816000016000828254019250508190555050565b613eef613caf565b73ffffffffffffffffffffffffffffffffffffffff16613f0d612acf565b73ffffffffffffffffffffffffffffffffffffffff1614613f63576040517f08c379a0000000000000000000000000000000000000000000000000000000008152600401613f5a906160f6565b60405180910390fd5b565b60008060009054906101000a900473ffffffffffffffffffffffffffffffffffffffff169050816000806101000a81548173ffffffffffffffffffffffffffffffffffffffff021916908373ffffffffffffffffffffffffffffffffffffffff1602179055508173ffffffffffffffffffffffffffffffffffffffff168173ffffffffffffffffffffffffffffffffffffffff167f8be0079c531659141344cd1fd0a4f28419497f9722a3daafe3b4186f6b6457e060405160405180910390a35050565b6040518060a0016040528060008152602001600073ffffffffffffffffffffffffffffffffffffffff168152602001600073ffffffffffffffffffffffffffffffffffffffff168152602001600073ffffffffffffffffffffffffffffffffffffffff168152602001600073ffffffffffffffffffffffffffffffffffffffff1681525090565b50805460008255906000526020600020908101906140ce91906140d1565b50565b5b808211156140ea5760008160009055506001016140d2565b5090565b6000604051905090565b600080fd5b600080fd5b6000819050919050565b61411581614102565b811461412057600080fd5b50565b6000813590506141328161410c565b92915050565b60006020828403121561414e5761414d6140f8565b5b600061415c84828501614123565b91505092915050565b600073ffffffffffffffffffffffffffffffffffffffff82169050919050565b600061419082614165565b9050919050565b6141a081614185565b81146141ab57600080fd5b50565b6000813590506141bd81614197565b92915050565b600080fd5b600080fd5b6000601f19601f8301169050919050565b7f4e487b7100000000000000000000000000000000000000000000000000000000600052604160045260246000fd5b614216826141cd565b810181811067ffffffffffffffff82111715614235576142346141de565b5b80604052505050565b60006142486140ee565b9050614254828261420d565b919050565b600067ffffffffffffffff821115614274576142736141de565b5b61427d826141cd565b9050602081019050919050565b82818337600083830152505050565b60006142ac6142a784614259565b61423e565b9050828152602081018484840111156142c8576142c76141c8565b5b6142d384828561428a565b509392505050565b600082601f8301126142f0576142ef6141c3565b5b8135614300848260208601614299565b91505092915050565b60008060008060808587031215614323576143226140f8565b5b6000614331878288016141ae565b9450506020614342878288016141ae565b935050604061435387828801614123565b925050606085013567ffffffffffffffff811115614374576143736140fd565b5b614380878288016142db565b91505092959194509250565b60007fffffffff0000000000000000000000000000000000000000000000000000000082169050919050565b6143c18161438c565b82525050565b60006020820190506143dc60008301846143b8565b92915050565b6000819050919050565b6143f5816143e2565b82525050565b61440481614102565b82525050565b7f4e487b7100000000000000000000000000000000000000000000000000000000600052602160045260246000fd5b6004811061444a5761444961440a565b5b50565b600081905061445b82614439565b919050565b600061446b8261444d565b9050919050565b61447b81614460565b82525050565b61448a81614185565b82525050565b60006080820190506144a560008301876143ec565b6144b260208301866143fb565b6144bf6040830185614472565b6144cc6060830184614481565b95945050505050565b600381106144e6576144e561440a565b5b50565b60008190506144f7826144d5565b919050565b6000614507826144e9565b9050919050565b614517816144fc565b82525050565b6000602082019050614532600083018461450e565b92915050565b60006020828403121561454e5761454d6140f8565b5b600082013567ffffffffffffffff81111561456c5761456b6140fd565b5b614578848285016142db565b91505092915050565b600060208201905061459660008301846143fb565b92915050565b6000602082840312156145b2576145b16140f8565b5b60006145c0848285016141ae565b91505092915050565b60008115159050919050565b6145de816145c9565b82525050565b60006040820190506145f960008301856143fb565b61460660208301846145d5565b9392505050565b600080fd5b600060a082840312156146285761462761460d565b5b81905092915050565b600080fd5b600080fd5b60008083601f840112614651576146506141c3565b5b8235905067ffffffffffffffff81111561466e5761466d614631565b5b60208301915083602082028301111561468a57614689614636565b5b9250929050565b600080600080600061010086880312156146ae576146ad6140f8565b5b60006146bc88828901614123565b95505060206146cd88828901614612565b94505060c086013567ffffffffffffffff8111156146ee576146ed6140fd565b5b6146fa8882890161463b565b935093505060e061470d88828901614123565b9150509295509295909350565b600060208201905061472f60008301846143ec565b92915050565b600581106147465761474561440a565b5b50565b600081905061475782614735565b919050565b600061476782614749565b9050919050565b6147778161475c565b82525050565b61478681614102565b82525050565b6020820160008201516147a2600085018261477d565b50505050565b60006080820190506147bd600083018761476e565b6147ca60208301866143fb565b6147d760408301856143fb565b6147e4606083018461478c565b95945050505050565b6147f6816143e2565b811461480157600080fd5b50565b600081359050614813816147ed565b92915050565b60006020828403121561482f5761482e6140f8565b5b600061483d84828501614804565b91505092915050565b6000806000806000806101208789031215614864576148636140f8565b5b600061487289828a016141ae565b965050602061488389828a01614123565b955050604061489489828a01614612565b94505060e087013567ffffffffffffffff8111156148b5576148b46140fd565b5b6148c189828a0161463b565b93509350506101006148d589828a01614123565b9150509295509295509295565b60006020820190506148f76000830184614481565b92915050565b6004811061490e5761490d61440a565b5b50565b600081905061491f826148fd565b919050565b600061492f82614911565b9050919050565b61493f81614924565b82525050565b600060408201905061495a6000830185614481565b6149676020830184614936565b9392505050565b60008060408385031215614985576149846140f8565b5b600061499385828601614123565b92505060206149a485828601614123565b9150509250929050565b6149b781614185565b82525050565b60a0820160008201516149d3600085018261477d565b5060208201516149e660208501826149ae565b5060408201516149f960408501826149ae565b506060820151614a0c60608501826149ae565b506080820151614a1f60808501826149ae565b50505050565b600060a082019050614a3a60008301846149bd565b92915050565b600067ffffffffffffffff821115614a5b57614a5a6141de565b5b602082029050602081019050919050565b600080fd5b600060a08284031215614a8757614a86614a6c565b5b614a9160a061423e565b90506000614aa184828501614123565b6000830152506020614ab5848285016141ae565b6020830152506040614ac9848285016141ae565b6040830152506060614add848285016141ae565b6060830152506080614af1848285016141ae565b60808301525092915050565b6000614b10614b0b84614a40565b61423e565b90508083825260208201905060a08402830185811115614b3357614b32614636565b5b835b81811015614b5c5780614b488882614a71565b84526020840193505060a081019050614b35565b5050509392505050565b600082601f830112614b7b57614b7a6141c3565b5b8135614b8b848260208601614afd565b91505092915050565b600060208284031215614baa57614ba96140f8565b5b600082013567ffffffffffffffff811115614bc857614bc76140fd565b5b614bd484828501614b66565b91505092915050565b6000604082019050614bf260008301856143fb565b614bff60208301846143ec565b9392505050565b600082825260208201905092915050565b7f53706f6b654272696467653a2063616c6c6572206973206e6f7420746865206860008201527f7562210000000000000000000000000000000000000000000000000000000000602082015250565b6000614c73602383614c06565b9150614c7e82614c17565b604082019050919050565b60006020820190508181036000830152614ca281614c66565b9050919050565b7f53706f6b654272696467653a206272696465207374617475732069732061637460008201527f6976652100000000000000000000000000000000000000000000000000000000602082015250565b6000614d05602483614c06565b9150614d1082614ca9565b604082019050919050565b60006020820190508181036000830152614d3481614cf8565b9050919050565b600063ffffffff82169050919050565b614d5481614d3b565b8114614d5f57600080fd5b50565b600081519050614d7181614d4b565b92915050565b600081519050614d86816147ed565b92915050565b60008060408385031215614da357614da26140f8565b5b6000614db185828601614d62565b9250506020614dc285828601614d77565b9150509250929050565b7f53706f6b654272696467653a20696e636f6d696e6720626c6f636b206861732060008201527f6e6f206368616c6c656e67656420737461747573210000000000000000000000602082015250565b6000614e28603583614c06565b9150614e3382614dcc565b604082019050919050565b60006020820190508181036000830152614e5781614e1b565b9050919050565b7f4e487b7100000000000000000000000000000000000000000000000000000000600052601260045260246000fd5b7f4e487b7100000000000000000000000000000000000000000000000000000000600052601160045260246000fd5b6000614ec782614102565b9150614ed283614102565b925082614ee257614ee1614e5e565b5b828204905092915050565b6000614ef882614102565b9150614f0383614102565b9250828201905080821115614f1b57614f1a614e8d565b5b92915050565b7f53706f6b654272696467653a20627269646765206973206e6f7420706175736560008201527f6421000000000000000000000000000000000000000000000000000000000000602082015250565b6000614f7d602283614c06565b9150614f8882614f21565b604082019050919050565b60006020820190508181036000830152614fac81614f70565b9050919050565b6000614fbe82614102565b91507fffffffffffffffffffffffffffffffffffffffffffffffffffffffffffffffff8203614ff057614fef614e8d565b5b600182019050919050565b600061500682614102565b915061501183614102565b925082820390508181111561502957615028614e8d565b5b92915050565b7f53706f6b654272696467653a20627269646765206973206e6f7420616374697660008201527f6521000000000000000000000000000000000000000000000000000000000000602082015250565b600061508b602283614c06565b91506150968261502f565b604082019050919050565b600060208201905081810360008301526150ba8161507e565b9050919050565b7f44737453706f6b654272696467653a207468657265206973206e6f20656e6f7560008201527f67682066656520666f722072656c617965727321000000000000000000000000602082015250565b600061511d603483614c06565b9150615128826150c1565b604082019050919050565b6000602082019050818103600083015261514c81615110565b9050919050565b7f44737453706f6b654272696467653a20696e636f6d696e6720626c6f636b206860008201527f6173206e6f2052656c6179656420737461746521000000000000000000000000602082015250565b60006151af603483614c06565b91506151ba82615153565b604082019050919050565b600060208201905081810360008301526151de816151a2565b9050919050565b7f44737453706f6b654272696467653a207468652072656c61796572206861732060008201527f6e6f206163746976652073746174757300000000000000000000000000000000602082015250565b6000615241603083614c06565b915061524c826151e5565b604082019050919050565b6000602082019050818103600083015261527081615234565b9050919050565b7f44737453706f6b654272696467653a2070726f6f66206973206e6f7420636f7260008201527f7265637420647572696e6720636c616d696e6721000000000000000000000000602082015250565b60006152d3603483614c06565b91506152de82615277565b604082019050919050565b60006020820190508181036000830152615302816152c6565b9050919050565b7f44737453706f6b654272696467653a207265636569766572206973206e6f742060008201527f746865206d6573736167652073656e6465722100000000000000000000000000602082015250565b6000615365603383614c06565b915061537082615309565b604082019050919050565b6000602082019050818103600083015261539481615358565b9050919050565b600081905092915050565b50565b60006153b660008361539b565b91506153c1826153a6565b600082019050919050565b60006153d7826153a9565b9150819050919050565b7f4661696c656420746f2073656e64204574686572000000000000000000000000600082015250565b6000615417601483614c06565b9150615422826153e1565b602082019050919050565b600060208201905081810360008301526154468161540a565b9050919050565b60006040820190506154626000830185614481565b61546f60208301846143fb565b9392505050565b7f53706f6b654272696467653a207468657265206973206e6f2072657761726421600082015250565b60006154ac602083614c06565b91506154b782615476565b602082019050919050565b600060208201905081810360008301526154db8161549f565b9050919050565b7f53706f6b654272696467653a2072657761726420697320616c7265616479206360008201527f6c61696d65642100000000000000000000000000000000000000000000000000602082015250565b600061553e602783614c06565b9150615549826154e2565b604082019050919050565b6000602082019050818103600083015261556d81615531565b9050919050565b7f53706f6b654272696467653a2063616c6c6572206973206e6f7420612072656c60008201527f6179657221000000000000000000000000000000000000000000000000000000602082015250565b60006155d0602583614c06565b91506155db82615574565b604082019050919050565b600060208201905081810360008301526155ff816155c3565b9050919050565b7f4e487b7100000000000000000000000000000000000000000000000000000000600052603260045260246000fd5b7f44737453706f6b654272696467653a2070726f6f66206973206e6f7420636f7260008201527f7265637420756e7772617070696e672100000000000000000000000000000000602082015250565b6000615691603083614c06565b915061569c82615635565b604082019050919050565b600060208201905081810360008301526156c081615684565b9050919050565b6000815190506156d681614197565b92915050565b6000602082840312156156f2576156f16140f8565b5b6000615700848285016156c7565b91505092915050565b7f44737453706f6b654272696467653a206f776e6572206973206e6f742074686560008201527f2063616c6c657221000000000000000000000000000000000000000000000000602082015250565b6000615765602883614c06565b915061577082615709565b604082019050919050565b6000602082019050818103600083015261579481615758565b9050919050565b7f44657353706f6b654272696467653a206368616c6c656e67696e672074696d6560008201527f2077696e646f77206973206e6f74206578706972656420796574210000000000602082015250565b60006157f7603b83614c06565b91506158028261579b565b604082019050919050565b60006020820190508181036000830152615826816157ea565b9050919050565b7f53706f6b654272696467653a2063616c6c6572206973206e6f7420696e20756e60008201527f6465706f73697465642073746174652100000000000000000000000000000000602082015250565b6000615889603083614c06565b91506158948261582d565b604082019050919050565b600060208201905081810360008301526158b88161587c565b9050919050565b7f53706f6b654272696467653a20322064617973206973206e6f7420657870697260008201527f65642066726f6d2074686520756e6465706f736974696e672100000000000000602082015250565b600061591b603983614c06565b9150615926826158bf565b604082019050919050565b6000602082019050818103600083015261594a8161590e565b9050919050565b7f53706f6b654272696467653a2063616c6c65722063616e6e6f7420626520612060008201527f72656c6179657221000000000000000000000000000000000000000000000000602082015250565b60006159ad602883614c06565b91506159b882615951565b604082019050919050565b600060208201905081810360008301526159dc816159a0565b9050919050565b7f53706f6b654272696467653a206d73672e76616c7565206973206e6f7420617060008201527f70726f7072696174652100000000000000000000000000000000000000000000602082015250565b6000615a3f602a83614c06565b9150615a4a826159e3565b604082019050919050565b60006020820190508181036000830152615a6e81615a32565b9050919050565b7f53706f6b654272696467653a204e6f20656e6f75676820616d6f756e74206f6660008201527f2045544820746f207374616b6521000000000000000000000000000000000000602082015250565b6000615ad1602e83614c06565b9150615adc82615a75565b604082019050919050565b60006020820190508181036000830152615b0081615ac4565b9050919050565b7f53706f6b654272696467653a20436f72726573706f6e64696e6720696e636f6d60008201527f696e672062696420737461747573206973206e6f742072656c61796564210000602082015250565b6000615b63603e83614c06565b9150615b6e82615b07565b604082019050919050565b60006020820190508181036000830152615b9281615b56565b9050919050565b7f53706f6b654272696467653a20546865206469737075746520706572696f642060008201527f6973206578706972656421000000000000000000000000000000000000000000602082015250565b6000615bf5602b83614c06565b9150615c0082615b99565b604082019050919050565b60006020820190508181036000830152615c2481615be8565b9050919050565b7f53706f6b654272696467653a2062696420697320616c7265616479206368616c60008201527f6c656e6765642100000000000000000000000000000000000000000000000000602082015250565b6000615c87602783614c06565b9150615c9282615c2b565b604082019050919050565b60006020820190508181036000830152615cb681615c7a565b9050919050565b7f53706f6b654272696467653a2074686520737461747573206f6620746865206260008201527f7269646765206973207061757365642100000000000000000000000000000000602082015250565b6000615d19603083614c06565b9150615d2482615cbd565b604082019050919050565b60006020820190508181036000830152615d4881615d0c565b9050919050565b7f4f776e61626c653a206e6577206f776e657220697320746865207a65726f206160008201527f6464726573730000000000000000000000000000000000000000000000000000602082015250565b6000615dab602683614c06565b9150615db682615d4f565b604082019050919050565b60006020820190508181036000830152615dda81615d9e565b9050919050565b600060a082019050615df660008301886143fb565b615e036020830187614481565b615e106040830186614481565b615e1d6060830185614481565b615e2a6080830184614481565b9695505050505050565b6000819050919050565b615e4f615e4a826143e2565b615e34565b82525050565b6000615e618285615e3e565b602082019150615e718284615e3e565b6020820191508190509392505050565b6000615e8c82614d3b565b915063ffffffff8203615ea257615ea1614e8d565b5b600182019050919050565b600081519050919050565b600082825260208201905092915050565b60005b83811015615ee7578082015181840152602081019050615ecc565b60008484015250505050565b6000615efe82615ead565b615f088185615eb8565b9350615f18818560208601615ec9565b615f21816141cd565b840191505092915050565b60006020820190508181036000830152615f468184615ef3565b905092915050565b7f436f756e7465723a2064656372656d656e74206f766572666c6f770000000000600082015250565b6000615f84601b83614c06565b9150615f8f82615f4e565b602082019050919050565b60006020820190508181036000830152615fb381615f77565b9050919050565b6000615fc582614102565b9150615fd083614102565b925082615fe057615fdf614e5e565b5b828206905092915050565b60008160e01c9050919050565b600060033d11156160175760046000803e616014600051615feb565b90505b90565b600060443d106160a75761602c6140ee565b60043d036004823e80513d602482011167ffffffffffffffff821117156160545750506160a7565b808201805167ffffffffffffffff81111561607257505050506160a7565b80602083010160043d03850181111561608f5750505050506160a7565b61609e8260200185018661420d565b82955050505050505b90565b7f4f776e61626c653a2063616c6c6572206973206e6f7420746865206f776e6572600082015250565b60006160e0602083614c06565b91506160eb826160aa565b602082019050919050565b6000602082019050818103600083015261610f816160d3565b905091905056fea2646970667358221220770e6f9b45649dc36b94a6132860e8d2b715bd5e0ea07af8e16d8520f4849e3764736f6c63430008120033","opcodes":"PUSH2 0x140 PUSH1 0x40 MSTORE CALLVALUE DUP1 ISZERO PUSH3 0x12 JUMPI PUSH1 0x0 DUP1 REVERT JUMPDEST POP PUSH1 0x40 MLOAD PUSH3 0x6495 CODESIZE SUB DUP1 PUSH3 0x6495 DUP4 CODECOPY DUP2 DUP2 ADD PUSH1 0x40 MSTORE DUP2 ADD SWAP1 PUSH3 0x38 SWAP2 SWAP1 PUSH3 0x250 JUMP JUMPDEST DUP3 DUP3 DUP3 DUP3 DUP3 DUP3 PUSH3 0x5E PUSH3 0x52 PUSH3 0xDF PUSH1 0x20 SHL PUSH1 0x20 SHR JUMP JUMPDEST PUSH3 0xE7 PUSH1 0x20 SHL PUSH1 0x20 SHR JUMP JUMPDEST DUP3 PUSH20 0xFFFFFFFFFFFFFFFFFFFFFFFFFFFFFFFFFFFFFFFF AND PUSH2 0x120 DUP2 PUSH20 0xFFFFFFFFFFFFFFFFFFFFFFFFFFFFFFFFFFFFFFFF AND DUP2 MSTORE POP POP PUSH9 0x1158E460913D00000 PUSH1 0x80 DUP2 DUP2 MSTORE POP POP PUSH8 0x8AC7230489E80000 PUSH1 0xA0 DUP2 DUP2 MSTORE POP POP PUSH3 0x2A300 PUSH1 0xC0 DUP2 DUP2 MSTORE POP POP DUP2 PUSH1 0xE0 DUP2 DUP2 MSTORE POP POP DUP1 PUSH2 0x100 DUP2 DUP2 MSTORE POP POP POP POP POP POP POP POP POP POP POP PUSH3 0x2AC JUMP JUMPDEST PUSH1 0x0 CALLER SWAP1 POP SWAP1 JUMP JUMPDEST PUSH1 0x0 DUP1 PUSH1 0x0 SWAP1 SLOAD SWAP1 PUSH2 0x100 EXP SWAP1 DIV PUSH20 0xFFFFFFFFFFFFFFFFFFFFFFFFFFFFFFFFFFFFFFFF AND SWAP1 POP DUP2 PUSH1 0x0 DUP1 PUSH2 0x100 EXP DUP2 SLOAD DUP2 PUSH20 0xFFFFFFFFFFFFFFFFFFFFFFFFFFFFFFFFFFFFFFFF MUL NOT AND SWAP1 DUP4 PUSH20 0xFFFFFFFFFFFFFFFFFFFFFFFFFFFFFFFFFFFFFFFF AND MUL OR SWAP1 SSTORE POP DUP2 PUSH20 0xFFFFFFFFFFFFFFFFFFFFFFFFFFFFFFFFFFFFFFFF AND DUP2 PUSH20 0xFFFFFFFFFFFFFFFFFFFFFFFFFFFFFFFFFFFFFFFF AND PUSH32 0x8BE0079C531659141344CD1FD0A4F28419497F9722A3DAAFE3B4186F6B6457E0 PUSH1 0x40 MLOAD PUSH1 0x40 MLOAD DUP1 SWAP2 SUB SWAP1 LOG3 POP POP JUMP JUMPDEST PUSH1 0x0 DUP1 REVERT JUMPDEST PUSH1 0x0 PUSH20 0xFFFFFFFFFFFFFFFFFFFFFFFFFFFFFFFFFFFFFFFF DUP3 AND SWAP1 POP SWAP2 SWAP1 POP JUMP JUMPDEST PUSH1 0x0 PUSH3 0x1DD DUP3 PUSH3 0x1B0 JUMP JUMPDEST SWAP1 POP SWAP2 SWAP1 POP JUMP JUMPDEST PUSH3 0x1EF DUP2 PUSH3 0x1D0 JUMP JUMPDEST DUP2 EQ PUSH3 0x1FB JUMPI PUSH1 0x0 DUP1 REVERT JUMPDEST POP JUMP JUMPDEST PUSH1 0x0 DUP2 MLOAD SWAP1 POP PUSH3 0x20F DUP2 PUSH3 0x1E4 JUMP JUMPDEST SWAP3 SWAP2 POP POP JUMP JUMPDEST PUSH1 0x0 DUP2 SWAP1 POP SWAP2 SWAP1 POP JUMP JUMPDEST PUSH3 0x22A DUP2 PUSH3 0x215 JUMP JUMPDEST DUP2 EQ PUSH3 0x236 JUMPI PUSH1 0x0 DUP1 REVERT JUMPDEST POP JUMP JUMPDEST PUSH1 0x0 DUP2 MLOAD SWAP1 POP PUSH3 0x24A DUP2 PUSH3 0x21F JUMP JUMPDEST SWAP3 SWAP2 POP POP JUMP JUMPDEST PUSH1 0x0 DUP1 PUSH1 0x0 PUSH1 0x60 DUP5 DUP7 SUB SLT ISZERO PUSH3 0x26C JUMPI PUSH3 0x26B PUSH3 0x1AB JUMP JUMPDEST JUMPDEST PUSH1 0x0 PUSH3 0x27C DUP7 DUP3 DUP8 ADD PUSH3 0x1FE JUMP JUMPDEST SWAP4 POP POP PUSH1 0x20 PUSH3 0x28F DUP7 DUP3 DUP8 ADD PUSH3 0x239 JUMP JUMPDEST SWAP3 POP POP PUSH1 0x40 PUSH3 0x2A2 DUP7 DUP3 DUP8 ADD PUSH3 0x239 JUMP JUMPDEST SWAP2 POP POP SWAP3 POP SWAP3 POP SWAP3 JUMP JUMPDEST PUSH1 0x80 MLOAD PUSH1 0xA0 MLOAD PUSH1 0xC0 MLOAD PUSH1 0xE0 MLOAD PUSH2 0x100 MLOAD PUSH2 0x120 MLOAD PUSH2 0x614C PUSH3 0x349 PUSH1 0x0 CODECOPY PUSH1 0x0 DUP2 DUP2 PUSH2 0xA37 ADD MSTORE DUP2 DUP2 PUSH2 0x2AFA ADD MSTORE PUSH2 0x3BB8 ADD MSTORE PUSH1 0x0 DUP2 DUP2 PUSH2 0x15C7 ADD MSTORE DUP2 DUP2 PUSH2 0x1842 ADD MSTORE PUSH2 0x20C9 ADD MSTORE PUSH1 0x0 DUP2 DUP2 PUSH2 0x1435 ADD MSTORE PUSH2 0x2557 ADD MSTORE PUSH1 0x0 DUP2 DUP2 PUSH2 0x1A92 ADD MSTORE PUSH2 0x26FA ADD MSTORE PUSH1 0x0 DUP2 DUP2 PUSH2 0x114D ADD MSTORE DUP2 DUP2 PUSH2 0x3185 ADD MSTORE PUSH2 0x38B9 ADD MSTORE PUSH1 0x0 DUP2 DUP2 PUSH2 0x1122 ADD MSTORE DUP2 DUP2 PUSH2 0x27D0 ADD MSTORE DUP2 DUP2 PUSH2 0x2C51 ADD MSTORE PUSH2 0x38DD ADD MSTORE PUSH2 0x614C PUSH1 0x0 RETURN INVALID PUSH1 0x80 PUSH1 0x40 MSTORE PUSH1 0x4 CALLDATASIZE LT PUSH2 0x1F9 JUMPI PUSH1 0x0 CALLDATALOAD PUSH1 0xE0 SHR DUP1 PUSH4 0x6AE90C7D GT PUSH2 0x10D JUMPI DUP1 PUSH4 0xAE110875 GT PUSH2 0xA0 JUMPI DUP1 PUSH4 0xDB77F2B9 GT PUSH2 0x6F JUMPI DUP1 PUSH4 0xDB77F2B9 EQ PUSH2 0x6C5 JUMPI DUP1 PUSH4 0xF2FDE38B EQ PUSH2 0x6E1 JUMPI DUP1 PUSH4 0xF80F6CD2 EQ PUSH2 0x70A JUMPI DUP1 PUSH4 0xF8840CF7 EQ PUSH2 0x733 JUMPI DUP1 PUSH4 0xFAF5625F EQ PUSH2 0x75E JUMPI PUSH2 0x1F9 JUMP JUMPDEST DUP1 PUSH4 0xAE110875 EQ PUSH2 0x61B JUMPI DUP1 PUSH4 0xB24C49FA EQ PUSH2 0x646 JUMPI DUP1 PUSH4 0xB8B7F514 EQ PUSH2 0x683 JUMPI DUP1 PUSH4 0xBE7226AD EQ PUSH2 0x6AE JUMPI PUSH2 0x1F9 JUMP JUMPDEST DUP1 PUSH4 0x8DA5CB5B GT PUSH2 0xDC JUMPI DUP1 PUSH4 0x8DA5CB5B EQ PUSH2 0x57D JUMPI DUP1 PUSH4 0xA4C52B86 EQ PUSH2 0x5A8 JUMPI DUP1 PUSH4 0xA50EC326 EQ PUSH2 0x5D3 JUMPI DUP1 PUSH4 0xA6762F40 EQ PUSH2 0x5DD JUMPI PUSH2 0x1F9 JUMP JUMPDEST DUP1 PUSH4 0x6AE90C7D EQ PUSH2 0x4FD JUMPI DUP1 PUSH4 0x715018A6 EQ PUSH2 0x526 JUMPI DUP1 PUSH4 0x7BE6F7A7 EQ PUSH2 0x53D JUMPI DUP1 PUSH4 0x87CF416E EQ PUSH2 0x554 JUMPI PUSH2 0x1F9 JUMP JUMPDEST DUP1 PUSH4 0x3D95D1ED GT PUSH2 0x190 JUMPI DUP1 PUSH4 0x5300F841 GT PUSH2 0x15F JUMPI DUP1 PUSH4 0x5300F841 EQ PUSH2 0x427 JUMPI DUP1 PUSH4 0x59CBE82C EQ PUSH2 0x467 JUMPI DUP1 PUSH4 0x5B9EB5C3 EQ PUSH2 0x47E JUMPI DUP1 PUSH4 0x5CA1E165 EQ PUSH2 0x4A7 JUMPI DUP1 PUSH4 0x6A89C63A EQ PUSH2 0x4D2 JUMPI PUSH2 0x1F9 JUMP JUMPDEST DUP1 PUSH4 0x3D95D1ED EQ PUSH2 0x378 JUMPI DUP1 PUSH4 0x440DE89C EQ PUSH2 0x394 JUMPI DUP1 PUSH4 0x501895AE EQ PUSH2 0x3BF JUMPI DUP1 PUSH4 0x529E720A EQ PUSH2 0x3FC JUMPI PUSH2 0x1F9 JUMP JUMPDEST DUP1 PUSH4 0x24BD801B GT PUSH2 0x1CC JUMPI DUP1 PUSH4 0x24BD801B EQ PUSH2 0x2CF JUMPI DUP1 PUSH4 0x2FDA332E EQ PUSH2 0x2F8 JUMPI DUP1 PUSH4 0x34265237 EQ PUSH2 0x30F JUMPI DUP1 PUSH4 0x35CC073B EQ PUSH2 0x33A JUMPI PUSH2 0x1F9 JUMP JUMPDEST DUP1 PUSH4 0x12CF18C EQ PUSH2 0x1FE JUMPI DUP1 PUSH4 0x150B7A02 EQ PUSH2 0x227 JUMPI DUP1 PUSH4 0x1EFA009E EQ PUSH2 0x264 JUMPI DUP1 PUSH4 0x200D2ED2 EQ PUSH2 0x2A4 JUMPI JUMPDEST PUSH1 0x0 DUP1 REVERT JUMPDEST CALLVALUE DUP1 ISZERO PUSH2 0x20A JUMPI PUSH1 0x0 DUP1 REVERT JUMPDEST POP PUSH2 0x225 PUSH1 0x4 DUP1 CALLDATASIZE SUB DUP2 ADD SWAP1 PUSH2 0x220 SWAP2 SWAP1 PUSH2 0x4138 JUMP JUMPDEST PUSH2 0x789 JUMP JUMPDEST STOP JUMPDEST CALLVALUE DUP1 ISZERO PUSH2 0x233 JUMPI PUSH1 0x0 DUP1 REVERT JUMPDEST POP PUSH2 0x24E PUSH1 0x4 DUP1 CALLDATASIZE SUB DUP2 ADD SWAP1 PUSH2 0x249 SWAP2 SWAP1 PUSH2 0x4309 JUMP JUMPDEST PUSH2 0x9B1 JUMP JUMPDEST PUSH1 0x40 MLOAD PUSH2 0x25B SWAP2 SWAP1 PUSH2 0x43C7 JUMP JUMPDEST PUSH1 0x40 MLOAD DUP1 SWAP2 SUB SWAP1 RETURN JUMPDEST CALLVALUE DUP1 ISZERO PUSH2 0x270 JUMPI PUSH1 0x0 DUP1 REVERT JUMPDEST POP PUSH2 0x28B PUSH1 0x4 DUP1 CALLDATASIZE SUB DUP2 ADD SWAP1 PUSH2 0x286 SWAP2 SWAP1 PUSH2 0x4138 JUMP JUMPDEST PUSH2 0x9C5 JUMP JUMPDEST PUSH1 0x40 MLOAD PUSH2 0x29B SWAP5 SWAP4 SWAP3 SWAP2 SWAP1 PUSH2 0x4490 JUMP JUMPDEST PUSH1 0x40 MLOAD DUP1 SWAP2 SUB SWAP1 RETURN JUMPDEST CALLVALUE DUP1 ISZERO PUSH2 0x2B0 JUMPI PUSH1 0x0 DUP1 REVERT JUMPDEST POP PUSH2 0x2B9 PUSH2 0xA22 JUMP JUMPDEST PUSH1 0x40 MLOAD PUSH2 0x2C6 SWAP2 SWAP1 PUSH2 0x451D JUMP JUMPDEST PUSH1 0x40 MLOAD DUP1 SWAP2 SUB SWAP1 RETURN JUMPDEST CALLVALUE DUP1 ISZERO PUSH2 0x2DB JUMPI PUSH1 0x0 DUP1 REVERT JUMPDEST POP PUSH2 0x2F6 PUSH1 0x4 DUP1 CALLDATASIZE SUB DUP2 ADD SWAP1 PUSH2 0x2F1 SWAP2 SWAP1 PUSH2 0x4538 JUMP JUMPDEST PUSH2 0xA35 JUMP JUMPDEST STOP JUMPDEST CALLVALUE DUP1 ISZERO PUSH2 0x304 JUMPI PUSH1 0x0 DUP1 REVERT JUMPDEST POP PUSH2 0x30D PUSH2 0x12B9 JUMP JUMPDEST STOP JUMPDEST CALLVALUE DUP1 ISZERO PUSH2 0x31B JUMPI PUSH1 0x0 DUP1 REVERT JUMPDEST POP PUSH2 0x324 PUSH2 0x1433 JUMP JUMPDEST PUSH1 0x40 MLOAD PUSH2 0x331 SWAP2 SWAP1 PUSH2 0x4581 JUMP JUMPDEST PUSH1 0x40 MLOAD DUP1 SWAP2 SUB SWAP1 RETURN JUMPDEST CALLVALUE DUP1 ISZERO PUSH2 0x346 JUMPI PUSH1 0x0 DUP1 REVERT JUMPDEST POP PUSH2 0x361 PUSH1 0x4 DUP1 CALLDATASIZE SUB DUP2 ADD SWAP1 PUSH2 0x35C SWAP2 SWAP1 PUSH2 0x459C JUMP JUMPDEST PUSH2 0x1457 JUMP JUMPDEST PUSH1 0x40 MLOAD PUSH2 0x36F SWAP3 SWAP2 SWAP1 PUSH2 0x45E4 JUMP JUMPDEST PUSH1 0x40 MLOAD DUP1 SWAP2 SUB SWAP1 RETURN JUMPDEST PUSH2 0x392 PUSH1 0x4 DUP1 CALLDATASIZE SUB DUP2 ADD SWAP1 PUSH2 0x38D SWAP2 SWAP1 PUSH2 0x4691 JUMP JUMPDEST PUSH2 0x1488 JUMP JUMPDEST STOP JUMPDEST CALLVALUE DUP1 ISZERO PUSH2 0x3A0 JUMPI PUSH1 0x0 DUP1 REVERT JUMPDEST POP PUSH2 0x3A9 PUSH2 0x1A66 JUMP JUMPDEST PUSH1 0x40 MLOAD PUSH2 0x3B6 SWAP2 SWAP1 PUSH2 0x4581 JUMP JUMPDEST PUSH1 0x40 MLOAD DUP1 SWAP2 SUB SWAP1 RETURN JUMPDEST CALLVALUE DUP1 ISZERO PUSH2 0x3CB JUMPI PUSH1 0x0 DUP1 REVERT JUMPDEST POP PUSH2 0x3E6 PUSH1 0x4 DUP1 CALLDATASIZE SUB DUP2 ADD SWAP1 PUSH2 0x3E1 SWAP2 SWAP1 PUSH2 0x4138 JUMP JUMPDEST PUSH2 0x1A6C JUMP JUMPDEST PUSH1 0x40 MLOAD PUSH2 0x3F3 SWAP2 SWAP1 PUSH2 0x471A JUMP JUMPDEST PUSH1 0x40 MLOAD DUP1 SWAP2 SUB SWAP1 RETURN JUMPDEST CALLVALUE DUP1 ISZERO PUSH2 0x408 JUMPI PUSH1 0x0 DUP1 REVERT JUMPDEST POP PUSH2 0x411 PUSH2 0x1A90 JUMP JUMPDEST PUSH1 0x40 MLOAD PUSH2 0x41E SWAP2 SWAP1 PUSH2 0x4581 JUMP JUMPDEST PUSH1 0x40 MLOAD DUP1 SWAP2 SUB SWAP1 RETURN JUMPDEST CALLVALUE DUP1 ISZERO PUSH2 0x433 JUMPI PUSH1 0x0 DUP1 REVERT JUMPDEST POP PUSH2 0x44E PUSH1 0x4 DUP1 CALLDATASIZE SUB DUP2 ADD SWAP1 PUSH2 0x449 SWAP2 SWAP1 PUSH2 0x459C JUMP JUMPDEST PUSH2 0x1AB4 JUMP JUMPDEST PUSH1 0x40 MLOAD PUSH2 0x45E SWAP5 SWAP4 SWAP3 SWAP2 SWAP1 PUSH2 0x47A8 JUMP JUMPDEST PUSH1 0x40 MLOAD DUP1 SWAP2 SUB SWAP1 RETURN JUMPDEST CALLVALUE DUP1 ISZERO PUSH2 0x473 JUMPI PUSH1 0x0 DUP1 REVERT JUMPDEST POP PUSH2 0x47C PUSH2 0x1B05 JUMP JUMPDEST STOP JUMPDEST CALLVALUE DUP1 ISZERO PUSH2 0x48A JUMPI PUSH1 0x0 DUP1 REVERT JUMPDEST POP PUSH2 0x4A5 PUSH1 0x4 DUP1 CALLDATASIZE SUB DUP2 ADD SWAP1 PUSH2 0x4A0 SWAP2 SWAP1 PUSH2 0x4819 JUMP JUMPDEST PUSH2 0x1E4E JUMP JUMPDEST STOP JUMPDEST CALLVALUE DUP1 ISZERO PUSH2 0x4B3 JUMPI PUSH1 0x0 DUP1 REVERT JUMPDEST POP PUSH2 0x4BC PUSH2 0x2090 JUMP JUMPDEST PUSH1 0x40 MLOAD PUSH2 0x4C9 SWAP2 SWAP1 PUSH2 0x471A JUMP JUMPDEST PUSH1 0x40 MLOAD DUP1 SWAP2 SUB SWAP1 RETURN JUMPDEST CALLVALUE DUP1 ISZERO PUSH2 0x4DE JUMPI PUSH1 0x0 DUP1 REVERT JUMPDEST POP PUSH2 0x4E7 PUSH2 0x20C7 JUMP JUMPDEST PUSH1 0x40 MLOAD PUSH2 0x4F4 SWAP2 SWAP1 PUSH2 0x4581 JUMP JUMPDEST PUSH1 0x40 MLOAD DUP1 SWAP2 SUB SWAP1 RETURN JUMPDEST CALLVALUE DUP1 ISZERO PUSH2 0x509 JUMPI PUSH1 0x0 DUP1 REVERT JUMPDEST POP PUSH2 0x524 PUSH1 0x4 DUP1 CALLDATASIZE SUB DUP2 ADD SWAP1 PUSH2 0x51F SWAP2 SWAP1 PUSH2 0x4846 JUMP JUMPDEST PUSH2 0x20EB JUMP JUMPDEST STOP JUMPDEST CALLVALUE DUP1 ISZERO PUSH2 0x532 JUMPI PUSH1 0x0 DUP1 REVERT JUMPDEST POP PUSH2 0x53B PUSH2 0x25B1 JUMP JUMPDEST STOP JUMPDEST CALLVALUE DUP1 ISZERO PUSH2 0x549 JUMPI PUSH1 0x0 DUP1 REVERT JUMPDEST POP PUSH2 0x552 PUSH2 0x25C5 JUMP JUMPDEST STOP JUMPDEST CALLVALUE DUP1 ISZERO PUSH2 0x560 JUMPI PUSH1 0x0 DUP1 REVERT JUMPDEST POP PUSH2 0x57B PUSH1 0x4 DUP1 CALLDATASIZE SUB DUP2 ADD SWAP1 PUSH2 0x576 SWAP2 SWAP1 PUSH2 0x4138 JUMP JUMPDEST PUSH2 0x28F6 JUMP JUMPDEST STOP JUMPDEST CALLVALUE DUP1 ISZERO PUSH2 0x589 JUMPI PUSH1 0x0 DUP1 REVERT JUMPDEST POP PUSH2 0x592 PUSH2 0x2ACF JUMP JUMPDEST PUSH1 0x40 MLOAD PUSH2 0x59F SWAP2 SWAP1 PUSH2 0x48E2 JUMP JUMPDEST PUSH1 0x40 MLOAD DUP1 SWAP2 SUB SWAP1 RETURN JUMPDEST CALLVALUE DUP1 ISZERO PUSH2 0x5B4 JUMPI PUSH1 0x0 DUP1 REVERT JUMPDEST POP PUSH2 0x5BD PUSH2 0x2AF8 JUMP JUMPDEST PUSH1 0x40 MLOAD PUSH2 0x5CA SWAP2 SWAP1 PUSH2 0x48E2 JUMP JUMPDEST PUSH1 0x40 MLOAD DUP1 SWAP2 SUB SWAP1 RETURN JUMPDEST PUSH2 0x5DB PUSH2 0x2B1C JUMP JUMPDEST STOP JUMPDEST CALLVALUE DUP1 ISZERO PUSH2 0x5E9 JUMPI PUSH1 0x0 DUP1 REVERT JUMPDEST POP PUSH2 0x604 PUSH1 0x4 DUP1 CALLDATASIZE SUB DUP2 ADD SWAP1 PUSH2 0x5FF SWAP2 SWAP1 PUSH2 0x4138 JUMP JUMPDEST PUSH2 0x2D72 JUMP JUMPDEST PUSH1 0x40 MLOAD PUSH2 0x612 SWAP3 SWAP2 SWAP1 PUSH2 0x4945 JUMP JUMPDEST PUSH1 0x40 MLOAD DUP1 SWAP2 SUB SWAP1 RETURN JUMPDEST CALLVALUE DUP1 ISZERO PUSH2 0x627 JUMPI PUSH1 0x0 DUP1 REVERT JUMPDEST POP PUSH2 0x630 PUSH2 0x2DC3 JUMP JUMPDEST PUSH1 0x40 MLOAD PUSH2 0x63D SWAP2 SWAP1 PUSH2 0x4581 JUMP JUMPDEST PUSH1 0x40 MLOAD DUP1 SWAP2 SUB SWAP1 RETURN JUMPDEST CALLVALUE DUP1 ISZERO PUSH2 0x652 JUMPI PUSH1 0x0 DUP1 REVERT JUMPDEST POP PUSH2 0x66D PUSH1 0x4 DUP1 CALLDATASIZE SUB DUP2 ADD SWAP1 PUSH2 0x668 SWAP2 SWAP1 PUSH2 0x496E JUMP JUMPDEST PUSH2 0x2DCF JUMP JUMPDEST PUSH1 0x40 MLOAD PUSH2 0x67A SWAP2 SWAP1 PUSH2 0x4A25 JUMP JUMPDEST PUSH1 0x40 MLOAD DUP1 SWAP2 SUB SWAP1 RETURN JUMPDEST CALLVALUE DUP1 ISZERO PUSH2 0x68F JUMPI PUSH1 0x0 DUP1 REVERT JUMPDEST POP PUSH2 0x698 PUSH2 0x2F82 JUMP JUMPDEST PUSH1 0x40 MLOAD PUSH2 0x6A5 SWAP2 SWAP1 PUSH2 0x4581 JUMP JUMPDEST PUSH1 0x40 MLOAD DUP1 SWAP2 SUB SWAP1 RETURN JUMPDEST CALLVALUE DUP1 ISZERO PUSH2 0x6BA JUMPI PUSH1 0x0 DUP1 REVERT JUMPDEST POP PUSH2 0x6C3 PUSH2 0x2F8E JUMP JUMPDEST STOP JUMPDEST PUSH2 0x6DF PUSH1 0x4 DUP1 CALLDATASIZE SUB DUP2 ADD SWAP1 PUSH2 0x6DA SWAP2 SWAP1 PUSH2 0x4138 JUMP JUMPDEST PUSH2 0x3183 JUMP JUMPDEST STOP JUMPDEST CALLVALUE DUP1 ISZERO PUSH2 0x6ED JUMPI PUSH1 0x0 DUP1 REVERT JUMPDEST POP PUSH2 0x708 PUSH1 0x4 DUP1 CALLDATASIZE SUB DUP2 ADD SWAP1 PUSH2 0x703 SWAP2 SWAP1 PUSH2 0x459C JUMP JUMPDEST PUSH2 0x3606 JUMP JUMPDEST STOP JUMPDEST CALLVALUE DUP1 ISZERO PUSH2 0x716 JUMPI PUSH1 0x0 DUP1 REVERT JUMPDEST POP PUSH2 0x731 PUSH1 0x4 DUP1 CALLDATASIZE SUB DUP2 ADD SWAP1 PUSH2 0x72C SWAP2 SWAP1 PUSH2 0x4B94 JUMP JUMPDEST PUSH2 0x3689 JUMP JUMPDEST STOP JUMPDEST CALLVALUE DUP1 ISZERO PUSH2 0x73F JUMPI PUSH1 0x0 DUP1 REVERT JUMPDEST POP PUSH2 0x748 PUSH2 0x38B7 JUMP JUMPDEST PUSH1 0x40 MLOAD PUSH2 0x755 SWAP2 SWAP1 PUSH2 0x4581 JUMP JUMPDEST PUSH1 0x40 MLOAD DUP1 SWAP2 SUB SWAP1 RETURN JUMPDEST CALLVALUE DUP1 ISZERO PUSH2 0x76A JUMPI PUSH1 0x0 DUP1 REVERT JUMPDEST POP PUSH2 0x773 PUSH2 0x38DB JUMP JUMPDEST PUSH1 0x40 MLOAD PUSH2 0x780 SWAP2 SWAP1 PUSH2 0x4581 JUMP JUMPDEST PUSH1 0x40 MLOAD DUP1 SWAP2 SUB SWAP1 RETURN JUMPDEST PUSH1 0x0 PUSH2 0x795 PUSH1 0x3 PUSH2 0x38FF JUMP JUMPDEST DUP3 LT PUSH2 0x976 JUMPI PUSH2 0x971 PUSH1 0x2 PUSH1 0x0 DUP5 DUP2 MSTORE PUSH1 0x20 ADD SWAP1 DUP2 MSTORE PUSH1 0x20 ADD PUSH1 0x0 KECCAK256 PUSH1 0x0 ADD DUP1 SLOAD DUP1 PUSH1 0x20 MUL PUSH1 0x20 ADD PUSH1 0x40 MLOAD SWAP1 DUP2 ADD PUSH1 0x40 MSTORE DUP1 SWAP3 SWAP2 SWAP1 DUP2 DUP2 MSTORE PUSH1 0x20 ADD PUSH1 0x0 SWAP1 JUMPDEST DUP3 DUP3 LT ISZERO PUSH2 0x968 JUMPI DUP4 DUP3 SWAP1 PUSH1 0x0 MSTORE PUSH1 0x20 PUSH1 0x0 KECCAK256 SWAP1 PUSH1 0x5 MUL ADD PUSH1 0x40 MLOAD DUP1 PUSH1 0xA0 ADD PUSH1 0x40 MSTORE SWAP1 DUP2 PUSH1 0x0 DUP3 ADD SLOAD DUP2 MSTORE PUSH1 0x20 ADD PUSH1 0x1 DUP3 ADD PUSH1 0x0 SWAP1 SLOAD SWAP1 PUSH2 0x100 EXP SWAP1 DIV PUSH20 0xFFFFFFFFFFFFFFFFFFFFFFFFFFFFFFFFFFFFFFFF AND PUSH20 0xFFFFFFFFFFFFFFFFFFFFFFFFFFFFFFFFFFFFFFFF AND PUSH20 0xFFFFFFFFFFFFFFFFFFFFFFFFFFFFFFFFFFFFFFFF AND DUP2 MSTORE PUSH1 0x20 ADD PUSH1 0x2 DUP3 ADD PUSH1 0x0 SWAP1 SLOAD SWAP1 PUSH2 0x100 EXP SWAP1 DIV PUSH20 0xFFFFFFFFFFFFFFFFFFFFFFFFFFFFFFFFFFFFFFFF AND PUSH20 0xFFFFFFFFFFFFFFFFFFFFFFFFFFFFFFFFFFFFFFFF AND PUSH20 0xFFFFFFFFFFFFFFFFFFFFFFFFFFFFFFFFFFFFFFFF AND DUP2 MSTORE PUSH1 0x20 ADD PUSH1 0x3 DUP3 ADD PUSH1 0x0 SWAP1 SLOAD SWAP1 PUSH2 0x100 EXP SWAP1 DIV PUSH20 0xFFFFFFFFFFFFFFFFFFFFFFFFFFFFFFFFFFFFFFFF AND PUSH20 0xFFFFFFFFFFFFFFFFFFFFFFFFFFFFFFFFFFFFFFFF AND PUSH20 0xFFFFFFFFFFFFFFFFFFFFFFFFFFFFFFFFFFFFFFFF AND DUP2 MSTORE PUSH1 0x20 ADD PUSH1 0x4 DUP3 ADD PUSH1 0x0 SWAP1 SLOAD SWAP1 PUSH2 0x100 EXP SWAP1 DIV PUSH20 0xFFFFFFFFFFFFFFFFFFFFFFFFFFFFFFFFFFFFFFFF AND PUSH20 0xFFFFFFFFFFFFFFFFFFFFFFFFFFFFFFFFFFFFFFFF AND PUSH20 0xFFFFFFFFFFFFFFFFFFFFFFFFFFFFFFFFFFFFFFFF AND DUP2 MSTORE POP POP DUP2 MSTORE PUSH1 0x20 ADD SWAP1 PUSH1 0x1 ADD SWAP1 PUSH2 0x7D4 JUMP JUMPDEST POP POP POP POP PUSH2 0x390D JUMP JUMPDEST PUSH2 0x97B JUMP JUMPDEST PUSH1 0x0 DUP1 SHL JUMPDEST SWAP1 POP PUSH1 0x0 DUP3 DUP3 PUSH1 0x40 MLOAD PUSH1 0x20 ADD PUSH2 0x992 SWAP3 SWAP2 SWAP1 PUSH2 0x4BDD JUMP JUMPDEST PUSH1 0x40 MLOAD PUSH1 0x20 DUP2 DUP4 SUB SUB DUP2 MSTORE SWAP1 PUSH1 0x40 MSTORE SWAP1 POP PUSH2 0x9AC DUP2 PUSH2 0x3BB6 JUMP JUMPDEST POP POP POP JUMP JUMPDEST PUSH1 0x0 PUSH4 0x150B7A02 PUSH1 0xE0 SHL SWAP1 POP SWAP5 SWAP4 POP POP POP POP JUMP JUMPDEST PUSH1 0x4 PUSH1 0x20 MSTORE DUP1 PUSH1 0x0 MSTORE PUSH1 0x40 PUSH1 0x0 KECCAK256 PUSH1 0x0 SWAP2 POP SWAP1 POP DUP1 PUSH1 0x0 ADD SLOAD SWAP1 DUP1 PUSH1 0x1 ADD SLOAD SWAP1 DUP1 PUSH1 0x2 ADD PUSH1 0x0 SWAP1 SLOAD SWAP1 PUSH2 0x100 EXP SWAP1 DIV PUSH1 0xFF AND SWAP1 DUP1 PUSH1 0x2 ADD PUSH1 0x1 SWAP1 SLOAD SWAP1 PUSH2 0x100 EXP SWAP1 DIV PUSH20 0xFFFFFFFFFFFFFFFFFFFFFFFFFFFFFFFFFFFFFFFF AND SWAP1 POP DUP5 JUMP JUMPDEST PUSH1 0x0 PUSH1 0x14 SWAP1 SLOAD SWAP1 PUSH2 0x100 EXP SWAP1 DIV PUSH1 0xFF AND DUP2 JUMP JUMPDEST PUSH32 0x0 PUSH20 0xFFFFFFFFFFFFFFFFFFFFFFFFFFFFFFFFFFFFFFFF AND PUSH2 0xA74 PUSH2 0x3C44 JUMP JUMPDEST PUSH20 0xFFFFFFFFFFFFFFFFFFFFFFFFFFFFFFFFFFFFFFFF AND EQ PUSH2 0xACA JUMPI PUSH1 0x40 MLOAD PUSH32 0x8C379A000000000000000000000000000000000000000000000000000000000 DUP2 MSTORE PUSH1 0x4 ADD PUSH2 0xAC1 SWAP1 PUSH2 0x4C89 JUMP JUMPDEST PUSH1 0x40 MLOAD DUP1 SWAP2 SUB SWAP1 REVERT JUMPDEST PUSH1 0x0 PUSH1 0x2 DUP2 GT ISZERO PUSH2 0xADE JUMPI PUSH2 0xADD PUSH2 0x440A JUMP JUMPDEST JUMPDEST PUSH1 0x0 PUSH1 0x14 SWAP1 SLOAD SWAP1 PUSH2 0x100 EXP SWAP1 DIV PUSH1 0xFF AND PUSH1 0x2 DUP2 GT ISZERO PUSH2 0xB00 JUMPI PUSH2 0xAFF PUSH2 0x440A JUMP JUMPDEST JUMPDEST SUB PUSH2 0xB40 JUMPI PUSH1 0x40 MLOAD PUSH32 0x8C379A000000000000000000000000000000000000000000000000000000000 DUP2 MSTORE PUSH1 0x4 ADD PUSH2 0xB37 SWAP1 PUSH2 0x4D1B JUMP JUMPDEST PUSH1 0x40 MLOAD DUP1 SWAP2 SUB SWAP1 REVERT JUMPDEST PUSH1 0x0 DUP1 DUP3 DUP1 PUSH1 0x20 ADD SWAP1 MLOAD DUP2 ADD SWAP1 PUSH2 0xB57 SWAP2 SWAP1 PUSH2 0x4D8C JUMP JUMPDEST SWAP2 POP SWAP2 POP PUSH1 0x0 PUSH1 0x4 PUSH1 0x0 DUP5 PUSH4 0xFFFFFFFF AND DUP2 MSTORE PUSH1 0x20 ADD SWAP1 DUP2 MSTORE PUSH1 0x20 ADD PUSH1 0x0 KECCAK256 SWAP1 POP PUSH1 0x2 PUSH1 0x3 DUP2 GT ISZERO PUSH2 0xB8C JUMPI PUSH2 0xB8B PUSH2 0x440A JUMP JUMPDEST JUMPDEST DUP2 PUSH1 0x2 ADD PUSH1 0x0 SWAP1 SLOAD SWAP1 PUSH2 0x100 EXP SWAP1 DIV PUSH1 0xFF AND PUSH1 0x3 DUP2 GT ISZERO PUSH2 0xBB0 JUMPI PUSH2 0xBAF PUSH2 0x440A JUMP JUMPDEST JUMPDEST EQ PUSH2 0xBF0 JUMPI PUSH1 0x40 MLOAD PUSH32 0x8C379A000000000000000000000000000000000000000000000000000000000 DUP2 MSTORE PUSH1 0x4 ADD PUSH2 0xBE7 SWAP1 PUSH2 0x4E3E JUMP JUMPDEST PUSH1 0x40 MLOAD DUP1 SWAP2 SUB SWAP1 REVERT JUMPDEST DUP2 DUP2 PUSH1 0x0 ADD SLOAD SUB PUSH2 0xF0E JUMPI PUSH1 0x1 DUP2 PUSH1 0x2 ADD PUSH1 0x0 PUSH2 0x100 EXP DUP2 SLOAD DUP2 PUSH1 0xFF MUL NOT AND SWAP1 DUP4 PUSH1 0x3 DUP2 GT ISZERO PUSH2 0xC23 JUMPI PUSH2 0xC22 PUSH2 0x440A JUMP JUMPDEST JUMPDEST MUL OR SWAP1 SSTORE POP PUSH2 0xC96 PUSH1 0x1 PUSH1 0x0 DUP4 PUSH1 0x2 ADD PUSH1 0x1 SWAP1 SLOAD SWAP1 PUSH2 0x100 EXP SWAP1 DIV PUSH20 0xFFFFFFFFFFFFFFFFFFFFFFFFFFFFFFFFFFFFFFFF AND PUSH20 0xFFFFFFFFFFFFFFFFFFFFFFFFFFFFFFFFFFFFFFFF AND PUSH20 0xFFFFFFFFFFFFFFFFFFFFFFFFFFFFFFFFFFFFFFFF AND DUP2 MSTORE PUSH1 0x20 ADD SWAP1 DUP2 MSTORE PUSH1 0x20 ADD PUSH1 0x0 KECCAK256 PUSH1 0x3 ADD PUSH2 0x3C53 JUMP JUMPDEST PUSH1 0x0 PUSH2 0xD06 PUSH1 0x1 PUSH1 0x0 DUP5 PUSH1 0x2 ADD PUSH1 0x1 SWAP1 SLOAD SWAP1 PUSH2 0x100 EXP SWAP1 DIV PUSH20 0xFFFFFFFFFFFFFFFFFFFFFFFFFFFFFFFFFFFFFFFF AND PUSH20 0xFFFFFFFFFFFFFFFFFFFFFFFFFFFFFFFFFFFFFFFF AND PUSH20 0xFFFFFFFFFFFFFFFFFFFFFFFFFFFFFFFFFFFFFFFF AND DUP2 MSTORE PUSH1 0x20 ADD SWAP1 DUP2 MSTORE PUSH1 0x20 ADD PUSH1 0x0 KECCAK256 PUSH1 0x3 ADD PUSH2 0x38FF JUMP JUMPDEST EQ DUP1 ISZERO PUSH2 0xDAA JUMPI POP PUSH1 0x3 PUSH1 0x4 DUP2 GT ISZERO PUSH2 0xD22 JUMPI PUSH2 0xD21 PUSH2 0x440A JUMP JUMPDEST JUMPDEST PUSH1 0x1 PUSH1 0x0 DUP4 PUSH1 0x2 ADD PUSH1 0x1 SWAP1 SLOAD SWAP1 PUSH2 0x100 EXP SWAP1 DIV PUSH20 0xFFFFFFFFFFFFFFFFFFFFFFFFFFFFFFFFFFFFFFFF AND PUSH20 0xFFFFFFFFFFFFFFFFFFFFFFFFFFFFFFFFFFFFFFFF AND PUSH20 0xFFFFFFFFFFFFFFFFFFFFFFFFFFFFFFFFFFFFFFFF AND DUP2 MSTORE PUSH1 0x20 ADD SWAP1 DUP2 MSTORE PUSH1 0x20 ADD PUSH1 0x0 KECCAK256 PUSH1 0x0 ADD PUSH1 0x0 SWAP1 SLOAD SWAP1 PUSH2 0x100 EXP SWAP1 DIV PUSH1 0xFF AND PUSH1 0x4 DUP2 GT ISZERO PUSH2 0xDA8 JUMPI PUSH2 0xDA7 PUSH2 0x440A JUMP JUMPDEST JUMPDEST EQ JUMPDEST ISZERO PUSH2 0xE3E JUMPI PUSH1 0x1 DUP1 PUSH1 0x0 DUP4 PUSH1 0x2 ADD PUSH1 0x1 SWAP1 SLOAD SWAP1 PUSH2 0x100 EXP SWAP1 DIV PUSH20 0xFFFFFFFFFFFFFFFFFFFFFFFFFFFFFFFFFFFFFFFF AND PUSH20 0xFFFFFFFFFFFFFFFFFFFFFFFFFFFFFFFFFFFFFFFF AND PUSH20 0xFFFFFFFFFFFFFFFFFFFFFFFFFFFFFFFFFFFFFFFF AND DUP2 MSTORE PUSH1 0x20 ADD SWAP1 DUP2 MSTORE PUSH1 0x20 ADD PUSH1 0x0 KECCAK256 PUSH1 0x0 ADD PUSH1 0x0 PUSH2 0x100 EXP DUP2 SLOAD DUP2 PUSH1 0xFF MUL NOT AND SWAP1 DUP4 PUSH1 0x4 DUP2 GT ISZERO PUSH2 0xE38 JUMPI PUSH2 0xE37 PUSH2 0x440A JUMP JUMPDEST JUMPDEST MUL OR SWAP1 SSTORE POP JUMPDEST PUSH1 0x0 PUSH1 0x6 PUSH1 0x0 DUP6 PUSH4 0xFFFFFFFF AND DUP2 MSTORE PUSH1 0x20 ADD SWAP1 DUP2 MSTORE PUSH1 0x20 ADD PUSH1 0x0 KECCAK256 PUSH1 0x0 ADD PUSH1 0x14 PUSH2 0x100 EXP DUP2 SLOAD DUP2 PUSH1 0xFF MUL NOT AND SWAP1 DUP4 PUSH1 0x3 DUP2 GT ISZERO PUSH2 0xE7E JUMPI PUSH2 0xE7D PUSH2 0x440A JUMP JUMPDEST JUMPDEST MUL OR SWAP1 SSTORE POP PUSH2 0xE8D PUSH1 0x8 PUSH2 0x3C53 JUMP JUMPDEST PUSH1 0x0 PUSH2 0xE99 PUSH1 0x8 PUSH2 0x38FF JUMP JUMPDEST EQ DUP1 ISZERO PUSH2 0xED9 JUMPI POP PUSH1 0x1 PUSH1 0x2 DUP2 GT ISZERO PUSH2 0xEB5 JUMPI PUSH2 0xEB4 PUSH2 0x440A JUMP JUMPDEST JUMPDEST PUSH1 0x0 PUSH1 0x14 SWAP1 SLOAD SWAP1 PUSH2 0x100 EXP SWAP1 DIV PUSH1 0xFF AND PUSH1 0x2 DUP2 GT ISZERO PUSH2 0xED7 JUMPI PUSH2 0xED6 PUSH2 0x440A JUMP JUMPDEST JUMPDEST EQ JUMPDEST ISZERO PUSH2 0xF09 JUMPI PUSH1 0x0 DUP1 PUSH1 0x14 PUSH2 0x100 EXP DUP2 SLOAD DUP2 PUSH1 0xFF MUL NOT AND SWAP1 DUP4 PUSH1 0x2 DUP2 GT ISZERO PUSH2 0xF03 JUMPI PUSH2 0xF02 PUSH2 0x440A JUMP JUMPDEST JUMPDEST MUL OR SWAP1 SSTORE POP JUMPDEST PUSH2 0x12B3 JUMP JUMPDEST PUSH1 0x3 DUP2 PUSH1 0x2 ADD PUSH1 0x0 PUSH2 0x100 EXP DUP2 SLOAD DUP2 PUSH1 0xFF MUL NOT AND SWAP1 DUP4 PUSH1 0x3 DUP2 GT ISZERO PUSH2 0xF36 JUMPI PUSH2 0xF35 PUSH2 0x440A JUMP JUMPDEST JUMPDEST MUL OR SWAP1 SSTORE POP PUSH2 0xFA9 PUSH1 0x1 PUSH1 0x0 DUP4 PUSH1 0x2 ADD PUSH1 0x1 SWAP1 SLOAD SWAP1 PUSH2 0x100 EXP SWAP1 DIV PUSH20 0xFFFFFFFFFFFFFFFFFFFFFFFFFFFFFFFFFFFFFFFF AND PUSH20 0xFFFFFFFFFFFFFFFFFFFFFFFFFFFFFFFFFFFFFFFF AND PUSH20 0xFFFFFFFFFFFFFFFFFFFFFFFFFFFFFFFFFFFFFFFF AND DUP2 MSTORE PUSH1 0x20 ADD SWAP1 DUP2 MSTORE PUSH1 0x20 ADD PUSH1 0x0 KECCAK256 PUSH1 0x3 ADD PUSH2 0x3C53 JUMP JUMPDEST PUSH1 0x4 PUSH1 0x1 PUSH1 0x0 DUP4 PUSH1 0x2 ADD PUSH1 0x1 SWAP1 SLOAD SWAP1 PUSH2 0x100 EXP SWAP1 DIV PUSH20 0xFFFFFFFFFFFFFFFFFFFFFFFFFFFFFFFFFFFFFFFF AND PUSH20 0xFFFFFFFFFFFFFFFFFFFFFFFFFFFFFFFFFFFFFFFF AND PUSH20 0xFFFFFFFFFFFFFFFFFFFFFFFFFFFFFFFFFFFFFFFF AND DUP2 MSTORE PUSH1 0x20 ADD SWAP1 DUP2 MSTORE PUSH1 0x20 ADD PUSH1 0x0 KECCAK256 PUSH1 0x0 ADD PUSH1 0x0 PUSH2 0x100 EXP DUP2 SLOAD DUP2 PUSH1 0xFF MUL NOT AND SWAP1 DUP4 PUSH1 0x4 DUP2 GT ISZERO PUSH2 0x1033 JUMPI PUSH2 0x1032 PUSH2 0x440A JUMP JUMPDEST JUMPDEST MUL OR SWAP1 SSTORE POP PUSH1 0x1 PUSH1 0x2 DUP2 GT ISZERO PUSH2 0x104C JUMPI PUSH2 0x104B PUSH2 0x440A JUMP JUMPDEST JUMPDEST PUSH1 0x0 PUSH1 0x14 SWAP1 SLOAD SWAP1 PUSH2 0x100 EXP SWAP1 DIV PUSH1 0xFF AND PUSH1 0x2 DUP2 GT ISZERO PUSH2 0x106E JUMPI PUSH2 0x106D PUSH2 0x440A JUMP JUMPDEST JUMPDEST EQ DUP1 PUSH2 0x1081 JUMPI POP DUP3 PUSH4 0xFFFFFFFF AND PUSH1 0x9 SLOAD GT JUMPDEST ISZERO PUSH2 0x1094 JUMPI DUP3 PUSH4 0xFFFFFFFF AND PUSH1 0x9 DUP2 SWAP1 SSTORE POP JUMPDEST PUSH2 0x109E PUSH1 0x8 PUSH2 0x3C53 JUMP JUMPDEST PUSH1 0x2 PUSH1 0x0 PUSH1 0x14 PUSH2 0x100 EXP DUP2 SLOAD DUP2 PUSH1 0xFF MUL NOT AND SWAP1 DUP4 PUSH1 0x2 DUP2 GT ISZERO PUSH2 0x10C4 JUMPI PUSH2 0x10C3 PUSH2 0x440A JUMP JUMPDEST JUMPDEST MUL OR SWAP1 SSTORE POP PUSH1 0x1 PUSH1 0x3 DUP2 GT ISZERO PUSH2 0x10DD JUMPI PUSH2 0x10DC PUSH2 0x440A JUMP JUMPDEST JUMPDEST PUSH1 0x6 PUSH1 0x0 DUP6 PUSH4 0xFFFFFFFF AND DUP2 MSTORE PUSH1 0x20 ADD SWAP1 DUP2 MSTORE PUSH1 0x20 ADD PUSH1 0x0 KECCAK256 PUSH1 0x0 ADD PUSH1 0x14 SWAP1 SLOAD SWAP1 PUSH2 0x100 EXP SWAP1 DIV PUSH1 0xFF AND PUSH1 0x3 DUP2 GT ISZERO PUSH2 0x1119 JUMPI PUSH2 0x1118 PUSH2 0x440A JUMP JUMPDEST JUMPDEST SUB PUSH2 0x126D JUMPI PUSH1 0x4 PUSH32 0x0 PUSH2 0x114B SWAP2 SWAP1 PUSH2 0x4EBC JUMP JUMPDEST PUSH32 0x0 PUSH2 0x1176 SWAP2 SWAP1 PUSH2 0x4EED JUMP JUMPDEST PUSH1 0x7 PUSH1 0x0 PUSH1 0x6 PUSH1 0x0 DUP8 PUSH4 0xFFFFFFFF AND DUP2 MSTORE PUSH1 0x20 ADD SWAP1 DUP2 MSTORE PUSH1 0x20 ADD PUSH1 0x0 KECCAK256 PUSH1 0x0 ADD PUSH1 0x0 SWAP1 SLOAD SWAP1 PUSH2 0x100 EXP SWAP1 DIV PUSH20 0xFFFFFFFFFFFFFFFFFFFFFFFFFFFFFFFFFFFFFFFF AND PUSH20 0xFFFFFFFFFFFFFFFFFFFFFFFFFFFFFFFFFFFFFFFF AND PUSH20 0xFFFFFFFFFFFFFFFFFFFFFFFFFFFFFFFFFFFFFFFF AND DUP2 MSTORE PUSH1 0x20 ADD SWAP1 DUP2 MSTORE PUSH1 0x20 ADD PUSH1 0x0 KECCAK256 PUSH1 0x0 ADD PUSH1 0x0 DUP3 DUP3 SLOAD PUSH2 0x1203 SWAP2 SWAP1 PUSH2 0x4EED JUMP JUMPDEST SWAP3 POP POP DUP2 SWAP1 SSTORE POP PUSH1 0x0 PUSH1 0x7 PUSH1 0x0 PUSH2 0x1218 PUSH2 0x3CAF JUMP JUMPDEST PUSH20 0xFFFFFFFFFFFFFFFFFFFFFFFFFFFFFFFFFFFFFFFF AND PUSH20 0xFFFFFFFFFFFFFFFFFFFFFFFFFFFFFFFFFFFFFFFF AND DUP2 MSTORE PUSH1 0x20 ADD SWAP1 DUP2 MSTORE PUSH1 0x20 ADD PUSH1 0x0 KECCAK256 PUSH1 0x1 ADD PUSH1 0x0 PUSH2 0x100 EXP DUP2 SLOAD DUP2 PUSH1 0xFF MUL NOT AND SWAP1 DUP4 ISZERO ISZERO MUL OR SWAP1 SSTORE POP JUMPDEST PUSH1 0x2 PUSH1 0x6 PUSH1 0x0 DUP6 PUSH4 0xFFFFFFFF AND DUP2 MSTORE PUSH1 0x20 ADD SWAP1 DUP2 MSTORE PUSH1 0x20 ADD PUSH1 0x0 KECCAK256 PUSH1 0x0 ADD PUSH1 0x14 PUSH2 0x100 EXP DUP2 SLOAD DUP2 PUSH1 0xFF MUL NOT AND SWAP1 DUP4 PUSH1 0x3 DUP2 GT ISZERO PUSH2 0x12AD JUMPI PUSH2 0x12AC PUSH2 0x440A JUMP JUMPDEST JUMPDEST MUL OR SWAP1 SSTORE POP JUMPDEST POP POP POP POP JUMP JUMPDEST PUSH1 0x2 DUP1 DUP2 GT ISZERO PUSH2 0x12CC JUMPI PUSH2 0x12CB PUSH2 0x440A JUMP JUMPDEST JUMPDEST PUSH1 0x0 PUSH1 0x14 SWAP1 SLOAD SWAP1 PUSH2 0x100 EXP SWAP1 DIV PUSH1 0xFF AND PUSH1 0x2 DUP2 GT ISZERO PUSH2 0x12EE JUMPI PUSH2 0x12ED PUSH2 0x440A JUMP JUMPDEST JUMPDEST EQ PUSH2 0x132E JUMPI PUSH1 0x40 MLOAD PUSH32 0x8C379A000000000000000000000000000000000000000000000000000000000 DUP2 MSTORE PUSH1 0x4 ADD PUSH2 0x1325 SWAP1 PUSH2 0x4F93 JUMP JUMPDEST PUSH1 0x40 MLOAD DUP1 SWAP2 SUB SWAP1 REVERT JUMPDEST PUSH1 0x0 DUP1 PUSH1 0x14 PUSH2 0x100 EXP DUP2 SLOAD DUP2 PUSH1 0xFF MUL NOT AND SWAP1 DUP4 PUSH1 0x2 DUP2 GT ISZERO PUSH2 0x1353 JUMPI PUSH2 0x1352 PUSH2 0x440A JUMP JUMPDEST JUMPDEST MUL OR SWAP1 SSTORE POP PUSH1 0x0 PUSH1 0x9 SLOAD SWAP1 POP JUMPDEST PUSH1 0x5 SLOAD DUP2 LT ISZERO PUSH2 0x13FB JUMPI PUSH1 0x0 PUSH1 0x4 PUSH1 0x0 DUP4 DUP2 MSTORE PUSH1 0x20 ADD SWAP1 DUP2 MSTORE PUSH1 0x20 ADD PUSH1 0x0 KECCAK256 PUSH1 0x2 ADD PUSH1 0x0 PUSH2 0x100 EXP DUP2 SLOAD DUP2 PUSH1 0xFF MUL NOT AND SWAP1 DUP4 PUSH1 0x3 DUP2 GT ISZERO PUSH2 0x13A4 JUMPI PUSH2 0x13A3 PUSH2 0x440A JUMP JUMPDEST JUMPDEST MUL OR SWAP1 SSTORE POP PUSH1 0x0 PUSH1 0x6 PUSH1 0x0 DUP4 DUP2 MSTORE PUSH1 0x20 ADD SWAP1 DUP2 MSTORE PUSH1 0x20 ADD PUSH1 0x0 KECCAK256 PUSH1 0x0 ADD PUSH1 0x14 PUSH2 0x100 EXP DUP2 SLOAD DUP2 PUSH1 0xFF MUL NOT AND SWAP1 DUP4 PUSH1 0x3 DUP2 GT ISZERO PUSH2 0x13E3 JUMPI PUSH2 0x13E2 PUSH2 0x440A JUMP JUMPDEST JUMPDEST MUL OR SWAP1 SSTORE POP DUP1 DUP1 PUSH2 0x13F3 SWAP1 PUSH2 0x4FB3 JUMP JUMPDEST SWAP2 POP POP PUSH2 0x1360 JUMP JUMPDEST POP PUSH1 0x0 PUSH1 0x9 SLOAD EQ PUSH2 0x1420 JUMPI PUSH1 0x1 PUSH1 0x9 SLOAD PUSH2 0x1415 SWAP2 SWAP1 PUSH2 0x4FFB JUMP JUMPDEST PUSH1 0x5 DUP2 SWAP1 SSTORE POP PUSH2 0x1429 JUMP JUMPDEST PUSH1 0x0 PUSH1 0x5 DUP2 SWAP1 SSTORE POP JUMPDEST PUSH1 0x0 PUSH1 0x9 DUP2 SWAP1 SSTORE POP JUMP JUMPDEST PUSH32 0x0 DUP2 JUMP JUMPDEST PUSH1 0x7 PUSH1 0x20 MSTORE DUP1 PUSH1 0x0 MSTORE PUSH1 0x40 PUSH1 0x0 KECCAK256 PUSH1 0x0 SWAP2 POP SWAP1 POP DUP1 PUSH1 0x0 ADD SLOAD SWAP1 DUP1 PUSH1 0x1 ADD PUSH1 0x0 SWAP1 SLOAD SWAP1 PUSH2 0x100 EXP SWAP1 DIV PUSH1 0xFF AND SWAP1 POP DUP3 JUMP JUMPDEST PUSH1 0x0 PUSH1 0x2 DUP2 GT ISZERO PUSH2 0x149C JUMPI PUSH2 0x149B PUSH2 0x440A JUMP JUMPDEST JUMPDEST PUSH1 0x0 PUSH1 0x14 SWAP1 SLOAD SWAP1 PUSH2 0x100 EXP SWAP1 DIV PUSH1 0xFF AND PUSH1 0x2 DUP2 GT ISZERO PUSH2 0x14BE JUMPI PUSH2 0x14BD PUSH2 0x440A JUMP JUMPDEST JUMPDEST EQ PUSH2 0x14FE JUMPI PUSH1 0x40 MLOAD PUSH32 0x8C379A000000000000000000000000000000000000000000000000000000000 DUP2 MSTORE PUSH1 0x4 ADD PUSH2 0x14F5 SWAP1 PUSH2 0x50A1 JUMP JUMPDEST PUSH1 0x40 MLOAD DUP1 SWAP2 SUB SWAP1 REVERT JUMPDEST PUSH1 0x0 PUSH1 0x4 PUSH1 0x0 DUP8 DUP2 MSTORE PUSH1 0x20 ADD SWAP1 DUP2 MSTORE PUSH1 0x20 ADD PUSH1 0x0 KECCAK256 PUSH1 0x40 MLOAD DUP1 PUSH1 0x80 ADD PUSH1 0x40 MSTORE SWAP1 DUP2 PUSH1 0x0 DUP3 ADD SLOAD DUP2 MSTORE PUSH1 0x20 ADD PUSH1 0x1 DUP3 ADD SLOAD DUP2 MSTORE PUSH1 0x20 ADD PUSH1 0x2 DUP3 ADD PUSH1 0x0 SWAP1 SLOAD SWAP1 PUSH2 0x100 EXP SWAP1 DIV PUSH1 0xFF AND PUSH1 0x3 DUP2 GT ISZERO PUSH2 0x1557 JUMPI PUSH2 0x1556 PUSH2 0x440A JUMP JUMPDEST JUMPDEST PUSH1 0x3 DUP2 GT ISZERO PUSH2 0x1569 JUMPI PUSH2 0x1568 PUSH2 0x440A JUMP JUMPDEST JUMPDEST DUP2 MSTORE PUSH1 0x20 ADD PUSH1 0x2 DUP3 ADD PUSH1 0x1 SWAP1 SLOAD SWAP1 PUSH2 0x100 EXP SWAP1 DIV PUSH20 0xFFFFFFFFFFFFFFFFFFFFFFFFFFFFFFFFFFFFFFFF AND PUSH20 0xFFFFFFFFFFFFFFFFFFFFFFFFFFFFFFFFFFFFFFFF AND PUSH20 0xFFFFFFFFFFFFFFFFFFFFFFFFFFFFFFFFFFFFFFFF AND DUP2 MSTORE POP POP SWAP1 POP PUSH32 0x0 CALLVALUE EQ PUSH2 0x1627 JUMPI PUSH1 0x40 MLOAD PUSH32 0x8C379A000000000000000000000000000000000000000000000000000000000 DUP2 MSTORE PUSH1 0x4 ADD PUSH2 0x161E SWAP1 PUSH2 0x5133 JUMP JUMPDEST PUSH1 0x40 MLOAD DUP1 SWAP2 SUB SWAP1 REVERT JUMPDEST PUSH1 0x1 PUSH1 0x3 DUP2 GT ISZERO PUSH2 0x163B JUMPI PUSH2 0x163A PUSH2 0x440A JUMP JUMPDEST JUMPDEST DUP2 PUSH1 0x40 ADD MLOAD PUSH1 0x3 DUP2 GT ISZERO PUSH2 0x1652 JUMPI PUSH2 0x1651 PUSH2 0x440A JUMP JUMPDEST JUMPDEST EQ PUSH2 0x1692 JUMPI PUSH1 0x40 MLOAD PUSH32 0x8C379A000000000000000000000000000000000000000000000000000000000 DUP2 MSTORE PUSH1 0x4 ADD PUSH2 0x1689 SWAP1 PUSH2 0x51C5 JUMP JUMPDEST PUSH1 0x40 MLOAD DUP1 SWAP2 SUB SWAP1 REVERT JUMPDEST PUSH1 0x1 PUSH1 0x4 DUP2 GT ISZERO PUSH2 0x16A6 JUMPI PUSH2 0x16A5 PUSH2 0x440A JUMP JUMPDEST JUMPDEST PUSH1 0x1 PUSH1 0x0 DUP4 PUSH1 0x60 ADD MLOAD PUSH20 0xFFFFFFFFFFFFFFFFFFFFFFFFFFFFFFFFFFFFFFFF AND PUSH20 0xFFFFFFFFFFFFFFFFFFFFFFFFFFFFFFFFFFFFFFFF AND DUP2 MSTORE PUSH1 0x20 ADD SWAP1 DUP2 MSTORE PUSH1 0x20 ADD PUSH1 0x0 KECCAK256 PUSH1 0x0 ADD PUSH1 0x0 SWAP1 SLOAD SWAP1 PUSH2 0x100 EXP SWAP1 DIV PUSH1 0xFF AND PUSH1 0x4 DUP2 GT ISZERO PUSH2 0x170C JUMPI PUSH2 0x170B PUSH2 0x440A JUMP JUMPDEST JUMPDEST EQ PUSH2 0x174C JUMPI PUSH1 0x40 MLOAD PUSH32 0x8C379A000000000000000000000000000000000000000000000000000000000 DUP2 MSTORE PUSH1 0x4 ADD PUSH2 0x1743 SWAP1 PUSH2 0x5257 JUMP JUMPDEST PUSH1 0x40 MLOAD DUP1 SWAP2 SUB SWAP1 REVERT JUMPDEST PUSH2 0x175D DUP5 DUP5 DUP4 PUSH1 0x0 ADD MLOAD DUP9 DUP7 PUSH2 0x3CB7 JUMP JUMPDEST PUSH2 0x179C JUMPI PUSH1 0x40 MLOAD PUSH32 0x8C379A000000000000000000000000000000000000000000000000000000000 DUP2 MSTORE PUSH1 0x4 ADD PUSH2 0x1793 SWAP1 PUSH2 0x52E9 JUMP JUMPDEST PUSH1 0x40 MLOAD DUP1 SWAP2 SUB SWAP1 REVERT JUMPDEST PUSH2 0x17A4 PUSH2 0x3CAF JUMP JUMPDEST PUSH20 0xFFFFFFFFFFFFFFFFFFFFFFFFFFFFFFFFFFFFFFFF AND DUP6 PUSH1 0x40 ADD PUSH1 0x20 DUP2 ADD SWAP1 PUSH2 0x17CD SWAP2 SWAP1 PUSH2 0x459C JUMP JUMPDEST PUSH20 0xFFFFFFFFFFFFFFFFFFFFFFFFFFFFFFFFFFFFFFFF AND EQ PUSH2 0x1823 JUMPI PUSH1 0x40 MLOAD PUSH32 0x8C379A000000000000000000000000000000000000000000000000000000000 DUP2 MSTORE PUSH1 0x4 ADD PUSH2 0x181A SWAP1 PUSH2 0x537B JUMP JUMPDEST PUSH1 0x40 MLOAD DUP1 SWAP2 SUB SWAP1 REVERT JUMPDEST PUSH1 0x0 DUP2 PUSH1 0x60 ADD MLOAD PUSH20 0xFFFFFFFFFFFFFFFFFFFFFFFFFFFFFFFFFFFFFFFF AND PUSH32 0x0 PUSH1 0x40 MLOAD PUSH2 0x186D SWAP1 PUSH2 0x53CC JUMP JUMPDEST PUSH1 0x0 PUSH1 0x40 MLOAD DUP1 DUP4 SUB DUP2 DUP6 DUP8 GAS CALL SWAP3 POP POP POP RETURNDATASIZE DUP1 PUSH1 0x0 DUP2 EQ PUSH2 0x18AA JUMPI PUSH1 0x40 MLOAD SWAP2 POP PUSH1 0x1F NOT PUSH1 0x3F RETURNDATASIZE ADD AND DUP3 ADD PUSH1 0x40 MSTORE RETURNDATASIZE DUP3 MSTORE RETURNDATASIZE PUSH1 0x0 PUSH1 0x20 DUP5 ADD RETURNDATACOPY PUSH2 0x18AF JUMP JUMPDEST PUSH1 0x60 SWAP2 POP JUMPDEST POP POP SWAP1 POP DUP1 PUSH2 0x18F3 JUMPI PUSH1 0x40 MLOAD PUSH32 0x8C379A000000000000000000000000000000000000000000000000000000000 DUP2 MSTORE PUSH1 0x4 ADD PUSH2 0x18EA SWAP1 PUSH2 0x542D JUMP JUMPDEST PUSH1 0x40 MLOAD DUP1 SWAP2 SUB SWAP1 REVERT JUMPDEST PUSH1 0x0 PUSH20 0xFFFFFFFFFFFFFFFFFFFFFFFFFFFFFFFFFFFFFFFF AND PUSH2 0x192B DUP8 PUSH1 0x80 ADD PUSH1 0x20 DUP2 ADD SWAP1 PUSH2 0x1921 SWAP2 SWAP1 PUSH2 0x459C JUMP JUMPDEST DUP9 PUSH1 0x0 ADD CALLDATALOAD PUSH2 0x3E06 JUMP JUMPDEST PUSH20 0xFFFFFFFFFFFFFFFFFFFFFFFFFFFFFFFFFFFFFFFF AND EQ PUSH2 0x19C8 JUMPI DUP6 PUSH1 0x80 ADD PUSH1 0x20 DUP2 ADD SWAP1 PUSH2 0x1959 SWAP2 SWAP1 PUSH2 0x459C JUMP JUMPDEST PUSH20 0xFFFFFFFFFFFFFFFFFFFFFFFFFFFFFFFFFFFFFFFF AND PUSH4 0x42966C68 DUP8 PUSH1 0x0 ADD CALLDATALOAD PUSH1 0x40 MLOAD DUP3 PUSH4 0xFFFFFFFF AND PUSH1 0xE0 SHL DUP2 MSTORE PUSH1 0x4 ADD PUSH2 0x1995 SWAP2 SWAP1 PUSH2 0x4581 JUMP JUMPDEST PUSH1 0x0 PUSH1 0x40 MLOAD DUP1 DUP4 SUB DUP2 PUSH1 0x0 DUP8 DUP1 EXTCODESIZE ISZERO DUP1 ISZERO PUSH2 0x19AF JUMPI PUSH1 0x0 DUP1 REVERT JUMPDEST POP GAS CALL ISZERO DUP1 ISZERO PUSH2 0x19C3 JUMPI RETURNDATASIZE PUSH1 0x0 DUP1 RETURNDATACOPY RETURNDATASIZE PUSH1 0x0 REVERT JUMPDEST POP POP POP POP JUMPDEST DUP6 PUSH1 0x80 ADD PUSH1 0x20 DUP2 ADD SWAP1 PUSH2 0x19DB SWAP2 SWAP1 PUSH2 0x459C JUMP JUMPDEST PUSH20 0xFFFFFFFFFFFFFFFFFFFFFFFFFFFFFFFFFFFFFFFF AND PUSH4 0x40C10F19 DUP8 PUSH1 0x40 ADD PUSH1 0x20 DUP2 ADD SWAP1 PUSH2 0x1A09 SWAP2 SWAP1 PUSH2 0x459C JUMP JUMPDEST DUP9 PUSH1 0x0 ADD CALLDATALOAD PUSH1 0x40 MLOAD DUP4 PUSH4 0xFFFFFFFF AND PUSH1 0xE0 SHL DUP2 MSTORE PUSH1 0x4 ADD PUSH2 0x1A2B SWAP3 SWAP2 SWAP1 PUSH2 0x544D JUMP JUMPDEST PUSH1 0x0 PUSH1 0x40 MLOAD DUP1 DUP4 SUB DUP2 PUSH1 0x0 DUP8 DUP1 EXTCODESIZE ISZERO DUP1 ISZERO PUSH2 0x1A45 JUMPI PUSH1 0x0 DUP1 REVERT JUMPDEST POP GAS CALL ISZERO DUP1 ISZERO PUSH2 0x1A59 JUMPI RETURNDATASIZE PUSH1 0x0 DUP1 RETURNDATACOPY RETURNDATASIZE PUSH1 0x0 REVERT JUMPDEST POP POP POP POP POP POP POP POP POP POP POP JUMP JUMPDEST PUSH1 0x9 SLOAD DUP2 JUMP JUMPDEST PUSH1 0xA DUP2 DUP2 SLOAD DUP2 LT PUSH2 0x1A7C JUMPI PUSH1 0x0 DUP1 REVERT JUMPDEST SWAP1 PUSH1 0x0 MSTORE PUSH1 0x20 PUSH1 0x0 KECCAK256 ADD PUSH1 0x0 SWAP2 POP SWAP1 POP SLOAD DUP2 JUMP JUMPDEST PUSH32 0x0 DUP2 JUMP JUMPDEST PUSH1 0x1 PUSH1 0x20 MSTORE DUP1 PUSH1 0x0 MSTORE PUSH1 0x40 PUSH1 0x0 KECCAK256 PUSH1 0x0 SWAP2 POP SWAP1 POP DUP1 PUSH1 0x0 ADD PUSH1 0x0 SWAP1 SLOAD SWAP1 PUSH2 0x100 EXP SWAP1 DIV PUSH1 0xFF AND SWAP1 DUP1 PUSH1 0x1 ADD SLOAD SWAP1 DUP1 PUSH1 0x2 ADD SLOAD SWAP1 DUP1 PUSH1 0x3 ADD PUSH1 0x40 MLOAD DUP1 PUSH1 0x20 ADD PUSH1 0x40 MSTORE SWAP1 DUP2 PUSH1 0x0 DUP3 ADD SLOAD DUP2 MSTORE POP POP SWAP1 POP DUP5 JUMP JUMPDEST PUSH1 0x0 PUSH1 0x2 DUP2 GT ISZERO PUSH2 0x1B19 JUMPI PUSH2 0x1B18 PUSH2 0x440A JUMP JUMPDEST JUMPDEST PUSH1 0x0 PUSH1 0x14 SWAP1 SLOAD SWAP1 PUSH2 0x100 EXP SWAP1 DIV PUSH1 0xFF AND PUSH1 0x2 DUP2 GT ISZERO PUSH2 0x1B3B JUMPI PUSH2 0x1B3A PUSH2 0x440A JUMP JUMPDEST JUMPDEST EQ PUSH2 0x1B7B JUMPI PUSH1 0x40 MLOAD PUSH32 0x8C379A000000000000000000000000000000000000000000000000000000000 DUP2 MSTORE PUSH1 0x4 ADD PUSH2 0x1B72 SWAP1 PUSH2 0x50A1 JUMP JUMPDEST PUSH1 0x40 MLOAD DUP1 SWAP2 SUB SWAP1 REVERT JUMPDEST PUSH1 0x0 PUSH1 0x7 PUSH1 0x0 PUSH2 0x1B89 PUSH2 0x3CAF JUMP JUMPDEST PUSH20 0xFFFFFFFFFFFFFFFFFFFFFFFFFFFFFFFFFFFFFFFF AND PUSH20 0xFFFFFFFFFFFFFFFFFFFFFFFFFFFFFFFFFFFFFFFF AND DUP2 MSTORE PUSH1 0x20 ADD SWAP1 DUP2 MSTORE PUSH1 0x20 ADD PUSH1 0x0 KECCAK256 PUSH1 0x0 ADD SLOAD SUB PUSH2 0x1C07 JUMPI PUSH1 0x40 MLOAD PUSH32 0x8C379A000000000000000000000000000000000000000000000000000000000 DUP2 MSTORE PUSH1 0x4 ADD PUSH2 0x1BFE SWAP1 PUSH2 0x54C2 JUMP JUMPDEST PUSH1 0x40 MLOAD DUP1 SWAP2 SUB SWAP1 REVERT JUMPDEST PUSH1 0x7 PUSH1 0x0 PUSH2 0x1C13 PUSH2 0x3CAF JUMP JUMPDEST PUSH20 0xFFFFFFFFFFFFFFFFFFFFFFFFFFFFFFFFFFFFFFFF AND PUSH20 0xFFFFFFFFFFFFFFFFFFFFFFFFFFFFFFFFFFFFFFFF AND DUP2 MSTORE PUSH1 0x20 ADD SWAP1 DUP2 MSTORE PUSH1 0x20 ADD PUSH1 0x0 KECCAK256 PUSH1 0x1 ADD PUSH1 0x0 SWAP1 SLOAD SWAP1 PUSH2 0x100 EXP SWAP1 DIV PUSH1 0xFF AND ISZERO PUSH2 0x1C9E JUMPI PUSH1 0x40 MLOAD PUSH32 0x8C379A000000000000000000000000000000000000000000000000000000000 DUP2 MSTORE PUSH1 0x4 ADD PUSH2 0x1C95 SWAP1 PUSH2 0x5554 JUMP JUMPDEST PUSH1 0x40 MLOAD DUP1 SWAP2 SUB SWAP1 REVERT JUMPDEST PUSH1 0x1 PUSH1 0x7 PUSH1 0x0 PUSH2 0x1CAC PUSH2 0x3CAF JUMP JUMPDEST PUSH20 0xFFFFFFFFFFFFFFFFFFFFFFFFFFFFFFFFFFFFFFFF AND PUSH20 0xFFFFFFFFFFFFFFFFFFFFFFFFFFFFFFFFFFFFFFFF AND DUP2 MSTORE PUSH1 0x20 ADD SWAP1 DUP2 MSTORE PUSH1 0x20 ADD PUSH1 0x0 KECCAK256 PUSH1 0x1 ADD PUSH1 0x0 PUSH2 0x100 EXP DUP2 SLOAD DUP2 PUSH1 0xFF MUL NOT AND SWAP1 DUP4 ISZERO ISZERO MUL OR SWAP1 SSTORE POP PUSH1 0x0 PUSH2 0x1D0A PUSH2 0x3CAF JUMP JUMPDEST PUSH20 0xFFFFFFFFFFFFFFFFFFFFFFFFFFFFFFFFFFFFFFFF AND PUSH1 0x7 PUSH1 0x0 PUSH2 0x1D2C PUSH2 0x3CAF JUMP JUMPDEST PUSH20 0xFFFFFFFFFFFFFFFFFFFFFFFFFFFFFFFFFFFFFFFF AND PUSH20 0xFFFFFFFFFFFFFFFFFFFFFFFFFFFFFFFFFFFFFFFF AND DUP2 MSTORE PUSH1 0x20 ADD SWAP1 DUP2 MSTORE PUSH1 0x20 ADD PUSH1 0x0 KECCAK256 PUSH1 0x0 ADD SLOAD PUSH1 0x40 MLOAD PUSH2 0x1D76 SWAP1 PUSH2 0x53CC JUMP JUMPDEST PUSH1 0x0 PUSH1 0x40 MLOAD DUP1 DUP4 SUB DUP2 DUP6 DUP8 GAS CALL SWAP3 POP POP POP RETURNDATASIZE DUP1 PUSH1 0x0 DUP2 EQ PUSH2 0x1DB3 JUMPI PUSH1 0x40 MLOAD SWAP2 POP PUSH1 0x1F NOT PUSH1 0x3F RETURNDATASIZE ADD AND DUP3 ADD PUSH1 0x40 MSTORE RETURNDATASIZE DUP3 MSTORE RETURNDATASIZE PUSH1 0x0 PUSH1 0x20 DUP5 ADD RETURNDATACOPY PUSH2 0x1DB8 JUMP JUMPDEST PUSH1 0x60 SWAP2 POP JUMPDEST POP POP SWAP1 POP DUP1 PUSH2 0x1DFC JUMPI PUSH1 0x40 MLOAD PUSH32 0x8C379A000000000000000000000000000000000000000000000000000000000 DUP2 MSTORE PUSH1 0x4 ADD PUSH2 0x1DF3 SWAP1 PUSH2 0x542D JUMP JUMPDEST PUSH1 0x40 MLOAD DUP1 SWAP2 SUB SWAP1 REVERT JUMPDEST PUSH1 0x0 PUSH1 0x7 PUSH1 0x0 PUSH2 0x1E0A PUSH2 0x3CAF JUMP JUMPDEST PUSH20 0xFFFFFFFFFFFFFFFFFFFFFFFFFFFFFFFFFFFFFFFF AND PUSH20 0xFFFFFFFFFFFFFFFFFFFFFFFFFFFFFFFFFFFFFFFF AND DUP2 MSTORE PUSH1 0x20 ADD SWAP1 DUP2 MSTORE PUSH1 0x20 ADD PUSH1 0x0 KECCAK256 PUSH1 0x0 ADD DUP2 SWAP1 SSTORE POP POP JUMP JUMPDEST PUSH1 0x0 PUSH1 0x2 DUP2 GT ISZERO PUSH2 0x1E62 JUMPI PUSH2 0x1E61 PUSH2 0x440A JUMP JUMPDEST JUMPDEST PUSH1 0x0 PUSH1 0x14 SWAP1 SLOAD SWAP1 PUSH2 0x100 EXP SWAP1 DIV PUSH1 0xFF AND PUSH1 0x2 DUP2 GT ISZERO PUSH2 0x1E84 JUMPI PUSH2 0x1E83 PUSH2 0x440A JUMP JUMPDEST JUMPDEST EQ PUSH2 0x1EC4 JUMPI PUSH1 0x40 MLOAD PUSH32 0x8C379A000000000000000000000000000000000000000000000000000000000 DUP2 MSTORE PUSH1 0x4 ADD PUSH2 0x1EBB SWAP1 PUSH2 0x50A1 JUMP JUMPDEST PUSH1 0x40 MLOAD DUP1 SWAP2 SUB SWAP1 REVERT JUMPDEST PUSH1 0x1 PUSH1 0x0 PUSH2 0x1ED0 PUSH2 0x3CAF JUMP JUMPDEST PUSH20 0xFFFFFFFFFFFFFFFFFFFFFFFFFFFFFFFFFFFFFFFF AND PUSH20 0xFFFFFFFFFFFFFFFFFFFFFFFFFFFFFFFFFFFFFFFF AND DUP2 MSTORE PUSH1 0x20 ADD SWAP1 DUP2 MSTORE PUSH1 0x20 ADD PUSH1 0x0 KECCAK256 PUSH1 0x0 ADD PUSH1 0x0 SWAP1 SLOAD SWAP1 PUSH2 0x100 EXP SWAP1 DIV PUSH1 0xFF AND PUSH1 0x4 DUP2 GT ISZERO PUSH2 0x1F2D JUMPI PUSH2 0x1F2C PUSH2 0x440A JUMP JUMPDEST JUMPDEST PUSH1 0x1 PUSH1 0x4 DUP2 GT ISZERO PUSH2 0x1F41 JUMPI PUSH2 0x1F40 PUSH2 0x440A JUMP JUMPDEST JUMPDEST EQ PUSH2 0x1F81 JUMPI PUSH1 0x40 MLOAD PUSH32 0x8C379A000000000000000000000000000000000000000000000000000000000 DUP2 MSTORE PUSH1 0x4 ADD PUSH2 0x1F78 SWAP1 PUSH2 0x55E6 JUMP JUMPDEST PUSH1 0x40 MLOAD DUP1 SWAP2 SUB SWAP1 REVERT JUMPDEST PUSH1 0x40 MLOAD DUP1 PUSH1 0x80 ADD PUSH1 0x40 MSTORE DUP1 DUP3 DUP2 MSTORE PUSH1 0x20 ADD TIMESTAMP DUP2 MSTORE PUSH1 0x20 ADD PUSH1 0x1 PUSH1 0x3 DUP2 GT ISZERO PUSH2 0x1FAC JUMPI PUSH2 0x1FAB PUSH2 0x440A JUMP JUMPDEST JUMPDEST DUP2 MSTORE PUSH1 0x20 ADD PUSH2 0x1FB9 PUSH2 0x3CAF JUMP JUMPDEST PUSH20 0xFFFFFFFFFFFFFFFFFFFFFFFFFFFFFFFFFFFFFFFF AND DUP2 MSTORE POP PUSH1 0x4 PUSH1 0x0 PUSH1 0x5 SLOAD DUP2 MSTORE PUSH1 0x20 ADD SWAP1 DUP2 MSTORE PUSH1 0x20 ADD PUSH1 0x0 KECCAK256 PUSH1 0x0 DUP3 ADD MLOAD DUP2 PUSH1 0x0 ADD SSTORE PUSH1 0x20 DUP3 ADD MLOAD DUP2 PUSH1 0x1 ADD SSTORE PUSH1 0x40 DUP3 ADD MLOAD DUP2 PUSH1 0x2 ADD PUSH1 0x0 PUSH2 0x100 EXP DUP2 SLOAD DUP2 PUSH1 0xFF MUL NOT AND SWAP1 DUP4 PUSH1 0x3 DUP2 GT ISZERO PUSH2 0x2026 JUMPI PUSH2 0x2025 PUSH2 0x440A JUMP JUMPDEST JUMPDEST MUL OR SWAP1 SSTORE POP PUSH1 0x60 DUP3 ADD MLOAD DUP2 PUSH1 0x2 ADD PUSH1 0x1 PUSH2 0x100 EXP DUP2 SLOAD DUP2 PUSH20 0xFFFFFFFFFFFFFFFFFFFFFFFFFFFFFFFFFFFFFFFF MUL NOT AND SWAP1 DUP4 PUSH20 0xFFFFFFFFFFFFFFFFFFFFFFFFFFFFFFFFFFFFFFFF AND MUL OR SWAP1 SSTORE POP SWAP1 POP POP PUSH1 0x5 PUSH1 0x0 DUP2 SLOAD DUP1 SWAP3 SWAP2 SWAP1 PUSH2 0x2088 SWAP1 PUSH2 0x4FB3 JUMP JUMPDEST SWAP2 SWAP1 POP SSTORE POP POP JUMP JUMPDEST PUSH1 0x0 PUSH1 0xA PUSH1 0x1 PUSH1 0xA DUP1 SLOAD SWAP1 POP PUSH2 0x20A6 SWAP2 SWAP1 PUSH2 0x4FFB JUMP JUMPDEST DUP2 SLOAD DUP2 LT PUSH2 0x20B7 JUMPI PUSH2 0x20B6 PUSH2 0x5606 JUMP JUMPDEST JUMPDEST SWAP1 PUSH1 0x0 MSTORE PUSH1 0x20 PUSH1 0x0 KECCAK256 ADD SLOAD SWAP1 POP SWAP1 JUMP JUMPDEST PUSH32 0x0 DUP2 JUMP JUMPDEST PUSH2 0x210E DUP4 DUP4 PUSH1 0x4 PUSH1 0x0 DUP10 DUP2 MSTORE PUSH1 0x20 ADD SWAP1 DUP2 MSTORE PUSH1 0x20 ADD PUSH1 0x0 KECCAK256 PUSH1 0x0 ADD SLOAD DUP8 DUP6 PUSH2 0x3CB7 JUMP JUMPDEST PUSH2 0x214D JUMPI PUSH1 0x40 MLOAD PUSH32 0x8C379A000000000000000000000000000000000000000000000000000000000 DUP2 MSTORE PUSH1 0x4 ADD PUSH2 0x2144 SWAP1 PUSH2 0x56A7 JUMP JUMPDEST PUSH1 0x40 MLOAD DUP1 SWAP2 SUB SWAP1 REVERT JUMPDEST PUSH2 0x2155 PUSH2 0x3CAF JUMP JUMPDEST PUSH20 0xFFFFFFFFFFFFFFFFFFFFFFFFFFFFFFFFFFFFFFFF AND DUP5 PUSH1 0x80 ADD PUSH1 0x20 DUP2 ADD SWAP1 PUSH2 0x217E SWAP2 SWAP1 PUSH2 0x459C JUMP JUMPDEST PUSH20 0xFFFFFFFFFFFFFFFFFFFFFFFFFFFFFFFFFFFFFFFF AND PUSH4 0x6352211E DUP7 PUSH1 0x0 ADD CALLDATALOAD PUSH1 0x40 MLOAD DUP3 PUSH4 0xFFFFFFFF AND PUSH1 0xE0 SHL DUP2 MSTORE PUSH1 0x4 ADD PUSH2 0x21BA SWAP2 SWAP1 PUSH2 0x4581 JUMP JUMPDEST PUSH1 0x20 PUSH1 0x40 MLOAD DUP1 DUP4 SUB DUP2 DUP7 GAS STATICCALL ISZERO DUP1 ISZERO PUSH2 0x21D7 JUMPI RETURNDATASIZE PUSH1 0x0 DUP1 RETURNDATACOPY RETURNDATASIZE PUSH1 0x0 REVERT JUMPDEST POP POP POP POP PUSH1 0x40 MLOAD RETURNDATASIZE PUSH1 0x1F NOT PUSH1 0x1F DUP3 ADD AND DUP3 ADD DUP1 PUSH1 0x40 MSTORE POP DUP2 ADD SWAP1 PUSH2 0x21FB SWAP2 SWAP1 PUSH2 0x56DC JUMP JUMPDEST PUSH20 0xFFFFFFFFFFFFFFFFFFFFFFFFFFFFFFFFFFFFFFFF AND EQ PUSH2 0x2251 JUMPI PUSH1 0x40 MLOAD PUSH32 0x8C379A000000000000000000000000000000000000000000000000000000000 DUP2 MSTORE PUSH1 0x4 ADD PUSH2 0x2248 SWAP1 PUSH2 0x577B JUMP JUMPDEST PUSH1 0x40 MLOAD DUP1 SWAP2 SUB SWAP1 REVERT JUMPDEST TIMESTAMP PUSH2 0x3840 PUSH1 0x4 PUSH1 0x0 DUP9 DUP2 MSTORE PUSH1 0x20 ADD SWAP1 DUP2 MSTORE PUSH1 0x20 ADD PUSH1 0x0 KECCAK256 PUSH1 0x1 ADD SLOAD PUSH2 0x2276 SWAP2 SWAP1 PUSH2 0x4EED JUMP JUMPDEST LT PUSH2 0x22B6 JUMPI PUSH1 0x40 MLOAD PUSH32 0x8C379A000000000000000000000000000000000000000000000000000000000 DUP2 MSTORE PUSH1 0x4 ADD PUSH2 0x22AD SWAP1 PUSH2 0x580D JUMP JUMPDEST PUSH1 0x40 MLOAD DUP1 SWAP2 SUB SWAP1 REVERT JUMPDEST DUP4 PUSH1 0x80 ADD PUSH1 0x20 DUP2 ADD SWAP1 PUSH2 0x22C9 SWAP2 SWAP1 PUSH2 0x459C JUMP JUMPDEST PUSH20 0xFFFFFFFFFFFFFFFFFFFFFFFFFFFFFFFFFFFFFFFF AND PUSH4 0x42966C68 DUP6 PUSH1 0x0 ADD CALLDATALOAD PUSH1 0x40 MLOAD DUP3 PUSH4 0xFFFFFFFF AND PUSH1 0xE0 SHL DUP2 MSTORE PUSH1 0x4 ADD PUSH2 0x2305 SWAP2 SWAP1 PUSH2 0x4581 JUMP JUMPDEST PUSH1 0x0 PUSH1 0x40 MLOAD DUP1 DUP4 SUB DUP2 PUSH1 0x0 DUP8 DUP1 EXTCODESIZE ISZERO DUP1 ISZERO PUSH2 0x231F JUMPI PUSH1 0x0 DUP1 REVERT JUMPDEST POP GAS CALL ISZERO DUP1 ISZERO PUSH2 0x2333 JUMPI RETURNDATASIZE PUSH1 0x0 DUP1 RETURNDATACOPY RETURNDATASIZE PUSH1 0x0 REVERT JUMPDEST POP POP POP POP PUSH1 0x2 PUSH1 0x0 PUSH2 0x2345 PUSH1 0x3 PUSH2 0x38FF JUMP JUMPDEST DUP2 MSTORE PUSH1 0x20 ADD SWAP1 DUP2 MSTORE PUSH1 0x20 ADD PUSH1 0x0 KECCAK256 PUSH1 0x0 ADD PUSH1 0x40 MLOAD DUP1 PUSH1 0xA0 ADD PUSH1 0x40 MSTORE DUP1 DUP7 PUSH1 0x0 ADD CALLDATALOAD DUP2 MSTORE PUSH1 0x20 ADD PUSH2 0x2373 PUSH2 0x3CAF JUMP JUMPDEST PUSH20 0xFFFFFFFFFFFFFFFFFFFFFFFFFFFFFFFFFFFFFFFF AND DUP2 MSTORE PUSH1 0x20 ADD DUP9 PUSH20 0xFFFFFFFFFFFFFFFFFFFFFFFFFFFFFFFFFFFFFFFF AND DUP2 MSTORE PUSH1 0x20 ADD DUP7 PUSH1 0x60 ADD PUSH1 0x20 DUP2 ADD SWAP1 PUSH2 0x23BD SWAP2 SWAP1 PUSH2 0x459C JUMP JUMPDEST PUSH20 0xFFFFFFFFFFFFFFFFFFFFFFFFFFFFFFFFFFFFFFFF AND DUP2 MSTORE PUSH1 0x20 ADD DUP7 PUSH1 0x80 ADD PUSH1 0x20 DUP2 ADD SWAP1 PUSH2 0x23EB SWAP2 SWAP1 PUSH2 0x459C JUMP JUMPDEST PUSH20 0xFFFFFFFFFFFFFFFFFFFFFFFFFFFFFFFFFFFFFFFF AND DUP2 MSTORE POP SWAP1 DUP1 PUSH1 0x1 DUP2 SLOAD ADD DUP1 DUP3 SSTORE DUP1 SWAP2 POP POP PUSH1 0x1 SWAP1 SUB SWAP1 PUSH1 0x0 MSTORE PUSH1 0x20 PUSH1 0x0 KECCAK256 SWAP1 PUSH1 0x5 MUL ADD PUSH1 0x0 SWAP1 SWAP2 SWAP1 SWAP2 SWAP1 SWAP2 POP PUSH1 0x0 DUP3 ADD MLOAD DUP2 PUSH1 0x0 ADD SSTORE PUSH1 0x20 DUP3 ADD MLOAD DUP2 PUSH1 0x1 ADD PUSH1 0x0 PUSH2 0x100 EXP DUP2 SLOAD DUP2 PUSH20 0xFFFFFFFFFFFFFFFFFFFFFFFFFFFFFFFFFFFFFFFF MUL NOT AND SWAP1 DUP4 PUSH20 0xFFFFFFFFFFFFFFFFFFFFFFFFFFFFFFFFFFFFFFFF AND MUL OR SWAP1 SSTORE POP PUSH1 0x40 DUP3 ADD MLOAD DUP2 PUSH1 0x2 ADD PUSH1 0x0 PUSH2 0x100 EXP DUP2 SLOAD DUP2 PUSH20 0xFFFFFFFFFFFFFFFFFFFFFFFFFFFFFFFFFFFFFFFF MUL NOT AND SWAP1 DUP4 PUSH20 0xFFFFFFFFFFFFFFFFFFFFFFFFFFFFFFFFFFFFFFFF AND MUL OR SWAP1 SSTORE POP PUSH1 0x60 DUP3 ADD MLOAD DUP2 PUSH1 0x3 ADD PUSH1 0x0 PUSH2 0x100 EXP DUP2 SLOAD DUP2 PUSH20 0xFFFFFFFFFFFFFFFFFFFFFFFFFFFFFFFFFFFFFFFF MUL NOT AND SWAP1 DUP4 PUSH20 0xFFFFFFFFFFFFFFFFFFFFFFFFFFFFFFFFFFFFFFFF AND MUL OR SWAP1 SSTORE POP PUSH1 0x80 DUP3 ADD MLOAD DUP2 PUSH1 0x4 ADD PUSH1 0x0 PUSH2 0x100 EXP DUP2 SLOAD DUP2 PUSH20 0xFFFFFFFFFFFFFFFFFFFFFFFFFFFFFFFFFFFFFFFF MUL NOT AND SWAP1 DUP4 PUSH20 0xFFFFFFFFFFFFFFFFFFFFFFFFFFFFFFFFFFFFFFFF AND MUL OR SWAP1 SSTORE POP POP POP PUSH32 0x0 PUSH1 0x2 PUSH1 0x0 PUSH2 0x2584 PUSH1 0x3 PUSH2 0x38FF JUMP JUMPDEST DUP2 MSTORE PUSH1 0x20 ADD SWAP1 DUP2 MSTORE PUSH1 0x20 ADD PUSH1 0x0 KECCAK256 PUSH1 0x0 ADD DUP1 SLOAD SWAP1 POP SUB PUSH2 0x25A9 JUMPI PUSH2 0x25A8 PUSH1 0x3 PUSH2 0x3ED1 JUMP JUMPDEST JUMPDEST POP POP POP POP POP POP JUMP JUMPDEST PUSH2 0x25B9 PUSH2 0x3EE7 JUMP JUMPDEST PUSH2 0x25C3 PUSH1 0x0 PUSH2 0x3F65 JUMP JUMPDEST JUMP JUMPDEST PUSH1 0x0 PUSH1 0x2 DUP2 GT ISZERO PUSH2 0x25D9 JUMPI PUSH2 0x25D8 PUSH2 0x440A JUMP JUMPDEST JUMPDEST PUSH1 0x0 PUSH1 0x14 SWAP1 SLOAD SWAP1 PUSH2 0x100 EXP SWAP1 DIV PUSH1 0xFF AND PUSH1 0x2 DUP2 GT ISZERO PUSH2 0x25FB JUMPI PUSH2 0x25FA PUSH2 0x440A JUMP JUMPDEST JUMPDEST EQ PUSH2 0x263B JUMPI PUSH1 0x40 MLOAD PUSH32 0x8C379A000000000000000000000000000000000000000000000000000000000 DUP2 MSTORE PUSH1 0x4 ADD PUSH2 0x2632 SWAP1 PUSH2 0x50A1 JUMP JUMPDEST PUSH1 0x40 MLOAD DUP1 SWAP2 SUB SWAP1 REVERT JUMPDEST PUSH1 0x1 PUSH1 0x0 PUSH2 0x2647 PUSH2 0x3CAF JUMP JUMPDEST PUSH20 0xFFFFFFFFFFFFFFFFFFFFFFFFFFFFFFFFFFFFFFFF AND PUSH20 0xFFFFFFFFFFFFFFFFFFFFFFFFFFFFFFFFFFFFFFFF AND DUP2 MSTORE PUSH1 0x20 ADD SWAP1 DUP2 MSTORE PUSH1 0x20 ADD PUSH1 0x0 KECCAK256 PUSH1 0x0 ADD PUSH1 0x0 SWAP1 SLOAD SWAP1 PUSH2 0x100 EXP SWAP1 DIV PUSH1 0xFF AND PUSH1 0x4 DUP2 GT ISZERO PUSH2 0x26A4 JUMPI PUSH2 0x26A3 PUSH2 0x440A JUMP JUMPDEST JUMPDEST PUSH1 0x2 PUSH1 0x4 DUP2 GT ISZERO PUSH2 0x26B8 JUMPI PUSH2 0x26B7 PUSH2 0x440A JUMP JUMPDEST JUMPDEST EQ PUSH2 0x26F8 JUMPI PUSH1 0x40 MLOAD PUSH32 0x8C379A000000000000000000000000000000000000000000000000000000000 DUP2 MSTORE PUSH1 0x4 ADD PUSH2 0x26EF SWAP1 PUSH2 0x589F JUMP JUMPDEST PUSH1 0x40 MLOAD DUP1 SWAP2 SUB SWAP1 REVERT JUMPDEST PUSH32 0x0 PUSH1 0x1 PUSH1 0x0 PUSH2 0x2725 PUSH2 0x3CAF JUMP JUMPDEST PUSH20 0xFFFFFFFFFFFFFFFFFFFFFFFFFFFFFFFFFFFFFFFF AND PUSH20 0xFFFFFFFFFFFFFFFFFFFFFFFFFFFFFFFFFFFFFFFF AND DUP2 MSTORE PUSH1 0x20 ADD SWAP1 DUP2 MSTORE PUSH1 0x20 ADD PUSH1 0x0 KECCAK256 PUSH1 0x1 ADD SLOAD PUSH2 0x276D SWAP2 SWAP1 PUSH2 0x4EED JUMP JUMPDEST TIMESTAMP GT PUSH2 0x27AE JUMPI PUSH1 0x40 MLOAD PUSH32 0x8C379A000000000000000000000000000000000000000000000000000000000 DUP2 MSTORE PUSH1 0x4 ADD PUSH2 0x27A5 SWAP1 PUSH2 0x5931 JUMP JUMPDEST PUSH1 0x40 MLOAD DUP1 SWAP2 SUB SWAP1 REVERT JUMPDEST PUSH1 0x0 PUSH2 0x27B8 PUSH2 0x3CAF JUMP JUMPDEST PUSH20 0xFFFFFFFFFFFFFFFFFFFFFFFFFFFFFFFFFFFFFFFF AND PUSH32 0x0 PUSH1 0x40 MLOAD PUSH2 0x27FB SWAP1 PUSH2 0x53CC JUMP JUMPDEST PUSH1 0x0 PUSH1 0x40 MLOAD DUP1 DUP4 SUB DUP2 DUP6 DUP8 GAS CALL SWAP3 POP POP POP RETURNDATASIZE DUP1 PUSH1 0x0 DUP2 EQ PUSH2 0x2838 JUMPI PUSH1 0x40 MLOAD SWAP2 POP PUSH1 0x1F NOT PUSH1 0x3F RETURNDATASIZE ADD AND DUP3 ADD PUSH1 0x40 MSTORE RETURNDATASIZE DUP3 MSTORE RETURNDATASIZE PUSH1 0x0 PUSH1 0x20 DUP5 ADD RETURNDATACOPY PUSH2 0x283D JUMP JUMPDEST PUSH1 0x60 SWAP2 POP JUMPDEST POP POP SWAP1 POP DUP1 PUSH2 0x2881 JUMPI PUSH1 0x40 MLOAD PUSH32 0x8C379A000000000000000000000000000000000000000000000000000000000 DUP2 MSTORE PUSH1 0x4 ADD PUSH2 0x2878 SWAP1 PUSH2 0x542D JUMP JUMPDEST PUSH1 0x40 MLOAD DUP1 SWAP2 SUB SWAP1 REVERT JUMPDEST PUSH1 0x0 PUSH1 0x1 PUSH1 0x0 PUSH2 0x288F PUSH2 0x3CAF JUMP JUMPDEST PUSH20 0xFFFFFFFFFFFFFFFFFFFFFFFFFFFFFFFFFFFFFFFF AND PUSH20 0xFFFFFFFFFFFFFFFFFFFFFFFFFFFFFFFFFFFFFFFF AND DUP2 MSTORE PUSH1 0x20 ADD SWAP1 DUP2 MSTORE PUSH1 0x20 ADD PUSH1 0x0 KECCAK256 PUSH1 0x0 ADD PUSH1 0x0 PUSH2 0x100 EXP DUP2 SLOAD DUP2 PUSH1 0xFF MUL NOT AND SWAP1 DUP4 PUSH1 0x4 DUP2 GT ISZERO PUSH2 0x28EE JUMPI PUSH2 0x28ED PUSH2 0x440A JUMP JUMPDEST JUMPDEST MUL OR SWAP1 SSTORE POP POP JUMP JUMPDEST PUSH2 0x2ACC PUSH1 0x2 PUSH1 0x0 DUP4 DUP2 MSTORE PUSH1 0x20 ADD SWAP1 DUP2 MSTORE PUSH1 0x20 ADD PUSH1 0x0 KECCAK256 PUSH1 0x0 ADD DUP1 SLOAD DUP1 PUSH1 0x20 MUL PUSH1 0x20 ADD PUSH1 0x40 MLOAD SWAP1 DUP2 ADD PUSH1 0x40 MSTORE DUP1 SWAP3 SWAP2 SWAP1 DUP2 DUP2 MSTORE PUSH1 0x20 ADD PUSH1 0x0 SWAP1 JUMPDEST DUP3 DUP3 LT ISZERO PUSH2 0x2AC3 JUMPI DUP4 DUP3 SWAP1 PUSH1 0x0 MSTORE PUSH1 0x20 PUSH1 0x0 KECCAK256 SWAP1 PUSH1 0x5 MUL ADD PUSH1 0x40 MLOAD DUP1 PUSH1 0xA0 ADD PUSH1 0x40 MSTORE SWAP1 DUP2 PUSH1 0x0 DUP3 ADD SLOAD DUP2 MSTORE PUSH1 0x20 ADD PUSH1 0x1 DUP3 ADD PUSH1 0x0 SWAP1 SLOAD SWAP1 PUSH2 0x100 EXP SWAP1 DIV PUSH20 0xFFFFFFFFFFFFFFFFFFFFFFFFFFFFFFFFFFFFFFFF AND PUSH20 0xFFFFFFFFFFFFFFFFFFFFFFFFFFFFFFFFFFFFFFFF AND PUSH20 0xFFFFFFFFFFFFFFFFFFFFFFFFFFFFFFFFFFFFFFFF AND DUP2 MSTORE PUSH1 0x20 ADD PUSH1 0x2 DUP3 ADD PUSH1 0x0 SWAP1 SLOAD SWAP1 PUSH2 0x100 EXP SWAP1 DIV PUSH20 0xFFFFFFFFFFFFFFFFFFFFFFFFFFFFFFFFFFFFFFFF AND PUSH20 0xFFFFFFFFFFFFFFFFFFFFFFFFFFFFFFFFFFFFFFFF AND PUSH20 0xFFFFFFFFFFFFFFFFFFFFFFFFFFFFFFFFFFFFFFFF AND DUP2 MSTORE PUSH1 0x20 ADD PUSH1 0x3 DUP3 ADD PUSH1 0x0 SWAP1 SLOAD SWAP1 PUSH2 0x100 EXP SWAP1 DIV PUSH20 0xFFFFFFFFFFFFFFFFFFFFFFFFFFFFFFFFFFFFFFFF AND PUSH20 0xFFFFFFFFFFFFFFFFFFFFFFFFFFFFFFFFFFFFFFFF AND PUSH20 0xFFFFFFFFFFFFFFFFFFFFFFFFFFFFFFFFFFFFFFFF AND DUP2 MSTORE PUSH1 0x20 ADD PUSH1 0x4 DUP3 ADD PUSH1 0x0 SWAP1 SLOAD SWAP1 PUSH2 0x100 EXP SWAP1 DIV PUSH20 0xFFFFFFFFFFFFFFFFFFFFFFFFFFFFFFFFFFFFFFFF AND PUSH20 0xFFFFFFFFFFFFFFFFFFFFFFFFFFFFFFFFFFFFFFFF AND PUSH20 0xFFFFFFFFFFFFFFFFFFFFFFFFFFFFFFFFFFFFFFFF AND DUP2 MSTORE POP POP DUP2 MSTORE PUSH1 0x20 ADD SWAP1 PUSH1 0x1 ADD SWAP1 PUSH2 0x292F JUMP JUMPDEST POP POP POP POP PUSH2 0x3689 JUMP JUMPDEST POP JUMP JUMPDEST PUSH1 0x0 DUP1 PUSH1 0x0 SWAP1 SLOAD SWAP1 PUSH2 0x100 EXP SWAP1 DIV PUSH20 0xFFFFFFFFFFFFFFFFFFFFFFFFFFFFFFFFFFFFFFFF AND SWAP1 POP SWAP1 JUMP JUMPDEST PUSH32 0x0 DUP2 JUMP JUMPDEST PUSH1 0x0 PUSH1 0x2 DUP2 GT ISZERO PUSH2 0x2B30 JUMPI PUSH2 0x2B2F PUSH2 0x440A JUMP JUMPDEST JUMPDEST PUSH1 0x0 PUSH1 0x14 SWAP1 SLOAD SWAP1 PUSH2 0x100 EXP SWAP1 DIV PUSH1 0xFF AND PUSH1 0x2 DUP2 GT ISZERO PUSH2 0x2B52 JUMPI PUSH2 0x2B51 PUSH2 0x440A JUMP JUMPDEST JUMPDEST EQ PUSH2 0x2B92 JUMPI PUSH1 0x40 MLOAD PUSH32 0x8C379A000000000000000000000000000000000000000000000000000000000 DUP2 MSTORE PUSH1 0x4 ADD PUSH2 0x2B89 SWAP1 PUSH2 0x50A1 JUMP JUMPDEST PUSH1 0x40 MLOAD DUP1 SWAP2 SUB SWAP1 REVERT JUMPDEST PUSH1 0x1 PUSH1 0x0 PUSH2 0x2B9E PUSH2 0x3CAF JUMP JUMPDEST PUSH20 0xFFFFFFFFFFFFFFFFFFFFFFFFFFFFFFFFFFFFFFFF AND PUSH20 0xFFFFFFFFFFFFFFFFFFFFFFFFFFFFFFFFFFFFFFFF AND DUP2 MSTORE PUSH1 0x20 ADD SWAP1 DUP2 MSTORE PUSH1 0x20 ADD PUSH1 0x0 KECCAK256 PUSH1 0x0 ADD PUSH1 0x0 SWAP1 SLOAD SWAP1 PUSH2 0x100 EXP SWAP1 DIV PUSH1 0xFF AND PUSH1 0x4 DUP2 GT ISZERO PUSH2 0x2BFB JUMPI PUSH2 0x2BFA PUSH2 0x440A JUMP JUMPDEST JUMPDEST PUSH1 0x0 PUSH1 0x4 DUP2 GT ISZERO PUSH2 0x2C0F JUMPI PUSH2 0x2C0E PUSH2 0x440A JUMP JUMPDEST JUMPDEST EQ PUSH2 0x2C4F JUMPI PUSH1 0x40 MLOAD PUSH32 0x8C379A000000000000000000000000000000000000000000000000000000000 DUP2 MSTORE PUSH1 0x4 ADD PUSH2 0x2C46 SWAP1 PUSH2 0x59C3 JUMP JUMPDEST PUSH1 0x40 MLOAD DUP1 SWAP2 SUB SWAP1 REVERT JUMPDEST PUSH32 0x0 CALLVALUE EQ PUSH2 0x2CB1 JUMPI PUSH1 0x40 MLOAD PUSH32 0x8C379A000000000000000000000000000000000000000000000000000000000 DUP2 MSTORE PUSH1 0x4 ADD PUSH2 0x2CA8 SWAP1 PUSH2 0x5A55 JUMP JUMPDEST PUSH1 0x40 MLOAD DUP1 SWAP2 SUB SWAP1 REVERT JUMPDEST PUSH1 0x1 DUP1 PUSH1 0x0 PUSH2 0x2CBE PUSH2 0x3CAF JUMP JUMPDEST PUSH20 0xFFFFFFFFFFFFFFFFFFFFFFFFFFFFFFFFFFFFFFFF AND PUSH20 0xFFFFFFFFFFFFFFFFFFFFFFFFFFFFFFFFFFFFFFFF AND DUP2 MSTORE PUSH1 0x20 ADD SWAP1 DUP2 MSTORE PUSH1 0x20 ADD PUSH1 0x0 KECCAK256 PUSH1 0x0 ADD PUSH1 0x0 PUSH2 0x100 EXP DUP2 SLOAD DUP2 PUSH1 0xFF MUL NOT AND SWAP1 DUP4 PUSH1 0x4 DUP2 GT ISZERO PUSH2 0x2D1D JUMPI PUSH2 0x2D1C PUSH2 0x440A JUMP JUMPDEST JUMPDEST MUL OR SWAP1 SSTORE POP CALLVALUE PUSH1 0x1 PUSH1 0x0 PUSH2 0x2D2F PUSH2 0x3CAF JUMP JUMPDEST PUSH20 0xFFFFFFFFFFFFFFFFFFFFFFFFFFFFFFFFFFFFFFFF AND PUSH20 0xFFFFFFFFFFFFFFFFFFFFFFFFFFFFFFFFFFFFFFFF AND DUP2 MSTORE PUSH1 0x20 ADD SWAP1 DUP2 MSTORE PUSH1 0x20 ADD PUSH1 0x0 KECCAK256 PUSH1 0x2 ADD DUP2 SWAP1 SSTORE POP JUMP JUMPDEST PUSH1 0x6 PUSH1 0x20 MSTORE DUP1 PUSH1 0x0 MSTORE PUSH1 0x40 PUSH1 0x0 KECCAK256 PUSH1 0x0 SWAP2 POP SWAP1 POP DUP1 PUSH1 0x0 ADD PUSH1 0x0 SWAP1 SLOAD SWAP1 PUSH2 0x100 EXP SWAP1 DIV PUSH20 0xFFFFFFFFFFFFFFFFFFFFFFFFFFFFFFFFFFFFFFFF AND SWAP1 DUP1 PUSH1 0x0 ADD PUSH1 0x14 SWAP1 SLOAD SWAP1 PUSH2 0x100 EXP SWAP1 DIV PUSH1 0xFF AND SWAP1 POP DUP3 JUMP JUMPDEST PUSH1 0x8 DUP1 PUSH1 0x0 ADD SLOAD SWAP1 POP DUP2 JUMP JUMPDEST PUSH2 0x2DD7 PUSH2 0x4029 JUMP JUMPDEST PUSH1 0x2 PUSH1 0x0 DUP5 DUP2 MSTORE PUSH1 0x20 ADD SWAP1 DUP2 MSTORE PUSH1 0x20 ADD PUSH1 0x0 KECCAK256 PUSH1 0x0 ADD DUP3 DUP2 SLOAD DUP2 LT PUSH2 0x2DFF JUMPI PUSH2 0x2DFE PUSH2 0x5606 JUMP JUMPDEST JUMPDEST SWAP1 PUSH1 0x0 MSTORE PUSH1 0x20 PUSH1 0x0 KECCAK256 SWAP1 PUSH1 0x5 MUL ADD PUSH1 0x40 MLOAD DUP1 PUSH1 0xA0 ADD PUSH1 0x40 MSTORE SWAP1 DUP2 PUSH1 0x0 DUP3 ADD SLOAD DUP2 MSTORE PUSH1 0x20 ADD PUSH1 0x1 DUP3 ADD PUSH1 0x0 SWAP1 SLOAD SWAP1 PUSH2 0x100 EXP SWAP1 DIV PUSH20 0xFFFFFFFFFFFFFFFFFFFFFFFFFFFFFFFFFFFFFFFF AND PUSH20 0xFFFFFFFFFFFFFFFFFFFFFFFFFFFFFFFFFFFFFFFF AND PUSH20 0xFFFFFFFFFFFFFFFFFFFFFFFFFFFFFFFFFFFFFFFF AND DUP2 MSTORE PUSH1 0x20 ADD PUSH1 0x2 DUP3 ADD PUSH1 0x0 SWAP1 SLOAD SWAP1 PUSH2 0x100 EXP SWAP1 DIV PUSH20 0xFFFFFFFFFFFFFFFFFFFFFFFFFFFFFFFFFFFFFFFF AND PUSH20 0xFFFFFFFFFFFFFFFFFFFFFFFFFFFFFFFFFFFFFFFF AND PUSH20 0xFFFFFFFFFFFFFFFFFFFFFFFFFFFFFFFFFFFFFFFF AND DUP2 MSTORE PUSH1 0x20 ADD PUSH1 0x3 DUP3 ADD PUSH1 0x0 SWAP1 SLOAD SWAP1 PUSH2 0x100 EXP SWAP1 DIV PUSH20 0xFFFFFFFFFFFFFFFFFFFFFFFFFFFFFFFFFFFFFFFF AND PUSH20 0xFFFFFFFFFFFFFFFFFFFFFFFFFFFFFFFFFFFFFFFF AND PUSH20 0xFFFFFFFFFFFFFFFFFFFFFFFFFFFFFFFFFFFFFFFF AND DUP2 MSTORE PUSH1 0x20 ADD PUSH1 0x4 DUP3 ADD PUSH1 0x0 SWAP1 SLOAD SWAP1 PUSH2 0x100 EXP SWAP1 DIV PUSH20 0xFFFFFFFFFFFFFFFFFFFFFFFFFFFFFFFFFFFFFFFF AND PUSH20 0xFFFFFFFFFFFFFFFFFFFFFFFFFFFFFFFFFFFFFFFF AND PUSH20 0xFFFFFFFFFFFFFFFFFFFFFFFFFFFFFFFFFFFFFFFF AND DUP2 MSTORE POP POP SWAP1 POP SWAP3 SWAP2 POP POP JUMP JUMPDEST PUSH1 0x3 DUP1 PUSH1 0x0 ADD SLOAD SWAP1 POP DUP2 JUMP JUMPDEST PUSH1 0x0 PUSH1 0x2 DUP2 GT ISZERO PUSH2 0x2FA2 JUMPI PUSH2 0x2FA1 PUSH2 0x440A JUMP JUMPDEST JUMPDEST PUSH1 0x0 PUSH1 0x14 SWAP1 SLOAD SWAP1 PUSH2 0x100 EXP SWAP1 DIV PUSH1 0xFF AND PUSH1 0x2 DUP2 GT ISZERO PUSH2 0x2FC4 JUMPI PUSH2 0x2FC3 PUSH2 0x440A JUMP JUMPDEST JUMPDEST EQ PUSH2 0x3004 JUMPI PUSH1 0x40 MLOAD PUSH32 0x8C379A000000000000000000000000000000000000000000000000000000000 DUP2 MSTORE PUSH1 0x4 ADD PUSH2 0x2FFB SWAP1 PUSH2 0x50A1 JUMP JUMPDEST PUSH1 0x40 MLOAD DUP1 SWAP2 SUB SWAP1 REVERT JUMPDEST PUSH1 0x1 PUSH1 0x0 PUSH2 0x3010 PUSH2 0x3CAF JUMP JUMPDEST PUSH20 0xFFFFFFFFFFFFFFFFFFFFFFFFFFFFFFFFFFFFFFFF AND PUSH20 0xFFFFFFFFFFFFFFFFFFFFFFFFFFFFFFFFFFFFFFFF AND DUP2 MSTORE PUSH1 0x20 ADD SWAP1 DUP2 MSTORE PUSH1 0x20 ADD PUSH1 0x0 KECCAK256 PUSH1 0x0 ADD PUSH1 0x0 SWAP1 SLOAD SWAP1 PUSH2 0x100 EXP SWAP1 DIV PUSH1 0xFF AND PUSH1 0x4 DUP2 GT ISZERO PUSH2 0x306D JUMPI PUSH2 0x306C PUSH2 0x440A JUMP JUMPDEST JUMPDEST PUSH1 0x1 PUSH1 0x4 DUP2 GT ISZERO PUSH2 0x3081 JUMPI PUSH2 0x3080 PUSH2 0x440A JUMP JUMPDEST JUMPDEST EQ PUSH2 0x30C1 JUMPI PUSH1 0x40 MLOAD PUSH32 0x8C379A000000000000000000000000000000000000000000000000000000000 DUP2 MSTORE PUSH1 0x4 ADD PUSH2 0x30B8 SWAP1 PUSH2 0x55E6 JUMP JUMPDEST PUSH1 0x40 MLOAD DUP1 SWAP2 SUB SWAP1 REVERT JUMPDEST PUSH1 0x2 PUSH1 0x1 PUSH1 0x0 PUSH2 0x30CF PUSH2 0x3CAF JUMP JUMPDEST PUSH20 0xFFFFFFFFFFFFFFFFFFFFFFFFFFFFFFFFFFFFFFFF AND PUSH20 0xFFFFFFFFFFFFFFFFFFFFFFFFFFFFFFFFFFFFFFFF AND DUP2 MSTORE PUSH1 0x20 ADD SWAP1 DUP2 MSTORE PUSH1 0x20 ADD PUSH1 0x0 KECCAK256 PUSH1 0x0 ADD PUSH1 0x0 PUSH2 0x100 EXP DUP2 SLOAD DUP2 PUSH1 0xFF MUL NOT AND SWAP1 DUP4 PUSH1 0x4 DUP2 GT ISZERO PUSH2 0x312E JUMPI PUSH2 0x312D PUSH2 0x440A JUMP JUMPDEST JUMPDEST MUL OR SWAP1 SSTORE POP TIMESTAMP PUSH1 0x1 PUSH1 0x0 PUSH2 0x3140 PUSH2 0x3CAF JUMP JUMPDEST PUSH20 0xFFFFFFFFFFFFFFFFFFFFFFFFFFFFFFFFFFFFFFFF AND PUSH20 0xFFFFFFFFFFFFFFFFFFFFFFFFFFFFFFFFFFFFFFFF AND DUP2 MSTORE PUSH1 0x20 ADD SWAP1 DUP2 MSTORE PUSH1 0x20 ADD PUSH1 0x0 KECCAK256 PUSH1 0x1 ADD DUP2 SWAP1 SSTORE POP JUMP JUMPDEST PUSH32 0x0 CALLVALUE EQ PUSH2 0x31E5 JUMPI PUSH1 0x40 MLOAD PUSH32 0x8C379A000000000000000000000000000000000000000000000000000000000 DUP2 MSTORE PUSH1 0x4 ADD PUSH2 0x31DC SWAP1 PUSH2 0x5AE7 JUMP JUMPDEST PUSH1 0x40 MLOAD DUP1 SWAP2 SUB SWAP1 REVERT JUMPDEST PUSH1 0x1 PUSH1 0x3 DUP2 GT ISZERO PUSH2 0x31F9 JUMPI PUSH2 0x31F8 PUSH2 0x440A JUMP JUMPDEST JUMPDEST PUSH1 0x4 PUSH1 0x0 DUP4 DUP2 MSTORE PUSH1 0x20 ADD SWAP1 DUP2 MSTORE PUSH1 0x20 ADD PUSH1 0x0 KECCAK256 PUSH1 0x2 ADD PUSH1 0x0 SWAP1 SLOAD SWAP1 PUSH2 0x100 EXP SWAP1 DIV PUSH1 0xFF AND PUSH1 0x3 DUP2 GT ISZERO PUSH2 0x322F JUMPI PUSH2 0x322E PUSH2 0x440A JUMP JUMPDEST JUMPDEST EQ PUSH2 0x326F JUMPI PUSH1 0x40 MLOAD PUSH32 0x8C379A000000000000000000000000000000000000000000000000000000000 DUP2 MSTORE PUSH1 0x4 ADD PUSH2 0x3266 SWAP1 PUSH2 0x5B79 JUMP JUMPDEST PUSH1 0x40 MLOAD DUP1 SWAP2 SUB SWAP1 REVERT JUMPDEST TIMESTAMP PUSH2 0x3840 PUSH1 0x4 PUSH1 0x0 DUP5 DUP2 MSTORE PUSH1 0x20 ADD SWAP1 DUP2 MSTORE PUSH1 0x20 ADD PUSH1 0x0 KECCAK256 PUSH1 0x1 ADD SLOAD PUSH2 0x3294 SWAP2 SWAP1 PUSH2 0x4EED JUMP JUMPDEST GT PUSH2 0x32D4 JUMPI PUSH1 0x40 MLOAD PUSH32 0x8C379A000000000000000000000000000000000000000000000000000000000 DUP2 MSTORE PUSH1 0x4 ADD PUSH2 0x32CB SWAP1 PUSH2 0x5C0B JUMP JUMPDEST PUSH1 0x40 MLOAD DUP1 SWAP2 SUB SWAP1 REVERT JUMPDEST PUSH1 0x0 PUSH1 0x3 DUP2 GT ISZERO PUSH2 0x32E8 JUMPI PUSH2 0x32E7 PUSH2 0x440A JUMP JUMPDEST JUMPDEST PUSH1 0x6 PUSH1 0x0 DUP4 DUP2 MSTORE PUSH1 0x20 ADD SWAP1 DUP2 MSTORE PUSH1 0x20 ADD PUSH1 0x0 KECCAK256 PUSH1 0x0 ADD PUSH1 0x14 SWAP1 SLOAD SWAP1 PUSH2 0x100 EXP SWAP1 DIV PUSH1 0xFF AND PUSH1 0x3 DUP2 GT ISZERO PUSH2 0x331E JUMPI PUSH2 0x331D PUSH2 0x440A JUMP JUMPDEST JUMPDEST EQ PUSH2 0x335E JUMPI PUSH1 0x40 MLOAD PUSH32 0x8C379A000000000000000000000000000000000000000000000000000000000 DUP2 MSTORE PUSH1 0x4 ADD PUSH2 0x3355 SWAP1 PUSH2 0x5C9D JUMP JUMPDEST PUSH1 0x40 MLOAD DUP1 SWAP2 SUB SWAP1 REVERT JUMPDEST PUSH1 0x2 DUP1 DUP2 GT ISZERO PUSH2 0x3371 JUMPI PUSH2 0x3370 PUSH2 0x440A JUMP JUMPDEST JUMPDEST PUSH1 0x0 PUSH1 0x14 SWAP1 SLOAD SWAP1 PUSH2 0x100 EXP SWAP1 DIV PUSH1 0xFF AND PUSH1 0x2 DUP2 GT ISZERO PUSH2 0x3393 JUMPI PUSH2 0x3392 PUSH2 0x440A JUMP JUMPDEST JUMPDEST SUB PUSH2 0x33D3 JUMPI PUSH1 0x40 MLOAD PUSH32 0x8C379A000000000000000000000000000000000000000000000000000000000 DUP2 MSTORE PUSH1 0x4 ADD PUSH2 0x33CA SWAP1 PUSH2 0x5D2F JUMP JUMPDEST PUSH1 0x40 MLOAD DUP1 SWAP2 SUB SWAP1 REVERT JUMPDEST PUSH1 0x1 PUSH1 0x0 PUSH1 0x14 PUSH2 0x100 EXP DUP2 SLOAD DUP2 PUSH1 0xFF MUL NOT AND SWAP1 DUP4 PUSH1 0x2 DUP2 GT ISZERO PUSH2 0x33F9 JUMPI PUSH2 0x33F8 PUSH2 0x440A JUMP JUMPDEST JUMPDEST MUL OR SWAP1 SSTORE POP PUSH2 0x3408 PUSH1 0x8 PUSH2 0x3ED1 JUMP JUMPDEST PUSH1 0x2 PUSH1 0x4 PUSH1 0x0 DUP4 DUP2 MSTORE PUSH1 0x20 ADD SWAP1 DUP2 MSTORE PUSH1 0x20 ADD PUSH1 0x0 KECCAK256 PUSH1 0x2 ADD PUSH1 0x0 PUSH2 0x100 EXP DUP2 SLOAD DUP2 PUSH1 0xFF MUL NOT AND SWAP1 DUP4 PUSH1 0x3 DUP2 GT ISZERO PUSH2 0x3442 JUMPI PUSH2 0x3441 PUSH2 0x440A JUMP JUMPDEST JUMPDEST MUL OR SWAP1 SSTORE POP PUSH2 0x344F PUSH2 0x3CAF JUMP JUMPDEST PUSH1 0x6 PUSH1 0x0 DUP4 DUP2 MSTORE PUSH1 0x20 ADD SWAP1 DUP2 MSTORE PUSH1 0x20 ADD PUSH1 0x0 KECCAK256 PUSH1 0x0 ADD PUSH1 0x0 PUSH2 0x100 EXP DUP2 SLOAD DUP2 PUSH20 0xFFFFFFFFFFFFFFFFFFFFFFFFFFFFFFFFFFFFFFFF MUL NOT AND SWAP1 DUP4 PUSH20 0xFFFFFFFFFFFFFFFFFFFFFFFFFFFFFFFFFFFFFFFF AND MUL OR SWAP1 SSTORE POP PUSH1 0x1 PUSH1 0x6 PUSH1 0x0 DUP4 DUP2 MSTORE PUSH1 0x20 ADD SWAP1 DUP2 MSTORE PUSH1 0x20 ADD PUSH1 0x0 KECCAK256 PUSH1 0x0 ADD PUSH1 0x14 PUSH2 0x100 EXP DUP2 SLOAD DUP2 PUSH1 0xFF MUL NOT AND SWAP1 DUP4 PUSH1 0x3 DUP2 GT ISZERO PUSH2 0x34DD JUMPI PUSH2 0x34DC PUSH2 0x440A JUMP JUMPDEST JUMPDEST MUL OR SWAP1 SSTORE POP PUSH2 0x3562 PUSH1 0x1 PUSH1 0x0 PUSH1 0x4 PUSH1 0x0 DUP6 DUP2 MSTORE PUSH1 0x20 ADD SWAP1 DUP2 MSTORE PUSH1 0x20 ADD PUSH1 0x0 KECCAK256 PUSH1 0x2 ADD PUSH1 0x1 SWAP1 SLOAD SWAP1 PUSH2 0x100 EXP SWAP1 DIV PUSH20 0xFFFFFFFFFFFFFFFFFFFFFFFFFFFFFFFFFFFFFFFF AND PUSH20 0xFFFFFFFFFFFFFFFFFFFFFFFFFFFFFFFFFFFFFFFF AND PUSH20 0xFFFFFFFFFFFFFFFFFFFFFFFFFFFFFFFFFFFFFFFF AND DUP2 MSTORE PUSH1 0x20 ADD SWAP1 DUP2 MSTORE PUSH1 0x20 ADD PUSH1 0x0 KECCAK256 PUSH1 0x3 ADD PUSH2 0x3ED1 JUMP JUMPDEST PUSH1 0x3 PUSH1 0x1 PUSH1 0x0 PUSH1 0x4 PUSH1 0x0 DUP6 DUP2 MSTORE PUSH1 0x20 ADD SWAP1 DUP2 MSTORE PUSH1 0x20 ADD PUSH1 0x0 KECCAK256 PUSH1 0x2 ADD PUSH1 0x1 SWAP1 SLOAD SWAP1 PUSH2 0x100 EXP SWAP1 DIV PUSH20 0xFFFFFFFFFFFFFFFFFFFFFFFFFFFFFFFFFFFFFFFF AND PUSH20 0xFFFFFFFFFFFFFFFFFFFFFFFFFFFFFFFFFFFFFFFF AND PUSH20 0xFFFFFFFFFFFFFFFFFFFFFFFFFFFFFFFFFFFFFFFF AND DUP2 MSTORE PUSH1 0x20 ADD SWAP1 DUP2 MSTORE PUSH1 0x20 ADD PUSH1 0x0 KECCAK256 PUSH1 0x0 ADD PUSH1 0x0 PUSH2 0x100 EXP DUP2 SLOAD DUP2 PUSH1 0xFF MUL NOT AND SWAP1 DUP4 PUSH1 0x4 DUP2 GT ISZERO PUSH2 0x35FE JUMPI PUSH2 0x35FD PUSH2 0x440A JUMP JUMPDEST JUMPDEST MUL OR SWAP1 SSTORE POP POP JUMP JUMPDEST PUSH2 0x360E PUSH2 0x3EE7 JUMP JUMPDEST PUSH1 0x0 PUSH20 0xFFFFFFFFFFFFFFFFFFFFFFFFFFFFFFFFFFFFFFFF AND DUP2 PUSH20 0xFFFFFFFFFFFFFFFFFFFFFFFFFFFFFFFFFFFFFFFF AND SUB PUSH2 0x367D JUMPI PUSH1 0x40 MLOAD PUSH32 0x8C379A000000000000000000000000000000000000000000000000000000000 DUP2 MSTORE PUSH1 0x4 ADD PUSH2 0x3674 SWAP1 PUSH2 0x5DC1 JUMP JUMPDEST PUSH1 0x40 MLOAD DUP1 SWAP2 SUB SWAP1 REVERT JUMPDEST PUSH2 0x3686 DUP2 PUSH2 0x3F65 JUMP JUMPDEST POP JUMP JUMPDEST PUSH1 0xA PUSH1 0x0 PUSH2 0x3697 SWAP2 SWAP1 PUSH2 0x40B0 JUMP JUMPDEST PUSH1 0x0 JUMPDEST DUP2 MLOAD DUP2 LT ISZERO PUSH2 0x37A3 JUMPI PUSH1 0xA DUP3 DUP3 DUP2 MLOAD DUP2 LT PUSH2 0x36B8 JUMPI PUSH2 0x36B7 PUSH2 0x5606 JUMP JUMPDEST JUMPDEST PUSH1 0x20 MUL PUSH1 0x20 ADD ADD MLOAD PUSH1 0x0 ADD MLOAD DUP4 DUP4 DUP2 MLOAD DUP2 LT PUSH2 0x36D7 JUMPI PUSH2 0x36D6 PUSH2 0x5606 JUMP JUMPDEST JUMPDEST PUSH1 0x20 MUL PUSH1 0x20 ADD ADD MLOAD PUSH1 0x20 ADD MLOAD DUP5 DUP5 DUP2 MLOAD DUP2 LT PUSH2 0x36F6 JUMPI PUSH2 0x36F5 PUSH2 0x5606 JUMP JUMPDEST JUMPDEST PUSH1 0x20 MUL PUSH1 0x20 ADD ADD MLOAD PUSH1 0x40 ADD MLOAD DUP6 DUP6 DUP2 MLOAD DUP2 LT PUSH2 0x3715 JUMPI PUSH2 0x3714 PUSH2 0x5606 JUMP JUMPDEST JUMPDEST PUSH1 0x20 MUL PUSH1 0x20 ADD ADD MLOAD PUSH1 0x60 ADD MLOAD DUP7 DUP7 DUP2 MLOAD DUP2 LT PUSH2 0x3734 JUMPI PUSH2 0x3733 PUSH2 0x5606 JUMP JUMPDEST JUMPDEST PUSH1 0x20 MUL PUSH1 0x20 ADD ADD MLOAD PUSH1 0x80 ADD MLOAD PUSH1 0x40 MLOAD PUSH1 0x20 ADD PUSH2 0x3754 SWAP6 SWAP5 SWAP4 SWAP3 SWAP2 SWAP1 PUSH2 0x5DE1 JUMP JUMPDEST PUSH1 0x40 MLOAD PUSH1 0x20 DUP2 DUP4 SUB SUB DUP2 MSTORE SWAP1 PUSH1 0x40 MSTORE DUP1 MLOAD SWAP1 PUSH1 0x20 ADD KECCAK256 SWAP1 DUP1 PUSH1 0x1 DUP2 SLOAD ADD DUP1 DUP3 SSTORE DUP1 SWAP2 POP POP PUSH1 0x1 SWAP1 SUB SWAP1 PUSH1 0x0 MSTORE PUSH1 0x20 PUSH1 0x0 KECCAK256 ADD PUSH1 0x0 SWAP1 SWAP2 SWAP1 SWAP2 SWAP1 SWAP2 POP SSTORE DUP1 DUP1 PUSH2 0x379B SWAP1 PUSH2 0x4FB3 JUMP JUMPDEST SWAP2 POP POP PUSH2 0x369A JUMP JUMPDEST POP PUSH1 0x0 DUP2 MLOAD SWAP1 POP PUSH1 0x0 JUMPDEST PUSH1 0x0 DUP3 GT ISZERO PUSH2 0x38B2 JUMPI PUSH1 0x0 JUMPDEST PUSH1 0x1 DUP4 PUSH2 0x37C6 SWAP2 SWAP1 PUSH2 0x4FFB JUMP JUMPDEST DUP2 LT ISZERO PUSH2 0x388F JUMPI PUSH1 0xA DUP1 DUP3 DUP5 PUSH2 0x37DC SWAP2 SWAP1 PUSH2 0x4EED JUMP JUMPDEST DUP2 SLOAD DUP2 LT PUSH2 0x37ED JUMPI PUSH2 0x37EC PUSH2 0x5606 JUMP JUMPDEST JUMPDEST SWAP1 PUSH1 0x0 MSTORE PUSH1 0x20 PUSH1 0x0 KECCAK256 ADD SLOAD PUSH1 0xA PUSH1 0x1 DUP5 DUP7 PUSH2 0x3808 SWAP2 SWAP1 PUSH2 0x4EED JUMP JUMPDEST PUSH2 0x3812 SWAP2 SWAP1 PUSH2 0x4EED JUMP JUMPDEST DUP2 SLOAD DUP2 LT PUSH2 0x3823 JUMPI PUSH2 0x3822 PUSH2 0x5606 JUMP JUMPDEST JUMPDEST SWAP1 PUSH1 0x0 MSTORE PUSH1 0x20 PUSH1 0x0 KECCAK256 ADD SLOAD PUSH1 0x40 MLOAD PUSH1 0x20 ADD PUSH2 0x383F SWAP3 SWAP2 SWAP1 PUSH2 0x5E55 JUMP JUMPDEST PUSH1 0x40 MLOAD PUSH1 0x20 DUP2 DUP4 SUB SUB DUP2 MSTORE SWAP1 PUSH1 0x40 MSTORE DUP1 MLOAD SWAP1 PUSH1 0x20 ADD KECCAK256 SWAP1 DUP1 PUSH1 0x1 DUP2 SLOAD ADD DUP1 DUP3 SSTORE DUP1 SWAP2 POP POP PUSH1 0x1 SWAP1 SUB SWAP1 PUSH1 0x0 MSTORE PUSH1 0x20 PUSH1 0x0 KECCAK256 ADD PUSH1 0x0 SWAP1 SWAP2 SWAP1 SWAP2 SWAP1 SWAP2 POP SSTORE PUSH1 0x2 DUP2 PUSH2 0x3888 SWAP2 SWAP1 PUSH2 0x4EED JUMP JUMPDEST SWAP1 POP PUSH2 0x37B9 JUMP JUMPDEST POP DUP2 DUP2 PUSH2 0x389C SWAP2 SWAP1 PUSH2 0x4EED JUMP JUMPDEST SWAP1 POP PUSH1 0x2 DUP3 PUSH2 0x38AB SWAP2 SWAP1 PUSH2 0x4EBC JUMP JUMPDEST SWAP2 POP PUSH2 0x37AD JUMP JUMPDEST POP POP POP JUMP JUMPDEST PUSH32 0x0 DUP2 JUMP JUMPDEST PUSH32 0x0 DUP2 JUMP JUMPDEST PUSH1 0x0 DUP2 PUSH1 0x0 ADD SLOAD SWAP1 POP SWAP2 SWAP1 POP JUMP JUMPDEST PUSH1 0x0 DUP1 DUP3 MLOAD PUSH8 0xFFFFFFFFFFFFFFFF DUP2 GT ISZERO PUSH2 0x392B JUMPI PUSH2 0x392A PUSH2 0x41DE JUMP JUMPDEST JUMPDEST PUSH1 0x40 MLOAD SWAP1 DUP1 DUP3 MSTORE DUP1 PUSH1 0x20 MUL PUSH1 0x20 ADD DUP3 ADD PUSH1 0x40 MSTORE DUP1 ISZERO PUSH2 0x3959 JUMPI DUP2 PUSH1 0x20 ADD PUSH1 0x20 DUP3 MUL DUP1 CALLDATASIZE DUP4 CALLDATACOPY DUP1 DUP3 ADD SWAP2 POP POP SWAP1 POP JUMPDEST POP SWAP1 POP PUSH1 0x0 DUP1 JUMPDEST DUP5 MLOAD DUP2 LT ISZERO PUSH2 0x3A72 JUMPI DUP5 DUP2 DUP2 MLOAD DUP2 LT PUSH2 0x397C JUMPI PUSH2 0x397B PUSH2 0x5606 JUMP JUMPDEST JUMPDEST PUSH1 0x20 MUL PUSH1 0x20 ADD ADD MLOAD PUSH1 0x0 ADD MLOAD DUP6 DUP3 DUP2 MLOAD DUP2 LT PUSH2 0x399B JUMPI PUSH2 0x399A PUSH2 0x5606 JUMP JUMPDEST JUMPDEST PUSH1 0x20 MUL PUSH1 0x20 ADD ADD MLOAD PUSH1 0x20 ADD MLOAD DUP7 DUP4 DUP2 MLOAD DUP2 LT PUSH2 0x39BA JUMPI PUSH2 0x39B9 PUSH2 0x5606 JUMP JUMPDEST JUMPDEST PUSH1 0x20 MUL PUSH1 0x20 ADD ADD MLOAD PUSH1 0x40 ADD MLOAD DUP8 DUP5 DUP2 MLOAD DUP2 LT PUSH2 0x39D9 JUMPI PUSH2 0x39D8 PUSH2 0x5606 JUMP JUMPDEST JUMPDEST PUSH1 0x20 MUL PUSH1 0x20 ADD ADD MLOAD PUSH1 0x60 ADD MLOAD DUP9 DUP6 DUP2 MLOAD DUP2 LT PUSH2 0x39F8 JUMPI PUSH2 0x39F7 PUSH2 0x5606 JUMP JUMPDEST JUMPDEST PUSH1 0x20 MUL PUSH1 0x20 ADD ADD MLOAD PUSH1 0x80 ADD MLOAD PUSH1 0x40 MLOAD PUSH1 0x20 ADD PUSH2 0x3A18 SWAP6 SWAP5 SWAP4 SWAP3 SWAP2 SWAP1 PUSH2 0x5DE1 JUMP JUMPDEST PUSH1 0x40 MLOAD PUSH1 0x20 DUP2 DUP4 SUB SUB DUP2 MSTORE SWAP1 PUSH1 0x40 MSTORE DUP1 MLOAD SWAP1 PUSH1 0x20 ADD KECCAK256 DUP4 DUP4 DUP1 PUSH2 0x3A3A SWAP1 PUSH2 0x5E81 JUMP JUMPDEST SWAP5 POP PUSH4 0xFFFFFFFF AND DUP2 MLOAD DUP2 LT PUSH2 0x3A53 JUMPI PUSH2 0x3A52 PUSH2 0x5606 JUMP JUMPDEST JUMPDEST PUSH1 0x20 MUL PUSH1 0x20 ADD ADD DUP2 DUP2 MSTORE POP POP DUP1 DUP1 PUSH2 0x3A6A SWAP1 PUSH2 0x4FB3 JUMP JUMPDEST SWAP2 POP POP PUSH2 0x3960 JUMP JUMPDEST POP PUSH1 0x0 DUP5 MLOAD SWAP1 POP PUSH1 0x0 JUMPDEST PUSH1 0x0 DUP3 GT ISZERO PUSH2 0x3B83 JUMPI PUSH1 0x0 JUMPDEST PUSH1 0x1 DUP4 PUSH2 0x3A95 SWAP2 SWAP1 PUSH2 0x4FFB JUMP JUMPDEST DUP2 LT ISZERO PUSH2 0x3B60 JUMPI DUP5 DUP2 DUP4 PUSH2 0x3AA9 SWAP2 SWAP1 PUSH2 0x4EED JUMP JUMPDEST DUP2 MLOAD DUP2 LT PUSH2 0x3ABA JUMPI PUSH2 0x3AB9 PUSH2 0x5606 JUMP JUMPDEST JUMPDEST PUSH1 0x20 MUL PUSH1 0x20 ADD ADD MLOAD DUP6 PUSH1 0x1 DUP4 DUP6 PUSH2 0x3AD1 SWAP2 SWAP1 PUSH2 0x4EED JUMP JUMPDEST PUSH2 0x3ADB SWAP2 SWAP1 PUSH2 0x4EED JUMP JUMPDEST DUP2 MLOAD DUP2 LT PUSH2 0x3AEC JUMPI PUSH2 0x3AEB PUSH2 0x5606 JUMP JUMPDEST JUMPDEST PUSH1 0x20 MUL PUSH1 0x20 ADD ADD MLOAD PUSH1 0x40 MLOAD PUSH1 0x20 ADD PUSH2 0x3B05 SWAP3 SWAP2 SWAP1 PUSH2 0x5E55 JUMP JUMPDEST PUSH1 0x40 MLOAD PUSH1 0x20 DUP2 DUP4 SUB SUB DUP2 MSTORE SWAP1 PUSH1 0x40 MSTORE DUP1 MLOAD SWAP1 PUSH1 0x20 ADD KECCAK256 DUP6 DUP6 DUP1 PUSH2 0x3B27 SWAP1 PUSH2 0x5E81 JUMP JUMPDEST SWAP7 POP PUSH4 0xFFFFFFFF AND DUP2 MLOAD DUP2 LT PUSH2 0x3B40 JUMPI PUSH2 0x3B3F PUSH2 0x5606 JUMP JUMPDEST JUMPDEST PUSH1 0x20 MUL PUSH1 0x20 ADD ADD DUP2 DUP2 MSTORE POP POP PUSH1 0x2 DUP2 PUSH2 0x3B59 SWAP2 SWAP1 PUSH2 0x4EED JUMP JUMPDEST SWAP1 POP PUSH2 0x3A88 JUMP JUMPDEST POP DUP2 DUP2 PUSH2 0x3B6D SWAP2 SWAP1 PUSH2 0x4EED JUMP JUMPDEST SWAP1 POP PUSH1 0x2 DUP3 PUSH2 0x3B7C SWAP2 SWAP1 PUSH2 0x4EBC JUMP JUMPDEST SWAP2 POP PUSH2 0x3A7C JUMP JUMPDEST DUP4 PUSH1 0x1 DUP6 MLOAD PUSH2 0x3B92 SWAP2 SWAP1 PUSH2 0x4FFB JUMP JUMPDEST DUP2 MLOAD DUP2 LT PUSH2 0x3BA3 JUMPI PUSH2 0x3BA2 PUSH2 0x5606 JUMP JUMPDEST JUMPDEST PUSH1 0x20 MUL PUSH1 0x20 ADD ADD MLOAD SWAP5 POP POP POP POP POP SWAP2 SWAP1 POP JUMP JUMPDEST PUSH32 0x0 PUSH20 0xFFFFFFFFFFFFFFFFFFFFFFFFFFFFFFFFFFFFFFFF AND PUSH4 0x4FF746F6 DUP3 PUSH1 0x40 MLOAD DUP3 PUSH4 0xFFFFFFFF AND PUSH1 0xE0 SHL DUP2 MSTORE PUSH1 0x4 ADD PUSH2 0x3C0F SWAP2 SWAP1 PUSH2 0x5F2C JUMP JUMPDEST PUSH1 0x0 PUSH1 0x40 MLOAD DUP1 DUP4 SUB DUP2 PUSH1 0x0 DUP8 DUP1 EXTCODESIZE ISZERO DUP1 ISZERO PUSH2 0x3C29 JUMPI PUSH1 0x0 DUP1 REVERT JUMPDEST POP GAS CALL ISZERO DUP1 ISZERO PUSH2 0x3C3D JUMPI RETURNDATASIZE PUSH1 0x0 DUP1 RETURNDATACOPY RETURNDATASIZE PUSH1 0x0 REVERT JUMPDEST POP POP POP POP POP JUMP JUMPDEST PUSH1 0x0 PUSH2 0x3C4E PUSH2 0x3CAF JUMP JUMPDEST SWAP1 POP SWAP1 JUMP JUMPDEST PUSH1 0x0 DUP2 PUSH1 0x0 ADD SLOAD SWAP1 POP PUSH1 0x0 DUP2 GT PUSH2 0x3C9F JUMPI PUSH1 0x40 MLOAD PUSH32 0x8C379A000000000000000000000000000000000000000000000000000000000 DUP2 MSTORE PUSH1 0x4 ADD PUSH2 0x3C96 SWAP1 PUSH2 0x5F9A JUMP JUMPDEST PUSH1 0x40 MLOAD DUP1 SWAP2 SUB SWAP1 REVERT JUMPDEST PUSH1 0x1 DUP2 SUB DUP3 PUSH1 0x0 ADD DUP2 SWAP1 SSTORE POP POP POP JUMP JUMPDEST PUSH1 0x0 CALLER SWAP1 POP SWAP1 JUMP JUMPDEST PUSH1 0x0 DUP1 DUP4 PUSH1 0x0 ADD CALLDATALOAD DUP5 PUSH1 0x20 ADD PUSH1 0x20 DUP2 ADD SWAP1 PUSH2 0x3CD2 SWAP2 SWAP1 PUSH2 0x459C JUMP JUMPDEST DUP6 PUSH1 0x40 ADD PUSH1 0x20 DUP2 ADD SWAP1 PUSH2 0x3CE5 SWAP2 SWAP1 PUSH2 0x459C JUMP JUMPDEST DUP7 PUSH1 0x60 ADD PUSH1 0x20 DUP2 ADD SWAP1 PUSH2 0x3CF8 SWAP2 SWAP1 PUSH2 0x459C JUMP JUMPDEST DUP8 PUSH1 0x80 ADD PUSH1 0x20 DUP2 ADD SWAP1 PUSH2 0x3D0B SWAP2 SWAP1 PUSH2 0x459C JUMP JUMPDEST PUSH1 0x40 MLOAD PUSH1 0x20 ADD PUSH2 0x3D1F SWAP6 SWAP5 SWAP4 SWAP3 SWAP2 SWAP1 PUSH2 0x5DE1 JUMP JUMPDEST PUSH1 0x40 MLOAD PUSH1 0x20 DUP2 DUP4 SUB SUB DUP2 MSTORE SWAP1 PUSH1 0x40 MSTORE DUP1 MLOAD SWAP1 PUSH1 0x20 ADD KECCAK256 SWAP1 POP PUSH1 0x0 JUMPDEST DUP8 DUP8 SWAP1 POP DUP2 LT ISZERO PUSH2 0x3DF6 JUMPI PUSH1 0x0 DUP9 DUP9 DUP4 DUP2 DUP2 LT PUSH2 0x3D5A JUMPI PUSH2 0x3D59 PUSH2 0x5606 JUMP JUMPDEST JUMPDEST SWAP1 POP PUSH1 0x20 MUL ADD CALLDATALOAD SWAP1 POP PUSH1 0x0 PUSH1 0x2 DUP7 PUSH2 0x3D72 SWAP2 SWAP1 PUSH2 0x5FBA JUMP JUMPDEST SUB PUSH2 0x3DA7 JUMPI DUP3 DUP2 PUSH1 0x40 MLOAD PUSH1 0x20 ADD PUSH2 0x3D8A SWAP3 SWAP2 SWAP1 PUSH2 0x5E55 JUMP JUMPDEST PUSH1 0x40 MLOAD PUSH1 0x20 DUP2 DUP4 SUB SUB DUP2 MSTORE SWAP1 PUSH1 0x40 MSTORE DUP1 MLOAD SWAP1 PUSH1 0x20 ADD KECCAK256 SWAP3 POP PUSH2 0x3DD3 JUMP JUMPDEST DUP1 DUP4 PUSH1 0x40 MLOAD PUSH1 0x20 ADD PUSH2 0x3DBA SWAP3 SWAP2 SWAP1 PUSH2 0x5E55 JUMP JUMPDEST PUSH1 0x40 MLOAD PUSH1 0x20 DUP2 DUP4 SUB SUB DUP2 MSTORE SWAP1 PUSH1 0x40 MSTORE DUP1 MLOAD SWAP1 PUSH1 0x20 ADD KECCAK256 SWAP3 POP JUMPDEST PUSH1 0x2 DUP6 PUSH2 0x3DE0 SWAP2 SWAP1 PUSH2 0x4EBC JUMP JUMPDEST SWAP5 POP POP DUP1 DUP1 PUSH2 0x3DEE SWAP1 PUSH2 0x4FB3 JUMP JUMPDEST SWAP2 POP POP PUSH2 0x3D3A JUMP JUMPDEST POP DUP5 DUP2 EQ SWAP2 POP POP SWAP6 SWAP5 POP POP POP POP POP JUMP JUMPDEST PUSH1 0x0 DUP3 PUSH20 0xFFFFFFFFFFFFFFFFFFFFFFFFFFFFFFFFFFFFFFFF AND PUSH4 0x6352211E DUP4 PUSH1 0x40 MLOAD DUP3 PUSH4 0xFFFFFFFF AND PUSH1 0xE0 SHL DUP2 MSTORE PUSH1 0x4 ADD PUSH2 0x3E41 SWAP2 SWAP1 PUSH2 0x4581 JUMP JUMPDEST PUSH1 0x20 PUSH1 0x40 MLOAD DUP1 DUP4 SUB DUP2 DUP7 GAS STATICCALL SWAP3 POP POP POP DUP1 ISZERO PUSH2 0x3E7B JUMPI POP PUSH1 0x40 MLOAD RETURNDATASIZE PUSH1 0x1F NOT PUSH1 0x1F DUP3 ADD AND DUP3 ADD DUP1 PUSH1 0x40 MSTORE POP DUP2 ADD SWAP1 PUSH2 0x3E78 SWAP2 SWAP1 PUSH2 0x56DC JUMP JUMPDEST PUSH1 0x1 JUMPDEST PUSH2 0x3EBD JUMPI PUSH2 0x3E87 PUSH2 0x5FF8 JUMP JUMPDEST DUP1 PUSH4 0x8C379A0 SUB PUSH2 0x3EAC JUMPI POP PUSH2 0x3E9B PUSH2 0x601A JUMP JUMPDEST DUP1 PUSH2 0x3EA6 JUMPI POP PUSH2 0x3EAE JUMP JUMPDEST POP PUSH2 0x3EB8 JUMP JUMPDEST POP JUMPDEST RETURNDATASIZE PUSH1 0x0 DUP1 RETURNDATACOPY RETURNDATASIZE PUSH1 0x0 REVERT JUMPDEST PUSH2 0x3EC6 JUMP JUMPDEST DUP1 SWAP2 POP POP PUSH2 0x3ECB JUMP JUMPDEST PUSH1 0x0 SWAP1 POP JUMPDEST SWAP3 SWAP2 POP POP JUMP JUMPDEST PUSH1 0x1 DUP2 PUSH1 0x0 ADD PUSH1 0x0 DUP3 DUP3 SLOAD ADD SWAP3 POP POP DUP2 SWAP1 SSTORE POP POP JUMP JUMPDEST PUSH2 0x3EEF PUSH2 0x3CAF JUMP JUMPDEST PUSH20 0xFFFFFFFFFFFFFFFFFFFFFFFFFFFFFFFFFFFFFFFF AND PUSH2 0x3F0D PUSH2 0x2ACF JUMP JUMPDEST PUSH20 0xFFFFFFFFFFFFFFFFFFFFFFFFFFFFFFFFFFFFFFFF AND EQ PUSH2 0x3F63 JUMPI PUSH1 0x40 MLOAD PUSH32 0x8C379A000000000000000000000000000000000000000000000000000000000 DUP2 MSTORE PUSH1 0x4 ADD PUSH2 0x3F5A SWAP1 PUSH2 0x60F6 JUMP JUMPDEST PUSH1 0x40 MLOAD DUP1 SWAP2 SUB SWAP1 REVERT JUMPDEST JUMP JUMPDEST PUSH1 0x0 DUP1 PUSH1 0x0 SWAP1 SLOAD SWAP1 PUSH2 0x100 EXP SWAP1 DIV PUSH20 0xFFFFFFFFFFFFFFFFFFFFFFFFFFFFFFFFFFFFFFFF AND SWAP1 POP DUP2 PUSH1 0x0 DUP1 PUSH2 0x100 EXP DUP2 SLOAD DUP2 PUSH20 0xFFFFFFFFFFFFFFFFFFFFFFFFFFFFFFFFFFFFFFFF MUL NOT AND SWAP1 DUP4 PUSH20 0xFFFFFFFFFFFFFFFFFFFFFFFFFFFFFFFFFFFFFFFF AND MUL OR SWAP1 SSTORE POP DUP2 PUSH20 0xFFFFFFFFFFFFFFFFFFFFFFFFFFFFFFFFFFFFFFFF AND DUP2 PUSH20 0xFFFFFFFFFFFFFFFFFFFFFFFFFFFFFFFFFFFFFFFF AND PUSH32 0x8BE0079C531659141344CD1FD0A4F28419497F9722A3DAAFE3B4186F6B6457E0 PUSH1 0x40 MLOAD PUSH1 0x40 MLOAD DUP1 SWAP2 SUB SWAP1 LOG3 POP POP JUMP JUMPDEST PUSH1 0x40 MLOAD DUP1 PUSH1 0xA0 ADD PUSH1 0x40 MSTORE DUP1 PUSH1 0x0 DUP2 MSTORE PUSH1 0x20 ADD PUSH1 0x0 PUSH20 0xFFFFFFFFFFFFFFFFFFFFFFFFFFFFFFFFFFFFFFFF AND DUP2 MSTORE PUSH1 0x20 ADD PUSH1 0x0 PUSH20 0xFFFFFFFFFFFFFFFFFFFFFFFFFFFFFFFFFFFFFFFF AND DUP2 MSTORE PUSH1 0x20 ADD PUSH1 0x0 PUSH20 0xFFFFFFFFFFFFFFFFFFFFFFFFFFFFFFFFFFFFFFFF AND DUP2 MSTORE PUSH1 0x20 ADD PUSH1 0x0 PUSH20 0xFFFFFFFFFFFFFFFFFFFFFFFFFFFFFFFFFFFFFFFF AND DUP2 MSTORE POP SWAP1 JUMP JUMPDEST POP DUP1 SLOAD PUSH1 0x0 DUP3 SSTORE SWAP1 PUSH1 0x0 MSTORE PUSH1 0x20 PUSH1 0x0 KECCAK256 SWAP1 DUP2 ADD SWAP1 PUSH2 0x40CE SWAP2 SWAP1 PUSH2 0x40D1 JUMP JUMPDEST POP JUMP JUMPDEST JUMPDEST DUP1 DUP3 GT ISZERO PUSH2 0x40EA JUMPI PUSH1 0x0 DUP2 PUSH1 0x0 SWAP1 SSTORE POP PUSH1 0x1 ADD PUSH2 0x40D2 JUMP JUMPDEST POP SWAP1 JUMP JUMPDEST PUSH1 0x0 PUSH1 0x40 MLOAD SWAP1 POP SWAP1 JUMP JUMPDEST PUSH1 0x0 DUP1 REVERT JUMPDEST PUSH1 0x0 DUP1 REVERT JUMPDEST PUSH1 0x0 DUP2 SWAP1 POP SWAP2 SWAP1 POP JUMP JUMPDEST PUSH2 0x4115 DUP2 PUSH2 0x4102 JUMP JUMPDEST DUP2 EQ PUSH2 0x4120 JUMPI PUSH1 0x0 DUP1 REVERT JUMPDEST POP JUMP JUMPDEST PUSH1 0x0 DUP2 CALLDATALOAD SWAP1 POP PUSH2 0x4132 DUP2 PUSH2 0x410C JUMP JUMPDEST SWAP3 SWAP2 POP POP JUMP JUMPDEST PUSH1 0x0 PUSH1 0x20 DUP3 DUP5 SUB SLT ISZERO PUSH2 0x414E JUMPI PUSH2 0x414D PUSH2 0x40F8 JUMP JUMPDEST JUMPDEST PUSH1 0x0 PUSH2 0x415C DUP5 DUP3 DUP6 ADD PUSH2 0x4123 JUMP JUMPDEST SWAP2 POP POP SWAP3 SWAP2 POP POP JUMP JUMPDEST PUSH1 0x0 PUSH20 0xFFFFFFFFFFFFFFFFFFFFFFFFFFFFFFFFFFFFFFFF DUP3 AND SWAP1 POP SWAP2 SWAP1 POP JUMP JUMPDEST PUSH1 0x0 PUSH2 0x4190 DUP3 PUSH2 0x4165 JUMP JUMPDEST SWAP1 POP SWAP2 SWAP1 POP JUMP JUMPDEST PUSH2 0x41A0 DUP2 PUSH2 0x4185 JUMP JUMPDEST DUP2 EQ PUSH2 0x41AB JUMPI PUSH1 0x0 DUP1 REVERT JUMPDEST POP JUMP JUMPDEST PUSH1 0x0 DUP2 CALLDATALOAD SWAP1 POP PUSH2 0x41BD DUP2 PUSH2 0x4197 JUMP JUMPDEST SWAP3 SWAP2 POP POP JUMP JUMPDEST PUSH1 0x0 DUP1 REVERT JUMPDEST PUSH1 0x0 DUP1 REVERT JUMPDEST PUSH1 0x0 PUSH1 0x1F NOT PUSH1 0x1F DUP4 ADD AND SWAP1 POP SWAP2 SWAP1 POP JUMP JUMPDEST PUSH32 0x4E487B7100000000000000000000000000000000000000000000000000000000 PUSH1 0x0 MSTORE PUSH1 0x41 PUSH1 0x4 MSTORE PUSH1 0x24 PUSH1 0x0 REVERT JUMPDEST PUSH2 0x4216 DUP3 PUSH2 0x41CD JUMP JUMPDEST DUP2 ADD DUP2 DUP2 LT PUSH8 0xFFFFFFFFFFFFFFFF DUP3 GT OR ISZERO PUSH2 0x4235 JUMPI PUSH2 0x4234 PUSH2 0x41DE JUMP JUMPDEST JUMPDEST DUP1 PUSH1 0x40 MSTORE POP POP POP JUMP JUMPDEST PUSH1 0x0 PUSH2 0x4248 PUSH2 0x40EE JUMP JUMPDEST SWAP1 POP PUSH2 0x4254 DUP3 DUP3 PUSH2 0x420D JUMP JUMPDEST SWAP2 SWAP1 POP JUMP JUMPDEST PUSH1 0x0 PUSH8 0xFFFFFFFFFFFFFFFF DUP3 GT ISZERO PUSH2 0x4274 JUMPI PUSH2 0x4273 PUSH2 0x41DE JUMP JUMPDEST JUMPDEST PUSH2 0x427D DUP3 PUSH2 0x41CD JUMP JUMPDEST SWAP1 POP PUSH1 0x20 DUP2 ADD SWAP1 POP SWAP2 SWAP1 POP JUMP JUMPDEST DUP3 DUP2 DUP4 CALLDATACOPY PUSH1 0x0 DUP4 DUP4 ADD MSTORE POP POP POP JUMP JUMPDEST PUSH1 0x0 PUSH2 0x42AC PUSH2 0x42A7 DUP5 PUSH2 0x4259 JUMP JUMPDEST PUSH2 0x423E JUMP JUMPDEST SWAP1 POP DUP3 DUP2 MSTORE PUSH1 0x20 DUP2 ADD DUP5 DUP5 DUP5 ADD GT ISZERO PUSH2 0x42C8 JUMPI PUSH2 0x42C7 PUSH2 0x41C8 JUMP JUMPDEST JUMPDEST PUSH2 0x42D3 DUP5 DUP3 DUP6 PUSH2 0x428A JUMP JUMPDEST POP SWAP4 SWAP3 POP POP POP JUMP JUMPDEST PUSH1 0x0 DUP3 PUSH1 0x1F DUP4 ADD SLT PUSH2 0x42F0 JUMPI PUSH2 0x42EF PUSH2 0x41C3 JUMP JUMPDEST JUMPDEST DUP2 CALLDATALOAD PUSH2 0x4300 DUP5 DUP3 PUSH1 0x20 DUP7 ADD PUSH2 0x4299 JUMP JUMPDEST SWAP2 POP POP SWAP3 SWAP2 POP POP JUMP JUMPDEST PUSH1 0x0 DUP1 PUSH1 0x0 DUP1 PUSH1 0x80 DUP6 DUP8 SUB SLT ISZERO PUSH2 0x4323 JUMPI PUSH2 0x4322 PUSH2 0x40F8 JUMP JUMPDEST JUMPDEST PUSH1 0x0 PUSH2 0x4331 DUP8 DUP3 DUP9 ADD PUSH2 0x41AE JUMP JUMPDEST SWAP5 POP POP PUSH1 0x20 PUSH2 0x4342 DUP8 DUP3 DUP9 ADD PUSH2 0x41AE JUMP JUMPDEST SWAP4 POP POP PUSH1 0x40 PUSH2 0x4353 DUP8 DUP3 DUP9 ADD PUSH2 0x4123 JUMP JUMPDEST SWAP3 POP POP PUSH1 0x60 DUP6 ADD CALLDATALOAD PUSH8 0xFFFFFFFFFFFFFFFF DUP2 GT ISZERO PUSH2 0x4374 JUMPI PUSH2 0x4373 PUSH2 0x40FD JUMP JUMPDEST JUMPDEST PUSH2 0x4380 DUP8 DUP3 DUP9 ADD PUSH2 0x42DB JUMP JUMPDEST SWAP2 POP POP SWAP3 SWAP6 SWAP2 SWAP5 POP SWAP3 POP JUMP JUMPDEST PUSH1 0x0 PUSH32 0xFFFFFFFF00000000000000000000000000000000000000000000000000000000 DUP3 AND SWAP1 POP SWAP2 SWAP1 POP JUMP JUMPDEST PUSH2 0x43C1 DUP2 PUSH2 0x438C JUMP JUMPDEST DUP3 MSTORE POP POP JUMP JUMPDEST PUSH1 0x0 PUSH1 0x20 DUP3 ADD SWAP1 POP PUSH2 0x43DC PUSH1 0x0 DUP4 ADD DUP5 PUSH2 0x43B8 JUMP JUMPDEST SWAP3 SWAP2 POP POP JUMP JUMPDEST PUSH1 0x0 DUP2 SWAP1 POP SWAP2 SWAP1 POP JUMP JUMPDEST PUSH2 0x43F5 DUP2 PUSH2 0x43E2 JUMP JUMPDEST DUP3 MSTORE POP POP JUMP JUMPDEST PUSH2 0x4404 DUP2 PUSH2 0x4102 JUMP JUMPDEST DUP3 MSTORE POP POP JUMP JUMPDEST PUSH32 0x4E487B7100000000000000000000000000000000000000000000000000000000 PUSH1 0x0 MSTORE PUSH1 0x21 PUSH1 0x4 MSTORE PUSH1 0x24 PUSH1 0x0 REVERT JUMPDEST PUSH1 0x4 DUP2 LT PUSH2 0x444A JUMPI PUSH2 0x4449 PUSH2 0x440A JUMP JUMPDEST JUMPDEST POP JUMP JUMPDEST PUSH1 0x0 DUP2 SWAP1 POP PUSH2 0x445B DUP3 PUSH2 0x4439 JUMP JUMPDEST SWAP2 SWAP1 POP JUMP JUMPDEST PUSH1 0x0 PUSH2 0x446B DUP3 PUSH2 0x444D JUMP JUMPDEST SWAP1 POP SWAP2 SWAP1 POP JUMP JUMPDEST PUSH2 0x447B DUP2 PUSH2 0x4460 JUMP JUMPDEST DUP3 MSTORE POP POP JUMP JUMPDEST PUSH2 0x448A DUP2 PUSH2 0x4185 JUMP JUMPDEST DUP3 MSTORE POP POP JUMP JUMPDEST PUSH1 0x0 PUSH1 0x80 DUP3 ADD SWAP1 POP PUSH2 0x44A5 PUSH1 0x0 DUP4 ADD DUP8 PUSH2 0x43EC JUMP JUMPDEST PUSH2 0x44B2 PUSH1 0x20 DUP4 ADD DUP7 PUSH2 0x43FB JUMP JUMPDEST PUSH2 0x44BF PUSH1 0x40 DUP4 ADD DUP6 PUSH2 0x4472 JUMP JUMPDEST PUSH2 0x44CC PUSH1 0x60 DUP4 ADD DUP5 PUSH2 0x4481 JUMP JUMPDEST SWAP6 SWAP5 POP POP POP POP POP JUMP JUMPDEST PUSH1 0x3 DUP2 LT PUSH2 0x44E6 JUMPI PUSH2 0x44E5 PUSH2 0x440A JUMP JUMPDEST JUMPDEST POP JUMP JUMPDEST PUSH1 0x0 DUP2 SWAP1 POP PUSH2 0x44F7 DUP3 PUSH2 0x44D5 JUMP JUMPDEST SWAP2 SWAP1 POP JUMP JUMPDEST PUSH1 0x0 PUSH2 0x4507 DUP3 PUSH2 0x44E9 JUMP JUMPDEST SWAP1 POP SWAP2 SWAP1 POP JUMP JUMPDEST PUSH2 0x4517 DUP2 PUSH2 0x44FC JUMP JUMPDEST DUP3 MSTORE POP POP JUMP JUMPDEST PUSH1 0x0 PUSH1 0x20 DUP3 ADD SWAP1 POP PUSH2 0x4532 PUSH1 0x0 DUP4 ADD DUP5 PUSH2 0x450E JUMP JUMPDEST SWAP3 SWAP2 POP POP JUMP JUMPDEST PUSH1 0x0 PUSH1 0x20 DUP3 DUP5 SUB SLT ISZERO PUSH2 0x454E JUMPI PUSH2 0x454D PUSH2 0x40F8 JUMP JUMPDEST JUMPDEST PUSH1 0x0 DUP3 ADD CALLDATALOAD PUSH8 0xFFFFFFFFFFFFFFFF DUP2 GT ISZERO PUSH2 0x456C JUMPI PUSH2 0x456B PUSH2 0x40FD JUMP JUMPDEST JUMPDEST PUSH2 0x4578 DUP5 DUP3 DUP6 ADD PUSH2 0x42DB JUMP JUMPDEST SWAP2 POP POP SWAP3 SWAP2 POP POP JUMP JUMPDEST PUSH1 0x0 PUSH1 0x20 DUP3 ADD SWAP1 POP PUSH2 0x4596 PUSH1 0x0 DUP4 ADD DUP5 PUSH2 0x43FB JUMP JUMPDEST SWAP3 SWAP2 POP POP JUMP JUMPDEST PUSH1 0x0 PUSH1 0x20 DUP3 DUP5 SUB SLT ISZERO PUSH2 0x45B2 JUMPI PUSH2 0x45B1 PUSH2 0x40F8 JUMP JUMPDEST JUMPDEST PUSH1 0x0 PUSH2 0x45C0 DUP5 DUP3 DUP6 ADD PUSH2 0x41AE JUMP JUMPDEST SWAP2 POP POP SWAP3 SWAP2 POP POP JUMP JUMPDEST PUSH1 0x0 DUP2 ISZERO ISZERO SWAP1 POP SWAP2 SWAP1 POP JUMP JUMPDEST PUSH2 0x45DE DUP2 PUSH2 0x45C9 JUMP JUMPDEST DUP3 MSTORE POP POP JUMP JUMPDEST PUSH1 0x0 PUSH1 0x40 DUP3 ADD SWAP1 POP PUSH2 0x45F9 PUSH1 0x0 DUP4 ADD DUP6 PUSH2 0x43FB JUMP JUMPDEST PUSH2 0x4606 PUSH1 0x20 DUP4 ADD DUP5 PUSH2 0x45D5 JUMP JUMPDEST SWAP4 SWAP3 POP POP POP JUMP JUMPDEST PUSH1 0x0 DUP1 REVERT JUMPDEST PUSH1 0x0 PUSH1 0xA0 DUP3 DUP5 SUB SLT ISZERO PUSH2 0x4628 JUMPI PUSH2 0x4627 PUSH2 0x460D JUMP JUMPDEST JUMPDEST DUP2 SWAP1 POP SWAP3 SWAP2 POP POP JUMP JUMPDEST PUSH1 0x0 DUP1 REVERT JUMPDEST PUSH1 0x0 DUP1 REVERT JUMPDEST PUSH1 0x0 DUP1 DUP4 PUSH1 0x1F DUP5 ADD SLT PUSH2 0x4651 JUMPI PUSH2 0x4650 PUSH2 0x41C3 JUMP JUMPDEST JUMPDEST DUP3 CALLDATALOAD SWAP1 POP PUSH8 0xFFFFFFFFFFFFFFFF DUP2 GT ISZERO PUSH2 0x466E JUMPI PUSH2 0x466D PUSH2 0x4631 JUMP JUMPDEST JUMPDEST PUSH1 0x20 DUP4 ADD SWAP2 POP DUP4 PUSH1 0x20 DUP3 MUL DUP4 ADD GT ISZERO PUSH2 0x468A JUMPI PUSH2 0x4689 PUSH2 0x4636 JUMP JUMPDEST JUMPDEST SWAP3 POP SWAP3 SWAP1 POP JUMP JUMPDEST PUSH1 0x0 DUP1 PUSH1 0x0 DUP1 PUSH1 0x0 PUSH2 0x100 DUP7 DUP9 SUB SLT ISZERO PUSH2 0x46AE JUMPI PUSH2 0x46AD PUSH2 0x40F8 JUMP JUMPDEST JUMPDEST PUSH1 0x0 PUSH2 0x46BC DUP9 DUP3 DUP10 ADD PUSH2 0x4123 JUMP JUMPDEST SWAP6 POP POP PUSH1 0x20 PUSH2 0x46CD DUP9 DUP3 DUP10 ADD PUSH2 0x4612 JUMP JUMPDEST SWAP5 POP POP PUSH1 0xC0 DUP7 ADD CALLDATALOAD PUSH8 0xFFFFFFFFFFFFFFFF DUP2 GT ISZERO PUSH2 0x46EE JUMPI PUSH2 0x46ED PUSH2 0x40FD JUMP JUMPDEST JUMPDEST PUSH2 0x46FA DUP9 DUP3 DUP10 ADD PUSH2 0x463B JUMP JUMPDEST SWAP4 POP SWAP4 POP POP PUSH1 0xE0 PUSH2 0x470D DUP9 DUP3 DUP10 ADD PUSH2 0x4123 JUMP JUMPDEST SWAP2 POP POP SWAP3 SWAP6 POP SWAP3 SWAP6 SWAP1 SWAP4 POP JUMP JUMPDEST PUSH1 0x0 PUSH1 0x20 DUP3 ADD SWAP1 POP PUSH2 0x472F PUSH1 0x0 DUP4 ADD DUP5 PUSH2 0x43EC JUMP JUMPDEST SWAP3 SWAP2 POP POP JUMP JUMPDEST PUSH1 0x5 DUP2 LT PUSH2 0x4746 JUMPI PUSH2 0x4745 PUSH2 0x440A JUMP JUMPDEST JUMPDEST POP JUMP JUMPDEST PUSH1 0x0 DUP2 SWAP1 POP PUSH2 0x4757 DUP3 PUSH2 0x4735 JUMP JUMPDEST SWAP2 SWAP1 POP JUMP JUMPDEST PUSH1 0x0 PUSH2 0x4767 DUP3 PUSH2 0x4749 JUMP JUMPDEST SWAP1 POP SWAP2 SWAP1 POP JUMP JUMPDEST PUSH2 0x4777 DUP2 PUSH2 0x475C JUMP JUMPDEST DUP3 MSTORE POP POP JUMP JUMPDEST PUSH2 0x4786 DUP2 PUSH2 0x4102 JUMP JUMPDEST DUP3 MSTORE POP POP JUMP JUMPDEST PUSH1 0x20 DUP3 ADD PUSH1 0x0 DUP3 ADD MLOAD PUSH2 0x47A2 PUSH1 0x0 DUP6 ADD DUP3 PUSH2 0x477D JUMP JUMPDEST POP POP POP POP JUMP JUMPDEST PUSH1 0x0 PUSH1 0x80 DUP3 ADD SWAP1 POP PUSH2 0x47BD PUSH1 0x0 DUP4 ADD DUP8 PUSH2 0x476E JUMP JUMPDEST PUSH2 0x47CA PUSH1 0x20 DUP4 ADD DUP7 PUSH2 0x43FB JUMP JUMPDEST PUSH2 0x47D7 PUSH1 0x40 DUP4 ADD DUP6 PUSH2 0x43FB JUMP JUMPDEST PUSH2 0x47E4 PUSH1 0x60 DUP4 ADD DUP5 PUSH2 0x478C JUMP JUMPDEST SWAP6 SWAP5 POP POP POP POP POP JUMP JUMPDEST PUSH2 0x47F6 DUP2 PUSH2 0x43E2 JUMP JUMPDEST DUP2 EQ PUSH2 0x4801 JUMPI PUSH1 0x0 DUP1 REVERT JUMPDEST POP JUMP JUMPDEST PUSH1 0x0 DUP2 CALLDATALOAD SWAP1 POP PUSH2 0x4813 DUP2 PUSH2 0x47ED JUMP JUMPDEST SWAP3 SWAP2 POP POP JUMP JUMPDEST PUSH1 0x0 PUSH1 0x20 DUP3 DUP5 SUB SLT ISZERO PUSH2 0x482F JUMPI PUSH2 0x482E PUSH2 0x40F8 JUMP JUMPDEST JUMPDEST PUSH1 0x0 PUSH2 0x483D DUP5 DUP3 DUP6 ADD PUSH2 0x4804 JUMP JUMPDEST SWAP2 POP POP SWAP3 SWAP2 POP POP JUMP JUMPDEST PUSH1 0x0 DUP1 PUSH1 0x0 DUP1 PUSH1 0x0 DUP1 PUSH2 0x120 DUP8 DUP10 SUB SLT ISZERO PUSH2 0x4864 JUMPI PUSH2 0x4863 PUSH2 0x40F8 JUMP JUMPDEST JUMPDEST PUSH1 0x0 PUSH2 0x4872 DUP10 DUP3 DUP11 ADD PUSH2 0x41AE JUMP JUMPDEST SWAP7 POP POP PUSH1 0x20 PUSH2 0x4883 DUP10 DUP3 DUP11 ADD PUSH2 0x4123 JUMP JUMPDEST SWAP6 POP POP PUSH1 0x40 PUSH2 0x4894 DUP10 DUP3 DUP11 ADD PUSH2 0x4612 JUMP JUMPDEST SWAP5 POP POP PUSH1 0xE0 DUP8 ADD CALLDATALOAD PUSH8 0xFFFFFFFFFFFFFFFF DUP2 GT ISZERO PUSH2 0x48B5 JUMPI PUSH2 0x48B4 PUSH2 0x40FD JUMP JUMPDEST JUMPDEST PUSH2 0x48C1 DUP10 DUP3 DUP11 ADD PUSH2 0x463B JUMP JUMPDEST SWAP4 POP SWAP4 POP POP PUSH2 0x100 PUSH2 0x48D5 DUP10 DUP3 DUP11 ADD PUSH2 0x4123 JUMP JUMPDEST SWAP2 POP POP SWAP3 SWAP6 POP SWAP3 SWAP6 POP SWAP3 SWAP6 JUMP JUMPDEST PUSH1 0x0 PUSH1 0x20 DUP3 ADD SWAP1 POP PUSH2 0x48F7 PUSH1 0x0 DUP4 ADD DUP5 PUSH2 0x4481 JUMP JUMPDEST SWAP3 SWAP2 POP POP JUMP JUMPDEST PUSH1 0x4 DUP2 LT PUSH2 0x490E JUMPI PUSH2 0x490D PUSH2 0x440A JUMP JUMPDEST JUMPDEST POP JUMP JUMPDEST PUSH1 0x0 DUP2 SWAP1 POP PUSH2 0x491F DUP3 PUSH2 0x48FD JUMP JUMPDEST SWAP2 SWAP1 POP JUMP JUMPDEST PUSH1 0x0 PUSH2 0x492F DUP3 PUSH2 0x4911 JUMP JUMPDEST SWAP1 POP SWAP2 SWAP1 POP JUMP JUMPDEST PUSH2 0x493F DUP2 PUSH2 0x4924 JUMP JUMPDEST DUP3 MSTORE POP POP JUMP JUMPDEST PUSH1 0x0 PUSH1 0x40 DUP3 ADD SWAP1 POP PUSH2 0x495A PUSH1 0x0 DUP4 ADD DUP6 PUSH2 0x4481 JUMP JUMPDEST PUSH2 0x4967 PUSH1 0x20 DUP4 ADD DUP5 PUSH2 0x4936 JUMP JUMPDEST SWAP4 SWAP3 POP POP POP JUMP JUMPDEST PUSH1 0x0 DUP1 PUSH1 0x40 DUP4 DUP6 SUB SLT ISZERO PUSH2 0x4985 JUMPI PUSH2 0x4984 PUSH2 0x40F8 JUMP JUMPDEST JUMPDEST PUSH1 0x0 PUSH2 0x4993 DUP6 DUP3 DUP7 ADD PUSH2 0x4123 JUMP JUMPDEST SWAP3 POP POP PUSH1 0x20 PUSH2 0x49A4 DUP6 DUP3 DUP7 ADD PUSH2 0x4123 JUMP JUMPDEST SWAP2 POP POP SWAP3 POP SWAP3 SWAP1 POP JUMP JUMPDEST PUSH2 0x49B7 DUP2 PUSH2 0x4185 JUMP JUMPDEST DUP3 MSTORE POP POP JUMP JUMPDEST PUSH1 0xA0 DUP3 ADD PUSH1 0x0 DUP3 ADD MLOAD PUSH2 0x49D3 PUSH1 0x0 DUP6 ADD DUP3 PUSH2 0x477D JUMP JUMPDEST POP PUSH1 0x20 DUP3 ADD MLOAD PUSH2 0x49E6 PUSH1 0x20 DUP6 ADD DUP3 PUSH2 0x49AE JUMP JUMPDEST POP PUSH1 0x40 DUP3 ADD MLOAD PUSH2 0x49F9 PUSH1 0x40 DUP6 ADD DUP3 PUSH2 0x49AE JUMP JUMPDEST POP PUSH1 0x60 DUP3 ADD MLOAD PUSH2 0x4A0C PUSH1 0x60 DUP6 ADD DUP3 PUSH2 0x49AE JUMP JUMPDEST POP PUSH1 0x80 DUP3 ADD MLOAD PUSH2 0x4A1F PUSH1 0x80 DUP6 ADD DUP3 PUSH2 0x49AE JUMP JUMPDEST POP POP POP POP JUMP JUMPDEST PUSH1 0x0 PUSH1 0xA0 DUP3 ADD SWAP1 POP PUSH2 0x4A3A PUSH1 0x0 DUP4 ADD DUP5 PUSH2 0x49BD JUMP JUMPDEST SWAP3 SWAP2 POP POP JUMP JUMPDEST PUSH1 0x0 PUSH8 0xFFFFFFFFFFFFFFFF DUP3 GT ISZERO PUSH2 0x4A5B JUMPI PUSH2 0x4A5A PUSH2 0x41DE JUMP JUMPDEST JUMPDEST PUSH1 0x20 DUP3 MUL SWAP1 POP PUSH1 0x20 DUP2 ADD SWAP1 POP SWAP2 SWAP1 POP JUMP JUMPDEST PUSH1 0x0 DUP1 REVERT JUMPDEST PUSH1 0x0 PUSH1 0xA0 DUP3 DUP5 SUB SLT ISZERO PUSH2 0x4A87 JUMPI PUSH2 0x4A86 PUSH2 0x4A6C JUMP JUMPDEST JUMPDEST PUSH2 0x4A91 PUSH1 0xA0 PUSH2 0x423E JUMP JUMPDEST SWAP1 POP PUSH1 0x0 PUSH2 0x4AA1 DUP5 DUP3 DUP6 ADD PUSH2 0x4123 JUMP JUMPDEST PUSH1 0x0 DUP4 ADD MSTORE POP PUSH1 0x20 PUSH2 0x4AB5 DUP5 DUP3 DUP6 ADD PUSH2 0x41AE JUMP JUMPDEST PUSH1 0x20 DUP4 ADD MSTORE POP PUSH1 0x40 PUSH2 0x4AC9 DUP5 DUP3 DUP6 ADD PUSH2 0x41AE JUMP JUMPDEST PUSH1 0x40 DUP4 ADD MSTORE POP PUSH1 0x60 PUSH2 0x4ADD DUP5 DUP3 DUP6 ADD PUSH2 0x41AE JUMP JUMPDEST PUSH1 0x60 DUP4 ADD MSTORE POP PUSH1 0x80 PUSH2 0x4AF1 DUP5 DUP3 DUP6 ADD PUSH2 0x41AE JUMP JUMPDEST PUSH1 0x80 DUP4 ADD MSTORE POP SWAP3 SWAP2 POP POP JUMP JUMPDEST PUSH1 0x0 PUSH2 0x4B10 PUSH2 0x4B0B DUP5 PUSH2 0x4A40 JUMP JUMPDEST PUSH2 0x423E JUMP JUMPDEST SWAP1 POP DUP1 DUP4 DUP3 MSTORE PUSH1 0x20 DUP3 ADD SWAP1 POP PUSH1 0xA0 DUP5 MUL DUP4 ADD DUP6 DUP2 GT ISZERO PUSH2 0x4B33 JUMPI PUSH2 0x4B32 PUSH2 0x4636 JUMP JUMPDEST JUMPDEST DUP4 JUMPDEST DUP2 DUP2 LT ISZERO PUSH2 0x4B5C JUMPI DUP1 PUSH2 0x4B48 DUP9 DUP3 PUSH2 0x4A71 JUMP JUMPDEST DUP5 MSTORE PUSH1 0x20 DUP5 ADD SWAP4 POP POP PUSH1 0xA0 DUP2 ADD SWAP1 POP PUSH2 0x4B35 JUMP JUMPDEST POP POP POP SWAP4 SWAP3 POP POP POP JUMP JUMPDEST PUSH1 0x0 DUP3 PUSH1 0x1F DUP4 ADD SLT PUSH2 0x4B7B JUMPI PUSH2 0x4B7A PUSH2 0x41C3 JUMP JUMPDEST JUMPDEST DUP2 CALLDATALOAD PUSH2 0x4B8B DUP5 DUP3 PUSH1 0x20 DUP7 ADD PUSH2 0x4AFD JUMP JUMPDEST SWAP2 POP POP SWAP3 SWAP2 POP POP JUMP JUMPDEST PUSH1 0x0 PUSH1 0x20 DUP3 DUP5 SUB SLT ISZERO PUSH2 0x4BAA JUMPI PUSH2 0x4BA9 PUSH2 0x40F8 JUMP JUMPDEST JUMPDEST PUSH1 0x0 DUP3 ADD CALLDATALOAD PUSH8 0xFFFFFFFFFFFFFFFF DUP2 GT ISZERO PUSH2 0x4BC8 JUMPI PUSH2 0x4BC7 PUSH2 0x40FD JUMP JUMPDEST JUMPDEST PUSH2 0x4BD4 DUP5 DUP3 DUP6 ADD PUSH2 0x4B66 JUMP JUMPDEST SWAP2 POP POP SWAP3 SWAP2 POP POP JUMP JUMPDEST PUSH1 0x0 PUSH1 0x40 DUP3 ADD SWAP1 POP PUSH2 0x4BF2 PUSH1 0x0 DUP4 ADD DUP6 PUSH2 0x43FB JUMP JUMPDEST PUSH2 0x4BFF PUSH1 0x20 DUP4 ADD DUP5 PUSH2 0x43EC JUMP JUMPDEST SWAP4 SWAP3 POP POP POP JUMP JUMPDEST PUSH1 0x0 DUP3 DUP3 MSTORE PUSH1 0x20 DUP3 ADD SWAP1 POP SWAP3 SWAP2 POP POP JUMP JUMPDEST PUSH32 0x53706F6B654272696467653A2063616C6C6572206973206E6F74207468652068 PUSH1 0x0 DUP3 ADD MSTORE PUSH32 0x7562210000000000000000000000000000000000000000000000000000000000 PUSH1 0x20 DUP3 ADD MSTORE POP JUMP JUMPDEST PUSH1 0x0 PUSH2 0x4C73 PUSH1 0x23 DUP4 PUSH2 0x4C06 JUMP JUMPDEST SWAP2 POP PUSH2 0x4C7E DUP3 PUSH2 0x4C17 JUMP JUMPDEST PUSH1 0x40 DUP3 ADD SWAP1 POP SWAP2 SWAP1 POP JUMP JUMPDEST PUSH1 0x0 PUSH1 0x20 DUP3 ADD SWAP1 POP DUP2 DUP2 SUB PUSH1 0x0 DUP4 ADD MSTORE PUSH2 0x4CA2 DUP2 PUSH2 0x4C66 JUMP JUMPDEST SWAP1 POP SWAP2 SWAP1 POP JUMP JUMPDEST PUSH32 0x53706F6B654272696467653A2062726964652073746174757320697320616374 PUSH1 0x0 DUP3 ADD MSTORE PUSH32 0x6976652100000000000000000000000000000000000000000000000000000000 PUSH1 0x20 DUP3 ADD MSTORE POP JUMP JUMPDEST PUSH1 0x0 PUSH2 0x4D05 PUSH1 0x24 DUP4 PUSH2 0x4C06 JUMP JUMPDEST SWAP2 POP PUSH2 0x4D10 DUP3 PUSH2 0x4CA9 JUMP JUMPDEST PUSH1 0x40 DUP3 ADD SWAP1 POP SWAP2 SWAP1 POP JUMP JUMPDEST PUSH1 0x0 PUSH1 0x20 DUP3 ADD SWAP1 POP DUP2 DUP2 SUB PUSH1 0x0 DUP4 ADD MSTORE PUSH2 0x4D34 DUP2 PUSH2 0x4CF8 JUMP JUMPDEST SWAP1 POP SWAP2 SWAP1 POP JUMP JUMPDEST PUSH1 0x0 PUSH4 0xFFFFFFFF DUP3 AND SWAP1 POP SWAP2 SWAP1 POP JUMP JUMPDEST PUSH2 0x4D54 DUP2 PUSH2 0x4D3B JUMP JUMPDEST DUP2 EQ PUSH2 0x4D5F JUMPI PUSH1 0x0 DUP1 REVERT JUMPDEST POP JUMP JUMPDEST PUSH1 0x0 DUP2 MLOAD SWAP1 POP PUSH2 0x4D71 DUP2 PUSH2 0x4D4B JUMP JUMPDEST SWAP3 SWAP2 POP POP JUMP JUMPDEST PUSH1 0x0 DUP2 MLOAD SWAP1 POP PUSH2 0x4D86 DUP2 PUSH2 0x47ED JUMP JUMPDEST SWAP3 SWAP2 POP POP JUMP JUMPDEST PUSH1 0x0 DUP1 PUSH1 0x40 DUP4 DUP6 SUB SLT ISZERO PUSH2 0x4DA3 JUMPI PUSH2 0x4DA2 PUSH2 0x40F8 JUMP JUMPDEST JUMPDEST PUSH1 0x0 PUSH2 0x4DB1 DUP6 DUP3 DUP7 ADD PUSH2 0x4D62 JUMP JUMPDEST SWAP3 POP POP PUSH1 0x20 PUSH2 0x4DC2 DUP6 DUP3 DUP7 ADD PUSH2 0x4D77 JUMP JUMPDEST SWAP2 POP POP SWAP3 POP SWAP3 SWAP1 POP JUMP JUMPDEST PUSH32 0x53706F6B654272696467653A20696E636F6D696E6720626C6F636B2068617320 PUSH1 0x0 DUP3 ADD MSTORE PUSH32 0x6E6F206368616C6C656E67656420737461747573210000000000000000000000 PUSH1 0x20 DUP3 ADD MSTORE POP JUMP JUMPDEST PUSH1 0x0 PUSH2 0x4E28 PUSH1 0x35 DUP4 PUSH2 0x4C06 JUMP JUMPDEST SWAP2 POP PUSH2 0x4E33 DUP3 PUSH2 0x4DCC JUMP JUMPDEST PUSH1 0x40 DUP3 ADD SWAP1 POP SWAP2 SWAP1 POP JUMP JUMPDEST PUSH1 0x0 PUSH1 0x20 DUP3 ADD SWAP1 POP DUP2 DUP2 SUB PUSH1 0x0 DUP4 ADD MSTORE PUSH2 0x4E57 DUP2 PUSH2 0x4E1B JUMP JUMPDEST SWAP1 POP SWAP2 SWAP1 POP JUMP JUMPDEST PUSH32 0x4E487B7100000000000000000000000000000000000000000000000000000000 PUSH1 0x0 MSTORE PUSH1 0x12 PUSH1 0x4 MSTORE PUSH1 0x24 PUSH1 0x0 REVERT JUMPDEST PUSH32 0x4E487B7100000000000000000000000000000000000000000000000000000000 PUSH1 0x0 MSTORE PUSH1 0x11 PUSH1 0x4 MSTORE PUSH1 0x24 PUSH1 0x0 REVERT JUMPDEST PUSH1 0x0 PUSH2 0x4EC7 DUP3 PUSH2 0x4102 JUMP JUMPDEST SWAP2 POP PUSH2 0x4ED2 DUP4 PUSH2 0x4102 JUMP JUMPDEST SWAP3 POP DUP3 PUSH2 0x4EE2 JUMPI PUSH2 0x4EE1 PUSH2 0x4E5E JUMP JUMPDEST JUMPDEST DUP3 DUP3 DIV SWAP1 POP SWAP3 SWAP2 POP POP JUMP JUMPDEST PUSH1 0x0 PUSH2 0x4EF8 DUP3 PUSH2 0x4102 JUMP JUMPDEST SWAP2 POP PUSH2 0x4F03 DUP4 PUSH2 0x4102 JUMP JUMPDEST SWAP3 POP DUP3 DUP3 ADD SWAP1 POP DUP1 DUP3 GT ISZERO PUSH2 0x4F1B JUMPI PUSH2 0x4F1A PUSH2 0x4E8D JUMP JUMPDEST JUMPDEST SWAP3 SWAP2 POP POP JUMP JUMPDEST PUSH32 0x53706F6B654272696467653A20627269646765206973206E6F74207061757365 PUSH1 0x0 DUP3 ADD MSTORE PUSH32 0x6421000000000000000000000000000000000000000000000000000000000000 PUSH1 0x20 DUP3 ADD MSTORE POP JUMP JUMPDEST PUSH1 0x0 PUSH2 0x4F7D PUSH1 0x22 DUP4 PUSH2 0x4C06 JUMP JUMPDEST SWAP2 POP PUSH2 0x4F88 DUP3 PUSH2 0x4F21 JUMP JUMPDEST PUSH1 0x40 DUP3 ADD SWAP1 POP SWAP2 SWAP1 POP JUMP JUMPDEST PUSH1 0x0 PUSH1 0x20 DUP3 ADD SWAP1 POP DUP2 DUP2 SUB PUSH1 0x0 DUP4 ADD MSTORE PUSH2 0x4FAC DUP2 PUSH2 0x4F70 JUMP JUMPDEST SWAP1 POP SWAP2 SWAP1 POP JUMP JUMPDEST PUSH1 0x0 PUSH2 0x4FBE DUP3 PUSH2 0x4102 JUMP JUMPDEST SWAP2 POP PUSH32 0xFFFFFFFFFFFFFFFFFFFFFFFFFFFFFFFFFFFFFFFFFFFFFFFFFFFFFFFFFFFFFFFF DUP3 SUB PUSH2 0x4FF0 JUMPI PUSH2 0x4FEF PUSH2 0x4E8D JUMP JUMPDEST JUMPDEST PUSH1 0x1 DUP3 ADD SWAP1 POP SWAP2 SWAP1 POP JUMP JUMPDEST PUSH1 0x0 PUSH2 0x5006 DUP3 PUSH2 0x4102 JUMP JUMPDEST SWAP2 POP PUSH2 0x5011 DUP4 PUSH2 0x4102 JUMP JUMPDEST SWAP3 POP DUP3 DUP3 SUB SWAP1 POP DUP2 DUP2 GT ISZERO PUSH2 0x5029 JUMPI PUSH2 0x5028 PUSH2 0x4E8D JUMP JUMPDEST JUMPDEST SWAP3 SWAP2 POP POP JUMP JUMPDEST PUSH32 0x53706F6B654272696467653A20627269646765206973206E6F74206163746976 PUSH1 0x0 DUP3 ADD MSTORE PUSH32 0x6521000000000000000000000000000000000000000000000000000000000000 PUSH1 0x20 DUP3 ADD MSTORE POP JUMP JUMPDEST PUSH1 0x0 PUSH2 0x508B PUSH1 0x22 DUP4 PUSH2 0x4C06 JUMP JUMPDEST SWAP2 POP PUSH2 0x5096 DUP3 PUSH2 0x502F JUMP JUMPDEST PUSH1 0x40 DUP3 ADD SWAP1 POP SWAP2 SWAP1 POP JUMP JUMPDEST PUSH1 0x0 PUSH1 0x20 DUP3 ADD SWAP1 POP DUP2 DUP2 SUB PUSH1 0x0 DUP4 ADD MSTORE PUSH2 0x50BA DUP2 PUSH2 0x507E JUMP JUMPDEST SWAP1 POP SWAP2 SWAP1 POP JUMP JUMPDEST PUSH32 0x44737453706F6B654272696467653A207468657265206973206E6F20656E6F75 PUSH1 0x0 DUP3 ADD MSTORE PUSH32 0x67682066656520666F722072656C617965727321000000000000000000000000 PUSH1 0x20 DUP3 ADD MSTORE POP JUMP JUMPDEST PUSH1 0x0 PUSH2 0x511D PUSH1 0x34 DUP4 PUSH2 0x4C06 JUMP JUMPDEST SWAP2 POP PUSH2 0x5128 DUP3 PUSH2 0x50C1 JUMP JUMPDEST PUSH1 0x40 DUP3 ADD SWAP1 POP SWAP2 SWAP1 POP JUMP JUMPDEST PUSH1 0x0 PUSH1 0x20 DUP3 ADD SWAP1 POP DUP2 DUP2 SUB PUSH1 0x0 DUP4 ADD MSTORE PUSH2 0x514C DUP2 PUSH2 0x5110 JUMP JUMPDEST SWAP1 POP SWAP2 SWAP1 POP JUMP JUMPDEST PUSH32 0x44737453706F6B654272696467653A20696E636F6D696E6720626C6F636B2068 PUSH1 0x0 DUP3 ADD MSTORE PUSH32 0x6173206E6F2052656C6179656420737461746521000000000000000000000000 PUSH1 0x20 DUP3 ADD MSTORE POP JUMP JUMPDEST PUSH1 0x0 PUSH2 0x51AF PUSH1 0x34 DUP4 PUSH2 0x4C06 JUMP JUMPDEST SWAP2 POP PUSH2 0x51BA DUP3 PUSH2 0x5153 JUMP JUMPDEST PUSH1 0x40 DUP3 ADD SWAP1 POP SWAP2 SWAP1 POP JUMP JUMPDEST PUSH1 0x0 PUSH1 0x20 DUP3 ADD SWAP1 POP DUP2 DUP2 SUB PUSH1 0x0 DUP4 ADD MSTORE PUSH2 0x51DE DUP2 PUSH2 0x51A2 JUMP JUMPDEST SWAP1 POP SWAP2 SWAP1 POP JUMP JUMPDEST PUSH32 0x44737453706F6B654272696467653A207468652072656C617965722068617320 PUSH1 0x0 DUP3 ADD MSTORE PUSH32 0x6E6F206163746976652073746174757300000000000000000000000000000000 PUSH1 0x20 DUP3 ADD MSTORE POP JUMP JUMPDEST PUSH1 0x0 PUSH2 0x5241 PUSH1 0x30 DUP4 PUSH2 0x4C06 JUMP JUMPDEST SWAP2 POP PUSH2 0x524C DUP3 PUSH2 0x51E5 JUMP JUMPDEST PUSH1 0x40 DUP3 ADD SWAP1 POP SWAP2 SWAP1 POP JUMP JUMPDEST PUSH1 0x0 PUSH1 0x20 DUP3 ADD SWAP1 POP DUP2 DUP2 SUB PUSH1 0x0 DUP4 ADD MSTORE PUSH2 0x5270 DUP2 PUSH2 0x5234 JUMP JUMPDEST SWAP1 POP SWAP2 SWAP1 POP JUMP JUMPDEST PUSH32 0x44737453706F6B654272696467653A2070726F6F66206973206E6F7420636F72 PUSH1 0x0 DUP3 ADD MSTORE PUSH32 0x7265637420647572696E6720636C616D696E6721000000000000000000000000 PUSH1 0x20 DUP3 ADD MSTORE POP JUMP JUMPDEST PUSH1 0x0 PUSH2 0x52D3 PUSH1 0x34 DUP4 PUSH2 0x4C06 JUMP JUMPDEST SWAP2 POP PUSH2 0x52DE DUP3 PUSH2 0x5277 JUMP JUMPDEST PUSH1 0x40 DUP3 ADD SWAP1 POP SWAP2 SWAP1 POP JUMP JUMPDEST PUSH1 0x0 PUSH1 0x20 DUP3 ADD SWAP1 POP DUP2 DUP2 SUB PUSH1 0x0 DUP4 ADD MSTORE PUSH2 0x5302 DUP2 PUSH2 0x52C6 JUMP JUMPDEST SWAP1 POP SWAP2 SWAP1 POP JUMP JUMPDEST PUSH32 0x44737453706F6B654272696467653A207265636569766572206973206E6F7420 PUSH1 0x0 DUP3 ADD MSTORE PUSH32 0x746865206D6573736167652073656E6465722100000000000000000000000000 PUSH1 0x20 DUP3 ADD MSTORE POP JUMP JUMPDEST PUSH1 0x0 PUSH2 0x5365 PUSH1 0x33 DUP4 PUSH2 0x4C06 JUMP JUMPDEST SWAP2 POP PUSH2 0x5370 DUP3 PUSH2 0x5309 JUMP JUMPDEST PUSH1 0x40 DUP3 ADD SWAP1 POP SWAP2 SWAP1 POP JUMP JUMPDEST PUSH1 0x0 PUSH1 0x20 DUP3 ADD SWAP1 POP DUP2 DUP2 SUB PUSH1 0x0 DUP4 ADD MSTORE PUSH2 0x5394 DUP2 PUSH2 0x5358 JUMP JUMPDEST SWAP1 POP SWAP2 SWAP1 POP JUMP JUMPDEST PUSH1 0x0 DUP2 SWAP1 POP SWAP3 SWAP2 POP POP JUMP JUMPDEST POP JUMP JUMPDEST PUSH1 0x0 PUSH2 0x53B6 PUSH1 0x0 DUP4 PUSH2 0x539B JUMP JUMPDEST SWAP2 POP PUSH2 0x53C1 DUP3 PUSH2 0x53A6 JUMP JUMPDEST PUSH1 0x0 DUP3 ADD SWAP1 POP SWAP2 SWAP1 POP JUMP JUMPDEST PUSH1 0x0 PUSH2 0x53D7 DUP3 PUSH2 0x53A9 JUMP JUMPDEST SWAP2 POP DUP2 SWAP1 POP SWAP2 SWAP1 POP JUMP JUMPDEST PUSH32 0x4661696C656420746F2073656E64204574686572000000000000000000000000 PUSH1 0x0 DUP3 ADD MSTORE POP JUMP JUMPDEST PUSH1 0x0 PUSH2 0x5417 PUSH1 0x14 DUP4 PUSH2 0x4C06 JUMP JUMPDEST SWAP2 POP PUSH2 0x5422 DUP3 PUSH2 0x53E1 JUMP JUMPDEST PUSH1 0x20 DUP3 ADD SWAP1 POP SWAP2 SWAP1 POP JUMP JUMPDEST PUSH1 0x0 PUSH1 0x20 DUP3 ADD SWAP1 POP DUP2 DUP2 SUB PUSH1 0x0 DUP4 ADD MSTORE PUSH2 0x5446 DUP2 PUSH2 0x540A JUMP JUMPDEST SWAP1 POP SWAP2 SWAP1 POP JUMP JUMPDEST PUSH1 0x0 PUSH1 0x40 DUP3 ADD SWAP1 POP PUSH2 0x5462 PUSH1 0x0 DUP4 ADD DUP6 PUSH2 0x4481 JUMP JUMPDEST PUSH2 0x546F PUSH1 0x20 DUP4 ADD DUP5 PUSH2 0x43FB JUMP JUMPDEST SWAP4 SWAP3 POP POP POP JUMP JUMPDEST PUSH32 0x53706F6B654272696467653A207468657265206973206E6F2072657761726421 PUSH1 0x0 DUP3 ADD MSTORE POP JUMP JUMPDEST PUSH1 0x0 PUSH2 0x54AC PUSH1 0x20 DUP4 PUSH2 0x4C06 JUMP JUMPDEST SWAP2 POP PUSH2 0x54B7 DUP3 PUSH2 0x5476 JUMP JUMPDEST PUSH1 0x20 DUP3 ADD SWAP1 POP SWAP2 SWAP1 POP JUMP JUMPDEST PUSH1 0x0 PUSH1 0x20 DUP3 ADD SWAP1 POP DUP2 DUP2 SUB PUSH1 0x0 DUP4 ADD MSTORE PUSH2 0x54DB DUP2 PUSH2 0x549F JUMP JUMPDEST SWAP1 POP SWAP2 SWAP1 POP JUMP JUMPDEST PUSH32 0x53706F6B654272696467653A2072657761726420697320616C72656164792063 PUSH1 0x0 DUP3 ADD MSTORE PUSH32 0x6C61696D65642100000000000000000000000000000000000000000000000000 PUSH1 0x20 DUP3 ADD MSTORE POP JUMP JUMPDEST PUSH1 0x0 PUSH2 0x553E PUSH1 0x27 DUP4 PUSH2 0x4C06 JUMP JUMPDEST SWAP2 POP PUSH2 0x5549 DUP3 PUSH2 0x54E2 JUMP JUMPDEST PUSH1 0x40 DUP3 ADD SWAP1 POP SWAP2 SWAP1 POP JUMP JUMPDEST PUSH1 0x0 PUSH1 0x20 DUP3 ADD SWAP1 POP DUP2 DUP2 SUB PUSH1 0x0 DUP4 ADD MSTORE PUSH2 0x556D DUP2 PUSH2 0x5531 JUMP JUMPDEST SWAP1 POP SWAP2 SWAP1 POP JUMP JUMPDEST PUSH32 0x53706F6B654272696467653A2063616C6C6572206973206E6F7420612072656C PUSH1 0x0 DUP3 ADD MSTORE PUSH32 0x6179657221000000000000000000000000000000000000000000000000000000 PUSH1 0x20 DUP3 ADD MSTORE POP JUMP JUMPDEST PUSH1 0x0 PUSH2 0x55D0 PUSH1 0x25 DUP4 PUSH2 0x4C06 JUMP JUMPDEST SWAP2 POP PUSH2 0x55DB DUP3 PUSH2 0x5574 JUMP JUMPDEST PUSH1 0x40 DUP3 ADD SWAP1 POP SWAP2 SWAP1 POP JUMP JUMPDEST PUSH1 0x0 PUSH1 0x20 DUP3 ADD SWAP1 POP DUP2 DUP2 SUB PUSH1 0x0 DUP4 ADD MSTORE PUSH2 0x55FF DUP2 PUSH2 0x55C3 JUMP JUMPDEST SWAP1 POP SWAP2 SWAP1 POP JUMP JUMPDEST PUSH32 0x4E487B7100000000000000000000000000000000000000000000000000000000 PUSH1 0x0 MSTORE PUSH1 0x32 PUSH1 0x4 MSTORE PUSH1 0x24 PUSH1 0x0 REVERT JUMPDEST PUSH32 0x44737453706F6B654272696467653A2070726F6F66206973206E6F7420636F72 PUSH1 0x0 DUP3 ADD MSTORE PUSH32 0x7265637420756E7772617070696E672100000000000000000000000000000000 PUSH1 0x20 DUP3 ADD MSTORE POP JUMP JUMPDEST PUSH1 0x0 PUSH2 0x5691 PUSH1 0x30 DUP4 PUSH2 0x4C06 JUMP JUMPDEST SWAP2 POP PUSH2 0x569C DUP3 PUSH2 0x5635 JUMP JUMPDEST PUSH1 0x40 DUP3 ADD SWAP1 POP SWAP2 SWAP1 POP JUMP JUMPDEST PUSH1 0x0 PUSH1 0x20 DUP3 ADD SWAP1 POP DUP2 DUP2 SUB PUSH1 0x0 DUP4 ADD MSTORE PUSH2 0x56C0 DUP2 PUSH2 0x5684 JUMP JUMPDEST SWAP1 POP SWAP2 SWAP1 POP JUMP JUMPDEST PUSH1 0x0 DUP2 MLOAD SWAP1 POP PUSH2 0x56D6 DUP2 PUSH2 0x4197 JUMP JUMPDEST SWAP3 SWAP2 POP POP JUMP JUMPDEST PUSH1 0x0 PUSH1 0x20 DUP3 DUP5 SUB SLT ISZERO PUSH2 0x56F2 JUMPI PUSH2 0x56F1 PUSH2 0x40F8 JUMP JUMPDEST JUMPDEST PUSH1 0x0 PUSH2 0x5700 DUP5 DUP3 DUP6 ADD PUSH2 0x56C7 JUMP JUMPDEST SWAP2 POP POP SWAP3 SWAP2 POP POP JUMP JUMPDEST PUSH32 0x44737453706F6B654272696467653A206F776E6572206973206E6F7420746865 PUSH1 0x0 DUP3 ADD MSTORE PUSH32 0x2063616C6C657221000000000000000000000000000000000000000000000000 PUSH1 0x20 DUP3 ADD MSTORE POP JUMP JUMPDEST PUSH1 0x0 PUSH2 0x5765 PUSH1 0x28 DUP4 PUSH2 0x4C06 JUMP JUMPDEST SWAP2 POP PUSH2 0x5770 DUP3 PUSH2 0x5709 JUMP JUMPDEST PUSH1 0x40 DUP3 ADD SWAP1 POP SWAP2 SWAP1 POP JUMP JUMPDEST PUSH1 0x0 PUSH1 0x20 DUP3 ADD SWAP1 POP DUP2 DUP2 SUB PUSH1 0x0 DUP4 ADD MSTORE PUSH2 0x5794 DUP2 PUSH2 0x5758 JUMP JUMPDEST SWAP1 POP SWAP2 SWAP1 POP JUMP JUMPDEST PUSH32 0x44657353706F6B654272696467653A206368616C6C656E67696E672074696D65 PUSH1 0x0 DUP3 ADD MSTORE PUSH32 0x2077696E646F77206973206E6F74206578706972656420796574210000000000 PUSH1 0x20 DUP3 ADD MSTORE POP JUMP JUMPDEST PUSH1 0x0 PUSH2 0x57F7 PUSH1 0x3B DUP4 PUSH2 0x4C06 JUMP JUMPDEST SWAP2 POP PUSH2 0x5802 DUP3 PUSH2 0x579B JUMP JUMPDEST PUSH1 0x40 DUP3 ADD SWAP1 POP SWAP2 SWAP1 POP JUMP JUMPDEST PUSH1 0x0 PUSH1 0x20 DUP3 ADD SWAP1 POP DUP2 DUP2 SUB PUSH1 0x0 DUP4 ADD MSTORE PUSH2 0x5826 DUP2 PUSH2 0x57EA JUMP JUMPDEST SWAP1 POP SWAP2 SWAP1 POP JUMP JUMPDEST PUSH32 0x53706F6B654272696467653A2063616C6C6572206973206E6F7420696E20756E PUSH1 0x0 DUP3 ADD MSTORE PUSH32 0x6465706F73697465642073746174652100000000000000000000000000000000 PUSH1 0x20 DUP3 ADD MSTORE POP JUMP JUMPDEST PUSH1 0x0 PUSH2 0x5889 PUSH1 0x30 DUP4 PUSH2 0x4C06 JUMP JUMPDEST SWAP2 POP PUSH2 0x5894 DUP3 PUSH2 0x582D JUMP JUMPDEST PUSH1 0x40 DUP3 ADD SWAP1 POP SWAP2 SWAP1 POP JUMP JUMPDEST PUSH1 0x0 PUSH1 0x20 DUP3 ADD SWAP1 POP DUP2 DUP2 SUB PUSH1 0x0 DUP4 ADD MSTORE PUSH2 0x58B8 DUP2 PUSH2 0x587C JUMP JUMPDEST SWAP1 POP SWAP2 SWAP1 POP JUMP JUMPDEST PUSH32 0x53706F6B654272696467653A20322064617973206973206E6F74206578706972 PUSH1 0x0 DUP3 ADD MSTORE PUSH32 0x65642066726F6D2074686520756E6465706F736974696E672100000000000000 PUSH1 0x20 DUP3 ADD MSTORE POP JUMP JUMPDEST PUSH1 0x0 PUSH2 0x591B PUSH1 0x39 DUP4 PUSH2 0x4C06 JUMP JUMPDEST SWAP2 POP PUSH2 0x5926 DUP3 PUSH2 0x58BF JUMP JUMPDEST PUSH1 0x40 DUP3 ADD SWAP1 POP SWAP2 SWAP1 POP JUMP JUMPDEST PUSH1 0x0 PUSH1 0x20 DUP3 ADD SWAP1 POP DUP2 DUP2 SUB PUSH1 0x0 DUP4 ADD MSTORE PUSH2 0x594A DUP2 PUSH2 0x590E JUMP JUMPDEST SWAP1 POP SWAP2 SWAP1 POP JUMP JUMPDEST PUSH32 0x53706F6B654272696467653A2063616C6C65722063616E6E6F74206265206120 PUSH1 0x0 DUP3 ADD MSTORE PUSH32 0x72656C6179657221000000000000000000000000000000000000000000000000 PUSH1 0x20 DUP3 ADD MSTORE POP JUMP JUMPDEST PUSH1 0x0 PUSH2 0x59AD PUSH1 0x28 DUP4 PUSH2 0x4C06 JUMP JUMPDEST SWAP2 POP PUSH2 0x59B8 DUP3 PUSH2 0x5951 JUMP JUMPDEST PUSH1 0x40 DUP3 ADD SWAP1 POP SWAP2 SWAP1 POP JUMP JUMPDEST PUSH1 0x0 PUSH1 0x20 DUP3 ADD SWAP1 POP DUP2 DUP2 SUB PUSH1 0x0 DUP4 ADD MSTORE PUSH2 0x59DC DUP2 PUSH2 0x59A0 JUMP JUMPDEST SWAP1 POP SWAP2 SWAP1 POP JUMP JUMPDEST PUSH32 0x53706F6B654272696467653A206D73672E76616C7565206973206E6F74206170 PUSH1 0x0 DUP3 ADD MSTORE PUSH32 0x70726F7072696174652100000000000000000000000000000000000000000000 PUSH1 0x20 DUP3 ADD MSTORE POP JUMP JUMPDEST PUSH1 0x0 PUSH2 0x5A3F PUSH1 0x2A DUP4 PUSH2 0x4C06 JUMP JUMPDEST SWAP2 POP PUSH2 0x5A4A DUP3 PUSH2 0x59E3 JUMP JUMPDEST PUSH1 0x40 DUP3 ADD SWAP1 POP SWAP2 SWAP1 POP JUMP JUMPDEST PUSH1 0x0 PUSH1 0x20 DUP3 ADD SWAP1 POP DUP2 DUP2 SUB PUSH1 0x0 DUP4 ADD MSTORE PUSH2 0x5A6E DUP2 PUSH2 0x5A32 JUMP JUMPDEST SWAP1 POP SWAP2 SWAP1 POP JUMP JUMPDEST PUSH32 0x53706F6B654272696467653A204E6F20656E6F75676820616D6F756E74206F66 PUSH1 0x0 DUP3 ADD MSTORE PUSH32 0x2045544820746F207374616B6521000000000000000000000000000000000000 PUSH1 0x20 DUP3 ADD MSTORE POP JUMP JUMPDEST PUSH1 0x0 PUSH2 0x5AD1 PUSH1 0x2E DUP4 PUSH2 0x4C06 JUMP JUMPDEST SWAP2 POP PUSH2 0x5ADC DUP3 PUSH2 0x5A75 JUMP JUMPDEST PUSH1 0x40 DUP3 ADD SWAP1 POP SWAP2 SWAP1 POP JUMP JUMPDEST PUSH1 0x0 PUSH1 0x20 DUP3 ADD SWAP1 POP DUP2 DUP2 SUB PUSH1 0x0 DUP4 ADD MSTORE PUSH2 0x5B00 DUP2 PUSH2 0x5AC4 JUMP JUMPDEST SWAP1 POP SWAP2 SWAP1 POP JUMP JUMPDEST PUSH32 0x53706F6B654272696467653A20436F72726573706F6E64696E6720696E636F6D PUSH1 0x0 DUP3 ADD MSTORE PUSH32 0x696E672062696420737461747573206973206E6F742072656C61796564210000 PUSH1 0x20 DUP3 ADD MSTORE POP JUMP JUMPDEST PUSH1 0x0 PUSH2 0x5B63 PUSH1 0x3E DUP4 PUSH2 0x4C06 JUMP JUMPDEST SWAP2 POP PUSH2 0x5B6E DUP3 PUSH2 0x5B07 JUMP JUMPDEST PUSH1 0x40 DUP3 ADD SWAP1 POP SWAP2 SWAP1 POP JUMP JUMPDEST PUSH1 0x0 PUSH1 0x20 DUP3 ADD SWAP1 POP DUP2 DUP2 SUB PUSH1 0x0 DUP4 ADD MSTORE PUSH2 0x5B92 DUP2 PUSH2 0x5B56 JUMP JUMPDEST SWAP1 POP SWAP2 SWAP1 POP JUMP JUMPDEST PUSH32 0x53706F6B654272696467653A20546865206469737075746520706572696F6420 PUSH1 0x0 DUP3 ADD MSTORE PUSH32 0x6973206578706972656421000000000000000000000000000000000000000000 PUSH1 0x20 DUP3 ADD MSTORE POP JUMP JUMPDEST PUSH1 0x0 PUSH2 0x5BF5 PUSH1 0x2B DUP4 PUSH2 0x4C06 JUMP JUMPDEST SWAP2 POP PUSH2 0x5C00 DUP3 PUSH2 0x5B99 JUMP JUMPDEST PUSH1 0x40 DUP3 ADD SWAP1 POP SWAP2 SWAP1 POP JUMP JUMPDEST PUSH1 0x0 PUSH1 0x20 DUP3 ADD SWAP1 POP DUP2 DUP2 SUB PUSH1 0x0 DUP4 ADD MSTORE PUSH2 0x5C24 DUP2 PUSH2 0x5BE8 JUMP JUMPDEST SWAP1 POP SWAP2 SWAP1 POP JUMP JUMPDEST PUSH32 0x53706F6B654272696467653A2062696420697320616C7265616479206368616C PUSH1 0x0 DUP3 ADD MSTORE PUSH32 0x6C656E6765642100000000000000000000000000000000000000000000000000 PUSH1 0x20 DUP3 ADD MSTORE POP JUMP JUMPDEST PUSH1 0x0 PUSH2 0x5C87 PUSH1 0x27 DUP4 PUSH2 0x4C06 JUMP JUMPDEST SWAP2 POP PUSH2 0x5C92 DUP3 PUSH2 0x5C2B JUMP JUMPDEST PUSH1 0x40 DUP3 ADD SWAP1 POP SWAP2 SWAP1 POP JUMP JUMPDEST PUSH1 0x0 PUSH1 0x20 DUP3 ADD SWAP1 POP DUP2 DUP2 SUB PUSH1 0x0 DUP4 ADD MSTORE PUSH2 0x5CB6 DUP2 PUSH2 0x5C7A JUMP JUMPDEST SWAP1 POP SWAP2 SWAP1 POP JUMP JUMPDEST PUSH32 0x53706F6B654272696467653A2074686520737461747573206F66207468652062 PUSH1 0x0 DUP3 ADD MSTORE PUSH32 0x7269646765206973207061757365642100000000000000000000000000000000 PUSH1 0x20 DUP3 ADD MSTORE POP JUMP JUMPDEST PUSH1 0x0 PUSH2 0x5D19 PUSH1 0x30 DUP4 PUSH2 0x4C06 JUMP JUMPDEST SWAP2 POP PUSH2 0x5D24 DUP3 PUSH2 0x5CBD JUMP JUMPDEST PUSH1 0x40 DUP3 ADD SWAP1 POP SWAP2 SWAP1 POP JUMP JUMPDEST PUSH1 0x0 PUSH1 0x20 DUP3 ADD SWAP1 POP DUP2 DUP2 SUB PUSH1 0x0 DUP4 ADD MSTORE PUSH2 0x5D48 DUP2 PUSH2 0x5D0C JUMP JUMPDEST SWAP1 POP SWAP2 SWAP1 POP JUMP JUMPDEST PUSH32 0x4F776E61626C653A206E6577206F776E657220697320746865207A65726F2061 PUSH1 0x0 DUP3 ADD MSTORE PUSH32 0x6464726573730000000000000000000000000000000000000000000000000000 PUSH1 0x20 DUP3 ADD MSTORE POP JUMP JUMPDEST PUSH1 0x0 PUSH2 0x5DAB PUSH1 0x26 DUP4 PUSH2 0x4C06 JUMP JUMPDEST SWAP2 POP PUSH2 0x5DB6 DUP3 PUSH2 0x5D4F JUMP JUMPDEST PUSH1 0x40 DUP3 ADD SWAP1 POP SWAP2 SWAP1 POP JUMP JUMPDEST PUSH1 0x0 PUSH1 0x20 DUP3 ADD SWAP1 POP DUP2 DUP2 SUB PUSH1 0x0 DUP4 ADD MSTORE PUSH2 0x5DDA DUP2 PUSH2 0x5D9E JUMP JUMPDEST SWAP1 POP SWAP2 SWAP1 POP JUMP JUMPDEST PUSH1 0x0 PUSH1 0xA0 DUP3 ADD SWAP1 POP PUSH2 0x5DF6 PUSH1 0x0 DUP4 ADD DUP9 PUSH2 0x43FB JUMP JUMPDEST PUSH2 0x5E03 PUSH1 0x20 DUP4 ADD DUP8 PUSH2 0x4481 JUMP JUMPDEST PUSH2 0x5E10 PUSH1 0x40 DUP4 ADD DUP7 PUSH2 0x4481 JUMP JUMPDEST PUSH2 0x5E1D PUSH1 0x60 DUP4 ADD DUP6 PUSH2 0x4481 JUMP JUMPDEST PUSH2 0x5E2A PUSH1 0x80 DUP4 ADD DUP5 PUSH2 0x4481 JUMP JUMPDEST SWAP7 SWAP6 POP POP POP POP POP POP JUMP JUMPDEST PUSH1 0x0 DUP2 SWAP1 POP SWAP2 SWAP1 POP JUMP JUMPDEST PUSH2 0x5E4F PUSH2 0x5E4A DUP3 PUSH2 0x43E2 JUMP JUMPDEST PUSH2 0x5E34 JUMP JUMPDEST DUP3 MSTORE POP POP JUMP JUMPDEST PUSH1 0x0 PUSH2 0x5E61 DUP3 DUP6 PUSH2 0x5E3E JUMP JUMPDEST PUSH1 0x20 DUP3 ADD SWAP2 POP PUSH2 0x5E71 DUP3 DUP5 PUSH2 0x5E3E JUMP JUMPDEST PUSH1 0x20 DUP3 ADD SWAP2 POP DUP2 SWAP1 POP SWAP4 SWAP3 POP POP POP JUMP JUMPDEST PUSH1 0x0 PUSH2 0x5E8C DUP3 PUSH2 0x4D3B JUMP JUMPDEST SWAP2 POP PUSH4 0xFFFFFFFF DUP3 SUB PUSH2 0x5EA2 JUMPI PUSH2 0x5EA1 PUSH2 0x4E8D JUMP JUMPDEST JUMPDEST PUSH1 0x1 DUP3 ADD SWAP1 POP SWAP2 SWAP1 POP JUMP JUMPDEST PUSH1 0x0 DUP2 MLOAD SWAP1 POP SWAP2 SWAP1 POP JUMP JUMPDEST PUSH1 0x0 DUP3 DUP3 MSTORE PUSH1 0x20 DUP3 ADD SWAP1 POP SWAP3 SWAP2 POP POP JUMP JUMPDEST PUSH1 0x0 JUMPDEST DUP4 DUP2 LT ISZERO PUSH2 0x5EE7 JUMPI DUP1 DUP3 ADD MLOAD DUP2 DUP5 ADD MSTORE PUSH1 0x20 DUP2 ADD SWAP1 POP PUSH2 0x5ECC JUMP JUMPDEST PUSH1 0x0 DUP5 DUP5 ADD MSTORE POP POP POP POP JUMP JUMPDEST PUSH1 0x0 PUSH2 0x5EFE DUP3 PUSH2 0x5EAD JUMP JUMPDEST PUSH2 0x5F08 DUP2 DUP6 PUSH2 0x5EB8 JUMP JUMPDEST SWAP4 POP PUSH2 0x5F18 DUP2 DUP6 PUSH1 0x20 DUP7 ADD PUSH2 0x5EC9 JUMP JUMPDEST PUSH2 0x5F21 DUP2 PUSH2 0x41CD JUMP JUMPDEST DUP5 ADD SWAP2 POP POP SWAP3 SWAP2 POP POP JUMP JUMPDEST PUSH1 0x0 PUSH1 0x20 DUP3 ADD SWAP1 POP DUP2 DUP2 SUB PUSH1 0x0 DUP4 ADD MSTORE PUSH2 0x5F46 DUP2 DUP5 PUSH2 0x5EF3 JUMP JUMPDEST SWAP1 POP SWAP3 SWAP2 POP POP JUMP JUMPDEST PUSH32 0x436F756E7465723A2064656372656D656E74206F766572666C6F770000000000 PUSH1 0x0 DUP3 ADD MSTORE POP JUMP JUMPDEST PUSH1 0x0 PUSH2 0x5F84 PUSH1 0x1B DUP4 PUSH2 0x4C06 JUMP JUMPDEST SWAP2 POP PUSH2 0x5F8F DUP3 PUSH2 0x5F4E JUMP JUMPDEST PUSH1 0x20 DUP3 ADD SWAP1 POP SWAP2 SWAP1 POP JUMP JUMPDEST PUSH1 0x0 PUSH1 0x20 DUP3 ADD SWAP1 POP DUP2 DUP2 SUB PUSH1 0x0 DUP4 ADD MSTORE PUSH2 0x5FB3 DUP2 PUSH2 0x5F77 JUMP JUMPDEST SWAP1 POP SWAP2 SWAP1 POP JUMP JUMPDEST PUSH1 0x0 PUSH2 0x5FC5 DUP3 PUSH2 0x4102 JUMP JUMPDEST SWAP2 POP PUSH2 0x5FD0 DUP4 PUSH2 0x4102 JUMP JUMPDEST SWAP3 POP DUP3 PUSH2 0x5FE0 JUMPI PUSH2 0x5FDF PUSH2 0x4E5E JUMP JUMPDEST JUMPDEST DUP3 DUP3 MOD SWAP1 POP SWAP3 SWAP2 POP POP JUMP JUMPDEST PUSH1 0x0 DUP2 PUSH1 0xE0 SHR SWAP1 POP SWAP2 SWAP1 POP JUMP JUMPDEST PUSH1 0x0 PUSH1 0x3 RETURNDATASIZE GT ISZERO PUSH2 0x6017 JUMPI PUSH1 0x4 PUSH1 0x0 DUP1 RETURNDATACOPY PUSH2 0x6014 PUSH1 0x0 MLOAD PUSH2 0x5FEB JUMP JUMPDEST SWAP1 POP JUMPDEST SWAP1 JUMP JUMPDEST PUSH1 0x0 PUSH1 0x44 RETURNDATASIZE LT PUSH2 0x60A7 JUMPI PUSH2 0x602C PUSH2 0x40EE JUMP JUMPDEST PUSH1 0x4 RETURNDATASIZE SUB PUSH1 0x4 DUP3 RETURNDATACOPY DUP1 MLOAD RETURNDATASIZE PUSH1 0x24 DUP3 ADD GT PUSH8 0xFFFFFFFFFFFFFFFF DUP3 GT OR ISZERO PUSH2 0x6054 JUMPI POP POP PUSH2 0x60A7 JUMP JUMPDEST DUP1 DUP3 ADD DUP1 MLOAD PUSH8 0xFFFFFFFFFFFFFFFF DUP2 GT ISZERO PUSH2 0x6072 JUMPI POP POP POP POP PUSH2 0x60A7 JUMP JUMPDEST DUP1 PUSH1 0x20 DUP4 ADD ADD PUSH1 0x4 RETURNDATASIZE SUB DUP6 ADD DUP2 GT ISZERO PUSH2 0x608F JUMPI POP POP POP POP POP PUSH2 0x60A7 JUMP JUMPDEST PUSH2 0x609E DUP3 PUSH1 0x20 ADD DUP6 ADD DUP7 PUSH2 0x420D JUMP JUMPDEST DUP3 SWAP6 POP POP POP POP POP POP JUMPDEST SWAP1 JUMP JUMPDEST PUSH32 0x4F776E61626C653A2063616C6C6572206973206E6F7420746865206F776E6572 PUSH1 0x0 DUP3 ADD MSTORE POP JUMP JUMPDEST PUSH1 0x0 PUSH2 0x60E0 PUSH1 0x20 DUP4 PUSH2 0x4C06 JUMP JUMPDEST SWAP2 POP PUSH2 0x60EB DUP3 PUSH2 0x60AA JUMP JUMPDEST PUSH1 0x20 DUP3 ADD SWAP1 POP SWAP2 SWAP1 POP JUMP JUMPDEST PUSH1 0x0 PUSH1 0x20 DUP3 ADD SWAP1 POP DUP2 DUP2 SUB PUSH1 0x0 DUP4 ADD MSTORE PUSH2 0x610F DUP2 PUSH2 0x60D3 JUMP JUMPDEST SWAP1 POP SWAP2 SWAP1 POP JUMP INVALID LOG2 PUSH5 0x6970667358 0x22 SLT KECCAK256 PUSH24 0xE6F9B45649DC36B94A6132860E8D2B715BD5E0EA07AF8E1 PUSH14 0x8520F4849E3764736F6C63430008 SLT STOP CALLER "},"methodIdentifiers":{"CHALLENGE_AMOUNT()":"f8840cf7","HUB()":"a4c52b86","STAKE_AMOUNT()":"faf5625f","TIME_LIMIT_OF_UNDEPOSIT()":"529e720a","TRANS_FEE()":"6a89c63a","TRANS_PER_BLOCK()":"34265237","addIncomingBlock(bytes32)":"5b9eb5c3","addNewTransactionToBlock(address,uint256,(uint256,address,address,address,address),bytes32[],uint256)":"6ae90c7d","calculateHashes((uint256,address,address,address,address)[])":"f80f6cd2","calculateTransactionHashes(uint256)":"87cf416e","challengeIncomingBlock(uint256)":"db77f2b9","challengedIncomingBlocks(uint256)":"a6762f40","claimChallengeReward()":"59cbe82c","claimDeposite()":"7be6f7a7","claimNFT(uint256,(uint256,address,address,address,address),bytes32[],uint256)":"3d95d1ed","deposite()":"a50ec326","firstMaliciousBlockHeight()":"440de89c","getLocalTransaction(uint256,uint256)":"b24c49fa","getRoot()":"5ca1e165","hashes(uint256)":"501895ae","incomingBlocks(uint256)":"1efa009e","incomingChallengeRewards(address)":"35cc073b","localBlockId()":"b8b7f514","numberOfChallenges()":"ae110875","onERC721Received(address,address,uint256,bytes)":"150b7a02","owner()":"8da5cb5b","receiveProof(bytes)":"24bd801b","relayers(address)":"5300f841","renounceOwnership()":"715018a6","restore()":"2fda332e","sendProof(uint256)":"012cf18c","status()":"200d2ed2","transferOwnership(address)":"f2fde38b","undeposite()":"be7226ad"}}}}}