{"contracts/test/MerkleProofHelper.sol":{"MerkleProofHelper":{"abi":[{"inputs":[{"components":[{"internalType":"uint256","name":"tokenId","type":"uint256"},{"internalType":"address","name":"maker","type":"address"},{"internalType":"address","name":"receiver","type":"address"},{"internalType":"address","name":"localErc721Contract","type":"address"},{"internalType":"address","name":"remoteErc721Contract","type":"address"}],"internalType":"struct LibLocalTransaction.LocalTransaction[]","name":"_transactions","type":"tuple[]"}],"name":"calculateHashes","outputs":[],"stateMutability":"nonpayable","type":"function"},{"inputs":[],"name":"getRoot","outputs":[{"internalType":"bytes32","name":"","type":"bytes32"}],"stateMutability":"view","type":"function"},{"inputs":[{"internalType":"uint256","name":"","type":"uint256"}],"name":"hashes","outputs":[{"internalType":"bytes32","name":"","type":"bytes32"}],"stateMutability":"view","type":"function"}],"evm":{"bytecode":{"linkReferences":{},"object":"608060405234801561001057600080fd5b50610913806100206000396000f3fe608060405234801561001057600080fd5b50600436106100415760003560e01c8063501895ae146100465780635ca1e16514610076578063f80f6cd214610094575b600080fd5b610060600480360381019061005b91906103bf565b6100b0565b60405161006d9190610405565b60405180910390f35b61007e6100d4565b60405161008b9190610405565b60405180910390f35b6100ae60048036038101906100a99190610668565b61010a565b005b600081815481106100c057600080fd5b906000526020600020016000915090505481565b60008060016000805490506100e991906106e0565b815481106100fa576100f9610714565b5b9060005260206000200154905090565b6000806101179190610337565b60005b815181101561022357600082828151811061013857610137610714565b5b60200260200101516000015183838151811061015757610156610714565b5b60200260200101516020015184848151811061017657610175610714565b5b60200260200101516040015185858151811061019557610194610714565b5b6020026020010151606001518686815181106101b4576101b3610714565b5b6020026020010151608001516040516020016101d4959493929190610761565b604051602081830303815290604052805190602001209080600181540180825580915050600190039060005260206000200160009091909190915055808061021b906107b4565b91505061011a565b5060008151905060005b60008211156103325760005b60018361024691906106e0565b81101561030f57600080828461025c91906107fc565b8154811061026d5761026c610714565b5b906000526020600020015460006001848661028891906107fc565b61029291906107fc565b815481106102a3576102a2610714565b5b90600052602060002001546040516020016102bf929190610851565b60405160208183030381529060405280519060200120908060018154018082558091505060019003906000526020600020016000909190919091505560028161030891906107fc565b9050610239565b50818161031c91906107fc565b905060028261032b91906108ac565b915061022d565b505050565b50805460008255906000526020600020908101906103559190610358565b50565b5b80821115610371576000816000905550600101610359565b5090565b6000604051905090565b600080fd5b600080fd5b6000819050919050565b61039c81610389565b81146103a757600080fd5b50565b6000813590506103b981610393565b92915050565b6000602082840312156103d5576103d461037f565b5b60006103e3848285016103aa565b91505092915050565b6000819050919050565b6103ff816103ec565b82525050565b600060208201905061041a60008301846103f6565b92915050565b600080fd5b6000601f19601f8301169050919050565b7f4e487b7100000000000000000000000000000000000000000000000000000000600052604160045260246000fd5b61046e82610425565b810181811067ffffffffffffffff8211171561048d5761048c610436565b5b80604052505050565b60006104a0610375565b90506104ac8282610465565b919050565b600067ffffffffffffffff8211156104cc576104cb610436565b5b602082029050602081019050919050565b600080fd5b600080fd5b600073ffffffffffffffffffffffffffffffffffffffff82169050919050565b6000610512826104e7565b9050919050565b61052281610507565b811461052d57600080fd5b50565b60008135905061053f81610519565b92915050565b600060a0828403121561055b5761055a6104e2565b5b61056560a0610496565b90506000610575848285016103aa565b600083015250602061058984828501610530565b602083015250604061059d84828501610530565b60408301525060606105b184828501610530565b60608301525060806105c584828501610530565b60808301525092915050565b60006105e46105df846104b1565b610496565b90508083825260208201905060a08402830185811115610607576106066104dd565b5b835b81811015610630578061061c8882610545565b84526020840193505060a081019050610609565b5050509392505050565b600082601f83011261064f5761064e610420565b5b813561065f8482602086016105d1565b91505092915050565b60006020828403121561067e5761067d61037f565b5b600082013567ffffffffffffffff81111561069c5761069b610384565b5b6106a88482850161063a565b91505092915050565b7f4e487b7100000000000000000000000000000000000000000000000000000000600052601160045260246000fd5b60006106eb82610389565b91506106f683610389565b925082820390508181111561070e5761070d6106b1565b5b92915050565b7f4e487b7100000000000000000000000000000000000000000000000000000000600052603260045260246000fd5b61074c81610389565b82525050565b61075b81610507565b82525050565b600060a0820190506107766000830188610743565b6107836020830187610752565b6107906040830186610752565b61079d6060830185610752565b6107aa6080830184610752565b9695505050505050565b60006107bf82610389565b91507fffffffffffffffffffffffffffffffffffffffffffffffffffffffffffffffff82036107f1576107f06106b1565b5b600182019050919050565b600061080782610389565b915061081283610389565b925082820190508082111561082a576108296106b1565b5b92915050565b6000819050919050565b61084b610846826103ec565b610830565b82525050565b600061085d828561083a565b60208201915061086d828461083a565b6020820191508190509392505050565b7f4e487b7100000000000000000000000000000000000000000000000000000000600052601260045260246000fd5b60006108b782610389565b91506108c283610389565b9250826108d2576108d161087d565b5b82820490509291505056fea2646970667358221220c538cd8a8645215d6038898e680dd6f21c56e931b12fb7f0db88769b7ec0c47064736f6c63430008120033","opcodes":"PUSH1 0x80 PUSH1 0x40 MSTORE CALLVALUE DUP1 ISZERO PUSH2 0x10 JUMPI PUSH1 0x0 DUP1 REVERT JUMPDEST POP PUSH2 0x913 DUP1 PUSH2 0x20 PUSH1 0x0 CODECOPY PUSH1 0x0 RETURN INVALID PUSH1 0x80 PUSH1 0x40 MSTORE CALLVALUE DUP1 ISZERO PUSH2 0x10 JUMPI PUSH1 0x0 DUP1 REVERT JUMPDEST POP PUSH1 0x4 CALLDATASIZE LT PUSH2 0x41 JUMPI PUSH1 0x0 CALLDATALOAD PUSH1 0xE0 SHR DUP1 PUSH4 0x501895AE EQ PUSH2 0x46 JUMPI DUP1 PUSH4 0x5CA1E165 EQ PUSH2 0x76 JUMPI DUP1 PUSH4 0xF80F6CD2 EQ PUSH2 0x94 JUMPI JUMPDEST PUSH1 0x0 DUP1 REVERT JUMPDEST PUSH2 0x60 PUSH1 0x4 DUP1 CALLDATASIZE SUB DUP2 ADD SWAP1 PUSH2 0x5B SWAP2 SWAP1 PUSH2 0x3BF JUMP JUMPDEST PUSH2 0xB0 JUMP JUMPDEST PUSH1 0x40 MLOAD PUSH2 0x6D SWAP2 SWAP1 PUSH2 0x405 JUMP JUMPDEST PUSH1 0x40 MLOAD DUP1 SWAP2 SUB SWAP1 RETURN JUMPDEST PUSH2 0x7E PUSH2 0xD4 JUMP JUMPDEST PUSH1 0x40 MLOAD PUSH2 0x8B SWAP2 SWAP1 PUSH2 0x405 JUMP JUMPDEST PUSH1 0x40 MLOAD DUP1 SWAP2 SUB SWAP1 RETURN JUMPDEST PUSH2 0xAE PUSH1 0x4 DUP1 CALLDATASIZE SUB DUP2 ADD SWAP1 PUSH2 0xA9 SWAP2 SWAP1 PUSH2 0x668 JUMP JUMPDEST PUSH2 0x10A JUMP JUMPDEST STOP JUMPDEST PUSH1 0x0 DUP2 DUP2 SLOAD DUP2 LT PUSH2 0xC0 JUMPI PUSH1 0x0 DUP1 REVERT JUMPDEST SWAP1 PUSH1 0x0 MSTORE PUSH1 0x20 PUSH1 0x0 KECCAK256 ADD PUSH1 0x0 SWAP2 POP SWAP1 POP SLOAD DUP2 JUMP JUMPDEST PUSH1 0x0 DUP1 PUSH1 0x1 PUSH1 0x0 DUP1 SLOAD SWAP1 POP PUSH2 0xE9 SWAP2 SWAP1 PUSH2 0x6E0 JUMP JUMPDEST DUP2 SLOAD DUP2 LT PUSH2 0xFA JUMPI PUSH2 0xF9 PUSH2 0x714 JUMP JUMPDEST JUMPDEST SWAP1 PUSH1 0x0 MSTORE PUSH1 0x20 PUSH1 0x0 KECCAK256 ADD SLOAD SWAP1 POP SWAP1 JUMP JUMPDEST PUSH1 0x0 DUP1 PUSH2 0x117 SWAP2 SWAP1 PUSH2 0x337 JUMP JUMPDEST PUSH1 0x0 JUMPDEST DUP2 MLOAD DUP2 LT ISZERO PUSH2 0x223 JUMPI PUSH1 0x0 DUP3 DUP3 DUP2 MLOAD DUP2 LT PUSH2 0x138 JUMPI PUSH2 0x137 PUSH2 0x714 JUMP JUMPDEST JUMPDEST PUSH1 0x20 MUL PUSH1 0x20 ADD ADD MLOAD PUSH1 0x0 ADD MLOAD DUP4 DUP4 DUP2 MLOAD DUP2 LT PUSH2 0x157 JUMPI PUSH2 0x156 PUSH2 0x714 JUMP JUMPDEST JUMPDEST PUSH1 0x20 MUL PUSH1 0x20 ADD ADD MLOAD PUSH1 0x20 ADD MLOAD DUP5 DUP5 DUP2 MLOAD DUP2 LT PUSH2 0x176 JUMPI PUSH2 0x175 PUSH2 0x714 JUMP JUMPDEST JUMPDEST PUSH1 0x20 MUL PUSH1 0x20 ADD ADD MLOAD PUSH1 0x40 ADD MLOAD DUP6 DUP6 DUP2 MLOAD DUP2 LT PUSH2 0x195 JUMPI PUSH2 0x194 PUSH2 0x714 JUMP JUMPDEST JUMPDEST PUSH1 0x20 MUL PUSH1 0x20 ADD ADD MLOAD PUSH1 0x60 ADD MLOAD DUP7 DUP7 DUP2 MLOAD DUP2 LT PUSH2 0x1B4 JUMPI PUSH2 0x1B3 PUSH2 0x714 JUMP JUMPDEST JUMPDEST PUSH1 0x20 MUL PUSH1 0x20 ADD ADD MLOAD PUSH1 0x80 ADD MLOAD PUSH1 0x40 MLOAD PUSH1 0x20 ADD PUSH2 0x1D4 SWAP6 SWAP5 SWAP4 SWAP3 SWAP2 SWAP1 PUSH2 0x761 JUMP JUMPDEST PUSH1 0x40 MLOAD PUSH1 0x20 DUP2 DUP4 SUB SUB DUP2 MSTORE SWAP1 PUSH1 0x40 MSTORE DUP1 MLOAD SWAP1 PUSH1 0x20 ADD KECCAK256 SWAP1 DUP1 PUSH1 0x1 DUP2 SLOAD ADD DUP1 DUP3 SSTORE DUP1 SWAP2 POP POP PUSH1 0x1 SWAP1 SUB SWAP1 PUSH1 0x0 MSTORE PUSH1 0x20 PUSH1 0x0 KECCAK256 ADD PUSH1 0x0 SWAP1 SWAP2 SWAP1 SWAP2 SWAP1 SWAP2 POP SSTORE DUP1 DUP1 PUSH2 0x21B SWAP1 PUSH2 0x7B4 JUMP JUMPDEST SWAP2 POP POP PUSH2 0x11A JUMP JUMPDEST POP PUSH1 0x0 DUP2 MLOAD SWAP1 POP PUSH1 0x0 JUMPDEST PUSH1 0x0 DUP3 GT ISZERO PUSH2 0x332 JUMPI PUSH1 0x0 JUMPDEST PUSH1 0x1 DUP4 PUSH2 0x246 SWAP2 SWAP1 PUSH2 0x6E0 JUMP JUMPDEST DUP2 LT ISZERO PUSH2 0x30F JUMPI PUSH1 0x0 DUP1 DUP3 DUP5 PUSH2 0x25C SWAP2 SWAP1 PUSH2 0x7FC JUMP JUMPDEST DUP2 SLOAD DUP2 LT PUSH2 0x26D JUMPI PUSH2 0x26C PUSH2 0x714 JUMP JUMPDEST JUMPDEST SWAP1 PUSH1 0x0 MSTORE PUSH1 0x20 PUSH1 0x0 KECCAK256 ADD SLOAD PUSH1 0x0 PUSH1 0x1 DUP5 DUP7 PUSH2 0x288 SWAP2 SWAP1 PUSH2 0x7FC JUMP JUMPDEST PUSH2 0x292 SWAP2 SWAP1 PUSH2 0x7FC JUMP JUMPDEST DUP2 SLOAD DUP2 LT PUSH2 0x2A3 JUMPI PUSH2 0x2A2 PUSH2 0x714 JUMP JUMPDEST JUMPDEST SWAP1 PUSH1 0x0 MSTORE PUSH1 0x20 PUSH1 0x0 KECCAK256 ADD SLOAD PUSH1 0x40 MLOAD PUSH1 0x20 ADD PUSH2 0x2BF SWAP3 SWAP2 SWAP1 PUSH2 0x851 JUMP JUMPDEST PUSH1 0x40 MLOAD PUSH1 0x20 DUP2 DUP4 SUB SUB DUP2 MSTORE SWAP1 PUSH1 0x40 MSTORE DUP1 MLOAD SWAP1 PUSH1 0x20 ADD KECCAK256 SWAP1 DUP1 PUSH1 0x1 DUP2 SLOAD ADD DUP1 DUP3 SSTORE DUP1 SWAP2 POP POP PUSH1 0x1 SWAP1 SUB SWAP1 PUSH1 0x0 MSTORE PUSH1 0x20 PUSH1 0x0 KECCAK256 ADD PUSH1 0x0 SWAP1 SWAP2 SWAP1 SWAP2 SWAP1 SWAP2 POP SSTORE PUSH1 0x2 DUP2 PUSH2 0x308 SWAP2 SWAP1 PUSH2 0x7FC JUMP JUMPDEST SWAP1 POP PUSH2 0x239 JUMP JUMPDEST POP DUP2 DUP2 PUSH2 0x31C SWAP2 SWAP1 PUSH2 0x7FC JUMP JUMPDEST SWAP1 POP PUSH1 0x2 DUP3 PUSH2 0x32B SWAP2 SWAP1 PUSH2 0x8AC JUMP JUMPDEST SWAP2 POP PUSH2 0x22D JUMP JUMPDEST POP POP POP JUMP JUMPDEST POP DUP1 SLOAD PUSH1 0x0 DUP3 SSTORE SWAP1 PUSH1 0x0 MSTORE PUSH1 0x20 PUSH1 0x0 KECCAK256 SWAP1 DUP2 ADD SWAP1 PUSH2 0x355 SWAP2 SWAP1 PUSH2 0x358 JUMP JUMPDEST POP JUMP JUMPDEST JUMPDEST DUP1 DUP3 GT ISZERO PUSH2 0x371 JUMPI PUSH1 0x0 DUP2 PUSH1 0x0 SWAP1 SSTORE POP PUSH1 0x1 ADD PUSH2 0x359 JUMP JUMPDEST POP SWAP1 JUMP JUMPDEST PUSH1 0x0 PUSH1 0x40 MLOAD SWAP1 POP SWAP1 JUMP JUMPDEST PUSH1 0x0 DUP1 REVERT JUMPDEST PUSH1 0x0 DUP1 REVERT JUMPDEST PUSH1 0x0 DUP2 SWAP1 POP SWAP2 SWAP1 POP JUMP JUMPDEST PUSH2 0x39C DUP2 PUSH2 0x389 JUMP JUMPDEST DUP2 EQ PUSH2 0x3A7 JUMPI PUSH1 0x0 DUP1 REVERT JUMPDEST POP JUMP JUMPDEST PUSH1 0x0 DUP2 CALLDATALOAD SWAP1 POP PUSH2 0x3B9 DUP2 PUSH2 0x393 JUMP JUMPDEST SWAP3 SWAP2 POP POP JUMP JUMPDEST PUSH1 0x0 PUSH1 0x20 DUP3 DUP5 SUB SLT ISZERO PUSH2 0x3D5 JUMPI PUSH2 0x3D4 PUSH2 0x37F JUMP JUMPDEST JUMPDEST PUSH1 0x0 PUSH2 0x3E3 DUP5 DUP3 DUP6 ADD PUSH2 0x3AA JUMP JUMPDEST SWAP2 POP POP SWAP3 SWAP2 POP POP JUMP JUMPDEST PUSH1 0x0 DUP2 SWAP1 POP SWAP2 SWAP1 POP JUMP JUMPDEST PUSH2 0x3FF DUP2 PUSH2 0x3EC JUMP JUMPDEST DUP3 MSTORE POP POP JUMP JUMPDEST PUSH1 0x0 PUSH1 0x20 DUP3 ADD SWAP1 POP PUSH2 0x41A PUSH1 0x0 DUP4 ADD DUP5 PUSH2 0x3F6 JUMP JUMPDEST SWAP3 SWAP2 POP POP JUMP JUMPDEST PUSH1 0x0 DUP1 REVERT JUMPDEST PUSH1 0x0 PUSH1 0x1F NOT PUSH1 0x1F DUP4 ADD AND SWAP1 POP SWAP2 SWAP1 POP JUMP JUMPDEST PUSH32 0x4E487B7100000000000000000000000000000000000000000000000000000000 PUSH1 0x0 MSTORE PUSH1 0x41 PUSH1 0x4 MSTORE PUSH1 0x24 PUSH1 0x0 REVERT JUMPDEST PUSH2 0x46E DUP3 PUSH2 0x425 JUMP JUMPDEST DUP2 ADD DUP2 DUP2 LT PUSH8 0xFFFFFFFFFFFFFFFF DUP3 GT OR ISZERO PUSH2 0x48D JUMPI PUSH2 0x48C PUSH2 0x436 JUMP JUMPDEST JUMPDEST DUP1 PUSH1 0x40 MSTORE POP POP POP JUMP JUMPDEST PUSH1 0x0 PUSH2 0x4A0 PUSH2 0x375 JUMP JUMPDEST SWAP1 POP PUSH2 0x4AC DUP3 DUP3 PUSH2 0x465 JUMP JUMPDEST SWAP2 SWAP1 POP JUMP JUMPDEST PUSH1 0x0 PUSH8 0xFFFFFFFFFFFFFFFF DUP3 GT ISZERO PUSH2 0x4CC JUMPI PUSH2 0x4CB PUSH2 0x436 JUMP JUMPDEST JUMPDEST PUSH1 0x20 DUP3 MUL SWAP1 POP PUSH1 0x20 DUP2 ADD SWAP1 POP SWAP2 SWAP1 POP JUMP JUMPDEST PUSH1 0x0 DUP1 REVERT JUMPDEST PUSH1 0x0 DUP1 REVERT JUMPDEST PUSH1 0x0 PUSH20 0xFFFFFFFFFFFFFFFFFFFFFFFFFFFFFFFFFFFFFFFF DUP3 AND SWAP1 POP SWAP2 SWAP1 POP JUMP JUMPDEST PUSH1 0x0 PUSH2 0x512 DUP3 PUSH2 0x4E7 JUMP JUMPDEST SWAP1 POP SWAP2 SWAP1 POP JUMP JUMPDEST PUSH2 0x522 DUP2 PUSH2 0x507 JUMP JUMPDEST DUP2 EQ PUSH2 0x52D JUMPI PUSH1 0x0 DUP1 REVERT JUMPDEST POP JUMP JUMPDEST PUSH1 0x0 DUP2 CALLDATALOAD SWAP1 POP PUSH2 0x53F DUP2 PUSH2 0x519 JUMP JUMPDEST SWAP3 SWAP2 POP POP JUMP JUMPDEST PUSH1 0x0 PUSH1 0xA0 DUP3 DUP5 SUB SLT ISZERO PUSH2 0x55B JUMPI PUSH2 0x55A PUSH2 0x4E2 JUMP JUMPDEST JUMPDEST PUSH2 0x565 PUSH1 0xA0 PUSH2 0x496 JUMP JUMPDEST SWAP1 POP PUSH1 0x0 PUSH2 0x575 DUP5 DUP3 DUP6 ADD PUSH2 0x3AA JUMP JUMPDEST PUSH1 0x0 DUP4 ADD MSTORE POP PUSH1 0x20 PUSH2 0x589 DUP5 DUP3 DUP6 ADD PUSH2 0x530 JUMP JUMPDEST PUSH1 0x20 DUP4 ADD MSTORE POP PUSH1 0x40 PUSH2 0x59D DUP5 DUP3 DUP6 ADD PUSH2 0x530 JUMP JUMPDEST PUSH1 0x40 DUP4 ADD MSTORE POP PUSH1 0x60 PUSH2 0x5B1 DUP5 DUP3 DUP6 ADD PUSH2 0x530 JUMP JUMPDEST PUSH1 0x60 DUP4 ADD MSTORE POP PUSH1 0x80 PUSH2 0x5C5 DUP5 DUP3 DUP6 ADD PUSH2 0x530 JUMP JUMPDEST PUSH1 0x80 DUP4 ADD MSTORE POP SWAP3 SWAP2 POP POP JUMP JUMPDEST PUSH1 0x0 PUSH2 0x5E4 PUSH2 0x5DF DUP5 PUSH2 0x4B1 JUMP JUMPDEST PUSH2 0x496 JUMP JUMPDEST SWAP1 POP DUP1 DUP4 DUP3 MSTORE PUSH1 0x20 DUP3 ADD SWAP1 POP PUSH1 0xA0 DUP5 MUL DUP4 ADD DUP6 DUP2 GT ISZERO PUSH2 0x607 JUMPI PUSH2 0x606 PUSH2 0x4DD JUMP JUMPDEST JUMPDEST DUP4 JUMPDEST DUP2 DUP2 LT ISZERO PUSH2 0x630 JUMPI DUP1 PUSH2 0x61C DUP9 DUP3 PUSH2 0x545 JUMP JUMPDEST DUP5 MSTORE PUSH1 0x20 DUP5 ADD SWAP4 POP POP PUSH1 0xA0 DUP2 ADD SWAP1 POP PUSH2 0x609 JUMP JUMPDEST POP POP POP SWAP4 SWAP3 POP POP POP JUMP JUMPDEST PUSH1 0x0 DUP3 PUSH1 0x1F DUP4 ADD SLT PUSH2 0x64F JUMPI PUSH2 0x64E PUSH2 0x420 JUMP JUMPDEST JUMPDEST DUP2 CALLDATALOAD PUSH2 0x65F DUP5 DUP3 PUSH1 0x20 DUP7 ADD PUSH2 0x5D1 JUMP JUMPDEST SWAP2 POP POP SWAP3 SWAP2 POP POP JUMP JUMPDEST PUSH1 0x0 PUSH1 0x20 DUP3 DUP5 SUB SLT ISZERO PUSH2 0x67E JUMPI PUSH2 0x67D PUSH2 0x37F JUMP JUMPDEST JUMPDEST PUSH1 0x0 DUP3 ADD CALLDATALOAD PUSH8 0xFFFFFFFFFFFFFFFF DUP2 GT ISZERO PUSH2 0x69C JUMPI PUSH2 0x69B PUSH2 0x384 JUMP JUMPDEST JUMPDEST PUSH2 0x6A8 DUP5 DUP3 DUP6 ADD PUSH2 0x63A JUMP JUMPDEST SWAP2 POP POP SWAP3 SWAP2 POP POP JUMP JUMPDEST PUSH32 0x4E487B7100000000000000000000000000000000000000000000000000000000 PUSH1 0x0 MSTORE PUSH1 0x11 PUSH1 0x4 MSTORE PUSH1 0x24 PUSH1 0x0 REVERT JUMPDEST PUSH1 0x0 PUSH2 0x6EB DUP3 PUSH2 0x389 JUMP JUMPDEST SWAP2 POP PUSH2 0x6F6 DUP4 PUSH2 0x389 JUMP JUMPDEST SWAP3 POP DUP3 DUP3 SUB SWAP1 POP DUP2 DUP2 GT ISZERO PUSH2 0x70E JUMPI PUSH2 0x70D PUSH2 0x6B1 JUMP JUMPDEST JUMPDEST SWAP3 SWAP2 POP POP JUMP JUMPDEST PUSH32 0x4E487B7100000000000000000000000000000000000000000000000000000000 PUSH1 0x0 MSTORE PUSH1 0x32 PUSH1 0x4 MSTORE PUSH1 0x24 PUSH1 0x0 REVERT JUMPDEST PUSH2 0x74C DUP2 PUSH2 0x389 JUMP JUMPDEST DUP3 MSTORE POP POP JUMP JUMPDEST PUSH2 0x75B DUP2 PUSH2 0x507 JUMP JUMPDEST DUP3 MSTORE POP POP JUMP JUMPDEST PUSH1 0x0 PUSH1 0xA0 DUP3 ADD SWAP1 POP PUSH2 0x776 PUSH1 0x0 DUP4 ADD DUP9 PUSH2 0x743 JUMP JUMPDEST PUSH2 0x783 PUSH1 0x20 DUP4 ADD DUP8 PUSH2 0x752 JUMP JUMPDEST PUSH2 0x790 PUSH1 0x40 DUP4 ADD DUP7 PUSH2 0x752 JUMP JUMPDEST PUSH2 0x79D PUSH1 0x60 DUP4 ADD DUP6 PUSH2 0x752 JUMP JUMPDEST PUSH2 0x7AA PUSH1 0x80 DUP4 ADD DUP5 PUSH2 0x752 JUMP JUMPDEST SWAP7 SWAP6 POP POP POP POP POP POP JUMP JUMPDEST PUSH1 0x0 PUSH2 0x7BF DUP3 PUSH2 0x389 JUMP JUMPDEST SWAP2 POP PUSH32 0xFFFFFFFFFFFFFFFFFFFFFFFFFFFFFFFFFFFFFFFFFFFFFFFFFFFFFFFFFFFFFFFF DUP3 SUB PUSH2 0x7F1 JUMPI PUSH2 0x7F0 PUSH2 0x6B1 JUMP JUMPDEST JUMPDEST PUSH1 0x1 DUP3 ADD SWAP1 POP SWAP2 SWAP1 POP JUMP JUMPDEST PUSH1 0x0 PUSH2 0x807 DUP3 PUSH2 0x389 JUMP JUMPDEST SWAP2 POP PUSH2 0x812 DUP4 PUSH2 0x389 JUMP JUMPDEST SWAP3 POP DUP3 DUP3 ADD SWAP1 POP DUP1 DUP3 GT ISZERO PUSH2 0x82A JUMPI PUSH2 0x829 PUSH2 0x6B1 JUMP JUMPDEST JUMPDEST SWAP3 SWAP2 POP POP JUMP JUMPDEST PUSH1 0x0 DUP2 SWAP1 POP SWAP2 SWAP1 POP JUMP JUMPDEST PUSH2 0x84B PUSH2 0x846 DUP3 PUSH2 0x3EC JUMP JUMPDEST PUSH2 0x830 JUMP JUMPDEST DUP3 MSTORE POP POP JUMP JUMPDEST PUSH1 0x0 PUSH2 0x85D DUP3 DUP6 PUSH2 0x83A JUMP JUMPDEST PUSH1 0x20 DUP3 ADD SWAP2 POP PUSH2 0x86D DUP3 DUP5 PUSH2 0x83A JUMP JUMPDEST PUSH1 0x20 DUP3 ADD SWAP2 POP DUP2 SWAP1 POP SWAP4 SWAP3 POP POP POP JUMP JUMPDEST PUSH32 0x4E487B7100000000000000000000000000000000000000000000000000000000 PUSH1 0x0 MSTORE PUSH1 0x12 PUSH1 0x4 MSTORE PUSH1 0x24 PUSH1 0x0 REVERT JUMPDEST PUSH1 0x0 PUSH2 0x8B7 DUP3 PUSH2 0x389 JUMP JUMPDEST SWAP2 POP PUSH2 0x8C2 DUP4 PUSH2 0x389 JUMP JUMPDEST SWAP3 POP DUP3 PUSH2 0x8D2 JUMPI PUSH2 0x8D1 PUSH2 0x87D JUMP JUMPDEST JUMPDEST DUP3 DUP3 DIV SWAP1 POP SWAP3 SWAP2 POP POP JUMP INVALID LOG2 PUSH5 0x6970667358 0x22 SLT KECCAK256 0xC5 CODESIZE 0xCD DUP11 DUP7 GASLIMIT 0x21 0x5D PUSH1 0x38 DUP10 DUP15 PUSH9 0xDD6F21C56E931B12F 0xB7 CREATE 0xDB DUP9 PUSH23 0x9B7EC0C47064736F6C6343000812003300000000000000 "},"methodIdentifiers":{"calculateHashes((uint256,address,address,address,address)[])":"f80f6cd2","getRoot()":"5ca1e165","hashes(uint256)":"501895ae"}}}}}