{
  "_format": "hh-sol-artifact-1",
  "contractName": "MerkleTreeManager",
  "sourceName": "contracts/messaging/MerkleTreeManager.sol",
  "abi": [
    {
      "inputs": [],
      "name": "MerkleLib__insert_treeIsFull",
      "type": "error"
    },
    {
      "inputs": [],
      "name": "MerkleTreeManager__setArborist_alreadyArborist",
      "type": "error"
    },
    {
      "inputs": [],
      "name": "MerkleTreeManager__setArborist_zeroAddress",
      "type": "error"
    },
    {
      "inputs": [],
      "name": "ProposedOwnable__onlyOwner_notOwner",
      "type": "error"
    },
    {
      "inputs": [],
      "name": "ProposedOwnable__onlyProposed_notProposedOwner",
      "type": "error"
    },
    {
      "inputs": [],
      "name": "ProposedOwnable__ownershipDelayElapsed_delayNotElapsed",
      "type": "error"
    },
    {
      "inputs": [],
      "name": "ProposedOwnable__proposeNewOwner_invalidProposal",
      "type": "error"
    },
    {
      "inputs": [],
      "name": "ProposedOwnable__proposeNewOwner_noOwnershipChange",
      "type": "error"
    },
    {
      "inputs": [],
      "name": "ProposedOwnable__renounceOwnership_invalidProposal",
      "type": "error"
    },
    {
      "inputs": [],
      "name": "ProposedOwnable__renounceOwnership_noProposal",
      "type": "error"
    },
    {
      "anonymous": false,
      "inputs": [
        {
          "indexed": false,
          "internalType": "address",
          "name": "previous",
          "type": "address"
        },
        {
          "indexed": false,
          "internalType": "address",
          "name": "updated",
          "type": "address"
        }
      ],
      "name": "ArboristUpdated",
      "type": "event"
    },
    {
      "anonymous": false,
      "inputs": [
        {
          "indexed": false,
          "internalType": "uint8",
          "name": "version",
          "type": "uint8"
        }
      ],
      "name": "Initialized",
      "type": "event"
    },
    {
      "anonymous": false,
      "inputs": [
        {
          "indexed": false,
          "internalType": "bytes32",
          "name": "root",
          "type": "bytes32"
        },
        {
          "indexed": false,
          "internalType": "uint256",
          "name": "count",
          "type": "uint256"
        },
        {
          "indexed": false,
          "internalType": "bytes32",
          "name": "leaf",
          "type": "bytes32"
        }
      ],
      "name": "LeafInserted",
      "type": "event"
    },
    {
      "anonymous": false,
      "inputs": [
        {
          "indexed": false,
          "internalType": "bytes32",
          "name": "root",
          "type": "bytes32"
        },
        {
          "indexed": false,
          "internalType": "uint256",
          "name": "count",
          "type": "uint256"
        },
        {
          "indexed": false,
          "internalType": "bytes32[]",
          "name": "leaves",
          "type": "bytes32[]"
        }
      ],
      "name": "LeavesInserted",
      "type": "event"
    },
    {
      "anonymous": false,
      "inputs": [
        {
          "indexed": true,
          "internalType": "address",
          "name": "proposedOwner",
          "type": "address"
        }
      ],
      "name": "OwnershipProposed",
      "type": "event"
    },
    {
      "anonymous": false,
      "inputs": [
        {
          "indexed": true,
          "internalType": "address",
          "name": "previousOwner",
          "type": "address"
        },
        {
          "indexed": true,
          "internalType": "address",
          "name": "newOwner",
          "type": "address"
        }
      ],
      "name": "OwnershipTransferred",
      "type": "event"
    },
    {
      "inputs": [],
      "name": "acceptProposedOwner",
      "outputs": [],
      "stateMutability": "nonpayable",
      "type": "function"
    },
    {
      "inputs": [],
      "name": "arborist",
      "outputs": [
        {
          "internalType": "address",
          "name": "",
          "type": "address"
        }
      ],
      "stateMutability": "view",
      "type": "function"
    },
    {
      "inputs": [],
      "name": "branch",
      "outputs": [
        {
          "internalType": "bytes32[32]",
          "name": "",
          "type": "bytes32[32]"
        }
      ],
      "stateMutability": "view",
      "type": "function"
    },
    {
      "inputs": [],
      "name": "count",
      "outputs": [
        {
          "internalType": "uint256",
          "name": "",
          "type": "uint256"
        }
      ],
      "stateMutability": "view",
      "type": "function"
    },
    {
      "inputs": [],
      "name": "delay",
      "outputs": [
        {
          "internalType": "uint256",
          "name": "",
          "type": "uint256"
        }
      ],
      "stateMutability": "view",
      "type": "function"
    },
    {
      "inputs": [
        {
          "internalType": "address",
          "name": "_arborist",
          "type": "address"
        }
      ],
      "name": "initialize",
      "outputs": [],
      "stateMutability": "nonpayable",
      "type": "function"
    },
    {
      "inputs": [
        {
          "internalType": "bytes32",
          "name": "leaf",
          "type": "bytes32"
        }
      ],
      "name": "insert",
      "outputs": [
        {
          "internalType": "bytes32",
          "name": "_root",
          "type": "bytes32"
        },
        {
          "internalType": "uint256",
          "name": "_count",
          "type": "uint256"
        }
      ],
      "stateMutability": "nonpayable",
      "type": "function"
    },
    {
      "inputs": [
        {
          "internalType": "bytes32[]",
          "name": "leaves",
          "type": "bytes32[]"
        }
      ],
      "name": "insert",
      "outputs": [
        {
          "internalType": "bytes32",
          "name": "_root",
          "type": "bytes32"
        },
        {
          "internalType": "uint256",
          "name": "_count",
          "type": "uint256"
        }
      ],
      "stateMutability": "nonpayable",
      "type": "function"
    },
    {
      "inputs": [],
      "name": "owner",
      "outputs": [
        {
          "internalType": "address",
          "name": "",
          "type": "address"
        }
      ],
      "stateMutability": "view",
      "type": "function"
    },
    {
      "inputs": [
        {
          "internalType": "address",
          "name": "newlyProposed",
          "type": "address"
        }
      ],
      "name": "proposeNewOwner",
      "outputs": [],
      "stateMutability": "nonpayable",
      "type": "function"
    },
    {
      "inputs": [],
      "name": "proposed",
      "outputs": [
        {
          "internalType": "address",
          "name": "",
          "type": "address"
        }
      ],
      "stateMutability": "view",
      "type": "function"
    },
    {
      "inputs": [],
      "name": "proposedTimestamp",
      "outputs": [
        {
          "internalType": "uint256",
          "name": "",
          "type": "uint256"
        }
      ],
      "stateMutability": "view",
      "type": "function"
    },
    {
      "inputs": [],
      "name": "renounceOwnership",
      "outputs": [],
      "stateMutability": "nonpayable",
      "type": "function"
    },
    {
      "inputs": [],
      "name": "renounced",
      "outputs": [
        {
          "internalType": "bool",
          "name": "",
          "type": "bool"
        }
      ],
      "stateMutability": "view",
      "type": "function"
    },
    {
      "inputs": [],
      "name": "root",
      "outputs": [
        {
          "internalType": "bytes32",
          "name": "",
          "type": "bytes32"
        }
      ],
      "stateMutability": "view",
      "type": "function"
    },
    {
      "inputs": [],
      "name": "rootAndCount",
      "outputs": [
        {
          "internalType": "bytes32",
          "name": "",
          "type": "bytes32"
        },
        {
          "internalType": "uint256",
          "name": "",
          "type": "uint256"
        }
      ],
      "stateMutability": "view",
      "type": "function"
    },
    {
      "inputs": [
        {
          "internalType": "address",
          "name": "newArborist",
          "type": "address"
        }
      ],
      "name": "setArborist",
      "outputs": [],
      "stateMutability": "nonpayable",
      "type": "function"
    },
    {
      "inputs": [],
      "name": "tree",
      "outputs": [
        {
          "internalType": "uint256",
          "name": "count",
          "type": "uint256"
        }
      ],
      "stateMutability": "view",
      "type": "function"
    }
  ],
  "bytecode": "0x608060405234801561001057600080fd5b50613249806100206000396000f3fe608060405234801561001057600080fd5b50600436106101165760003560e01c80638da5cb5b116100a2578063c9b0a6de11610071578063c9b0a6de14610299578063d1851c92146102b8578063d232c220146102d6578063ebf0c717146102f4578063fd54b2281461031257610116565b80638da5cb5b14610239578063b1f8100d14610257578063c4d66de814610273578063c5b350df1461028f57610116565b806334a55ee6116100e957806334a55ee6146101a45780633cf52ffb146101d55780634b72d0d4146101f35780636a42b8f814610211578063715018a61461022f57610116565b806306661abd1461011b5780631b373a98146101395780632d287e431461015557806331d0913c14610186575b600080fd5b610123610330565b60405161013091906127f2565b60405180910390f35b610153600480360381019061014e919061287f565b61033d565b005b61016f600480360381019061016a91906128e2565b610534565b60405161017d92919061291e565b60405180910390f35b61018e6106b0565b60405161019b9190612956565b60405180910390f35b6101be60048036038101906101b99190612aca565b6106d6565b6040516101cc92919061291e565b60405180910390f35b6101dd610892565b6040516101ea91906127f2565b60405180910390f35b6101fb61089c565b6040516102089190612bbe565b60405180910390f35b6102196108ea565b60405161022691906127f2565b60405180910390f35b6102376108f5565b005b61024161097e565b60405161024e9190612956565b60405180910390f35b610271600480360381019061026c919061287f565b6109a7565b005b61028d6004803603810190610288919061287f565b610b58565b005b610297610ca0565b005b6102a1610d9d565b6040516102af92919061291e565b60405180910390f35b6102c0610db8565b6040516102cd9190612956565b60405180910390f35b6102de610de2565b6040516102eb9190612bf5565b60405180910390f35b6102fc610e3a565b6040516103099190612c10565b60405180910390f35b61031a610e4b565b60405161032791906127f2565b60405180910390f35b6000603260200154905090565b3373ffffffffffffffffffffffffffffffffffffffff16600060029054906101000a900473ffffffffffffffffffffffffffffffffffffffff1673ffffffffffffffffffffffffffffffffffffffff16146103c4576040517f8d450dd800000000000000000000000000000000000000000000000000000000815260040160405180910390fd5b600073ffffffffffffffffffffffffffffffffffffffff168173ffffffffffffffffffffffffffffffffffffffff160361042a576040517f18234a5a00000000000000000000000000000000000000000000000000000000815260040160405180910390fd5b6000605360009054906101000a900473ffffffffffffffffffffffffffffffffffffffff1690508173ffffffffffffffffffffffffffffffffffffffff168173ffffffffffffffffffffffffffffffffffffffff16036104b6576040517fc0dd2af600000000000000000000000000000000000000000000000000000000815260040160405180910390fd5b7ff2fa31e21376edb31995720340ba00a41a12a7c8744a9bde552660121f4b777181836040516104e7929190612c2b565b60405180910390a181605360006101000a81548173ffffffffffffffffffffffffffffffffffffffff021916908373ffffffffffffffffffffffffffffffffffffffff1602179055505050565b6000803373ffffffffffffffffffffffffffffffffffffffff16605360009054906101000a900473ffffffffffffffffffffffffffffffffffffffff1673ffffffffffffffffffffffffffffffffffffffff16146105c7576040517f08c379a00000000000000000000000000000000000000000000000000000000081526004016105be90612cb1565b60405180910390fd5b61063583603260405180604001604052908160008201602080602002604051908101604052809291908260208015610614576020028201915b815481526020019060010190808311610600575b50505050508152602001602082015481525050610e5790919063ffffffff16565b603260008201518160000190602061064e929190612739565b5060208201518160200155905050603260200154905061066e6032610f9c565b91507fd50e83984b64a106ac2ee6314d689ec4d2a656d5ece6d94c585796944b52240c8282856040516106a393929190612cd1565b60405180910390a1915091565b605360009054906101000a900473ffffffffffffffffffffffffffffffffffffffff1681565b6000803373ffffffffffffffffffffffffffffffffffffffff16605360009054906101000a900473ffffffffffffffffffffffffffffffffffffffff1673ffffffffffffffffffffffffffffffffffffffff1614610769576040517f08c379a000000000000000000000000000000000000000000000000000000000815260040161076090612cb1565b60405180910390fd5b60006032604051806040016040529081600082016020806020026040519081016040528092919082602080156107b4576020028201915b8154815260200190600101908083116107a0575b50505050508152602001602082015481525050905060008451905060005b81811015610814576108078682815181106107f0576107ef612d08565b5b602002602001015184610e5790919063ffffffff16565b92508060010190506107d2565b5081603260008201518160000190602061082f929190612739565b50602082015181602001559050508160200151925061084e6032610f9c565b93507f3ef8438c07c6b4b67e70eace906a07e9b294c2f0066803f58e705567e1aa4f1b84848760405161088393929190612dce565b60405180910390a15050915091565b6000600254905090565b6108a4612779565b60326000016020806020026040519081016040528092919082602080156108e0576020028201915b8154815260200190600101908083116108cc575b5050505050905090565b600062093a80905090565b3373ffffffffffffffffffffffffffffffffffffffff16600060029054906101000a900473ffffffffffffffffffffffffffffffffffffffff1673ffffffffffffffffffffffffffffffffffffffff161461097c576040517f8d450dd800000000000000000000000000000000000000000000000000000000815260040160405180910390fd5b565b60008060029054906101000a900473ffffffffffffffffffffffffffffffffffffffff16905090565b3373ffffffffffffffffffffffffffffffffffffffff16600060029054906101000a900473ffffffffffffffffffffffffffffffffffffffff1673ffffffffffffffffffffffffffffffffffffffff1614610a2e576040517f8d450dd800000000000000000000000000000000000000000000000000000000815260040160405180910390fd5b8073ffffffffffffffffffffffffffffffffffffffff16600160009054906101000a900473ffffffffffffffffffffffffffffffffffffffff1673ffffffffffffffffffffffffffffffffffffffff16148015610a8e5750600060025414155b15610ac5576040517f23780cca00000000000000000000000000000000000000000000000000000000815260040160405180910390fd5b8073ffffffffffffffffffffffffffffffffffffffff16600060029054906101000a900473ffffffffffffffffffffffffffffffffffffffff1673ffffffffffffffffffffffffffffffffffffffff1603610b4c576040517f945f6e7e00000000000000000000000000000000000000000000000000000000815260040160405180910390fd5b610b55816123fc565b50565b60008060019054906101000a900460ff16159050808015610b895750600160008054906101000a900460ff1660ff16105b80610bb65750610b983061248a565b158015610bb55750600160008054906101000a900460ff1660ff16145b5b610bf5576040517f08c379a0000000000000000000000000000000000000000000000000000000008152600401610bec90612e7e565b60405180910390fd5b60016000806101000a81548160ff021916908360ff1602179055508015610c32576001600060016101000a81548160ff0219169083151502179055505b610c3b826124ad565b610c43612508565b8015610c9c5760008060016101000a81548160ff0219169083151502179055507f7f26b83ff96e1f2b6a682f133852f6798a09c465da95921460cefb38474024986001604051610c939190612ef0565b60405180910390a15b5050565b3373ffffffffffffffffffffffffffffffffffffffff16600160009054906101000a900473ffffffffffffffffffffffffffffffffffffffff1673ffffffffffffffffffffffffffffffffffffffff1614610d27576040517f234fe4e200000000000000000000000000000000000000000000000000000000815260040160405180910390fd5b62093a8060025442610d399190612f3a565b11610d70576040517f9380a17c00000000000000000000000000000000000000000000000000000000815260040160405180910390fd5b610d9b600160009054906101000a900473ffffffffffffffffffffffffffffffffffffffff16612561565b565b600080610daa6032610f9c565b603260200154915091509091565b6000600160009054906101000a900473ffffffffffffffffffffffffffffffffffffffff16905090565b60008073ffffffffffffffffffffffffffffffffffffffff16600060029054906101000a900473ffffffffffffffffffffffffffffffffffffffff1673ffffffffffffffffffffffffffffffffffffffff1614905090565b6000610e466032610f9c565b905090565b60328060200154905081565b610e5f61279c565b6000836020018051610e7090612f6e565b90818152509050600160206002610e8791906130e9565b610e919190612f3a565b811115610eca576040517f8eab04bb00000000000000000000000000000000000000000000000000000000815260040160405180910390fd5b60005b6020811015610f6357600180831603610f0b578385600001518260208110610ef857610ef7612d08565b5b6020020181815250508492505050610f96565b84600001518160208110610f2257610f21612d08565b5b602002015184604051602001610f39929190613155565b604051602081830303815290604052805190602001209350600182901c9150806001019050610ecd565b506040517f8eab04bb00000000000000000000000000000000000000000000000000000000815260040160405180910390fd5b92915050565b6000808260200154905060008103610fd7577f27ae5ba08d7291c96c8cbddcc148bf48a6d68c7974b94356f53754ef6171d7579150506123f7565b6000836001156123f3576001156118e65760018316156110075780546000526000602052604060002093506118e6565b6001801b83161561104e5760018101546000527fad3228b676f7d3cd4284a5443f17f1962b36e491b30a40b2405849e597ba5fb560205260406000209350600191506118e6565b600160021b8316156110965760028101546000527fb4c11951957c6f8f642c4af61cd6b24640fec6dc7fc607ee8206a99e92410d3060205260406000209350600291506118e6565b600160031b8316156110de5760038101546000527f21ddb9a356815c3fac1026b6dec5df3124afbadb485c9ba5a3e3398a04b7ba8560205260406000209350600391506118e6565b600160041b8316156111265760048101546000527fe58769b32a1beaf1ea27375a44095a0d1fb664ce2dd358e7fcbfb78c26a1934460205260406000209350600491506118e6565b600160051b83161561116e5760058101546000527f0eb01ebfc9ed27500cd4dfc979272d1f0913cc9f66540d7e8005811109e1cf2d60205260406000209350600591506118e6565b600160061b8316156111b65760068101546000527f887c22bd8750d34016ac3c66b5ff102dacdd73f6b014e710b51e8022af9a196860205260406000209350600691506118e6565b600160071b8316156111fe5760078101546000527fffd70157e48063fc33c97a050f7f640233bf646cc98d9524c6b92bcf3ab56f8360205260406000209350600791506118e6565b600160081b8316156112465760088101546000527f9867cc5f7f196b93bae1e27e6320742445d290f2263827498b54fec539f756af60205260406000209350600891506118e6565b600160091b83161561128e5760098101546000527fcefad4e508c098b9a7e1d8feb19955fb02ba9675585078710969d3440f5054e060205260406000209350600991506118e6565b6001600a1b8316156112d657600a8101546000527ff9dc3e7fe016e050eff260334f18a5d4fe391d82092319f5964f2e2eb7c1c3a560205260406000209350600a91506118e6565b6001600b1b83161561131e57600b8101546000527ff8b13a49e282f609c317a833fb8d976d11517c571d1221a265d25af778ecf89260205260406000209350600b91506118e6565b6001600c1b83161561136657600c8101546000527f3490c6ceeb450aecdc82e28293031d10c7d73bf85e57bf041a97360aa2c5d99c60205260406000209350600c91506118e6565b6001600d1b8316156113ae57600d8101546000527fc1df82d9c4b87413eae2ef048f94b4d3554cea73d92b0f7af96e0271c691e2bb60205260406000209350600d91506118e6565b6001600e1b8316156113f657600e8101546000527f5c67add7c6caf302256adedf7ab114da0acfe870d449a3a489f781d659e8becc60205260406000209350600e91506118e6565b6001600f1b83161561143e57600f8101546000527fda7bce9f4e8618b6bd2f4132ce798cdc7a60e7e1460a7299e3c6342a579626d260205260406000209350600f91506118e6565b600160101b8316156114865760108101546000527f2733e50f526ec2fa19a22b31e8ed50f23cd1fdf94c9154ed3a7609a2f1ff981f60205260406000209350601091506118e6565b600160111b8316156114ce5760118101546000527fe1d3b5c807b281e4683cc6d6315cf95b9ade8641defcb32372f1c126e398ef7a60205260406000209350601191506118e6565b600160121b8316156115165760128101546000527f5a2dce0a8a7f68bb74560f8f71837c2c2ebbcbf7fffb42ae1896f13f7c7479a060205260406000209350601291506118e6565b600160131b83161561155e5760138101546000527fb46a28b6f55540f89444f63de0378e3d121be09e06cc9ded1c20e65876d36aa060205260406000209350601391506118e6565b600160141b8316156115a65760148101546000527fc65e9645644786b620e2dd2ad648ddfcbf4a7e5b1a3a4ecfe7f64667a3f0b7e260205260406000209350601491506118e6565b600160151b8316156115ee5760158101546000527ff4418588ed35a2458cffeb39b93d26f18d2ab13bdce6aee58e7b99359ec2dfd960205260406000209350601591506118e6565b600160161b8316156116365760168101546000527f5a9c16dc00d6ef18b7933a6f8dc65ccb55667138776f7dea101070dc8796e37760205260406000209350601691506118e6565b600160171b83161561167e5760178101546000527f4df84f40ae0c8229d0d6069e5c8f39a7c299677a09d367fc7b05e3bc380ee65260205260406000209350601791506118e6565b600160181b8316156116c65760188101546000527fcdc72595f74c7b1043d0e1ffbab734648c838dfb0527d971b602bc216c9619ef60205260406000209350601891506118e6565b600160191b83161561170e5760198101546000527f0abf5ac974a1ed57f4050aa510dd9c74f508277b39d7973bb2dfccc5eeb0618d60205260406000209350601991506118e6565b6001601a1b83161561175657601a8101546000527fb8cd74046ff337f0a7bf2c8e03e10f642c1886798d71806ab1e888d9e5ee87d060205260406000209350601a91506118e6565b6001601b1b83161561179e57601b8101546000527f838c5655cb21c6cb83313b5a631175dff4963772cce9108188b34ac87c81c41e60205260406000209350601b91506118e6565b6001601c1b8316156117e657601c8101546000527f662ee4dd2dd7b2bc707961b1e646c4047669dcb6584f0d8d770daf5d7e7deb2e60205260406000209350601c91506118e6565b6001601d1b83161561182e57601d8101546000527f388ab20e2573d171a88108e79d820e98f26c0b84aa8b2f4aa4968dbb818ea32260205260406000209350601d91506118e6565b6001601e1b83161561187657601e8101546000527f93237c50ba75ee485f4c22adf2f741400bdf8d6a9cc7df7ecae576221665d73560205260406000209350601e91506118e6565b6001601f1b8316156118be57601f8101546000527f8448818bb4ae4562849e949e17ac16e0be16688e156b5cf15e098c627c0056a960205260406000209350601f91506118e6565b7f27ae5ba08d7291c96c8cbddcc148bf48a6d68c7974b94356f53754ef6171d7579350602091505b601e82116123f3576001821015611948576001801b8316600081146119165760018201546000528460205261193f565b846000527fad3228b676f7d3cd4284a5443f17f1962b36e491b30a40b2405849e597ba5fb56020525b50604060002093505b60028210156119a357600160021b8316600081146119715760028201546000528460205261199a565b846000527fb4c11951957c6f8f642c4af61cd6b24640fec6dc7fc607ee8206a99e92410d306020525b50604060002093505b60038210156119fe57600160031b8316600081146119cc576003820154600052846020526119f5565b846000527f21ddb9a356815c3fac1026b6dec5df3124afbadb485c9ba5a3e3398a04b7ba856020525b50604060002093505b6004821015611a5957600160041b831660008114611a2757600482015460005284602052611a50565b846000527fe58769b32a1beaf1ea27375a44095a0d1fb664ce2dd358e7fcbfb78c26a193446020525b50604060002093505b6005821015611ab457600160051b831660008114611a8257600582015460005284602052611aab565b846000527f0eb01ebfc9ed27500cd4dfc979272d1f0913cc9f66540d7e8005811109e1cf2d6020525b50604060002093505b6006821015611b0f57600160061b831660008114611add57600682015460005284602052611b06565b846000527f887c22bd8750d34016ac3c66b5ff102dacdd73f6b014e710b51e8022af9a19686020525b50604060002093505b6007821015611b6a57600160071b831660008114611b3857600782015460005284602052611b61565b846000527fffd70157e48063fc33c97a050f7f640233bf646cc98d9524c6b92bcf3ab56f836020525b50604060002093505b6008821015611bc557600160081b831660008114611b9357600882015460005284602052611bbc565b846000527f9867cc5f7f196b93bae1e27e6320742445d290f2263827498b54fec539f756af6020525b50604060002093505b6009821015611c2057600160091b831660008114611bee57600982015460005284602052611c17565b846000527fcefad4e508c098b9a7e1d8feb19955fb02ba9675585078710969d3440f5054e06020525b50604060002093505b600a821015611c7b576001600a1b831660008114611c4957600a82015460005284602052611c72565b846000527ff9dc3e7fe016e050eff260334f18a5d4fe391d82092319f5964f2e2eb7c1c3a56020525b50604060002093505b600b821015611cd6576001600b1b831660008114611ca457600b82015460005284602052611ccd565b846000527ff8b13a49e282f609c317a833fb8d976d11517c571d1221a265d25af778ecf8926020525b50604060002093505b600c821015611d31576001600c1b831660008114611cff57600c82015460005284602052611d28565b846000527f3490c6ceeb450aecdc82e28293031d10c7d73bf85e57bf041a97360aa2c5d99c6020525b50604060002093505b600d821015611d8c576001600d1b831660008114611d5a57600d82015460005284602052611d83565b846000527fc1df82d9c4b87413eae2ef048f94b4d3554cea73d92b0f7af96e0271c691e2bb6020525b50604060002093505b600e821015611de7576001600e1b831660008114611db557600e82015460005284602052611dde565b846000527f5c67add7c6caf302256adedf7ab114da0acfe870d449a3a489f781d659e8becc6020525b50604060002093505b600f821015611e42576001600f1b831660008114611e1057600f82015460005284602052611e39565b846000527fda7bce9f4e8618b6bd2f4132ce798cdc7a60e7e1460a7299e3c6342a579626d26020525b50604060002093505b6010821015611e9d57600160101b831660008114611e6b57601082015460005284602052611e94565b846000527f2733e50f526ec2fa19a22b31e8ed50f23cd1fdf94c9154ed3a7609a2f1ff981f6020525b50604060002093505b6011821015611ef857600160111b831660008114611ec657601182015460005284602052611eef565b846000527fe1d3b5c807b281e4683cc6d6315cf95b9ade8641defcb32372f1c126e398ef7a6020525b50604060002093505b6012821015611f5357600160121b831660008114611f2157601282015460005284602052611f4a565b846000527f5a2dce0a8a7f68bb74560f8f71837c2c2ebbcbf7fffb42ae1896f13f7c7479a06020525b50604060002093505b6013821015611fae57600160131b831660008114611f7c57601382015460005284602052611fa5565b846000527fb46a28b6f55540f89444f63de0378e3d121be09e06cc9ded1c20e65876d36aa06020525b50604060002093505b601482101561200957600160141b831660008114611fd757601482015460005284602052612000565b846000527fc65e9645644786b620e2dd2ad648ddfcbf4a7e5b1a3a4ecfe7f64667a3f0b7e26020525b50604060002093505b601582101561206457600160151b8316600081146120325760158201546000528460205261205b565b846000527ff4418588ed35a2458cffeb39b93d26f18d2ab13bdce6aee58e7b99359ec2dfd96020525b50604060002093505b60168210156120bf57600160161b83166000811461208d576016820154600052846020526120b6565b846000527f5a9c16dc00d6ef18b7933a6f8dc65ccb55667138776f7dea101070dc8796e3776020525b50604060002093505b601782101561211a57600160171b8316600081146120e857601782015460005284602052612111565b846000527f4df84f40ae0c8229d0d6069e5c8f39a7c299677a09d367fc7b05e3bc380ee6526020525b50604060002093505b601882101561217557600160181b8316600081146121435760188201546000528460205261216c565b846000527fcdc72595f74c7b1043d0e1ffbab734648c838dfb0527d971b602bc216c9619ef6020525b50604060002093505b60198210156121d057600160191b83166000811461219e576019820154600052846020526121c7565b846000527f0abf5ac974a1ed57f4050aa510dd9c74f508277b39d7973bb2dfccc5eeb0618d6020525b50604060002093505b601a82101561222b576001601a1b8316600081146121f957601a82015460005284602052612222565b846000527fb8cd74046ff337f0a7bf2c8e03e10f642c1886798d71806ab1e888d9e5ee87d06020525b50604060002093505b601b821015612286576001601b1b83166000811461225457601b8201546000528460205261227d565b846000527f838c5655cb21c6cb83313b5a631175dff4963772cce9108188b34ac87c81c41e6020525b50604060002093505b601c8210156122e1576001601c1b8316600081146122af57601c820154600052846020526122d8565b846000527f662ee4dd2dd7b2bc707961b1e646c4047669dcb6584f0d8d770daf5d7e7deb2e6020525b50604060002093505b601d82101561233c576001601d1b83166000811461230a57601d82015460005284602052612333565b846000527f388ab20e2573d171a88108e79d820e98f26c0b84aa8b2f4aa4968dbb818ea3226020525b50604060002093505b601e821015612397576001601e1b83166000811461236557601e8201546000528460205261238e565b846000527f93237c50ba75ee485f4c22adf2f741400bdf8d6a9cc7df7ecae576221665d7356020525b50604060002093505b601f8210156123f2576001601f1b8316600081146123c057601f820154600052846020526123e9565b846000527f8448818bb4ae4562849e949e17ac16e0be16688e156b5cf15e098c627c0056a96020525b50604060002093505b5b5050505b919050565b4260028190555080600160006101000a81548173ffffffffffffffffffffffffffffffffffffffff021916908373ffffffffffffffffffffffffffffffffffffffff1602179055508073ffffffffffffffffffffffffffffffffffffffff167f6ab4d119f23076e8ad491bc65ce85f017fb0591dce08755ba8591059cc51737a60405160405180910390a250565b6000808273ffffffffffffffffffffffffffffffffffffffff163b119050919050565b600060019054906101000a900460ff166124fc576040517f08c379a00000000000000000000000000000000000000000000000000000000081526004016124f3906131f3565b60405180910390fd5b6125058161264c565b50565b600060019054906101000a900460ff16612557576040517f08c379a000000000000000000000000000000000000000000000000000000000815260040161254e906131f3565b60405180910390fd5b61255f6126df565b565b8073ffffffffffffffffffffffffffffffffffffffff16600060029054906101000a900473ffffffffffffffffffffffffffffffffffffffff1673ffffffffffffffffffffffffffffffffffffffff167f8be0079c531659141344cd1fd0a4f28419497f9722a3daafe3b4186f6b6457e060405160405180910390a380600060026101000a81548173ffffffffffffffffffffffffffffffffffffffff021916908373ffffffffffffffffffffffffffffffffffffffff160217905550600260009055600160006101000a81549073ffffffffffffffffffffffffffffffffffffffff021916905550565b600060019054906101000a900460ff1661269b576040517f08c379a0000000000000000000000000000000000000000000000000000000008152600401612692906131f3565b60405180910390fd5b80605360006101000a81548173ffffffffffffffffffffffffffffffffffffffff021916908373ffffffffffffffffffffffffffffffffffffffff16021790555050565b600060019054906101000a900460ff1661272e576040517f08c379a0000000000000000000000000000000000000000000000000000000008152600401612725906131f3565b60405180910390fd5b61273733612561565b565b8260208101928215612768579160200282015b8281111561276757825182559160200191906001019061274c565b5b50905061277591906127bc565b5090565b604051806104000160405280602090602082028036833780820191505090505090565b60405180604001604052806127af612779565b8152602001600081525090565b5b808211156127d55760008160009055506001016127bd565b5090565b6000819050919050565b6127ec816127d9565b82525050565b600060208201905061280760008301846127e3565b92915050565b6000604051905090565b600080fd5b600080fd5b600073ffffffffffffffffffffffffffffffffffffffff82169050919050565b600061284c82612821565b9050919050565b61285c81612841565b811461286757600080fd5b50565b60008135905061287981612853565b92915050565b60006020828403121561289557612894612817565b5b60006128a38482850161286a565b91505092915050565b6000819050919050565b6128bf816128ac565b81146128ca57600080fd5b50565b6000813590506128dc816128b6565b92915050565b6000602082840312156128f8576128f7612817565b5b6000612906848285016128cd565b91505092915050565b612918816128ac565b82525050565b6000604082019050612933600083018561290f565b61294060208301846127e3565b9392505050565b61295081612841565b82525050565b600060208201905061296b6000830184612947565b92915050565b600080fd5b6000601f19601f8301169050919050565b7f4e487b7100000000000000000000000000000000000000000000000000000000600052604160045260246000fd5b6129bf82612976565b810181811067ffffffffffffffff821117156129de576129dd612987565b5b80604052505050565b60006129f161280d565b90506129fd82826129b6565b919050565b600067ffffffffffffffff821115612a1d57612a1c612987565b5b602082029050602081019050919050565b600080fd5b6000612a46612a4184612a02565b6129e7565b90508083825260208201905060208402830185811115612a6957612a68612a2e565b5b835b81811015612a925780612a7e88826128cd565b845260208401935050602081019050612a6b565b5050509392505050565b600082601f830112612ab157612ab0612971565b5b8135612ac1848260208601612a33565b91505092915050565b600060208284031215612ae057612adf612817565b5b600082013567ffffffffffffffff811115612afe57612afd61281c565b5b612b0a84828501612a9c565b91505092915050565b600060209050919050565b600081905092915050565b6000819050919050565b612b3c816128ac565b82525050565b6000612b4e8383612b33565b60208301905092915050565b6000602082019050919050565b612b7081612b13565b612b7a8184612b1e565b9250612b8582612b29565b8060005b83811015612bb6578151612b9d8782612b42565b9650612ba883612b5a565b925050600181019050612b89565b505050505050565b600061040082019050612bd46000830184612b67565b92915050565b60008115159050919050565b612bef81612bda565b82525050565b6000602082019050612c0a6000830184612be6565b92915050565b6000602082019050612c25600083018461290f565b92915050565b6000604082019050612c406000830185612947565b612c4d6020830184612947565b9392505050565b600082825260208201905092915050565b7f216172626f726973740000000000000000000000000000000000000000000000600082015250565b6000612c9b600983612c54565b9150612ca682612c65565b602082019050919050565b60006020820190508181036000830152612cca81612c8e565b9050919050565b6000606082019050612ce6600083018661290f565b612cf360208301856127e3565b612d00604083018461290f565b949350505050565b7f4e487b7100000000000000000000000000000000000000000000000000000000600052603260045260246000fd5b600081519050919050565b600082825260208201905092915050565b6000819050602082019050919050565b6000602082019050919050565b6000612d7b82612d37565b612d858185612d42565b9350612d9083612d53565b8060005b83811015612dc1578151612da88882612b42565b9750612db383612d63565b925050600181019050612d94565b5085935050505092915050565b6000606082019050612de3600083018661290f565b612df060208301856127e3565b8181036040830152612e028184612d70565b9050949350505050565b7f496e697469616c697a61626c653a20636f6e747261637420697320616c72656160008201527f647920696e697469616c697a6564000000000000000000000000000000000000602082015250565b6000612e68602e83612c54565b9150612e7382612e0c565b604082019050919050565b60006020820190508181036000830152612e9781612e5b565b9050919050565b6000819050919050565b600060ff82169050919050565b6000819050919050565b6000612eda612ed5612ed084612e9e565b612eb5565b612ea8565b9050919050565b612eea81612ebf565b82525050565b6000602082019050612f056000830184612ee1565b92915050565b7f4e487b7100000000000000000000000000000000000000000000000000000000600052601160045260246000fd5b6000612f45826127d9565b9150612f50836127d9565b9250828203905081811115612f6857612f67612f0b565b5b92915050565b6000612f79826127d9565b91507fffffffffffffffffffffffffffffffffffffffffffffffffffffffffffffffff8203612fab57612faa612f0b565b5b600182019050919050565b60008160011c9050919050565b6000808291508390505b600185111561300d57808604811115612fe957612fe8612f0b565b5b6001851615612ff85780820291505b808102905061300685612fb6565b9450612fcd565b94509492505050565b60008261302657600190506130e2565b8161303457600090506130e2565b816001811461304a576002811461305457613083565b60019150506130e2565b60ff84111561306657613065612f0b565b5b8360020a91508482111561307d5761307c612f0b565b5b506130e2565b5060208310610133831016604e8410600b84101617156130b85782820a9050838111156130b3576130b2612f0b565b5b6130e2565b6130c58484846001612fc3565b925090508184048111156130dc576130db612f0b565b5b81810290505b9392505050565b60006130f4826127d9565b91506130ff836127d9565b925061312c7fffffffffffffffffffffffffffffffffffffffffffffffffffffffffffffffff8484613016565b905092915050565b6000819050919050565b61314f61314a826128ac565b613134565b82525050565b6000613161828561313e565b602082019150613171828461313e565b6020820191508190509392505050565b7f496e697469616c697a61626c653a20636f6e7472616374206973206e6f74206960008201527f6e697469616c697a696e67000000000000000000000000000000000000000000602082015250565b60006131dd602b83612c54565b91506131e882613181565b604082019050919050565b6000602082019050818103600083015261320c816131d0565b905091905056fea26469706673582212206ced6bad115e95cf729fda705407e9db17cf4772f2f1ef696ead6ccdd77fd69764736f6c63430008110033",
  "linkReferences": {},
  "deployedLinkReferences": {}
}