{
  "_format": "hh-sol-artifact-1",
  "contractName": "OVM_L2ToL1MessagePasser",
  "sourceName": "contracts/L2/predeploys/OVM_L2ToL1MessagePasser.sol",
  "abi": [
    {
      "anonymous": false,
      "inputs": [
        {
          "indexed": false,
          "internalType": "uint256",
          "name": "_nonce",
          "type": "uint256"
        },
        {
          "indexed": false,
          "internalType": "address",
          "name": "_sender",
          "type": "address"
        },
        {
          "indexed": false,
          "internalType": "bytes",
          "name": "_data",
          "type": "bytes"
        }
      ],
      "name": "L2ToL1Message",
      "type": "event"
    },
    {
      "inputs": [
        {
          "internalType": "bytes",
          "name": "_message",
          "type": "bytes"
        }
      ],
      "name": "passMessageToL1",
      "outputs": [],
      "stateMutability": "nonpayable",
      "type": "function"
    },
    {
      "inputs": [
        {
          "internalType": "bytes32",
          "name": "",
          "type": "bytes32"
        }
      ],
      "name": "sentMessages",
      "outputs": [
        {
          "internalType": "bool",
          "name": "",
          "type": "bool"
        }
      ],
      "stateMutability": "view",
      "type": "function"
    }
  ],
  "bytecode": "0x608060405234801561001057600080fd5b50610482806100206000396000f3fe608060405234801561001057600080fd5b50600436106100365760003560e01c806382e3702d1461003b578063cafa81dc1461006b575b600080fd5b61005560048036038101906100509190610147565b610087565b604051610062919061018f565b60405180910390f35b610085600480360381019061008091906102f0565b6100a7565b005b60006020528060005260406000206000915054906101000a900460ff1681565b600160008083336040516020016100bf929190610424565b60405160208183030381529060405280519060200120815260200190815260200160002060006101000a81548160ff02191690831515021790555050565b6000604051905090565b600080fd5b600080fd5b6000819050919050565b61012481610111565b811461012f57600080fd5b50565b6000813590506101418161011b565b92915050565b60006020828403121561015d5761015c610107565b5b600061016b84828501610132565b91505092915050565b60008115159050919050565b61018981610174565b82525050565b60006020820190506101a46000830184610180565b92915050565b600080fd5b600080fd5b6000601f19601f8301169050919050565b7f4e487b7100000000000000000000000000000000000000000000000000000000600052604160045260246000fd5b6101fd826101b4565b810181811067ffffffffffffffff8211171561021c5761021b6101c5565b5b80604052505050565b600061022f6100fd565b905061023b82826101f4565b919050565b600067ffffffffffffffff82111561025b5761025a6101c5565b5b610264826101b4565b9050602081019050919050565b82818337600083830152505050565b600061029361028e84610240565b610225565b9050828152602081018484840111156102af576102ae6101af565b5b6102ba848285610271565b509392505050565b600082601f8301126102d7576102d66101aa565b5b81356102e7848260208601610280565b91505092915050565b60006020828403121561030657610305610107565b5b600082013567ffffffffffffffff8111156103245761032361010c565b5b610330848285016102c2565b91505092915050565b600081519050919050565b600081905092915050565b60005b8381101561036d578082015181840152602081019050610352565b60008484015250505050565b600061038482610339565b61038e8185610344565b935061039e81856020860161034f565b80840191505092915050565b600073ffffffffffffffffffffffffffffffffffffffff82169050919050565b60006103d5826103aa565b9050919050565b60008160601b9050919050565b60006103f4826103dc565b9050919050565b6000610406826103e9565b9050919050565b61041e610419826103ca565b6103fb565b82525050565b60006104308285610379565b915061043c828461040d565b601482019150819050939250505056fea26469706673582212205ca308c89bd788465331fb96500b606b600b65b5b693fd580d1ca8fd9356409364736f6c63430008120033",
  "linkReferences": {},
  "deployedLinkReferences": {}
}