{
  "_format": "hh-sol-artifact-1",
  "contractName": "OVM_L2ToL1MessagePasser",
  "sourceName": "contracts/L2/predeploys/OVM_L2ToL1MessagePasser.sol",
  "abi": [
    {
      "anonymous": false,
      "inputs": [
        {
          "indexed": false,
          "internalType": "uint256",
          "name": "_nonce",
          "type": "uint256"
        },
        {
          "indexed": false,
          "internalType": "address",
          "name": "_sender",
          "type": "address"
        },
        {
          "indexed": false,
          "internalType": "bytes",
          "name": "_data",
          "type": "bytes"
        }
      ],
      "name": "L2ToL1Message",
      "type": "event"
    },
    {
      "inputs": [
        {
          "internalType": "bytes",
          "name": "_message",
          "type": "bytes"
        }
      ],
      "name": "passMessageToL1",
      "outputs": [],
      "stateMutability": "nonpayable",
      "type": "function"
    },
    {
      "inputs": [
        {
          "internalType": "bytes32",
          "name": "",
          "type": "bytes32"
        }
      ],
      "name": "sentMessages",
      "outputs": [
        {
          "internalType": "bool",
          "name": "",
          "type": "bool"
        }
      ],
      "stateMutability": "view",
      "type": "function"
    }
  ],
  "bytecode": "0x608060405234801561001057600080fd5b5061024c806100206000396000f3fe608060405234801561001057600080fd5b50600436106100365760003560e01c806382e3702d1461003b578063cafa81dc14610072575b600080fd5b61005e6100493660046100d6565b60006020819052908152604090205460ff1681565b604051901515815260200160405180910390f35b61008561008036600461011e565b610087565b005b6001600080833360405160200161009f9291906101cf565b60408051808303601f19018152918152815160209283012083529082019290925201600020805460ff191691151591909117905550565b6000602082840312156100e857600080fd5b5035919050565b7f4e487b7100000000000000000000000000000000000000000000000000000000600052604160045260246000fd5b60006020828403121561013057600080fd5b813567ffffffffffffffff8082111561014857600080fd5b818401915084601f83011261015c57600080fd5b81358181111561016e5761016e6100ef565b604051601f8201601f19908116603f01168101908382118183101715610196576101966100ef565b816040528281528760208487010111156101af57600080fd5b826020860160208301376000928101602001929092525095945050505050565b6000835160005b818110156101f057602081870181015185830152016101d6565b5060609390931b6bffffffffffffffffffffffff1916919092019081526014019291505056fea264697066735822122059c2de62b90e073da9d90df3cef79de199e49d4a27c2521f950bf1345a9899bd64736f6c63430008120033",
  "linkReferences": {},
  "deployedLinkReferences": {}
}