{"contracts/L1/rollup/ChainStorageContainer.sol":{"ChainStorageContainer":{"abi":[{"inputs":[{"internalType":"address","name":"_libAddressManager","type":"address"},{"internalType":"string","name":"_owner","type":"string"}],"stateMutability":"nonpayable","type":"constructor"},{"inputs":[{"internalType":"uint256","name":"_index","type":"uint256"},{"internalType":"bytes27","name":"_globalMetadata","type":"bytes27"}],"name":"deleteElementsAfterInclusive","outputs":[],"stateMutability":"nonpayable","type":"function"},{"inputs":[{"internalType":"uint256","name":"_index","type":"uint256"}],"name":"deleteElementsAfterInclusive","outputs":[],"stateMutability":"nonpayable","type":"function"},{"inputs":[{"internalType":"uint256","name":"_index","type":"uint256"}],"name":"get","outputs":[{"internalType":"bytes32","name":"","type":"bytes32"}],"stateMutability":"view","type":"function"},{"inputs":[],"name":"getGlobalMetadata","outputs":[{"internalType":"bytes27","name":"","type":"bytes27"}],"stateMutability":"view","type":"function"},{"inputs":[],"name":"length","outputs":[{"internalType":"uint256","name":"","type":"uint256"}],"stateMutability":"view","type":"function"},{"inputs":[],"name":"libAddressManager","outputs":[{"internalType":"contract Lib_AddressManager","name":"","type":"address"}],"stateMutability":"view","type":"function"},{"inputs":[],"name":"owner","outputs":[{"internalType":"string","name":"","type":"string"}],"stateMutability":"view","type":"function"},{"inputs":[{"internalType":"bytes32","name":"_object","type":"bytes32"},{"internalType":"bytes27","name":"_globalMetadata","type":"bytes27"}],"name":"push","outputs":[],"stateMutability":"nonpayable","type":"function"},{"inputs":[{"internalType":"bytes32","name":"_object","type":"bytes32"}],"name":"push","outputs":[],"stateMutability":"nonpayable","type":"function"},{"inputs":[{"internalType":"string","name":"_name","type":"string"}],"name":"resolve","outputs":[{"internalType":"address","name":"","type":"address"}],"stateMutability":"view","type":"function"},{"inputs":[{"internalType":"bytes27","name":"_globalMetadata","type":"bytes27"}],"name":"setGlobalMetadata","outputs":[],"stateMutability":"nonpayable","type":"function"},{"inputs":[{"components":[{"internalType":"uint256","name":"batchIndex","type":"uint256"},{"internalType":"bytes32","name":"batchRoot","type":"bytes32"},{"internalType":"uint256","name":"batchSize","type":"uint256"},{"internalType":"uint256","name":"prevTotalElements","type":"uint256"},{"internalType":"bytes","name":"extraData","type":"bytes"}],"internalType":"struct Lib_OVMCodec.ChainBatchHeader","name":"_batchHeader","type":"tuple"}],"name":"setSavedHash","outputs":[],"stateMutability":"nonpayable","type":"function"}],"evm":{"bytecode":{"linkReferences":{},"object":"60806040523480156200001157600080fd5b5060405162001c9b38038062001c9b83398181016040528101906200003791906200028b565b81806000806101000a81548173ffffffffffffffffffffffffffffffffffffffff021916908373ffffffffffffffffffffffffffffffffffffffff1602179055505080600190816200008a91906200053c565b50505062000623565b6000604051905090565b600080fd5b600080fd5b600073ffffffffffffffffffffffffffffffffffffffff82169050919050565b6000620000d482620000a7565b9050919050565b620000e681620000c7565b8114620000f257600080fd5b50565b6000815190506200010681620000db565b92915050565b600080fd5b600080fd5b6000601f19601f8301169050919050565b7f4e487b7100000000000000000000000000000000000000000000000000000000600052604160045260246000fd5b620001618262000116565b810181811067ffffffffffffffff8211171562000183576200018262000127565b5b80604052505050565b60006200019862000093565b9050620001a6828262000156565b919050565b600067ffffffffffffffff821115620001c957620001c862000127565b5b620001d48262000116565b9050602081019050919050565b60005b8381101562000201578082015181840152602081019050620001e4565b60008484015250505050565b6000620002246200021e84620001ab565b6200018c565b90508281526020810184848401111562000243576200024262000111565b5b62000250848285620001e1565b509392505050565b600082601f83011262000270576200026f6200010c565b5b8151620002828482602086016200020d565b91505092915050565b60008060408385031215620002a557620002a46200009d565b5b6000620002b585828601620000f5565b925050602083015167ffffffffffffffff811115620002d957620002d8620000a2565b5b620002e78582860162000258565b9150509250929050565b600081519050919050565b7f4e487b7100000000000000000000000000000000000000000000000000000000600052602260045260246000fd5b600060028204905060018216806200034457607f821691505b6020821081036200035a5762000359620002fc565b5b50919050565b60008190508160005260206000209050919050565b60006020601f8301049050919050565b600082821b905092915050565b600060088302620003c47fffffffffffffffffffffffffffffffffffffffffffffffffffffffffffffffff8262000385565b620003d0868362000385565b95508019841693508086168417925050509392505050565b6000819050919050565b6000819050919050565b60006200041d620004176200041184620003e8565b620003f2565b620003e8565b9050919050565b6000819050919050565b6200043983620003fc565b62000451620004488262000424565b84845462000392565b825550505050565b600090565b6200046862000459565b620004758184846200042e565b505050565b5b818110156200049d57620004916000826200045e565b6001810190506200047b565b5050565b601f821115620004ec57620004b68162000360565b620004c18462000375565b81016020851015620004d1578190505b620004e9620004e08562000375565b8301826200047a565b50505b505050565b600082821c905092915050565b60006200051160001984600802620004f1565b1980831691505092915050565b60006200052c8383620004fe565b9150826002028217905092915050565b6200054782620002f1565b67ffffffffffffffff81111562000563576200056262000127565b5b6200056f82546200032b565b6200057c828285620004a1565b600060209050601f831160018114620005b457600084156200059f578287015190505b620005ab85826200051e565b8655506200061b565b601f198416620005c48662000360565b60005b82811015620005ee57848901518255600182019150602085019450602081019050620005c7565b868310156200060e57848901516200060a601f891682620004fe565b8355505b6001600288020188555050505b505050505050565b61166880620006336000396000f3fe608060405234801561001057600080fd5b50600436106100b45760003560e01c8063461a447811610071578063461a4478146101655780634651d91e146101955780638da5cb5b146101b15780639507d39a146101cf578063b298e36b146101ff578063ccf8f9691461021b576100b4565b8063167fd681146100b95780631f7b6d32146100d55780632015276c146100f357806329061de21461010f578063299ca4781461012b5780633d16057214610149575b600080fd5b6100d360048036038101906100ce9190610d10565b610239565b005b6100dd610353565b6040516100ea9190610d5f565b60405180910390f35b61010d60048036038101906101089190610db0565b61036b565b005b61012960048036038101906101249190610df0565b610485565b005b61013361059c565b6040516101409190610e9c565b60405180910390f35b610163600480360381019061015e91906110af565b6105c0565b005b61017f600480360381019061017a9190611199565b6105d2565b60405161018c9190611203565b60405180910390f35b6101af60048036038101906101aa919061121e565b610676565b005b6101b961078d565b6040516101c691906112ca565b60405180910390f35b6101e960048036038101906101e4919061121e565b61081b565b6040516101f691906112fb565b60405180910390f35b61021960048036038101906102149190611316565b610827565b005b61022361093e565b6040516102309190611352565b60405180910390f35b6102cc600180546102499061139c565b80601f01602080910402602001604051908101604052809291908181526020018280546102759061139c565b80156102c25780601f10610297576101008083540402835291602001916102c2565b820191906000526020600020905b8154815290600101906020018083116102a557829003601f168201915b50505050506105d2565b73ffffffffffffffffffffffffffffffffffffffff163373ffffffffffffffffffffffffffffffffffffffff1614610339576040517f08c379a00000000000000000000000000000000000000000000000000000000081526004016103309061143f565b60405180910390fd5b61034f8282600261094f9092919063ffffffff16565b5050565b600061035f60026109ff565b64ffffffffff16905090565b6103fe6001805461037b9061139c565b80601f01602080910402602001604051908101604052809291908181526020018280546103a79061139c565b80156103f45780601f106103c9576101008083540402835291602001916103f4565b820191906000526020600020905b8154815290600101906020018083116103d757829003601f168201915b50505050506105d2565b73ffffffffffffffffffffffffffffffffffffffff163373ffffffffffffffffffffffffffffffffffffffff161461046b576040517f08c379a00000000000000000000000000000000000000000000000000000000081526004016104629061143f565b60405180910390fd5b61048182826002610a1a9092919063ffffffff16565b5050565b610518600180546104959061139c565b80601f01602080910402602001604051908101604052809291908181526020018280546104c19061139c565b801561050e5780601f106104e35761010080835404028352916020019161050e565b820191906000526020600020905b8154815290600101906020018083116104f157829003601f168201915b50505050506105d2565b73ffffffffffffffffffffffffffffffffffffffff163373ffffffffffffffffffffffffffffffffffffffff1614610585576040517f08c379a000000000000000000000000000000000000000000000000000000000815260040161057c9061143f565b60405180910390fd5b610599816002610aa590919063ffffffff16565b50565b60008054906101000a900473ffffffffffffffffffffffffffffffffffffffff1681565b6105c981610ae6565b60048190555050565b60008060009054906101000a900473ffffffffffffffffffffffffffffffffffffffff1673ffffffffffffffffffffffffffffffffffffffff1663bf40fac1836040518263ffffffff1660e01b815260040161062e91906112ca565b602060405180830381865afa15801561064b573d6000803e3d6000fd5b505050506040513d601f19601f8201168201806040525081019061066f919061148b565b9050919050565b610709600180546106869061139c565b80601f01602080910402602001604051908101604052809291908181526020018280546106b29061139c565b80156106ff5780601f106106d4576101008083540402835291602001916106ff565b820191906000526020600020905b8154815290600101906020018083116106e257829003601f168201915b50505050506105d2565b73ffffffffffffffffffffffffffffffffffffffff163373ffffffffffffffffffffffffffffffffffffffff1614610776576040517f08c379a000000000000000000000000000000000000000000000000000000000815260040161076d9061143f565b60405180910390fd5b61078a816002610b2c90919063ffffffff16565b50565b6001805461079a9061139c565b80601f01602080910402602001604051908101604052809291908181526020018280546107c69061139c565b80156108135780601f106107e857610100808354040283529160200191610813565b820191906000526020600020905b8154815290600101906020018083116107f657829003601f168201915b505050505081565b60006004549050919050565b6108ba600180546108379061139c565b80601f01602080910402602001604051908101604052809291908181526020018280546108639061139c565b80156108b05780601f10610885576101008083540402835291602001916108b0565b820191906000526020600020905b81548152906001019060200180831161089357829003601f168201915b50505050506105d2565b73ffffffffffffffffffffffffffffffffffffffff163373ffffffffffffffffffffffffffffffffffffffff1614610927576040517f08c379a000000000000000000000000000000000000000000000000000000000815260040161091e9061143f565b60405180910390fd5b61093b816002610b5790919063ffffffff16565b50565b600061094a6002610b82565b905090565b600061095a84610b9d565b9050806000015164ffffffffff168364ffffffffff16106109b0576040517f08c379a00000000000000000000000000000000000000000000000000000000081526004016109a790611504565b60405180910390fd5b82816000019064ffffffffff16908164ffffffffff168152505081816020019064ffffffffff1916908164ffffffffff1916815250506109f98185610c0e90919063ffffffff16565b50505050565b600080610a0b83610b9d565b90508060000151915050919050565b6000610a2584610b9d565b905082846001016000836000015164ffffffffff16815260200190815260200160002081905550806000018051809190610a5e90611564565b64ffffffffff1664ffffffffff168152505081816020019064ffffffffff1916908164ffffffffff191681525050610a9f8185610c0e90919063ffffffff16565b50505050565b6000610ab083610b9d565b905081816020019064ffffffffff1916908164ffffffffff191681525050610ae18184610c0e90919063ffffffff16565b505050565b60008160200151826040015183606001518460800151604051602001610b0f94939291906115e6565b604051602081830303815290604052805190602001209050919050565b6000610b3783610b9d565b9050610b528282602001518561094f9092919063ffffffff16565b505050565b6000610b6283610b9d565b9050610b7d82826020015185610a1a9092919063ffffffff16565b505050565b600080610b8e83610b9d565b90508060200151915050919050565b610ba5610c45565b60008260000154905060008064ffffffffff831691507fffffffffffffffffffffffffffffffffffffffffffffffffffffff00000000008316905060405180604001604052808364ffffffffff1681526020018264ffffffffff19168152509350505050919050565b60008082600001519050600083602001519050819250808317925082856000015414610c3e578285600001819055505b5050505050565b6040518060400160405280600064ffffffffff168152602001600064ffffffffff191681525090565b6000604051905090565b600080fd5b600080fd5b6000819050919050565b610c9581610c82565b8114610ca057600080fd5b50565b600081359050610cb281610c8c565b92915050565b60007fffffffffffffffffffffffffffffffffffffffffffffffffffffff000000000082169050919050565b610ced81610cb8565b8114610cf857600080fd5b50565b600081359050610d0a81610ce4565b92915050565b60008060408385031215610d2757610d26610c78565b5b6000610d3585828601610ca3565b9250506020610d4685828601610cfb565b9150509250929050565b610d5981610c82565b82525050565b6000602082019050610d746000830184610d50565b92915050565b6000819050919050565b610d8d81610d7a565b8114610d9857600080fd5b50565b600081359050610daa81610d84565b92915050565b60008060408385031215610dc757610dc6610c78565b5b6000610dd585828601610d9b565b9250506020610de685828601610cfb565b9150509250929050565b600060208284031215610e0657610e05610c78565b5b6000610e1484828501610cfb565b91505092915050565b600073ffffffffffffffffffffffffffffffffffffffff82169050919050565b6000819050919050565b6000610e62610e5d610e5884610e1d565b610e3d565b610e1d565b9050919050565b6000610e7482610e47565b9050919050565b6000610e8682610e69565b9050919050565b610e9681610e7b565b82525050565b6000602082019050610eb16000830184610e8d565b92915050565b600080fd5b6000601f19601f8301169050919050565b7f4e487b7100000000000000000000000000000000000000000000000000000000600052604160045260246000fd5b610f0582610ebc565b810181811067ffffffffffffffff82111715610f2457610f23610ecd565b5b80604052505050565b6000610f37610c6e565b9050610f438282610efc565b919050565b600080fd5b600080fd5b600080fd5b600067ffffffffffffffff821115610f7257610f71610ecd565b5b610f7b82610ebc565b9050602081019050919050565b82818337600083830152505050565b6000610faa610fa584610f57565b610f2d565b905082815260208101848484011115610fc657610fc5610f52565b5b610fd1848285610f88565b509392505050565b600082601f830112610fee57610fed610f4d565b5b8135610ffe848260208601610f97565b91505092915050565b600060a0828403121561101d5761101c610eb7565b5b61102760a0610f2d565b9050600061103784828501610ca3565b600083015250602061104b84828501610d9b565b602083015250604061105f84828501610ca3565b604083015250606061107384828501610ca3565b606083015250608082013567ffffffffffffffff81111561109757611096610f48565b5b6110a384828501610fd9565b60808301525092915050565b6000602082840312156110c5576110c4610c78565b5b600082013567ffffffffffffffff8111156110e3576110e2610c7d565b5b6110ef84828501611007565b91505092915050565b600067ffffffffffffffff82111561111357611112610ecd565b5b61111c82610ebc565b9050602081019050919050565b600061113c611137846110f8565b610f2d565b90508281526020810184848401111561115857611157610f52565b5b611163848285610f88565b509392505050565b600082601f8301126111805761117f610f4d565b5b8135611190848260208601611129565b91505092915050565b6000602082840312156111af576111ae610c78565b5b600082013567ffffffffffffffff8111156111cd576111cc610c7d565b5b6111d98482850161116b565b91505092915050565b60006111ed82610e1d565b9050919050565b6111fd816111e2565b82525050565b600060208201905061121860008301846111f4565b92915050565b60006020828403121561123457611233610c78565b5b600061124284828501610ca3565b91505092915050565b600081519050919050565b600082825260208201905092915050565b60005b8381101561128557808201518184015260208101905061126a565b60008484015250505050565b600061129c8261124b565b6112a68185611256565b93506112b6818560208601611267565b6112bf81610ebc565b840191505092915050565b600060208201905081810360008301526112e48184611291565b905092915050565b6112f581610d7a565b82525050565b600060208201905061131060008301846112ec565b92915050565b60006020828403121561132c5761132b610c78565b5b600061133a84828501610d9b565b91505092915050565b61134c81610cb8565b82525050565b60006020820190506113676000830184611343565b92915050565b7f4e487b7100000000000000000000000000000000000000000000000000000000600052602260045260246000fd5b600060028204905060018216806113b457607f821691505b6020821081036113c7576113c661136d565b5b50919050565b7f436861696e53746f72616765436f6e7461696e65723a2046756e6374696f6e2060008201527f63616e206f6e6c792062652063616c6c656420627920746865206f776e65722e602082015250565b6000611429604083611256565b9150611434826113cd565b604082019050919050565b600060208201905081810360008301526114588161141c565b9050919050565b611468816111e2565b811461147357600080fd5b50565b6000815190506114858161145f565b92915050565b6000602082840312156114a1576114a0610c78565b5b60006114af84828501611476565b91505092915050565b7f496e646578206f7574206f6620626f756e64732e000000000000000000000000600082015250565b60006114ee601483611256565b91506114f9826114b8565b602082019050919050565b6000602082019050818103600083015261151d816114e1565b9050919050565b7f4e487b7100000000000000000000000000000000000000000000000000000000600052601160045260246000fd5b600064ffffffffff82169050919050565b600061156f82611553565b915064ffffffffff820361158657611585611524565b5b600182019050919050565b600081519050919050565b600082825260208201905092915050565b60006115b882611591565b6115c2818561159c565b93506115d2818560208601611267565b6115db81610ebc565b840191505092915050565b60006080820190506115fb60008301876112ec565b6116086020830186610d50565b6116156040830185610d50565b818103606083015261162781846115ad565b90509594505050505056fea2646970667358221220836d161ab4ae6d5dac69e50ee0c14d3143f084ad213216141862d8970922966964736f6c63430008120033","opcodes":"PUSH1 0x80 PUSH1 0x40 MSTORE CALLVALUE DUP1 ISZERO PUSH3 0x11 JUMPI PUSH1 0x0 DUP1 REVERT JUMPDEST POP PUSH1 0x40 MLOAD PUSH3 0x1C9B CODESIZE SUB DUP1 PUSH3 0x1C9B DUP4 CODECOPY DUP2 DUP2 ADD PUSH1 0x40 MSTORE DUP2 ADD SWAP1 PUSH3 0x37 SWAP2 SWAP1 PUSH3 0x28B JUMP JUMPDEST DUP2 DUP1 PUSH1 0x0 DUP1 PUSH2 0x100 EXP DUP2 SLOAD DUP2 PUSH20 0xFFFFFFFFFFFFFFFFFFFFFFFFFFFFFFFFFFFFFFFF MUL NOT AND SWAP1 DUP4 PUSH20 0xFFFFFFFFFFFFFFFFFFFFFFFFFFFFFFFFFFFFFFFF AND MUL OR SWAP1 SSTORE POP POP DUP1 PUSH1 0x1 SWAP1 DUP2 PUSH3 0x8A SWAP2 SWAP1 PUSH3 0x53C JUMP JUMPDEST POP POP POP PUSH3 0x623 JUMP JUMPDEST PUSH1 0x0 PUSH1 0x40 MLOAD SWAP1 POP SWAP1 JUMP JUMPDEST PUSH1 0x0 DUP1 REVERT JUMPDEST PUSH1 0x0 DUP1 REVERT JUMPDEST PUSH1 0x0 PUSH20 0xFFFFFFFFFFFFFFFFFFFFFFFFFFFFFFFFFFFFFFFF DUP3 AND SWAP1 POP SWAP2 SWAP1 POP JUMP JUMPDEST PUSH1 0x0 PUSH3 0xD4 DUP3 PUSH3 0xA7 JUMP JUMPDEST SWAP1 POP SWAP2 SWAP1 POP JUMP JUMPDEST PUSH3 0xE6 DUP2 PUSH3 0xC7 JUMP JUMPDEST DUP2 EQ PUSH3 0xF2 JUMPI PUSH1 0x0 DUP1 REVERT JUMPDEST POP JUMP JUMPDEST PUSH1 0x0 DUP2 MLOAD SWAP1 POP PUSH3 0x106 DUP2 PUSH3 0xDB JUMP JUMPDEST SWAP3 SWAP2 POP POP JUMP JUMPDEST PUSH1 0x0 DUP1 REVERT JUMPDEST PUSH1 0x0 DUP1 REVERT JUMPDEST PUSH1 0x0 PUSH1 0x1F NOT PUSH1 0x1F DUP4 ADD AND SWAP1 POP SWAP2 SWAP1 POP JUMP JUMPDEST PUSH32 0x4E487B7100000000000000000000000000000000000000000000000000000000 PUSH1 0x0 MSTORE PUSH1 0x41 PUSH1 0x4 MSTORE PUSH1 0x24 PUSH1 0x0 REVERT JUMPDEST PUSH3 0x161 DUP3 PUSH3 0x116 JUMP JUMPDEST DUP2 ADD DUP2 DUP2 LT PUSH8 0xFFFFFFFFFFFFFFFF DUP3 GT OR ISZERO PUSH3 0x183 JUMPI PUSH3 0x182 PUSH3 0x127 JUMP JUMPDEST JUMPDEST DUP1 PUSH1 0x40 MSTORE POP POP POP JUMP JUMPDEST PUSH1 0x0 PUSH3 0x198 PUSH3 0x93 JUMP JUMPDEST SWAP1 POP PUSH3 0x1A6 DUP3 DUP3 PUSH3 0x156 JUMP JUMPDEST SWAP2 SWAP1 POP JUMP JUMPDEST PUSH1 0x0 PUSH8 0xFFFFFFFFFFFFFFFF DUP3 GT ISZERO PUSH3 0x1C9 JUMPI PUSH3 0x1C8 PUSH3 0x127 JUMP JUMPDEST JUMPDEST PUSH3 0x1D4 DUP3 PUSH3 0x116 JUMP JUMPDEST SWAP1 POP PUSH1 0x20 DUP2 ADD SWAP1 POP SWAP2 SWAP1 POP JUMP JUMPDEST PUSH1 0x0 JUMPDEST DUP4 DUP2 LT ISZERO PUSH3 0x201 JUMPI DUP1 DUP3 ADD MLOAD DUP2 DUP5 ADD MSTORE PUSH1 0x20 DUP2 ADD SWAP1 POP PUSH3 0x1E4 JUMP JUMPDEST PUSH1 0x0 DUP5 DUP5 ADD MSTORE POP POP POP POP JUMP JUMPDEST PUSH1 0x0 PUSH3 0x224 PUSH3 0x21E DUP5 PUSH3 0x1AB JUMP JUMPDEST PUSH3 0x18C JUMP JUMPDEST SWAP1 POP DUP3 DUP2 MSTORE PUSH1 0x20 DUP2 ADD DUP5 DUP5 DUP5 ADD GT ISZERO PUSH3 0x243 JUMPI PUSH3 0x242 PUSH3 0x111 JUMP JUMPDEST JUMPDEST PUSH3 0x250 DUP5 DUP3 DUP6 PUSH3 0x1E1 JUMP JUMPDEST POP SWAP4 SWAP3 POP POP POP JUMP JUMPDEST PUSH1 0x0 DUP3 PUSH1 0x1F DUP4 ADD SLT PUSH3 0x270 JUMPI PUSH3 0x26F PUSH3 0x10C JUMP JUMPDEST JUMPDEST DUP2 MLOAD PUSH3 0x282 DUP5 DUP3 PUSH1 0x20 DUP7 ADD PUSH3 0x20D JUMP JUMPDEST SWAP2 POP POP SWAP3 SWAP2 POP POP JUMP JUMPDEST PUSH1 0x0 DUP1 PUSH1 0x40 DUP4 DUP6 SUB SLT ISZERO PUSH3 0x2A5 JUMPI PUSH3 0x2A4 PUSH3 0x9D JUMP JUMPDEST JUMPDEST PUSH1 0x0 PUSH3 0x2B5 DUP6 DUP3 DUP7 ADD PUSH3 0xF5 JUMP JUMPDEST SWAP3 POP POP PUSH1 0x20 DUP4 ADD MLOAD PUSH8 0xFFFFFFFFFFFFFFFF DUP2 GT ISZERO PUSH3 0x2D9 JUMPI PUSH3 0x2D8 PUSH3 0xA2 JUMP JUMPDEST JUMPDEST PUSH3 0x2E7 DUP6 DUP3 DUP7 ADD PUSH3 0x258 JUMP JUMPDEST SWAP2 POP POP SWAP3 POP SWAP3 SWAP1 POP JUMP JUMPDEST PUSH1 0x0 DUP2 MLOAD SWAP1 POP SWAP2 SWAP1 POP JUMP JUMPDEST PUSH32 0x4E487B7100000000000000000000000000000000000000000000000000000000 PUSH1 0x0 MSTORE PUSH1 0x22 PUSH1 0x4 MSTORE PUSH1 0x24 PUSH1 0x0 REVERT JUMPDEST PUSH1 0x0 PUSH1 0x2 DUP3 DIV SWAP1 POP PUSH1 0x1 DUP3 AND DUP1 PUSH3 0x344 JUMPI PUSH1 0x7F DUP3 AND SWAP2 POP JUMPDEST PUSH1 0x20 DUP3 LT DUP2 SUB PUSH3 0x35A JUMPI PUSH3 0x359 PUSH3 0x2FC JUMP JUMPDEST JUMPDEST POP SWAP2 SWAP1 POP JUMP JUMPDEST PUSH1 0x0 DUP2 SWAP1 POP DUP2 PUSH1 0x0 MSTORE PUSH1 0x20 PUSH1 0x0 KECCAK256 SWAP1 POP SWAP2 SWAP1 POP JUMP JUMPDEST PUSH1 0x0 PUSH1 0x20 PUSH1 0x1F DUP4 ADD DIV SWAP1 POP SWAP2 SWAP1 POP JUMP JUMPDEST PUSH1 0x0 DUP3 DUP3 SHL SWAP1 POP SWAP3 SWAP2 POP POP JUMP JUMPDEST PUSH1 0x0 PUSH1 0x8 DUP4 MUL PUSH3 0x3C4 PUSH32 0xFFFFFFFFFFFFFFFFFFFFFFFFFFFFFFFFFFFFFFFFFFFFFFFFFFFFFFFFFFFFFFFF DUP3 PUSH3 0x385 JUMP JUMPDEST PUSH3 0x3D0 DUP7 DUP4 PUSH3 0x385 JUMP JUMPDEST SWAP6 POP DUP1 NOT DUP5 AND SWAP4 POP DUP1 DUP7 AND DUP5 OR SWAP3 POP POP POP SWAP4 SWAP3 POP POP POP JUMP JUMPDEST PUSH1 0x0 DUP2 SWAP1 POP SWAP2 SWAP1 POP JUMP JUMPDEST PUSH1 0x0 DUP2 SWAP1 POP SWAP2 SWAP1 POP JUMP JUMPDEST PUSH1 0x0 PUSH3 0x41D PUSH3 0x417 PUSH3 0x411 DUP5 PUSH3 0x3E8 JUMP JUMPDEST PUSH3 0x3F2 JUMP JUMPDEST PUSH3 0x3E8 JUMP JUMPDEST SWAP1 POP SWAP2 SWAP1 POP JUMP JUMPDEST PUSH1 0x0 DUP2 SWAP1 POP SWAP2 SWAP1 POP JUMP JUMPDEST PUSH3 0x439 DUP4 PUSH3 0x3FC JUMP JUMPDEST PUSH3 0x451 PUSH3 0x448 DUP3 PUSH3 0x424 JUMP JUMPDEST DUP5 DUP5 SLOAD PUSH3 0x392 JUMP JUMPDEST DUP3 SSTORE POP POP POP POP JUMP JUMPDEST PUSH1 0x0 SWAP1 JUMP JUMPDEST PUSH3 0x468 PUSH3 0x459 JUMP JUMPDEST PUSH3 0x475 DUP2 DUP5 DUP5 PUSH3 0x42E JUMP JUMPDEST POP POP POP JUMP JUMPDEST JUMPDEST DUP2 DUP2 LT ISZERO PUSH3 0x49D JUMPI PUSH3 0x491 PUSH1 0x0 DUP3 PUSH3 0x45E JUMP JUMPDEST PUSH1 0x1 DUP2 ADD SWAP1 POP PUSH3 0x47B JUMP JUMPDEST POP POP JUMP JUMPDEST PUSH1 0x1F DUP3 GT ISZERO PUSH3 0x4EC JUMPI PUSH3 0x4B6 DUP2 PUSH3 0x360 JUMP JUMPDEST PUSH3 0x4C1 DUP5 PUSH3 0x375 JUMP JUMPDEST DUP2 ADD PUSH1 0x20 DUP6 LT ISZERO PUSH3 0x4D1 JUMPI DUP2 SWAP1 POP JUMPDEST PUSH3 0x4E9 PUSH3 0x4E0 DUP6 PUSH3 0x375 JUMP JUMPDEST DUP4 ADD DUP3 PUSH3 0x47A JUMP JUMPDEST POP POP JUMPDEST POP POP POP JUMP JUMPDEST PUSH1 0x0 DUP3 DUP3 SHR SWAP1 POP SWAP3 SWAP2 POP POP JUMP JUMPDEST PUSH1 0x0 PUSH3 0x511 PUSH1 0x0 NOT DUP5 PUSH1 0x8 MUL PUSH3 0x4F1 JUMP JUMPDEST NOT DUP1 DUP4 AND SWAP2 POP POP SWAP3 SWAP2 POP POP JUMP JUMPDEST PUSH1 0x0 PUSH3 0x52C DUP4 DUP4 PUSH3 0x4FE JUMP JUMPDEST SWAP2 POP DUP3 PUSH1 0x2 MUL DUP3 OR SWAP1 POP SWAP3 SWAP2 POP POP JUMP JUMPDEST PUSH3 0x547 DUP3 PUSH3 0x2F1 JUMP JUMPDEST PUSH8 0xFFFFFFFFFFFFFFFF DUP2 GT ISZERO PUSH3 0x563 JUMPI PUSH3 0x562 PUSH3 0x127 JUMP JUMPDEST JUMPDEST PUSH3 0x56F DUP3 SLOAD PUSH3 0x32B JUMP JUMPDEST PUSH3 0x57C DUP3 DUP3 DUP6 PUSH3 0x4A1 JUMP JUMPDEST PUSH1 0x0 PUSH1 0x20 SWAP1 POP PUSH1 0x1F DUP4 GT PUSH1 0x1 DUP2 EQ PUSH3 0x5B4 JUMPI PUSH1 0x0 DUP5 ISZERO PUSH3 0x59F JUMPI DUP3 DUP8 ADD MLOAD SWAP1 POP JUMPDEST PUSH3 0x5AB DUP6 DUP3 PUSH3 0x51E JUMP JUMPDEST DUP7 SSTORE POP PUSH3 0x61B JUMP JUMPDEST PUSH1 0x1F NOT DUP5 AND PUSH3 0x5C4 DUP7 PUSH3 0x360 JUMP JUMPDEST PUSH1 0x0 JUMPDEST DUP3 DUP2 LT ISZERO PUSH3 0x5EE JUMPI DUP5 DUP10 ADD MLOAD DUP3 SSTORE PUSH1 0x1 DUP3 ADD SWAP2 POP PUSH1 0x20 DUP6 ADD SWAP5 POP PUSH1 0x20 DUP2 ADD SWAP1 POP PUSH3 0x5C7 JUMP JUMPDEST DUP7 DUP4 LT ISZERO PUSH3 0x60E JUMPI DUP5 DUP10 ADD MLOAD PUSH3 0x60A PUSH1 0x1F DUP10 AND DUP3 PUSH3 0x4FE JUMP JUMPDEST DUP4 SSTORE POP JUMPDEST PUSH1 0x1 PUSH1 0x2 DUP9 MUL ADD DUP9 SSTORE POP POP POP JUMPDEST POP POP POP POP POP POP JUMP JUMPDEST PUSH2 0x1668 DUP1 PUSH3 0x633 PUSH1 0x0 CODECOPY PUSH1 0x0 RETURN INVALID PUSH1 0x80 PUSH1 0x40 MSTORE CALLVALUE DUP1 ISZERO PUSH2 0x10 JUMPI PUSH1 0x0 DUP1 REVERT JUMPDEST POP PUSH1 0x4 CALLDATASIZE LT PUSH2 0xB4 JUMPI PUSH1 0x0 CALLDATALOAD PUSH1 0xE0 SHR DUP1 PUSH4 0x461A4478 GT PUSH2 0x71 JUMPI DUP1 PUSH4 0x461A4478 EQ PUSH2 0x165 JUMPI DUP1 PUSH4 0x4651D91E EQ PUSH2 0x195 JUMPI DUP1 PUSH4 0x8DA5CB5B EQ PUSH2 0x1B1 JUMPI DUP1 PUSH4 0x9507D39A EQ PUSH2 0x1CF JUMPI DUP1 PUSH4 0xB298E36B EQ PUSH2 0x1FF JUMPI DUP1 PUSH4 0xCCF8F969 EQ PUSH2 0x21B JUMPI PUSH2 0xB4 JUMP JUMPDEST DUP1 PUSH4 0x167FD681 EQ PUSH2 0xB9 JUMPI DUP1 PUSH4 0x1F7B6D32 EQ PUSH2 0xD5 JUMPI DUP1 PUSH4 0x2015276C EQ PUSH2 0xF3 JUMPI DUP1 PUSH4 0x29061DE2 EQ PUSH2 0x10F JUMPI DUP1 PUSH4 0x299CA478 EQ PUSH2 0x12B JUMPI DUP1 PUSH4 0x3D160572 EQ PUSH2 0x149 JUMPI JUMPDEST PUSH1 0x0 DUP1 REVERT JUMPDEST PUSH2 0xD3 PUSH1 0x4 DUP1 CALLDATASIZE SUB DUP2 ADD SWAP1 PUSH2 0xCE SWAP2 SWAP1 PUSH2 0xD10 JUMP JUMPDEST PUSH2 0x239 JUMP JUMPDEST STOP JUMPDEST PUSH2 0xDD PUSH2 0x353 JUMP JUMPDEST PUSH1 0x40 MLOAD PUSH2 0xEA SWAP2 SWAP1 PUSH2 0xD5F JUMP JUMPDEST PUSH1 0x40 MLOAD DUP1 SWAP2 SUB SWAP1 RETURN JUMPDEST PUSH2 0x10D PUSH1 0x4 DUP1 CALLDATASIZE SUB DUP2 ADD SWAP1 PUSH2 0x108 SWAP2 SWAP1 PUSH2 0xDB0 JUMP JUMPDEST PUSH2 0x36B JUMP JUMPDEST STOP JUMPDEST PUSH2 0x129 PUSH1 0x4 DUP1 CALLDATASIZE SUB DUP2 ADD SWAP1 PUSH2 0x124 SWAP2 SWAP1 PUSH2 0xDF0 JUMP JUMPDEST PUSH2 0x485 JUMP JUMPDEST STOP JUMPDEST PUSH2 0x133 PUSH2 0x59C JUMP JUMPDEST PUSH1 0x40 MLOAD PUSH2 0x140 SWAP2 SWAP1 PUSH2 0xE9C JUMP JUMPDEST PUSH1 0x40 MLOAD DUP1 SWAP2 SUB SWAP1 RETURN JUMPDEST PUSH2 0x163 PUSH1 0x4 DUP1 CALLDATASIZE SUB DUP2 ADD SWAP1 PUSH2 0x15E SWAP2 SWAP1 PUSH2 0x10AF JUMP JUMPDEST PUSH2 0x5C0 JUMP JUMPDEST STOP JUMPDEST PUSH2 0x17F PUSH1 0x4 DUP1 CALLDATASIZE SUB DUP2 ADD SWAP1 PUSH2 0x17A SWAP2 SWAP1 PUSH2 0x1199 JUMP JUMPDEST PUSH2 0x5D2 JUMP JUMPDEST PUSH1 0x40 MLOAD PUSH2 0x18C SWAP2 SWAP1 PUSH2 0x1203 JUMP JUMPDEST PUSH1 0x40 MLOAD DUP1 SWAP2 SUB SWAP1 RETURN JUMPDEST PUSH2 0x1AF PUSH1 0x4 DUP1 CALLDATASIZE SUB DUP2 ADD SWAP1 PUSH2 0x1AA SWAP2 SWAP1 PUSH2 0x121E JUMP JUMPDEST PUSH2 0x676 JUMP JUMPDEST STOP JUMPDEST PUSH2 0x1B9 PUSH2 0x78D JUMP JUMPDEST PUSH1 0x40 MLOAD PUSH2 0x1C6 SWAP2 SWAP1 PUSH2 0x12CA JUMP JUMPDEST PUSH1 0x40 MLOAD DUP1 SWAP2 SUB SWAP1 RETURN JUMPDEST PUSH2 0x1E9 PUSH1 0x4 DUP1 CALLDATASIZE SUB DUP2 ADD SWAP1 PUSH2 0x1E4 SWAP2 SWAP1 PUSH2 0x121E JUMP JUMPDEST PUSH2 0x81B JUMP JUMPDEST PUSH1 0x40 MLOAD PUSH2 0x1F6 SWAP2 SWAP1 PUSH2 0x12FB JUMP JUMPDEST PUSH1 0x40 MLOAD DUP1 SWAP2 SUB SWAP1 RETURN JUMPDEST PUSH2 0x219 PUSH1 0x4 DUP1 CALLDATASIZE SUB DUP2 ADD SWAP1 PUSH2 0x214 SWAP2 SWAP1 PUSH2 0x1316 JUMP JUMPDEST PUSH2 0x827 JUMP JUMPDEST STOP JUMPDEST PUSH2 0x223 PUSH2 0x93E JUMP JUMPDEST PUSH1 0x40 MLOAD PUSH2 0x230 SWAP2 SWAP1 PUSH2 0x1352 JUMP JUMPDEST PUSH1 0x40 MLOAD DUP1 SWAP2 SUB SWAP1 RETURN JUMPDEST PUSH2 0x2CC PUSH1 0x1 DUP1 SLOAD PUSH2 0x249 SWAP1 PUSH2 0x139C JUMP JUMPDEST DUP1 PUSH1 0x1F ADD PUSH1 0x20 DUP1 SWAP2 DIV MUL PUSH1 0x20 ADD PUSH1 0x40 MLOAD SWAP1 DUP2 ADD PUSH1 0x40 MSTORE DUP1 SWAP3 SWAP2 SWAP1 DUP2 DUP2 MSTORE PUSH1 0x20 ADD DUP3 DUP1 SLOAD PUSH2 0x275 SWAP1 PUSH2 0x139C JUMP JUMPDEST DUP1 ISZERO PUSH2 0x2C2 JUMPI DUP1 PUSH1 0x1F LT PUSH2 0x297 JUMPI PUSH2 0x100 DUP1 DUP4 SLOAD DIV MUL DUP4 MSTORE SWAP2 PUSH1 0x20 ADD SWAP2 PUSH2 0x2C2 JUMP JUMPDEST DUP3 ADD SWAP2 SWAP1 PUSH1 0x0 MSTORE PUSH1 0x20 PUSH1 0x0 KECCAK256 SWAP1 JUMPDEST DUP2 SLOAD DUP2 MSTORE SWAP1 PUSH1 0x1 ADD SWAP1 PUSH1 0x20 ADD DUP1 DUP4 GT PUSH2 0x2A5 JUMPI DUP3 SWAP1 SUB PUSH1 0x1F AND DUP3 ADD SWAP2 JUMPDEST POP POP POP POP POP PUSH2 0x5D2 JUMP JUMPDEST PUSH20 0xFFFFFFFFFFFFFFFFFFFFFFFFFFFFFFFFFFFFFFFF AND CALLER PUSH20 0xFFFFFFFFFFFFFFFFFFFFFFFFFFFFFFFFFFFFFFFF AND EQ PUSH2 0x339 JUMPI PUSH1 0x40 MLOAD PUSH32 0x8C379A000000000000000000000000000000000000000000000000000000000 DUP2 MSTORE PUSH1 0x4 ADD PUSH2 0x330 SWAP1 PUSH2 0x143F JUMP JUMPDEST PUSH1 0x40 MLOAD DUP1 SWAP2 SUB SWAP1 REVERT JUMPDEST PUSH2 0x34F DUP3 DUP3 PUSH1 0x2 PUSH2 0x94F SWAP1 SWAP3 SWAP2 SWAP1 PUSH4 0xFFFFFFFF AND JUMP JUMPDEST POP POP JUMP JUMPDEST PUSH1 0x0 PUSH2 0x35F PUSH1 0x2 PUSH2 0x9FF JUMP JUMPDEST PUSH5 0xFFFFFFFFFF AND SWAP1 POP SWAP1 JUMP JUMPDEST PUSH2 0x3FE PUSH1 0x1 DUP1 SLOAD PUSH2 0x37B SWAP1 PUSH2 0x139C JUMP JUMPDEST DUP1 PUSH1 0x1F ADD PUSH1 0x20 DUP1 SWAP2 DIV MUL PUSH1 0x20 ADD PUSH1 0x40 MLOAD SWAP1 DUP2 ADD PUSH1 0x40 MSTORE DUP1 SWAP3 SWAP2 SWAP1 DUP2 DUP2 MSTORE PUSH1 0x20 ADD DUP3 DUP1 SLOAD PUSH2 0x3A7 SWAP1 PUSH2 0x139C JUMP JUMPDEST DUP1 ISZERO PUSH2 0x3F4 JUMPI DUP1 PUSH1 0x1F LT PUSH2 0x3C9 JUMPI PUSH2 0x100 DUP1 DUP4 SLOAD DIV MUL DUP4 MSTORE SWAP2 PUSH1 0x20 ADD SWAP2 PUSH2 0x3F4 JUMP JUMPDEST DUP3 ADD SWAP2 SWAP1 PUSH1 0x0 MSTORE PUSH1 0x20 PUSH1 0x0 KECCAK256 SWAP1 JUMPDEST DUP2 SLOAD DUP2 MSTORE SWAP1 PUSH1 0x1 ADD SWAP1 PUSH1 0x20 ADD DUP1 DUP4 GT PUSH2 0x3D7 JUMPI DUP3 SWAP1 SUB PUSH1 0x1F AND DUP3 ADD SWAP2 JUMPDEST POP POP POP POP POP PUSH2 0x5D2 JUMP JUMPDEST PUSH20 0xFFFFFFFFFFFFFFFFFFFFFFFFFFFFFFFFFFFFFFFF AND CALLER PUSH20 0xFFFFFFFFFFFFFFFFFFFFFFFFFFFFFFFFFFFFFFFF AND EQ PUSH2 0x46B JUMPI PUSH1 0x40 MLOAD PUSH32 0x8C379A000000000000000000000000000000000000000000000000000000000 DUP2 MSTORE PUSH1 0x4 ADD PUSH2 0x462 SWAP1 PUSH2 0x143F JUMP JUMPDEST PUSH1 0x40 MLOAD DUP1 SWAP2 SUB SWAP1 REVERT JUMPDEST PUSH2 0x481 DUP3 DUP3 PUSH1 0x2 PUSH2 0xA1A SWAP1 SWAP3 SWAP2 SWAP1 PUSH4 0xFFFFFFFF AND JUMP JUMPDEST POP POP JUMP JUMPDEST PUSH2 0x518 PUSH1 0x1 DUP1 SLOAD PUSH2 0x495 SWAP1 PUSH2 0x139C JUMP JUMPDEST DUP1 PUSH1 0x1F ADD PUSH1 0x20 DUP1 SWAP2 DIV MUL PUSH1 0x20 ADD PUSH1 0x40 MLOAD SWAP1 DUP2 ADD PUSH1 0x40 MSTORE DUP1 SWAP3 SWAP2 SWAP1 DUP2 DUP2 MSTORE PUSH1 0x20 ADD DUP3 DUP1 SLOAD PUSH2 0x4C1 SWAP1 PUSH2 0x139C JUMP JUMPDEST DUP1 ISZERO PUSH2 0x50E JUMPI DUP1 PUSH1 0x1F LT PUSH2 0x4E3 JUMPI PUSH2 0x100 DUP1 DUP4 SLOAD DIV MUL DUP4 MSTORE SWAP2 PUSH1 0x20 ADD SWAP2 PUSH2 0x50E JUMP JUMPDEST DUP3 ADD SWAP2 SWAP1 PUSH1 0x0 MSTORE PUSH1 0x20 PUSH1 0x0 KECCAK256 SWAP1 JUMPDEST DUP2 SLOAD DUP2 MSTORE SWAP1 PUSH1 0x1 ADD SWAP1 PUSH1 0x20 ADD DUP1 DUP4 GT PUSH2 0x4F1 JUMPI DUP3 SWAP1 SUB PUSH1 0x1F AND DUP3 ADD SWAP2 JUMPDEST POP POP POP POP POP PUSH2 0x5D2 JUMP JUMPDEST PUSH20 0xFFFFFFFFFFFFFFFFFFFFFFFFFFFFFFFFFFFFFFFF AND CALLER PUSH20 0xFFFFFFFFFFFFFFFFFFFFFFFFFFFFFFFFFFFFFFFF AND EQ PUSH2 0x585 JUMPI PUSH1 0x40 MLOAD PUSH32 0x8C379A000000000000000000000000000000000000000000000000000000000 DUP2 MSTORE PUSH1 0x4 ADD PUSH2 0x57C SWAP1 PUSH2 0x143F JUMP JUMPDEST PUSH1 0x40 MLOAD DUP1 SWAP2 SUB SWAP1 REVERT JUMPDEST PUSH2 0x599 DUP2 PUSH1 0x2 PUSH2 0xAA5 SWAP1 SWAP2 SWAP1 PUSH4 0xFFFFFFFF AND JUMP JUMPDEST POP JUMP JUMPDEST PUSH1 0x0 DUP1 SLOAD SWAP1 PUSH2 0x100 EXP SWAP1 DIV PUSH20 0xFFFFFFFFFFFFFFFFFFFFFFFFFFFFFFFFFFFFFFFF AND DUP2 JUMP JUMPDEST PUSH2 0x5C9 DUP2 PUSH2 0xAE6 JUMP JUMPDEST PUSH1 0x4 DUP2 SWAP1 SSTORE POP POP JUMP JUMPDEST PUSH1 0x0 DUP1 PUSH1 0x0 SWAP1 SLOAD SWAP1 PUSH2 0x100 EXP SWAP1 DIV PUSH20 0xFFFFFFFFFFFFFFFFFFFFFFFFFFFFFFFFFFFFFFFF AND PUSH20 0xFFFFFFFFFFFFFFFFFFFFFFFFFFFFFFFFFFFFFFFF AND PUSH4 0xBF40FAC1 DUP4 PUSH1 0x40 MLOAD DUP3 PUSH4 0xFFFFFFFF AND PUSH1 0xE0 SHL DUP2 MSTORE PUSH1 0x4 ADD PUSH2 0x62E SWAP2 SWAP1 PUSH2 0x12CA JUMP JUMPDEST PUSH1 0x20 PUSH1 0x40 MLOAD DUP1 DUP4 SUB DUP2 DUP7 GAS STATICCALL ISZERO DUP1 ISZERO PUSH2 0x64B JUMPI RETURNDATASIZE PUSH1 0x0 DUP1 RETURNDATACOPY RETURNDATASIZE PUSH1 0x0 REVERT JUMPDEST POP POP POP POP PUSH1 0x40 MLOAD RETURNDATASIZE PUSH1 0x1F NOT PUSH1 0x1F DUP3 ADD AND DUP3 ADD DUP1 PUSH1 0x40 MSTORE POP DUP2 ADD SWAP1 PUSH2 0x66F SWAP2 SWAP1 PUSH2 0x148B JUMP JUMPDEST SWAP1 POP SWAP2 SWAP1 POP JUMP JUMPDEST PUSH2 0x709 PUSH1 0x1 DUP1 SLOAD PUSH2 0x686 SWAP1 PUSH2 0x139C JUMP JUMPDEST DUP1 PUSH1 0x1F ADD PUSH1 0x20 DUP1 SWAP2 DIV MUL PUSH1 0x20 ADD PUSH1 0x40 MLOAD SWAP1 DUP2 ADD PUSH1 0x40 MSTORE DUP1 SWAP3 SWAP2 SWAP1 DUP2 DUP2 MSTORE PUSH1 0x20 ADD DUP3 DUP1 SLOAD PUSH2 0x6B2 SWAP1 PUSH2 0x139C JUMP JUMPDEST DUP1 ISZERO PUSH2 0x6FF JUMPI DUP1 PUSH1 0x1F LT PUSH2 0x6D4 JUMPI PUSH2 0x100 DUP1 DUP4 SLOAD DIV MUL DUP4 MSTORE SWAP2 PUSH1 0x20 ADD SWAP2 PUSH2 0x6FF JUMP JUMPDEST DUP3 ADD SWAP2 SWAP1 PUSH1 0x0 MSTORE PUSH1 0x20 PUSH1 0x0 KECCAK256 SWAP1 JUMPDEST DUP2 SLOAD DUP2 MSTORE SWAP1 PUSH1 0x1 ADD SWAP1 PUSH1 0x20 ADD DUP1 DUP4 GT PUSH2 0x6E2 JUMPI DUP3 SWAP1 SUB PUSH1 0x1F AND DUP3 ADD SWAP2 JUMPDEST POP POP POP POP POP PUSH2 0x5D2 JUMP JUMPDEST PUSH20 0xFFFFFFFFFFFFFFFFFFFFFFFFFFFFFFFFFFFFFFFF AND CALLER PUSH20 0xFFFFFFFFFFFFFFFFFFFFFFFFFFFFFFFFFFFFFFFF AND EQ PUSH2 0x776 JUMPI PUSH1 0x40 MLOAD PUSH32 0x8C379A000000000000000000000000000000000000000000000000000000000 DUP2 MSTORE PUSH1 0x4 ADD PUSH2 0x76D SWAP1 PUSH2 0x143F JUMP JUMPDEST PUSH1 0x40 MLOAD DUP1 SWAP2 SUB SWAP1 REVERT JUMPDEST PUSH2 0x78A DUP2 PUSH1 0x2 PUSH2 0xB2C SWAP1 SWAP2 SWAP1 PUSH4 0xFFFFFFFF AND JUMP JUMPDEST POP JUMP JUMPDEST PUSH1 0x1 DUP1 SLOAD PUSH2 0x79A SWAP1 PUSH2 0x139C JUMP JUMPDEST DUP1 PUSH1 0x1F ADD PUSH1 0x20 DUP1 SWAP2 DIV MUL PUSH1 0x20 ADD PUSH1 0x40 MLOAD SWAP1 DUP2 ADD PUSH1 0x40 MSTORE DUP1 SWAP3 SWAP2 SWAP1 DUP2 DUP2 MSTORE PUSH1 0x20 ADD DUP3 DUP1 SLOAD PUSH2 0x7C6 SWAP1 PUSH2 0x139C JUMP JUMPDEST DUP1 ISZERO PUSH2 0x813 JUMPI DUP1 PUSH1 0x1F LT PUSH2 0x7E8 JUMPI PUSH2 0x100 DUP1 DUP4 SLOAD DIV MUL DUP4 MSTORE SWAP2 PUSH1 0x20 ADD SWAP2 PUSH2 0x813 JUMP JUMPDEST DUP3 ADD SWAP2 SWAP1 PUSH1 0x0 MSTORE PUSH1 0x20 PUSH1 0x0 KECCAK256 SWAP1 JUMPDEST DUP2 SLOAD DUP2 MSTORE SWAP1 PUSH1 0x1 ADD SWAP1 PUSH1 0x20 ADD DUP1 DUP4 GT PUSH2 0x7F6 JUMPI DUP3 SWAP1 SUB PUSH1 0x1F AND DUP3 ADD SWAP2 JUMPDEST POP POP POP POP POP DUP2 JUMP JUMPDEST PUSH1 0x0 PUSH1 0x4 SLOAD SWAP1 POP SWAP2 SWAP1 POP JUMP JUMPDEST PUSH2 0x8BA PUSH1 0x1 DUP1 SLOAD PUSH2 0x837 SWAP1 PUSH2 0x139C JUMP JUMPDEST DUP1 PUSH1 0x1F ADD PUSH1 0x20 DUP1 SWAP2 DIV MUL PUSH1 0x20 ADD PUSH1 0x40 MLOAD SWAP1 DUP2 ADD PUSH1 0x40 MSTORE DUP1 SWAP3 SWAP2 SWAP1 DUP2 DUP2 MSTORE PUSH1 0x20 ADD DUP3 DUP1 SLOAD PUSH2 0x863 SWAP1 PUSH2 0x139C JUMP JUMPDEST DUP1 ISZERO PUSH2 0x8B0 JUMPI DUP1 PUSH1 0x1F LT PUSH2 0x885 JUMPI PUSH2 0x100 DUP1 DUP4 SLOAD DIV MUL DUP4 MSTORE SWAP2 PUSH1 0x20 ADD SWAP2 PUSH2 0x8B0 JUMP JUMPDEST DUP3 ADD SWAP2 SWAP1 PUSH1 0x0 MSTORE PUSH1 0x20 PUSH1 0x0 KECCAK256 SWAP1 JUMPDEST DUP2 SLOAD DUP2 MSTORE SWAP1 PUSH1 0x1 ADD SWAP1 PUSH1 0x20 ADD DUP1 DUP4 GT PUSH2 0x893 JUMPI DUP3 SWAP1 SUB PUSH1 0x1F AND DUP3 ADD SWAP2 JUMPDEST POP POP POP POP POP PUSH2 0x5D2 JUMP JUMPDEST PUSH20 0xFFFFFFFFFFFFFFFFFFFFFFFFFFFFFFFFFFFFFFFF AND CALLER PUSH20 0xFFFFFFFFFFFFFFFFFFFFFFFFFFFFFFFFFFFFFFFF AND EQ PUSH2 0x927 JUMPI PUSH1 0x40 MLOAD PUSH32 0x8C379A000000000000000000000000000000000000000000000000000000000 DUP2 MSTORE PUSH1 0x4 ADD PUSH2 0x91E SWAP1 PUSH2 0x143F JUMP JUMPDEST PUSH1 0x40 MLOAD DUP1 SWAP2 SUB SWAP1 REVERT JUMPDEST PUSH2 0x93B DUP2 PUSH1 0x2 PUSH2 0xB57 SWAP1 SWAP2 SWAP1 PUSH4 0xFFFFFFFF AND JUMP JUMPDEST POP JUMP JUMPDEST PUSH1 0x0 PUSH2 0x94A PUSH1 0x2 PUSH2 0xB82 JUMP JUMPDEST SWAP1 POP SWAP1 JUMP JUMPDEST PUSH1 0x0 PUSH2 0x95A DUP5 PUSH2 0xB9D JUMP JUMPDEST SWAP1 POP DUP1 PUSH1 0x0 ADD MLOAD PUSH5 0xFFFFFFFFFF AND DUP4 PUSH5 0xFFFFFFFFFF AND LT PUSH2 0x9B0 JUMPI PUSH1 0x40 MLOAD PUSH32 0x8C379A000000000000000000000000000000000000000000000000000000000 DUP2 MSTORE PUSH1 0x4 ADD PUSH2 0x9A7 SWAP1 PUSH2 0x1504 JUMP JUMPDEST PUSH1 0x40 MLOAD DUP1 SWAP2 SUB SWAP1 REVERT JUMPDEST DUP3 DUP2 PUSH1 0x0 ADD SWAP1 PUSH5 0xFFFFFFFFFF AND SWAP1 DUP2 PUSH5 0xFFFFFFFFFF AND DUP2 MSTORE POP POP DUP2 DUP2 PUSH1 0x20 ADD SWAP1 PUSH5 0xFFFFFFFFFF NOT AND SWAP1 DUP2 PUSH5 0xFFFFFFFFFF NOT AND DUP2 MSTORE POP POP PUSH2 0x9F9 DUP2 DUP6 PUSH2 0xC0E SWAP1 SWAP2 SWAP1 PUSH4 0xFFFFFFFF AND JUMP JUMPDEST POP POP POP POP JUMP JUMPDEST PUSH1 0x0 DUP1 PUSH2 0xA0B DUP4 PUSH2 0xB9D JUMP JUMPDEST SWAP1 POP DUP1 PUSH1 0x0 ADD MLOAD SWAP2 POP POP SWAP2 SWAP1 POP JUMP JUMPDEST PUSH1 0x0 PUSH2 0xA25 DUP5 PUSH2 0xB9D JUMP JUMPDEST SWAP1 POP DUP3 DUP5 PUSH1 0x1 ADD PUSH1 0x0 DUP4 PUSH1 0x0 ADD MLOAD PUSH5 0xFFFFFFFFFF AND DUP2 MSTORE PUSH1 0x20 ADD SWAP1 DUP2 MSTORE PUSH1 0x20 ADD PUSH1 0x0 KECCAK256 DUP2 SWAP1 SSTORE POP DUP1 PUSH1 0x0 ADD DUP1 MLOAD DUP1 SWAP2 SWAP1 PUSH2 0xA5E SWAP1 PUSH2 0x1564 JUMP JUMPDEST PUSH5 0xFFFFFFFFFF AND PUSH5 0xFFFFFFFFFF AND DUP2 MSTORE POP POP DUP2 DUP2 PUSH1 0x20 ADD SWAP1 PUSH5 0xFFFFFFFFFF NOT AND SWAP1 DUP2 PUSH5 0xFFFFFFFFFF NOT AND DUP2 MSTORE POP POP PUSH2 0xA9F DUP2 DUP6 PUSH2 0xC0E SWAP1 SWAP2 SWAP1 PUSH4 0xFFFFFFFF AND JUMP JUMPDEST POP POP POP POP JUMP JUMPDEST PUSH1 0x0 PUSH2 0xAB0 DUP4 PUSH2 0xB9D JUMP JUMPDEST SWAP1 POP DUP2 DUP2 PUSH1 0x20 ADD SWAP1 PUSH5 0xFFFFFFFFFF NOT AND SWAP1 DUP2 PUSH5 0xFFFFFFFFFF NOT AND DUP2 MSTORE POP POP PUSH2 0xAE1 DUP2 DUP5 PUSH2 0xC0E SWAP1 SWAP2 SWAP1 PUSH4 0xFFFFFFFF AND JUMP JUMPDEST POP POP POP JUMP JUMPDEST PUSH1 0x0 DUP2 PUSH1 0x20 ADD MLOAD DUP3 PUSH1 0x40 ADD MLOAD DUP4 PUSH1 0x60 ADD MLOAD DUP5 PUSH1 0x80 ADD MLOAD PUSH1 0x40 MLOAD PUSH1 0x20 ADD PUSH2 0xB0F SWAP5 SWAP4 SWAP3 SWAP2 SWAP1 PUSH2 0x15E6 JUMP JUMPDEST PUSH1 0x40 MLOAD PUSH1 0x20 DUP2 DUP4 SUB SUB DUP2 MSTORE SWAP1 PUSH1 0x40 MSTORE DUP1 MLOAD SWAP1 PUSH1 0x20 ADD KECCAK256 SWAP1 POP SWAP2 SWAP1 POP JUMP JUMPDEST PUSH1 0x0 PUSH2 0xB37 DUP4 PUSH2 0xB9D JUMP JUMPDEST SWAP1 POP PUSH2 0xB52 DUP3 DUP3 PUSH1 0x20 ADD MLOAD DUP6 PUSH2 0x94F SWAP1 SWAP3 SWAP2 SWAP1 PUSH4 0xFFFFFFFF AND JUMP JUMPDEST POP POP POP JUMP JUMPDEST PUSH1 0x0 PUSH2 0xB62 DUP4 PUSH2 0xB9D JUMP JUMPDEST SWAP1 POP PUSH2 0xB7D DUP3 DUP3 PUSH1 0x20 ADD MLOAD DUP6 PUSH2 0xA1A SWAP1 SWAP3 SWAP2 SWAP1 PUSH4 0xFFFFFFFF AND JUMP JUMPDEST POP POP POP JUMP JUMPDEST PUSH1 0x0 DUP1 PUSH2 0xB8E DUP4 PUSH2 0xB9D JUMP JUMPDEST SWAP1 POP DUP1 PUSH1 0x20 ADD MLOAD SWAP2 POP POP SWAP2 SWAP1 POP JUMP JUMPDEST PUSH2 0xBA5 PUSH2 0xC45 JUMP JUMPDEST PUSH1 0x0 DUP3 PUSH1 0x0 ADD SLOAD SWAP1 POP PUSH1 0x0 DUP1 PUSH5 0xFFFFFFFFFF DUP4 AND SWAP2 POP PUSH32 0xFFFFFFFFFFFFFFFFFFFFFFFFFFFFFFFFFFFFFFFFFFFFFFFFFFFFFF0000000000 DUP4 AND SWAP1 POP PUSH1 0x40 MLOAD DUP1 PUSH1 0x40 ADD PUSH1 0x40 MSTORE DUP1 DUP4 PUSH5 0xFFFFFFFFFF AND DUP2 MSTORE PUSH1 0x20 ADD DUP3 PUSH5 0xFFFFFFFFFF NOT AND DUP2 MSTORE POP SWAP4 POP POP POP POP SWAP2 SWAP1 POP JUMP JUMPDEST PUSH1 0x0 DUP1 DUP3 PUSH1 0x0 ADD MLOAD SWAP1 POP PUSH1 0x0 DUP4 PUSH1 0x20 ADD MLOAD SWAP1 POP DUP2 SWAP3 POP DUP1 DUP4 OR SWAP3 POP DUP3 DUP6 PUSH1 0x0 ADD SLOAD EQ PUSH2 0xC3E JUMPI DUP3 DUP6 PUSH1 0x0 ADD DUP2 SWAP1 SSTORE POP JUMPDEST POP POP POP POP POP JUMP JUMPDEST PUSH1 0x40 MLOAD DUP1 PUSH1 0x40 ADD PUSH1 0x40 MSTORE DUP1 PUSH1 0x0 PUSH5 0xFFFFFFFFFF AND DUP2 MSTORE PUSH1 0x20 ADD PUSH1 0x0 PUSH5 0xFFFFFFFFFF NOT AND DUP2 MSTORE POP SWAP1 JUMP JUMPDEST PUSH1 0x0 PUSH1 0x40 MLOAD SWAP1 POP SWAP1 JUMP JUMPDEST PUSH1 0x0 DUP1 REVERT JUMPDEST PUSH1 0x0 DUP1 REVERT JUMPDEST PUSH1 0x0 DUP2 SWAP1 POP SWAP2 SWAP1 POP JUMP JUMPDEST PUSH2 0xC95 DUP2 PUSH2 0xC82 JUMP JUMPDEST DUP2 EQ PUSH2 0xCA0 JUMPI PUSH1 0x0 DUP1 REVERT JUMPDEST POP JUMP JUMPDEST PUSH1 0x0 DUP2 CALLDATALOAD SWAP1 POP PUSH2 0xCB2 DUP2 PUSH2 0xC8C JUMP JUMPDEST SWAP3 SWAP2 POP POP JUMP JUMPDEST PUSH1 0x0 PUSH32 0xFFFFFFFFFFFFFFFFFFFFFFFFFFFFFFFFFFFFFFFFFFFFFFFFFFFFFF0000000000 DUP3 AND SWAP1 POP SWAP2 SWAP1 POP JUMP JUMPDEST PUSH2 0xCED DUP2 PUSH2 0xCB8 JUMP JUMPDEST DUP2 EQ PUSH2 0xCF8 JUMPI PUSH1 0x0 DUP1 REVERT JUMPDEST POP JUMP JUMPDEST PUSH1 0x0 DUP2 CALLDATALOAD SWAP1 POP PUSH2 0xD0A DUP2 PUSH2 0xCE4 JUMP JUMPDEST SWAP3 SWAP2 POP POP JUMP JUMPDEST PUSH1 0x0 DUP1 PUSH1 0x40 DUP4 DUP6 SUB SLT ISZERO PUSH2 0xD27 JUMPI PUSH2 0xD26 PUSH2 0xC78 JUMP JUMPDEST JUMPDEST PUSH1 0x0 PUSH2 0xD35 DUP6 DUP3 DUP7 ADD PUSH2 0xCA3 JUMP JUMPDEST SWAP3 POP POP PUSH1 0x20 PUSH2 0xD46 DUP6 DUP3 DUP7 ADD PUSH2 0xCFB JUMP JUMPDEST SWAP2 POP POP SWAP3 POP SWAP3 SWAP1 POP JUMP JUMPDEST PUSH2 0xD59 DUP2 PUSH2 0xC82 JUMP JUMPDEST DUP3 MSTORE POP POP JUMP JUMPDEST PUSH1 0x0 PUSH1 0x20 DUP3 ADD SWAP1 POP PUSH2 0xD74 PUSH1 0x0 DUP4 ADD DUP5 PUSH2 0xD50 JUMP JUMPDEST SWAP3 SWAP2 POP POP JUMP JUMPDEST PUSH1 0x0 DUP2 SWAP1 POP SWAP2 SWAP1 POP JUMP JUMPDEST PUSH2 0xD8D DUP2 PUSH2 0xD7A JUMP JUMPDEST DUP2 EQ PUSH2 0xD98 JUMPI PUSH1 0x0 DUP1 REVERT JUMPDEST POP JUMP JUMPDEST PUSH1 0x0 DUP2 CALLDATALOAD SWAP1 POP PUSH2 0xDAA DUP2 PUSH2 0xD84 JUMP JUMPDEST SWAP3 SWAP2 POP POP JUMP JUMPDEST PUSH1 0x0 DUP1 PUSH1 0x40 DUP4 DUP6 SUB SLT ISZERO PUSH2 0xDC7 JUMPI PUSH2 0xDC6 PUSH2 0xC78 JUMP JUMPDEST JUMPDEST PUSH1 0x0 PUSH2 0xDD5 DUP6 DUP3 DUP7 ADD PUSH2 0xD9B JUMP JUMPDEST SWAP3 POP POP PUSH1 0x20 PUSH2 0xDE6 DUP6 DUP3 DUP7 ADD PUSH2 0xCFB JUMP JUMPDEST SWAP2 POP POP SWAP3 POP SWAP3 SWAP1 POP JUMP JUMPDEST PUSH1 0x0 PUSH1 0x20 DUP3 DUP5 SUB SLT ISZERO PUSH2 0xE06 JUMPI PUSH2 0xE05 PUSH2 0xC78 JUMP JUMPDEST JUMPDEST PUSH1 0x0 PUSH2 0xE14 DUP5 DUP3 DUP6 ADD PUSH2 0xCFB JUMP JUMPDEST SWAP2 POP POP SWAP3 SWAP2 POP POP JUMP JUMPDEST PUSH1 0x0 PUSH20 0xFFFFFFFFFFFFFFFFFFFFFFFFFFFFFFFFFFFFFFFF DUP3 AND SWAP1 POP SWAP2 SWAP1 POP JUMP JUMPDEST PUSH1 0x0 DUP2 SWAP1 POP SWAP2 SWAP1 POP JUMP JUMPDEST PUSH1 0x0 PUSH2 0xE62 PUSH2 0xE5D PUSH2 0xE58 DUP5 PUSH2 0xE1D JUMP JUMPDEST PUSH2 0xE3D JUMP JUMPDEST PUSH2 0xE1D JUMP JUMPDEST SWAP1 POP SWAP2 SWAP1 POP JUMP JUMPDEST PUSH1 0x0 PUSH2 0xE74 DUP3 PUSH2 0xE47 JUMP JUMPDEST SWAP1 POP SWAP2 SWAP1 POP JUMP JUMPDEST PUSH1 0x0 PUSH2 0xE86 DUP3 PUSH2 0xE69 JUMP JUMPDEST SWAP1 POP SWAP2 SWAP1 POP JUMP JUMPDEST PUSH2 0xE96 DUP2 PUSH2 0xE7B JUMP JUMPDEST DUP3 MSTORE POP POP JUMP JUMPDEST PUSH1 0x0 PUSH1 0x20 DUP3 ADD SWAP1 POP PUSH2 0xEB1 PUSH1 0x0 DUP4 ADD DUP5 PUSH2 0xE8D JUMP JUMPDEST SWAP3 SWAP2 POP POP JUMP JUMPDEST PUSH1 0x0 DUP1 REVERT JUMPDEST PUSH1 0x0 PUSH1 0x1F NOT PUSH1 0x1F DUP4 ADD AND SWAP1 POP SWAP2 SWAP1 POP JUMP JUMPDEST PUSH32 0x4E487B7100000000000000000000000000000000000000000000000000000000 PUSH1 0x0 MSTORE PUSH1 0x41 PUSH1 0x4 MSTORE PUSH1 0x24 PUSH1 0x0 REVERT JUMPDEST PUSH2 0xF05 DUP3 PUSH2 0xEBC JUMP JUMPDEST DUP2 ADD DUP2 DUP2 LT PUSH8 0xFFFFFFFFFFFFFFFF DUP3 GT OR ISZERO PUSH2 0xF24 JUMPI PUSH2 0xF23 PUSH2 0xECD JUMP JUMPDEST JUMPDEST DUP1 PUSH1 0x40 MSTORE POP POP POP JUMP JUMPDEST PUSH1 0x0 PUSH2 0xF37 PUSH2 0xC6E JUMP JUMPDEST SWAP1 POP PUSH2 0xF43 DUP3 DUP3 PUSH2 0xEFC JUMP JUMPDEST SWAP2 SWAP1 POP JUMP JUMPDEST PUSH1 0x0 DUP1 REVERT JUMPDEST PUSH1 0x0 DUP1 REVERT JUMPDEST PUSH1 0x0 DUP1 REVERT JUMPDEST PUSH1 0x0 PUSH8 0xFFFFFFFFFFFFFFFF DUP3 GT ISZERO PUSH2 0xF72 JUMPI PUSH2 0xF71 PUSH2 0xECD JUMP JUMPDEST JUMPDEST PUSH2 0xF7B DUP3 PUSH2 0xEBC JUMP JUMPDEST SWAP1 POP PUSH1 0x20 DUP2 ADD SWAP1 POP SWAP2 SWAP1 POP JUMP JUMPDEST DUP3 DUP2 DUP4 CALLDATACOPY PUSH1 0x0 DUP4 DUP4 ADD MSTORE POP POP POP JUMP JUMPDEST PUSH1 0x0 PUSH2 0xFAA PUSH2 0xFA5 DUP5 PUSH2 0xF57 JUMP JUMPDEST PUSH2 0xF2D JUMP JUMPDEST SWAP1 POP DUP3 DUP2 MSTORE PUSH1 0x20 DUP2 ADD DUP5 DUP5 DUP5 ADD GT ISZERO PUSH2 0xFC6 JUMPI PUSH2 0xFC5 PUSH2 0xF52 JUMP JUMPDEST JUMPDEST PUSH2 0xFD1 DUP5 DUP3 DUP6 PUSH2 0xF88 JUMP JUMPDEST POP SWAP4 SWAP3 POP POP POP JUMP JUMPDEST PUSH1 0x0 DUP3 PUSH1 0x1F DUP4 ADD SLT PUSH2 0xFEE JUMPI PUSH2 0xFED PUSH2 0xF4D JUMP JUMPDEST JUMPDEST DUP2 CALLDATALOAD PUSH2 0xFFE DUP5 DUP3 PUSH1 0x20 DUP7 ADD PUSH2 0xF97 JUMP JUMPDEST SWAP2 POP POP SWAP3 SWAP2 POP POP JUMP JUMPDEST PUSH1 0x0 PUSH1 0xA0 DUP3 DUP5 SUB SLT ISZERO PUSH2 0x101D JUMPI PUSH2 0x101C PUSH2 0xEB7 JUMP JUMPDEST JUMPDEST PUSH2 0x1027 PUSH1 0xA0 PUSH2 0xF2D JUMP JUMPDEST SWAP1 POP PUSH1 0x0 PUSH2 0x1037 DUP5 DUP3 DUP6 ADD PUSH2 0xCA3 JUMP JUMPDEST PUSH1 0x0 DUP4 ADD MSTORE POP PUSH1 0x20 PUSH2 0x104B DUP5 DUP3 DUP6 ADD PUSH2 0xD9B JUMP JUMPDEST PUSH1 0x20 DUP4 ADD MSTORE POP PUSH1 0x40 PUSH2 0x105F DUP5 DUP3 DUP6 ADD PUSH2 0xCA3 JUMP JUMPDEST PUSH1 0x40 DUP4 ADD MSTORE POP PUSH1 0x60 PUSH2 0x1073 DUP5 DUP3 DUP6 ADD PUSH2 0xCA3 JUMP JUMPDEST PUSH1 0x60 DUP4 ADD MSTORE POP PUSH1 0x80 DUP3 ADD CALLDATALOAD PUSH8 0xFFFFFFFFFFFFFFFF DUP2 GT ISZERO PUSH2 0x1097 JUMPI PUSH2 0x1096 PUSH2 0xF48 JUMP JUMPDEST JUMPDEST PUSH2 0x10A3 DUP5 DUP3 DUP6 ADD PUSH2 0xFD9 JUMP JUMPDEST PUSH1 0x80 DUP4 ADD MSTORE POP SWAP3 SWAP2 POP POP JUMP JUMPDEST PUSH1 0x0 PUSH1 0x20 DUP3 DUP5 SUB SLT ISZERO PUSH2 0x10C5 JUMPI PUSH2 0x10C4 PUSH2 0xC78 JUMP JUMPDEST JUMPDEST PUSH1 0x0 DUP3 ADD CALLDATALOAD PUSH8 0xFFFFFFFFFFFFFFFF DUP2 GT ISZERO PUSH2 0x10E3 JUMPI PUSH2 0x10E2 PUSH2 0xC7D JUMP JUMPDEST JUMPDEST PUSH2 0x10EF DUP5 DUP3 DUP6 ADD PUSH2 0x1007 JUMP JUMPDEST SWAP2 POP POP SWAP3 SWAP2 POP POP JUMP JUMPDEST PUSH1 0x0 PUSH8 0xFFFFFFFFFFFFFFFF DUP3 GT ISZERO PUSH2 0x1113 JUMPI PUSH2 0x1112 PUSH2 0xECD JUMP JUMPDEST JUMPDEST PUSH2 0x111C DUP3 PUSH2 0xEBC JUMP JUMPDEST SWAP1 POP PUSH1 0x20 DUP2 ADD SWAP1 POP SWAP2 SWAP1 POP JUMP JUMPDEST PUSH1 0x0 PUSH2 0x113C PUSH2 0x1137 DUP5 PUSH2 0x10F8 JUMP JUMPDEST PUSH2 0xF2D JUMP JUMPDEST SWAP1 POP DUP3 DUP2 MSTORE PUSH1 0x20 DUP2 ADD DUP5 DUP5 DUP5 ADD GT ISZERO PUSH2 0x1158 JUMPI PUSH2 0x1157 PUSH2 0xF52 JUMP JUMPDEST JUMPDEST PUSH2 0x1163 DUP5 DUP3 DUP6 PUSH2 0xF88 JUMP JUMPDEST POP SWAP4 SWAP3 POP POP POP JUMP JUMPDEST PUSH1 0x0 DUP3 PUSH1 0x1F DUP4 ADD SLT PUSH2 0x1180 JUMPI PUSH2 0x117F PUSH2 0xF4D JUMP JUMPDEST JUMPDEST DUP2 CALLDATALOAD PUSH2 0x1190 DUP5 DUP3 PUSH1 0x20 DUP7 ADD PUSH2 0x1129 JUMP JUMPDEST SWAP2 POP POP SWAP3 SWAP2 POP POP JUMP JUMPDEST PUSH1 0x0 PUSH1 0x20 DUP3 DUP5 SUB SLT ISZERO PUSH2 0x11AF JUMPI PUSH2 0x11AE PUSH2 0xC78 JUMP JUMPDEST JUMPDEST PUSH1 0x0 DUP3 ADD CALLDATALOAD PUSH8 0xFFFFFFFFFFFFFFFF DUP2 GT ISZERO PUSH2 0x11CD JUMPI PUSH2 0x11CC PUSH2 0xC7D JUMP JUMPDEST JUMPDEST PUSH2 0x11D9 DUP5 DUP3 DUP6 ADD PUSH2 0x116B JUMP JUMPDEST SWAP2 POP POP SWAP3 SWAP2 POP POP JUMP JUMPDEST PUSH1 0x0 PUSH2 0x11ED DUP3 PUSH2 0xE1D JUMP JUMPDEST SWAP1 POP SWAP2 SWAP1 POP JUMP JUMPDEST PUSH2 0x11FD DUP2 PUSH2 0x11E2 JUMP JUMPDEST DUP3 MSTORE POP POP JUMP JUMPDEST PUSH1 0x0 PUSH1 0x20 DUP3 ADD SWAP1 POP PUSH2 0x1218 PUSH1 0x0 DUP4 ADD DUP5 PUSH2 0x11F4 JUMP JUMPDEST SWAP3 SWAP2 POP POP JUMP JUMPDEST PUSH1 0x0 PUSH1 0x20 DUP3 DUP5 SUB SLT ISZERO PUSH2 0x1234 JUMPI PUSH2 0x1233 PUSH2 0xC78 JUMP JUMPDEST JUMPDEST PUSH1 0x0 PUSH2 0x1242 DUP5 DUP3 DUP6 ADD PUSH2 0xCA3 JUMP JUMPDEST SWAP2 POP POP SWAP3 SWAP2 POP POP JUMP JUMPDEST PUSH1 0x0 DUP2 MLOAD SWAP1 POP SWAP2 SWAP1 POP JUMP JUMPDEST PUSH1 0x0 DUP3 DUP3 MSTORE PUSH1 0x20 DUP3 ADD SWAP1 POP SWAP3 SWAP2 POP POP JUMP JUMPDEST PUSH1 0x0 JUMPDEST DUP4 DUP2 LT ISZERO PUSH2 0x1285 JUMPI DUP1 DUP3 ADD MLOAD DUP2 DUP5 ADD MSTORE PUSH1 0x20 DUP2 ADD SWAP1 POP PUSH2 0x126A JUMP JUMPDEST PUSH1 0x0 DUP5 DUP5 ADD MSTORE POP POP POP POP JUMP JUMPDEST PUSH1 0x0 PUSH2 0x129C DUP3 PUSH2 0x124B JUMP JUMPDEST PUSH2 0x12A6 DUP2 DUP6 PUSH2 0x1256 JUMP JUMPDEST SWAP4 POP PUSH2 0x12B6 DUP2 DUP6 PUSH1 0x20 DUP7 ADD PUSH2 0x1267 JUMP JUMPDEST PUSH2 0x12BF DUP2 PUSH2 0xEBC JUMP JUMPDEST DUP5 ADD SWAP2 POP POP SWAP3 SWAP2 POP POP JUMP JUMPDEST PUSH1 0x0 PUSH1 0x20 DUP3 ADD SWAP1 POP DUP2 DUP2 SUB PUSH1 0x0 DUP4 ADD MSTORE PUSH2 0x12E4 DUP2 DUP5 PUSH2 0x1291 JUMP JUMPDEST SWAP1 POP SWAP3 SWAP2 POP POP JUMP JUMPDEST PUSH2 0x12F5 DUP2 PUSH2 0xD7A JUMP JUMPDEST DUP3 MSTORE POP POP JUMP JUMPDEST PUSH1 0x0 PUSH1 0x20 DUP3 ADD SWAP1 POP PUSH2 0x1310 PUSH1 0x0 DUP4 ADD DUP5 PUSH2 0x12EC JUMP JUMPDEST SWAP3 SWAP2 POP POP JUMP JUMPDEST PUSH1 0x0 PUSH1 0x20 DUP3 DUP5 SUB SLT ISZERO PUSH2 0x132C JUMPI PUSH2 0x132B PUSH2 0xC78 JUMP JUMPDEST JUMPDEST PUSH1 0x0 PUSH2 0x133A DUP5 DUP3 DUP6 ADD PUSH2 0xD9B JUMP JUMPDEST SWAP2 POP POP SWAP3 SWAP2 POP POP JUMP JUMPDEST PUSH2 0x134C DUP2 PUSH2 0xCB8 JUMP JUMPDEST DUP3 MSTORE POP POP JUMP JUMPDEST PUSH1 0x0 PUSH1 0x20 DUP3 ADD SWAP1 POP PUSH2 0x1367 PUSH1 0x0 DUP4 ADD DUP5 PUSH2 0x1343 JUMP JUMPDEST SWAP3 SWAP2 POP POP JUMP JUMPDEST PUSH32 0x4E487B7100000000000000000000000000000000000000000000000000000000 PUSH1 0x0 MSTORE PUSH1 0x22 PUSH1 0x4 MSTORE PUSH1 0x24 PUSH1 0x0 REVERT JUMPDEST PUSH1 0x0 PUSH1 0x2 DUP3 DIV SWAP1 POP PUSH1 0x1 DUP3 AND DUP1 PUSH2 0x13B4 JUMPI PUSH1 0x7F DUP3 AND SWAP2 POP JUMPDEST PUSH1 0x20 DUP3 LT DUP2 SUB PUSH2 0x13C7 JUMPI PUSH2 0x13C6 PUSH2 0x136D JUMP JUMPDEST JUMPDEST POP SWAP2 SWAP1 POP JUMP JUMPDEST PUSH32 0x436861696E53746F72616765436F6E7461696E65723A2046756E6374696F6E20 PUSH1 0x0 DUP3 ADD MSTORE PUSH32 0x63616E206F6E6C792062652063616C6C656420627920746865206F776E65722E PUSH1 0x20 DUP3 ADD MSTORE POP JUMP JUMPDEST PUSH1 0x0 PUSH2 0x1429 PUSH1 0x40 DUP4 PUSH2 0x1256 JUMP JUMPDEST SWAP2 POP PUSH2 0x1434 DUP3 PUSH2 0x13CD JUMP JUMPDEST PUSH1 0x40 DUP3 ADD SWAP1 POP SWAP2 SWAP1 POP JUMP JUMPDEST PUSH1 0x0 PUSH1 0x20 DUP3 ADD SWAP1 POP DUP2 DUP2 SUB PUSH1 0x0 DUP4 ADD MSTORE PUSH2 0x1458 DUP2 PUSH2 0x141C JUMP JUMPDEST SWAP1 POP SWAP2 SWAP1 POP JUMP JUMPDEST PUSH2 0x1468 DUP2 PUSH2 0x11E2 JUMP JUMPDEST DUP2 EQ PUSH2 0x1473 JUMPI PUSH1 0x0 DUP1 REVERT JUMPDEST POP JUMP JUMPDEST PUSH1 0x0 DUP2 MLOAD SWAP1 POP PUSH2 0x1485 DUP2 PUSH2 0x145F JUMP JUMPDEST SWAP3 SWAP2 POP POP JUMP JUMPDEST PUSH1 0x0 PUSH1 0x20 DUP3 DUP5 SUB SLT ISZERO PUSH2 0x14A1 JUMPI PUSH2 0x14A0 PUSH2 0xC78 JUMP JUMPDEST JUMPDEST PUSH1 0x0 PUSH2 0x14AF DUP5 DUP3 DUP6 ADD PUSH2 0x1476 JUMP JUMPDEST SWAP2 POP POP SWAP3 SWAP2 POP POP JUMP JUMPDEST PUSH32 0x496E646578206F7574206F6620626F756E64732E000000000000000000000000 PUSH1 0x0 DUP3 ADD MSTORE POP JUMP JUMPDEST PUSH1 0x0 PUSH2 0x14EE PUSH1 0x14 DUP4 PUSH2 0x1256 JUMP JUMPDEST SWAP2 POP PUSH2 0x14F9 DUP3 PUSH2 0x14B8 JUMP JUMPDEST PUSH1 0x20 DUP3 ADD SWAP1 POP SWAP2 SWAP1 POP JUMP JUMPDEST PUSH1 0x0 PUSH1 0x20 DUP3 ADD SWAP1 POP DUP2 DUP2 SUB PUSH1 0x0 DUP4 ADD MSTORE PUSH2 0x151D DUP2 PUSH2 0x14E1 JUMP JUMPDEST SWAP1 POP SWAP2 SWAP1 POP JUMP JUMPDEST PUSH32 0x4E487B7100000000000000000000000000000000000000000000000000000000 PUSH1 0x0 MSTORE PUSH1 0x11 PUSH1 0x4 MSTORE PUSH1 0x24 PUSH1 0x0 REVERT JUMPDEST PUSH1 0x0 PUSH5 0xFFFFFFFFFF DUP3 AND SWAP1 POP SWAP2 SWAP1 POP JUMP JUMPDEST PUSH1 0x0 PUSH2 0x156F DUP3 PUSH2 0x1553 JUMP JUMPDEST SWAP2 POP PUSH5 0xFFFFFFFFFF DUP3 SUB PUSH2 0x1586 JUMPI PUSH2 0x1585 PUSH2 0x1524 JUMP JUMPDEST JUMPDEST PUSH1 0x1 DUP3 ADD SWAP1 POP SWAP2 SWAP1 POP JUMP JUMPDEST PUSH1 0x0 DUP2 MLOAD SWAP1 POP SWAP2 SWAP1 POP JUMP JUMPDEST PUSH1 0x0 DUP3 DUP3 MSTORE PUSH1 0x20 DUP3 ADD SWAP1 POP SWAP3 SWAP2 POP POP JUMP JUMPDEST PUSH1 0x0 PUSH2 0x15B8 DUP3 PUSH2 0x1591 JUMP JUMPDEST PUSH2 0x15C2 DUP2 DUP6 PUSH2 0x159C JUMP JUMPDEST SWAP4 POP PUSH2 0x15D2 DUP2 DUP6 PUSH1 0x20 DUP7 ADD PUSH2 0x1267 JUMP JUMPDEST PUSH2 0x15DB DUP2 PUSH2 0xEBC JUMP JUMPDEST DUP5 ADD SWAP2 POP POP SWAP3 SWAP2 POP POP JUMP JUMPDEST PUSH1 0x0 PUSH1 0x80 DUP3 ADD SWAP1 POP PUSH2 0x15FB PUSH1 0x0 DUP4 ADD DUP8 PUSH2 0x12EC JUMP JUMPDEST PUSH2 0x1608 PUSH1 0x20 DUP4 ADD DUP7 PUSH2 0xD50 JUMP JUMPDEST PUSH2 0x1615 PUSH1 0x40 DUP4 ADD DUP6 PUSH2 0xD50 JUMP JUMPDEST DUP2 DUP2 SUB PUSH1 0x60 DUP4 ADD MSTORE PUSH2 0x1627 DUP2 DUP5 PUSH2 0x15AD JUMP JUMPDEST SWAP1 POP SWAP6 SWAP5 POP POP POP POP POP JUMP INVALID LOG2 PUSH5 0x6970667358 0x22 SLT KECCAK256 DUP4 PUSH14 0x161AB4AE6D5DAC69E50EE0C14D31 NUMBER CREATE DUP5 0xAD 0x21 ORIGIN AND EQ XOR PUSH3 0xD89709 0x22 SWAP7 PUSH10 0x64736F6C634300081200 CALLER "},"methodIdentifiers":{"deleteElementsAfterInclusive(uint256)":"4651d91e","deleteElementsAfterInclusive(uint256,bytes27)":"167fd681","get(uint256)":"9507d39a","getGlobalMetadata()":"ccf8f969","length()":"1f7b6d32","libAddressManager()":"299ca478","owner()":"8da5cb5b","push(bytes32)":"b298e36b","push(bytes32,bytes27)":"2015276c","resolve(string)":"461a4478","setGlobalMetadata(bytes27)":"29061de2","setSavedHash((uint256,bytes32,uint256,uint256,bytes))":"3d160572"}}}}}