{"contracts/L1/rollup/StateCommitmentChain.sol":{"StateCommitmentChain":{"abi":[{"inputs":[{"internalType":"address","name":"_libAddressManager","type":"address"},{"internalType":"uint256","name":"_fraudProofWindow","type":"uint256"},{"internalType":"uint256","name":"_sequencerPublishWindow","type":"uint256"}],"stateMutability":"nonpayable","type":"constructor"},{"anonymous":false,"inputs":[{"indexed":true,"internalType":"uint256","name":"_batchIndex","type":"uint256"},{"indexed":false,"internalType":"bytes32","name":"_batchRoot","type":"bytes32"},{"indexed":false,"internalType":"uint256","name":"_batchSize","type":"uint256"},{"indexed":false,"internalType":"uint256","name":"_prevTotalElements","type":"uint256"},{"indexed":false,"internalType":"bytes","name":"_extraData","type":"bytes"}],"name":"StateBatchAppended","type":"event"},{"anonymous":false,"inputs":[{"indexed":true,"internalType":"uint256","name":"_batchIndex","type":"uint256"},{"indexed":false,"internalType":"bytes32","name":"_batchRoot","type":"bytes32"}],"name":"StateBatchDeleted","type":"event"},{"inputs":[],"name":"FRAUD_PROOF_WINDOW","outputs":[{"internalType":"uint256","name":"","type":"uint256"}],"stateMutability":"view","type":"function"},{"inputs":[],"name":"SEQUENCER_PUBLISH_WINDOW","outputs":[{"internalType":"uint256","name":"","type":"uint256"}],"stateMutability":"view","type":"function"},{"inputs":[{"internalType":"bytes32[]","name":"_batch","type":"bytes32[]"},{"internalType":"uint256","name":"_shouldStartAtElement","type":"uint256"}],"name":"appendStateBatch","outputs":[],"stateMutability":"nonpayable","type":"function"},{"inputs":[],"name":"batches","outputs":[{"internalType":"contract IChainStorageContainer","name":"","type":"address"}],"stateMutability":"view","type":"function"},{"inputs":[{"components":[{"internalType":"uint256","name":"batchIndex","type":"uint256"},{"internalType":"bytes32","name":"batchRoot","type":"bytes32"},{"internalType":"uint256","name":"batchSize","type":"uint256"},{"internalType":"uint256","name":"prevTotalElements","type":"uint256"},{"internalType":"bytes","name":"extraData","type":"bytes"}],"internalType":"struct Lib_OVMCodec.ChainBatchHeader","name":"_batchHeader","type":"tuple"}],"name":"deleteStateBatch","outputs":[],"stateMutability":"nonpayable","type":"function"},{"inputs":[],"name":"getLastSequencerTimestamp","outputs":[{"internalType":"uint256","name":"_lastSequencerTimestamp","type":"uint256"}],"stateMutability":"view","type":"function"},{"inputs":[],"name":"getTotalBatches","outputs":[{"internalType":"uint256","name":"_totalBatches","type":"uint256"}],"stateMutability":"view","type":"function"},{"inputs":[],"name":"getTotalElements","outputs":[{"internalType":"uint256","name":"_totalElements","type":"uint256"}],"stateMutability":"view","type":"function"},{"inputs":[{"components":[{"internalType":"uint256","name":"batchIndex","type":"uint256"},{"internalType":"bytes32","name":"batchRoot","type":"bytes32"},{"internalType":"uint256","name":"batchSize","type":"uint256"},{"internalType":"uint256","name":"prevTotalElements","type":"uint256"},{"internalType":"bytes","name":"extraData","type":"bytes"}],"internalType":"struct Lib_OVMCodec.ChainBatchHeader","name":"_batchHeader","type":"tuple"}],"name":"insideFraudProofWindow","outputs":[{"internalType":"bool","name":"_inside","type":"bool"}],"stateMutability":"view","type":"function"},{"inputs":[],"name":"libAddressManager","outputs":[{"internalType":"contract Lib_AddressManager","name":"","type":"address"}],"stateMutability":"view","type":"function"},{"inputs":[{"internalType":"string","name":"_name","type":"string"}],"name":"resolve","outputs":[{"internalType":"address","name":"","type":"address"}],"stateMutability":"view","type":"function"},{"inputs":[{"internalType":"bytes32","name":"_element","type":"bytes32"},{"components":[{"internalType":"uint256","name":"batchIndex","type":"uint256"},{"internalType":"bytes32","name":"batchRoot","type":"bytes32"},{"internalType":"uint256","name":"batchSize","type":"uint256"},{"internalType":"uint256","name":"prevTotalElements","type":"uint256"},{"internalType":"bytes","name":"extraData","type":"bytes"}],"internalType":"struct Lib_OVMCodec.ChainBatchHeader","name":"_batchHeader","type":"tuple"},{"components":[{"internalType":"uint256","name":"index","type":"uint256"},{"internalType":"bytes32[]","name":"siblings","type":"bytes32[]"}],"internalType":"struct Lib_OVMCodec.ChainInclusionProof","name":"_proof","type":"tuple"}],"name":"verifyStateCommitment","outputs":[{"internalType":"bool","name":"","type":"bool"}],"stateMutability":"view","type":"function"}],"evm":{"bytecode":{"linkReferences":{},"object":"60806040523480156200001157600080fd5b5060405162002e2038038062002e20833981810160405281019062000037919062000135565b82806000806101000a81548173ffffffffffffffffffffffffffffffffffffffff021916908373ffffffffffffffffffffffffffffffffffffffff16021790555050816001819055508060028190555050505062000191565b600080fd5b600073ffffffffffffffffffffffffffffffffffffffff82169050919050565b6000620000c28262000095565b9050919050565b620000d481620000b5565b8114620000e057600080fd5b50565b600081519050620000f481620000c9565b92915050565b6000819050919050565b6200010f81620000fa565b81146200011b57600080fd5b50565b6000815190506200012f8162000104565b92915050565b60008060006060848603121562000151576200015062000090565b5b60006200016186828701620000e3565b935050602062000174868287016200011e565b925050604062000187868287016200011e565b9150509250925092565b612c7f80620001a16000396000f3fe608060405234801561001057600080fd5b50600436106100b45760003560e01c80638ca5cbb9116100715780638ca5cbb9146101915780639418bddd146101ad578063b8e189ac146101dd578063c17b291b146101f9578063cfdf677e14610217578063e561dddc14610235576100b4565b8063299ca478146100b9578063461a4478146100d75780634d69ee57146101075780637aa63a86146101375780637ad168a01461015557806381eb62ef14610173575b600080fd5b6100c1610253565b6040516100ce9190611634565b60405180910390f35b6100f160048036038101906100ec91906117a9565b610277565b6040516100fe9190611813565b60405180910390f35b610121600480360381019061011c9190611b21565b61031b565b60405161012e9190611bc7565b60405180910390f35b61013f6103cc565b60405161014c9190611bf1565b60405180910390f35b61015d6103e8565b60405161016a9190611bf1565b60405180910390f35b61017b610404565b6040516101889190611bf1565b60405180910390f35b6101ab60048036038101906101a69190611c0c565b61040a565b005b6101c760048036038101906101c29190611c68565b6106bd565b6040516101d49190611bc7565b60405180910390f35b6101f760048036038101906101f29190611c68565b610736565b005b61020161087d565b60405161020e9190611bf1565b60405180910390f35b61021f610883565b60405161022c9190611cd2565b60405180910390f35b61023d6108ab565b60405161024a9190611bf1565b60405180910390f35b60008054906101000a900473ffffffffffffffffffffffffffffffffffffffff1681565b60008060009054906101000a900473ffffffffffffffffffffffffffffffffffffffff1673ffffffffffffffffffffffffffffffffffffffff1663bf40fac1836040518263ffffffff1660e01b81526004016102d39190611d6c565b602060405180830381865afa1580156102f0573d6000803e3d6000fd5b505050506040513d601f19601f820116820180604052508101906103149190611dba565b9050919050565b600061032683610928565b610365576040517f08c379a000000000000000000000000000000000000000000000000000000000815260040161035c90611e33565b60405180910390fd5b61038283602001518584600001518560200151876040015161093d565b6103c1576040517f08c379a00000000000000000000000000000000000000000000000000000000081526004016103b890611e9f565b60405180910390fd5b600190509392505050565b6000806103d7610ae3565b5090508064ffffffffff1691505090565b6000806103f3610ae3565b9150508064ffffffffff1691505090565b60025481565b6104126103cc565b8114610453576040517f08c379a000000000000000000000000000000000000000000000000000000000815260040161044a90611f31565b60405180910390fd5b6104916040518060400160405280600b81526020017f426f6e644d616e61676572000000000000000000000000000000000000000000815250610277565b73ffffffffffffffffffffffffffffffffffffffff166302ad4d2a336040518263ffffffff1660e01b81526004016104c99190611813565b602060405180830381865afa1580156104e6573d6000803e3d6000fd5b505050506040513d601f19601f8201168201806040525081019061050a9190611f7d565b610549576040517f08c379a00000000000000000000000000000000000000000000000000000000081526004016105409061201c565b60405180910390fd5b600082511161058d576040517f08c379a0000000000000000000000000000000000000000000000000000000008152600401610584906120ae565b60405180910390fd5b6105cb6040518060400160405280601981526020017f43616e6f6e6963616c5472616e73616374696f6e436861696e00000000000000815250610277565b73ffffffffffffffffffffffffffffffffffffffff16637aa63a866040518163ffffffff1660e01b8152600401602060405180830381865afa158015610615573d6000803e3d6000fd5b505050506040513d601f19601f8201168201806040525081019061063991906120e3565b82516106436103cc565b61064d919061213f565b111561068e576040517f08c379a00000000000000000000000000000000000000000000000000000000081526004016106859061220b565b60405180910390fd5b6106b98242336040516020016106a592919061222b565b604051602081830303815290604052610ba8565b5050565b60008082608001518060200190518101906106d89190612292565b5090506000810361071e576040517f08c379a000000000000000000000000000000000000000000000000000000000815260040161071590612344565b60405180910390fd5b426001548261072d919061213f565b11915050919050565b6107746040518060400160405280601181526020017f4f564d5f46726175645665726966696572000000000000000000000000000000815250610277565b73ffffffffffffffffffffffffffffffffffffffff163373ffffffffffffffffffffffffffffffffffffffff16146107e1576040517f08c379a00000000000000000000000000000000000000000000000000000000081526004016107d8906123d6565b60405180910390fd5b6107ea81610928565b610829576040517f08c379a000000000000000000000000000000000000000000000000000000000815260040161082090611e33565b60405180910390fd5b610832816106bd565b610871576040517f08c379a000000000000000000000000000000000000000000000000000000000815260040161086890612468565b60405180910390fd5b61087a81610dbf565b50565b60015481565b60006108a6604051806060016040528060218152602001612c2960219139610277565b905090565b60006108b5610883565b73ffffffffffffffffffffffffffffffffffffffff16631f7b6d326040518163ffffffff1660e01b8152600401602060405180830381865afa1580156108ff573d6000803e3d6000fd5b505050506040513d601f19601f8201168201806040525081019061092391906120e3565b905090565b600061093382610f8b565b5060019050919050565b6000808211610981576040517f08c379a0000000000000000000000000000000000000000000000000000000008152600401610978906124fa565b60405180910390fd5b8184106109c3576040517f08c379a00000000000000000000000000000000000000000000000000000000081526004016109ba9061258c565b60405180910390fd5b6109cc82610fd1565b835114610a0e576040517f08c379a0000000000000000000000000000000000000000000000000000000008152600401610a0590612644565b60405180910390fd5b600085905060005b8451811015610ad357600180871603610a7357848181518110610a3c57610a3b612664565b5b602002602001015182604051602001610a569291906126b4565b604051602081830303815290604052805190602001209150610ab9565b81858281518110610a8757610a86612664565b5b6020026020010151604051602001610aa09291906126b4565b6040516020818303038152906040528051906020012091505b600186901c95508080610acb906126e0565b915050610a16565b5080871491505095945050505050565b6000806000610af0610883565b73ffffffffffffffffffffffffffffffffffffffff1663ccf8f9696040518163ffffffff1660e01b8152600401602060405180830381865afa158015610b3a573d6000803e3d6000fd5b505050506040513d601f19601f82011682018060405250810190610b5e9190612780565b90506000808260281c925064ffffffffff831691507fffffffffffffffffffffffffffffffffffffffffffffffffffffff0000000000831660281c90508181945094505050509091565b6000610be86040518060400160405280600c81526020017f4f564d5f50726f706f7365720000000000000000000000000000000000000000815250610277565b9050600080610bf5610ae3565b915091508273ffffffffffffffffffffffffffffffffffffffff163373ffffffffffffffffffffffffffffffffffffffff1603610c3457429050610c8b565b426002548264ffffffffff16610c4a919061213f565b10610c8a576040517f08c379a0000000000000000000000000000000000000000000000000000000008152600401610c8190612845565b60405180910390fd5b5b60006040518060a00160405280610ca06108ab565b8152602001610cae886110a0565b8152602001875181526020018464ffffffffff16815260200186815250905080600001517f16be4c5129a4e03cf3350262e181dc02ddfb4a6008d925368c0899fcd97ca9c58260200151836040015184606001518560800151604051610d1794939291906128c9565b60405180910390a2610d27610883565b73ffffffffffffffffffffffffffffffffffffffff16632015276c610d4b83610f8b565b610d6884604001518560600151610d62919061213f565b86611597565b6040518363ffffffff1660e01b8152600401610d85929190612924565b600060405180830381600087803b158015610d9f57600080fd5b505af1158015610db3573d6000803e3d6000fd5b50505050505050505050565b610dc7610883565b73ffffffffffffffffffffffffffffffffffffffff16631f7b6d326040518163ffffffff1660e01b8152600401602060405180830381865afa158015610e11573d6000803e3d6000fd5b505050506040513d601f19601f82011682018060405250810190610e3591906120e3565b816000015110610e7a576040517f08c379a0000000000000000000000000000000000000000000000000000000008152600401610e7190612999565b60405180910390fd5b610e8381610928565b610ec2576040517f08c379a0000000000000000000000000000000000000000000000000000000008152600401610eb990611e33565b60405180910390fd5b610eca610883565b73ffffffffffffffffffffffffffffffffffffffff1663167fd6818260000151610ef984606001516000611597565b6040518363ffffffff1660e01b8152600401610f169291906129b9565b600060405180830381600087803b158015610f3057600080fd5b505af1158015610f44573d6000803e3d6000fd5b5050505080600001517f8747b69ce8fdb31c3b9b0a67bd8049ad8c1a69ea417b69b12174068abd9cbd648260200151604051610f8091906129e2565b60405180910390a250565b60008160200151826040015183606001518460800151604051602001610fb494939291906128c9565b604051602081830303815290604052805190602001209050919050565b6000808211611015576040517f08c379a000000000000000000000000000000000000000000000000000000000815260040161100c90612a6f565b60405180910390fd5b60018203611026576000905061109b565b6000829050600080608090505b60018110611079576000816001836001901b61104f9190612a8f565b901b84161461106d578082611064919061213f565b91508083901c92505b600181901c9050611033565b5083816001901b1461109557600181611092919061213f565b90505b80925050505b919050565b6000808251116110e5576040517f08c379a00000000000000000000000000000000000000000000000000000000081526004016110dc90612b35565b60405180910390fd5b6001825103611111578160008151811061110257611101612664565b5b60200260200101519050611592565b60006040518061020001604052807f290decd9548b62a8d60345a988386fc84ba6bc95484008f6362f93160ef3e56381526020017f633dc4d7da7256660a892f8f1604a44b5432649cc8ec5cb3ced4c4e6ac94dd1d81526020017f890740a8eb06ce9be422cb8da5cdafc2b58c0a5e24036c578de2a433c828ff7d81526020017f3b8ec09e026fdc305365dfc94e189a81b38c7597b3d941c279f042e8206e0bd881526020017fecd50eee38e386bd62be9bedb990706951b65fe053bd9d8a521af753d139e2da81526020017fdefff6d330bb5403f63b14f33b578274160de3a50df4efecf0e0db73bcdd3da581526020017f617bdd11f7c0a11f49db22f629387a12da7596f9d1704d7465177c63d88ec7d781526020017f292c23a9aa1d8bea7e2435e555a4a60e379a5a35f3f452bae60121073fb6eead81526020017fe1cea92ed99acdcb045a6726b2f87107e8a61620a232cf4d7d5b5766b3952e1081526020017f7ad66c0a68c72cb89e4fb4303841966e4062a76ab97451e3b9fb526a5ceb7f8281526020017fe026cc5a4aed3c22a58cbd3d2ac754c9352c5436f638042dca99034e8363651681526020017f3d04cffd8b46a874edf5cfae63077de85f849a660426697b06a829c70dd1409c81526020017fad676aa337a485e4728a0b240d92b3ef7b3c372d06d189322bfd5f61f1e7203e81526020017fa2fca4a49658f9fab7aa63289c91b7c7b6c832a6d0e69334ff5b0a3483d09dab81526020017f4ebfd9cd7bca2505f7bef59cc1c12ecc708fff26ae4af19abe852afe9e20c86281526020017f2def10d13dd169f550f578bda343d9717a138562e0093b380a1120789d53cf1081525090506000604067ffffffffffffffff81111561139c5761139b61167e565b5b6040519080825280601f01601f1916602001820160405280156113ce5781602001600182028036833780820191505090505b509050600080600086519050600080805b600184111561156b576002846113f59190612b84565b915060016002856114069190612bb5565b14905060005b828110156114b8578a8160026114229190612be6565b8151811061143357611432612664565b5b602002602001015196508a600182600261144d9190612be6565b611457919061213f565b8151811061146857611467612664565b5b6020026020010151955086602089015285604089015287805190602001208b828151811061149957611498612664565b5b60200260200101818152505080806114b0906126e0565b91505061140c565b50801561153957896001856114cd9190612a8f565b815181106114de576114dd612664565b5b602002602001015195508783601081106114fb576114fa612664565b5b602002015160001b945085602088015284604088015286805190602001208a838151811061152c5761152b612664565b5b6020026020010181815250505b80611545576000611548565b60015b60ff1682611556919061213f565b93508280611563906126e0565b9350506113df565b8960008151811061157f5761157e612664565b5b6020026020010151985050505050505050505b919050565b6000808390508260281b811790508060281b90508091505092915050565b600073ffffffffffffffffffffffffffffffffffffffff82169050919050565b6000819050919050565b60006115fa6115f56115f0846115b5565b6115d5565b6115b5565b9050919050565b600061160c826115df565b9050919050565b600061161e82611601565b9050919050565b61162e81611613565b82525050565b60006020820190506116496000830184611625565b92915050565b6000604051905090565b600080fd5b600080fd5b600080fd5b600080fd5b6000601f19601f8301169050919050565b7f4e487b7100000000000000000000000000000000000000000000000000000000600052604160045260246000fd5b6116b68261166d565b810181811067ffffffffffffffff821117156116d5576116d461167e565b5b80604052505050565b60006116e861164f565b90506116f482826116ad565b919050565b600067ffffffffffffffff8211156117145761171361167e565b5b61171d8261166d565b9050602081019050919050565b82818337600083830152505050565b600061174c611747846116f9565b6116de565b90508281526020810184848401111561176857611767611668565b5b61177384828561172a565b509392505050565b600082601f8301126117905761178f611663565b5b81356117a0848260208601611739565b91505092915050565b6000602082840312156117bf576117be611659565b5b600082013567ffffffffffffffff8111156117dd576117dc61165e565b5b6117e98482850161177b565b91505092915050565b60006117fd826115b5565b9050919050565b61180d816117f2565b82525050565b60006020820190506118286000830184611804565b92915050565b6000819050919050565b6118418161182e565b811461184c57600080fd5b50565b60008135905061185e81611838565b92915050565b600080fd5b600080fd5b6000819050919050565b6118818161186e565b811461188c57600080fd5b50565b60008135905061189e81611878565b92915050565b600067ffffffffffffffff8211156118bf576118be61167e565b5b6118c88261166d565b9050602081019050919050565b60006118e86118e3846118a4565b6116de565b90508281526020810184848401111561190457611903611668565b5b61190f84828561172a565b509392505050565b600082601f83011261192c5761192b611663565b5b813561193c8482602086016118d5565b91505092915050565b600060a0828403121561195b5761195a611864565b5b61196560a06116de565b905060006119758482850161188f565b60008301525060206119898482850161184f565b602083015250604061199d8482850161188f565b60408301525060606119b18482850161188f565b606083015250608082013567ffffffffffffffff8111156119d5576119d4611869565b5b6119e184828501611917565b60808301525092915050565b600067ffffffffffffffff821115611a0857611a0761167e565b5b602082029050602081019050919050565b600080fd5b6000611a31611a2c846119ed565b6116de565b90508083825260208201905060208402830185811115611a5457611a53611a19565b5b835b81811015611a7d5780611a69888261184f565b845260208401935050602081019050611a56565b5050509392505050565b600082601f830112611a9c57611a9b611663565b5b8135611aac848260208601611a1e565b91505092915050565b600060408284031215611acb57611aca611864565b5b611ad560406116de565b90506000611ae58482850161188f565b600083015250602082013567ffffffffffffffff811115611b0957611b08611869565b5b611b1584828501611a87565b60208301525092915050565b600080600060608486031215611b3a57611b39611659565b5b6000611b488682870161184f565b935050602084013567ffffffffffffffff811115611b6957611b6861165e565b5b611b7586828701611945565b925050604084013567ffffffffffffffff811115611b9657611b9561165e565b5b611ba286828701611ab5565b9150509250925092565b60008115159050919050565b611bc181611bac565b82525050565b6000602082019050611bdc6000830184611bb8565b92915050565b611beb8161186e565b82525050565b6000602082019050611c066000830184611be2565b92915050565b60008060408385031215611c2357611c22611659565b5b600083013567ffffffffffffffff811115611c4157611c4061165e565b5b611c4d85828601611a87565b9250506020611c5e8582860161188f565b9150509250929050565b600060208284031215611c7e57611c7d611659565b5b600082013567ffffffffffffffff811115611c9c57611c9b61165e565b5b611ca884828501611945565b91505092915050565b6000611cbc82611601565b9050919050565b611ccc81611cb1565b82525050565b6000602082019050611ce76000830184611cc3565b92915050565b600081519050919050565b600082825260208201905092915050565b60005b83811015611d27578082015181840152602081019050611d0c565b60008484015250505050565b6000611d3e82611ced565b611d488185611cf8565b9350611d58818560208601611d09565b611d618161166d565b840191505092915050565b60006020820190508181036000830152611d868184611d33565b905092915050565b611d97816117f2565b8114611da257600080fd5b50565b600081519050611db481611d8e565b92915050565b600060208284031215611dd057611dcf611659565b5b6000611dde84828501611da5565b91505092915050565b7f496e76616c6964206261746368206865616465722e0000000000000000000000600082015250565b6000611e1d601583611cf8565b9150611e2882611de7565b602082019050919050565b60006020820190508181036000830152611e4c81611e10565b9050919050565b7f496e76616c696420696e636c7573696f6e2070726f6f662e0000000000000000600082015250565b6000611e89601883611cf8565b9150611e9482611e53565b602082019050919050565b60006020820190508181036000830152611eb881611e7c565b9050919050565b7f41637475616c20626174636820737461727420696e64657820646f6573206e6f60008201527f74206d6174636820657870656374656420737461727420696e6465782e000000602082015250565b6000611f1b603d83611cf8565b9150611f2682611ebf565b604082019050919050565b60006020820190508181036000830152611f4a81611f0e565b9050919050565b611f5a81611bac565b8114611f6557600080fd5b50565b600081519050611f7781611f51565b92915050565b600060208284031215611f9357611f92611659565b5b6000611fa184828501611f68565b91505092915050565b7f50726f706f73657220646f6573206e6f74206861766520656e6f75676820636f60008201527f6c6c61746572616c20706f737465640000000000000000000000000000000000602082015250565b6000612006602f83611cf8565b915061201182611faa565b604082019050919050565b6000602082019050818103600083015261203581611ff9565b9050919050565b7f43616e6e6f74207375626d697420616e20656d7074792073746174652062617460008201527f63682e0000000000000000000000000000000000000000000000000000000000602082015250565b6000612098602383611cf8565b91506120a38261203c565b604082019050919050565b600060208201905081810360008301526120c78161208b565b9050919050565b6000815190506120dd81611878565b92915050565b6000602082840312156120f9576120f8611659565b5b6000612107848285016120ce565b91505092915050565b7f4e487b7100000000000000000000000000000000000000000000000000000000600052601160045260246000fd5b600061214a8261186e565b91506121558361186e565b925082820190508082111561216d5761216c612110565b5b92915050565b7f4e756d626572206f6620737461746520726f6f74732063616e6e6f742065786360008201527f65656420746865206e756d626572206f662063616e6f6e6963616c207472616e60208201527f73616374696f6e732e0000000000000000000000000000000000000000000000604082015250565b60006121f5604983611cf8565b915061220082612173565b606082019050919050565b60006020820190508181036000830152612224816121e8565b9050919050565b60006040820190506122406000830185611be2565b61224d6020830184611804565b9392505050565b600061225f826115b5565b9050919050565b61226f81612254565b811461227a57600080fd5b50565b60008151905061228c81612266565b92915050565b600080604083850312156122a9576122a8611659565b5b60006122b7858286016120ce565b92505060206122c88582860161227d565b9150509250929050565b7f4261746368206865616465722074696d657374616d702063616e6e6f7420626560008201527f207a65726f000000000000000000000000000000000000000000000000000000602082015250565b600061232e602583611cf8565b9150612339826122d2565b604082019050919050565b6000602082019050818103600083015261235d81612321565b9050919050565b7f537461746520626174636865732063616e206f6e6c792062652064656c65746560008201527f6420627920746865204f564d5f467261756456657269666965722e0000000000602082015250565b60006123c0603b83611cf8565b91506123cb82612364565b604082019050919050565b600060208201905081810360008301526123ef816123b3565b9050919050565b7f537461746520626174636865732063616e206f6e6c792062652064656c65746560008201527f642077697468696e207468652066726175642070726f6f662077696e646f772e602082015250565b6000612452604083611cf8565b915061245d826123f6565b604082019050919050565b6000602082019050818103600083015261248181612445565b9050919050565b7f4c69625f4d65726b6c65547265653a20546f74616c206c6561766573206d757360008201527f742062652067726561746572207468616e207a65726f2e000000000000000000602082015250565b60006124e4603783611cf8565b91506124ef82612488565b604082019050919050565b60006020820190508181036000830152612513816124d7565b9050919050565b7f4c69625f4d65726b6c65547265653a20496e646578206f7574206f6620626f7560008201527f6e64732e00000000000000000000000000000000000000000000000000000000602082015250565b6000612576602483611cf8565b91506125818261251a565b604082019050919050565b600060208201905081810360008301526125a581612569565b9050919050565b7f4c69625f4d65726b6c65547265653a20546f74616c207369626c696e6773206460008201527f6f6573206e6f7420636f72726563746c7920636f72726573706f6e6420746f2060208201527f746f74616c206c65617665732e00000000000000000000000000000000000000604082015250565b600061262e604d83611cf8565b9150612639826125ac565b606082019050919050565b6000602082019050818103600083015261265d81612621565b9050919050565b7f4e487b7100000000000000000000000000000000000000000000000000000000600052603260045260246000fd5b6000819050919050565b6126ae6126a98261182e565b612693565b82525050565b60006126c0828561269d565b6020820191506126d0828461269d565b6020820191508190509392505050565b60006126eb8261186e565b91507fffffffffffffffffffffffffffffffffffffffffffffffffffffffffffffffff820361271d5761271c612110565b5b600182019050919050565b60007fffffffffffffffffffffffffffffffffffffffffffffffffffffff000000000082169050919050565b61275d81612728565b811461276857600080fd5b50565b60008151905061277a81612754565b92915050565b60006020828403121561279657612795611659565b5b60006127a48482850161276b565b91505092915050565b7f43616e6e6f74207075626c69736820737461746520726f6f747320776974686960008201527f6e207468652073657175656e636572207075626c69636174696f6e2077696e6460208201527f6f772e0000000000000000000000000000000000000000000000000000000000604082015250565b600061282f604383611cf8565b915061283a826127ad565b606082019050919050565b6000602082019050818103600083015261285e81612822565b9050919050565b61286e8161182e565b82525050565b600081519050919050565b600082825260208201905092915050565b600061289b82612874565b6128a5818561287f565b93506128b5818560208601611d09565b6128be8161166d565b840191505092915050565b60006080820190506128de6000830187612865565b6128eb6020830186611be2565b6128f86040830185611be2565b818103606083015261290a8184612890565b905095945050505050565b61291e81612728565b82525050565b60006040820190506129396000830185612865565b6129466020830184612915565b9392505050565b7f496e76616c696420626174636820696e6465782e000000000000000000000000600082015250565b6000612983601483611cf8565b915061298e8261294d565b602082019050919050565b600060208201905081810360008301526129b281612976565b9050919050565b60006040820190506129ce6000830185611be2565b6129db6020830184612915565b9392505050565b60006020820190506129f76000830184612865565b92915050565b7f4c69625f4d65726b6c65547265653a2043616e6e6f7420636f6d70757465206360008201527f65696c286c6f675f3229206f6620302e00000000000000000000000000000000602082015250565b6000612a59603083611cf8565b9150612a64826129fd565b604082019050919050565b60006020820190508181036000830152612a8881612a4c565b9050919050565b6000612a9a8261186e565b9150612aa58361186e565b9250828203905081811115612abd57612abc612110565b5b92915050565b7f4c69625f4d65726b6c65547265653a204d7573742070726f766964652061742060008201527f6c65617374206f6e65206c65616620686173682e000000000000000000000000602082015250565b6000612b1f603483611cf8565b9150612b2a82612ac3565b604082019050919050565b60006020820190508181036000830152612b4e81612b12565b9050919050565b7f4e487b7100000000000000000000000000000000000000000000000000000000600052601260045260246000fd5b6000612b8f8261186e565b9150612b9a8361186e565b925082612baa57612ba9612b55565b5b828204905092915050565b6000612bc08261186e565b9150612bcb8361186e565b925082612bdb57612bda612b55565b5b828206905092915050565b6000612bf18261186e565b9150612bfc8361186e565b9250828202612c0a8161186e565b91508282048414831517612c2157612c20612110565b5b509291505056fe436861696e53746f72616765436f6e7461696e65722d5343432d62617463686573a26469706673582212200098cffcee2ca40c9918171ed0b3dfe040c7e385a882d8424c84958bda31536b64736f6c63430008120033","opcodes":"PUSH1 0x80 PUSH1 0x40 MSTORE CALLVALUE DUP1 ISZERO PUSH3 0x11 JUMPI PUSH1 0x0 DUP1 REVERT JUMPDEST POP PUSH1 0x40 MLOAD PUSH3 0x2E20 CODESIZE SUB DUP1 PUSH3 0x2E20 DUP4 CODECOPY DUP2 DUP2 ADD PUSH1 0x40 MSTORE DUP2 ADD SWAP1 PUSH3 0x37 SWAP2 SWAP1 PUSH3 0x135 JUMP JUMPDEST DUP3 DUP1 PUSH1 0x0 DUP1 PUSH2 0x100 EXP DUP2 SLOAD DUP2 PUSH20 0xFFFFFFFFFFFFFFFFFFFFFFFFFFFFFFFFFFFFFFFF MUL NOT AND SWAP1 DUP4 PUSH20 0xFFFFFFFFFFFFFFFFFFFFFFFFFFFFFFFFFFFFFFFF AND MUL OR SWAP1 SSTORE POP POP DUP2 PUSH1 0x1 DUP2 SWAP1 SSTORE POP DUP1 PUSH1 0x2 DUP2 SWAP1 SSTORE POP POP POP POP PUSH3 0x191 JUMP JUMPDEST PUSH1 0x0 DUP1 REVERT JUMPDEST PUSH1 0x0 PUSH20 0xFFFFFFFFFFFFFFFFFFFFFFFFFFFFFFFFFFFFFFFF DUP3 AND SWAP1 POP SWAP2 SWAP1 POP JUMP JUMPDEST PUSH1 0x0 PUSH3 0xC2 DUP3 PUSH3 0x95 JUMP JUMPDEST SWAP1 POP SWAP2 SWAP1 POP JUMP JUMPDEST PUSH3 0xD4 DUP2 PUSH3 0xB5 JUMP JUMPDEST DUP2 EQ PUSH3 0xE0 JUMPI PUSH1 0x0 DUP1 REVERT JUMPDEST POP JUMP JUMPDEST PUSH1 0x0 DUP2 MLOAD SWAP1 POP PUSH3 0xF4 DUP2 PUSH3 0xC9 JUMP JUMPDEST SWAP3 SWAP2 POP POP JUMP JUMPDEST PUSH1 0x0 DUP2 SWAP1 POP SWAP2 SWAP1 POP JUMP JUMPDEST PUSH3 0x10F DUP2 PUSH3 0xFA JUMP JUMPDEST DUP2 EQ PUSH3 0x11B JUMPI PUSH1 0x0 DUP1 REVERT JUMPDEST POP JUMP JUMPDEST PUSH1 0x0 DUP2 MLOAD SWAP1 POP PUSH3 0x12F DUP2 PUSH3 0x104 JUMP JUMPDEST SWAP3 SWAP2 POP POP JUMP JUMPDEST PUSH1 0x0 DUP1 PUSH1 0x0 PUSH1 0x60 DUP5 DUP7 SUB SLT ISZERO PUSH3 0x151 JUMPI PUSH3 0x150 PUSH3 0x90 JUMP JUMPDEST JUMPDEST PUSH1 0x0 PUSH3 0x161 DUP7 DUP3 DUP8 ADD PUSH3 0xE3 JUMP JUMPDEST SWAP4 POP POP PUSH1 0x20 PUSH3 0x174 DUP7 DUP3 DUP8 ADD PUSH3 0x11E JUMP JUMPDEST SWAP3 POP POP PUSH1 0x40 PUSH3 0x187 DUP7 DUP3 DUP8 ADD PUSH3 0x11E JUMP JUMPDEST SWAP2 POP POP SWAP3 POP SWAP3 POP SWAP3 JUMP JUMPDEST PUSH2 0x2C7F DUP1 PUSH3 0x1A1 PUSH1 0x0 CODECOPY PUSH1 0x0 RETURN INVALID PUSH1 0x80 PUSH1 0x40 MSTORE CALLVALUE DUP1 ISZERO PUSH2 0x10 JUMPI PUSH1 0x0 DUP1 REVERT JUMPDEST POP PUSH1 0x4 CALLDATASIZE LT PUSH2 0xB4 JUMPI PUSH1 0x0 CALLDATALOAD PUSH1 0xE0 SHR DUP1 PUSH4 0x8CA5CBB9 GT PUSH2 0x71 JUMPI DUP1 PUSH4 0x8CA5CBB9 EQ PUSH2 0x191 JUMPI DUP1 PUSH4 0x9418BDDD EQ PUSH2 0x1AD JUMPI DUP1 PUSH4 0xB8E189AC EQ PUSH2 0x1DD JUMPI DUP1 PUSH4 0xC17B291B EQ PUSH2 0x1F9 JUMPI DUP1 PUSH4 0xCFDF677E EQ PUSH2 0x217 JUMPI DUP1 PUSH4 0xE561DDDC EQ PUSH2 0x235 JUMPI PUSH2 0xB4 JUMP JUMPDEST DUP1 PUSH4 0x299CA478 EQ PUSH2 0xB9 JUMPI DUP1 PUSH4 0x461A4478 EQ PUSH2 0xD7 JUMPI DUP1 PUSH4 0x4D69EE57 EQ PUSH2 0x107 JUMPI DUP1 PUSH4 0x7AA63A86 EQ PUSH2 0x137 JUMPI DUP1 PUSH4 0x7AD168A0 EQ PUSH2 0x155 JUMPI DUP1 PUSH4 0x81EB62EF EQ PUSH2 0x173 JUMPI JUMPDEST PUSH1 0x0 DUP1 REVERT JUMPDEST PUSH2 0xC1 PUSH2 0x253 JUMP JUMPDEST PUSH1 0x40 MLOAD PUSH2 0xCE SWAP2 SWAP1 PUSH2 0x1634 JUMP JUMPDEST PUSH1 0x40 MLOAD DUP1 SWAP2 SUB SWAP1 RETURN JUMPDEST PUSH2 0xF1 PUSH1 0x4 DUP1 CALLDATASIZE SUB DUP2 ADD SWAP1 PUSH2 0xEC SWAP2 SWAP1 PUSH2 0x17A9 JUMP JUMPDEST PUSH2 0x277 JUMP JUMPDEST PUSH1 0x40 MLOAD PUSH2 0xFE SWAP2 SWAP1 PUSH2 0x1813 JUMP JUMPDEST PUSH1 0x40 MLOAD DUP1 SWAP2 SUB SWAP1 RETURN JUMPDEST PUSH2 0x121 PUSH1 0x4 DUP1 CALLDATASIZE SUB DUP2 ADD SWAP1 PUSH2 0x11C SWAP2 SWAP1 PUSH2 0x1B21 JUMP JUMPDEST PUSH2 0x31B JUMP JUMPDEST PUSH1 0x40 MLOAD PUSH2 0x12E SWAP2 SWAP1 PUSH2 0x1BC7 JUMP JUMPDEST PUSH1 0x40 MLOAD DUP1 SWAP2 SUB SWAP1 RETURN JUMPDEST PUSH2 0x13F PUSH2 0x3CC JUMP JUMPDEST PUSH1 0x40 MLOAD PUSH2 0x14C SWAP2 SWAP1 PUSH2 0x1BF1 JUMP JUMPDEST PUSH1 0x40 MLOAD DUP1 SWAP2 SUB SWAP1 RETURN JUMPDEST PUSH2 0x15D PUSH2 0x3E8 JUMP JUMPDEST PUSH1 0x40 MLOAD PUSH2 0x16A SWAP2 SWAP1 PUSH2 0x1BF1 JUMP JUMPDEST PUSH1 0x40 MLOAD DUP1 SWAP2 SUB SWAP1 RETURN JUMPDEST PUSH2 0x17B PUSH2 0x404 JUMP JUMPDEST PUSH1 0x40 MLOAD PUSH2 0x188 SWAP2 SWAP1 PUSH2 0x1BF1 JUMP JUMPDEST PUSH1 0x40 MLOAD DUP1 SWAP2 SUB SWAP1 RETURN JUMPDEST PUSH2 0x1AB PUSH1 0x4 DUP1 CALLDATASIZE SUB DUP2 ADD SWAP1 PUSH2 0x1A6 SWAP2 SWAP1 PUSH2 0x1C0C JUMP JUMPDEST PUSH2 0x40A JUMP JUMPDEST STOP JUMPDEST PUSH2 0x1C7 PUSH1 0x4 DUP1 CALLDATASIZE SUB DUP2 ADD SWAP1 PUSH2 0x1C2 SWAP2 SWAP1 PUSH2 0x1C68 JUMP JUMPDEST PUSH2 0x6BD JUMP JUMPDEST PUSH1 0x40 MLOAD PUSH2 0x1D4 SWAP2 SWAP1 PUSH2 0x1BC7 JUMP JUMPDEST PUSH1 0x40 MLOAD DUP1 SWAP2 SUB SWAP1 RETURN JUMPDEST PUSH2 0x1F7 PUSH1 0x4 DUP1 CALLDATASIZE SUB DUP2 ADD SWAP1 PUSH2 0x1F2 SWAP2 SWAP1 PUSH2 0x1C68 JUMP JUMPDEST PUSH2 0x736 JUMP JUMPDEST STOP JUMPDEST PUSH2 0x201 PUSH2 0x87D JUMP JUMPDEST PUSH1 0x40 MLOAD PUSH2 0x20E SWAP2 SWAP1 PUSH2 0x1BF1 JUMP JUMPDEST PUSH1 0x40 MLOAD DUP1 SWAP2 SUB SWAP1 RETURN JUMPDEST PUSH2 0x21F PUSH2 0x883 JUMP JUMPDEST PUSH1 0x40 MLOAD PUSH2 0x22C SWAP2 SWAP1 PUSH2 0x1CD2 JUMP JUMPDEST PUSH1 0x40 MLOAD DUP1 SWAP2 SUB SWAP1 RETURN JUMPDEST PUSH2 0x23D PUSH2 0x8AB JUMP JUMPDEST PUSH1 0x40 MLOAD PUSH2 0x24A SWAP2 SWAP1 PUSH2 0x1BF1 JUMP JUMPDEST PUSH1 0x40 MLOAD DUP1 SWAP2 SUB SWAP1 RETURN JUMPDEST PUSH1 0x0 DUP1 SLOAD SWAP1 PUSH2 0x100 EXP SWAP1 DIV PUSH20 0xFFFFFFFFFFFFFFFFFFFFFFFFFFFFFFFFFFFFFFFF AND DUP2 JUMP JUMPDEST PUSH1 0x0 DUP1 PUSH1 0x0 SWAP1 SLOAD SWAP1 PUSH2 0x100 EXP SWAP1 DIV PUSH20 0xFFFFFFFFFFFFFFFFFFFFFFFFFFFFFFFFFFFFFFFF AND PUSH20 0xFFFFFFFFFFFFFFFFFFFFFFFFFFFFFFFFFFFFFFFF AND PUSH4 0xBF40FAC1 DUP4 PUSH1 0x40 MLOAD DUP3 PUSH4 0xFFFFFFFF AND PUSH1 0xE0 SHL DUP2 MSTORE PUSH1 0x4 ADD PUSH2 0x2D3 SWAP2 SWAP1 PUSH2 0x1D6C JUMP JUMPDEST PUSH1 0x20 PUSH1 0x40 MLOAD DUP1 DUP4 SUB DUP2 DUP7 GAS STATICCALL ISZERO DUP1 ISZERO PUSH2 0x2F0 JUMPI RETURNDATASIZE PUSH1 0x0 DUP1 RETURNDATACOPY RETURNDATASIZE PUSH1 0x0 REVERT JUMPDEST POP POP POP POP PUSH1 0x40 MLOAD RETURNDATASIZE PUSH1 0x1F NOT PUSH1 0x1F DUP3 ADD AND DUP3 ADD DUP1 PUSH1 0x40 MSTORE POP DUP2 ADD SWAP1 PUSH2 0x314 SWAP2 SWAP1 PUSH2 0x1DBA JUMP JUMPDEST SWAP1 POP SWAP2 SWAP1 POP JUMP JUMPDEST PUSH1 0x0 PUSH2 0x326 DUP4 PUSH2 0x928 JUMP JUMPDEST PUSH2 0x365 JUMPI PUSH1 0x40 MLOAD PUSH32 0x8C379A000000000000000000000000000000000000000000000000000000000 DUP2 MSTORE PUSH1 0x4 ADD PUSH2 0x35C SWAP1 PUSH2 0x1E33 JUMP JUMPDEST PUSH1 0x40 MLOAD DUP1 SWAP2 SUB SWAP1 REVERT JUMPDEST PUSH2 0x382 DUP4 PUSH1 0x20 ADD MLOAD DUP6 DUP5 PUSH1 0x0 ADD MLOAD DUP6 PUSH1 0x20 ADD MLOAD DUP8 PUSH1 0x40 ADD MLOAD PUSH2 0x93D JUMP JUMPDEST PUSH2 0x3C1 JUMPI PUSH1 0x40 MLOAD PUSH32 0x8C379A000000000000000000000000000000000000000000000000000000000 DUP2 MSTORE PUSH1 0x4 ADD PUSH2 0x3B8 SWAP1 PUSH2 0x1E9F JUMP JUMPDEST PUSH1 0x40 MLOAD DUP1 SWAP2 SUB SWAP1 REVERT JUMPDEST PUSH1 0x1 SWAP1 POP SWAP4 SWAP3 POP POP POP JUMP JUMPDEST PUSH1 0x0 DUP1 PUSH2 0x3D7 PUSH2 0xAE3 JUMP JUMPDEST POP SWAP1 POP DUP1 PUSH5 0xFFFFFFFFFF AND SWAP2 POP POP SWAP1 JUMP JUMPDEST PUSH1 0x0 DUP1 PUSH2 0x3F3 PUSH2 0xAE3 JUMP JUMPDEST SWAP2 POP POP DUP1 PUSH5 0xFFFFFFFFFF AND SWAP2 POP POP SWAP1 JUMP JUMPDEST PUSH1 0x2 SLOAD DUP2 JUMP JUMPDEST PUSH2 0x412 PUSH2 0x3CC JUMP JUMPDEST DUP2 EQ PUSH2 0x453 JUMPI PUSH1 0x40 MLOAD PUSH32 0x8C379A000000000000000000000000000000000000000000000000000000000 DUP2 MSTORE PUSH1 0x4 ADD PUSH2 0x44A SWAP1 PUSH2 0x1F31 JUMP JUMPDEST PUSH1 0x40 MLOAD DUP1 SWAP2 SUB SWAP1 REVERT JUMPDEST PUSH2 0x491 PUSH1 0x40 MLOAD DUP1 PUSH1 0x40 ADD PUSH1 0x40 MSTORE DUP1 PUSH1 0xB DUP2 MSTORE PUSH1 0x20 ADD PUSH32 0x426F6E644D616E61676572000000000000000000000000000000000000000000 DUP2 MSTORE POP PUSH2 0x277 JUMP JUMPDEST PUSH20 0xFFFFFFFFFFFFFFFFFFFFFFFFFFFFFFFFFFFFFFFF AND PUSH4 0x2AD4D2A CALLER PUSH1 0x40 MLOAD DUP3 PUSH4 0xFFFFFFFF AND PUSH1 0xE0 SHL DUP2 MSTORE PUSH1 0x4 ADD PUSH2 0x4C9 SWAP2 SWAP1 PUSH2 0x1813 JUMP JUMPDEST PUSH1 0x20 PUSH1 0x40 MLOAD DUP1 DUP4 SUB DUP2 DUP7 GAS STATICCALL ISZERO DUP1 ISZERO PUSH2 0x4E6 JUMPI RETURNDATASIZE PUSH1 0x0 DUP1 RETURNDATACOPY RETURNDATASIZE PUSH1 0x0 REVERT JUMPDEST POP POP POP POP PUSH1 0x40 MLOAD RETURNDATASIZE PUSH1 0x1F NOT PUSH1 0x1F DUP3 ADD AND DUP3 ADD DUP1 PUSH1 0x40 MSTORE POP DUP2 ADD SWAP1 PUSH2 0x50A SWAP2 SWAP1 PUSH2 0x1F7D JUMP JUMPDEST PUSH2 0x549 JUMPI PUSH1 0x40 MLOAD PUSH32 0x8C379A000000000000000000000000000000000000000000000000000000000 DUP2 MSTORE PUSH1 0x4 ADD PUSH2 0x540 SWAP1 PUSH2 0x201C JUMP JUMPDEST PUSH1 0x40 MLOAD DUP1 SWAP2 SUB SWAP1 REVERT JUMPDEST PUSH1 0x0 DUP3 MLOAD GT PUSH2 0x58D JUMPI PUSH1 0x40 MLOAD PUSH32 0x8C379A000000000000000000000000000000000000000000000000000000000 DUP2 MSTORE PUSH1 0x4 ADD PUSH2 0x584 SWAP1 PUSH2 0x20AE JUMP JUMPDEST PUSH1 0x40 MLOAD DUP1 SWAP2 SUB SWAP1 REVERT JUMPDEST PUSH2 0x5CB PUSH1 0x40 MLOAD DUP1 PUSH1 0x40 ADD PUSH1 0x40 MSTORE DUP1 PUSH1 0x19 DUP2 MSTORE PUSH1 0x20 ADD PUSH32 0x43616E6F6E6963616C5472616E73616374696F6E436861696E00000000000000 DUP2 MSTORE POP PUSH2 0x277 JUMP JUMPDEST PUSH20 0xFFFFFFFFFFFFFFFFFFFFFFFFFFFFFFFFFFFFFFFF AND PUSH4 0x7AA63A86 PUSH1 0x40 MLOAD DUP2 PUSH4 0xFFFFFFFF AND PUSH1 0xE0 SHL DUP2 MSTORE PUSH1 0x4 ADD PUSH1 0x20 PUSH1 0x40 MLOAD DUP1 DUP4 SUB DUP2 DUP7 GAS STATICCALL ISZERO DUP1 ISZERO PUSH2 0x615 JUMPI RETURNDATASIZE PUSH1 0x0 DUP1 RETURNDATACOPY RETURNDATASIZE PUSH1 0x0 REVERT JUMPDEST POP POP POP POP PUSH1 0x40 MLOAD RETURNDATASIZE PUSH1 0x1F NOT PUSH1 0x1F DUP3 ADD AND DUP3 ADD DUP1 PUSH1 0x40 MSTORE POP DUP2 ADD SWAP1 PUSH2 0x639 SWAP2 SWAP1 PUSH2 0x20E3 JUMP JUMPDEST DUP3 MLOAD PUSH2 0x643 PUSH2 0x3CC JUMP JUMPDEST PUSH2 0x64D SWAP2 SWAP1 PUSH2 0x213F JUMP JUMPDEST GT ISZERO PUSH2 0x68E JUMPI PUSH1 0x40 MLOAD PUSH32 0x8C379A000000000000000000000000000000000000000000000000000000000 DUP2 MSTORE PUSH1 0x4 ADD PUSH2 0x685 SWAP1 PUSH2 0x220B JUMP JUMPDEST PUSH1 0x40 MLOAD DUP1 SWAP2 SUB SWAP1 REVERT JUMPDEST PUSH2 0x6B9 DUP3 TIMESTAMP CALLER PUSH1 0x40 MLOAD PUSH1 0x20 ADD PUSH2 0x6A5 SWAP3 SWAP2 SWAP1 PUSH2 0x222B JUMP JUMPDEST PUSH1 0x40 MLOAD PUSH1 0x20 DUP2 DUP4 SUB SUB DUP2 MSTORE SWAP1 PUSH1 0x40 MSTORE PUSH2 0xBA8 JUMP JUMPDEST POP POP JUMP JUMPDEST PUSH1 0x0 DUP1 DUP3 PUSH1 0x80 ADD MLOAD DUP1 PUSH1 0x20 ADD SWAP1 MLOAD DUP2 ADD SWAP1 PUSH2 0x6D8 SWAP2 SWAP1 PUSH2 0x2292 JUMP JUMPDEST POP SWAP1 POP PUSH1 0x0 DUP2 SUB PUSH2 0x71E JUMPI PUSH1 0x40 MLOAD PUSH32 0x8C379A000000000000000000000000000000000000000000000000000000000 DUP2 MSTORE PUSH1 0x4 ADD PUSH2 0x715 SWAP1 PUSH2 0x2344 JUMP JUMPDEST PUSH1 0x40 MLOAD DUP1 SWAP2 SUB SWAP1 REVERT JUMPDEST TIMESTAMP PUSH1 0x1 SLOAD DUP3 PUSH2 0x72D SWAP2 SWAP1 PUSH2 0x213F JUMP JUMPDEST GT SWAP2 POP POP SWAP2 SWAP1 POP JUMP JUMPDEST PUSH2 0x774 PUSH1 0x40 MLOAD DUP1 PUSH1 0x40 ADD PUSH1 0x40 MSTORE DUP1 PUSH1 0x11 DUP2 MSTORE PUSH1 0x20 ADD PUSH32 0x4F564D5F46726175645665726966696572000000000000000000000000000000 DUP2 MSTORE POP PUSH2 0x277 JUMP JUMPDEST PUSH20 0xFFFFFFFFFFFFFFFFFFFFFFFFFFFFFFFFFFFFFFFF AND CALLER PUSH20 0xFFFFFFFFFFFFFFFFFFFFFFFFFFFFFFFFFFFFFFFF AND EQ PUSH2 0x7E1 JUMPI PUSH1 0x40 MLOAD PUSH32 0x8C379A000000000000000000000000000000000000000000000000000000000 DUP2 MSTORE PUSH1 0x4 ADD PUSH2 0x7D8 SWAP1 PUSH2 0x23D6 JUMP JUMPDEST PUSH1 0x40 MLOAD DUP1 SWAP2 SUB SWAP1 REVERT JUMPDEST PUSH2 0x7EA DUP2 PUSH2 0x928 JUMP JUMPDEST PUSH2 0x829 JUMPI PUSH1 0x40 MLOAD PUSH32 0x8C379A000000000000000000000000000000000000000000000000000000000 DUP2 MSTORE PUSH1 0x4 ADD PUSH2 0x820 SWAP1 PUSH2 0x1E33 JUMP JUMPDEST PUSH1 0x40 MLOAD DUP1 SWAP2 SUB SWAP1 REVERT JUMPDEST PUSH2 0x832 DUP2 PUSH2 0x6BD JUMP JUMPDEST PUSH2 0x871 JUMPI PUSH1 0x40 MLOAD PUSH32 0x8C379A000000000000000000000000000000000000000000000000000000000 DUP2 MSTORE PUSH1 0x4 ADD PUSH2 0x868 SWAP1 PUSH2 0x2468 JUMP JUMPDEST PUSH1 0x40 MLOAD DUP1 SWAP2 SUB SWAP1 REVERT JUMPDEST PUSH2 0x87A DUP2 PUSH2 0xDBF JUMP JUMPDEST POP JUMP JUMPDEST PUSH1 0x1 SLOAD DUP2 JUMP JUMPDEST PUSH1 0x0 PUSH2 0x8A6 PUSH1 0x40 MLOAD DUP1 PUSH1 0x60 ADD PUSH1 0x40 MSTORE DUP1 PUSH1 0x21 DUP2 MSTORE PUSH1 0x20 ADD PUSH2 0x2C29 PUSH1 0x21 SWAP2 CODECOPY PUSH2 0x277 JUMP JUMPDEST SWAP1 POP SWAP1 JUMP JUMPDEST PUSH1 0x0 PUSH2 0x8B5 PUSH2 0x883 JUMP JUMPDEST PUSH20 0xFFFFFFFFFFFFFFFFFFFFFFFFFFFFFFFFFFFFFFFF AND PUSH4 0x1F7B6D32 PUSH1 0x40 MLOAD DUP2 PUSH4 0xFFFFFFFF AND PUSH1 0xE0 SHL DUP2 MSTORE PUSH1 0x4 ADD PUSH1 0x20 PUSH1 0x40 MLOAD DUP1 DUP4 SUB DUP2 DUP7 GAS STATICCALL ISZERO DUP1 ISZERO PUSH2 0x8FF JUMPI RETURNDATASIZE PUSH1 0x0 DUP1 RETURNDATACOPY RETURNDATASIZE PUSH1 0x0 REVERT JUMPDEST POP POP POP POP PUSH1 0x40 MLOAD RETURNDATASIZE PUSH1 0x1F NOT PUSH1 0x1F DUP3 ADD AND DUP3 ADD DUP1 PUSH1 0x40 MSTORE POP DUP2 ADD SWAP1 PUSH2 0x923 SWAP2 SWAP1 PUSH2 0x20E3 JUMP JUMPDEST SWAP1 POP SWAP1 JUMP JUMPDEST PUSH1 0x0 PUSH2 0x933 DUP3 PUSH2 0xF8B JUMP JUMPDEST POP PUSH1 0x1 SWAP1 POP SWAP2 SWAP1 POP JUMP JUMPDEST PUSH1 0x0 DUP1 DUP3 GT PUSH2 0x981 JUMPI PUSH1 0x40 MLOAD PUSH32 0x8C379A000000000000000000000000000000000000000000000000000000000 DUP2 MSTORE PUSH1 0x4 ADD PUSH2 0x978 SWAP1 PUSH2 0x24FA JUMP JUMPDEST PUSH1 0x40 MLOAD DUP1 SWAP2 SUB SWAP1 REVERT JUMPDEST DUP2 DUP5 LT PUSH2 0x9C3 JUMPI PUSH1 0x40 MLOAD PUSH32 0x8C379A000000000000000000000000000000000000000000000000000000000 DUP2 MSTORE PUSH1 0x4 ADD PUSH2 0x9BA SWAP1 PUSH2 0x258C JUMP JUMPDEST PUSH1 0x40 MLOAD DUP1 SWAP2 SUB SWAP1 REVERT JUMPDEST PUSH2 0x9CC DUP3 PUSH2 0xFD1 JUMP JUMPDEST DUP4 MLOAD EQ PUSH2 0xA0E JUMPI PUSH1 0x40 MLOAD PUSH32 0x8C379A000000000000000000000000000000000000000000000000000000000 DUP2 MSTORE PUSH1 0x4 ADD PUSH2 0xA05 SWAP1 PUSH2 0x2644 JUMP JUMPDEST PUSH1 0x40 MLOAD DUP1 SWAP2 SUB SWAP1 REVERT JUMPDEST PUSH1 0x0 DUP6 SWAP1 POP PUSH1 0x0 JUMPDEST DUP5 MLOAD DUP2 LT ISZERO PUSH2 0xAD3 JUMPI PUSH1 0x1 DUP1 DUP8 AND SUB PUSH2 0xA73 JUMPI DUP5 DUP2 DUP2 MLOAD DUP2 LT PUSH2 0xA3C JUMPI PUSH2 0xA3B PUSH2 0x2664 JUMP JUMPDEST JUMPDEST PUSH1 0x20 MUL PUSH1 0x20 ADD ADD MLOAD DUP3 PUSH1 0x40 MLOAD PUSH1 0x20 ADD PUSH2 0xA56 SWAP3 SWAP2 SWAP1 PUSH2 0x26B4 JUMP JUMPDEST PUSH1 0x40 MLOAD PUSH1 0x20 DUP2 DUP4 SUB SUB DUP2 MSTORE SWAP1 PUSH1 0x40 MSTORE DUP1 MLOAD SWAP1 PUSH1 0x20 ADD KECCAK256 SWAP2 POP PUSH2 0xAB9 JUMP JUMPDEST DUP2 DUP6 DUP3 DUP2 MLOAD DUP2 LT PUSH2 0xA87 JUMPI PUSH2 0xA86 PUSH2 0x2664 JUMP JUMPDEST JUMPDEST PUSH1 0x20 MUL PUSH1 0x20 ADD ADD MLOAD PUSH1 0x40 MLOAD PUSH1 0x20 ADD PUSH2 0xAA0 SWAP3 SWAP2 SWAP1 PUSH2 0x26B4 JUMP JUMPDEST PUSH1 0x40 MLOAD PUSH1 0x20 DUP2 DUP4 SUB SUB DUP2 MSTORE SWAP1 PUSH1 0x40 MSTORE DUP1 MLOAD SWAP1 PUSH1 0x20 ADD KECCAK256 SWAP2 POP JUMPDEST PUSH1 0x1 DUP7 SWAP1 SHR SWAP6 POP DUP1 DUP1 PUSH2 0xACB SWAP1 PUSH2 0x26E0 JUMP JUMPDEST SWAP2 POP POP PUSH2 0xA16 JUMP JUMPDEST POP DUP1 DUP8 EQ SWAP2 POP POP SWAP6 SWAP5 POP POP POP POP POP JUMP JUMPDEST PUSH1 0x0 DUP1 PUSH1 0x0 PUSH2 0xAF0 PUSH2 0x883 JUMP JUMPDEST PUSH20 0xFFFFFFFFFFFFFFFFFFFFFFFFFFFFFFFFFFFFFFFF AND PUSH4 0xCCF8F969 PUSH1 0x40 MLOAD DUP2 PUSH4 0xFFFFFFFF AND PUSH1 0xE0 SHL DUP2 MSTORE PUSH1 0x4 ADD PUSH1 0x20 PUSH1 0x40 MLOAD DUP1 DUP4 SUB DUP2 DUP7 GAS STATICCALL ISZERO DUP1 ISZERO PUSH2 0xB3A JUMPI RETURNDATASIZE PUSH1 0x0 DUP1 RETURNDATACOPY RETURNDATASIZE PUSH1 0x0 REVERT JUMPDEST POP POP POP POP PUSH1 0x40 MLOAD RETURNDATASIZE PUSH1 0x1F NOT PUSH1 0x1F DUP3 ADD AND DUP3 ADD DUP1 PUSH1 0x40 MSTORE POP DUP2 ADD SWAP1 PUSH2 0xB5E SWAP2 SWAP1 PUSH2 0x2780 JUMP JUMPDEST SWAP1 POP PUSH1 0x0 DUP1 DUP3 PUSH1 0x28 SHR SWAP3 POP PUSH5 0xFFFFFFFFFF DUP4 AND SWAP2 POP PUSH32 0xFFFFFFFFFFFFFFFFFFFFFFFFFFFFFFFFFFFFFFFFFFFFFFFFFFFFFF0000000000 DUP4 AND PUSH1 0x28 SHR SWAP1 POP DUP2 DUP2 SWAP5 POP SWAP5 POP POP POP POP SWAP1 SWAP2 JUMP JUMPDEST PUSH1 0x0 PUSH2 0xBE8 PUSH1 0x40 MLOAD DUP1 PUSH1 0x40 ADD PUSH1 0x40 MSTORE DUP1 PUSH1 0xC DUP2 MSTORE PUSH1 0x20 ADD PUSH32 0x4F564D5F50726F706F7365720000000000000000000000000000000000000000 DUP2 MSTORE POP PUSH2 0x277 JUMP JUMPDEST SWAP1 POP PUSH1 0x0 DUP1 PUSH2 0xBF5 PUSH2 0xAE3 JUMP JUMPDEST SWAP2 POP SWAP2 POP DUP3 PUSH20 0xFFFFFFFFFFFFFFFFFFFFFFFFFFFFFFFFFFFFFFFF AND CALLER PUSH20 0xFFFFFFFFFFFFFFFFFFFFFFFFFFFFFFFFFFFFFFFF AND SUB PUSH2 0xC34 JUMPI TIMESTAMP SWAP1 POP PUSH2 0xC8B JUMP JUMPDEST TIMESTAMP PUSH1 0x2 SLOAD DUP3 PUSH5 0xFFFFFFFFFF AND PUSH2 0xC4A SWAP2 SWAP1 PUSH2 0x213F JUMP JUMPDEST LT PUSH2 0xC8A JUMPI PUSH1 0x40 MLOAD PUSH32 0x8C379A000000000000000000000000000000000000000000000000000000000 DUP2 MSTORE PUSH1 0x4 ADD PUSH2 0xC81 SWAP1 PUSH2 0x2845 JUMP JUMPDEST PUSH1 0x40 MLOAD DUP1 SWAP2 SUB SWAP1 REVERT JUMPDEST JUMPDEST PUSH1 0x0 PUSH1 0x40 MLOAD DUP1 PUSH1 0xA0 ADD PUSH1 0x40 MSTORE DUP1 PUSH2 0xCA0 PUSH2 0x8AB JUMP JUMPDEST DUP2 MSTORE PUSH1 0x20 ADD PUSH2 0xCAE DUP9 PUSH2 0x10A0 JUMP JUMPDEST DUP2 MSTORE PUSH1 0x20 ADD DUP8 MLOAD DUP2 MSTORE PUSH1 0x20 ADD DUP5 PUSH5 0xFFFFFFFFFF AND DUP2 MSTORE PUSH1 0x20 ADD DUP7 DUP2 MSTORE POP SWAP1 POP DUP1 PUSH1 0x0 ADD MLOAD PUSH32 0x16BE4C5129A4E03CF3350262E181DC02DDFB4A6008D925368C0899FCD97CA9C5 DUP3 PUSH1 0x20 ADD MLOAD DUP4 PUSH1 0x40 ADD MLOAD DUP5 PUSH1 0x60 ADD MLOAD DUP6 PUSH1 0x80 ADD MLOAD PUSH1 0x40 MLOAD PUSH2 0xD17 SWAP5 SWAP4 SWAP3 SWAP2 SWAP1 PUSH2 0x28C9 JUMP JUMPDEST PUSH1 0x40 MLOAD DUP1 SWAP2 SUB SWAP1 LOG2 PUSH2 0xD27 PUSH2 0x883 JUMP JUMPDEST PUSH20 0xFFFFFFFFFFFFFFFFFFFFFFFFFFFFFFFFFFFFFFFF AND PUSH4 0x2015276C PUSH2 0xD4B DUP4 PUSH2 0xF8B JUMP JUMPDEST PUSH2 0xD68 DUP5 PUSH1 0x40 ADD MLOAD DUP6 PUSH1 0x60 ADD MLOAD PUSH2 0xD62 SWAP2 SWAP1 PUSH2 0x213F JUMP JUMPDEST DUP7 PUSH2 0x1597 JUMP JUMPDEST PUSH1 0x40 MLOAD DUP4 PUSH4 0xFFFFFFFF AND PUSH1 0xE0 SHL DUP2 MSTORE PUSH1 0x4 ADD PUSH2 0xD85 SWAP3 SWAP2 SWAP1 PUSH2 0x2924 JUMP JUMPDEST PUSH1 0x0 PUSH1 0x40 MLOAD DUP1 DUP4 SUB DUP2 PUSH1 0x0 DUP8 DUP1 EXTCODESIZE ISZERO DUP1 ISZERO PUSH2 0xD9F JUMPI PUSH1 0x0 DUP1 REVERT JUMPDEST POP GAS CALL ISZERO DUP1 ISZERO PUSH2 0xDB3 JUMPI RETURNDATASIZE PUSH1 0x0 DUP1 RETURNDATACOPY RETURNDATASIZE PUSH1 0x0 REVERT JUMPDEST POP POP POP POP POP POP POP POP POP POP JUMP JUMPDEST PUSH2 0xDC7 PUSH2 0x883 JUMP JUMPDEST PUSH20 0xFFFFFFFFFFFFFFFFFFFFFFFFFFFFFFFFFFFFFFFF AND PUSH4 0x1F7B6D32 PUSH1 0x40 MLOAD DUP2 PUSH4 0xFFFFFFFF AND PUSH1 0xE0 SHL DUP2 MSTORE PUSH1 0x4 ADD PUSH1 0x20 PUSH1 0x40 MLOAD DUP1 DUP4 SUB DUP2 DUP7 GAS STATICCALL ISZERO DUP1 ISZERO PUSH2 0xE11 JUMPI RETURNDATASIZE PUSH1 0x0 DUP1 RETURNDATACOPY RETURNDATASIZE PUSH1 0x0 REVERT JUMPDEST POP POP POP POP PUSH1 0x40 MLOAD RETURNDATASIZE PUSH1 0x1F NOT PUSH1 0x1F DUP3 ADD AND DUP3 ADD DUP1 PUSH1 0x40 MSTORE POP DUP2 ADD SWAP1 PUSH2 0xE35 SWAP2 SWAP1 PUSH2 0x20E3 JUMP JUMPDEST DUP2 PUSH1 0x0 ADD MLOAD LT PUSH2 0xE7A JUMPI PUSH1 0x40 MLOAD PUSH32 0x8C379A000000000000000000000000000000000000000000000000000000000 DUP2 MSTORE PUSH1 0x4 ADD PUSH2 0xE71 SWAP1 PUSH2 0x2999 JUMP JUMPDEST PUSH1 0x40 MLOAD DUP1 SWAP2 SUB SWAP1 REVERT JUMPDEST PUSH2 0xE83 DUP2 PUSH2 0x928 JUMP JUMPDEST PUSH2 0xEC2 JUMPI PUSH1 0x40 MLOAD PUSH32 0x8C379A000000000000000000000000000000000000000000000000000000000 DUP2 MSTORE PUSH1 0x4 ADD PUSH2 0xEB9 SWAP1 PUSH2 0x1E33 JUMP JUMPDEST PUSH1 0x40 MLOAD DUP1 SWAP2 SUB SWAP1 REVERT JUMPDEST PUSH2 0xECA PUSH2 0x883 JUMP JUMPDEST PUSH20 0xFFFFFFFFFFFFFFFFFFFFFFFFFFFFFFFFFFFFFFFF AND PUSH4 0x167FD681 DUP3 PUSH1 0x0 ADD MLOAD PUSH2 0xEF9 DUP5 PUSH1 0x60 ADD MLOAD PUSH1 0x0 PUSH2 0x1597 JUMP JUMPDEST PUSH1 0x40 MLOAD DUP4 PUSH4 0xFFFFFFFF AND PUSH1 0xE0 SHL DUP2 MSTORE PUSH1 0x4 ADD PUSH2 0xF16 SWAP3 SWAP2 SWAP1 PUSH2 0x29B9 JUMP JUMPDEST PUSH1 0x0 PUSH1 0x40 MLOAD DUP1 DUP4 SUB DUP2 PUSH1 0x0 DUP8 DUP1 EXTCODESIZE ISZERO DUP1 ISZERO PUSH2 0xF30 JUMPI PUSH1 0x0 DUP1 REVERT JUMPDEST POP GAS CALL ISZERO DUP1 ISZERO PUSH2 0xF44 JUMPI RETURNDATASIZE PUSH1 0x0 DUP1 RETURNDATACOPY RETURNDATASIZE PUSH1 0x0 REVERT JUMPDEST POP POP POP POP DUP1 PUSH1 0x0 ADD MLOAD PUSH32 0x8747B69CE8FDB31C3B9B0A67BD8049AD8C1A69EA417B69B12174068ABD9CBD64 DUP3 PUSH1 0x20 ADD MLOAD PUSH1 0x40 MLOAD PUSH2 0xF80 SWAP2 SWAP1 PUSH2 0x29E2 JUMP JUMPDEST PUSH1 0x40 MLOAD DUP1 SWAP2 SUB SWAP1 LOG2 POP JUMP JUMPDEST PUSH1 0x0 DUP2 PUSH1 0x20 ADD MLOAD DUP3 PUSH1 0x40 ADD MLOAD DUP4 PUSH1 0x60 ADD MLOAD DUP5 PUSH1 0x80 ADD MLOAD PUSH1 0x40 MLOAD PUSH1 0x20 ADD PUSH2 0xFB4 SWAP5 SWAP4 SWAP3 SWAP2 SWAP1 PUSH2 0x28C9 JUMP JUMPDEST PUSH1 0x40 MLOAD PUSH1 0x20 DUP2 DUP4 SUB SUB DUP2 MSTORE SWAP1 PUSH1 0x40 MSTORE DUP1 MLOAD SWAP1 PUSH1 0x20 ADD KECCAK256 SWAP1 POP SWAP2 SWAP1 POP JUMP JUMPDEST PUSH1 0x0 DUP1 DUP3 GT PUSH2 0x1015 JUMPI PUSH1 0x40 MLOAD PUSH32 0x8C379A000000000000000000000000000000000000000000000000000000000 DUP2 MSTORE PUSH1 0x4 ADD PUSH2 0x100C SWAP1 PUSH2 0x2A6F JUMP JUMPDEST PUSH1 0x40 MLOAD DUP1 SWAP2 SUB SWAP1 REVERT JUMPDEST PUSH1 0x1 DUP3 SUB PUSH2 0x1026 JUMPI PUSH1 0x0 SWAP1 POP PUSH2 0x109B JUMP JUMPDEST PUSH1 0x0 DUP3 SWAP1 POP PUSH1 0x0 DUP1 PUSH1 0x80 SWAP1 POP JUMPDEST PUSH1 0x1 DUP2 LT PUSH2 0x1079 JUMPI PUSH1 0x0 DUP2 PUSH1 0x1 DUP4 PUSH1 0x1 SWAP1 SHL PUSH2 0x104F SWAP2 SWAP1 PUSH2 0x2A8F JUMP JUMPDEST SWAP1 SHL DUP5 AND EQ PUSH2 0x106D JUMPI DUP1 DUP3 PUSH2 0x1064 SWAP2 SWAP1 PUSH2 0x213F JUMP JUMPDEST SWAP2 POP DUP1 DUP4 SWAP1 SHR SWAP3 POP JUMPDEST PUSH1 0x1 DUP2 SWAP1 SHR SWAP1 POP PUSH2 0x1033 JUMP JUMPDEST POP DUP4 DUP2 PUSH1 0x1 SWAP1 SHL EQ PUSH2 0x1095 JUMPI PUSH1 0x1 DUP2 PUSH2 0x1092 SWAP2 SWAP1 PUSH2 0x213F JUMP JUMPDEST SWAP1 POP JUMPDEST DUP1 SWAP3 POP POP POP JUMPDEST SWAP2 SWAP1 POP JUMP JUMPDEST PUSH1 0x0 DUP1 DUP3 MLOAD GT PUSH2 0x10E5 JUMPI PUSH1 0x40 MLOAD PUSH32 0x8C379A000000000000000000000000000000000000000000000000000000000 DUP2 MSTORE PUSH1 0x4 ADD PUSH2 0x10DC SWAP1 PUSH2 0x2B35 JUMP JUMPDEST PUSH1 0x40 MLOAD DUP1 SWAP2 SUB SWAP1 REVERT JUMPDEST PUSH1 0x1 DUP3 MLOAD SUB PUSH2 0x1111 JUMPI DUP2 PUSH1 0x0 DUP2 MLOAD DUP2 LT PUSH2 0x1102 JUMPI PUSH2 0x1101 PUSH2 0x2664 JUMP JUMPDEST JUMPDEST PUSH1 0x20 MUL PUSH1 0x20 ADD ADD MLOAD SWAP1 POP PUSH2 0x1592 JUMP JUMPDEST PUSH1 0x0 PUSH1 0x40 MLOAD DUP1 PUSH2 0x200 ADD PUSH1 0x40 MSTORE DUP1 PUSH32 0x290DECD9548B62A8D60345A988386FC84BA6BC95484008F6362F93160EF3E563 DUP2 MSTORE PUSH1 0x20 ADD PUSH32 0x633DC4D7DA7256660A892F8F1604A44B5432649CC8EC5CB3CED4C4E6AC94DD1D DUP2 MSTORE PUSH1 0x20 ADD PUSH32 0x890740A8EB06CE9BE422CB8DA5CDAFC2B58C0A5E24036C578DE2A433C828FF7D DUP2 MSTORE PUSH1 0x20 ADD PUSH32 0x3B8EC09E026FDC305365DFC94E189A81B38C7597B3D941C279F042E8206E0BD8 DUP2 MSTORE PUSH1 0x20 ADD PUSH32 0xECD50EEE38E386BD62BE9BEDB990706951B65FE053BD9D8A521AF753D139E2DA DUP2 MSTORE PUSH1 0x20 ADD PUSH32 0xDEFFF6D330BB5403F63B14F33B578274160DE3A50DF4EFECF0E0DB73BCDD3DA5 DUP2 MSTORE PUSH1 0x20 ADD PUSH32 0x617BDD11F7C0A11F49DB22F629387A12DA7596F9D1704D7465177C63D88EC7D7 DUP2 MSTORE PUSH1 0x20 ADD PUSH32 0x292C23A9AA1D8BEA7E2435E555A4A60E379A5A35F3F452BAE60121073FB6EEAD DUP2 MSTORE PUSH1 0x20 ADD PUSH32 0xE1CEA92ED99ACDCB045A6726B2F87107E8A61620A232CF4D7D5B5766B3952E10 DUP2 MSTORE PUSH1 0x20 ADD PUSH32 0x7AD66C0A68C72CB89E4FB4303841966E4062A76AB97451E3B9FB526A5CEB7F82 DUP2 MSTORE PUSH1 0x20 ADD PUSH32 0xE026CC5A4AED3C22A58CBD3D2AC754C9352C5436F638042DCA99034E83636516 DUP2 MSTORE PUSH1 0x20 ADD PUSH32 0x3D04CFFD8B46A874EDF5CFAE63077DE85F849A660426697B06A829C70DD1409C DUP2 MSTORE PUSH1 0x20 ADD PUSH32 0xAD676AA337A485E4728A0B240D92B3EF7B3C372D06D189322BFD5F61F1E7203E DUP2 MSTORE PUSH1 0x20 ADD PUSH32 0xA2FCA4A49658F9FAB7AA63289C91B7C7B6C832A6D0E69334FF5B0A3483D09DAB DUP2 MSTORE PUSH1 0x20 ADD PUSH32 0x4EBFD9CD7BCA2505F7BEF59CC1C12ECC708FFF26AE4AF19ABE852AFE9E20C862 DUP2 MSTORE PUSH1 0x20 ADD PUSH32 0x2DEF10D13DD169F550F578BDA343D9717A138562E0093B380A1120789D53CF10 DUP2 MSTORE POP SWAP1 POP PUSH1 0x0 PUSH1 0x40 PUSH8 0xFFFFFFFFFFFFFFFF DUP2 GT ISZERO PUSH2 0x139C JUMPI PUSH2 0x139B PUSH2 0x167E JUMP JUMPDEST JUMPDEST PUSH1 0x40 MLOAD SWAP1 DUP1 DUP3 MSTORE DUP1 PUSH1 0x1F ADD PUSH1 0x1F NOT AND PUSH1 0x20 ADD DUP3 ADD PUSH1 0x40 MSTORE DUP1 ISZERO PUSH2 0x13CE JUMPI DUP2 PUSH1 0x20 ADD PUSH1 0x1 DUP3 MUL DUP1 CALLDATASIZE DUP4 CALLDATACOPY DUP1 DUP3 ADD SWAP2 POP POP SWAP1 POP JUMPDEST POP SWAP1 POP PUSH1 0x0 DUP1 PUSH1 0x0 DUP7 MLOAD SWAP1 POP PUSH1 0x0 DUP1 DUP1 JUMPDEST PUSH1 0x1 DUP5 GT ISZERO PUSH2 0x156B JUMPI PUSH1 0x2 DUP5 PUSH2 0x13F5 SWAP2 SWAP1 PUSH2 0x2B84 JUMP JUMPDEST SWAP2 POP PUSH1 0x1 PUSH1 0x2 DUP6 PUSH2 0x1406 SWAP2 SWAP1 PUSH2 0x2BB5 JUMP JUMPDEST EQ SWAP1 POP PUSH1 0x0 JUMPDEST DUP3 DUP2 LT ISZERO PUSH2 0x14B8 JUMPI DUP11 DUP2 PUSH1 0x2 PUSH2 0x1422 SWAP2 SWAP1 PUSH2 0x2BE6 JUMP JUMPDEST DUP2 MLOAD DUP2 LT PUSH2 0x1433 JUMPI PUSH2 0x1432 PUSH2 0x2664 JUMP JUMPDEST JUMPDEST PUSH1 0x20 MUL PUSH1 0x20 ADD ADD MLOAD SWAP7 POP DUP11 PUSH1 0x1 DUP3 PUSH1 0x2 PUSH2 0x144D SWAP2 SWAP1 PUSH2 0x2BE6 JUMP JUMPDEST PUSH2 0x1457 SWAP2 SWAP1 PUSH2 0x213F JUMP JUMPDEST DUP2 MLOAD DUP2 LT PUSH2 0x1468 JUMPI PUSH2 0x1467 PUSH2 0x2664 JUMP JUMPDEST JUMPDEST PUSH1 0x20 MUL PUSH1 0x20 ADD ADD MLOAD SWAP6 POP DUP7 PUSH1 0x20 DUP10 ADD MSTORE DUP6 PUSH1 0x40 DUP10 ADD MSTORE DUP8 DUP1 MLOAD SWAP1 PUSH1 0x20 ADD KECCAK256 DUP12 DUP3 DUP2 MLOAD DUP2 LT PUSH2 0x1499 JUMPI PUSH2 0x1498 PUSH2 0x2664 JUMP JUMPDEST JUMPDEST PUSH1 0x20 MUL PUSH1 0x20 ADD ADD DUP2 DUP2 MSTORE POP POP DUP1 DUP1 PUSH2 0x14B0 SWAP1 PUSH2 0x26E0 JUMP JUMPDEST SWAP2 POP POP PUSH2 0x140C JUMP JUMPDEST POP DUP1 ISZERO PUSH2 0x1539 JUMPI DUP10 PUSH1 0x1 DUP6 PUSH2 0x14CD SWAP2 SWAP1 PUSH2 0x2A8F JUMP JUMPDEST DUP2 MLOAD DUP2 LT PUSH2 0x14DE JUMPI PUSH2 0x14DD PUSH2 0x2664 JUMP JUMPDEST JUMPDEST PUSH1 0x20 MUL PUSH1 0x20 ADD ADD MLOAD SWAP6 POP DUP8 DUP4 PUSH1 0x10 DUP2 LT PUSH2 0x14FB JUMPI PUSH2 0x14FA PUSH2 0x2664 JUMP JUMPDEST JUMPDEST PUSH1 0x20 MUL ADD MLOAD PUSH1 0x0 SHL SWAP5 POP DUP6 PUSH1 0x20 DUP9 ADD MSTORE DUP5 PUSH1 0x40 DUP9 ADD MSTORE DUP7 DUP1 MLOAD SWAP1 PUSH1 0x20 ADD KECCAK256 DUP11 DUP4 DUP2 MLOAD DUP2 LT PUSH2 0x152C JUMPI PUSH2 0x152B PUSH2 0x2664 JUMP JUMPDEST JUMPDEST PUSH1 0x20 MUL PUSH1 0x20 ADD ADD DUP2 DUP2 MSTORE POP POP JUMPDEST DUP1 PUSH2 0x1545 JUMPI PUSH1 0x0 PUSH2 0x1548 JUMP JUMPDEST PUSH1 0x1 JUMPDEST PUSH1 0xFF AND DUP3 PUSH2 0x1556 SWAP2 SWAP1 PUSH2 0x213F JUMP JUMPDEST SWAP4 POP DUP3 DUP1 PUSH2 0x1563 SWAP1 PUSH2 0x26E0 JUMP JUMPDEST SWAP4 POP POP PUSH2 0x13DF JUMP JUMPDEST DUP10 PUSH1 0x0 DUP2 MLOAD DUP2 LT PUSH2 0x157F JUMPI PUSH2 0x157E PUSH2 0x2664 JUMP JUMPDEST JUMPDEST PUSH1 0x20 MUL PUSH1 0x20 ADD ADD MLOAD SWAP9 POP POP POP POP POP POP POP POP POP JUMPDEST SWAP2 SWAP1 POP JUMP JUMPDEST PUSH1 0x0 DUP1 DUP4 SWAP1 POP DUP3 PUSH1 0x28 SHL DUP2 OR SWAP1 POP DUP1 PUSH1 0x28 SHL SWAP1 POP DUP1 SWAP2 POP POP SWAP3 SWAP2 POP POP JUMP JUMPDEST PUSH1 0x0 PUSH20 0xFFFFFFFFFFFFFFFFFFFFFFFFFFFFFFFFFFFFFFFF DUP3 AND SWAP1 POP SWAP2 SWAP1 POP JUMP JUMPDEST PUSH1 0x0 DUP2 SWAP1 POP SWAP2 SWAP1 POP JUMP JUMPDEST PUSH1 0x0 PUSH2 0x15FA PUSH2 0x15F5 PUSH2 0x15F0 DUP5 PUSH2 0x15B5 JUMP JUMPDEST PUSH2 0x15D5 JUMP JUMPDEST PUSH2 0x15B5 JUMP JUMPDEST SWAP1 POP SWAP2 SWAP1 POP JUMP JUMPDEST PUSH1 0x0 PUSH2 0x160C DUP3 PUSH2 0x15DF JUMP JUMPDEST SWAP1 POP SWAP2 SWAP1 POP JUMP JUMPDEST PUSH1 0x0 PUSH2 0x161E DUP3 PUSH2 0x1601 JUMP JUMPDEST SWAP1 POP SWAP2 SWAP1 POP JUMP JUMPDEST PUSH2 0x162E DUP2 PUSH2 0x1613 JUMP JUMPDEST DUP3 MSTORE POP POP JUMP JUMPDEST PUSH1 0x0 PUSH1 0x20 DUP3 ADD SWAP1 POP PUSH2 0x1649 PUSH1 0x0 DUP4 ADD DUP5 PUSH2 0x1625 JUMP JUMPDEST SWAP3 SWAP2 POP POP JUMP JUMPDEST PUSH1 0x0 PUSH1 0x40 MLOAD SWAP1 POP SWAP1 JUMP JUMPDEST PUSH1 0x0 DUP1 REVERT JUMPDEST PUSH1 0x0 DUP1 REVERT JUMPDEST PUSH1 0x0 DUP1 REVERT JUMPDEST PUSH1 0x0 DUP1 REVERT JUMPDEST PUSH1 0x0 PUSH1 0x1F NOT PUSH1 0x1F DUP4 ADD AND SWAP1 POP SWAP2 SWAP1 POP JUMP JUMPDEST PUSH32 0x4E487B7100000000000000000000000000000000000000000000000000000000 PUSH1 0x0 MSTORE PUSH1 0x41 PUSH1 0x4 MSTORE PUSH1 0x24 PUSH1 0x0 REVERT JUMPDEST PUSH2 0x16B6 DUP3 PUSH2 0x166D JUMP JUMPDEST DUP2 ADD DUP2 DUP2 LT PUSH8 0xFFFFFFFFFFFFFFFF DUP3 GT OR ISZERO PUSH2 0x16D5 JUMPI PUSH2 0x16D4 PUSH2 0x167E JUMP JUMPDEST JUMPDEST DUP1 PUSH1 0x40 MSTORE POP POP POP JUMP JUMPDEST PUSH1 0x0 PUSH2 0x16E8 PUSH2 0x164F JUMP JUMPDEST SWAP1 POP PUSH2 0x16F4 DUP3 DUP3 PUSH2 0x16AD JUMP JUMPDEST SWAP2 SWAP1 POP JUMP JUMPDEST PUSH1 0x0 PUSH8 0xFFFFFFFFFFFFFFFF DUP3 GT ISZERO PUSH2 0x1714 JUMPI PUSH2 0x1713 PUSH2 0x167E JUMP JUMPDEST JUMPDEST PUSH2 0x171D DUP3 PUSH2 0x166D JUMP JUMPDEST SWAP1 POP PUSH1 0x20 DUP2 ADD SWAP1 POP SWAP2 SWAP1 POP JUMP JUMPDEST DUP3 DUP2 DUP4 CALLDATACOPY PUSH1 0x0 DUP4 DUP4 ADD MSTORE POP POP POP JUMP JUMPDEST PUSH1 0x0 PUSH2 0x174C PUSH2 0x1747 DUP5 PUSH2 0x16F9 JUMP JUMPDEST PUSH2 0x16DE JUMP JUMPDEST SWAP1 POP DUP3 DUP2 MSTORE PUSH1 0x20 DUP2 ADD DUP5 DUP5 DUP5 ADD GT ISZERO PUSH2 0x1768 JUMPI PUSH2 0x1767 PUSH2 0x1668 JUMP JUMPDEST JUMPDEST PUSH2 0x1773 DUP5 DUP3 DUP6 PUSH2 0x172A JUMP JUMPDEST POP SWAP4 SWAP3 POP POP POP JUMP JUMPDEST PUSH1 0x0 DUP3 PUSH1 0x1F DUP4 ADD SLT PUSH2 0x1790 JUMPI PUSH2 0x178F PUSH2 0x1663 JUMP JUMPDEST JUMPDEST DUP2 CALLDATALOAD PUSH2 0x17A0 DUP5 DUP3 PUSH1 0x20 DUP7 ADD PUSH2 0x1739 JUMP JUMPDEST SWAP2 POP POP SWAP3 SWAP2 POP POP JUMP JUMPDEST PUSH1 0x0 PUSH1 0x20 DUP3 DUP5 SUB SLT ISZERO PUSH2 0x17BF JUMPI PUSH2 0x17BE PUSH2 0x1659 JUMP JUMPDEST JUMPDEST PUSH1 0x0 DUP3 ADD CALLDATALOAD PUSH8 0xFFFFFFFFFFFFFFFF DUP2 GT ISZERO PUSH2 0x17DD JUMPI PUSH2 0x17DC PUSH2 0x165E JUMP JUMPDEST JUMPDEST PUSH2 0x17E9 DUP5 DUP3 DUP6 ADD PUSH2 0x177B JUMP JUMPDEST SWAP2 POP POP SWAP3 SWAP2 POP POP JUMP JUMPDEST PUSH1 0x0 PUSH2 0x17FD DUP3 PUSH2 0x15B5 JUMP JUMPDEST SWAP1 POP SWAP2 SWAP1 POP JUMP JUMPDEST PUSH2 0x180D DUP2 PUSH2 0x17F2 JUMP JUMPDEST DUP3 MSTORE POP POP JUMP JUMPDEST PUSH1 0x0 PUSH1 0x20 DUP3 ADD SWAP1 POP PUSH2 0x1828 PUSH1 0x0 DUP4 ADD DUP5 PUSH2 0x1804 JUMP JUMPDEST SWAP3 SWAP2 POP POP JUMP JUMPDEST PUSH1 0x0 DUP2 SWAP1 POP SWAP2 SWAP1 POP JUMP JUMPDEST PUSH2 0x1841 DUP2 PUSH2 0x182E JUMP JUMPDEST DUP2 EQ PUSH2 0x184C JUMPI PUSH1 0x0 DUP1 REVERT JUMPDEST POP JUMP JUMPDEST PUSH1 0x0 DUP2 CALLDATALOAD SWAP1 POP PUSH2 0x185E DUP2 PUSH2 0x1838 JUMP JUMPDEST SWAP3 SWAP2 POP POP JUMP JUMPDEST PUSH1 0x0 DUP1 REVERT JUMPDEST PUSH1 0x0 DUP1 REVERT JUMPDEST PUSH1 0x0 DUP2 SWAP1 POP SWAP2 SWAP1 POP JUMP JUMPDEST PUSH2 0x1881 DUP2 PUSH2 0x186E JUMP JUMPDEST DUP2 EQ PUSH2 0x188C JUMPI PUSH1 0x0 DUP1 REVERT JUMPDEST POP JUMP JUMPDEST PUSH1 0x0 DUP2 CALLDATALOAD SWAP1 POP PUSH2 0x189E DUP2 PUSH2 0x1878 JUMP JUMPDEST SWAP3 SWAP2 POP POP JUMP JUMPDEST PUSH1 0x0 PUSH8 0xFFFFFFFFFFFFFFFF DUP3 GT ISZERO PUSH2 0x18BF JUMPI PUSH2 0x18BE PUSH2 0x167E JUMP JUMPDEST JUMPDEST PUSH2 0x18C8 DUP3 PUSH2 0x166D JUMP JUMPDEST SWAP1 POP PUSH1 0x20 DUP2 ADD SWAP1 POP SWAP2 SWAP1 POP JUMP JUMPDEST PUSH1 0x0 PUSH2 0x18E8 PUSH2 0x18E3 DUP5 PUSH2 0x18A4 JUMP JUMPDEST PUSH2 0x16DE JUMP JUMPDEST SWAP1 POP DUP3 DUP2 MSTORE PUSH1 0x20 DUP2 ADD DUP5 DUP5 DUP5 ADD GT ISZERO PUSH2 0x1904 JUMPI PUSH2 0x1903 PUSH2 0x1668 JUMP JUMPDEST JUMPDEST PUSH2 0x190F DUP5 DUP3 DUP6 PUSH2 0x172A JUMP JUMPDEST POP SWAP4 SWAP3 POP POP POP JUMP JUMPDEST PUSH1 0x0 DUP3 PUSH1 0x1F DUP4 ADD SLT PUSH2 0x192C JUMPI PUSH2 0x192B PUSH2 0x1663 JUMP JUMPDEST JUMPDEST DUP2 CALLDATALOAD PUSH2 0x193C DUP5 DUP3 PUSH1 0x20 DUP7 ADD PUSH2 0x18D5 JUMP JUMPDEST SWAP2 POP POP SWAP3 SWAP2 POP POP JUMP JUMPDEST PUSH1 0x0 PUSH1 0xA0 DUP3 DUP5 SUB SLT ISZERO PUSH2 0x195B JUMPI PUSH2 0x195A PUSH2 0x1864 JUMP JUMPDEST JUMPDEST PUSH2 0x1965 PUSH1 0xA0 PUSH2 0x16DE JUMP JUMPDEST SWAP1 POP PUSH1 0x0 PUSH2 0x1975 DUP5 DUP3 DUP6 ADD PUSH2 0x188F JUMP JUMPDEST PUSH1 0x0 DUP4 ADD MSTORE POP PUSH1 0x20 PUSH2 0x1989 DUP5 DUP3 DUP6 ADD PUSH2 0x184F JUMP JUMPDEST PUSH1 0x20 DUP4 ADD MSTORE POP PUSH1 0x40 PUSH2 0x199D DUP5 DUP3 DUP6 ADD PUSH2 0x188F JUMP JUMPDEST PUSH1 0x40 DUP4 ADD MSTORE POP PUSH1 0x60 PUSH2 0x19B1 DUP5 DUP3 DUP6 ADD PUSH2 0x188F JUMP JUMPDEST PUSH1 0x60 DUP4 ADD MSTORE POP PUSH1 0x80 DUP3 ADD CALLDATALOAD PUSH8 0xFFFFFFFFFFFFFFFF DUP2 GT ISZERO PUSH2 0x19D5 JUMPI PUSH2 0x19D4 PUSH2 0x1869 JUMP JUMPDEST JUMPDEST PUSH2 0x19E1 DUP5 DUP3 DUP6 ADD PUSH2 0x1917 JUMP JUMPDEST PUSH1 0x80 DUP4 ADD MSTORE POP SWAP3 SWAP2 POP POP JUMP JUMPDEST PUSH1 0x0 PUSH8 0xFFFFFFFFFFFFFFFF DUP3 GT ISZERO PUSH2 0x1A08 JUMPI PUSH2 0x1A07 PUSH2 0x167E JUMP JUMPDEST JUMPDEST PUSH1 0x20 DUP3 MUL SWAP1 POP PUSH1 0x20 DUP2 ADD SWAP1 POP SWAP2 SWAP1 POP JUMP JUMPDEST PUSH1 0x0 DUP1 REVERT JUMPDEST PUSH1 0x0 PUSH2 0x1A31 PUSH2 0x1A2C DUP5 PUSH2 0x19ED JUMP JUMPDEST PUSH2 0x16DE JUMP JUMPDEST SWAP1 POP DUP1 DUP4 DUP3 MSTORE PUSH1 0x20 DUP3 ADD SWAP1 POP PUSH1 0x20 DUP5 MUL DUP4 ADD DUP6 DUP2 GT ISZERO PUSH2 0x1A54 JUMPI PUSH2 0x1A53 PUSH2 0x1A19 JUMP JUMPDEST JUMPDEST DUP4 JUMPDEST DUP2 DUP2 LT ISZERO PUSH2 0x1A7D JUMPI DUP1 PUSH2 0x1A69 DUP9 DUP3 PUSH2 0x184F JUMP JUMPDEST DUP5 MSTORE PUSH1 0x20 DUP5 ADD SWAP4 POP POP PUSH1 0x20 DUP2 ADD SWAP1 POP PUSH2 0x1A56 JUMP JUMPDEST POP POP POP SWAP4 SWAP3 POP POP POP JUMP JUMPDEST PUSH1 0x0 DUP3 PUSH1 0x1F DUP4 ADD SLT PUSH2 0x1A9C JUMPI PUSH2 0x1A9B PUSH2 0x1663 JUMP JUMPDEST JUMPDEST DUP2 CALLDATALOAD PUSH2 0x1AAC DUP5 DUP3 PUSH1 0x20 DUP7 ADD PUSH2 0x1A1E JUMP JUMPDEST SWAP2 POP POP SWAP3 SWAP2 POP POP JUMP JUMPDEST PUSH1 0x0 PUSH1 0x40 DUP3 DUP5 SUB SLT ISZERO PUSH2 0x1ACB JUMPI PUSH2 0x1ACA PUSH2 0x1864 JUMP JUMPDEST JUMPDEST PUSH2 0x1AD5 PUSH1 0x40 PUSH2 0x16DE JUMP JUMPDEST SWAP1 POP PUSH1 0x0 PUSH2 0x1AE5 DUP5 DUP3 DUP6 ADD PUSH2 0x188F JUMP JUMPDEST PUSH1 0x0 DUP4 ADD MSTORE POP PUSH1 0x20 DUP3 ADD CALLDATALOAD PUSH8 0xFFFFFFFFFFFFFFFF DUP2 GT ISZERO PUSH2 0x1B09 JUMPI PUSH2 0x1B08 PUSH2 0x1869 JUMP JUMPDEST JUMPDEST PUSH2 0x1B15 DUP5 DUP3 DUP6 ADD PUSH2 0x1A87 JUMP JUMPDEST PUSH1 0x20 DUP4 ADD MSTORE POP SWAP3 SWAP2 POP POP JUMP JUMPDEST PUSH1 0x0 DUP1 PUSH1 0x0 PUSH1 0x60 DUP5 DUP7 SUB SLT ISZERO PUSH2 0x1B3A JUMPI PUSH2 0x1B39 PUSH2 0x1659 JUMP JUMPDEST JUMPDEST PUSH1 0x0 PUSH2 0x1B48 DUP7 DUP3 DUP8 ADD PUSH2 0x184F JUMP JUMPDEST SWAP4 POP POP PUSH1 0x20 DUP5 ADD CALLDATALOAD PUSH8 0xFFFFFFFFFFFFFFFF DUP2 GT ISZERO PUSH2 0x1B69 JUMPI PUSH2 0x1B68 PUSH2 0x165E JUMP JUMPDEST JUMPDEST PUSH2 0x1B75 DUP7 DUP3 DUP8 ADD PUSH2 0x1945 JUMP JUMPDEST SWAP3 POP POP PUSH1 0x40 DUP5 ADD CALLDATALOAD PUSH8 0xFFFFFFFFFFFFFFFF DUP2 GT ISZERO PUSH2 0x1B96 JUMPI PUSH2 0x1B95 PUSH2 0x165E JUMP JUMPDEST JUMPDEST PUSH2 0x1BA2 DUP7 DUP3 DUP8 ADD PUSH2 0x1AB5 JUMP JUMPDEST SWAP2 POP POP SWAP3 POP SWAP3 POP SWAP3 JUMP JUMPDEST PUSH1 0x0 DUP2 ISZERO ISZERO SWAP1 POP SWAP2 SWAP1 POP JUMP JUMPDEST PUSH2 0x1BC1 DUP2 PUSH2 0x1BAC JUMP JUMPDEST DUP3 MSTORE POP POP JUMP JUMPDEST PUSH1 0x0 PUSH1 0x20 DUP3 ADD SWAP1 POP PUSH2 0x1BDC PUSH1 0x0 DUP4 ADD DUP5 PUSH2 0x1BB8 JUMP JUMPDEST SWAP3 SWAP2 POP POP JUMP JUMPDEST PUSH2 0x1BEB DUP2 PUSH2 0x186E JUMP JUMPDEST DUP3 MSTORE POP POP JUMP JUMPDEST PUSH1 0x0 PUSH1 0x20 DUP3 ADD SWAP1 POP PUSH2 0x1C06 PUSH1 0x0 DUP4 ADD DUP5 PUSH2 0x1BE2 JUMP JUMPDEST SWAP3 SWAP2 POP POP JUMP JUMPDEST PUSH1 0x0 DUP1 PUSH1 0x40 DUP4 DUP6 SUB SLT ISZERO PUSH2 0x1C23 JUMPI PUSH2 0x1C22 PUSH2 0x1659 JUMP JUMPDEST JUMPDEST PUSH1 0x0 DUP4 ADD CALLDATALOAD PUSH8 0xFFFFFFFFFFFFFFFF DUP2 GT ISZERO PUSH2 0x1C41 JUMPI PUSH2 0x1C40 PUSH2 0x165E JUMP JUMPDEST JUMPDEST PUSH2 0x1C4D DUP6 DUP3 DUP7 ADD PUSH2 0x1A87 JUMP JUMPDEST SWAP3 POP POP PUSH1 0x20 PUSH2 0x1C5E DUP6 DUP3 DUP7 ADD PUSH2 0x188F JUMP JUMPDEST SWAP2 POP POP SWAP3 POP SWAP3 SWAP1 POP JUMP JUMPDEST PUSH1 0x0 PUSH1 0x20 DUP3 DUP5 SUB SLT ISZERO PUSH2 0x1C7E JUMPI PUSH2 0x1C7D PUSH2 0x1659 JUMP JUMPDEST JUMPDEST PUSH1 0x0 DUP3 ADD CALLDATALOAD PUSH8 0xFFFFFFFFFFFFFFFF DUP2 GT ISZERO PUSH2 0x1C9C JUMPI PUSH2 0x1C9B PUSH2 0x165E JUMP JUMPDEST JUMPDEST PUSH2 0x1CA8 DUP5 DUP3 DUP6 ADD PUSH2 0x1945 JUMP JUMPDEST SWAP2 POP POP SWAP3 SWAP2 POP POP JUMP JUMPDEST PUSH1 0x0 PUSH2 0x1CBC DUP3 PUSH2 0x1601 JUMP JUMPDEST SWAP1 POP SWAP2 SWAP1 POP JUMP JUMPDEST PUSH2 0x1CCC DUP2 PUSH2 0x1CB1 JUMP JUMPDEST DUP3 MSTORE POP POP JUMP JUMPDEST PUSH1 0x0 PUSH1 0x20 DUP3 ADD SWAP1 POP PUSH2 0x1CE7 PUSH1 0x0 DUP4 ADD DUP5 PUSH2 0x1CC3 JUMP JUMPDEST SWAP3 SWAP2 POP POP JUMP JUMPDEST PUSH1 0x0 DUP2 MLOAD SWAP1 POP SWAP2 SWAP1 POP JUMP JUMPDEST PUSH1 0x0 DUP3 DUP3 MSTORE PUSH1 0x20 DUP3 ADD SWAP1 POP SWAP3 SWAP2 POP POP JUMP JUMPDEST PUSH1 0x0 JUMPDEST DUP4 DUP2 LT ISZERO PUSH2 0x1D27 JUMPI DUP1 DUP3 ADD MLOAD DUP2 DUP5 ADD MSTORE PUSH1 0x20 DUP2 ADD SWAP1 POP PUSH2 0x1D0C JUMP JUMPDEST PUSH1 0x0 DUP5 DUP5 ADD MSTORE POP POP POP POP JUMP JUMPDEST PUSH1 0x0 PUSH2 0x1D3E DUP3 PUSH2 0x1CED JUMP JUMPDEST PUSH2 0x1D48 DUP2 DUP6 PUSH2 0x1CF8 JUMP JUMPDEST SWAP4 POP PUSH2 0x1D58 DUP2 DUP6 PUSH1 0x20 DUP7 ADD PUSH2 0x1D09 JUMP JUMPDEST PUSH2 0x1D61 DUP2 PUSH2 0x166D JUMP JUMPDEST DUP5 ADD SWAP2 POP POP SWAP3 SWAP2 POP POP JUMP JUMPDEST PUSH1 0x0 PUSH1 0x20 DUP3 ADD SWAP1 POP DUP2 DUP2 SUB PUSH1 0x0 DUP4 ADD MSTORE PUSH2 0x1D86 DUP2 DUP5 PUSH2 0x1D33 JUMP JUMPDEST SWAP1 POP SWAP3 SWAP2 POP POP JUMP JUMPDEST PUSH2 0x1D97 DUP2 PUSH2 0x17F2 JUMP JUMPDEST DUP2 EQ PUSH2 0x1DA2 JUMPI PUSH1 0x0 DUP1 REVERT JUMPDEST POP JUMP JUMPDEST PUSH1 0x0 DUP2 MLOAD SWAP1 POP PUSH2 0x1DB4 DUP2 PUSH2 0x1D8E JUMP JUMPDEST SWAP3 SWAP2 POP POP JUMP JUMPDEST PUSH1 0x0 PUSH1 0x20 DUP3 DUP5 SUB SLT ISZERO PUSH2 0x1DD0 JUMPI PUSH2 0x1DCF PUSH2 0x1659 JUMP JUMPDEST JUMPDEST PUSH1 0x0 PUSH2 0x1DDE DUP5 DUP3 DUP6 ADD PUSH2 0x1DA5 JUMP JUMPDEST SWAP2 POP POP SWAP3 SWAP2 POP POP JUMP JUMPDEST PUSH32 0x496E76616C6964206261746368206865616465722E0000000000000000000000 PUSH1 0x0 DUP3 ADD MSTORE POP JUMP JUMPDEST PUSH1 0x0 PUSH2 0x1E1D PUSH1 0x15 DUP4 PUSH2 0x1CF8 JUMP JUMPDEST SWAP2 POP PUSH2 0x1E28 DUP3 PUSH2 0x1DE7 JUMP JUMPDEST PUSH1 0x20 DUP3 ADD SWAP1 POP SWAP2 SWAP1 POP JUMP JUMPDEST PUSH1 0x0 PUSH1 0x20 DUP3 ADD SWAP1 POP DUP2 DUP2 SUB PUSH1 0x0 DUP4 ADD MSTORE PUSH2 0x1E4C DUP2 PUSH2 0x1E10 JUMP JUMPDEST SWAP1 POP SWAP2 SWAP1 POP JUMP JUMPDEST PUSH32 0x496E76616C696420696E636C7573696F6E2070726F6F662E0000000000000000 PUSH1 0x0 DUP3 ADD MSTORE POP JUMP JUMPDEST PUSH1 0x0 PUSH2 0x1E89 PUSH1 0x18 DUP4 PUSH2 0x1CF8 JUMP JUMPDEST SWAP2 POP PUSH2 0x1E94 DUP3 PUSH2 0x1E53 JUMP JUMPDEST PUSH1 0x20 DUP3 ADD SWAP1 POP SWAP2 SWAP1 POP JUMP JUMPDEST PUSH1 0x0 PUSH1 0x20 DUP3 ADD SWAP1 POP DUP2 DUP2 SUB PUSH1 0x0 DUP4 ADD MSTORE PUSH2 0x1EB8 DUP2 PUSH2 0x1E7C JUMP JUMPDEST SWAP1 POP SWAP2 SWAP1 POP JUMP JUMPDEST PUSH32 0x41637475616C20626174636820737461727420696E64657820646F6573206E6F PUSH1 0x0 DUP3 ADD MSTORE PUSH32 0x74206D6174636820657870656374656420737461727420696E6465782E000000 PUSH1 0x20 DUP3 ADD MSTORE POP JUMP JUMPDEST PUSH1 0x0 PUSH2 0x1F1B PUSH1 0x3D DUP4 PUSH2 0x1CF8 JUMP JUMPDEST SWAP2 POP PUSH2 0x1F26 DUP3 PUSH2 0x1EBF JUMP JUMPDEST PUSH1 0x40 DUP3 ADD SWAP1 POP SWAP2 SWAP1 POP JUMP JUMPDEST PUSH1 0x0 PUSH1 0x20 DUP3 ADD SWAP1 POP DUP2 DUP2 SUB PUSH1 0x0 DUP4 ADD MSTORE PUSH2 0x1F4A DUP2 PUSH2 0x1F0E JUMP JUMPDEST SWAP1 POP SWAP2 SWAP1 POP JUMP JUMPDEST PUSH2 0x1F5A DUP2 PUSH2 0x1BAC JUMP JUMPDEST DUP2 EQ PUSH2 0x1F65 JUMPI PUSH1 0x0 DUP1 REVERT JUMPDEST POP JUMP JUMPDEST PUSH1 0x0 DUP2 MLOAD SWAP1 POP PUSH2 0x1F77 DUP2 PUSH2 0x1F51 JUMP JUMPDEST SWAP3 SWAP2 POP POP JUMP JUMPDEST PUSH1 0x0 PUSH1 0x20 DUP3 DUP5 SUB SLT ISZERO PUSH2 0x1F93 JUMPI PUSH2 0x1F92 PUSH2 0x1659 JUMP JUMPDEST JUMPDEST PUSH1 0x0 PUSH2 0x1FA1 DUP5 DUP3 DUP6 ADD PUSH2 0x1F68 JUMP JUMPDEST SWAP2 POP POP SWAP3 SWAP2 POP POP JUMP JUMPDEST PUSH32 0x50726F706F73657220646F6573206E6F74206861766520656E6F75676820636F PUSH1 0x0 DUP3 ADD MSTORE PUSH32 0x6C6C61746572616C20706F737465640000000000000000000000000000000000 PUSH1 0x20 DUP3 ADD MSTORE POP JUMP JUMPDEST PUSH1 0x0 PUSH2 0x2006 PUSH1 0x2F DUP4 PUSH2 0x1CF8 JUMP JUMPDEST SWAP2 POP PUSH2 0x2011 DUP3 PUSH2 0x1FAA JUMP JUMPDEST PUSH1 0x40 DUP3 ADD SWAP1 POP SWAP2 SWAP1 POP JUMP JUMPDEST PUSH1 0x0 PUSH1 0x20 DUP3 ADD SWAP1 POP DUP2 DUP2 SUB PUSH1 0x0 DUP4 ADD MSTORE PUSH2 0x2035 DUP2 PUSH2 0x1FF9 JUMP JUMPDEST SWAP1 POP SWAP2 SWAP1 POP JUMP JUMPDEST PUSH32 0x43616E6E6F74207375626D697420616E20656D70747920737461746520626174 PUSH1 0x0 DUP3 ADD MSTORE PUSH32 0x63682E0000000000000000000000000000000000000000000000000000000000 PUSH1 0x20 DUP3 ADD MSTORE POP JUMP JUMPDEST PUSH1 0x0 PUSH2 0x2098 PUSH1 0x23 DUP4 PUSH2 0x1CF8 JUMP JUMPDEST SWAP2 POP PUSH2 0x20A3 DUP3 PUSH2 0x203C JUMP JUMPDEST PUSH1 0x40 DUP3 ADD SWAP1 POP SWAP2 SWAP1 POP JUMP JUMPDEST PUSH1 0x0 PUSH1 0x20 DUP3 ADD SWAP1 POP DUP2 DUP2 SUB PUSH1 0x0 DUP4 ADD MSTORE PUSH2 0x20C7 DUP2 PUSH2 0x208B JUMP JUMPDEST SWAP1 POP SWAP2 SWAP1 POP JUMP JUMPDEST PUSH1 0x0 DUP2 MLOAD SWAP1 POP PUSH2 0x20DD DUP2 PUSH2 0x1878 JUMP JUMPDEST SWAP3 SWAP2 POP POP JUMP JUMPDEST PUSH1 0x0 PUSH1 0x20 DUP3 DUP5 SUB SLT ISZERO PUSH2 0x20F9 JUMPI PUSH2 0x20F8 PUSH2 0x1659 JUMP JUMPDEST JUMPDEST PUSH1 0x0 PUSH2 0x2107 DUP5 DUP3 DUP6 ADD PUSH2 0x20CE JUMP JUMPDEST SWAP2 POP POP SWAP3 SWAP2 POP POP JUMP JUMPDEST PUSH32 0x4E487B7100000000000000000000000000000000000000000000000000000000 PUSH1 0x0 MSTORE PUSH1 0x11 PUSH1 0x4 MSTORE PUSH1 0x24 PUSH1 0x0 REVERT JUMPDEST PUSH1 0x0 PUSH2 0x214A DUP3 PUSH2 0x186E JUMP JUMPDEST SWAP2 POP PUSH2 0x2155 DUP4 PUSH2 0x186E JUMP JUMPDEST SWAP3 POP DUP3 DUP3 ADD SWAP1 POP DUP1 DUP3 GT ISZERO PUSH2 0x216D JUMPI PUSH2 0x216C PUSH2 0x2110 JUMP JUMPDEST JUMPDEST SWAP3 SWAP2 POP POP JUMP JUMPDEST PUSH32 0x4E756D626572206F6620737461746520726F6F74732063616E6E6F7420657863 PUSH1 0x0 DUP3 ADD MSTORE PUSH32 0x65656420746865206E756D626572206F662063616E6F6E6963616C207472616E PUSH1 0x20 DUP3 ADD MSTORE PUSH32 0x73616374696F6E732E0000000000000000000000000000000000000000000000 PUSH1 0x40 DUP3 ADD MSTORE POP JUMP JUMPDEST PUSH1 0x0 PUSH2 0x21F5 PUSH1 0x49 DUP4 PUSH2 0x1CF8 JUMP JUMPDEST SWAP2 POP PUSH2 0x2200 DUP3 PUSH2 0x2173 JUMP JUMPDEST PUSH1 0x60 DUP3 ADD SWAP1 POP SWAP2 SWAP1 POP JUMP JUMPDEST PUSH1 0x0 PUSH1 0x20 DUP3 ADD SWAP1 POP DUP2 DUP2 SUB PUSH1 0x0 DUP4 ADD MSTORE PUSH2 0x2224 DUP2 PUSH2 0x21E8 JUMP JUMPDEST SWAP1 POP SWAP2 SWAP1 POP JUMP JUMPDEST PUSH1 0x0 PUSH1 0x40 DUP3 ADD SWAP1 POP PUSH2 0x2240 PUSH1 0x0 DUP4 ADD DUP6 PUSH2 0x1BE2 JUMP JUMPDEST PUSH2 0x224D PUSH1 0x20 DUP4 ADD DUP5 PUSH2 0x1804 JUMP JUMPDEST SWAP4 SWAP3 POP POP POP JUMP JUMPDEST PUSH1 0x0 PUSH2 0x225F DUP3 PUSH2 0x15B5 JUMP JUMPDEST SWAP1 POP SWAP2 SWAP1 POP JUMP JUMPDEST PUSH2 0x226F DUP2 PUSH2 0x2254 JUMP JUMPDEST DUP2 EQ PUSH2 0x227A JUMPI PUSH1 0x0 DUP1 REVERT JUMPDEST POP JUMP JUMPDEST PUSH1 0x0 DUP2 MLOAD SWAP1 POP PUSH2 0x228C DUP2 PUSH2 0x2266 JUMP JUMPDEST SWAP3 SWAP2 POP POP JUMP JUMPDEST PUSH1 0x0 DUP1 PUSH1 0x40 DUP4 DUP6 SUB SLT ISZERO PUSH2 0x22A9 JUMPI PUSH2 0x22A8 PUSH2 0x1659 JUMP JUMPDEST JUMPDEST PUSH1 0x0 PUSH2 0x22B7 DUP6 DUP3 DUP7 ADD PUSH2 0x20CE JUMP JUMPDEST SWAP3 POP POP PUSH1 0x20 PUSH2 0x22C8 DUP6 DUP3 DUP7 ADD PUSH2 0x227D JUMP JUMPDEST SWAP2 POP POP SWAP3 POP SWAP3 SWAP1 POP JUMP JUMPDEST PUSH32 0x4261746368206865616465722074696D657374616D702063616E6E6F74206265 PUSH1 0x0 DUP3 ADD MSTORE PUSH32 0x207A65726F000000000000000000000000000000000000000000000000000000 PUSH1 0x20 DUP3 ADD MSTORE POP JUMP JUMPDEST PUSH1 0x0 PUSH2 0x232E PUSH1 0x25 DUP4 PUSH2 0x1CF8 JUMP JUMPDEST SWAP2 POP PUSH2 0x2339 DUP3 PUSH2 0x22D2 JUMP JUMPDEST PUSH1 0x40 DUP3 ADD SWAP1 POP SWAP2 SWAP1 POP JUMP JUMPDEST PUSH1 0x0 PUSH1 0x20 DUP3 ADD SWAP1 POP DUP2 DUP2 SUB PUSH1 0x0 DUP4 ADD MSTORE PUSH2 0x235D DUP2 PUSH2 0x2321 JUMP JUMPDEST SWAP1 POP SWAP2 SWAP1 POP JUMP JUMPDEST PUSH32 0x537461746520626174636865732063616E206F6E6C792062652064656C657465 PUSH1 0x0 DUP3 ADD MSTORE PUSH32 0x6420627920746865204F564D5F467261756456657269666965722E0000000000 PUSH1 0x20 DUP3 ADD MSTORE POP JUMP JUMPDEST PUSH1 0x0 PUSH2 0x23C0 PUSH1 0x3B DUP4 PUSH2 0x1CF8 JUMP JUMPDEST SWAP2 POP PUSH2 0x23CB DUP3 PUSH2 0x2364 JUMP JUMPDEST PUSH1 0x40 DUP3 ADD SWAP1 POP SWAP2 SWAP1 POP JUMP JUMPDEST PUSH1 0x0 PUSH1 0x20 DUP3 ADD SWAP1 POP DUP2 DUP2 SUB PUSH1 0x0 DUP4 ADD MSTORE PUSH2 0x23EF DUP2 PUSH2 0x23B3 JUMP JUMPDEST SWAP1 POP SWAP2 SWAP1 POP JUMP JUMPDEST PUSH32 0x537461746520626174636865732063616E206F6E6C792062652064656C657465 PUSH1 0x0 DUP3 ADD MSTORE PUSH32 0x642077697468696E207468652066726175642070726F6F662077696E646F772E PUSH1 0x20 DUP3 ADD MSTORE POP JUMP JUMPDEST PUSH1 0x0 PUSH2 0x2452 PUSH1 0x40 DUP4 PUSH2 0x1CF8 JUMP JUMPDEST SWAP2 POP PUSH2 0x245D DUP3 PUSH2 0x23F6 JUMP JUMPDEST PUSH1 0x40 DUP3 ADD SWAP1 POP SWAP2 SWAP1 POP JUMP JUMPDEST PUSH1 0x0 PUSH1 0x20 DUP3 ADD SWAP1 POP DUP2 DUP2 SUB PUSH1 0x0 DUP4 ADD MSTORE PUSH2 0x2481 DUP2 PUSH2 0x2445 JUMP JUMPDEST SWAP1 POP SWAP2 SWAP1 POP JUMP JUMPDEST PUSH32 0x4C69625F4D65726B6C65547265653A20546F74616C206C6561766573206D7573 PUSH1 0x0 DUP3 ADD MSTORE PUSH32 0x742062652067726561746572207468616E207A65726F2E000000000000000000 PUSH1 0x20 DUP3 ADD MSTORE POP JUMP JUMPDEST PUSH1 0x0 PUSH2 0x24E4 PUSH1 0x37 DUP4 PUSH2 0x1CF8 JUMP JUMPDEST SWAP2 POP PUSH2 0x24EF DUP3 PUSH2 0x2488 JUMP JUMPDEST PUSH1 0x40 DUP3 ADD SWAP1 POP SWAP2 SWAP1 POP JUMP JUMPDEST PUSH1 0x0 PUSH1 0x20 DUP3 ADD SWAP1 POP DUP2 DUP2 SUB PUSH1 0x0 DUP4 ADD MSTORE PUSH2 0x2513 DUP2 PUSH2 0x24D7 JUMP JUMPDEST SWAP1 POP SWAP2 SWAP1 POP JUMP JUMPDEST PUSH32 0x4C69625F4D65726B6C65547265653A20496E646578206F7574206F6620626F75 PUSH1 0x0 DUP3 ADD MSTORE PUSH32 0x6E64732E00000000000000000000000000000000000000000000000000000000 PUSH1 0x20 DUP3 ADD MSTORE POP JUMP JUMPDEST PUSH1 0x0 PUSH2 0x2576 PUSH1 0x24 DUP4 PUSH2 0x1CF8 JUMP JUMPDEST SWAP2 POP PUSH2 0x2581 DUP3 PUSH2 0x251A JUMP JUMPDEST PUSH1 0x40 DUP3 ADD SWAP1 POP SWAP2 SWAP1 POP JUMP JUMPDEST PUSH1 0x0 PUSH1 0x20 DUP3 ADD SWAP1 POP DUP2 DUP2 SUB PUSH1 0x0 DUP4 ADD MSTORE PUSH2 0x25A5 DUP2 PUSH2 0x2569 JUMP JUMPDEST SWAP1 POP SWAP2 SWAP1 POP JUMP JUMPDEST PUSH32 0x4C69625F4D65726B6C65547265653A20546F74616C207369626C696E67732064 PUSH1 0x0 DUP3 ADD MSTORE PUSH32 0x6F6573206E6F7420636F72726563746C7920636F72726573706F6E6420746F20 PUSH1 0x20 DUP3 ADD MSTORE PUSH32 0x746F74616C206C65617665732E00000000000000000000000000000000000000 PUSH1 0x40 DUP3 ADD MSTORE POP JUMP JUMPDEST PUSH1 0x0 PUSH2 0x262E PUSH1 0x4D DUP4 PUSH2 0x1CF8 JUMP JUMPDEST SWAP2 POP PUSH2 0x2639 DUP3 PUSH2 0x25AC JUMP JUMPDEST PUSH1 0x60 DUP3 ADD SWAP1 POP SWAP2 SWAP1 POP JUMP JUMPDEST PUSH1 0x0 PUSH1 0x20 DUP3 ADD SWAP1 POP DUP2 DUP2 SUB PUSH1 0x0 DUP4 ADD MSTORE PUSH2 0x265D DUP2 PUSH2 0x2621 JUMP JUMPDEST SWAP1 POP SWAP2 SWAP1 POP JUMP JUMPDEST PUSH32 0x4E487B7100000000000000000000000000000000000000000000000000000000 PUSH1 0x0 MSTORE PUSH1 0x32 PUSH1 0x4 MSTORE PUSH1 0x24 PUSH1 0x0 REVERT JUMPDEST PUSH1 0x0 DUP2 SWAP1 POP SWAP2 SWAP1 POP JUMP JUMPDEST PUSH2 0x26AE PUSH2 0x26A9 DUP3 PUSH2 0x182E JUMP JUMPDEST PUSH2 0x2693 JUMP JUMPDEST DUP3 MSTORE POP POP JUMP JUMPDEST PUSH1 0x0 PUSH2 0x26C0 DUP3 DUP6 PUSH2 0x269D JUMP JUMPDEST PUSH1 0x20 DUP3 ADD SWAP2 POP PUSH2 0x26D0 DUP3 DUP5 PUSH2 0x269D JUMP JUMPDEST PUSH1 0x20 DUP3 ADD SWAP2 POP DUP2 SWAP1 POP SWAP4 SWAP3 POP POP POP JUMP JUMPDEST PUSH1 0x0 PUSH2 0x26EB DUP3 PUSH2 0x186E JUMP JUMPDEST SWAP2 POP PUSH32 0xFFFFFFFFFFFFFFFFFFFFFFFFFFFFFFFFFFFFFFFFFFFFFFFFFFFFFFFFFFFFFFFF DUP3 SUB PUSH2 0x271D JUMPI PUSH2 0x271C PUSH2 0x2110 JUMP JUMPDEST JUMPDEST PUSH1 0x1 DUP3 ADD SWAP1 POP SWAP2 SWAP1 POP JUMP JUMPDEST PUSH1 0x0 PUSH32 0xFFFFFFFFFFFFFFFFFFFFFFFFFFFFFFFFFFFFFFFFFFFFFFFFFFFFFF0000000000 DUP3 AND SWAP1 POP SWAP2 SWAP1 POP JUMP JUMPDEST PUSH2 0x275D DUP2 PUSH2 0x2728 JUMP JUMPDEST DUP2 EQ PUSH2 0x2768 JUMPI PUSH1 0x0 DUP1 REVERT JUMPDEST POP JUMP JUMPDEST PUSH1 0x0 DUP2 MLOAD SWAP1 POP PUSH2 0x277A DUP2 PUSH2 0x2754 JUMP JUMPDEST SWAP3 SWAP2 POP POP JUMP JUMPDEST PUSH1 0x0 PUSH1 0x20 DUP3 DUP5 SUB SLT ISZERO PUSH2 0x2796 JUMPI PUSH2 0x2795 PUSH2 0x1659 JUMP JUMPDEST JUMPDEST PUSH1 0x0 PUSH2 0x27A4 DUP5 DUP3 DUP6 ADD PUSH2 0x276B JUMP JUMPDEST SWAP2 POP POP SWAP3 SWAP2 POP POP JUMP JUMPDEST PUSH32 0x43616E6E6F74207075626C69736820737461746520726F6F7473207769746869 PUSH1 0x0 DUP3 ADD MSTORE PUSH32 0x6E207468652073657175656E636572207075626C69636174696F6E2077696E64 PUSH1 0x20 DUP3 ADD MSTORE PUSH32 0x6F772E0000000000000000000000000000000000000000000000000000000000 PUSH1 0x40 DUP3 ADD MSTORE POP JUMP JUMPDEST PUSH1 0x0 PUSH2 0x282F PUSH1 0x43 DUP4 PUSH2 0x1CF8 JUMP JUMPDEST SWAP2 POP PUSH2 0x283A DUP3 PUSH2 0x27AD JUMP JUMPDEST PUSH1 0x60 DUP3 ADD SWAP1 POP SWAP2 SWAP1 POP JUMP JUMPDEST PUSH1 0x0 PUSH1 0x20 DUP3 ADD SWAP1 POP DUP2 DUP2 SUB PUSH1 0x0 DUP4 ADD MSTORE PUSH2 0x285E DUP2 PUSH2 0x2822 JUMP JUMPDEST SWAP1 POP SWAP2 SWAP1 POP JUMP JUMPDEST PUSH2 0x286E DUP2 PUSH2 0x182E JUMP JUMPDEST DUP3 MSTORE POP POP JUMP JUMPDEST PUSH1 0x0 DUP2 MLOAD SWAP1 POP SWAP2 SWAP1 POP JUMP JUMPDEST PUSH1 0x0 DUP3 DUP3 MSTORE PUSH1 0x20 DUP3 ADD SWAP1 POP SWAP3 SWAP2 POP POP JUMP JUMPDEST PUSH1 0x0 PUSH2 0x289B DUP3 PUSH2 0x2874 JUMP JUMPDEST PUSH2 0x28A5 DUP2 DUP6 PUSH2 0x287F JUMP JUMPDEST SWAP4 POP PUSH2 0x28B5 DUP2 DUP6 PUSH1 0x20 DUP7 ADD PUSH2 0x1D09 JUMP JUMPDEST PUSH2 0x28BE DUP2 PUSH2 0x166D JUMP JUMPDEST DUP5 ADD SWAP2 POP POP SWAP3 SWAP2 POP POP JUMP JUMPDEST PUSH1 0x0 PUSH1 0x80 DUP3 ADD SWAP1 POP PUSH2 0x28DE PUSH1 0x0 DUP4 ADD DUP8 PUSH2 0x2865 JUMP JUMPDEST PUSH2 0x28EB PUSH1 0x20 DUP4 ADD DUP7 PUSH2 0x1BE2 JUMP JUMPDEST PUSH2 0x28F8 PUSH1 0x40 DUP4 ADD DUP6 PUSH2 0x1BE2 JUMP JUMPDEST DUP2 DUP2 SUB PUSH1 0x60 DUP4 ADD MSTORE PUSH2 0x290A DUP2 DUP5 PUSH2 0x2890 JUMP JUMPDEST SWAP1 POP SWAP6 SWAP5 POP POP POP POP POP JUMP JUMPDEST PUSH2 0x291E DUP2 PUSH2 0x2728 JUMP JUMPDEST DUP3 MSTORE POP POP JUMP JUMPDEST PUSH1 0x0 PUSH1 0x40 DUP3 ADD SWAP1 POP PUSH2 0x2939 PUSH1 0x0 DUP4 ADD DUP6 PUSH2 0x2865 JUMP JUMPDEST PUSH2 0x2946 PUSH1 0x20 DUP4 ADD DUP5 PUSH2 0x2915 JUMP JUMPDEST SWAP4 SWAP3 POP POP POP JUMP JUMPDEST PUSH32 0x496E76616C696420626174636820696E6465782E000000000000000000000000 PUSH1 0x0 DUP3 ADD MSTORE POP JUMP JUMPDEST PUSH1 0x0 PUSH2 0x2983 PUSH1 0x14 DUP4 PUSH2 0x1CF8 JUMP JUMPDEST SWAP2 POP PUSH2 0x298E DUP3 PUSH2 0x294D JUMP JUMPDEST PUSH1 0x20 DUP3 ADD SWAP1 POP SWAP2 SWAP1 POP JUMP JUMPDEST PUSH1 0x0 PUSH1 0x20 DUP3 ADD SWAP1 POP DUP2 DUP2 SUB PUSH1 0x0 DUP4 ADD MSTORE PUSH2 0x29B2 DUP2 PUSH2 0x2976 JUMP JUMPDEST SWAP1 POP SWAP2 SWAP1 POP JUMP JUMPDEST PUSH1 0x0 PUSH1 0x40 DUP3 ADD SWAP1 POP PUSH2 0x29CE PUSH1 0x0 DUP4 ADD DUP6 PUSH2 0x1BE2 JUMP JUMPDEST PUSH2 0x29DB PUSH1 0x20 DUP4 ADD DUP5 PUSH2 0x2915 JUMP JUMPDEST SWAP4 SWAP3 POP POP POP JUMP JUMPDEST PUSH1 0x0 PUSH1 0x20 DUP3 ADD SWAP1 POP PUSH2 0x29F7 PUSH1 0x0 DUP4 ADD DUP5 PUSH2 0x2865 JUMP JUMPDEST SWAP3 SWAP2 POP POP JUMP JUMPDEST PUSH32 0x4C69625F4D65726B6C65547265653A2043616E6E6F7420636F6D707574652063 PUSH1 0x0 DUP3 ADD MSTORE PUSH32 0x65696C286C6F675F3229206F6620302E00000000000000000000000000000000 PUSH1 0x20 DUP3 ADD MSTORE POP JUMP JUMPDEST PUSH1 0x0 PUSH2 0x2A59 PUSH1 0x30 DUP4 PUSH2 0x1CF8 JUMP JUMPDEST SWAP2 POP PUSH2 0x2A64 DUP3 PUSH2 0x29FD JUMP JUMPDEST PUSH1 0x40 DUP3 ADD SWAP1 POP SWAP2 SWAP1 POP JUMP JUMPDEST PUSH1 0x0 PUSH1 0x20 DUP3 ADD SWAP1 POP DUP2 DUP2 SUB PUSH1 0x0 DUP4 ADD MSTORE PUSH2 0x2A88 DUP2 PUSH2 0x2A4C JUMP JUMPDEST SWAP1 POP SWAP2 SWAP1 POP JUMP JUMPDEST PUSH1 0x0 PUSH2 0x2A9A DUP3 PUSH2 0x186E JUMP JUMPDEST SWAP2 POP PUSH2 0x2AA5 DUP4 PUSH2 0x186E JUMP JUMPDEST SWAP3 POP DUP3 DUP3 SUB SWAP1 POP DUP2 DUP2 GT ISZERO PUSH2 0x2ABD JUMPI PUSH2 0x2ABC PUSH2 0x2110 JUMP JUMPDEST JUMPDEST SWAP3 SWAP2 POP POP JUMP JUMPDEST PUSH32 0x4C69625F4D65726B6C65547265653A204D7573742070726F7669646520617420 PUSH1 0x0 DUP3 ADD MSTORE PUSH32 0x6C65617374206F6E65206C65616620686173682E000000000000000000000000 PUSH1 0x20 DUP3 ADD MSTORE POP JUMP JUMPDEST PUSH1 0x0 PUSH2 0x2B1F PUSH1 0x34 DUP4 PUSH2 0x1CF8 JUMP JUMPDEST SWAP2 POP PUSH2 0x2B2A DUP3 PUSH2 0x2AC3 JUMP JUMPDEST PUSH1 0x40 DUP3 ADD SWAP1 POP SWAP2 SWAP1 POP JUMP JUMPDEST PUSH1 0x0 PUSH1 0x20 DUP3 ADD SWAP1 POP DUP2 DUP2 SUB PUSH1 0x0 DUP4 ADD MSTORE PUSH2 0x2B4E DUP2 PUSH2 0x2B12 JUMP JUMPDEST SWAP1 POP SWAP2 SWAP1 POP JUMP JUMPDEST PUSH32 0x4E487B7100000000000000000000000000000000000000000000000000000000 PUSH1 0x0 MSTORE PUSH1 0x12 PUSH1 0x4 MSTORE PUSH1 0x24 PUSH1 0x0 REVERT JUMPDEST PUSH1 0x0 PUSH2 0x2B8F DUP3 PUSH2 0x186E JUMP JUMPDEST SWAP2 POP PUSH2 0x2B9A DUP4 PUSH2 0x186E JUMP JUMPDEST SWAP3 POP DUP3 PUSH2 0x2BAA JUMPI PUSH2 0x2BA9 PUSH2 0x2B55 JUMP JUMPDEST JUMPDEST DUP3 DUP3 DIV SWAP1 POP SWAP3 SWAP2 POP POP JUMP JUMPDEST PUSH1 0x0 PUSH2 0x2BC0 DUP3 PUSH2 0x186E JUMP JUMPDEST SWAP2 POP PUSH2 0x2BCB DUP4 PUSH2 0x186E JUMP JUMPDEST SWAP3 POP DUP3 PUSH2 0x2BDB JUMPI PUSH2 0x2BDA PUSH2 0x2B55 JUMP JUMPDEST JUMPDEST DUP3 DUP3 MOD SWAP1 POP SWAP3 SWAP2 POP POP JUMP JUMPDEST PUSH1 0x0 PUSH2 0x2BF1 DUP3 PUSH2 0x186E JUMP JUMPDEST SWAP2 POP PUSH2 0x2BFC DUP4 PUSH2 0x186E JUMP JUMPDEST SWAP3 POP DUP3 DUP3 MUL PUSH2 0x2C0A DUP2 PUSH2 0x186E JUMP JUMPDEST SWAP2 POP DUP3 DUP3 DIV DUP5 EQ DUP4 ISZERO OR PUSH2 0x2C21 JUMPI PUSH2 0x2C20 PUSH2 0x2110 JUMP JUMPDEST JUMPDEST POP SWAP3 SWAP2 POP POP JUMP INVALID NUMBER PUSH9 0x61696E53746F726167 PUSH6 0x436F6E746169 PUSH15 0x65722D5343432D62617463686573A2 PUSH5 0x6970667358 0x22 SLT KECCAK256 STOP SWAP9 0xCF 0xFC 0xEE 0x2C LOG4 0xC SWAP10 XOR OR 0x1E 0xD0 0xB3 0xDF 0xE0 BLOCKHASH 0xC7 0xE3 DUP6 0xA8 DUP3 0xD8 TIMESTAMP 0x4C DUP5 SWAP6 DUP12 0xDA BALANCE MSTORE8 PUSH12 0x64736F6C6343000812003300 "},"methodIdentifiers":{"FRAUD_PROOF_WINDOW()":"c17b291b","SEQUENCER_PUBLISH_WINDOW()":"81eb62ef","appendStateBatch(bytes32[],uint256)":"8ca5cbb9","batches()":"cfdf677e","deleteStateBatch((uint256,bytes32,uint256,uint256,bytes))":"b8e189ac","getLastSequencerTimestamp()":"7ad168a0","getTotalBatches()":"e561dddc","getTotalElements()":"7aa63a86","insideFraudProofWindow((uint256,bytes32,uint256,uint256,bytes))":"9418bddd","libAddressManager()":"299ca478","resolve(string)":"461a4478","verifyStateCommitment(bytes32,(uint256,bytes32,uint256,uint256,bytes),(uint256,bytes32[]))":"4d69ee57"}}}}}