{"contracts/OptimismGasHelper.sol":{"OptimismGasHelper":{"abi":[{"inputs":[{"internalType":"uint256","name":"_l1BaseFee","type":"uint256"}],"stateMutability":"nonpayable","type":"constructor"},{"inputs":[],"name":"decimals","outputs":[{"internalType":"uint256","name":"","type":"uint256"}],"stateMutability":"view","type":"function"},{"inputs":[],"name":"gasPrice","outputs":[{"internalType":"uint256","name":"","type":"uint256"}],"stateMutability":"view","type":"function"},{"inputs":[{"internalType":"bytes","name":"_data","type":"bytes"}],"name":"getL1Fee","outputs":[{"internalType":"uint256","name":"","type":"uint256"}],"stateMutability":"view","type":"function"},{"inputs":[{"internalType":"bytes","name":"_data","type":"bytes"}],"name":"getL1GasUsed","outputs":[{"internalType":"uint256","name":"","type":"uint256"}],"stateMutability":"view","type":"function"},{"inputs":[],"name":"l1BaseFee","outputs":[{"internalType":"uint256","name":"","type":"uint256"}],"stateMutability":"view","type":"function"},{"inputs":[],"name":"maxUint256","outputs":[{"internalType":"uint256","name":"","type":"uint256"}],"stateMutability":"view","type":"function"},{"inputs":[],"name":"overhead","outputs":[{"internalType":"uint256","name":"","type":"uint256"}],"stateMutability":"view","type":"function"},{"inputs":[],"name":"scalar","outputs":[{"internalType":"uint256","name":"","type":"uint256"}],"stateMutability":"view","type":"function"}],"evm":{"bytecode":{"linkReferences":{},"object":"6080604052620f4240600055610834600255620f4240600355600660045534801561002957600080fd5b50604051610951380380610951833981810160405281019061004b91906100c6565b8060018190555060017fffffffffffffffffffffffffffffffffffffffffffffffffffffffffffffffff61007f9190610122565b60058190555050610156565b600080fd5b6000819050919050565b6100a381610090565b81146100ae57600080fd5b50565b6000815190506100c08161009a565b92915050565b6000602082840312156100dc576100db61008b565b5b60006100ea848285016100b1565b91505092915050565b7f4e487b7100000000000000000000000000000000000000000000000000000000600052601160045260246000fd5b600061012d82610090565b915061013883610090565b92508282039050818111156101505761014f6100f3565b5b92915050565b6107ec806101656000396000f3fe608060405234801561001057600080fd5b50600436106100885760003560e01c8063b93308291161005b578063b933082914610117578063de26c4a114610135578063f45e65d814610165578063fe173b971461018357610088565b80630c18c1621461008d578063313ce567146100ab57806349948e0e146100c9578063519b4bd3146100f9575b600080fd5b6100956101a1565b6040516100a291906102fe565b60405180910390f35b6100b36101a7565b6040516100c091906102fe565b60405180910390f35b6100e360048036038101906100de9190610473565b6101ad565b6040516100f091906102fe565b60405180910390f35b61010161020f565b60405161010e91906102fe565b60405180910390f35b61011f610215565b60405161012c91906102fe565b60405180910390f35b61014f600480360381019061014a9190610473565b61021b565b60405161015c91906102fe565b60405180910390f35b61016d6102d9565b60405161017a91906102fe565b60405180910390f35b61018b6102df565b60405161019891906102fe565b60405180910390f35b60025481565b60045481565b6000806101b98361021b565b90506000600154826101cb91906104eb565b90506000600454600a6101de9190610660565b90506000600354836101f091906104eb565b90506000828261020091906106da565b90508095505050505050919050565b60015481565b60055481565b6000806000905060005b83518110156102af57600060f81b8482815181106102465761024561070b565b5b602001015160f81c60f81b7effffffffffffffffffffffffffffffffffffffffffffffffffffffffffffff19160361028c57600482610285919061073a565b915061029c565b601082610299919061073a565b91505b80806102a79061076e565b915050610225565b506000600254826102c0919061073a565b9050610440816102d0919061073a565b92505050919050565b60035481565b60005481565b6000819050919050565b6102f8816102e5565b82525050565b600060208201905061031360008301846102ef565b92915050565b6000604051905090565b600080fd5b600080fd5b600080fd5b600080fd5b6000601f19601f8301169050919050565b7f4e487b7100000000000000000000000000000000000000000000000000000000600052604160045260246000fd5b61038082610337565b810181811067ffffffffffffffff8211171561039f5761039e610348565b5b80604052505050565b60006103b2610319565b90506103be8282610377565b919050565b600067ffffffffffffffff8211156103de576103dd610348565b5b6103e782610337565b9050602081019050919050565b82818337600083830152505050565b6000610416610411846103c3565b6103a8565b90508281526020810184848401111561043257610431610332565b5b61043d8482856103f4565b509392505050565b600082601f83011261045a5761045961032d565b5b813561046a848260208601610403565b91505092915050565b60006020828403121561048957610488610323565b5b600082013567ffffffffffffffff8111156104a7576104a6610328565b5b6104b384828501610445565b91505092915050565b7f4e487b7100000000000000000000000000000000000000000000000000000000600052601160045260246000fd5b60006104f6826102e5565b9150610501836102e5565b925082820261050f816102e5565b91508282048414831517610526576105256104bc565b5b5092915050565b60008160011c9050919050565b6000808291508390505b6001851115610584578086048111156105605761055f6104bc565b5b600185161561056f5780820291505b808102905061057d8561052d565b9450610544565b94509492505050565b60008261059d5760019050610659565b816105ab5760009050610659565b81600181146105c157600281146105cb576105fa565b6001915050610659565b60ff8411156105dd576105dc6104bc565b5b8360020a9150848211156105f4576105f36104bc565b5b50610659565b5060208310610133831016604e8410600b841016171561062f5782820a90508381111561062a576106296104bc565b5b610659565b61063c848484600161053a565b92509050818404811115610653576106526104bc565b5b81810290505b9392505050565b600061066b826102e5565b9150610676836102e5565b92506106a37fffffffffffffffffffffffffffffffffffffffffffffffffffffffffffffffff848461058d565b905092915050565b7f4e487b7100000000000000000000000000000000000000000000000000000000600052601260045260246000fd5b60006106e5826102e5565b91506106f0836102e5565b925082610700576106ff6106ab565b5b828204905092915050565b7f4e487b7100000000000000000000000000000000000000000000000000000000600052603260045260246000fd5b6000610745826102e5565b9150610750836102e5565b9250828201905080821115610768576107676104bc565b5b92915050565b6000610779826102e5565b91507fffffffffffffffffffffffffffffffffffffffffffffffffffffffffffffffff82036107ab576107aa6104bc565b5b60018201905091905056fea2646970667358221220e22a3efd4733db044bce4d6b3a2f4da7f5406ca18881860d131c770093138dd364736f6c63430008120033","opcodes":"PUSH1 0x80 PUSH1 0x40 MSTORE PUSH3 0xF4240 PUSH1 0x0 SSTORE PUSH2 0x834 PUSH1 0x2 SSTORE PUSH3 0xF4240 PUSH1 0x3 SSTORE PUSH1 0x6 PUSH1 0x4 SSTORE CALLVALUE DUP1 ISZERO PUSH2 0x29 JUMPI PUSH1 0x0 DUP1 REVERT JUMPDEST POP PUSH1 0x40 MLOAD PUSH2 0x951 CODESIZE SUB DUP1 PUSH2 0x951 DUP4 CODECOPY DUP2 DUP2 ADD PUSH1 0x40 MSTORE DUP2 ADD SWAP1 PUSH2 0x4B SWAP2 SWAP1 PUSH2 0xC6 JUMP JUMPDEST DUP1 PUSH1 0x1 DUP2 SWAP1 SSTORE POP PUSH1 0x1 PUSH32 0xFFFFFFFFFFFFFFFFFFFFFFFFFFFFFFFFFFFFFFFFFFFFFFFFFFFFFFFFFFFFFFFF PUSH2 0x7F SWAP2 SWAP1 PUSH2 0x122 JUMP JUMPDEST PUSH1 0x5 DUP2 SWAP1 SSTORE POP POP PUSH2 0x156 JUMP JUMPDEST PUSH1 0x0 DUP1 REVERT JUMPDEST PUSH1 0x0 DUP2 SWAP1 POP SWAP2 SWAP1 POP JUMP JUMPDEST PUSH2 0xA3 DUP2 PUSH2 0x90 JUMP JUMPDEST DUP2 EQ PUSH2 0xAE JUMPI PUSH1 0x0 DUP1 REVERT JUMPDEST POP JUMP JUMPDEST PUSH1 0x0 DUP2 MLOAD SWAP1 POP PUSH2 0xC0 DUP2 PUSH2 0x9A JUMP JUMPDEST SWAP3 SWAP2 POP POP JUMP JUMPDEST PUSH1 0x0 PUSH1 0x20 DUP3 DUP5 SUB SLT ISZERO PUSH2 0xDC JUMPI PUSH2 0xDB PUSH2 0x8B JUMP JUMPDEST JUMPDEST PUSH1 0x0 PUSH2 0xEA DUP5 DUP3 DUP6 ADD PUSH2 0xB1 JUMP JUMPDEST SWAP2 POP POP SWAP3 SWAP2 POP POP JUMP JUMPDEST PUSH32 0x4E487B7100000000000000000000000000000000000000000000000000000000 PUSH1 0x0 MSTORE PUSH1 0x11 PUSH1 0x4 MSTORE PUSH1 0x24 PUSH1 0x0 REVERT JUMPDEST PUSH1 0x0 PUSH2 0x12D DUP3 PUSH2 0x90 JUMP JUMPDEST SWAP2 POP PUSH2 0x138 DUP4 PUSH2 0x90 JUMP JUMPDEST SWAP3 POP DUP3 DUP3 SUB SWAP1 POP DUP2 DUP2 GT ISZERO PUSH2 0x150 JUMPI PUSH2 0x14F PUSH2 0xF3 JUMP JUMPDEST JUMPDEST SWAP3 SWAP2 POP POP JUMP JUMPDEST PUSH2 0x7EC DUP1 PUSH2 0x165 PUSH1 0x0 CODECOPY PUSH1 0x0 RETURN INVALID PUSH1 0x80 PUSH1 0x40 MSTORE CALLVALUE DUP1 ISZERO PUSH2 0x10 JUMPI PUSH1 0x0 DUP1 REVERT JUMPDEST POP PUSH1 0x4 CALLDATASIZE LT PUSH2 0x88 JUMPI PUSH1 0x0 CALLDATALOAD PUSH1 0xE0 SHR DUP1 PUSH4 0xB9330829 GT PUSH2 0x5B JUMPI DUP1 PUSH4 0xB9330829 EQ PUSH2 0x117 JUMPI DUP1 PUSH4 0xDE26C4A1 EQ PUSH2 0x135 JUMPI DUP1 PUSH4 0xF45E65D8 EQ PUSH2 0x165 JUMPI DUP1 PUSH4 0xFE173B97 EQ PUSH2 0x183 JUMPI PUSH2 0x88 JUMP JUMPDEST DUP1 PUSH4 0xC18C162 EQ PUSH2 0x8D JUMPI DUP1 PUSH4 0x313CE567 EQ PUSH2 0xAB JUMPI DUP1 PUSH4 0x49948E0E EQ PUSH2 0xC9 JUMPI DUP1 PUSH4 0x519B4BD3 EQ PUSH2 0xF9 JUMPI JUMPDEST PUSH1 0x0 DUP1 REVERT JUMPDEST PUSH2 0x95 PUSH2 0x1A1 JUMP JUMPDEST PUSH1 0x40 MLOAD PUSH2 0xA2 SWAP2 SWAP1 PUSH2 0x2FE JUMP JUMPDEST PUSH1 0x40 MLOAD DUP1 SWAP2 SUB SWAP1 RETURN JUMPDEST PUSH2 0xB3 PUSH2 0x1A7 JUMP JUMPDEST PUSH1 0x40 MLOAD PUSH2 0xC0 SWAP2 SWAP1 PUSH2 0x2FE JUMP JUMPDEST PUSH1 0x40 MLOAD DUP1 SWAP2 SUB SWAP1 RETURN JUMPDEST PUSH2 0xE3 PUSH1 0x4 DUP1 CALLDATASIZE SUB DUP2 ADD SWAP1 PUSH2 0xDE SWAP2 SWAP1 PUSH2 0x473 JUMP JUMPDEST PUSH2 0x1AD JUMP JUMPDEST PUSH1 0x40 MLOAD PUSH2 0xF0 SWAP2 SWAP1 PUSH2 0x2FE JUMP JUMPDEST PUSH1 0x40 MLOAD DUP1 SWAP2 SUB SWAP1 RETURN JUMPDEST PUSH2 0x101 PUSH2 0x20F JUMP JUMPDEST PUSH1 0x40 MLOAD PUSH2 0x10E SWAP2 SWAP1 PUSH2 0x2FE JUMP JUMPDEST PUSH1 0x40 MLOAD DUP1 SWAP2 SUB SWAP1 RETURN JUMPDEST PUSH2 0x11F PUSH2 0x215 JUMP JUMPDEST PUSH1 0x40 MLOAD PUSH2 0x12C SWAP2 SWAP1 PUSH2 0x2FE JUMP JUMPDEST PUSH1 0x40 MLOAD DUP1 SWAP2 SUB SWAP1 RETURN JUMPDEST PUSH2 0x14F PUSH1 0x4 DUP1 CALLDATASIZE SUB DUP2 ADD SWAP1 PUSH2 0x14A SWAP2 SWAP1 PUSH2 0x473 JUMP JUMPDEST PUSH2 0x21B JUMP JUMPDEST PUSH1 0x40 MLOAD PUSH2 0x15C SWAP2 SWAP1 PUSH2 0x2FE JUMP JUMPDEST PUSH1 0x40 MLOAD DUP1 SWAP2 SUB SWAP1 RETURN JUMPDEST PUSH2 0x16D PUSH2 0x2D9 JUMP JUMPDEST PUSH1 0x40 MLOAD PUSH2 0x17A SWAP2 SWAP1 PUSH2 0x2FE JUMP JUMPDEST PUSH1 0x40 MLOAD DUP1 SWAP2 SUB SWAP1 RETURN JUMPDEST PUSH2 0x18B PUSH2 0x2DF JUMP JUMPDEST PUSH1 0x40 MLOAD PUSH2 0x198 SWAP2 SWAP1 PUSH2 0x2FE JUMP JUMPDEST PUSH1 0x40 MLOAD DUP1 SWAP2 SUB SWAP1 RETURN JUMPDEST PUSH1 0x2 SLOAD DUP2 JUMP JUMPDEST PUSH1 0x4 SLOAD DUP2 JUMP JUMPDEST PUSH1 0x0 DUP1 PUSH2 0x1B9 DUP4 PUSH2 0x21B JUMP JUMPDEST SWAP1 POP PUSH1 0x0 PUSH1 0x1 SLOAD DUP3 PUSH2 0x1CB SWAP2 SWAP1 PUSH2 0x4EB JUMP JUMPDEST SWAP1 POP PUSH1 0x0 PUSH1 0x4 SLOAD PUSH1 0xA PUSH2 0x1DE SWAP2 SWAP1 PUSH2 0x660 JUMP JUMPDEST SWAP1 POP PUSH1 0x0 PUSH1 0x3 SLOAD DUP4 PUSH2 0x1F0 SWAP2 SWAP1 PUSH2 0x4EB JUMP JUMPDEST SWAP1 POP PUSH1 0x0 DUP3 DUP3 PUSH2 0x200 SWAP2 SWAP1 PUSH2 0x6DA JUMP JUMPDEST SWAP1 POP DUP1 SWAP6 POP POP POP POP POP POP SWAP2 SWAP1 POP JUMP JUMPDEST PUSH1 0x1 SLOAD DUP2 JUMP JUMPDEST PUSH1 0x5 SLOAD DUP2 JUMP JUMPDEST PUSH1 0x0 DUP1 PUSH1 0x0 SWAP1 POP PUSH1 0x0 JUMPDEST DUP4 MLOAD DUP2 LT ISZERO PUSH2 0x2AF JUMPI PUSH1 0x0 PUSH1 0xF8 SHL DUP5 DUP3 DUP2 MLOAD DUP2 LT PUSH2 0x246 JUMPI PUSH2 0x245 PUSH2 0x70B JUMP JUMPDEST JUMPDEST PUSH1 0x20 ADD ADD MLOAD PUSH1 0xF8 SHR PUSH1 0xF8 SHL PUSH31 0xFFFFFFFFFFFFFFFFFFFFFFFFFFFFFFFFFFFFFFFFFFFFFFFFFFFFFFFFFFFFFF NOT AND SUB PUSH2 0x28C JUMPI PUSH1 0x4 DUP3 PUSH2 0x285 SWAP2 SWAP1 PUSH2 0x73A JUMP JUMPDEST SWAP2 POP PUSH2 0x29C JUMP JUMPDEST PUSH1 0x10 DUP3 PUSH2 0x299 SWAP2 SWAP1 PUSH2 0x73A JUMP JUMPDEST SWAP2 POP JUMPDEST DUP1 DUP1 PUSH2 0x2A7 SWAP1 PUSH2 0x76E JUMP JUMPDEST SWAP2 POP POP PUSH2 0x225 JUMP JUMPDEST POP PUSH1 0x0 PUSH1 0x2 SLOAD DUP3 PUSH2 0x2C0 SWAP2 SWAP1 PUSH2 0x73A JUMP JUMPDEST SWAP1 POP PUSH2 0x440 DUP2 PUSH2 0x2D0 SWAP2 SWAP1 PUSH2 0x73A JUMP JUMPDEST SWAP3 POP POP POP SWAP2 SWAP1 POP JUMP JUMPDEST PUSH1 0x3 SLOAD DUP2 JUMP JUMPDEST PUSH1 0x0 SLOAD DUP2 JUMP JUMPDEST PUSH1 0x0 DUP2 SWAP1 POP SWAP2 SWAP1 POP JUMP JUMPDEST PUSH2 0x2F8 DUP2 PUSH2 0x2E5 JUMP JUMPDEST DUP3 MSTORE POP POP JUMP JUMPDEST PUSH1 0x0 PUSH1 0x20 DUP3 ADD SWAP1 POP PUSH2 0x313 PUSH1 0x0 DUP4 ADD DUP5 PUSH2 0x2EF JUMP JUMPDEST SWAP3 SWAP2 POP POP JUMP JUMPDEST PUSH1 0x0 PUSH1 0x40 MLOAD SWAP1 POP SWAP1 JUMP JUMPDEST PUSH1 0x0 DUP1 REVERT JUMPDEST PUSH1 0x0 DUP1 REVERT JUMPDEST PUSH1 0x0 DUP1 REVERT JUMPDEST PUSH1 0x0 DUP1 REVERT JUMPDEST PUSH1 0x0 PUSH1 0x1F NOT PUSH1 0x1F DUP4 ADD AND SWAP1 POP SWAP2 SWAP1 POP JUMP JUMPDEST PUSH32 0x4E487B7100000000000000000000000000000000000000000000000000000000 PUSH1 0x0 MSTORE PUSH1 0x41 PUSH1 0x4 MSTORE PUSH1 0x24 PUSH1 0x0 REVERT JUMPDEST PUSH2 0x380 DUP3 PUSH2 0x337 JUMP JUMPDEST DUP2 ADD DUP2 DUP2 LT PUSH8 0xFFFFFFFFFFFFFFFF DUP3 GT OR ISZERO PUSH2 0x39F JUMPI PUSH2 0x39E PUSH2 0x348 JUMP JUMPDEST JUMPDEST DUP1 PUSH1 0x40 MSTORE POP POP POP JUMP JUMPDEST PUSH1 0x0 PUSH2 0x3B2 PUSH2 0x319 JUMP JUMPDEST SWAP1 POP PUSH2 0x3BE DUP3 DUP3 PUSH2 0x377 JUMP JUMPDEST SWAP2 SWAP1 POP JUMP JUMPDEST PUSH1 0x0 PUSH8 0xFFFFFFFFFFFFFFFF DUP3 GT ISZERO PUSH2 0x3DE JUMPI PUSH2 0x3DD PUSH2 0x348 JUMP JUMPDEST JUMPDEST PUSH2 0x3E7 DUP3 PUSH2 0x337 JUMP JUMPDEST SWAP1 POP PUSH1 0x20 DUP2 ADD SWAP1 POP SWAP2 SWAP1 POP JUMP JUMPDEST DUP3 DUP2 DUP4 CALLDATACOPY PUSH1 0x0 DUP4 DUP4 ADD MSTORE POP POP POP JUMP JUMPDEST PUSH1 0x0 PUSH2 0x416 PUSH2 0x411 DUP5 PUSH2 0x3C3 JUMP JUMPDEST PUSH2 0x3A8 JUMP JUMPDEST SWAP1 POP DUP3 DUP2 MSTORE PUSH1 0x20 DUP2 ADD DUP5 DUP5 DUP5 ADD GT ISZERO PUSH2 0x432 JUMPI PUSH2 0x431 PUSH2 0x332 JUMP JUMPDEST JUMPDEST PUSH2 0x43D DUP5 DUP3 DUP6 PUSH2 0x3F4 JUMP JUMPDEST POP SWAP4 SWAP3 POP POP POP JUMP JUMPDEST PUSH1 0x0 DUP3 PUSH1 0x1F DUP4 ADD SLT PUSH2 0x45A JUMPI PUSH2 0x459 PUSH2 0x32D JUMP JUMPDEST JUMPDEST DUP2 CALLDATALOAD PUSH2 0x46A DUP5 DUP3 PUSH1 0x20 DUP7 ADD PUSH2 0x403 JUMP JUMPDEST SWAP2 POP POP SWAP3 SWAP2 POP POP JUMP JUMPDEST PUSH1 0x0 PUSH1 0x20 DUP3 DUP5 SUB SLT ISZERO PUSH2 0x489 JUMPI PUSH2 0x488 PUSH2 0x323 JUMP JUMPDEST JUMPDEST PUSH1 0x0 DUP3 ADD CALLDATALOAD PUSH8 0xFFFFFFFFFFFFFFFF DUP2 GT ISZERO PUSH2 0x4A7 JUMPI PUSH2 0x4A6 PUSH2 0x328 JUMP JUMPDEST JUMPDEST PUSH2 0x4B3 DUP5 DUP3 DUP6 ADD PUSH2 0x445 JUMP JUMPDEST SWAP2 POP POP SWAP3 SWAP2 POP POP JUMP JUMPDEST PUSH32 0x4E487B7100000000000000000000000000000000000000000000000000000000 PUSH1 0x0 MSTORE PUSH1 0x11 PUSH1 0x4 MSTORE PUSH1 0x24 PUSH1 0x0 REVERT JUMPDEST PUSH1 0x0 PUSH2 0x4F6 DUP3 PUSH2 0x2E5 JUMP JUMPDEST SWAP2 POP PUSH2 0x501 DUP4 PUSH2 0x2E5 JUMP JUMPDEST SWAP3 POP DUP3 DUP3 MUL PUSH2 0x50F DUP2 PUSH2 0x2E5 JUMP JUMPDEST SWAP2 POP DUP3 DUP3 DIV DUP5 EQ DUP4 ISZERO OR PUSH2 0x526 JUMPI PUSH2 0x525 PUSH2 0x4BC JUMP JUMPDEST JUMPDEST POP SWAP3 SWAP2 POP POP JUMP JUMPDEST PUSH1 0x0 DUP2 PUSH1 0x1 SHR SWAP1 POP SWAP2 SWAP1 POP JUMP JUMPDEST PUSH1 0x0 DUP1 DUP3 SWAP2 POP DUP4 SWAP1 POP JUMPDEST PUSH1 0x1 DUP6 GT ISZERO PUSH2 0x584 JUMPI DUP1 DUP7 DIV DUP2 GT ISZERO PUSH2 0x560 JUMPI PUSH2 0x55F PUSH2 0x4BC JUMP JUMPDEST JUMPDEST PUSH1 0x1 DUP6 AND ISZERO PUSH2 0x56F JUMPI DUP1 DUP3 MUL SWAP2 POP JUMPDEST DUP1 DUP2 MUL SWAP1 POP PUSH2 0x57D DUP6 PUSH2 0x52D JUMP JUMPDEST SWAP5 POP PUSH2 0x544 JUMP JUMPDEST SWAP5 POP SWAP5 SWAP3 POP POP POP JUMP JUMPDEST PUSH1 0x0 DUP3 PUSH2 0x59D JUMPI PUSH1 0x1 SWAP1 POP PUSH2 0x659 JUMP JUMPDEST DUP2 PUSH2 0x5AB JUMPI PUSH1 0x0 SWAP1 POP PUSH2 0x659 JUMP JUMPDEST DUP2 PUSH1 0x1 DUP2 EQ PUSH2 0x5C1 JUMPI PUSH1 0x2 DUP2 EQ PUSH2 0x5CB JUMPI PUSH2 0x5FA JUMP JUMPDEST PUSH1 0x1 SWAP2 POP POP PUSH2 0x659 JUMP JUMPDEST PUSH1 0xFF DUP5 GT ISZERO PUSH2 0x5DD JUMPI PUSH2 0x5DC PUSH2 0x4BC JUMP JUMPDEST JUMPDEST DUP4 PUSH1 0x2 EXP SWAP2 POP DUP5 DUP3 GT ISZERO PUSH2 0x5F4 JUMPI PUSH2 0x5F3 PUSH2 0x4BC JUMP JUMPDEST JUMPDEST POP PUSH2 0x659 JUMP JUMPDEST POP PUSH1 0x20 DUP4 LT PUSH2 0x133 DUP4 LT AND PUSH1 0x4E DUP5 LT PUSH1 0xB DUP5 LT AND OR ISZERO PUSH2 0x62F JUMPI DUP3 DUP3 EXP SWAP1 POP DUP4 DUP2 GT ISZERO PUSH2 0x62A JUMPI PUSH2 0x629 PUSH2 0x4BC JUMP JUMPDEST JUMPDEST PUSH2 0x659 JUMP JUMPDEST PUSH2 0x63C DUP5 DUP5 DUP5 PUSH1 0x1 PUSH2 0x53A JUMP JUMPDEST SWAP3 POP SWAP1 POP DUP2 DUP5 DIV DUP2 GT ISZERO PUSH2 0x653 JUMPI PUSH2 0x652 PUSH2 0x4BC JUMP JUMPDEST JUMPDEST DUP2 DUP2 MUL SWAP1 POP JUMPDEST SWAP4 SWAP3 POP POP POP JUMP JUMPDEST PUSH1 0x0 PUSH2 0x66B DUP3 PUSH2 0x2E5 JUMP JUMPDEST SWAP2 POP PUSH2 0x676 DUP4 PUSH2 0x2E5 JUMP JUMPDEST SWAP3 POP PUSH2 0x6A3 PUSH32 0xFFFFFFFFFFFFFFFFFFFFFFFFFFFFFFFFFFFFFFFFFFFFFFFFFFFFFFFFFFFFFFFF DUP5 DUP5 PUSH2 0x58D JUMP JUMPDEST SWAP1 POP SWAP3 SWAP2 POP POP JUMP JUMPDEST PUSH32 0x4E487B7100000000000000000000000000000000000000000000000000000000 PUSH1 0x0 MSTORE PUSH1 0x12 PUSH1 0x4 MSTORE PUSH1 0x24 PUSH1 0x0 REVERT JUMPDEST PUSH1 0x0 PUSH2 0x6E5 DUP3 PUSH2 0x2E5 JUMP JUMPDEST SWAP2 POP PUSH2 0x6F0 DUP4 PUSH2 0x2E5 JUMP JUMPDEST SWAP3 POP DUP3 PUSH2 0x700 JUMPI PUSH2 0x6FF PUSH2 0x6AB JUMP JUMPDEST JUMPDEST DUP3 DUP3 DIV SWAP1 POP SWAP3 SWAP2 POP POP JUMP JUMPDEST PUSH32 0x4E487B7100000000000000000000000000000000000000000000000000000000 PUSH1 0x0 MSTORE PUSH1 0x32 PUSH1 0x4 MSTORE PUSH1 0x24 PUSH1 0x0 REVERT JUMPDEST PUSH1 0x0 PUSH2 0x745 DUP3 PUSH2 0x2E5 JUMP JUMPDEST SWAP2 POP PUSH2 0x750 DUP4 PUSH2 0x2E5 JUMP JUMPDEST SWAP3 POP DUP3 DUP3 ADD SWAP1 POP DUP1 DUP3 GT ISZERO PUSH2 0x768 JUMPI PUSH2 0x767 PUSH2 0x4BC JUMP JUMPDEST JUMPDEST SWAP3 SWAP2 POP POP JUMP JUMPDEST PUSH1 0x0 PUSH2 0x779 DUP3 PUSH2 0x2E5 JUMP JUMPDEST SWAP2 POP PUSH32 0xFFFFFFFFFFFFFFFFFFFFFFFFFFFFFFFFFFFFFFFFFFFFFFFFFFFFFFFFFFFFFFFF DUP3 SUB PUSH2 0x7AB JUMPI PUSH2 0x7AA PUSH2 0x4BC JUMP JUMPDEST JUMPDEST PUSH1 0x1 DUP3 ADD SWAP1 POP SWAP2 SWAP1 POP JUMP INVALID LOG2 PUSH5 0x6970667358 0x22 SLT KECCAK256 0xE2 0x2A RETURNDATACOPY REVERT SELFBALANCE CALLER 0xDB DIV 0x4B 0xCE 0x4D PUSH12 0x3A2F4DA7F5406CA18881860D SGT SHR PUSH24 0x93138DD364736F6C634300081200330000000000000000 "},"methodIdentifiers":{"decimals()":"313ce567","gasPrice()":"fe173b97","getL1Fee(bytes)":"49948e0e","getL1GasUsed(bytes)":"de26c4a1","l1BaseFee()":"519b4bd3","maxUint256()":"b9330829","overhead()":"0c18c162","scalar()":"f45e65d8"}}}}}