{
  "_format": "hh-sol-artifact-1",
  "contractName": "BondManager",
  "sourceName": "contracts/L1/verification/BondManager.sol",
  "abi": [
    {
      "inputs": [
        {
          "internalType": "address",
          "name": "_libAddressManager",
          "type": "address"
        }
      ],
      "stateMutability": "nonpayable",
      "type": "constructor"
    },
    {
      "inputs": [
        {
          "internalType": "address",
          "name": "_who",
          "type": "address"
        }
      ],
      "name": "isCollateralized",
      "outputs": [
        {
          "internalType": "bool",
          "name": "",
          "type": "bool"
        }
      ],
      "stateMutability": "view",
      "type": "function"
    },
    {
      "inputs": [],
      "name": "libAddressManager",
      "outputs": [
        {
          "internalType": "contract Lib_AddressManager",
          "name": "",
          "type": "address"
        }
      ],
      "stateMutability": "view",
      "type": "function"
    },
    {
      "inputs": [
        {
          "internalType": "string",
          "name": "_name",
          "type": "string"
        }
      ],
      "name": "resolve",
      "outputs": [
        {
          "internalType": "address",
          "name": "",
          "type": "address"
        }
      ],
      "stateMutability": "view",
      "type": "function"
    }
  ],
  "bytecode": "0x608060405234801561001057600080fd5b5060405161073b38038061073b833981810160405281019061003291906100dd565b80806000806101000a81548173ffffffffffffffffffffffffffffffffffffffff021916908373ffffffffffffffffffffffffffffffffffffffff160217905550505061010a565b600080fd5b600073ffffffffffffffffffffffffffffffffffffffff82169050919050565b60006100aa8261007f565b9050919050565b6100ba8161009f565b81146100c557600080fd5b50565b6000815190506100d7816100b1565b92915050565b6000602082840312156100f3576100f261007a565b5b6000610101848285016100c8565b91505092915050565b610622806101196000396000f3fe608060405234801561001057600080fd5b50600436106100415760003560e01c806302ad4d2a14610046578063299ca47814610076578063461a447814610094575b600080fd5b610060600480360381019061005b9190610273565b6100c4565b60405161006d91906102bb565b60405180910390f35b61007e610139565b60405161008b9190610335565b60405180910390f35b6100ae60048036038101906100a99190610496565b61015d565b6040516100bb91906104ee565b60405180910390f35b60006101046040518060400160405280600c81526020017f4f564d5f50726f706f736572000000000000000000000000000000000000000081525061015d565b73ffffffffffffffffffffffffffffffffffffffff168273ffffffffffffffffffffffffffffffffffffffff16149050919050565b60008054906101000a900473ffffffffffffffffffffffffffffffffffffffff1681565b60008060009054906101000a900473ffffffffffffffffffffffffffffffffffffffff1673ffffffffffffffffffffffffffffffffffffffff1663bf40fac1836040518263ffffffff1660e01b81526004016101b99190610588565b602060405180830381865afa1580156101d6573d6000803e3d6000fd5b505050506040513d601f19601f820116820180604052508101906101fa91906105bf565b9050919050565b6000604051905090565b600080fd5b600080fd5b600073ffffffffffffffffffffffffffffffffffffffff82169050919050565b600061024082610215565b9050919050565b61025081610235565b811461025b57600080fd5b50565b60008135905061026d81610247565b92915050565b6000602082840312156102895761028861020b565b5b60006102978482850161025e565b91505092915050565b60008115159050919050565b6102b5816102a0565b82525050565b60006020820190506102d060008301846102ac565b92915050565b6000819050919050565b60006102fb6102f66102f184610215565b6102d6565b610215565b9050919050565b600061030d826102e0565b9050919050565b600061031f82610302565b9050919050565b61032f81610314565b82525050565b600060208201905061034a6000830184610326565b92915050565b600080fd5b600080fd5b6000601f19601f8301169050919050565b7f4e487b7100000000000000000000000000000000000000000000000000000000600052604160045260246000fd5b6103a38261035a565b810181811067ffffffffffffffff821117156103c2576103c161036b565b5b80604052505050565b60006103d5610201565b90506103e1828261039a565b919050565b600067ffffffffffffffff8211156104015761040061036b565b5b61040a8261035a565b9050602081019050919050565b82818337600083830152505050565b6000610439610434846103e6565b6103cb565b90508281526020810184848401111561045557610454610355565b5b610460848285610417565b509392505050565b600082601f83011261047d5761047c610350565b5b813561048d848260208601610426565b91505092915050565b6000602082840312156104ac576104ab61020b565b5b600082013567ffffffffffffffff8111156104ca576104c9610210565b5b6104d684828501610468565b91505092915050565b6104e881610235565b82525050565b600060208201905061050360008301846104df565b92915050565b600081519050919050565b600082825260208201905092915050565b60005b83811015610543578082015181840152602081019050610528565b60008484015250505050565b600061055a82610509565b6105648185610514565b9350610574818560208601610525565b61057d8161035a565b840191505092915050565b600060208201905081810360008301526105a2818461054f565b905092915050565b6000815190506105b981610247565b92915050565b6000602082840312156105d5576105d461020b565b5b60006105e3848285016105aa565b9150509291505056fea2646970667358221220ab6d41739e23026fb29be1ac12db0406b26760fefeeab8540f7320e5bd59641064736f6c63430008120033",
  "linkReferences": {},
  "deployedLinkReferences": {}
}