{
  "_format": "hh-sol-artifact-1",
  "contractName": "BondManager",
  "sourceName": "contracts/L1/verification/BondManager.sol",
  "abi": [
    {
      "inputs": [
        {
          "internalType": "address",
          "name": "_libAddressManager",
          "type": "address"
        }
      ],
      "stateMutability": "nonpayable",
      "type": "constructor"
    },
    {
      "inputs": [
        {
          "internalType": "address",
          "name": "_who",
          "type": "address"
        }
      ],
      "name": "isCollateralized",
      "outputs": [
        {
          "internalType": "bool",
          "name": "",
          "type": "bool"
        }
      ],
      "stateMutability": "view",
      "type": "function"
    },
    {
      "inputs": [],
      "name": "libAddressManager",
      "outputs": [
        {
          "internalType": "contract Lib_AddressManager",
          "name": "",
          "type": "address"
        }
      ],
      "stateMutability": "view",
      "type": "function"
    },
    {
      "inputs": [
        {
          "internalType": "string",
          "name": "_name",
          "type": "string"
        }
      ],
      "name": "resolve",
      "outputs": [
        {
          "internalType": "address",
          "name": "",
          "type": "address"
        }
      ],
      "stateMutability": "view",
      "type": "function"
    }
  ],
  "bytecode": "0x608060405234801561001057600080fd5b506040516103e83803806103e883398101604081905261002f91610054565b600080546001600160a01b0319166001600160a01b0392909216919091179055610084565b60006020828403121561006657600080fd5b81516001600160a01b038116811461007d57600080fd5b9392505050565b610355806100936000396000f3fe608060405234801561001057600080fd5b50600436106100415760003560e01c806302ad4d2a14610046578063299ca4781461006e578063461a447814610099575b600080fd5b6100596100543660046101b0565b6100ac565b60405190151581526020015b60405180910390f35b600054610081906001600160a01b031681565b6040516001600160a01b039091168152602001610065565b6100816100a7366004610203565b610107565b60006100ec6040518060400160405280600c81526020017f4f564d5f50726f706f7365720000000000000000000000000000000000000000815250610107565b6001600160a01b0316826001600160a01b0316149050919050565b600080546040517fbf40fac10000000000000000000000000000000000000000000000000000000081526001600160a01b039091169063bf40fac1906101519085906004016102b4565b602060405180830381865afa15801561016e573d6000803e3d6000fd5b505050506040513d601f19601f820116820180604052508101906101929190610302565b92915050565b6001600160a01b03811681146101ad57600080fd5b50565b6000602082840312156101c257600080fd5b81356101cd81610198565b9392505050565b7f4e487b7100000000000000000000000000000000000000000000000000000000600052604160045260246000fd5b60006020828403121561021557600080fd5b813567ffffffffffffffff8082111561022d57600080fd5b818401915084601f83011261024157600080fd5b813581811115610253576102536101d4565b604051601f8201601f19908116603f0116810190838211818310171561027b5761027b6101d4565b8160405282815287602084870101111561029457600080fd5b826020860160208301376000928101602001929092525095945050505050565b600060208083528351808285015260005b818110156102e1578581018301518582016040015282016102c5565b506000604082860101526040601f19601f8301168501019250505092915050565b60006020828403121561031457600080fd5b81516101cd8161019856fea26469706673582212200d0baee3e076bd445505ea580681e32825a227a2463a8ed958dd30678850216e64736f6c63430008120033",
  "linkReferences": {},
  "deployedLinkReferences": {}
}