{
  "_format": "hh-sol-artifact-1",
  "contractName": "MinimalMessageBus",
  "sourceName": "contracts/MinimalMessageBus.sol",
  "abi": [
    {
      "inputs": [
        {
          "internalType": "bytes",
          "name": "",
          "type": "bytes"
        }
      ],
      "name": "calcFee",
      "outputs": [
        {
          "internalType": "uint256",
          "name": "",
          "type": "uint256"
        }
      ],
      "stateMutability": "view",
      "type": "function"
    },
    {
      "inputs": [
        {
          "internalType": "bytes",
          "name": "",
          "type": "bytes"
        },
        {
          "components": [
            {
              "internalType": "address",
              "name": "sender",
              "type": "address"
            },
            {
              "internalType": "address",
              "name": "receiver",
              "type": "address"
            },
            {
              "internalType": "uint64",
              "name": "srcChainId",
              "type": "uint64"
            },
            {
              "internalType": "bytes32",
              "name": "srcTxHash",
              "type": "bytes32"
            }
          ],
          "internalType": "struct MsgDataTypes.RouteInfo",
          "name": "",
          "type": "tuple"
        },
        {
          "internalType": "bytes[]",
          "name": "",
          "type": "bytes[]"
        },
        {
          "internalType": "address[]",
          "name": "",
          "type": "address[]"
        },
        {
          "internalType": "uint256[]",
          "name": "",
          "type": "uint256[]"
        }
      ],
      "name": "executeMessage",
      "outputs": [],
      "stateMutability": "payable",
      "type": "function"
    },
    {
      "inputs": [
        {
          "internalType": "bytes",
          "name": "",
          "type": "bytes"
        },
        {
          "components": [
            {
              "internalType": "enum MsgDataTypes.TransferType",
              "name": "t",
              "type": "uint8"
            },
            {
              "internalType": "address",
              "name": "sender",
              "type": "address"
            },
            {
              "internalType": "address",
              "name": "receiver",
              "type": "address"
            },
            {
              "internalType": "address",
              "name": "token",
              "type": "address"
            },
            {
              "internalType": "uint256",
              "name": "amount",
              "type": "uint256"
            },
            {
              "internalType": "uint64",
              "name": "wdseq",
              "type": "uint64"
            },
            {
              "internalType": "uint64",
              "name": "srcChainId",
              "type": "uint64"
            },
            {
              "internalType": "bytes32",
              "name": "refId",
              "type": "bytes32"
            },
            {
              "internalType": "bytes32",
              "name": "srcTxHash",
              "type": "bytes32"
            }
          ],
          "internalType": "struct MsgDataTypes.TransferInfo",
          "name": "",
          "type": "tuple"
        },
        {
          "internalType": "bytes[]",
          "name": "",
          "type": "bytes[]"
        },
        {
          "internalType": "address[]",
          "name": "",
          "type": "address[]"
        },
        {
          "internalType": "uint256[]",
          "name": "",
          "type": "uint256[]"
        }
      ],
      "name": "executeMessageWithTransfer",
      "outputs": [],
      "stateMutability": "payable",
      "type": "function"
    },
    {
      "inputs": [
        {
          "internalType": "bytes",
          "name": "",
          "type": "bytes"
        },
        {
          "components": [
            {
              "internalType": "enum MsgDataTypes.TransferType",
              "name": "t",
              "type": "uint8"
            },
            {
              "internalType": "address",
              "name": "sender",
              "type": "address"
            },
            {
              "internalType": "address",
              "name": "receiver",
              "type": "address"
            },
            {
              "internalType": "address",
              "name": "token",
              "type": "address"
            },
            {
              "internalType": "uint256",
              "name": "amount",
              "type": "uint256"
            },
            {
              "internalType": "uint64",
              "name": "wdseq",
              "type": "uint64"
            },
            {
              "internalType": "uint64",
              "name": "srcChainId",
              "type": "uint64"
            },
            {
              "internalType": "bytes32",
              "name": "refId",
              "type": "bytes32"
            },
            {
              "internalType": "bytes32",
              "name": "srcTxHash",
              "type": "bytes32"
            }
          ],
          "internalType": "struct MsgDataTypes.TransferInfo",
          "name": "",
          "type": "tuple"
        },
        {
          "internalType": "bytes[]",
          "name": "",
          "type": "bytes[]"
        },
        {
          "internalType": "address[]",
          "name": "",
          "type": "address[]"
        },
        {
          "internalType": "uint256[]",
          "name": "",
          "type": "uint256[]"
        }
      ],
      "name": "executeMessageWithTransferRefund",
      "outputs": [],
      "stateMutability": "payable",
      "type": "function"
    },
    {
      "inputs": [
        {
          "internalType": "address",
          "name": "_user",
          "type": "address"
        },
        {
          "internalType": "address",
          "name": "_nft",
          "type": "address"
        },
        {
          "internalType": "uint256",
          "name": "_id",
          "type": "uint256"
        },
        {
          "internalType": "string",
          "name": "_uri",
          "type": "string"
        }
      ],
      "name": "getEncodedData",
      "outputs": [
        {
          "internalType": "bytes",
          "name": "",
          "type": "bytes"
        }
      ],
      "stateMutability": "pure",
      "type": "function"
    },
    {
      "inputs": [],
      "name": "liquidityBridge",
      "outputs": [
        {
          "internalType": "address",
          "name": "",
          "type": "address"
        }
      ],
      "stateMutability": "view",
      "type": "function"
    },
    {
      "inputs": [],
      "name": "pegBridge",
      "outputs": [
        {
          "internalType": "address",
          "name": "",
          "type": "address"
        }
      ],
      "stateMutability": "view",
      "type": "function"
    },
    {
      "inputs": [],
      "name": "pegBridgeV2",
      "outputs": [
        {
          "internalType": "address",
          "name": "",
          "type": "address"
        }
      ],
      "stateMutability": "view",
      "type": "function"
    },
    {
      "inputs": [],
      "name": "pegVault",
      "outputs": [
        {
          "internalType": "address",
          "name": "",
          "type": "address"
        }
      ],
      "stateMutability": "view",
      "type": "function"
    },
    {
      "inputs": [],
      "name": "pegVaultV2",
      "outputs": [
        {
          "internalType": "address",
          "name": "",
          "type": "address"
        }
      ],
      "stateMutability": "view",
      "type": "function"
    },
    {
      "inputs": [
        {
          "internalType": "address",
          "name": "",
          "type": "address"
        },
        {
          "internalType": "uint256",
          "name": "",
          "type": "uint256"
        },
        {
          "internalType": "bytes",
          "name": "",
          "type": "bytes"
        }
      ],
      "name": "sendMessage",
      "outputs": [],
      "stateMutability": "payable",
      "type": "function"
    },
    {
      "inputs": [
        {
          "internalType": "address",
          "name": "",
          "type": "address"
        },
        {
          "internalType": "uint256",
          "name": "",
          "type": "uint256"
        },
        {
          "internalType": "address",
          "name": "",
          "type": "address"
        },
        {
          "internalType": "bytes32",
          "name": "",
          "type": "bytes32"
        },
        {
          "internalType": "bytes",
          "name": "",
          "type": "bytes"
        }
      ],
      "name": "sendMessageWithTransfer",
      "outputs": [],
      "stateMutability": "payable",
      "type": "function"
    },
    {
      "inputs": [
        {
          "internalType": "address",
          "name": "",
          "type": "address"
        },
        {
          "internalType": "uint256",
          "name": "",
          "type": "uint256"
        },
        {
          "internalType": "bytes[]",
          "name": "",
          "type": "bytes[]"
        },
        {
          "internalType": "address[]",
          "name": "",
          "type": "address[]"
        },
        {
          "internalType": "uint256[]",
          "name": "",
          "type": "uint256[]"
        }
      ],
      "name": "withdrawFee",
      "outputs": [],
      "stateMutability": "nonpayable",
      "type": "function"
    }
  ],
  "bytecode": "0x608060405234801561001057600080fd5b506116fc806100206000396000f3fe6080604052600436106100c25760003560e01c80637b80ab201161007f5780639f3ce55a116100595780639f3ce55a14610230578063c66a9c5a1461024c578063d8257d1714610277578063dfa2dbaf146102a2576100c2565b80637b80ab20146101be57806382980dc4146101da57806395b12c2714610205576100c2565b80632ff4c411146100c75780633f395aff146100f05780634289fbb31461010c578063468a2d04146101285780635335dca214610144578063786f91ce14610181575b600080fd5b3480156100d357600080fd5b506100ee60048036038101906100e991906107f7565b6102cd565b005b61010a6004803603810190610105919061094e565b610318565b005b61012660048036038101906101219190610a84565b610364565b005b610142600480360381019061013d9190610b3d565b6103ad565b005b34801561015057600080fd5b5061016b60048036038101906101669190610c3a565b6103f9565b6040516101789190610c96565b60405180910390f35b34801561018d57600080fd5b506101a860048036038101906101a39190610df2565b610401565b6040516101b59190610efd565b60405180910390f35b6101d860048036038101906101d3919061094e565b61047f565b005b3480156101e657600080fd5b506101ef6104cb565b6040516101fc9190610f2e565b60405180910390f35b34801561021157600080fd5b5061021a610514565b6040516102279190610f2e565b60405180910390f35b61024a60048036038101906102459190610f49565b61055d565b005b34801561025857600080fd5b50610261610563565b60405161026e9190610f2e565b60405180910390f35b34801561028357600080fd5b5061028c6105ac565b6040516102999190610f2e565b60405180910390f35b3480156102ae57600080fd5b506102b76105f5565b6040516102c49190610f2e565b60405180910390f35b600061030e576040517f08c379a000000000000000000000000000000000000000000000000000000000815260040161030590611040565b60405180910390fd5b5050505050505050565b6000610359576040517f08c379a0000000000000000000000000000000000000000000000000000000008152600401610350906110f8565b60405180910390fd5b505050505050505050565b60006103a5576040517f08c379a000000000000000000000000000000000000000000000000000000000815260040161039c9061118a565b60405180910390fd5b505050505050565b60006103ee576040517f08c379a00000000000000000000000000000000000000000000000000000000081526004016103e59061121c565b60405180910390fd5b505050505050505050565b600092915050565b6060600060405180608001604052808773ffffffffffffffffffffffffffffffffffffffff1681526020018673ffffffffffffffffffffffffffffffffffffffff168152602001858152602001848152506040516020016104629190611312565b604051602081830303815290604052905080915050949350505050565b60006104c0576040517f08c379a00000000000000000000000000000000000000000000000000000000081526004016104b7906113cc565b60405180910390fd5b505050505050505050565b60008061050d576040517f08c379a00000000000000000000000000000000000000000000000000000000081526004016105049061145e565b60405180910390fd5b6000905090565b600080610556576040517f08c379a000000000000000000000000000000000000000000000000000000000815260040161054d906114f0565b60405180910390fd5b6000905090565b50505050565b6000806105a5576040517f08c379a000000000000000000000000000000000000000000000000000000000815260040161059c90611582565b60405180910390fd5b6000905090565b6000806105ee576040517f08c379a00000000000000000000000000000000000000000000000000000000081526004016105e590611614565b60405180910390fd5b6000905090565b600080610637576040517f08c379a000000000000000000000000000000000000000000000000000000000815260040161062e906116a6565b60405180910390fd5b6000905090565b6000604051905090565b600080fd5b600080fd5b600073ffffffffffffffffffffffffffffffffffffffff82169050919050565b600061067d82610652565b9050919050565b61068d81610672565b811461069857600080fd5b50565b6000813590506106aa81610684565b92915050565b6000819050919050565b6106c3816106b0565b81146106ce57600080fd5b50565b6000813590506106e0816106ba565b92915050565b600080fd5b600080fd5b600080fd5b60008083601f84011261070b5761070a6106e6565b5b8235905067ffffffffffffffff811115610728576107276106eb565b5b602083019150836020820283011115610744576107436106f0565b5b9250929050565b60008083601f840112610761576107606106e6565b5b8235905067ffffffffffffffff81111561077e5761077d6106eb565b5b60208301915083602082028301111561079a576107996106f0565b5b9250929050565b60008083601f8401126107b7576107b66106e6565b5b8235905067ffffffffffffffff8111156107d4576107d36106eb565b5b6020830191508360208202830111156107f0576107ef6106f0565b5b9250929050565b60008060008060008060008060a0898b03121561081757610816610648565b5b60006108258b828c0161069b565b98505060206108368b828c016106d1565b975050604089013567ffffffffffffffff8111156108575761085661064d565b5b6108638b828c016106f5565b9650965050606089013567ffffffffffffffff8111156108865761088561064d565b5b6108928b828c0161074b565b9450945050608089013567ffffffffffffffff8111156108b5576108b461064d565b5b6108c18b828c016107a1565b92509250509295985092959890939650565b60008083601f8401126108e9576108e86106e6565b5b8235905067ffffffffffffffff811115610906576109056106eb565b5b602083019150836001820283011115610922576109216106f0565b5b9250929050565b600080fd5b6000610120828403121561094557610944610929565b5b81905092915050565b60008060008060008060008060006101a08a8c03121561097157610970610648565b5b60008a013567ffffffffffffffff81111561098f5761098e61064d565b5b61099b8c828d016108d3565b995099505060206109ae8c828d0161092e565b9750506101408a013567ffffffffffffffff8111156109d0576109cf61064d565b5b6109dc8c828d016106f5565b96509650506101608a013567ffffffffffffffff811115610a00576109ff61064d565b5b610a0c8c828d0161074b565b94509450506101808a013567ffffffffffffffff811115610a3057610a2f61064d565b5b610a3c8c828d016107a1565b92509250509295985092959850929598565b6000819050919050565b610a6181610a4e565b8114610a6c57600080fd5b50565b600081359050610a7e81610a58565b92915050565b60008060008060008060a08789031215610aa157610aa0610648565b5b6000610aaf89828a0161069b565b9650506020610ac089828a016106d1565b9550506040610ad189828a0161069b565b9450506060610ae289828a01610a6f565b935050608087013567ffffffffffffffff811115610b0357610b0261064d565b5b610b0f89828a016108d3565b92509250509295509295509295565b600060808284031215610b3457610b33610929565b5b81905092915050565b60008060008060008060008060006101008a8c031215610b6057610b5f610648565b5b60008a013567ffffffffffffffff811115610b7e57610b7d61064d565b5b610b8a8c828d016108d3565b99509950506020610b9d8c828d01610b1e565b97505060a08a013567ffffffffffffffff811115610bbe57610bbd61064d565b5b610bca8c828d016106f5565b965096505060c08a013567ffffffffffffffff811115610bed57610bec61064d565b5b610bf98c828d0161074b565b945094505060e08a013567ffffffffffffffff811115610c1c57610c1b61064d565b5b610c288c828d016107a1565b92509250509295985092959850929598565b60008060208385031215610c5157610c50610648565b5b600083013567ffffffffffffffff811115610c6f57610c6e61064d565b5b610c7b858286016108d3565b92509250509250929050565b610c90816106b0565b82525050565b6000602082019050610cab6000830184610c87565b92915050565b600080fd5b6000601f19601f8301169050919050565b7f4e487b7100000000000000000000000000000000000000000000000000000000600052604160045260246000fd5b610cff82610cb6565b810181811067ffffffffffffffff82111715610d1e57610d1d610cc7565b5b80604052505050565b6000610d3161063e565b9050610d3d8282610cf6565b919050565b600067ffffffffffffffff821115610d5d57610d5c610cc7565b5b610d6682610cb6565b9050602081019050919050565b82818337600083830152505050565b6000610d95610d9084610d42565b610d27565b905082815260208101848484011115610db157610db0610cb1565b5b610dbc848285610d73565b509392505050565b600082601f830112610dd957610dd86106e6565b5b8135610de9848260208601610d82565b91505092915050565b60008060008060808587031215610e0c57610e0b610648565b5b6000610e1a8782880161069b565b9450506020610e2b8782880161069b565b9350506040610e3c878288016106d1565b925050606085013567ffffffffffffffff811115610e5d57610e5c61064d565b5b610e6987828801610dc4565b91505092959194509250565b600081519050919050565b600082825260208201905092915050565b60005b83811015610eaf578082015181840152602081019050610e94565b83811115610ebe576000848401525b50505050565b6000610ecf82610e75565b610ed98185610e80565b9350610ee9818560208601610e91565b610ef281610cb6565b840191505092915050565b60006020820190508181036000830152610f178184610ec4565b905092915050565b610f2881610672565b82525050565b6000602082019050610f436000830184610f1f565b92915050565b60008060008060608587031215610f6357610f62610648565b5b6000610f718782880161069b565b9450506020610f82878288016106d1565b935050604085013567ffffffffffffffff811115610fa357610fa261064d565b5b610faf878288016108d3565b925092505092959194509250565b600082825260208201905092915050565b7f4d696e696d616c4d6573736167654275733a207769746864726177466565206960008201527f73206e6f7420696d706c656d656e746564210000000000000000000000000000602082015250565b600061102a603283610fbd565b915061103582610fce565b604082019050919050565b600060208201905081810360008301526110598161101d565b9050919050565b7f4d696e696d616c4d6573736167654275733a20657865637574654d657373616760008201527f65576974685472616e73666572206973206e6f7420696d706c656d656e74656460208201527f2100000000000000000000000000000000000000000000000000000000000000604082015250565b60006110e2604183610fbd565b91506110ed82611060565b606082019050919050565b60006020820190508181036000830152611111816110d5565b9050919050565b7f4d696e696d616c4d6573736167654275733a2073656e644d657373616765576960008201527f74685472616e73666572206973206e6f7420696d706c656d656e746564210000602082015250565b6000611174603e83610fbd565b915061117f82611118565b604082019050919050565b600060208201905081810360008301526111a381611167565b9050919050565b7f4d696e696d616c4d6573736167654275733a20657865637574654d657373616760008201527f65206973206e6f7420696d706c656d656e746564210000000000000000000000602082015250565b6000611206603583610fbd565b9150611211826111aa565b604082019050919050565b60006020820190508181036000830152611235816111f9565b9050919050565b61124581610672565b82525050565b611254816106b0565b82525050565b600081519050919050565b600082825260208201905092915050565b60006112818261125a565b61128b8185611265565b935061129b818560208601610e91565b6112a481610cb6565b840191505092915050565b60006080830160008301516112c7600086018261123c565b5060208301516112da602086018261123c565b5060408301516112ed604086018261124b565b50606083015184820360608601526113058282611276565b9150508091505092915050565b6000602082019050818103600083015261132c81846112af565b905092915050565b7f4d696e696d616c4d6573736167654275733a20657865637574654d657373616760008201527f65576974685472616e73666572526566756e64206973206e6f7420696d706c6560208201527f6d656e7465642100000000000000000000000000000000000000000000000000604082015250565b60006113b6604783610fbd565b91506113c182611334565b606082019050919050565b600060208201905081810360008301526113e5816113a9565b9050919050565b7f4d696e696d616c4d6573736167654275733a206c69717569646974794272696460008201527f6765206973206e6f7420696d706c656d656e7465642100000000000000000000602082015250565b6000611448603683610fbd565b9150611453826113ec565b604082019050919050565b600060208201905081810360008301526114778161143b565b9050919050565b7f4d696e696d616c4d6573736167654275733a207065674272696467655632206960008201527f73206e6f7420696d706c656d656e746564210000000000000000000000000000602082015250565b60006114da603283610fbd565b91506114e58261147e565b604082019050919050565b60006020820190508181036000830152611509816114cd565b9050919050565b7f4d696e696d616c4d6573736167654275733a207065675661756c74563220697360008201527f206e6f7420696d706c656d656e74656421000000000000000000000000000000602082015250565b600061156c603183610fbd565b915061157782611510565b604082019050919050565b6000602082019050818103600083015261159b8161155f565b9050919050565b7f4d696e696d616c4d6573736167654275733a207065675661756c74206973206e60008201527f6f7420696d706c656d656e746564210000000000000000000000000000000000602082015250565b60006115fe602f83610fbd565b9150611609826115a2565b604082019050919050565b6000602082019050818103600083015261162d816115f1565b9050919050565b7f4d696e696d616c4d6573736167654275733a207065674272696467652069732060008201527f6e6f7420696d706c656d656e7465642100000000000000000000000000000000602082015250565b6000611690603083610fbd565b915061169b82611634565b604082019050919050565b600060208201905081810360008301526116bf81611683565b905091905056fea2646970667358221220e0bf29fe28393e18ba73c0708881dbd7f3e80677881e1913326edb55ec8e37fb64736f6c63430008090033",
  "linkReferences": {},
  "deployedLinkReferences": {}
}