{
  "_format": "hh-sol-artifact-1",
  "contractName": "FaucetHashi721",
  "sourceName": "contracts/FaucetHashi721.sol",
  "abi": [
    {
      "inputs": [
        {
          "internalType": "string",
          "name": "tokenURI_",
          "type": "string"
        }
      ],
      "stateMutability": "nonpayable",
      "type": "constructor"
    },
    {
      "anonymous": false,
      "inputs": [
        {
          "indexed": true,
          "internalType": "address",
          "name": "owner",
          "type": "address"
        },
        {
          "indexed": true,
          "internalType": "address",
          "name": "approved",
          "type": "address"
        },
        {
          "indexed": true,
          "internalType": "uint256",
          "name": "tokenId",
          "type": "uint256"
        }
      ],
      "name": "Approval",
      "type": "event"
    },
    {
      "anonymous": false,
      "inputs": [
        {
          "indexed": true,
          "internalType": "address",
          "name": "owner",
          "type": "address"
        },
        {
          "indexed": true,
          "internalType": "address",
          "name": "operator",
          "type": "address"
        },
        {
          "indexed": false,
          "internalType": "bool",
          "name": "approved",
          "type": "bool"
        }
      ],
      "name": "ApprovalForAll",
      "type": "event"
    },
    {
      "anonymous": false,
      "inputs": [
        {
          "indexed": false,
          "internalType": "uint8",
          "name": "version",
          "type": "uint8"
        }
      ],
      "name": "Initialized",
      "type": "event"
    },
    {
      "anonymous": false,
      "inputs": [
        {
          "indexed": true,
          "internalType": "address",
          "name": "from",
          "type": "address"
        },
        {
          "indexed": true,
          "internalType": "address",
          "name": "to",
          "type": "address"
        },
        {
          "indexed": true,
          "internalType": "uint256",
          "name": "tokenId",
          "type": "uint256"
        }
      ],
      "name": "Transfer",
      "type": "event"
    },
    {
      "inputs": [
        {
          "internalType": "address",
          "name": "to",
          "type": "address"
        },
        {
          "internalType": "uint256",
          "name": "tokenId",
          "type": "uint256"
        }
      ],
      "name": "approve",
      "outputs": [],
      "stateMutability": "nonpayable",
      "type": "function"
    },
    {
      "inputs": [
        {
          "internalType": "address",
          "name": "owner",
          "type": "address"
        }
      ],
      "name": "balanceOf",
      "outputs": [
        {
          "internalType": "uint256",
          "name": "",
          "type": "uint256"
        }
      ],
      "stateMutability": "view",
      "type": "function"
    },
    {
      "inputs": [
        {
          "internalType": "uint256",
          "name": "tokenId",
          "type": "uint256"
        }
      ],
      "name": "getApproved",
      "outputs": [
        {
          "internalType": "address",
          "name": "",
          "type": "address"
        }
      ],
      "stateMutability": "view",
      "type": "function"
    },
    {
      "inputs": [
        {
          "internalType": "address",
          "name": "owner",
          "type": "address"
        },
        {
          "internalType": "address",
          "name": "operator",
          "type": "address"
        }
      ],
      "name": "isApprovedForAll",
      "outputs": [
        {
          "internalType": "bool",
          "name": "",
          "type": "bool"
        }
      ],
      "stateMutability": "view",
      "type": "function"
    },
    {
      "inputs": [],
      "name": "mint",
      "outputs": [],
      "stateMutability": "nonpayable",
      "type": "function"
    },
    {
      "inputs": [],
      "name": "name",
      "outputs": [
        {
          "internalType": "string",
          "name": "",
          "type": "string"
        }
      ],
      "stateMutability": "view",
      "type": "function"
    },
    {
      "inputs": [
        {
          "internalType": "uint256",
          "name": "tokenId",
          "type": "uint256"
        }
      ],
      "name": "ownerOf",
      "outputs": [
        {
          "internalType": "address",
          "name": "",
          "type": "address"
        }
      ],
      "stateMutability": "view",
      "type": "function"
    },
    {
      "inputs": [
        {
          "internalType": "address",
          "name": "from",
          "type": "address"
        },
        {
          "internalType": "address",
          "name": "to",
          "type": "address"
        },
        {
          "internalType": "uint256",
          "name": "tokenId",
          "type": "uint256"
        }
      ],
      "name": "safeTransferFrom",
      "outputs": [],
      "stateMutability": "nonpayable",
      "type": "function"
    },
    {
      "inputs": [
        {
          "internalType": "address",
          "name": "from",
          "type": "address"
        },
        {
          "internalType": "address",
          "name": "to",
          "type": "address"
        },
        {
          "internalType": "uint256",
          "name": "tokenId",
          "type": "uint256"
        },
        {
          "internalType": "bytes",
          "name": "data",
          "type": "bytes"
        }
      ],
      "name": "safeTransferFrom",
      "outputs": [],
      "stateMutability": "nonpayable",
      "type": "function"
    },
    {
      "inputs": [
        {
          "internalType": "address",
          "name": "operator",
          "type": "address"
        },
        {
          "internalType": "bool",
          "name": "approved",
          "type": "bool"
        }
      ],
      "name": "setApprovalForAll",
      "outputs": [],
      "stateMutability": "nonpayable",
      "type": "function"
    },
    {
      "inputs": [
        {
          "internalType": "bytes4",
          "name": "interfaceId",
          "type": "bytes4"
        }
      ],
      "name": "supportsInterface",
      "outputs": [
        {
          "internalType": "bool",
          "name": "",
          "type": "bool"
        }
      ],
      "stateMutability": "view",
      "type": "function"
    },
    {
      "inputs": [],
      "name": "symbol",
      "outputs": [
        {
          "internalType": "string",
          "name": "",
          "type": "string"
        }
      ],
      "stateMutability": "view",
      "type": "function"
    },
    {
      "inputs": [
        {
          "internalType": "uint256",
          "name": "",
          "type": "uint256"
        }
      ],
      "name": "tokenURI",
      "outputs": [
        {
          "internalType": "string",
          "name": "",
          "type": "string"
        }
      ],
      "stateMutability": "view",
      "type": "function"
    },
    {
      "inputs": [],
      "name": "totalSupply",
      "outputs": [
        {
          "internalType": "uint256",
          "name": "",
          "type": "uint256"
        }
      ],
      "stateMutability": "view",
      "type": "function"
    },
    {
      "inputs": [
        {
          "internalType": "address",
          "name": "from",
          "type": "address"
        },
        {
          "internalType": "address",
          "name": "to",
          "type": "address"
        },
        {
          "internalType": "uint256",
          "name": "tokenId",
          "type": "uint256"
        }
      ],
      "name": "transferFrom",
      "outputs": [],
      "stateMutability": "nonpayable",
      "type": "function"
    }
  ],
  "bytecode": "0x60806040523480156200001157600080fd5b50604051620015b2380380620015b2833981016040819052620000349162000060565b6098620000428282620001c4565b505062000290565b634e487b7160e01b600052604160045260246000fd5b600060208083850312156200007457600080fd5b82516001600160401b03808211156200008c57600080fd5b818501915085601f830112620000a157600080fd5b815181811115620000b657620000b66200004a565b604051601f8201601f19908116603f01168101908382118183101715620000e157620000e16200004a565b816040528281528886848701011115620000fa57600080fd5b600093505b828410156200011e5784840186015181850187015292850192620000ff565b600086848301015280965050505050505092915050565b600181811c908216806200014a57607f821691505b6020821081036200016b57634e487b7160e01b600052602260045260246000fd5b50919050565b601f821115620001bf57600081815260208120601f850160051c810160208610156200019a5750805b601f850160051c820191505b81811015620001bb57828155600101620001a6565b5050505b505050565b81516001600160401b03811115620001e057620001e06200004a565b620001f881620001f1845462000135565b8462000171565b602080601f831160018114620002305760008415620002175750858301515b600019600386901b1c1916600185901b178555620001bb565b600085815260208120601f198616915b82811015620002615788860151825594840194600190910190840162000240565b5085821015620002805787850151600019600388901b60f8161c191681555b5050505050600190811b01905550565b61131280620002a06000396000f3fe608060405234801561001057600080fd5b50600436106100f55760003560e01c806342842e0e11610097578063a22cb46511610066578063a22cb465146101ea578063b88d4fde146101fd578063c87b56dd14610210578063e985e9c51461022357600080fd5b806342842e0e146101a95780636352211e146101bc57806370a08231146101cf57806395d89b41146101e257600080fd5b8063095ea7b3116100d3578063095ea7b3146101625780631249c58b1461017757806318160ddd1461017f57806323b872dd1461019657600080fd5b806301ffc9a7146100fa57806306fdde0314610122578063081812fc14610137575b600080fd5b61010d610108366004610f8e565b61025f565b60405190151581526020015b60405180910390f35b61012a6102fc565b6040516101199190610ff8565b61014a61014536600461100b565b61038e565b6040516001600160a01b039091168152602001610119565b610175610170366004611040565b6103b5565b005b6101756104eb565b61018860975481565b604051908152602001610119565b6101756101a436600461106a565b61050a565b6101756101b736600461106a565b610581565b61014a6101ca36600461100b565b61059c565b6101886101dd3660046110a6565b610601565b61012a61069b565b6101756101f83660046110c1565b6106aa565b61017561020b366004611113565b6106b9565b61012a61021e36600461100b565b610737565b61010d6102313660046111ef565b6001600160a01b039182166000908152606a6020908152604080832093909416825291909152205460ff1690565b60006001600160e01b031982167f80ac58cd0000000000000000000000000000000000000000000000000000000014806102c257506001600160e01b031982167f5b5e139f00000000000000000000000000000000000000000000000000000000145b806102f657507f01ffc9a7000000000000000000000000000000000000000000000000000000006001600160e01b03198316145b92915050565b60606065805461030b90611222565b80601f016020809104026020016040519081016040528092919081815260200182805461033790611222565b80156103845780601f1061035957610100808354040283529160200191610384565b820191906000526020600020905b81548152906001019060200180831161036757829003601f168201915b5050505050905090565b6000610399826107cb565b506000908152606960205260409020546001600160a01b031690565b60006103c08261059c565b9050806001600160a01b0316836001600160a01b03160361044e5760405162461bcd60e51b815260206004820152602160248201527f4552433732313a20617070726f76616c20746f2063757272656e74206f776e6560448201527f720000000000000000000000000000000000000000000000000000000000000060648201526084015b60405180910390fd5b336001600160a01b038216148061046a575061046a8133610231565b6104dc5760405162461bcd60e51b815260206004820152603d60248201527f4552433732313a20617070726f76652063616c6c6572206973206e6f7420746f60448201527f6b656e206f776e6572206f7220617070726f76656420666f7220616c6c0000006064820152608401610445565b6104e68383610832565b505050565b61050833609780549060006104ff8361125c565b919050556108ad565b565b6105143382610a45565b6105765760405162461bcd60e51b815260206004820152602d60248201527f4552433732313a2063616c6c6572206973206e6f7420746f6b656e206f776e6560448201526c1c881bdc88185c1c1c9bdd9959609a1b6064820152608401610445565b6104e6838383610ac4565b6104e6838383604051806020016040528060008152506106b9565b6000818152606760205260408120546001600160a01b0316806102f65760405162461bcd60e51b815260206004820152601860248201527f4552433732313a20696e76616c696420746f6b656e20494400000000000000006044820152606401610445565b60006001600160a01b03821661067f5760405162461bcd60e51b815260206004820152602960248201527f4552433732313a2061646472657373207a65726f206973206e6f74206120766160448201527f6c6964206f776e657200000000000000000000000000000000000000000000006064820152608401610445565b506001600160a01b031660009081526068602052604090205490565b60606066805461030b90611222565b6106b5338383610cca565b5050565b6106c33383610a45565b6107255760405162461bcd60e51b815260206004820152602d60248201527f4552433732313a2063616c6c6572206973206e6f7420746f6b656e206f776e6560448201526c1c881bdc88185c1c1c9bdd9959609a1b6064820152608401610445565b61073184848484610d98565b50505050565b60606098805461074690611222565b80601f016020809104026020016040519081016040528092919081815260200182805461077290611222565b80156107bf5780601f10610794576101008083540402835291602001916107bf565b820191906000526020600020905b8154815290600101906020018083116107a257829003601f168201915b50505050509050919050565b6000818152606760205260409020546001600160a01b031661082f5760405162461bcd60e51b815260206004820152601860248201527f4552433732313a20696e76616c696420746f6b656e20494400000000000000006044820152606401610445565b50565b6000818152606960205260409020805473ffffffffffffffffffffffffffffffffffffffff19166001600160a01b03841690811790915581906108748261059c565b6001600160a01b03167f8c5be1e5ebec7d5bd14f71427d1e84f3dd0314c0f7b2291e5b200ac8c7c3b92560405160405180910390a45050565b6001600160a01b0382166109035760405162461bcd60e51b815260206004820181905260248201527f4552433732313a206d696e7420746f20746865207a65726f20616464726573736044820152606401610445565b6000818152606760205260409020546001600160a01b0316156109685760405162461bcd60e51b815260206004820152601c60248201527f4552433732313a20746f6b656e20616c7265616479206d696e746564000000006044820152606401610445565b6000818152606760205260409020546001600160a01b0316156109cd5760405162461bcd60e51b815260206004820152601c60248201527f4552433732313a20746f6b656e20616c7265616479206d696e746564000000006044820152606401610445565b6001600160a01b0382166000818152606860209081526040808320805460010190558483526067909152808220805473ffffffffffffffffffffffffffffffffffffffff19168417905551839291907fddf252ad1be2c89b69c2b068fc378daa952ba7f163c4a11628f55a4df523b3ef908290a45050565b600080610a518361059c565b9050806001600160a01b0316846001600160a01b03161480610a9857506001600160a01b038082166000908152606a602090815260408083209388168352929052205460ff165b80610abc5750836001600160a01b0316610ab18461038e565b6001600160a01b0316145b949350505050565b826001600160a01b0316610ad78261059c565b6001600160a01b031614610b3b5760405162461bcd60e51b815260206004820152602560248201527f4552433732313a207472616e736665722066726f6d20696e636f72726563742060448201526437bbb732b960d91b6064820152608401610445565b6001600160a01b038216610bb65760405162461bcd60e51b8152602060048201526024808201527f4552433732313a207472616e7366657220746f20746865207a65726f2061646460448201527f72657373000000000000000000000000000000000000000000000000000000006064820152608401610445565b826001600160a01b0316610bc98261059c565b6001600160a01b031614610c2d5760405162461bcd60e51b815260206004820152602560248201527f4552433732313a207472616e736665722066726f6d20696e636f72726563742060448201526437bbb732b960d91b6064820152608401610445565b6000818152606960209081526040808320805473ffffffffffffffffffffffffffffffffffffffff199081169091556001600160a01b0387811680865260688552838620805460001901905590871680865283862080546001019055868652606790945282852080549092168417909155905184937fddf252ad1be2c89b69c2b068fc378daa952ba7f163c4a11628f55a4df523b3ef91a4505050565b816001600160a01b0316836001600160a01b031603610d2b5760405162461bcd60e51b815260206004820152601960248201527f4552433732313a20617070726f766520746f2063616c6c6572000000000000006044820152606401610445565b6001600160a01b038381166000818152606a6020908152604080832094871680845294825291829020805460ff191686151590811790915591519182527f17307eab39ab6107e8899845ad3d59bd9653f200f220920489ca2b5937696c31910160405180910390a3505050565b610da3848484610ac4565b610daf84848484610e21565b6107315760405162461bcd60e51b815260206004820152603260248201527f4552433732313a207472616e7366657220746f206e6f6e20455243373231526560448201527f63656976657220696d706c656d656e74657200000000000000000000000000006064820152608401610445565b60006001600160a01b0384163b15610f6d57604051630a85bd0160e11b81526001600160a01b0385169063150b7a0290610e65903390899088908890600401611283565b6020604051808303816000875af1925050508015610ea0575060408051601f3d908101601f19168201909252610e9d918101906112bf565b60015b610f53573d808015610ece576040519150601f19603f3d011682016040523d82523d6000602084013e610ed3565b606091505b508051600003610f4b5760405162461bcd60e51b815260206004820152603260248201527f4552433732313a207472616e7366657220746f206e6f6e20455243373231526560448201527f63656976657220696d706c656d656e74657200000000000000000000000000006064820152608401610445565b805181602001fd5b6001600160e01b031916630a85bd0160e11b149050610abc565b506001949350505050565b6001600160e01b03198116811461082f57600080fd5b600060208284031215610fa057600080fd5b8135610fab81610f78565b9392505050565b6000815180845260005b81811015610fd857602081850181015186830182015201610fbc565b506000602082860101526020601f19601f83011685010191505092915050565b602081526000610fab6020830184610fb2565b60006020828403121561101d57600080fd5b5035919050565b80356001600160a01b038116811461103b57600080fd5b919050565b6000806040838503121561105357600080fd5b61105c83611024565b946020939093013593505050565b60008060006060848603121561107f57600080fd5b61108884611024565b925061109660208501611024565b9150604084013590509250925092565b6000602082840312156110b857600080fd5b610fab82611024565b600080604083850312156110d457600080fd5b6110dd83611024565b9150602083013580151581146110f257600080fd5b809150509250929050565b634e487b7160e01b600052604160045260246000fd5b6000806000806080858703121561112957600080fd5b61113285611024565b935061114060208601611024565b925060408501359150606085013567ffffffffffffffff8082111561116457600080fd5b818701915087601f83011261117857600080fd5b81358181111561118a5761118a6110fd565b604051601f8201601f19908116603f011681019083821181831017156111b2576111b26110fd565b816040528281528a60208487010111156111cb57600080fd5b82602086016020830137600060208483010152809550505050505092959194509250565b6000806040838503121561120257600080fd5b61120b83611024565b915061121960208401611024565b90509250929050565b600181811c9082168061123657607f821691505b60208210810361125657634e487b7160e01b600052602260045260246000fd5b50919050565b60006001820161127c57634e487b7160e01b600052601160045260246000fd5b5060010190565b60006001600160a01b038087168352808616602084015250836040830152608060608301526112b56080830184610fb2565b9695505050505050565b6000602082840312156112d157600080fd5b8151610fab81610f7856fea26469706673582212208a4a63f11484362511cf72d4a39bca2d40350eff6c1d4b93b50904af95d0d51864736f6c63430008110033",
  "linkReferences": {},
  "deployedLinkReferences": {}
}