{
  "_format": "hh-sol-artifact-1",
  "contractName": "RootManager",
  "sourceName": "contracts/messaging/RootManager.sol",
  "abi": [
    {
      "inputs": [
        {
          "internalType": "uint256",
          "name": "_delayBlocks",
          "type": "uint256"
        },
        {
          "internalType": "address",
          "name": "_merkle",
          "type": "address"
        },
        {
          "internalType": "address",
          "name": "_watcherManager",
          "type": "address"
        }
      ],
      "stateMutability": "nonpayable",
      "type": "constructor"
    },
    {
      "inputs": [],
      "name": "ProposedOwnable__onlyOwner_notOwner",
      "type": "error"
    },
    {
      "inputs": [],
      "name": "ProposedOwnable__onlyProposed_notProposedOwner",
      "type": "error"
    },
    {
      "inputs": [],
      "name": "ProposedOwnable__ownershipDelayElapsed_delayNotElapsed",
      "type": "error"
    },
    {
      "inputs": [],
      "name": "ProposedOwnable__proposeNewOwner_invalidProposal",
      "type": "error"
    },
    {
      "inputs": [],
      "name": "ProposedOwnable__proposeNewOwner_noOwnershipChange",
      "type": "error"
    },
    {
      "inputs": [],
      "name": "ProposedOwnable__renounceOwnership_invalidProposal",
      "type": "error"
    },
    {
      "inputs": [],
      "name": "ProposedOwnable__renounceOwnership_noProposal",
      "type": "error"
    },
    {
      "anonymous": false,
      "inputs": [
        {
          "indexed": false,
          "internalType": "uint32",
          "name": "domain",
          "type": "uint32"
        },
        {
          "indexed": false,
          "internalType": "address",
          "name": "connector",
          "type": "address"
        },
        {
          "indexed": false,
          "internalType": "uint32[]",
          "name": "domains",
          "type": "uint32[]"
        },
        {
          "indexed": false,
          "internalType": "address[]",
          "name": "connectors",
          "type": "address[]"
        }
      ],
      "name": "ConnectorAdded",
      "type": "event"
    },
    {
      "anonymous": false,
      "inputs": [
        {
          "indexed": false,
          "internalType": "uint32",
          "name": "domain",
          "type": "uint32"
        },
        {
          "indexed": false,
          "internalType": "address",
          "name": "connector",
          "type": "address"
        },
        {
          "indexed": false,
          "internalType": "uint32[]",
          "name": "domains",
          "type": "uint32[]"
        },
        {
          "indexed": false,
          "internalType": "address[]",
          "name": "connectors",
          "type": "address[]"
        },
        {
          "indexed": false,
          "internalType": "address",
          "name": "caller",
          "type": "address"
        }
      ],
      "name": "ConnectorRemoved",
      "type": "event"
    },
    {
      "anonymous": false,
      "inputs": [
        {
          "indexed": false,
          "internalType": "uint256",
          "name": "previous",
          "type": "uint256"
        },
        {
          "indexed": false,
          "internalType": "uint256",
          "name": "updated",
          "type": "uint256"
        }
      ],
      "name": "DelayBlocksUpdated",
      "type": "event"
    },
    {
      "anonymous": false,
      "inputs": [
        {
          "indexed": false,
          "internalType": "uint32",
          "name": "domain",
          "type": "uint32"
        },
        {
          "indexed": false,
          "internalType": "address",
          "name": "connector",
          "type": "address"
        }
      ],
      "name": "DomainAdded",
      "type": "event"
    },
    {
      "anonymous": false,
      "inputs": [
        {
          "indexed": false,
          "internalType": "uint32",
          "name": "domain",
          "type": "uint32"
        }
      ],
      "name": "DomainRemoved",
      "type": "event"
    },
    {
      "anonymous": false,
      "inputs": [
        {
          "indexed": true,
          "internalType": "address",
          "name": "proposedOwner",
          "type": "address"
        }
      ],
      "name": "OwnershipProposed",
      "type": "event"
    },
    {
      "anonymous": false,
      "inputs": [
        {
          "indexed": true,
          "internalType": "address",
          "name": "previousOwner",
          "type": "address"
        },
        {
          "indexed": true,
          "internalType": "address",
          "name": "newOwner",
          "type": "address"
        }
      ],
      "name": "OwnershipTransferred",
      "type": "event"
    },
    {
      "anonymous": false,
      "inputs": [
        {
          "indexed": false,
          "internalType": "address",
          "name": "account",
          "type": "address"
        }
      ],
      "name": "Paused",
      "type": "event"
    },
    {
      "anonymous": false,
      "inputs": [
        {
          "indexed": false,
          "internalType": "uint32",
          "name": "domain",
          "type": "uint32"
        },
        {
          "indexed": false,
          "internalType": "address",
          "name": "connector",
          "type": "address"
        }
      ],
      "name": "PropagateFailed",
      "type": "event"
    },
    {
      "anonymous": false,
      "inputs": [
        {
          "indexed": false,
          "internalType": "bytes32",
          "name": "fraudulentRoot",
          "type": "bytes32"
        }
      ],
      "name": "RootDiscarded",
      "type": "event"
    },
    {
      "anonymous": false,
      "inputs": [
        {
          "indexed": false,
          "internalType": "bytes32",
          "name": "aggregateRoot",
          "type": "bytes32"
        },
        {
          "indexed": false,
          "internalType": "uint256",
          "name": "count",
          "type": "uint256"
        },
        {
          "indexed": false,
          "internalType": "bytes32",
          "name": "domainsHash",
          "type": "bytes32"
        }
      ],
      "name": "RootPropagated",
      "type": "event"
    },
    {
      "anonymous": false,
      "inputs": [
        {
          "indexed": false,
          "internalType": "uint32",
          "name": "domain",
          "type": "uint32"
        },
        {
          "indexed": false,
          "internalType": "bytes32",
          "name": "receivedRoot",
          "type": "bytes32"
        },
        {
          "indexed": false,
          "internalType": "uint256",
          "name": "queueIndex",
          "type": "uint256"
        }
      ],
      "name": "RootReceived",
      "type": "event"
    },
    {
      "anonymous": false,
      "inputs": [
        {
          "indexed": false,
          "internalType": "bytes32",
          "name": "aggregateRoot",
          "type": "bytes32"
        },
        {
          "indexed": false,
          "internalType": "uint256",
          "name": "count",
          "type": "uint256"
        },
        {
          "indexed": false,
          "internalType": "bytes32[]",
          "name": "aggregatedMessageRoots",
          "type": "bytes32[]"
        }
      ],
      "name": "RootsAggregated",
      "type": "event"
    },
    {
      "anonymous": false,
      "inputs": [
        {
          "indexed": false,
          "internalType": "address",
          "name": "account",
          "type": "address"
        }
      ],
      "name": "Unpaused",
      "type": "event"
    },
    {
      "anonymous": false,
      "inputs": [
        {
          "indexed": false,
          "internalType": "address",
          "name": "watcherManager",
          "type": "address"
        }
      ],
      "name": "WatcherManagerChanged",
      "type": "event"
    },
    {
      "inputs": [],
      "name": "DEQUEUE_MAX",
      "outputs": [
        {
          "internalType": "uint128",
          "name": "",
          "type": "uint128"
        }
      ],
      "stateMutability": "view",
      "type": "function"
    },
    {
      "inputs": [],
      "name": "MAX_DOMAINS",
      "outputs": [
        {
          "internalType": "uint256",
          "name": "",
          "type": "uint256"
        }
      ],
      "stateMutability": "view",
      "type": "function"
    },
    {
      "inputs": [],
      "name": "MERKLE",
      "outputs": [
        {
          "internalType": "contract MerkleTreeManager",
          "name": "",
          "type": "address"
        }
      ],
      "stateMutability": "view",
      "type": "function"
    },
    {
      "inputs": [],
      "name": "acceptProposedOwner",
      "outputs": [],
      "stateMutability": "nonpayable",
      "type": "function"
    },
    {
      "inputs": [
        {
          "internalType": "uint32",
          "name": "_domain",
          "type": "uint32"
        },
        {
          "internalType": "address",
          "name": "_connector",
          "type": "address"
        }
      ],
      "name": "addConnector",
      "outputs": [],
      "stateMutability": "nonpayable",
      "type": "function"
    },
    {
      "inputs": [
        {
          "internalType": "uint32",
          "name": "_domain",
          "type": "uint32"
        },
        {
          "internalType": "bytes32",
          "name": "_inbound",
          "type": "bytes32"
        }
      ],
      "name": "aggregate",
      "outputs": [],
      "stateMutability": "nonpayable",
      "type": "function"
    },
    {
      "inputs": [
        {
          "internalType": "uint256",
          "name": "",
          "type": "uint256"
        }
      ],
      "name": "connectors",
      "outputs": [
        {
          "internalType": "address",
          "name": "",
          "type": "address"
        }
      ],
      "stateMutability": "view",
      "type": "function"
    },
    {
      "inputs": [],
      "name": "connectorsHash",
      "outputs": [
        {
          "internalType": "bytes32",
          "name": "",
          "type": "bytes32"
        }
      ],
      "stateMutability": "view",
      "type": "function"
    },
    {
      "inputs": [],
      "name": "delay",
      "outputs": [
        {
          "internalType": "uint256",
          "name": "",
          "type": "uint256"
        }
      ],
      "stateMutability": "view",
      "type": "function"
    },
    {
      "inputs": [],
      "name": "delayBlocks",
      "outputs": [
        {
          "internalType": "uint256",
          "name": "",
          "type": "uint256"
        }
      ],
      "stateMutability": "view",
      "type": "function"
    },
    {
      "inputs": [],
      "name": "dequeue",
      "outputs": [
        {
          "internalType": "bytes32",
          "name": "",
          "type": "bytes32"
        },
        {
          "internalType": "uint256",
          "name": "",
          "type": "uint256"
        }
      ],
      "stateMutability": "nonpayable",
      "type": "function"
    },
    {
      "inputs": [
        {
          "internalType": "bytes32",
          "name": "_root",
          "type": "bytes32"
        }
      ],
      "name": "discardRoot",
      "outputs": [],
      "stateMutability": "nonpayable",
      "type": "function"
    },
    {
      "inputs": [
        {
          "internalType": "uint256",
          "name": "",
          "type": "uint256"
        }
      ],
      "name": "domains",
      "outputs": [
        {
          "internalType": "uint32",
          "name": "",
          "type": "uint32"
        }
      ],
      "stateMutability": "view",
      "type": "function"
    },
    {
      "inputs": [],
      "name": "domainsHash",
      "outputs": [
        {
          "internalType": "bytes32",
          "name": "",
          "type": "bytes32"
        }
      ],
      "stateMutability": "view",
      "type": "function"
    },
    {
      "inputs": [
        {
          "internalType": "uint32",
          "name": "_domain",
          "type": "uint32"
        }
      ],
      "name": "getConnectorForDomain",
      "outputs": [
        {
          "internalType": "address",
          "name": "",
          "type": "address"
        }
      ],
      "stateMutability": "view",
      "type": "function"
    },
    {
      "inputs": [
        {
          "internalType": "uint32",
          "name": "_domain",
          "type": "uint32"
        }
      ],
      "name": "getDomainIndex",
      "outputs": [
        {
          "internalType": "uint256",
          "name": "",
          "type": "uint256"
        }
      ],
      "stateMutability": "view",
      "type": "function"
    },
    {
      "inputs": [],
      "name": "getPendingInboundRootsCount",
      "outputs": [
        {
          "internalType": "uint256",
          "name": "",
          "type": "uint256"
        }
      ],
      "stateMutability": "view",
      "type": "function"
    },
    {
      "inputs": [
        {
          "internalType": "uint32",
          "name": "_domain",
          "type": "uint32"
        }
      ],
      "name": "isDomainSupported",
      "outputs": [
        {
          "internalType": "bool",
          "name": "",
          "type": "bool"
        }
      ],
      "stateMutability": "view",
      "type": "function"
    },
    {
      "inputs": [],
      "name": "lastPropagatedRoot",
      "outputs": [
        {
          "internalType": "bytes32",
          "name": "",
          "type": "bytes32"
        }
      ],
      "stateMutability": "view",
      "type": "function"
    },
    {
      "inputs": [],
      "name": "owner",
      "outputs": [
        {
          "internalType": "address",
          "name": "",
          "type": "address"
        }
      ],
      "stateMutability": "view",
      "type": "function"
    },
    {
      "inputs": [],
      "name": "pause",
      "outputs": [],
      "stateMutability": "nonpayable",
      "type": "function"
    },
    {
      "inputs": [],
      "name": "paused",
      "outputs": [
        {
          "internalType": "bool",
          "name": "",
          "type": "bool"
        }
      ],
      "stateMutability": "view",
      "type": "function"
    },
    {
      "inputs": [],
      "name": "pendingInboundRoots",
      "outputs": [
        {
          "internalType": "uint128",
          "name": "first",
          "type": "uint128"
        },
        {
          "internalType": "uint128",
          "name": "last",
          "type": "uint128"
        }
      ],
      "stateMutability": "view",
      "type": "function"
    },
    {
      "inputs": [
        {
          "internalType": "address[]",
          "name": "_connectors",
          "type": "address[]"
        },
        {
          "internalType": "uint256[]",
          "name": "_fees",
          "type": "uint256[]"
        },
        {
          "internalType": "bytes[]",
          "name": "_encodedData",
          "type": "bytes[]"
        }
      ],
      "name": "propagate",
      "outputs": [],
      "stateMutability": "payable",
      "type": "function"
    },
    {
      "inputs": [
        {
          "internalType": "address",
          "name": "newlyProposed",
          "type": "address"
        }
      ],
      "name": "proposeNewOwner",
      "outputs": [],
      "stateMutability": "nonpayable",
      "type": "function"
    },
    {
      "inputs": [],
      "name": "proposed",
      "outputs": [
        {
          "internalType": "address",
          "name": "",
          "type": "address"
        }
      ],
      "stateMutability": "view",
      "type": "function"
    },
    {
      "inputs": [],
      "name": "proposedTimestamp",
      "outputs": [
        {
          "internalType": "uint256",
          "name": "",
          "type": "uint256"
        }
      ],
      "stateMutability": "view",
      "type": "function"
    },
    {
      "inputs": [
        {
          "internalType": "uint32",
          "name": "_domain",
          "type": "uint32"
        }
      ],
      "name": "removeConnector",
      "outputs": [],
      "stateMutability": "nonpayable",
      "type": "function"
    },
    {
      "inputs": [],
      "name": "renounceOwnership",
      "outputs": [],
      "stateMutability": "nonpayable",
      "type": "function"
    },
    {
      "inputs": [],
      "name": "renounced",
      "outputs": [
        {
          "internalType": "bool",
          "name": "",
          "type": "bool"
        }
      ],
      "stateMutability": "view",
      "type": "function"
    },
    {
      "inputs": [
        {
          "internalType": "uint256",
          "name": "_delayBlocks",
          "type": "uint256"
        }
      ],
      "name": "setDelayBlocks",
      "outputs": [],
      "stateMutability": "nonpayable",
      "type": "function"
    },
    {
      "inputs": [
        {
          "internalType": "address",
          "name": "_watcherManager",
          "type": "address"
        }
      ],
      "name": "setWatcherManager",
      "outputs": [],
      "stateMutability": "nonpayable",
      "type": "function"
    },
    {
      "inputs": [],
      "name": "unpause",
      "outputs": [],
      "stateMutability": "nonpayable",
      "type": "function"
    },
    {
      "inputs": [
        {
          "internalType": "address[]",
          "name": "_connectors",
          "type": "address[]"
        }
      ],
      "name": "validateConnectors",
      "outputs": [],
      "stateMutability": "view",
      "type": "function"
    },
    {
      "inputs": [
        {
          "internalType": "uint32[]",
          "name": "_domains",
          "type": "uint32[]"
        },
        {
          "internalType": "address[]",
          "name": "_connectors",
          "type": "address[]"
        }
      ],
      "name": "validateDomains",
      "outputs": [],
      "stateMutability": "view",
      "type": "function"
    },
    {
      "inputs": [],
      "name": "watcherManager",
      "outputs": [
        {
          "internalType": "contract WatcherManager",
          "name": "",
          "type": "address"
        }
      ],
      "stateMutability": "view",
      "type": "function"
    }
  ],
  "bytecode": "0x60a06040523480156200001157600080fd5b50604051620050de380380620050de833981810160405281019062000037919062000362565b806000600360006101000a81548160ff02191690831515021790555080600360016101000a81548173ffffffffffffffffffffffffffffffffffffffff021916908373ffffffffffffffffffffffffffffffffffffffff16021790555050620000a6336200017360201b60201c565b600073ffffffffffffffffffffffffffffffffffffffff168273ffffffffffffffffffffffffffffffffffffffff160362000118576040517f08c379a00000000000000000000000000000000000000000000000000000000081526004016200010f906200041f565b60405180910390fd5b8173ffffffffffffffffffffffffffffffffffffffff1660808173ffffffffffffffffffffffffffffffffffffffff1681525050826009819055506200016a600a6200025b60201b62001c661760201c565b50505062000441565b8073ffffffffffffffffffffffffffffffffffffffff1660008054906101000a900473ffffffffffffffffffffffffffffffffffffffff1673ffffffffffffffffffffffffffffffffffffffff167f8be0079c531659141344cd1fd0a4f28419497f9722a3daafe3b4186f6b6457e060405160405180910390a3806000806101000a81548173ffffffffffffffffffffffffffffffffffffffff021916908373ffffffffffffffffffffffffffffffffffffffff160217905550600260009055600160006101000a81549073ffffffffffffffffffffffffffffffffffffffff021916905550565b60018160000160006101000a8154816fffffffffffffffffffffffffffffffff02191690836fffffffffffffffffffffffffffffffff1602179055508060000160106101000a8154906fffffffffffffffffffffffffffffffff021916905550565b600080fd5b6000819050919050565b620002d781620002c2565b8114620002e357600080fd5b50565b600081519050620002f781620002cc565b92915050565b600073ffffffffffffffffffffffffffffffffffffffff82169050919050565b60006200032a82620002fd565b9050919050565b6200033c816200031d565b81146200034857600080fd5b50565b6000815190506200035c8162000331565b92915050565b6000806000606084860312156200037e576200037d620002bd565b5b60006200038e86828701620002e6565b9350506020620003a1868287016200034b565b9250506040620003b4868287016200034b565b9150509250925092565b600082825260208201905092915050565b7f217a65726f206d65726b6c650000000000000000000000000000000000000000600082015250565b600062000407600c83620003be565b91506200041482620003cf565b602082019050919050565b600060208201905081810360008301526200043a81620003f8565b9050919050565b608051614c736200046b600039600081816112ab01528181611346015261142e0152614c736000f3fe60806040526004361061020f5760003560e01c80638456cb5911610118578063b1f8100d116100a0578063d1851c921161006f578063d1851c921461073a578063d232c22014610765578063d2a3cc7114610790578063db0f0169146107b9578063e6f1208d146107e25761020f565b8063b1f8100d146106a6578063b904670f146106cf578063c5b350df146106f8578063c8ef89de1461070f5761020f565b8063957908d1116100e7578063957908d1146105ce578063a01892a5146105fa578063a792c29b14610625578063aa0d60a314610650578063ad9c0c2e1461067b5761020f565b80638456cb59146105385780638da5cb5b1461054f5780638e7d93fa1461057a578063909907cb146105a35761020f565b8063412e12db1161019b5780636a42b8f81161016a5780636a42b8f814610462578063715018a61461048d5780637bc24d99146104a45780637d434e91146104cf5780637d5343081461050c5761020f565b8063412e12db146103b3578063498c2c2e146103cf5780635c975abb146103fa57806366cf8fab146104255761020f565b806324ec5d05116101e257806324ec5d05146102ce57806327186c6a1461030b5780633c4baaf8146103345780633cf52ffb146103715780633f4ba83a1461039c5761020f565b80630165bc81146102145780630f8ef4ee1461023f57806313ede1a1146102685780631eeaabea146102a5575b600080fd5b34801561022057600080fd5b5061022961080b565b6040516102369190612d91565b60405180910390f35b34801561024b57600080fd5b5061026660048036038101906102619190612dec565b610811565b005b34801561027457600080fd5b5061028f600480360381019061028a9190612e4f565b6108ec565b60405161029c9190612ebd565b60405180910390f35b3480156102b157600080fd5b506102cc60048036038101906102c79190612e4f565b61092b565b005b3480156102da57600080fd5b506102f560048036038101906102f09190612f14565b610a39565b6040516103029190612f5c565b60405180910390f35b34801561031757600080fd5b50610332600480360381019061032d9190612fdc565b610a65565b005b34801561034057600080fd5b5061035b60048036038101906103569190612f14565b610ad5565b6040516103689190613038565b60405180910390f35b34801561037d57600080fd5b50610386610b52565b6040516103939190613038565b60405180910390f35b3480156103a857600080fd5b506103b1610b5c565b005b6103cd60048036038101906103c891906132cb565b610bf3565b005b3480156103db57600080fd5b506103e4610ef0565b6040516103f19190612d91565b60405180910390f35b34801561040657600080fd5b5061040f610ef6565b60405161041c9190612f5c565b60405180910390f35b34801561043157600080fd5b5061044c60048036038101906104479190612e4f565b610f0d565b604051610459919061338b565b60405180910390f35b34801561046e57600080fd5b50610477610f47565b6040516104849190613038565b60405180910390f35b34801561049957600080fd5b506104a2610f52565b005b3480156104b057600080fd5b506104b9610fd9565b6040516104c69190612d91565b60405180910390f35b3480156104db57600080fd5b506104f660048036038101906104f19190612f14565b610fdf565b6040516105039190612ebd565b60405180910390f35b34801561051857600080fd5b5061052161102f565b60405161052f9291906133d1565b60405180910390f35b34801561054457600080fd5b5061054d611079565b005b34801561055b57600080fd5b50610564611166565b6040516105719190612ebd565b60405180910390f35b34801561058657600080fd5b506105a1600480360381019061059c91906133fa565b61118f565b005b3480156105af57600080fd5b506105b8611267565b6040516105c59190613038565b60405180910390f35b3480156105da57600080fd5b506105e3611278565b6040516105f192919061343a565b60405180910390f35b34801561060657600080fd5b5061060f61142c565b60405161061c91906134c2565b60405180910390f35b34801561063157600080fd5b5061063a611450565b60405161064791906134fe565b60405180910390f35b34801561065c57600080fd5b50610665611476565b6040516106729190613519565b60405180910390f35b34801561068757600080fd5b5061069061147b565b60405161069d9190613038565b60405180910390f35b3480156106b257600080fd5b506106cd60048036038101906106c89190613560565b611481565b005b3480156106db57600080fd5b506106f660048036038101906106f1919061358d565b61162e565b005b34801561070457600080fd5b5061070d611700565b005b34801561071b57600080fd5b506107246117fd565b6040516107319190613038565b60405180910390f35b34801561074657600080fd5b5061074f611803565b60405161075c9190612ebd565b60405180910390f35b34801561077157600080fd5b5061077a61182d565b6040516107879190612f5c565b60405180910390f35b34801561079c57600080fd5b506107b760048036038101906107b29190613560565b611883565b005b3480156107c557600080fd5b506107e060048036038101906107db9190613623565b611a13565b005b3480156107ee57600080fd5b5061080960048036038101906108049190612f14565b611b39565b005b600e5481565b3373ffffffffffffffffffffffffffffffffffffffff1660008054906101000a900473ffffffffffffffffffffffffffffffffffffffff1673ffffffffffffffffffffffffffffffffffffffff1614610896576040517f8d450dd800000000000000000000000000000000000000000000000000000000815260040160405180910390fd5b61089e611cc8565b6108b281600a611d1190919063ffffffff16565b7fd2a17a10ab346c94fae909b2fbfa0fedaf30d08983e74dcc0a92be2c40c437f9816040516108e19190612d91565b60405180910390a150565b600681815481106108fc57600080fd5b906000526020600020016000915054906101000a900473ffffffffffffffffffffffffffffffffffffffff1681565b3373ffffffffffffffffffffffffffffffffffffffff1660008054906101000a900473ffffffffffffffffffffffffffffffffffffffff1673ffffffffffffffffffffffffffffffffffffffff16146109b0576040517f8d450dd800000000000000000000000000000000000000000000000000000000815260040160405180910390fd5b60095481036109f4576040517f08c379a00000000000000000000000000000000000000000000000000000000081526004016109eb90613701565b60405180910390fd5b7fef322fd61cb3d8514326f0b28140a92a29cd10996ad80d0671e43d2483464c1d81600954604051610a27929190613721565b60405180910390a18060098190555050565b600080600860008463ffffffff1663ffffffff1681526020019081526020016000205414159050919050565b6007548282604051602001610a7b92919061380d565b6040516020818303038152906040528051906020012014610ad1576040517f08c379a0000000000000000000000000000000000000000000000000000000008152600401610ac89061387d565b60405180910390fd5b5050565b600080600860008463ffffffff1663ffffffff16815260200190815260200160002054905060008103610b3d576040517f08c379a0000000000000000000000000000000000000000000000000000000008152600401610b34906138e9565b60405180910390fd5b600181610b4a9190613938565b915050919050565b6000600254905090565b3373ffffffffffffffffffffffffffffffffffffffff1660008054906101000a900473ffffffffffffffffffffffffffffffffffffffff1673ffffffffffffffffffffffffffffffffffffffff1614610be1576040517f8d450dd800000000000000000000000000000000000000000000000000000000815260040160405180910390fd5b610be9611cc8565b610bf1611da6565b565b610bfb611e09565b610c058585610a65565b60008585905090508084849050148015610c1f5750808251145b610c5e576040517f08c379a0000000000000000000000000000000000000000000000000000000008152600401610c55906139b8565b60405180910390fd5b600080610c69611278565b91509150600e548203610cb1576040517f08c379a0000000000000000000000000000000000000000000000000000000008152600401610ca890613a24565b60405180910390fd5b81600e81905550600034905060005b848163ffffffff161015610ea75789898263ffffffff16818110610ce757610ce6613a44565b5b9050602002016020810190610cfc9190613560565b73ffffffffffffffffffffffffffffffffffffffff166348e6fa2389898463ffffffff16818110610d3057610d2f613a44565b5b9050602002013586604051602001610d489190613a94565b604051602081830303815290604052898563ffffffff1681518110610d7057610d6f613a44565b5b60200260200101516040518463ffffffff1660e01b8152600401610d95929190613b2e565b6000604051808303818588803b158015610dae57600080fd5b505af193505050508015610dc0575060015b610e6e577f51f2ef0ced5ef0ec14268d79d48589f9ccff35b2b0baf5059a90166caffea7a760048263ffffffff1681548110610dff57610dfe613a44565b5b90600052602060002090600891828204019190066004029054906101000a900463ffffffff168b8b8463ffffffff16818110610e3e57610e3d613a44565b5b9050602002016020810190610e539190613560565b604051610e61929190613b65565b60405180910390a1610e9c565b87878263ffffffff16818110610e8757610e86613a44565b5b9050602002013582610e999190613938565b91505b806001019050610cc0565b507f3fcedb4669de80ca7de6e18b7b25cc8e4f6861796f1db0f2409fcdf0d6901f568383600554604051610edd93929190613b8e565b60405180910390a1505050505050505050565b60075481565b6000600360009054906101000a900460ff16905090565b60048181548110610f1d57600080fd5b9060005260206000209060089182820401919006600402915054906101000a900463ffffffff1681565b600062093a80905090565b3373ffffffffffffffffffffffffffffffffffffffff1660008054906101000a900473ffffffffffffffffffffffffffffffffffffffff1673ffffffffffffffffffffffffffffffffffffffff1614610fd7576040517f8d450dd800000000000000000000000000000000000000000000000000000000815260040160405180910390fd5b565b60055481565b60006006610fec83610ad5565b81548110610ffd57610ffc613a44565b5b9060005260206000200160009054906101000a900473ffffffffffffffffffffffffffffffffffffffff169050919050565b600a8060000160009054906101000a90046fffffffffffffffffffffffffffffffff16908060000160109054906101000a90046fffffffffffffffffffffffffffffffff16905082565b600360019054906101000a900473ffffffffffffffffffffffffffffffffffffffff1673ffffffffffffffffffffffffffffffffffffffff166384785ecd336040518263ffffffff1660e01b81526004016110d49190612ebd565b602060405180830381865afa1580156110f1573d6000803e3d6000fd5b505050506040513d601f19601f820116820180604052508101906111159190613bf1565b611154576040517f08c379a000000000000000000000000000000000000000000000000000000000815260040161114b90613c6a565b60405180910390fd5b61115c611e09565b611164611e53565b565b60008060009054906101000a900473ffffffffffffffffffffffffffffffffffffffff16905090565b611197611e09565b813373ffffffffffffffffffffffffffffffffffffffff166111b882610fdf565b73ffffffffffffffffffffffffffffffffffffffff161461120e576040517f08c379a000000000000000000000000000000000000000000000000000000000815260040161120590613cd6565b60405180910390fd5b600061122483600a611eb690919063ffffffff16565b90507f1daad24ee1bf0bcc72ab681d29df86ec2794361b223da31f148b9f826cd135a884848360405161125993929190613d27565b60405180910390a150505050565b6000611273600a611f7e565b905090565b600080611283611e09565b600061129e6009546064600a611fdc9092919063ffffffff16565b90506000815103611341577f000000000000000000000000000000000000000000000000000000000000000073ffffffffffffffffffffffffffffffffffffffff1663c9b0a6de6040518163ffffffff1660e01b81526004016040805180830381865afa158015611313573d6000803e3d6000fd5b505050506040513d601f19601f820116820180604052508101906113379190613d88565b9250925050611428565b6000807f000000000000000000000000000000000000000000000000000000000000000073ffffffffffffffffffffffffffffffffffffffff166334a55ee6846040518263ffffffff1660e01b815260040161139d9190613e86565b60408051808303816000875af11580156113bb573d6000803e3d6000fd5b505050506040513d601f19601f820116820180604052508101906113df9190613d88565b915091507f41b13c36968d02a1fd71e0f5db55ba2fb043c215a4d1e17633293ff273a77cd482828560405161141693929190613ea8565b60405180910390a18181945094505050505b9091565b7f000000000000000000000000000000000000000000000000000000000000000081565b600360019054906101000a900473ffffffffffffffffffffffffffffffffffffffff1681565b606481565b60095481565b3373ffffffffffffffffffffffffffffffffffffffff1660008054906101000a900473ffffffffffffffffffffffffffffffffffffffff1673ffffffffffffffffffffffffffffffffffffffff1614611506576040517f8d450dd800000000000000000000000000000000000000000000000000000000815260040160405180910390fd5b8073ffffffffffffffffffffffffffffffffffffffff16600160009054906101000a900473ffffffffffffffffffffffffffffffffffffffff1673ffffffffffffffffffffffffffffffffffffffff161480156115665750600060025414155b1561159d576040517f23780cca00000000000000000000000000000000000000000000000000000000815260040160405180910390fd5b8073ffffffffffffffffffffffffffffffffffffffff1660008054906101000a900473ffffffffffffffffffffffffffffffffffffffff1673ffffffffffffffffffffffffffffffffffffffff1603611622576040517f945f6e7e00000000000000000000000000000000000000000000000000000000815260040160405180910390fd5b61162b8161250f565b50565b3373ffffffffffffffffffffffffffffffffffffffff1660008054906101000a900473ffffffffffffffffffffffffffffffffffffffff1673ffffffffffffffffffffffffffffffffffffffff16146116b3576040517f8d450dd800000000000000000000000000000000000000000000000000000000815260040160405180910390fd5b6116bd828261259d565b7f95ef69787290b89c35a092c89db1b283b43724d01263e683cfb560c758cdbe708282600460066040516116f494939291906143ab565b60405180910390a15050565b3373ffffffffffffffffffffffffffffffffffffffff16600160009054906101000a900473ffffffffffffffffffffffffffffffffffffffff1673ffffffffffffffffffffffffffffffffffffffff1614611787576040517f234fe4e200000000000000000000000000000000000000000000000000000000815260040160405180910390fd5b62093a80600254426117999190613938565b116117d0576040517f9380a17c00000000000000000000000000000000000000000000000000000000815260040160405180910390fd5b6117fb600160009054906101000a900473ffffffffffffffffffffffffffffffffffffffff166127c3565b565b6101f481565b6000600160009054906101000a900473ffffffffffffffffffffffffffffffffffffffff16905090565b60008073ffffffffffffffffffffffffffffffffffffffff1660008054906101000a900473ffffffffffffffffffffffffffffffffffffffff1673ffffffffffffffffffffffffffffffffffffffff1614905090565b3373ffffffffffffffffffffffffffffffffffffffff1660008054906101000a900473ffffffffffffffffffffffffffffffffffffffff1673ffffffffffffffffffffffffffffffffffffffff1614611908576040517f8d450dd800000000000000000000000000000000000000000000000000000000815260040160405180910390fd5b600360019054906101000a900473ffffffffffffffffffffffffffffffffffffffff1673ffffffffffffffffffffffffffffffffffffffff168173ffffffffffffffffffffffffffffffffffffffff1603611998576040517f08c379a000000000000000000000000000000000000000000000000000000000815260040161198f9061444a565b60405180910390fd5b80600360016101000a81548173ffffffffffffffffffffffffffffffffffffffff021916908373ffffffffffffffffffffffffffffffffffffffff1602179055507fc16d059e43d7f8e29ccb4e001a2f249d3c59e274925d6a6bc3912943441d9f6c81604051611a089190612ebd565b60405180910390a150565b818190508484905014611a5b576040517f08c379a0000000000000000000000000000000000000000000000000000000008152600401611a52906144b6565b60405180910390fd5b6005548484604051602001611a71929190614579565b6040516020818303038152906040528051906020012014611ac7576040517f08c379a0000000000000000000000000000000000000000000000000000000008152600401611abe906145e9565b60405180910390fd5b6007548282604051602001611add92919061380d565b6040516020818303038152906040528051906020012014611b33576040517f08c379a0000000000000000000000000000000000000000000000000000000008152600401611b2a9061387d565b60405180910390fd5b50505050565b600360019054906101000a900473ffffffffffffffffffffffffffffffffffffffff1673ffffffffffffffffffffffffffffffffffffffff166384785ecd336040518263ffffffff1660e01b8152600401611b949190612ebd565b602060405180830381865afa158015611bb1573d6000803e3d6000fd5b505050506040513d601f19601f82011682018060405250810190611bd59190613bf1565b611c14576040517f08c379a0000000000000000000000000000000000000000000000000000000008152600401611c0b90613c6a565b60405180910390fd5b6000611c1f826128ab565b90507f6a1097f391a37dc63e0860e64ec34442971eeed2fda4d1a90141fa9ce25eb7eb82826004600633604051611c5a959493929190614609565b60405180910390a15050565b60018160000160006101000a8154816fffffffffffffffffffffffffffffffff02191690836fffffffffffffffffffffffffffffffff1602179055508060000160106101000a8154906fffffffffffffffffffffffffffffffff021916905550565b611cd0610ef6565b611d0f576040517f08c379a0000000000000000000000000000000000000000000000000000000008152600401611d06906146b6565b60405180910390fd5b565b81600301600082815260200190815260200160002060009054906101000a900460ff1615611d74576040517f08c379a0000000000000000000000000000000000000000000000000000000008152600401611d6b90614722565b60405180910390fd5b600182600301600083815260200190815260200160002060006101000a81548160ff0219169083151502179055505050565b611dae611cc8565b6000600360006101000a81548160ff0219169083151502179055507f5db9ee0a495bf2e6ff9c91a7834c1ba4fdd244a5e8aa4e537bd38aeae4b073aa611df2612bd2565b604051611dff9190612ebd565b60405180910390a1565b611e11610ef6565b15611e51576040517f08c379a0000000000000000000000000000000000000000000000000000000008152600401611e489061478e565b60405180910390fd5b565b611e5b611e09565b6001600360006101000a81548160ff0219169083151502179055507f62e78cea01bee320cd4e420270b5ea74000d11b0c9f74754ebdbfc544b05a258611e9f612bd2565b604051611eac9190612ebd565b60405180910390a1565b60008043905083600001601081819054906101000a90046fffffffffffffffffffffffffffffffff16611ee8906147ae565b91906101000a8154816fffffffffffffffffffffffffffffffff02191690836fffffffffffffffffffffffffffffffff1602179055915082846001016000846fffffffffffffffffffffffffffffffff1681526020019081526020016000208190555080846002016000846fffffffffffffffffffffffffffffffff168152602001908152602001600020819055505092915050565b6000808260000160109054906101000a90046fffffffffffffffffffffffffffffffff16905060008360000160009054906101000a90046fffffffffffffffffffffffffffffffff169050611fd38282612bda565b92505050919050565b606060008460000160009054906101000a90046fffffffffffffffffffffffffffffffff16905060008560000160109054906101000a90046fffffffffffffffffffffffffffffffff169050816fffffffffffffffffffffffffffffffff16816fffffffffffffffffffffffffffffffff1610156120a757600067ffffffffffffffff81111561206f5761206e6130ba565b5b60405190808252806020026020018201604052801561209d5781602001602082028036833780820191505090505b5092505050612508565b6000826fffffffffffffffffffffffffffffffff16036120fc576040517f08c379a00000000000000000000000000000000000000000000000000000000081526004016120f390614832565b60405180910390fd5b6000846fffffffffffffffffffffffffffffffff1611612151576040517f08c379a00000000000000000000000000000000000000000000000000000000081526004016121489061489e565b60405180910390fd5b60006001858461216191906148be565b61216b9190614902565b9050806fffffffffffffffffffffffffffffffff16826fffffffffffffffffffffffffffffffff16111561219d578091505b50600085436121ac9190613938565b905060005b826fffffffffffffffffffffffffffffffff16846fffffffffffffffffffffffffffffffff1611612226576000886002016000856fffffffffffffffffffffffffffffffff168152602001908152602001600020549050828111612219576001915050612226565b83600190039350506121b1565b8061228057600067ffffffffffffffff811115612246576122456130ba565b5b6040519080825280602002602001820160405280156122745781602001602082028036833780820191505090505b50945050505050612508565b60008460018561229091906148be565b61229a9190614902565b6fffffffffffffffffffffffffffffffff1667ffffffffffffffff8111156122c5576122c46130ba565b5b6040519080825280602002602001820160405280156122f35781602001602082028036833780820191505090505b5090506000805b856fffffffffffffffffffffffffffffffff16876fffffffffffffffffffffffffffffffff161161240c5760008b6001016000896fffffffffffffffffffffffffffffffff1681526020019081526020016000205490508b600301600082815260200190815260200160002060009054906101000a900460ff166123a3578084848151811061238c5761238b613a44565b5b6020026020010181815250508260010192506123aa565b8160010191505b8b6001016000896fffffffffffffffffffffffffffffffff168152602001908152602001600020600090558b6002016000896fffffffffffffffffffffffffffffffff16815260200190815260200160002060009055876001019750506122fa565b868b60000160006101000a8154816fffffffffffffffffffffffffffffffff02191690836fffffffffffffffffffffffffffffffff1602179055506000810361245e5782975050505050505050612508565b60008267ffffffffffffffff81111561247a576124796130ba565b5b6040519080825280602002602001820160405280156124a85781602001602082028036833780820191505090505b50905060005b838110156124fb578481815181106124c9576124c8613a44565b5b60200260200101518282815181106124e4576124e3613a44565b5b6020026020010181815250508060010190506124ae565b5080985050505050505050505b9392505050565b4260028190555080600160006101000a81548173ffffffffffffffffffffffffffffffffffffffff021916908373ffffffffffffffffffffffffffffffffffffffff1602179055508073ffffffffffffffffffffffffffffffffffffffff167f6ab4d119f23076e8ad491bc65ce85f017fb0591dce08755ba8591059cc51737a60405160405180910390a250565b6125a682610a39565b156125e6576040517f08c379a00000000000000000000000000000000000000000000000000000000081526004016125dd90614992565b60405180910390fd5b600073ffffffffffffffffffffffffffffffffffffffff168173ffffffffffffffffffffffffffffffffffffffff1603612655576040517f08c379a000000000000000000000000000000000000000000000000000000000815260040161264c90613cd6565b60405180910390fd5b6101f46004805490501061269e576040517f08c379a0000000000000000000000000000000000000000000000000000000008152600401612695906149fe565b60405180910390fd5b60048290806001815401808255809150506001900390600052602060002090600891828204019190066004029091909190916101000a81548163ffffffff021916908363ffffffff1602179055506006819080600181540180825580915050600190039060005260206000200160009091909190916101000a81548173ffffffffffffffffffffffffffffffffffffffff021916908373ffffffffffffffffffffffffffffffffffffffff1602179055506000600480549050905080600860008563ffffffff1663ffffffff16815260200190815260200160002081905550612785612c0e565b7f4fc27362d8ab3086efd93b7880e99ac02e906d0ba9b71ca90239ade53090f70383836040516127b6929190613b65565b60405180910390a1505050565b8073ffffffffffffffffffffffffffffffffffffffff1660008054906101000a900473ffffffffffffffffffffffffffffffffffffffff1673ffffffffffffffffffffffffffffffffffffffff167f8be0079c531659141344cd1fd0a4f28419497f9722a3daafe3b4186f6b6457e060405160405180910390a3806000806101000a81548173ffffffffffffffffffffffffffffffffffffffff021916908373ffffffffffffffffffffffffffffffffffffffff160217905550600260009055600160006101000a81549073ffffffffffffffffffffffffffffffffffffffff021916905550565b6000806128b783610ad5565b90506000600682815481106128cf576128ce613a44565b5b9060005260206000200160009054906101000a900473ffffffffffffffffffffffffffffffffffffffff169050600073ffffffffffffffffffffffffffffffffffffffff168173ffffffffffffffffffffffffffffffffffffffff160361296b576040517f08c379a000000000000000000000000000000000000000000000000000000000815260040161296290614a6a565b60405180910390fd5b6000600160048054905061297f9190613938565b905080831015612adc5760006004828154811061299f5761299e613a44565b5b90600052602060002090600891828204019190066004029054906101000a900463ffffffff16905080600485815481106129dc576129db613a44565b5b90600052602060002090600891828204019190066004026101000a81548163ffffffff021916908363ffffffff16021790555060068281548110612a2357612a22613a44565b5b9060005260206000200160009054906101000a900473ffffffffffffffffffffffffffffffffffffffff1660068581548110612a6257612a61613a44565b5b9060005260206000200160006101000a81548173ffffffffffffffffffffffffffffffffffffffff021916908373ffffffffffffffffffffffffffffffffffffffff160217905550600184612ab79190614a8a565b600860008363ffffffff1663ffffffff16815260200190815260200160002081905550505b6004805480612aee57612aed614abe565b5b60019003818190600052602060002090600891828204019190066004026101000a81549063ffffffff021916905590556006805480612b3057612b2f614abe565b5b6001900381819060005260206000200160006101000a81549073ffffffffffffffffffffffffffffffffffffffff02191690559055600860008663ffffffff1663ffffffff16815260200190815260200160002060009055612b90612c0e565b7f7e560b48a4bba1688eb45afd6712a11fa42b9abbb48a8e14e2f15e467ab420e485604051612bbf919061338b565b60405180910390a1819350505050919050565b600033905090565b600081600184612bea91906148be565b612bf49190614902565b6fffffffffffffffffffffffffffffffff16905092915050565b60006004805480602002602001604051908101604052809291908181526020018280548015612c8857602002820191906000526020600020906000905b82829054906101000a900463ffffffff1663ffffffff1681526020019060040190602082600301049283019260010382029150808411612c4b5790505b5050505050905060006006805480602002602001604051908101604052809291908181526020018280548015612d1357602002820191906000526020600020905b8160009054906101000a900473ffffffffffffffffffffffffffffffffffffffff1673ffffffffffffffffffffffffffffffffffffffff1681526020019060010190808311612cc9575b5050505050905081604051602001612d2b9190614b73565b6040516020818303038152906040528051906020012060058190555080604051602001612d589190614c1b565b604051602081830303815290604052805190602001206007819055505050565b6000819050919050565b612d8b81612d78565b82525050565b6000602082019050612da66000830184612d82565b92915050565b6000604051905090565b600080fd5b600080fd5b612dc981612d78565b8114612dd457600080fd5b50565b600081359050612de681612dc0565b92915050565b600060208284031215612e0257612e01612db6565b5b6000612e1084828501612dd7565b91505092915050565b6000819050919050565b612e2c81612e19565b8114612e3757600080fd5b50565b600081359050612e4981612e23565b92915050565b600060208284031215612e6557612e64612db6565b5b6000612e7384828501612e3a565b91505092915050565b600073ffffffffffffffffffffffffffffffffffffffff82169050919050565b6000612ea782612e7c565b9050919050565b612eb781612e9c565b82525050565b6000602082019050612ed26000830184612eae565b92915050565b600063ffffffff82169050919050565b612ef181612ed8565b8114612efc57600080fd5b50565b600081359050612f0e81612ee8565b92915050565b600060208284031215612f2a57612f29612db6565b5b6000612f3884828501612eff565b91505092915050565b60008115159050919050565b612f5681612f41565b82525050565b6000602082019050612f716000830184612f4d565b92915050565b600080fd5b600080fd5b600080fd5b60008083601f840112612f9c57612f9b612f77565b5b8235905067ffffffffffffffff811115612fb957612fb8612f7c565b5b602083019150836020820283011115612fd557612fd4612f81565b5b9250929050565b60008060208385031215612ff357612ff2612db6565b5b600083013567ffffffffffffffff81111561301157613010612dbb565b5b61301d85828601612f86565b92509250509250929050565b61303281612e19565b82525050565b600060208201905061304d6000830184613029565b92915050565b60008083601f84011261306957613068612f77565b5b8235905067ffffffffffffffff81111561308657613085612f7c565b5b6020830191508360208202830111156130a2576130a1612f81565b5b9250929050565b6000601f19601f8301169050919050565b7f4e487b7100000000000000000000000000000000000000000000000000000000600052604160045260246000fd5b6130f2826130a9565b810181811067ffffffffffffffff82111715613111576131106130ba565b5b80604052505050565b6000613124612dac565b905061313082826130e9565b919050565b600067ffffffffffffffff8211156131505761314f6130ba565b5b602082029050602081019050919050565b600080fd5b600067ffffffffffffffff821115613181576131806130ba565b5b61318a826130a9565b9050602081019050919050565b82818337600083830152505050565b60006131b96131b484613166565b61311a565b9050828152602081018484840111156131d5576131d4613161565b5b6131e0848285613197565b509392505050565b600082601f8301126131fd576131fc612f77565b5b813561320d8482602086016131a6565b91505092915050565b600061322961322484613135565b61311a565b9050808382526020820190506020840283018581111561324c5761324b612f81565b5b835b8181101561329357803567ffffffffffffffff81111561327157613270612f77565b5b80860161327e89826131e8565b8552602085019450505060208101905061324e565b5050509392505050565b600082601f8301126132b2576132b1612f77565b5b81356132c2848260208601613216565b91505092915050565b6000806000806000606086880312156132e7576132e6612db6565b5b600086013567ffffffffffffffff81111561330557613304612dbb565b5b61331188828901612f86565b9550955050602086013567ffffffffffffffff81111561333457613333612dbb565b5b61334088828901613053565b9350935050604086013567ffffffffffffffff81111561336357613362612dbb565b5b61336f8882890161329d565b9150509295509295909350565b61338581612ed8565b82525050565b60006020820190506133a0600083018461337c565b92915050565b60006fffffffffffffffffffffffffffffffff82169050919050565b6133cb816133a6565b82525050565b60006040820190506133e660008301856133c2565b6133f360208301846133c2565b9392505050565b6000806040838503121561341157613410612db6565b5b600061341f85828601612eff565b925050602061343085828601612dd7565b9150509250929050565b600060408201905061344f6000830185612d82565b61345c6020830184613029565b9392505050565b6000819050919050565b600061348861348361347e84612e7c565b613463565b612e7c565b9050919050565b600061349a8261346d565b9050919050565b60006134ac8261348f565b9050919050565b6134bc816134a1565b82525050565b60006020820190506134d760008301846134b3565b92915050565b60006134e88261348f565b9050919050565b6134f8816134dd565b82525050565b600060208201905061351360008301846134ef565b92915050565b600060208201905061352e60008301846133c2565b92915050565b61353d81612e9c565b811461354857600080fd5b50565b60008135905061355a81613534565b92915050565b60006020828403121561357657613575612db6565b5b60006135848482850161354b565b91505092915050565b600080604083850312156135a4576135a3612db6565b5b60006135b285828601612eff565b92505060206135c38582860161354b565b9150509250929050565b60008083601f8401126135e3576135e2612f77565b5b8235905067ffffffffffffffff811115613600576135ff612f7c565b5b60208301915083602082028301111561361c5761361b612f81565b5b9250929050565b6000806000806040858703121561363d5761363c612db6565b5b600085013567ffffffffffffffff81111561365b5761365a612dbb565b5b613667878288016135cd565b9450945050602085013567ffffffffffffffff81111561368a57613689612dbb565b5b61369687828801612f86565b925092505092959194509250565b600082825260208201905092915050565b7f2164656c6179426c6f636b730000000000000000000000000000000000000000600082015250565b60006136eb600c836136a4565b91506136f6826136b5565b602082019050919050565b6000602082019050818103600083015261371a816136de565b9050919050565b60006040820190506137366000830185613029565b6137436020830184613029565b9392505050565b600082825260208201905092915050565b6000819050919050565b61376e81612e9c565b82525050565b60006137808383613765565b60208301905092915050565b600061379b602084018461354b565b905092915050565b6000602082019050919050565b60006137bc838561374a565b93506137c78261375b565b8060005b85811015613800576137dd828461378c565b6137e78882613774565b97506137f2836137a3565b9250506001810190506137cb565b5085925050509392505050565b600060208201905081810360008301526138288184866137b0565b90509392505050565b7f21636f6e6e6563746f7273000000000000000000000000000000000000000000600082015250565b6000613867600b836136a4565b915061387282613831565b602082019050919050565b600060208201905081810360008301526138968161385a565b9050919050565b7f21737570706f7274656400000000000000000000000000000000000000000000600082015250565b60006138d3600a836136a4565b91506138de8261389d565b602082019050919050565b60006020820190508181036000830152613902816138c6565b9050919050565b7f4e487b7100000000000000000000000000000000000000000000000000000000600052601160045260246000fd5b600061394382612e19565b915061394e83612e19565b925082820390508181111561396657613965613909565b5b92915050565b7f696e76616c6964206c656e677468730000000000000000000000000000000000600082015250565b60006139a2600f836136a4565b91506139ad8261396c565b602082019050919050565b600060208201905081810360008301526139d181613995565b9050919050565b7f726564756e64616e7420726f6f74000000000000000000000000000000000000600082015250565b6000613a0e600e836136a4565b9150613a19826139d8565b602082019050919050565b60006020820190508181036000830152613a3d81613a01565b9050919050565b7f4e487b7100000000000000000000000000000000000000000000000000000000600052603260045260246000fd5b6000819050919050565b613a8e613a8982612d78565b613a73565b82525050565b6000613aa08284613a7d565b60208201915081905092915050565b600081519050919050565b600082825260208201905092915050565b60005b83811015613ae9578082015181840152602081019050613ace565b60008484015250505050565b6000613b0082613aaf565b613b0a8185613aba565b9350613b1a818560208601613acb565b613b23816130a9565b840191505092915050565b60006040820190508181036000830152613b488185613af5565b90508181036020830152613b5c8184613af5565b90509392505050565b6000604082019050613b7a600083018561337c565b613b876020830184612eae565b9392505050565b6000606082019050613ba36000830186612d82565b613bb06020830185613029565b613bbd6040830184612d82565b949350505050565b613bce81612f41565b8114613bd957600080fd5b50565b600081519050613beb81613bc5565b92915050565b600060208284031215613c0757613c06612db6565b5b6000613c1584828501613bdc565b91505092915050565b7f2177617463686572000000000000000000000000000000000000000000000000600082015250565b6000613c546008836136a4565b9150613c5f82613c1e565b602082019050919050565b60006020820190508181036000830152613c8381613c47565b9050919050565b7f21636f6e6e6563746f7200000000000000000000000000000000000000000000600082015250565b6000613cc0600a836136a4565b9150613ccb82613c8a565b602082019050919050565b60006020820190508181036000830152613cef81613cb3565b9050919050565b6000613d11613d0c613d07846133a6565b613463565b612e19565b9050919050565b613d2181613cf6565b82525050565b6000606082019050613d3c600083018661337c565b613d496020830185612d82565b613d566040830184613d18565b949350505050565b600081519050613d6d81612dc0565b92915050565b600081519050613d8281612e23565b92915050565b60008060408385031215613d9f57613d9e612db6565b5b6000613dad85828601613d5e565b9250506020613dbe85828601613d73565b9150509250929050565b600081519050919050565b600082825260208201905092915050565b6000819050602082019050919050565b613dfd81612d78565b82525050565b6000613e0f8383613df4565b60208301905092915050565b6000602082019050919050565b6000613e3382613dc8565b613e3d8185613dd3565b9350613e4883613de4565b8060005b83811015613e79578151613e608882613e03565b9750613e6b83613e1b565b925050600181019050613e4c565b5085935050505092915050565b60006020820190508181036000830152613ea08184613e28565b905092915050565b6000606082019050613ebd6000830186612d82565b613eca6020830185613029565b8181036040830152613edc8184613e28565b9050949350505050565b600081549050919050565b600082825260208201905092915050565b60008190508160005260206000209050919050565b613f2081612ed8565b82525050565b60008160001c9050919050565b600063ffffffff82169050919050565b6000613f56613f5183613f26565b613f33565b9050919050565b60008160201c9050919050565b6000613f7d613f7883613f5d565b613f33565b9050919050565b60008160401c9050919050565b6000613fa4613f9f83613f84565b613f33565b9050919050565b60008160601c9050919050565b6000613fcb613fc683613fab565b613f33565b9050919050565b60008160801c9050919050565b6000613ff2613fed83613fd2565b613f33565b9050919050565b60008160a01c9050919050565b600061401961401483613ff9565b613f33565b9050919050565b60008160c01c9050919050565b600061404061403b83614020565b613f33565b9050919050565b60008160e01c9050919050565b600061406761406283614047565b613f33565b9050919050565b600061407982613ee6565b6140838185613ef1565b93508361408f84613f02565b600060011561417c575b8360016008038201101561417b5781546140bb886140b683613f43565b613f17565b6020880197506140d3886140ce83613f6a565b613f17565b6020880197506140eb886140e683613f91565b613f17565b602088019750614103886140fe83613fb8565b613f17565b60208801975061411b8861411683613fdf565b613f17565b6020880197506141338861412e83614006565b613f17565b60208801975061414b886141468361402d565b613f17565b6020880197506141638861415e83614054565b613f17565b60208801975060018301925050600881019050614099565b5b6001156142bf578154848210156141ac5761419f8861419a83613f43565b613f17565b6020880197506001820191505b848210156141d3576141c6886141c183613f6a565b613f17565b6020880197506001820191505b848210156141fa576141ed886141e883613f91565b613f17565b6020880197506001820191505b84821015614221576142148861420f83613fb8565b613f17565b6020880197506001820191505b848210156142485761423b8861423683613fdf565b613f17565b6020880197506001820191505b8482101561426f576142628861425d83614006565b613f17565b6020880197506001820191505b8482101561429657614289886142848361402d565b613f17565b6020880197506001820191505b848210156142bd576142b0886142ab83614054565b613f17565b6020880197506001820191505b505b8694505050505092915050565b600081549050919050565b60008190508160005260206000209050919050565b600073ffffffffffffffffffffffffffffffffffffffff82169050919050565b600061431f61431a83613f26565b6142ec565b9050919050565b6000614332825461430c565b9050919050565b6000600182019050919050565b6000614351826142cc565b61435b818561374a565b9350614366836142d7565b8060005b8381101561439e5761437b82614326565b6143858882613774565b975061439083614339565b92505060018101905061436a565b5085935050505092915050565b60006080820190506143c0600083018761337c565b6143cd6020830186612eae565b81810360408301526143df818561406e565b905081810360608301526143f38184614346565b905095945050505050565b7f616c72656164792077617463686572206d616e61676572000000000000000000600082015250565b60006144346017836136a4565b915061443f826143fe565b602082019050919050565b6000602082019050818103600083015261446381614427565b9050919050565b7f216d61746368696e67206c656e67746800000000000000000000000000000000600082015250565b60006144a06010836136a4565b91506144ab8261446a565b602082019050919050565b600060208201905081810360008301526144cf81614493565b9050919050565b6000819050919050565b60006144ec8383613f17565b60208301905092915050565b60006145076020840184612eff565b905092915050565b6000602082019050919050565b60006145288385613ef1565b9350614533826144d6565b8060005b8581101561456c5761454982846144f8565b61455388826144e0565b975061455e8361450f565b925050600181019050614537565b5085925050509392505050565b6000602082019050818103600083015261459481848661451c565b90509392505050565b7f21646f6d61696e73000000000000000000000000000000000000000000000000600082015250565b60006145d36008836136a4565b91506145de8261459d565b602082019050919050565b60006020820190508181036000830152614602816145c6565b9050919050565b600060a08201905061461e600083018861337c565b61462b6020830187612eae565b818103604083015261463d818661406e565b905081810360608301526146518185614346565b90506146606080830184612eae565b9695505050505050565b7f5061757361626c653a206e6f7420706175736564000000000000000000000000600082015250565b60006146a06014836136a4565b91506146ab8261466a565b602082019050919050565b600060208201905081810360008301526146cf81614693565b9050919050565b7f616c72656164792072656d6f7665640000000000000000000000000000000000600082015250565b600061470c600f836136a4565b9150614717826146d6565b602082019050919050565b6000602082019050818103600083015261473b816146ff565b9050919050565b7f5061757361626c653a2070617573656400000000000000000000000000000000600082015250565b60006147786010836136a4565b915061478382614742565b602082019050919050565b600060208201905081810360008301526147a78161476b565b9050919050565b60006147b9826133a6565b91506fffffffffffffffffffffffffffffffff82036147db576147da613909565b5b600182019050919050565b7f71756575652021696e6974276400000000000000000000000000000000000000600082015250565b600061481c600d836136a4565b9150614827826147e6565b602082019050919050565b6000602082019050818103600083015261484b8161480f565b9050919050565b7f2161636365707461626c65206d61780000000000000000000000000000000000600082015250565b6000614888600f836136a4565b915061489382614852565b602082019050919050565b600060208201905081810360008301526148b78161487b565b9050919050565b60006148c9826133a6565b91506148d4836133a6565b925082820190506fffffffffffffffffffffffffffffffff8111156148fc576148fb613909565b5b92915050565b600061490d826133a6565b9150614918836133a6565b925082820390506fffffffffffffffffffffffffffffffff8111156149405761493f613909565b5b92915050565b7f646f6d61696e2065786973747300000000000000000000000000000000000000600082015250565b600061497c600d836136a4565b915061498782614946565b602082019050919050565b600060208201905081810360008301526149ab8161496f565b9050919050565b7f446f6d61696e496e646578657220617420636170616369747900000000000000600082015250565b60006149e86019836136a4565b91506149f3826149b2565b602082019050919050565b60006020820190508181036000830152614a17816149db565b9050919050565b7f636f6e6e6563746f722021657869737473000000000000000000000000000000600082015250565b6000614a546011836136a4565b9150614a5f82614a1e565b602082019050919050565b60006020820190508181036000830152614a8381614a47565b9050919050565b6000614a9582612e19565b9150614aa083612e19565b9250828201905080821115614ab857614ab7613909565b5b92915050565b7f4e487b7100000000000000000000000000000000000000000000000000000000600052603160045260246000fd5b600081519050919050565b6000819050602082019050919050565b6000602082019050919050565b6000614b2082614aed565b614b2a8185613ef1565b9350614b3583614af8565b8060005b83811015614b66578151614b4d88826144e0565b9750614b5883614b08565b925050600181019050614b39565b5085935050505092915050565b60006020820190508181036000830152614b8d8184614b15565b905092915050565b600081519050919050565b6000819050602082019050919050565b6000602082019050919050565b6000614bc882614b95565b614bd2818561374a565b9350614bdd83614ba0565b8060005b83811015614c0e578151614bf58882613774565b9750614c0083614bb0565b925050600181019050614be1565b5085935050505092915050565b60006020820190508181036000830152614c358184614bbd565b90509291505056fea26469706673582212203ae2538eb2ac2388f02fa4606c9148de44a6817d5a603d4844259d5b6c69e17664736f6c63430008110033",
  "linkReferences": {},
  "deployedLinkReferences": {}
}