{
  "_format": "hh-sol-artifact-1",
  "contractName": "HelperStateCommitmentChain",
  "sourceName": "contracts/HelperStateCommitmentChain.sol",
  "abi": [
    {
      "inputs": [
        {
          "internalType": "address",
          "name": "_libAddressManager",
          "type": "address"
        },
        {
          "internalType": "uint256",
          "name": "_fraudProofWindow",
          "type": "uint256"
        },
        {
          "internalType": "uint256",
          "name": "_sequencerPublishWindow",
          "type": "uint256"
        }
      ],
      "stateMutability": "nonpayable",
      "type": "constructor"
    },
    {
      "anonymous": false,
      "inputs": [
        {
          "indexed": true,
          "internalType": "uint256",
          "name": "_batchIndex",
          "type": "uint256"
        },
        {
          "indexed": false,
          "internalType": "bytes32",
          "name": "_batchRoot",
          "type": "bytes32"
        },
        {
          "indexed": false,
          "internalType": "uint256",
          "name": "_batchSize",
          "type": "uint256"
        },
        {
          "indexed": false,
          "internalType": "uint256",
          "name": "_prevTotalElements",
          "type": "uint256"
        },
        {
          "indexed": false,
          "internalType": "bytes",
          "name": "_extraData",
          "type": "bytes"
        }
      ],
      "name": "StateBatchAppended",
      "type": "event"
    },
    {
      "anonymous": false,
      "inputs": [
        {
          "indexed": true,
          "internalType": "uint256",
          "name": "_batchIndex",
          "type": "uint256"
        },
        {
          "indexed": false,
          "internalType": "bytes32",
          "name": "_batchRoot",
          "type": "bytes32"
        }
      ],
      "name": "StateBatchDeleted",
      "type": "event"
    },
    {
      "inputs": [],
      "name": "FRAUD_PROOF_WINDOW",
      "outputs": [
        {
          "internalType": "uint256",
          "name": "",
          "type": "uint256"
        }
      ],
      "stateMutability": "view",
      "type": "function"
    },
    {
      "inputs": [],
      "name": "SEQUENCER_PUBLISH_WINDOW",
      "outputs": [
        {
          "internalType": "uint256",
          "name": "",
          "type": "uint256"
        }
      ],
      "stateMutability": "view",
      "type": "function"
    },
    {
      "inputs": [
        {
          "internalType": "bytes32[]",
          "name": "_batch",
          "type": "bytes32[]"
        },
        {
          "internalType": "uint256",
          "name": "_shouldStartAtElement",
          "type": "uint256"
        }
      ],
      "name": "appendStateBatch",
      "outputs": [],
      "stateMutability": "nonpayable",
      "type": "function"
    },
    {
      "inputs": [],
      "name": "batches",
      "outputs": [
        {
          "internalType": "contract IChainStorageContainer",
          "name": "",
          "type": "address"
        }
      ],
      "stateMutability": "view",
      "type": "function"
    },
    {
      "inputs": [
        {
          "components": [
            {
              "internalType": "uint256",
              "name": "batchIndex",
              "type": "uint256"
            },
            {
              "internalType": "bytes32",
              "name": "batchRoot",
              "type": "bytes32"
            },
            {
              "internalType": "uint256",
              "name": "batchSize",
              "type": "uint256"
            },
            {
              "internalType": "uint256",
              "name": "prevTotalElements",
              "type": "uint256"
            },
            {
              "internalType": "bytes",
              "name": "extraData",
              "type": "bytes"
            }
          ],
          "internalType": "struct Lib_OVMCodec.ChainBatchHeader",
          "name": "_batchHeader",
          "type": "tuple"
        }
      ],
      "name": "deleteStateBatch",
      "outputs": [],
      "stateMutability": "nonpayable",
      "type": "function"
    },
    {
      "inputs": [],
      "name": "getLastSequencerTimestamp",
      "outputs": [
        {
          "internalType": "uint256",
          "name": "_lastSequencerTimestamp",
          "type": "uint256"
        }
      ],
      "stateMutability": "view",
      "type": "function"
    },
    {
      "inputs": [],
      "name": "getTotalBatches",
      "outputs": [
        {
          "internalType": "uint256",
          "name": "_totalBatches",
          "type": "uint256"
        }
      ],
      "stateMutability": "view",
      "type": "function"
    },
    {
      "inputs": [],
      "name": "getTotalElements",
      "outputs": [
        {
          "internalType": "uint256",
          "name": "_totalElements",
          "type": "uint256"
        }
      ],
      "stateMutability": "view",
      "type": "function"
    },
    {
      "inputs": [
        {
          "components": [
            {
              "internalType": "uint256",
              "name": "batchIndex",
              "type": "uint256"
            },
            {
              "internalType": "bytes32",
              "name": "batchRoot",
              "type": "bytes32"
            },
            {
              "internalType": "uint256",
              "name": "batchSize",
              "type": "uint256"
            },
            {
              "internalType": "uint256",
              "name": "prevTotalElements",
              "type": "uint256"
            },
            {
              "internalType": "bytes",
              "name": "extraData",
              "type": "bytes"
            }
          ],
          "internalType": "struct Lib_OVMCodec.ChainBatchHeader",
          "name": "_batchHeader",
          "type": "tuple"
        }
      ],
      "name": "insideFraudProofWindow",
      "outputs": [
        {
          "internalType": "bool",
          "name": "_inside",
          "type": "bool"
        }
      ],
      "stateMutability": "view",
      "type": "function"
    },
    {
      "inputs": [],
      "name": "libAddressManager",
      "outputs": [
        {
          "internalType": "contract Lib_AddressManager",
          "name": "",
          "type": "address"
        }
      ],
      "stateMutability": "view",
      "type": "function"
    },
    {
      "inputs": [
        {
          "internalType": "string",
          "name": "_name",
          "type": "string"
        }
      ],
      "name": "resolve",
      "outputs": [
        {
          "internalType": "address",
          "name": "",
          "type": "address"
        }
      ],
      "stateMutability": "view",
      "type": "function"
    },
    {
      "inputs": [
        {
          "internalType": "bytes32",
          "name": "_element",
          "type": "bytes32"
        },
        {
          "components": [
            {
              "internalType": "uint256",
              "name": "batchIndex",
              "type": "uint256"
            },
            {
              "internalType": "bytes32",
              "name": "batchRoot",
              "type": "bytes32"
            },
            {
              "internalType": "uint256",
              "name": "batchSize",
              "type": "uint256"
            },
            {
              "internalType": "uint256",
              "name": "prevTotalElements",
              "type": "uint256"
            },
            {
              "internalType": "bytes",
              "name": "extraData",
              "type": "bytes"
            }
          ],
          "internalType": "struct Lib_OVMCodec.ChainBatchHeader",
          "name": "_batchHeader",
          "type": "tuple"
        },
        {
          "components": [
            {
              "internalType": "uint256",
              "name": "index",
              "type": "uint256"
            },
            {
              "internalType": "bytes32[]",
              "name": "siblings",
              "type": "bytes32[]"
            }
          ],
          "internalType": "struct Lib_OVMCodec.ChainInclusionProof",
          "name": "_proof",
          "type": "tuple"
        }
      ],
      "name": "verifyStateCommitment",
      "outputs": [
        {
          "internalType": "bool",
          "name": "",
          "type": "bool"
        }
      ],
      "stateMutability": "view",
      "type": "function"
    }
  ],
  "bytecode": "0x60806040523480156200001157600080fd5b5060405162002eeb38038062002eeb83398181016040528101906200003791906200013b565b82828282806000806101000a81548173ffffffffffffffffffffffffffffffffffffffff021916908373ffffffffffffffffffffffffffffffffffffffff16021790555050816001819055508060028190555050505050505062000197565b600080fd5b600073ffffffffffffffffffffffffffffffffffffffff82169050919050565b6000620000c8826200009b565b9050919050565b620000da81620000bb565b8114620000e657600080fd5b50565b600081519050620000fa81620000cf565b92915050565b6000819050919050565b620001158162000100565b81146200012157600080fd5b50565b60008151905062000135816200010a565b92915050565b60008060006060848603121562000157576200015662000096565b5b60006200016786828701620000e9565b93505060206200017a8682870162000124565b92505060406200018d8682870162000124565b9150509250925092565b612d4480620001a76000396000f3fe608060405234801561001057600080fd5b50600436106100b45760003560e01c80638ca5cbb9116100715780638ca5cbb9146101915780639418bddd146101ad578063b8e189ac146101dd578063c17b291b146101f9578063cfdf677e14610217578063e561dddc14610235576100b4565b8063299ca478146100b9578063461a4478146100d75780634d69ee57146101075780637aa63a86146101375780637ad168a01461015557806381eb62ef14610173575b600080fd5b6100c1610253565b6040516100ce91906116b7565b60405180910390f35b6100f160048036038101906100ec919061182c565b610277565b6040516100fe9190611896565b60405180910390f35b610121600480360381019061011c9190611ba4565b61031b565b60405161012e9190611c4a565b60405180910390f35b61013f6103cc565b60405161014c9190611c74565b60405180910390f35b61015d6103e8565b60405161016a9190611c74565b60405180910390f35b61017b610404565b6040516101889190611c74565b60405180910390f35b6101ab60048036038101906101a69190611c8f565b61040a565b005b6101c760048036038101906101c29190611ceb565b6106bd565b6040516101d49190611c4a565b60405180910390f35b6101f760048036038101906101f29190611ceb565b610736565b005b61020161087d565b60405161020e9190611c74565b60405180910390f35b61021f610883565b60405161022c9190611d55565b60405180910390f35b61023d6108ab565b60405161024a9190611c74565b60405180910390f35b60008054906101000a900473ffffffffffffffffffffffffffffffffffffffff1681565b60008060009054906101000a900473ffffffffffffffffffffffffffffffffffffffff1673ffffffffffffffffffffffffffffffffffffffff1663bf40fac1836040518263ffffffff1660e01b81526004016102d39190611def565b602060405180830381865afa1580156102f0573d6000803e3d6000fd5b505050506040513d601f19601f820116820180604052508101906103149190611e3d565b9050919050565b600061032683610928565b610365576040517f08c379a000000000000000000000000000000000000000000000000000000000815260040161035c90611eb6565b60405180910390fd5b6103828360200151858460000151856020015187604001516109c0565b6103c1576040517f08c379a00000000000000000000000000000000000000000000000000000000081526004016103b890611f22565b60405180910390fd5b600190509392505050565b6000806103d7610b66565b5090508064ffffffffff1691505090565b6000806103f3610b66565b9150508064ffffffffff1691505090565b60025481565b6104126103cc565b8114610453576040517f08c379a000000000000000000000000000000000000000000000000000000000815260040161044a90611fb4565b60405180910390fd5b6104916040518060400160405280600b81526020017f426f6e644d616e61676572000000000000000000000000000000000000000000815250610277565b73ffffffffffffffffffffffffffffffffffffffff166302ad4d2a336040518263ffffffff1660e01b81526004016104c99190611896565b602060405180830381865afa1580156104e6573d6000803e3d6000fd5b505050506040513d601f19601f8201168201806040525081019061050a9190612000565b610549576040517f08c379a00000000000000000000000000000000000000000000000000000000081526004016105409061209f565b60405180910390fd5b600082511161058d576040517f08c379a000000000000000000000000000000000000000000000000000000000815260040161058490612131565b60405180910390fd5b6105cb6040518060400160405280601981526020017f43616e6f6e6963616c5472616e73616374696f6e436861696e00000000000000815250610277565b73ffffffffffffffffffffffffffffffffffffffff16637aa63a866040518163ffffffff1660e01b8152600401602060405180830381865afa158015610615573d6000803e3d6000fd5b505050506040513d601f19601f820116820180604052508101906106399190612166565b82516106436103cc565b61064d91906121c2565b111561068e576040517f08c379a00000000000000000000000000000000000000000000000000000000081526004016106859061228e565b60405180910390fd5b6106b98242336040516020016106a59291906122ae565b604051602081830303815290604052610c2b565b5050565b60008082608001518060200190518101906106d89190612315565b5090506000810361071e576040517f08c379a0000000000000000000000000000000000000000000000000000000008152600401610715906123c7565b60405180910390fd5b426001548261072d91906121c2565b11915050919050565b6107746040518060400160405280601181526020017f4f564d5f46726175645665726966696572000000000000000000000000000000815250610277565b73ffffffffffffffffffffffffffffffffffffffff163373ffffffffffffffffffffffffffffffffffffffff16146107e1576040517f08c379a00000000000000000000000000000000000000000000000000000000081526004016107d890612459565b60405180910390fd5b6107ea81610928565b610829576040517f08c379a000000000000000000000000000000000000000000000000000000000815260040161082090611eb6565b60405180910390fd5b610832816106bd565b610871576040517f08c379a0000000000000000000000000000000000000000000000000000000008152600401610868906124eb565b60405180910390fd5b61087a81610e42565b50565b60015481565b60006108a6604051806060016040528060218152602001612cee60219139610277565b905090565b60006108b5610883565b73ffffffffffffffffffffffffffffffffffffffff16631f7b6d326040518163ffffffff1660e01b8152600401602060405180830381865afa1580156108ff573d6000803e3d6000fd5b505050506040513d601f19601f820116820180604052508101906109239190612166565b905090565b6000610932610883565b73ffffffffffffffffffffffffffffffffffffffff16639507d39a83600001516040518263ffffffff1660e01b815260040161096e9190611c74565b602060405180830381865afa15801561098b573d6000803e3d6000fd5b505050506040513d601f19601f820116820180604052508101906109af9190612520565b6109b88361100e565b149050919050565b6000808211610a04576040517f08c379a00000000000000000000000000000000000000000000000000000000081526004016109fb906125bf565b60405180910390fd5b818410610a46576040517f08c379a0000000000000000000000000000000000000000000000000000000008152600401610a3d90612651565b60405180910390fd5b610a4f82611054565b835114610a91576040517f08c379a0000000000000000000000000000000000000000000000000000000008152600401610a8890612709565b60405180910390fd5b600085905060005b8451811015610b5657600180871603610af657848181518110610abf57610abe612729565b5b602002602001015182604051602001610ad9929190612779565b604051602081830303815290604052805190602001209150610b3c565b81858281518110610b0a57610b09612729565b5b6020026020010151604051602001610b23929190612779565b6040516020818303038152906040528051906020012091505b600186901c95508080610b4e906127a5565b915050610a99565b5080871491505095945050505050565b6000806000610b73610883565b73ffffffffffffffffffffffffffffffffffffffff1663ccf8f9696040518163ffffffff1660e01b8152600401602060405180830381865afa158015610bbd573d6000803e3d6000fd5b505050506040513d601f19601f82011682018060405250810190610be19190612845565b90506000808260281c925064ffffffffff831691507fffffffffffffffffffffffffffffffffffffffffffffffffffffff0000000000831660281c90508181945094505050509091565b6000610c6b6040518060400160405280600c81526020017f4f564d5f50726f706f7365720000000000000000000000000000000000000000815250610277565b9050600080610c78610b66565b915091508273ffffffffffffffffffffffffffffffffffffffff163373ffffffffffffffffffffffffffffffffffffffff1603610cb757429050610d0e565b426002548264ffffffffff16610ccd91906121c2565b10610d0d576040517f08c379a0000000000000000000000000000000000000000000000000000000008152600401610d049061290a565b60405180910390fd5b5b60006040518060a00160405280610d236108ab565b8152602001610d3188611123565b8152602001875181526020018464ffffffffff16815260200186815250905080600001517f16be4c5129a4e03cf3350262e181dc02ddfb4a6008d925368c0899fcd97ca9c58260200151836040015184606001518560800151604051610d9a949392919061298e565b60405180910390a2610daa610883565b73ffffffffffffffffffffffffffffffffffffffff16632015276c610dce8361100e565b610deb84604001518560600151610de591906121c2565b8661161a565b6040518363ffffffff1660e01b8152600401610e089291906129e9565b600060405180830381600087803b158015610e2257600080fd5b505af1158015610e36573d6000803e3d6000fd5b50505050505050505050565b610e4a610883565b73ffffffffffffffffffffffffffffffffffffffff16631f7b6d326040518163ffffffff1660e01b8152600401602060405180830381865afa158015610e94573d6000803e3d6000fd5b505050506040513d601f19601f82011682018060405250810190610eb89190612166565b816000015110610efd576040517f08c379a0000000000000000000000000000000000000000000000000000000008152600401610ef490612a5e565b60405180910390fd5b610f0681610928565b610f45576040517f08c379a0000000000000000000000000000000000000000000000000000000008152600401610f3c90611eb6565b60405180910390fd5b610f4d610883565b73ffffffffffffffffffffffffffffffffffffffff1663167fd6818260000151610f7c8460600151600061161a565b6040518363ffffffff1660e01b8152600401610f99929190612a7e565b600060405180830381600087803b158015610fb357600080fd5b505af1158015610fc7573d6000803e3d6000fd5b5050505080600001517f8747b69ce8fdb31c3b9b0a67bd8049ad8c1a69ea417b69b12174068abd9cbd6482602001516040516110039190612aa7565b60405180910390a250565b60008160200151826040015183606001518460800151604051602001611037949392919061298e565b604051602081830303815290604052805190602001209050919050565b6000808211611098576040517f08c379a000000000000000000000000000000000000000000000000000000000815260040161108f90612b34565b60405180910390fd5b600182036110a9576000905061111e565b6000829050600080608090505b600181106110fc576000816001836001901b6110d29190612b54565b901b8416146110f05780826110e791906121c2565b91508083901c92505b600181901c90506110b6565b5083816001901b146111185760018161111591906121c2565b90505b80925050505b919050565b600080825111611168576040517f08c379a000000000000000000000000000000000000000000000000000000000815260040161115f90612bfa565b60405180910390fd5b6001825103611194578160008151811061118557611184612729565b5b60200260200101519050611615565b60006040518061020001604052807f290decd9548b62a8d60345a988386fc84ba6bc95484008f6362f93160ef3e56381526020017f633dc4d7da7256660a892f8f1604a44b5432649cc8ec5cb3ced4c4e6ac94dd1d81526020017f890740a8eb06ce9be422cb8da5cdafc2b58c0a5e24036c578de2a433c828ff7d81526020017f3b8ec09e026fdc305365dfc94e189a81b38c7597b3d941c279f042e8206e0bd881526020017fecd50eee38e386bd62be9bedb990706951b65fe053bd9d8a521af753d139e2da81526020017fdefff6d330bb5403f63b14f33b578274160de3a50df4efecf0e0db73bcdd3da581526020017f617bdd11f7c0a11f49db22f629387a12da7596f9d1704d7465177c63d88ec7d781526020017f292c23a9aa1d8bea7e2435e555a4a60e379a5a35f3f452bae60121073fb6eead81526020017fe1cea92ed99acdcb045a6726b2f87107e8a61620a232cf4d7d5b5766b3952e1081526020017f7ad66c0a68c72cb89e4fb4303841966e4062a76ab97451e3b9fb526a5ceb7f8281526020017fe026cc5a4aed3c22a58cbd3d2ac754c9352c5436f638042dca99034e8363651681526020017f3d04cffd8b46a874edf5cfae63077de85f849a660426697b06a829c70dd1409c81526020017fad676aa337a485e4728a0b240d92b3ef7b3c372d06d189322bfd5f61f1e7203e81526020017fa2fca4a49658f9fab7aa63289c91b7c7b6c832a6d0e69334ff5b0a3483d09dab81526020017f4ebfd9cd7bca2505f7bef59cc1c12ecc708fff26ae4af19abe852afe9e20c86281526020017f2def10d13dd169f550f578bda343d9717a138562e0093b380a1120789d53cf1081525090506000604067ffffffffffffffff81111561141f5761141e611701565b5b6040519080825280601f01601f1916602001820160405280156114515781602001600182028036833780820191505090505b509050600080600086519050600080805b60018411156115ee576002846114789190612c49565b915060016002856114899190612c7a565b14905060005b8281101561153b578a8160026114a59190612cab565b815181106114b6576114b5612729565b5b602002602001015196508a60018260026114d09190612cab565b6114da91906121c2565b815181106114eb576114ea612729565b5b6020026020010151955086602089015285604089015287805190602001208b828151811061151c5761151b612729565b5b6020026020010181815250508080611533906127a5565b91505061148f565b5080156115bc57896001856115509190612b54565b8151811061156157611560612729565b5b6020026020010151955087836010811061157e5761157d612729565b5b602002015160001b945085602088015284604088015286805190602001208a83815181106115af576115ae612729565b5b6020026020010181815250505b806115c85760006115cb565b60015b60ff16826115d991906121c2565b935082806115e6906127a5565b935050611462565b8960008151811061160257611601612729565b5b6020026020010151985050505050505050505b919050565b6000808390508260281b811790508060281b90508091505092915050565b600073ffffffffffffffffffffffffffffffffffffffff82169050919050565b6000819050919050565b600061167d61167861167384611638565b611658565b611638565b9050919050565b600061168f82611662565b9050919050565b60006116a182611684565b9050919050565b6116b181611696565b82525050565b60006020820190506116cc60008301846116a8565b92915050565b6000604051905090565b600080fd5b600080fd5b600080fd5b600080fd5b6000601f19601f8301169050919050565b7f4e487b7100000000000000000000000000000000000000000000000000000000600052604160045260246000fd5b611739826116f0565b810181811067ffffffffffffffff8211171561175857611757611701565b5b80604052505050565b600061176b6116d2565b90506117778282611730565b919050565b600067ffffffffffffffff82111561179757611796611701565b5b6117a0826116f0565b9050602081019050919050565b82818337600083830152505050565b60006117cf6117ca8461177c565b611761565b9050828152602081018484840111156117eb576117ea6116eb565b5b6117f68482856117ad565b509392505050565b600082601f830112611813576118126116e6565b5b81356118238482602086016117bc565b91505092915050565b600060208284031215611842576118416116dc565b5b600082013567ffffffffffffffff8111156118605761185f6116e1565b5b61186c848285016117fe565b91505092915050565b600061188082611638565b9050919050565b61189081611875565b82525050565b60006020820190506118ab6000830184611887565b92915050565b6000819050919050565b6118c4816118b1565b81146118cf57600080fd5b50565b6000813590506118e1816118bb565b92915050565b600080fd5b600080fd5b6000819050919050565b611904816118f1565b811461190f57600080fd5b50565b600081359050611921816118fb565b92915050565b600067ffffffffffffffff82111561194257611941611701565b5b61194b826116f0565b9050602081019050919050565b600061196b61196684611927565b611761565b905082815260208101848484011115611987576119866116eb565b5b6119928482856117ad565b509392505050565b600082601f8301126119af576119ae6116e6565b5b81356119bf848260208601611958565b91505092915050565b600060a082840312156119de576119dd6118e7565b5b6119e860a0611761565b905060006119f884828501611912565b6000830152506020611a0c848285016118d2565b6020830152506040611a2084828501611912565b6040830152506060611a3484828501611912565b606083015250608082013567ffffffffffffffff811115611a5857611a576118ec565b5b611a648482850161199a565b60808301525092915050565b600067ffffffffffffffff821115611a8b57611a8a611701565b5b602082029050602081019050919050565b600080fd5b6000611ab4611aaf84611a70565b611761565b90508083825260208201905060208402830185811115611ad757611ad6611a9c565b5b835b81811015611b005780611aec88826118d2565b845260208401935050602081019050611ad9565b5050509392505050565b600082601f830112611b1f57611b1e6116e6565b5b8135611b2f848260208601611aa1565b91505092915050565b600060408284031215611b4e57611b4d6118e7565b5b611b586040611761565b90506000611b6884828501611912565b600083015250602082013567ffffffffffffffff811115611b8c57611b8b6118ec565b5b611b9884828501611b0a565b60208301525092915050565b600080600060608486031215611bbd57611bbc6116dc565b5b6000611bcb868287016118d2565b935050602084013567ffffffffffffffff811115611bec57611beb6116e1565b5b611bf8868287016119c8565b925050604084013567ffffffffffffffff811115611c1957611c186116e1565b5b611c2586828701611b38565b9150509250925092565b60008115159050919050565b611c4481611c2f565b82525050565b6000602082019050611c5f6000830184611c3b565b92915050565b611c6e816118f1565b82525050565b6000602082019050611c896000830184611c65565b92915050565b60008060408385031215611ca657611ca56116dc565b5b600083013567ffffffffffffffff811115611cc457611cc36116e1565b5b611cd085828601611b0a565b9250506020611ce185828601611912565b9150509250929050565b600060208284031215611d0157611d006116dc565b5b600082013567ffffffffffffffff811115611d1f57611d1e6116e1565b5b611d2b848285016119c8565b91505092915050565b6000611d3f82611684565b9050919050565b611d4f81611d34565b82525050565b6000602082019050611d6a6000830184611d46565b92915050565b600081519050919050565b600082825260208201905092915050565b60005b83811015611daa578082015181840152602081019050611d8f565b60008484015250505050565b6000611dc182611d70565b611dcb8185611d7b565b9350611ddb818560208601611d8c565b611de4816116f0565b840191505092915050565b60006020820190508181036000830152611e098184611db6565b905092915050565b611e1a81611875565b8114611e2557600080fd5b50565b600081519050611e3781611e11565b92915050565b600060208284031215611e5357611e526116dc565b5b6000611e6184828501611e28565b91505092915050565b7f496e76616c6964206261746368206865616465722e0000000000000000000000600082015250565b6000611ea0601583611d7b565b9150611eab82611e6a565b602082019050919050565b60006020820190508181036000830152611ecf81611e93565b9050919050565b7f496e76616c696420696e636c7573696f6e2070726f6f662e0000000000000000600082015250565b6000611f0c601883611d7b565b9150611f1782611ed6565b602082019050919050565b60006020820190508181036000830152611f3b81611eff565b9050919050565b7f41637475616c20626174636820737461727420696e64657820646f6573206e6f60008201527f74206d6174636820657870656374656420737461727420696e6465782e000000602082015250565b6000611f9e603d83611d7b565b9150611fa982611f42565b604082019050919050565b60006020820190508181036000830152611fcd81611f91565b9050919050565b611fdd81611c2f565b8114611fe857600080fd5b50565b600081519050611ffa81611fd4565b92915050565b600060208284031215612016576120156116dc565b5b600061202484828501611feb565b91505092915050565b7f50726f706f73657220646f6573206e6f74206861766520656e6f75676820636f60008201527f6c6c61746572616c20706f737465640000000000000000000000000000000000602082015250565b6000612089602f83611d7b565b91506120948261202d565b604082019050919050565b600060208201905081810360008301526120b88161207c565b9050919050565b7f43616e6e6f74207375626d697420616e20656d7074792073746174652062617460008201527f63682e0000000000000000000000000000000000000000000000000000000000602082015250565b600061211b602383611d7b565b9150612126826120bf565b604082019050919050565b6000602082019050818103600083015261214a8161210e565b9050919050565b600081519050612160816118fb565b92915050565b60006020828403121561217c5761217b6116dc565b5b600061218a84828501612151565b91505092915050565b7f4e487b7100000000000000000000000000000000000000000000000000000000600052601160045260246000fd5b60006121cd826118f1565b91506121d8836118f1565b92508282019050808211156121f0576121ef612193565b5b92915050565b7f4e756d626572206f6620737461746520726f6f74732063616e6e6f742065786360008201527f65656420746865206e756d626572206f662063616e6f6e6963616c207472616e60208201527f73616374696f6e732e0000000000000000000000000000000000000000000000604082015250565b6000612278604983611d7b565b9150612283826121f6565b606082019050919050565b600060208201905081810360008301526122a78161226b565b9050919050565b60006040820190506122c36000830185611c65565b6122d06020830184611887565b9392505050565b60006122e282611638565b9050919050565b6122f2816122d7565b81146122fd57600080fd5b50565b60008151905061230f816122e9565b92915050565b6000806040838503121561232c5761232b6116dc565b5b600061233a85828601612151565b925050602061234b85828601612300565b9150509250929050565b7f4261746368206865616465722074696d657374616d702063616e6e6f7420626560008201527f207a65726f000000000000000000000000000000000000000000000000000000602082015250565b60006123b1602583611d7b565b91506123bc82612355565b604082019050919050565b600060208201905081810360008301526123e0816123a4565b9050919050565b7f537461746520626174636865732063616e206f6e6c792062652064656c65746560008201527f6420627920746865204f564d5f467261756456657269666965722e0000000000602082015250565b6000612443603b83611d7b565b915061244e826123e7565b604082019050919050565b6000602082019050818103600083015261247281612436565b9050919050565b7f537461746520626174636865732063616e206f6e6c792062652064656c65746560008201527f642077697468696e207468652066726175642070726f6f662077696e646f772e602082015250565b60006124d5604083611d7b565b91506124e082612479565b604082019050919050565b60006020820190508181036000830152612504816124c8565b9050919050565b60008151905061251a816118bb565b92915050565b600060208284031215612536576125356116dc565b5b60006125448482850161250b565b91505092915050565b7f4c69625f4d65726b6c65547265653a20546f74616c206c6561766573206d757360008201527f742062652067726561746572207468616e207a65726f2e000000000000000000602082015250565b60006125a9603783611d7b565b91506125b48261254d565b604082019050919050565b600060208201905081810360008301526125d88161259c565b9050919050565b7f4c69625f4d65726b6c65547265653a20496e646578206f7574206f6620626f7560008201527f6e64732e00000000000000000000000000000000000000000000000000000000602082015250565b600061263b602483611d7b565b9150612646826125df565b604082019050919050565b6000602082019050818103600083015261266a8161262e565b9050919050565b7f4c69625f4d65726b6c65547265653a20546f74616c207369626c696e6773206460008201527f6f6573206e6f7420636f72726563746c7920636f72726573706f6e6420746f2060208201527f746f74616c206c65617665732e00000000000000000000000000000000000000604082015250565b60006126f3604d83611d7b565b91506126fe82612671565b606082019050919050565b60006020820190508181036000830152612722816126e6565b9050919050565b7f4e487b7100000000000000000000000000000000000000000000000000000000600052603260045260246000fd5b6000819050919050565b61277361276e826118b1565b612758565b82525050565b60006127858285612762565b6020820191506127958284612762565b6020820191508190509392505050565b60006127b0826118f1565b91507fffffffffffffffffffffffffffffffffffffffffffffffffffffffffffffffff82036127e2576127e1612193565b5b600182019050919050565b60007fffffffffffffffffffffffffffffffffffffffffffffffffffffff000000000082169050919050565b612822816127ed565b811461282d57600080fd5b50565b60008151905061283f81612819565b92915050565b60006020828403121561285b5761285a6116dc565b5b600061286984828501612830565b91505092915050565b7f43616e6e6f74207075626c69736820737461746520726f6f747320776974686960008201527f6e207468652073657175656e636572207075626c69636174696f6e2077696e6460208201527f6f772e0000000000000000000000000000000000000000000000000000000000604082015250565b60006128f4604383611d7b565b91506128ff82612872565b606082019050919050565b60006020820190508181036000830152612923816128e7565b9050919050565b612933816118b1565b82525050565b600081519050919050565b600082825260208201905092915050565b600061296082612939565b61296a8185612944565b935061297a818560208601611d8c565b612983816116f0565b840191505092915050565b60006080820190506129a3600083018761292a565b6129b06020830186611c65565b6129bd6040830185611c65565b81810360608301526129cf8184612955565b905095945050505050565b6129e3816127ed565b82525050565b60006040820190506129fe600083018561292a565b612a0b60208301846129da565b9392505050565b7f496e76616c696420626174636820696e6465782e000000000000000000000000600082015250565b6000612a48601483611d7b565b9150612a5382612a12565b602082019050919050565b60006020820190508181036000830152612a7781612a3b565b9050919050565b6000604082019050612a936000830185611c65565b612aa060208301846129da565b9392505050565b6000602082019050612abc600083018461292a565b92915050565b7f4c69625f4d65726b6c65547265653a2043616e6e6f7420636f6d70757465206360008201527f65696c286c6f675f3229206f6620302e00000000000000000000000000000000602082015250565b6000612b1e603083611d7b565b9150612b2982612ac2565b604082019050919050565b60006020820190508181036000830152612b4d81612b11565b9050919050565b6000612b5f826118f1565b9150612b6a836118f1565b9250828203905081811115612b8257612b81612193565b5b92915050565b7f4c69625f4d65726b6c65547265653a204d7573742070726f766964652061742060008201527f6c65617374206f6e65206c65616620686173682e000000000000000000000000602082015250565b6000612be4603483611d7b565b9150612bef82612b88565b604082019050919050565b60006020820190508181036000830152612c1381612bd7565b9050919050565b7f4e487b7100000000000000000000000000000000000000000000000000000000600052601260045260246000fd5b6000612c54826118f1565b9150612c5f836118f1565b925082612c6f57612c6e612c1a565b5b828204905092915050565b6000612c85826118f1565b9150612c90836118f1565b925082612ca057612c9f612c1a565b5b828206905092915050565b6000612cb6826118f1565b9150612cc1836118f1565b9250828202612ccf816118f1565b91508282048414831517612ce657612ce5612193565b5b509291505056fe436861696e53746f72616765436f6e7461696e65722d5343432d62617463686573a2646970667358221220ee4d520d0bacb4819ab1c1b2b3dca4e163852e0d937b6e55f9cedfb5fadc601964736f6c63430008110033",
  "linkReferences": {},
  "deployedLinkReferences": {}
}