{
  "_format": "hh-sol-artifact-1",
  "contractName": "TestHashi721Bridge",
  "sourceName": "contracts/test/TestHashi721Bridge.sol",
  "abi": [
    {
      "anonymous": false,
      "inputs": [
        {
          "indexed": true,
          "internalType": "uint32",
          "name": "domainId",
          "type": "uint32"
        },
        {
          "indexed": true,
          "internalType": "address",
          "name": "bridge",
          "type": "address"
        }
      ],
      "name": "BridgeSet",
      "type": "event"
    },
    {
      "anonymous": false,
      "inputs": [
        {
          "indexed": false,
          "internalType": "uint8",
          "name": "version",
          "type": "uint8"
        }
      ],
      "name": "Initialized",
      "type": "event"
    },
    {
      "anonymous": false,
      "inputs": [
        {
          "indexed": true,
          "internalType": "address",
          "name": "previousOwner",
          "type": "address"
        },
        {
          "indexed": true,
          "internalType": "address",
          "name": "newOwner",
          "type": "address"
        }
      ],
      "name": "OwnershipTransferred",
      "type": "event"
    },
    {
      "inputs": [],
      "name": "CONNEXT_AMOUNT_FOR_NONE",
      "outputs": [
        {
          "internalType": "uint256",
          "name": "",
          "type": "uint256"
        }
      ],
      "stateMutability": "view",
      "type": "function"
    },
    {
      "inputs": [],
      "name": "CONNEXT_ASSET_FOR_NONE",
      "outputs": [
        {
          "internalType": "address",
          "name": "",
          "type": "address"
        }
      ],
      "stateMutability": "view",
      "type": "function"
    },
    {
      "inputs": [
        {
          "internalType": "uint32",
          "name": "originalDomainId",
          "type": "uint32"
        },
        {
          "internalType": "address",
          "name": "originalAsset",
          "type": "address"
        },
        {
          "internalType": "address",
          "name": "to",
          "type": "address"
        },
        {
          "internalType": "uint256",
          "name": "tokenId",
          "type": "uint256"
        },
        {
          "internalType": "string",
          "name": "tokenURI",
          "type": "string"
        }
      ],
      "name": "_encodeCallData",
      "outputs": [
        {
          "internalType": "bytes",
          "name": "",
          "type": "bytes"
        }
      ],
      "stateMutability": "pure",
      "type": "function"
    },
    {
      "inputs": [
        {
          "internalType": "uint32",
          "name": "",
          "type": "uint32"
        }
      ],
      "name": "bridges",
      "outputs": [
        {
          "internalType": "address",
          "name": "",
          "type": "address"
        }
      ],
      "stateMutability": "view",
      "type": "function"
    },
    {
      "inputs": [],
      "name": "connext",
      "outputs": [
        {
          "internalType": "address",
          "name": "",
          "type": "address"
        }
      ],
      "stateMutability": "view",
      "type": "function"
    },
    {
      "inputs": [
        {
          "internalType": "address",
          "name": "connext_",
          "type": "address"
        },
        {
          "internalType": "address",
          "name": "wrappedHashi721Implementation_",
          "type": "address"
        }
      ],
      "name": "initialize",
      "outputs": [],
      "stateMutability": "nonpayable",
      "type": "function"
    },
    {
      "inputs": [
        {
          "internalType": "address",
          "name": "",
          "type": "address"
        },
        {
          "internalType": "address",
          "name": "",
          "type": "address"
        },
        {
          "internalType": "uint256",
          "name": "",
          "type": "uint256"
        },
        {
          "internalType": "bytes",
          "name": "",
          "type": "bytes"
        }
      ],
      "name": "onERC721Received",
      "outputs": [
        {
          "internalType": "bytes4",
          "name": "",
          "type": "bytes4"
        }
      ],
      "stateMutability": "nonpayable",
      "type": "function"
    },
    {
      "inputs": [
        {
          "internalType": "address",
          "name": "",
          "type": "address"
        }
      ],
      "name": "originalAssets",
      "outputs": [
        {
          "internalType": "address",
          "name": "",
          "type": "address"
        }
      ],
      "stateMutability": "view",
      "type": "function"
    },
    {
      "inputs": [
        {
          "internalType": "address",
          "name": "",
          "type": "address"
        }
      ],
      "name": "originalDomainIds",
      "outputs": [
        {
          "internalType": "uint32",
          "name": "",
          "type": "uint32"
        }
      ],
      "stateMutability": "view",
      "type": "function"
    },
    {
      "inputs": [],
      "name": "owner",
      "outputs": [
        {
          "internalType": "address",
          "name": "",
          "type": "address"
        }
      ],
      "stateMutability": "view",
      "type": "function"
    },
    {
      "inputs": [],
      "name": "renounceOwnership",
      "outputs": [],
      "stateMutability": "nonpayable",
      "type": "function"
    },
    {
      "inputs": [
        {
          "internalType": "uint32",
          "name": "domainId_",
          "type": "uint32"
        },
        {
          "internalType": "address",
          "name": "bridge",
          "type": "address"
        }
      ],
      "name": "setBridge",
      "outputs": [],
      "stateMutability": "nonpayable",
      "type": "function"
    },
    {
      "inputs": [
        {
          "internalType": "address",
          "name": "_asset",
          "type": "address"
        },
        {
          "internalType": "uint32",
          "name": "_originalDomainId",
          "type": "uint32"
        },
        {
          "internalType": "address",
          "name": "_originalAsset",
          "type": "address"
        }
      ],
      "name": "setForWrapper",
      "outputs": [],
      "stateMutability": "nonpayable",
      "type": "function"
    },
    {
      "inputs": [
        {
          "internalType": "address",
          "name": "asset",
          "type": "address"
        },
        {
          "internalType": "uint32",
          "name": "originalDomainId",
          "type": "uint32"
        },
        {
          "internalType": "address",
          "name": "originalAsset",
          "type": "address"
        }
      ],
      "name": "setOriginal",
      "outputs": [],
      "stateMutability": "nonpayable",
      "type": "function"
    },
    {
      "inputs": [
        {
          "internalType": "bytes",
          "name": "callData",
          "type": "bytes"
        }
      ],
      "name": "testDecodeCallData",
      "outputs": [
        {
          "internalType": "uint32",
          "name": "",
          "type": "uint32"
        },
        {
          "internalType": "address",
          "name": "",
          "type": "address"
        },
        {
          "internalType": "address",
          "name": "",
          "type": "address"
        },
        {
          "internalType": "uint256",
          "name": "",
          "type": "uint256"
        },
        {
          "internalType": "string",
          "name": "",
          "type": "string"
        }
      ],
      "stateMutability": "pure",
      "type": "function"
    },
    {
      "inputs": [
        {
          "internalType": "uint32",
          "name": "originalDomainId",
          "type": "uint32"
        },
        {
          "internalType": "address",
          "name": "originalAsset",
          "type": "address"
        },
        {
          "internalType": "address",
          "name": "to",
          "type": "address"
        },
        {
          "internalType": "uint256",
          "name": "tokenId",
          "type": "uint256"
        },
        {
          "internalType": "string",
          "name": "tokenURI",
          "type": "string"
        }
      ],
      "name": "testEncodeCallData",
      "outputs": [
        {
          "internalType": "bytes",
          "name": "",
          "type": "bytes"
        }
      ],
      "stateMutability": "pure",
      "type": "function"
    },
    {
      "inputs": [
        {
          "internalType": "bytes",
          "name": "callData",
          "type": "bytes"
        }
      ],
      "name": "testXReceive",
      "outputs": [],
      "stateMutability": "nonpayable",
      "type": "function"
    },
    {
      "inputs": [
        {
          "internalType": "address",
          "name": "newOwner",
          "type": "address"
        }
      ],
      "name": "transferOwnership",
      "outputs": [],
      "stateMutability": "nonpayable",
      "type": "function"
    },
    {
      "inputs": [],
      "name": "wrappedHashi721Implementation",
      "outputs": [
        {
          "internalType": "address",
          "name": "",
          "type": "address"
        }
      ],
      "stateMutability": "view",
      "type": "function"
    },
    {
      "inputs": [
        {
          "internalType": "uint32",
          "name": "destination",
          "type": "uint32"
        },
        {
          "internalType": "uint256",
          "name": "relayerFee",
          "type": "uint256"
        },
        {
          "internalType": "uint256",
          "name": "slippage",
          "type": "uint256"
        },
        {
          "internalType": "address",
          "name": "asset",
          "type": "address"
        },
        {
          "internalType": "address",
          "name": "to",
          "type": "address"
        },
        {
          "internalType": "uint256",
          "name": "tokenId",
          "type": "uint256"
        },
        {
          "internalType": "bool",
          "name": "isTokenURIIgnored",
          "type": "bool"
        }
      ],
      "name": "xCall",
      "outputs": [
        {
          "internalType": "bytes32",
          "name": "",
          "type": "bytes32"
        }
      ],
      "stateMutability": "payable",
      "type": "function"
    },
    {
      "inputs": [
        {
          "internalType": "bytes32",
          "name": "transferId",
          "type": "bytes32"
        },
        {
          "internalType": "uint256",
          "name": "amount",
          "type": "uint256"
        },
        {
          "internalType": "address",
          "name": "asset",
          "type": "address"
        },
        {
          "internalType": "address",
          "name": "originSender",
          "type": "address"
        },
        {
          "internalType": "uint32",
          "name": "origin",
          "type": "uint32"
        },
        {
          "internalType": "bytes",
          "name": "callData",
          "type": "bytes"
        }
      ],
      "name": "xReceive",
      "outputs": [
        {
          "internalType": "bytes",
          "name": "",
          "type": "bytes"
        }
      ],
      "stateMutability": "nonpayable",
      "type": "function"
    }
  ],
  "bytecode": "0x608060405234801561001057600080fd5b506130dc806100206000396000f3fe60806040526004361061012a5760003560e01c8063802ef739116100ab578063c65659161161006f578063c65659161461040d578063dae74dd41461044a578063de4b054814610475578063f2fde38b146104a0578063fd614f41146104c9578063fea00716146105065761012a565b8063802ef739146103335780638da5cb5b14610363578063a0f0a3121461038e578063a4db43f0146103b9578063c34f6ec4146103e25761012a565b8063485cc955116100f2578063485cc95514610250578063539ee20914610279578063544cab9f146102b657806368b2ba68146102f3578063715018a61461031c5761012a565b80630b8931cb1461012f578063150b7a021461016c57806325013d3c146101a957806327b8d006146101d25780633ae4552814610213575b600080fd5b34801561013b57600080fd5b5061015660048036038101906101519190611d56565b61052f565b6040516101639190611dc4565b60405180910390f35b34801561017857600080fd5b50610193600480360381019061018e9190611f87565b610562565b6040516101a09190612045565b60405180910390f35b3480156101b557600080fd5b506101d060048036038101906101cb9190612060565b610576565b005b3480156101de57600080fd5b506101f960048036038101906101f491906120b3565b610657565b60405161020a959493929190612199565b60405180910390f35b34801561021f57600080fd5b5061023a600480360381019061023591906121f3565b61067b565b6040516102479190611dc4565b60405180910390f35b34801561025c57600080fd5b5061027760048036038101906102729190612220565b6106ae565b005b34801561028557600080fd5b506102a0600480360381019061029b91906121f3565b610838565b6040516102ad9190612260565b60405180910390f35b3480156102c257600080fd5b506102dd60048036038101906102d8919061231c565b61085b565b6040516102ea9190612408565b60405180910390f35b3480156102ff57600080fd5b5061031a6004803603810190610315919061242a565b610875565b005b34801561032857600080fd5b50610331610929565b005b61034d600480360381019061034891906124a2565b61093d565b60405161035a919061255d565b60405180910390f35b34801561036f57600080fd5b50610378610f4b565b6040516103859190611dc4565b60405180910390f35b34801561039a57600080fd5b506103a3610f75565b6040516103b09190611dc4565b60405180910390f35b3480156103c557600080fd5b506103e060048036038101906103db91906120b3565b610f7a565b005b3480156103ee57600080fd5b506103f7610f86565b6040516104049190612578565b60405180910390f35b34801561041957600080fd5b50610434600480360381019061042f919061231c565b610f8b565b6040516104419190612408565b60405180910390f35b34801561045657600080fd5b5061045f610fc0565b60405161046c9190611dc4565b60405180910390f35b34801561048157600080fd5b5061048a610fe6565b6040516104979190611dc4565b60405180910390f35b3480156104ac57600080fd5b506104c760048036038101906104c291906121f3565b61100c565b005b3480156104d557600080fd5b506104f060048036038101906104eb91906125bf565b61108f565b6040516104fd9190612408565b60405180910390f35b34801561051257600080fd5b5061052d60048036038101906105289190612060565b6112b2565b005b60976020528060005260406000206000915054906101000a900473ffffffffffffffffffffffffffffffffffffffff1681565b600063150b7a0260e01b9050949350505050565b81609960008573ffffffffffffffffffffffffffffffffffffffff1673ffffffffffffffffffffffffffffffffffffffff16815260200190815260200160002060006101000a81548163ffffffff021916908363ffffffff16021790555080609a60008573ffffffffffffffffffffffffffffffffffffffff1673ffffffffffffffffffffffffffffffffffffffff16815260200190815260200160002060006101000a81548173ffffffffffffffffffffffffffffffffffffffff021916908373ffffffffffffffffffffffffffffffffffffffff160217905550505050565b600080600080606061066886611393565b9450945094509450945091939590929450565b609a6020528060005260406000206000915054906101000a900473ffffffffffffffffffffffffffffffffffffffff1681565b60008060019054906101000a900460ff161590508080156106df5750600160008054906101000a900460ff1660ff16105b8061070c57506106ee306113c2565b15801561070b5750600160008054906101000a900460ff1660ff16145b5b61074b576040517f08c379a0000000000000000000000000000000000000000000000000000000008152600401610742906126da565b60405180910390fd5b60016000806101000a81548160ff021916908360ff1602179055508015610788576001600060016101000a81548160ff0219169083151502179055505b6107906113e5565b61079983611436565b81609b60006101000a81548173ffffffffffffffffffffffffffffffffffffffff021916908373ffffffffffffffffffffffffffffffffffffffff16021790555080156108335760008060016101000a81548160ff0219169083151502179055507f7f26b83ff96e1f2b6a682f133852f6798a09c465da95921460cefb3847402498600160405161082a919061274c565b60405180910390a15b505050565b60996020528060005260406000206000915054906101000a900463ffffffff1681565b606061086a8686868686610f8b565b905095945050505050565b61087d611499565b80609760008463ffffffff1663ffffffff16815260200190815260200160002060006101000a81548173ffffffffffffffffffffffffffffffffffffffff021916908373ffffffffffffffffffffffffffffffffffffffff1602179055508073ffffffffffffffffffffffffffffffffffffffff168263ffffffff167fb95f7bd4ed333200a22dcfdd4921bfe48e8abc90a7d14f82334e7946479db83960405160405180910390a35050565b610931611499565b61093b6000611517565b565b6000808573ffffffffffffffffffffffffffffffffffffffff16636352211e856040518263ffffffff1660e01b81526004016109799190612578565b602060405180830381865afa158015610996573d6000803e3d6000fd5b505050506040513d601f19601f820116820180604052508101906109ba919061277c565b90506109c46115dd565b73ffffffffffffffffffffffffffffffffffffffff168173ffffffffffffffffffffffffffffffffffffffff161480610aa85750610a006115dd565b73ffffffffffffffffffffffffffffffffffffffff168673ffffffffffffffffffffffffffffffffffffffff1663081812fc866040518263ffffffff1660e01b8152600401610a4f9190612578565b602060405180830381865afa158015610a6c573d6000803e3d6000fd5b505050506040513d601f19601f82011682018060405250810190610a90919061277c565b73ffffffffffffffffffffffffffffffffffffffff16145b80610b3257508573ffffffffffffffffffffffffffffffffffffffff1663e985e9c582610ad36115dd565b6040518363ffffffff1660e01b8152600401610af09291906127a9565b602060405180830381865afa158015610b0d573d6000803e3d6000fd5b505050506040513d601f19601f82011682018060405250810190610b3191906127e7565b5b610b71576040517f08c379a0000000000000000000000000000000000000000000000000000000008152600401610b6890612886565b60405180910390fd5b606083610bfa578673ffffffffffffffffffffffffffffffffffffffff1663c87b56dd866040518263ffffffff1660e01b8152600401610bb19190612578565b600060405180830381865afa158015610bce573d6000803e3d6000fd5b505050506040513d6000823e3d601f19601f82011682018060405250810190610bf79190612916565b90505b600080600073ffffffffffffffffffffffffffffffffffffffff16609a60008b73ffffffffffffffffffffffffffffffffffffffff1673ffffffffffffffffffffffffffffffffffffffff16815260200190815260200160002060009054906101000a900473ffffffffffffffffffffffffffffffffffffffff1673ffffffffffffffffffffffffffffffffffffffff16148015610ced57506000609960008b73ffffffffffffffffffffffffffffffffffffffff1673ffffffffffffffffffffffffffffffffffffffff16815260200190815260200160002060009054906101000a900463ffffffff1663ffffffff16145b15610dfc578873ffffffffffffffffffffffffffffffffffffffff166323b872dd85308a6040518463ffffffff1660e01b8152600401610d2f9392919061295f565b600060405180830381600087803b158015610d4957600080fd5b505af1158015610d5d573d6000803e3d6000fd5b50505050609860009054906101000a900473ffffffffffffffffffffffffffffffffffffffff1673ffffffffffffffffffffffffffffffffffffffff1663c2fb26a66040518163ffffffff1660e01b8152600401602060405180830381865afa158015610dce573d6000803e3d6000fd5b505050506040513d601f19601f82011682018060405250810190610df291906129ab565b9150889050610f1c565b8873ffffffffffffffffffffffffffffffffffffffff166342966c68886040518263ffffffff1660e01b8152600401610e359190612578565b600060405180830381600087803b158015610e4f57600080fd5b505af1158015610e63573d6000803e3d6000fd5b50505050609960008a73ffffffffffffffffffffffffffffffffffffffff1673ffffffffffffffffffffffffffffffffffffffff16815260200190815260200160002060009054906101000a900463ffffffff169150609a60008a73ffffffffffffffffffffffffffffffffffffffff1673ffffffffffffffffffffffffffffffffffffffff16815260200190815260200160002060009054906101000a900473ffffffffffffffffffffffffffffffffffffffff1690505b6000610f2b83838b8b88610f8b565b9050610f398d8d8d846115e5565b95505050505050979650505050505050565b6000606560009054906101000a900473ffffffffffffffffffffffffffffffffffffffff16905090565b600081565b610f8381611757565b50565b600081565b60608585858585604051602001610fa6959493929190612199565b604051602081830303815290604052905095945050505050565b609b60009054906101000a900473ffffffffffffffffffffffffffffffffffffffff1681565b609860009054906101000a900473ffffffffffffffffffffffffffffffffffffffff1681565b611014611499565b600073ffffffffffffffffffffffffffffffffffffffff168173ffffffffffffffffffffffffffffffffffffffff1603611083576040517f08c379a000000000000000000000000000000000000000000000000000000000815260040161107a90612a4a565b60405180910390fd5b61108c81611517565b50565b6060600073ffffffffffffffffffffffffffffffffffffffff168573ffffffffffffffffffffffffffffffffffffffff1614611100576040517f08c379a00000000000000000000000000000000000000000000000000000000081526004016110f790612adc565b60405180910390fd5b60008614611143576040517f08c379a000000000000000000000000000000000000000000000000000000000815260040161113a90612b6e565b60405180910390fd5b6000609760008563ffffffff1663ffffffff16815260200190815260200160002060009054906101000a900473ffffffffffffffffffffffffffffffffffffffff1690508473ffffffffffffffffffffffffffffffffffffffff168173ffffffffffffffffffffffffffffffffffffffff16146111f5576040517f08c379a00000000000000000000000000000000000000000000000000000000081526004016111ec90612c00565b60405180910390fd5b609860009054906101000a900473ffffffffffffffffffffffffffffffffffffffff1673ffffffffffffffffffffffffffffffffffffffff166112366115dd565b73ffffffffffffffffffffffffffffffffffffffff161461128c576040517f08c379a000000000000000000000000000000000000000000000000000000000815260040161128390612c92565b60405180910390fd5b61129583611757565b604051806020016040528060008152509150509695505050505050565b81609960008573ffffffffffffffffffffffffffffffffffffffff1673ffffffffffffffffffffffffffffffffffffffff16815260200190815260200160002060006101000a81548163ffffffff021916908363ffffffff16021790555080609a60008573ffffffffffffffffffffffffffffffffffffffff1673ffffffffffffffffffffffffffffffffffffffff16815260200190815260200160002060006101000a81548173ffffffffffffffffffffffffffffffffffffffff021916908373ffffffffffffffffffffffffffffffffffffffff160217905550505050565b6000806000806060858060200190518101906113af9190612d05565b9450945094509450945091939590929450565b6000808273ffffffffffffffffffffffffffffffffffffffff163b119050919050565b600060019054906101000a900460ff16611434576040517f08c379a000000000000000000000000000000000000000000000000000000000815260040161142b90612e0e565b60405180910390fd5b565b600060019054906101000a900460ff16611485576040517f08c379a000000000000000000000000000000000000000000000000000000000815260040161147c90612e0e565b60405180910390fd5b61148d611ae0565b61149681611b41565b50565b6114a16115dd565b73ffffffffffffffffffffffffffffffffffffffff166114bf610f4b565b73ffffffffffffffffffffffffffffffffffffffff1614611515576040517f08c379a000000000000000000000000000000000000000000000000000000000815260040161150c90612e7a565b60405180910390fd5b565b6000606560009054906101000a900473ffffffffffffffffffffffffffffffffffffffff16905081606560006101000a81548173ffffffffffffffffffffffffffffffffffffffff021916908373ffffffffffffffffffffffffffffffffffffffff1602179055508173ffffffffffffffffffffffffffffffffffffffff168173ffffffffffffffffffffffffffffffffffffffff167f8be0079c531659141344cd1fd0a4f28419497f9722a3daafe3b4186f6b6457e060405160405180910390a35050565b600033905090565b600080609760008763ffffffff1663ffffffff16815260200190815260200160002060009054906101000a900473ffffffffffffffffffffffffffffffffffffffff169050600073ffffffffffffffffffffffffffffffffffffffff168173ffffffffffffffffffffffffffffffffffffffff1603611699576040517f08c379a000000000000000000000000000000000000000000000000000000000815260040161169090612c00565b60405180910390fd5b609860009054906101000a900473ffffffffffffffffffffffffffffffffffffffff1673ffffffffffffffffffffffffffffffffffffffff16638aac16ba878360006116e36115dd565b60008a8a6040518863ffffffff1660e01b81526004016117099796959493929190612e9a565b6020604051808303816000875af1158015611728573d6000803e3d6000fd5b505050506040513d601f19601f8201168201806040525081019061174c9190612f25565b915050949350505050565b600080600080600061176886611393565b94509450945094509450609860009054906101000a900473ffffffffffffffffffffffffffffffffffffffff1673ffffffffffffffffffffffffffffffffffffffff1663c2fb26a66040518163ffffffff1660e01b8152600401602060405180830381865afa1580156117df573d6000803e3d6000fd5b505050506040513d601f19601f8201168201806040525081019061180391906129ab565b63ffffffff168563ffffffff1614611a62576000858560405160200161182a929190612fd0565b6040516020818303038152906040528051906020012090506000611870609b60009054906101000a900473ffffffffffffffffffffffffffffffffffffffff1683611bd4565b905085905061187e816113c2565b6119ec576118ae609b60009054906101000a900473ffffffffffffffffffffffffffffffffffffffff1683611be9565b508073ffffffffffffffffffffffffffffffffffffffff16638129fc1c6040518163ffffffff1660e01b8152600401600060405180830381600087803b1580156118f757600080fd5b505af115801561190b573d6000803e3d6000fd5b5050505086609960008373ffffffffffffffffffffffffffffffffffffffff1673ffffffffffffffffffffffffffffffffffffffff16815260200190815260200160002060006101000a81548163ffffffff021916908363ffffffff16021790555085609a60008373ffffffffffffffffffffffffffffffffffffffff1673ffffffffffffffffffffffffffffffffffffffff16815260200190815260200160002060006101000a81548173ffffffffffffffffffffffffffffffffffffffff021916908373ffffffffffffffffffffffffffffffffffffffff1602179055505b8073ffffffffffffffffffffffffffffffffffffffff1663d3fc98648686866040518463ffffffff1660e01b8152600401611a2993929190612ffc565b600060405180830381600087803b158015611a4357600080fd5b505af1158015611a57573d6000803e3d6000fd5b505050505050611ad8565b60008490508073ffffffffffffffffffffffffffffffffffffffff166342842e0e3086866040518463ffffffff1660e01b8152600401611aa49392919061295f565b600060405180830381600087803b158015611abe57600080fd5b505af1158015611ad2573d6000803e3d6000fd5b50505050505b505050505050565b600060019054906101000a900460ff16611b2f576040517f08c379a0000000000000000000000000000000000000000000000000000000008152600401611b2690612e0e565b60405180910390fd5b611b3f611b3a6115dd565b611517565b565b600060019054906101000a900460ff16611b90576040517f08c379a0000000000000000000000000000000000000000000000000000000008152600401611b8790612e0e565b60405180910390fd5b80609860006101000a81548173ffffffffffffffffffffffffffffffffffffffff021916908373ffffffffffffffffffffffffffffffffffffffff16021790555050565b6000611be1838330611ca5565b905092915050565b6000763d602d80600a3d3981f3363d3d373d3d3d363d730000008360601b60e81c176000526e5af43d82803e903d91602b57fd5bf38360781b1760205281603760096000f59050600073ffffffffffffffffffffffffffffffffffffffff168173ffffffffffffffffffffffffffffffffffffffff1603611c9f576040517f08c379a0000000000000000000000000000000000000000000000000000000008152600401611c9690613086565b60405180910390fd5b92915050565b60006040518260388201526f5af43d82803e903d91602b57fd5bf3ff6024820152846014820152733d602d80600a3d3981f3363d3d373d3d3d363d7381528360588201526037600c8201206078820152605560438201209150509392505050565b6000604051905090565b600080fd5b600080fd5b600063ffffffff82169050919050565b611d3381611d1a565b8114611d3e57600080fd5b50565b600081359050611d5081611d2a565b92915050565b600060208284031215611d6c57611d6b611d10565b5b6000611d7a84828501611d41565b91505092915050565b600073ffffffffffffffffffffffffffffffffffffffff82169050919050565b6000611dae82611d83565b9050919050565b611dbe81611da3565b82525050565b6000602082019050611dd96000830184611db5565b92915050565b611de881611da3565b8114611df357600080fd5b50565b600081359050611e0581611ddf565b92915050565b6000819050919050565b611e1e81611e0b565b8114611e2957600080fd5b50565b600081359050611e3b81611e15565b92915050565b600080fd5b600080fd5b6000601f19601f8301169050919050565b7f4e487b7100000000000000000000000000000000000000000000000000000000600052604160045260246000fd5b611e9482611e4b565b810181811067ffffffffffffffff82111715611eb357611eb2611e5c565b5b80604052505050565b6000611ec6611d06565b9050611ed28282611e8b565b919050565b600067ffffffffffffffff821115611ef257611ef1611e5c565b5b611efb82611e4b565b9050602081019050919050565b82818337600083830152505050565b6000611f2a611f2584611ed7565b611ebc565b905082815260208101848484011115611f4657611f45611e46565b5b611f51848285611f08565b509392505050565b600082601f830112611f6e57611f6d611e41565b5b8135611f7e848260208601611f17565b91505092915050565b60008060008060808587031215611fa157611fa0611d10565b5b6000611faf87828801611df6565b9450506020611fc087828801611df6565b9350506040611fd187828801611e2c565b925050606085013567ffffffffffffffff811115611ff257611ff1611d15565b5b611ffe87828801611f59565b91505092959194509250565b60007fffffffff0000000000000000000000000000000000000000000000000000000082169050919050565b61203f8161200a565b82525050565b600060208201905061205a6000830184612036565b92915050565b60008060006060848603121561207957612078611d10565b5b600061208786828701611df6565b935050602061209886828701611d41565b92505060406120a986828701611df6565b9150509250925092565b6000602082840312156120c9576120c8611d10565b5b600082013567ffffffffffffffff8111156120e7576120e6611d15565b5b6120f384828501611f59565b91505092915050565b61210581611d1a565b82525050565b61211481611e0b565b82525050565b600081519050919050565b600082825260208201905092915050565b60005b83811015612154578082015181840152602081019050612139565b60008484015250505050565b600061216b8261211a565b6121758185612125565b9350612185818560208601612136565b61218e81611e4b565b840191505092915050565b600060a0820190506121ae60008301886120fc565b6121bb6020830187611db5565b6121c86040830186611db5565b6121d5606083018561210b565b81810360808301526121e78184612160565b90509695505050505050565b60006020828403121561220957612208611d10565b5b600061221784828501611df6565b91505092915050565b6000806040838503121561223757612236611d10565b5b600061224585828601611df6565b925050602061225685828601611df6565b9150509250929050565b600060208201905061227560008301846120fc565b92915050565b600067ffffffffffffffff82111561229657612295611e5c565b5b61229f82611e4b565b9050602081019050919050565b60006122bf6122ba8461227b565b611ebc565b9050828152602081018484840111156122db576122da611e46565b5b6122e6848285611f08565b509392505050565b600082601f83011261230357612302611e41565b5b81356123138482602086016122ac565b91505092915050565b600080600080600060a0868803121561233857612337611d10565b5b600061234688828901611d41565b955050602061235788828901611df6565b945050604061236888828901611df6565b935050606061237988828901611e2c565b925050608086013567ffffffffffffffff81111561239a57612399611d15565b5b6123a6888289016122ee565b9150509295509295909350565b600081519050919050565b600082825260208201905092915050565b60006123da826123b3565b6123e481856123be565b93506123f4818560208601612136565b6123fd81611e4b565b840191505092915050565b6000602082019050818103600083015261242281846123cf565b905092915050565b6000806040838503121561244157612440611d10565b5b600061244f85828601611d41565b925050602061246085828601611df6565b9150509250929050565b60008115159050919050565b61247f8161246a565b811461248a57600080fd5b50565b60008135905061249c81612476565b92915050565b600080600080600080600060e0888a0312156124c1576124c0611d10565b5b60006124cf8a828b01611d41565b97505060206124e08a828b01611e2c565b96505060406124f18a828b01611e2c565b95505060606125028a828b01611df6565b94505060806125138a828b01611df6565b93505060a06125248a828b01611e2c565b92505060c06125358a828b0161248d565b91505092959891949750929550565b6000819050919050565b61255781612544565b82525050565b6000602082019050612572600083018461254e565b92915050565b600060208201905061258d600083018461210b565b92915050565b61259c81612544565b81146125a757600080fd5b50565b6000813590506125b981612593565b92915050565b60008060008060008060c087890312156125dc576125db611d10565b5b60006125ea89828a016125aa565b96505060206125fb89828a01611e2c565b955050604061260c89828a01611df6565b945050606061261d89828a01611df6565b935050608061262e89828a01611d41565b92505060a087013567ffffffffffffffff81111561264f5761264e611d15565b5b61265b89828a01611f59565b9150509295509295509295565b7f496e697469616c697a61626c653a20636f6e747261637420697320616c72656160008201527f647920696e697469616c697a6564000000000000000000000000000000000000602082015250565b60006126c4602e83612125565b91506126cf82612668565b604082019050919050565b600060208201905081810360008301526126f3816126b7565b9050919050565b6000819050919050565b600060ff82169050919050565b6000819050919050565b600061273661273161272c846126fa565b612711565b612704565b9050919050565b6127468161271b565b82525050565b6000602082019050612761600083018461273d565b92915050565b60008151905061277681611ddf565b92915050565b60006020828403121561279257612791611d10565b5b60006127a084828501612767565b91505092915050565b60006040820190506127be6000830185611db5565b6127cb6020830184611db5565b9392505050565b6000815190506127e181612476565b92915050565b6000602082840312156127fd576127fc611d10565b5b600061280b848285016127d2565b91505092915050565b7f48617368693732314272696467653a206d73672073656e64657220697320696e60008201527f76616c6964200000000000000000000000000000000000000000000000000000602082015250565b6000612870602683612125565b915061287b82612814565b604082019050919050565b6000602082019050818103600083015261289f81612863565b9050919050565b60006128b96128b48461227b565b611ebc565b9050828152602081018484840111156128d5576128d4611e46565b5b6128e0848285612136565b509392505050565b600082601f8301126128fd576128fc611e41565b5b815161290d8482602086016128a6565b91505092915050565b60006020828403121561292c5761292b611d10565b5b600082015167ffffffffffffffff81111561294a57612949611d15565b5b612956848285016128e8565b91505092915050565b60006060820190506129746000830186611db5565b6129816020830185611db5565b61298e604083018461210b565b949350505050565b6000815190506129a581611e15565b92915050565b6000602082840312156129c1576129c0611d10565b5b60006129cf84828501612996565b91505092915050565b7f4f776e61626c653a206e6577206f776e657220697320746865207a65726f206160008201527f6464726573730000000000000000000000000000000000000000000000000000602082015250565b6000612a34602683612125565b9150612a3f826129d8565b604082019050919050565b60006020820190508181036000830152612a6381612a27565b9050919050565b7f4861736869436f6e6e657874416461707465723a20617373657420697320696e60008201527f76616c6964000000000000000000000000000000000000000000000000000000602082015250565b6000612ac6602583612125565b9150612ad182612a6a565b604082019050919050565b60006020820190508181036000830152612af581612ab9565b9050919050565b7f4861736869436f6e6e657874416461707465723a20616d6f756e74206973206960008201527f6e76616c69640000000000000000000000000000000000000000000000000000602082015250565b6000612b58602683612125565b9150612b6382612afc565b604082019050919050565b60006020820190508181036000830152612b8781612b4b565b9050919050565b7f4861736869436f6e6e657874416461707465723a20627269646765206973206960008201527f6e76616c69640000000000000000000000000000000000000000000000000000602082015250565b6000612bea602683612125565b9150612bf582612b8e565b604082019050919050565b60006020820190508181036000830152612c1981612bdd565b9050919050565b7f4861736869436f6e6e657874416461707465723a206d73672073656e6465722060008201527f697320696e76616c696420000000000000000000000000000000000000000000602082015250565b6000612c7c602b83612125565b9150612c8782612c20565b604082019050919050565b60006020820190508181036000830152612cab81612c6f565b9050919050565b600081519050612cc181611d2a565b92915050565b6000612cd282611d83565b9050919050565b612ce281612cc7565b8114612ced57600080fd5b50565b600081519050612cff81612cd9565b92915050565b600080600080600060a08688031215612d2157612d20611d10565b5b6000612d2f88828901612cb2565b9550506020612d4088828901612cf0565b9450506040612d5188828901612cf0565b9350506060612d6288828901612996565b925050608086015167ffffffffffffffff811115612d8357612d82611d15565b5b612d8f888289016128e8565b9150509295509295909350565b7f496e697469616c697a61626c653a20636f6e7472616374206973206e6f74206960008201527f6e697469616c697a696e67000000000000000000000000000000000000000000602082015250565b6000612df8602b83612125565b9150612e0382612d9c565b604082019050919050565b60006020820190508181036000830152612e2781612deb565b9050919050565b7f4f776e61626c653a2063616c6c6572206973206e6f7420746865206f776e6572600082015250565b6000612e64602083612125565b9150612e6f82612e2e565b602082019050919050565b60006020820190508181036000830152612e9381612e57565b9050919050565b600060e082019050612eaf600083018a6120fc565b612ebc6020830189611db5565b612ec96040830188611db5565b612ed66060830187611db5565b612ee3608083018661210b565b612ef060a083018561210b565b81810360c0830152612f0281846123cf565b905098975050505050505050565b600081519050612f1f81612593565b92915050565b600060208284031215612f3b57612f3a611d10565b5b6000612f4984828501612f10565b91505092915050565b60008160e01b9050919050565b6000612f6a82612f52565b9050919050565b612f82612f7d82611d1a565b612f5f565b82525050565b60008160601b9050919050565b6000612fa082612f88565b9050919050565b6000612fb282612f95565b9050919050565b612fca612fc582611da3565b612fa7565b82525050565b6000612fdc8285612f71565b600482019150612fec8284612fb9565b6014820191508190509392505050565b60006060820190506130116000830186611db5565b61301e602083018561210b565b81810360408301526130308184612160565b9050949350505050565b7f455243313136373a2063726561746532206661696c6564000000000000000000600082015250565b6000613070601783612125565b915061307b8261303a565b602082019050919050565b6000602082019050818103600083015261309f81613063565b905091905056fea2646970667358221220c3fc8790e20c14328b8066eaa4c89381ca47342d42e5ef26f03da6b961061c5f64736f6c63430008110033",
  "linkReferences": {},
  "deployedLinkReferences": {}
}