{
  "_format": "hh-sol-artifact-1",
  "contractName": "TestHashi721Bridge",
  "sourceName": "contracts/test/TestHashi721Bridge.sol",
  "abi": [
    {
      "anonymous": false,
      "inputs": [
        {
          "indexed": true,
          "internalType": "uint32",
          "name": "domainId",
          "type": "uint32"
        },
        {
          "indexed": true,
          "internalType": "address",
          "name": "bridge",
          "type": "address"
        }
      ],
      "name": "BridgeSet",
      "type": "event"
    },
    {
      "anonymous": false,
      "inputs": [
        {
          "indexed": false,
          "internalType": "uint8",
          "name": "version",
          "type": "uint8"
        }
      ],
      "name": "Initialized",
      "type": "event"
    },
    {
      "anonymous": false,
      "inputs": [
        {
          "indexed": true,
          "internalType": "address",
          "name": "previousOwner",
          "type": "address"
        },
        {
          "indexed": true,
          "internalType": "address",
          "name": "newOwner",
          "type": "address"
        }
      ],
      "name": "OwnershipTransferred",
      "type": "event"
    },
    {
      "inputs": [],
      "name": "CONNEXT_AMOUNT_FOR_NONE",
      "outputs": [
        {
          "internalType": "uint256",
          "name": "",
          "type": "uint256"
        }
      ],
      "stateMutability": "view",
      "type": "function"
    },
    {
      "inputs": [],
      "name": "CONNEXT_ASSET_FOR_NONE",
      "outputs": [
        {
          "internalType": "address",
          "name": "",
          "type": "address"
        }
      ],
      "stateMutability": "view",
      "type": "function"
    },
    {
      "inputs": [
        {
          "internalType": "uint32",
          "name": "originalDomainId",
          "type": "uint32"
        },
        {
          "internalType": "address",
          "name": "originalAsset",
          "type": "address"
        },
        {
          "internalType": "address",
          "name": "to",
          "type": "address"
        },
        {
          "internalType": "uint256",
          "name": "tokenId",
          "type": "uint256"
        },
        {
          "internalType": "string",
          "name": "tokenURI",
          "type": "string"
        }
      ],
      "name": "_encodeCallData",
      "outputs": [
        {
          "internalType": "bytes",
          "name": "",
          "type": "bytes"
        }
      ],
      "stateMutability": "pure",
      "type": "function"
    },
    {
      "inputs": [
        {
          "internalType": "uint32",
          "name": "",
          "type": "uint32"
        }
      ],
      "name": "bridges",
      "outputs": [
        {
          "internalType": "address",
          "name": "",
          "type": "address"
        }
      ],
      "stateMutability": "view",
      "type": "function"
    },
    {
      "inputs": [],
      "name": "connext",
      "outputs": [
        {
          "internalType": "address",
          "name": "",
          "type": "address"
        }
      ],
      "stateMutability": "view",
      "type": "function"
    },
    {
      "inputs": [
        {
          "internalType": "address",
          "name": "connext_",
          "type": "address"
        },
        {
          "internalType": "address",
          "name": "wrappedHashi721Implementation_",
          "type": "address"
        }
      ],
      "name": "initialize",
      "outputs": [],
      "stateMutability": "nonpayable",
      "type": "function"
    },
    {
      "inputs": [
        {
          "internalType": "address",
          "name": "",
          "type": "address"
        },
        {
          "internalType": "address",
          "name": "",
          "type": "address"
        },
        {
          "internalType": "uint256",
          "name": "",
          "type": "uint256"
        },
        {
          "internalType": "bytes",
          "name": "",
          "type": "bytes"
        }
      ],
      "name": "onERC721Received",
      "outputs": [
        {
          "internalType": "bytes4",
          "name": "",
          "type": "bytes4"
        }
      ],
      "stateMutability": "nonpayable",
      "type": "function"
    },
    {
      "inputs": [
        {
          "internalType": "address",
          "name": "",
          "type": "address"
        }
      ],
      "name": "originalAssets",
      "outputs": [
        {
          "internalType": "address",
          "name": "",
          "type": "address"
        }
      ],
      "stateMutability": "view",
      "type": "function"
    },
    {
      "inputs": [
        {
          "internalType": "address",
          "name": "",
          "type": "address"
        }
      ],
      "name": "originalDomainIds",
      "outputs": [
        {
          "internalType": "uint32",
          "name": "",
          "type": "uint32"
        }
      ],
      "stateMutability": "view",
      "type": "function"
    },
    {
      "inputs": [],
      "name": "owner",
      "outputs": [
        {
          "internalType": "address",
          "name": "",
          "type": "address"
        }
      ],
      "stateMutability": "view",
      "type": "function"
    },
    {
      "inputs": [],
      "name": "renounceOwnership",
      "outputs": [],
      "stateMutability": "nonpayable",
      "type": "function"
    },
    {
      "inputs": [
        {
          "internalType": "uint32",
          "name": "domainId_",
          "type": "uint32"
        },
        {
          "internalType": "address",
          "name": "bridge",
          "type": "address"
        }
      ],
      "name": "setBridge",
      "outputs": [],
      "stateMutability": "nonpayable",
      "type": "function"
    },
    {
      "inputs": [
        {
          "internalType": "address",
          "name": "_asset",
          "type": "address"
        },
        {
          "internalType": "uint32",
          "name": "_originalDomainId",
          "type": "uint32"
        },
        {
          "internalType": "address",
          "name": "_originalAsset",
          "type": "address"
        }
      ],
      "name": "setForWrapper",
      "outputs": [],
      "stateMutability": "nonpayable",
      "type": "function"
    },
    {
      "inputs": [
        {
          "internalType": "address",
          "name": "asset",
          "type": "address"
        },
        {
          "internalType": "uint32",
          "name": "originalDomainId",
          "type": "uint32"
        },
        {
          "internalType": "address",
          "name": "originalAsset",
          "type": "address"
        }
      ],
      "name": "setOriginal",
      "outputs": [],
      "stateMutability": "nonpayable",
      "type": "function"
    },
    {
      "inputs": [
        {
          "internalType": "bytes",
          "name": "callData",
          "type": "bytes"
        }
      ],
      "name": "testDecodeCallData",
      "outputs": [
        {
          "internalType": "uint32",
          "name": "",
          "type": "uint32"
        },
        {
          "internalType": "address",
          "name": "",
          "type": "address"
        },
        {
          "internalType": "address",
          "name": "",
          "type": "address"
        },
        {
          "internalType": "uint256",
          "name": "",
          "type": "uint256"
        },
        {
          "internalType": "string",
          "name": "",
          "type": "string"
        }
      ],
      "stateMutability": "pure",
      "type": "function"
    },
    {
      "inputs": [
        {
          "internalType": "uint32",
          "name": "originalDomainId",
          "type": "uint32"
        },
        {
          "internalType": "address",
          "name": "originalAsset",
          "type": "address"
        },
        {
          "internalType": "address",
          "name": "to",
          "type": "address"
        },
        {
          "internalType": "uint256",
          "name": "tokenId",
          "type": "uint256"
        },
        {
          "internalType": "string",
          "name": "tokenURI",
          "type": "string"
        }
      ],
      "name": "testEncodeCallData",
      "outputs": [
        {
          "internalType": "bytes",
          "name": "",
          "type": "bytes"
        }
      ],
      "stateMutability": "pure",
      "type": "function"
    },
    {
      "inputs": [
        {
          "internalType": "bytes",
          "name": "callData",
          "type": "bytes"
        }
      ],
      "name": "testXReceive",
      "outputs": [],
      "stateMutability": "nonpayable",
      "type": "function"
    },
    {
      "inputs": [
        {
          "internalType": "address",
          "name": "newOwner",
          "type": "address"
        }
      ],
      "name": "transferOwnership",
      "outputs": [],
      "stateMutability": "nonpayable",
      "type": "function"
    },
    {
      "inputs": [],
      "name": "wrappedHashi721Implementation",
      "outputs": [
        {
          "internalType": "address",
          "name": "",
          "type": "address"
        }
      ],
      "stateMutability": "view",
      "type": "function"
    },
    {
      "inputs": [
        {
          "internalType": "uint32",
          "name": "destination",
          "type": "uint32"
        },
        {
          "internalType": "uint256",
          "name": "relayerFee",
          "type": "uint256"
        },
        {
          "internalType": "uint256",
          "name": "slippage",
          "type": "uint256"
        },
        {
          "internalType": "address",
          "name": "asset",
          "type": "address"
        },
        {
          "internalType": "address",
          "name": "to",
          "type": "address"
        },
        {
          "internalType": "uint256",
          "name": "tokenId",
          "type": "uint256"
        },
        {
          "internalType": "bool",
          "name": "isTokenURIIgnored",
          "type": "bool"
        }
      ],
      "name": "xCall",
      "outputs": [
        {
          "internalType": "bytes32",
          "name": "",
          "type": "bytes32"
        }
      ],
      "stateMutability": "payable",
      "type": "function"
    },
    {
      "inputs": [
        {
          "internalType": "bytes32",
          "name": "transferId",
          "type": "bytes32"
        },
        {
          "internalType": "uint256",
          "name": "amount",
          "type": "uint256"
        },
        {
          "internalType": "address",
          "name": "asset",
          "type": "address"
        },
        {
          "internalType": "address",
          "name": "originSender",
          "type": "address"
        },
        {
          "internalType": "uint32",
          "name": "origin",
          "type": "uint32"
        },
        {
          "internalType": "bytes",
          "name": "callData",
          "type": "bytes"
        }
      ],
      "name": "xReceive",
      "outputs": [
        {
          "internalType": "bytes",
          "name": "",
          "type": "bytes"
        }
      ],
      "stateMutability": "nonpayable",
      "type": "function"
    }
  ],
  "bytecode": "0x608060405234801561001057600080fd5b50611d5a806100206000396000f3fe60806040526004361061016a5760003560e01c8063802ef739116100cb578063c65659161161007f578063f2fde38b11610059578063f2fde38b146104c0578063fd614f41146104e0578063fea007161461023757600080fd5b8063c656591614610460578063dae74dd414610480578063de4b0548146104a057600080fd5b8063a0f0a312116100b0578063a0f0a31214610416578063a4db43f01461042b578063c34f6ec41461044b57600080fd5b8063802ef739146103d75780638da5cb5b146103f857600080fd5b8063485cc95511610122578063544cab9f11610107578063544cab9f1461037557806368b2ba68146103a2578063715018a6146103c257600080fd5b8063485cc9551461030d578063539ee2091461032d57600080fd5b806325013d3c1161015357806325013d3c1461023757806327b8d006146102a65780633ae45528146102d757600080fd5b80630b8931cb1461016f578063150b7a02146101c2575b600080fd5b34801561017b57600080fd5b506101a561018a366004611682565b6097602052600090815260409020546001600160a01b031681565b6040516001600160a01b0390911681526020015b60405180910390f35b3480156101ce57600080fd5b506102066101dd3660046117a1565b7f150b7a0200000000000000000000000000000000000000000000000000000000949350505050565b6040517fffffffff0000000000000000000000000000000000000000000000000000000090911681526020016101b9565b34801561024357600080fd5b506102a461025236600461180d565b6001600160a01b039283166000908152609960209081526040808320805463ffffffff191663ffffffff9690961695909517909455609a90529190912080546001600160a01b03191691909216179055565b005b3480156102b257600080fd5b506102c66102c1366004611858565b610500565b6040516101b99594939291906118e5565b3480156102e357600080fd5b506101a56102f236600461192e565b609a602052600090815260409020546001600160a01b031681565b34801561031957600080fd5b506102a461032836600461194b565b610523565b34801561033957600080fd5b5061036061034836600461192e565b60996020526000908152604090205463ffffffff1681565b60405163ffffffff90911681526020016101b9565b34801561038157600080fd5b50610395610390366004611984565b61066e565b6040516101b99190611a17565b3480156103ae57600080fd5b506102a46103bd366004611a2a565b610687565b3480156103ce57600080fd5b506102a46106ed565b6103ea6103e5366004611a56565b610701565b6040519081526020016101b9565b34801561040457600080fd5b506065546001600160a01b03166101a5565b34801561042257600080fd5b506101a5600081565b34801561043757600080fd5b506102a4610446366004611858565b610bf2565b34801561045757600080fd5b506103ea600081565b34801561046c57600080fd5b5061039561047b366004611984565b610bfe565b34801561048c57600080fd5b50609b546101a5906001600160a01b031681565b3480156104ac57600080fd5b506098546101a5906001600160a01b031681565b3480156104cc57600080fd5b506102a46104db36600461192e565b610c33565b3480156104ec57600080fd5b506103956104fb366004611ad1565b610cc0565b600080600080606061051186610eca565b939a9299509097509550909350915050565b600054610100900460ff16158080156105435750600054600160ff909116105b8061055d5750303b15801561055d575060005460ff166001145b6105d45760405162461bcd60e51b815260206004820152602e60248201527f496e697469616c697a61626c653a20636f6e747261637420697320616c72656160448201527f647920696e697469616c697a656400000000000000000000000000000000000060648201526084015b60405180910390fd5b6000805460ff1916600117905580156105f7576000805461ff0019166101001790555b6105ff610ee6565b61060883610f51565b609b80546001600160a01b0319166001600160a01b0384161790558015610669576000805461ff0019169055604051600181527f7f26b83ff96e1f2b6a682f133852f6798a09c465da95921460cefb38474024989060200160405180910390a15b505050565b606061067d8686868686610bfe565b9695505050505050565b61068f610fcd565b63ffffffff821660008181526097602052604080822080546001600160a01b0319166001600160a01b03861690811790915590519092917fb95f7bd4ed333200a22dcfdd4921bfe48e8abc90a7d14f82334e7946479db83991a35050565b6106f5610fcd565b6106ff6000611027565b565b6040517f6352211e0000000000000000000000000000000000000000000000000000000081526004810183905260009081906001600160a01b03871690636352211e90602401602060405180830381865afa158015610764573d6000803e3d6000fd5b505050506040513d601f19601f820116820180604052508101906107889190611b58565b90506001600160a01b03811633148061082e5750336040517f081812fc000000000000000000000000000000000000000000000000000000008152600481018690526001600160a01b039182169188169063081812fc90602401602060405180830381865afa1580156107ff573d6000803e3d6000fd5b505050506040513d601f19601f820116820180604052508101906108239190611b58565b6001600160a01b0316145b806108cc57506001600160a01b03861663e985e9c582336040517fffffffff0000000000000000000000000000000000000000000000000000000060e085901b1681526001600160a01b03928316600482015291166024820152604401602060405180830381865afa1580156108a8573d6000803e3d6000fd5b505050506040513d601f19601f820116820180604052508101906108cc9190611b75565b61093e5760405162461bcd60e51b815260206004820152602660248201527f48617368693732314272696467653a206d73672073656e64657220697320696e60448201527f76616c696420000000000000000000000000000000000000000000000000000060648201526084016105cb565b6060836109ce576040517fc87b56dd000000000000000000000000000000000000000000000000000000008152600481018690526001600160a01b0388169063c87b56dd90602401600060405180830381865afa1580156109a3573d6000803e3d6000fd5b505050506040513d6000823e601f3d908101601f191682016040526109cb9190810190611bd7565b90505b6001600160a01b038781166000908152609a60205260408120549091829116158015610a1657506001600160a01b03891660009081526099602052604090205463ffffffff16155b15610b1d576040517f23b872dd0000000000000000000000000000000000000000000000000000000081526001600160a01b038581166004830152306024830152604482018990528a16906323b872dd90606401600060405180830381600087803b158015610a8457600080fd5b505af1158015610a98573d6000803e3d6000fd5b50505050609860009054906101000a90046001600160a01b03166001600160a01b031663c2fb26a66040518163ffffffff1660e01b8152600401602060405180830381865afa158015610aef573d6000803e3d6000fd5b505050506040513d601f19601f82011682018060405250810190610b139190611c0c565b9150889050610bc4565b6040517f42966c68000000000000000000000000000000000000000000000000000000008152600481018890526001600160a01b038a16906342966c6890602401600060405180830381600087803b158015610b7857600080fd5b505af1158015610b8c573d6000803e3d6000fd5b5050506001600160a01b03808b16600090815260996020908152604080832054609a9092529091205463ffffffff9091169450169150505b6000610bd383838b8b88610bfe565b9050610be18d8d8d84611079565b9d9c50505050505050505050505050565b610bfb81611173565b50565b60608585858585604051602001610c199594939291906118e5565b604051602081830303815290604052905095945050505050565b610c3b610fcd565b6001600160a01b038116610cb75760405162461bcd60e51b815260206004820152602660248201527f4f776e61626c653a206e6577206f776e657220697320746865207a65726f206160448201527f646472657373000000000000000000000000000000000000000000000000000060648201526084016105cb565b610bfb81611027565b60606001600160a01b03851615610d3f5760405162461bcd60e51b815260206004820152602560248201527f4861736869436f6e6e657874416461707465723a20617373657420697320696e60448201527f76616c696400000000000000000000000000000000000000000000000000000060648201526084016105cb565b8515610d9c5760405162461bcd60e51b815260206004820152602660248201527f4861736869436f6e6e657874416461707465723a20616d6f756e7420697320696044820152651b9d985b1a5960d21b60648201526084016105cb565b63ffffffff83166000908152609760205260409020546001600160a01b039081169085168114610e1d5760405162461bcd60e51b815260206004820152602660248201527f4861736869436f6e6e657874416461707465723a2062726964676520697320696044820152651b9d985b1a5960d21b60648201526084016105cb565b6098546001600160a01b0316336001600160a01b031614610ea65760405162461bcd60e51b815260206004820152602b60248201527f4861736869436f6e6e657874416461707465723a206d73672073656e6465722060448201527f697320696e76616c69642000000000000000000000000000000000000000000060648201526084016105cb565b610eaf83611173565b50506040805160208101909152600081529695505050505050565b6000806000806060858060200190518101906105119190611c25565b600054610100900460ff166106ff5760405162461bcd60e51b815260206004820152602b60248201527f496e697469616c697a61626c653a20636f6e7472616374206973206e6f74206960448201526a6e697469616c697a696e6760a81b60648201526084016105cb565b600054610100900460ff16610fbc5760405162461bcd60e51b815260206004820152602b60248201527f496e697469616c697a61626c653a20636f6e7472616374206973206e6f74206960448201526a6e697469616c697a696e6760a81b60648201526084016105cb565b610fc461146d565b610bfb816114e1565b6065546001600160a01b031633146106ff5760405162461bcd60e51b815260206004820181905260248201527f4f776e61626c653a2063616c6c6572206973206e6f7420746865206f776e657260448201526064016105cb565b606580546001600160a01b038381166001600160a01b0319831681179093556040519116919082907f8be0079c531659141344cd1fd0a4f28419497f9722a3daafe3b4186f6b6457e090600090a35050565b63ffffffff84166000908152609760205260408120546001600160a01b0316806110f45760405162461bcd60e51b815260206004820152602660248201527f4861736869436f6e6e657874416461707465723a2062726964676520697320696044820152651b9d985b1a5960d21b60648201526084016105cb565b6098546001600160a01b0316638aac16ba878360003360008a8a6040518863ffffffff1660e01b81526004016111309796959493929190611c9a565b6020604051808303816000875af115801561114f573d6000803e3d6000fd5b505050506040513d601f19601f8201168201806040525081019061067d9190611c0c565b600080600080600061118486610eca565b94509450945094509450609860009054906101000a90046001600160a01b03166001600160a01b031663c2fb26a66040518163ffffffff1660e01b8152600401602060405180830381865afa1580156111e1573d6000803e3d6000fd5b505050506040513d601f19601f820116820180604052508101906112059190611c0c565b63ffffffff168563ffffffff16146113df576040805160e087901b7fffffffff0000000000000000000000000000000000000000000000000000000016602080830191909152606087901b6bffffffffffffffffffffffff191660248301528251601881840301815260389092019092528051910120609b54600090611294906001600160a01b03168361156e565b508590506001600160a01b0381163b61135d57609b546112bd906001600160a01b0316836115d3565b50806001600160a01b0316638129fc1c6040518163ffffffff1660e01b8152600401600060405180830381600087803b1580156112f957600080fd5b505af115801561130d573d6000803e3d6000fd5b505050506001600160a01b038181166000908152609960209081526040808320805463ffffffff191663ffffffff8d16179055609a909152902080546001600160a01b0319169188169190911790555b6040517fd3fc98640000000000000000000000000000000000000000000000000000000081526001600160a01b0382169063d3fc9864906113a690889088908890600401611cf3565b600060405180830381600087803b1580156113c057600080fd5b505af11580156113d4573d6000803e3d6000fd5b505050505050611465565b6040517f42842e0e0000000000000000000000000000000000000000000000000000000081523060048201526001600160a01b038481166024830152604482018490528591908216906342842e0e90606401600060405180830381600087803b15801561144b57600080fd5b505af115801561145f573d6000803e3d6000fd5b50505050505b505050505050565b600054610100900460ff166114d85760405162461bcd60e51b815260206004820152602b60248201527f496e697469616c697a61626c653a20636f6e7472616374206973206e6f74206960448201526a6e697469616c697a696e6760a81b60648201526084016105cb565b6106ff33611027565b600054610100900460ff1661154c5760405162461bcd60e51b815260206004820152602b60248201527f496e697469616c697a61626c653a20636f6e7472616374206973206e6f74206960448201526a6e697469616c697a696e6760a81b60648201526084016105cb565b609880546001600160a01b0319166001600160a01b0392909216919091179055565b6040513060388201526f5af43d82803e903d91602b57fd5bf3ff602482015260148101839052733d602d80600a3d3981f3363d3d373d3d3d363d738152605881018290526037600c820120607882015260556043909101206000905b90505b92915050565b6000763d602d80600a3d3981f3363d3d373d3d3d363d730000008360601b60e81c176000526e5af43d82803e903d91602b57fd5bf38360781b1760205281603760096000f590506001600160a01b0381166115cd5760405162461bcd60e51b815260206004820152601760248201527f455243313136373a2063726561746532206661696c656400000000000000000060448201526064016105cb565b63ffffffff81168114610bfb57600080fd5b60006020828403121561169457600080fd5b813561169f81611670565b9392505050565b6001600160a01b0381168114610bfb57600080fd5b7f4e487b7100000000000000000000000000000000000000000000000000000000600052604160045260246000fd5b604051601f8201601f1916810167ffffffffffffffff81118282101715611713576117136116bb565b604052919050565b600067ffffffffffffffff821115611735576117356116bb565b50601f01601f191660200190565b60006117566117518461171b565b6116ea565b905082815283838301111561176a57600080fd5b828260208301376000602084830101529392505050565b600082601f83011261179257600080fd5b6115ca83833560208501611743565b600080600080608085870312156117b757600080fd5b84356117c2816116a6565b935060208501356117d2816116a6565b925060408501359150606085013567ffffffffffffffff8111156117f557600080fd5b61180187828801611781565b91505092959194509250565b60008060006060848603121561182257600080fd5b833561182d816116a6565b9250602084013561183d81611670565b9150604084013561184d816116a6565b809150509250925092565b60006020828403121561186a57600080fd5b813567ffffffffffffffff81111561188157600080fd5b61188d84828501611781565b949350505050565b60005b838110156118b0578181015183820152602001611898565b50506000910152565b600081518084526118d1816020860160208601611895565b601f01601f19169290920160200192915050565b63ffffffff8616815260006001600160a01b03808716602084015280861660408401525083606083015260a0608083015261192360a08301846118b9565b979650505050505050565b60006020828403121561194057600080fd5b813561169f816116a6565b6000806040838503121561195e57600080fd5b8235611969816116a6565b91506020830135611979816116a6565b809150509250929050565b600080600080600060a0868803121561199c57600080fd5b85356119a781611670565b945060208601356119b7816116a6565b935060408601356119c7816116a6565b925060608601359150608086013567ffffffffffffffff8111156119ea57600080fd5b8601601f810188136119fb57600080fd5b611a0a88823560208401611743565b9150509295509295909350565b6020815260006115ca60208301846118b9565b60008060408385031215611a3d57600080fd5b823561196981611670565b8015158114610bfb57600080fd5b600080600080600080600060e0888a031215611a7157600080fd5b8735611a7c81611670565b965060208801359550604088013594506060880135611a9a816116a6565b93506080880135611aaa816116a6565b925060a0880135915060c0880135611ac181611a48565b8091505092959891949750929550565b60008060008060008060c08789031215611aea57600080fd5b86359550602087013594506040870135611b03816116a6565b93506060870135611b13816116a6565b92506080870135611b2381611670565b915060a087013567ffffffffffffffff811115611b3f57600080fd5b611b4b89828a01611781565b9150509295509295509295565b600060208284031215611b6a57600080fd5b815161169f816116a6565b600060208284031215611b8757600080fd5b815161169f81611a48565b600082601f830112611ba357600080fd5b8151611bb16117518261171b565b818152846020838601011115611bc657600080fd5b61188d826020830160208701611895565b600060208284031215611be957600080fd5b815167ffffffffffffffff811115611c0057600080fd5b61188d84828501611b92565b600060208284031215611c1e57600080fd5b5051919050565b600080600080600060a08688031215611c3d57600080fd5b8551611c4881611670565b6020870151909550611c59816116a6565b6040870151909450611c6a816116a6565b60608701516080880151919450925067ffffffffffffffff811115611c8e57600080fd5b611a0a88828901611b92565b63ffffffff8816815260006001600160a01b03808916602084015280881660408401528087166060840152508460808301528360a083015260e060c0830152611ce660e08301846118b9565b9998505050505050505050565b6001600160a01b0384168152826020820152606060408201526000611d1b60608301846118b9565b9594505050505056fea2646970667358221220b7ec83ea4a51af36985810059141da8ef48f14fb79af4c73c6dc46ff170a3cfe64736f6c63430008110033",
  "linkReferences": {},
  "deployedLinkReferences": {}
}