{
  "_format": "hh-sol-artifact-1",
  "contractName": "OptimismGasHelper",
  "sourceName": "contracts/OptimismGasHelper.sol",
  "abi": [
    {
      "inputs": [
        {
          "internalType": "uint256",
          "name": "_l1BaseFee",
          "type": "uint256"
        }
      ],
      "stateMutability": "nonpayable",
      "type": "constructor"
    },
    {
      "inputs": [],
      "name": "decimals",
      "outputs": [
        {
          "internalType": "uint256",
          "name": "",
          "type": "uint256"
        }
      ],
      "stateMutability": "view",
      "type": "function"
    },
    {
      "inputs": [],
      "name": "gasPrice",
      "outputs": [
        {
          "internalType": "uint256",
          "name": "",
          "type": "uint256"
        }
      ],
      "stateMutability": "view",
      "type": "function"
    },
    {
      "inputs": [
        {
          "internalType": "bytes",
          "name": "_data",
          "type": "bytes"
        }
      ],
      "name": "getL1Fee",
      "outputs": [
        {
          "internalType": "uint256",
          "name": "",
          "type": "uint256"
        }
      ],
      "stateMutability": "view",
      "type": "function"
    },
    {
      "inputs": [
        {
          "internalType": "bytes",
          "name": "_data",
          "type": "bytes"
        }
      ],
      "name": "getL1GasUsed",
      "outputs": [
        {
          "internalType": "uint256",
          "name": "",
          "type": "uint256"
        }
      ],
      "stateMutability": "view",
      "type": "function"
    },
    {
      "inputs": [],
      "name": "l1BaseFee",
      "outputs": [
        {
          "internalType": "uint256",
          "name": "",
          "type": "uint256"
        }
      ],
      "stateMutability": "view",
      "type": "function"
    },
    {
      "inputs": [],
      "name": "maxUint256",
      "outputs": [
        {
          "internalType": "uint256",
          "name": "",
          "type": "uint256"
        }
      ],
      "stateMutability": "view",
      "type": "function"
    },
    {
      "inputs": [],
      "name": "overhead",
      "outputs": [
        {
          "internalType": "uint256",
          "name": "",
          "type": "uint256"
        }
      ],
      "stateMutability": "view",
      "type": "function"
    },
    {
      "inputs": [],
      "name": "scalar",
      "outputs": [
        {
          "internalType": "uint256",
          "name": "",
          "type": "uint256"
        }
      ],
      "stateMutability": "view",
      "type": "function"
    }
  ],
  "bytecode": "0x6080604052620f4240600055610834600255620f4240600355600660045534801561002957600080fd5b50604051610951380380610951833981810160405281019061004b91906100c6565b8060018190555060017fffffffffffffffffffffffffffffffffffffffffffffffffffffffffffffffff61007f9190610122565b60058190555050610156565b600080fd5b6000819050919050565b6100a381610090565b81146100ae57600080fd5b50565b6000815190506100c08161009a565b92915050565b6000602082840312156100dc576100db61008b565b5b60006100ea848285016100b1565b91505092915050565b7f4e487b7100000000000000000000000000000000000000000000000000000000600052601160045260246000fd5b600061012d82610090565b915061013883610090565b92508282039050818111156101505761014f6100f3565b5b92915050565b6107ec806101656000396000f3fe608060405234801561001057600080fd5b50600436106100885760003560e01c8063b93308291161005b578063b933082914610117578063de26c4a114610135578063f45e65d814610165578063fe173b971461018357610088565b80630c18c1621461008d578063313ce567146100ab57806349948e0e146100c9578063519b4bd3146100f9575b600080fd5b6100956101a1565b6040516100a291906102fe565b60405180910390f35b6100b36101a7565b6040516100c091906102fe565b60405180910390f35b6100e360048036038101906100de9190610473565b6101ad565b6040516100f091906102fe565b60405180910390f35b61010161020f565b60405161010e91906102fe565b60405180910390f35b61011f610215565b60405161012c91906102fe565b60405180910390f35b61014f600480360381019061014a9190610473565b61021b565b60405161015c91906102fe565b60405180910390f35b61016d6102d9565b60405161017a91906102fe565b60405180910390f35b61018b6102df565b60405161019891906102fe565b60405180910390f35b60025481565b60045481565b6000806101b98361021b565b90506000600154826101cb91906104eb565b90506000600454600a6101de9190610660565b90506000600354836101f091906104eb565b90506000828261020091906106da565b90508095505050505050919050565b60015481565b60055481565b6000806000905060005b83518110156102af57600060f81b8482815181106102465761024561070b565b5b602001015160f81c60f81b7effffffffffffffffffffffffffffffffffffffffffffffffffffffffffffff19160361028c57600482610285919061073a565b915061029c565b601082610299919061073a565b91505b80806102a79061076e565b915050610225565b506000600254826102c0919061073a565b9050610440816102d0919061073a565b92505050919050565b60035481565b60005481565b6000819050919050565b6102f8816102e5565b82525050565b600060208201905061031360008301846102ef565b92915050565b6000604051905090565b600080fd5b600080fd5b600080fd5b600080fd5b6000601f19601f8301169050919050565b7f4e487b7100000000000000000000000000000000000000000000000000000000600052604160045260246000fd5b61038082610337565b810181811067ffffffffffffffff8211171561039f5761039e610348565b5b80604052505050565b60006103b2610319565b90506103be8282610377565b919050565b600067ffffffffffffffff8211156103de576103dd610348565b5b6103e782610337565b9050602081019050919050565b82818337600083830152505050565b6000610416610411846103c3565b6103a8565b90508281526020810184848401111561043257610431610332565b5b61043d8482856103f4565b509392505050565b600082601f83011261045a5761045961032d565b5b813561046a848260208601610403565b91505092915050565b60006020828403121561048957610488610323565b5b600082013567ffffffffffffffff8111156104a7576104a6610328565b5b6104b384828501610445565b91505092915050565b7f4e487b7100000000000000000000000000000000000000000000000000000000600052601160045260246000fd5b60006104f6826102e5565b9150610501836102e5565b925082820261050f816102e5565b91508282048414831517610526576105256104bc565b5b5092915050565b60008160011c9050919050565b6000808291508390505b6001851115610584578086048111156105605761055f6104bc565b5b600185161561056f5780820291505b808102905061057d8561052d565b9450610544565b94509492505050565b60008261059d5760019050610659565b816105ab5760009050610659565b81600181146105c157600281146105cb576105fa565b6001915050610659565b60ff8411156105dd576105dc6104bc565b5b8360020a9150848211156105f4576105f36104bc565b5b50610659565b5060208310610133831016604e8410600b841016171561062f5782820a90508381111561062a576106296104bc565b5b610659565b61063c848484600161053a565b92509050818404811115610653576106526104bc565b5b81810290505b9392505050565b600061066b826102e5565b9150610676836102e5565b92506106a37fffffffffffffffffffffffffffffffffffffffffffffffffffffffffffffffff848461058d565b905092915050565b7f4e487b7100000000000000000000000000000000000000000000000000000000600052601260045260246000fd5b60006106e5826102e5565b91506106f0836102e5565b925082610700576106ff6106ab565b5b828204905092915050565b7f4e487b7100000000000000000000000000000000000000000000000000000000600052603260045260246000fd5b6000610745826102e5565b9150610750836102e5565b9250828201905080821115610768576107676104bc565b5b92915050565b6000610779826102e5565b91507fffffffffffffffffffffffffffffffffffffffffffffffffffffffffffffffff82036107ab576107aa6104bc565b5b60018201905091905056fea2646970667358221220e22a3efd4733db044bce4d6b3a2f4da7f5406ca18881860d131c770093138dd364736f6c63430008120033",
  "linkReferences": {},
  "deployedLinkReferences": {}
}