{
  "_format": "hh-sol-artifact-1",
  "contractName": "MerkleProofHelper",
  "sourceName": "contracts/test/MerkleProofHelper.sol",
  "abi": [
    {
      "inputs": [
        {
          "components": [
            {
              "internalType": "uint256",
              "name": "tokenId",
              "type": "uint256"
            },
            {
              "internalType": "address",
              "name": "maker",
              "type": "address"
            },
            {
              "internalType": "address",
              "name": "receiver",
              "type": "address"
            },
            {
              "internalType": "address",
              "name": "localErc721Contract",
              "type": "address"
            },
            {
              "internalType": "address",
              "name": "remoteErc721Contract",
              "type": "address"
            }
          ],
          "internalType": "struct LibLocalTransaction.LocalTransaction[]",
          "name": "_transactions",
          "type": "tuple[]"
        }
      ],
      "name": "calculateHashes",
      "outputs": [],
      "stateMutability": "nonpayable",
      "type": "function"
    },
    {
      "inputs": [],
      "name": "getRoot",
      "outputs": [
        {
          "internalType": "bytes32",
          "name": "",
          "type": "bytes32"
        }
      ],
      "stateMutability": "view",
      "type": "function"
    },
    {
      "inputs": [
        {
          "internalType": "uint256",
          "name": "",
          "type": "uint256"
        }
      ],
      "name": "hashes",
      "outputs": [
        {
          "internalType": "bytes32",
          "name": "",
          "type": "bytes32"
        }
      ],
      "stateMutability": "view",
      "type": "function"
    }
  ],
  "bytecode": "0x608060405234801561001057600080fd5b50610913806100206000396000f3fe608060405234801561001057600080fd5b50600436106100415760003560e01c8063501895ae146100465780635ca1e16514610076578063f80f6cd214610094575b600080fd5b610060600480360381019061005b91906103bf565b6100b0565b60405161006d9190610405565b60405180910390f35b61007e6100d4565b60405161008b9190610405565b60405180910390f35b6100ae60048036038101906100a99190610668565b61010a565b005b600081815481106100c057600080fd5b906000526020600020016000915090505481565b60008060016000805490506100e991906106e0565b815481106100fa576100f9610714565b5b9060005260206000200154905090565b6000806101179190610337565b60005b815181101561022357600082828151811061013857610137610714565b5b60200260200101516000015183838151811061015757610156610714565b5b60200260200101516020015184848151811061017657610175610714565b5b60200260200101516040015185858151811061019557610194610714565b5b6020026020010151606001518686815181106101b4576101b3610714565b5b6020026020010151608001516040516020016101d4959493929190610761565b604051602081830303815290604052805190602001209080600181540180825580915050600190039060005260206000200160009091909190915055808061021b906107b4565b91505061011a565b5060008151905060005b60008211156103325760005b60018361024691906106e0565b81101561030f57600080828461025c91906107fc565b8154811061026d5761026c610714565b5b906000526020600020015460006001848661028891906107fc565b61029291906107fc565b815481106102a3576102a2610714565b5b90600052602060002001546040516020016102bf929190610851565b60405160208183030381529060405280519060200120908060018154018082558091505060019003906000526020600020016000909190919091505560028161030891906107fc565b9050610239565b50818161031c91906107fc565b905060028261032b91906108ac565b915061022d565b505050565b50805460008255906000526020600020908101906103559190610358565b50565b5b80821115610371576000816000905550600101610359565b5090565b6000604051905090565b600080fd5b600080fd5b6000819050919050565b61039c81610389565b81146103a757600080fd5b50565b6000813590506103b981610393565b92915050565b6000602082840312156103d5576103d461037f565b5b60006103e3848285016103aa565b91505092915050565b6000819050919050565b6103ff816103ec565b82525050565b600060208201905061041a60008301846103f6565b92915050565b600080fd5b6000601f19601f8301169050919050565b7f4e487b7100000000000000000000000000000000000000000000000000000000600052604160045260246000fd5b61046e82610425565b810181811067ffffffffffffffff8211171561048d5761048c610436565b5b80604052505050565b60006104a0610375565b90506104ac8282610465565b919050565b600067ffffffffffffffff8211156104cc576104cb610436565b5b602082029050602081019050919050565b600080fd5b600080fd5b600073ffffffffffffffffffffffffffffffffffffffff82169050919050565b6000610512826104e7565b9050919050565b61052281610507565b811461052d57600080fd5b50565b60008135905061053f81610519565b92915050565b600060a0828403121561055b5761055a6104e2565b5b61056560a0610496565b90506000610575848285016103aa565b600083015250602061058984828501610530565b602083015250604061059d84828501610530565b60408301525060606105b184828501610530565b60608301525060806105c584828501610530565b60808301525092915050565b60006105e46105df846104b1565b610496565b90508083825260208201905060a08402830185811115610607576106066104dd565b5b835b81811015610630578061061c8882610545565b84526020840193505060a081019050610609565b5050509392505050565b600082601f83011261064f5761064e610420565b5b813561065f8482602086016105d1565b91505092915050565b60006020828403121561067e5761067d61037f565b5b600082013567ffffffffffffffff81111561069c5761069b610384565b5b6106a88482850161063a565b91505092915050565b7f4e487b7100000000000000000000000000000000000000000000000000000000600052601160045260246000fd5b60006106eb82610389565b91506106f683610389565b925082820390508181111561070e5761070d6106b1565b5b92915050565b7f4e487b7100000000000000000000000000000000000000000000000000000000600052603260045260246000fd5b61074c81610389565b82525050565b61075b81610507565b82525050565b600060a0820190506107766000830188610743565b6107836020830187610752565b6107906040830186610752565b61079d6060830185610752565b6107aa6080830184610752565b9695505050505050565b60006107bf82610389565b91507fffffffffffffffffffffffffffffffffffffffffffffffffffffffffffffffff82036107f1576107f06106b1565b5b600182019050919050565b600061080782610389565b915061081283610389565b925082820190508082111561082a576108296106b1565b5b92915050565b6000819050919050565b61084b610846826103ec565b610830565b82525050565b600061085d828561083a565b60208201915061086d828461083a565b6020820191508190509392505050565b7f4e487b7100000000000000000000000000000000000000000000000000000000600052601260045260246000fd5b60006108b782610389565b91506108c283610389565b9250826108d2576108d161087d565b5b82820490509291505056fea2646970667358221220c538cd8a8645215d6038898e680dd6f21c56e931b12fb7f0db88769b7ec0c47064736f6c63430008120033",
  "linkReferences": {},
  "deployedLinkReferences": {}
}