{
  "_format": "hh-sol-artifact-1",
  "contractName": "SimpleGatewayDstSpokeBrdige",
  "sourceName": "contracts/test/SimpleGatewayDstSpokeBrdige.sol",
  "abi": [
    {
      "inputs": [
        {
          "internalType": "address",
          "name": "_hub",
          "type": "address"
        },
        {
          "internalType": "uint256",
          "name": "_transferPerBlock",
          "type": "uint256"
        },
        {
          "internalType": "uint256",
          "name": "_transFee",
          "type": "uint256"
        }
      ],
      "stateMutability": "nonpayable",
      "type": "constructor"
    },
    {
      "anonymous": false,
      "inputs": [
        {
          "indexed": false,
          "internalType": "address",
          "name": "relayer",
          "type": "address"
        },
        {
          "indexed": false,
          "internalType": "uint256",
          "name": "bidId",
          "type": "uint256"
        }
      ],
      "name": "BidBought",
      "type": "event"
    },
    {
      "anonymous": false,
      "inputs": [
        {
          "indexed": false,
          "internalType": "address",
          "name": "challenger",
          "type": "address"
        },
        {
          "indexed": false,
          "internalType": "address",
          "name": "relayer",
          "type": "address"
        },
        {
          "indexed": false,
          "internalType": "uint256",
          "name": "bidId",
          "type": "uint256"
        }
      ],
      "name": "BidChallenged",
      "type": "event"
    },
    {
      "anonymous": false,
      "inputs": [],
      "name": "BidCreated",
      "type": "event"
    },
    {
      "anonymous": false,
      "inputs": [
        {
          "indexed": false,
          "internalType": "address",
          "name": "contractAddress",
          "type": "address"
        },
        {
          "indexed": false,
          "internalType": "uint256",
          "name": "bidId",
          "type": "uint256"
        },
        {
          "indexed": false,
          "internalType": "uint256",
          "name": "id",
          "type": "uint256"
        },
        {
          "indexed": false,
          "internalType": "address",
          "name": "owner",
          "type": "address"
        }
      ],
      "name": "NFTUnwrapped",
      "type": "event"
    },
    {
      "anonymous": false,
      "inputs": [
        {
          "indexed": true,
          "internalType": "address",
          "name": "previousOwner",
          "type": "address"
        },
        {
          "indexed": true,
          "internalType": "address",
          "name": "newOwner",
          "type": "address"
        }
      ],
      "name": "OwnershipTransferred",
      "type": "event"
    },
    {
      "anonymous": false,
      "inputs": [],
      "name": "ProofSent",
      "type": "event"
    },
    {
      "inputs": [],
      "name": "CHALLENGE_AMOUNT",
      "outputs": [
        {
          "internalType": "uint256",
          "name": "",
          "type": "uint256"
        }
      ],
      "stateMutability": "view",
      "type": "function"
    },
    {
      "inputs": [],
      "name": "HUB",
      "outputs": [
        {
          "internalType": "address",
          "name": "",
          "type": "address"
        }
      ],
      "stateMutability": "view",
      "type": "function"
    },
    {
      "inputs": [],
      "name": "STAKE_AMOUNT",
      "outputs": [
        {
          "internalType": "uint256",
          "name": "",
          "type": "uint256"
        }
      ],
      "stateMutability": "view",
      "type": "function"
    },
    {
      "inputs": [],
      "name": "TIME_LIMIT_OF_UNDEPOSIT",
      "outputs": [
        {
          "internalType": "uint256",
          "name": "",
          "type": "uint256"
        }
      ],
      "stateMutability": "view",
      "type": "function"
    },
    {
      "inputs": [],
      "name": "TRANS_FEE",
      "outputs": [
        {
          "internalType": "uint256",
          "name": "",
          "type": "uint256"
        }
      ],
      "stateMutability": "view",
      "type": "function"
    },
    {
      "inputs": [],
      "name": "TRANS_PER_BLOCK",
      "outputs": [
        {
          "internalType": "uint256",
          "name": "",
          "type": "uint256"
        }
      ],
      "stateMutability": "view",
      "type": "function"
    },
    {
      "inputs": [
        {
          "internalType": "bytes32",
          "name": "_transactionRoot",
          "type": "bytes32"
        }
      ],
      "name": "addIncomingBlock",
      "outputs": [],
      "stateMutability": "nonpayable",
      "type": "function"
    },
    {
      "inputs": [
        {
          "internalType": "address",
          "name": "_newReceiver",
          "type": "address"
        },
        {
          "internalType": "uint256",
          "name": "_incomingBlockId",
          "type": "uint256"
        },
        {
          "components": [
            {
              "internalType": "uint256",
              "name": "tokenId",
              "type": "uint256"
            },
            {
              "internalType": "address",
              "name": "maker",
              "type": "address"
            },
            {
              "internalType": "address",
              "name": "receiver",
              "type": "address"
            },
            {
              "internalType": "address",
              "name": "localErc721Contract",
              "type": "address"
            },
            {
              "internalType": "address",
              "name": "remoteErc721Contract",
              "type": "address"
            }
          ],
          "internalType": "struct LibLocalTransaction.LocalTransaction",
          "name": "_transaction",
          "type": "tuple"
        },
        {
          "internalType": "bytes32[]",
          "name": "_proof",
          "type": "bytes32[]"
        },
        {
          "internalType": "uint256",
          "name": "_index",
          "type": "uint256"
        }
      ],
      "name": "addNewTransactionToBlock",
      "outputs": [],
      "stateMutability": "nonpayable",
      "type": "function"
    },
    {
      "inputs": [
        {
          "components": [
            {
              "internalType": "uint256",
              "name": "tokenId",
              "type": "uint256"
            },
            {
              "internalType": "address",
              "name": "maker",
              "type": "address"
            },
            {
              "internalType": "address",
              "name": "receiver",
              "type": "address"
            },
            {
              "internalType": "address",
              "name": "localErc721Contract",
              "type": "address"
            },
            {
              "internalType": "address",
              "name": "remoteErc721Contract",
              "type": "address"
            }
          ],
          "internalType": "struct LibLocalTransaction.LocalTransaction[]",
          "name": "_transactions",
          "type": "tuple[]"
        }
      ],
      "name": "calculateHashes",
      "outputs": [],
      "stateMutability": "nonpayable",
      "type": "function"
    },
    {
      "inputs": [
        {
          "internalType": "uint256",
          "name": "blockId",
          "type": "uint256"
        }
      ],
      "name": "calculateTransactionHashes",
      "outputs": [],
      "stateMutability": "nonpayable",
      "type": "function"
    },
    {
      "inputs": [
        {
          "internalType": "uint256",
          "name": "_height",
          "type": "uint256"
        }
      ],
      "name": "challengeIncomingBlock",
      "outputs": [],
      "stateMutability": "payable",
      "type": "function"
    },
    {
      "inputs": [
        {
          "internalType": "uint256",
          "name": "",
          "type": "uint256"
        }
      ],
      "name": "challengedIncomingBlocks",
      "outputs": [
        {
          "internalType": "address",
          "name": "challenger",
          "type": "address"
        },
        {
          "internalType": "enum SpokeBridge.ChallengeStatus",
          "name": "status",
          "type": "uint8"
        }
      ],
      "stateMutability": "view",
      "type": "function"
    },
    {
      "inputs": [],
      "name": "claimChallengeReward",
      "outputs": [],
      "stateMutability": "nonpayable",
      "type": "function"
    },
    {
      "inputs": [],
      "name": "claimDeposite",
      "outputs": [],
      "stateMutability": "nonpayable",
      "type": "function"
    },
    {
      "inputs": [
        {
          "internalType": "uint256",
          "name": "_incomingBlockId",
          "type": "uint256"
        },
        {
          "components": [
            {
              "internalType": "uint256",
              "name": "tokenId",
              "type": "uint256"
            },
            {
              "internalType": "address",
              "name": "maker",
              "type": "address"
            },
            {
              "internalType": "address",
              "name": "receiver",
              "type": "address"
            },
            {
              "internalType": "address",
              "name": "localErc721Contract",
              "type": "address"
            },
            {
              "internalType": "address",
              "name": "remoteErc721Contract",
              "type": "address"
            }
          ],
          "internalType": "struct LibLocalTransaction.LocalTransaction",
          "name": "_transaction",
          "type": "tuple"
        },
        {
          "internalType": "bytes32[]",
          "name": "_proof",
          "type": "bytes32[]"
        },
        {
          "internalType": "uint256",
          "name": "_index",
          "type": "uint256"
        }
      ],
      "name": "claimNFT",
      "outputs": [],
      "stateMutability": "payable",
      "type": "function"
    },
    {
      "inputs": [],
      "name": "deposite",
      "outputs": [],
      "stateMutability": "payable",
      "type": "function"
    },
    {
      "inputs": [],
      "name": "firstMaliciousBlockHeight",
      "outputs": [
        {
          "internalType": "uint256",
          "name": "",
          "type": "uint256"
        }
      ],
      "stateMutability": "view",
      "type": "function"
    },
    {
      "inputs": [
        {
          "internalType": "uint256",
          "name": "_blockNum",
          "type": "uint256"
        },
        {
          "internalType": "uint256",
          "name": "_txIdx",
          "type": "uint256"
        }
      ],
      "name": "getLocalTransaction",
      "outputs": [
        {
          "components": [
            {
              "internalType": "uint256",
              "name": "tokenId",
              "type": "uint256"
            },
            {
              "internalType": "address",
              "name": "maker",
              "type": "address"
            },
            {
              "internalType": "address",
              "name": "receiver",
              "type": "address"
            },
            {
              "internalType": "address",
              "name": "localErc721Contract",
              "type": "address"
            },
            {
              "internalType": "address",
              "name": "remoteErc721Contract",
              "type": "address"
            }
          ],
          "internalType": "struct LibLocalTransaction.LocalTransaction",
          "name": "",
          "type": "tuple"
        }
      ],
      "stateMutability": "view",
      "type": "function"
    },
    {
      "inputs": [],
      "name": "getRoot",
      "outputs": [
        {
          "internalType": "bytes32",
          "name": "",
          "type": "bytes32"
        }
      ],
      "stateMutability": "view",
      "type": "function"
    },
    {
      "inputs": [
        {
          "internalType": "uint256",
          "name": "",
          "type": "uint256"
        }
      ],
      "name": "hashes",
      "outputs": [
        {
          "internalType": "bytes32",
          "name": "",
          "type": "bytes32"
        }
      ],
      "stateMutability": "view",
      "type": "function"
    },
    {
      "inputs": [
        {
          "internalType": "uint256",
          "name": "",
          "type": "uint256"
        }
      ],
      "name": "incomingBlocks",
      "outputs": [
        {
          "internalType": "bytes32",
          "name": "transactionRoot",
          "type": "bytes32"
        },
        {
          "internalType": "uint256",
          "name": "timestampOfIncoming",
          "type": "uint256"
        },
        {
          "internalType": "enum SpokeBridge.IncomingBlockStatus",
          "name": "status",
          "type": "uint8"
        },
        {
          "internalType": "address",
          "name": "relayer",
          "type": "address"
        }
      ],
      "stateMutability": "view",
      "type": "function"
    },
    {
      "inputs": [
        {
          "internalType": "address",
          "name": "",
          "type": "address"
        }
      ],
      "name": "incomingChallengeRewards",
      "outputs": [
        {
          "internalType": "uint256",
          "name": "amount",
          "type": "uint256"
        },
        {
          "internalType": "bool",
          "name": "isClaimed",
          "type": "bool"
        }
      ],
      "stateMutability": "view",
      "type": "function"
    },
    {
      "inputs": [],
      "name": "localBlockId",
      "outputs": [
        {
          "internalType": "uint256",
          "name": "_value",
          "type": "uint256"
        }
      ],
      "stateMutability": "view",
      "type": "function"
    },
    {
      "inputs": [],
      "name": "numberOfChallenges",
      "outputs": [
        {
          "internalType": "uint256",
          "name": "_value",
          "type": "uint256"
        }
      ],
      "stateMutability": "view",
      "type": "function"
    },
    {
      "inputs": [
        {
          "internalType": "address",
          "name": "",
          "type": "address"
        },
        {
          "internalType": "address",
          "name": "",
          "type": "address"
        },
        {
          "internalType": "uint256",
          "name": "",
          "type": "uint256"
        },
        {
          "internalType": "bytes",
          "name": "",
          "type": "bytes"
        }
      ],
      "name": "onERC721Received",
      "outputs": [
        {
          "internalType": "bytes4",
          "name": "",
          "type": "bytes4"
        }
      ],
      "stateMutability": "nonpayable",
      "type": "function"
    },
    {
      "inputs": [],
      "name": "owner",
      "outputs": [
        {
          "internalType": "address",
          "name": "",
          "type": "address"
        }
      ],
      "stateMutability": "view",
      "type": "function"
    },
    {
      "inputs": [
        {
          "internalType": "bytes",
          "name": "_root",
          "type": "bytes"
        }
      ],
      "name": "receiveProof",
      "outputs": [],
      "stateMutability": "nonpayable",
      "type": "function"
    },
    {
      "inputs": [
        {
          "internalType": "address",
          "name": "",
          "type": "address"
        }
      ],
      "name": "relayers",
      "outputs": [
        {
          "internalType": "enum SpokeBridge.RelayerStatus",
          "name": "status",
          "type": "uint8"
        },
        {
          "internalType": "uint256",
          "name": "dateOfUndeposited",
          "type": "uint256"
        },
        {
          "internalType": "uint256",
          "name": "stakedAmount",
          "type": "uint256"
        },
        {
          "components": [
            {
              "internalType": "uint256",
              "name": "_value",
              "type": "uint256"
            }
          ],
          "internalType": "struct Counters.Counter",
          "name": "againstChallenges",
          "type": "tuple"
        }
      ],
      "stateMutability": "view",
      "type": "function"
    },
    {
      "inputs": [],
      "name": "renounceOwnership",
      "outputs": [],
      "stateMutability": "nonpayable",
      "type": "function"
    },
    {
      "inputs": [],
      "name": "restore",
      "outputs": [],
      "stateMutability": "nonpayable",
      "type": "function"
    },
    {
      "inputs": [
        {
          "internalType": "uint256",
          "name": "_height",
          "type": "uint256"
        }
      ],
      "name": "sendProof",
      "outputs": [],
      "stateMutability": "nonpayable",
      "type": "function"
    },
    {
      "inputs": [],
      "name": "status",
      "outputs": [
        {
          "internalType": "enum SpokeBridge.BridgeStatus",
          "name": "",
          "type": "uint8"
        }
      ],
      "stateMutability": "view",
      "type": "function"
    },
    {
      "inputs": [
        {
          "internalType": "address",
          "name": "newOwner",
          "type": "address"
        }
      ],
      "name": "transferOwnership",
      "outputs": [],
      "stateMutability": "nonpayable",
      "type": "function"
    },
    {
      "inputs": [],
      "name": "undeposite",
      "outputs": [],
      "stateMutability": "nonpayable",
      "type": "function"
    }
  ],
  "bytecode": "0x6101406040523480156200001257600080fd5b506040516200645438038062006454833981810160405281019062000038919062000250565b8282828282826200005e62000052620000df60201b60201c565b620000e760201b60201c565b8273ffffffffffffffffffffffffffffffffffffffff166101208173ffffffffffffffffffffffffffffffffffffffff16815250506801158e460913d0000060808181525050678ac7230489e8000060a081815250506202a30060c081815250508160e08181525050806101008181525050505050505050505050620002ac565b600033905090565b60008060009054906101000a900473ffffffffffffffffffffffffffffffffffffffff169050816000806101000a81548173ffffffffffffffffffffffffffffffffffffffff021916908373ffffffffffffffffffffffffffffffffffffffff1602179055508173ffffffffffffffffffffffffffffffffffffffff168173ffffffffffffffffffffffffffffffffffffffff167f8be0079c531659141344cd1fd0a4f28419497f9722a3daafe3b4186f6b6457e060405160405180910390a35050565b600080fd5b600073ffffffffffffffffffffffffffffffffffffffff82169050919050565b6000620001dd82620001b0565b9050919050565b620001ef81620001d0565b8114620001fb57600080fd5b50565b6000815190506200020f81620001e4565b92915050565b6000819050919050565b6200022a8162000215565b81146200023657600080fd5b50565b6000815190506200024a816200021f565b92915050565b6000806000606084860312156200026c576200026b620001ab565b5b60006200027c86828701620001fe565b93505060206200028f8682870162000239565b9250506040620002a28682870162000239565b9150509250925092565b60805160a05160c05160e051610100516101205161610b6200034960003960008181610a3701528181612ad00152613b8e01526000818161159d01528181611818015261209f01526000818161140b015261252d015260008181611a6801526126d001526000818161112f0152818161315b015261388f015260008181611104015281816127a601528181612c2701526138b3015261610b6000f3fe6080604052600436106101f95760003560e01c80636ae90c7d1161010d578063ae110875116100a0578063db77f2b91161006f578063db77f2b9146106c5578063f2fde38b146106e1578063f80f6cd21461070a578063f8840cf714610733578063faf5625f1461075e576101f9565b8063ae1108751461061b578063b24c49fa14610646578063b8b7f51414610683578063be7226ad146106ae576101f9565b80638da5cb5b116100dc5780638da5cb5b1461057d578063a4c52b86146105a8578063a50ec326146105d3578063a6762f40146105dd576101f9565b80636ae90c7d146104fd578063715018a6146105265780637be6f7a71461053d57806387cf416e14610554576101f9565b80633d95d1ed116101905780635300f8411161015f5780635300f8411461042757806359cbe82c146104675780635b9eb5c31461047e5780635ca1e165146104a75780636a89c63a146104d2576101f9565b80633d95d1ed14610378578063440de89c14610394578063501895ae146103bf578063529e720a146103fc576101f9565b806324bd801b116101cc57806324bd801b146102cf5780632fda332e146102f8578063342652371461030f57806335cc073b1461033a576101f9565b8063012cf18c146101fe578063150b7a02146102275780631efa009e14610264578063200d2ed2146102a4575b600080fd5b34801561020a57600080fd5b506102256004803603810190610220919061410e565b610789565b005b34801561023357600080fd5b5061024e600480360381019061024991906142df565b6109b1565b60405161025b919061439d565b60405180910390f35b34801561027057600080fd5b5061028b6004803603810190610286919061410e565b6109c5565b60405161029b9493929190614466565b60405180910390f35b3480156102b057600080fd5b506102b9610a22565b6040516102c691906144f3565b60405180910390f35b3480156102db57600080fd5b506102f660048036038101906102f1919061450e565b610a35565b005b34801561030457600080fd5b5061030d61128f565b005b34801561031b57600080fd5b50610324611409565b6040516103319190614557565b60405180910390f35b34801561034657600080fd5b50610361600480360381019061035c9190614572565b61142d565b60405161036f9291906145ba565b60405180910390f35b610392600480360381019061038d9190614667565b61145e565b005b3480156103a057600080fd5b506103a9611a3c565b6040516103b69190614557565b60405180910390f35b3480156103cb57600080fd5b506103e660048036038101906103e1919061410e565b611a42565b6040516103f391906146f0565b60405180910390f35b34801561040857600080fd5b50610411611a66565b60405161041e9190614557565b60405180910390f35b34801561043357600080fd5b5061044e60048036038101906104499190614572565b611a8a565b60405161045e949392919061477e565b60405180910390f35b34801561047357600080fd5b5061047c611adb565b005b34801561048a57600080fd5b506104a560048036038101906104a091906147ef565b611e24565b005b3480156104b357600080fd5b506104bc612066565b6040516104c991906146f0565b60405180910390f35b3480156104de57600080fd5b506104e761209d565b6040516104f49190614557565b60405180910390f35b34801561050957600080fd5b50610524600480360381019061051f919061481c565b6120c1565b005b34801561053257600080fd5b5061053b612587565b005b34801561054957600080fd5b5061055261259b565b005b34801561056057600080fd5b5061057b6004803603810190610576919061410e565b6128cc565b005b34801561058957600080fd5b50610592612aa5565b60405161059f91906148b8565b60405180910390f35b3480156105b457600080fd5b506105bd612ace565b6040516105ca91906148b8565b60405180910390f35b6105db612af2565b005b3480156105e957600080fd5b5061060460048036038101906105ff919061410e565b612d48565b60405161061292919061491b565b60405180910390f35b34801561062757600080fd5b50610630612d99565b60405161063d9190614557565b60405180910390f35b34801561065257600080fd5b5061066d60048036038101906106689190614944565b612da5565b60405161067a91906149fb565b60405180910390f35b34801561068f57600080fd5b50610698612f58565b6040516106a59190614557565b60405180910390f35b3480156106ba57600080fd5b506106c3612f64565b005b6106df60048036038101906106da919061410e565b613159565b005b3480156106ed57600080fd5b5061070860048036038101906107039190614572565b6135dc565b005b34801561071657600080fd5b50610731600480360381019061072c9190614b6a565b61365f565b005b34801561073f57600080fd5b5061074861388d565b6040516107559190614557565b60405180910390f35b34801561076a57600080fd5b506107736138b1565b6040516107809190614557565b60405180910390f35b600061079560036138d5565b82106109765761097160026000848152602001908152602001600020600001805480602002602001604051908101604052809291908181526020016000905b8282101561096857838290600052602060002090600502016040518060a0016040529081600082015481526020016001820160009054906101000a900473ffffffffffffffffffffffffffffffffffffffff1673ffffffffffffffffffffffffffffffffffffffff1673ffffffffffffffffffffffffffffffffffffffff1681526020016002820160009054906101000a900473ffffffffffffffffffffffffffffffffffffffff1673ffffffffffffffffffffffffffffffffffffffff1673ffffffffffffffffffffffffffffffffffffffff1681526020016003820160009054906101000a900473ffffffffffffffffffffffffffffffffffffffff1673ffffffffffffffffffffffffffffffffffffffff1673ffffffffffffffffffffffffffffffffffffffff1681526020016004820160009054906101000a900473ffffffffffffffffffffffffffffffffffffffff1673ffffffffffffffffffffffffffffffffffffffff1673ffffffffffffffffffffffffffffffffffffffff1681525050815260200190600101906107d4565b505050506138e3565b61097b565b6000801b5b905060008282604051602001610992929190614bb3565b60405160208183030381529060405290506109ac81613b8c565b505050565b600063150b7a0260e01b9050949350505050565b60046020528060005260406000206000915090508060000154908060010154908060020160009054906101000a900460ff16908060020160019054906101000a900473ffffffffffffffffffffffffffffffffffffffff16905084565b600060149054906101000a900460ff1681565b7f000000000000000000000000000000000000000000000000000000000000000073ffffffffffffffffffffffffffffffffffffffff16610a74613c1a565b73ffffffffffffffffffffffffffffffffffffffff1614610aca576040517f08c379a0000000000000000000000000000000000000000000000000000000008152600401610ac190614c5f565b60405180910390fd5b60006002811115610ade57610add6143e0565b5b600060149054906101000a900460ff166002811115610b0057610aff6143e0565b5b03610b40576040517f08c379a0000000000000000000000000000000000000000000000000000000008152600401610b3790614cf1565b60405180910390fd5b60008082806020019051810190610b579190614d3b565b91509150600060046000848152602001908152602001600020905060026003811115610b8657610b856143e0565b5b8160020160009054906101000a900460ff166003811115610baa57610ba96143e0565b5b14610bea576040517f08c379a0000000000000000000000000000000000000000000000000000000008152600401610be190614ded565b60405180910390fd5b81816000015403610f025760018160020160006101000a81548160ff02191690836003811115610c1d57610c1c6143e0565b5b0217905550610c90600160008360020160019054906101000a900473ffffffffffffffffffffffffffffffffffffffff1673ffffffffffffffffffffffffffffffffffffffff1673ffffffffffffffffffffffffffffffffffffffff168152602001908152602001600020600301613c29565b6000610d00600160008460020160019054906101000a900473ffffffffffffffffffffffffffffffffffffffff1673ffffffffffffffffffffffffffffffffffffffff1673ffffffffffffffffffffffffffffffffffffffff1681526020019081526020016000206003016138d5565b148015610da4575060036004811115610d1c57610d1b6143e0565b5b600160008360020160019054906101000a900473ffffffffffffffffffffffffffffffffffffffff1673ffffffffffffffffffffffffffffffffffffffff1673ffffffffffffffffffffffffffffffffffffffff16815260200190815260200160002060000160009054906101000a900460ff166004811115610da257610da16143e0565b5b145b15610e385760018060008360020160019054906101000a900473ffffffffffffffffffffffffffffffffffffffff1673ffffffffffffffffffffffffffffffffffffffff1673ffffffffffffffffffffffffffffffffffffffff16815260200190815260200160002060000160006101000a81548160ff02191690836004811115610e3257610e316143e0565b5b02179055505b60006006600085815260200190815260200160002060000160146101000a81548160ff02191690836003811115610e7257610e716143e0565b5b0217905550610e816008613c29565b6000610e8d60086138d5565b148015610ecd575060016002811115610ea957610ea86143e0565b5b600060149054906101000a900460ff166002811115610ecb57610eca6143e0565b5b145b15610efd5760008060146101000a81548160ff02191690836002811115610ef757610ef66143e0565b5b02179055505b611289565b60038160020160006101000a81548160ff02191690836003811115610f2a57610f296143e0565b5b0217905550610f9d600160008360020160019054906101000a900473ffffffffffffffffffffffffffffffffffffffff1673ffffffffffffffffffffffffffffffffffffffff1673ffffffffffffffffffffffffffffffffffffffff168152602001908152602001600020600301613c29565b6004600160008360020160019054906101000a900473ffffffffffffffffffffffffffffffffffffffff1673ffffffffffffffffffffffffffffffffffffffff1673ffffffffffffffffffffffffffffffffffffffff16815260200190815260200160002060000160006101000a81548160ff02191690836004811115611027576110266143e0565b5b0217905550600160028111156110405761103f6143e0565b5b600060149054906101000a900460ff166002811115611062576110616143e0565b5b148061106f575082600954115b1561107c57826009819055505b6110866008613c29565b6002600060146101000a81548160ff021916908360028111156110ac576110ab6143e0565b5b0217905550600160038111156110c5576110c46143e0565b5b6006600085815260200190815260200160002060000160149054906101000a900460ff1660038111156110fb576110fa6143e0565b5b036112495760047f000000000000000000000000000000000000000000000000000000000000000061112d9190614e6b565b7f00000000000000000000000000000000000000000000000000000000000000006111589190614e9c565b600760006006600087815260200190815260200160002060000160009054906101000a900473ffffffffffffffffffffffffffffffffffffffff1673ffffffffffffffffffffffffffffffffffffffff1673ffffffffffffffffffffffffffffffffffffffff16815260200190815260200160002060000160008282546111df9190614e9c565b925050819055506000600760006111f4613c85565b73ffffffffffffffffffffffffffffffffffffffff1673ffffffffffffffffffffffffffffffffffffffff16815260200190815260200160002060010160006101000a81548160ff0219169083151502179055505b60026006600085815260200190815260200160002060000160146101000a81548160ff02191690836003811115611283576112826143e0565b5b02179055505b50505050565b6002808111156112a2576112a16143e0565b5b600060149054906101000a900460ff1660028111156112c4576112c36143e0565b5b14611304576040517f08c379a00000000000000000000000000000000000000000000000000000000081526004016112fb90614f42565b60405180910390fd5b60008060146101000a81548160ff02191690836002811115611329576113286143e0565b5b0217905550600060095490505b6005548110156113d15760006004600083815260200190815260200160002060020160006101000a81548160ff0219169083600381111561137a576113796143e0565b5b021790555060006006600083815260200190815260200160002060000160146101000a81548160ff021916908360038111156113b9576113b86143e0565b5b021790555080806113c990614f62565b915050611336565b506000600954146113f65760016009546113eb9190614faa565b6005819055506113ff565b60006005819055505b6000600981905550565b7f000000000000000000000000000000000000000000000000000000000000000081565b60076020528060005260406000206000915090508060000154908060010160009054906101000a900460ff16905082565b60006002811115611472576114716143e0565b5b600060149054906101000a900460ff166002811115611494576114936143e0565b5b146114d4576040517f08c379a00000000000000000000000000000000000000000000000000000000081526004016114cb90615050565b60405180910390fd5b60006004600087815260200190815260200160002060405180608001604052908160008201548152602001600182015481526020016002820160009054906101000a900460ff16600381111561152d5761152c6143e0565b5b600381111561153f5761153e6143e0565b5b81526020016002820160019054906101000a900473ffffffffffffffffffffffffffffffffffffffff1673ffffffffffffffffffffffffffffffffffffffff1673ffffffffffffffffffffffffffffffffffffffff168152505090507f000000000000000000000000000000000000000000000000000000000000000034146115fd576040517f08c379a00000000000000000000000000000000000000000000000000000000081526004016115f4906150e2565b60405180910390fd5b60016003811115611611576116106143e0565b5b81604001516003811115611628576116276143e0565b5b14611668576040517f08c379a000000000000000000000000000000000000000000000000000000000815260040161165f90615174565b60405180910390fd5b6001600481111561167c5761167b6143e0565b5b60016000836060015173ffffffffffffffffffffffffffffffffffffffff1673ffffffffffffffffffffffffffffffffffffffff16815260200190815260200160002060000160009054906101000a900460ff1660048111156116e2576116e16143e0565b5b14611722576040517f08c379a000000000000000000000000000000000000000000000000000000000815260040161171990615206565b60405180910390fd5b611733848483600001518886613c8d565b611772576040517f08c379a000000000000000000000000000000000000000000000000000000000815260040161176990615298565b60405180910390fd5b61177a613c85565b73ffffffffffffffffffffffffffffffffffffffff168560400160208101906117a39190614572565b73ffffffffffffffffffffffffffffffffffffffff16146117f9576040517f08c379a00000000000000000000000000000000000000000000000000000000081526004016117f09061532a565b60405180910390fd5b6000816060015173ffffffffffffffffffffffffffffffffffffffff167f00000000000000000000000000000000000000000000000000000000000000006040516118439061537b565b60006040518083038185875af1925050503d8060008114611880576040519150601f19603f3d011682016040523d82523d6000602084013e611885565b606091505b50509050806118c9576040517f08c379a00000000000000000000000000000000000000000000000000000000081526004016118c0906153dc565b60405180910390fd5b600073ffffffffffffffffffffffffffffffffffffffff166119018760800160208101906118f79190614572565b8860000135613ddc565b73ffffffffffffffffffffffffffffffffffffffff161461199e5785608001602081019061192f9190614572565b73ffffffffffffffffffffffffffffffffffffffff166342966c6887600001356040518263ffffffff1660e01b815260040161196b9190614557565b600060405180830381600087803b15801561198557600080fd5b505af1158015611999573d6000803e3d6000fd5b505050505b8560800160208101906119b19190614572565b73ffffffffffffffffffffffffffffffffffffffff166340c10f198760400160208101906119df9190614572565b88600001356040518363ffffffff1660e01b8152600401611a019291906153fc565b600060405180830381600087803b158015611a1b57600080fd5b505af1158015611a2f573d6000803e3d6000fd5b5050505050505050505050565b60095481565b600a8181548110611a5257600080fd5b906000526020600020016000915090505481565b7f000000000000000000000000000000000000000000000000000000000000000081565b60016020528060005260406000206000915090508060000160009054906101000a900460ff169080600101549080600201549080600301604051806020016040529081600082015481525050905084565b60006002811115611aef57611aee6143e0565b5b600060149054906101000a900460ff166002811115611b1157611b106143e0565b5b14611b51576040517f08c379a0000000000000000000000000000000000000000000000000000000008152600401611b4890615050565b60405180910390fd5b600060076000611b5f613c85565b73ffffffffffffffffffffffffffffffffffffffff1673ffffffffffffffffffffffffffffffffffffffff1681526020019081526020016000206000015403611bdd576040517f08c379a0000000000000000000000000000000000000000000000000000000008152600401611bd490615471565b60405180910390fd5b60076000611be9613c85565b73ffffffffffffffffffffffffffffffffffffffff1673ffffffffffffffffffffffffffffffffffffffff16815260200190815260200160002060010160009054906101000a900460ff1615611c74576040517f08c379a0000000000000000000000000000000000000000000000000000000008152600401611c6b90615503565b60405180910390fd5b600160076000611c82613c85565b73ffffffffffffffffffffffffffffffffffffffff1673ffffffffffffffffffffffffffffffffffffffff16815260200190815260200160002060010160006101000a81548160ff0219169083151502179055506000611ce0613c85565b73ffffffffffffffffffffffffffffffffffffffff1660076000611d02613c85565b73ffffffffffffffffffffffffffffffffffffffff1673ffffffffffffffffffffffffffffffffffffffff16815260200190815260200160002060000154604051611d4c9061537b565b60006040518083038185875af1925050503d8060008114611d89576040519150601f19603f3d011682016040523d82523d6000602084013e611d8e565b606091505b5050905080611dd2576040517f08c379a0000000000000000000000000000000000000000000000000000000008152600401611dc9906153dc565b60405180910390fd5b600060076000611de0613c85565b73ffffffffffffffffffffffffffffffffffffffff1673ffffffffffffffffffffffffffffffffffffffff1681526020019081526020016000206000018190555050565b60006002811115611e3857611e376143e0565b5b600060149054906101000a900460ff166002811115611e5a57611e596143e0565b5b14611e9a576040517f08c379a0000000000000000000000000000000000000000000000000000000008152600401611e9190615050565b60405180910390fd5b60016000611ea6613c85565b73ffffffffffffffffffffffffffffffffffffffff1673ffffffffffffffffffffffffffffffffffffffff16815260200190815260200160002060000160009054906101000a900460ff166004811115611f0357611f026143e0565b5b60016004811115611f1757611f166143e0565b5b14611f57576040517f08c379a0000000000000000000000000000000000000000000000000000000008152600401611f4e90615595565b60405180910390fd5b604051806080016040528082815260200142815260200160016003811115611f8257611f816143e0565b5b8152602001611f8f613c85565b73ffffffffffffffffffffffffffffffffffffffff16815250600460006005548152602001908152602001600020600082015181600001556020820151816001015560408201518160020160006101000a81548160ff02191690836003811115611ffc57611ffb6143e0565b5b021790555060608201518160020160016101000a81548173ffffffffffffffffffffffffffffffffffffffff021916908373ffffffffffffffffffffffffffffffffffffffff1602179055509050506005600081548092919061205e90614f62565b919050555050565b6000600a6001600a8054905061207c9190614faa565b8154811061208d5761208c6155b5565b5b9060005260206000200154905090565b7f000000000000000000000000000000000000000000000000000000000000000081565b6120e4838360046000898152602001908152602001600020600001548785613c8d565b612123576040517f08c379a000000000000000000000000000000000000000000000000000000000815260040161211a90615656565b60405180910390fd5b61212b613c85565b73ffffffffffffffffffffffffffffffffffffffff168460800160208101906121549190614572565b73ffffffffffffffffffffffffffffffffffffffff16636352211e86600001356040518263ffffffff1660e01b81526004016121909190614557565b602060405180830381865afa1580156121ad573d6000803e3d6000fd5b505050506040513d601f19601f820116820180604052508101906121d1919061568b565b73ffffffffffffffffffffffffffffffffffffffff1614612227576040517f08c379a000000000000000000000000000000000000000000000000000000000815260040161221e9061572a565b60405180910390fd5b42613840600460008881526020019081526020016000206001015461224c9190614e9c565b1061228c576040517f08c379a0000000000000000000000000000000000000000000000000000000008152600401612283906157bc565b60405180910390fd5b83608001602081019061229f9190614572565b73ffffffffffffffffffffffffffffffffffffffff166342966c6885600001356040518263ffffffff1660e01b81526004016122db9190614557565b600060405180830381600087803b1580156122f557600080fd5b505af1158015612309573d6000803e3d6000fd5b505050506002600061231b60036138d5565b81526020019081526020016000206000016040518060a0016040528086600001358152602001612349613c85565b73ffffffffffffffffffffffffffffffffffffffff1681526020018873ffffffffffffffffffffffffffffffffffffffff1681526020018660600160208101906123939190614572565b73ffffffffffffffffffffffffffffffffffffffff1681526020018660800160208101906123c19190614572565b73ffffffffffffffffffffffffffffffffffffffff1681525090806001815401808255809150506001900390600052602060002090600502016000909190919091506000820151816000015560208201518160010160006101000a81548173ffffffffffffffffffffffffffffffffffffffff021916908373ffffffffffffffffffffffffffffffffffffffff16021790555060408201518160020160006101000a81548173ffffffffffffffffffffffffffffffffffffffff021916908373ffffffffffffffffffffffffffffffffffffffff16021790555060608201518160030160006101000a81548173ffffffffffffffffffffffffffffffffffffffff021916908373ffffffffffffffffffffffffffffffffffffffff16021790555060808201518160040160006101000a81548173ffffffffffffffffffffffffffffffffffffffff021916908373ffffffffffffffffffffffffffffffffffffffff16021790555050507f00000000000000000000000000000000000000000000000000000000000000006002600061255a60036138d5565b8152602001908152602001600020600001805490500361257f5761257e6003613ea7565b5b505050505050565b61258f613ebd565b6125996000613f3b565b565b600060028111156125af576125ae6143e0565b5b600060149054906101000a900460ff1660028111156125d1576125d06143e0565b5b14612611576040517f08c379a000000000000000000000000000000000000000000000000000000000815260040161260890615050565b60405180910390fd5b6001600061261d613c85565b73ffffffffffffffffffffffffffffffffffffffff1673ffffffffffffffffffffffffffffffffffffffff16815260200190815260200160002060000160009054906101000a900460ff16600481111561267a576126796143e0565b5b6002600481111561268e5761268d6143e0565b5b146126ce576040517f08c379a00000000000000000000000000000000000000000000000000000000081526004016126c59061584e565b60405180910390fd5b7f0000000000000000000000000000000000000000000000000000000000000000600160006126fb613c85565b73ffffffffffffffffffffffffffffffffffffffff1673ffffffffffffffffffffffffffffffffffffffff168152602001908152602001600020600101546127439190614e9c565b4211612784576040517f08c379a000000000000000000000000000000000000000000000000000000000815260040161277b906158e0565b60405180910390fd5b600061278e613c85565b73ffffffffffffffffffffffffffffffffffffffff167f00000000000000000000000000000000000000000000000000000000000000006040516127d19061537b565b60006040518083038185875af1925050503d806000811461280e576040519150601f19603f3d011682016040523d82523d6000602084013e612813565b606091505b5050905080612857576040517f08c379a000000000000000000000000000000000000000000000000000000000815260040161284e906153dc565b60405180910390fd5b600060016000612865613c85565b73ffffffffffffffffffffffffffffffffffffffff1673ffffffffffffffffffffffffffffffffffffffff16815260200190815260200160002060000160006101000a81548160ff021916908360048111156128c4576128c36143e0565b5b021790555050565b612aa260026000838152602001908152602001600020600001805480602002602001604051908101604052809291908181526020016000905b82821015612a9957838290600052602060002090600502016040518060a0016040529081600082015481526020016001820160009054906101000a900473ffffffffffffffffffffffffffffffffffffffff1673ffffffffffffffffffffffffffffffffffffffff1673ffffffffffffffffffffffffffffffffffffffff1681526020016002820160009054906101000a900473ffffffffffffffffffffffffffffffffffffffff1673ffffffffffffffffffffffffffffffffffffffff1673ffffffffffffffffffffffffffffffffffffffff1681526020016003820160009054906101000a900473ffffffffffffffffffffffffffffffffffffffff1673ffffffffffffffffffffffffffffffffffffffff1673ffffffffffffffffffffffffffffffffffffffff1681526020016004820160009054906101000a900473ffffffffffffffffffffffffffffffffffffffff1673ffffffffffffffffffffffffffffffffffffffff1673ffffffffffffffffffffffffffffffffffffffff168152505081526020019060010190612905565b5050505061365f565b50565b60008060009054906101000a900473ffffffffffffffffffffffffffffffffffffffff16905090565b7f000000000000000000000000000000000000000000000000000000000000000081565b60006002811115612b0657612b056143e0565b5b600060149054906101000a900460ff166002811115612b2857612b276143e0565b5b14612b68576040517f08c379a0000000000000000000000000000000000000000000000000000000008152600401612b5f90615050565b60405180910390fd5b60016000612b74613c85565b73ffffffffffffffffffffffffffffffffffffffff1673ffffffffffffffffffffffffffffffffffffffff16815260200190815260200160002060000160009054906101000a900460ff166004811115612bd157612bd06143e0565b5b60006004811115612be557612be46143e0565b5b14612c25576040517f08c379a0000000000000000000000000000000000000000000000000000000008152600401612c1c90615972565b60405180910390fd5b7f00000000000000000000000000000000000000000000000000000000000000003414612c87576040517f08c379a0000000000000000000000000000000000000000000000000000000008152600401612c7e90615a04565b60405180910390fd5b6001806000612c94613c85565b73ffffffffffffffffffffffffffffffffffffffff1673ffffffffffffffffffffffffffffffffffffffff16815260200190815260200160002060000160006101000a81548160ff02191690836004811115612cf357612cf26143e0565b5b02179055503460016000612d05613c85565b73ffffffffffffffffffffffffffffffffffffffff1673ffffffffffffffffffffffffffffffffffffffff16815260200190815260200160002060020181905550565b60066020528060005260406000206000915090508060000160009054906101000a900473ffffffffffffffffffffffffffffffffffffffff16908060000160149054906101000a900460ff16905082565b60088060000154905081565b612dad613fff565b600260008481526020019081526020016000206000018281548110612dd557612dd46155b5565b5b90600052602060002090600502016040518060a0016040529081600082015481526020016001820160009054906101000a900473ffffffffffffffffffffffffffffffffffffffff1673ffffffffffffffffffffffffffffffffffffffff1673ffffffffffffffffffffffffffffffffffffffff1681526020016002820160009054906101000a900473ffffffffffffffffffffffffffffffffffffffff1673ffffffffffffffffffffffffffffffffffffffff1673ffffffffffffffffffffffffffffffffffffffff1681526020016003820160009054906101000a900473ffffffffffffffffffffffffffffffffffffffff1673ffffffffffffffffffffffffffffffffffffffff1673ffffffffffffffffffffffffffffffffffffffff1681526020016004820160009054906101000a900473ffffffffffffffffffffffffffffffffffffffff1673ffffffffffffffffffffffffffffffffffffffff1673ffffffffffffffffffffffffffffffffffffffff1681525050905092915050565b60038060000154905081565b60006002811115612f7857612f776143e0565b5b600060149054906101000a900460ff166002811115612f9a57612f996143e0565b5b14612fda576040517f08c379a0000000000000000000000000000000000000000000000000000000008152600401612fd190615050565b60405180910390fd5b60016000612fe6613c85565b73ffffffffffffffffffffffffffffffffffffffff1673ffffffffffffffffffffffffffffffffffffffff16815260200190815260200160002060000160009054906101000a900460ff166004811115613043576130426143e0565b5b60016004811115613057576130566143e0565b5b14613097576040517f08c379a000000000000000000000000000000000000000000000000000000000815260040161308e90615595565b60405180910390fd5b6002600160006130a5613c85565b73ffffffffffffffffffffffffffffffffffffffff1673ffffffffffffffffffffffffffffffffffffffff16815260200190815260200160002060000160006101000a81548160ff02191690836004811115613104576131036143e0565b5b02179055504260016000613116613c85565b73ffffffffffffffffffffffffffffffffffffffff1673ffffffffffffffffffffffffffffffffffffffff16815260200190815260200160002060010181905550565b7f000000000000000000000000000000000000000000000000000000000000000034146131bb576040517f08c379a00000000000000000000000000000000000000000000000000000000081526004016131b290615a96565b60405180910390fd5b600160038111156131cf576131ce6143e0565b5b6004600083815260200190815260200160002060020160009054906101000a900460ff166003811115613205576132046143e0565b5b14613245576040517f08c379a000000000000000000000000000000000000000000000000000000000815260040161323c90615b28565b60405180910390fd5b42613840600460008481526020019081526020016000206001015461326a9190614e9c565b116132aa576040517f08c379a00000000000000000000000000000000000000000000000000000000081526004016132a190615bba565b60405180910390fd5b600060038111156132be576132bd6143e0565b5b6006600083815260200190815260200160002060000160149054906101000a900460ff1660038111156132f4576132f36143e0565b5b14613334576040517f08c379a000000000000000000000000000000000000000000000000000000000815260040161332b90615c4c565b60405180910390fd5b600280811115613347576133466143e0565b5b600060149054906101000a900460ff166002811115613369576133686143e0565b5b036133a9576040517f08c379a00000000000000000000000000000000000000000000000000000000081526004016133a090615cde565b60405180910390fd5b6001600060146101000a81548160ff021916908360028111156133cf576133ce6143e0565b5b02179055506133de6008613ea7565b60026004600083815260200190815260200160002060020160006101000a81548160ff02191690836003811115613418576134176143e0565b5b0217905550613425613c85565b6006600083815260200190815260200160002060000160006101000a81548173ffffffffffffffffffffffffffffffffffffffff021916908373ffffffffffffffffffffffffffffffffffffffff16021790555060016006600083815260200190815260200160002060000160146101000a81548160ff021916908360038111156134b3576134b26143e0565b5b0217905550613538600160006004600085815260200190815260200160002060020160019054906101000a900473ffffffffffffffffffffffffffffffffffffffff1673ffffffffffffffffffffffffffffffffffffffff1673ffffffffffffffffffffffffffffffffffffffff168152602001908152602001600020600301613ea7565b6003600160006004600085815260200190815260200160002060020160019054906101000a900473ffffffffffffffffffffffffffffffffffffffff1673ffffffffffffffffffffffffffffffffffffffff1673ffffffffffffffffffffffffffffffffffffffff16815260200190815260200160002060000160006101000a81548160ff021916908360048111156135d4576135d36143e0565b5b021790555050565b6135e4613ebd565b600073ffffffffffffffffffffffffffffffffffffffff168173ffffffffffffffffffffffffffffffffffffffff1603613653576040517f08c379a000000000000000000000000000000000000000000000000000000000815260040161364a90615d70565b60405180910390fd5b61365c81613f3b565b50565b600a600061366d9190614086565b60005b815181101561377957600a82828151811061368e5761368d6155b5565b5b6020026020010151600001518383815181106136ad576136ac6155b5565b5b6020026020010151602001518484815181106136cc576136cb6155b5565b5b6020026020010151604001518585815181106136eb576136ea6155b5565b5b60200260200101516060015186868151811061370a576137096155b5565b5b60200260200101516080015160405160200161372a959493929190615d90565b604051602081830303815290604052805190602001209080600181540180825580915050600190039060005260206000200160009091909190915055808061377190614f62565b915050613670565b5060008151905060005b60008211156138885760005b60018361379c9190614faa565b81101561386557600a8082846137b29190614e9c565b815481106137c3576137c26155b5565b5b9060005260206000200154600a600184866137de9190614e9c565b6137e89190614e9c565b815481106137f9576137f86155b5565b5b9060005260206000200154604051602001613815929190615e04565b60405160208183030381529060405280519060200120908060018154018082558091505060019003906000526020600020016000909190919091505560028161385e9190614e9c565b905061378f565b5081816138729190614e9c565b90506002826138819190614e6b565b9150613783565b505050565b7f000000000000000000000000000000000000000000000000000000000000000081565b7f000000000000000000000000000000000000000000000000000000000000000081565b600081600001549050919050565b600080825167ffffffffffffffff811115613901576139006141b4565b5b60405190808252806020026020018201604052801561392f5781602001602082028036833780820191505090505b5090506000805b8451811015613a4857848181518110613952576139516155b5565b5b602002602001015160000151858281518110613971576139706155b5565b5b6020026020010151602001518683815181106139905761398f6155b5565b5b6020026020010151604001518784815181106139af576139ae6155b5565b5b6020026020010151606001518885815181106139ce576139cd6155b5565b5b6020026020010151608001516040516020016139ee959493929190615d90565b60405160208183030381529060405280519060200120838380613a1090615e40565b945063ffffffff1681518110613a2957613a286155b5565b5b6020026020010181815250508080613a4090614f62565b915050613936565b5060008451905060005b6000821115613b595760005b600183613a6b9190614faa565b811015613b3657848183613a7f9190614e9c565b81518110613a9057613a8f6155b5565b5b60200260200101518560018385613aa79190614e9c565b613ab19190614e9c565b81518110613ac257613ac16155b5565b5b6020026020010151604051602001613adb929190615e04565b60405160208183030381529060405280519060200120858580613afd90615e40565b965063ffffffff1681518110613b1657613b156155b5565b5b602002602001018181525050600281613b2f9190614e9c565b9050613a5e565b508181613b439190614e9c565b9050600282613b529190614e6b565b9150613a52565b8360018551613b689190614faa565b81518110613b7957613b786155b5565b5b6020026020010151945050505050919050565b7f000000000000000000000000000000000000000000000000000000000000000073ffffffffffffffffffffffffffffffffffffffff16634ff746f6826040518263ffffffff1660e01b8152600401613be59190615eeb565b600060405180830381600087803b158015613bff57600080fd5b505af1158015613c13573d6000803e3d6000fd5b5050505050565b6000613c24613c85565b905090565b60008160000154905060008111613c75576040517f08c379a0000000000000000000000000000000000000000000000000000000008152600401613c6c90615f59565b60405180910390fd5b6001810382600001819055505050565b600033905090565b6000808360000135846020016020810190613ca89190614572565b856040016020810190613cbb9190614572565b866060016020810190613cce9190614572565b876080016020810190613ce19190614572565b604051602001613cf5959493929190615d90565b60405160208183030381529060405280519060200120905060005b87879050811015613dcc576000888883818110613d3057613d2f6155b5565b5b9050602002013590506000600286613d489190615f79565b03613d7d578281604051602001613d60929190615e04565b604051602081830303815290604052805190602001209250613da9565b8083604051602001613d90929190615e04565b6040516020818303038152906040528051906020012092505b600285613db69190614e6b565b9450508080613dc490614f62565b915050613d10565b5084811491505095945050505050565b60008273ffffffffffffffffffffffffffffffffffffffff16636352211e836040518263ffffffff1660e01b8152600401613e179190614557565b602060405180830381865afa925050508015613e5157506040513d601f19601f82011682018060405250810190613e4e919061568b565b60015b613e9357613e5d615fb7565b806308c379a003613e825750613e71615fd9565b80613e7c5750613e84565b50613e8e565b505b3d6000803e3d6000fd5b613e9c565b80915050613ea1565b600090505b92915050565b6001816000016000828254019250508190555050565b613ec5613c85565b73ffffffffffffffffffffffffffffffffffffffff16613ee3612aa5565b73ffffffffffffffffffffffffffffffffffffffff1614613f39576040517f08c379a0000000000000000000000000000000000000000000000000000000008152600401613f30906160b5565b60405180910390fd5b565b60008060009054906101000a900473ffffffffffffffffffffffffffffffffffffffff169050816000806101000a81548173ffffffffffffffffffffffffffffffffffffffff021916908373ffffffffffffffffffffffffffffffffffffffff1602179055508173ffffffffffffffffffffffffffffffffffffffff168173ffffffffffffffffffffffffffffffffffffffff167f8be0079c531659141344cd1fd0a4f28419497f9722a3daafe3b4186f6b6457e060405160405180910390a35050565b6040518060a0016040528060008152602001600073ffffffffffffffffffffffffffffffffffffffff168152602001600073ffffffffffffffffffffffffffffffffffffffff168152602001600073ffffffffffffffffffffffffffffffffffffffff168152602001600073ffffffffffffffffffffffffffffffffffffffff1681525090565b50805460008255906000526020600020908101906140a491906140a7565b50565b5b808211156140c05760008160009055506001016140a8565b5090565b6000604051905090565b600080fd5b600080fd5b6000819050919050565b6140eb816140d8565b81146140f657600080fd5b50565b600081359050614108816140e2565b92915050565b600060208284031215614124576141236140ce565b5b6000614132848285016140f9565b91505092915050565b600073ffffffffffffffffffffffffffffffffffffffff82169050919050565b60006141668261413b565b9050919050565b6141768161415b565b811461418157600080fd5b50565b6000813590506141938161416d565b92915050565b600080fd5b600080fd5b6000601f19601f8301169050919050565b7f4e487b7100000000000000000000000000000000000000000000000000000000600052604160045260246000fd5b6141ec826141a3565b810181811067ffffffffffffffff8211171561420b5761420a6141b4565b5b80604052505050565b600061421e6140c4565b905061422a82826141e3565b919050565b600067ffffffffffffffff82111561424a576142496141b4565b5b614253826141a3565b9050602081019050919050565b82818337600083830152505050565b600061428261427d8461422f565b614214565b90508281526020810184848401111561429e5761429d61419e565b5b6142a9848285614260565b509392505050565b600082601f8301126142c6576142c5614199565b5b81356142d684826020860161426f565b91505092915050565b600080600080608085870312156142f9576142f86140ce565b5b600061430787828801614184565b945050602061431887828801614184565b9350506040614329878288016140f9565b925050606085013567ffffffffffffffff81111561434a576143496140d3565b5b614356878288016142b1565b91505092959194509250565b60007fffffffff0000000000000000000000000000000000000000000000000000000082169050919050565b61439781614362565b82525050565b60006020820190506143b2600083018461438e565b92915050565b6000819050919050565b6143cb816143b8565b82525050565b6143da816140d8565b82525050565b7f4e487b7100000000000000000000000000000000000000000000000000000000600052602160045260246000fd5b600481106144205761441f6143e0565b5b50565b60008190506144318261440f565b919050565b600061444182614423565b9050919050565b61445181614436565b82525050565b6144608161415b565b82525050565b600060808201905061447b60008301876143c2565b61448860208301866143d1565b6144956040830185614448565b6144a26060830184614457565b95945050505050565b600381106144bc576144bb6143e0565b5b50565b60008190506144cd826144ab565b919050565b60006144dd826144bf565b9050919050565b6144ed816144d2565b82525050565b600060208201905061450860008301846144e4565b92915050565b600060208284031215614524576145236140ce565b5b600082013567ffffffffffffffff811115614542576145416140d3565b5b61454e848285016142b1565b91505092915050565b600060208201905061456c60008301846143d1565b92915050565b600060208284031215614588576145876140ce565b5b600061459684828501614184565b91505092915050565b60008115159050919050565b6145b48161459f565b82525050565b60006040820190506145cf60008301856143d1565b6145dc60208301846145ab565b9392505050565b600080fd5b600060a082840312156145fe576145fd6145e3565b5b81905092915050565b600080fd5b600080fd5b60008083601f84011261462757614626614199565b5b8235905067ffffffffffffffff81111561464457614643614607565b5b6020830191508360208202830111156146605761465f61460c565b5b9250929050565b60008060008060006101008688031215614684576146836140ce565b5b6000614692888289016140f9565b95505060206146a3888289016145e8565b94505060c086013567ffffffffffffffff8111156146c4576146c36140d3565b5b6146d088828901614611565b935093505060e06146e3888289016140f9565b9150509295509295909350565b600060208201905061470560008301846143c2565b92915050565b6005811061471c5761471b6143e0565b5b50565b600081905061472d8261470b565b919050565b600061473d8261471f565b9050919050565b61474d81614732565b82525050565b61475c816140d8565b82525050565b6020820160008201516147786000850182614753565b50505050565b60006080820190506147936000830187614744565b6147a060208301866143d1565b6147ad60408301856143d1565b6147ba6060830184614762565b95945050505050565b6147cc816143b8565b81146147d757600080fd5b50565b6000813590506147e9816147c3565b92915050565b600060208284031215614805576148046140ce565b5b6000614813848285016147da565b91505092915050565b600080600080600080610120878903121561483a576148396140ce565b5b600061484889828a01614184565b965050602061485989828a016140f9565b955050604061486a89828a016145e8565b94505060e087013567ffffffffffffffff81111561488b5761488a6140d3565b5b61489789828a01614611565b93509350506101006148ab89828a016140f9565b9150509295509295509295565b60006020820190506148cd6000830184614457565b92915050565b600481106148e4576148e36143e0565b5b50565b60008190506148f5826148d3565b919050565b6000614905826148e7565b9050919050565b614915816148fa565b82525050565b60006040820190506149306000830185614457565b61493d602083018461490c565b9392505050565b6000806040838503121561495b5761495a6140ce565b5b6000614969858286016140f9565b925050602061497a858286016140f9565b9150509250929050565b61498d8161415b565b82525050565b60a0820160008201516149a96000850182614753565b5060208201516149bc6020850182614984565b5060408201516149cf6040850182614984565b5060608201516149e26060850182614984565b5060808201516149f56080850182614984565b50505050565b600060a082019050614a106000830184614993565b92915050565b600067ffffffffffffffff821115614a3157614a306141b4565b5b602082029050602081019050919050565b600080fd5b600060a08284031215614a5d57614a5c614a42565b5b614a6760a0614214565b90506000614a77848285016140f9565b6000830152506020614a8b84828501614184565b6020830152506040614a9f84828501614184565b6040830152506060614ab384828501614184565b6060830152506080614ac784828501614184565b60808301525092915050565b6000614ae6614ae184614a16565b614214565b90508083825260208201905060a08402830185811115614b0957614b0861460c565b5b835b81811015614b325780614b1e8882614a47565b84526020840193505060a081019050614b0b565b5050509392505050565b600082601f830112614b5157614b50614199565b5b8135614b61848260208601614ad3565b91505092915050565b600060208284031215614b8057614b7f6140ce565b5b600082013567ffffffffffffffff811115614b9e57614b9d6140d3565b5b614baa84828501614b3c565b91505092915050565b6000604082019050614bc860008301856143d1565b614bd560208301846143c2565b9392505050565b600082825260208201905092915050565b7f53706f6b654272696467653a2063616c6c6572206973206e6f7420746865206860008201527f7562210000000000000000000000000000000000000000000000000000000000602082015250565b6000614c49602383614bdc565b9150614c5482614bed565b604082019050919050565b60006020820190508181036000830152614c7881614c3c565b9050919050565b7f53706f6b654272696467653a206272696465207374617475732069732061637460008201527f6976652100000000000000000000000000000000000000000000000000000000602082015250565b6000614cdb602483614bdc565b9150614ce682614c7f565b604082019050919050565b60006020820190508181036000830152614d0a81614cce565b9050919050565b600081519050614d20816140e2565b92915050565b600081519050614d35816147c3565b92915050565b60008060408385031215614d5257614d516140ce565b5b6000614d6085828601614d11565b9250506020614d7185828601614d26565b9150509250929050565b7f53706f6b654272696467653a20696e636f6d696e6720626c6f636b206861732060008201527f6e6f206368616c6c656e67656420737461747573210000000000000000000000602082015250565b6000614dd7603583614bdc565b9150614de282614d7b565b604082019050919050565b60006020820190508181036000830152614e0681614dca565b9050919050565b7f4e487b7100000000000000000000000000000000000000000000000000000000600052601260045260246000fd5b7f4e487b7100000000000000000000000000000000000000000000000000000000600052601160045260246000fd5b6000614e76826140d8565b9150614e81836140d8565b925082614e9157614e90614e0d565b5b828204905092915050565b6000614ea7826140d8565b9150614eb2836140d8565b9250828201905080821115614eca57614ec9614e3c565b5b92915050565b7f53706f6b654272696467653a20627269646765206973206e6f7420706175736560008201527f6421000000000000000000000000000000000000000000000000000000000000602082015250565b6000614f2c602283614bdc565b9150614f3782614ed0565b604082019050919050565b60006020820190508181036000830152614f5b81614f1f565b9050919050565b6000614f6d826140d8565b91507fffffffffffffffffffffffffffffffffffffffffffffffffffffffffffffffff8203614f9f57614f9e614e3c565b5b600182019050919050565b6000614fb5826140d8565b9150614fc0836140d8565b9250828203905081811115614fd857614fd7614e3c565b5b92915050565b7f53706f6b654272696467653a20627269646765206973206e6f7420616374697660008201527f6521000000000000000000000000000000000000000000000000000000000000602082015250565b600061503a602283614bdc565b915061504582614fde565b604082019050919050565b600060208201905081810360008301526150698161502d565b9050919050565b7f44737453706f6b654272696467653a207468657265206973206e6f20656e6f7560008201527f67682066656520666f722072656c617965727321000000000000000000000000602082015250565b60006150cc603483614bdc565b91506150d782615070565b604082019050919050565b600060208201905081810360008301526150fb816150bf565b9050919050565b7f44737453706f6b654272696467653a20696e636f6d696e6720626c6f636b206860008201527f6173206e6f2052656c6179656420737461746521000000000000000000000000602082015250565b600061515e603483614bdc565b915061516982615102565b604082019050919050565b6000602082019050818103600083015261518d81615151565b9050919050565b7f44737453706f6b654272696467653a207468652072656c61796572206861732060008201527f6e6f206163746976652073746174757300000000000000000000000000000000602082015250565b60006151f0603083614bdc565b91506151fb82615194565b604082019050919050565b6000602082019050818103600083015261521f816151e3565b9050919050565b7f44737453706f6b654272696467653a2070726f6f66206973206e6f7420636f7260008201527f7265637420647572696e6720636c616d696e6721000000000000000000000000602082015250565b6000615282603483614bdc565b915061528d82615226565b604082019050919050565b600060208201905081810360008301526152b181615275565b9050919050565b7f44737453706f6b654272696467653a207265636569766572206973206e6f742060008201527f746865206d6573736167652073656e6465722100000000000000000000000000602082015250565b6000615314603383614bdc565b915061531f826152b8565b604082019050919050565b6000602082019050818103600083015261534381615307565b9050919050565b600081905092915050565b50565b600061536560008361534a565b915061537082615355565b600082019050919050565b600061538682615358565b9150819050919050565b7f4661696c656420746f2073656e64204574686572000000000000000000000000600082015250565b60006153c6601483614bdc565b91506153d182615390565b602082019050919050565b600060208201905081810360008301526153f5816153b9565b9050919050565b60006040820190506154116000830185614457565b61541e60208301846143d1565b9392505050565b7f53706f6b654272696467653a207468657265206973206e6f2072657761726421600082015250565b600061545b602083614bdc565b915061546682615425565b602082019050919050565b6000602082019050818103600083015261548a8161544e565b9050919050565b7f53706f6b654272696467653a2072657761726420697320616c7265616479206360008201527f6c61696d65642100000000000000000000000000000000000000000000000000602082015250565b60006154ed602783614bdc565b91506154f882615491565b604082019050919050565b6000602082019050818103600083015261551c816154e0565b9050919050565b7f53706f6b654272696467653a2063616c6c6572206973206e6f7420612072656c60008201527f6179657221000000000000000000000000000000000000000000000000000000602082015250565b600061557f602583614bdc565b915061558a82615523565b604082019050919050565b600060208201905081810360008301526155ae81615572565b9050919050565b7f4e487b7100000000000000000000000000000000000000000000000000000000600052603260045260246000fd5b7f44737453706f6b654272696467653a2070726f6f66206973206e6f7420636f7260008201527f7265637420756e7772617070696e672100000000000000000000000000000000602082015250565b6000615640603083614bdc565b915061564b826155e4565b604082019050919050565b6000602082019050818103600083015261566f81615633565b9050919050565b6000815190506156858161416d565b92915050565b6000602082840312156156a1576156a06140ce565b5b60006156af84828501615676565b91505092915050565b7f44737453706f6b654272696467653a206f776e6572206973206e6f742074686560008201527f2063616c6c657221000000000000000000000000000000000000000000000000602082015250565b6000615714602883614bdc565b915061571f826156b8565b604082019050919050565b6000602082019050818103600083015261574381615707565b9050919050565b7f44657353706f6b654272696467653a206368616c6c656e67696e672074696d6560008201527f2077696e646f77206973206e6f74206578706972656420796574210000000000602082015250565b60006157a6603b83614bdc565b91506157b18261574a565b604082019050919050565b600060208201905081810360008301526157d581615799565b9050919050565b7f53706f6b654272696467653a2063616c6c6572206973206e6f7420696e20756e60008201527f6465706f73697465642073746174652100000000000000000000000000000000602082015250565b6000615838603083614bdc565b9150615843826157dc565b604082019050919050565b600060208201905081810360008301526158678161582b565b9050919050565b7f53706f6b654272696467653a20322064617973206973206e6f7420657870697260008201527f65642066726f6d2074686520756e6465706f736974696e672100000000000000602082015250565b60006158ca603983614bdc565b91506158d58261586e565b604082019050919050565b600060208201905081810360008301526158f9816158bd565b9050919050565b7f53706f6b654272696467653a2063616c6c65722063616e6e6f7420626520612060008201527f72656c6179657221000000000000000000000000000000000000000000000000602082015250565b600061595c602883614bdc565b915061596782615900565b604082019050919050565b6000602082019050818103600083015261598b8161594f565b9050919050565b7f53706f6b654272696467653a206d73672e76616c7565206973206e6f7420617060008201527f70726f7072696174652100000000000000000000000000000000000000000000602082015250565b60006159ee602a83614bdc565b91506159f982615992565b604082019050919050565b60006020820190508181036000830152615a1d816159e1565b9050919050565b7f53706f6b654272696467653a204e6f20656e6f75676820616d6f756e74206f6660008201527f2045544820746f207374616b6521000000000000000000000000000000000000602082015250565b6000615a80602e83614bdc565b9150615a8b82615a24565b604082019050919050565b60006020820190508181036000830152615aaf81615a73565b9050919050565b7f53706f6b654272696467653a20436f72726573706f6e64696e6720696e636f6d60008201527f696e672062696420737461747573206973206e6f742072656c61796564210000602082015250565b6000615b12603e83614bdc565b9150615b1d82615ab6565b604082019050919050565b60006020820190508181036000830152615b4181615b05565b9050919050565b7f53706f6b654272696467653a20546865206469737075746520706572696f642060008201527f6973206578706972656421000000000000000000000000000000000000000000602082015250565b6000615ba4602b83614bdc565b9150615baf82615b48565b604082019050919050565b60006020820190508181036000830152615bd381615b97565b9050919050565b7f53706f6b654272696467653a2062696420697320616c7265616479206368616c60008201527f6c656e6765642100000000000000000000000000000000000000000000000000602082015250565b6000615c36602783614bdc565b9150615c4182615bda565b604082019050919050565b60006020820190508181036000830152615c6581615c29565b9050919050565b7f53706f6b654272696467653a2074686520737461747573206f6620746865206260008201527f7269646765206973207061757365642100000000000000000000000000000000602082015250565b6000615cc8603083614bdc565b9150615cd382615c6c565b604082019050919050565b60006020820190508181036000830152615cf781615cbb565b9050919050565b7f4f776e61626c653a206e6577206f776e657220697320746865207a65726f206160008201527f6464726573730000000000000000000000000000000000000000000000000000602082015250565b6000615d5a602683614bdc565b9150615d6582615cfe565b604082019050919050565b60006020820190508181036000830152615d8981615d4d565b9050919050565b600060a082019050615da560008301886143d1565b615db26020830187614457565b615dbf6040830186614457565b615dcc6060830185614457565b615dd96080830184614457565b9695505050505050565b6000819050919050565b615dfe615df9826143b8565b615de3565b82525050565b6000615e108285615ded565b602082019150615e208284615ded565b6020820191508190509392505050565b600063ffffffff82169050919050565b6000615e4b82615e30565b915063ffffffff8203615e6157615e60614e3c565b5b600182019050919050565b600081519050919050565b600082825260208201905092915050565b60005b83811015615ea6578082015181840152602081019050615e8b565b60008484015250505050565b6000615ebd82615e6c565b615ec78185615e77565b9350615ed7818560208601615e88565b615ee0816141a3565b840191505092915050565b60006020820190508181036000830152615f058184615eb2565b905092915050565b7f436f756e7465723a2064656372656d656e74206f766572666c6f770000000000600082015250565b6000615f43601b83614bdc565b9150615f4e82615f0d565b602082019050919050565b60006020820190508181036000830152615f7281615f36565b9050919050565b6000615f84826140d8565b9150615f8f836140d8565b925082615f9f57615f9e614e0d565b5b828206905092915050565b60008160e01c9050919050565b600060033d1115615fd65760046000803e615fd3600051615faa565b90505b90565b600060443d1061606657615feb6140c4565b60043d036004823e80513d602482011167ffffffffffffffff82111715616013575050616066565b808201805167ffffffffffffffff8111156160315750505050616066565b80602083010160043d03850181111561604e575050505050616066565b61605d826020018501866141e3565b82955050505050505b90565b7f4f776e61626c653a2063616c6c6572206973206e6f7420746865206f776e6572600082015250565b600061609f602083614bdc565b91506160aa82616069565b602082019050919050565b600060208201905081810360008301526160ce81616092565b905091905056fea26469706673582212201d488a7f7a6d850ff6d8b64f1a5e6926f8373e2e19885f69bf348861b765107164736f6c63430008120033",
  "linkReferences": {},
  "deployedLinkReferences": {}
}