{
  "_format": "hh-sol-artifact-1",
  "contractName": "MultiSend",
  "sourceName": "contracts/shared/libraries/Multisend.sol",
  "abi": [
    {
      "inputs": [],
      "stateMutability": "nonpayable",
      "type": "constructor"
    },
    {
      "inputs": [
        {
          "internalType": "bytes",
          "name": "transactions",
          "type": "bytes"
        }
      ],
      "name": "multiSend",
      "outputs": [],
      "stateMutability": "payable",
      "type": "function"
    }
  ],
  "bytecode": "0x60a060405234801561001057600080fd5b503073ffffffffffffffffffffffffffffffffffffffff1660808173ffffffffffffffffffffffffffffffffffffffff16815250506080516103a061005d600039600050506103a06000f3fe60806040526004361061001e5760003560e01c80638d80ff0a14610023575b600080fd5b61003d6004803603810190610038919061027e565b61003f565b005b60003373ffffffffffffffffffffffffffffffffffffffff163b14610099576040517f08c379a00000000000000000000000000000000000000000000000000000000081526004016100909061034a565b60405180910390fd5b805160205b8181101561011f578083015160f81c6001820184015160601c6015830185015160358401860151605585018701600085600081146100e357600181146100f3576100fe565b6000808585888a5af191506100fe565b6000808585895af491505b506000810361010c57600080fd5b826055018701965050505050505061009e565b505050565b6000604051905090565b600080fd5b600080fd5b600080fd5b600080fd5b6000601f19601f8301169050919050565b7f4e487b7100000000000000000000000000000000000000000000000000000000600052604160045260246000fd5b61018b82610142565b810181811067ffffffffffffffff821117156101aa576101a9610153565b5b80604052505050565b60006101bd610124565b90506101c98282610182565b919050565b600067ffffffffffffffff8211156101e9576101e8610153565b5b6101f282610142565b9050602081019050919050565b82818337600083830152505050565b600061022161021c846101ce565b6101b3565b90508281526020810184848401111561023d5761023c61013d565b5b6102488482856101ff565b509392505050565b600082601f83011261026557610264610138565b5b813561027584826020860161020e565b91505092915050565b6000602082840312156102945761029361012e565b5b600082013567ffffffffffffffff8111156102b2576102b1610133565b5b6102be84828501610250565b91505092915050565b600082825260208201905092915050565b7f4d756c746953656e642073686f756c64206f6e6c792062652063616c6c65642060008201527f76696120454f4100000000000000000000000000000000000000000000000000602082015250565b60006103346027836102c7565b915061033f826102d8565b604082019050919050565b6000602082019050818103600083015261036381610327565b905091905056fea26469706673582212203ad7df8b92f2effa042440c3720e73669be74970e947d563482b817d691cb74864736f6c63430008110033",
  "linkReferences": {},
  "deployedLinkReferences": {}
}