{
  "_format": "hh-sol-artifact-1",
  "contractName": "L2StandardBridge",
  "sourceName": "contracts/L2/messaging/L2StandardBridge.sol",
  "abi": [
    {
      "inputs": [
        {
          "internalType": "address",
          "name": "_l2CrossDomainMessenger",
          "type": "address"
        },
        {
          "internalType": "address",
          "name": "_l1TokenBridge",
          "type": "address"
        }
      ],
      "stateMutability": "nonpayable",
      "type": "constructor"
    },
    {
      "anonymous": false,
      "inputs": [
        {
          "indexed": true,
          "internalType": "address",
          "name": "_l1Token",
          "type": "address"
        },
        {
          "indexed": true,
          "internalType": "address",
          "name": "_l2Token",
          "type": "address"
        },
        {
          "indexed": true,
          "internalType": "address",
          "name": "_from",
          "type": "address"
        },
        {
          "indexed": false,
          "internalType": "address",
          "name": "_to",
          "type": "address"
        },
        {
          "indexed": false,
          "internalType": "uint256",
          "name": "_amount",
          "type": "uint256"
        },
        {
          "indexed": false,
          "internalType": "bytes",
          "name": "_data",
          "type": "bytes"
        }
      ],
      "name": "DepositFailed",
      "type": "event"
    },
    {
      "anonymous": false,
      "inputs": [
        {
          "indexed": true,
          "internalType": "address",
          "name": "_l1Token",
          "type": "address"
        },
        {
          "indexed": true,
          "internalType": "address",
          "name": "_l2Token",
          "type": "address"
        },
        {
          "indexed": true,
          "internalType": "address",
          "name": "_from",
          "type": "address"
        },
        {
          "indexed": false,
          "internalType": "address",
          "name": "_to",
          "type": "address"
        },
        {
          "indexed": false,
          "internalType": "uint256",
          "name": "_amount",
          "type": "uint256"
        },
        {
          "indexed": false,
          "internalType": "bytes",
          "name": "_data",
          "type": "bytes"
        }
      ],
      "name": "DepositFinalized",
      "type": "event"
    },
    {
      "anonymous": false,
      "inputs": [
        {
          "indexed": true,
          "internalType": "address",
          "name": "_l1Token",
          "type": "address"
        },
        {
          "indexed": true,
          "internalType": "address",
          "name": "_l2Token",
          "type": "address"
        },
        {
          "indexed": true,
          "internalType": "address",
          "name": "_from",
          "type": "address"
        },
        {
          "indexed": false,
          "internalType": "address",
          "name": "_to",
          "type": "address"
        },
        {
          "indexed": false,
          "internalType": "uint256",
          "name": "_amount",
          "type": "uint256"
        },
        {
          "indexed": false,
          "internalType": "bytes",
          "name": "_data",
          "type": "bytes"
        }
      ],
      "name": "WithdrawalInitiated",
      "type": "event"
    },
    {
      "inputs": [
        {
          "internalType": "address",
          "name": "_l1Token",
          "type": "address"
        },
        {
          "internalType": "address",
          "name": "_l2Token",
          "type": "address"
        },
        {
          "internalType": "address",
          "name": "_from",
          "type": "address"
        },
        {
          "internalType": "address",
          "name": "_to",
          "type": "address"
        },
        {
          "internalType": "uint256",
          "name": "_amount",
          "type": "uint256"
        },
        {
          "internalType": "bytes",
          "name": "_data",
          "type": "bytes"
        }
      ],
      "name": "finalizeDeposit",
      "outputs": [],
      "stateMutability": "nonpayable",
      "type": "function"
    },
    {
      "inputs": [],
      "name": "l1TokenBridge",
      "outputs": [
        {
          "internalType": "address",
          "name": "",
          "type": "address"
        }
      ],
      "stateMutability": "view",
      "type": "function"
    },
    {
      "inputs": [],
      "name": "messenger",
      "outputs": [
        {
          "internalType": "address",
          "name": "",
          "type": "address"
        }
      ],
      "stateMutability": "view",
      "type": "function"
    },
    {
      "inputs": [
        {
          "internalType": "address",
          "name": "_l2Token",
          "type": "address"
        },
        {
          "internalType": "uint256",
          "name": "_amount",
          "type": "uint256"
        },
        {
          "internalType": "uint32",
          "name": "_l1Gas",
          "type": "uint32"
        },
        {
          "internalType": "bytes",
          "name": "_data",
          "type": "bytes"
        }
      ],
      "name": "withdraw",
      "outputs": [],
      "stateMutability": "nonpayable",
      "type": "function"
    },
    {
      "inputs": [
        {
          "internalType": "address",
          "name": "_l2Token",
          "type": "address"
        },
        {
          "internalType": "address",
          "name": "_to",
          "type": "address"
        },
        {
          "internalType": "uint256",
          "name": "_amount",
          "type": "uint256"
        },
        {
          "internalType": "uint32",
          "name": "_l1Gas",
          "type": "uint32"
        },
        {
          "internalType": "bytes",
          "name": "_data",
          "type": "bytes"
        }
      ],
      "name": "withdrawTo",
      "outputs": [],
      "stateMutability": "nonpayable",
      "type": "function"
    }
  ],
  "bytecode": "0x608060405234801561001057600080fd5b50604051610d48380380610d4883398101604081905261002f9161007c565b600080546001600160a01b039384166001600160a01b031991821617909155600180549290931691161790556100af565b80516001600160a01b038116811461007757600080fd5b919050565b6000806040838503121561008f57600080fd5b61009883610060565b91506100a660208401610060565b90509250929050565b610c8a806100be6000396000f3fe608060405234801561001057600080fd5b50600436106100675760003560e01c80633cb747bf116100505780633cb747bf146100b0578063662a633a146100c3578063a3a79548146100d657600080fd5b806332b7006d1461006c57806336c717c114610081575b600080fd5b61007f61007a366004610960565b6100e9565b005b600154610094906001600160a01b031681565b6040516001600160a01b03909116815260200160405180910390f35b600054610094906001600160a01b031681565b61007f6100d13660046109d1565b6100ff565b61007f6100e4366004610a69565b610506565b6100f88533338787878761051d565b5050505050565b6001546001600160a01b031661011d6000546001600160a01b031690565b6001600160a01b0316336001600160a01b0316146101a85760405162461bcd60e51b815260206004820152602e60248201527f4f564d5f58434841494e3a206d657373656e67657220636f6e7472616374207560448201527f6e61757468656e7469636174656400000000000000000000000000000000000060648201526084015b60405180910390fd5b806001600160a01b03166101c46000546001600160a01b031690565b6001600160a01b0316636e296e456040518163ffffffff1660e01b8152600401602060405180830381865afa158015610201573d6000803e3d6000fd5b505050506040513d601f19601f820116820180604052508101906102259190610aec565b6001600160a01b0316146102a15760405162461bcd60e51b815260206004820152603060248201527f4f564d5f58434841494e3a2077726f6e672073656e646572206f662063726f7360448201527f732d646f6d61696e206d65737361676500000000000000000000000000000000606482015260840161019f565b6102cb877f1d1d8b6300000000000000000000000000000000000000000000000000000000610782565b801561034b5750866001600160a01b031663c01e1bd66040518163ffffffff1660e01b81526004016020604051808303816000875af1158015610312573d6000803e3d6000fd5b505050506040513d601f19601f820116820180604052508101906103369190610aec565b6001600160a01b0316886001600160a01b0316145b1561042b576040517f40c10f190000000000000000000000000000000000000000000000000000000081526001600160a01b038681166004830152602482018690528816906340c10f1990604401600060405180830381600087803b1580156103b357600080fd5b505af11580156103c7573d6000803e3d6000fd5b50505050856001600160a01b0316876001600160a01b0316896001600160a01b03167fb0444523268717a02698be47d0803aa7468c00acbed2f8bd93a0459cde61dd898888888860405161041e9493929190610b32565b60405180910390a46104fc565b600063a9f9e67560e01b8989888a8989896040516024016104529796959493929190610b65565b60408051601f198184030181529190526020810180516001600160e01b03166001600160e01b03199093169290921790915260015490915061049f906001600160a01b03166000836107a5565b866001600160a01b0316886001600160a01b03168a6001600160a01b03167f7ea89a4591614515571c2b51f5ea06494056f261c10ab1ed8c03c7590d87bce0898989896040516104f29493929190610b32565b60405180910390a4505b5050505050505050565b6105158633878787878761051d565b505050505050565b6040517f9dc29fac000000000000000000000000000000000000000000000000000000008152336004820152602481018590526001600160a01b03881690639dc29fac90604401600060405180830381600087803b15801561057e57600080fd5b505af1158015610592573d6000803e3d6000fd5b505050506000876001600160a01b031663c01e1bd66040518163ffffffff1660e01b81526004016020604051808303816000875af11580156105d8573d6000803e3d6000fd5b505050506040513d601f19601f820116820180604052508101906105fc9190610aec565b905060607fffffffffffffffffffffffff21522152215221522152215221522152215300006001600160a01b038a16016106a4576040517f1532ec34000000000000000000000000000000000000000000000000000000009061066b908a908a908a9089908990602401610bb5565b60408051601f198184030181529190526020810180516001600160e01b03166001600160e01b0319909316929092179091529050610718565b6040517fa9f9e67500000000000000000000000000000000000000000000000000000000906106e39084908c908c908c908c908b908b90602401610b65565b60408051601f198184030181529190526020810180516001600160e01b03166001600160e01b03199093169290921790915290505b60015461072f906001600160a01b031686836107a5565b336001600160a01b0316896001600160a01b0316836001600160a01b03167f73d170910aba9e6d50b102db522b1dbcd796216f5128b445aa2135272886497e8a8a89896040516104f29493929190610b32565b600061078d83610829565b801561079e575061079e838361085d565b9392505050565b6000546040517f3dbb202b0000000000000000000000000000000000000000000000000000000081526001600160a01b0390911690633dbb202b906107f290869085908790600401610be8565b600060405180830381600087803b15801561080c57600080fd5b505af1158015610820573d6000803e3d6000fd5b50505050505050565b600061083c826301ffc9a760e01b61085d565b80156108575750610855826001600160e01b031961085d565b155b92915050565b604080516001600160e01b03198316602480830191909152825180830390910181526044909101909152602080820180516001600160e01b03166301ffc9a760e01b178152825160009392849283928392918391908a617530fa92503d915060005190508280156108cf575060208210155b80156108db5750600081115b979650505050505050565b6001600160a01b03811681146108fb57600080fd5b50565b803563ffffffff8116811461091257600080fd5b919050565b60008083601f84011261092957600080fd5b50813567ffffffffffffffff81111561094157600080fd5b60208301915083602082850101111561095957600080fd5b9250929050565b60008060008060006080868803121561097857600080fd5b8535610983816108e6565b945060208601359350610998604087016108fe565b9250606086013567ffffffffffffffff8111156109b457600080fd5b6109c088828901610917565b969995985093965092949392505050565b600080600080600080600060c0888a0312156109ec57600080fd5b87356109f7816108e6565b96506020880135610a07816108e6565b95506040880135610a17816108e6565b94506060880135610a27816108e6565b93506080880135925060a088013567ffffffffffffffff811115610a4a57600080fd5b610a568a828b01610917565b989b979a50959850939692959293505050565b60008060008060008060a08789031215610a8257600080fd5b8635610a8d816108e6565b95506020870135610a9d816108e6565b945060408701359350610ab2606088016108fe565b9250608087013567ffffffffffffffff811115610ace57600080fd5b610ada89828a01610917565b979a9699509497509295939492505050565b600060208284031215610afe57600080fd5b815161079e816108e6565b81835281816020850137506000828201602090810191909152601f909101601f19169091010190565b6001600160a01b0385168152836020820152606060408201526000610b5b606083018486610b09565b9695505050505050565b60006001600160a01b03808a1683528089166020840152808816604084015280871660608401525084608083015260c060a0830152610ba860c083018486610b09565b9998505050505050505050565b60006001600160a01b038088168352808716602084015250846040830152608060608301526108db608083018486610b09565b6001600160a01b038416815260006020606081840152845180606085015260005b81811015610c2557868101830151858201608001528201610c09565b506000608082860101526080601f19601f8301168501019250505063ffffffff8316604083015294935050505056fea26469706673582212200d3b02fb3ce71266d31ab6657aa7bff90b91f7385a99707bc40804ca5fce137664736f6c63430008120033",
  "linkReferences": {},
  "deployedLinkReferences": {}
}