{
  "_format": "hh-sol-artifact-1",
  "contractName": "L2StandardBridge",
  "sourceName": "contracts/L2/messaging/L2StandardBridge.sol",
  "abi": [
    {
      "inputs": [
        {
          "internalType": "address",
          "name": "_l2CrossDomainMessenger",
          "type": "address"
        },
        {
          "internalType": "address",
          "name": "_l1TokenBridge",
          "type": "address"
        }
      ],
      "stateMutability": "nonpayable",
      "type": "constructor"
    },
    {
      "anonymous": false,
      "inputs": [
        {
          "indexed": true,
          "internalType": "address",
          "name": "_l1Token",
          "type": "address"
        },
        {
          "indexed": true,
          "internalType": "address",
          "name": "_l2Token",
          "type": "address"
        },
        {
          "indexed": true,
          "internalType": "address",
          "name": "_from",
          "type": "address"
        },
        {
          "indexed": false,
          "internalType": "address",
          "name": "_to",
          "type": "address"
        },
        {
          "indexed": false,
          "internalType": "uint256",
          "name": "_amount",
          "type": "uint256"
        },
        {
          "indexed": false,
          "internalType": "bytes",
          "name": "_data",
          "type": "bytes"
        }
      ],
      "name": "DepositFailed",
      "type": "event"
    },
    {
      "anonymous": false,
      "inputs": [
        {
          "indexed": true,
          "internalType": "address",
          "name": "_l1Token",
          "type": "address"
        },
        {
          "indexed": true,
          "internalType": "address",
          "name": "_l2Token",
          "type": "address"
        },
        {
          "indexed": true,
          "internalType": "address",
          "name": "_from",
          "type": "address"
        },
        {
          "indexed": false,
          "internalType": "address",
          "name": "_to",
          "type": "address"
        },
        {
          "indexed": false,
          "internalType": "uint256",
          "name": "_amount",
          "type": "uint256"
        },
        {
          "indexed": false,
          "internalType": "bytes",
          "name": "_data",
          "type": "bytes"
        }
      ],
      "name": "DepositFinalized",
      "type": "event"
    },
    {
      "anonymous": false,
      "inputs": [
        {
          "indexed": true,
          "internalType": "address",
          "name": "_l1Token",
          "type": "address"
        },
        {
          "indexed": true,
          "internalType": "address",
          "name": "_l2Token",
          "type": "address"
        },
        {
          "indexed": true,
          "internalType": "address",
          "name": "_from",
          "type": "address"
        },
        {
          "indexed": false,
          "internalType": "address",
          "name": "_to",
          "type": "address"
        },
        {
          "indexed": false,
          "internalType": "uint256",
          "name": "_amount",
          "type": "uint256"
        },
        {
          "indexed": false,
          "internalType": "bytes",
          "name": "_data",
          "type": "bytes"
        }
      ],
      "name": "WithdrawalInitiated",
      "type": "event"
    },
    {
      "inputs": [
        {
          "internalType": "address",
          "name": "_l1Token",
          "type": "address"
        },
        {
          "internalType": "address",
          "name": "_l2Token",
          "type": "address"
        },
        {
          "internalType": "address",
          "name": "_from",
          "type": "address"
        },
        {
          "internalType": "address",
          "name": "_to",
          "type": "address"
        },
        {
          "internalType": "uint256",
          "name": "_amount",
          "type": "uint256"
        },
        {
          "internalType": "bytes",
          "name": "_data",
          "type": "bytes"
        }
      ],
      "name": "finalizeDeposit",
      "outputs": [],
      "stateMutability": "nonpayable",
      "type": "function"
    },
    {
      "inputs": [],
      "name": "l1TokenBridge",
      "outputs": [
        {
          "internalType": "address",
          "name": "",
          "type": "address"
        }
      ],
      "stateMutability": "view",
      "type": "function"
    },
    {
      "inputs": [],
      "name": "messenger",
      "outputs": [
        {
          "internalType": "address",
          "name": "",
          "type": "address"
        }
      ],
      "stateMutability": "view",
      "type": "function"
    },
    {
      "inputs": [
        {
          "internalType": "address",
          "name": "_l2Token",
          "type": "address"
        },
        {
          "internalType": "uint256",
          "name": "_amount",
          "type": "uint256"
        },
        {
          "internalType": "uint32",
          "name": "_l1Gas",
          "type": "uint32"
        },
        {
          "internalType": "bytes",
          "name": "_data",
          "type": "bytes"
        }
      ],
      "name": "withdraw",
      "outputs": [],
      "stateMutability": "nonpayable",
      "type": "function"
    },
    {
      "inputs": [
        {
          "internalType": "address",
          "name": "_l2Token",
          "type": "address"
        },
        {
          "internalType": "address",
          "name": "_to",
          "type": "address"
        },
        {
          "internalType": "uint256",
          "name": "_amount",
          "type": "uint256"
        },
        {
          "internalType": "uint32",
          "name": "_l1Gas",
          "type": "uint32"
        },
        {
          "internalType": "bytes",
          "name": "_data",
          "type": "bytes"
        }
      ],
      "name": "withdrawTo",
      "outputs": [],
      "stateMutability": "nonpayable",
      "type": "function"
    }
  ],
  "bytecode": "0x60806040523480156200001157600080fd5b506040516200139e3803806200139e83398181016040528101906200003791906200012c565b81806000806101000a81548173ffffffffffffffffffffffffffffffffffffffff021916908373ffffffffffffffffffffffffffffffffffffffff1602179055505080600160006101000a81548173ffffffffffffffffffffffffffffffffffffffff021916908373ffffffffffffffffffffffffffffffffffffffff160217905550505062000173565b600080fd5b600073ffffffffffffffffffffffffffffffffffffffff82169050919050565b6000620000f482620000c7565b9050919050565b6200010681620000e7565b81146200011257600080fd5b50565b6000815190506200012681620000fb565b92915050565b60008060408385031215620001465762000145620000c2565b5b6000620001568582860162000115565b9250506020620001698582860162000115565b9150509250929050565b61121b80620001836000396000f3fe608060405234801561001057600080fd5b50600436106100575760003560e01c806332b7006d1461005c57806336c717c1146100785780633cb747bf14610096578063662a633a146100b4578063a3a79548146100d0575b600080fd5b61007660048036038101906100719190610bd4565b6100ec565b005b610080610102565b60405161008d9190610c6b565b60405180910390f35b61009e610128565b6040516100ab9190610c6b565b60405180910390f35b6100ce60048036038101906100c99190610c86565b61014c565b005b6100ea60048036038101906100e59190610d35565b6105ba565b005b6100fb853333878787876105d1565b5050505050565b600160009054906101000a900473ffffffffffffffffffffffffffffffffffffffff1681565b60008054906101000a900473ffffffffffffffffffffffffffffffffffffffff1681565b600160009054906101000a900473ffffffffffffffffffffffffffffffffffffffff166101776108c0565b73ffffffffffffffffffffffffffffffffffffffff163373ffffffffffffffffffffffffffffffffffffffff16146101e4576040517f08c379a00000000000000000000000000000000000000000000000000000000081526004016101db90610e52565b60405180910390fd5b8073ffffffffffffffffffffffffffffffffffffffff166102036108c0565b73ffffffffffffffffffffffffffffffffffffffff16636e296e456040518163ffffffff1660e01b8152600401602060405180830381865afa15801561024d573d6000803e3d6000fd5b505050506040513d601f19601f820116820180604052508101906102719190610e87565b73ffffffffffffffffffffffffffffffffffffffff16146102c7576040517f08c379a00000000000000000000000000000000000000000000000000000000081526004016102be90610f26565b60405180910390fd5b6102d887631d1d8b6360e01b6108e9565b801561037f57508673ffffffffffffffffffffffffffffffffffffffff1663c01e1bd66040518163ffffffff1660e01b81526004016020604051808303816000875af115801561032c573d6000803e3d6000fd5b505050506040513d601f19601f820116820180604052508101906103509190610e87565b73ffffffffffffffffffffffffffffffffffffffff168873ffffffffffffffffffffffffffffffffffffffff16145b15610478578673ffffffffffffffffffffffffffffffffffffffff166340c10f1986866040518363ffffffff1660e01b81526004016103bf929190610f55565b600060405180830381600087803b1580156103d957600080fd5b505af11580156103ed573d6000803e3d6000fd5b505050508573ffffffffffffffffffffffffffffffffffffffff168773ffffffffffffffffffffffffffffffffffffffff168973ffffffffffffffffffffffffffffffffffffffff167fb0444523268717a02698be47d0803aa7468c00acbed2f8bd93a0459cde61dd898888888860405161046b9493929190610fdc565b60405180910390a46105b0565b600063a9f9e67560e01b8989888a89898960405160240161049f979695949392919061101c565b604051602081830303815290604052907bffffffffffffffffffffffffffffffffffffffffffffffffffffffff19166020820180517bffffffffffffffffffffffffffffffffffffffffffffffffffffffff8381831617835250505050905061052c600160009054906101000a900473ffffffffffffffffffffffffffffffffffffffff1660008361090e565b8673ffffffffffffffffffffffffffffffffffffffff168873ffffffffffffffffffffffffffffffffffffffff168a73ffffffffffffffffffffffffffffffffffffffff167f7ea89a4591614515571c2b51f5ea06494056f261c10ab1ed8c03c7590d87bce0898989896040516105a69493929190610fdc565b60405180910390a4505b5050505050505050565b6105c9863387878787876105d1565b505050505050565b8673ffffffffffffffffffffffffffffffffffffffff16639dc29fac33866040518363ffffffff1660e01b815260040161060c929190610f55565b600060405180830381600087803b15801561062657600080fd5b505af115801561063a573d6000803e3d6000fd5b5050505060008773ffffffffffffffffffffffffffffffffffffffff1663c01e1bd66040518163ffffffff1660e01b81526004016020604051808303816000875af115801561068d573d6000803e3d6000fd5b505050506040513d601f19601f820116820180604052508101906106b19190610e87565b9050606073deaddeaddeaddeaddeaddeaddeaddeaddead000073ffffffffffffffffffffffffffffffffffffffff168973ffffffffffffffffffffffffffffffffffffffff160361078157631532ec3460e01b888888878760405160240161071d959493929190611086565b604051602081830303815290604052907bffffffffffffffffffffffffffffffffffffffffffffffffffffffff19166020820180517bffffffffffffffffffffffffffffffffffffffffffffffffffffffff83818316178352505050509050610806565b63a9f9e67560e01b828a8a8a8a89896040516024016107a6979695949392919061101c565b604051602081830303815290604052907bffffffffffffffffffffffffffffffffffffffffffffffffffffffff19166020820180517bffffffffffffffffffffffffffffffffffffffffffffffffffffffff838183161783525050505090505b610833600160009054906101000a900473ffffffffffffffffffffffffffffffffffffffff16868361090e565b3373ffffffffffffffffffffffffffffffffffffffff168973ffffffffffffffffffffffffffffffffffffffff168373ffffffffffffffffffffffffffffffffffffffff167f73d170910aba9e6d50b102db522b1dbcd796216f5128b445aa2135272886497e8a8a89896040516108ad9493929190610fdc565b60405180910390a4505050505050505050565b60008060009054906101000a900473ffffffffffffffffffffffffffffffffffffffff16905090565b60006108f483610989565b8015610906575061090583836109d6565b5b905092915050565b6109166108c0565b73ffffffffffffffffffffffffffffffffffffffff16633dbb202b8483856040518463ffffffff1660e01b815260040161095293929190611151565b600060405180830381600087803b15801561096c57600080fd5b505af1158015610980573d6000803e3d6000fd5b50505050505050565b60006109b5827f01ffc9a7000000000000000000000000000000000000000000000000000000006109d6565b80156109cf57506109cd8263ffffffff60e01b6109d6565b155b9050919050565b6000806301ffc9a760e01b836040516024016109f291906111ca565b604051602081830303815290604052907bffffffffffffffffffffffffffffffffffffffffffffffffffffffff19166020820180517bffffffffffffffffffffffffffffffffffffffffffffffffffffffff838183161783525050505090506000806000602060008551602087018a617530fa92503d91506000519050828015610a7d575060208210155b8015610a895750600081115b94505050505092915050565b600080fd5b600080fd5b600073ffffffffffffffffffffffffffffffffffffffff82169050919050565b6000610aca82610a9f565b9050919050565b610ada81610abf565b8114610ae557600080fd5b50565b600081359050610af781610ad1565b92915050565b6000819050919050565b610b1081610afd565b8114610b1b57600080fd5b50565b600081359050610b2d81610b07565b92915050565b600063ffffffff82169050919050565b610b4c81610b33565b8114610b5757600080fd5b50565b600081359050610b6981610b43565b92915050565b600080fd5b600080fd5b600080fd5b60008083601f840112610b9457610b93610b6f565b5b8235905067ffffffffffffffff811115610bb157610bb0610b74565b5b602083019150836001820283011115610bcd57610bcc610b79565b5b9250929050565b600080600080600060808688031215610bf057610bef610a95565b5b6000610bfe88828901610ae8565b9550506020610c0f88828901610b1e565b9450506040610c2088828901610b5a565b935050606086013567ffffffffffffffff811115610c4157610c40610a9a565b5b610c4d88828901610b7e565b92509250509295509295909350565b610c6581610abf565b82525050565b6000602082019050610c806000830184610c5c565b92915050565b600080600080600080600060c0888a031215610ca557610ca4610a95565b5b6000610cb38a828b01610ae8565b9750506020610cc48a828b01610ae8565b9650506040610cd58a828b01610ae8565b9550506060610ce68a828b01610ae8565b9450506080610cf78a828b01610b1e565b93505060a088013567ffffffffffffffff811115610d1857610d17610a9a565b5b610d248a828b01610b7e565b925092505092959891949750929550565b60008060008060008060a08789031215610d5257610d51610a95565b5b6000610d6089828a01610ae8565b9650506020610d7189828a01610ae8565b9550506040610d8289828a01610b1e565b9450506060610d9389828a01610b5a565b935050608087013567ffffffffffffffff811115610db457610db3610a9a565b5b610dc089828a01610b7e565b92509250509295509295509295565b600082825260208201905092915050565b7f4f564d5f58434841494e3a206d657373656e67657220636f6e7472616374207560008201527f6e61757468656e74696361746564000000000000000000000000000000000000602082015250565b6000610e3c602e83610dcf565b9150610e4782610de0565b604082019050919050565b60006020820190508181036000830152610e6b81610e2f565b9050919050565b600081519050610e8181610ad1565b92915050565b600060208284031215610e9d57610e9c610a95565b5b6000610eab84828501610e72565b91505092915050565b7f4f564d5f58434841494e3a2077726f6e672073656e646572206f662063726f7360008201527f732d646f6d61696e206d65737361676500000000000000000000000000000000602082015250565b6000610f10603083610dcf565b9150610f1b82610eb4565b604082019050919050565b60006020820190508181036000830152610f3f81610f03565b9050919050565b610f4f81610afd565b82525050565b6000604082019050610f6a6000830185610c5c565b610f776020830184610f46565b9392505050565b600082825260208201905092915050565b82818337600083830152505050565b6000601f19601f8301169050919050565b6000610fbb8385610f7e565b9350610fc8838584610f8f565b610fd183610f9e565b840190509392505050565b6000606082019050610ff16000830187610c5c565b610ffe6020830186610f46565b8181036040830152611011818486610faf565b905095945050505050565b600060c082019050611031600083018a610c5c565b61103e6020830189610c5c565b61104b6040830188610c5c565b6110586060830187610c5c565b6110656080830186610f46565b81810360a0830152611078818486610faf565b905098975050505050505050565b600060808201905061109b6000830188610c5c565b6110a86020830187610c5c565b6110b56040830186610f46565b81810360608301526110c8818486610faf565b90509695505050505050565b600081519050919050565b60005b838110156110fd5780820151818401526020810190506110e2565b60008484015250505050565b6000611114826110d4565b61111e8185610f7e565b935061112e8185602086016110df565b61113781610f9e565b840191505092915050565b61114b81610b33565b82525050565b60006060820190506111666000830186610c5c565b81810360208301526111788185611109565b90506111876040830184611142565b949350505050565b60007fffffffff0000000000000000000000000000000000000000000000000000000082169050919050565b6111c48161118f565b82525050565b60006020820190506111df60008301846111bb565b9291505056fea2646970667358221220f5a6eb8f20885b75fba0ff6e124f17a9e9657c511bf150d862820389a9e32e2164736f6c63430008120033",
  "linkReferences": {},
  "deployedLinkReferences": {}
}