{
  "_format": "hh-sol-artifact-1",
  "contractName": "AddressDictator",
  "sourceName": "contracts/L1/deployment/AddressDictator.sol",
  "abi": [
    {
      "inputs": [
        {
          "internalType": "contract Lib_AddressManager",
          "name": "_manager",
          "type": "address"
        },
        {
          "internalType": "address",
          "name": "_finalOwner",
          "type": "address"
        },
        {
          "internalType": "string[]",
          "name": "_names",
          "type": "string[]"
        },
        {
          "internalType": "address[]",
          "name": "_addresses",
          "type": "address[]"
        }
      ],
      "stateMutability": "nonpayable",
      "type": "constructor"
    },
    {
      "inputs": [],
      "name": "finalOwner",
      "outputs": [
        {
          "internalType": "address",
          "name": "",
          "type": "address"
        }
      ],
      "stateMutability": "view",
      "type": "function"
    },
    {
      "inputs": [],
      "name": "getNamedAddresses",
      "outputs": [
        {
          "components": [
            {
              "internalType": "string",
              "name": "name",
              "type": "string"
            },
            {
              "internalType": "address",
              "name": "addr",
              "type": "address"
            }
          ],
          "internalType": "struct AddressDictator.NamedAddress[]",
          "name": "",
          "type": "tuple[]"
        }
      ],
      "stateMutability": "view",
      "type": "function"
    },
    {
      "inputs": [],
      "name": "manager",
      "outputs": [
        {
          "internalType": "contract Lib_AddressManager",
          "name": "",
          "type": "address"
        }
      ],
      "stateMutability": "view",
      "type": "function"
    },
    {
      "inputs": [],
      "name": "returnOwnership",
      "outputs": [],
      "stateMutability": "nonpayable",
      "type": "function"
    },
    {
      "inputs": [],
      "name": "setAddresses",
      "outputs": [],
      "stateMutability": "nonpayable",
      "type": "function"
    }
  ],
  "bytecode": "0x60806040523480156200001157600080fd5b5060405162000c2138038062000c218339810160408190526200003491620002cd565b600080546001600160a01b038087166001600160a01b03199283161790925560018054928616929091169190911790558051825114620000ee5760405162461bcd60e51b815260206004820152604560248201527f416464726573734469637461746f723a204d7573742070726f7669646520616e60448201527f20657175616c206e756d626572206f66206e616d657320616e6420616464726560648201526439b9b2b99760d91b608482015260a40160405180910390fd5b60005b8251811015620001bc57600260405180604001604052808584815181106200011d576200011d62000450565b602002602001015181526020018484815181106200013f576200013f62000450565b6020908102919091018101516001600160a01b031690915282546001810184556000938452922081519192600202019081906200017d9082620004f5565b5060209190910151600190910180546001600160a01b0319166001600160a01b0390921691909117905580620001b381620005c1565b915050620000f1565b5050505050620005e9565b6001600160a01b0381168114620001dd57600080fd5b50565b634e487b7160e01b600052604160045260246000fd5b604051601f8201601f191681016001600160401b0381118282101715620002215762000221620001e0565b604052919050565b60006001600160401b03821115620002455762000245620001e0565b5060051b60200190565b600082601f8301126200026157600080fd5b815160206200027a620002748362000229565b620001f6565b82815260059290921b840181019181810190868411156200029a57600080fd5b8286015b84811015620002c2578051620002b481620001c7565b83529183019183016200029e565b509695505050505050565b60008060008060808587031215620002e457600080fd5b8451620002f181620001c7565b809450506020808601516200030681620001c7565b60408701519094506001600160401b03808211156200032457600080fd5b818801915088601f8301126200033957600080fd5b81516200034a620002748262000229565b81815260059190911b8301840190848101908b8311156200036a57600080fd5b8585015b838110156200041957805185811115620003885760008081fd5b8601603f81018e136200039b5760008081fd5b8781015186811115620003b257620003b2620001e0565b620003c6601f8201601f19168a01620001f6565b8181528f6040838501011115620003dd5760008081fd5b60005b82811015620003fe57838101604001518282018c01528a01620003e0565b5060009181018a01919091528452509186019186016200036e565b5060608b015190975094505050808311156200043457600080fd5b505062000444878288016200024f565b91505092959194509250565b634e487b7160e01b600052603260045260246000fd5b600181811c908216806200047b57607f821691505b6020821081036200049c57634e487b7160e01b600052602260045260246000fd5b50919050565b601f821115620004f057600081815260208120601f850160051c81016020861015620004cb5750805b601f850160051c820191505b81811015620004ec57828155600101620004d7565b5050505b505050565b81516001600160401b03811115620005115762000511620001e0565b620005298162000522845462000466565b84620004a2565b602080601f831160018114620005615760008415620005485750858301515b600019600386901b1c1916600185901b178555620004ec565b600085815260208120601f198616915b82811015620005925788860151825594840194600190910190840162000571565b5085821015620005b15787850151600019600388901b60f8161c191681555b5050505050600190811b01905550565b600060018201620005e257634e487b7160e01b600052601160045260246000fd5b5060010190565b61062880620005f96000396000f3fe608060405234801561001057600080fd5b50600436106100675760003560e01c80633ccad6fc116100505780633ccad6fc146100a6578063481c6a75146100bb578063bc3a429b146100ce57600080fd5b806317ad94ec1461006c578063297d1a341461009c575b600080fd5b60015461007f906001600160a01b031681565b6040516001600160a01b0390911681526020015b60405180910390f35b6100a46100d6565b005b6100ae6101d8565b6040516100939190610408565b60005461007f906001600160a01b031681565b6100a46102dc565b6001546001600160a01b03163314610174576040517f08c379a000000000000000000000000000000000000000000000000000000000815260206004820152602c60248201527f416464726573734469637461746f723a206f6e6c792063616c6c61626c65206260448201527f792066696e616c4f776e65720000000000000000000000000000000000000000606482015260840160405180910390fd5b60005460015460405163f2fde38b60e01b81526001600160a01b03918216600482015291169063f2fde38b906024015b600060405180830381600087803b1580156101be57600080fd5b505af11580156101d2573d6000803e3d6000fd5b50505050565b60606002805480602002602001604051908101604052809291908181526020016000905b828210156102d3578382906000526020600020906002020160405180604001604052908160008201805461022f906104b6565b80601f016020809104026020016040519081016040528092919081815260200182805461025b906104b6565b80156102a85780601f1061027d576101008083540402835291602001916102a8565b820191906000526020600020905b81548152906001019060200180831161028b57829003601f168201915b50505091835250506001918201546001600160a01b03166020918201529183529290920191016101fc565b50505050905090565b60005b6002548110156103d357600054600280546001600160a01b0390921691639b2ea4bd919084908110610313576103136104f0565b906000526020600020906002020160000160028481548110610337576103376104f0565b60009182526020909120600160029092020101546040517fffffffff0000000000000000000000000000000000000000000000000000000060e085901b16815261038e92916001600160a01b031690600401610506565b600060405180830381600087803b1580156103a857600080fd5b505af11580156103bc573d6000803e3d6000fd5b5050505080806103cb906105cb565b9150506102df565b5060005460015460405163f2fde38b60e01b81526001600160a01b03918216600482015291169063f2fde38b906024016101a4565b60006020808301818452808551808352604092508286019150828160051b8701018488016000805b848110156104a757603f198a8503018652825180518886528051808a880152845b8181101561046d578281018c0151888201606001528b01610451565b508681016060908101869052928b01516001600160a01b03168b880152978a0197601f01601f191690950101935091870191600101610430565b50919998505050505050505050565b600181811c908216806104ca57607f821691505b6020821081036104ea57634e487b7160e01b600052602260045260246000fd5b50919050565b634e487b7160e01b600052603260045260246000fd5b60408152600080845481600182811c91508083168061052657607f831692505b6020808410820361054557634e487b7160e01b86526022600452602486fd5b6040880184905260608801828015610564576001811461057a576105a5565b60ff198716825285151560051b820197506105a5565b60008c81526020902060005b8781101561059f57815484820152908601908401610586565b83019850505b50508596506105be8189018a6001600160a01b03169052565b5050505050509392505050565b6000600182016105eb57634e487b7160e01b600052601160045260246000fd5b506001019056fea264697066735822122031e2b1d839f6a75512391ab8e207189a070bf44e0def03cc66215ab6266a16c464736f6c63430008120033",
  "linkReferences": {},
  "deployedLinkReferences": {}
}