{
  "_format": "hh-sol-artifact-1",
  "contractName": "AddressDictator",
  "sourceName": "contracts/L1/deployment/AddressDictator.sol",
  "abi": [
    {
      "inputs": [
        {
          "internalType": "contract Lib_AddressManager",
          "name": "_manager",
          "type": "address"
        },
        {
          "internalType": "address",
          "name": "_finalOwner",
          "type": "address"
        },
        {
          "internalType": "string[]",
          "name": "_names",
          "type": "string[]"
        },
        {
          "internalType": "address[]",
          "name": "_addresses",
          "type": "address[]"
        }
      ],
      "stateMutability": "nonpayable",
      "type": "constructor"
    },
    {
      "inputs": [],
      "name": "finalOwner",
      "outputs": [
        {
          "internalType": "address",
          "name": "",
          "type": "address"
        }
      ],
      "stateMutability": "view",
      "type": "function"
    },
    {
      "inputs": [],
      "name": "getNamedAddresses",
      "outputs": [
        {
          "components": [
            {
              "internalType": "string",
              "name": "name",
              "type": "string"
            },
            {
              "internalType": "address",
              "name": "addr",
              "type": "address"
            }
          ],
          "internalType": "struct AddressDictator.NamedAddress[]",
          "name": "",
          "type": "tuple[]"
        }
      ],
      "stateMutability": "view",
      "type": "function"
    },
    {
      "inputs": [],
      "name": "manager",
      "outputs": [
        {
          "internalType": "contract Lib_AddressManager",
          "name": "",
          "type": "address"
        }
      ],
      "stateMutability": "view",
      "type": "function"
    },
    {
      "inputs": [],
      "name": "returnOwnership",
      "outputs": [],
      "stateMutability": "nonpayable",
      "type": "function"
    },
    {
      "inputs": [],
      "name": "setAddresses",
      "outputs": [],
      "stateMutability": "nonpayable",
      "type": "function"
    }
  ],
  "bytecode": "0x60806040523480156200001157600080fd5b50604051620016443803806200164483398181016040528101906200003791906200062d565b836000806101000a81548173ffffffffffffffffffffffffffffffffffffffff021916908373ffffffffffffffffffffffffffffffffffffffff16021790555082600160006101000a81548173ffffffffffffffffffffffffffffffffffffffff021916908373ffffffffffffffffffffffffffffffffffffffff1602179055508051825114620000ff576040517f08c379a0000000000000000000000000000000000000000000000000000000008152600401620000f6906200078a565b60405180910390fd5b60005b82518110156200021357600260405180604001604052808584815181106200012f576200012e620007ac565b5b60200260200101518152602001848481518110620001525762000151620007ac565b5b602002602001015173ffffffffffffffffffffffffffffffffffffffff1681525090806001815401808255809150506001900390600052602060002090600202016000909190919091506000820151816000019081620001b3919062000a26565b5060208201518160010160006101000a81548173ffffffffffffffffffffffffffffffffffffffff021916908373ffffffffffffffffffffffffffffffffffffffff160217905550505080806200020a9062000b3c565b91505062000102565b505050505062000b89565b6000604051905090565b600080fd5b600080fd5b600073ffffffffffffffffffffffffffffffffffffffff82169050919050565b60006200025f8262000232565b9050919050565b6000620002738262000252565b9050919050565b620002858162000266565b81146200029157600080fd5b50565b600081519050620002a5816200027a565b92915050565b620002b68162000252565b8114620002c257600080fd5b50565b600081519050620002d681620002ab565b92915050565b600080fd5b6000601f19601f8301169050919050565b7f4e487b7100000000000000000000000000000000000000000000000000000000600052604160045260246000fd5b6200032c82620002e1565b810181811067ffffffffffffffff821117156200034e576200034d620002f2565b5b80604052505050565b6000620003636200021e565b905062000371828262000321565b919050565b600067ffffffffffffffff821115620003945762000393620002f2565b5b602082029050602081019050919050565b600080fd5b600080fd5b600067ffffffffffffffff821115620003cd57620003cc620002f2565b5b620003d882620002e1565b9050602081019050919050565b60005b8381101562000405578082015181840152602081019050620003e8565b60008484015250505050565b6000620004286200042284620003af565b62000357565b905082815260208101848484011115620004475762000446620003aa565b5b62000454848285620003e5565b509392505050565b600082601f830112620004745762000473620002dc565b5b81516200048684826020860162000411565b91505092915050565b6000620004a6620004a08462000376565b62000357565b90508083825260208201905060208402830185811115620004cc57620004cb620003a5565b5b835b818110156200051a57805167ffffffffffffffff811115620004f557620004f4620002dc565b5b8086016200050489826200045c565b85526020850194505050602081019050620004ce565b5050509392505050565b600082601f8301126200053c576200053b620002dc565b5b81516200054e8482602086016200048f565b91505092915050565b600067ffffffffffffffff821115620005755762000574620002f2565b5b602082029050602081019050919050565b60006200059d620005978462000557565b62000357565b90508083825260208201905060208402830185811115620005c357620005c2620003a5565b5b835b81811015620005f05780620005db8882620002c5565b845260208401935050602081019050620005c5565b5050509392505050565b600082601f830112620006125762000611620002dc565b5b81516200062484826020860162000586565b91505092915050565b600080600080608085870312156200064a576200064962000228565b5b60006200065a8782880162000294565b94505060206200066d87828801620002c5565b935050604085015167ffffffffffffffff8111156200069157620006906200022d565b5b6200069f8782880162000524565b925050606085015167ffffffffffffffff811115620006c357620006c26200022d565b5b620006d187828801620005fa565b91505092959194509250565b600082825260208201905092915050565b7f416464726573734469637461746f723a204d7573742070726f7669646520616e60008201527f20657175616c206e756d626572206f66206e616d657320616e6420616464726560208201527f737365732e000000000000000000000000000000000000000000000000000000604082015250565b600062000772604583620006dd565b91506200077f82620006ee565b606082019050919050565b60006020820190508181036000830152620007a58162000763565b9050919050565b7f4e487b7100000000000000000000000000000000000000000000000000000000600052603260045260246000fd5b600081519050919050565b7f4e487b7100000000000000000000000000000000000000000000000000000000600052602260045260246000fd5b600060028204905060018216806200082e57607f821691505b602082108103620008445762000843620007e6565b5b50919050565b60008190508160005260206000209050919050565b60006020601f8301049050919050565b600082821b905092915050565b600060088302620008ae7fffffffffffffffffffffffffffffffffffffffffffffffffffffffffffffffff826200086f565b620008ba86836200086f565b95508019841693508086168417925050509392505050565b6000819050919050565b6000819050919050565b60006200090762000901620008fb84620008d2565b620008dc565b620008d2565b9050919050565b6000819050919050565b6200092383620008e6565b6200093b62000932826200090e565b8484546200087c565b825550505050565b600090565b6200095262000943565b6200095f81848462000918565b505050565b5b8181101562000987576200097b60008262000948565b60018101905062000965565b5050565b601f821115620009d657620009a0816200084a565b620009ab846200085f565b81016020851015620009bb578190505b620009d3620009ca856200085f565b83018262000964565b50505b505050565b600082821c905092915050565b6000620009fb60001984600802620009db565b1980831691505092915050565b600062000a168383620009e8565b9150826002028217905092915050565b62000a3182620007db565b67ffffffffffffffff81111562000a4d5762000a4c620002f2565b5b62000a59825462000815565b62000a668282856200098b565b600060209050601f83116001811462000a9e576000841562000a89578287015190505b62000a95858262000a08565b86555062000b05565b601f19841662000aae866200084a565b60005b8281101562000ad85784890151825560018201915060208501945060208101905062000ab1565b8683101562000af8578489015162000af4601f891682620009e8565b8355505b6001600288020188555050505b505050505050565b7f4e487b7100000000000000000000000000000000000000000000000000000000600052601160045260246000fd5b600062000b4982620008d2565b91507fffffffffffffffffffffffffffffffffffffffffffffffffffffffffffffffff820362000b7e5762000b7d62000b0d565b5b600182019050919050565b610aab8062000b996000396000f3fe608060405234801561001057600080fd5b50600436106100575760003560e01c806317ad94ec1461005c578063297d1a341461007a5780633ccad6fc14610084578063481c6a75146100a2578063bc3a429b146100c0575b600080fd5b6100646100ca565b60405161007191906105a4565b60405180910390f35b6100826100f0565b005b61008c61022f565b604051610099919061075d565b60405180910390f35b6100aa610376565b6040516100b791906107de565b60405180910390f35b6100c861039a565b005b600160009054906101000a900473ffffffffffffffffffffffffffffffffffffffff1681565b600160009054906101000a900473ffffffffffffffffffffffffffffffffffffffff1673ffffffffffffffffffffffffffffffffffffffff163373ffffffffffffffffffffffffffffffffffffffff1614610180576040517f08c379a00000000000000000000000000000000000000000000000000000000081526004016101779061087c565b60405180910390fd5b60008054906101000a900473ffffffffffffffffffffffffffffffffffffffff1673ffffffffffffffffffffffffffffffffffffffff1663f2fde38b600160009054906101000a900473ffffffffffffffffffffffffffffffffffffffff166040518263ffffffff1660e01b81526004016101fb91906105a4565b600060405180830381600087803b15801561021557600080fd5b505af1158015610229573d6000803e3d6000fd5b50505050565b60606002805480602002602001604051908101604052809291908181526020016000905b8282101561036d5783829060005260206000209060020201604051806040016040529081600082018054610286906108cb565b80601f01602080910402602001604051908101604052809291908181526020018280546102b2906108cb565b80156102ff5780601f106102d4576101008083540402835291602001916102ff565b820191906000526020600020905b8154815290600101906020018083116102e257829003601f168201915b505050505081526020016001820160009054906101000a900473ffffffffffffffffffffffffffffffffffffffff1673ffffffffffffffffffffffffffffffffffffffff1673ffffffffffffffffffffffffffffffffffffffff168152505081526020019060010190610253565b50505050905090565b60008054906101000a900473ffffffffffffffffffffffffffffffffffffffff1681565b60005b6002805490508110156104b35760008054906101000a900473ffffffffffffffffffffffffffffffffffffffff1673ffffffffffffffffffffffffffffffffffffffff16639b2ea4bd600283815481106103fa576103f96108fc565b5b90600052602060002090600202016000016002848154811061041f5761041e6108fc565b5b906000526020600020906002020160010160009054906101000a900473ffffffffffffffffffffffffffffffffffffffff166040518363ffffffff1660e01b815260040161046e9291906109c4565b600060405180830381600087803b15801561048857600080fd5b505af115801561049c573d6000803e3d6000fd5b5050505080806104ab90610a2d565b91505061039d565b5060008054906101000a900473ffffffffffffffffffffffffffffffffffffffff1673ffffffffffffffffffffffffffffffffffffffff1663f2fde38b600160009054906101000a900473ffffffffffffffffffffffffffffffffffffffff166040518263ffffffff1660e01b815260040161052f91906105a4565b600060405180830381600087803b15801561054957600080fd5b505af115801561055d573d6000803e3d6000fd5b50505050565b600073ffffffffffffffffffffffffffffffffffffffff82169050919050565b600061058e82610563565b9050919050565b61059e81610583565b82525050565b60006020820190506105b96000830184610595565b92915050565b600081519050919050565b600082825260208201905092915050565b6000819050602082019050919050565b600081519050919050565b600082825260208201905092915050565b60005b8381101561062557808201518184015260208101905061060a565b60008484015250505050565b6000601f19601f8301169050919050565b600061064d826105eb565b61065781856105f6565b9350610667818560208601610607565b61067081610631565b840191505092915050565b61068481610583565b82525050565b600060408301600083015184820360008601526106a78282610642565b91505060208301516106bc602086018261067b565b508091505092915050565b60006106d3838361068a565b905092915050565b6000602082019050919050565b60006106f3826105bf565b6106fd81856105ca565b93508360208202850161070f856105db565b8060005b8581101561074b578484038952815161072c85826106c7565b9450610737836106db565b925060208a01995050600181019050610713565b50829750879550505050505092915050565b6000602082019050818103600083015261077781846106e8565b905092915050565b6000819050919050565b60006107a461079f61079a84610563565b61077f565b610563565b9050919050565b60006107b682610789565b9050919050565b60006107c8826107ab565b9050919050565b6107d8816107bd565b82525050565b60006020820190506107f360008301846107cf565b92915050565b600082825260208201905092915050565b7f416464726573734469637461746f723a206f6e6c792063616c6c61626c65206260008201527f792066696e616c4f776e65720000000000000000000000000000000000000000602082015250565b6000610866602c836107f9565b91506108718261080a565b604082019050919050565b6000602082019050818103600083015261089581610859565b9050919050565b7f4e487b7100000000000000000000000000000000000000000000000000000000600052602260045260246000fd5b600060028204905060018216806108e357607f821691505b6020821081036108f6576108f561089c565b5b50919050565b7f4e487b7100000000000000000000000000000000000000000000000000000000600052603260045260246000fd5b60008190508160005260206000209050919050565b6000815461094d816108cb565b61095781866107f9565b945060018216600081146109725760018114610988576109bb565b60ff1983168652811515602002860193506109bb565b6109918561092b565b60005b838110156109b357815481890152600182019150602081019050610994565b808801955050505b50505092915050565b600060408201905081810360008301526109de8185610940565b90506109ed6020830184610595565b9392505050565b7f4e487b7100000000000000000000000000000000000000000000000000000000600052601160045260246000fd5b6000819050919050565b6000610a3882610a23565b91507fffffffffffffffffffffffffffffffffffffffffffffffffffffffffffffffff8203610a6a57610a696109f4565b5b60018201905091905056fea264697066735822122013ccddc8a9b6ea792db25e6f80b218c994c5fcb3b29eec1b163802c4843a31f464736f6c63430008120033",
  "linkReferences": {},
  "deployedLinkReferences": {}
}