{"contracts/messaging/connectors/optimism/OptimismHubConnector.sol":{"OptimismHubConnector":{"abi":[{"inputs":[{"internalType":"uint32","name":"_domain","type":"uint32"},{"internalType":"uint32","name":"_mirrorDomain","type":"uint32"},{"internalType":"address","name":"_amb","type":"address"},{"internalType":"address","name":"_rootManager","type":"address"},{"internalType":"address","name":"_mirrorConnector","type":"address"},{"internalType":"address","name":"_stateCommitmentChain","type":"address"},{"internalType":"uint256","name":"_gasCap","type":"uint256"}],"stateMutability":"nonpayable","type":"constructor"},{"inputs":[],"name":"Connector__processMessage_notUsed","type":"error"},{"inputs":[],"name":"ProposedOwnable__onlyOwner_notOwner","type":"error"},{"inputs":[],"name":"ProposedOwnable__onlyProposed_notProposedOwner","type":"error"},{"inputs":[],"name":"ProposedOwnable__ownershipDelayElapsed_delayNotElapsed","type":"error"},{"inputs":[],"name":"ProposedOwnable__proposeNewOwner_invalidProposal","type":"error"},{"inputs":[],"name":"ProposedOwnable__proposeNewOwner_noOwnershipChange","type":"error"},{"inputs":[],"name":"ProposedOwnable__renounceOwnership_invalidProposal","type":"error"},{"inputs":[],"name":"ProposedOwnable__renounceOwnership_noProposal","type":"error"},{"inputs":[],"name":"TypedMemView__index_indexMoreThan32Bytes","type":"error"},{"inputs":[{"internalType":"uint256","name":"loc","type":"uint256"},{"internalType":"uint256","name":"len","type":"uint256"},{"internalType":"uint256","name":"index","type":"uint256"},{"internalType":"uint256","name":"slice","type":"uint256"}],"name":"TypedMemView__index_overrun","type":"error"},{"anonymous":false,"inputs":[{"indexed":false,"internalType":"uint256","name":"_previous","type":"uint256"},{"indexed":false,"internalType":"uint256","name":"_updated","type":"uint256"}],"name":"GasCapUpdated","type":"event"},{"anonymous":false,"inputs":[{"indexed":false,"internalType":"bytes","name":"data","type":"bytes"},{"indexed":false,"internalType":"address","name":"caller","type":"address"}],"name":"MessageProcessed","type":"event"},{"anonymous":false,"inputs":[{"indexed":false,"internalType":"bytes","name":"data","type":"bytes"},{"indexed":false,"internalType":"bytes","name":"encodedData","type":"bytes"},{"indexed":false,"internalType":"address","name":"caller","type":"address"}],"name":"MessageSent","type":"event"},{"anonymous":false,"inputs":[{"indexed":false,"internalType":"address","name":"previous","type":"address"},{"indexed":false,"internalType":"address","name":"current","type":"address"}],"name":"MirrorConnectorUpdated","type":"event"},{"anonymous":false,"inputs":[{"indexed":true,"internalType":"uint32","name":"domain","type":"uint32"},{"indexed":true,"internalType":"uint32","name":"mirrorDomain","type":"uint32"},{"indexed":false,"internalType":"address","name":"amb","type":"address"},{"indexed":false,"internalType":"address","name":"rootManager","type":"address"},{"indexed":false,"internalType":"address","name":"mirrorConnector","type":"address"}],"name":"NewConnector","type":"event"},{"anonymous":false,"inputs":[{"indexed":true,"internalType":"address","name":"proposedOwner","type":"address"}],"name":"OwnershipProposed","type":"event"},{"anonymous":false,"inputs":[{"indexed":true,"internalType":"address","name":"previousOwner","type":"address"},{"indexed":true,"internalType":"address","name":"newOwner","type":"address"}],"name":"OwnershipTransferred","type":"event"},{"inputs":[],"name":"AMB","outputs":[{"internalType":"address","name":"","type":"address"}],"stateMutability":"view","type":"function"},{"inputs":[],"name":"DOMAIN","outputs":[{"internalType":"uint32","name":"","type":"uint32"}],"stateMutability":"view","type":"function"},{"inputs":[],"name":"MIRROR_DOMAIN","outputs":[{"internalType":"uint32","name":"","type":"uint32"}],"stateMutability":"view","type":"function"},{"inputs":[],"name":"ROOT_MANAGER","outputs":[{"internalType":"address","name":"","type":"address"}],"stateMutability":"view","type":"function"},{"inputs":[],"name":"acceptProposedOwner","outputs":[],"stateMutability":"nonpayable","type":"function"},{"inputs":[],"name":"delay","outputs":[{"internalType":"uint256","name":"","type":"uint256"}],"stateMutability":"view","type":"function"},{"inputs":[],"name":"mirrorConnector","outputs":[{"internalType":"address","name":"","type":"address"}],"stateMutability":"view","type":"function"},{"inputs":[],"name":"owner","outputs":[{"internalType":"address","name":"","type":"address"}],"stateMutability":"view","type":"function"},{"inputs":[{"internalType":"bytes","name":"_data","type":"bytes"}],"name":"processMessage","outputs":[],"stateMutability":"nonpayable","type":"function"},{"inputs":[{"internalType":"address","name":"_target","type":"address"},{"internalType":"address","name":"_sender","type":"address"},{"internalType":"bytes","name":"_message","type":"bytes"},{"internalType":"uint256","name":"_messageNonce","type":"uint256"},{"components":[{"internalType":"bytes32","name":"stateRoot","type":"bytes32"},{"components":[{"internalType":"uint256","name":"batchIndex","type":"uint256"},{"internalType":"bytes32","name":"batchRoot","type":"bytes32"},{"internalType":"uint256","name":"batchSize","type":"uint256"},{"internalType":"uint256","name":"prevTotalElements","type":"uint256"},{"internalType":"bytes","name":"extraData","type":"bytes"}],"internalType":"struct ChainBatchHeader","name":"stateRootBatchHeader","type":"tuple"},{"components":[{"internalType":"uint256","name":"index","type":"uint256"},{"internalType":"bytes32[]","name":"siblings","type":"bytes32[]"}],"internalType":"struct ChainInclusionProof","name":"stateRootProof","type":"tuple"},{"internalType":"bytes","name":"stateTrieWitness","type":"bytes"},{"internalType":"bytes","name":"storageTrieWitness","type":"bytes"}],"internalType":"struct L2MessageInclusionProof","name":"_proof","type":"tuple"}],"name":"processMessageFromRoot","outputs":[],"stateMutability":"nonpayable","type":"function"},{"inputs":[{"internalType":"bytes32","name":"","type":"bytes32"}],"name":"processed","outputs":[{"internalType":"bool","name":"","type":"bool"}],"stateMutability":"view","type":"function"},{"inputs":[{"internalType":"address","name":"newlyProposed","type":"address"}],"name":"proposeNewOwner","outputs":[],"stateMutability":"nonpayable","type":"function"},{"inputs":[],"name":"proposed","outputs":[{"internalType":"address","name":"","type":"address"}],"stateMutability":"view","type":"function"},{"inputs":[],"name":"proposedTimestamp","outputs":[{"internalType":"uint256","name":"","type":"uint256"}],"stateMutability":"view","type":"function"},{"inputs":[],"name":"renounceOwnership","outputs":[],"stateMutability":"nonpayable","type":"function"},{"inputs":[],"name":"renounced","outputs":[{"internalType":"bool","name":"","type":"bool"}],"stateMutability":"view","type":"function"},{"inputs":[{"internalType":"bytes","name":"_data","type":"bytes"},{"internalType":"bytes","name":"_encodedData","type":"bytes"}],"name":"sendMessage","outputs":[],"stateMutability":"payable","type":"function"},{"inputs":[{"internalType":"uint256","name":"_gasCap","type":"uint256"}],"name":"setGasCap","outputs":[],"stateMutability":"nonpayable","type":"function"},{"inputs":[{"internalType":"address","name":"_mirrorConnector","type":"address"}],"name":"setMirrorConnector","outputs":[],"stateMutability":"nonpayable","type":"function"},{"inputs":[],"name":"stateCommitmentChain","outputs":[{"internalType":"contract IStateCommitmentChain","name":"","type":"address"}],"stateMutability":"view","type":"function"},{"inputs":[{"internalType":"address","name":"_expected","type":"address"}],"name":"verifySender","outputs":[{"internalType":"bool","name":"","type":"bool"}],"stateMutability":"nonpayable","type":"function"},{"stateMutability":"payable","type":"receive"}],"evm":{"bytecode":{"linkReferences":{},"object":"6101206040523480156200001257600080fd5b50604051620057273803806200572783398181016040528101906200003891906200054a565b80808888888888848484848462000055336200029460201b60201c565b60008563ffffffff1603620000a1576040517f08c379a000000000000000000000000000000000000000000000000000000000815260040162000098906200065e565b60405180910390fd5b600073ffffffffffffffffffffffffffffffffffffffff168273ffffffffffffffffffffffffffffffffffffffff160362000113576040517f08c379a00000000000000000000000000000000000000000000000000000000081526004016200010a90620006d0565b60405180910390fd5b8463ffffffff1660808163ffffffff16815250508273ffffffffffffffffffffffffffffffffffffffff1660a08173ffffffffffffffffffffffffffffffffffffffff16815250508173ffffffffffffffffffffffffffffffffffffffff1660c08173ffffffffffffffffffffffffffffffffffffffff16815250508363ffffffff1660e08163ffffffff1681525050600073ffffffffffffffffffffffffffffffffffffffff168173ffffffffffffffffffffffffffffffffffffffff1614620001ea57620001e9816200037c60201b60201c565b5b8363ffffffff168563ffffffff167f4f9c27c2fe3f84576ea469d367d044da53c45e951617e8389f2b5ed8db9d25f08585856040516200022d9392919062000703565b60405180910390a35050505050505050505062000250816200041d60201b60201c565b50508173ffffffffffffffffffffffffffffffffffffffff166101008173ffffffffffffffffffffffffffffffffffffffff168152505050505050505050620007ab565b8073ffffffffffffffffffffffffffffffffffffffff1660008054906101000a900473ffffffffffffffffffffffffffffffffffffffff1673ffffffffffffffffffffffffffffffffffffffff167f8be0079c531659141344cd1fd0a4f28419497f9722a3daafe3b4186f6b6457e060405160405180910390a3806000806101000a81548173ffffffffffffffffffffffffffffffffffffffff021916908373ffffffffffffffffffffffffffffffffffffffff160217905550600260009055600160006101000a81549073ffffffffffffffffffffffffffffffffffffffff021916905550565b7fc77bec288fc88f168427f2f7da682eadb26cac89d8d591af6e443da98dff2bbc600360009054906101000a900473ffffffffffffffffffffffffffffffffffffffff1682604051620003d192919062000740565b60405180910390a180600360006101000a81548173ffffffffffffffffffffffffffffffffffffffff021916908373ffffffffffffffffffffffffffffffffffffffff16021790555050565b7f877a02cb809da0364d23adca3cd50c451b53f279d3df632e1fc11eb66335bce560045482604051620004529291906200077e565b60405180910390a18060048190555050565b600080fd5b600063ffffffff82169050919050565b620004848162000469565b81146200049057600080fd5b50565b600081519050620004a48162000479565b92915050565b600073ffffffffffffffffffffffffffffffffffffffff82169050919050565b6000620004d782620004aa565b9050919050565b620004e981620004ca565b8114620004f557600080fd5b50565b6000815190506200050981620004de565b92915050565b6000819050919050565b62000524816200050f565b81146200053057600080fd5b50565b600081519050620005448162000519565b92915050565b600080600080600080600060e0888a0312156200056c576200056b62000464565b5b60006200057c8a828b0162000493565b97505060206200058f8a828b0162000493565b9650506040620005a28a828b01620004f8565b9550506060620005b58a828b01620004f8565b9450506080620005c88a828b01620004f8565b93505060a0620005db8a828b01620004f8565b92505060c0620005ee8a828b0162000533565b91505092959891949750929550565b600082825260208201905092915050565b7f656d70747920646f6d61696e0000000000000000000000000000000000000000600082015250565b600062000646600c83620005fd565b915062000653826200060e565b602082019050919050565b60006020820190508181036000830152620006798162000637565b9050919050565b7f656d70747920726f6f744d616e61676572000000000000000000000000000000600082015250565b6000620006b8601183620005fd565b9150620006c58262000680565b602082019050919050565b60006020820190508181036000830152620006eb81620006a9565b9050919050565b620006fd81620004ca565b82525050565b60006060820190506200071a6000830186620006f2565b620007296020830185620006f2565b620007386040830184620006f2565b949350505050565b6000604082019050620007576000830185620006f2565b620007666020830184620006f2565b9392505050565b62000778816200050f565b82525050565b60006040820190506200079560008301856200076d565b620007a460208301846200076d565b9392505050565b60805160a05160c05160e05161010051614f0662000821600039600081816104a601526116fd0152600081816104ca01526109ca0152600081816104f801528181610757015261098e0152600081816105cf015281816110660152818161115a01526116cd015260006106a20152614f066000f3fe60806040526004361061012e5760003560e01c8063715018a6116100ab578063c5b350df1161006f578063c5b350df146103a4578063cc394283146103bb578063d1851c92146103e6578063d232c22014610411578063d69f9d611461043c578063db1b76591461046757610135565b8063715018a6146102d35780637850b020146102ea5780638da5cb5b14610313578063b1f8100d1461033e578063c1f0808a1461036757610135565b806352a9674b116100f257806352a9674b146102005780635bd11efc1461022b5780635f61e3ec146102545780636a42b8f81461027f5780636e2edb4e146102aa57610135565b80630f329ef81461013a57806314168416146101655780633cf52ffb1461019057806348e6fa23146101bb5780634ff746f6146101d757610135565b3661013557005b600080fd5b34801561014657600080fd5b5061014f6104a4565b60405161015c9190613111565b60405180910390f35b34801561017157600080fd5b5061017a6104c8565b604051610187919061314b565b60405180910390f35b34801561019c57600080fd5b506101a56104ec565b6040516101b2919061317f565b60405180910390f35b6101d560048036038101906101d091906132f4565b6104f6565b005b3480156101e357600080fd5b506101fe60048036038101906101f9919061336c565b6105cd565b005b34801561020c57600080fd5b506102156106a0565b604051610222919061314b565b60405180910390f35b34801561023757600080fd5b50610252600480360381019061024d91906133f3565b6106c4565b005b34801561026057600080fd5b50610269610755565b604051610276919061342f565b60405180910390f35b34801561028b57600080fd5b50610294610779565b6040516102a1919061317f565b60405180910390f35b3480156102b657600080fd5b506102d160048036038101906102cc919061378e565b610784565b005b3480156102df57600080fd5b506102e8610a9c565b005b3480156102f657600080fd5b50610311600480360381019061030c9190613841565b610c3a565b005b34801561031f57600080fd5b50610328610ccb565b604051610335919061342f565b60405180910390f35b34801561034a57600080fd5b50610365600480360381019061036091906133f3565b610cf4565b005b34801561037357600080fd5b5061038e6004803603810190610389919061386e565b610ea1565b60405161039b91906138b6565b60405180910390f35b3480156103b057600080fd5b506103b9610ec1565b005b3480156103c757600080fd5b506103d0610fbe565b6040516103dd919061342f565b60405180910390f35b3480156103f257600080fd5b506103fb610fe4565b604051610408919061342f565b60405180910390f35b34801561041d57600080fd5b5061042661100e565b60405161043391906138b6565b60405180910390f35b34801561044857600080fd5b50610451611064565b60405161045e919061342f565b60405180910390f35b34801561047357600080fd5b5061048e600480360381019061048991906133f3565b611088565b60405161049b91906138b6565b60405180910390f35b7f000000000000000000000000000000000000000000000000000000000000000081565b7f000000000000000000000000000000000000000000000000000000000000000081565b6000600254905090565b7f000000000000000000000000000000000000000000000000000000000000000073ffffffffffffffffffffffffffffffffffffffff163373ffffffffffffffffffffffffffffffffffffffff1614610584576040517f08c379a000000000000000000000000000000000000000000000000000000000815260040161057b9061392e565b60405180910390fd5b61058e828261109a565b7fdcaa37a042a0087de79018c629bbd29cee82ca80bd9be394e1696bf9e93550778282336040516105c1939291906139cd565b60405180910390a15050565b7f000000000000000000000000000000000000000000000000000000000000000073ffffffffffffffffffffffffffffffffffffffff163373ffffffffffffffffffffffffffffffffffffffff161461065b576040517f08c379a000000000000000000000000000000000000000000000000000000000815260040161065290613a5e565b60405180910390fd5b61066481611210565b7fb3abc57bfeebd2cac918901db582f71972a8e628bccf19f5ae3e3482b98a5ced8133604051610695929190613a7e565b60405180910390a150565b7f000000000000000000000000000000000000000000000000000000000000000081565b3373ffffffffffffffffffffffffffffffffffffffff1660008054906101000a900473ffffffffffffffffffffffffffffffffffffffff1673ffffffffffffffffffffffffffffffffffffffff1614610749576040517f8d450dd800000000000000000000000000000000000000000000000000000000815260040160405180910390fd5b61075281611242565b50565b7f000000000000000000000000000000000000000000000000000000000000000081565b600062093a80905090565b600360009054906101000a900473ffffffffffffffffffffffffffffffffffffffff1673ffffffffffffffffffffffffffffffffffffffff168473ffffffffffffffffffffffffffffffffffffffff1614610814576040517f08c379a000000000000000000000000000000000000000000000000000000000815260040161080b90613afa565b60405180910390fd5b3073ffffffffffffffffffffffffffffffffffffffff168573ffffffffffffffffffffffffffffffffffffffff1614610882576040517f08c379a000000000000000000000000000000000000000000000000000000000815260040161087990613b66565b60405180910390fd5b6000610890868686866112e1565b905061089c8183611381565b6108db576040517f08c379a00000000000000000000000000000000000000000000000000000000081526004016108d290613bd2565b60405180910390fd5b60006108f16000866113a690919063ffffffff16565b9050600061093960206109098462ffffff19166113d1565b6109139190613c39565b6bffffffffffffffffffffffff1660208462ffffff19166113f19092919063ffffffff16565b90506005600082815260200190815260200160002060009054906101000a900460ff16610a925760016005600083815260200190815260200160002060006101000a81548160ff0219169083151502179055507f000000000000000000000000000000000000000000000000000000000000000073ffffffffffffffffffffffffffffffffffffffff16638e7d93fa7f0000000000000000000000000000000000000000000000000000000000000000836040518363ffffffff1660e01b8152600401610a07929190613c88565b600060405180830381600087803b158015610a2157600080fd5b505af1158015610a35573d6000803e3d6000fd5b505050507fb3abc57bfeebd2cac918901db582f71972a8e628bccf19f5ae3e3482b98a5ced81604051602001610a6b9190613cb1565b60405160208183030381529060405233604051610a89929190613a7e565b60405180910390a15b5050505050505050565b3373ffffffffffffffffffffffffffffffffffffffff1660008054906101000a900473ffffffffffffffffffffffffffffffffffffffff1673ffffffffffffffffffffffffffffffffffffffff1614610b21576040517f8d450dd800000000000000000000000000000000000000000000000000000000815260040160405180910390fd5b62093a8060025442610b339190613ccc565b11610b6a576040517f9380a17c00000000000000000000000000000000000000000000000000000000815260040160405180910390fd5b600060025403610ba6576040517f392cc0fc00000000000000000000000000000000000000000000000000000000815260040160405180910390fd5b600073ffffffffffffffffffffffffffffffffffffffff16600160009054906101000a900473ffffffffffffffffffffffffffffffffffffffff1673ffffffffffffffffffffffffffffffffffffffff1614610c2e576040517f23295ef900000000000000000000000000000000000000000000000000000000815260040160405180910390fd5b610c38600061150b565b565b3373ffffffffffffffffffffffffffffffffffffffff1660008054906101000a900473ffffffffffffffffffffffffffffffffffffffff1673ffffffffffffffffffffffffffffffffffffffff1614610cbf576040517f8d450dd800000000000000000000000000000000000000000000000000000000815260040160405180910390fd5b610cc8816115f3565b50565b60008060009054906101000a900473ffffffffffffffffffffffffffffffffffffffff16905090565b3373ffffffffffffffffffffffffffffffffffffffff1660008054906101000a900473ffffffffffffffffffffffffffffffffffffffff1673ffffffffffffffffffffffffffffffffffffffff1614610d79576040517f8d450dd800000000000000000000000000000000000000000000000000000000815260040160405180910390fd5b8073ffffffffffffffffffffffffffffffffffffffff16600160009054906101000a900473ffffffffffffffffffffffffffffffffffffffff1673ffffffffffffffffffffffffffffffffffffffff16148015610dd95750600060025414155b15610e10576040517f23780cca00000000000000000000000000000000000000000000000000000000815260040160405180910390fd5b8073ffffffffffffffffffffffffffffffffffffffff1660008054906101000a900473ffffffffffffffffffffffffffffffffffffffff1673ffffffffffffffffffffffffffffffffffffffff1603610e95576040517f945f6e7e00000000000000000000000000000000000000000000000000000000815260040160405180910390fd5b610e9e81611638565b50565b60056020528060005260406000206000915054906101000a900460ff1681565b3373ffffffffffffffffffffffffffffffffffffffff16600160009054906101000a900473ffffffffffffffffffffffffffffffffffffffff1673ffffffffffffffffffffffffffffffffffffffff1614610f48576040517f234fe4e200000000000000000000000000000000000000000000000000000000815260040160405180910390fd5b62093a8060025442610f5a9190613ccc565b11610f91576040517f9380a17c00000000000000000000000000000000000000000000000000000000815260040160405180910390fd5b610fbc600160009054906101000a900473ffffffffffffffffffffffffffffffffffffffff1661150b565b565b600360009054906101000a900473ffffffffffffffffffffffffffffffffffffffff1681565b6000600160009054906101000a900473ffffffffffffffffffffffffffffffffffffffff16905090565b60008073ffffffffffffffffffffffffffffffffffffffff1660008054906101000a900473ffffffffffffffffffffffffffffffffffffffff1673ffffffffffffffffffffffffffffffffffffffff1614905090565b7f000000000000000000000000000000000000000000000000000000000000000081565b6000611093826116c6565b9050919050565b60208251146110de576040517f08c379a00000000000000000000000000000000000000000000000000000000081526004016110d590613d4c565b60405180910390fd5b6000634ff746f660e01b836040516024016110f99190613d6c565b604051602081830303815290604052907bffffffffffffffffffffffffffffffffffffffffffffffffffffffff19166020820180517bffffffffffffffffffffffffffffffffffffffffffffffffffffffff838183161783525050505090507f000000000000000000000000000000000000000000000000000000000000000073ffffffffffffffffffffffffffffffffffffffff16633dbb202b600360009054906101000a900473ffffffffffffffffffffffffffffffffffffffff16836004546040518463ffffffff1660e01b81526004016111d993929190613d8e565b600060405180830381600087803b1580156111f357600080fd5b505af1158015611207573d6000803e3d6000fd5b50505050505050565b6040517f5b0bf6d400000000000000000000000000000000000000000000000000000000815260040160405180910390fd5b7fc77bec288fc88f168427f2f7da682eadb26cac89d8d591af6e443da98dff2bbc600360009054906101000a900473ffffffffffffffffffffffffffffffffffffffff1682604051611295929190613dcc565b60405180910390a180600360006101000a81548173ffffffffffffffffffffffffffffffffffffffff021916908373ffffffffffffffffffffffffffffffffffffffff16021790555050565b6060848484846040516024016112fa9493929190613df5565b6040516020818303038152906040527fcbd4ece9000000000000000000000000000000000000000000000000000000007bffffffffffffffffffffffffffffffffffffffffffffffffffffffff19166020820180517bffffffffffffffffffffffffffffffffffffffffffffffffffffffff83818316178352505050509050949350505050565b600061138c826116f9565b801561139e575061139d83836117ac565b5b905092915050565b6000808351905060006020850190506113c78464ffffffffff168284611917565b9250505092915050565b6000806bffffffffffffffffffffffff9050808360181c16915050919050565b6000808260ff1603611408576000801b9050611504565b611411846113d1565b6bffffffffffffffffffffffff168260ff168461142e9190613e41565b111561148a5761143d8461197e565b611446856113d1565b848460ff166040517f78218d290000000000000000000000000000000000000000000000000000000081526004016114819493929190613ea6565b60405180910390fd5b60208260ff1611156114c8576040517f045df3f900000000000000000000000000000000000000000000000000000000815260040160405180910390fd5b600060088302905060006114db8661197e565b6bffffffffffffffffffffffff16905060006114f68361199e565b905080868301511693505050505b9392505050565b8073ffffffffffffffffffffffffffffffffffffffff1660008054906101000a900473ffffffffffffffffffffffffffffffffffffffff1673ffffffffffffffffffffffffffffffffffffffff167f8be0079c531659141344cd1fd0a4f28419497f9722a3daafe3b4186f6b6457e060405160405180910390a3806000806101000a81548173ffffffffffffffffffffffffffffffffffffffff021916908373ffffffffffffffffffffffffffffffffffffffff160217905550600260009055600160006101000a81549073ffffffffffffffffffffffffffffffffffffffff021916905550565b7f877a02cb809da0364d23adca3cd50c451b53f279d3df632e1fc11eb66335bce560045482604051611626929190613eeb565b60405180910390a18060048190555050565b4260028190555080600160006101000a81548173ffffffffffffffffffffffffffffffffffffffff021916908373ffffffffffffffffffffffffffffffffffffffff1602179055508073ffffffffffffffffffffffffffffffffffffffff167f6ab4d119f23076e8ad491bc65ce85f017fb0591dce08755ba8591059cc51737a60405160405180910390a250565b60006116f27f0000000000000000000000000000000000000000000000000000000000000000836119cd565b9050919050565b60007f000000000000000000000000000000000000000000000000000000000000000073ffffffffffffffffffffffffffffffffffffffff16634d69ee578360000151846020015185604001516040518463ffffffff1660e01b8152600401611764939291906140de565b602060405180830381865afa158015611781573d6000803e3d6000fd5b505050506040513d601f19601f820116820180604052508101906117a5919061414f565b9050919050565b600080837342000000000000000000000000000000000000076040516020016117d6929190614200565b6040516020818303038152906040528051906020012060006040516020016117ff92919061426a565b6040516020818303038152906040528051906020012090506000806118607342000000000000000000000000000000000000006040516020016118429190614296565b60405160208183030381529060405286606001518760000151611ae2565b9150915060011515821515146118ab576040517f08c379a00000000000000000000000000000000000000000000000000000000081526004016118a290614349565b60405180910390fd5b60006118b682611b0b565b905061190b846040516020016118cc9190614369565b60405160208183030381529060405260016040516020016118ed91906143c7565b60405160208183030381529060405288608001518460400151611bd5565b94505050505092915050565b60008082846119269190613e41565b905060405181111561193757600090505b60008103611968577fffffffffffffffffffffffffffffffffffffffffffffffffffffffffff000000915050611977565b611973858585611bfa565b9150505b9392505050565b6000806bffffffffffffffffffffffff9050808360781c16915050919050565b60007f8000000000000000000000000000000000000000000000000000000000000000600183031d9050919050565b60008273ffffffffffffffffffffffffffffffffffffffff163373ffffffffffffffffffffffffffffffffffffffff1614611a3d576040517f08c379a0000000000000000000000000000000000000000000000000000000008152600401611a349061442e565b60405180910390fd5b8173ffffffffffffffffffffffffffffffffffffffff168373ffffffffffffffffffffffffffffffffffffffff16636e296e456040518163ffffffff1660e01b8152600401602060405180830381865afa158015611a9f573d6000803e3d6000fd5b505050506040513d601f19601f82011682018060405250810190611ac39190614463565b73ffffffffffffffffffffffffffffffffffffffff1614905092915050565b600060606000611af186611c98565b9050611afe818686611cc8565b9250925050935093915050565b611b13613030565b6000611b1e83611da1565b90506040518060800160405280611b4f83600081518110611b4257611b41614490565b5b6020026020010151611dbb565b8152602001611b7883600181518110611b6b57611b6a614490565b5b6020026020010151611dbb565b8152602001611ba183600281518110611b9457611b93614490565b5b6020026020010151611dd0565b8152602001611bca83600381518110611bbd57611bbc614490565b5b6020026020010151611dd0565b815250915050919050565b600080611be186611c98565b9050611bef81868686611ed1565b915050949350505050565b600080606090506000601890506000849050600086905085826bffffffffffffffffffffffff16148015611c3b575086816bffffffffffffffffffffffff16145b611c7a576040517f08c379a0000000000000000000000000000000000000000000000000000000008152600401611c719061450b565b60405180910390fd5b87841b9450808517841b9450818517831b9450505050509392505050565b60608180519060200120604051602001611cb29190614369565b6040516020818303038152906040529050919050565b600060606000611cd785611f04565b90506000806000611ce9848a89611ff7565b92509250925060008083511490508080611d005750815b611d3f576040517f08c379a0000000000000000000000000000000000000000000000000000000008152600401611d3690614577565b60405180910390fd5b600081611d5b5760405180602001604052806000815250611d8b565b611d8a86600187611d6c9190613ccc565b81518110611d7d57611d7c614490565b5b602002602001015161240c565b5b9050818197509750505050505050935093915050565b6060611db4611daf8361244d565b61247b565b9050919050565b6000611dc682611dd0565b60001c9050919050565b60006022826000015110611e19576040517f08c379a0000000000000000000000000000000000000000000000000000000008152600401611e10906145e3565b60405180910390fd5b6000806000611e2785612672565b92509250925060006001811115611e4157611e40614603565b5b816001811115611e5457611e53614603565b5b14611e94576040517f08c379a0000000000000000000000000000000000000000000000000000000008152600401611e8b906145e3565b60405180910390fd5b6000838660200151611ea69190613e41565b90506000815190506020841015611ec457836020036101000a810490505b8095505050505050919050565b6000806000611ee1878686611cc8565b91509150818015611ef85750611ef7868261298f565b5b92505050949350505050565b60606000611f1183611da1565b90506000815167ffffffffffffffff811115611f3057611f2f6131c9565b5b604051908082528060200260200182016040528015611f6957816020015b611f5661305e565b815260200190600190039081611f4e5790505b50905060008251905060005b81811015611feb576000611fa2858381518110611f9557611f94614490565b5b60200260200101516129aa565b90506040518060400160405280828152602001611fbe83611da1565b815250848381518110611fd457611fd3614490565b5b602002602001018190525081600101915050611f75565b50819350505050919050565b6000606060008060009050600061200d87612a40565b9050600086905060008061201f61305e565b60008c51905060005b818110156123bb578d818151811061204357612042614490565b5b6020026020010151925083856120599190613e41565b94506001886120689190613e41565b9750600085036120c45785836000015180519060200120146120bf576040517f08c379a00000000000000000000000000000000000000000000000000000000081526004016120b69061467e565b60405180910390fd5b612121565b601f8360000151511161212057856120df8460000151612be3565b1461211f576040517f08c379a0000000000000000000000000000000000000000000000000000000008152600401612116906146ea565b60405180910390fd5b5b5b806001019050600160106121359190613e41565b836020015151036121aa5786518503156123bb57600087868151811061215e5761215d614490565b5b602001015160f81c60f81b60f81c9050600084602001518260ff168151811061218a57612189614490565b5b6020026020010151905061219d81612c1d565b97506001955050506123b6565b60028360200151510361237b5760006121c284612c5b565b90506000816000815181106121da576121d9614490565b5b602001015160f81c60f81b60f81c905060006002826121f99190614739565b6002612205919061476a565b90506000612216848360ff16612c94565b905060006122248c8b612c94565b905060006122328383612cd5565b9050600260ff168560ff16148061224f5750600360ff168560ff16145b156122ac578083511480156122645750808251145b1561227857808b6122759190613e41565b9a505b608060f81b7effffffffffffffffffffffffffffffffffffffffffffffffffffffffffffff19169b505050505050506123bb565b600060ff168560ff1614806122c75750600160ff168560ff16145b15612340578251811461230857608060f81b7effffffffffffffffffffffffffffffffffffffffffffffffffffffffffffff19169b505050505050506123bb565b612330896020015160018151811061232357612322614490565b5b6020026020010151612c1d565b9b508099505050505050506123b6565b6040517f08c379a000000000000000000000000000000000000000000000000000000000815260040161237290614811565b60405180910390fd5b6040517f08c379a00000000000000000000000000000000000000000000000000000000081526004016123ad9061487d565b60405180910390fd5b612028565b506000608060f81b7effffffffffffffffffffffffffffffffffffffffffffffffffffffffffffff191686149050876123f48887612c94565b829a509a509a50505050505050505093509350939050565b6060612446826020015160018460200151516124289190613ccc565b8151811061243957612438614490565b5b60200260200101516129aa565b9050919050565b612455613078565b600060208301905060405180604001604052808451815260200182815250915050919050565b606060008061248984612672565b92505091506001808111156124a1576124a0614603565b5b8160018111156124b4576124b3614603565b5b146124f4576040517f08c379a00000000000000000000000000000000000000000000000000000000081526004016124eb906148e9565b60405180910390fd5b6000602067ffffffffffffffff811115612511576125106131c9565b5b60405190808252806020026020018201604052801561254a57816020015b612537613078565b81526020019060019003908161252f5790505b5090506000808490505b866000015181101561266257602082106125a3576040517f08c379a000000000000000000000000000000000000000000000000000000000815260040161259a9061497b565b60405180910390fd5b6000806125e16040518060400160405280858c600001516125c49190613ccc565b8152602001858c602001516125d99190613e41565b815250612672565b5091509150604051806040016040528083836125fd9190613e41565b8152602001848b602001516126129190613e41565b81525085858151811061262857612627614490565b5b60200260200101819052506001846126409190613e41565b9350808261264e9190613e41565b836126599190613e41565b92505050612554565b8183528295505050505050919050565b6000806000808460000151116126bd576040517f08c379a00000000000000000000000000000000000000000000000000000000081526004016126b4906149e7565b60405180910390fd5b6000846020015190506000815160001a905060808110156126eb576000600160009450945094505050612988565b60b881101561275e5760006080826127039190613ccc565b90508087600001511161274b576040517f08c379a000000000000000000000000000000000000000000000000000000000815260040161274290614a53565b60405180910390fd5b6001816000955095509550505050612988565b60c081101561284057600060b7826127769190613ccc565b9050808760000151116127be576040517f08c379a00000000000000000000000000000000000000000000000000000000081526004016127b590614abf565b60405180910390fd5b6000816020036101000a600185015104905080826127dc9190613e41565b886000015111612821576040517f08c379a000000000000000000000000000000000000000000000000000000000815260040161281890614b2b565b60405180910390fd5b81600161282e9190613e41565b81600096509650965050505050612988565b60f88110156128b357600060c0826128589190613ccc565b9050808760000151116128a0576040517f08c379a000000000000000000000000000000000000000000000000000000000815260040161289790614b97565b60405180910390fd5b6001816001955095509550505050612988565b600060f7826128c29190613ccc565b90508087600001511161290a576040517f08c379a000000000000000000000000000000000000000000000000000000000815260040161290190614c03565b60405180910390fd5b6000816020036101000a600185015104905080826129289190613e41565b88600001511161296d576040517f08c379a000000000000000000000000000000000000000000000000000000000815260040161296490614c6f565b60405180910390fd5b81600161297a9190613e41565b816001965096509650505050505b9193909250565b60008180519060200120838051906020012014905092915050565b606060008060006129ba85612672565b925092509250600060018111156129d4576129d3614603565b5b8160018111156129e7576129e6614603565b5b14612a27576040517f08c379a0000000000000000000000000000000000000000000000000000000008152600401612a1e90614cdb565b60405180910390fd5b612a3685602001518484612d98565b9350505050919050565b6060600060028351612a529190614cfb565b67ffffffffffffffff811115612a6b57612a6a6131c9565b5b6040519080825280601f01601f191660200182016040528015612a9d5781602001600182028036833780820191505090505b50905060008351905060005b81811015612bd8576004858281518110612ac657612ac5614490565b5b602001015160f81c60f81b7effffffffffffffffffffffffffffffffffffffffffffffffffffffffffffff1916901c83600283612b039190614cfb565b81518110612b1457612b13614490565b5b60200101907effffffffffffffffffffffffffffffffffffffffffffffffffffffffffffff1916908160001a9053506010858281518110612b5857612b57614490565b5b602001015160f81c60f81b60f81c612b709190614739565b60f81b836001600284612b839190614cfb565b612b8d9190613e41565b81518110612b9e57612b9d614490565b5b60200101907effffffffffffffffffffffffffffffffffffffffffffffffffffffffffffff1916908160001a905350806001019050612aa9565b508192505050919050565b6000602082511015612c015760006020830151905080915050612c18565b81806020019051810190612c159190614d52565b90505b919050565b60006060602083600001511015612c3e57612c3783612e95565b9050612c4a565b612c47836129aa565b90505b612c5381612be3565b915050919050565b6060612c8d612c888360200151600081518110612c7b57612c7a614490565b5b60200260200101516129aa565b612a40565b9050919050565b606082518210612cb557604051806020016040528060008152509050612ccf565b612ccc8383848651612cc79190613ccc565b612ea7565b90505b92915050565b600080600090505b808451118015612ced5750808351115b8015612d765750828181518110612d0757612d06614490565b5b602001015160f81c60f81b7effffffffffffffffffffffffffffffffffffffffffffffffffffffffffffff1916848281518110612d4757612d46614490565b5b602001015160f81c60f81b7effffffffffffffffffffffffffffffffffffffffffffffffffffffffffffff1916145b15612d8e578080612d8690614d7f565b915050612cdd565b8091505092915050565b606060008267ffffffffffffffff811115612db657612db56131c9565b5b6040519080825280601f01601f191660200182016040528015612de85781602001600182028036833780820191505090505b5090506000815103612dfd5780915050612e8e565b60008486612e0b9190613e41565b9050600060208301905060005b602086612e259190614dc7565b811015612e595782518252602083612e3d9190613e41565b9250602082612e4c9190613e41565b9150806001019050612e18565b506000600160208781612e6f57612e6e61470a565b5b066020036101000a039050808251168119845116178252839450505050505b9392505050565b6060612ea082613013565b9050919050565b606081601f83612eb79190613e41565b1015612ef8576040517f08c379a0000000000000000000000000000000000000000000000000000000008152600401612eef90614e44565b60405180910390fd5b828284612f059190613e41565b1015612f46576040517f08c379a0000000000000000000000000000000000000000000000000000000008152600401612f3d90614e44565b60405180910390fd5b8183612f529190613e41565b84511015612f95576040517f08c379a0000000000000000000000000000000000000000000000000000000008152600401612f8c90614eb0565b60405180910390fd5b6060821560008114612fb65760405191506000825260208201604052613007565b6040519150601f8416801560200281840101858101878315602002848b0101015b81831015612ff45780518352602083019250602081019050612fd7565b50868552601f19601f8301166040525050505b50809150509392505050565b6060613029826020015160008460000151612d98565b9050919050565b6040518060800160405280600081526020016000815260200160008019168152602001600080191681525090565b604051806040016040528060608152602001606081525090565b604051806040016040528060008152602001600081525090565b600073ffffffffffffffffffffffffffffffffffffffff82169050919050565b6000819050919050565b60006130d76130d26130cd84613092565b6130b2565b613092565b9050919050565b60006130e9826130bc565b9050919050565b60006130fb826130de565b9050919050565b61310b816130f0565b82525050565b60006020820190506131266000830184613102565b92915050565b600063ffffffff82169050919050565b6131458161312c565b82525050565b6000602082019050613160600083018461313c565b92915050565b6000819050919050565b61317981613166565b82525050565b60006020820190506131946000830184613170565b92915050565b6000604051905090565b600080fd5b600080fd5b600080fd5b600080fd5b6000601f19601f8301169050919050565b7f4e487b7100000000000000000000000000000000000000000000000000000000600052604160045260246000fd5b613201826131b8565b810181811067ffffffffffffffff821117156132205761321f6131c9565b5b80604052505050565b600061323361319a565b905061323f82826131f8565b919050565b600067ffffffffffffffff82111561325f5761325e6131c9565b5b613268826131b8565b9050602081019050919050565b82818337600083830152505050565b600061329761329284613244565b613229565b9050828152602081018484840111156132b3576132b26131b3565b5b6132be848285613275565b509392505050565b600082601f8301126132db576132da6131ae565b5b81356132eb848260208601613284565b91505092915050565b6000806040838503121561330b5761330a6131a4565b5b600083013567ffffffffffffffff811115613329576133286131a9565b5b613335858286016132c6565b925050602083013567ffffffffffffffff811115613356576133556131a9565b5b613362858286016132c6565b9150509250929050565b600060208284031215613382576133816131a4565b5b600082013567ffffffffffffffff8111156133a05761339f6131a9565b5b6133ac848285016132c6565b91505092915050565b60006133c082613092565b9050919050565b6133d0816133b5565b81146133db57600080fd5b50565b6000813590506133ed816133c7565b92915050565b600060208284031215613409576134086131a4565b5b6000613417848285016133de565b91505092915050565b613429816133b5565b82525050565b60006020820190506134446000830184613420565b92915050565b61345381613166565b811461345e57600080fd5b50565b6000813590506134708161344a565b92915050565b600080fd5b600080fd5b6000819050919050565b61349381613480565b811461349e57600080fd5b50565b6000813590506134b08161348a565b92915050565b600060a082840312156134cc576134cb613476565b5b6134d660a0613229565b905060006134e684828501613461565b60008301525060206134fa848285016134a1565b602083015250604061350e84828501613461565b604083015250606061352284828501613461565b606083015250608082013567ffffffffffffffff8111156135465761354561347b565b5b613552848285016132c6565b60808301525092915050565b600067ffffffffffffffff821115613579576135786131c9565b5b602082029050602081019050919050565b600080fd5b60006135a261359d8461355e565b613229565b905080838252602082019050602084028301858111156135c5576135c461358a565b5b835b818110156135ee57806135da88826134a1565b8452602084019350506020810190506135c7565b5050509392505050565b600082601f83011261360d5761360c6131ae565b5b813561361d84826020860161358f565b91505092915050565b60006040828403121561363c5761363b613476565b5b6136466040613229565b9050600061365684828501613461565b600083015250602082013567ffffffffffffffff81111561367a5761367961347b565b5b613686848285016135f8565b60208301525092915050565b600060a082840312156136a8576136a7613476565b5b6136b260a0613229565b905060006136c2848285016134a1565b600083015250602082013567ffffffffffffffff8111156136e6576136e561347b565b5b6136f2848285016134b6565b602083015250604082013567ffffffffffffffff8111156137165761371561347b565b5b61372284828501613626565b604083015250606082013567ffffffffffffffff8111156137465761374561347b565b5b613752848285016132c6565b606083015250608082013567ffffffffffffffff8111156137765761377561347b565b5b613782848285016132c6565b60808301525092915050565b600080600080600060a086880312156137aa576137a96131a4565b5b60006137b8888289016133de565b95505060206137c9888289016133de565b945050604086013567ffffffffffffffff8111156137ea576137e96131a9565b5b6137f6888289016132c6565b935050606061380788828901613461565b925050608086013567ffffffffffffffff811115613828576138276131a9565b5b61383488828901613692565b9150509295509295909350565b600060208284031215613857576138566131a4565b5b600061386584828501613461565b91505092915050565b600060208284031215613884576138836131a4565b5b6000613892848285016134a1565b91505092915050565b60008115159050919050565b6138b08161389b565b82525050565b60006020820190506138cb60008301846138a7565b92915050565b600082825260208201905092915050565b7f21726f6f744d616e616765720000000000000000000000000000000000000000600082015250565b6000613918600c836138d1565b9150613923826138e2565b602082019050919050565b600060208201905081810360008301526139478161390b565b9050919050565b600081519050919050565b600082825260208201905092915050565b60005b8381101561398857808201518184015260208101905061396d565b60008484015250505050565b600061399f8261394e565b6139a98185613959565b93506139b981856020860161396a565b6139c2816131b8565b840191505092915050565b600060608201905081810360008301526139e78186613994565b905081810360208301526139fb8185613994565b9050613a0a6040830184613420565b949350505050565b7f21414d4200000000000000000000000000000000000000000000000000000000600082015250565b6000613a486004836138d1565b9150613a5382613a12565b602082019050919050565b60006020820190508181036000830152613a7781613a3b565b9050919050565b60006040820190508181036000830152613a988185613994565b9050613aa76020830184613420565b9392505050565b7f216d6972726f72436f6e6e6563746f7200000000000000000000000000000000600082015250565b6000613ae46010836138d1565b9150613aef82613aae565b602082019050919050565b60006020820190508181036000830152613b1381613ad7565b9050919050565b7f2174686973000000000000000000000000000000000000000000000000000000600082015250565b6000613b506005836138d1565b9150613b5b82613b1a565b602082019050919050565b60006020820190508181036000830152613b7f81613b43565b9050919050565b7f2170726f6f660000000000000000000000000000000000000000000000000000600082015250565b6000613bbc6006836138d1565b9150613bc782613b86565b602082019050919050565b60006020820190508181036000830152613beb81613baf565b9050919050565b60006bffffffffffffffffffffffff82169050919050565b7f4e487b7100000000000000000000000000000000000000000000000000000000600052601160045260246000fd5b6000613c4482613bf2565b9150613c4f83613bf2565b925082820390506bffffffffffffffffffffffff811115613c7357613c72613c0a565b5b92915050565b613c8281613480565b82525050565b6000604082019050613c9d600083018561313c565b613caa6020830184613c79565b9392505050565b6000602082019050613cc66000830184613c79565b92915050565b6000613cd782613166565b9150613ce283613166565b9250828203905081811115613cfa57613cf9613c0a565b5b92915050565b7f216c656e67746800000000000000000000000000000000000000000000000000600082015250565b6000613d366007836138d1565b9150613d4182613d00565b602082019050919050565b60006020820190508181036000830152613d6581613d29565b9050919050565b60006020820190508181036000830152613d868184613994565b905092915050565b6000606082019050613da36000830186613420565b8181036020830152613db58185613994565b9050613dc4604083018461313c565b949350505050565b6000604082019050613de16000830185613420565b613dee6020830184613420565b9392505050565b6000608082019050613e0a6000830187613420565b613e176020830186613420565b8181036040830152613e298185613994565b9050613e386060830184613170565b95945050505050565b6000613e4c82613166565b9150613e5783613166565b9250828201905080821115613e6f57613e6e613c0a565b5b92915050565b6000613e90613e8b613e8684613bf2565b6130b2565b613166565b9050919050565b613ea081613e75565b82525050565b6000608082019050613ebb6000830187613e97565b613ec86020830186613e97565b613ed56040830185613170565b613ee26060830184613170565b95945050505050565b6000604082019050613f006000830185613170565b613f0d6020830184613170565b9392505050565b613f1d81613166565b82525050565b613f2c81613480565b82525050565b600082825260208201905092915050565b6000613f4e8261394e565b613f588185613f32565b9350613f6881856020860161396a565b613f71816131b8565b840191505092915050565b600060a083016000830151613f946000860182613f14565b506020830151613fa76020860182613f23565b506040830151613fba6040860182613f14565b506060830151613fcd6060860182613f14565b5060808301518482036080860152613fe58282613f43565b9150508091505092915050565b600081519050919050565b600082825260208201905092915050565b6000819050602082019050919050565b600061402a8383613f23565b60208301905092915050565b6000602082019050919050565b600061404e82613ff2565b6140588185613ffd565b93506140638361400e565b8060005b8381101561409457815161407b888261401e565b975061408683614036565b925050600181019050614067565b5085935050505092915050565b60006040830160008301516140b96000860182613f14565b50602083015184820360208601526140d18282614043565b9150508091505092915050565b60006060820190506140f36000830186613c79565b81810360208301526141058185613f7c565b9050818103604083015261411981846140a1565b9050949350505050565b61412c8161389b565b811461413757600080fd5b50565b60008151905061414981614123565b92915050565b600060208284031215614165576141646131a4565b5b60006141738482850161413a565b91505092915050565b600081905092915050565b60006141928261394e565b61419c818561417c565b93506141ac81856020860161396a565b80840191505092915050565b60008160601b9050919050565b60006141d0826141b8565b9050919050565b60006141e2826141c5565b9050919050565b6141fa6141f5826133b5565b6141d7565b82525050565b600061420c8285614187565b915061421882846141e9565b6014820191508190509392505050565b6000819050919050565b61424361423e82613480565b614228565b82525050565b6000819050919050565b61426461425f82613166565b614249565b82525050565b60006142768285614232565b6020820191506142868284614253565b6020820191508190509392505050565b60006142a282846141e9565b60148201915081905092915050565b7f4d6573736167652070617373696e67207072656465706c6f7920686173206e6f60008201527f74206265656e20696e697469616c697a6564206f7220696e76616c696420707260208201527f6f6f662070726f76696465642e00000000000000000000000000000000000000604082015250565b6000614333604d836138d1565b915061433e826142b1565b606082019050919050565b6000602082019050818103600083015261436281614326565b9050919050565b60006143758284614232565b60208201915081905092915050565b600060ff82169050919050565b60008160f81b9050919050565b60006143a982614391565b9050919050565b6143c16143bc82614384565b61439e565b82525050565b60006143d382846143b0565b60018201915081905092915050565b7f2162726964676500000000000000000000000000000000000000000000000000600082015250565b60006144186007836138d1565b9150614423826143e2565b602082019050919050565b600060208201905081810360008301526144478161440b565b9050919050565b60008151905061445d816133c7565b92915050565b600060208284031215614479576144786131a4565b5b60006144878482850161444e565b91505092915050565b7f4e487b7100000000000000000000000000000000000000000000000000000000600052603260045260246000fd5b7f217472756e636174656400000000000000000000000000000000000000000000600082015250565b60006144f5600a836138d1565b9150614500826144bf565b602082019050919050565b60006020820190508181036000830152614524816144e8565b9050919050565b7f50726f76696465642070726f6f6620697320696e76616c69642e000000000000600082015250565b6000614561601a836138d1565b915061456c8261452b565b602082019050919050565b6000602082019050818103600083015261459081614554565b9050919050565b7f496e76616c696420524c5020627974657333322076616c75652e000000000000600082015250565b60006145cd601a836138d1565b91506145d882614597565b602082019050919050565b600060208201905081810360008301526145fc816145c0565b9050919050565b7f4e487b7100000000000000000000000000000000000000000000000000000000600052602160045260246000fd5b7f496e76616c696420726f6f742068617368000000000000000000000000000000600082015250565b60006146686011836138d1565b915061467382614632565b602082019050919050565b600060208201905081810360008301526146978161465b565b9050919050565b7f496e76616c696420696e7465726e616c206e6f64652068617368000000000000600082015250565b60006146d4601a836138d1565b91506146df8261469e565b602082019050919050565b60006020820190508181036000830152614703816146c7565b9050919050565b7f4e487b7100000000000000000000000000000000000000000000000000000000600052601260045260246000fd5b600061474482614384565b915061474f83614384565b92508261475f5761475e61470a565b5b828206905092915050565b600061477582614384565b915061478083614384565b9250828203905060ff81111561479957614798613c0a565b5b92915050565b7f52656365697665642061206e6f6465207769746820616e20756e6b6e6f776e2060008201527f7072656669780000000000000000000000000000000000000000000000000000602082015250565b60006147fb6026836138d1565b91506148068261479f565b604082019050919050565b6000602082019050818103600083015261482a816147ee565b9050919050565b7f526563656976656420616e20756e706172736561626c65206e6f64652e000000600082015250565b6000614867601d836138d1565b915061487282614831565b602082019050919050565b600060208201905081810360008301526148968161485a565b9050919050565b7f496e76616c696420524c50206c6973742076616c75652e000000000000000000600082015250565b60006148d36017836138d1565b91506148de8261489d565b602082019050919050565b60006020820190508181036000830152614902816148c6565b9050919050565b7f50726f766964656420524c50206c6973742065786365656473206d6178206c6960008201527f7374206c656e6774682e00000000000000000000000000000000000000000000602082015250565b6000614965602a836138d1565b915061497082614909565b604082019050919050565b6000602082019050818103600083015261499481614958565b9050919050565b7f524c50206974656d2063616e6e6f74206265206e756c6c2e0000000000000000600082015250565b60006149d16018836138d1565b91506149dc8261499b565b602082019050919050565b60006020820190508181036000830152614a00816149c4565b9050919050565b7f496e76616c696420524c502073686f727420737472696e672e00000000000000600082015250565b6000614a3d6019836138d1565b9150614a4882614a07565b602082019050919050565b60006020820190508181036000830152614a6c81614a30565b9050919050565b7f496e76616c696420524c50206c6f6e6720737472696e67206c656e6774682e00600082015250565b6000614aa9601f836138d1565b9150614ab482614a73565b602082019050919050565b60006020820190508181036000830152614ad881614a9c565b9050919050565b7f496e76616c696420524c50206c6f6e6720737472696e672e0000000000000000600082015250565b6000614b156018836138d1565b9150614b2082614adf565b602082019050919050565b60006020820190508181036000830152614b4481614b08565b9050919050565b7f496e76616c696420524c502073686f7274206c6973742e000000000000000000600082015250565b6000614b816017836138d1565b9150614b8c82614b4b565b602082019050919050565b60006020820190508181036000830152614bb081614b74565b9050919050565b7f496e76616c696420524c50206c6f6e67206c697374206c656e6774682e000000600082015250565b6000614bed601d836138d1565b9150614bf882614bb7565b602082019050919050565b60006020820190508181036000830152614c1c81614be0565b9050919050565b7f496e76616c696420524c50206c6f6e67206c6973742e00000000000000000000600082015250565b6000614c596016836138d1565b9150614c6482614c23565b602082019050919050565b60006020820190508181036000830152614c8881614c4c565b9050919050565b7f496e76616c696420524c502062797465732076616c75652e0000000000000000600082015250565b6000614cc56018836138d1565b9150614cd082614c8f565b602082019050919050565b60006020820190508181036000830152614cf481614cb8565b9050919050565b6000614d0682613166565b9150614d1183613166565b9250828202614d1f81613166565b91508282048414831517614d3657614d35613c0a565b5b5092915050565b600081519050614d4c8161348a565b92915050565b600060208284031215614d6857614d676131a4565b5b6000614d7684828501614d3d565b91505092915050565b6000614d8a82613166565b91507fffffffffffffffffffffffffffffffffffffffffffffffffffffffffffffffff8203614dbc57614dbb613c0a565b5b600182019050919050565b6000614dd282613166565b9150614ddd83613166565b925082614ded57614dec61470a565b5b828204905092915050565b7f736c6963655f6f766572666c6f77000000000000000000000000000000000000600082015250565b6000614e2e600e836138d1565b9150614e3982614df8565b602082019050919050565b60006020820190508181036000830152614e5d81614e21565b9050919050565b7f736c6963655f6f75744f66426f756e6473000000000000000000000000000000600082015250565b6000614e9a6011836138d1565b9150614ea582614e64565b602082019050919050565b60006020820190508181036000830152614ec981614e8d565b905091905056fea2646970667358221220e3df337cfa3f362ffbb2bcde355aeecad5c3be5a9218d4e529d6b70dbdcf12ac64736f6c63430008110033","opcodes":"PUSH2 0x120 PUSH1 0x40 MSTORE CALLVALUE DUP1 ISZERO PUSH3 0x12 JUMPI PUSH1 0x0 DUP1 REVERT JUMPDEST POP PUSH1 0x40 MLOAD PUSH3 0x5727 CODESIZE SUB DUP1 PUSH3 0x5727 DUP4 CODECOPY DUP2 DUP2 ADD PUSH1 0x40 MSTORE DUP2 ADD SWAP1 PUSH3 0x38 SWAP2 SWAP1 PUSH3 0x54A JUMP JUMPDEST DUP1 DUP1 DUP9 DUP9 DUP9 DUP9 DUP9 DUP5 DUP5 DUP5 DUP5 DUP5 PUSH3 0x55 CALLER PUSH3 0x294 PUSH1 0x20 SHL PUSH1 0x20 SHR JUMP JUMPDEST PUSH1 0x0 DUP6 PUSH4 0xFFFFFFFF AND SUB PUSH3 0xA1 JUMPI PUSH1 0x40 MLOAD PUSH32 0x8C379A000000000000000000000000000000000000000000000000000000000 DUP2 MSTORE PUSH1 0x4 ADD PUSH3 0x98 SWAP1 PUSH3 0x65E JUMP JUMPDEST PUSH1 0x40 MLOAD DUP1 SWAP2 SUB SWAP1 REVERT JUMPDEST PUSH1 0x0 PUSH20 0xFFFFFFFFFFFFFFFFFFFFFFFFFFFFFFFFFFFFFFFF AND DUP3 PUSH20 0xFFFFFFFFFFFFFFFFFFFFFFFFFFFFFFFFFFFFFFFF AND SUB PUSH3 0x113 JUMPI PUSH1 0x40 MLOAD PUSH32 0x8C379A000000000000000000000000000000000000000000000000000000000 DUP2 MSTORE PUSH1 0x4 ADD PUSH3 0x10A SWAP1 PUSH3 0x6D0 JUMP JUMPDEST PUSH1 0x40 MLOAD DUP1 SWAP2 SUB SWAP1 REVERT JUMPDEST DUP5 PUSH4 0xFFFFFFFF AND PUSH1 0x80 DUP2 PUSH4 0xFFFFFFFF AND DUP2 MSTORE POP POP DUP3 PUSH20 0xFFFFFFFFFFFFFFFFFFFFFFFFFFFFFFFFFFFFFFFF AND PUSH1 0xA0 DUP2 PUSH20 0xFFFFFFFFFFFFFFFFFFFFFFFFFFFFFFFFFFFFFFFF AND DUP2 MSTORE POP POP DUP2 PUSH20 0xFFFFFFFFFFFFFFFFFFFFFFFFFFFFFFFFFFFFFFFF AND PUSH1 0xC0 DUP2 PUSH20 0xFFFFFFFFFFFFFFFFFFFFFFFFFFFFFFFFFFFFFFFF AND DUP2 MSTORE POP POP DUP4 PUSH4 0xFFFFFFFF AND PUSH1 0xE0 DUP2 PUSH4 0xFFFFFFFF AND DUP2 MSTORE POP POP PUSH1 0x0 PUSH20 0xFFFFFFFFFFFFFFFFFFFFFFFFFFFFFFFFFFFFFFFF AND DUP2 PUSH20 0xFFFFFFFFFFFFFFFFFFFFFFFFFFFFFFFFFFFFFFFF AND EQ PUSH3 0x1EA JUMPI PUSH3 0x1E9 DUP2 PUSH3 0x37C PUSH1 0x20 SHL PUSH1 0x20 SHR JUMP JUMPDEST JUMPDEST DUP4 PUSH4 0xFFFFFFFF AND DUP6 PUSH4 0xFFFFFFFF AND PUSH32 0x4F9C27C2FE3F84576EA469D367D044DA53C45E951617E8389F2B5ED8DB9D25F0 DUP6 DUP6 DUP6 PUSH1 0x40 MLOAD PUSH3 0x22D SWAP4 SWAP3 SWAP2 SWAP1 PUSH3 0x703 JUMP JUMPDEST PUSH1 0x40 MLOAD DUP1 SWAP2 SUB SWAP1 LOG3 POP POP POP POP POP POP POP POP POP POP PUSH3 0x250 DUP2 PUSH3 0x41D PUSH1 0x20 SHL PUSH1 0x20 SHR JUMP JUMPDEST POP POP DUP2 PUSH20 0xFFFFFFFFFFFFFFFFFFFFFFFFFFFFFFFFFFFFFFFF AND PUSH2 0x100 DUP2 PUSH20 0xFFFFFFFFFFFFFFFFFFFFFFFFFFFFFFFFFFFFFFFF AND DUP2 MSTORE POP POP POP POP POP POP POP POP POP PUSH3 0x7AB JUMP JUMPDEST DUP1 PUSH20 0xFFFFFFFFFFFFFFFFFFFFFFFFFFFFFFFFFFFFFFFF AND PUSH1 0x0 DUP1 SLOAD SWAP1 PUSH2 0x100 EXP SWAP1 DIV PUSH20 0xFFFFFFFFFFFFFFFFFFFFFFFFFFFFFFFFFFFFFFFF AND PUSH20 0xFFFFFFFFFFFFFFFFFFFFFFFFFFFFFFFFFFFFFFFF AND PUSH32 0x8BE0079C531659141344CD1FD0A4F28419497F9722A3DAAFE3B4186F6B6457E0 PUSH1 0x40 MLOAD PUSH1 0x40 MLOAD DUP1 SWAP2 SUB SWAP1 LOG3 DUP1 PUSH1 0x0 DUP1 PUSH2 0x100 EXP DUP2 SLOAD DUP2 PUSH20 0xFFFFFFFFFFFFFFFFFFFFFFFFFFFFFFFFFFFFFFFF MUL NOT AND SWAP1 DUP4 PUSH20 0xFFFFFFFFFFFFFFFFFFFFFFFFFFFFFFFFFFFFFFFF AND MUL OR SWAP1 SSTORE POP PUSH1 0x2 PUSH1 0x0 SWAP1 SSTORE PUSH1 0x1 PUSH1 0x0 PUSH2 0x100 EXP DUP2 SLOAD SWAP1 PUSH20 0xFFFFFFFFFFFFFFFFFFFFFFFFFFFFFFFFFFFFFFFF MUL NOT AND SWAP1 SSTORE POP JUMP JUMPDEST PUSH32 0xC77BEC288FC88F168427F2F7DA682EADB26CAC89D8D591AF6E443DA98DFF2BBC PUSH1 0x3 PUSH1 0x0 SWAP1 SLOAD SWAP1 PUSH2 0x100 EXP SWAP1 DIV PUSH20 0xFFFFFFFFFFFFFFFFFFFFFFFFFFFFFFFFFFFFFFFF AND DUP3 PUSH1 0x40 MLOAD PUSH3 0x3D1 SWAP3 SWAP2 SWAP1 PUSH3 0x740 JUMP JUMPDEST PUSH1 0x40 MLOAD DUP1 SWAP2 SUB SWAP1 LOG1 DUP1 PUSH1 0x3 PUSH1 0x0 PUSH2 0x100 EXP DUP2 SLOAD DUP2 PUSH20 0xFFFFFFFFFFFFFFFFFFFFFFFFFFFFFFFFFFFFFFFF MUL NOT AND SWAP1 DUP4 PUSH20 0xFFFFFFFFFFFFFFFFFFFFFFFFFFFFFFFFFFFFFFFF AND MUL OR SWAP1 SSTORE POP POP JUMP JUMPDEST PUSH32 0x877A02CB809DA0364D23ADCA3CD50C451B53F279D3DF632E1FC11EB66335BCE5 PUSH1 0x4 SLOAD DUP3 PUSH1 0x40 MLOAD PUSH3 0x452 SWAP3 SWAP2 SWAP1 PUSH3 0x77E JUMP JUMPDEST PUSH1 0x40 MLOAD DUP1 SWAP2 SUB SWAP1 LOG1 DUP1 PUSH1 0x4 DUP2 SWAP1 SSTORE POP POP JUMP JUMPDEST PUSH1 0x0 DUP1 REVERT JUMPDEST PUSH1 0x0 PUSH4 0xFFFFFFFF DUP3 AND SWAP1 POP SWAP2 SWAP1 POP JUMP JUMPDEST PUSH3 0x484 DUP2 PUSH3 0x469 JUMP JUMPDEST DUP2 EQ PUSH3 0x490 JUMPI PUSH1 0x0 DUP1 REVERT JUMPDEST POP JUMP JUMPDEST PUSH1 0x0 DUP2 MLOAD SWAP1 POP PUSH3 0x4A4 DUP2 PUSH3 0x479 JUMP JUMPDEST SWAP3 SWAP2 POP POP JUMP JUMPDEST PUSH1 0x0 PUSH20 0xFFFFFFFFFFFFFFFFFFFFFFFFFFFFFFFFFFFFFFFF DUP3 AND SWAP1 POP SWAP2 SWAP1 POP JUMP JUMPDEST PUSH1 0x0 PUSH3 0x4D7 DUP3 PUSH3 0x4AA JUMP JUMPDEST SWAP1 POP SWAP2 SWAP1 POP JUMP JUMPDEST PUSH3 0x4E9 DUP2 PUSH3 0x4CA JUMP JUMPDEST DUP2 EQ PUSH3 0x4F5 JUMPI PUSH1 0x0 DUP1 REVERT JUMPDEST POP JUMP JUMPDEST PUSH1 0x0 DUP2 MLOAD SWAP1 POP PUSH3 0x509 DUP2 PUSH3 0x4DE JUMP JUMPDEST SWAP3 SWAP2 POP POP JUMP JUMPDEST PUSH1 0x0 DUP2 SWAP1 POP SWAP2 SWAP1 POP JUMP JUMPDEST PUSH3 0x524 DUP2 PUSH3 0x50F JUMP JUMPDEST DUP2 EQ PUSH3 0x530 JUMPI PUSH1 0x0 DUP1 REVERT JUMPDEST POP JUMP JUMPDEST PUSH1 0x0 DUP2 MLOAD SWAP1 POP PUSH3 0x544 DUP2 PUSH3 0x519 JUMP JUMPDEST SWAP3 SWAP2 POP POP JUMP JUMPDEST PUSH1 0x0 DUP1 PUSH1 0x0 DUP1 PUSH1 0x0 DUP1 PUSH1 0x0 PUSH1 0xE0 DUP9 DUP11 SUB SLT ISZERO PUSH3 0x56C JUMPI PUSH3 0x56B PUSH3 0x464 JUMP JUMPDEST JUMPDEST PUSH1 0x0 PUSH3 0x57C DUP11 DUP3 DUP12 ADD PUSH3 0x493 JUMP JUMPDEST SWAP8 POP POP PUSH1 0x20 PUSH3 0x58F DUP11 DUP3 DUP12 ADD PUSH3 0x493 JUMP JUMPDEST SWAP7 POP POP PUSH1 0x40 PUSH3 0x5A2 DUP11 DUP3 DUP12 ADD PUSH3 0x4F8 JUMP JUMPDEST SWAP6 POP POP PUSH1 0x60 PUSH3 0x5B5 DUP11 DUP3 DUP12 ADD PUSH3 0x4F8 JUMP JUMPDEST SWAP5 POP POP PUSH1 0x80 PUSH3 0x5C8 DUP11 DUP3 DUP12 ADD PUSH3 0x4F8 JUMP JUMPDEST SWAP4 POP POP PUSH1 0xA0 PUSH3 0x5DB DUP11 DUP3 DUP12 ADD PUSH3 0x4F8 JUMP JUMPDEST SWAP3 POP POP PUSH1 0xC0 PUSH3 0x5EE DUP11 DUP3 DUP12 ADD PUSH3 0x533 JUMP JUMPDEST SWAP2 POP POP SWAP3 SWAP6 SWAP9 SWAP2 SWAP5 SWAP8 POP SWAP3 SWAP6 POP JUMP JUMPDEST PUSH1 0x0 DUP3 DUP3 MSTORE PUSH1 0x20 DUP3 ADD SWAP1 POP SWAP3 SWAP2 POP POP JUMP JUMPDEST PUSH32 0x656D70747920646F6D61696E0000000000000000000000000000000000000000 PUSH1 0x0 DUP3 ADD MSTORE POP JUMP JUMPDEST PUSH1 0x0 PUSH3 0x646 PUSH1 0xC DUP4 PUSH3 0x5FD JUMP JUMPDEST SWAP2 POP PUSH3 0x653 DUP3 PUSH3 0x60E JUMP JUMPDEST PUSH1 0x20 DUP3 ADD SWAP1 POP SWAP2 SWAP1 POP JUMP JUMPDEST PUSH1 0x0 PUSH1 0x20 DUP3 ADD SWAP1 POP DUP2 DUP2 SUB PUSH1 0x0 DUP4 ADD MSTORE PUSH3 0x679 DUP2 PUSH3 0x637 JUMP JUMPDEST SWAP1 POP SWAP2 SWAP1 POP JUMP JUMPDEST PUSH32 0x656D70747920726F6F744D616E61676572000000000000000000000000000000 PUSH1 0x0 DUP3 ADD MSTORE POP JUMP JUMPDEST PUSH1 0x0 PUSH3 0x6B8 PUSH1 0x11 DUP4 PUSH3 0x5FD JUMP JUMPDEST SWAP2 POP PUSH3 0x6C5 DUP3 PUSH3 0x680 JUMP JUMPDEST PUSH1 0x20 DUP3 ADD SWAP1 POP SWAP2 SWAP1 POP JUMP JUMPDEST PUSH1 0x0 PUSH1 0x20 DUP3 ADD SWAP1 POP DUP2 DUP2 SUB PUSH1 0x0 DUP4 ADD MSTORE PUSH3 0x6EB DUP2 PUSH3 0x6A9 JUMP JUMPDEST SWAP1 POP SWAP2 SWAP1 POP JUMP JUMPDEST PUSH3 0x6FD DUP2 PUSH3 0x4CA JUMP JUMPDEST DUP3 MSTORE POP POP JUMP JUMPDEST PUSH1 0x0 PUSH1 0x60 DUP3 ADD SWAP1 POP PUSH3 0x71A PUSH1 0x0 DUP4 ADD DUP7 PUSH3 0x6F2 JUMP JUMPDEST PUSH3 0x729 PUSH1 0x20 DUP4 ADD DUP6 PUSH3 0x6F2 JUMP JUMPDEST PUSH3 0x738 PUSH1 0x40 DUP4 ADD DUP5 PUSH3 0x6F2 JUMP JUMPDEST SWAP5 SWAP4 POP POP POP POP JUMP JUMPDEST PUSH1 0x0 PUSH1 0x40 DUP3 ADD SWAP1 POP PUSH3 0x757 PUSH1 0x0 DUP4 ADD DUP6 PUSH3 0x6F2 JUMP JUMPDEST PUSH3 0x766 PUSH1 0x20 DUP4 ADD DUP5 PUSH3 0x6F2 JUMP JUMPDEST SWAP4 SWAP3 POP POP POP JUMP JUMPDEST PUSH3 0x778 DUP2 PUSH3 0x50F JUMP JUMPDEST DUP3 MSTORE POP POP JUMP JUMPDEST PUSH1 0x0 PUSH1 0x40 DUP3 ADD SWAP1 POP PUSH3 0x795 PUSH1 0x0 DUP4 ADD DUP6 PUSH3 0x76D JUMP JUMPDEST PUSH3 0x7A4 PUSH1 0x20 DUP4 ADD DUP5 PUSH3 0x76D JUMP JUMPDEST SWAP4 SWAP3 POP POP POP JUMP JUMPDEST PUSH1 0x80 MLOAD PUSH1 0xA0 MLOAD PUSH1 0xC0 MLOAD PUSH1 0xE0 MLOAD PUSH2 0x100 MLOAD PUSH2 0x4F06 PUSH3 0x821 PUSH1 0x0 CODECOPY PUSH1 0x0 DUP2 DUP2 PUSH2 0x4A6 ADD MSTORE PUSH2 0x16FD ADD MSTORE PUSH1 0x0 DUP2 DUP2 PUSH2 0x4CA ADD MSTORE PUSH2 0x9CA ADD MSTORE PUSH1 0x0 DUP2 DUP2 PUSH2 0x4F8 ADD MSTORE DUP2 DUP2 PUSH2 0x757 ADD MSTORE PUSH2 0x98E ADD MSTORE PUSH1 0x0 DUP2 DUP2 PUSH2 0x5CF ADD MSTORE DUP2 DUP2 PUSH2 0x1066 ADD MSTORE DUP2 DUP2 PUSH2 0x115A ADD MSTORE PUSH2 0x16CD ADD MSTORE PUSH1 0x0 PUSH2 0x6A2 ADD MSTORE PUSH2 0x4F06 PUSH1 0x0 RETURN INVALID PUSH1 0x80 PUSH1 0x40 MSTORE PUSH1 0x4 CALLDATASIZE LT PUSH2 0x12E JUMPI PUSH1 0x0 CALLDATALOAD PUSH1 0xE0 SHR DUP1 PUSH4 0x715018A6 GT PUSH2 0xAB JUMPI DUP1 PUSH4 0xC5B350DF GT PUSH2 0x6F JUMPI DUP1 PUSH4 0xC5B350DF EQ PUSH2 0x3A4 JUMPI DUP1 PUSH4 0xCC394283 EQ PUSH2 0x3BB JUMPI DUP1 PUSH4 0xD1851C92 EQ PUSH2 0x3E6 JUMPI DUP1 PUSH4 0xD232C220 EQ PUSH2 0x411 JUMPI DUP1 PUSH4 0xD69F9D61 EQ PUSH2 0x43C JUMPI DUP1 PUSH4 0xDB1B7659 EQ PUSH2 0x467 JUMPI PUSH2 0x135 JUMP JUMPDEST DUP1 PUSH4 0x715018A6 EQ PUSH2 0x2D3 JUMPI DUP1 PUSH4 0x7850B020 EQ PUSH2 0x2EA JUMPI DUP1 PUSH4 0x8DA5CB5B EQ PUSH2 0x313 JUMPI DUP1 PUSH4 0xB1F8100D EQ PUSH2 0x33E JUMPI DUP1 PUSH4 0xC1F0808A EQ PUSH2 0x367 JUMPI PUSH2 0x135 JUMP JUMPDEST DUP1 PUSH4 0x52A9674B GT PUSH2 0xF2 JUMPI DUP1 PUSH4 0x52A9674B EQ PUSH2 0x200 JUMPI DUP1 PUSH4 0x5BD11EFC EQ PUSH2 0x22B JUMPI DUP1 PUSH4 0x5F61E3EC EQ PUSH2 0x254 JUMPI DUP1 PUSH4 0x6A42B8F8 EQ PUSH2 0x27F JUMPI DUP1 PUSH4 0x6E2EDB4E EQ PUSH2 0x2AA JUMPI PUSH2 0x135 JUMP JUMPDEST DUP1 PUSH4 0xF329EF8 EQ PUSH2 0x13A JUMPI DUP1 PUSH4 0x14168416 EQ PUSH2 0x165 JUMPI DUP1 PUSH4 0x3CF52FFB EQ PUSH2 0x190 JUMPI DUP1 PUSH4 0x48E6FA23 EQ PUSH2 0x1BB JUMPI DUP1 PUSH4 0x4FF746F6 EQ PUSH2 0x1D7 JUMPI PUSH2 0x135 JUMP JUMPDEST CALLDATASIZE PUSH2 0x135 JUMPI STOP JUMPDEST PUSH1 0x0 DUP1 REVERT JUMPDEST CALLVALUE DUP1 ISZERO PUSH2 0x146 JUMPI PUSH1 0x0 DUP1 REVERT JUMPDEST POP PUSH2 0x14F PUSH2 0x4A4 JUMP JUMPDEST PUSH1 0x40 MLOAD PUSH2 0x15C SWAP2 SWAP1 PUSH2 0x3111 JUMP JUMPDEST PUSH1 0x40 MLOAD DUP1 SWAP2 SUB SWAP1 RETURN JUMPDEST CALLVALUE DUP1 ISZERO PUSH2 0x171 JUMPI PUSH1 0x0 DUP1 REVERT JUMPDEST POP PUSH2 0x17A PUSH2 0x4C8 JUMP JUMPDEST PUSH1 0x40 MLOAD PUSH2 0x187 SWAP2 SWAP1 PUSH2 0x314B JUMP JUMPDEST PUSH1 0x40 MLOAD DUP1 SWAP2 SUB SWAP1 RETURN JUMPDEST CALLVALUE DUP1 ISZERO PUSH2 0x19C JUMPI PUSH1 0x0 DUP1 REVERT JUMPDEST POP PUSH2 0x1A5 PUSH2 0x4EC JUMP JUMPDEST PUSH1 0x40 MLOAD PUSH2 0x1B2 SWAP2 SWAP1 PUSH2 0x317F JUMP JUMPDEST PUSH1 0x40 MLOAD DUP1 SWAP2 SUB SWAP1 RETURN JUMPDEST PUSH2 0x1D5 PUSH1 0x4 DUP1 CALLDATASIZE SUB DUP2 ADD SWAP1 PUSH2 0x1D0 SWAP2 SWAP1 PUSH2 0x32F4 JUMP JUMPDEST PUSH2 0x4F6 JUMP JUMPDEST STOP JUMPDEST CALLVALUE DUP1 ISZERO PUSH2 0x1E3 JUMPI PUSH1 0x0 DUP1 REVERT JUMPDEST POP PUSH2 0x1FE PUSH1 0x4 DUP1 CALLDATASIZE SUB DUP2 ADD SWAP1 PUSH2 0x1F9 SWAP2 SWAP1 PUSH2 0x336C JUMP JUMPDEST PUSH2 0x5CD JUMP JUMPDEST STOP JUMPDEST CALLVALUE DUP1 ISZERO PUSH2 0x20C JUMPI PUSH1 0x0 DUP1 REVERT JUMPDEST POP PUSH2 0x215 PUSH2 0x6A0 JUMP JUMPDEST PUSH1 0x40 MLOAD PUSH2 0x222 SWAP2 SWAP1 PUSH2 0x314B JUMP JUMPDEST PUSH1 0x40 MLOAD DUP1 SWAP2 SUB SWAP1 RETURN JUMPDEST CALLVALUE DUP1 ISZERO PUSH2 0x237 JUMPI PUSH1 0x0 DUP1 REVERT JUMPDEST POP PUSH2 0x252 PUSH1 0x4 DUP1 CALLDATASIZE SUB DUP2 ADD SWAP1 PUSH2 0x24D SWAP2 SWAP1 PUSH2 0x33F3 JUMP JUMPDEST PUSH2 0x6C4 JUMP JUMPDEST STOP JUMPDEST CALLVALUE DUP1 ISZERO PUSH2 0x260 JUMPI PUSH1 0x0 DUP1 REVERT JUMPDEST POP PUSH2 0x269 PUSH2 0x755 JUMP JUMPDEST PUSH1 0x40 MLOAD PUSH2 0x276 SWAP2 SWAP1 PUSH2 0x342F JUMP JUMPDEST PUSH1 0x40 MLOAD DUP1 SWAP2 SUB SWAP1 RETURN JUMPDEST CALLVALUE DUP1 ISZERO PUSH2 0x28B JUMPI PUSH1 0x0 DUP1 REVERT JUMPDEST POP PUSH2 0x294 PUSH2 0x779 JUMP JUMPDEST PUSH1 0x40 MLOAD PUSH2 0x2A1 SWAP2 SWAP1 PUSH2 0x317F JUMP JUMPDEST PUSH1 0x40 MLOAD DUP1 SWAP2 SUB SWAP1 RETURN JUMPDEST CALLVALUE DUP1 ISZERO PUSH2 0x2B6 JUMPI PUSH1 0x0 DUP1 REVERT JUMPDEST POP PUSH2 0x2D1 PUSH1 0x4 DUP1 CALLDATASIZE SUB DUP2 ADD SWAP1 PUSH2 0x2CC SWAP2 SWAP1 PUSH2 0x378E JUMP JUMPDEST PUSH2 0x784 JUMP JUMPDEST STOP JUMPDEST CALLVALUE DUP1 ISZERO PUSH2 0x2DF JUMPI PUSH1 0x0 DUP1 REVERT JUMPDEST POP PUSH2 0x2E8 PUSH2 0xA9C JUMP JUMPDEST STOP JUMPDEST CALLVALUE DUP1 ISZERO PUSH2 0x2F6 JUMPI PUSH1 0x0 DUP1 REVERT JUMPDEST POP PUSH2 0x311 PUSH1 0x4 DUP1 CALLDATASIZE SUB DUP2 ADD SWAP1 PUSH2 0x30C SWAP2 SWAP1 PUSH2 0x3841 JUMP JUMPDEST PUSH2 0xC3A JUMP JUMPDEST STOP JUMPDEST CALLVALUE DUP1 ISZERO PUSH2 0x31F JUMPI PUSH1 0x0 DUP1 REVERT JUMPDEST POP PUSH2 0x328 PUSH2 0xCCB JUMP JUMPDEST PUSH1 0x40 MLOAD PUSH2 0x335 SWAP2 SWAP1 PUSH2 0x342F JUMP JUMPDEST PUSH1 0x40 MLOAD DUP1 SWAP2 SUB SWAP1 RETURN JUMPDEST CALLVALUE DUP1 ISZERO PUSH2 0x34A JUMPI PUSH1 0x0 DUP1 REVERT JUMPDEST POP PUSH2 0x365 PUSH1 0x4 DUP1 CALLDATASIZE SUB DUP2 ADD SWAP1 PUSH2 0x360 SWAP2 SWAP1 PUSH2 0x33F3 JUMP JUMPDEST PUSH2 0xCF4 JUMP JUMPDEST STOP JUMPDEST CALLVALUE DUP1 ISZERO PUSH2 0x373 JUMPI PUSH1 0x0 DUP1 REVERT JUMPDEST POP PUSH2 0x38E PUSH1 0x4 DUP1 CALLDATASIZE SUB DUP2 ADD SWAP1 PUSH2 0x389 SWAP2 SWAP1 PUSH2 0x386E JUMP JUMPDEST PUSH2 0xEA1 JUMP JUMPDEST PUSH1 0x40 MLOAD PUSH2 0x39B SWAP2 SWAP1 PUSH2 0x38B6 JUMP JUMPDEST PUSH1 0x40 MLOAD DUP1 SWAP2 SUB SWAP1 RETURN JUMPDEST CALLVALUE DUP1 ISZERO PUSH2 0x3B0 JUMPI PUSH1 0x0 DUP1 REVERT JUMPDEST POP PUSH2 0x3B9 PUSH2 0xEC1 JUMP JUMPDEST STOP JUMPDEST CALLVALUE DUP1 ISZERO PUSH2 0x3C7 JUMPI PUSH1 0x0 DUP1 REVERT JUMPDEST POP PUSH2 0x3D0 PUSH2 0xFBE JUMP JUMPDEST PUSH1 0x40 MLOAD PUSH2 0x3DD SWAP2 SWAP1 PUSH2 0x342F JUMP JUMPDEST PUSH1 0x40 MLOAD DUP1 SWAP2 SUB SWAP1 RETURN JUMPDEST CALLVALUE DUP1 ISZERO PUSH2 0x3F2 JUMPI PUSH1 0x0 DUP1 REVERT JUMPDEST POP PUSH2 0x3FB PUSH2 0xFE4 JUMP JUMPDEST PUSH1 0x40 MLOAD PUSH2 0x408 SWAP2 SWAP1 PUSH2 0x342F JUMP JUMPDEST PUSH1 0x40 MLOAD DUP1 SWAP2 SUB SWAP1 RETURN JUMPDEST CALLVALUE DUP1 ISZERO PUSH2 0x41D JUMPI PUSH1 0x0 DUP1 REVERT JUMPDEST POP PUSH2 0x426 PUSH2 0x100E JUMP JUMPDEST PUSH1 0x40 MLOAD PUSH2 0x433 SWAP2 SWAP1 PUSH2 0x38B6 JUMP JUMPDEST PUSH1 0x40 MLOAD DUP1 SWAP2 SUB SWAP1 RETURN JUMPDEST CALLVALUE DUP1 ISZERO PUSH2 0x448 JUMPI PUSH1 0x0 DUP1 REVERT JUMPDEST POP PUSH2 0x451 PUSH2 0x1064 JUMP JUMPDEST PUSH1 0x40 MLOAD PUSH2 0x45E SWAP2 SWAP1 PUSH2 0x342F JUMP JUMPDEST PUSH1 0x40 MLOAD DUP1 SWAP2 SUB SWAP1 RETURN JUMPDEST CALLVALUE DUP1 ISZERO PUSH2 0x473 JUMPI PUSH1 0x0 DUP1 REVERT JUMPDEST POP PUSH2 0x48E PUSH1 0x4 DUP1 CALLDATASIZE SUB DUP2 ADD SWAP1 PUSH2 0x489 SWAP2 SWAP1 PUSH2 0x33F3 JUMP JUMPDEST PUSH2 0x1088 JUMP JUMPDEST PUSH1 0x40 MLOAD PUSH2 0x49B SWAP2 SWAP1 PUSH2 0x38B6 JUMP JUMPDEST PUSH1 0x40 MLOAD DUP1 SWAP2 SUB SWAP1 RETURN JUMPDEST PUSH32 0x0 DUP2 JUMP JUMPDEST PUSH32 0x0 DUP2 JUMP JUMPDEST PUSH1 0x0 PUSH1 0x2 SLOAD SWAP1 POP SWAP1 JUMP JUMPDEST PUSH32 0x0 PUSH20 0xFFFFFFFFFFFFFFFFFFFFFFFFFFFFFFFFFFFFFFFF AND CALLER PUSH20 0xFFFFFFFFFFFFFFFFFFFFFFFFFFFFFFFFFFFFFFFF AND EQ PUSH2 0x584 JUMPI PUSH1 0x40 MLOAD PUSH32 0x8C379A000000000000000000000000000000000000000000000000000000000 DUP2 MSTORE PUSH1 0x4 ADD PUSH2 0x57B SWAP1 PUSH2 0x392E JUMP JUMPDEST PUSH1 0x40 MLOAD DUP1 SWAP2 SUB SWAP1 REVERT JUMPDEST PUSH2 0x58E DUP3 DUP3 PUSH2 0x109A JUMP JUMPDEST PUSH32 0xDCAA37A042A0087DE79018C629BBD29CEE82CA80BD9BE394E1696BF9E9355077 DUP3 DUP3 CALLER PUSH1 0x40 MLOAD PUSH2 0x5C1 SWAP4 SWAP3 SWAP2 SWAP1 PUSH2 0x39CD JUMP JUMPDEST PUSH1 0x40 MLOAD DUP1 SWAP2 SUB SWAP1 LOG1 POP POP JUMP JUMPDEST PUSH32 0x0 PUSH20 0xFFFFFFFFFFFFFFFFFFFFFFFFFFFFFFFFFFFFFFFF AND CALLER PUSH20 0xFFFFFFFFFFFFFFFFFFFFFFFFFFFFFFFFFFFFFFFF AND EQ PUSH2 0x65B JUMPI PUSH1 0x40 MLOAD PUSH32 0x8C379A000000000000000000000000000000000000000000000000000000000 DUP2 MSTORE PUSH1 0x4 ADD PUSH2 0x652 SWAP1 PUSH2 0x3A5E JUMP JUMPDEST PUSH1 0x40 MLOAD DUP1 SWAP2 SUB SWAP1 REVERT JUMPDEST PUSH2 0x664 DUP2 PUSH2 0x1210 JUMP JUMPDEST PUSH32 0xB3ABC57BFEEBD2CAC918901DB582F71972A8E628BCCF19F5AE3E3482B98A5CED DUP2 CALLER PUSH1 0x40 MLOAD PUSH2 0x695 SWAP3 SWAP2 SWAP1 PUSH2 0x3A7E JUMP JUMPDEST PUSH1 0x40 MLOAD DUP1 SWAP2 SUB SWAP1 LOG1 POP JUMP JUMPDEST PUSH32 0x0 DUP2 JUMP JUMPDEST CALLER PUSH20 0xFFFFFFFFFFFFFFFFFFFFFFFFFFFFFFFFFFFFFFFF AND PUSH1 0x0 DUP1 SLOAD SWAP1 PUSH2 0x100 EXP SWAP1 DIV PUSH20 0xFFFFFFFFFFFFFFFFFFFFFFFFFFFFFFFFFFFFFFFF AND PUSH20 0xFFFFFFFFFFFFFFFFFFFFFFFFFFFFFFFFFFFFFFFF AND EQ PUSH2 0x749 JUMPI PUSH1 0x40 MLOAD PUSH32 0x8D450DD800000000000000000000000000000000000000000000000000000000 DUP2 MSTORE PUSH1 0x4 ADD PUSH1 0x40 MLOAD DUP1 SWAP2 SUB SWAP1 REVERT JUMPDEST PUSH2 0x752 DUP2 PUSH2 0x1242 JUMP JUMPDEST POP JUMP JUMPDEST PUSH32 0x0 DUP2 JUMP JUMPDEST PUSH1 0x0 PUSH3 0x93A80 SWAP1 POP SWAP1 JUMP JUMPDEST PUSH1 0x3 PUSH1 0x0 SWAP1 SLOAD SWAP1 PUSH2 0x100 EXP SWAP1 DIV PUSH20 0xFFFFFFFFFFFFFFFFFFFFFFFFFFFFFFFFFFFFFFFF AND PUSH20 0xFFFFFFFFFFFFFFFFFFFFFFFFFFFFFFFFFFFFFFFF AND DUP5 PUSH20 0xFFFFFFFFFFFFFFFFFFFFFFFFFFFFFFFFFFFFFFFF AND EQ PUSH2 0x814 JUMPI PUSH1 0x40 MLOAD PUSH32 0x8C379A000000000000000000000000000000000000000000000000000000000 DUP2 MSTORE PUSH1 0x4 ADD PUSH2 0x80B SWAP1 PUSH2 0x3AFA JUMP JUMPDEST PUSH1 0x40 MLOAD DUP1 SWAP2 SUB SWAP1 REVERT JUMPDEST ADDRESS PUSH20 0xFFFFFFFFFFFFFFFFFFFFFFFFFFFFFFFFFFFFFFFF AND DUP6 PUSH20 0xFFFFFFFFFFFFFFFFFFFFFFFFFFFFFFFFFFFFFFFF AND EQ PUSH2 0x882 JUMPI PUSH1 0x40 MLOAD PUSH32 0x8C379A000000000000000000000000000000000000000000000000000000000 DUP2 MSTORE PUSH1 0x4 ADD PUSH2 0x879 SWAP1 PUSH2 0x3B66 JUMP JUMPDEST PUSH1 0x40 MLOAD DUP1 SWAP2 SUB SWAP1 REVERT JUMPDEST PUSH1 0x0 PUSH2 0x890 DUP7 DUP7 DUP7 DUP7 PUSH2 0x12E1 JUMP JUMPDEST SWAP1 POP PUSH2 0x89C DUP2 DUP4 PUSH2 0x1381 JUMP JUMPDEST PUSH2 0x8DB JUMPI PUSH1 0x40 MLOAD PUSH32 0x8C379A000000000000000000000000000000000000000000000000000000000 DUP2 MSTORE PUSH1 0x4 ADD PUSH2 0x8D2 SWAP1 PUSH2 0x3BD2 JUMP JUMPDEST PUSH1 0x40 MLOAD DUP1 SWAP2 SUB SWAP1 REVERT JUMPDEST PUSH1 0x0 PUSH2 0x8F1 PUSH1 0x0 DUP7 PUSH2 0x13A6 SWAP1 SWAP2 SWAP1 PUSH4 0xFFFFFFFF AND JUMP JUMPDEST SWAP1 POP PUSH1 0x0 PUSH2 0x939 PUSH1 0x20 PUSH2 0x909 DUP5 PUSH3 0xFFFFFF NOT AND PUSH2 0x13D1 JUMP JUMPDEST PUSH2 0x913 SWAP2 SWAP1 PUSH2 0x3C39 JUMP JUMPDEST PUSH12 0xFFFFFFFFFFFFFFFFFFFFFFFF AND PUSH1 0x20 DUP5 PUSH3 0xFFFFFF NOT AND PUSH2 0x13F1 SWAP1 SWAP3 SWAP2 SWAP1 PUSH4 0xFFFFFFFF AND JUMP JUMPDEST SWAP1 POP PUSH1 0x5 PUSH1 0x0 DUP3 DUP2 MSTORE PUSH1 0x20 ADD SWAP1 DUP2 MSTORE PUSH1 0x20 ADD PUSH1 0x0 KECCAK256 PUSH1 0x0 SWAP1 SLOAD SWAP1 PUSH2 0x100 EXP SWAP1 DIV PUSH1 0xFF AND PUSH2 0xA92 JUMPI PUSH1 0x1 PUSH1 0x5 PUSH1 0x0 DUP4 DUP2 MSTORE PUSH1 0x20 ADD SWAP1 DUP2 MSTORE PUSH1 0x20 ADD PUSH1 0x0 KECCAK256 PUSH1 0x0 PUSH2 0x100 EXP DUP2 SLOAD DUP2 PUSH1 0xFF MUL NOT AND SWAP1 DUP4 ISZERO ISZERO MUL OR SWAP1 SSTORE POP PUSH32 0x0 PUSH20 0xFFFFFFFFFFFFFFFFFFFFFFFFFFFFFFFFFFFFFFFF AND PUSH4 0x8E7D93FA PUSH32 0x0 DUP4 PUSH1 0x40 MLOAD DUP4 PUSH4 0xFFFFFFFF AND PUSH1 0xE0 SHL DUP2 MSTORE PUSH1 0x4 ADD PUSH2 0xA07 SWAP3 SWAP2 SWAP1 PUSH2 0x3C88 JUMP JUMPDEST PUSH1 0x0 PUSH1 0x40 MLOAD DUP1 DUP4 SUB DUP2 PUSH1 0x0 DUP8 DUP1 EXTCODESIZE ISZERO DUP1 ISZERO PUSH2 0xA21 JUMPI PUSH1 0x0 DUP1 REVERT JUMPDEST POP GAS CALL ISZERO DUP1 ISZERO PUSH2 0xA35 JUMPI RETURNDATASIZE PUSH1 0x0 DUP1 RETURNDATACOPY RETURNDATASIZE PUSH1 0x0 REVERT JUMPDEST POP POP POP POP PUSH32 0xB3ABC57BFEEBD2CAC918901DB582F71972A8E628BCCF19F5AE3E3482B98A5CED DUP2 PUSH1 0x40 MLOAD PUSH1 0x20 ADD PUSH2 0xA6B SWAP2 SWAP1 PUSH2 0x3CB1 JUMP JUMPDEST PUSH1 0x40 MLOAD PUSH1 0x20 DUP2 DUP4 SUB SUB DUP2 MSTORE SWAP1 PUSH1 0x40 MSTORE CALLER PUSH1 0x40 MLOAD PUSH2 0xA89 SWAP3 SWAP2 SWAP1 PUSH2 0x3A7E JUMP JUMPDEST PUSH1 0x40 MLOAD DUP1 SWAP2 SUB SWAP1 LOG1 JUMPDEST POP POP POP POP POP POP POP POP JUMP JUMPDEST CALLER PUSH20 0xFFFFFFFFFFFFFFFFFFFFFFFFFFFFFFFFFFFFFFFF AND PUSH1 0x0 DUP1 SLOAD SWAP1 PUSH2 0x100 EXP SWAP1 DIV PUSH20 0xFFFFFFFFFFFFFFFFFFFFFFFFFFFFFFFFFFFFFFFF AND PUSH20 0xFFFFFFFFFFFFFFFFFFFFFFFFFFFFFFFFFFFFFFFF AND EQ PUSH2 0xB21 JUMPI PUSH1 0x40 MLOAD PUSH32 0x8D450DD800000000000000000000000000000000000000000000000000000000 DUP2 MSTORE PUSH1 0x4 ADD PUSH1 0x40 MLOAD DUP1 SWAP2 SUB SWAP1 REVERT JUMPDEST PUSH3 0x93A80 PUSH1 0x2 SLOAD TIMESTAMP PUSH2 0xB33 SWAP2 SWAP1 PUSH2 0x3CCC JUMP JUMPDEST GT PUSH2 0xB6A JUMPI PUSH1 0x40 MLOAD PUSH32 0x9380A17C00000000000000000000000000000000000000000000000000000000 DUP2 MSTORE PUSH1 0x4 ADD PUSH1 0x40 MLOAD DUP1 SWAP2 SUB SWAP1 REVERT JUMPDEST PUSH1 0x0 PUSH1 0x2 SLOAD SUB PUSH2 0xBA6 JUMPI PUSH1 0x40 MLOAD PUSH32 0x392CC0FC00000000000000000000000000000000000000000000000000000000 DUP2 MSTORE PUSH1 0x4 ADD PUSH1 0x40 MLOAD DUP1 SWAP2 SUB SWAP1 REVERT JUMPDEST PUSH1 0x0 PUSH20 0xFFFFFFFFFFFFFFFFFFFFFFFFFFFFFFFFFFFFFFFF AND PUSH1 0x1 PUSH1 0x0 SWAP1 SLOAD SWAP1 PUSH2 0x100 EXP SWAP1 DIV PUSH20 0xFFFFFFFFFFFFFFFFFFFFFFFFFFFFFFFFFFFFFFFF AND PUSH20 0xFFFFFFFFFFFFFFFFFFFFFFFFFFFFFFFFFFFFFFFF AND EQ PUSH2 0xC2E JUMPI PUSH1 0x40 MLOAD PUSH32 0x23295EF900000000000000000000000000000000000000000000000000000000 DUP2 MSTORE PUSH1 0x4 ADD PUSH1 0x40 MLOAD DUP1 SWAP2 SUB SWAP1 REVERT JUMPDEST PUSH2 0xC38 PUSH1 0x0 PUSH2 0x150B JUMP JUMPDEST JUMP JUMPDEST CALLER PUSH20 0xFFFFFFFFFFFFFFFFFFFFFFFFFFFFFFFFFFFFFFFF AND PUSH1 0x0 DUP1 SLOAD SWAP1 PUSH2 0x100 EXP SWAP1 DIV PUSH20 0xFFFFFFFFFFFFFFFFFFFFFFFFFFFFFFFFFFFFFFFF AND PUSH20 0xFFFFFFFFFFFFFFFFFFFFFFFFFFFFFFFFFFFFFFFF AND EQ PUSH2 0xCBF JUMPI PUSH1 0x40 MLOAD PUSH32 0x8D450DD800000000000000000000000000000000000000000000000000000000 DUP2 MSTORE PUSH1 0x4 ADD PUSH1 0x40 MLOAD DUP1 SWAP2 SUB SWAP1 REVERT JUMPDEST PUSH2 0xCC8 DUP2 PUSH2 0x15F3 JUMP JUMPDEST POP JUMP JUMPDEST PUSH1 0x0 DUP1 PUSH1 0x0 SWAP1 SLOAD SWAP1 PUSH2 0x100 EXP SWAP1 DIV PUSH20 0xFFFFFFFFFFFFFFFFFFFFFFFFFFFFFFFFFFFFFFFF AND SWAP1 POP SWAP1 JUMP JUMPDEST CALLER PUSH20 0xFFFFFFFFFFFFFFFFFFFFFFFFFFFFFFFFFFFFFFFF AND PUSH1 0x0 DUP1 SLOAD SWAP1 PUSH2 0x100 EXP SWAP1 DIV PUSH20 0xFFFFFFFFFFFFFFFFFFFFFFFFFFFFFFFFFFFFFFFF AND PUSH20 0xFFFFFFFFFFFFFFFFFFFFFFFFFFFFFFFFFFFFFFFF AND EQ PUSH2 0xD79 JUMPI PUSH1 0x40 MLOAD PUSH32 0x8D450DD800000000000000000000000000000000000000000000000000000000 DUP2 MSTORE PUSH1 0x4 ADD PUSH1 0x40 MLOAD DUP1 SWAP2 SUB SWAP1 REVERT JUMPDEST DUP1 PUSH20 0xFFFFFFFFFFFFFFFFFFFFFFFFFFFFFFFFFFFFFFFF AND PUSH1 0x1 PUSH1 0x0 SWAP1 SLOAD SWAP1 PUSH2 0x100 EXP SWAP1 DIV PUSH20 0xFFFFFFFFFFFFFFFFFFFFFFFFFFFFFFFFFFFFFFFF AND PUSH20 0xFFFFFFFFFFFFFFFFFFFFFFFFFFFFFFFFFFFFFFFF AND EQ DUP1 ISZERO PUSH2 0xDD9 JUMPI POP PUSH1 0x0 PUSH1 0x2 SLOAD EQ ISZERO JUMPDEST ISZERO PUSH2 0xE10 JUMPI PUSH1 0x40 MLOAD PUSH32 0x23780CCA00000000000000000000000000000000000000000000000000000000 DUP2 MSTORE PUSH1 0x4 ADD PUSH1 0x40 MLOAD DUP1 SWAP2 SUB SWAP1 REVERT JUMPDEST DUP1 PUSH20 0xFFFFFFFFFFFFFFFFFFFFFFFFFFFFFFFFFFFFFFFF AND PUSH1 0x0 DUP1 SLOAD SWAP1 PUSH2 0x100 EXP SWAP1 DIV PUSH20 0xFFFFFFFFFFFFFFFFFFFFFFFFFFFFFFFFFFFFFFFF AND PUSH20 0xFFFFFFFFFFFFFFFFFFFFFFFFFFFFFFFFFFFFFFFF AND SUB PUSH2 0xE95 JUMPI PUSH1 0x40 MLOAD PUSH32 0x945F6E7E00000000000000000000000000000000000000000000000000000000 DUP2 MSTORE PUSH1 0x4 ADD PUSH1 0x40 MLOAD DUP1 SWAP2 SUB SWAP1 REVERT JUMPDEST PUSH2 0xE9E DUP2 PUSH2 0x1638 JUMP JUMPDEST POP JUMP JUMPDEST PUSH1 0x5 PUSH1 0x20 MSTORE DUP1 PUSH1 0x0 MSTORE PUSH1 0x40 PUSH1 0x0 KECCAK256 PUSH1 0x0 SWAP2 POP SLOAD SWAP1 PUSH2 0x100 EXP SWAP1 DIV PUSH1 0xFF AND DUP2 JUMP JUMPDEST CALLER PUSH20 0xFFFFFFFFFFFFFFFFFFFFFFFFFFFFFFFFFFFFFFFF AND PUSH1 0x1 PUSH1 0x0 SWAP1 SLOAD SWAP1 PUSH2 0x100 EXP SWAP1 DIV PUSH20 0xFFFFFFFFFFFFFFFFFFFFFFFFFFFFFFFFFFFFFFFF AND PUSH20 0xFFFFFFFFFFFFFFFFFFFFFFFFFFFFFFFFFFFFFFFF AND EQ PUSH2 0xF48 JUMPI PUSH1 0x40 MLOAD PUSH32 0x234FE4E200000000000000000000000000000000000000000000000000000000 DUP2 MSTORE PUSH1 0x4 ADD PUSH1 0x40 MLOAD DUP1 SWAP2 SUB SWAP1 REVERT JUMPDEST PUSH3 0x93A80 PUSH1 0x2 SLOAD TIMESTAMP PUSH2 0xF5A SWAP2 SWAP1 PUSH2 0x3CCC JUMP JUMPDEST GT PUSH2 0xF91 JUMPI PUSH1 0x40 MLOAD PUSH32 0x9380A17C00000000000000000000000000000000000000000000000000000000 DUP2 MSTORE PUSH1 0x4 ADD PUSH1 0x40 MLOAD DUP1 SWAP2 SUB SWAP1 REVERT JUMPDEST PUSH2 0xFBC PUSH1 0x1 PUSH1 0x0 SWAP1 SLOAD SWAP1 PUSH2 0x100 EXP SWAP1 DIV PUSH20 0xFFFFFFFFFFFFFFFFFFFFFFFFFFFFFFFFFFFFFFFF AND PUSH2 0x150B JUMP JUMPDEST JUMP JUMPDEST PUSH1 0x3 PUSH1 0x0 SWAP1 SLOAD SWAP1 PUSH2 0x100 EXP SWAP1 DIV PUSH20 0xFFFFFFFFFFFFFFFFFFFFFFFFFFFFFFFFFFFFFFFF AND DUP2 JUMP JUMPDEST PUSH1 0x0 PUSH1 0x1 PUSH1 0x0 SWAP1 SLOAD SWAP1 PUSH2 0x100 EXP SWAP1 DIV PUSH20 0xFFFFFFFFFFFFFFFFFFFFFFFFFFFFFFFFFFFFFFFF AND SWAP1 POP SWAP1 JUMP JUMPDEST PUSH1 0x0 DUP1 PUSH20 0xFFFFFFFFFFFFFFFFFFFFFFFFFFFFFFFFFFFFFFFF AND PUSH1 0x0 DUP1 SLOAD SWAP1 PUSH2 0x100 EXP SWAP1 DIV PUSH20 0xFFFFFFFFFFFFFFFFFFFFFFFFFFFFFFFFFFFFFFFF AND PUSH20 0xFFFFFFFFFFFFFFFFFFFFFFFFFFFFFFFFFFFFFFFF AND EQ SWAP1 POP SWAP1 JUMP JUMPDEST PUSH32 0x0 DUP2 JUMP JUMPDEST PUSH1 0x0 PUSH2 0x1093 DUP3 PUSH2 0x16C6 JUMP JUMPDEST SWAP1 POP SWAP2 SWAP1 POP JUMP JUMPDEST PUSH1 0x20 DUP3 MLOAD EQ PUSH2 0x10DE JUMPI PUSH1 0x40 MLOAD PUSH32 0x8C379A000000000000000000000000000000000000000000000000000000000 DUP2 MSTORE PUSH1 0x4 ADD PUSH2 0x10D5 SWAP1 PUSH2 0x3D4C JUMP JUMPDEST PUSH1 0x40 MLOAD DUP1 SWAP2 SUB SWAP1 REVERT JUMPDEST PUSH1 0x0 PUSH4 0x4FF746F6 PUSH1 0xE0 SHL DUP4 PUSH1 0x40 MLOAD PUSH1 0x24 ADD PUSH2 0x10F9 SWAP2 SWAP1 PUSH2 0x3D6C JUMP JUMPDEST PUSH1 0x40 MLOAD PUSH1 0x20 DUP2 DUP4 SUB SUB DUP2 MSTORE SWAP1 PUSH1 0x40 MSTORE SWAP1 PUSH28 0xFFFFFFFFFFFFFFFFFFFFFFFFFFFFFFFFFFFFFFFFFFFFFFFFFFFFFFFF NOT AND PUSH1 0x20 DUP3 ADD DUP1 MLOAD PUSH28 0xFFFFFFFFFFFFFFFFFFFFFFFFFFFFFFFFFFFFFFFFFFFFFFFFFFFFFFFF DUP4 DUP2 DUP4 AND OR DUP4 MSTORE POP POP POP POP SWAP1 POP PUSH32 0x0 PUSH20 0xFFFFFFFFFFFFFFFFFFFFFFFFFFFFFFFFFFFFFFFF AND PUSH4 0x3DBB202B PUSH1 0x3 PUSH1 0x0 SWAP1 SLOAD SWAP1 PUSH2 0x100 EXP SWAP1 DIV PUSH20 0xFFFFFFFFFFFFFFFFFFFFFFFFFFFFFFFFFFFFFFFF AND DUP4 PUSH1 0x4 SLOAD PUSH1 0x40 MLOAD DUP5 PUSH4 0xFFFFFFFF AND PUSH1 0xE0 SHL DUP2 MSTORE PUSH1 0x4 ADD PUSH2 0x11D9 SWAP4 SWAP3 SWAP2 SWAP1 PUSH2 0x3D8E JUMP JUMPDEST PUSH1 0x0 PUSH1 0x40 MLOAD DUP1 DUP4 SUB DUP2 PUSH1 0x0 DUP8 DUP1 EXTCODESIZE ISZERO DUP1 ISZERO PUSH2 0x11F3 JUMPI PUSH1 0x0 DUP1 REVERT JUMPDEST POP GAS CALL ISZERO DUP1 ISZERO PUSH2 0x1207 JUMPI RETURNDATASIZE PUSH1 0x0 DUP1 RETURNDATACOPY RETURNDATASIZE PUSH1 0x0 REVERT JUMPDEST POP POP POP POP POP POP POP JUMP JUMPDEST PUSH1 0x40 MLOAD PUSH32 0x5B0BF6D400000000000000000000000000000000000000000000000000000000 DUP2 MSTORE PUSH1 0x4 ADD PUSH1 0x40 MLOAD DUP1 SWAP2 SUB SWAP1 REVERT JUMPDEST PUSH32 0xC77BEC288FC88F168427F2F7DA682EADB26CAC89D8D591AF6E443DA98DFF2BBC PUSH1 0x3 PUSH1 0x0 SWAP1 SLOAD SWAP1 PUSH2 0x100 EXP SWAP1 DIV PUSH20 0xFFFFFFFFFFFFFFFFFFFFFFFFFFFFFFFFFFFFFFFF AND DUP3 PUSH1 0x40 MLOAD PUSH2 0x1295 SWAP3 SWAP2 SWAP1 PUSH2 0x3DCC JUMP JUMPDEST PUSH1 0x40 MLOAD DUP1 SWAP2 SUB SWAP1 LOG1 DUP1 PUSH1 0x3 PUSH1 0x0 PUSH2 0x100 EXP DUP2 SLOAD DUP2 PUSH20 0xFFFFFFFFFFFFFFFFFFFFFFFFFFFFFFFFFFFFFFFF MUL NOT AND SWAP1 DUP4 PUSH20 0xFFFFFFFFFFFFFFFFFFFFFFFFFFFFFFFFFFFFFFFF AND MUL OR SWAP1 SSTORE POP POP JUMP JUMPDEST PUSH1 0x60 DUP5 DUP5 DUP5 DUP5 PUSH1 0x40 MLOAD PUSH1 0x24 ADD PUSH2 0x12FA SWAP5 SWAP4 SWAP3 SWAP2 SWAP1 PUSH2 0x3DF5 JUMP JUMPDEST PUSH1 0x40 MLOAD PUSH1 0x20 DUP2 DUP4 SUB SUB DUP2 MSTORE SWAP1 PUSH1 0x40 MSTORE PUSH32 0xCBD4ECE900000000000000000000000000000000000000000000000000000000 PUSH28 0xFFFFFFFFFFFFFFFFFFFFFFFFFFFFFFFFFFFFFFFFFFFFFFFFFFFFFFFF NOT AND PUSH1 0x20 DUP3 ADD DUP1 MLOAD PUSH28 0xFFFFFFFFFFFFFFFFFFFFFFFFFFFFFFFFFFFFFFFFFFFFFFFFFFFFFFFF DUP4 DUP2 DUP4 AND OR DUP4 MSTORE POP POP POP POP SWAP1 POP SWAP5 SWAP4 POP POP POP POP JUMP JUMPDEST PUSH1 0x0 PUSH2 0x138C DUP3 PUSH2 0x16F9 JUMP JUMPDEST DUP1 ISZERO PUSH2 0x139E JUMPI POP PUSH2 0x139D DUP4 DUP4 PUSH2 0x17AC JUMP JUMPDEST JUMPDEST SWAP1 POP SWAP3 SWAP2 POP POP JUMP JUMPDEST PUSH1 0x0 DUP1 DUP4 MLOAD SWAP1 POP PUSH1 0x0 PUSH1 0x20 DUP6 ADD SWAP1 POP PUSH2 0x13C7 DUP5 PUSH5 0xFFFFFFFFFF AND DUP3 DUP5 PUSH2 0x1917 JUMP JUMPDEST SWAP3 POP POP POP SWAP3 SWAP2 POP POP JUMP JUMPDEST PUSH1 0x0 DUP1 PUSH12 0xFFFFFFFFFFFFFFFFFFFFFFFF SWAP1 POP DUP1 DUP4 PUSH1 0x18 SHR AND SWAP2 POP POP SWAP2 SWAP1 POP JUMP JUMPDEST PUSH1 0x0 DUP1 DUP3 PUSH1 0xFF AND SUB PUSH2 0x1408 JUMPI PUSH1 0x0 DUP1 SHL SWAP1 POP PUSH2 0x1504 JUMP JUMPDEST PUSH2 0x1411 DUP5 PUSH2 0x13D1 JUMP JUMPDEST PUSH12 0xFFFFFFFFFFFFFFFFFFFFFFFF AND DUP3 PUSH1 0xFF AND DUP5 PUSH2 0x142E SWAP2 SWAP1 PUSH2 0x3E41 JUMP JUMPDEST GT ISZERO PUSH2 0x148A JUMPI PUSH2 0x143D DUP5 PUSH2 0x197E JUMP JUMPDEST PUSH2 0x1446 DUP6 PUSH2 0x13D1 JUMP JUMPDEST DUP5 DUP5 PUSH1 0xFF AND PUSH1 0x40 MLOAD PUSH32 0x78218D2900000000000000000000000000000000000000000000000000000000 DUP2 MSTORE PUSH1 0x4 ADD PUSH2 0x1481 SWAP5 SWAP4 SWAP3 SWAP2 SWAP1 PUSH2 0x3EA6 JUMP JUMPDEST PUSH1 0x40 MLOAD DUP1 SWAP2 SUB SWAP1 REVERT JUMPDEST PUSH1 0x20 DUP3 PUSH1 0xFF AND GT ISZERO PUSH2 0x14C8 JUMPI PUSH1 0x40 MLOAD PUSH32 0x45DF3F900000000000000000000000000000000000000000000000000000000 DUP2 MSTORE PUSH1 0x4 ADD PUSH1 0x40 MLOAD DUP1 SWAP2 SUB SWAP1 REVERT JUMPDEST PUSH1 0x0 PUSH1 0x8 DUP4 MUL SWAP1 POP PUSH1 0x0 PUSH2 0x14DB DUP7 PUSH2 0x197E JUMP JUMPDEST PUSH12 0xFFFFFFFFFFFFFFFFFFFFFFFF AND SWAP1 POP PUSH1 0x0 PUSH2 0x14F6 DUP4 PUSH2 0x199E JUMP JUMPDEST SWAP1 POP DUP1 DUP7 DUP4 ADD MLOAD AND SWAP4 POP POP POP POP JUMPDEST SWAP4 SWAP3 POP POP POP JUMP JUMPDEST DUP1 PUSH20 0xFFFFFFFFFFFFFFFFFFFFFFFFFFFFFFFFFFFFFFFF AND PUSH1 0x0 DUP1 SLOAD SWAP1 PUSH2 0x100 EXP SWAP1 DIV PUSH20 0xFFFFFFFFFFFFFFFFFFFFFFFFFFFFFFFFFFFFFFFF AND PUSH20 0xFFFFFFFFFFFFFFFFFFFFFFFFFFFFFFFFFFFFFFFF AND PUSH32 0x8BE0079C531659141344CD1FD0A4F28419497F9722A3DAAFE3B4186F6B6457E0 PUSH1 0x40 MLOAD PUSH1 0x40 MLOAD DUP1 SWAP2 SUB SWAP1 LOG3 DUP1 PUSH1 0x0 DUP1 PUSH2 0x100 EXP DUP2 SLOAD DUP2 PUSH20 0xFFFFFFFFFFFFFFFFFFFFFFFFFFFFFFFFFFFFFFFF MUL NOT AND SWAP1 DUP4 PUSH20 0xFFFFFFFFFFFFFFFFFFFFFFFFFFFFFFFFFFFFFFFF AND MUL OR SWAP1 SSTORE POP PUSH1 0x2 PUSH1 0x0 SWAP1 SSTORE PUSH1 0x1 PUSH1 0x0 PUSH2 0x100 EXP DUP2 SLOAD SWAP1 PUSH20 0xFFFFFFFFFFFFFFFFFFFFFFFFFFFFFFFFFFFFFFFF MUL NOT AND SWAP1 SSTORE POP JUMP JUMPDEST PUSH32 0x877A02CB809DA0364D23ADCA3CD50C451B53F279D3DF632E1FC11EB66335BCE5 PUSH1 0x4 SLOAD DUP3 PUSH1 0x40 MLOAD PUSH2 0x1626 SWAP3 SWAP2 SWAP1 PUSH2 0x3EEB JUMP JUMPDEST PUSH1 0x40 MLOAD DUP1 SWAP2 SUB SWAP1 LOG1 DUP1 PUSH1 0x4 DUP2 SWAP1 SSTORE POP POP JUMP JUMPDEST TIMESTAMP PUSH1 0x2 DUP2 SWAP1 SSTORE POP DUP1 PUSH1 0x1 PUSH1 0x0 PUSH2 0x100 EXP DUP2 SLOAD DUP2 PUSH20 0xFFFFFFFFFFFFFFFFFFFFFFFFFFFFFFFFFFFFFFFF MUL NOT AND SWAP1 DUP4 PUSH20 0xFFFFFFFFFFFFFFFFFFFFFFFFFFFFFFFFFFFFFFFF AND MUL OR SWAP1 SSTORE POP DUP1 PUSH20 0xFFFFFFFFFFFFFFFFFFFFFFFFFFFFFFFFFFFFFFFF AND PUSH32 0x6AB4D119F23076E8AD491BC65CE85F017FB0591DCE08755BA8591059CC51737A PUSH1 0x40 MLOAD PUSH1 0x40 MLOAD DUP1 SWAP2 SUB SWAP1 LOG2 POP JUMP JUMPDEST PUSH1 0x0 PUSH2 0x16F2 PUSH32 0x0 DUP4 PUSH2 0x19CD JUMP JUMPDEST SWAP1 POP SWAP2 SWAP1 POP JUMP JUMPDEST PUSH1 0x0 PUSH32 0x0 PUSH20 0xFFFFFFFFFFFFFFFFFFFFFFFFFFFFFFFFFFFFFFFF AND PUSH4 0x4D69EE57 DUP4 PUSH1 0x0 ADD MLOAD DUP5 PUSH1 0x20 ADD MLOAD DUP6 PUSH1 0x40 ADD MLOAD PUSH1 0x40 MLOAD DUP5 PUSH4 0xFFFFFFFF AND PUSH1 0xE0 SHL DUP2 MSTORE PUSH1 0x4 ADD PUSH2 0x1764 SWAP4 SWAP3 SWAP2 SWAP1 PUSH2 0x40DE JUMP JUMPDEST PUSH1 0x20 PUSH1 0x40 MLOAD DUP1 DUP4 SUB DUP2 DUP7 GAS STATICCALL ISZERO DUP1 ISZERO PUSH2 0x1781 JUMPI RETURNDATASIZE PUSH1 0x0 DUP1 RETURNDATACOPY RETURNDATASIZE PUSH1 0x0 REVERT JUMPDEST POP POP POP POP PUSH1 0x40 MLOAD RETURNDATASIZE PUSH1 0x1F NOT PUSH1 0x1F DUP3 ADD AND DUP3 ADD DUP1 PUSH1 0x40 MSTORE POP DUP2 ADD SWAP1 PUSH2 0x17A5 SWAP2 SWAP1 PUSH2 0x414F JUMP JUMPDEST SWAP1 POP SWAP2 SWAP1 POP JUMP JUMPDEST PUSH1 0x0 DUP1 DUP4 PUSH20 0x4200000000000000000000000000000000000007 PUSH1 0x40 MLOAD PUSH1 0x20 ADD PUSH2 0x17D6 SWAP3 SWAP2 SWAP1 PUSH2 0x4200 JUMP JUMPDEST PUSH1 0x40 MLOAD PUSH1 0x20 DUP2 DUP4 SUB SUB DUP2 MSTORE SWAP1 PUSH1 0x40 MSTORE DUP1 MLOAD SWAP1 PUSH1 0x20 ADD KECCAK256 PUSH1 0x0 PUSH1 0x40 MLOAD PUSH1 0x20 ADD PUSH2 0x17FF SWAP3 SWAP2 SWAP1 PUSH2 0x426A JUMP JUMPDEST PUSH1 0x40 MLOAD PUSH1 0x20 DUP2 DUP4 SUB SUB DUP2 MSTORE SWAP1 PUSH1 0x40 MSTORE DUP1 MLOAD SWAP1 PUSH1 0x20 ADD KECCAK256 SWAP1 POP PUSH1 0x0 DUP1 PUSH2 0x1860 PUSH20 0x4200000000000000000000000000000000000000 PUSH1 0x40 MLOAD PUSH1 0x20 ADD PUSH2 0x1842 SWAP2 SWAP1 PUSH2 0x4296 JUMP JUMPDEST PUSH1 0x40 MLOAD PUSH1 0x20 DUP2 DUP4 SUB SUB DUP2 MSTORE SWAP1 PUSH1 0x40 MSTORE DUP7 PUSH1 0x60 ADD MLOAD DUP8 PUSH1 0x0 ADD MLOAD PUSH2 0x1AE2 JUMP JUMPDEST SWAP2 POP SWAP2 POP PUSH1 0x1 ISZERO ISZERO DUP3 ISZERO ISZERO EQ PUSH2 0x18AB JUMPI PUSH1 0x40 MLOAD PUSH32 0x8C379A000000000000000000000000000000000000000000000000000000000 DUP2 MSTORE PUSH1 0x4 ADD PUSH2 0x18A2 SWAP1 PUSH2 0x4349 JUMP JUMPDEST PUSH1 0x40 MLOAD DUP1 SWAP2 SUB SWAP1 REVERT JUMPDEST PUSH1 0x0 PUSH2 0x18B6 DUP3 PUSH2 0x1B0B JUMP JUMPDEST SWAP1 POP PUSH2 0x190B DUP5 PUSH1 0x40 MLOAD PUSH1 0x20 ADD PUSH2 0x18CC SWAP2 SWAP1 PUSH2 0x4369 JUMP JUMPDEST PUSH1 0x40 MLOAD PUSH1 0x20 DUP2 DUP4 SUB SUB DUP2 MSTORE SWAP1 PUSH1 0x40 MSTORE PUSH1 0x1 PUSH1 0x40 MLOAD PUSH1 0x20 ADD PUSH2 0x18ED SWAP2 SWAP1 PUSH2 0x43C7 JUMP JUMPDEST PUSH1 0x40 MLOAD PUSH1 0x20 DUP2 DUP4 SUB SUB DUP2 MSTORE SWAP1 PUSH1 0x40 MSTORE DUP9 PUSH1 0x80 ADD MLOAD DUP5 PUSH1 0x40 ADD MLOAD PUSH2 0x1BD5 JUMP JUMPDEST SWAP5 POP POP POP POP POP SWAP3 SWAP2 POP POP JUMP JUMPDEST PUSH1 0x0 DUP1 DUP3 DUP5 PUSH2 0x1926 SWAP2 SWAP1 PUSH2 0x3E41 JUMP JUMPDEST SWAP1 POP PUSH1 0x40 MLOAD DUP2 GT ISZERO PUSH2 0x1937 JUMPI PUSH1 0x0 SWAP1 POP JUMPDEST PUSH1 0x0 DUP2 SUB PUSH2 0x1968 JUMPI PUSH32 0xFFFFFFFFFFFFFFFFFFFFFFFFFFFFFFFFFFFFFFFFFFFFFFFFFFFFFFFFFF000000 SWAP2 POP POP PUSH2 0x1977 JUMP JUMPDEST PUSH2 0x1973 DUP6 DUP6 DUP6 PUSH2 0x1BFA JUMP JUMPDEST SWAP2 POP POP JUMPDEST SWAP4 SWAP3 POP POP POP JUMP JUMPDEST PUSH1 0x0 DUP1 PUSH12 0xFFFFFFFFFFFFFFFFFFFFFFFF SWAP1 POP DUP1 DUP4 PUSH1 0x78 SHR AND SWAP2 POP POP SWAP2 SWAP1 POP JUMP JUMPDEST PUSH1 0x0 PUSH32 0x8000000000000000000000000000000000000000000000000000000000000000 PUSH1 0x1 DUP4 SUB SAR SWAP1 POP SWAP2 SWAP1 POP JUMP JUMPDEST PUSH1 0x0 DUP3 PUSH20 0xFFFFFFFFFFFFFFFFFFFFFFFFFFFFFFFFFFFFFFFF AND CALLER PUSH20 0xFFFFFFFFFFFFFFFFFFFFFFFFFFFFFFFFFFFFFFFF AND EQ PUSH2 0x1A3D JUMPI PUSH1 0x40 MLOAD PUSH32 0x8C379A000000000000000000000000000000000000000000000000000000000 DUP2 MSTORE PUSH1 0x4 ADD PUSH2 0x1A34 SWAP1 PUSH2 0x442E JUMP JUMPDEST PUSH1 0x40 MLOAD DUP1 SWAP2 SUB SWAP1 REVERT JUMPDEST DUP2 PUSH20 0xFFFFFFFFFFFFFFFFFFFFFFFFFFFFFFFFFFFFFFFF AND DUP4 PUSH20 0xFFFFFFFFFFFFFFFFFFFFFFFFFFFFFFFFFFFFFFFF AND PUSH4 0x6E296E45 PUSH1 0x40 MLOAD DUP2 PUSH4 0xFFFFFFFF AND PUSH1 0xE0 SHL DUP2 MSTORE PUSH1 0x4 ADD PUSH1 0x20 PUSH1 0x40 MLOAD DUP1 DUP4 SUB DUP2 DUP7 GAS STATICCALL ISZERO DUP1 ISZERO PUSH2 0x1A9F JUMPI RETURNDATASIZE PUSH1 0x0 DUP1 RETURNDATACOPY RETURNDATASIZE PUSH1 0x0 REVERT JUMPDEST POP POP POP POP PUSH1 0x40 MLOAD RETURNDATASIZE PUSH1 0x1F NOT PUSH1 0x1F DUP3 ADD AND DUP3 ADD DUP1 PUSH1 0x40 MSTORE POP DUP2 ADD SWAP1 PUSH2 0x1AC3 SWAP2 SWAP1 PUSH2 0x4463 JUMP JUMPDEST PUSH20 0xFFFFFFFFFFFFFFFFFFFFFFFFFFFFFFFFFFFFFFFF AND EQ SWAP1 POP SWAP3 SWAP2 POP POP JUMP JUMPDEST PUSH1 0x0 PUSH1 0x60 PUSH1 0x0 PUSH2 0x1AF1 DUP7 PUSH2 0x1C98 JUMP JUMPDEST SWAP1 POP PUSH2 0x1AFE DUP2 DUP7 DUP7 PUSH2 0x1CC8 JUMP JUMPDEST SWAP3 POP SWAP3 POP POP SWAP4 POP SWAP4 SWAP2 POP POP JUMP JUMPDEST PUSH2 0x1B13 PUSH2 0x3030 JUMP JUMPDEST PUSH1 0x0 PUSH2 0x1B1E DUP4 PUSH2 0x1DA1 JUMP JUMPDEST SWAP1 POP PUSH1 0x40 MLOAD DUP1 PUSH1 0x80 ADD PUSH1 0x40 MSTORE DUP1 PUSH2 0x1B4F DUP4 PUSH1 0x0 DUP2 MLOAD DUP2 LT PUSH2 0x1B42 JUMPI PUSH2 0x1B41 PUSH2 0x4490 JUMP JUMPDEST JUMPDEST PUSH1 0x20 MUL PUSH1 0x20 ADD ADD MLOAD PUSH2 0x1DBB JUMP JUMPDEST DUP2 MSTORE PUSH1 0x20 ADD PUSH2 0x1B78 DUP4 PUSH1 0x1 DUP2 MLOAD DUP2 LT PUSH2 0x1B6B JUMPI PUSH2 0x1B6A PUSH2 0x4490 JUMP JUMPDEST JUMPDEST PUSH1 0x20 MUL PUSH1 0x20 ADD ADD MLOAD PUSH2 0x1DBB JUMP JUMPDEST DUP2 MSTORE PUSH1 0x20 ADD PUSH2 0x1BA1 DUP4 PUSH1 0x2 DUP2 MLOAD DUP2 LT PUSH2 0x1B94 JUMPI PUSH2 0x1B93 PUSH2 0x4490 JUMP JUMPDEST JUMPDEST PUSH1 0x20 MUL PUSH1 0x20 ADD ADD MLOAD PUSH2 0x1DD0 JUMP JUMPDEST DUP2 MSTORE PUSH1 0x20 ADD PUSH2 0x1BCA DUP4 PUSH1 0x3 DUP2 MLOAD DUP2 LT PUSH2 0x1BBD JUMPI PUSH2 0x1BBC PUSH2 0x4490 JUMP JUMPDEST JUMPDEST PUSH1 0x20 MUL PUSH1 0x20 ADD ADD MLOAD PUSH2 0x1DD0 JUMP JUMPDEST DUP2 MSTORE POP SWAP2 POP POP SWAP2 SWAP1 POP JUMP JUMPDEST PUSH1 0x0 DUP1 PUSH2 0x1BE1 DUP7 PUSH2 0x1C98 JUMP JUMPDEST SWAP1 POP PUSH2 0x1BEF DUP2 DUP7 DUP7 DUP7 PUSH2 0x1ED1 JUMP JUMPDEST SWAP2 POP POP SWAP5 SWAP4 POP POP POP POP JUMP JUMPDEST PUSH1 0x0 DUP1 PUSH1 0x60 SWAP1 POP PUSH1 0x0 PUSH1 0x18 SWAP1 POP PUSH1 0x0 DUP5 SWAP1 POP PUSH1 0x0 DUP7 SWAP1 POP DUP6 DUP3 PUSH12 0xFFFFFFFFFFFFFFFFFFFFFFFF AND EQ DUP1 ISZERO PUSH2 0x1C3B JUMPI POP DUP7 DUP2 PUSH12 0xFFFFFFFFFFFFFFFFFFFFFFFF AND EQ JUMPDEST PUSH2 0x1C7A JUMPI PUSH1 0x40 MLOAD PUSH32 0x8C379A000000000000000000000000000000000000000000000000000000000 DUP2 MSTORE PUSH1 0x4 ADD PUSH2 0x1C71 SWAP1 PUSH2 0x450B JUMP JUMPDEST PUSH1 0x40 MLOAD DUP1 SWAP2 SUB SWAP1 REVERT JUMPDEST DUP8 DUP5 SHL SWAP5 POP DUP1 DUP6 OR DUP5 SHL SWAP5 POP DUP2 DUP6 OR DUP4 SHL SWAP5 POP POP POP POP POP SWAP4 SWAP3 POP POP POP JUMP JUMPDEST PUSH1 0x60 DUP2 DUP1 MLOAD SWAP1 PUSH1 0x20 ADD KECCAK256 PUSH1 0x40 MLOAD PUSH1 0x20 ADD PUSH2 0x1CB2 SWAP2 SWAP1 PUSH2 0x4369 JUMP JUMPDEST PUSH1 0x40 MLOAD PUSH1 0x20 DUP2 DUP4 SUB SUB DUP2 MSTORE SWAP1 PUSH1 0x40 MSTORE SWAP1 POP SWAP2 SWAP1 POP JUMP JUMPDEST PUSH1 0x0 PUSH1 0x60 PUSH1 0x0 PUSH2 0x1CD7 DUP6 PUSH2 0x1F04 JUMP JUMPDEST SWAP1 POP PUSH1 0x0 DUP1 PUSH1 0x0 PUSH2 0x1CE9 DUP5 DUP11 DUP10 PUSH2 0x1FF7 JUMP JUMPDEST SWAP3 POP SWAP3 POP SWAP3 POP PUSH1 0x0 DUP1 DUP4 MLOAD EQ SWAP1 POP DUP1 DUP1 PUSH2 0x1D00 JUMPI POP DUP2 JUMPDEST PUSH2 0x1D3F JUMPI PUSH1 0x40 MLOAD PUSH32 0x8C379A000000000000000000000000000000000000000000000000000000000 DUP2 MSTORE PUSH1 0x4 ADD PUSH2 0x1D36 SWAP1 PUSH2 0x4577 JUMP JUMPDEST PUSH1 0x40 MLOAD DUP1 SWAP2 SUB SWAP1 REVERT JUMPDEST PUSH1 0x0 DUP2 PUSH2 0x1D5B JUMPI PUSH1 0x40 MLOAD DUP1 PUSH1 0x20 ADD PUSH1 0x40 MSTORE DUP1 PUSH1 0x0 DUP2 MSTORE POP PUSH2 0x1D8B JUMP JUMPDEST PUSH2 0x1D8A DUP7 PUSH1 0x1 DUP8 PUSH2 0x1D6C SWAP2 SWAP1 PUSH2 0x3CCC JUMP JUMPDEST DUP2 MLOAD DUP2 LT PUSH2 0x1D7D JUMPI PUSH2 0x1D7C PUSH2 0x4490 JUMP JUMPDEST JUMPDEST PUSH1 0x20 MUL PUSH1 0x20 ADD ADD MLOAD PUSH2 0x240C JUMP JUMPDEST JUMPDEST SWAP1 POP DUP2 DUP2 SWAP8 POP SWAP8 POP POP POP POP POP POP POP SWAP4 POP SWAP4 SWAP2 POP POP JUMP JUMPDEST PUSH1 0x60 PUSH2 0x1DB4 PUSH2 0x1DAF DUP4 PUSH2 0x244D JUMP JUMPDEST PUSH2 0x247B JUMP JUMPDEST SWAP1 POP SWAP2 SWAP1 POP JUMP JUMPDEST PUSH1 0x0 PUSH2 0x1DC6 DUP3 PUSH2 0x1DD0 JUMP JUMPDEST PUSH1 0x0 SHR SWAP1 POP SWAP2 SWAP1 POP JUMP JUMPDEST PUSH1 0x0 PUSH1 0x22 DUP3 PUSH1 0x0 ADD MLOAD LT PUSH2 0x1E19 JUMPI PUSH1 0x40 MLOAD PUSH32 0x8C379A000000000000000000000000000000000000000000000000000000000 DUP2 MSTORE PUSH1 0x4 ADD PUSH2 0x1E10 SWAP1 PUSH2 0x45E3 JUMP JUMPDEST PUSH1 0x40 MLOAD DUP1 SWAP2 SUB SWAP1 REVERT JUMPDEST PUSH1 0x0 DUP1 PUSH1 0x0 PUSH2 0x1E27 DUP6 PUSH2 0x2672 JUMP JUMPDEST SWAP3 POP SWAP3 POP SWAP3 POP PUSH1 0x0 PUSH1 0x1 DUP2 GT ISZERO PUSH2 0x1E41 JUMPI PUSH2 0x1E40 PUSH2 0x4603 JUMP JUMPDEST JUMPDEST DUP2 PUSH1 0x1 DUP2 GT ISZERO PUSH2 0x1E54 JUMPI PUSH2 0x1E53 PUSH2 0x4603 JUMP JUMPDEST JUMPDEST EQ PUSH2 0x1E94 JUMPI PUSH1 0x40 MLOAD PUSH32 0x8C379A000000000000000000000000000000000000000000000000000000000 DUP2 MSTORE PUSH1 0x4 ADD PUSH2 0x1E8B SWAP1 PUSH2 0x45E3 JUMP JUMPDEST PUSH1 0x40 MLOAD DUP1 SWAP2 SUB SWAP1 REVERT JUMPDEST PUSH1 0x0 DUP4 DUP7 PUSH1 0x20 ADD MLOAD PUSH2 0x1EA6 SWAP2 SWAP1 PUSH2 0x3E41 JUMP JUMPDEST SWAP1 POP PUSH1 0x0 DUP2 MLOAD SWAP1 POP PUSH1 0x20 DUP5 LT ISZERO PUSH2 0x1EC4 JUMPI DUP4 PUSH1 0x20 SUB PUSH2 0x100 EXP DUP2 DIV SWAP1 POP JUMPDEST DUP1 SWAP6 POP POP POP POP POP POP SWAP2 SWAP1 POP JUMP JUMPDEST PUSH1 0x0 DUP1 PUSH1 0x0 PUSH2 0x1EE1 DUP8 DUP7 DUP7 PUSH2 0x1CC8 JUMP JUMPDEST SWAP2 POP SWAP2 POP DUP2 DUP1 ISZERO PUSH2 0x1EF8 JUMPI POP PUSH2 0x1EF7 DUP7 DUP3 PUSH2 0x298F JUMP JUMPDEST JUMPDEST SWAP3 POP POP POP SWAP5 SWAP4 POP POP POP POP JUMP JUMPDEST PUSH1 0x60 PUSH1 0x0 PUSH2 0x1F11 DUP4 PUSH2 0x1DA1 JUMP JUMPDEST SWAP1 POP PUSH1 0x0 DUP2 MLOAD PUSH8 0xFFFFFFFFFFFFFFFF DUP2 GT ISZERO PUSH2 0x1F30 JUMPI PUSH2 0x1F2F PUSH2 0x31C9 JUMP JUMPDEST JUMPDEST PUSH1 0x40 MLOAD SWAP1 DUP1 DUP3 MSTORE DUP1 PUSH1 0x20 MUL PUSH1 0x20 ADD DUP3 ADD PUSH1 0x40 MSTORE DUP1 ISZERO PUSH2 0x1F69 JUMPI DUP2 PUSH1 0x20 ADD JUMPDEST PUSH2 0x1F56 PUSH2 0x305E JUMP JUMPDEST DUP2 MSTORE PUSH1 0x20 ADD SWAP1 PUSH1 0x1 SWAP1 SUB SWAP1 DUP2 PUSH2 0x1F4E JUMPI SWAP1 POP JUMPDEST POP SWAP1 POP PUSH1 0x0 DUP3 MLOAD SWAP1 POP PUSH1 0x0 JUMPDEST DUP2 DUP2 LT ISZERO PUSH2 0x1FEB JUMPI PUSH1 0x0 PUSH2 0x1FA2 DUP6 DUP4 DUP2 MLOAD DUP2 LT PUSH2 0x1F95 JUMPI PUSH2 0x1F94 PUSH2 0x4490 JUMP JUMPDEST JUMPDEST PUSH1 0x20 MUL PUSH1 0x20 ADD ADD MLOAD PUSH2 0x29AA JUMP JUMPDEST SWAP1 POP PUSH1 0x40 MLOAD DUP1 PUSH1 0x40 ADD PUSH1 0x40 MSTORE DUP1 DUP3 DUP2 MSTORE PUSH1 0x20 ADD PUSH2 0x1FBE DUP4 PUSH2 0x1DA1 JUMP JUMPDEST DUP2 MSTORE POP DUP5 DUP4 DUP2 MLOAD DUP2 LT PUSH2 0x1FD4 JUMPI PUSH2 0x1FD3 PUSH2 0x4490 JUMP JUMPDEST JUMPDEST PUSH1 0x20 MUL PUSH1 0x20 ADD ADD DUP2 SWAP1 MSTORE POP DUP2 PUSH1 0x1 ADD SWAP2 POP POP PUSH2 0x1F75 JUMP JUMPDEST POP DUP2 SWAP4 POP POP POP POP SWAP2 SWAP1 POP JUMP JUMPDEST PUSH1 0x0 PUSH1 0x60 PUSH1 0x0 DUP1 PUSH1 0x0 SWAP1 POP PUSH1 0x0 PUSH2 0x200D DUP8 PUSH2 0x2A40 JUMP JUMPDEST SWAP1 POP PUSH1 0x0 DUP7 SWAP1 POP PUSH1 0x0 DUP1 PUSH2 0x201F PUSH2 0x305E JUMP JUMPDEST PUSH1 0x0 DUP13 MLOAD SWAP1 POP PUSH1 0x0 JUMPDEST DUP2 DUP2 LT ISZERO PUSH2 0x23BB JUMPI DUP14 DUP2 DUP2 MLOAD DUP2 LT PUSH2 0x2043 JUMPI PUSH2 0x2042 PUSH2 0x4490 JUMP JUMPDEST JUMPDEST PUSH1 0x20 MUL PUSH1 0x20 ADD ADD MLOAD SWAP3 POP DUP4 DUP6 PUSH2 0x2059 SWAP2 SWAP1 PUSH2 0x3E41 JUMP JUMPDEST SWAP5 POP PUSH1 0x1 DUP9 PUSH2 0x2068 SWAP2 SWAP1 PUSH2 0x3E41 JUMP JUMPDEST SWAP8 POP PUSH1 0x0 DUP6 SUB PUSH2 0x20C4 JUMPI DUP6 DUP4 PUSH1 0x0 ADD MLOAD DUP1 MLOAD SWAP1 PUSH1 0x20 ADD KECCAK256 EQ PUSH2 0x20BF JUMPI PUSH1 0x40 MLOAD PUSH32 0x8C379A000000000000000000000000000000000000000000000000000000000 DUP2 MSTORE PUSH1 0x4 ADD PUSH2 0x20B6 SWAP1 PUSH2 0x467E JUMP JUMPDEST PUSH1 0x40 MLOAD DUP1 SWAP2 SUB SWAP1 REVERT JUMPDEST PUSH2 0x2121 JUMP JUMPDEST PUSH1 0x1F DUP4 PUSH1 0x0 ADD MLOAD MLOAD GT PUSH2 0x2120 JUMPI DUP6 PUSH2 0x20DF DUP5 PUSH1 0x0 ADD MLOAD PUSH2 0x2BE3 JUMP JUMPDEST EQ PUSH2 0x211F JUMPI PUSH1 0x40 MLOAD PUSH32 0x8C379A000000000000000000000000000000000000000000000000000000000 DUP2 MSTORE PUSH1 0x4 ADD PUSH2 0x2116 SWAP1 PUSH2 0x46EA JUMP JUMPDEST PUSH1 0x40 MLOAD DUP1 SWAP2 SUB SWAP1 REVERT JUMPDEST JUMPDEST JUMPDEST DUP1 PUSH1 0x1 ADD SWAP1 POP PUSH1 0x1 PUSH1 0x10 PUSH2 0x2135 SWAP2 SWAP1 PUSH2 0x3E41 JUMP JUMPDEST DUP4 PUSH1 0x20 ADD MLOAD MLOAD SUB PUSH2 0x21AA JUMPI DUP7 MLOAD DUP6 SUB ISZERO PUSH2 0x23BB JUMPI PUSH1 0x0 DUP8 DUP7 DUP2 MLOAD DUP2 LT PUSH2 0x215E JUMPI PUSH2 0x215D PUSH2 0x4490 JUMP JUMPDEST JUMPDEST PUSH1 0x20 ADD ADD MLOAD PUSH1 0xF8 SHR PUSH1 0xF8 SHL PUSH1 0xF8 SHR SWAP1 POP PUSH1 0x0 DUP5 PUSH1 0x20 ADD MLOAD DUP3 PUSH1 0xFF AND DUP2 MLOAD DUP2 LT PUSH2 0x218A JUMPI PUSH2 0x2189 PUSH2 0x4490 JUMP JUMPDEST JUMPDEST PUSH1 0x20 MUL PUSH1 0x20 ADD ADD MLOAD SWAP1 POP PUSH2 0x219D DUP2 PUSH2 0x2C1D JUMP JUMPDEST SWAP8 POP PUSH1 0x1 SWAP6 POP POP POP PUSH2 0x23B6 JUMP JUMPDEST PUSH1 0x2 DUP4 PUSH1 0x20 ADD MLOAD MLOAD SUB PUSH2 0x237B JUMPI PUSH1 0x0 PUSH2 0x21C2 DUP5 PUSH2 0x2C5B JUMP JUMPDEST SWAP1 POP PUSH1 0x0 DUP2 PUSH1 0x0 DUP2 MLOAD DUP2 LT PUSH2 0x21DA JUMPI PUSH2 0x21D9 PUSH2 0x4490 JUMP JUMPDEST JUMPDEST PUSH1 0x20 ADD ADD MLOAD PUSH1 0xF8 SHR PUSH1 0xF8 SHL PUSH1 0xF8 SHR SWAP1 POP PUSH1 0x0 PUSH1 0x2 DUP3 PUSH2 0x21F9 SWAP2 SWAP1 PUSH2 0x4739 JUMP JUMPDEST PUSH1 0x2 PUSH2 0x2205 SWAP2 SWAP1 PUSH2 0x476A JUMP JUMPDEST SWAP1 POP PUSH1 0x0 PUSH2 0x2216 DUP5 DUP4 PUSH1 0xFF AND PUSH2 0x2C94 JUMP JUMPDEST SWAP1 POP PUSH1 0x0 PUSH2 0x2224 DUP13 DUP12 PUSH2 0x2C94 JUMP JUMPDEST SWAP1 POP PUSH1 0x0 PUSH2 0x2232 DUP4 DUP4 PUSH2 0x2CD5 JUMP JUMPDEST SWAP1 POP PUSH1 0x2 PUSH1 0xFF AND DUP6 PUSH1 0xFF AND EQ DUP1 PUSH2 0x224F JUMPI POP PUSH1 0x3 PUSH1 0xFF AND DUP6 PUSH1 0xFF AND EQ JUMPDEST ISZERO PUSH2 0x22AC JUMPI DUP1 DUP4 MLOAD EQ DUP1 ISZERO PUSH2 0x2264 JUMPI POP DUP1 DUP3 MLOAD EQ JUMPDEST ISZERO PUSH2 0x2278 JUMPI DUP1 DUP12 PUSH2 0x2275 SWAP2 SWAP1 PUSH2 0x3E41 JUMP JUMPDEST SWAP11 POP JUMPDEST PUSH1 0x80 PUSH1 0xF8 SHL PUSH31 0xFFFFFFFFFFFFFFFFFFFFFFFFFFFFFFFFFFFFFFFFFFFFFFFFFFFFFFFFFFFFFF NOT AND SWAP12 POP POP POP POP POP POP POP PUSH2 0x23BB JUMP JUMPDEST PUSH1 0x0 PUSH1 0xFF AND DUP6 PUSH1 0xFF AND EQ DUP1 PUSH2 0x22C7 JUMPI POP PUSH1 0x1 PUSH1 0xFF AND DUP6 PUSH1 0xFF AND EQ JUMPDEST ISZERO PUSH2 0x2340 JUMPI DUP3 MLOAD DUP2 EQ PUSH2 0x2308 JUMPI PUSH1 0x80 PUSH1 0xF8 SHL PUSH31 0xFFFFFFFFFFFFFFFFFFFFFFFFFFFFFFFFFFFFFFFFFFFFFFFFFFFFFFFFFFFFFF NOT AND SWAP12 POP POP POP POP POP POP POP PUSH2 0x23BB JUMP JUMPDEST PUSH2 0x2330 DUP10 PUSH1 0x20 ADD MLOAD PUSH1 0x1 DUP2 MLOAD DUP2 LT PUSH2 0x2323 JUMPI PUSH2 0x2322 PUSH2 0x4490 JUMP JUMPDEST JUMPDEST PUSH1 0x20 MUL PUSH1 0x20 ADD ADD MLOAD PUSH2 0x2C1D JUMP JUMPDEST SWAP12 POP DUP1 SWAP10 POP POP POP POP POP POP POP PUSH2 0x23B6 JUMP JUMPDEST PUSH1 0x40 MLOAD PUSH32 0x8C379A000000000000000000000000000000000000000000000000000000000 DUP2 MSTORE PUSH1 0x4 ADD PUSH2 0x2372 SWAP1 PUSH2 0x4811 JUMP JUMPDEST PUSH1 0x40 MLOAD DUP1 SWAP2 SUB SWAP1 REVERT JUMPDEST PUSH1 0x40 MLOAD PUSH32 0x8C379A000000000000000000000000000000000000000000000000000000000 DUP2 MSTORE PUSH1 0x4 ADD PUSH2 0x23AD SWAP1 PUSH2 0x487D JUMP JUMPDEST PUSH1 0x40 MLOAD DUP1 SWAP2 SUB SWAP1 REVERT JUMPDEST PUSH2 0x2028 JUMP JUMPDEST POP PUSH1 0x0 PUSH1 0x80 PUSH1 0xF8 SHL PUSH31 0xFFFFFFFFFFFFFFFFFFFFFFFFFFFFFFFFFFFFFFFFFFFFFFFFFFFFFFFFFFFFFF NOT AND DUP7 EQ SWAP1 POP DUP8 PUSH2 0x23F4 DUP9 DUP8 PUSH2 0x2C94 JUMP JUMPDEST DUP3 SWAP11 POP SWAP11 POP SWAP11 POP POP POP POP POP POP POP POP POP SWAP4 POP SWAP4 POP SWAP4 SWAP1 POP JUMP JUMPDEST PUSH1 0x60 PUSH2 0x2446 DUP3 PUSH1 0x20 ADD MLOAD PUSH1 0x1 DUP5 PUSH1 0x20 ADD MLOAD MLOAD PUSH2 0x2428 SWAP2 SWAP1 PUSH2 0x3CCC JUMP JUMPDEST DUP2 MLOAD DUP2 LT PUSH2 0x2439 JUMPI PUSH2 0x2438 PUSH2 0x4490 JUMP JUMPDEST JUMPDEST PUSH1 0x20 MUL PUSH1 0x20 ADD ADD MLOAD PUSH2 0x29AA JUMP JUMPDEST SWAP1 POP SWAP2 SWAP1 POP JUMP JUMPDEST PUSH2 0x2455 PUSH2 0x3078 JUMP JUMPDEST PUSH1 0x0 PUSH1 0x20 DUP4 ADD SWAP1 POP PUSH1 0x40 MLOAD DUP1 PUSH1 0x40 ADD PUSH1 0x40 MSTORE DUP1 DUP5 MLOAD DUP2 MSTORE PUSH1 0x20 ADD DUP3 DUP2 MSTORE POP SWAP2 POP POP SWAP2 SWAP1 POP JUMP JUMPDEST PUSH1 0x60 PUSH1 0x0 DUP1 PUSH2 0x2489 DUP5 PUSH2 0x2672 JUMP JUMPDEST SWAP3 POP POP SWAP2 POP PUSH1 0x1 DUP1 DUP2 GT ISZERO PUSH2 0x24A1 JUMPI PUSH2 0x24A0 PUSH2 0x4603 JUMP JUMPDEST JUMPDEST DUP2 PUSH1 0x1 DUP2 GT ISZERO PUSH2 0x24B4 JUMPI PUSH2 0x24B3 PUSH2 0x4603 JUMP JUMPDEST JUMPDEST EQ PUSH2 0x24F4 JUMPI PUSH1 0x40 MLOAD PUSH32 0x8C379A000000000000000000000000000000000000000000000000000000000 DUP2 MSTORE PUSH1 0x4 ADD PUSH2 0x24EB SWAP1 PUSH2 0x48E9 JUMP JUMPDEST PUSH1 0x40 MLOAD DUP1 SWAP2 SUB SWAP1 REVERT JUMPDEST PUSH1 0x0 PUSH1 0x20 PUSH8 0xFFFFFFFFFFFFFFFF DUP2 GT ISZERO PUSH2 0x2511 JUMPI PUSH2 0x2510 PUSH2 0x31C9 JUMP JUMPDEST JUMPDEST PUSH1 0x40 MLOAD SWAP1 DUP1 DUP3 MSTORE DUP1 PUSH1 0x20 MUL PUSH1 0x20 ADD DUP3 ADD PUSH1 0x40 MSTORE DUP1 ISZERO PUSH2 0x254A JUMPI DUP2 PUSH1 0x20 ADD JUMPDEST PUSH2 0x2537 PUSH2 0x3078 JUMP JUMPDEST DUP2 MSTORE PUSH1 0x20 ADD SWAP1 PUSH1 0x1 SWAP1 SUB SWAP1 DUP2 PUSH2 0x252F JUMPI SWAP1 POP JUMPDEST POP SWAP1 POP PUSH1 0x0 DUP1 DUP5 SWAP1 POP JUMPDEST DUP7 PUSH1 0x0 ADD MLOAD DUP2 LT ISZERO PUSH2 0x2662 JUMPI PUSH1 0x20 DUP3 LT PUSH2 0x25A3 JUMPI PUSH1 0x40 MLOAD PUSH32 0x8C379A000000000000000000000000000000000000000000000000000000000 DUP2 MSTORE PUSH1 0x4 ADD PUSH2 0x259A SWAP1 PUSH2 0x497B JUMP JUMPDEST PUSH1 0x40 MLOAD DUP1 SWAP2 SUB SWAP1 REVERT JUMPDEST PUSH1 0x0 DUP1 PUSH2 0x25E1 PUSH1 0x40 MLOAD DUP1 PUSH1 0x40 ADD PUSH1 0x40 MSTORE DUP1 DUP6 DUP13 PUSH1 0x0 ADD MLOAD PUSH2 0x25C4 SWAP2 SWAP1 PUSH2 0x3CCC JUMP JUMPDEST DUP2 MSTORE PUSH1 0x20 ADD DUP6 DUP13 PUSH1 0x20 ADD MLOAD PUSH2 0x25D9 SWAP2 SWAP1 PUSH2 0x3E41 JUMP JUMPDEST DUP2 MSTORE POP PUSH2 0x2672 JUMP JUMPDEST POP SWAP2 POP SWAP2 POP PUSH1 0x40 MLOAD DUP1 PUSH1 0x40 ADD PUSH1 0x40 MSTORE DUP1 DUP4 DUP4 PUSH2 0x25FD SWAP2 SWAP1 PUSH2 0x3E41 JUMP JUMPDEST DUP2 MSTORE PUSH1 0x20 ADD DUP5 DUP12 PUSH1 0x20 ADD MLOAD PUSH2 0x2612 SWAP2 SWAP1 PUSH2 0x3E41 JUMP JUMPDEST DUP2 MSTORE POP DUP6 DUP6 DUP2 MLOAD DUP2 LT PUSH2 0x2628 JUMPI PUSH2 0x2627 PUSH2 0x4490 JUMP JUMPDEST JUMPDEST PUSH1 0x20 MUL PUSH1 0x20 ADD ADD DUP2 SWAP1 MSTORE POP PUSH1 0x1 DUP5 PUSH2 0x2640 SWAP2 SWAP1 PUSH2 0x3E41 JUMP JUMPDEST SWAP4 POP DUP1 DUP3 PUSH2 0x264E SWAP2 SWAP1 PUSH2 0x3E41 JUMP JUMPDEST DUP4 PUSH2 0x2659 SWAP2 SWAP1 PUSH2 0x3E41 JUMP JUMPDEST SWAP3 POP POP POP PUSH2 0x2554 JUMP JUMPDEST DUP2 DUP4 MSTORE DUP3 SWAP6 POP POP POP POP POP POP SWAP2 SWAP1 POP JUMP JUMPDEST PUSH1 0x0 DUP1 PUSH1 0x0 DUP1 DUP5 PUSH1 0x0 ADD MLOAD GT PUSH2 0x26BD JUMPI PUSH1 0x40 MLOAD PUSH32 0x8C379A000000000000000000000000000000000000000000000000000000000 DUP2 MSTORE PUSH1 0x4 ADD PUSH2 0x26B4 SWAP1 PUSH2 0x49E7 JUMP JUMPDEST PUSH1 0x40 MLOAD DUP1 SWAP2 SUB SWAP1 REVERT JUMPDEST PUSH1 0x0 DUP5 PUSH1 0x20 ADD MLOAD SWAP1 POP PUSH1 0x0 DUP2 MLOAD PUSH1 0x0 BYTE SWAP1 POP PUSH1 0x80 DUP2 LT ISZERO PUSH2 0x26EB JUMPI PUSH1 0x0 PUSH1 0x1 PUSH1 0x0 SWAP5 POP SWAP5 POP SWAP5 POP POP POP PUSH2 0x2988 JUMP JUMPDEST PUSH1 0xB8 DUP2 LT ISZERO PUSH2 0x275E JUMPI PUSH1 0x0 PUSH1 0x80 DUP3 PUSH2 0x2703 SWAP2 SWAP1 PUSH2 0x3CCC JUMP JUMPDEST SWAP1 POP DUP1 DUP8 PUSH1 0x0 ADD MLOAD GT PUSH2 0x274B JUMPI PUSH1 0x40 MLOAD PUSH32 0x8C379A000000000000000000000000000000000000000000000000000000000 DUP2 MSTORE PUSH1 0x4 ADD PUSH2 0x2742 SWAP1 PUSH2 0x4A53 JUMP JUMPDEST PUSH1 0x40 MLOAD DUP1 SWAP2 SUB SWAP1 REVERT JUMPDEST PUSH1 0x1 DUP2 PUSH1 0x0 SWAP6 POP SWAP6 POP SWAP6 POP POP POP POP PUSH2 0x2988 JUMP JUMPDEST PUSH1 0xC0 DUP2 LT ISZERO PUSH2 0x2840 JUMPI PUSH1 0x0 PUSH1 0xB7 DUP3 PUSH2 0x2776 SWAP2 SWAP1 PUSH2 0x3CCC JUMP JUMPDEST SWAP1 POP DUP1 DUP8 PUSH1 0x0 ADD MLOAD GT PUSH2 0x27BE JUMPI PUSH1 0x40 MLOAD PUSH32 0x8C379A000000000000000000000000000000000000000000000000000000000 DUP2 MSTORE PUSH1 0x4 ADD PUSH2 0x27B5 SWAP1 PUSH2 0x4ABF JUMP JUMPDEST PUSH1 0x40 MLOAD DUP1 SWAP2 SUB SWAP1 REVERT JUMPDEST PUSH1 0x0 DUP2 PUSH1 0x20 SUB PUSH2 0x100 EXP PUSH1 0x1 DUP6 ADD MLOAD DIV SWAP1 POP DUP1 DUP3 PUSH2 0x27DC SWAP2 SWAP1 PUSH2 0x3E41 JUMP JUMPDEST DUP9 PUSH1 0x0 ADD MLOAD GT PUSH2 0x2821 JUMPI PUSH1 0x40 MLOAD PUSH32 0x8C379A000000000000000000000000000000000000000000000000000000000 DUP2 MSTORE PUSH1 0x4 ADD PUSH2 0x2818 SWAP1 PUSH2 0x4B2B JUMP JUMPDEST PUSH1 0x40 MLOAD DUP1 SWAP2 SUB SWAP1 REVERT JUMPDEST DUP2 PUSH1 0x1 PUSH2 0x282E SWAP2 SWAP1 PUSH2 0x3E41 JUMP JUMPDEST DUP2 PUSH1 0x0 SWAP7 POP SWAP7 POP SWAP7 POP POP POP POP POP PUSH2 0x2988 JUMP JUMPDEST PUSH1 0xF8 DUP2 LT ISZERO PUSH2 0x28B3 JUMPI PUSH1 0x0 PUSH1 0xC0 DUP3 PUSH2 0x2858 SWAP2 SWAP1 PUSH2 0x3CCC JUMP JUMPDEST SWAP1 POP DUP1 DUP8 PUSH1 0x0 ADD MLOAD GT PUSH2 0x28A0 JUMPI PUSH1 0x40 MLOAD PUSH32 0x8C379A000000000000000000000000000000000000000000000000000000000 DUP2 MSTORE PUSH1 0x4 ADD PUSH2 0x2897 SWAP1 PUSH2 0x4B97 JUMP JUMPDEST PUSH1 0x40 MLOAD DUP1 SWAP2 SUB SWAP1 REVERT JUMPDEST PUSH1 0x1 DUP2 PUSH1 0x1 SWAP6 POP SWAP6 POP SWAP6 POP POP POP POP PUSH2 0x2988 JUMP JUMPDEST PUSH1 0x0 PUSH1 0xF7 DUP3 PUSH2 0x28C2 SWAP2 SWAP1 PUSH2 0x3CCC JUMP JUMPDEST SWAP1 POP DUP1 DUP8 PUSH1 0x0 ADD MLOAD GT PUSH2 0x290A JUMPI PUSH1 0x40 MLOAD PUSH32 0x8C379A000000000000000000000000000000000000000000000000000000000 DUP2 MSTORE PUSH1 0x4 ADD PUSH2 0x2901 SWAP1 PUSH2 0x4C03 JUMP JUMPDEST PUSH1 0x40 MLOAD DUP1 SWAP2 SUB SWAP1 REVERT JUMPDEST PUSH1 0x0 DUP2 PUSH1 0x20 SUB PUSH2 0x100 EXP PUSH1 0x1 DUP6 ADD MLOAD DIV SWAP1 POP DUP1 DUP3 PUSH2 0x2928 SWAP2 SWAP1 PUSH2 0x3E41 JUMP JUMPDEST DUP9 PUSH1 0x0 ADD MLOAD GT PUSH2 0x296D JUMPI PUSH1 0x40 MLOAD PUSH32 0x8C379A000000000000000000000000000000000000000000000000000000000 DUP2 MSTORE PUSH1 0x4 ADD PUSH2 0x2964 SWAP1 PUSH2 0x4C6F JUMP JUMPDEST PUSH1 0x40 MLOAD DUP1 SWAP2 SUB SWAP1 REVERT JUMPDEST DUP2 PUSH1 0x1 PUSH2 0x297A SWAP2 SWAP1 PUSH2 0x3E41 JUMP JUMPDEST DUP2 PUSH1 0x1 SWAP7 POP SWAP7 POP SWAP7 POP POP POP POP POP JUMPDEST SWAP2 SWAP4 SWAP1 SWAP3 POP JUMP JUMPDEST PUSH1 0x0 DUP2 DUP1 MLOAD SWAP1 PUSH1 0x20 ADD KECCAK256 DUP4 DUP1 MLOAD SWAP1 PUSH1 0x20 ADD KECCAK256 EQ SWAP1 POP SWAP3 SWAP2 POP POP JUMP JUMPDEST PUSH1 0x60 PUSH1 0x0 DUP1 PUSH1 0x0 PUSH2 0x29BA DUP6 PUSH2 0x2672 JUMP JUMPDEST SWAP3 POP SWAP3 POP SWAP3 POP PUSH1 0x0 PUSH1 0x1 DUP2 GT ISZERO PUSH2 0x29D4 JUMPI PUSH2 0x29D3 PUSH2 0x4603 JUMP JUMPDEST JUMPDEST DUP2 PUSH1 0x1 DUP2 GT ISZERO PUSH2 0x29E7 JUMPI PUSH2 0x29E6 PUSH2 0x4603 JUMP JUMPDEST JUMPDEST EQ PUSH2 0x2A27 JUMPI PUSH1 0x40 MLOAD PUSH32 0x8C379A000000000000000000000000000000000000000000000000000000000 DUP2 MSTORE PUSH1 0x4 ADD PUSH2 0x2A1E SWAP1 PUSH2 0x4CDB JUMP JUMPDEST PUSH1 0x40 MLOAD DUP1 SWAP2 SUB SWAP1 REVERT JUMPDEST PUSH2 0x2A36 DUP6 PUSH1 0x20 ADD MLOAD DUP5 DUP5 PUSH2 0x2D98 JUMP JUMPDEST SWAP4 POP POP POP POP SWAP2 SWAP1 POP JUMP JUMPDEST PUSH1 0x60 PUSH1 0x0 PUSH1 0x2 DUP4 MLOAD PUSH2 0x2A52 SWAP2 SWAP1 PUSH2 0x4CFB JUMP JUMPDEST PUSH8 0xFFFFFFFFFFFFFFFF DUP2 GT ISZERO PUSH2 0x2A6B JUMPI PUSH2 0x2A6A PUSH2 0x31C9 JUMP JUMPDEST JUMPDEST PUSH1 0x40 MLOAD SWAP1 DUP1 DUP3 MSTORE DUP1 PUSH1 0x1F ADD PUSH1 0x1F NOT AND PUSH1 0x20 ADD DUP3 ADD PUSH1 0x40 MSTORE DUP1 ISZERO PUSH2 0x2A9D JUMPI DUP2 PUSH1 0x20 ADD PUSH1 0x1 DUP3 MUL DUP1 CALLDATASIZE DUP4 CALLDATACOPY DUP1 DUP3 ADD SWAP2 POP POP SWAP1 POP JUMPDEST POP SWAP1 POP PUSH1 0x0 DUP4 MLOAD SWAP1 POP PUSH1 0x0 JUMPDEST DUP2 DUP2 LT ISZERO PUSH2 0x2BD8 JUMPI PUSH1 0x4 DUP6 DUP3 DUP2 MLOAD DUP2 LT PUSH2 0x2AC6 JUMPI PUSH2 0x2AC5 PUSH2 0x4490 JUMP JUMPDEST JUMPDEST PUSH1 0x20 ADD ADD MLOAD PUSH1 0xF8 SHR PUSH1 0xF8 SHL PUSH31 0xFFFFFFFFFFFFFFFFFFFFFFFFFFFFFFFFFFFFFFFFFFFFFFFFFFFFFFFFFFFFFF NOT AND SWAP1 SHR DUP4 PUSH1 0x2 DUP4 PUSH2 0x2B03 SWAP2 SWAP1 PUSH2 0x4CFB JUMP JUMPDEST DUP2 MLOAD DUP2 LT PUSH2 0x2B14 JUMPI PUSH2 0x2B13 PUSH2 0x4490 JUMP JUMPDEST JUMPDEST PUSH1 0x20 ADD ADD SWAP1 PUSH31 0xFFFFFFFFFFFFFFFFFFFFFFFFFFFFFFFFFFFFFFFFFFFFFFFFFFFFFFFFFFFFFF NOT AND SWAP1 DUP2 PUSH1 0x0 BYTE SWAP1 MSTORE8 POP PUSH1 0x10 DUP6 DUP3 DUP2 MLOAD DUP2 LT PUSH2 0x2B58 JUMPI PUSH2 0x2B57 PUSH2 0x4490 JUMP JUMPDEST JUMPDEST PUSH1 0x20 ADD ADD MLOAD PUSH1 0xF8 SHR PUSH1 0xF8 SHL PUSH1 0xF8 SHR PUSH2 0x2B70 SWAP2 SWAP1 PUSH2 0x4739 JUMP JUMPDEST PUSH1 0xF8 SHL DUP4 PUSH1 0x1 PUSH1 0x2 DUP5 PUSH2 0x2B83 SWAP2 SWAP1 PUSH2 0x4CFB JUMP JUMPDEST PUSH2 0x2B8D SWAP2 SWAP1 PUSH2 0x3E41 JUMP JUMPDEST DUP2 MLOAD DUP2 LT PUSH2 0x2B9E JUMPI PUSH2 0x2B9D PUSH2 0x4490 JUMP JUMPDEST JUMPDEST PUSH1 0x20 ADD ADD SWAP1 PUSH31 0xFFFFFFFFFFFFFFFFFFFFFFFFFFFFFFFFFFFFFFFFFFFFFFFFFFFFFFFFFFFFFF NOT AND SWAP1 DUP2 PUSH1 0x0 BYTE SWAP1 MSTORE8 POP DUP1 PUSH1 0x1 ADD SWAP1 POP PUSH2 0x2AA9 JUMP JUMPDEST POP DUP2 SWAP3 POP POP POP SWAP2 SWAP1 POP JUMP JUMPDEST PUSH1 0x0 PUSH1 0x20 DUP3 MLOAD LT ISZERO PUSH2 0x2C01 JUMPI PUSH1 0x0 PUSH1 0x20 DUP4 ADD MLOAD SWAP1 POP DUP1 SWAP2 POP POP PUSH2 0x2C18 JUMP JUMPDEST DUP2 DUP1 PUSH1 0x20 ADD SWAP1 MLOAD DUP2 ADD SWAP1 PUSH2 0x2C15 SWAP2 SWAP1 PUSH2 0x4D52 JUMP JUMPDEST SWAP1 POP JUMPDEST SWAP2 SWAP1 POP JUMP JUMPDEST PUSH1 0x0 PUSH1 0x60 PUSH1 0x20 DUP4 PUSH1 0x0 ADD MLOAD LT ISZERO PUSH2 0x2C3E JUMPI PUSH2 0x2C37 DUP4 PUSH2 0x2E95 JUMP JUMPDEST SWAP1 POP PUSH2 0x2C4A JUMP JUMPDEST PUSH2 0x2C47 DUP4 PUSH2 0x29AA JUMP JUMPDEST SWAP1 POP JUMPDEST PUSH2 0x2C53 DUP2 PUSH2 0x2BE3 JUMP JUMPDEST SWAP2 POP POP SWAP2 SWAP1 POP JUMP JUMPDEST PUSH1 0x60 PUSH2 0x2C8D PUSH2 0x2C88 DUP4 PUSH1 0x20 ADD MLOAD PUSH1 0x0 DUP2 MLOAD DUP2 LT PUSH2 0x2C7B JUMPI PUSH2 0x2C7A PUSH2 0x4490 JUMP JUMPDEST JUMPDEST PUSH1 0x20 MUL PUSH1 0x20 ADD ADD MLOAD PUSH2 0x29AA JUMP JUMPDEST PUSH2 0x2A40 JUMP JUMPDEST SWAP1 POP SWAP2 SWAP1 POP JUMP JUMPDEST PUSH1 0x60 DUP3 MLOAD DUP3 LT PUSH2 0x2CB5 JUMPI PUSH1 0x40 MLOAD DUP1 PUSH1 0x20 ADD PUSH1 0x40 MSTORE DUP1 PUSH1 0x0 DUP2 MSTORE POP SWAP1 POP PUSH2 0x2CCF JUMP JUMPDEST PUSH2 0x2CCC DUP4 DUP4 DUP5 DUP7 MLOAD PUSH2 0x2CC7 SWAP2 SWAP1 PUSH2 0x3CCC JUMP JUMPDEST PUSH2 0x2EA7 JUMP JUMPDEST SWAP1 POP JUMPDEST SWAP3 SWAP2 POP POP JUMP JUMPDEST PUSH1 0x0 DUP1 PUSH1 0x0 SWAP1 POP JUMPDEST DUP1 DUP5 MLOAD GT DUP1 ISZERO PUSH2 0x2CED JUMPI POP DUP1 DUP4 MLOAD GT JUMPDEST DUP1 ISZERO PUSH2 0x2D76 JUMPI POP DUP3 DUP2 DUP2 MLOAD DUP2 LT PUSH2 0x2D07 JUMPI PUSH2 0x2D06 PUSH2 0x4490 JUMP JUMPDEST JUMPDEST PUSH1 0x20 ADD ADD MLOAD PUSH1 0xF8 SHR PUSH1 0xF8 SHL PUSH31 0xFFFFFFFFFFFFFFFFFFFFFFFFFFFFFFFFFFFFFFFFFFFFFFFFFFFFFFFFFFFFFF NOT AND DUP5 DUP3 DUP2 MLOAD DUP2 LT PUSH2 0x2D47 JUMPI PUSH2 0x2D46 PUSH2 0x4490 JUMP JUMPDEST JUMPDEST PUSH1 0x20 ADD ADD MLOAD PUSH1 0xF8 SHR PUSH1 0xF8 SHL PUSH31 0xFFFFFFFFFFFFFFFFFFFFFFFFFFFFFFFFFFFFFFFFFFFFFFFFFFFFFFFFFFFFFF NOT AND EQ JUMPDEST ISZERO PUSH2 0x2D8E JUMPI DUP1 DUP1 PUSH2 0x2D86 SWAP1 PUSH2 0x4D7F JUMP JUMPDEST SWAP2 POP POP PUSH2 0x2CDD JUMP JUMPDEST DUP1 SWAP2 POP POP SWAP3 SWAP2 POP POP JUMP JUMPDEST PUSH1 0x60 PUSH1 0x0 DUP3 PUSH8 0xFFFFFFFFFFFFFFFF DUP2 GT ISZERO PUSH2 0x2DB6 JUMPI PUSH2 0x2DB5 PUSH2 0x31C9 JUMP JUMPDEST JUMPDEST PUSH1 0x40 MLOAD SWAP1 DUP1 DUP3 MSTORE DUP1 PUSH1 0x1F ADD PUSH1 0x1F NOT AND PUSH1 0x20 ADD DUP3 ADD PUSH1 0x40 MSTORE DUP1 ISZERO PUSH2 0x2DE8 JUMPI DUP2 PUSH1 0x20 ADD PUSH1 0x1 DUP3 MUL DUP1 CALLDATASIZE DUP4 CALLDATACOPY DUP1 DUP3 ADD SWAP2 POP POP SWAP1 POP JUMPDEST POP SWAP1 POP PUSH1 0x0 DUP2 MLOAD SUB PUSH2 0x2DFD JUMPI DUP1 SWAP2 POP POP PUSH2 0x2E8E JUMP JUMPDEST PUSH1 0x0 DUP5 DUP7 PUSH2 0x2E0B SWAP2 SWAP1 PUSH2 0x3E41 JUMP JUMPDEST SWAP1 POP PUSH1 0x0 PUSH1 0x20 DUP4 ADD SWAP1 POP PUSH1 0x0 JUMPDEST PUSH1 0x20 DUP7 PUSH2 0x2E25 SWAP2 SWAP1 PUSH2 0x4DC7 JUMP JUMPDEST DUP2 LT ISZERO PUSH2 0x2E59 JUMPI DUP3 MLOAD DUP3 MSTORE PUSH1 0x20 DUP4 PUSH2 0x2E3D SWAP2 SWAP1 PUSH2 0x3E41 JUMP JUMPDEST SWAP3 POP PUSH1 0x20 DUP3 PUSH2 0x2E4C SWAP2 SWAP1 PUSH2 0x3E41 JUMP JUMPDEST SWAP2 POP DUP1 PUSH1 0x1 ADD SWAP1 POP PUSH2 0x2E18 JUMP JUMPDEST POP PUSH1 0x0 PUSH1 0x1 PUSH1 0x20 DUP8 DUP2 PUSH2 0x2E6F JUMPI PUSH2 0x2E6E PUSH2 0x470A JUMP JUMPDEST JUMPDEST MOD PUSH1 0x20 SUB PUSH2 0x100 EXP SUB SWAP1 POP DUP1 DUP3 MLOAD AND DUP2 NOT DUP5 MLOAD AND OR DUP3 MSTORE DUP4 SWAP5 POP POP POP POP POP JUMPDEST SWAP4 SWAP3 POP POP POP JUMP JUMPDEST PUSH1 0x60 PUSH2 0x2EA0 DUP3 PUSH2 0x3013 JUMP JUMPDEST SWAP1 POP SWAP2 SWAP1 POP JUMP JUMPDEST PUSH1 0x60 DUP2 PUSH1 0x1F DUP4 PUSH2 0x2EB7 SWAP2 SWAP1 PUSH2 0x3E41 JUMP JUMPDEST LT ISZERO PUSH2 0x2EF8 JUMPI PUSH1 0x40 MLOAD PUSH32 0x8C379A000000000000000000000000000000000000000000000000000000000 DUP2 MSTORE PUSH1 0x4 ADD PUSH2 0x2EEF SWAP1 PUSH2 0x4E44 JUMP JUMPDEST PUSH1 0x40 MLOAD DUP1 SWAP2 SUB SWAP1 REVERT JUMPDEST DUP3 DUP3 DUP5 PUSH2 0x2F05 SWAP2 SWAP1 PUSH2 0x3E41 JUMP JUMPDEST LT ISZERO PUSH2 0x2F46 JUMPI PUSH1 0x40 MLOAD PUSH32 0x8C379A000000000000000000000000000000000000000000000000000000000 DUP2 MSTORE PUSH1 0x4 ADD PUSH2 0x2F3D SWAP1 PUSH2 0x4E44 JUMP JUMPDEST PUSH1 0x40 MLOAD DUP1 SWAP2 SUB SWAP1 REVERT JUMPDEST DUP2 DUP4 PUSH2 0x2F52 SWAP2 SWAP1 PUSH2 0x3E41 JUMP JUMPDEST DUP5 MLOAD LT ISZERO PUSH2 0x2F95 JUMPI PUSH1 0x40 MLOAD PUSH32 0x8C379A000000000000000000000000000000000000000000000000000000000 DUP2 MSTORE PUSH1 0x4 ADD PUSH2 0x2F8C SWAP1 PUSH2 0x4EB0 JUMP JUMPDEST PUSH1 0x40 MLOAD DUP1 SWAP2 SUB SWAP1 REVERT JUMPDEST PUSH1 0x60 DUP3 ISZERO PUSH1 0x0 DUP2 EQ PUSH2 0x2FB6 JUMPI PUSH1 0x40 MLOAD SWAP2 POP PUSH1 0x0 DUP3 MSTORE PUSH1 0x20 DUP3 ADD PUSH1 0x40 MSTORE PUSH2 0x3007 JUMP JUMPDEST PUSH1 0x40 MLOAD SWAP2 POP PUSH1 0x1F DUP5 AND DUP1 ISZERO PUSH1 0x20 MUL DUP2 DUP5 ADD ADD DUP6 DUP2 ADD DUP8 DUP4 ISZERO PUSH1 0x20 MUL DUP5 DUP12 ADD ADD ADD JUMPDEST DUP2 DUP4 LT ISZERO PUSH2 0x2FF4 JUMPI DUP1 MLOAD DUP4 MSTORE PUSH1 0x20 DUP4 ADD SWAP3 POP PUSH1 0x20 DUP2 ADD SWAP1 POP PUSH2 0x2FD7 JUMP JUMPDEST POP DUP7 DUP6 MSTORE PUSH1 0x1F NOT PUSH1 0x1F DUP4 ADD AND PUSH1 0x40 MSTORE POP POP POP JUMPDEST POP DUP1 SWAP2 POP POP SWAP4 SWAP3 POP POP POP JUMP JUMPDEST PUSH1 0x60 PUSH2 0x3029 DUP3 PUSH1 0x20 ADD MLOAD PUSH1 0x0 DUP5 PUSH1 0x0 ADD MLOAD PUSH2 0x2D98 JUMP JUMPDEST SWAP1 POP SWAP2 SWAP1 POP JUMP JUMPDEST PUSH1 0x40 MLOAD DUP1 PUSH1 0x80 ADD PUSH1 0x40 MSTORE DUP1 PUSH1 0x0 DUP2 MSTORE PUSH1 0x20 ADD PUSH1 0x0 DUP2 MSTORE PUSH1 0x20 ADD PUSH1 0x0 DUP1 NOT AND DUP2 MSTORE PUSH1 0x20 ADD PUSH1 0x0 DUP1 NOT AND DUP2 MSTORE POP SWAP1 JUMP JUMPDEST PUSH1 0x40 MLOAD DUP1 PUSH1 0x40 ADD PUSH1 0x40 MSTORE DUP1 PUSH1 0x60 DUP2 MSTORE PUSH1 0x20 ADD PUSH1 0x60 DUP2 MSTORE POP SWAP1 JUMP JUMPDEST PUSH1 0x40 MLOAD DUP1 PUSH1 0x40 ADD PUSH1 0x40 MSTORE DUP1 PUSH1 0x0 DUP2 MSTORE PUSH1 0x20 ADD PUSH1 0x0 DUP2 MSTORE POP SWAP1 JUMP JUMPDEST PUSH1 0x0 PUSH20 0xFFFFFFFFFFFFFFFFFFFFFFFFFFFFFFFFFFFFFFFF DUP3 AND SWAP1 POP SWAP2 SWAP1 POP JUMP JUMPDEST PUSH1 0x0 DUP2 SWAP1 POP SWAP2 SWAP1 POP JUMP JUMPDEST PUSH1 0x0 PUSH2 0x30D7 PUSH2 0x30D2 PUSH2 0x30CD DUP5 PUSH2 0x3092 JUMP JUMPDEST PUSH2 0x30B2 JUMP JUMPDEST PUSH2 0x3092 JUMP JUMPDEST SWAP1 POP SWAP2 SWAP1 POP JUMP JUMPDEST PUSH1 0x0 PUSH2 0x30E9 DUP3 PUSH2 0x30BC JUMP JUMPDEST SWAP1 POP SWAP2 SWAP1 POP JUMP JUMPDEST PUSH1 0x0 PUSH2 0x30FB DUP3 PUSH2 0x30DE JUMP JUMPDEST SWAP1 POP SWAP2 SWAP1 POP JUMP JUMPDEST PUSH2 0x310B DUP2 PUSH2 0x30F0 JUMP JUMPDEST DUP3 MSTORE POP POP JUMP JUMPDEST PUSH1 0x0 PUSH1 0x20 DUP3 ADD SWAP1 POP PUSH2 0x3126 PUSH1 0x0 DUP4 ADD DUP5 PUSH2 0x3102 JUMP JUMPDEST SWAP3 SWAP2 POP POP JUMP JUMPDEST PUSH1 0x0 PUSH4 0xFFFFFFFF DUP3 AND SWAP1 POP SWAP2 SWAP1 POP JUMP JUMPDEST PUSH2 0x3145 DUP2 PUSH2 0x312C JUMP JUMPDEST DUP3 MSTORE POP POP JUMP JUMPDEST PUSH1 0x0 PUSH1 0x20 DUP3 ADD SWAP1 POP PUSH2 0x3160 PUSH1 0x0 DUP4 ADD DUP5 PUSH2 0x313C JUMP JUMPDEST SWAP3 SWAP2 POP POP JUMP JUMPDEST PUSH1 0x0 DUP2 SWAP1 POP SWAP2 SWAP1 POP JUMP JUMPDEST PUSH2 0x3179 DUP2 PUSH2 0x3166 JUMP JUMPDEST DUP3 MSTORE POP POP JUMP JUMPDEST PUSH1 0x0 PUSH1 0x20 DUP3 ADD SWAP1 POP PUSH2 0x3194 PUSH1 0x0 DUP4 ADD DUP5 PUSH2 0x3170 JUMP JUMPDEST SWAP3 SWAP2 POP POP JUMP JUMPDEST PUSH1 0x0 PUSH1 0x40 MLOAD SWAP1 POP SWAP1 JUMP JUMPDEST PUSH1 0x0 DUP1 REVERT JUMPDEST PUSH1 0x0 DUP1 REVERT JUMPDEST PUSH1 0x0 DUP1 REVERT JUMPDEST PUSH1 0x0 DUP1 REVERT JUMPDEST PUSH1 0x0 PUSH1 0x1F NOT PUSH1 0x1F DUP4 ADD AND SWAP1 POP SWAP2 SWAP1 POP JUMP JUMPDEST PUSH32 0x4E487B7100000000000000000000000000000000000000000000000000000000 PUSH1 0x0 MSTORE PUSH1 0x41 PUSH1 0x4 MSTORE PUSH1 0x24 PUSH1 0x0 REVERT JUMPDEST PUSH2 0x3201 DUP3 PUSH2 0x31B8 JUMP JUMPDEST DUP2 ADD DUP2 DUP2 LT PUSH8 0xFFFFFFFFFFFFFFFF DUP3 GT OR ISZERO PUSH2 0x3220 JUMPI PUSH2 0x321F PUSH2 0x31C9 JUMP JUMPDEST JUMPDEST DUP1 PUSH1 0x40 MSTORE POP POP POP JUMP JUMPDEST PUSH1 0x0 PUSH2 0x3233 PUSH2 0x319A JUMP JUMPDEST SWAP1 POP PUSH2 0x323F DUP3 DUP3 PUSH2 0x31F8 JUMP JUMPDEST SWAP2 SWAP1 POP JUMP JUMPDEST PUSH1 0x0 PUSH8 0xFFFFFFFFFFFFFFFF DUP3 GT ISZERO PUSH2 0x325F JUMPI PUSH2 0x325E PUSH2 0x31C9 JUMP JUMPDEST JUMPDEST PUSH2 0x3268 DUP3 PUSH2 0x31B8 JUMP JUMPDEST SWAP1 POP PUSH1 0x20 DUP2 ADD SWAP1 POP SWAP2 SWAP1 POP JUMP JUMPDEST DUP3 DUP2 DUP4 CALLDATACOPY PUSH1 0x0 DUP4 DUP4 ADD MSTORE POP POP POP JUMP JUMPDEST PUSH1 0x0 PUSH2 0x3297 PUSH2 0x3292 DUP5 PUSH2 0x3244 JUMP JUMPDEST PUSH2 0x3229 JUMP JUMPDEST SWAP1 POP DUP3 DUP2 MSTORE PUSH1 0x20 DUP2 ADD DUP5 DUP5 DUP5 ADD GT ISZERO PUSH2 0x32B3 JUMPI PUSH2 0x32B2 PUSH2 0x31B3 JUMP JUMPDEST JUMPDEST PUSH2 0x32BE DUP5 DUP3 DUP6 PUSH2 0x3275 JUMP JUMPDEST POP SWAP4 SWAP3 POP POP POP JUMP JUMPDEST PUSH1 0x0 DUP3 PUSH1 0x1F DUP4 ADD SLT PUSH2 0x32DB JUMPI PUSH2 0x32DA PUSH2 0x31AE JUMP JUMPDEST JUMPDEST DUP2 CALLDATALOAD PUSH2 0x32EB DUP5 DUP3 PUSH1 0x20 DUP7 ADD PUSH2 0x3284 JUMP JUMPDEST SWAP2 POP POP SWAP3 SWAP2 POP POP JUMP JUMPDEST PUSH1 0x0 DUP1 PUSH1 0x40 DUP4 DUP6 SUB SLT ISZERO PUSH2 0x330B JUMPI PUSH2 0x330A PUSH2 0x31A4 JUMP JUMPDEST JUMPDEST PUSH1 0x0 DUP4 ADD CALLDATALOAD PUSH8 0xFFFFFFFFFFFFFFFF DUP2 GT ISZERO PUSH2 0x3329 JUMPI PUSH2 0x3328 PUSH2 0x31A9 JUMP JUMPDEST JUMPDEST PUSH2 0x3335 DUP6 DUP3 DUP7 ADD PUSH2 0x32C6 JUMP JUMPDEST SWAP3 POP POP PUSH1 0x20 DUP4 ADD CALLDATALOAD PUSH8 0xFFFFFFFFFFFFFFFF DUP2 GT ISZERO PUSH2 0x3356 JUMPI PUSH2 0x3355 PUSH2 0x31A9 JUMP JUMPDEST JUMPDEST PUSH2 0x3362 DUP6 DUP3 DUP7 ADD PUSH2 0x32C6 JUMP JUMPDEST SWAP2 POP POP SWAP3 POP SWAP3 SWAP1 POP JUMP JUMPDEST PUSH1 0x0 PUSH1 0x20 DUP3 DUP5 SUB SLT ISZERO PUSH2 0x3382 JUMPI PUSH2 0x3381 PUSH2 0x31A4 JUMP JUMPDEST JUMPDEST PUSH1 0x0 DUP3 ADD CALLDATALOAD PUSH8 0xFFFFFFFFFFFFFFFF DUP2 GT ISZERO PUSH2 0x33A0 JUMPI PUSH2 0x339F PUSH2 0x31A9 JUMP JUMPDEST JUMPDEST PUSH2 0x33AC DUP5 DUP3 DUP6 ADD PUSH2 0x32C6 JUMP JUMPDEST SWAP2 POP POP SWAP3 SWAP2 POP POP JUMP JUMPDEST PUSH1 0x0 PUSH2 0x33C0 DUP3 PUSH2 0x3092 JUMP JUMPDEST SWAP1 POP SWAP2 SWAP1 POP JUMP JUMPDEST PUSH2 0x33D0 DUP2 PUSH2 0x33B5 JUMP JUMPDEST DUP2 EQ PUSH2 0x33DB JUMPI PUSH1 0x0 DUP1 REVERT JUMPDEST POP JUMP JUMPDEST PUSH1 0x0 DUP2 CALLDATALOAD SWAP1 POP PUSH2 0x33ED DUP2 PUSH2 0x33C7 JUMP JUMPDEST SWAP3 SWAP2 POP POP JUMP JUMPDEST PUSH1 0x0 PUSH1 0x20 DUP3 DUP5 SUB SLT ISZERO PUSH2 0x3409 JUMPI PUSH2 0x3408 PUSH2 0x31A4 JUMP JUMPDEST JUMPDEST PUSH1 0x0 PUSH2 0x3417 DUP5 DUP3 DUP6 ADD PUSH2 0x33DE JUMP JUMPDEST SWAP2 POP POP SWAP3 SWAP2 POP POP JUMP JUMPDEST PUSH2 0x3429 DUP2 PUSH2 0x33B5 JUMP JUMPDEST DUP3 MSTORE POP POP JUMP JUMPDEST PUSH1 0x0 PUSH1 0x20 DUP3 ADD SWAP1 POP PUSH2 0x3444 PUSH1 0x0 DUP4 ADD DUP5 PUSH2 0x3420 JUMP JUMPDEST SWAP3 SWAP2 POP POP JUMP JUMPDEST PUSH2 0x3453 DUP2 PUSH2 0x3166 JUMP JUMPDEST DUP2 EQ PUSH2 0x345E JUMPI PUSH1 0x0 DUP1 REVERT JUMPDEST POP JUMP JUMPDEST PUSH1 0x0 DUP2 CALLDATALOAD SWAP1 POP PUSH2 0x3470 DUP2 PUSH2 0x344A JUMP JUMPDEST SWAP3 SWAP2 POP POP JUMP JUMPDEST PUSH1 0x0 DUP1 REVERT JUMPDEST PUSH1 0x0 DUP1 REVERT JUMPDEST PUSH1 0x0 DUP2 SWAP1 POP SWAP2 SWAP1 POP JUMP JUMPDEST PUSH2 0x3493 DUP2 PUSH2 0x3480 JUMP JUMPDEST DUP2 EQ PUSH2 0x349E JUMPI PUSH1 0x0 DUP1 REVERT JUMPDEST POP JUMP JUMPDEST PUSH1 0x0 DUP2 CALLDATALOAD SWAP1 POP PUSH2 0x34B0 DUP2 PUSH2 0x348A JUMP JUMPDEST SWAP3 SWAP2 POP POP JUMP JUMPDEST PUSH1 0x0 PUSH1 0xA0 DUP3 DUP5 SUB SLT ISZERO PUSH2 0x34CC JUMPI PUSH2 0x34CB PUSH2 0x3476 JUMP JUMPDEST JUMPDEST PUSH2 0x34D6 PUSH1 0xA0 PUSH2 0x3229 JUMP JUMPDEST SWAP1 POP PUSH1 0x0 PUSH2 0x34E6 DUP5 DUP3 DUP6 ADD PUSH2 0x3461 JUMP JUMPDEST PUSH1 0x0 DUP4 ADD MSTORE POP PUSH1 0x20 PUSH2 0x34FA DUP5 DUP3 DUP6 ADD PUSH2 0x34A1 JUMP JUMPDEST PUSH1 0x20 DUP4 ADD MSTORE POP PUSH1 0x40 PUSH2 0x350E DUP5 DUP3 DUP6 ADD PUSH2 0x3461 JUMP JUMPDEST PUSH1 0x40 DUP4 ADD MSTORE POP PUSH1 0x60 PUSH2 0x3522 DUP5 DUP3 DUP6 ADD PUSH2 0x3461 JUMP JUMPDEST PUSH1 0x60 DUP4 ADD MSTORE POP PUSH1 0x80 DUP3 ADD CALLDATALOAD PUSH8 0xFFFFFFFFFFFFFFFF DUP2 GT ISZERO PUSH2 0x3546 JUMPI PUSH2 0x3545 PUSH2 0x347B JUMP JUMPDEST JUMPDEST PUSH2 0x3552 DUP5 DUP3 DUP6 ADD PUSH2 0x32C6 JUMP JUMPDEST PUSH1 0x80 DUP4 ADD MSTORE POP SWAP3 SWAP2 POP POP JUMP JUMPDEST PUSH1 0x0 PUSH8 0xFFFFFFFFFFFFFFFF DUP3 GT ISZERO PUSH2 0x3579 JUMPI PUSH2 0x3578 PUSH2 0x31C9 JUMP JUMPDEST JUMPDEST PUSH1 0x20 DUP3 MUL SWAP1 POP PUSH1 0x20 DUP2 ADD SWAP1 POP SWAP2 SWAP1 POP JUMP JUMPDEST PUSH1 0x0 DUP1 REVERT JUMPDEST PUSH1 0x0 PUSH2 0x35A2 PUSH2 0x359D DUP5 PUSH2 0x355E JUMP JUMPDEST PUSH2 0x3229 JUMP JUMPDEST SWAP1 POP DUP1 DUP4 DUP3 MSTORE PUSH1 0x20 DUP3 ADD SWAP1 POP PUSH1 0x20 DUP5 MUL DUP4 ADD DUP6 DUP2 GT ISZERO PUSH2 0x35C5 JUMPI PUSH2 0x35C4 PUSH2 0x358A JUMP JUMPDEST JUMPDEST DUP4 JUMPDEST DUP2 DUP2 LT ISZERO PUSH2 0x35EE JUMPI DUP1 PUSH2 0x35DA DUP9 DUP3 PUSH2 0x34A1 JUMP JUMPDEST DUP5 MSTORE PUSH1 0x20 DUP5 ADD SWAP4 POP POP PUSH1 0x20 DUP2 ADD SWAP1 POP PUSH2 0x35C7 JUMP JUMPDEST POP POP POP SWAP4 SWAP3 POP POP POP JUMP JUMPDEST PUSH1 0x0 DUP3 PUSH1 0x1F DUP4 ADD SLT PUSH2 0x360D JUMPI PUSH2 0x360C PUSH2 0x31AE JUMP JUMPDEST JUMPDEST DUP2 CALLDATALOAD PUSH2 0x361D DUP5 DUP3 PUSH1 0x20 DUP7 ADD PUSH2 0x358F JUMP JUMPDEST SWAP2 POP POP SWAP3 SWAP2 POP POP JUMP JUMPDEST PUSH1 0x0 PUSH1 0x40 DUP3 DUP5 SUB SLT ISZERO PUSH2 0x363C JUMPI PUSH2 0x363B PUSH2 0x3476 JUMP JUMPDEST JUMPDEST PUSH2 0x3646 PUSH1 0x40 PUSH2 0x3229 JUMP JUMPDEST SWAP1 POP PUSH1 0x0 PUSH2 0x3656 DUP5 DUP3 DUP6 ADD PUSH2 0x3461 JUMP JUMPDEST PUSH1 0x0 DUP4 ADD MSTORE POP PUSH1 0x20 DUP3 ADD CALLDATALOAD PUSH8 0xFFFFFFFFFFFFFFFF DUP2 GT ISZERO PUSH2 0x367A JUMPI PUSH2 0x3679 PUSH2 0x347B JUMP JUMPDEST JUMPDEST PUSH2 0x3686 DUP5 DUP3 DUP6 ADD PUSH2 0x35F8 JUMP JUMPDEST PUSH1 0x20 DUP4 ADD MSTORE POP SWAP3 SWAP2 POP POP JUMP JUMPDEST PUSH1 0x0 PUSH1 0xA0 DUP3 DUP5 SUB SLT ISZERO PUSH2 0x36A8 JUMPI PUSH2 0x36A7 PUSH2 0x3476 JUMP JUMPDEST JUMPDEST PUSH2 0x36B2 PUSH1 0xA0 PUSH2 0x3229 JUMP JUMPDEST SWAP1 POP PUSH1 0x0 PUSH2 0x36C2 DUP5 DUP3 DUP6 ADD PUSH2 0x34A1 JUMP JUMPDEST PUSH1 0x0 DUP4 ADD MSTORE POP PUSH1 0x20 DUP3 ADD CALLDATALOAD PUSH8 0xFFFFFFFFFFFFFFFF DUP2 GT ISZERO PUSH2 0x36E6 JUMPI PUSH2 0x36E5 PUSH2 0x347B JUMP JUMPDEST JUMPDEST PUSH2 0x36F2 DUP5 DUP3 DUP6 ADD PUSH2 0x34B6 JUMP JUMPDEST PUSH1 0x20 DUP4 ADD MSTORE POP PUSH1 0x40 DUP3 ADD CALLDATALOAD PUSH8 0xFFFFFFFFFFFFFFFF DUP2 GT ISZERO PUSH2 0x3716 JUMPI PUSH2 0x3715 PUSH2 0x347B JUMP JUMPDEST JUMPDEST PUSH2 0x3722 DUP5 DUP3 DUP6 ADD PUSH2 0x3626 JUMP JUMPDEST PUSH1 0x40 DUP4 ADD MSTORE POP PUSH1 0x60 DUP3 ADD CALLDATALOAD PUSH8 0xFFFFFFFFFFFFFFFF DUP2 GT ISZERO PUSH2 0x3746 JUMPI PUSH2 0x3745 PUSH2 0x347B JUMP JUMPDEST JUMPDEST PUSH2 0x3752 DUP5 DUP3 DUP6 ADD PUSH2 0x32C6 JUMP JUMPDEST PUSH1 0x60 DUP4 ADD MSTORE POP PUSH1 0x80 DUP3 ADD CALLDATALOAD PUSH8 0xFFFFFFFFFFFFFFFF DUP2 GT ISZERO PUSH2 0x3776 JUMPI PUSH2 0x3775 PUSH2 0x347B JUMP JUMPDEST JUMPDEST PUSH2 0x3782 DUP5 DUP3 DUP6 ADD PUSH2 0x32C6 JUMP JUMPDEST PUSH1 0x80 DUP4 ADD MSTORE POP SWAP3 SWAP2 POP POP JUMP JUMPDEST PUSH1 0x0 DUP1 PUSH1 0x0 DUP1 PUSH1 0x0 PUSH1 0xA0 DUP7 DUP9 SUB SLT ISZERO PUSH2 0x37AA JUMPI PUSH2 0x37A9 PUSH2 0x31A4 JUMP JUMPDEST JUMPDEST PUSH1 0x0 PUSH2 0x37B8 DUP9 DUP3 DUP10 ADD PUSH2 0x33DE JUMP JUMPDEST SWAP6 POP POP PUSH1 0x20 PUSH2 0x37C9 DUP9 DUP3 DUP10 ADD PUSH2 0x33DE JUMP JUMPDEST SWAP5 POP POP PUSH1 0x40 DUP7 ADD CALLDATALOAD PUSH8 0xFFFFFFFFFFFFFFFF DUP2 GT ISZERO PUSH2 0x37EA JUMPI PUSH2 0x37E9 PUSH2 0x31A9 JUMP JUMPDEST JUMPDEST PUSH2 0x37F6 DUP9 DUP3 DUP10 ADD PUSH2 0x32C6 JUMP JUMPDEST SWAP4 POP POP PUSH1 0x60 PUSH2 0x3807 DUP9 DUP3 DUP10 ADD PUSH2 0x3461 JUMP JUMPDEST SWAP3 POP POP PUSH1 0x80 DUP7 ADD CALLDATALOAD PUSH8 0xFFFFFFFFFFFFFFFF DUP2 GT ISZERO PUSH2 0x3828 JUMPI PUSH2 0x3827 PUSH2 0x31A9 JUMP JUMPDEST JUMPDEST PUSH2 0x3834 DUP9 DUP3 DUP10 ADD PUSH2 0x3692 JUMP JUMPDEST SWAP2 POP POP SWAP3 SWAP6 POP SWAP3 SWAP6 SWAP1 SWAP4 POP JUMP JUMPDEST PUSH1 0x0 PUSH1 0x20 DUP3 DUP5 SUB SLT ISZERO PUSH2 0x3857 JUMPI PUSH2 0x3856 PUSH2 0x31A4 JUMP JUMPDEST JUMPDEST PUSH1 0x0 PUSH2 0x3865 DUP5 DUP3 DUP6 ADD PUSH2 0x3461 JUMP JUMPDEST SWAP2 POP POP SWAP3 SWAP2 POP POP JUMP JUMPDEST PUSH1 0x0 PUSH1 0x20 DUP3 DUP5 SUB SLT ISZERO PUSH2 0x3884 JUMPI PUSH2 0x3883 PUSH2 0x31A4 JUMP JUMPDEST JUMPDEST PUSH1 0x0 PUSH2 0x3892 DUP5 DUP3 DUP6 ADD PUSH2 0x34A1 JUMP JUMPDEST SWAP2 POP POP SWAP3 SWAP2 POP POP JUMP JUMPDEST PUSH1 0x0 DUP2 ISZERO ISZERO SWAP1 POP SWAP2 SWAP1 POP JUMP JUMPDEST PUSH2 0x38B0 DUP2 PUSH2 0x389B JUMP JUMPDEST DUP3 MSTORE POP POP JUMP JUMPDEST PUSH1 0x0 PUSH1 0x20 DUP3 ADD SWAP1 POP PUSH2 0x38CB PUSH1 0x0 DUP4 ADD DUP5 PUSH2 0x38A7 JUMP JUMPDEST SWAP3 SWAP2 POP POP JUMP JUMPDEST PUSH1 0x0 DUP3 DUP3 MSTORE PUSH1 0x20 DUP3 ADD SWAP1 POP SWAP3 SWAP2 POP POP JUMP JUMPDEST PUSH32 0x21726F6F744D616E616765720000000000000000000000000000000000000000 PUSH1 0x0 DUP3 ADD MSTORE POP JUMP JUMPDEST PUSH1 0x0 PUSH2 0x3918 PUSH1 0xC DUP4 PUSH2 0x38D1 JUMP JUMPDEST SWAP2 POP PUSH2 0x3923 DUP3 PUSH2 0x38E2 JUMP JUMPDEST PUSH1 0x20 DUP3 ADD SWAP1 POP SWAP2 SWAP1 POP JUMP JUMPDEST PUSH1 0x0 PUSH1 0x20 DUP3 ADD SWAP1 POP DUP2 DUP2 SUB PUSH1 0x0 DUP4 ADD MSTORE PUSH2 0x3947 DUP2 PUSH2 0x390B JUMP JUMPDEST SWAP1 POP SWAP2 SWAP1 POP JUMP JUMPDEST PUSH1 0x0 DUP2 MLOAD SWAP1 POP SWAP2 SWAP1 POP JUMP JUMPDEST PUSH1 0x0 DUP3 DUP3 MSTORE PUSH1 0x20 DUP3 ADD SWAP1 POP SWAP3 SWAP2 POP POP JUMP JUMPDEST PUSH1 0x0 JUMPDEST DUP4 DUP2 LT ISZERO PUSH2 0x3988 JUMPI DUP1 DUP3 ADD MLOAD DUP2 DUP5 ADD MSTORE PUSH1 0x20 DUP2 ADD SWAP1 POP PUSH2 0x396D JUMP JUMPDEST PUSH1 0x0 DUP5 DUP5 ADD MSTORE POP POP POP POP JUMP JUMPDEST PUSH1 0x0 PUSH2 0x399F DUP3 PUSH2 0x394E JUMP JUMPDEST PUSH2 0x39A9 DUP2 DUP6 PUSH2 0x3959 JUMP JUMPDEST SWAP4 POP PUSH2 0x39B9 DUP2 DUP6 PUSH1 0x20 DUP7 ADD PUSH2 0x396A JUMP JUMPDEST PUSH2 0x39C2 DUP2 PUSH2 0x31B8 JUMP JUMPDEST DUP5 ADD SWAP2 POP POP SWAP3 SWAP2 POP POP JUMP JUMPDEST PUSH1 0x0 PUSH1 0x60 DUP3 ADD SWAP1 POP DUP2 DUP2 SUB PUSH1 0x0 DUP4 ADD MSTORE PUSH2 0x39E7 DUP2 DUP7 PUSH2 0x3994 JUMP JUMPDEST SWAP1 POP DUP2 DUP2 SUB PUSH1 0x20 DUP4 ADD MSTORE PUSH2 0x39FB DUP2 DUP6 PUSH2 0x3994 JUMP JUMPDEST SWAP1 POP PUSH2 0x3A0A PUSH1 0x40 DUP4 ADD DUP5 PUSH2 0x3420 JUMP JUMPDEST SWAP5 SWAP4 POP POP POP POP JUMP JUMPDEST PUSH32 0x21414D4200000000000000000000000000000000000000000000000000000000 PUSH1 0x0 DUP3 ADD MSTORE POP JUMP JUMPDEST PUSH1 0x0 PUSH2 0x3A48 PUSH1 0x4 DUP4 PUSH2 0x38D1 JUMP JUMPDEST SWAP2 POP PUSH2 0x3A53 DUP3 PUSH2 0x3A12 JUMP JUMPDEST PUSH1 0x20 DUP3 ADD SWAP1 POP SWAP2 SWAP1 POP JUMP JUMPDEST PUSH1 0x0 PUSH1 0x20 DUP3 ADD SWAP1 POP DUP2 DUP2 SUB PUSH1 0x0 DUP4 ADD MSTORE PUSH2 0x3A77 DUP2 PUSH2 0x3A3B JUMP JUMPDEST SWAP1 POP SWAP2 SWAP1 POP JUMP JUMPDEST PUSH1 0x0 PUSH1 0x40 DUP3 ADD SWAP1 POP DUP2 DUP2 SUB PUSH1 0x0 DUP4 ADD MSTORE PUSH2 0x3A98 DUP2 DUP6 PUSH2 0x3994 JUMP JUMPDEST SWAP1 POP PUSH2 0x3AA7 PUSH1 0x20 DUP4 ADD DUP5 PUSH2 0x3420 JUMP JUMPDEST SWAP4 SWAP3 POP POP POP JUMP JUMPDEST PUSH32 0x216D6972726F72436F6E6E6563746F7200000000000000000000000000000000 PUSH1 0x0 DUP3 ADD MSTORE POP JUMP JUMPDEST PUSH1 0x0 PUSH2 0x3AE4 PUSH1 0x10 DUP4 PUSH2 0x38D1 JUMP JUMPDEST SWAP2 POP PUSH2 0x3AEF DUP3 PUSH2 0x3AAE JUMP JUMPDEST PUSH1 0x20 DUP3 ADD SWAP1 POP SWAP2 SWAP1 POP JUMP JUMPDEST PUSH1 0x0 PUSH1 0x20 DUP3 ADD SWAP1 POP DUP2 DUP2 SUB PUSH1 0x0 DUP4 ADD MSTORE PUSH2 0x3B13 DUP2 PUSH2 0x3AD7 JUMP JUMPDEST SWAP1 POP SWAP2 SWAP1 POP JUMP JUMPDEST PUSH32 0x2174686973000000000000000000000000000000000000000000000000000000 PUSH1 0x0 DUP3 ADD MSTORE POP JUMP JUMPDEST PUSH1 0x0 PUSH2 0x3B50 PUSH1 0x5 DUP4 PUSH2 0x38D1 JUMP JUMPDEST SWAP2 POP PUSH2 0x3B5B DUP3 PUSH2 0x3B1A JUMP JUMPDEST PUSH1 0x20 DUP3 ADD SWAP1 POP SWAP2 SWAP1 POP JUMP JUMPDEST PUSH1 0x0 PUSH1 0x20 DUP3 ADD SWAP1 POP DUP2 DUP2 SUB PUSH1 0x0 DUP4 ADD MSTORE PUSH2 0x3B7F DUP2 PUSH2 0x3B43 JUMP JUMPDEST SWAP1 POP SWAP2 SWAP1 POP JUMP JUMPDEST PUSH32 0x2170726F6F660000000000000000000000000000000000000000000000000000 PUSH1 0x0 DUP3 ADD MSTORE POP JUMP JUMPDEST PUSH1 0x0 PUSH2 0x3BBC PUSH1 0x6 DUP4 PUSH2 0x38D1 JUMP JUMPDEST SWAP2 POP PUSH2 0x3BC7 DUP3 PUSH2 0x3B86 JUMP JUMPDEST PUSH1 0x20 DUP3 ADD SWAP1 POP SWAP2 SWAP1 POP JUMP JUMPDEST PUSH1 0x0 PUSH1 0x20 DUP3 ADD SWAP1 POP DUP2 DUP2 SUB PUSH1 0x0 DUP4 ADD MSTORE PUSH2 0x3BEB DUP2 PUSH2 0x3BAF JUMP JUMPDEST SWAP1 POP SWAP2 SWAP1 POP JUMP JUMPDEST PUSH1 0x0 PUSH12 0xFFFFFFFFFFFFFFFFFFFFFFFF DUP3 AND SWAP1 POP SWAP2 SWAP1 POP JUMP JUMPDEST PUSH32 0x4E487B7100000000000000000000000000000000000000000000000000000000 PUSH1 0x0 MSTORE PUSH1 0x11 PUSH1 0x4 MSTORE PUSH1 0x24 PUSH1 0x0 REVERT JUMPDEST PUSH1 0x0 PUSH2 0x3C44 DUP3 PUSH2 0x3BF2 JUMP JUMPDEST SWAP2 POP PUSH2 0x3C4F DUP4 PUSH2 0x3BF2 JUMP JUMPDEST SWAP3 POP DUP3 DUP3 SUB SWAP1 POP PUSH12 0xFFFFFFFFFFFFFFFFFFFFFFFF DUP2 GT ISZERO PUSH2 0x3C73 JUMPI PUSH2 0x3C72 PUSH2 0x3C0A JUMP JUMPDEST JUMPDEST SWAP3 SWAP2 POP POP JUMP JUMPDEST PUSH2 0x3C82 DUP2 PUSH2 0x3480 JUMP JUMPDEST DUP3 MSTORE POP POP JUMP JUMPDEST PUSH1 0x0 PUSH1 0x40 DUP3 ADD SWAP1 POP PUSH2 0x3C9D PUSH1 0x0 DUP4 ADD DUP6 PUSH2 0x313C JUMP JUMPDEST PUSH2 0x3CAA PUSH1 0x20 DUP4 ADD DUP5 PUSH2 0x3C79 JUMP JUMPDEST SWAP4 SWAP3 POP POP POP JUMP JUMPDEST PUSH1 0x0 PUSH1 0x20 DUP3 ADD SWAP1 POP PUSH2 0x3CC6 PUSH1 0x0 DUP4 ADD DUP5 PUSH2 0x3C79 JUMP JUMPDEST SWAP3 SWAP2 POP POP JUMP JUMPDEST PUSH1 0x0 PUSH2 0x3CD7 DUP3 PUSH2 0x3166 JUMP JUMPDEST SWAP2 POP PUSH2 0x3CE2 DUP4 PUSH2 0x3166 JUMP JUMPDEST SWAP3 POP DUP3 DUP3 SUB SWAP1 POP DUP2 DUP2 GT ISZERO PUSH2 0x3CFA JUMPI PUSH2 0x3CF9 PUSH2 0x3C0A JUMP JUMPDEST JUMPDEST SWAP3 SWAP2 POP POP JUMP JUMPDEST PUSH32 0x216C656E67746800000000000000000000000000000000000000000000000000 PUSH1 0x0 DUP3 ADD MSTORE POP JUMP JUMPDEST PUSH1 0x0 PUSH2 0x3D36 PUSH1 0x7 DUP4 PUSH2 0x38D1 JUMP JUMPDEST SWAP2 POP PUSH2 0x3D41 DUP3 PUSH2 0x3D00 JUMP JUMPDEST PUSH1 0x20 DUP3 ADD SWAP1 POP SWAP2 SWAP1 POP JUMP JUMPDEST PUSH1 0x0 PUSH1 0x20 DUP3 ADD SWAP1 POP DUP2 DUP2 SUB PUSH1 0x0 DUP4 ADD MSTORE PUSH2 0x3D65 DUP2 PUSH2 0x3D29 JUMP JUMPDEST SWAP1 POP SWAP2 SWAP1 POP JUMP JUMPDEST PUSH1 0x0 PUSH1 0x20 DUP3 ADD SWAP1 POP DUP2 DUP2 SUB PUSH1 0x0 DUP4 ADD MSTORE PUSH2 0x3D86 DUP2 DUP5 PUSH2 0x3994 JUMP JUMPDEST SWAP1 POP SWAP3 SWAP2 POP POP JUMP JUMPDEST PUSH1 0x0 PUSH1 0x60 DUP3 ADD SWAP1 POP PUSH2 0x3DA3 PUSH1 0x0 DUP4 ADD DUP7 PUSH2 0x3420 JUMP JUMPDEST DUP2 DUP2 SUB PUSH1 0x20 DUP4 ADD MSTORE PUSH2 0x3DB5 DUP2 DUP6 PUSH2 0x3994 JUMP JUMPDEST SWAP1 POP PUSH2 0x3DC4 PUSH1 0x40 DUP4 ADD DUP5 PUSH2 0x313C JUMP JUMPDEST SWAP5 SWAP4 POP POP POP POP JUMP JUMPDEST PUSH1 0x0 PUSH1 0x40 DUP3 ADD SWAP1 POP PUSH2 0x3DE1 PUSH1 0x0 DUP4 ADD DUP6 PUSH2 0x3420 JUMP JUMPDEST PUSH2 0x3DEE PUSH1 0x20 DUP4 ADD DUP5 PUSH2 0x3420 JUMP JUMPDEST SWAP4 SWAP3 POP POP POP JUMP JUMPDEST PUSH1 0x0 PUSH1 0x80 DUP3 ADD SWAP1 POP PUSH2 0x3E0A PUSH1 0x0 DUP4 ADD DUP8 PUSH2 0x3420 JUMP JUMPDEST PUSH2 0x3E17 PUSH1 0x20 DUP4 ADD DUP7 PUSH2 0x3420 JUMP JUMPDEST DUP2 DUP2 SUB PUSH1 0x40 DUP4 ADD MSTORE PUSH2 0x3E29 DUP2 DUP6 PUSH2 0x3994 JUMP JUMPDEST SWAP1 POP PUSH2 0x3E38 PUSH1 0x60 DUP4 ADD DUP5 PUSH2 0x3170 JUMP JUMPDEST SWAP6 SWAP5 POP POP POP POP POP JUMP JUMPDEST PUSH1 0x0 PUSH2 0x3E4C DUP3 PUSH2 0x3166 JUMP JUMPDEST SWAP2 POP PUSH2 0x3E57 DUP4 PUSH2 0x3166 JUMP JUMPDEST SWAP3 POP DUP3 DUP3 ADD SWAP1 POP DUP1 DUP3 GT ISZERO PUSH2 0x3E6F JUMPI PUSH2 0x3E6E PUSH2 0x3C0A JUMP JUMPDEST JUMPDEST SWAP3 SWAP2 POP POP JUMP JUMPDEST PUSH1 0x0 PUSH2 0x3E90 PUSH2 0x3E8B PUSH2 0x3E86 DUP5 PUSH2 0x3BF2 JUMP JUMPDEST PUSH2 0x30B2 JUMP JUMPDEST PUSH2 0x3166 JUMP JUMPDEST SWAP1 POP SWAP2 SWAP1 POP JUMP JUMPDEST PUSH2 0x3EA0 DUP2 PUSH2 0x3E75 JUMP JUMPDEST DUP3 MSTORE POP POP JUMP JUMPDEST PUSH1 0x0 PUSH1 0x80 DUP3 ADD SWAP1 POP PUSH2 0x3EBB PUSH1 0x0 DUP4 ADD DUP8 PUSH2 0x3E97 JUMP JUMPDEST PUSH2 0x3EC8 PUSH1 0x20 DUP4 ADD DUP7 PUSH2 0x3E97 JUMP JUMPDEST PUSH2 0x3ED5 PUSH1 0x40 DUP4 ADD DUP6 PUSH2 0x3170 JUMP JUMPDEST PUSH2 0x3EE2 PUSH1 0x60 DUP4 ADD DUP5 PUSH2 0x3170 JUMP JUMPDEST SWAP6 SWAP5 POP POP POP POP POP JUMP JUMPDEST PUSH1 0x0 PUSH1 0x40 DUP3 ADD SWAP1 POP PUSH2 0x3F00 PUSH1 0x0 DUP4 ADD DUP6 PUSH2 0x3170 JUMP JUMPDEST PUSH2 0x3F0D PUSH1 0x20 DUP4 ADD DUP5 PUSH2 0x3170 JUMP JUMPDEST SWAP4 SWAP3 POP POP POP JUMP JUMPDEST PUSH2 0x3F1D DUP2 PUSH2 0x3166 JUMP JUMPDEST DUP3 MSTORE POP POP JUMP JUMPDEST PUSH2 0x3F2C DUP2 PUSH2 0x3480 JUMP JUMPDEST DUP3 MSTORE POP POP JUMP JUMPDEST PUSH1 0x0 DUP3 DUP3 MSTORE PUSH1 0x20 DUP3 ADD SWAP1 POP SWAP3 SWAP2 POP POP JUMP JUMPDEST PUSH1 0x0 PUSH2 0x3F4E DUP3 PUSH2 0x394E JUMP JUMPDEST PUSH2 0x3F58 DUP2 DUP6 PUSH2 0x3F32 JUMP JUMPDEST SWAP4 POP PUSH2 0x3F68 DUP2 DUP6 PUSH1 0x20 DUP7 ADD PUSH2 0x396A JUMP JUMPDEST PUSH2 0x3F71 DUP2 PUSH2 0x31B8 JUMP JUMPDEST DUP5 ADD SWAP2 POP POP SWAP3 SWAP2 POP POP JUMP JUMPDEST PUSH1 0x0 PUSH1 0xA0 DUP4 ADD PUSH1 0x0 DUP4 ADD MLOAD PUSH2 0x3F94 PUSH1 0x0 DUP7 ADD DUP3 PUSH2 0x3F14 JUMP JUMPDEST POP PUSH1 0x20 DUP4 ADD MLOAD PUSH2 0x3FA7 PUSH1 0x20 DUP7 ADD DUP3 PUSH2 0x3F23 JUMP JUMPDEST POP PUSH1 0x40 DUP4 ADD MLOAD PUSH2 0x3FBA PUSH1 0x40 DUP7 ADD DUP3 PUSH2 0x3F14 JUMP JUMPDEST POP PUSH1 0x60 DUP4 ADD MLOAD PUSH2 0x3FCD PUSH1 0x60 DUP7 ADD DUP3 PUSH2 0x3F14 JUMP JUMPDEST POP PUSH1 0x80 DUP4 ADD MLOAD DUP5 DUP3 SUB PUSH1 0x80 DUP7 ADD MSTORE PUSH2 0x3FE5 DUP3 DUP3 PUSH2 0x3F43 JUMP JUMPDEST SWAP2 POP POP DUP1 SWAP2 POP POP SWAP3 SWAP2 POP POP JUMP JUMPDEST PUSH1 0x0 DUP2 MLOAD SWAP1 POP SWAP2 SWAP1 POP JUMP JUMPDEST PUSH1 0x0 DUP3 DUP3 MSTORE PUSH1 0x20 DUP3 ADD SWAP1 POP SWAP3 SWAP2 POP POP JUMP JUMPDEST PUSH1 0x0 DUP2 SWAP1 POP PUSH1 0x20 DUP3 ADD SWAP1 POP SWAP2 SWAP1 POP JUMP JUMPDEST PUSH1 0x0 PUSH2 0x402A DUP4 DUP4 PUSH2 0x3F23 JUMP JUMPDEST PUSH1 0x20 DUP4 ADD SWAP1 POP SWAP3 SWAP2 POP POP JUMP JUMPDEST PUSH1 0x0 PUSH1 0x20 DUP3 ADD SWAP1 POP SWAP2 SWAP1 POP JUMP JUMPDEST PUSH1 0x0 PUSH2 0x404E DUP3 PUSH2 0x3FF2 JUMP JUMPDEST PUSH2 0x4058 DUP2 DUP6 PUSH2 0x3FFD JUMP JUMPDEST SWAP4 POP PUSH2 0x4063 DUP4 PUSH2 0x400E JUMP JUMPDEST DUP1 PUSH1 0x0 JUMPDEST DUP4 DUP2 LT ISZERO PUSH2 0x4094 JUMPI DUP2 MLOAD PUSH2 0x407B DUP9 DUP3 PUSH2 0x401E JUMP JUMPDEST SWAP8 POP PUSH2 0x4086 DUP4 PUSH2 0x4036 JUMP JUMPDEST SWAP3 POP POP PUSH1 0x1 DUP2 ADD SWAP1 POP PUSH2 0x4067 JUMP JUMPDEST POP DUP6 SWAP4 POP POP POP POP SWAP3 SWAP2 POP POP JUMP JUMPDEST PUSH1 0x0 PUSH1 0x40 DUP4 ADD PUSH1 0x0 DUP4 ADD MLOAD PUSH2 0x40B9 PUSH1 0x0 DUP7 ADD DUP3 PUSH2 0x3F14 JUMP JUMPDEST POP PUSH1 0x20 DUP4 ADD MLOAD DUP5 DUP3 SUB PUSH1 0x20 DUP7 ADD MSTORE PUSH2 0x40D1 DUP3 DUP3 PUSH2 0x4043 JUMP JUMPDEST SWAP2 POP POP DUP1 SWAP2 POP POP SWAP3 SWAP2 POP POP JUMP JUMPDEST PUSH1 0x0 PUSH1 0x60 DUP3 ADD SWAP1 POP PUSH2 0x40F3 PUSH1 0x0 DUP4 ADD DUP7 PUSH2 0x3C79 JUMP JUMPDEST DUP2 DUP2 SUB PUSH1 0x20 DUP4 ADD MSTORE PUSH2 0x4105 DUP2 DUP6 PUSH2 0x3F7C JUMP JUMPDEST SWAP1 POP DUP2 DUP2 SUB PUSH1 0x40 DUP4 ADD MSTORE PUSH2 0x4119 DUP2 DUP5 PUSH2 0x40A1 JUMP JUMPDEST SWAP1 POP SWAP5 SWAP4 POP POP POP POP JUMP JUMPDEST PUSH2 0x412C DUP2 PUSH2 0x389B JUMP JUMPDEST DUP2 EQ PUSH2 0x4137 JUMPI PUSH1 0x0 DUP1 REVERT JUMPDEST POP JUMP JUMPDEST PUSH1 0x0 DUP2 MLOAD SWAP1 POP PUSH2 0x4149 DUP2 PUSH2 0x4123 JUMP JUMPDEST SWAP3 SWAP2 POP POP JUMP JUMPDEST PUSH1 0x0 PUSH1 0x20 DUP3 DUP5 SUB SLT ISZERO PUSH2 0x4165 JUMPI PUSH2 0x4164 PUSH2 0x31A4 JUMP JUMPDEST JUMPDEST PUSH1 0x0 PUSH2 0x4173 DUP5 DUP3 DUP6 ADD PUSH2 0x413A JUMP JUMPDEST SWAP2 POP POP SWAP3 SWAP2 POP POP JUMP JUMPDEST PUSH1 0x0 DUP2 SWAP1 POP SWAP3 SWAP2 POP POP JUMP JUMPDEST PUSH1 0x0 PUSH2 0x4192 DUP3 PUSH2 0x394E JUMP JUMPDEST PUSH2 0x419C DUP2 DUP6 PUSH2 0x417C JUMP JUMPDEST SWAP4 POP PUSH2 0x41AC DUP2 DUP6 PUSH1 0x20 DUP7 ADD PUSH2 0x396A JUMP JUMPDEST DUP1 DUP5 ADD SWAP2 POP POP SWAP3 SWAP2 POP POP JUMP JUMPDEST PUSH1 0x0 DUP2 PUSH1 0x60 SHL SWAP1 POP SWAP2 SWAP1 POP JUMP JUMPDEST PUSH1 0x0 PUSH2 0x41D0 DUP3 PUSH2 0x41B8 JUMP JUMPDEST SWAP1 POP SWAP2 SWAP1 POP JUMP JUMPDEST PUSH1 0x0 PUSH2 0x41E2 DUP3 PUSH2 0x41C5 JUMP JUMPDEST SWAP1 POP SWAP2 SWAP1 POP JUMP JUMPDEST PUSH2 0x41FA PUSH2 0x41F5 DUP3 PUSH2 0x33B5 JUMP JUMPDEST PUSH2 0x41D7 JUMP JUMPDEST DUP3 MSTORE POP POP JUMP JUMPDEST PUSH1 0x0 PUSH2 0x420C DUP3 DUP6 PUSH2 0x4187 JUMP JUMPDEST SWAP2 POP PUSH2 0x4218 DUP3 DUP5 PUSH2 0x41E9 JUMP JUMPDEST PUSH1 0x14 DUP3 ADD SWAP2 POP DUP2 SWAP1 POP SWAP4 SWAP3 POP POP POP JUMP JUMPDEST PUSH1 0x0 DUP2 SWAP1 POP SWAP2 SWAP1 POP JUMP JUMPDEST PUSH2 0x4243 PUSH2 0x423E DUP3 PUSH2 0x3480 JUMP JUMPDEST PUSH2 0x4228 JUMP JUMPDEST DUP3 MSTORE POP POP JUMP JUMPDEST PUSH1 0x0 DUP2 SWAP1 POP SWAP2 SWAP1 POP JUMP JUMPDEST PUSH2 0x4264 PUSH2 0x425F DUP3 PUSH2 0x3166 JUMP JUMPDEST PUSH2 0x4249 JUMP JUMPDEST DUP3 MSTORE POP POP JUMP JUMPDEST PUSH1 0x0 PUSH2 0x4276 DUP3 DUP6 PUSH2 0x4232 JUMP JUMPDEST PUSH1 0x20 DUP3 ADD SWAP2 POP PUSH2 0x4286 DUP3 DUP5 PUSH2 0x4253 JUMP JUMPDEST PUSH1 0x20 DUP3 ADD SWAP2 POP DUP2 SWAP1 POP SWAP4 SWAP3 POP POP POP JUMP JUMPDEST PUSH1 0x0 PUSH2 0x42A2 DUP3 DUP5 PUSH2 0x41E9 JUMP JUMPDEST PUSH1 0x14 DUP3 ADD SWAP2 POP DUP2 SWAP1 POP SWAP3 SWAP2 POP POP JUMP JUMPDEST PUSH32 0x4D6573736167652070617373696E67207072656465706C6F7920686173206E6F PUSH1 0x0 DUP3 ADD MSTORE PUSH32 0x74206265656E20696E697469616C697A6564206F7220696E76616C6964207072 PUSH1 0x20 DUP3 ADD MSTORE PUSH32 0x6F6F662070726F76696465642E00000000000000000000000000000000000000 PUSH1 0x40 DUP3 ADD MSTORE POP JUMP JUMPDEST PUSH1 0x0 PUSH2 0x4333 PUSH1 0x4D DUP4 PUSH2 0x38D1 JUMP JUMPDEST SWAP2 POP PUSH2 0x433E DUP3 PUSH2 0x42B1 JUMP JUMPDEST PUSH1 0x60 DUP3 ADD SWAP1 POP SWAP2 SWAP1 POP JUMP JUMPDEST PUSH1 0x0 PUSH1 0x20 DUP3 ADD SWAP1 POP DUP2 DUP2 SUB PUSH1 0x0 DUP4 ADD MSTORE PUSH2 0x4362 DUP2 PUSH2 0x4326 JUMP JUMPDEST SWAP1 POP SWAP2 SWAP1 POP JUMP JUMPDEST PUSH1 0x0 PUSH2 0x4375 DUP3 DUP5 PUSH2 0x4232 JUMP JUMPDEST PUSH1 0x20 DUP3 ADD SWAP2 POP DUP2 SWAP1 POP SWAP3 SWAP2 POP POP JUMP JUMPDEST PUSH1 0x0 PUSH1 0xFF DUP3 AND SWAP1 POP SWAP2 SWAP1 POP JUMP JUMPDEST PUSH1 0x0 DUP2 PUSH1 0xF8 SHL SWAP1 POP SWAP2 SWAP1 POP JUMP JUMPDEST PUSH1 0x0 PUSH2 0x43A9 DUP3 PUSH2 0x4391 JUMP JUMPDEST SWAP1 POP SWAP2 SWAP1 POP JUMP JUMPDEST PUSH2 0x43C1 PUSH2 0x43BC DUP3 PUSH2 0x4384 JUMP JUMPDEST PUSH2 0x439E JUMP JUMPDEST DUP3 MSTORE POP POP JUMP JUMPDEST PUSH1 0x0 PUSH2 0x43D3 DUP3 DUP5 PUSH2 0x43B0 JUMP JUMPDEST PUSH1 0x1 DUP3 ADD SWAP2 POP DUP2 SWAP1 POP SWAP3 SWAP2 POP POP JUMP JUMPDEST PUSH32 0x2162726964676500000000000000000000000000000000000000000000000000 PUSH1 0x0 DUP3 ADD MSTORE POP JUMP JUMPDEST PUSH1 0x0 PUSH2 0x4418 PUSH1 0x7 DUP4 PUSH2 0x38D1 JUMP JUMPDEST SWAP2 POP PUSH2 0x4423 DUP3 PUSH2 0x43E2 JUMP JUMPDEST PUSH1 0x20 DUP3 ADD SWAP1 POP SWAP2 SWAP1 POP JUMP JUMPDEST PUSH1 0x0 PUSH1 0x20 DUP3 ADD SWAP1 POP DUP2 DUP2 SUB PUSH1 0x0 DUP4 ADD MSTORE PUSH2 0x4447 DUP2 PUSH2 0x440B JUMP JUMPDEST SWAP1 POP SWAP2 SWAP1 POP JUMP JUMPDEST PUSH1 0x0 DUP2 MLOAD SWAP1 POP PUSH2 0x445D DUP2 PUSH2 0x33C7 JUMP JUMPDEST SWAP3 SWAP2 POP POP JUMP JUMPDEST PUSH1 0x0 PUSH1 0x20 DUP3 DUP5 SUB SLT ISZERO PUSH2 0x4479 JUMPI PUSH2 0x4478 PUSH2 0x31A4 JUMP JUMPDEST JUMPDEST PUSH1 0x0 PUSH2 0x4487 DUP5 DUP3 DUP6 ADD PUSH2 0x444E JUMP JUMPDEST SWAP2 POP POP SWAP3 SWAP2 POP POP JUMP JUMPDEST PUSH32 0x4E487B7100000000000000000000000000000000000000000000000000000000 PUSH1 0x0 MSTORE PUSH1 0x32 PUSH1 0x4 MSTORE PUSH1 0x24 PUSH1 0x0 REVERT JUMPDEST PUSH32 0x217472756E636174656400000000000000000000000000000000000000000000 PUSH1 0x0 DUP3 ADD MSTORE POP JUMP JUMPDEST PUSH1 0x0 PUSH2 0x44F5 PUSH1 0xA DUP4 PUSH2 0x38D1 JUMP JUMPDEST SWAP2 POP PUSH2 0x4500 DUP3 PUSH2 0x44BF JUMP JUMPDEST PUSH1 0x20 DUP3 ADD SWAP1 POP SWAP2 SWAP1 POP JUMP JUMPDEST PUSH1 0x0 PUSH1 0x20 DUP3 ADD SWAP1 POP DUP2 DUP2 SUB PUSH1 0x0 DUP4 ADD MSTORE PUSH2 0x4524 DUP2 PUSH2 0x44E8 JUMP JUMPDEST SWAP1 POP SWAP2 SWAP1 POP JUMP JUMPDEST PUSH32 0x50726F76696465642070726F6F6620697320696E76616C69642E000000000000 PUSH1 0x0 DUP3 ADD MSTORE POP JUMP JUMPDEST PUSH1 0x0 PUSH2 0x4561 PUSH1 0x1A DUP4 PUSH2 0x38D1 JUMP JUMPDEST SWAP2 POP PUSH2 0x456C DUP3 PUSH2 0x452B JUMP JUMPDEST PUSH1 0x20 DUP3 ADD SWAP1 POP SWAP2 SWAP1 POP JUMP JUMPDEST PUSH1 0x0 PUSH1 0x20 DUP3 ADD SWAP1 POP DUP2 DUP2 SUB PUSH1 0x0 DUP4 ADD MSTORE PUSH2 0x4590 DUP2 PUSH2 0x4554 JUMP JUMPDEST SWAP1 POP SWAP2 SWAP1 POP JUMP JUMPDEST PUSH32 0x496E76616C696420524C5020627974657333322076616C75652E000000000000 PUSH1 0x0 DUP3 ADD MSTORE POP JUMP JUMPDEST PUSH1 0x0 PUSH2 0x45CD PUSH1 0x1A DUP4 PUSH2 0x38D1 JUMP JUMPDEST SWAP2 POP PUSH2 0x45D8 DUP3 PUSH2 0x4597 JUMP JUMPDEST PUSH1 0x20 DUP3 ADD SWAP1 POP SWAP2 SWAP1 POP JUMP JUMPDEST PUSH1 0x0 PUSH1 0x20 DUP3 ADD SWAP1 POP DUP2 DUP2 SUB PUSH1 0x0 DUP4 ADD MSTORE PUSH2 0x45FC DUP2 PUSH2 0x45C0 JUMP JUMPDEST SWAP1 POP SWAP2 SWAP1 POP JUMP JUMPDEST PUSH32 0x4E487B7100000000000000000000000000000000000000000000000000000000 PUSH1 0x0 MSTORE PUSH1 0x21 PUSH1 0x4 MSTORE PUSH1 0x24 PUSH1 0x0 REVERT JUMPDEST PUSH32 0x496E76616C696420726F6F742068617368000000000000000000000000000000 PUSH1 0x0 DUP3 ADD MSTORE POP JUMP JUMPDEST PUSH1 0x0 PUSH2 0x4668 PUSH1 0x11 DUP4 PUSH2 0x38D1 JUMP JUMPDEST SWAP2 POP PUSH2 0x4673 DUP3 PUSH2 0x4632 JUMP JUMPDEST PUSH1 0x20 DUP3 ADD SWAP1 POP SWAP2 SWAP1 POP JUMP JUMPDEST PUSH1 0x0 PUSH1 0x20 DUP3 ADD SWAP1 POP DUP2 DUP2 SUB PUSH1 0x0 DUP4 ADD MSTORE PUSH2 0x4697 DUP2 PUSH2 0x465B JUMP JUMPDEST SWAP1 POP SWAP2 SWAP1 POP JUMP JUMPDEST PUSH32 0x496E76616C696420696E7465726E616C206E6F64652068617368000000000000 PUSH1 0x0 DUP3 ADD MSTORE POP JUMP JUMPDEST PUSH1 0x0 PUSH2 0x46D4 PUSH1 0x1A DUP4 PUSH2 0x38D1 JUMP JUMPDEST SWAP2 POP PUSH2 0x46DF DUP3 PUSH2 0x469E JUMP JUMPDEST PUSH1 0x20 DUP3 ADD SWAP1 POP SWAP2 SWAP1 POP JUMP JUMPDEST PUSH1 0x0 PUSH1 0x20 DUP3 ADD SWAP1 POP DUP2 DUP2 SUB PUSH1 0x0 DUP4 ADD MSTORE PUSH2 0x4703 DUP2 PUSH2 0x46C7 JUMP JUMPDEST SWAP1 POP SWAP2 SWAP1 POP JUMP JUMPDEST PUSH32 0x4E487B7100000000000000000000000000000000000000000000000000000000 PUSH1 0x0 MSTORE PUSH1 0x12 PUSH1 0x4 MSTORE PUSH1 0x24 PUSH1 0x0 REVERT JUMPDEST PUSH1 0x0 PUSH2 0x4744 DUP3 PUSH2 0x4384 JUMP JUMPDEST SWAP2 POP PUSH2 0x474F DUP4 PUSH2 0x4384 JUMP JUMPDEST SWAP3 POP DUP3 PUSH2 0x475F JUMPI PUSH2 0x475E PUSH2 0x470A JUMP JUMPDEST JUMPDEST DUP3 DUP3 MOD SWAP1 POP SWAP3 SWAP2 POP POP JUMP JUMPDEST PUSH1 0x0 PUSH2 0x4775 DUP3 PUSH2 0x4384 JUMP JUMPDEST SWAP2 POP PUSH2 0x4780 DUP4 PUSH2 0x4384 JUMP JUMPDEST SWAP3 POP DUP3 DUP3 SUB SWAP1 POP PUSH1 0xFF DUP2 GT ISZERO PUSH2 0x4799 JUMPI PUSH2 0x4798 PUSH2 0x3C0A JUMP JUMPDEST JUMPDEST SWAP3 SWAP2 POP POP JUMP JUMPDEST PUSH32 0x52656365697665642061206E6F6465207769746820616E20756E6B6E6F776E20 PUSH1 0x0 DUP3 ADD MSTORE PUSH32 0x7072656669780000000000000000000000000000000000000000000000000000 PUSH1 0x20 DUP3 ADD MSTORE POP JUMP JUMPDEST PUSH1 0x0 PUSH2 0x47FB PUSH1 0x26 DUP4 PUSH2 0x38D1 JUMP JUMPDEST SWAP2 POP PUSH2 0x4806 DUP3 PUSH2 0x479F JUMP JUMPDEST PUSH1 0x40 DUP3 ADD SWAP1 POP SWAP2 SWAP1 POP JUMP JUMPDEST PUSH1 0x0 PUSH1 0x20 DUP3 ADD SWAP1 POP DUP2 DUP2 SUB PUSH1 0x0 DUP4 ADD MSTORE PUSH2 0x482A DUP2 PUSH2 0x47EE JUMP JUMPDEST SWAP1 POP SWAP2 SWAP1 POP JUMP JUMPDEST PUSH32 0x526563656976656420616E20756E706172736561626C65206E6F64652E000000 PUSH1 0x0 DUP3 ADD MSTORE POP JUMP JUMPDEST PUSH1 0x0 PUSH2 0x4867 PUSH1 0x1D DUP4 PUSH2 0x38D1 JUMP JUMPDEST SWAP2 POP PUSH2 0x4872 DUP3 PUSH2 0x4831 JUMP JUMPDEST PUSH1 0x20 DUP3 ADD SWAP1 POP SWAP2 SWAP1 POP JUMP JUMPDEST PUSH1 0x0 PUSH1 0x20 DUP3 ADD SWAP1 POP DUP2 DUP2 SUB PUSH1 0x0 DUP4 ADD MSTORE PUSH2 0x4896 DUP2 PUSH2 0x485A JUMP JUMPDEST SWAP1 POP SWAP2 SWAP1 POP JUMP JUMPDEST PUSH32 0x496E76616C696420524C50206C6973742076616C75652E000000000000000000 PUSH1 0x0 DUP3 ADD MSTORE POP JUMP JUMPDEST PUSH1 0x0 PUSH2 0x48D3 PUSH1 0x17 DUP4 PUSH2 0x38D1 JUMP JUMPDEST SWAP2 POP PUSH2 0x48DE DUP3 PUSH2 0x489D JUMP JUMPDEST PUSH1 0x20 DUP3 ADD SWAP1 POP SWAP2 SWAP1 POP JUMP JUMPDEST PUSH1 0x0 PUSH1 0x20 DUP3 ADD SWAP1 POP DUP2 DUP2 SUB PUSH1 0x0 DUP4 ADD MSTORE PUSH2 0x4902 DUP2 PUSH2 0x48C6 JUMP JUMPDEST SWAP1 POP SWAP2 SWAP1 POP JUMP JUMPDEST PUSH32 0x50726F766964656420524C50206C6973742065786365656473206D6178206C69 PUSH1 0x0 DUP3 ADD MSTORE PUSH32 0x7374206C656E6774682E00000000000000000000000000000000000000000000 PUSH1 0x20 DUP3 ADD MSTORE POP JUMP JUMPDEST PUSH1 0x0 PUSH2 0x4965 PUSH1 0x2A DUP4 PUSH2 0x38D1 JUMP JUMPDEST SWAP2 POP PUSH2 0x4970 DUP3 PUSH2 0x4909 JUMP JUMPDEST PUSH1 0x40 DUP3 ADD SWAP1 POP SWAP2 SWAP1 POP JUMP JUMPDEST PUSH1 0x0 PUSH1 0x20 DUP3 ADD SWAP1 POP DUP2 DUP2 SUB PUSH1 0x0 DUP4 ADD MSTORE PUSH2 0x4994 DUP2 PUSH2 0x4958 JUMP JUMPDEST SWAP1 POP SWAP2 SWAP1 POP JUMP JUMPDEST PUSH32 0x524C50206974656D2063616E6E6F74206265206E756C6C2E0000000000000000 PUSH1 0x0 DUP3 ADD MSTORE POP JUMP JUMPDEST PUSH1 0x0 PUSH2 0x49D1 PUSH1 0x18 DUP4 PUSH2 0x38D1 JUMP JUMPDEST SWAP2 POP PUSH2 0x49DC DUP3 PUSH2 0x499B JUMP JUMPDEST PUSH1 0x20 DUP3 ADD SWAP1 POP SWAP2 SWAP1 POP JUMP JUMPDEST PUSH1 0x0 PUSH1 0x20 DUP3 ADD SWAP1 POP DUP2 DUP2 SUB PUSH1 0x0 DUP4 ADD MSTORE PUSH2 0x4A00 DUP2 PUSH2 0x49C4 JUMP JUMPDEST SWAP1 POP SWAP2 SWAP1 POP JUMP JUMPDEST PUSH32 0x496E76616C696420524C502073686F727420737472696E672E00000000000000 PUSH1 0x0 DUP3 ADD MSTORE POP JUMP JUMPDEST PUSH1 0x0 PUSH2 0x4A3D PUSH1 0x19 DUP4 PUSH2 0x38D1 JUMP JUMPDEST SWAP2 POP PUSH2 0x4A48 DUP3 PUSH2 0x4A07 JUMP JUMPDEST PUSH1 0x20 DUP3 ADD SWAP1 POP SWAP2 SWAP1 POP JUMP JUMPDEST PUSH1 0x0 PUSH1 0x20 DUP3 ADD SWAP1 POP DUP2 DUP2 SUB PUSH1 0x0 DUP4 ADD MSTORE PUSH2 0x4A6C DUP2 PUSH2 0x4A30 JUMP JUMPDEST SWAP1 POP SWAP2 SWAP1 POP JUMP JUMPDEST PUSH32 0x496E76616C696420524C50206C6F6E6720737472696E67206C656E6774682E00 PUSH1 0x0 DUP3 ADD MSTORE POP JUMP JUMPDEST PUSH1 0x0 PUSH2 0x4AA9 PUSH1 0x1F DUP4 PUSH2 0x38D1 JUMP JUMPDEST SWAP2 POP PUSH2 0x4AB4 DUP3 PUSH2 0x4A73 JUMP JUMPDEST PUSH1 0x20 DUP3 ADD SWAP1 POP SWAP2 SWAP1 POP JUMP JUMPDEST PUSH1 0x0 PUSH1 0x20 DUP3 ADD SWAP1 POP DUP2 DUP2 SUB PUSH1 0x0 DUP4 ADD MSTORE PUSH2 0x4AD8 DUP2 PUSH2 0x4A9C JUMP JUMPDEST SWAP1 POP SWAP2 SWAP1 POP JUMP JUMPDEST PUSH32 0x496E76616C696420524C50206C6F6E6720737472696E672E0000000000000000 PUSH1 0x0 DUP3 ADD MSTORE POP JUMP JUMPDEST PUSH1 0x0 PUSH2 0x4B15 PUSH1 0x18 DUP4 PUSH2 0x38D1 JUMP JUMPDEST SWAP2 POP PUSH2 0x4B20 DUP3 PUSH2 0x4ADF JUMP JUMPDEST PUSH1 0x20 DUP3 ADD SWAP1 POP SWAP2 SWAP1 POP JUMP JUMPDEST PUSH1 0x0 PUSH1 0x20 DUP3 ADD SWAP1 POP DUP2 DUP2 SUB PUSH1 0x0 DUP4 ADD MSTORE PUSH2 0x4B44 DUP2 PUSH2 0x4B08 JUMP JUMPDEST SWAP1 POP SWAP2 SWAP1 POP JUMP JUMPDEST PUSH32 0x496E76616C696420524C502073686F7274206C6973742E000000000000000000 PUSH1 0x0 DUP3 ADD MSTORE POP JUMP JUMPDEST PUSH1 0x0 PUSH2 0x4B81 PUSH1 0x17 DUP4 PUSH2 0x38D1 JUMP JUMPDEST SWAP2 POP PUSH2 0x4B8C DUP3 PUSH2 0x4B4B JUMP JUMPDEST PUSH1 0x20 DUP3 ADD SWAP1 POP SWAP2 SWAP1 POP JUMP JUMPDEST PUSH1 0x0 PUSH1 0x20 DUP3 ADD SWAP1 POP DUP2 DUP2 SUB PUSH1 0x0 DUP4 ADD MSTORE PUSH2 0x4BB0 DUP2 PUSH2 0x4B74 JUMP JUMPDEST SWAP1 POP SWAP2 SWAP1 POP JUMP JUMPDEST PUSH32 0x496E76616C696420524C50206C6F6E67206C697374206C656E6774682E000000 PUSH1 0x0 DUP3 ADD MSTORE POP JUMP JUMPDEST PUSH1 0x0 PUSH2 0x4BED PUSH1 0x1D DUP4 PUSH2 0x38D1 JUMP JUMPDEST SWAP2 POP PUSH2 0x4BF8 DUP3 PUSH2 0x4BB7 JUMP JUMPDEST PUSH1 0x20 DUP3 ADD SWAP1 POP SWAP2 SWAP1 POP JUMP JUMPDEST PUSH1 0x0 PUSH1 0x20 DUP3 ADD SWAP1 POP DUP2 DUP2 SUB PUSH1 0x0 DUP4 ADD MSTORE PUSH2 0x4C1C DUP2 PUSH2 0x4BE0 JUMP JUMPDEST SWAP1 POP SWAP2 SWAP1 POP JUMP JUMPDEST PUSH32 0x496E76616C696420524C50206C6F6E67206C6973742E00000000000000000000 PUSH1 0x0 DUP3 ADD MSTORE POP JUMP JUMPDEST PUSH1 0x0 PUSH2 0x4C59 PUSH1 0x16 DUP4 PUSH2 0x38D1 JUMP JUMPDEST SWAP2 POP PUSH2 0x4C64 DUP3 PUSH2 0x4C23 JUMP JUMPDEST PUSH1 0x20 DUP3 ADD SWAP1 POP SWAP2 SWAP1 POP JUMP JUMPDEST PUSH1 0x0 PUSH1 0x20 DUP3 ADD SWAP1 POP DUP2 DUP2 SUB PUSH1 0x0 DUP4 ADD MSTORE PUSH2 0x4C88 DUP2 PUSH2 0x4C4C JUMP JUMPDEST SWAP1 POP SWAP2 SWAP1 POP JUMP JUMPDEST PUSH32 0x496E76616C696420524C502062797465732076616C75652E0000000000000000 PUSH1 0x0 DUP3 ADD MSTORE POP JUMP JUMPDEST PUSH1 0x0 PUSH2 0x4CC5 PUSH1 0x18 DUP4 PUSH2 0x38D1 JUMP JUMPDEST SWAP2 POP PUSH2 0x4CD0 DUP3 PUSH2 0x4C8F JUMP JUMPDEST PUSH1 0x20 DUP3 ADD SWAP1 POP SWAP2 SWAP1 POP JUMP JUMPDEST PUSH1 0x0 PUSH1 0x20 DUP3 ADD SWAP1 POP DUP2 DUP2 SUB PUSH1 0x0 DUP4 ADD MSTORE PUSH2 0x4CF4 DUP2 PUSH2 0x4CB8 JUMP JUMPDEST SWAP1 POP SWAP2 SWAP1 POP JUMP JUMPDEST PUSH1 0x0 PUSH2 0x4D06 DUP3 PUSH2 0x3166 JUMP JUMPDEST SWAP2 POP PUSH2 0x4D11 DUP4 PUSH2 0x3166 JUMP JUMPDEST SWAP3 POP DUP3 DUP3 MUL PUSH2 0x4D1F DUP2 PUSH2 0x3166 JUMP JUMPDEST SWAP2 POP DUP3 DUP3 DIV DUP5 EQ DUP4 ISZERO OR PUSH2 0x4D36 JUMPI PUSH2 0x4D35 PUSH2 0x3C0A JUMP JUMPDEST JUMPDEST POP SWAP3 SWAP2 POP POP JUMP JUMPDEST PUSH1 0x0 DUP2 MLOAD SWAP1 POP PUSH2 0x4D4C DUP2 PUSH2 0x348A JUMP JUMPDEST SWAP3 SWAP2 POP POP JUMP JUMPDEST PUSH1 0x0 PUSH1 0x20 DUP3 DUP5 SUB SLT ISZERO PUSH2 0x4D68 JUMPI PUSH2 0x4D67 PUSH2 0x31A4 JUMP JUMPDEST JUMPDEST PUSH1 0x0 PUSH2 0x4D76 DUP5 DUP3 DUP6 ADD PUSH2 0x4D3D JUMP JUMPDEST SWAP2 POP POP SWAP3 SWAP2 POP POP JUMP JUMPDEST PUSH1 0x0 PUSH2 0x4D8A DUP3 PUSH2 0x3166 JUMP JUMPDEST SWAP2 POP PUSH32 0xFFFFFFFFFFFFFFFFFFFFFFFFFFFFFFFFFFFFFFFFFFFFFFFFFFFFFFFFFFFFFFFF DUP3 SUB PUSH2 0x4DBC JUMPI PUSH2 0x4DBB PUSH2 0x3C0A JUMP JUMPDEST JUMPDEST PUSH1 0x1 DUP3 ADD SWAP1 POP SWAP2 SWAP1 POP JUMP JUMPDEST PUSH1 0x0 PUSH2 0x4DD2 DUP3 PUSH2 0x3166 JUMP JUMPDEST SWAP2 POP PUSH2 0x4DDD DUP4 PUSH2 0x3166 JUMP JUMPDEST SWAP3 POP DUP3 PUSH2 0x4DED JUMPI PUSH2 0x4DEC PUSH2 0x470A JUMP JUMPDEST JUMPDEST DUP3 DUP3 DIV SWAP1 POP SWAP3 SWAP2 POP POP JUMP JUMPDEST PUSH32 0x736C6963655F6F766572666C6F77000000000000000000000000000000000000 PUSH1 0x0 DUP3 ADD MSTORE POP JUMP JUMPDEST PUSH1 0x0 PUSH2 0x4E2E PUSH1 0xE DUP4 PUSH2 0x38D1 JUMP JUMPDEST SWAP2 POP PUSH2 0x4E39 DUP3 PUSH2 0x4DF8 JUMP JUMPDEST PUSH1 0x20 DUP3 ADD SWAP1 POP SWAP2 SWAP1 POP JUMP JUMPDEST PUSH1 0x0 PUSH1 0x20 DUP3 ADD SWAP1 POP DUP2 DUP2 SUB PUSH1 0x0 DUP4 ADD MSTORE PUSH2 0x4E5D DUP2 PUSH2 0x4E21 JUMP JUMPDEST SWAP1 POP SWAP2 SWAP1 POP JUMP JUMPDEST PUSH32 0x736C6963655F6F75744F66426F756E6473000000000000000000000000000000 PUSH1 0x0 DUP3 ADD MSTORE POP JUMP JUMPDEST PUSH1 0x0 PUSH2 0x4E9A PUSH1 0x11 DUP4 PUSH2 0x38D1 JUMP JUMPDEST SWAP2 POP PUSH2 0x4EA5 DUP3 PUSH2 0x4E64 JUMP JUMPDEST PUSH1 0x20 DUP3 ADD SWAP1 POP SWAP2 SWAP1 POP JUMP JUMPDEST PUSH1 0x0 PUSH1 0x20 DUP3 ADD SWAP1 POP DUP2 DUP2 SUB PUSH1 0x0 DUP4 ADD MSTORE PUSH2 0x4EC9 DUP2 PUSH2 0x4E8D JUMP JUMPDEST SWAP1 POP SWAP2 SWAP1 POP JUMP INVALID LOG2 PUSH5 0x6970667358 0x22 SLT KECCAK256 0xE3 0xDF CALLER PUSH29 0xFA3F362FFBB2BCDE355AEECAD5C3BE5A9218D4E529D6B70DBDCF12AC64 PUSH20 0x6F6C634300081100330000000000000000000000 "},"methodIdentifiers":{"AMB()":"d69f9d61","DOMAIN()":"52a9674b","MIRROR_DOMAIN()":"14168416","ROOT_MANAGER()":"5f61e3ec","acceptProposedOwner()":"c5b350df","delay()":"6a42b8f8","mirrorConnector()":"cc394283","owner()":"8da5cb5b","processMessage(bytes)":"4ff746f6","processMessageFromRoot(address,address,bytes,uint256,(bytes32,(uint256,bytes32,uint256,uint256,bytes),(uint256,bytes32[]),bytes,bytes))":"6e2edb4e","processed(bytes32)":"c1f0808a","proposeNewOwner(address)":"b1f8100d","proposed()":"d1851c92","proposedTimestamp()":"3cf52ffb","renounceOwnership()":"715018a6","renounced()":"d232c220","sendMessage(bytes,bytes)":"48e6fa23","setGasCap(uint256)":"7850b020","setMirrorConnector(address)":"5bd11efc","stateCommitmentChain()":"0f329ef8","verifySender(address)":"db1b7659"}}}}}