{"contracts/HelperOptimismAmb.sol":{"HelperOptimismAmb":{"abi":[{"inputs":[{"internalType":"bytes","name":"message","type":"bytes"},{"internalType":"bytes32[32]","name":"_aggregatePath","type":"bytes32[32]"},{"internalType":"uint256","name":"_aggregateIndex","type":"uint256"}],"name":"calculateMessageRoot","outputs":[{"internalType":"bytes32","name":"","type":"bytes32"}],"stateMutability":"view","type":"function"},{"inputs":[{"internalType":"bytes32","name":"_messageHash","type":"bytes32"},{"internalType":"bytes32[32]","name":"_aggregatePath","type":"bytes32[32]"},{"internalType":"uint256","name":"_aggregateIndex","type":"uint256"}],"name":"calculateRoot","outputs":[{"internalType":"bytes32","name":"","type":"bytes32"}],"stateMutability":"view","type":"function"},{"inputs":[{"internalType":"uint32","name":"_originDomain","type":"uint32"},{"internalType":"bytes32","name":"_sender","type":"bytes32"},{"internalType":"uint32","name":"_nonce","type":"uint32"},{"internalType":"uint32","name":"_destinationDomain","type":"uint32"},{"internalType":"bytes32","name":"_recipient","type":"bytes32"},{"internalType":"bytes","name":"_messageBody","type":"bytes"}],"name":"formatMessage","outputs":[{"internalType":"bytes","name":"","type":"bytes"}],"stateMutability":"view","type":"function"},{"inputs":[{"internalType":"address","name":"_target","type":"address"},{"internalType":"bytes","name":"_message","type":"bytes"},{"internalType":"uint32","name":"_gasLimit","type":"uint32"}],"name":"sendMessage","outputs":[],"stateMutability":"nonpayable","type":"function"},{"inputs":[{"internalType":"address","name":"_sender","type":"address"}],"name":"setSender","outputs":[],"stateMutability":"nonpayable","type":"function"},{"inputs":[],"name":"xDomainMessageSender","outputs":[{"internalType":"address","name":"","type":"address"}],"stateMutability":"view","type":"function"}],"evm":{"bytecode":{"linkReferences":{},"object":"608060405234801561001057600080fd5b50610e1a806100206000396000f3fe608060405234801561001057600080fd5b50600436106100625760003560e01c8063235ad685146100675780632651fb15146100975780633dbb202b146100c75780636e296e45146100e3578063bab55e3c14610101578063ced32b0c14610131575b600080fd5b610081600480360381019061007c9190610896565b61014d565b60405161008e91906108fa565b60405180910390f35b6100b160048036038101906100ac9190610a06565b610163565b6040516100be9190610b2e565b60405180910390f35b6100e160048036038101906100dc9190610bae565b61017f565b005b6100eb610184565b6040516100f89190610c2c565b60405180910390f35b61011b60048036038101906101169190610c47565b6101ad565b60405161012891906108fa565b60405180910390f35b61014b60048036038101906101469190610cb8565b6101cf565b005b600061015a848484610212565b90509392505050565b6060610173878787878787610697565b90509695505050505050565b505050565b60008060009054906101000a900473ffffffffffffffffffffffffffffffffffffffff16905090565b600080848051906020012090506101c5818585610212565b9150509392505050565b806000806101000a81548173ffffffffffffffffffffffffffffffffffffffff021916908373ffffffffffffffffffffffffffffffffffffffff16021790555050565b60008390508260006001841660051b905082815281518160200352604060002092506001801b84161560051b9050828160200352600160051b820151815260406000209250600160021b84161560051b9050828160200352600260051b820151815260406000209250600160031b84161560051b9050828160200352600360051b820151815260406000209250600160041b84161560051b9050828160200352600460051b820151815260406000209250600160051b84161560051b90508281602003526005801b820151815260406000209250600160061b84161560051b9050828160200352600660051b820151815260406000209250600160071b84161560051b9050828160200352600760051b820151815260406000209250600160081b84161560051b9050828160200352600860051b820151815260406000209250600160091b84161560051b9050828160200352600960051b8201518152604060002092506001600a1b84161560051b9050828160200352600a60051b8201518152604060002092506001600b1b84161560051b9050828160200352600b60051b8201518152604060002092506001600c1b84161560051b9050828160200352600c60051b8201518152604060002092506001600d1b84161560051b9050828160200352600d60051b8201518152604060002092506001600e1b84161560051b9050828160200352600e60051b8201518152604060002092506001600f1b84161560051b9050828160200352600f60051b820151815260406000209250600160101b84161560051b9050828160200352601060051b820151815260406000209250600160111b84161560051b9050828160200352601160051b820151815260406000209250600160121b84161560051b9050828160200352601260051b820151815260406000209250600160131b84161560051b9050828160200352601360051b820151815260406000209250600160141b84161560051b9050828160200352601460051b820151815260406000209250600160151b84161560051b9050828160200352601560051b820151815260406000209250600160161b84161560051b9050828160200352601660051b820151815260406000209250600160171b84161560051b9050828160200352601760051b820151815260406000209250600160181b84161560051b9050828160200352601860051b820151815260406000209250600160191b84161560051b9050828160200352601960051b8201518152604060002092506001601a1b84161560051b9050828160200352601a60051b8201518152604060002092506001601b1b84161560051b9050828160200352601b60051b8201518152604060002092506001601c1b84161560051b9050828160200352601c60051b8201518152604060002092506001601d1b84161560051b9050828160200352601d60051b8201518152604060002092506001601e1b84161560051b9050828160200352601e60051b8201518152604060002092506001601f1b84161560051b9050828160200352601f60051b82015181526040600020925050509392505050565b60608686868686866040516020016106b496959493929190610d78565b60405160208183030381529060405290509695505050505050565b6000604051905090565b600080fd5b600080fd5b6000819050919050565b6106f6816106e3565b811461070157600080fd5b50565b600081359050610713816106ed565b92915050565b600080fd5b6000601f19601f8301169050919050565b7f4e487b7100000000000000000000000000000000000000000000000000000000600052604160045260246000fd5b6107678261071e565b810181811067ffffffffffffffff821117156107865761078561072f565b5b80604052505050565b60006107996106cf565b90506107a5828261075e565b919050565b600067ffffffffffffffff8211156107c5576107c461072f565b5b602082029050919050565b600080fd5b60006107e86107e3846107aa565b61078f565b90508060208402830185811115610802576108016107d0565b5b835b8181101561082b57806108178882610704565b845260208401935050602081019050610804565b5050509392505050565b600082601f83011261084a57610849610719565b5b60206108578482856107d5565b91505092915050565b6000819050919050565b61087381610860565b811461087e57600080fd5b50565b6000813590506108908161086a565b92915050565b600080600061044084860312156108b0576108af6106d9565b5b60006108be86828701610704565b93505060206108cf86828701610835565b9250506104206108e186828701610881565b9150509250925092565b6108f4816106e3565b82525050565b600060208201905061090f60008301846108eb565b92915050565b600063ffffffff82169050919050565b61092e81610915565b811461093957600080fd5b50565b60008135905061094b81610925565b92915050565b600080fd5b600067ffffffffffffffff8211156109715761097061072f565b5b61097a8261071e565b9050602081019050919050565b82818337600083830152505050565b60006109a96109a484610956565b61078f565b9050828152602081018484840111156109c5576109c4610951565b5b6109d0848285610987565b509392505050565b600082601f8301126109ed576109ec610719565b5b81356109fd848260208601610996565b91505092915050565b60008060008060008060c08789031215610a2357610a226106d9565b5b6000610a3189828a0161093c565b9650506020610a4289828a01610704565b9550506040610a5389828a0161093c565b9450506060610a6489828a0161093c565b9350506080610a7589828a01610704565b92505060a087013567ffffffffffffffff811115610a9657610a956106de565b5b610aa289828a016109d8565b9150509295509295509295565b600081519050919050565b600082825260208201905092915050565b60005b83811015610ae9578082015181840152602081019050610ace565b60008484015250505050565b6000610b0082610aaf565b610b0a8185610aba565b9350610b1a818560208601610acb565b610b238161071e565b840191505092915050565b60006020820190508181036000830152610b488184610af5565b905092915050565b600073ffffffffffffffffffffffffffffffffffffffff82169050919050565b6000610b7b82610b50565b9050919050565b610b8b81610b70565b8114610b9657600080fd5b50565b600081359050610ba881610b82565b92915050565b600080600060608486031215610bc757610bc66106d9565b5b6000610bd586828701610b99565b935050602084013567ffffffffffffffff811115610bf657610bf56106de565b5b610c02868287016109d8565b9250506040610c138682870161093c565b9150509250925092565b610c2681610b70565b82525050565b6000602082019050610c416000830184610c1d565b92915050565b60008060006104408486031215610c6157610c606106d9565b5b600084013567ffffffffffffffff811115610c7f57610c7e6106de565b5b610c8b868287016109d8565b9350506020610c9c86828701610835565b925050610420610cae86828701610881565b9150509250925092565b600060208284031215610cce57610ccd6106d9565b5b6000610cdc84828501610b99565b91505092915050565b60008160e01b9050919050565b6000610cfd82610ce5565b9050919050565b610d15610d1082610915565b610cf2565b82525050565b6000819050919050565b610d36610d31826106e3565b610d1b565b82525050565b600081905092915050565b6000610d5282610aaf565b610d5c8185610d3c565b9350610d6c818560208601610acb565b80840191505092915050565b6000610d848289610d04565b600482019150610d948288610d25565b602082019150610da48287610d04565b600482019150610db48286610d04565b600482019150610dc48285610d25565b602082019150610dd48284610d47565b915081905097965050505050505056fea2646970667358221220becd4f8af957d925838d84309b296628266e1225d384eee270a267600e35999d64736f6c63430008110033","opcodes":"PUSH1 0x80 PUSH1 0x40 MSTORE CALLVALUE DUP1 ISZERO PUSH2 0x10 JUMPI PUSH1 0x0 DUP1 REVERT JUMPDEST POP PUSH2 0xE1A DUP1 PUSH2 0x20 PUSH1 0x0 CODECOPY PUSH1 0x0 RETURN INVALID PUSH1 0x80 PUSH1 0x40 MSTORE CALLVALUE DUP1 ISZERO PUSH2 0x10 JUMPI PUSH1 0x0 DUP1 REVERT JUMPDEST POP PUSH1 0x4 CALLDATASIZE LT PUSH2 0x62 JUMPI PUSH1 0x0 CALLDATALOAD PUSH1 0xE0 SHR DUP1 PUSH4 0x235AD685 EQ PUSH2 0x67 JUMPI DUP1 PUSH4 0x2651FB15 EQ PUSH2 0x97 JUMPI DUP1 PUSH4 0x3DBB202B EQ PUSH2 0xC7 JUMPI DUP1 PUSH4 0x6E296E45 EQ PUSH2 0xE3 JUMPI DUP1 PUSH4 0xBAB55E3C EQ PUSH2 0x101 JUMPI DUP1 PUSH4 0xCED32B0C EQ PUSH2 0x131 JUMPI JUMPDEST PUSH1 0x0 DUP1 REVERT JUMPDEST PUSH2 0x81 PUSH1 0x4 DUP1 CALLDATASIZE SUB DUP2 ADD SWAP1 PUSH2 0x7C SWAP2 SWAP1 PUSH2 0x896 JUMP JUMPDEST PUSH2 0x14D JUMP JUMPDEST PUSH1 0x40 MLOAD PUSH2 0x8E SWAP2 SWAP1 PUSH2 0x8FA JUMP JUMPDEST PUSH1 0x40 MLOAD DUP1 SWAP2 SUB SWAP1 RETURN JUMPDEST PUSH2 0xB1 PUSH1 0x4 DUP1 CALLDATASIZE SUB DUP2 ADD SWAP1 PUSH2 0xAC SWAP2 SWAP1 PUSH2 0xA06 JUMP JUMPDEST PUSH2 0x163 JUMP JUMPDEST PUSH1 0x40 MLOAD PUSH2 0xBE SWAP2 SWAP1 PUSH2 0xB2E JUMP JUMPDEST PUSH1 0x40 MLOAD DUP1 SWAP2 SUB SWAP1 RETURN JUMPDEST PUSH2 0xE1 PUSH1 0x4 DUP1 CALLDATASIZE SUB DUP2 ADD SWAP1 PUSH2 0xDC SWAP2 SWAP1 PUSH2 0xBAE JUMP JUMPDEST PUSH2 0x17F JUMP JUMPDEST STOP JUMPDEST PUSH2 0xEB PUSH2 0x184 JUMP JUMPDEST PUSH1 0x40 MLOAD PUSH2 0xF8 SWAP2 SWAP1 PUSH2 0xC2C JUMP JUMPDEST PUSH1 0x40 MLOAD DUP1 SWAP2 SUB SWAP1 RETURN JUMPDEST PUSH2 0x11B PUSH1 0x4 DUP1 CALLDATASIZE SUB DUP2 ADD SWAP1 PUSH2 0x116 SWAP2 SWAP1 PUSH2 0xC47 JUMP JUMPDEST PUSH2 0x1AD JUMP JUMPDEST PUSH1 0x40 MLOAD PUSH2 0x128 SWAP2 SWAP1 PUSH2 0x8FA JUMP JUMPDEST PUSH1 0x40 MLOAD DUP1 SWAP2 SUB SWAP1 RETURN JUMPDEST PUSH2 0x14B PUSH1 0x4 DUP1 CALLDATASIZE SUB DUP2 ADD SWAP1 PUSH2 0x146 SWAP2 SWAP1 PUSH2 0xCB8 JUMP JUMPDEST PUSH2 0x1CF JUMP JUMPDEST STOP JUMPDEST PUSH1 0x0 PUSH2 0x15A DUP5 DUP5 DUP5 PUSH2 0x212 JUMP JUMPDEST SWAP1 POP SWAP4 SWAP3 POP POP POP JUMP JUMPDEST PUSH1 0x60 PUSH2 0x173 DUP8 DUP8 DUP8 DUP8 DUP8 DUP8 PUSH2 0x697 JUMP JUMPDEST SWAP1 POP SWAP7 SWAP6 POP POP POP POP POP POP JUMP JUMPDEST POP POP POP JUMP JUMPDEST PUSH1 0x0 DUP1 PUSH1 0x0 SWAP1 SLOAD SWAP1 PUSH2 0x100 EXP SWAP1 DIV PUSH20 0xFFFFFFFFFFFFFFFFFFFFFFFFFFFFFFFFFFFFFFFF AND SWAP1 POP SWAP1 JUMP JUMPDEST PUSH1 0x0 DUP1 DUP5 DUP1 MLOAD SWAP1 PUSH1 0x20 ADD KECCAK256 SWAP1 POP PUSH2 0x1C5 DUP2 DUP6 DUP6 PUSH2 0x212 JUMP JUMPDEST SWAP2 POP POP SWAP4 SWAP3 POP POP POP JUMP JUMPDEST DUP1 PUSH1 0x0 DUP1 PUSH2 0x100 EXP DUP2 SLOAD DUP2 PUSH20 0xFFFFFFFFFFFFFFFFFFFFFFFFFFFFFFFFFFFFFFFF MUL NOT AND SWAP1 DUP4 PUSH20 0xFFFFFFFFFFFFFFFFFFFFFFFFFFFFFFFFFFFFFFFF AND MUL OR SWAP1 SSTORE POP POP JUMP JUMPDEST PUSH1 0x0 DUP4 SWAP1 POP DUP3 PUSH1 0x0 PUSH1 0x1 DUP5 AND PUSH1 0x5 SHL SWAP1 POP DUP3 DUP2 MSTORE DUP2 MLOAD DUP2 PUSH1 0x20 SUB MSTORE PUSH1 0x40 PUSH1 0x0 KECCAK256 SWAP3 POP PUSH1 0x1 DUP1 SHL DUP5 AND ISZERO PUSH1 0x5 SHL SWAP1 POP DUP3 DUP2 PUSH1 0x20 SUB MSTORE PUSH1 0x1 PUSH1 0x5 SHL DUP3 ADD MLOAD DUP2 MSTORE PUSH1 0x40 PUSH1 0x0 KECCAK256 SWAP3 POP PUSH1 0x1 PUSH1 0x2 SHL DUP5 AND ISZERO PUSH1 0x5 SHL SWAP1 POP DUP3 DUP2 PUSH1 0x20 SUB MSTORE PUSH1 0x2 PUSH1 0x5 SHL DUP3 ADD MLOAD DUP2 MSTORE PUSH1 0x40 PUSH1 0x0 KECCAK256 SWAP3 POP PUSH1 0x1 PUSH1 0x3 SHL DUP5 AND ISZERO PUSH1 0x5 SHL SWAP1 POP DUP3 DUP2 PUSH1 0x20 SUB MSTORE PUSH1 0x3 PUSH1 0x5 SHL DUP3 ADD MLOAD DUP2 MSTORE PUSH1 0x40 PUSH1 0x0 KECCAK256 SWAP3 POP PUSH1 0x1 PUSH1 0x4 SHL DUP5 AND ISZERO PUSH1 0x5 SHL SWAP1 POP DUP3 DUP2 PUSH1 0x20 SUB MSTORE PUSH1 0x4 PUSH1 0x5 SHL DUP3 ADD MLOAD DUP2 MSTORE PUSH1 0x40 PUSH1 0x0 KECCAK256 SWAP3 POP PUSH1 0x1 PUSH1 0x5 SHL DUP5 AND ISZERO PUSH1 0x5 SHL SWAP1 POP DUP3 DUP2 PUSH1 0x20 SUB MSTORE PUSH1 0x5 DUP1 SHL DUP3 ADD MLOAD DUP2 MSTORE PUSH1 0x40 PUSH1 0x0 KECCAK256 SWAP3 POP PUSH1 0x1 PUSH1 0x6 SHL DUP5 AND ISZERO PUSH1 0x5 SHL SWAP1 POP DUP3 DUP2 PUSH1 0x20 SUB MSTORE PUSH1 0x6 PUSH1 0x5 SHL DUP3 ADD MLOAD DUP2 MSTORE PUSH1 0x40 PUSH1 0x0 KECCAK256 SWAP3 POP PUSH1 0x1 PUSH1 0x7 SHL DUP5 AND ISZERO PUSH1 0x5 SHL SWAP1 POP DUP3 DUP2 PUSH1 0x20 SUB MSTORE PUSH1 0x7 PUSH1 0x5 SHL DUP3 ADD MLOAD DUP2 MSTORE PUSH1 0x40 PUSH1 0x0 KECCAK256 SWAP3 POP PUSH1 0x1 PUSH1 0x8 SHL DUP5 AND ISZERO PUSH1 0x5 SHL SWAP1 POP DUP3 DUP2 PUSH1 0x20 SUB MSTORE PUSH1 0x8 PUSH1 0x5 SHL DUP3 ADD MLOAD DUP2 MSTORE PUSH1 0x40 PUSH1 0x0 KECCAK256 SWAP3 POP PUSH1 0x1 PUSH1 0x9 SHL DUP5 AND ISZERO PUSH1 0x5 SHL SWAP1 POP DUP3 DUP2 PUSH1 0x20 SUB MSTORE PUSH1 0x9 PUSH1 0x5 SHL DUP3 ADD MLOAD DUP2 MSTORE PUSH1 0x40 PUSH1 0x0 KECCAK256 SWAP3 POP PUSH1 0x1 PUSH1 0xA SHL DUP5 AND ISZERO PUSH1 0x5 SHL SWAP1 POP DUP3 DUP2 PUSH1 0x20 SUB MSTORE PUSH1 0xA PUSH1 0x5 SHL DUP3 ADD MLOAD DUP2 MSTORE PUSH1 0x40 PUSH1 0x0 KECCAK256 SWAP3 POP PUSH1 0x1 PUSH1 0xB SHL DUP5 AND ISZERO PUSH1 0x5 SHL SWAP1 POP DUP3 DUP2 PUSH1 0x20 SUB MSTORE PUSH1 0xB PUSH1 0x5 SHL DUP3 ADD MLOAD DUP2 MSTORE PUSH1 0x40 PUSH1 0x0 KECCAK256 SWAP3 POP PUSH1 0x1 PUSH1 0xC SHL DUP5 AND ISZERO PUSH1 0x5 SHL SWAP1 POP DUP3 DUP2 PUSH1 0x20 SUB MSTORE PUSH1 0xC PUSH1 0x5 SHL DUP3 ADD MLOAD DUP2 MSTORE PUSH1 0x40 PUSH1 0x0 KECCAK256 SWAP3 POP PUSH1 0x1 PUSH1 0xD SHL DUP5 AND ISZERO PUSH1 0x5 SHL SWAP1 POP DUP3 DUP2 PUSH1 0x20 SUB MSTORE PUSH1 0xD PUSH1 0x5 SHL DUP3 ADD MLOAD DUP2 MSTORE PUSH1 0x40 PUSH1 0x0 KECCAK256 SWAP3 POP PUSH1 0x1 PUSH1 0xE SHL DUP5 AND ISZERO PUSH1 0x5 SHL SWAP1 POP DUP3 DUP2 PUSH1 0x20 SUB MSTORE PUSH1 0xE PUSH1 0x5 SHL DUP3 ADD MLOAD DUP2 MSTORE PUSH1 0x40 PUSH1 0x0 KECCAK256 SWAP3 POP PUSH1 0x1 PUSH1 0xF SHL DUP5 AND ISZERO PUSH1 0x5 SHL SWAP1 POP DUP3 DUP2 PUSH1 0x20 SUB MSTORE PUSH1 0xF PUSH1 0x5 SHL DUP3 ADD MLOAD DUP2 MSTORE PUSH1 0x40 PUSH1 0x0 KECCAK256 SWAP3 POP PUSH1 0x1 PUSH1 0x10 SHL DUP5 AND ISZERO PUSH1 0x5 SHL SWAP1 POP DUP3 DUP2 PUSH1 0x20 SUB MSTORE PUSH1 0x10 PUSH1 0x5 SHL DUP3 ADD MLOAD DUP2 MSTORE PUSH1 0x40 PUSH1 0x0 KECCAK256 SWAP3 POP PUSH1 0x1 PUSH1 0x11 SHL DUP5 AND ISZERO PUSH1 0x5 SHL SWAP1 POP DUP3 DUP2 PUSH1 0x20 SUB MSTORE PUSH1 0x11 PUSH1 0x5 SHL DUP3 ADD MLOAD DUP2 MSTORE PUSH1 0x40 PUSH1 0x0 KECCAK256 SWAP3 POP PUSH1 0x1 PUSH1 0x12 SHL DUP5 AND ISZERO PUSH1 0x5 SHL SWAP1 POP DUP3 DUP2 PUSH1 0x20 SUB MSTORE PUSH1 0x12 PUSH1 0x5 SHL DUP3 ADD MLOAD DUP2 MSTORE PUSH1 0x40 PUSH1 0x0 KECCAK256 SWAP3 POP PUSH1 0x1 PUSH1 0x13 SHL DUP5 AND ISZERO PUSH1 0x5 SHL SWAP1 POP DUP3 DUP2 PUSH1 0x20 SUB MSTORE PUSH1 0x13 PUSH1 0x5 SHL DUP3 ADD MLOAD DUP2 MSTORE PUSH1 0x40 PUSH1 0x0 KECCAK256 SWAP3 POP PUSH1 0x1 PUSH1 0x14 SHL DUP5 AND ISZERO PUSH1 0x5 SHL SWAP1 POP DUP3 DUP2 PUSH1 0x20 SUB MSTORE PUSH1 0x14 PUSH1 0x5 SHL DUP3 ADD MLOAD DUP2 MSTORE PUSH1 0x40 PUSH1 0x0 KECCAK256 SWAP3 POP PUSH1 0x1 PUSH1 0x15 SHL DUP5 AND ISZERO PUSH1 0x5 SHL SWAP1 POP DUP3 DUP2 PUSH1 0x20 SUB MSTORE PUSH1 0x15 PUSH1 0x5 SHL DUP3 ADD MLOAD DUP2 MSTORE PUSH1 0x40 PUSH1 0x0 KECCAK256 SWAP3 POP PUSH1 0x1 PUSH1 0x16 SHL DUP5 AND ISZERO PUSH1 0x5 SHL SWAP1 POP DUP3 DUP2 PUSH1 0x20 SUB MSTORE PUSH1 0x16 PUSH1 0x5 SHL DUP3 ADD MLOAD DUP2 MSTORE PUSH1 0x40 PUSH1 0x0 KECCAK256 SWAP3 POP PUSH1 0x1 PUSH1 0x17 SHL DUP5 AND ISZERO PUSH1 0x5 SHL SWAP1 POP DUP3 DUP2 PUSH1 0x20 SUB MSTORE PUSH1 0x17 PUSH1 0x5 SHL DUP3 ADD MLOAD DUP2 MSTORE PUSH1 0x40 PUSH1 0x0 KECCAK256 SWAP3 POP PUSH1 0x1 PUSH1 0x18 SHL DUP5 AND ISZERO PUSH1 0x5 SHL SWAP1 POP DUP3 DUP2 PUSH1 0x20 SUB MSTORE PUSH1 0x18 PUSH1 0x5 SHL DUP3 ADD MLOAD DUP2 MSTORE PUSH1 0x40 PUSH1 0x0 KECCAK256 SWAP3 POP PUSH1 0x1 PUSH1 0x19 SHL DUP5 AND ISZERO PUSH1 0x5 SHL SWAP1 POP DUP3 DUP2 PUSH1 0x20 SUB MSTORE PUSH1 0x19 PUSH1 0x5 SHL DUP3 ADD MLOAD DUP2 MSTORE PUSH1 0x40 PUSH1 0x0 KECCAK256 SWAP3 POP PUSH1 0x1 PUSH1 0x1A SHL DUP5 AND ISZERO PUSH1 0x5 SHL SWAP1 POP DUP3 DUP2 PUSH1 0x20 SUB MSTORE PUSH1 0x1A PUSH1 0x5 SHL DUP3 ADD MLOAD DUP2 MSTORE PUSH1 0x40 PUSH1 0x0 KECCAK256 SWAP3 POP PUSH1 0x1 PUSH1 0x1B SHL DUP5 AND ISZERO PUSH1 0x5 SHL SWAP1 POP DUP3 DUP2 PUSH1 0x20 SUB MSTORE PUSH1 0x1B PUSH1 0x5 SHL DUP3 ADD MLOAD DUP2 MSTORE PUSH1 0x40 PUSH1 0x0 KECCAK256 SWAP3 POP PUSH1 0x1 PUSH1 0x1C SHL DUP5 AND ISZERO PUSH1 0x5 SHL SWAP1 POP DUP3 DUP2 PUSH1 0x20 SUB MSTORE PUSH1 0x1C PUSH1 0x5 SHL DUP3 ADD MLOAD DUP2 MSTORE PUSH1 0x40 PUSH1 0x0 KECCAK256 SWAP3 POP PUSH1 0x1 PUSH1 0x1D SHL DUP5 AND ISZERO PUSH1 0x5 SHL SWAP1 POP DUP3 DUP2 PUSH1 0x20 SUB MSTORE PUSH1 0x1D PUSH1 0x5 SHL DUP3 ADD MLOAD DUP2 MSTORE PUSH1 0x40 PUSH1 0x0 KECCAK256 SWAP3 POP PUSH1 0x1 PUSH1 0x1E SHL DUP5 AND ISZERO PUSH1 0x5 SHL SWAP1 POP DUP3 DUP2 PUSH1 0x20 SUB MSTORE PUSH1 0x1E PUSH1 0x5 SHL DUP3 ADD MLOAD DUP2 MSTORE PUSH1 0x40 PUSH1 0x0 KECCAK256 SWAP3 POP PUSH1 0x1 PUSH1 0x1F SHL DUP5 AND ISZERO PUSH1 0x5 SHL SWAP1 POP DUP3 DUP2 PUSH1 0x20 SUB MSTORE PUSH1 0x1F PUSH1 0x5 SHL DUP3 ADD MLOAD DUP2 MSTORE PUSH1 0x40 PUSH1 0x0 KECCAK256 SWAP3 POP POP POP SWAP4 SWAP3 POP POP POP JUMP JUMPDEST PUSH1 0x60 DUP7 DUP7 DUP7 DUP7 DUP7 DUP7 PUSH1 0x40 MLOAD PUSH1 0x20 ADD PUSH2 0x6B4 SWAP7 SWAP6 SWAP5 SWAP4 SWAP3 SWAP2 SWAP1 PUSH2 0xD78 JUMP JUMPDEST PUSH1 0x40 MLOAD PUSH1 0x20 DUP2 DUP4 SUB SUB DUP2 MSTORE SWAP1 PUSH1 0x40 MSTORE SWAP1 POP SWAP7 SWAP6 POP POP POP POP POP POP JUMP JUMPDEST PUSH1 0x0 PUSH1 0x40 MLOAD SWAP1 POP SWAP1 JUMP JUMPDEST PUSH1 0x0 DUP1 REVERT JUMPDEST PUSH1 0x0 DUP1 REVERT JUMPDEST PUSH1 0x0 DUP2 SWAP1 POP SWAP2 SWAP1 POP JUMP JUMPDEST PUSH2 0x6F6 DUP2 PUSH2 0x6E3 JUMP JUMPDEST DUP2 EQ PUSH2 0x701 JUMPI PUSH1 0x0 DUP1 REVERT JUMPDEST POP JUMP JUMPDEST PUSH1 0x0 DUP2 CALLDATALOAD SWAP1 POP PUSH2 0x713 DUP2 PUSH2 0x6ED JUMP JUMPDEST SWAP3 SWAP2 POP POP JUMP JUMPDEST PUSH1 0x0 DUP1 REVERT JUMPDEST PUSH1 0x0 PUSH1 0x1F NOT PUSH1 0x1F DUP4 ADD AND SWAP1 POP SWAP2 SWAP1 POP JUMP JUMPDEST PUSH32 0x4E487B7100000000000000000000000000000000000000000000000000000000 PUSH1 0x0 MSTORE PUSH1 0x41 PUSH1 0x4 MSTORE PUSH1 0x24 PUSH1 0x0 REVERT JUMPDEST PUSH2 0x767 DUP3 PUSH2 0x71E JUMP JUMPDEST DUP2 ADD DUP2 DUP2 LT PUSH8 0xFFFFFFFFFFFFFFFF DUP3 GT OR ISZERO PUSH2 0x786 JUMPI PUSH2 0x785 PUSH2 0x72F JUMP JUMPDEST JUMPDEST DUP1 PUSH1 0x40 MSTORE POP POP POP JUMP JUMPDEST PUSH1 0x0 PUSH2 0x799 PUSH2 0x6CF JUMP JUMPDEST SWAP1 POP PUSH2 0x7A5 DUP3 DUP3 PUSH2 0x75E JUMP JUMPDEST SWAP2 SWAP1 POP JUMP JUMPDEST PUSH1 0x0 PUSH8 0xFFFFFFFFFFFFFFFF DUP3 GT ISZERO PUSH2 0x7C5 JUMPI PUSH2 0x7C4 PUSH2 0x72F JUMP JUMPDEST JUMPDEST PUSH1 0x20 DUP3 MUL SWAP1 POP SWAP2 SWAP1 POP JUMP JUMPDEST PUSH1 0x0 DUP1 REVERT JUMPDEST PUSH1 0x0 PUSH2 0x7E8 PUSH2 0x7E3 DUP5 PUSH2 0x7AA JUMP JUMPDEST PUSH2 0x78F JUMP JUMPDEST SWAP1 POP DUP1 PUSH1 0x20 DUP5 MUL DUP4 ADD DUP6 DUP2 GT ISZERO PUSH2 0x802 JUMPI PUSH2 0x801 PUSH2 0x7D0 JUMP JUMPDEST JUMPDEST DUP4 JUMPDEST DUP2 DUP2 LT ISZERO PUSH2 0x82B JUMPI DUP1 PUSH2 0x817 DUP9 DUP3 PUSH2 0x704 JUMP JUMPDEST DUP5 MSTORE PUSH1 0x20 DUP5 ADD SWAP4 POP POP PUSH1 0x20 DUP2 ADD SWAP1 POP PUSH2 0x804 JUMP JUMPDEST POP POP POP SWAP4 SWAP3 POP POP POP JUMP JUMPDEST PUSH1 0x0 DUP3 PUSH1 0x1F DUP4 ADD SLT PUSH2 0x84A JUMPI PUSH2 0x849 PUSH2 0x719 JUMP JUMPDEST JUMPDEST PUSH1 0x20 PUSH2 0x857 DUP5 DUP3 DUP6 PUSH2 0x7D5 JUMP JUMPDEST SWAP2 POP POP SWAP3 SWAP2 POP POP JUMP JUMPDEST PUSH1 0x0 DUP2 SWAP1 POP SWAP2 SWAP1 POP JUMP JUMPDEST PUSH2 0x873 DUP2 PUSH2 0x860 JUMP JUMPDEST DUP2 EQ PUSH2 0x87E JUMPI PUSH1 0x0 DUP1 REVERT JUMPDEST POP JUMP JUMPDEST PUSH1 0x0 DUP2 CALLDATALOAD SWAP1 POP PUSH2 0x890 DUP2 PUSH2 0x86A JUMP JUMPDEST SWAP3 SWAP2 POP POP JUMP JUMPDEST PUSH1 0x0 DUP1 PUSH1 0x0 PUSH2 0x440 DUP5 DUP7 SUB SLT ISZERO PUSH2 0x8B0 JUMPI PUSH2 0x8AF PUSH2 0x6D9 JUMP JUMPDEST JUMPDEST PUSH1 0x0 PUSH2 0x8BE DUP7 DUP3 DUP8 ADD PUSH2 0x704 JUMP JUMPDEST SWAP4 POP POP PUSH1 0x20 PUSH2 0x8CF DUP7 DUP3 DUP8 ADD PUSH2 0x835 JUMP JUMPDEST SWAP3 POP POP PUSH2 0x420 PUSH2 0x8E1 DUP7 DUP3 DUP8 ADD PUSH2 0x881 JUMP JUMPDEST SWAP2 POP POP SWAP3 POP SWAP3 POP SWAP3 JUMP JUMPDEST PUSH2 0x8F4 DUP2 PUSH2 0x6E3 JUMP JUMPDEST DUP3 MSTORE POP POP JUMP JUMPDEST PUSH1 0x0 PUSH1 0x20 DUP3 ADD SWAP1 POP PUSH2 0x90F PUSH1 0x0 DUP4 ADD DUP5 PUSH2 0x8EB JUMP JUMPDEST SWAP3 SWAP2 POP POP JUMP JUMPDEST PUSH1 0x0 PUSH4 0xFFFFFFFF DUP3 AND SWAP1 POP SWAP2 SWAP1 POP JUMP JUMPDEST PUSH2 0x92E DUP2 PUSH2 0x915 JUMP JUMPDEST DUP2 EQ PUSH2 0x939 JUMPI PUSH1 0x0 DUP1 REVERT JUMPDEST POP JUMP JUMPDEST PUSH1 0x0 DUP2 CALLDATALOAD SWAP1 POP PUSH2 0x94B DUP2 PUSH2 0x925 JUMP JUMPDEST SWAP3 SWAP2 POP POP JUMP JUMPDEST PUSH1 0x0 DUP1 REVERT JUMPDEST PUSH1 0x0 PUSH8 0xFFFFFFFFFFFFFFFF DUP3 GT ISZERO PUSH2 0x971 JUMPI PUSH2 0x970 PUSH2 0x72F JUMP JUMPDEST JUMPDEST PUSH2 0x97A DUP3 PUSH2 0x71E JUMP JUMPDEST SWAP1 POP PUSH1 0x20 DUP2 ADD SWAP1 POP SWAP2 SWAP1 POP JUMP JUMPDEST DUP3 DUP2 DUP4 CALLDATACOPY PUSH1 0x0 DUP4 DUP4 ADD MSTORE POP POP POP JUMP JUMPDEST PUSH1 0x0 PUSH2 0x9A9 PUSH2 0x9A4 DUP5 PUSH2 0x956 JUMP JUMPDEST PUSH2 0x78F JUMP JUMPDEST SWAP1 POP DUP3 DUP2 MSTORE PUSH1 0x20 DUP2 ADD DUP5 DUP5 DUP5 ADD GT ISZERO PUSH2 0x9C5 JUMPI PUSH2 0x9C4 PUSH2 0x951 JUMP JUMPDEST JUMPDEST PUSH2 0x9D0 DUP5 DUP3 DUP6 PUSH2 0x987 JUMP JUMPDEST POP SWAP4 SWAP3 POP POP POP JUMP JUMPDEST PUSH1 0x0 DUP3 PUSH1 0x1F DUP4 ADD SLT PUSH2 0x9ED JUMPI PUSH2 0x9EC PUSH2 0x719 JUMP JUMPDEST JUMPDEST DUP2 CALLDATALOAD PUSH2 0x9FD DUP5 DUP3 PUSH1 0x20 DUP7 ADD PUSH2 0x996 JUMP JUMPDEST SWAP2 POP POP SWAP3 SWAP2 POP POP JUMP JUMPDEST PUSH1 0x0 DUP1 PUSH1 0x0 DUP1 PUSH1 0x0 DUP1 PUSH1 0xC0 DUP8 DUP10 SUB SLT ISZERO PUSH2 0xA23 JUMPI PUSH2 0xA22 PUSH2 0x6D9 JUMP JUMPDEST JUMPDEST PUSH1 0x0 PUSH2 0xA31 DUP10 DUP3 DUP11 ADD PUSH2 0x93C JUMP JUMPDEST SWAP7 POP POP PUSH1 0x20 PUSH2 0xA42 DUP10 DUP3 DUP11 ADD PUSH2 0x704 JUMP JUMPDEST SWAP6 POP POP PUSH1 0x40 PUSH2 0xA53 DUP10 DUP3 DUP11 ADD PUSH2 0x93C JUMP JUMPDEST SWAP5 POP POP PUSH1 0x60 PUSH2 0xA64 DUP10 DUP3 DUP11 ADD PUSH2 0x93C JUMP JUMPDEST SWAP4 POP POP PUSH1 0x80 PUSH2 0xA75 DUP10 DUP3 DUP11 ADD PUSH2 0x704 JUMP JUMPDEST SWAP3 POP POP PUSH1 0xA0 DUP8 ADD CALLDATALOAD PUSH8 0xFFFFFFFFFFFFFFFF DUP2 GT ISZERO PUSH2 0xA96 JUMPI PUSH2 0xA95 PUSH2 0x6DE JUMP JUMPDEST JUMPDEST PUSH2 0xAA2 DUP10 DUP3 DUP11 ADD PUSH2 0x9D8 JUMP JUMPDEST SWAP2 POP POP SWAP3 SWAP6 POP SWAP3 SWAP6 POP SWAP3 SWAP6 JUMP JUMPDEST PUSH1 0x0 DUP2 MLOAD SWAP1 POP SWAP2 SWAP1 POP JUMP JUMPDEST PUSH1 0x0 DUP3 DUP3 MSTORE PUSH1 0x20 DUP3 ADD SWAP1 POP SWAP3 SWAP2 POP POP JUMP JUMPDEST PUSH1 0x0 JUMPDEST DUP4 DUP2 LT ISZERO PUSH2 0xAE9 JUMPI DUP1 DUP3 ADD MLOAD DUP2 DUP5 ADD MSTORE PUSH1 0x20 DUP2 ADD SWAP1 POP PUSH2 0xACE JUMP JUMPDEST PUSH1 0x0 DUP5 DUP5 ADD MSTORE POP POP POP POP JUMP JUMPDEST PUSH1 0x0 PUSH2 0xB00 DUP3 PUSH2 0xAAF JUMP JUMPDEST PUSH2 0xB0A DUP2 DUP6 PUSH2 0xABA JUMP JUMPDEST SWAP4 POP PUSH2 0xB1A DUP2 DUP6 PUSH1 0x20 DUP7 ADD PUSH2 0xACB JUMP JUMPDEST PUSH2 0xB23 DUP2 PUSH2 0x71E JUMP JUMPDEST DUP5 ADD SWAP2 POP POP SWAP3 SWAP2 POP POP JUMP JUMPDEST PUSH1 0x0 PUSH1 0x20 DUP3 ADD SWAP1 POP DUP2 DUP2 SUB PUSH1 0x0 DUP4 ADD MSTORE PUSH2 0xB48 DUP2 DUP5 PUSH2 0xAF5 JUMP JUMPDEST SWAP1 POP SWAP3 SWAP2 POP POP JUMP JUMPDEST PUSH1 0x0 PUSH20 0xFFFFFFFFFFFFFFFFFFFFFFFFFFFFFFFFFFFFFFFF DUP3 AND SWAP1 POP SWAP2 SWAP1 POP JUMP JUMPDEST PUSH1 0x0 PUSH2 0xB7B DUP3 PUSH2 0xB50 JUMP JUMPDEST SWAP1 POP SWAP2 SWAP1 POP JUMP JUMPDEST PUSH2 0xB8B DUP2 PUSH2 0xB70 JUMP JUMPDEST DUP2 EQ PUSH2 0xB96 JUMPI PUSH1 0x0 DUP1 REVERT JUMPDEST POP JUMP JUMPDEST PUSH1 0x0 DUP2 CALLDATALOAD SWAP1 POP PUSH2 0xBA8 DUP2 PUSH2 0xB82 JUMP JUMPDEST SWAP3 SWAP2 POP POP JUMP JUMPDEST PUSH1 0x0 DUP1 PUSH1 0x0 PUSH1 0x60 DUP5 DUP7 SUB SLT ISZERO PUSH2 0xBC7 JUMPI PUSH2 0xBC6 PUSH2 0x6D9 JUMP JUMPDEST JUMPDEST PUSH1 0x0 PUSH2 0xBD5 DUP7 DUP3 DUP8 ADD PUSH2 0xB99 JUMP JUMPDEST SWAP4 POP POP PUSH1 0x20 DUP5 ADD CALLDATALOAD PUSH8 0xFFFFFFFFFFFFFFFF DUP2 GT ISZERO PUSH2 0xBF6 JUMPI PUSH2 0xBF5 PUSH2 0x6DE JUMP JUMPDEST JUMPDEST PUSH2 0xC02 DUP7 DUP3 DUP8 ADD PUSH2 0x9D8 JUMP JUMPDEST SWAP3 POP POP PUSH1 0x40 PUSH2 0xC13 DUP7 DUP3 DUP8 ADD PUSH2 0x93C JUMP JUMPDEST SWAP2 POP POP SWAP3 POP SWAP3 POP SWAP3 JUMP JUMPDEST PUSH2 0xC26 DUP2 PUSH2 0xB70 JUMP JUMPDEST DUP3 MSTORE POP POP JUMP JUMPDEST PUSH1 0x0 PUSH1 0x20 DUP3 ADD SWAP1 POP PUSH2 0xC41 PUSH1 0x0 DUP4 ADD DUP5 PUSH2 0xC1D JUMP JUMPDEST SWAP3 SWAP2 POP POP JUMP JUMPDEST PUSH1 0x0 DUP1 PUSH1 0x0 PUSH2 0x440 DUP5 DUP7 SUB SLT ISZERO PUSH2 0xC61 JUMPI PUSH2 0xC60 PUSH2 0x6D9 JUMP JUMPDEST JUMPDEST PUSH1 0x0 DUP5 ADD CALLDATALOAD PUSH8 0xFFFFFFFFFFFFFFFF DUP2 GT ISZERO PUSH2 0xC7F JUMPI PUSH2 0xC7E PUSH2 0x6DE JUMP JUMPDEST JUMPDEST PUSH2 0xC8B DUP7 DUP3 DUP8 ADD PUSH2 0x9D8 JUMP JUMPDEST SWAP4 POP POP PUSH1 0x20 PUSH2 0xC9C DUP7 DUP3 DUP8 ADD PUSH2 0x835 JUMP JUMPDEST SWAP3 POP POP PUSH2 0x420 PUSH2 0xCAE DUP7 DUP3 DUP8 ADD PUSH2 0x881 JUMP JUMPDEST SWAP2 POP POP SWAP3 POP SWAP3 POP SWAP3 JUMP JUMPDEST PUSH1 0x0 PUSH1 0x20 DUP3 DUP5 SUB SLT ISZERO PUSH2 0xCCE JUMPI PUSH2 0xCCD PUSH2 0x6D9 JUMP JUMPDEST JUMPDEST PUSH1 0x0 PUSH2 0xCDC DUP5 DUP3 DUP6 ADD PUSH2 0xB99 JUMP JUMPDEST SWAP2 POP POP SWAP3 SWAP2 POP POP JUMP JUMPDEST PUSH1 0x0 DUP2 PUSH1 0xE0 SHL SWAP1 POP SWAP2 SWAP1 POP JUMP JUMPDEST PUSH1 0x0 PUSH2 0xCFD DUP3 PUSH2 0xCE5 JUMP JUMPDEST SWAP1 POP SWAP2 SWAP1 POP JUMP JUMPDEST PUSH2 0xD15 PUSH2 0xD10 DUP3 PUSH2 0x915 JUMP JUMPDEST PUSH2 0xCF2 JUMP JUMPDEST DUP3 MSTORE POP POP JUMP JUMPDEST PUSH1 0x0 DUP2 SWAP1 POP SWAP2 SWAP1 POP JUMP JUMPDEST PUSH2 0xD36 PUSH2 0xD31 DUP3 PUSH2 0x6E3 JUMP JUMPDEST PUSH2 0xD1B JUMP JUMPDEST DUP3 MSTORE POP POP JUMP JUMPDEST PUSH1 0x0 DUP2 SWAP1 POP SWAP3 SWAP2 POP POP JUMP JUMPDEST PUSH1 0x0 PUSH2 0xD52 DUP3 PUSH2 0xAAF JUMP JUMPDEST PUSH2 0xD5C DUP2 DUP6 PUSH2 0xD3C JUMP JUMPDEST SWAP4 POP PUSH2 0xD6C DUP2 DUP6 PUSH1 0x20 DUP7 ADD PUSH2 0xACB JUMP JUMPDEST DUP1 DUP5 ADD SWAP2 POP POP SWAP3 SWAP2 POP POP JUMP JUMPDEST PUSH1 0x0 PUSH2 0xD84 DUP3 DUP10 PUSH2 0xD04 JUMP JUMPDEST PUSH1 0x4 DUP3 ADD SWAP2 POP PUSH2 0xD94 DUP3 DUP9 PUSH2 0xD25 JUMP JUMPDEST PUSH1 0x20 DUP3 ADD SWAP2 POP PUSH2 0xDA4 DUP3 DUP8 PUSH2 0xD04 JUMP JUMPDEST PUSH1 0x4 DUP3 ADD SWAP2 POP PUSH2 0xDB4 DUP3 DUP7 PUSH2 0xD04 JUMP JUMPDEST PUSH1 0x4 DUP3 ADD SWAP2 POP PUSH2 0xDC4 DUP3 DUP6 PUSH2 0xD25 JUMP JUMPDEST PUSH1 0x20 DUP3 ADD SWAP2 POP PUSH2 0xDD4 DUP3 DUP5 PUSH2 0xD47 JUMP JUMPDEST SWAP2 POP DUP2 SWAP1 POP SWAP8 SWAP7 POP POP POP POP POP POP POP JUMP INVALID LOG2 PUSH5 0x6970667358 0x22 SLT KECCAK256 0xBE 0xCD 0x4F DUP11 0xF9 JUMPI 0xD9 0x25 DUP4 DUP14 DUP5 ADDRESS SWAP12 0x29 PUSH7 0x28266E1225D384 0xEE 0xE2 PUSH17 0xA267600E35999D64736F6C634300081100 CALLER "},"methodIdentifiers":{"calculateMessageRoot(bytes,bytes32[32],uint256)":"bab55e3c","calculateRoot(bytes32,bytes32[32],uint256)":"235ad685","formatMessage(uint32,bytes32,uint32,uint32,bytes32,bytes)":"2651fb15","sendMessage(address,bytes,uint32)":"3dbb202b","setSender(address)":"ced32b0c","xDomainMessageSender()":"6e296e45"}}}}}