{"contracts/shared/libraries/TypedMemView.sol":{"TypedMemView":{"abi":[{"inputs":[{"internalType":"uint256","name":"actual","type":"uint256"},{"internalType":"uint256","name":"expected","type":"uint256"}],"name":"TypedMemView__assertType_typeAssertionFailed","type":"error"},{"inputs":[],"name":"TypedMemView__assertValid_validityAssertionFailed","type":"error"},{"inputs":[],"name":"TypedMemView__index_indexMoreThan32Bytes","type":"error"},{"inputs":[{"internalType":"uint256","name":"loc","type":"uint256"},{"internalType":"uint256","name":"len","type":"uint256"},{"internalType":"uint256","name":"index","type":"uint256"},{"internalType":"uint256","name":"slice","type":"uint256"}],"name":"TypedMemView__index_overrun","type":"error"},{"inputs":[],"name":"TypedMemView__unsafeCopyTo_identityOOG","type":"error"},{"inputs":[],"name":"TypedMemView__unsafeCopyTo_invalidPointer","type":"error"},{"inputs":[],"name":"TypedMemView__unsafeCopyTo_nullPointer","type":"error"},{"inputs":[],"name":"NULL","outputs":[{"internalType":"bytes29","name":"","type":"bytes29"}],"stateMutability":"view","type":"function"}],"evm":{"bytecode":{"linkReferences":{},"object":"60fe610052600b82828239805160001a607314610045577f4e487b7100000000000000000000000000000000000000000000000000000000600052600060045260246000fd5b30600052607381538281f3fe730000000000000000000000000000000000000000301460806040526004361060335760003560e01c8063f26be3fc146038575b600080fd5b603e6052565b6040516049919060af565b60405180910390f35b7fffffffffffffffffffffffffffffffffffffffffffffffffffffffffff00000081565b60007fffffffffffffffffffffffffffffffffffffffffffffffffffffffffff00000082169050919050565b60a9816076565b82525050565b600060208201905060c2600083018460a2565b9291505056fea2646970667358221220b2e89d1df112d56200dd4e96697bc8e5c043ca68b20faf9e83528bdfa28ccf5464736f6c63430008110033","opcodes":"PUSH1 0xFE PUSH2 0x52 PUSH1 0xB DUP3 DUP3 DUP3 CODECOPY DUP1 MLOAD PUSH1 0x0 BYTE PUSH1 0x73 EQ PUSH2 0x45 JUMPI PUSH32 0x4E487B7100000000000000000000000000000000000000000000000000000000 PUSH1 0x0 MSTORE PUSH1 0x0 PUSH1 0x4 MSTORE PUSH1 0x24 PUSH1 0x0 REVERT JUMPDEST ADDRESS PUSH1 0x0 MSTORE PUSH1 0x73 DUP2 MSTORE8 DUP3 DUP2 RETURN INVALID PUSH20 0x0 ADDRESS EQ PUSH1 0x80 PUSH1 0x40 MSTORE PUSH1 0x4 CALLDATASIZE LT PUSH1 0x33 JUMPI PUSH1 0x0 CALLDATALOAD PUSH1 0xE0 SHR DUP1 PUSH4 0xF26BE3FC EQ PUSH1 0x38 JUMPI JUMPDEST PUSH1 0x0 DUP1 REVERT JUMPDEST PUSH1 0x3E PUSH1 0x52 JUMP JUMPDEST PUSH1 0x40 MLOAD PUSH1 0x49 SWAP2 SWAP1 PUSH1 0xAF JUMP JUMPDEST PUSH1 0x40 MLOAD DUP1 SWAP2 SUB SWAP1 RETURN JUMPDEST PUSH32 0xFFFFFFFFFFFFFFFFFFFFFFFFFFFFFFFFFFFFFFFFFFFFFFFFFFFFFFFFFF000000 DUP2 JUMP JUMPDEST PUSH1 0x0 PUSH32 0xFFFFFFFFFFFFFFFFFFFFFFFFFFFFFFFFFFFFFFFFFFFFFFFFFFFFFFFFFF000000 DUP3 AND SWAP1 POP SWAP2 SWAP1 POP JUMP JUMPDEST PUSH1 0xA9 DUP2 PUSH1 0x76 JUMP JUMPDEST DUP3 MSTORE POP POP JUMP JUMPDEST PUSH1 0x0 PUSH1 0x20 DUP3 ADD SWAP1 POP PUSH1 0xC2 PUSH1 0x0 DUP4 ADD DUP5 PUSH1 0xA2 JUMP JUMPDEST SWAP3 SWAP2 POP POP JUMP INVALID LOG2 PUSH5 0x6970667358 0x22 SLT KECCAK256 0xB2 0xE8 SWAP14 SAR CALL SLT 0xD5 PUSH3 0xDD4E SWAP7 PUSH10 0x7BC8E5C043CA68B20FAF SWAP15 DUP4 MSTORE DUP12 0xDF LOG2 DUP13 0xCF SLOAD PUSH5 0x736F6C6343 STOP ADDMOD GT STOP CALLER "},"methodIdentifiers":{"NULL()":"f26be3fc"}}}}}