{"contracts/messaging/connectors/optimism/OptimismHubConnector.sol":{"OptimismHubConnector":{"abi":[{"inputs":[{"internalType":"uint32","name":"_domain","type":"uint32"},{"internalType":"uint32","name":"_mirrorDomain","type":"uint32"},{"internalType":"address","name":"_amb","type":"address"},{"internalType":"address","name":"_rootManager","type":"address"},{"internalType":"address","name":"_mirrorConnector","type":"address"},{"internalType":"address","name":"_stateCommitmentChain","type":"address"},{"internalType":"uint256","name":"_gasCap","type":"uint256"}],"stateMutability":"nonpayable","type":"constructor"},{"inputs":[],"name":"Connector__processMessage_notUsed","type":"error"},{"inputs":[],"name":"ProposedOwnable__onlyOwner_notOwner","type":"error"},{"inputs":[],"name":"ProposedOwnable__onlyProposed_notProposedOwner","type":"error"},{"inputs":[],"name":"ProposedOwnable__ownershipDelayElapsed_delayNotElapsed","type":"error"},{"inputs":[],"name":"ProposedOwnable__proposeNewOwner_invalidProposal","type":"error"},{"inputs":[],"name":"ProposedOwnable__proposeNewOwner_noOwnershipChange","type":"error"},{"inputs":[],"name":"ProposedOwnable__renounceOwnership_invalidProposal","type":"error"},{"inputs":[],"name":"ProposedOwnable__renounceOwnership_noProposal","type":"error"},{"inputs":[],"name":"TypedMemView__index_indexMoreThan32Bytes","type":"error"},{"inputs":[{"internalType":"uint256","name":"loc","type":"uint256"},{"internalType":"uint256","name":"len","type":"uint256"},{"internalType":"uint256","name":"index","type":"uint256"},{"internalType":"uint256","name":"slice","type":"uint256"}],"name":"TypedMemView__index_overrun","type":"error"},{"anonymous":false,"inputs":[{"indexed":false,"internalType":"uint256","name":"_previous","type":"uint256"},{"indexed":false,"internalType":"uint256","name":"_updated","type":"uint256"}],"name":"GasCapUpdated","type":"event"},{"anonymous":false,"inputs":[{"indexed":false,"internalType":"bytes","name":"data","type":"bytes"},{"indexed":false,"internalType":"address","name":"caller","type":"address"}],"name":"MessageProcessed","type":"event"},{"anonymous":false,"inputs":[{"indexed":false,"internalType":"bytes","name":"data","type":"bytes"},{"indexed":false,"internalType":"bytes","name":"encodedData","type":"bytes"},{"indexed":false,"internalType":"address","name":"caller","type":"address"}],"name":"MessageSent","type":"event"},{"anonymous":false,"inputs":[{"indexed":false,"internalType":"address","name":"previous","type":"address"},{"indexed":false,"internalType":"address","name":"current","type":"address"}],"name":"MirrorConnectorUpdated","type":"event"},{"anonymous":false,"inputs":[{"indexed":true,"internalType":"uint32","name":"domain","type":"uint32"},{"indexed":true,"internalType":"uint32","name":"mirrorDomain","type":"uint32"},{"indexed":false,"internalType":"address","name":"amb","type":"address"},{"indexed":false,"internalType":"address","name":"rootManager","type":"address"},{"indexed":false,"internalType":"address","name":"mirrorConnector","type":"address"}],"name":"NewConnector","type":"event"},{"anonymous":false,"inputs":[{"indexed":true,"internalType":"address","name":"proposedOwner","type":"address"}],"name":"OwnershipProposed","type":"event"},{"anonymous":false,"inputs":[{"indexed":true,"internalType":"address","name":"previousOwner","type":"address"},{"indexed":true,"internalType":"address","name":"newOwner","type":"address"}],"name":"OwnershipTransferred","type":"event"},{"inputs":[],"name":"AMB","outputs":[{"internalType":"address","name":"","type":"address"}],"stateMutability":"view","type":"function"},{"inputs":[],"name":"DOMAIN","outputs":[{"internalType":"uint32","name":"","type":"uint32"}],"stateMutability":"view","type":"function"},{"inputs":[],"name":"MIRROR_DOMAIN","outputs":[{"internalType":"uint32","name":"","type":"uint32"}],"stateMutability":"view","type":"function"},{"inputs":[],"name":"ROOT_MANAGER","outputs":[{"internalType":"address","name":"","type":"address"}],"stateMutability":"view","type":"function"},{"inputs":[],"name":"acceptProposedOwner","outputs":[],"stateMutability":"nonpayable","type":"function"},{"inputs":[],"name":"delay","outputs":[{"internalType":"uint256","name":"","type":"uint256"}],"stateMutability":"view","type":"function"},{"inputs":[],"name":"mirrorConnector","outputs":[{"internalType":"address","name":"","type":"address"}],"stateMutability":"view","type":"function"},{"inputs":[],"name":"owner","outputs":[{"internalType":"address","name":"","type":"address"}],"stateMutability":"view","type":"function"},{"inputs":[{"internalType":"bytes","name":"_data","type":"bytes"}],"name":"processMessage","outputs":[],"stateMutability":"nonpayable","type":"function"},{"inputs":[{"internalType":"address","name":"_target","type":"address"},{"internalType":"address","name":"_sender","type":"address"},{"internalType":"bytes","name":"_message","type":"bytes"},{"internalType":"uint256","name":"_messageNonce","type":"uint256"},{"components":[{"internalType":"bytes32","name":"stateRoot","type":"bytes32"},{"components":[{"internalType":"uint256","name":"batchIndex","type":"uint256"},{"internalType":"bytes32","name":"batchRoot","type":"bytes32"},{"internalType":"uint256","name":"batchSize","type":"uint256"},{"internalType":"uint256","name":"prevTotalElements","type":"uint256"},{"internalType":"bytes","name":"extraData","type":"bytes"}],"internalType":"struct ChainBatchHeader","name":"stateRootBatchHeader","type":"tuple"},{"components":[{"internalType":"uint256","name":"index","type":"uint256"},{"internalType":"bytes32[]","name":"siblings","type":"bytes32[]"}],"internalType":"struct ChainInclusionProof","name":"stateRootProof","type":"tuple"},{"internalType":"bytes","name":"stateTrieWitness","type":"bytes"},{"internalType":"bytes","name":"storageTrieWitness","type":"bytes"}],"internalType":"struct L2MessageInclusionProof","name":"_proof","type":"tuple"}],"name":"processMessageFromRoot","outputs":[],"stateMutability":"nonpayable","type":"function"},{"inputs":[{"internalType":"bytes32","name":"","type":"bytes32"}],"name":"processed","outputs":[{"internalType":"bool","name":"","type":"bool"}],"stateMutability":"view","type":"function"},{"inputs":[{"internalType":"address","name":"newlyProposed","type":"address"}],"name":"proposeNewOwner","outputs":[],"stateMutability":"nonpayable","type":"function"},{"inputs":[],"name":"proposed","outputs":[{"internalType":"address","name":"","type":"address"}],"stateMutability":"view","type":"function"},{"inputs":[],"name":"proposedTimestamp","outputs":[{"internalType":"uint256","name":"","type":"uint256"}],"stateMutability":"view","type":"function"},{"inputs":[],"name":"renounceOwnership","outputs":[],"stateMutability":"nonpayable","type":"function"},{"inputs":[],"name":"renounced","outputs":[{"internalType":"bool","name":"","type":"bool"}],"stateMutability":"view","type":"function"},{"inputs":[{"internalType":"bytes","name":"_data","type":"bytes"},{"internalType":"bytes","name":"_encodedData","type":"bytes"}],"name":"sendMessage","outputs":[],"stateMutability":"payable","type":"function"},{"inputs":[{"internalType":"uint256","name":"_gasCap","type":"uint256"}],"name":"setGasCap","outputs":[],"stateMutability":"nonpayable","type":"function"},{"inputs":[{"internalType":"address","name":"_mirrorConnector","type":"address"}],"name":"setMirrorConnector","outputs":[],"stateMutability":"nonpayable","type":"function"},{"inputs":[],"name":"stateCommitmentChain","outputs":[{"internalType":"contract IStateCommitmentChain","name":"","type":"address"}],"stateMutability":"view","type":"function"},{"inputs":[{"internalType":"address","name":"_expected","type":"address"}],"name":"verifySender","outputs":[{"internalType":"bool","name":"","type":"bool"}],"stateMutability":"nonpayable","type":"function"},{"stateMutability":"payable","type":"receive"}],"evm":{"bytecode":{"linkReferences":{},"object":"6101206040523480156200001257600080fd5b50604051620057e6380380620057e683398181016040528101906200003891906200054a565b80808888888888848484848462000055336200029460201b60201c565b60008563ffffffff1603620000a1576040517f08c379a000000000000000000000000000000000000000000000000000000000815260040162000098906200065e565b60405180910390fd5b600073ffffffffffffffffffffffffffffffffffffffff168273ffffffffffffffffffffffffffffffffffffffff160362000113576040517f08c379a00000000000000000000000000000000000000000000000000000000081526004016200010a90620006d0565b60405180910390fd5b8463ffffffff1660808163ffffffff16815250508273ffffffffffffffffffffffffffffffffffffffff1660a08173ffffffffffffffffffffffffffffffffffffffff16815250508173ffffffffffffffffffffffffffffffffffffffff1660c08173ffffffffffffffffffffffffffffffffffffffff16815250508363ffffffff1660e08163ffffffff1681525050600073ffffffffffffffffffffffffffffffffffffffff168173ffffffffffffffffffffffffffffffffffffffff1614620001ea57620001e9816200037c60201b60201c565b5b8363ffffffff168563ffffffff167f4f9c27c2fe3f84576ea469d367d044da53c45e951617e8389f2b5ed8db9d25f08585856040516200022d9392919062000703565b60405180910390a35050505050505050505062000250816200041d60201b60201c565b50508173ffffffffffffffffffffffffffffffffffffffff166101008173ffffffffffffffffffffffffffffffffffffffff168152505050505050505050620007ab565b8073ffffffffffffffffffffffffffffffffffffffff1660008054906101000a900473ffffffffffffffffffffffffffffffffffffffff1673ffffffffffffffffffffffffffffffffffffffff167f8be0079c531659141344cd1fd0a4f28419497f9722a3daafe3b4186f6b6457e060405160405180910390a3806000806101000a81548173ffffffffffffffffffffffffffffffffffffffff021916908373ffffffffffffffffffffffffffffffffffffffff160217905550600260009055600160006101000a81549073ffffffffffffffffffffffffffffffffffffffff021916905550565b7fc77bec288fc88f168427f2f7da682eadb26cac89d8d591af6e443da98dff2bbc600360009054906101000a900473ffffffffffffffffffffffffffffffffffffffff1682604051620003d192919062000740565b60405180910390a180600360006101000a81548173ffffffffffffffffffffffffffffffffffffffff021916908373ffffffffffffffffffffffffffffffffffffffff16021790555050565b7f877a02cb809da0364d23adca3cd50c451b53f279d3df632e1fc11eb66335bce560045482604051620004529291906200077e565b60405180910390a18060048190555050565b600080fd5b600063ffffffff82169050919050565b620004848162000469565b81146200049057600080fd5b50565b600081519050620004a48162000479565b92915050565b600073ffffffffffffffffffffffffffffffffffffffff82169050919050565b6000620004d782620004aa565b9050919050565b620004e981620004ca565b8114620004f557600080fd5b50565b6000815190506200050981620004de565b92915050565b6000819050919050565b62000524816200050f565b81146200053057600080fd5b50565b600081519050620005448162000519565b92915050565b600080600080600080600060e0888a0312156200056c576200056b62000464565b5b60006200057c8a828b0162000493565b97505060206200058f8a828b0162000493565b9650506040620005a28a828b01620004f8565b9550506060620005b58a828b01620004f8565b9450506080620005c88a828b01620004f8565b93505060a0620005db8a828b01620004f8565b92505060c0620005ee8a828b0162000533565b91505092959891949750929550565b600082825260208201905092915050565b7f656d70747920646f6d61696e0000000000000000000000000000000000000000600082015250565b600062000646600c83620005fd565b915062000653826200060e565b602082019050919050565b60006020820190508181036000830152620006798162000637565b9050919050565b7f656d70747920726f6f744d616e61676572000000000000000000000000000000600082015250565b6000620006b8601183620005fd565b9150620006c58262000680565b602082019050919050565b60006020820190508181036000830152620006eb81620006a9565b9050919050565b620006fd81620004ca565b82525050565b60006060820190506200071a6000830186620006f2565b620007296020830185620006f2565b620007386040830184620006f2565b949350505050565b6000604082019050620007576000830185620006f2565b620007666020830184620006f2565b9392505050565b62000778816200050f565b82525050565b60006040820190506200079560008301856200076d565b620007a460208301846200076d565b9392505050565b60805160a05160c05160e05161010051614fc562000821600039600081816104a601526116fd0152600081816104ca01526109ca0152600081816104f801528181610757015261098e0152600081816105cf015281816110660152818161115a01526116cd015260006106a20152614fc56000f3fe60806040526004361061012e5760003560e01c8063715018a6116100ab578063c5b350df1161006f578063c5b350df146103a4578063cc394283146103bb578063d1851c92146103e6578063d232c22014610411578063d69f9d611461043c578063db1b76591461046757610135565b8063715018a6146102d35780637850b020146102ea5780638da5cb5b14610313578063b1f8100d1461033e578063c1f0808a1461036757610135565b806352a9674b116100f257806352a9674b146102005780635bd11efc1461022b5780635f61e3ec146102545780636a42b8f81461027f5780636e2edb4e146102aa57610135565b80630f329ef81461013a57806314168416146101655780633cf52ffb1461019057806348e6fa23146101bb5780634ff746f6146101d757610135565b3661013557005b600080fd5b34801561014657600080fd5b5061014f6104a4565b60405161015c9190613164565b60405180910390f35b34801561017157600080fd5b5061017a6104c8565b604051610187919061319e565b60405180910390f35b34801561019c57600080fd5b506101a56104ec565b6040516101b291906131d2565b60405180910390f35b6101d560048036038101906101d09190613347565b6104f6565b005b3480156101e357600080fd5b506101fe60048036038101906101f991906133bf565b6105cd565b005b34801561020c57600080fd5b506102156106a0565b604051610222919061319e565b60405180910390f35b34801561023757600080fd5b50610252600480360381019061024d9190613446565b6106c4565b005b34801561026057600080fd5b50610269610755565b6040516102769190613482565b60405180910390f35b34801561028b57600080fd5b50610294610779565b6040516102a191906131d2565b60405180910390f35b3480156102b657600080fd5b506102d160048036038101906102cc91906137e1565b610784565b005b3480156102df57600080fd5b506102e8610a9c565b005b3480156102f657600080fd5b50610311600480360381019061030c9190613894565b610c3a565b005b34801561031f57600080fd5b50610328610ccb565b6040516103359190613482565b60405180910390f35b34801561034a57600080fd5b5061036560048036038101906103609190613446565b610cf4565b005b34801561037357600080fd5b5061038e600480360381019061038991906138c1565b610ea1565b60405161039b9190613909565b60405180910390f35b3480156103b057600080fd5b506103b9610ec1565b005b3480156103c757600080fd5b506103d0610fbe565b6040516103dd9190613482565b60405180910390f35b3480156103f257600080fd5b506103fb610fe4565b6040516104089190613482565b60405180910390f35b34801561041d57600080fd5b5061042661100e565b6040516104339190613909565b60405180910390f35b34801561044857600080fd5b50610451611064565b60405161045e9190613482565b60405180910390f35b34801561047357600080fd5b5061048e60048036038101906104899190613446565b611088565b60405161049b9190613909565b60405180910390f35b7f000000000000000000000000000000000000000000000000000000000000000081565b7f000000000000000000000000000000000000000000000000000000000000000081565b6000600254905090565b7f000000000000000000000000000000000000000000000000000000000000000073ffffffffffffffffffffffffffffffffffffffff163373ffffffffffffffffffffffffffffffffffffffff1614610584576040517f08c379a000000000000000000000000000000000000000000000000000000000815260040161057b90613981565b60405180910390fd5b61058e828261109a565b7fdcaa37a042a0087de79018c629bbd29cee82ca80bd9be394e1696bf9e93550778282336040516105c193929190613a20565b60405180910390a15050565b7f000000000000000000000000000000000000000000000000000000000000000073ffffffffffffffffffffffffffffffffffffffff163373ffffffffffffffffffffffffffffffffffffffff161461065b576040517f08c379a000000000000000000000000000000000000000000000000000000000815260040161065290613ab1565b60405180910390fd5b61066481611210565b7fb3abc57bfeebd2cac918901db582f71972a8e628bccf19f5ae3e3482b98a5ced8133604051610695929190613ad1565b60405180910390a150565b7f000000000000000000000000000000000000000000000000000000000000000081565b3373ffffffffffffffffffffffffffffffffffffffff1660008054906101000a900473ffffffffffffffffffffffffffffffffffffffff1673ffffffffffffffffffffffffffffffffffffffff1614610749576040517f8d450dd800000000000000000000000000000000000000000000000000000000815260040160405180910390fd5b61075281611242565b50565b7f000000000000000000000000000000000000000000000000000000000000000081565b600062093a80905090565b600360009054906101000a900473ffffffffffffffffffffffffffffffffffffffff1673ffffffffffffffffffffffffffffffffffffffff168473ffffffffffffffffffffffffffffffffffffffff1614610814576040517f08c379a000000000000000000000000000000000000000000000000000000000815260040161080b90613b4d565b60405180910390fd5b3073ffffffffffffffffffffffffffffffffffffffff168573ffffffffffffffffffffffffffffffffffffffff1614610882576040517f08c379a000000000000000000000000000000000000000000000000000000000815260040161087990613bb9565b60405180910390fd5b6000610890868686866112e1565b905061089c8183611381565b6108db576040517f08c379a00000000000000000000000000000000000000000000000000000000081526004016108d290613c25565b60405180910390fd5b60006108f16000866113a690919063ffffffff16565b9050600061093960206109098462ffffff19166113d1565b6109139190613c8c565b6bffffffffffffffffffffffff1660208462ffffff19166113f19092919063ffffffff16565b90506005600082815260200190815260200160002060009054906101000a900460ff16610a925760016005600083815260200190815260200160002060006101000a81548160ff0219169083151502179055507f000000000000000000000000000000000000000000000000000000000000000073ffffffffffffffffffffffffffffffffffffffff16638e7d93fa7f0000000000000000000000000000000000000000000000000000000000000000836040518363ffffffff1660e01b8152600401610a07929190613cdb565b600060405180830381600087803b158015610a2157600080fd5b505af1158015610a35573d6000803e3d6000fd5b505050507fb3abc57bfeebd2cac918901db582f71972a8e628bccf19f5ae3e3482b98a5ced81604051602001610a6b9190613d04565b60405160208183030381529060405233604051610a89929190613ad1565b60405180910390a15b5050505050505050565b3373ffffffffffffffffffffffffffffffffffffffff1660008054906101000a900473ffffffffffffffffffffffffffffffffffffffff1673ffffffffffffffffffffffffffffffffffffffff1614610b21576040517f8d450dd800000000000000000000000000000000000000000000000000000000815260040160405180910390fd5b62093a8060025442610b339190613d1f565b11610b6a576040517f9380a17c00000000000000000000000000000000000000000000000000000000815260040160405180910390fd5b600060025403610ba6576040517f392cc0fc00000000000000000000000000000000000000000000000000000000815260040160405180910390fd5b600073ffffffffffffffffffffffffffffffffffffffff16600160009054906101000a900473ffffffffffffffffffffffffffffffffffffffff1673ffffffffffffffffffffffffffffffffffffffff1614610c2e576040517f23295ef900000000000000000000000000000000000000000000000000000000815260040160405180910390fd5b610c38600061150b565b565b3373ffffffffffffffffffffffffffffffffffffffff1660008054906101000a900473ffffffffffffffffffffffffffffffffffffffff1673ffffffffffffffffffffffffffffffffffffffff1614610cbf576040517f8d450dd800000000000000000000000000000000000000000000000000000000815260040160405180910390fd5b610cc8816115f3565b50565b60008060009054906101000a900473ffffffffffffffffffffffffffffffffffffffff16905090565b3373ffffffffffffffffffffffffffffffffffffffff1660008054906101000a900473ffffffffffffffffffffffffffffffffffffffff1673ffffffffffffffffffffffffffffffffffffffff1614610d79576040517f8d450dd800000000000000000000000000000000000000000000000000000000815260040160405180910390fd5b8073ffffffffffffffffffffffffffffffffffffffff16600160009054906101000a900473ffffffffffffffffffffffffffffffffffffffff1673ffffffffffffffffffffffffffffffffffffffff16148015610dd95750600060025414155b15610e10576040517f23780cca00000000000000000000000000000000000000000000000000000000815260040160405180910390fd5b8073ffffffffffffffffffffffffffffffffffffffff1660008054906101000a900473ffffffffffffffffffffffffffffffffffffffff1673ffffffffffffffffffffffffffffffffffffffff1603610e95576040517f945f6e7e00000000000000000000000000000000000000000000000000000000815260040160405180910390fd5b610e9e81611638565b50565b60056020528060005260406000206000915054906101000a900460ff1681565b3373ffffffffffffffffffffffffffffffffffffffff16600160009054906101000a900473ffffffffffffffffffffffffffffffffffffffff1673ffffffffffffffffffffffffffffffffffffffff1614610f48576040517f234fe4e200000000000000000000000000000000000000000000000000000000815260040160405180910390fd5b62093a8060025442610f5a9190613d1f565b11610f91576040517f9380a17c00000000000000000000000000000000000000000000000000000000815260040160405180910390fd5b610fbc600160009054906101000a900473ffffffffffffffffffffffffffffffffffffffff1661150b565b565b600360009054906101000a900473ffffffffffffffffffffffffffffffffffffffff1681565b6000600160009054906101000a900473ffffffffffffffffffffffffffffffffffffffff16905090565b60008073ffffffffffffffffffffffffffffffffffffffff1660008054906101000a900473ffffffffffffffffffffffffffffffffffffffff1673ffffffffffffffffffffffffffffffffffffffff1614905090565b7f000000000000000000000000000000000000000000000000000000000000000081565b6000611093826116c6565b9050919050565b60208251146110de576040517f08c379a00000000000000000000000000000000000000000000000000000000081526004016110d590613d9f565b60405180910390fd5b6000634ff746f660e01b836040516024016110f99190613dbf565b604051602081830303815290604052907bffffffffffffffffffffffffffffffffffffffffffffffffffffffff19166020820180517bffffffffffffffffffffffffffffffffffffffffffffffffffffffff838183161783525050505090507f000000000000000000000000000000000000000000000000000000000000000073ffffffffffffffffffffffffffffffffffffffff16633dbb202b600360009054906101000a900473ffffffffffffffffffffffffffffffffffffffff16836004546040518463ffffffff1660e01b81526004016111d993929190613de1565b600060405180830381600087803b1580156111f357600080fd5b505af1158015611207573d6000803e3d6000fd5b50505050505050565b6040517f5b0bf6d400000000000000000000000000000000000000000000000000000000815260040160405180910390fd5b7fc77bec288fc88f168427f2f7da682eadb26cac89d8d591af6e443da98dff2bbc600360009054906101000a900473ffffffffffffffffffffffffffffffffffffffff1682604051611295929190613e1f565b60405180910390a180600360006101000a81548173ffffffffffffffffffffffffffffffffffffffff021916908373ffffffffffffffffffffffffffffffffffffffff16021790555050565b6060848484846040516024016112fa9493929190613e48565b6040516020818303038152906040527fcbd4ece9000000000000000000000000000000000000000000000000000000007bffffffffffffffffffffffffffffffffffffffffffffffffffffffff19166020820180517bffffffffffffffffffffffffffffffffffffffffffffffffffffffff83818316178352505050509050949350505050565b600061138c826116f9565b801561139e575061139d83836117ac565b5b905092915050565b6000808351905060006020850190506113c78464ffffffffff168284611917565b9250505092915050565b6000806bffffffffffffffffffffffff9050808360181c16915050919050565b6000808260ff1603611408576000801b9050611504565b611411846113d1565b6bffffffffffffffffffffffff168260ff168461142e9190613e94565b111561148a5761143d8461197e565b611446856113d1565b848460ff166040517f78218d290000000000000000000000000000000000000000000000000000000081526004016114819493929190613ef9565b60405180910390fd5b60208260ff1611156114c8576040517f045df3f900000000000000000000000000000000000000000000000000000000815260040160405180910390fd5b600060088302905060006114db8661197e565b6bffffffffffffffffffffffff16905060006114f68361199e565b905080868301511693505050505b9392505050565b8073ffffffffffffffffffffffffffffffffffffffff1660008054906101000a900473ffffffffffffffffffffffffffffffffffffffff1673ffffffffffffffffffffffffffffffffffffffff167f8be0079c531659141344cd1fd0a4f28419497f9722a3daafe3b4186f6b6457e060405160405180910390a3806000806101000a81548173ffffffffffffffffffffffffffffffffffffffff021916908373ffffffffffffffffffffffffffffffffffffffff160217905550600260009055600160006101000a81549073ffffffffffffffffffffffffffffffffffffffff021916905550565b7f877a02cb809da0364d23adca3cd50c451b53f279d3df632e1fc11eb66335bce560045482604051611626929190613f3e565b60405180910390a18060048190555050565b4260028190555080600160006101000a81548173ffffffffffffffffffffffffffffffffffffffff021916908373ffffffffffffffffffffffffffffffffffffffff1602179055508073ffffffffffffffffffffffffffffffffffffffff167f6ab4d119f23076e8ad491bc65ce85f017fb0591dce08755ba8591059cc51737a60405160405180910390a250565b60006116f27f0000000000000000000000000000000000000000000000000000000000000000836119cd565b9050919050565b60007f000000000000000000000000000000000000000000000000000000000000000073ffffffffffffffffffffffffffffffffffffffff16634d69ee578360000151846020015185604001516040518463ffffffff1660e01b815260040161176493929190614131565b602060405180830381865afa158015611781573d6000803e3d6000fd5b505050506040513d601f19601f820116820180604052508101906117a591906141a2565b9050919050565b600080837342000000000000000000000000000000000000076040516020016117d6929190614253565b6040516020818303038152906040528051906020012060006040516020016117ff9291906142bd565b60405160208183030381529060405280519060200120905060008061186073420000000000000000000000000000000000000060405160200161184291906142e9565b60405160208183030381529060405286606001518760000151611ae2565b9150915060011515821515146118ab576040517f08c379a00000000000000000000000000000000000000000000000000000000081526004016118a29061439c565b60405180910390fd5b60006118b682611b0b565b905061190b846040516020016118cc91906143bc565b60405160208183030381529060405260016040516020016118ed919061441a565b60405160208183030381529060405288608001518460400151611bd5565b94505050505092915050565b60008082846119269190613e94565b905060405181111561193757600090505b60008103611968577fffffffffffffffffffffffffffffffffffffffffffffffffffffffffff000000915050611977565b611973858585611bfa565b9150505b9392505050565b6000806bffffffffffffffffffffffff9050808360781c16915050919050565b60007f8000000000000000000000000000000000000000000000000000000000000000600183031d9050919050565b60008273ffffffffffffffffffffffffffffffffffffffff163373ffffffffffffffffffffffffffffffffffffffff1614611a3d576040517f08c379a0000000000000000000000000000000000000000000000000000000008152600401611a3490614481565b60405180910390fd5b8173ffffffffffffffffffffffffffffffffffffffff168373ffffffffffffffffffffffffffffffffffffffff16636e296e456040518163ffffffff1660e01b8152600401602060405180830381865afa158015611a9f573d6000803e3d6000fd5b505050506040513d601f19601f82011682018060405250810190611ac391906144b6565b73ffffffffffffffffffffffffffffffffffffffff1614905092915050565b600060606000611af186611c98565b9050611afe818686611cc8565b9250925050935093915050565b611b13613083565b6000611b1e83611da1565b90506040518060800160405280611b4f83600081518110611b4257611b416144e3565b5b6020026020010151611dbb565b8152602001611b7883600181518110611b6b57611b6a6144e3565b5b6020026020010151611dbb565b8152602001611ba183600281518110611b9457611b936144e3565b5b6020026020010151611dd0565b8152602001611bca83600381518110611bbd57611bbc6144e3565b5b6020026020010151611dd0565b815250915050919050565b600080611be186611c98565b9050611bef81868686611ed1565b915050949350505050565b600080606090506000601890506000849050600086905085826bffffffffffffffffffffffff16148015611c3b575086816bffffffffffffffffffffffff16145b611c7a576040517f08c379a0000000000000000000000000000000000000000000000000000000008152600401611c719061455e565b60405180910390fd5b87841b9450808517841b9450818517831b9450505050509392505050565b60608180519060200120604051602001611cb291906143bc565b6040516020818303038152906040529050919050565b600060606000611cd785611f04565b90506000806000611ce9848a89611ff7565b92509250925060008083511490508080611d005750815b611d3f576040517f08c379a0000000000000000000000000000000000000000000000000000000008152600401611d36906145ca565b60405180910390fd5b600081611d5b5760405180602001604052806000815250611d8b565b611d8a86600187611d6c9190613d1f565b81518110611d7d57611d7c6144e3565b5b602002602001015161245f565b5b9050818197509750505050505050935093915050565b6060611db4611daf836124a0565b6124ce565b9050919050565b6000611dc682611dd0565b60001c9050919050565b60006022826000015110611e19576040517f08c379a0000000000000000000000000000000000000000000000000000000008152600401611e1090614636565b60405180910390fd5b6000806000611e27856126c5565b92509250925060006001811115611e4157611e40614656565b5b816001811115611e5457611e53614656565b5b14611e94576040517f08c379a0000000000000000000000000000000000000000000000000000000008152600401611e8b90614636565b60405180910390fd5b6000838660200151611ea69190613e94565b90506000815190506020841015611ec457836020036101000a810490505b8095505050505050919050565b6000806000611ee1878686611cc8565b91509150818015611ef85750611ef786826129e2565b5b92505050949350505050565b60606000611f1183611da1565b90506000815167ffffffffffffffff811115611f3057611f2f61321c565b5b604051908082528060200260200182016040528015611f6957816020015b611f566130b1565b815260200190600190039081611f4e5790505b50905060008251905060005b81811015611feb576000611fa2858381518110611f9557611f946144e3565b5b60200260200101516129fd565b90506040518060400160405280828152602001611fbe83611da1565b815250848381518110611fd457611fd36144e3565b5b602002602001018190525081600101915050611f75565b50819350505050919050565b6000606060008060009050600061200d87612a93565b9050600086905060008061201f6130b1565b60008c51905060005b8181101561240e578d8181518110612043576120426144e3565b5b6020026020010151925083856120599190613e94565b94506001886120689190613e94565b9750600085036120c45785836000015180519060200120146120bf576040517f08c379a00000000000000000000000000000000000000000000000000000000081526004016120b6906146d1565b60405180910390fd5b612174565b601f836000015151111561212457858360000151805190602001201461211f576040517f08c379a00000000000000000000000000000000000000000000000000000000081526004016121169061473d565b60405180910390fd5b612173565b856121328460000151612c36565b14612172576040517f08c379a0000000000000000000000000000000000000000000000000000000008152600401612169906147a9565b60405180910390fd5b5b5b806001019050600160106121889190613e94565b836020015151036121fd57865185031561240e5760008786815181106121b1576121b06144e3565b5b602001015160f81c60f81b60f81c9050600084602001518260ff16815181106121dd576121dc6144e3565b5b602002602001015190506121f081612c70565b9750600195505050612409565b6002836020015151036123ce57600061221584612cae565b905060008160008151811061222d5761222c6144e3565b5b602001015160f81c60f81b60f81c9050600060028261224c91906147f8565b60026122589190614829565b90506000612269848360ff16612ce7565b905060006122778c8b612ce7565b905060006122858383612d28565b9050600260ff168560ff1614806122a25750600360ff168560ff16145b156122ff578083511480156122b75750808251145b156122cb57808b6122c89190613e94565b9a505b608060f81b7effffffffffffffffffffffffffffffffffffffffffffffffffffffffffffff19169b5050505050505061240e565b600060ff168560ff16148061231a5750600160ff168560ff16145b15612393578251811461235b57608060f81b7effffffffffffffffffffffffffffffffffffffffffffffffffffffffffffff19169b5050505050505061240e565b6123838960200151600181518110612376576123756144e3565b5b6020026020010151612c70565b9b50809950505050505050612409565b6040517f08c379a00000000000000000000000000000000000000000000000000000000081526004016123c5906148d0565b60405180910390fd5b6040517f08c379a00000000000000000000000000000000000000000000000000000000081526004016124009061493c565b60405180910390fd5b612028565b506000608060f81b7effffffffffffffffffffffffffffffffffffffffffffffffffffffffffffff191686149050876124478887612ce7565b829a509a509a50505050505050505093509350939050565b60606124998260200151600184602001515161247b9190613d1f565b8151811061248c5761248b6144e3565b5b60200260200101516129fd565b9050919050565b6124a86130cb565b600060208301905060405180604001604052808451815260200182815250915050919050565b60606000806124dc846126c5565b92505091506001808111156124f4576124f3614656565b5b81600181111561250757612506614656565b5b14612547576040517f08c379a000000000000000000000000000000000000000000000000000000000815260040161253e906149a8565b60405180910390fd5b6000602067ffffffffffffffff8111156125645761256361321c565b5b60405190808252806020026020018201604052801561259d57816020015b61258a6130cb565b8152602001906001900390816125825790505b5090506000808490505b86600001518110156126b557602082106125f6576040517f08c379a00000000000000000000000000000000000000000000000000000000081526004016125ed90614a3a565b60405180910390fd5b6000806126346040518060400160405280858c600001516126179190613d1f565b8152602001858c6020015161262c9190613e94565b8152506126c5565b5091509150604051806040016040528083836126509190613e94565b8152602001848b602001516126659190613e94565b81525085858151811061267b5761267a6144e3565b5b60200260200101819052506001846126939190613e94565b935080826126a19190613e94565b836126ac9190613e94565b925050506125a7565b8183528295505050505050919050565b600080600080846000015111612710576040517f08c379a000000000000000000000000000000000000000000000000000000000815260040161270790614aa6565b60405180910390fd5b6000846020015190506000815160001a9050608081101561273e5760006001600094509450945050506129db565b60b88110156127b15760006080826127569190613d1f565b90508087600001511161279e576040517f08c379a000000000000000000000000000000000000000000000000000000000815260040161279590614b12565b60405180910390fd5b60018160009550955095505050506129db565b60c081101561289357600060b7826127c99190613d1f565b905080876000015111612811576040517f08c379a000000000000000000000000000000000000000000000000000000000815260040161280890614b7e565b60405180910390fd5b6000816020036101000a6001850151049050808261282f9190613e94565b886000015111612874576040517f08c379a000000000000000000000000000000000000000000000000000000000815260040161286b90614bea565b60405180910390fd5b8160016128819190613e94565b816000965096509650505050506129db565b60f881101561290657600060c0826128ab9190613d1f565b9050808760000151116128f3576040517f08c379a00000000000000000000000000000000000000000000000000000000081526004016128ea90614c56565b60405180910390fd5b60018160019550955095505050506129db565b600060f7826129159190613d1f565b90508087600001511161295d576040517f08c379a000000000000000000000000000000000000000000000000000000000815260040161295490614cc2565b60405180910390fd5b6000816020036101000a6001850151049050808261297b9190613e94565b8860000151116129c0576040517f08c379a00000000000000000000000000000000000000000000000000000000081526004016129b790614d2e565b60405180910390fd5b8160016129cd9190613e94565b816001965096509650505050505b9193909250565b60008180519060200120838051906020012014905092915050565b60606000806000612a0d856126c5565b92509250925060006001811115612a2757612a26614656565b5b816001811115612a3a57612a39614656565b5b14612a7a576040517f08c379a0000000000000000000000000000000000000000000000000000000008152600401612a7190614d9a565b60405180910390fd5b612a8985602001518484612deb565b9350505050919050565b6060600060028351612aa59190614dba565b67ffffffffffffffff811115612abe57612abd61321c565b5b6040519080825280601f01601f191660200182016040528015612af05781602001600182028036833780820191505090505b50905060008351905060005b81811015612c2b576004858281518110612b1957612b186144e3565b5b602001015160f81c60f81b7effffffffffffffffffffffffffffffffffffffffffffffffffffffffffffff1916901c83600283612b569190614dba565b81518110612b6757612b666144e3565b5b60200101907effffffffffffffffffffffffffffffffffffffffffffffffffffffffffffff1916908160001a9053506010858281518110612bab57612baa6144e3565b5b602001015160f81c60f81b60f81c612bc391906147f8565b60f81b836001600284612bd69190614dba565b612be09190613e94565b81518110612bf157612bf06144e3565b5b60200101907effffffffffffffffffffffffffffffffffffffffffffffffffffffffffffff1916908160001a905350806001019050612afc565b508192505050919050565b6000602082511015612c545760006020830151905080915050612c6b565b81806020019051810190612c689190614e11565b90505b919050565b60006060602083600001511015612c9157612c8a83612ee8565b9050612c9d565b612c9a836129fd565b90505b612ca681612c36565b915050919050565b6060612ce0612cdb8360200151600081518110612cce57612ccd6144e3565b5b60200260200101516129fd565b612a93565b9050919050565b606082518210612d0857604051806020016040528060008152509050612d22565b612d1f8383848651612d1a9190613d1f565b612efa565b90505b92915050565b600080600090505b808451118015612d405750808351115b8015612dc95750828181518110612d5a57612d596144e3565b5b602001015160f81c60f81b7effffffffffffffffffffffffffffffffffffffffffffffffffffffffffffff1916848281518110612d9a57612d996144e3565b5b602001015160f81c60f81b7effffffffffffffffffffffffffffffffffffffffffffffffffffffffffffff1916145b15612de1578080612dd990614e3e565b915050612d30565b8091505092915050565b606060008267ffffffffffffffff811115612e0957612e0861321c565b5b6040519080825280601f01601f191660200182016040528015612e3b5781602001600182028036833780820191505090505b5090506000815103612e505780915050612ee1565b60008486612e5e9190613e94565b9050600060208301905060005b602086612e789190614e86565b811015612eac5782518252602083612e909190613e94565b9250602082612e9f9190613e94565b9150806001019050612e6b565b506000600160208781612ec257612ec16147c9565b5b066020036101000a039050808251168119845116178252839450505050505b9392505050565b6060612ef382613066565b9050919050565b606081601f83612f0a9190613e94565b1015612f4b576040517f08c379a0000000000000000000000000000000000000000000000000000000008152600401612f4290614f03565b60405180910390fd5b828284612f589190613e94565b1015612f99576040517f08c379a0000000000000000000000000000000000000000000000000000000008152600401612f9090614f03565b60405180910390fd5b8183612fa59190613e94565b84511015612fe8576040517f08c379a0000000000000000000000000000000000000000000000000000000008152600401612fdf90614f6f565b60405180910390fd5b6060821560008114613009576040519150600082526020820160405261305a565b6040519150601f8416801560200281840101858101878315602002848b0101015b81831015613047578051835260208301925060208101905061302a565b50868552601f19601f8301166040525050505b50809150509392505050565b606061307c826020015160008460000151612deb565b9050919050565b6040518060800160405280600081526020016000815260200160008019168152602001600080191681525090565b604051806040016040528060608152602001606081525090565b604051806040016040528060008152602001600081525090565b600073ffffffffffffffffffffffffffffffffffffffff82169050919050565b6000819050919050565b600061312a613125613120846130e5565b613105565b6130e5565b9050919050565b600061313c8261310f565b9050919050565b600061314e82613131565b9050919050565b61315e81613143565b82525050565b60006020820190506131796000830184613155565b92915050565b600063ffffffff82169050919050565b6131988161317f565b82525050565b60006020820190506131b3600083018461318f565b92915050565b6000819050919050565b6131cc816131b9565b82525050565b60006020820190506131e760008301846131c3565b92915050565b6000604051905090565b600080fd5b600080fd5b600080fd5b600080fd5b6000601f19601f8301169050919050565b7f4e487b7100000000000000000000000000000000000000000000000000000000600052604160045260246000fd5b6132548261320b565b810181811067ffffffffffffffff821117156132735761327261321c565b5b80604052505050565b60006132866131ed565b9050613292828261324b565b919050565b600067ffffffffffffffff8211156132b2576132b161321c565b5b6132bb8261320b565b9050602081019050919050565b82818337600083830152505050565b60006132ea6132e584613297565b61327c565b90508281526020810184848401111561330657613305613206565b5b6133118482856132c8565b509392505050565b600082601f83011261332e5761332d613201565b5b813561333e8482602086016132d7565b91505092915050565b6000806040838503121561335e5761335d6131f7565b5b600083013567ffffffffffffffff81111561337c5761337b6131fc565b5b61338885828601613319565b925050602083013567ffffffffffffffff8111156133a9576133a86131fc565b5b6133b585828601613319565b9150509250929050565b6000602082840312156133d5576133d46131f7565b5b600082013567ffffffffffffffff8111156133f3576133f26131fc565b5b6133ff84828501613319565b91505092915050565b6000613413826130e5565b9050919050565b61342381613408565b811461342e57600080fd5b50565b6000813590506134408161341a565b92915050565b60006020828403121561345c5761345b6131f7565b5b600061346a84828501613431565b91505092915050565b61347c81613408565b82525050565b60006020820190506134976000830184613473565b92915050565b6134a6816131b9565b81146134b157600080fd5b50565b6000813590506134c38161349d565b92915050565b600080fd5b600080fd5b6000819050919050565b6134e6816134d3565b81146134f157600080fd5b50565b600081359050613503816134dd565b92915050565b600060a0828403121561351f5761351e6134c9565b5b61352960a061327c565b90506000613539848285016134b4565b600083015250602061354d848285016134f4565b6020830152506040613561848285016134b4565b6040830152506060613575848285016134b4565b606083015250608082013567ffffffffffffffff811115613599576135986134ce565b5b6135a584828501613319565b60808301525092915050565b600067ffffffffffffffff8211156135cc576135cb61321c565b5b602082029050602081019050919050565b600080fd5b60006135f56135f0846135b1565b61327c565b90508083825260208201905060208402830185811115613618576136176135dd565b5b835b81811015613641578061362d88826134f4565b84526020840193505060208101905061361a565b5050509392505050565b600082601f8301126136605761365f613201565b5b81356136708482602086016135e2565b91505092915050565b60006040828403121561368f5761368e6134c9565b5b613699604061327c565b905060006136a9848285016134b4565b600083015250602082013567ffffffffffffffff8111156136cd576136cc6134ce565b5b6136d98482850161364b565b60208301525092915050565b600060a082840312156136fb576136fa6134c9565b5b61370560a061327c565b90506000613715848285016134f4565b600083015250602082013567ffffffffffffffff811115613739576137386134ce565b5b61374584828501613509565b602083015250604082013567ffffffffffffffff811115613769576137686134ce565b5b61377584828501613679565b604083015250606082013567ffffffffffffffff811115613799576137986134ce565b5b6137a584828501613319565b606083015250608082013567ffffffffffffffff8111156137c9576137c86134ce565b5b6137d584828501613319565b60808301525092915050565b600080600080600060a086880312156137fd576137fc6131f7565b5b600061380b88828901613431565b955050602061381c88828901613431565b945050604086013567ffffffffffffffff81111561383d5761383c6131fc565b5b61384988828901613319565b935050606061385a888289016134b4565b925050608086013567ffffffffffffffff81111561387b5761387a6131fc565b5b613887888289016136e5565b9150509295509295909350565b6000602082840312156138aa576138a96131f7565b5b60006138b8848285016134b4565b91505092915050565b6000602082840312156138d7576138d66131f7565b5b60006138e5848285016134f4565b91505092915050565b60008115159050919050565b613903816138ee565b82525050565b600060208201905061391e60008301846138fa565b92915050565b600082825260208201905092915050565b7f21726f6f744d616e616765720000000000000000000000000000000000000000600082015250565b600061396b600c83613924565b915061397682613935565b602082019050919050565b6000602082019050818103600083015261399a8161395e565b9050919050565b600081519050919050565b600082825260208201905092915050565b60005b838110156139db5780820151818401526020810190506139c0565b60008484015250505050565b60006139f2826139a1565b6139fc81856139ac565b9350613a0c8185602086016139bd565b613a158161320b565b840191505092915050565b60006060820190508181036000830152613a3a81866139e7565b90508181036020830152613a4e81856139e7565b9050613a5d6040830184613473565b949350505050565b7f21414d4200000000000000000000000000000000000000000000000000000000600082015250565b6000613a9b600483613924565b9150613aa682613a65565b602082019050919050565b60006020820190508181036000830152613aca81613a8e565b9050919050565b60006040820190508181036000830152613aeb81856139e7565b9050613afa6020830184613473565b9392505050565b7f216d6972726f72436f6e6e6563746f7200000000000000000000000000000000600082015250565b6000613b37601083613924565b9150613b4282613b01565b602082019050919050565b60006020820190508181036000830152613b6681613b2a565b9050919050565b7f2174686973000000000000000000000000000000000000000000000000000000600082015250565b6000613ba3600583613924565b9150613bae82613b6d565b602082019050919050565b60006020820190508181036000830152613bd281613b96565b9050919050565b7f2170726f6f660000000000000000000000000000000000000000000000000000600082015250565b6000613c0f600683613924565b9150613c1a82613bd9565b602082019050919050565b60006020820190508181036000830152613c3e81613c02565b9050919050565b60006bffffffffffffffffffffffff82169050919050565b7f4e487b7100000000000000000000000000000000000000000000000000000000600052601160045260246000fd5b6000613c9782613c45565b9150613ca283613c45565b925082820390506bffffffffffffffffffffffff811115613cc657613cc5613c5d565b5b92915050565b613cd5816134d3565b82525050565b6000604082019050613cf0600083018561318f565b613cfd6020830184613ccc565b9392505050565b6000602082019050613d196000830184613ccc565b92915050565b6000613d2a826131b9565b9150613d35836131b9565b9250828203905081811115613d4d57613d4c613c5d565b5b92915050565b7f216c656e67746800000000000000000000000000000000000000000000000000600082015250565b6000613d89600783613924565b9150613d9482613d53565b602082019050919050565b60006020820190508181036000830152613db881613d7c565b9050919050565b60006020820190508181036000830152613dd981846139e7565b905092915050565b6000606082019050613df66000830186613473565b8181036020830152613e0881856139e7565b9050613e17604083018461318f565b949350505050565b6000604082019050613e346000830185613473565b613e416020830184613473565b9392505050565b6000608082019050613e5d6000830187613473565b613e6a6020830186613473565b8181036040830152613e7c81856139e7565b9050613e8b60608301846131c3565b95945050505050565b6000613e9f826131b9565b9150613eaa836131b9565b9250828201905080821115613ec257613ec1613c5d565b5b92915050565b6000613ee3613ede613ed984613c45565b613105565b6131b9565b9050919050565b613ef381613ec8565b82525050565b6000608082019050613f0e6000830187613eea565b613f1b6020830186613eea565b613f2860408301856131c3565b613f3560608301846131c3565b95945050505050565b6000604082019050613f5360008301856131c3565b613f6060208301846131c3565b9392505050565b613f70816131b9565b82525050565b613f7f816134d3565b82525050565b600082825260208201905092915050565b6000613fa1826139a1565b613fab8185613f85565b9350613fbb8185602086016139bd565b613fc48161320b565b840191505092915050565b600060a083016000830151613fe76000860182613f67565b506020830151613ffa6020860182613f76565b50604083015161400d6040860182613f67565b5060608301516140206060860182613f67565b50608083015184820360808601526140388282613f96565b9150508091505092915050565b600081519050919050565b600082825260208201905092915050565b6000819050602082019050919050565b600061407d8383613f76565b60208301905092915050565b6000602082019050919050565b60006140a182614045565b6140ab8185614050565b93506140b683614061565b8060005b838110156140e75781516140ce8882614071565b97506140d983614089565b9250506001810190506140ba565b5085935050505092915050565b600060408301600083015161410c6000860182613f67565b50602083015184820360208601526141248282614096565b9150508091505092915050565b60006060820190506141466000830186613ccc565b81810360208301526141588185613fcf565b9050818103604083015261416c81846140f4565b9050949350505050565b61417f816138ee565b811461418a57600080fd5b50565b60008151905061419c81614176565b92915050565b6000602082840312156141b8576141b76131f7565b5b60006141c68482850161418d565b91505092915050565b600081905092915050565b60006141e5826139a1565b6141ef81856141cf565b93506141ff8185602086016139bd565b80840191505092915050565b60008160601b9050919050565b60006142238261420b565b9050919050565b600061423582614218565b9050919050565b61424d61424882613408565b61422a565b82525050565b600061425f82856141da565b915061426b828461423c565b6014820191508190509392505050565b6000819050919050565b614296614291826134d3565b61427b565b82525050565b6000819050919050565b6142b76142b2826131b9565b61429c565b82525050565b60006142c98285614285565b6020820191506142d982846142a6565b6020820191508190509392505050565b60006142f5828461423c565b60148201915081905092915050565b7f4d6573736167652070617373696e67207072656465706c6f7920686173206e6f60008201527f74206265656e20696e697469616c697a6564206f7220696e76616c696420707260208201527f6f6f662070726f76696465642e00000000000000000000000000000000000000604082015250565b6000614386604d83613924565b915061439182614304565b606082019050919050565b600060208201905081810360008301526143b581614379565b9050919050565b60006143c88284614285565b60208201915081905092915050565b600060ff82169050919050565b60008160f81b9050919050565b60006143fc826143e4565b9050919050565b61441461440f826143d7565b6143f1565b82525050565b60006144268284614403565b60018201915081905092915050565b7f2162726964676500000000000000000000000000000000000000000000000000600082015250565b600061446b600783613924565b915061447682614435565b602082019050919050565b6000602082019050818103600083015261449a8161445e565b9050919050565b6000815190506144b08161341a565b92915050565b6000602082840312156144cc576144cb6131f7565b5b60006144da848285016144a1565b91505092915050565b7f4e487b7100000000000000000000000000000000000000000000000000000000600052603260045260246000fd5b7f217472756e636174656400000000000000000000000000000000000000000000600082015250565b6000614548600a83613924565b915061455382614512565b602082019050919050565b600060208201905081810360008301526145778161453b565b9050919050565b7f50726f76696465642070726f6f6620697320696e76616c69642e000000000000600082015250565b60006145b4601a83613924565b91506145bf8261457e565b602082019050919050565b600060208201905081810360008301526145e3816145a7565b9050919050565b7f496e76616c696420524c5020627974657333322076616c75652e000000000000600082015250565b6000614620601a83613924565b915061462b826145ea565b602082019050919050565b6000602082019050818103600083015261464f81614613565b9050919050565b7f4e487b7100000000000000000000000000000000000000000000000000000000600052602160045260246000fd5b7f496e76616c696420726f6f742068617368000000000000000000000000000000600082015250565b60006146bb601183613924565b91506146c682614685565b602082019050919050565b600060208201905081810360008301526146ea816146ae565b9050919050565b7f496e76616c6964206c6172676520696e7465726e616c20686173680000000000600082015250565b6000614727601b83613924565b9150614732826146f1565b602082019050919050565b600060208201905081810360008301526147568161471a565b9050919050565b7f496e76616c696420696e7465726e616c206e6f64652068617368000000000000600082015250565b6000614793601a83613924565b915061479e8261475d565b602082019050919050565b600060208201905081810360008301526147c281614786565b9050919050565b7f4e487b7100000000000000000000000000000000000000000000000000000000600052601260045260246000fd5b6000614803826143d7565b915061480e836143d7565b92508261481e5761481d6147c9565b5b828206905092915050565b6000614834826143d7565b915061483f836143d7565b9250828203905060ff81111561485857614857613c5d565b5b92915050565b7f52656365697665642061206e6f6465207769746820616e20756e6b6e6f776e2060008201527f7072656669780000000000000000000000000000000000000000000000000000602082015250565b60006148ba602683613924565b91506148c58261485e565b604082019050919050565b600060208201905081810360008301526148e9816148ad565b9050919050565b7f526563656976656420616e20756e706172736561626c65206e6f64652e000000600082015250565b6000614926601d83613924565b9150614931826148f0565b602082019050919050565b6000602082019050818103600083015261495581614919565b9050919050565b7f496e76616c696420524c50206c6973742076616c75652e000000000000000000600082015250565b6000614992601783613924565b915061499d8261495c565b602082019050919050565b600060208201905081810360008301526149c181614985565b9050919050565b7f50726f766964656420524c50206c6973742065786365656473206d6178206c6960008201527f7374206c656e6774682e00000000000000000000000000000000000000000000602082015250565b6000614a24602a83613924565b9150614a2f826149c8565b604082019050919050565b60006020820190508181036000830152614a5381614a17565b9050919050565b7f524c50206974656d2063616e6e6f74206265206e756c6c2e0000000000000000600082015250565b6000614a90601883613924565b9150614a9b82614a5a565b602082019050919050565b60006020820190508181036000830152614abf81614a83565b9050919050565b7f496e76616c696420524c502073686f727420737472696e672e00000000000000600082015250565b6000614afc601983613924565b9150614b0782614ac6565b602082019050919050565b60006020820190508181036000830152614b2b81614aef565b9050919050565b7f496e76616c696420524c50206c6f6e6720737472696e67206c656e6774682e00600082015250565b6000614b68601f83613924565b9150614b7382614b32565b602082019050919050565b60006020820190508181036000830152614b9781614b5b565b9050919050565b7f496e76616c696420524c50206c6f6e6720737472696e672e0000000000000000600082015250565b6000614bd4601883613924565b9150614bdf82614b9e565b602082019050919050565b60006020820190508181036000830152614c0381614bc7565b9050919050565b7f496e76616c696420524c502073686f7274206c6973742e000000000000000000600082015250565b6000614c40601783613924565b9150614c4b82614c0a565b602082019050919050565b60006020820190508181036000830152614c6f81614c33565b9050919050565b7f496e76616c696420524c50206c6f6e67206c697374206c656e6774682e000000600082015250565b6000614cac601d83613924565b9150614cb782614c76565b602082019050919050565b60006020820190508181036000830152614cdb81614c9f565b9050919050565b7f496e76616c696420524c50206c6f6e67206c6973742e00000000000000000000600082015250565b6000614d18601683613924565b9150614d2382614ce2565b602082019050919050565b60006020820190508181036000830152614d4781614d0b565b9050919050565b7f496e76616c696420524c502062797465732076616c75652e0000000000000000600082015250565b6000614d84601883613924565b9150614d8f82614d4e565b602082019050919050565b60006020820190508181036000830152614db381614d77565b9050919050565b6000614dc5826131b9565b9150614dd0836131b9565b9250828202614dde816131b9565b91508282048414831517614df557614df4613c5d565b5b5092915050565b600081519050614e0b816134dd565b92915050565b600060208284031215614e2757614e266131f7565b5b6000614e3584828501614dfc565b91505092915050565b6000614e49826131b9565b91507fffffffffffffffffffffffffffffffffffffffffffffffffffffffffffffffff8203614e7b57614e7a613c5d565b5b600182019050919050565b6000614e91826131b9565b9150614e9c836131b9565b925082614eac57614eab6147c9565b5b828204905092915050565b7f736c6963655f6f766572666c6f77000000000000000000000000000000000000600082015250565b6000614eed600e83613924565b9150614ef882614eb7565b602082019050919050565b60006020820190508181036000830152614f1c81614ee0565b9050919050565b7f736c6963655f6f75744f66426f756e6473000000000000000000000000000000600082015250565b6000614f59601183613924565b9150614f6482614f23565b602082019050919050565b60006020820190508181036000830152614f8881614f4c565b905091905056fea26469706673582212203e5204a1760abc249879a60c42d0b8caafa442ba0aa4b4f949ef514904646c7264736f6c63430008110033","opcodes":"PUSH2 0x120 PUSH1 0x40 MSTORE CALLVALUE DUP1 ISZERO PUSH3 0x12 JUMPI PUSH1 0x0 DUP1 REVERT JUMPDEST POP PUSH1 0x40 MLOAD PUSH3 0x57E6 CODESIZE SUB DUP1 PUSH3 0x57E6 DUP4 CODECOPY DUP2 DUP2 ADD PUSH1 0x40 MSTORE DUP2 ADD SWAP1 PUSH3 0x38 SWAP2 SWAP1 PUSH3 0x54A JUMP JUMPDEST DUP1 DUP1 DUP9 DUP9 DUP9 DUP9 DUP9 DUP5 DUP5 DUP5 DUP5 DUP5 PUSH3 0x55 CALLER PUSH3 0x294 PUSH1 0x20 SHL PUSH1 0x20 SHR JUMP JUMPDEST PUSH1 0x0 DUP6 PUSH4 0xFFFFFFFF AND SUB PUSH3 0xA1 JUMPI PUSH1 0x40 MLOAD PUSH32 0x8C379A000000000000000000000000000000000000000000000000000000000 DUP2 MSTORE PUSH1 0x4 ADD PUSH3 0x98 SWAP1 PUSH3 0x65E JUMP JUMPDEST PUSH1 0x40 MLOAD DUP1 SWAP2 SUB SWAP1 REVERT JUMPDEST PUSH1 0x0 PUSH20 0xFFFFFFFFFFFFFFFFFFFFFFFFFFFFFFFFFFFFFFFF AND DUP3 PUSH20 0xFFFFFFFFFFFFFFFFFFFFFFFFFFFFFFFFFFFFFFFF AND SUB PUSH3 0x113 JUMPI PUSH1 0x40 MLOAD PUSH32 0x8C379A000000000000000000000000000000000000000000000000000000000 DUP2 MSTORE PUSH1 0x4 ADD PUSH3 0x10A SWAP1 PUSH3 0x6D0 JUMP JUMPDEST PUSH1 0x40 MLOAD DUP1 SWAP2 SUB SWAP1 REVERT JUMPDEST DUP5 PUSH4 0xFFFFFFFF AND PUSH1 0x80 DUP2 PUSH4 0xFFFFFFFF AND DUP2 MSTORE POP POP DUP3 PUSH20 0xFFFFFFFFFFFFFFFFFFFFFFFFFFFFFFFFFFFFFFFF AND PUSH1 0xA0 DUP2 PUSH20 0xFFFFFFFFFFFFFFFFFFFFFFFFFFFFFFFFFFFFFFFF AND DUP2 MSTORE POP POP DUP2 PUSH20 0xFFFFFFFFFFFFFFFFFFFFFFFFFFFFFFFFFFFFFFFF AND PUSH1 0xC0 DUP2 PUSH20 0xFFFFFFFFFFFFFFFFFFFFFFFFFFFFFFFFFFFFFFFF AND DUP2 MSTORE POP POP DUP4 PUSH4 0xFFFFFFFF AND PUSH1 0xE0 DUP2 PUSH4 0xFFFFFFFF AND DUP2 MSTORE POP POP PUSH1 0x0 PUSH20 0xFFFFFFFFFFFFFFFFFFFFFFFFFFFFFFFFFFFFFFFF AND DUP2 PUSH20 0xFFFFFFFFFFFFFFFFFFFFFFFFFFFFFFFFFFFFFFFF AND EQ PUSH3 0x1EA JUMPI PUSH3 0x1E9 DUP2 PUSH3 0x37C PUSH1 0x20 SHL PUSH1 0x20 SHR JUMP JUMPDEST JUMPDEST DUP4 PUSH4 0xFFFFFFFF AND DUP6 PUSH4 0xFFFFFFFF AND PUSH32 0x4F9C27C2FE3F84576EA469D367D044DA53C45E951617E8389F2B5ED8DB9D25F0 DUP6 DUP6 DUP6 PUSH1 0x40 MLOAD PUSH3 0x22D SWAP4 SWAP3 SWAP2 SWAP1 PUSH3 0x703 JUMP JUMPDEST PUSH1 0x40 MLOAD DUP1 SWAP2 SUB SWAP1 LOG3 POP POP POP POP POP POP POP POP POP POP PUSH3 0x250 DUP2 PUSH3 0x41D PUSH1 0x20 SHL PUSH1 0x20 SHR JUMP JUMPDEST POP POP DUP2 PUSH20 0xFFFFFFFFFFFFFFFFFFFFFFFFFFFFFFFFFFFFFFFF AND PUSH2 0x100 DUP2 PUSH20 0xFFFFFFFFFFFFFFFFFFFFFFFFFFFFFFFFFFFFFFFF AND DUP2 MSTORE POP POP POP POP POP POP POP POP POP PUSH3 0x7AB JUMP JUMPDEST DUP1 PUSH20 0xFFFFFFFFFFFFFFFFFFFFFFFFFFFFFFFFFFFFFFFF AND PUSH1 0x0 DUP1 SLOAD SWAP1 PUSH2 0x100 EXP SWAP1 DIV PUSH20 0xFFFFFFFFFFFFFFFFFFFFFFFFFFFFFFFFFFFFFFFF AND PUSH20 0xFFFFFFFFFFFFFFFFFFFFFFFFFFFFFFFFFFFFFFFF AND PUSH32 0x8BE0079C531659141344CD1FD0A4F28419497F9722A3DAAFE3B4186F6B6457E0 PUSH1 0x40 MLOAD PUSH1 0x40 MLOAD DUP1 SWAP2 SUB SWAP1 LOG3 DUP1 PUSH1 0x0 DUP1 PUSH2 0x100 EXP DUP2 SLOAD DUP2 PUSH20 0xFFFFFFFFFFFFFFFFFFFFFFFFFFFFFFFFFFFFFFFF MUL NOT AND SWAP1 DUP4 PUSH20 0xFFFFFFFFFFFFFFFFFFFFFFFFFFFFFFFFFFFFFFFF AND MUL OR SWAP1 SSTORE POP PUSH1 0x2 PUSH1 0x0 SWAP1 SSTORE PUSH1 0x1 PUSH1 0x0 PUSH2 0x100 EXP DUP2 SLOAD SWAP1 PUSH20 0xFFFFFFFFFFFFFFFFFFFFFFFFFFFFFFFFFFFFFFFF MUL NOT AND SWAP1 SSTORE POP JUMP JUMPDEST PUSH32 0xC77BEC288FC88F168427F2F7DA682EADB26CAC89D8D591AF6E443DA98DFF2BBC PUSH1 0x3 PUSH1 0x0 SWAP1 SLOAD SWAP1 PUSH2 0x100 EXP SWAP1 DIV PUSH20 0xFFFFFFFFFFFFFFFFFFFFFFFFFFFFFFFFFFFFFFFF AND DUP3 PUSH1 0x40 MLOAD PUSH3 0x3D1 SWAP3 SWAP2 SWAP1 PUSH3 0x740 JUMP JUMPDEST PUSH1 0x40 MLOAD DUP1 SWAP2 SUB SWAP1 LOG1 DUP1 PUSH1 0x3 PUSH1 0x0 PUSH2 0x100 EXP DUP2 SLOAD DUP2 PUSH20 0xFFFFFFFFFFFFFFFFFFFFFFFFFFFFFFFFFFFFFFFF MUL NOT AND SWAP1 DUP4 PUSH20 0xFFFFFFFFFFFFFFFFFFFFFFFFFFFFFFFFFFFFFFFF AND MUL OR SWAP1 SSTORE POP POP JUMP JUMPDEST PUSH32 0x877A02CB809DA0364D23ADCA3CD50C451B53F279D3DF632E1FC11EB66335BCE5 PUSH1 0x4 SLOAD DUP3 PUSH1 0x40 MLOAD PUSH3 0x452 SWAP3 SWAP2 SWAP1 PUSH3 0x77E JUMP JUMPDEST PUSH1 0x40 MLOAD DUP1 SWAP2 SUB SWAP1 LOG1 DUP1 PUSH1 0x4 DUP2 SWAP1 SSTORE POP POP JUMP JUMPDEST PUSH1 0x0 DUP1 REVERT JUMPDEST PUSH1 0x0 PUSH4 0xFFFFFFFF DUP3 AND SWAP1 POP SWAP2 SWAP1 POP JUMP JUMPDEST PUSH3 0x484 DUP2 PUSH3 0x469 JUMP JUMPDEST DUP2 EQ PUSH3 0x490 JUMPI PUSH1 0x0 DUP1 REVERT JUMPDEST POP JUMP JUMPDEST PUSH1 0x0 DUP2 MLOAD SWAP1 POP PUSH3 0x4A4 DUP2 PUSH3 0x479 JUMP JUMPDEST SWAP3 SWAP2 POP POP JUMP JUMPDEST PUSH1 0x0 PUSH20 0xFFFFFFFFFFFFFFFFFFFFFFFFFFFFFFFFFFFFFFFF DUP3 AND SWAP1 POP SWAP2 SWAP1 POP JUMP JUMPDEST PUSH1 0x0 PUSH3 0x4D7 DUP3 PUSH3 0x4AA JUMP JUMPDEST SWAP1 POP SWAP2 SWAP1 POP JUMP JUMPDEST PUSH3 0x4E9 DUP2 PUSH3 0x4CA JUMP JUMPDEST DUP2 EQ PUSH3 0x4F5 JUMPI PUSH1 0x0 DUP1 REVERT JUMPDEST POP JUMP JUMPDEST PUSH1 0x0 DUP2 MLOAD SWAP1 POP PUSH3 0x509 DUP2 PUSH3 0x4DE JUMP JUMPDEST SWAP3 SWAP2 POP POP JUMP JUMPDEST PUSH1 0x0 DUP2 SWAP1 POP SWAP2 SWAP1 POP JUMP JUMPDEST PUSH3 0x524 DUP2 PUSH3 0x50F JUMP JUMPDEST DUP2 EQ PUSH3 0x530 JUMPI PUSH1 0x0 DUP1 REVERT JUMPDEST POP JUMP JUMPDEST PUSH1 0x0 DUP2 MLOAD SWAP1 POP PUSH3 0x544 DUP2 PUSH3 0x519 JUMP JUMPDEST SWAP3 SWAP2 POP POP JUMP JUMPDEST PUSH1 0x0 DUP1 PUSH1 0x0 DUP1 PUSH1 0x0 DUP1 PUSH1 0x0 PUSH1 0xE0 DUP9 DUP11 SUB SLT ISZERO PUSH3 0x56C JUMPI PUSH3 0x56B PUSH3 0x464 JUMP JUMPDEST JUMPDEST PUSH1 0x0 PUSH3 0x57C DUP11 DUP3 DUP12 ADD PUSH3 0x493 JUMP JUMPDEST SWAP8 POP POP PUSH1 0x20 PUSH3 0x58F DUP11 DUP3 DUP12 ADD PUSH3 0x493 JUMP JUMPDEST SWAP7 POP POP PUSH1 0x40 PUSH3 0x5A2 DUP11 DUP3 DUP12 ADD PUSH3 0x4F8 JUMP JUMPDEST SWAP6 POP POP PUSH1 0x60 PUSH3 0x5B5 DUP11 DUP3 DUP12 ADD PUSH3 0x4F8 JUMP JUMPDEST SWAP5 POP POP PUSH1 0x80 PUSH3 0x5C8 DUP11 DUP3 DUP12 ADD PUSH3 0x4F8 JUMP JUMPDEST SWAP4 POP POP PUSH1 0xA0 PUSH3 0x5DB DUP11 DUP3 DUP12 ADD PUSH3 0x4F8 JUMP JUMPDEST SWAP3 POP POP PUSH1 0xC0 PUSH3 0x5EE DUP11 DUP3 DUP12 ADD PUSH3 0x533 JUMP JUMPDEST SWAP2 POP POP SWAP3 SWAP6 SWAP9 SWAP2 SWAP5 SWAP8 POP SWAP3 SWAP6 POP JUMP JUMPDEST PUSH1 0x0 DUP3 DUP3 MSTORE PUSH1 0x20 DUP3 ADD SWAP1 POP SWAP3 SWAP2 POP POP JUMP JUMPDEST PUSH32 0x656D70747920646F6D61696E0000000000000000000000000000000000000000 PUSH1 0x0 DUP3 ADD MSTORE POP JUMP JUMPDEST PUSH1 0x0 PUSH3 0x646 PUSH1 0xC DUP4 PUSH3 0x5FD JUMP JUMPDEST SWAP2 POP PUSH3 0x653 DUP3 PUSH3 0x60E JUMP JUMPDEST PUSH1 0x20 DUP3 ADD SWAP1 POP SWAP2 SWAP1 POP JUMP JUMPDEST PUSH1 0x0 PUSH1 0x20 DUP3 ADD SWAP1 POP DUP2 DUP2 SUB PUSH1 0x0 DUP4 ADD MSTORE PUSH3 0x679 DUP2 PUSH3 0x637 JUMP JUMPDEST SWAP1 POP SWAP2 SWAP1 POP JUMP JUMPDEST PUSH32 0x656D70747920726F6F744D616E61676572000000000000000000000000000000 PUSH1 0x0 DUP3 ADD MSTORE POP JUMP JUMPDEST PUSH1 0x0 PUSH3 0x6B8 PUSH1 0x11 DUP4 PUSH3 0x5FD JUMP JUMPDEST SWAP2 POP PUSH3 0x6C5 DUP3 PUSH3 0x680 JUMP JUMPDEST PUSH1 0x20 DUP3 ADD SWAP1 POP SWAP2 SWAP1 POP JUMP JUMPDEST PUSH1 0x0 PUSH1 0x20 DUP3 ADD SWAP1 POP DUP2 DUP2 SUB PUSH1 0x0 DUP4 ADD MSTORE PUSH3 0x6EB DUP2 PUSH3 0x6A9 JUMP JUMPDEST SWAP1 POP SWAP2 SWAP1 POP JUMP JUMPDEST PUSH3 0x6FD DUP2 PUSH3 0x4CA JUMP JUMPDEST DUP3 MSTORE POP POP JUMP JUMPDEST PUSH1 0x0 PUSH1 0x60 DUP3 ADD SWAP1 POP PUSH3 0x71A PUSH1 0x0 DUP4 ADD DUP7 PUSH3 0x6F2 JUMP JUMPDEST PUSH3 0x729 PUSH1 0x20 DUP4 ADD DUP6 PUSH3 0x6F2 JUMP JUMPDEST PUSH3 0x738 PUSH1 0x40 DUP4 ADD DUP5 PUSH3 0x6F2 JUMP JUMPDEST SWAP5 SWAP4 POP POP POP POP JUMP JUMPDEST PUSH1 0x0 PUSH1 0x40 DUP3 ADD SWAP1 POP PUSH3 0x757 PUSH1 0x0 DUP4 ADD DUP6 PUSH3 0x6F2 JUMP JUMPDEST PUSH3 0x766 PUSH1 0x20 DUP4 ADD DUP5 PUSH3 0x6F2 JUMP JUMPDEST SWAP4 SWAP3 POP POP POP JUMP JUMPDEST PUSH3 0x778 DUP2 PUSH3 0x50F JUMP JUMPDEST DUP3 MSTORE POP POP JUMP JUMPDEST PUSH1 0x0 PUSH1 0x40 DUP3 ADD SWAP1 POP PUSH3 0x795 PUSH1 0x0 DUP4 ADD DUP6 PUSH3 0x76D JUMP JUMPDEST PUSH3 0x7A4 PUSH1 0x20 DUP4 ADD DUP5 PUSH3 0x76D JUMP JUMPDEST SWAP4 SWAP3 POP POP POP JUMP JUMPDEST PUSH1 0x80 MLOAD PUSH1 0xA0 MLOAD PUSH1 0xC0 MLOAD PUSH1 0xE0 MLOAD PUSH2 0x100 MLOAD PUSH2 0x4FC5 PUSH3 0x821 PUSH1 0x0 CODECOPY PUSH1 0x0 DUP2 DUP2 PUSH2 0x4A6 ADD MSTORE PUSH2 0x16FD ADD MSTORE PUSH1 0x0 DUP2 DUP2 PUSH2 0x4CA ADD MSTORE PUSH2 0x9CA ADD MSTORE PUSH1 0x0 DUP2 DUP2 PUSH2 0x4F8 ADD MSTORE DUP2 DUP2 PUSH2 0x757 ADD MSTORE PUSH2 0x98E ADD MSTORE PUSH1 0x0 DUP2 DUP2 PUSH2 0x5CF ADD MSTORE DUP2 DUP2 PUSH2 0x1066 ADD MSTORE DUP2 DUP2 PUSH2 0x115A ADD MSTORE PUSH2 0x16CD ADD MSTORE PUSH1 0x0 PUSH2 0x6A2 ADD MSTORE PUSH2 0x4FC5 PUSH1 0x0 RETURN INVALID PUSH1 0x80 PUSH1 0x40 MSTORE PUSH1 0x4 CALLDATASIZE LT PUSH2 0x12E JUMPI PUSH1 0x0 CALLDATALOAD PUSH1 0xE0 SHR DUP1 PUSH4 0x715018A6 GT PUSH2 0xAB JUMPI DUP1 PUSH4 0xC5B350DF GT PUSH2 0x6F JUMPI DUP1 PUSH4 0xC5B350DF EQ PUSH2 0x3A4 JUMPI DUP1 PUSH4 0xCC394283 EQ PUSH2 0x3BB JUMPI DUP1 PUSH4 0xD1851C92 EQ PUSH2 0x3E6 JUMPI DUP1 PUSH4 0xD232C220 EQ PUSH2 0x411 JUMPI DUP1 PUSH4 0xD69F9D61 EQ PUSH2 0x43C JUMPI DUP1 PUSH4 0xDB1B7659 EQ PUSH2 0x467 JUMPI PUSH2 0x135 JUMP JUMPDEST DUP1 PUSH4 0x715018A6 EQ PUSH2 0x2D3 JUMPI DUP1 PUSH4 0x7850B020 EQ PUSH2 0x2EA JUMPI DUP1 PUSH4 0x8DA5CB5B EQ PUSH2 0x313 JUMPI DUP1 PUSH4 0xB1F8100D EQ PUSH2 0x33E JUMPI DUP1 PUSH4 0xC1F0808A EQ PUSH2 0x367 JUMPI PUSH2 0x135 JUMP JUMPDEST DUP1 PUSH4 0x52A9674B GT PUSH2 0xF2 JUMPI DUP1 PUSH4 0x52A9674B EQ PUSH2 0x200 JUMPI DUP1 PUSH4 0x5BD11EFC EQ PUSH2 0x22B JUMPI DUP1 PUSH4 0x5F61E3EC EQ PUSH2 0x254 JUMPI DUP1 PUSH4 0x6A42B8F8 EQ PUSH2 0x27F JUMPI DUP1 PUSH4 0x6E2EDB4E EQ PUSH2 0x2AA JUMPI PUSH2 0x135 JUMP JUMPDEST DUP1 PUSH4 0xF329EF8 EQ PUSH2 0x13A JUMPI DUP1 PUSH4 0x14168416 EQ PUSH2 0x165 JUMPI DUP1 PUSH4 0x3CF52FFB EQ PUSH2 0x190 JUMPI DUP1 PUSH4 0x48E6FA23 EQ PUSH2 0x1BB JUMPI DUP1 PUSH4 0x4FF746F6 EQ PUSH2 0x1D7 JUMPI PUSH2 0x135 JUMP JUMPDEST CALLDATASIZE PUSH2 0x135 JUMPI STOP JUMPDEST PUSH1 0x0 DUP1 REVERT JUMPDEST CALLVALUE DUP1 ISZERO PUSH2 0x146 JUMPI PUSH1 0x0 DUP1 REVERT JUMPDEST POP PUSH2 0x14F PUSH2 0x4A4 JUMP JUMPDEST PUSH1 0x40 MLOAD PUSH2 0x15C SWAP2 SWAP1 PUSH2 0x3164 JUMP JUMPDEST PUSH1 0x40 MLOAD DUP1 SWAP2 SUB SWAP1 RETURN JUMPDEST CALLVALUE DUP1 ISZERO PUSH2 0x171 JUMPI PUSH1 0x0 DUP1 REVERT JUMPDEST POP PUSH2 0x17A PUSH2 0x4C8 JUMP JUMPDEST PUSH1 0x40 MLOAD PUSH2 0x187 SWAP2 SWAP1 PUSH2 0x319E JUMP JUMPDEST PUSH1 0x40 MLOAD DUP1 SWAP2 SUB SWAP1 RETURN JUMPDEST CALLVALUE DUP1 ISZERO PUSH2 0x19C JUMPI PUSH1 0x0 DUP1 REVERT JUMPDEST POP PUSH2 0x1A5 PUSH2 0x4EC JUMP JUMPDEST PUSH1 0x40 MLOAD PUSH2 0x1B2 SWAP2 SWAP1 PUSH2 0x31D2 JUMP JUMPDEST PUSH1 0x40 MLOAD DUP1 SWAP2 SUB SWAP1 RETURN JUMPDEST PUSH2 0x1D5 PUSH1 0x4 DUP1 CALLDATASIZE SUB DUP2 ADD SWAP1 PUSH2 0x1D0 SWAP2 SWAP1 PUSH2 0x3347 JUMP JUMPDEST PUSH2 0x4F6 JUMP JUMPDEST STOP JUMPDEST CALLVALUE DUP1 ISZERO PUSH2 0x1E3 JUMPI PUSH1 0x0 DUP1 REVERT JUMPDEST POP PUSH2 0x1FE PUSH1 0x4 DUP1 CALLDATASIZE SUB DUP2 ADD SWAP1 PUSH2 0x1F9 SWAP2 SWAP1 PUSH2 0x33BF JUMP JUMPDEST PUSH2 0x5CD JUMP JUMPDEST STOP JUMPDEST CALLVALUE DUP1 ISZERO PUSH2 0x20C JUMPI PUSH1 0x0 DUP1 REVERT JUMPDEST POP PUSH2 0x215 PUSH2 0x6A0 JUMP JUMPDEST PUSH1 0x40 MLOAD PUSH2 0x222 SWAP2 SWAP1 PUSH2 0x319E JUMP JUMPDEST PUSH1 0x40 MLOAD DUP1 SWAP2 SUB SWAP1 RETURN JUMPDEST CALLVALUE DUP1 ISZERO PUSH2 0x237 JUMPI PUSH1 0x0 DUP1 REVERT JUMPDEST POP PUSH2 0x252 PUSH1 0x4 DUP1 CALLDATASIZE SUB DUP2 ADD SWAP1 PUSH2 0x24D SWAP2 SWAP1 PUSH2 0x3446 JUMP JUMPDEST PUSH2 0x6C4 JUMP JUMPDEST STOP JUMPDEST CALLVALUE DUP1 ISZERO PUSH2 0x260 JUMPI PUSH1 0x0 DUP1 REVERT JUMPDEST POP PUSH2 0x269 PUSH2 0x755 JUMP JUMPDEST PUSH1 0x40 MLOAD PUSH2 0x276 SWAP2 SWAP1 PUSH2 0x3482 JUMP JUMPDEST PUSH1 0x40 MLOAD DUP1 SWAP2 SUB SWAP1 RETURN JUMPDEST CALLVALUE DUP1 ISZERO PUSH2 0x28B JUMPI PUSH1 0x0 DUP1 REVERT JUMPDEST POP PUSH2 0x294 PUSH2 0x779 JUMP JUMPDEST PUSH1 0x40 MLOAD PUSH2 0x2A1 SWAP2 SWAP1 PUSH2 0x31D2 JUMP JUMPDEST PUSH1 0x40 MLOAD DUP1 SWAP2 SUB SWAP1 RETURN JUMPDEST CALLVALUE DUP1 ISZERO PUSH2 0x2B6 JUMPI PUSH1 0x0 DUP1 REVERT JUMPDEST POP PUSH2 0x2D1 PUSH1 0x4 DUP1 CALLDATASIZE SUB DUP2 ADD SWAP1 PUSH2 0x2CC SWAP2 SWAP1 PUSH2 0x37E1 JUMP JUMPDEST PUSH2 0x784 JUMP JUMPDEST STOP JUMPDEST CALLVALUE DUP1 ISZERO PUSH2 0x2DF JUMPI PUSH1 0x0 DUP1 REVERT JUMPDEST POP PUSH2 0x2E8 PUSH2 0xA9C JUMP JUMPDEST STOP JUMPDEST CALLVALUE DUP1 ISZERO PUSH2 0x2F6 JUMPI PUSH1 0x0 DUP1 REVERT JUMPDEST POP PUSH2 0x311 PUSH1 0x4 DUP1 CALLDATASIZE SUB DUP2 ADD SWAP1 PUSH2 0x30C SWAP2 SWAP1 PUSH2 0x3894 JUMP JUMPDEST PUSH2 0xC3A JUMP JUMPDEST STOP JUMPDEST CALLVALUE DUP1 ISZERO PUSH2 0x31F JUMPI PUSH1 0x0 DUP1 REVERT JUMPDEST POP PUSH2 0x328 PUSH2 0xCCB JUMP JUMPDEST PUSH1 0x40 MLOAD PUSH2 0x335 SWAP2 SWAP1 PUSH2 0x3482 JUMP JUMPDEST PUSH1 0x40 MLOAD DUP1 SWAP2 SUB SWAP1 RETURN JUMPDEST CALLVALUE DUP1 ISZERO PUSH2 0x34A JUMPI PUSH1 0x0 DUP1 REVERT JUMPDEST POP PUSH2 0x365 PUSH1 0x4 DUP1 CALLDATASIZE SUB DUP2 ADD SWAP1 PUSH2 0x360 SWAP2 SWAP1 PUSH2 0x3446 JUMP JUMPDEST PUSH2 0xCF4 JUMP JUMPDEST STOP JUMPDEST CALLVALUE DUP1 ISZERO PUSH2 0x373 JUMPI PUSH1 0x0 DUP1 REVERT JUMPDEST POP PUSH2 0x38E PUSH1 0x4 DUP1 CALLDATASIZE SUB DUP2 ADD SWAP1 PUSH2 0x389 SWAP2 SWAP1 PUSH2 0x38C1 JUMP JUMPDEST PUSH2 0xEA1 JUMP JUMPDEST PUSH1 0x40 MLOAD PUSH2 0x39B SWAP2 SWAP1 PUSH2 0x3909 JUMP JUMPDEST PUSH1 0x40 MLOAD DUP1 SWAP2 SUB SWAP1 RETURN JUMPDEST CALLVALUE DUP1 ISZERO PUSH2 0x3B0 JUMPI PUSH1 0x0 DUP1 REVERT JUMPDEST POP PUSH2 0x3B9 PUSH2 0xEC1 JUMP JUMPDEST STOP JUMPDEST CALLVALUE DUP1 ISZERO PUSH2 0x3C7 JUMPI PUSH1 0x0 DUP1 REVERT JUMPDEST POP PUSH2 0x3D0 PUSH2 0xFBE JUMP JUMPDEST PUSH1 0x40 MLOAD PUSH2 0x3DD SWAP2 SWAP1 PUSH2 0x3482 JUMP JUMPDEST PUSH1 0x40 MLOAD DUP1 SWAP2 SUB SWAP1 RETURN JUMPDEST CALLVALUE DUP1 ISZERO PUSH2 0x3F2 JUMPI PUSH1 0x0 DUP1 REVERT JUMPDEST POP PUSH2 0x3FB PUSH2 0xFE4 JUMP JUMPDEST PUSH1 0x40 MLOAD PUSH2 0x408 SWAP2 SWAP1 PUSH2 0x3482 JUMP JUMPDEST PUSH1 0x40 MLOAD DUP1 SWAP2 SUB SWAP1 RETURN JUMPDEST CALLVALUE DUP1 ISZERO PUSH2 0x41D JUMPI PUSH1 0x0 DUP1 REVERT JUMPDEST POP PUSH2 0x426 PUSH2 0x100E JUMP JUMPDEST PUSH1 0x40 MLOAD PUSH2 0x433 SWAP2 SWAP1 PUSH2 0x3909 JUMP JUMPDEST PUSH1 0x40 MLOAD DUP1 SWAP2 SUB SWAP1 RETURN JUMPDEST CALLVALUE DUP1 ISZERO PUSH2 0x448 JUMPI PUSH1 0x0 DUP1 REVERT JUMPDEST POP PUSH2 0x451 PUSH2 0x1064 JUMP JUMPDEST PUSH1 0x40 MLOAD PUSH2 0x45E SWAP2 SWAP1 PUSH2 0x3482 JUMP JUMPDEST PUSH1 0x40 MLOAD DUP1 SWAP2 SUB SWAP1 RETURN JUMPDEST CALLVALUE DUP1 ISZERO PUSH2 0x473 JUMPI PUSH1 0x0 DUP1 REVERT JUMPDEST POP PUSH2 0x48E PUSH1 0x4 DUP1 CALLDATASIZE SUB DUP2 ADD SWAP1 PUSH2 0x489 SWAP2 SWAP1 PUSH2 0x3446 JUMP JUMPDEST PUSH2 0x1088 JUMP JUMPDEST PUSH1 0x40 MLOAD PUSH2 0x49B SWAP2 SWAP1 PUSH2 0x3909 JUMP JUMPDEST PUSH1 0x40 MLOAD DUP1 SWAP2 SUB SWAP1 RETURN JUMPDEST PUSH32 0x0 DUP2 JUMP JUMPDEST PUSH32 0x0 DUP2 JUMP JUMPDEST PUSH1 0x0 PUSH1 0x2 SLOAD SWAP1 POP SWAP1 JUMP JUMPDEST PUSH32 0x0 PUSH20 0xFFFFFFFFFFFFFFFFFFFFFFFFFFFFFFFFFFFFFFFF AND CALLER PUSH20 0xFFFFFFFFFFFFFFFFFFFFFFFFFFFFFFFFFFFFFFFF AND EQ PUSH2 0x584 JUMPI PUSH1 0x40 MLOAD PUSH32 0x8C379A000000000000000000000000000000000000000000000000000000000 DUP2 MSTORE PUSH1 0x4 ADD PUSH2 0x57B SWAP1 PUSH2 0x3981 JUMP JUMPDEST PUSH1 0x40 MLOAD DUP1 SWAP2 SUB SWAP1 REVERT JUMPDEST PUSH2 0x58E DUP3 DUP3 PUSH2 0x109A JUMP JUMPDEST PUSH32 0xDCAA37A042A0087DE79018C629BBD29CEE82CA80BD9BE394E1696BF9E9355077 DUP3 DUP3 CALLER PUSH1 0x40 MLOAD PUSH2 0x5C1 SWAP4 SWAP3 SWAP2 SWAP1 PUSH2 0x3A20 JUMP JUMPDEST PUSH1 0x40 MLOAD DUP1 SWAP2 SUB SWAP1 LOG1 POP POP JUMP JUMPDEST PUSH32 0x0 PUSH20 0xFFFFFFFFFFFFFFFFFFFFFFFFFFFFFFFFFFFFFFFF AND CALLER PUSH20 0xFFFFFFFFFFFFFFFFFFFFFFFFFFFFFFFFFFFFFFFF AND EQ PUSH2 0x65B JUMPI PUSH1 0x40 MLOAD PUSH32 0x8C379A000000000000000000000000000000000000000000000000000000000 DUP2 MSTORE PUSH1 0x4 ADD PUSH2 0x652 SWAP1 PUSH2 0x3AB1 JUMP JUMPDEST PUSH1 0x40 MLOAD DUP1 SWAP2 SUB SWAP1 REVERT JUMPDEST PUSH2 0x664 DUP2 PUSH2 0x1210 JUMP JUMPDEST PUSH32 0xB3ABC57BFEEBD2CAC918901DB582F71972A8E628BCCF19F5AE3E3482B98A5CED DUP2 CALLER PUSH1 0x40 MLOAD PUSH2 0x695 SWAP3 SWAP2 SWAP1 PUSH2 0x3AD1 JUMP JUMPDEST PUSH1 0x40 MLOAD DUP1 SWAP2 SUB SWAP1 LOG1 POP JUMP JUMPDEST PUSH32 0x0 DUP2 JUMP JUMPDEST CALLER PUSH20 0xFFFFFFFFFFFFFFFFFFFFFFFFFFFFFFFFFFFFFFFF AND PUSH1 0x0 DUP1 SLOAD SWAP1 PUSH2 0x100 EXP SWAP1 DIV PUSH20 0xFFFFFFFFFFFFFFFFFFFFFFFFFFFFFFFFFFFFFFFF AND PUSH20 0xFFFFFFFFFFFFFFFFFFFFFFFFFFFFFFFFFFFFFFFF AND EQ PUSH2 0x749 JUMPI PUSH1 0x40 MLOAD PUSH32 0x8D450DD800000000000000000000000000000000000000000000000000000000 DUP2 MSTORE PUSH1 0x4 ADD PUSH1 0x40 MLOAD DUP1 SWAP2 SUB SWAP1 REVERT JUMPDEST PUSH2 0x752 DUP2 PUSH2 0x1242 JUMP JUMPDEST POP JUMP JUMPDEST PUSH32 0x0 DUP2 JUMP JUMPDEST PUSH1 0x0 PUSH3 0x93A80 SWAP1 POP SWAP1 JUMP JUMPDEST PUSH1 0x3 PUSH1 0x0 SWAP1 SLOAD SWAP1 PUSH2 0x100 EXP SWAP1 DIV PUSH20 0xFFFFFFFFFFFFFFFFFFFFFFFFFFFFFFFFFFFFFFFF AND PUSH20 0xFFFFFFFFFFFFFFFFFFFFFFFFFFFFFFFFFFFFFFFF AND DUP5 PUSH20 0xFFFFFFFFFFFFFFFFFFFFFFFFFFFFFFFFFFFFFFFF AND EQ PUSH2 0x814 JUMPI PUSH1 0x40 MLOAD PUSH32 0x8C379A000000000000000000000000000000000000000000000000000000000 DUP2 MSTORE PUSH1 0x4 ADD PUSH2 0x80B SWAP1 PUSH2 0x3B4D JUMP JUMPDEST PUSH1 0x40 MLOAD DUP1 SWAP2 SUB SWAP1 REVERT JUMPDEST ADDRESS PUSH20 0xFFFFFFFFFFFFFFFFFFFFFFFFFFFFFFFFFFFFFFFF AND DUP6 PUSH20 0xFFFFFFFFFFFFFFFFFFFFFFFFFFFFFFFFFFFFFFFF AND EQ PUSH2 0x882 JUMPI PUSH1 0x40 MLOAD PUSH32 0x8C379A000000000000000000000000000000000000000000000000000000000 DUP2 MSTORE PUSH1 0x4 ADD PUSH2 0x879 SWAP1 PUSH2 0x3BB9 JUMP JUMPDEST PUSH1 0x40 MLOAD DUP1 SWAP2 SUB SWAP1 REVERT JUMPDEST PUSH1 0x0 PUSH2 0x890 DUP7 DUP7 DUP7 DUP7 PUSH2 0x12E1 JUMP JUMPDEST SWAP1 POP PUSH2 0x89C DUP2 DUP4 PUSH2 0x1381 JUMP JUMPDEST PUSH2 0x8DB JUMPI PUSH1 0x40 MLOAD PUSH32 0x8C379A000000000000000000000000000000000000000000000000000000000 DUP2 MSTORE PUSH1 0x4 ADD PUSH2 0x8D2 SWAP1 PUSH2 0x3C25 JUMP JUMPDEST PUSH1 0x40 MLOAD DUP1 SWAP2 SUB SWAP1 REVERT JUMPDEST PUSH1 0x0 PUSH2 0x8F1 PUSH1 0x0 DUP7 PUSH2 0x13A6 SWAP1 SWAP2 SWAP1 PUSH4 0xFFFFFFFF AND JUMP JUMPDEST SWAP1 POP PUSH1 0x0 PUSH2 0x939 PUSH1 0x20 PUSH2 0x909 DUP5 PUSH3 0xFFFFFF NOT AND PUSH2 0x13D1 JUMP JUMPDEST PUSH2 0x913 SWAP2 SWAP1 PUSH2 0x3C8C JUMP JUMPDEST PUSH12 0xFFFFFFFFFFFFFFFFFFFFFFFF AND PUSH1 0x20 DUP5 PUSH3 0xFFFFFF NOT AND PUSH2 0x13F1 SWAP1 SWAP3 SWAP2 SWAP1 PUSH4 0xFFFFFFFF AND JUMP JUMPDEST SWAP1 POP PUSH1 0x5 PUSH1 0x0 DUP3 DUP2 MSTORE PUSH1 0x20 ADD SWAP1 DUP2 MSTORE PUSH1 0x20 ADD PUSH1 0x0 KECCAK256 PUSH1 0x0 SWAP1 SLOAD SWAP1 PUSH2 0x100 EXP SWAP1 DIV PUSH1 0xFF AND PUSH2 0xA92 JUMPI PUSH1 0x1 PUSH1 0x5 PUSH1 0x0 DUP4 DUP2 MSTORE PUSH1 0x20 ADD SWAP1 DUP2 MSTORE PUSH1 0x20 ADD PUSH1 0x0 KECCAK256 PUSH1 0x0 PUSH2 0x100 EXP DUP2 SLOAD DUP2 PUSH1 0xFF MUL NOT AND SWAP1 DUP4 ISZERO ISZERO MUL OR SWAP1 SSTORE POP PUSH32 0x0 PUSH20 0xFFFFFFFFFFFFFFFFFFFFFFFFFFFFFFFFFFFFFFFF AND PUSH4 0x8E7D93FA PUSH32 0x0 DUP4 PUSH1 0x40 MLOAD DUP4 PUSH4 0xFFFFFFFF AND PUSH1 0xE0 SHL DUP2 MSTORE PUSH1 0x4 ADD PUSH2 0xA07 SWAP3 SWAP2 SWAP1 PUSH2 0x3CDB JUMP JUMPDEST PUSH1 0x0 PUSH1 0x40 MLOAD DUP1 DUP4 SUB DUP2 PUSH1 0x0 DUP8 DUP1 EXTCODESIZE ISZERO DUP1 ISZERO PUSH2 0xA21 JUMPI PUSH1 0x0 DUP1 REVERT JUMPDEST POP GAS CALL ISZERO DUP1 ISZERO PUSH2 0xA35 JUMPI RETURNDATASIZE PUSH1 0x0 DUP1 RETURNDATACOPY RETURNDATASIZE PUSH1 0x0 REVERT JUMPDEST POP POP POP POP PUSH32 0xB3ABC57BFEEBD2CAC918901DB582F71972A8E628BCCF19F5AE3E3482B98A5CED DUP2 PUSH1 0x40 MLOAD PUSH1 0x20 ADD PUSH2 0xA6B SWAP2 SWAP1 PUSH2 0x3D04 JUMP JUMPDEST PUSH1 0x40 MLOAD PUSH1 0x20 DUP2 DUP4 SUB SUB DUP2 MSTORE SWAP1 PUSH1 0x40 MSTORE CALLER PUSH1 0x40 MLOAD PUSH2 0xA89 SWAP3 SWAP2 SWAP1 PUSH2 0x3AD1 JUMP JUMPDEST PUSH1 0x40 MLOAD DUP1 SWAP2 SUB SWAP1 LOG1 JUMPDEST POP POP POP POP POP POP POP POP JUMP JUMPDEST CALLER PUSH20 0xFFFFFFFFFFFFFFFFFFFFFFFFFFFFFFFFFFFFFFFF AND PUSH1 0x0 DUP1 SLOAD SWAP1 PUSH2 0x100 EXP SWAP1 DIV PUSH20 0xFFFFFFFFFFFFFFFFFFFFFFFFFFFFFFFFFFFFFFFF AND PUSH20 0xFFFFFFFFFFFFFFFFFFFFFFFFFFFFFFFFFFFFFFFF AND EQ PUSH2 0xB21 JUMPI PUSH1 0x40 MLOAD PUSH32 0x8D450DD800000000000000000000000000000000000000000000000000000000 DUP2 MSTORE PUSH1 0x4 ADD PUSH1 0x40 MLOAD DUP1 SWAP2 SUB SWAP1 REVERT JUMPDEST PUSH3 0x93A80 PUSH1 0x2 SLOAD TIMESTAMP PUSH2 0xB33 SWAP2 SWAP1 PUSH2 0x3D1F JUMP JUMPDEST GT PUSH2 0xB6A JUMPI PUSH1 0x40 MLOAD PUSH32 0x9380A17C00000000000000000000000000000000000000000000000000000000 DUP2 MSTORE PUSH1 0x4 ADD PUSH1 0x40 MLOAD DUP1 SWAP2 SUB SWAP1 REVERT JUMPDEST PUSH1 0x0 PUSH1 0x2 SLOAD SUB PUSH2 0xBA6 JUMPI PUSH1 0x40 MLOAD PUSH32 0x392CC0FC00000000000000000000000000000000000000000000000000000000 DUP2 MSTORE PUSH1 0x4 ADD PUSH1 0x40 MLOAD DUP1 SWAP2 SUB SWAP1 REVERT JUMPDEST PUSH1 0x0 PUSH20 0xFFFFFFFFFFFFFFFFFFFFFFFFFFFFFFFFFFFFFFFF AND PUSH1 0x1 PUSH1 0x0 SWAP1 SLOAD SWAP1 PUSH2 0x100 EXP SWAP1 DIV PUSH20 0xFFFFFFFFFFFFFFFFFFFFFFFFFFFFFFFFFFFFFFFF AND PUSH20 0xFFFFFFFFFFFFFFFFFFFFFFFFFFFFFFFFFFFFFFFF AND EQ PUSH2 0xC2E JUMPI PUSH1 0x40 MLOAD PUSH32 0x23295EF900000000000000000000000000000000000000000000000000000000 DUP2 MSTORE PUSH1 0x4 ADD PUSH1 0x40 MLOAD DUP1 SWAP2 SUB SWAP1 REVERT JUMPDEST PUSH2 0xC38 PUSH1 0x0 PUSH2 0x150B JUMP JUMPDEST JUMP JUMPDEST CALLER PUSH20 0xFFFFFFFFFFFFFFFFFFFFFFFFFFFFFFFFFFFFFFFF AND PUSH1 0x0 DUP1 SLOAD SWAP1 PUSH2 0x100 EXP SWAP1 DIV PUSH20 0xFFFFFFFFFFFFFFFFFFFFFFFFFFFFFFFFFFFFFFFF AND PUSH20 0xFFFFFFFFFFFFFFFFFFFFFFFFFFFFFFFFFFFFFFFF AND EQ PUSH2 0xCBF JUMPI PUSH1 0x40 MLOAD PUSH32 0x8D450DD800000000000000000000000000000000000000000000000000000000 DUP2 MSTORE PUSH1 0x4 ADD PUSH1 0x40 MLOAD DUP1 SWAP2 SUB SWAP1 REVERT JUMPDEST PUSH2 0xCC8 DUP2 PUSH2 0x15F3 JUMP JUMPDEST POP JUMP JUMPDEST PUSH1 0x0 DUP1 PUSH1 0x0 SWAP1 SLOAD SWAP1 PUSH2 0x100 EXP SWAP1 DIV PUSH20 0xFFFFFFFFFFFFFFFFFFFFFFFFFFFFFFFFFFFFFFFF AND SWAP1 POP SWAP1 JUMP JUMPDEST CALLER PUSH20 0xFFFFFFFFFFFFFFFFFFFFFFFFFFFFFFFFFFFFFFFF AND PUSH1 0x0 DUP1 SLOAD SWAP1 PUSH2 0x100 EXP SWAP1 DIV PUSH20 0xFFFFFFFFFFFFFFFFFFFFFFFFFFFFFFFFFFFFFFFF AND PUSH20 0xFFFFFFFFFFFFFFFFFFFFFFFFFFFFFFFFFFFFFFFF AND EQ PUSH2 0xD79 JUMPI PUSH1 0x40 MLOAD PUSH32 0x8D450DD800000000000000000000000000000000000000000000000000000000 DUP2 MSTORE PUSH1 0x4 ADD PUSH1 0x40 MLOAD DUP1 SWAP2 SUB SWAP1 REVERT JUMPDEST DUP1 PUSH20 0xFFFFFFFFFFFFFFFFFFFFFFFFFFFFFFFFFFFFFFFF AND PUSH1 0x1 PUSH1 0x0 SWAP1 SLOAD SWAP1 PUSH2 0x100 EXP SWAP1 DIV PUSH20 0xFFFFFFFFFFFFFFFFFFFFFFFFFFFFFFFFFFFFFFFF AND PUSH20 0xFFFFFFFFFFFFFFFFFFFFFFFFFFFFFFFFFFFFFFFF AND EQ DUP1 ISZERO PUSH2 0xDD9 JUMPI POP PUSH1 0x0 PUSH1 0x2 SLOAD EQ ISZERO JUMPDEST ISZERO PUSH2 0xE10 JUMPI PUSH1 0x40 MLOAD PUSH32 0x23780CCA00000000000000000000000000000000000000000000000000000000 DUP2 MSTORE PUSH1 0x4 ADD PUSH1 0x40 MLOAD DUP1 SWAP2 SUB SWAP1 REVERT JUMPDEST DUP1 PUSH20 0xFFFFFFFFFFFFFFFFFFFFFFFFFFFFFFFFFFFFFFFF AND PUSH1 0x0 DUP1 SLOAD SWAP1 PUSH2 0x100 EXP SWAP1 DIV PUSH20 0xFFFFFFFFFFFFFFFFFFFFFFFFFFFFFFFFFFFFFFFF AND PUSH20 0xFFFFFFFFFFFFFFFFFFFFFFFFFFFFFFFFFFFFFFFF AND SUB PUSH2 0xE95 JUMPI PUSH1 0x40 MLOAD PUSH32 0x945F6E7E00000000000000000000000000000000000000000000000000000000 DUP2 MSTORE PUSH1 0x4 ADD PUSH1 0x40 MLOAD DUP1 SWAP2 SUB SWAP1 REVERT JUMPDEST PUSH2 0xE9E DUP2 PUSH2 0x1638 JUMP JUMPDEST POP JUMP JUMPDEST PUSH1 0x5 PUSH1 0x20 MSTORE DUP1 PUSH1 0x0 MSTORE PUSH1 0x40 PUSH1 0x0 KECCAK256 PUSH1 0x0 SWAP2 POP SLOAD SWAP1 PUSH2 0x100 EXP SWAP1 DIV PUSH1 0xFF AND DUP2 JUMP JUMPDEST CALLER PUSH20 0xFFFFFFFFFFFFFFFFFFFFFFFFFFFFFFFFFFFFFFFF AND PUSH1 0x1 PUSH1 0x0 SWAP1 SLOAD SWAP1 PUSH2 0x100 EXP SWAP1 DIV PUSH20 0xFFFFFFFFFFFFFFFFFFFFFFFFFFFFFFFFFFFFFFFF AND PUSH20 0xFFFFFFFFFFFFFFFFFFFFFFFFFFFFFFFFFFFFFFFF AND EQ PUSH2 0xF48 JUMPI PUSH1 0x40 MLOAD PUSH32 0x234FE4E200000000000000000000000000000000000000000000000000000000 DUP2 MSTORE PUSH1 0x4 ADD PUSH1 0x40 MLOAD DUP1 SWAP2 SUB SWAP1 REVERT JUMPDEST PUSH3 0x93A80 PUSH1 0x2 SLOAD TIMESTAMP PUSH2 0xF5A SWAP2 SWAP1 PUSH2 0x3D1F JUMP JUMPDEST GT PUSH2 0xF91 JUMPI PUSH1 0x40 MLOAD PUSH32 0x9380A17C00000000000000000000000000000000000000000000000000000000 DUP2 MSTORE PUSH1 0x4 ADD PUSH1 0x40 MLOAD DUP1 SWAP2 SUB SWAP1 REVERT JUMPDEST PUSH2 0xFBC PUSH1 0x1 PUSH1 0x0 SWAP1 SLOAD SWAP1 PUSH2 0x100 EXP SWAP1 DIV PUSH20 0xFFFFFFFFFFFFFFFFFFFFFFFFFFFFFFFFFFFFFFFF AND PUSH2 0x150B JUMP JUMPDEST JUMP JUMPDEST PUSH1 0x3 PUSH1 0x0 SWAP1 SLOAD SWAP1 PUSH2 0x100 EXP SWAP1 DIV PUSH20 0xFFFFFFFFFFFFFFFFFFFFFFFFFFFFFFFFFFFFFFFF AND DUP2 JUMP JUMPDEST PUSH1 0x0 PUSH1 0x1 PUSH1 0x0 SWAP1 SLOAD SWAP1 PUSH2 0x100 EXP SWAP1 DIV PUSH20 0xFFFFFFFFFFFFFFFFFFFFFFFFFFFFFFFFFFFFFFFF AND SWAP1 POP SWAP1 JUMP JUMPDEST PUSH1 0x0 DUP1 PUSH20 0xFFFFFFFFFFFFFFFFFFFFFFFFFFFFFFFFFFFFFFFF AND PUSH1 0x0 DUP1 SLOAD SWAP1 PUSH2 0x100 EXP SWAP1 DIV PUSH20 0xFFFFFFFFFFFFFFFFFFFFFFFFFFFFFFFFFFFFFFFF AND PUSH20 0xFFFFFFFFFFFFFFFFFFFFFFFFFFFFFFFFFFFFFFFF AND EQ SWAP1 POP SWAP1 JUMP JUMPDEST PUSH32 0x0 DUP2 JUMP JUMPDEST PUSH1 0x0 PUSH2 0x1093 DUP3 PUSH2 0x16C6 JUMP JUMPDEST SWAP1 POP SWAP2 SWAP1 POP JUMP JUMPDEST PUSH1 0x20 DUP3 MLOAD EQ PUSH2 0x10DE JUMPI PUSH1 0x40 MLOAD PUSH32 0x8C379A000000000000000000000000000000000000000000000000000000000 DUP2 MSTORE PUSH1 0x4 ADD PUSH2 0x10D5 SWAP1 PUSH2 0x3D9F JUMP JUMPDEST PUSH1 0x40 MLOAD DUP1 SWAP2 SUB SWAP1 REVERT JUMPDEST PUSH1 0x0 PUSH4 0x4FF746F6 PUSH1 0xE0 SHL DUP4 PUSH1 0x40 MLOAD PUSH1 0x24 ADD PUSH2 0x10F9 SWAP2 SWAP1 PUSH2 0x3DBF JUMP JUMPDEST PUSH1 0x40 MLOAD PUSH1 0x20 DUP2 DUP4 SUB SUB DUP2 MSTORE SWAP1 PUSH1 0x40 MSTORE SWAP1 PUSH28 0xFFFFFFFFFFFFFFFFFFFFFFFFFFFFFFFFFFFFFFFFFFFFFFFFFFFFFFFF NOT AND PUSH1 0x20 DUP3 ADD DUP1 MLOAD PUSH28 0xFFFFFFFFFFFFFFFFFFFFFFFFFFFFFFFFFFFFFFFFFFFFFFFFFFFFFFFF DUP4 DUP2 DUP4 AND OR DUP4 MSTORE POP POP POP POP SWAP1 POP PUSH32 0x0 PUSH20 0xFFFFFFFFFFFFFFFFFFFFFFFFFFFFFFFFFFFFFFFF AND PUSH4 0x3DBB202B PUSH1 0x3 PUSH1 0x0 SWAP1 SLOAD SWAP1 PUSH2 0x100 EXP SWAP1 DIV PUSH20 0xFFFFFFFFFFFFFFFFFFFFFFFFFFFFFFFFFFFFFFFF AND DUP4 PUSH1 0x4 SLOAD PUSH1 0x40 MLOAD DUP5 PUSH4 0xFFFFFFFF AND PUSH1 0xE0 SHL DUP2 MSTORE PUSH1 0x4 ADD PUSH2 0x11D9 SWAP4 SWAP3 SWAP2 SWAP1 PUSH2 0x3DE1 JUMP JUMPDEST PUSH1 0x0 PUSH1 0x40 MLOAD DUP1 DUP4 SUB DUP2 PUSH1 0x0 DUP8 DUP1 EXTCODESIZE ISZERO DUP1 ISZERO PUSH2 0x11F3 JUMPI PUSH1 0x0 DUP1 REVERT JUMPDEST POP GAS CALL ISZERO DUP1 ISZERO PUSH2 0x1207 JUMPI RETURNDATASIZE PUSH1 0x0 DUP1 RETURNDATACOPY RETURNDATASIZE PUSH1 0x0 REVERT JUMPDEST POP POP POP POP POP POP POP JUMP JUMPDEST PUSH1 0x40 MLOAD PUSH32 0x5B0BF6D400000000000000000000000000000000000000000000000000000000 DUP2 MSTORE PUSH1 0x4 ADD PUSH1 0x40 MLOAD DUP1 SWAP2 SUB SWAP1 REVERT JUMPDEST PUSH32 0xC77BEC288FC88F168427F2F7DA682EADB26CAC89D8D591AF6E443DA98DFF2BBC PUSH1 0x3 PUSH1 0x0 SWAP1 SLOAD SWAP1 PUSH2 0x100 EXP SWAP1 DIV PUSH20 0xFFFFFFFFFFFFFFFFFFFFFFFFFFFFFFFFFFFFFFFF AND DUP3 PUSH1 0x40 MLOAD PUSH2 0x1295 SWAP3 SWAP2 SWAP1 PUSH2 0x3E1F JUMP JUMPDEST PUSH1 0x40 MLOAD DUP1 SWAP2 SUB SWAP1 LOG1 DUP1 PUSH1 0x3 PUSH1 0x0 PUSH2 0x100 EXP DUP2 SLOAD DUP2 PUSH20 0xFFFFFFFFFFFFFFFFFFFFFFFFFFFFFFFFFFFFFFFF MUL NOT AND SWAP1 DUP4 PUSH20 0xFFFFFFFFFFFFFFFFFFFFFFFFFFFFFFFFFFFFFFFF AND MUL OR SWAP1 SSTORE POP POP JUMP JUMPDEST PUSH1 0x60 DUP5 DUP5 DUP5 DUP5 PUSH1 0x40 MLOAD PUSH1 0x24 ADD PUSH2 0x12FA SWAP5 SWAP4 SWAP3 SWAP2 SWAP1 PUSH2 0x3E48 JUMP JUMPDEST PUSH1 0x40 MLOAD PUSH1 0x20 DUP2 DUP4 SUB SUB DUP2 MSTORE SWAP1 PUSH1 0x40 MSTORE PUSH32 0xCBD4ECE900000000000000000000000000000000000000000000000000000000 PUSH28 0xFFFFFFFFFFFFFFFFFFFFFFFFFFFFFFFFFFFFFFFFFFFFFFFFFFFFFFFF NOT AND PUSH1 0x20 DUP3 ADD DUP1 MLOAD PUSH28 0xFFFFFFFFFFFFFFFFFFFFFFFFFFFFFFFFFFFFFFFFFFFFFFFFFFFFFFFF DUP4 DUP2 DUP4 AND OR DUP4 MSTORE POP POP POP POP SWAP1 POP SWAP5 SWAP4 POP POP POP POP JUMP JUMPDEST PUSH1 0x0 PUSH2 0x138C DUP3 PUSH2 0x16F9 JUMP JUMPDEST DUP1 ISZERO PUSH2 0x139E JUMPI POP PUSH2 0x139D DUP4 DUP4 PUSH2 0x17AC JUMP JUMPDEST JUMPDEST SWAP1 POP SWAP3 SWAP2 POP POP JUMP JUMPDEST PUSH1 0x0 DUP1 DUP4 MLOAD SWAP1 POP PUSH1 0x0 PUSH1 0x20 DUP6 ADD SWAP1 POP PUSH2 0x13C7 DUP5 PUSH5 0xFFFFFFFFFF AND DUP3 DUP5 PUSH2 0x1917 JUMP JUMPDEST SWAP3 POP POP POP SWAP3 SWAP2 POP POP JUMP JUMPDEST PUSH1 0x0 DUP1 PUSH12 0xFFFFFFFFFFFFFFFFFFFFFFFF SWAP1 POP DUP1 DUP4 PUSH1 0x18 SHR AND SWAP2 POP POP SWAP2 SWAP1 POP JUMP JUMPDEST PUSH1 0x0 DUP1 DUP3 PUSH1 0xFF AND SUB PUSH2 0x1408 JUMPI PUSH1 0x0 DUP1 SHL SWAP1 POP PUSH2 0x1504 JUMP JUMPDEST PUSH2 0x1411 DUP5 PUSH2 0x13D1 JUMP JUMPDEST PUSH12 0xFFFFFFFFFFFFFFFFFFFFFFFF AND DUP3 PUSH1 0xFF AND DUP5 PUSH2 0x142E SWAP2 SWAP1 PUSH2 0x3E94 JUMP JUMPDEST GT ISZERO PUSH2 0x148A JUMPI PUSH2 0x143D DUP5 PUSH2 0x197E JUMP JUMPDEST PUSH2 0x1446 DUP6 PUSH2 0x13D1 JUMP JUMPDEST DUP5 DUP5 PUSH1 0xFF AND PUSH1 0x40 MLOAD PUSH32 0x78218D2900000000000000000000000000000000000000000000000000000000 DUP2 MSTORE PUSH1 0x4 ADD PUSH2 0x1481 SWAP5 SWAP4 SWAP3 SWAP2 SWAP1 PUSH2 0x3EF9 JUMP JUMPDEST PUSH1 0x40 MLOAD DUP1 SWAP2 SUB SWAP1 REVERT JUMPDEST PUSH1 0x20 DUP3 PUSH1 0xFF AND GT ISZERO PUSH2 0x14C8 JUMPI PUSH1 0x40 MLOAD PUSH32 0x45DF3F900000000000000000000000000000000000000000000000000000000 DUP2 MSTORE PUSH1 0x4 ADD PUSH1 0x40 MLOAD DUP1 SWAP2 SUB SWAP1 REVERT JUMPDEST PUSH1 0x0 PUSH1 0x8 DUP4 MUL SWAP1 POP PUSH1 0x0 PUSH2 0x14DB DUP7 PUSH2 0x197E JUMP JUMPDEST PUSH12 0xFFFFFFFFFFFFFFFFFFFFFFFF AND SWAP1 POP PUSH1 0x0 PUSH2 0x14F6 DUP4 PUSH2 0x199E JUMP JUMPDEST SWAP1 POP DUP1 DUP7 DUP4 ADD MLOAD AND SWAP4 POP POP POP POP JUMPDEST SWAP4 SWAP3 POP POP POP JUMP JUMPDEST DUP1 PUSH20 0xFFFFFFFFFFFFFFFFFFFFFFFFFFFFFFFFFFFFFFFF AND PUSH1 0x0 DUP1 SLOAD SWAP1 PUSH2 0x100 EXP SWAP1 DIV PUSH20 0xFFFFFFFFFFFFFFFFFFFFFFFFFFFFFFFFFFFFFFFF AND PUSH20 0xFFFFFFFFFFFFFFFFFFFFFFFFFFFFFFFFFFFFFFFF AND PUSH32 0x8BE0079C531659141344CD1FD0A4F28419497F9722A3DAAFE3B4186F6B6457E0 PUSH1 0x40 MLOAD PUSH1 0x40 MLOAD DUP1 SWAP2 SUB SWAP1 LOG3 DUP1 PUSH1 0x0 DUP1 PUSH2 0x100 EXP DUP2 SLOAD DUP2 PUSH20 0xFFFFFFFFFFFFFFFFFFFFFFFFFFFFFFFFFFFFFFFF MUL NOT AND SWAP1 DUP4 PUSH20 0xFFFFFFFFFFFFFFFFFFFFFFFFFFFFFFFFFFFFFFFF AND MUL OR SWAP1 SSTORE POP PUSH1 0x2 PUSH1 0x0 SWAP1 SSTORE PUSH1 0x1 PUSH1 0x0 PUSH2 0x100 EXP DUP2 SLOAD SWAP1 PUSH20 0xFFFFFFFFFFFFFFFFFFFFFFFFFFFFFFFFFFFFFFFF MUL NOT AND SWAP1 SSTORE POP JUMP JUMPDEST PUSH32 0x877A02CB809DA0364D23ADCA3CD50C451B53F279D3DF632E1FC11EB66335BCE5 PUSH1 0x4 SLOAD DUP3 PUSH1 0x40 MLOAD PUSH2 0x1626 SWAP3 SWAP2 SWAP1 PUSH2 0x3F3E JUMP JUMPDEST PUSH1 0x40 MLOAD DUP1 SWAP2 SUB SWAP1 LOG1 DUP1 PUSH1 0x4 DUP2 SWAP1 SSTORE POP POP JUMP JUMPDEST TIMESTAMP PUSH1 0x2 DUP2 SWAP1 SSTORE POP DUP1 PUSH1 0x1 PUSH1 0x0 PUSH2 0x100 EXP DUP2 SLOAD DUP2 PUSH20 0xFFFFFFFFFFFFFFFFFFFFFFFFFFFFFFFFFFFFFFFF MUL NOT AND SWAP1 DUP4 PUSH20 0xFFFFFFFFFFFFFFFFFFFFFFFFFFFFFFFFFFFFFFFF AND MUL OR SWAP1 SSTORE POP DUP1 PUSH20 0xFFFFFFFFFFFFFFFFFFFFFFFFFFFFFFFFFFFFFFFF AND PUSH32 0x6AB4D119F23076E8AD491BC65CE85F017FB0591DCE08755BA8591059CC51737A PUSH1 0x40 MLOAD PUSH1 0x40 MLOAD DUP1 SWAP2 SUB SWAP1 LOG2 POP JUMP JUMPDEST PUSH1 0x0 PUSH2 0x16F2 PUSH32 0x0 DUP4 PUSH2 0x19CD JUMP JUMPDEST SWAP1 POP SWAP2 SWAP1 POP JUMP JUMPDEST PUSH1 0x0 PUSH32 0x0 PUSH20 0xFFFFFFFFFFFFFFFFFFFFFFFFFFFFFFFFFFFFFFFF AND PUSH4 0x4D69EE57 DUP4 PUSH1 0x0 ADD MLOAD DUP5 PUSH1 0x20 ADD MLOAD DUP6 PUSH1 0x40 ADD MLOAD PUSH1 0x40 MLOAD DUP5 PUSH4 0xFFFFFFFF AND PUSH1 0xE0 SHL DUP2 MSTORE PUSH1 0x4 ADD PUSH2 0x1764 SWAP4 SWAP3 SWAP2 SWAP1 PUSH2 0x4131 JUMP JUMPDEST PUSH1 0x20 PUSH1 0x40 MLOAD DUP1 DUP4 SUB DUP2 DUP7 GAS STATICCALL ISZERO DUP1 ISZERO PUSH2 0x1781 JUMPI RETURNDATASIZE PUSH1 0x0 DUP1 RETURNDATACOPY RETURNDATASIZE PUSH1 0x0 REVERT JUMPDEST POP POP POP POP PUSH1 0x40 MLOAD RETURNDATASIZE PUSH1 0x1F NOT PUSH1 0x1F DUP3 ADD AND DUP3 ADD DUP1 PUSH1 0x40 MSTORE POP DUP2 ADD SWAP1 PUSH2 0x17A5 SWAP2 SWAP1 PUSH2 0x41A2 JUMP JUMPDEST SWAP1 POP SWAP2 SWAP1 POP JUMP JUMPDEST PUSH1 0x0 DUP1 DUP4 PUSH20 0x4200000000000000000000000000000000000007 PUSH1 0x40 MLOAD PUSH1 0x20 ADD PUSH2 0x17D6 SWAP3 SWAP2 SWAP1 PUSH2 0x4253 JUMP JUMPDEST PUSH1 0x40 MLOAD PUSH1 0x20 DUP2 DUP4 SUB SUB DUP2 MSTORE SWAP1 PUSH1 0x40 MSTORE DUP1 MLOAD SWAP1 PUSH1 0x20 ADD KECCAK256 PUSH1 0x0 PUSH1 0x40 MLOAD PUSH1 0x20 ADD PUSH2 0x17FF SWAP3 SWAP2 SWAP1 PUSH2 0x42BD JUMP JUMPDEST PUSH1 0x40 MLOAD PUSH1 0x20 DUP2 DUP4 SUB SUB DUP2 MSTORE SWAP1 PUSH1 0x40 MSTORE DUP1 MLOAD SWAP1 PUSH1 0x20 ADD KECCAK256 SWAP1 POP PUSH1 0x0 DUP1 PUSH2 0x1860 PUSH20 0x4200000000000000000000000000000000000000 PUSH1 0x40 MLOAD PUSH1 0x20 ADD PUSH2 0x1842 SWAP2 SWAP1 PUSH2 0x42E9 JUMP JUMPDEST PUSH1 0x40 MLOAD PUSH1 0x20 DUP2 DUP4 SUB SUB DUP2 MSTORE SWAP1 PUSH1 0x40 MSTORE DUP7 PUSH1 0x60 ADD MLOAD DUP8 PUSH1 0x0 ADD MLOAD PUSH2 0x1AE2 JUMP JUMPDEST SWAP2 POP SWAP2 POP PUSH1 0x1 ISZERO ISZERO DUP3 ISZERO ISZERO EQ PUSH2 0x18AB JUMPI PUSH1 0x40 MLOAD PUSH32 0x8C379A000000000000000000000000000000000000000000000000000000000 DUP2 MSTORE PUSH1 0x4 ADD PUSH2 0x18A2 SWAP1 PUSH2 0x439C JUMP JUMPDEST PUSH1 0x40 MLOAD DUP1 SWAP2 SUB SWAP1 REVERT JUMPDEST PUSH1 0x0 PUSH2 0x18B6 DUP3 PUSH2 0x1B0B JUMP JUMPDEST SWAP1 POP PUSH2 0x190B DUP5 PUSH1 0x40 MLOAD PUSH1 0x20 ADD PUSH2 0x18CC SWAP2 SWAP1 PUSH2 0x43BC JUMP JUMPDEST PUSH1 0x40 MLOAD PUSH1 0x20 DUP2 DUP4 SUB SUB DUP2 MSTORE SWAP1 PUSH1 0x40 MSTORE PUSH1 0x1 PUSH1 0x40 MLOAD PUSH1 0x20 ADD PUSH2 0x18ED SWAP2 SWAP1 PUSH2 0x441A JUMP JUMPDEST PUSH1 0x40 MLOAD PUSH1 0x20 DUP2 DUP4 SUB SUB DUP2 MSTORE SWAP1 PUSH1 0x40 MSTORE DUP9 PUSH1 0x80 ADD MLOAD DUP5 PUSH1 0x40 ADD MLOAD PUSH2 0x1BD5 JUMP JUMPDEST SWAP5 POP POP POP POP POP SWAP3 SWAP2 POP POP JUMP JUMPDEST PUSH1 0x0 DUP1 DUP3 DUP5 PUSH2 0x1926 SWAP2 SWAP1 PUSH2 0x3E94 JUMP JUMPDEST SWAP1 POP PUSH1 0x40 MLOAD DUP2 GT ISZERO PUSH2 0x1937 JUMPI PUSH1 0x0 SWAP1 POP JUMPDEST PUSH1 0x0 DUP2 SUB PUSH2 0x1968 JUMPI PUSH32 0xFFFFFFFFFFFFFFFFFFFFFFFFFFFFFFFFFFFFFFFFFFFFFFFFFFFFFFFFFF000000 SWAP2 POP POP PUSH2 0x1977 JUMP JUMPDEST PUSH2 0x1973 DUP6 DUP6 DUP6 PUSH2 0x1BFA JUMP JUMPDEST SWAP2 POP POP JUMPDEST SWAP4 SWAP3 POP POP POP JUMP JUMPDEST PUSH1 0x0 DUP1 PUSH12 0xFFFFFFFFFFFFFFFFFFFFFFFF SWAP1 POP DUP1 DUP4 PUSH1 0x78 SHR AND SWAP2 POP POP SWAP2 SWAP1 POP JUMP JUMPDEST PUSH1 0x0 PUSH32 0x8000000000000000000000000000000000000000000000000000000000000000 PUSH1 0x1 DUP4 SUB SAR SWAP1 POP SWAP2 SWAP1 POP JUMP JUMPDEST PUSH1 0x0 DUP3 PUSH20 0xFFFFFFFFFFFFFFFFFFFFFFFFFFFFFFFFFFFFFFFF AND CALLER PUSH20 0xFFFFFFFFFFFFFFFFFFFFFFFFFFFFFFFFFFFFFFFF AND EQ PUSH2 0x1A3D JUMPI PUSH1 0x40 MLOAD PUSH32 0x8C379A000000000000000000000000000000000000000000000000000000000 DUP2 MSTORE PUSH1 0x4 ADD PUSH2 0x1A34 SWAP1 PUSH2 0x4481 JUMP JUMPDEST PUSH1 0x40 MLOAD DUP1 SWAP2 SUB SWAP1 REVERT JUMPDEST DUP2 PUSH20 0xFFFFFFFFFFFFFFFFFFFFFFFFFFFFFFFFFFFFFFFF AND DUP4 PUSH20 0xFFFFFFFFFFFFFFFFFFFFFFFFFFFFFFFFFFFFFFFF AND PUSH4 0x6E296E45 PUSH1 0x40 MLOAD DUP2 PUSH4 0xFFFFFFFF AND PUSH1 0xE0 SHL DUP2 MSTORE PUSH1 0x4 ADD PUSH1 0x20 PUSH1 0x40 MLOAD DUP1 DUP4 SUB DUP2 DUP7 GAS STATICCALL ISZERO DUP1 ISZERO PUSH2 0x1A9F JUMPI RETURNDATASIZE PUSH1 0x0 DUP1 RETURNDATACOPY RETURNDATASIZE PUSH1 0x0 REVERT JUMPDEST POP POP POP POP PUSH1 0x40 MLOAD RETURNDATASIZE PUSH1 0x1F NOT PUSH1 0x1F DUP3 ADD AND DUP3 ADD DUP1 PUSH1 0x40 MSTORE POP DUP2 ADD SWAP1 PUSH2 0x1AC3 SWAP2 SWAP1 PUSH2 0x44B6 JUMP JUMPDEST PUSH20 0xFFFFFFFFFFFFFFFFFFFFFFFFFFFFFFFFFFFFFFFF AND EQ SWAP1 POP SWAP3 SWAP2 POP POP JUMP JUMPDEST PUSH1 0x0 PUSH1 0x60 PUSH1 0x0 PUSH2 0x1AF1 DUP7 PUSH2 0x1C98 JUMP JUMPDEST SWAP1 POP PUSH2 0x1AFE DUP2 DUP7 DUP7 PUSH2 0x1CC8 JUMP JUMPDEST SWAP3 POP SWAP3 POP POP SWAP4 POP SWAP4 SWAP2 POP POP JUMP JUMPDEST PUSH2 0x1B13 PUSH2 0x3083 JUMP JUMPDEST PUSH1 0x0 PUSH2 0x1B1E DUP4 PUSH2 0x1DA1 JUMP JUMPDEST SWAP1 POP PUSH1 0x40 MLOAD DUP1 PUSH1 0x80 ADD PUSH1 0x40 MSTORE DUP1 PUSH2 0x1B4F DUP4 PUSH1 0x0 DUP2 MLOAD DUP2 LT PUSH2 0x1B42 JUMPI PUSH2 0x1B41 PUSH2 0x44E3 JUMP JUMPDEST JUMPDEST PUSH1 0x20 MUL PUSH1 0x20 ADD ADD MLOAD PUSH2 0x1DBB JUMP JUMPDEST DUP2 MSTORE PUSH1 0x20 ADD PUSH2 0x1B78 DUP4 PUSH1 0x1 DUP2 MLOAD DUP2 LT PUSH2 0x1B6B JUMPI PUSH2 0x1B6A PUSH2 0x44E3 JUMP JUMPDEST JUMPDEST PUSH1 0x20 MUL PUSH1 0x20 ADD ADD MLOAD PUSH2 0x1DBB JUMP JUMPDEST DUP2 MSTORE PUSH1 0x20 ADD PUSH2 0x1BA1 DUP4 PUSH1 0x2 DUP2 MLOAD DUP2 LT PUSH2 0x1B94 JUMPI PUSH2 0x1B93 PUSH2 0x44E3 JUMP JUMPDEST JUMPDEST PUSH1 0x20 MUL PUSH1 0x20 ADD ADD MLOAD PUSH2 0x1DD0 JUMP JUMPDEST DUP2 MSTORE PUSH1 0x20 ADD PUSH2 0x1BCA DUP4 PUSH1 0x3 DUP2 MLOAD DUP2 LT PUSH2 0x1BBD JUMPI PUSH2 0x1BBC PUSH2 0x44E3 JUMP JUMPDEST JUMPDEST PUSH1 0x20 MUL PUSH1 0x20 ADD ADD MLOAD PUSH2 0x1DD0 JUMP JUMPDEST DUP2 MSTORE POP SWAP2 POP POP SWAP2 SWAP1 POP JUMP JUMPDEST PUSH1 0x0 DUP1 PUSH2 0x1BE1 DUP7 PUSH2 0x1C98 JUMP JUMPDEST SWAP1 POP PUSH2 0x1BEF DUP2 DUP7 DUP7 DUP7 PUSH2 0x1ED1 JUMP JUMPDEST SWAP2 POP POP SWAP5 SWAP4 POP POP POP POP JUMP JUMPDEST PUSH1 0x0 DUP1 PUSH1 0x60 SWAP1 POP PUSH1 0x0 PUSH1 0x18 SWAP1 POP PUSH1 0x0 DUP5 SWAP1 POP PUSH1 0x0 DUP7 SWAP1 POP DUP6 DUP3 PUSH12 0xFFFFFFFFFFFFFFFFFFFFFFFF AND EQ DUP1 ISZERO PUSH2 0x1C3B JUMPI POP DUP7 DUP2 PUSH12 0xFFFFFFFFFFFFFFFFFFFFFFFF AND EQ JUMPDEST PUSH2 0x1C7A JUMPI PUSH1 0x40 MLOAD PUSH32 0x8C379A000000000000000000000000000000000000000000000000000000000 DUP2 MSTORE PUSH1 0x4 ADD PUSH2 0x1C71 SWAP1 PUSH2 0x455E JUMP JUMPDEST PUSH1 0x40 MLOAD DUP1 SWAP2 SUB SWAP1 REVERT JUMPDEST DUP8 DUP5 SHL SWAP5 POP DUP1 DUP6 OR DUP5 SHL SWAP5 POP DUP2 DUP6 OR DUP4 SHL SWAP5 POP POP POP POP POP SWAP4 SWAP3 POP POP POP JUMP JUMPDEST PUSH1 0x60 DUP2 DUP1 MLOAD SWAP1 PUSH1 0x20 ADD KECCAK256 PUSH1 0x40 MLOAD PUSH1 0x20 ADD PUSH2 0x1CB2 SWAP2 SWAP1 PUSH2 0x43BC JUMP JUMPDEST PUSH1 0x40 MLOAD PUSH1 0x20 DUP2 DUP4 SUB SUB DUP2 MSTORE SWAP1 PUSH1 0x40 MSTORE SWAP1 POP SWAP2 SWAP1 POP JUMP JUMPDEST PUSH1 0x0 PUSH1 0x60 PUSH1 0x0 PUSH2 0x1CD7 DUP6 PUSH2 0x1F04 JUMP JUMPDEST SWAP1 POP PUSH1 0x0 DUP1 PUSH1 0x0 PUSH2 0x1CE9 DUP5 DUP11 DUP10 PUSH2 0x1FF7 JUMP JUMPDEST SWAP3 POP SWAP3 POP SWAP3 POP PUSH1 0x0 DUP1 DUP4 MLOAD EQ SWAP1 POP DUP1 DUP1 PUSH2 0x1D00 JUMPI POP DUP2 JUMPDEST PUSH2 0x1D3F JUMPI PUSH1 0x40 MLOAD PUSH32 0x8C379A000000000000000000000000000000000000000000000000000000000 DUP2 MSTORE PUSH1 0x4 ADD PUSH2 0x1D36 SWAP1 PUSH2 0x45CA JUMP JUMPDEST PUSH1 0x40 MLOAD DUP1 SWAP2 SUB SWAP1 REVERT JUMPDEST PUSH1 0x0 DUP2 PUSH2 0x1D5B JUMPI PUSH1 0x40 MLOAD DUP1 PUSH1 0x20 ADD PUSH1 0x40 MSTORE DUP1 PUSH1 0x0 DUP2 MSTORE POP PUSH2 0x1D8B JUMP JUMPDEST PUSH2 0x1D8A DUP7 PUSH1 0x1 DUP8 PUSH2 0x1D6C SWAP2 SWAP1 PUSH2 0x3D1F JUMP JUMPDEST DUP2 MLOAD DUP2 LT PUSH2 0x1D7D JUMPI PUSH2 0x1D7C PUSH2 0x44E3 JUMP JUMPDEST JUMPDEST PUSH1 0x20 MUL PUSH1 0x20 ADD ADD MLOAD PUSH2 0x245F JUMP JUMPDEST JUMPDEST SWAP1 POP DUP2 DUP2 SWAP8 POP SWAP8 POP POP POP POP POP POP POP SWAP4 POP SWAP4 SWAP2 POP POP JUMP JUMPDEST PUSH1 0x60 PUSH2 0x1DB4 PUSH2 0x1DAF DUP4 PUSH2 0x24A0 JUMP JUMPDEST PUSH2 0x24CE JUMP JUMPDEST SWAP1 POP SWAP2 SWAP1 POP JUMP JUMPDEST PUSH1 0x0 PUSH2 0x1DC6 DUP3 PUSH2 0x1DD0 JUMP JUMPDEST PUSH1 0x0 SHR SWAP1 POP SWAP2 SWAP1 POP JUMP JUMPDEST PUSH1 0x0 PUSH1 0x22 DUP3 PUSH1 0x0 ADD MLOAD LT PUSH2 0x1E19 JUMPI PUSH1 0x40 MLOAD PUSH32 0x8C379A000000000000000000000000000000000000000000000000000000000 DUP2 MSTORE PUSH1 0x4 ADD PUSH2 0x1E10 SWAP1 PUSH2 0x4636 JUMP JUMPDEST PUSH1 0x40 MLOAD DUP1 SWAP2 SUB SWAP1 REVERT JUMPDEST PUSH1 0x0 DUP1 PUSH1 0x0 PUSH2 0x1E27 DUP6 PUSH2 0x26C5 JUMP JUMPDEST SWAP3 POP SWAP3 POP SWAP3 POP PUSH1 0x0 PUSH1 0x1 DUP2 GT ISZERO PUSH2 0x1E41 JUMPI PUSH2 0x1E40 PUSH2 0x4656 JUMP JUMPDEST JUMPDEST DUP2 PUSH1 0x1 DUP2 GT ISZERO PUSH2 0x1E54 JUMPI PUSH2 0x1E53 PUSH2 0x4656 JUMP JUMPDEST JUMPDEST EQ PUSH2 0x1E94 JUMPI PUSH1 0x40 MLOAD PUSH32 0x8C379A000000000000000000000000000000000000000000000000000000000 DUP2 MSTORE PUSH1 0x4 ADD PUSH2 0x1E8B SWAP1 PUSH2 0x4636 JUMP JUMPDEST PUSH1 0x40 MLOAD DUP1 SWAP2 SUB SWAP1 REVERT JUMPDEST PUSH1 0x0 DUP4 DUP7 PUSH1 0x20 ADD MLOAD PUSH2 0x1EA6 SWAP2 SWAP1 PUSH2 0x3E94 JUMP JUMPDEST SWAP1 POP PUSH1 0x0 DUP2 MLOAD SWAP1 POP PUSH1 0x20 DUP5 LT ISZERO PUSH2 0x1EC4 JUMPI DUP4 PUSH1 0x20 SUB PUSH2 0x100 EXP DUP2 DIV SWAP1 POP JUMPDEST DUP1 SWAP6 POP POP POP POP POP POP SWAP2 SWAP1 POP JUMP JUMPDEST PUSH1 0x0 DUP1 PUSH1 0x0 PUSH2 0x1EE1 DUP8 DUP7 DUP7 PUSH2 0x1CC8 JUMP JUMPDEST SWAP2 POP SWAP2 POP DUP2 DUP1 ISZERO PUSH2 0x1EF8 JUMPI POP PUSH2 0x1EF7 DUP7 DUP3 PUSH2 0x29E2 JUMP JUMPDEST JUMPDEST SWAP3 POP POP POP SWAP5 SWAP4 POP POP POP POP JUMP JUMPDEST PUSH1 0x60 PUSH1 0x0 PUSH2 0x1F11 DUP4 PUSH2 0x1DA1 JUMP JUMPDEST SWAP1 POP PUSH1 0x0 DUP2 MLOAD PUSH8 0xFFFFFFFFFFFFFFFF DUP2 GT ISZERO PUSH2 0x1F30 JUMPI PUSH2 0x1F2F PUSH2 0x321C JUMP JUMPDEST JUMPDEST PUSH1 0x40 MLOAD SWAP1 DUP1 DUP3 MSTORE DUP1 PUSH1 0x20 MUL PUSH1 0x20 ADD DUP3 ADD PUSH1 0x40 MSTORE DUP1 ISZERO PUSH2 0x1F69 JUMPI DUP2 PUSH1 0x20 ADD JUMPDEST PUSH2 0x1F56 PUSH2 0x30B1 JUMP JUMPDEST DUP2 MSTORE PUSH1 0x20 ADD SWAP1 PUSH1 0x1 SWAP1 SUB SWAP1 DUP2 PUSH2 0x1F4E JUMPI SWAP1 POP JUMPDEST POP SWAP1 POP PUSH1 0x0 DUP3 MLOAD SWAP1 POP PUSH1 0x0 JUMPDEST DUP2 DUP2 LT ISZERO PUSH2 0x1FEB JUMPI PUSH1 0x0 PUSH2 0x1FA2 DUP6 DUP4 DUP2 MLOAD DUP2 LT PUSH2 0x1F95 JUMPI PUSH2 0x1F94 PUSH2 0x44E3 JUMP JUMPDEST JUMPDEST PUSH1 0x20 MUL PUSH1 0x20 ADD ADD MLOAD PUSH2 0x29FD JUMP JUMPDEST SWAP1 POP PUSH1 0x40 MLOAD DUP1 PUSH1 0x40 ADD PUSH1 0x40 MSTORE DUP1 DUP3 DUP2 MSTORE PUSH1 0x20 ADD PUSH2 0x1FBE DUP4 PUSH2 0x1DA1 JUMP JUMPDEST DUP2 MSTORE POP DUP5 DUP4 DUP2 MLOAD DUP2 LT PUSH2 0x1FD4 JUMPI PUSH2 0x1FD3 PUSH2 0x44E3 JUMP JUMPDEST JUMPDEST PUSH1 0x20 MUL PUSH1 0x20 ADD ADD DUP2 SWAP1 MSTORE POP DUP2 PUSH1 0x1 ADD SWAP2 POP POP PUSH2 0x1F75 JUMP JUMPDEST POP DUP2 SWAP4 POP POP POP POP SWAP2 SWAP1 POP JUMP JUMPDEST PUSH1 0x0 PUSH1 0x60 PUSH1 0x0 DUP1 PUSH1 0x0 SWAP1 POP PUSH1 0x0 PUSH2 0x200D DUP8 PUSH2 0x2A93 JUMP JUMPDEST SWAP1 POP PUSH1 0x0 DUP7 SWAP1 POP PUSH1 0x0 DUP1 PUSH2 0x201F PUSH2 0x30B1 JUMP JUMPDEST PUSH1 0x0 DUP13 MLOAD SWAP1 POP PUSH1 0x0 JUMPDEST DUP2 DUP2 LT ISZERO PUSH2 0x240E JUMPI DUP14 DUP2 DUP2 MLOAD DUP2 LT PUSH2 0x2043 JUMPI PUSH2 0x2042 PUSH2 0x44E3 JUMP JUMPDEST JUMPDEST PUSH1 0x20 MUL PUSH1 0x20 ADD ADD MLOAD SWAP3 POP DUP4 DUP6 PUSH2 0x2059 SWAP2 SWAP1 PUSH2 0x3E94 JUMP JUMPDEST SWAP5 POP PUSH1 0x1 DUP9 PUSH2 0x2068 SWAP2 SWAP1 PUSH2 0x3E94 JUMP JUMPDEST SWAP8 POP PUSH1 0x0 DUP6 SUB PUSH2 0x20C4 JUMPI DUP6 DUP4 PUSH1 0x0 ADD MLOAD DUP1 MLOAD SWAP1 PUSH1 0x20 ADD KECCAK256 EQ PUSH2 0x20BF JUMPI PUSH1 0x40 MLOAD PUSH32 0x8C379A000000000000000000000000000000000000000000000000000000000 DUP2 MSTORE PUSH1 0x4 ADD PUSH2 0x20B6 SWAP1 PUSH2 0x46D1 JUMP JUMPDEST PUSH1 0x40 MLOAD DUP1 SWAP2 SUB SWAP1 REVERT JUMPDEST PUSH2 0x2174 JUMP JUMPDEST PUSH1 0x1F DUP4 PUSH1 0x0 ADD MLOAD MLOAD GT ISZERO PUSH2 0x2124 JUMPI DUP6 DUP4 PUSH1 0x0 ADD MLOAD DUP1 MLOAD SWAP1 PUSH1 0x20 ADD KECCAK256 EQ PUSH2 0x211F JUMPI PUSH1 0x40 MLOAD PUSH32 0x8C379A000000000000000000000000000000000000000000000000000000000 DUP2 MSTORE PUSH1 0x4 ADD PUSH2 0x2116 SWAP1 PUSH2 0x473D JUMP JUMPDEST PUSH1 0x40 MLOAD DUP1 SWAP2 SUB SWAP1 REVERT JUMPDEST PUSH2 0x2173 JUMP JUMPDEST DUP6 PUSH2 0x2132 DUP5 PUSH1 0x0 ADD MLOAD PUSH2 0x2C36 JUMP JUMPDEST EQ PUSH2 0x2172 JUMPI PUSH1 0x40 MLOAD PUSH32 0x8C379A000000000000000000000000000000000000000000000000000000000 DUP2 MSTORE PUSH1 0x4 ADD PUSH2 0x2169 SWAP1 PUSH2 0x47A9 JUMP JUMPDEST PUSH1 0x40 MLOAD DUP1 SWAP2 SUB SWAP1 REVERT JUMPDEST JUMPDEST JUMPDEST DUP1 PUSH1 0x1 ADD SWAP1 POP PUSH1 0x1 PUSH1 0x10 PUSH2 0x2188 SWAP2 SWAP1 PUSH2 0x3E94 JUMP JUMPDEST DUP4 PUSH1 0x20 ADD MLOAD MLOAD SUB PUSH2 0x21FD JUMPI DUP7 MLOAD DUP6 SUB ISZERO PUSH2 0x240E JUMPI PUSH1 0x0 DUP8 DUP7 DUP2 MLOAD DUP2 LT PUSH2 0x21B1 JUMPI PUSH2 0x21B0 PUSH2 0x44E3 JUMP JUMPDEST JUMPDEST PUSH1 0x20 ADD ADD MLOAD PUSH1 0xF8 SHR PUSH1 0xF8 SHL PUSH1 0xF8 SHR SWAP1 POP PUSH1 0x0 DUP5 PUSH1 0x20 ADD MLOAD DUP3 PUSH1 0xFF AND DUP2 MLOAD DUP2 LT PUSH2 0x21DD JUMPI PUSH2 0x21DC PUSH2 0x44E3 JUMP JUMPDEST JUMPDEST PUSH1 0x20 MUL PUSH1 0x20 ADD ADD MLOAD SWAP1 POP PUSH2 0x21F0 DUP2 PUSH2 0x2C70 JUMP JUMPDEST SWAP8 POP PUSH1 0x1 SWAP6 POP POP POP PUSH2 0x2409 JUMP JUMPDEST PUSH1 0x2 DUP4 PUSH1 0x20 ADD MLOAD MLOAD SUB PUSH2 0x23CE JUMPI PUSH1 0x0 PUSH2 0x2215 DUP5 PUSH2 0x2CAE JUMP JUMPDEST SWAP1 POP PUSH1 0x0 DUP2 PUSH1 0x0 DUP2 MLOAD DUP2 LT PUSH2 0x222D JUMPI PUSH2 0x222C PUSH2 0x44E3 JUMP JUMPDEST JUMPDEST PUSH1 0x20 ADD ADD MLOAD PUSH1 0xF8 SHR PUSH1 0xF8 SHL PUSH1 0xF8 SHR SWAP1 POP PUSH1 0x0 PUSH1 0x2 DUP3 PUSH2 0x224C SWAP2 SWAP1 PUSH2 0x47F8 JUMP JUMPDEST PUSH1 0x2 PUSH2 0x2258 SWAP2 SWAP1 PUSH2 0x4829 JUMP JUMPDEST SWAP1 POP PUSH1 0x0 PUSH2 0x2269 DUP5 DUP4 PUSH1 0xFF AND PUSH2 0x2CE7 JUMP JUMPDEST SWAP1 POP PUSH1 0x0 PUSH2 0x2277 DUP13 DUP12 PUSH2 0x2CE7 JUMP JUMPDEST SWAP1 POP PUSH1 0x0 PUSH2 0x2285 DUP4 DUP4 PUSH2 0x2D28 JUMP JUMPDEST SWAP1 POP PUSH1 0x2 PUSH1 0xFF AND DUP6 PUSH1 0xFF AND EQ DUP1 PUSH2 0x22A2 JUMPI POP PUSH1 0x3 PUSH1 0xFF AND DUP6 PUSH1 0xFF AND EQ JUMPDEST ISZERO PUSH2 0x22FF JUMPI DUP1 DUP4 MLOAD EQ DUP1 ISZERO PUSH2 0x22B7 JUMPI POP DUP1 DUP3 MLOAD EQ JUMPDEST ISZERO PUSH2 0x22CB JUMPI DUP1 DUP12 PUSH2 0x22C8 SWAP2 SWAP1 PUSH2 0x3E94 JUMP JUMPDEST SWAP11 POP JUMPDEST PUSH1 0x80 PUSH1 0xF8 SHL PUSH31 0xFFFFFFFFFFFFFFFFFFFFFFFFFFFFFFFFFFFFFFFFFFFFFFFFFFFFFFFFFFFFFF NOT AND SWAP12 POP POP POP POP POP POP POP PUSH2 0x240E JUMP JUMPDEST PUSH1 0x0 PUSH1 0xFF AND DUP6 PUSH1 0xFF AND EQ DUP1 PUSH2 0x231A JUMPI POP PUSH1 0x1 PUSH1 0xFF AND DUP6 PUSH1 0xFF AND EQ JUMPDEST ISZERO PUSH2 0x2393 JUMPI DUP3 MLOAD DUP2 EQ PUSH2 0x235B JUMPI PUSH1 0x80 PUSH1 0xF8 SHL PUSH31 0xFFFFFFFFFFFFFFFFFFFFFFFFFFFFFFFFFFFFFFFFFFFFFFFFFFFFFFFFFFFFFF NOT AND SWAP12 POP POP POP POP POP POP POP PUSH2 0x240E JUMP JUMPDEST PUSH2 0x2383 DUP10 PUSH1 0x20 ADD MLOAD PUSH1 0x1 DUP2 MLOAD DUP2 LT PUSH2 0x2376 JUMPI PUSH2 0x2375 PUSH2 0x44E3 JUMP JUMPDEST JUMPDEST PUSH1 0x20 MUL PUSH1 0x20 ADD ADD MLOAD PUSH2 0x2C70 JUMP JUMPDEST SWAP12 POP DUP1 SWAP10 POP POP POP POP POP POP POP PUSH2 0x2409 JUMP JUMPDEST PUSH1 0x40 MLOAD PUSH32 0x8C379A000000000000000000000000000000000000000000000000000000000 DUP2 MSTORE PUSH1 0x4 ADD PUSH2 0x23C5 SWAP1 PUSH2 0x48D0 JUMP JUMPDEST PUSH1 0x40 MLOAD DUP1 SWAP2 SUB SWAP1 REVERT JUMPDEST PUSH1 0x40 MLOAD PUSH32 0x8C379A000000000000000000000000000000000000000000000000000000000 DUP2 MSTORE PUSH1 0x4 ADD PUSH2 0x2400 SWAP1 PUSH2 0x493C JUMP JUMPDEST PUSH1 0x40 MLOAD DUP1 SWAP2 SUB SWAP1 REVERT JUMPDEST PUSH2 0x2028 JUMP JUMPDEST POP PUSH1 0x0 PUSH1 0x80 PUSH1 0xF8 SHL PUSH31 0xFFFFFFFFFFFFFFFFFFFFFFFFFFFFFFFFFFFFFFFFFFFFFFFFFFFFFFFFFFFFFF NOT AND DUP7 EQ SWAP1 POP DUP8 PUSH2 0x2447 DUP9 DUP8 PUSH2 0x2CE7 JUMP JUMPDEST DUP3 SWAP11 POP SWAP11 POP SWAP11 POP POP POP POP POP POP POP POP POP SWAP4 POP SWAP4 POP SWAP4 SWAP1 POP JUMP JUMPDEST PUSH1 0x60 PUSH2 0x2499 DUP3 PUSH1 0x20 ADD MLOAD PUSH1 0x1 DUP5 PUSH1 0x20 ADD MLOAD MLOAD PUSH2 0x247B SWAP2 SWAP1 PUSH2 0x3D1F JUMP JUMPDEST DUP2 MLOAD DUP2 LT PUSH2 0x248C JUMPI PUSH2 0x248B PUSH2 0x44E3 JUMP JUMPDEST JUMPDEST PUSH1 0x20 MUL PUSH1 0x20 ADD ADD MLOAD PUSH2 0x29FD JUMP JUMPDEST SWAP1 POP SWAP2 SWAP1 POP JUMP JUMPDEST PUSH2 0x24A8 PUSH2 0x30CB JUMP JUMPDEST PUSH1 0x0 PUSH1 0x20 DUP4 ADD SWAP1 POP PUSH1 0x40 MLOAD DUP1 PUSH1 0x40 ADD PUSH1 0x40 MSTORE DUP1 DUP5 MLOAD DUP2 MSTORE PUSH1 0x20 ADD DUP3 DUP2 MSTORE POP SWAP2 POP POP SWAP2 SWAP1 POP JUMP JUMPDEST PUSH1 0x60 PUSH1 0x0 DUP1 PUSH2 0x24DC DUP5 PUSH2 0x26C5 JUMP JUMPDEST SWAP3 POP POP SWAP2 POP PUSH1 0x1 DUP1 DUP2 GT ISZERO PUSH2 0x24F4 JUMPI PUSH2 0x24F3 PUSH2 0x4656 JUMP JUMPDEST JUMPDEST DUP2 PUSH1 0x1 DUP2 GT ISZERO PUSH2 0x2507 JUMPI PUSH2 0x2506 PUSH2 0x4656 JUMP JUMPDEST JUMPDEST EQ PUSH2 0x2547 JUMPI PUSH1 0x40 MLOAD PUSH32 0x8C379A000000000000000000000000000000000000000000000000000000000 DUP2 MSTORE PUSH1 0x4 ADD PUSH2 0x253E SWAP1 PUSH2 0x49A8 JUMP JUMPDEST PUSH1 0x40 MLOAD DUP1 SWAP2 SUB SWAP1 REVERT JUMPDEST PUSH1 0x0 PUSH1 0x20 PUSH8 0xFFFFFFFFFFFFFFFF DUP2 GT ISZERO PUSH2 0x2564 JUMPI PUSH2 0x2563 PUSH2 0x321C JUMP JUMPDEST JUMPDEST PUSH1 0x40 MLOAD SWAP1 DUP1 DUP3 MSTORE DUP1 PUSH1 0x20 MUL PUSH1 0x20 ADD DUP3 ADD PUSH1 0x40 MSTORE DUP1 ISZERO PUSH2 0x259D JUMPI DUP2 PUSH1 0x20 ADD JUMPDEST PUSH2 0x258A PUSH2 0x30CB JUMP JUMPDEST DUP2 MSTORE PUSH1 0x20 ADD SWAP1 PUSH1 0x1 SWAP1 SUB SWAP1 DUP2 PUSH2 0x2582 JUMPI SWAP1 POP JUMPDEST POP SWAP1 POP PUSH1 0x0 DUP1 DUP5 SWAP1 POP JUMPDEST DUP7 PUSH1 0x0 ADD MLOAD DUP2 LT ISZERO PUSH2 0x26B5 JUMPI PUSH1 0x20 DUP3 LT PUSH2 0x25F6 JUMPI PUSH1 0x40 MLOAD PUSH32 0x8C379A000000000000000000000000000000000000000000000000000000000 DUP2 MSTORE PUSH1 0x4 ADD PUSH2 0x25ED SWAP1 PUSH2 0x4A3A JUMP JUMPDEST PUSH1 0x40 MLOAD DUP1 SWAP2 SUB SWAP1 REVERT JUMPDEST PUSH1 0x0 DUP1 PUSH2 0x2634 PUSH1 0x40 MLOAD DUP1 PUSH1 0x40 ADD PUSH1 0x40 MSTORE DUP1 DUP6 DUP13 PUSH1 0x0 ADD MLOAD PUSH2 0x2617 SWAP2 SWAP1 PUSH2 0x3D1F JUMP JUMPDEST DUP2 MSTORE PUSH1 0x20 ADD DUP6 DUP13 PUSH1 0x20 ADD MLOAD PUSH2 0x262C SWAP2 SWAP1 PUSH2 0x3E94 JUMP JUMPDEST DUP2 MSTORE POP PUSH2 0x26C5 JUMP JUMPDEST POP SWAP2 POP SWAP2 POP PUSH1 0x40 MLOAD DUP1 PUSH1 0x40 ADD PUSH1 0x40 MSTORE DUP1 DUP4 DUP4 PUSH2 0x2650 SWAP2 SWAP1 PUSH2 0x3E94 JUMP JUMPDEST DUP2 MSTORE PUSH1 0x20 ADD DUP5 DUP12 PUSH1 0x20 ADD MLOAD PUSH2 0x2665 SWAP2 SWAP1 PUSH2 0x3E94 JUMP JUMPDEST DUP2 MSTORE POP DUP6 DUP6 DUP2 MLOAD DUP2 LT PUSH2 0x267B JUMPI PUSH2 0x267A PUSH2 0x44E3 JUMP JUMPDEST JUMPDEST PUSH1 0x20 MUL PUSH1 0x20 ADD ADD DUP2 SWAP1 MSTORE POP PUSH1 0x1 DUP5 PUSH2 0x2693 SWAP2 SWAP1 PUSH2 0x3E94 JUMP JUMPDEST SWAP4 POP DUP1 DUP3 PUSH2 0x26A1 SWAP2 SWAP1 PUSH2 0x3E94 JUMP JUMPDEST DUP4 PUSH2 0x26AC SWAP2 SWAP1 PUSH2 0x3E94 JUMP JUMPDEST SWAP3 POP POP POP PUSH2 0x25A7 JUMP JUMPDEST DUP2 DUP4 MSTORE DUP3 SWAP6 POP POP POP POP POP POP SWAP2 SWAP1 POP JUMP JUMPDEST PUSH1 0x0 DUP1 PUSH1 0x0 DUP1 DUP5 PUSH1 0x0 ADD MLOAD GT PUSH2 0x2710 JUMPI PUSH1 0x40 MLOAD PUSH32 0x8C379A000000000000000000000000000000000000000000000000000000000 DUP2 MSTORE PUSH1 0x4 ADD PUSH2 0x2707 SWAP1 PUSH2 0x4AA6 JUMP JUMPDEST PUSH1 0x40 MLOAD DUP1 SWAP2 SUB SWAP1 REVERT JUMPDEST PUSH1 0x0 DUP5 PUSH1 0x20 ADD MLOAD SWAP1 POP PUSH1 0x0 DUP2 MLOAD PUSH1 0x0 BYTE SWAP1 POP PUSH1 0x80 DUP2 LT ISZERO PUSH2 0x273E JUMPI PUSH1 0x0 PUSH1 0x1 PUSH1 0x0 SWAP5 POP SWAP5 POP SWAP5 POP POP POP PUSH2 0x29DB JUMP JUMPDEST PUSH1 0xB8 DUP2 LT ISZERO PUSH2 0x27B1 JUMPI PUSH1 0x0 PUSH1 0x80 DUP3 PUSH2 0x2756 SWAP2 SWAP1 PUSH2 0x3D1F JUMP JUMPDEST SWAP1 POP DUP1 DUP8 PUSH1 0x0 ADD MLOAD GT PUSH2 0x279E JUMPI PUSH1 0x40 MLOAD PUSH32 0x8C379A000000000000000000000000000000000000000000000000000000000 DUP2 MSTORE PUSH1 0x4 ADD PUSH2 0x2795 SWAP1 PUSH2 0x4B12 JUMP JUMPDEST PUSH1 0x40 MLOAD DUP1 SWAP2 SUB SWAP1 REVERT JUMPDEST PUSH1 0x1 DUP2 PUSH1 0x0 SWAP6 POP SWAP6 POP SWAP6 POP POP POP POP PUSH2 0x29DB JUMP JUMPDEST PUSH1 0xC0 DUP2 LT ISZERO PUSH2 0x2893 JUMPI PUSH1 0x0 PUSH1 0xB7 DUP3 PUSH2 0x27C9 SWAP2 SWAP1 PUSH2 0x3D1F JUMP JUMPDEST SWAP1 POP DUP1 DUP8 PUSH1 0x0 ADD MLOAD GT PUSH2 0x2811 JUMPI PUSH1 0x40 MLOAD PUSH32 0x8C379A000000000000000000000000000000000000000000000000000000000 DUP2 MSTORE PUSH1 0x4 ADD PUSH2 0x2808 SWAP1 PUSH2 0x4B7E JUMP JUMPDEST PUSH1 0x40 MLOAD DUP1 SWAP2 SUB SWAP1 REVERT JUMPDEST PUSH1 0x0 DUP2 PUSH1 0x20 SUB PUSH2 0x100 EXP PUSH1 0x1 DUP6 ADD MLOAD DIV SWAP1 POP DUP1 DUP3 PUSH2 0x282F SWAP2 SWAP1 PUSH2 0x3E94 JUMP JUMPDEST DUP9 PUSH1 0x0 ADD MLOAD GT PUSH2 0x2874 JUMPI PUSH1 0x40 MLOAD PUSH32 0x8C379A000000000000000000000000000000000000000000000000000000000 DUP2 MSTORE PUSH1 0x4 ADD PUSH2 0x286B SWAP1 PUSH2 0x4BEA JUMP JUMPDEST PUSH1 0x40 MLOAD DUP1 SWAP2 SUB SWAP1 REVERT JUMPDEST DUP2 PUSH1 0x1 PUSH2 0x2881 SWAP2 SWAP1 PUSH2 0x3E94 JUMP JUMPDEST DUP2 PUSH1 0x0 SWAP7 POP SWAP7 POP SWAP7 POP POP POP POP POP PUSH2 0x29DB JUMP JUMPDEST PUSH1 0xF8 DUP2 LT ISZERO PUSH2 0x2906 JUMPI PUSH1 0x0 PUSH1 0xC0 DUP3 PUSH2 0x28AB SWAP2 SWAP1 PUSH2 0x3D1F JUMP JUMPDEST SWAP1 POP DUP1 DUP8 PUSH1 0x0 ADD MLOAD GT PUSH2 0x28F3 JUMPI PUSH1 0x40 MLOAD PUSH32 0x8C379A000000000000000000000000000000000000000000000000000000000 DUP2 MSTORE PUSH1 0x4 ADD PUSH2 0x28EA SWAP1 PUSH2 0x4C56 JUMP JUMPDEST PUSH1 0x40 MLOAD DUP1 SWAP2 SUB SWAP1 REVERT JUMPDEST PUSH1 0x1 DUP2 PUSH1 0x1 SWAP6 POP SWAP6 POP SWAP6 POP POP POP POP PUSH2 0x29DB JUMP JUMPDEST PUSH1 0x0 PUSH1 0xF7 DUP3 PUSH2 0x2915 SWAP2 SWAP1 PUSH2 0x3D1F JUMP JUMPDEST SWAP1 POP DUP1 DUP8 PUSH1 0x0 ADD MLOAD GT PUSH2 0x295D JUMPI PUSH1 0x40 MLOAD PUSH32 0x8C379A000000000000000000000000000000000000000000000000000000000 DUP2 MSTORE PUSH1 0x4 ADD PUSH2 0x2954 SWAP1 PUSH2 0x4CC2 JUMP JUMPDEST PUSH1 0x40 MLOAD DUP1 SWAP2 SUB SWAP1 REVERT JUMPDEST PUSH1 0x0 DUP2 PUSH1 0x20 SUB PUSH2 0x100 EXP PUSH1 0x1 DUP6 ADD MLOAD DIV SWAP1 POP DUP1 DUP3 PUSH2 0x297B SWAP2 SWAP1 PUSH2 0x3E94 JUMP JUMPDEST DUP9 PUSH1 0x0 ADD MLOAD GT PUSH2 0x29C0 JUMPI PUSH1 0x40 MLOAD PUSH32 0x8C379A000000000000000000000000000000000000000000000000000000000 DUP2 MSTORE PUSH1 0x4 ADD PUSH2 0x29B7 SWAP1 PUSH2 0x4D2E JUMP JUMPDEST PUSH1 0x40 MLOAD DUP1 SWAP2 SUB SWAP1 REVERT JUMPDEST DUP2 PUSH1 0x1 PUSH2 0x29CD SWAP2 SWAP1 PUSH2 0x3E94 JUMP JUMPDEST DUP2 PUSH1 0x1 SWAP7 POP SWAP7 POP SWAP7 POP POP POP POP POP JUMPDEST SWAP2 SWAP4 SWAP1 SWAP3 POP JUMP JUMPDEST PUSH1 0x0 DUP2 DUP1 MLOAD SWAP1 PUSH1 0x20 ADD KECCAK256 DUP4 DUP1 MLOAD SWAP1 PUSH1 0x20 ADD KECCAK256 EQ SWAP1 POP SWAP3 SWAP2 POP POP JUMP JUMPDEST PUSH1 0x60 PUSH1 0x0 DUP1 PUSH1 0x0 PUSH2 0x2A0D DUP6 PUSH2 0x26C5 JUMP JUMPDEST SWAP3 POP SWAP3 POP SWAP3 POP PUSH1 0x0 PUSH1 0x1 DUP2 GT ISZERO PUSH2 0x2A27 JUMPI PUSH2 0x2A26 PUSH2 0x4656 JUMP JUMPDEST JUMPDEST DUP2 PUSH1 0x1 DUP2 GT ISZERO PUSH2 0x2A3A JUMPI PUSH2 0x2A39 PUSH2 0x4656 JUMP JUMPDEST JUMPDEST EQ PUSH2 0x2A7A JUMPI PUSH1 0x40 MLOAD PUSH32 0x8C379A000000000000000000000000000000000000000000000000000000000 DUP2 MSTORE PUSH1 0x4 ADD PUSH2 0x2A71 SWAP1 PUSH2 0x4D9A JUMP JUMPDEST PUSH1 0x40 MLOAD DUP1 SWAP2 SUB SWAP1 REVERT JUMPDEST PUSH2 0x2A89 DUP6 PUSH1 0x20 ADD MLOAD DUP5 DUP5 PUSH2 0x2DEB JUMP JUMPDEST SWAP4 POP POP POP POP SWAP2 SWAP1 POP JUMP JUMPDEST PUSH1 0x60 PUSH1 0x0 PUSH1 0x2 DUP4 MLOAD PUSH2 0x2AA5 SWAP2 SWAP1 PUSH2 0x4DBA JUMP JUMPDEST PUSH8 0xFFFFFFFFFFFFFFFF DUP2 GT ISZERO PUSH2 0x2ABE JUMPI PUSH2 0x2ABD PUSH2 0x321C JUMP JUMPDEST JUMPDEST PUSH1 0x40 MLOAD SWAP1 DUP1 DUP3 MSTORE DUP1 PUSH1 0x1F ADD PUSH1 0x1F NOT AND PUSH1 0x20 ADD DUP3 ADD PUSH1 0x40 MSTORE DUP1 ISZERO PUSH2 0x2AF0 JUMPI DUP2 PUSH1 0x20 ADD PUSH1 0x1 DUP3 MUL DUP1 CALLDATASIZE DUP4 CALLDATACOPY DUP1 DUP3 ADD SWAP2 POP POP SWAP1 POP JUMPDEST POP SWAP1 POP PUSH1 0x0 DUP4 MLOAD SWAP1 POP PUSH1 0x0 JUMPDEST DUP2 DUP2 LT ISZERO PUSH2 0x2C2B JUMPI PUSH1 0x4 DUP6 DUP3 DUP2 MLOAD DUP2 LT PUSH2 0x2B19 JUMPI PUSH2 0x2B18 PUSH2 0x44E3 JUMP JUMPDEST JUMPDEST PUSH1 0x20 ADD ADD MLOAD PUSH1 0xF8 SHR PUSH1 0xF8 SHL PUSH31 0xFFFFFFFFFFFFFFFFFFFFFFFFFFFFFFFFFFFFFFFFFFFFFFFFFFFFFFFFFFFFFF NOT AND SWAP1 SHR DUP4 PUSH1 0x2 DUP4 PUSH2 0x2B56 SWAP2 SWAP1 PUSH2 0x4DBA JUMP JUMPDEST DUP2 MLOAD DUP2 LT PUSH2 0x2B67 JUMPI PUSH2 0x2B66 PUSH2 0x44E3 JUMP JUMPDEST JUMPDEST PUSH1 0x20 ADD ADD SWAP1 PUSH31 0xFFFFFFFFFFFFFFFFFFFFFFFFFFFFFFFFFFFFFFFFFFFFFFFFFFFFFFFFFFFFFF NOT AND SWAP1 DUP2 PUSH1 0x0 BYTE SWAP1 MSTORE8 POP PUSH1 0x10 DUP6 DUP3 DUP2 MLOAD DUP2 LT PUSH2 0x2BAB JUMPI PUSH2 0x2BAA PUSH2 0x44E3 JUMP JUMPDEST JUMPDEST PUSH1 0x20 ADD ADD MLOAD PUSH1 0xF8 SHR PUSH1 0xF8 SHL PUSH1 0xF8 SHR PUSH2 0x2BC3 SWAP2 SWAP1 PUSH2 0x47F8 JUMP JUMPDEST PUSH1 0xF8 SHL DUP4 PUSH1 0x1 PUSH1 0x2 DUP5 PUSH2 0x2BD6 SWAP2 SWAP1 PUSH2 0x4DBA JUMP JUMPDEST PUSH2 0x2BE0 SWAP2 SWAP1 PUSH2 0x3E94 JUMP JUMPDEST DUP2 MLOAD DUP2 LT PUSH2 0x2BF1 JUMPI PUSH2 0x2BF0 PUSH2 0x44E3 JUMP JUMPDEST JUMPDEST PUSH1 0x20 ADD ADD SWAP1 PUSH31 0xFFFFFFFFFFFFFFFFFFFFFFFFFFFFFFFFFFFFFFFFFFFFFFFFFFFFFFFFFFFFFF NOT AND SWAP1 DUP2 PUSH1 0x0 BYTE SWAP1 MSTORE8 POP DUP1 PUSH1 0x1 ADD SWAP1 POP PUSH2 0x2AFC JUMP JUMPDEST POP DUP2 SWAP3 POP POP POP SWAP2 SWAP1 POP JUMP JUMPDEST PUSH1 0x0 PUSH1 0x20 DUP3 MLOAD LT ISZERO PUSH2 0x2C54 JUMPI PUSH1 0x0 PUSH1 0x20 DUP4 ADD MLOAD SWAP1 POP DUP1 SWAP2 POP POP PUSH2 0x2C6B JUMP JUMPDEST DUP2 DUP1 PUSH1 0x20 ADD SWAP1 MLOAD DUP2 ADD SWAP1 PUSH2 0x2C68 SWAP2 SWAP1 PUSH2 0x4E11 JUMP JUMPDEST SWAP1 POP JUMPDEST SWAP2 SWAP1 POP JUMP JUMPDEST PUSH1 0x0 PUSH1 0x60 PUSH1 0x20 DUP4 PUSH1 0x0 ADD MLOAD LT ISZERO PUSH2 0x2C91 JUMPI PUSH2 0x2C8A DUP4 PUSH2 0x2EE8 JUMP JUMPDEST SWAP1 POP PUSH2 0x2C9D JUMP JUMPDEST PUSH2 0x2C9A DUP4 PUSH2 0x29FD JUMP JUMPDEST SWAP1 POP JUMPDEST PUSH2 0x2CA6 DUP2 PUSH2 0x2C36 JUMP JUMPDEST SWAP2 POP POP SWAP2 SWAP1 POP JUMP JUMPDEST PUSH1 0x60 PUSH2 0x2CE0 PUSH2 0x2CDB DUP4 PUSH1 0x20 ADD MLOAD PUSH1 0x0 DUP2 MLOAD DUP2 LT PUSH2 0x2CCE JUMPI PUSH2 0x2CCD PUSH2 0x44E3 JUMP JUMPDEST JUMPDEST PUSH1 0x20 MUL PUSH1 0x20 ADD ADD MLOAD PUSH2 0x29FD JUMP JUMPDEST PUSH2 0x2A93 JUMP JUMPDEST SWAP1 POP SWAP2 SWAP1 POP JUMP JUMPDEST PUSH1 0x60 DUP3 MLOAD DUP3 LT PUSH2 0x2D08 JUMPI PUSH1 0x40 MLOAD DUP1 PUSH1 0x20 ADD PUSH1 0x40 MSTORE DUP1 PUSH1 0x0 DUP2 MSTORE POP SWAP1 POP PUSH2 0x2D22 JUMP JUMPDEST PUSH2 0x2D1F DUP4 DUP4 DUP5 DUP7 MLOAD PUSH2 0x2D1A SWAP2 SWAP1 PUSH2 0x3D1F JUMP JUMPDEST PUSH2 0x2EFA JUMP JUMPDEST SWAP1 POP JUMPDEST SWAP3 SWAP2 POP POP JUMP JUMPDEST PUSH1 0x0 DUP1 PUSH1 0x0 SWAP1 POP JUMPDEST DUP1 DUP5 MLOAD GT DUP1 ISZERO PUSH2 0x2D40 JUMPI POP DUP1 DUP4 MLOAD GT JUMPDEST DUP1 ISZERO PUSH2 0x2DC9 JUMPI POP DUP3 DUP2 DUP2 MLOAD DUP2 LT PUSH2 0x2D5A JUMPI PUSH2 0x2D59 PUSH2 0x44E3 JUMP JUMPDEST JUMPDEST PUSH1 0x20 ADD ADD MLOAD PUSH1 0xF8 SHR PUSH1 0xF8 SHL PUSH31 0xFFFFFFFFFFFFFFFFFFFFFFFFFFFFFFFFFFFFFFFFFFFFFFFFFFFFFFFFFFFFFF NOT AND DUP5 DUP3 DUP2 MLOAD DUP2 LT PUSH2 0x2D9A JUMPI PUSH2 0x2D99 PUSH2 0x44E3 JUMP JUMPDEST JUMPDEST PUSH1 0x20 ADD ADD MLOAD PUSH1 0xF8 SHR PUSH1 0xF8 SHL PUSH31 0xFFFFFFFFFFFFFFFFFFFFFFFFFFFFFFFFFFFFFFFFFFFFFFFFFFFFFFFFFFFFFF NOT AND EQ JUMPDEST ISZERO PUSH2 0x2DE1 JUMPI DUP1 DUP1 PUSH2 0x2DD9 SWAP1 PUSH2 0x4E3E JUMP JUMPDEST SWAP2 POP POP PUSH2 0x2D30 JUMP JUMPDEST DUP1 SWAP2 POP POP SWAP3 SWAP2 POP POP JUMP JUMPDEST PUSH1 0x60 PUSH1 0x0 DUP3 PUSH8 0xFFFFFFFFFFFFFFFF DUP2 GT ISZERO PUSH2 0x2E09 JUMPI PUSH2 0x2E08 PUSH2 0x321C JUMP JUMPDEST JUMPDEST PUSH1 0x40 MLOAD SWAP1 DUP1 DUP3 MSTORE DUP1 PUSH1 0x1F ADD PUSH1 0x1F NOT AND PUSH1 0x20 ADD DUP3 ADD PUSH1 0x40 MSTORE DUP1 ISZERO PUSH2 0x2E3B JUMPI DUP2 PUSH1 0x20 ADD PUSH1 0x1 DUP3 MUL DUP1 CALLDATASIZE DUP4 CALLDATACOPY DUP1 DUP3 ADD SWAP2 POP POP SWAP1 POP JUMPDEST POP SWAP1 POP PUSH1 0x0 DUP2 MLOAD SUB PUSH2 0x2E50 JUMPI DUP1 SWAP2 POP POP PUSH2 0x2EE1 JUMP JUMPDEST PUSH1 0x0 DUP5 DUP7 PUSH2 0x2E5E SWAP2 SWAP1 PUSH2 0x3E94 JUMP JUMPDEST SWAP1 POP PUSH1 0x0 PUSH1 0x20 DUP4 ADD SWAP1 POP PUSH1 0x0 JUMPDEST PUSH1 0x20 DUP7 PUSH2 0x2E78 SWAP2 SWAP1 PUSH2 0x4E86 JUMP JUMPDEST DUP2 LT ISZERO PUSH2 0x2EAC JUMPI DUP3 MLOAD DUP3 MSTORE PUSH1 0x20 DUP4 PUSH2 0x2E90 SWAP2 SWAP1 PUSH2 0x3E94 JUMP JUMPDEST SWAP3 POP PUSH1 0x20 DUP3 PUSH2 0x2E9F SWAP2 SWAP1 PUSH2 0x3E94 JUMP JUMPDEST SWAP2 POP DUP1 PUSH1 0x1 ADD SWAP1 POP PUSH2 0x2E6B JUMP JUMPDEST POP PUSH1 0x0 PUSH1 0x1 PUSH1 0x20 DUP8 DUP2 PUSH2 0x2EC2 JUMPI PUSH2 0x2EC1 PUSH2 0x47C9 JUMP JUMPDEST JUMPDEST MOD PUSH1 0x20 SUB PUSH2 0x100 EXP SUB SWAP1 POP DUP1 DUP3 MLOAD AND DUP2 NOT DUP5 MLOAD AND OR DUP3 MSTORE DUP4 SWAP5 POP POP POP POP POP JUMPDEST SWAP4 SWAP3 POP POP POP JUMP JUMPDEST PUSH1 0x60 PUSH2 0x2EF3 DUP3 PUSH2 0x3066 JUMP JUMPDEST SWAP1 POP SWAP2 SWAP1 POP JUMP JUMPDEST PUSH1 0x60 DUP2 PUSH1 0x1F DUP4 PUSH2 0x2F0A SWAP2 SWAP1 PUSH2 0x3E94 JUMP JUMPDEST LT ISZERO PUSH2 0x2F4B JUMPI PUSH1 0x40 MLOAD PUSH32 0x8C379A000000000000000000000000000000000000000000000000000000000 DUP2 MSTORE PUSH1 0x4 ADD PUSH2 0x2F42 SWAP1 PUSH2 0x4F03 JUMP JUMPDEST PUSH1 0x40 MLOAD DUP1 SWAP2 SUB SWAP1 REVERT JUMPDEST DUP3 DUP3 DUP5 PUSH2 0x2F58 SWAP2 SWAP1 PUSH2 0x3E94 JUMP JUMPDEST LT ISZERO PUSH2 0x2F99 JUMPI PUSH1 0x40 MLOAD PUSH32 0x8C379A000000000000000000000000000000000000000000000000000000000 DUP2 MSTORE PUSH1 0x4 ADD PUSH2 0x2F90 SWAP1 PUSH2 0x4F03 JUMP JUMPDEST PUSH1 0x40 MLOAD DUP1 SWAP2 SUB SWAP1 REVERT JUMPDEST DUP2 DUP4 PUSH2 0x2FA5 SWAP2 SWAP1 PUSH2 0x3E94 JUMP JUMPDEST DUP5 MLOAD LT ISZERO PUSH2 0x2FE8 JUMPI PUSH1 0x40 MLOAD PUSH32 0x8C379A000000000000000000000000000000000000000000000000000000000 DUP2 MSTORE PUSH1 0x4 ADD PUSH2 0x2FDF SWAP1 PUSH2 0x4F6F JUMP JUMPDEST PUSH1 0x40 MLOAD DUP1 SWAP2 SUB SWAP1 REVERT JUMPDEST PUSH1 0x60 DUP3 ISZERO PUSH1 0x0 DUP2 EQ PUSH2 0x3009 JUMPI PUSH1 0x40 MLOAD SWAP2 POP PUSH1 0x0 DUP3 MSTORE PUSH1 0x20 DUP3 ADD PUSH1 0x40 MSTORE PUSH2 0x305A JUMP JUMPDEST PUSH1 0x40 MLOAD SWAP2 POP PUSH1 0x1F DUP5 AND DUP1 ISZERO PUSH1 0x20 MUL DUP2 DUP5 ADD ADD DUP6 DUP2 ADD DUP8 DUP4 ISZERO PUSH1 0x20 MUL DUP5 DUP12 ADD ADD ADD JUMPDEST DUP2 DUP4 LT ISZERO PUSH2 0x3047 JUMPI DUP1 MLOAD DUP4 MSTORE PUSH1 0x20 DUP4 ADD SWAP3 POP PUSH1 0x20 DUP2 ADD SWAP1 POP PUSH2 0x302A JUMP JUMPDEST POP DUP7 DUP6 MSTORE PUSH1 0x1F NOT PUSH1 0x1F DUP4 ADD AND PUSH1 0x40 MSTORE POP POP POP JUMPDEST POP DUP1 SWAP2 POP POP SWAP4 SWAP3 POP POP POP JUMP JUMPDEST PUSH1 0x60 PUSH2 0x307C DUP3 PUSH1 0x20 ADD MLOAD PUSH1 0x0 DUP5 PUSH1 0x0 ADD MLOAD PUSH2 0x2DEB JUMP JUMPDEST SWAP1 POP SWAP2 SWAP1 POP JUMP JUMPDEST PUSH1 0x40 MLOAD DUP1 PUSH1 0x80 ADD PUSH1 0x40 MSTORE DUP1 PUSH1 0x0 DUP2 MSTORE PUSH1 0x20 ADD PUSH1 0x0 DUP2 MSTORE PUSH1 0x20 ADD PUSH1 0x0 DUP1 NOT AND DUP2 MSTORE PUSH1 0x20 ADD PUSH1 0x0 DUP1 NOT AND DUP2 MSTORE POP SWAP1 JUMP JUMPDEST PUSH1 0x40 MLOAD DUP1 PUSH1 0x40 ADD PUSH1 0x40 MSTORE DUP1 PUSH1 0x60 DUP2 MSTORE PUSH1 0x20 ADD PUSH1 0x60 DUP2 MSTORE POP SWAP1 JUMP JUMPDEST PUSH1 0x40 MLOAD DUP1 PUSH1 0x40 ADD PUSH1 0x40 MSTORE DUP1 PUSH1 0x0 DUP2 MSTORE PUSH1 0x20 ADD PUSH1 0x0 DUP2 MSTORE POP SWAP1 JUMP JUMPDEST PUSH1 0x0 PUSH20 0xFFFFFFFFFFFFFFFFFFFFFFFFFFFFFFFFFFFFFFFF DUP3 AND SWAP1 POP SWAP2 SWAP1 POP JUMP JUMPDEST PUSH1 0x0 DUP2 SWAP1 POP SWAP2 SWAP1 POP JUMP JUMPDEST PUSH1 0x0 PUSH2 0x312A PUSH2 0x3125 PUSH2 0x3120 DUP5 PUSH2 0x30E5 JUMP JUMPDEST PUSH2 0x3105 JUMP JUMPDEST PUSH2 0x30E5 JUMP JUMPDEST SWAP1 POP SWAP2 SWAP1 POP JUMP JUMPDEST PUSH1 0x0 PUSH2 0x313C DUP3 PUSH2 0x310F JUMP JUMPDEST SWAP1 POP SWAP2 SWAP1 POP JUMP JUMPDEST PUSH1 0x0 PUSH2 0x314E DUP3 PUSH2 0x3131 JUMP JUMPDEST SWAP1 POP SWAP2 SWAP1 POP JUMP JUMPDEST PUSH2 0x315E DUP2 PUSH2 0x3143 JUMP JUMPDEST DUP3 MSTORE POP POP JUMP JUMPDEST PUSH1 0x0 PUSH1 0x20 DUP3 ADD SWAP1 POP PUSH2 0x3179 PUSH1 0x0 DUP4 ADD DUP5 PUSH2 0x3155 JUMP JUMPDEST SWAP3 SWAP2 POP POP JUMP JUMPDEST PUSH1 0x0 PUSH4 0xFFFFFFFF DUP3 AND SWAP1 POP SWAP2 SWAP1 POP JUMP JUMPDEST PUSH2 0x3198 DUP2 PUSH2 0x317F JUMP JUMPDEST DUP3 MSTORE POP POP JUMP JUMPDEST PUSH1 0x0 PUSH1 0x20 DUP3 ADD SWAP1 POP PUSH2 0x31B3 PUSH1 0x0 DUP4 ADD DUP5 PUSH2 0x318F JUMP JUMPDEST SWAP3 SWAP2 POP POP JUMP JUMPDEST PUSH1 0x0 DUP2 SWAP1 POP SWAP2 SWAP1 POP JUMP JUMPDEST PUSH2 0x31CC DUP2 PUSH2 0x31B9 JUMP JUMPDEST DUP3 MSTORE POP POP JUMP JUMPDEST PUSH1 0x0 PUSH1 0x20 DUP3 ADD SWAP1 POP PUSH2 0x31E7 PUSH1 0x0 DUP4 ADD DUP5 PUSH2 0x31C3 JUMP JUMPDEST SWAP3 SWAP2 POP POP JUMP JUMPDEST PUSH1 0x0 PUSH1 0x40 MLOAD SWAP1 POP SWAP1 JUMP JUMPDEST PUSH1 0x0 DUP1 REVERT JUMPDEST PUSH1 0x0 DUP1 REVERT JUMPDEST PUSH1 0x0 DUP1 REVERT JUMPDEST PUSH1 0x0 DUP1 REVERT JUMPDEST PUSH1 0x0 PUSH1 0x1F NOT PUSH1 0x1F DUP4 ADD AND SWAP1 POP SWAP2 SWAP1 POP JUMP JUMPDEST PUSH32 0x4E487B7100000000000000000000000000000000000000000000000000000000 PUSH1 0x0 MSTORE PUSH1 0x41 PUSH1 0x4 MSTORE PUSH1 0x24 PUSH1 0x0 REVERT JUMPDEST PUSH2 0x3254 DUP3 PUSH2 0x320B JUMP JUMPDEST DUP2 ADD DUP2 DUP2 LT PUSH8 0xFFFFFFFFFFFFFFFF DUP3 GT OR ISZERO PUSH2 0x3273 JUMPI PUSH2 0x3272 PUSH2 0x321C JUMP JUMPDEST JUMPDEST DUP1 PUSH1 0x40 MSTORE POP POP POP JUMP JUMPDEST PUSH1 0x0 PUSH2 0x3286 PUSH2 0x31ED JUMP JUMPDEST SWAP1 POP PUSH2 0x3292 DUP3 DUP3 PUSH2 0x324B JUMP JUMPDEST SWAP2 SWAP1 POP JUMP JUMPDEST PUSH1 0x0 PUSH8 0xFFFFFFFFFFFFFFFF DUP3 GT ISZERO PUSH2 0x32B2 JUMPI PUSH2 0x32B1 PUSH2 0x321C JUMP JUMPDEST JUMPDEST PUSH2 0x32BB DUP3 PUSH2 0x320B JUMP JUMPDEST SWAP1 POP PUSH1 0x20 DUP2 ADD SWAP1 POP SWAP2 SWAP1 POP JUMP JUMPDEST DUP3 DUP2 DUP4 CALLDATACOPY PUSH1 0x0 DUP4 DUP4 ADD MSTORE POP POP POP JUMP JUMPDEST PUSH1 0x0 PUSH2 0x32EA PUSH2 0x32E5 DUP5 PUSH2 0x3297 JUMP JUMPDEST PUSH2 0x327C JUMP JUMPDEST SWAP1 POP DUP3 DUP2 MSTORE PUSH1 0x20 DUP2 ADD DUP5 DUP5 DUP5 ADD GT ISZERO PUSH2 0x3306 JUMPI PUSH2 0x3305 PUSH2 0x3206 JUMP JUMPDEST JUMPDEST PUSH2 0x3311 DUP5 DUP3 DUP6 PUSH2 0x32C8 JUMP JUMPDEST POP SWAP4 SWAP3 POP POP POP JUMP JUMPDEST PUSH1 0x0 DUP3 PUSH1 0x1F DUP4 ADD SLT PUSH2 0x332E JUMPI PUSH2 0x332D PUSH2 0x3201 JUMP JUMPDEST JUMPDEST DUP2 CALLDATALOAD PUSH2 0x333E DUP5 DUP3 PUSH1 0x20 DUP7 ADD PUSH2 0x32D7 JUMP JUMPDEST SWAP2 POP POP SWAP3 SWAP2 POP POP JUMP JUMPDEST PUSH1 0x0 DUP1 PUSH1 0x40 DUP4 DUP6 SUB SLT ISZERO PUSH2 0x335E JUMPI PUSH2 0x335D PUSH2 0x31F7 JUMP JUMPDEST JUMPDEST PUSH1 0x0 DUP4 ADD CALLDATALOAD PUSH8 0xFFFFFFFFFFFFFFFF DUP2 GT ISZERO PUSH2 0x337C JUMPI PUSH2 0x337B PUSH2 0x31FC JUMP JUMPDEST JUMPDEST PUSH2 0x3388 DUP6 DUP3 DUP7 ADD PUSH2 0x3319 JUMP JUMPDEST SWAP3 POP POP PUSH1 0x20 DUP4 ADD CALLDATALOAD PUSH8 0xFFFFFFFFFFFFFFFF DUP2 GT ISZERO PUSH2 0x33A9 JUMPI PUSH2 0x33A8 PUSH2 0x31FC JUMP JUMPDEST JUMPDEST PUSH2 0x33B5 DUP6 DUP3 DUP7 ADD PUSH2 0x3319 JUMP JUMPDEST SWAP2 POP POP SWAP3 POP SWAP3 SWAP1 POP JUMP JUMPDEST PUSH1 0x0 PUSH1 0x20 DUP3 DUP5 SUB SLT ISZERO PUSH2 0x33D5 JUMPI PUSH2 0x33D4 PUSH2 0x31F7 JUMP JUMPDEST JUMPDEST PUSH1 0x0 DUP3 ADD CALLDATALOAD PUSH8 0xFFFFFFFFFFFFFFFF DUP2 GT ISZERO PUSH2 0x33F3 JUMPI PUSH2 0x33F2 PUSH2 0x31FC JUMP JUMPDEST JUMPDEST PUSH2 0x33FF DUP5 DUP3 DUP6 ADD PUSH2 0x3319 JUMP JUMPDEST SWAP2 POP POP SWAP3 SWAP2 POP POP JUMP JUMPDEST PUSH1 0x0 PUSH2 0x3413 DUP3 PUSH2 0x30E5 JUMP JUMPDEST SWAP1 POP SWAP2 SWAP1 POP JUMP JUMPDEST PUSH2 0x3423 DUP2 PUSH2 0x3408 JUMP JUMPDEST DUP2 EQ PUSH2 0x342E JUMPI PUSH1 0x0 DUP1 REVERT JUMPDEST POP JUMP JUMPDEST PUSH1 0x0 DUP2 CALLDATALOAD SWAP1 POP PUSH2 0x3440 DUP2 PUSH2 0x341A JUMP JUMPDEST SWAP3 SWAP2 POP POP JUMP JUMPDEST PUSH1 0x0 PUSH1 0x20 DUP3 DUP5 SUB SLT ISZERO PUSH2 0x345C JUMPI PUSH2 0x345B PUSH2 0x31F7 JUMP JUMPDEST JUMPDEST PUSH1 0x0 PUSH2 0x346A DUP5 DUP3 DUP6 ADD PUSH2 0x3431 JUMP JUMPDEST SWAP2 POP POP SWAP3 SWAP2 POP POP JUMP JUMPDEST PUSH2 0x347C DUP2 PUSH2 0x3408 JUMP JUMPDEST DUP3 MSTORE POP POP JUMP JUMPDEST PUSH1 0x0 PUSH1 0x20 DUP3 ADD SWAP1 POP PUSH2 0x3497 PUSH1 0x0 DUP4 ADD DUP5 PUSH2 0x3473 JUMP JUMPDEST SWAP3 SWAP2 POP POP JUMP JUMPDEST PUSH2 0x34A6 DUP2 PUSH2 0x31B9 JUMP JUMPDEST DUP2 EQ PUSH2 0x34B1 JUMPI PUSH1 0x0 DUP1 REVERT JUMPDEST POP JUMP JUMPDEST PUSH1 0x0 DUP2 CALLDATALOAD SWAP1 POP PUSH2 0x34C3 DUP2 PUSH2 0x349D JUMP JUMPDEST SWAP3 SWAP2 POP POP JUMP JUMPDEST PUSH1 0x0 DUP1 REVERT JUMPDEST PUSH1 0x0 DUP1 REVERT JUMPDEST PUSH1 0x0 DUP2 SWAP1 POP SWAP2 SWAP1 POP JUMP JUMPDEST PUSH2 0x34E6 DUP2 PUSH2 0x34D3 JUMP JUMPDEST DUP2 EQ PUSH2 0x34F1 JUMPI PUSH1 0x0 DUP1 REVERT JUMPDEST POP JUMP JUMPDEST PUSH1 0x0 DUP2 CALLDATALOAD SWAP1 POP PUSH2 0x3503 DUP2 PUSH2 0x34DD JUMP JUMPDEST SWAP3 SWAP2 POP POP JUMP JUMPDEST PUSH1 0x0 PUSH1 0xA0 DUP3 DUP5 SUB SLT ISZERO PUSH2 0x351F JUMPI PUSH2 0x351E PUSH2 0x34C9 JUMP JUMPDEST JUMPDEST PUSH2 0x3529 PUSH1 0xA0 PUSH2 0x327C JUMP JUMPDEST SWAP1 POP PUSH1 0x0 PUSH2 0x3539 DUP5 DUP3 DUP6 ADD PUSH2 0x34B4 JUMP JUMPDEST PUSH1 0x0 DUP4 ADD MSTORE POP PUSH1 0x20 PUSH2 0x354D DUP5 DUP3 DUP6 ADD PUSH2 0x34F4 JUMP JUMPDEST PUSH1 0x20 DUP4 ADD MSTORE POP PUSH1 0x40 PUSH2 0x3561 DUP5 DUP3 DUP6 ADD PUSH2 0x34B4 JUMP JUMPDEST PUSH1 0x40 DUP4 ADD MSTORE POP PUSH1 0x60 PUSH2 0x3575 DUP5 DUP3 DUP6 ADD PUSH2 0x34B4 JUMP JUMPDEST PUSH1 0x60 DUP4 ADD MSTORE POP PUSH1 0x80 DUP3 ADD CALLDATALOAD PUSH8 0xFFFFFFFFFFFFFFFF DUP2 GT ISZERO PUSH2 0x3599 JUMPI PUSH2 0x3598 PUSH2 0x34CE JUMP JUMPDEST JUMPDEST PUSH2 0x35A5 DUP5 DUP3 DUP6 ADD PUSH2 0x3319 JUMP JUMPDEST PUSH1 0x80 DUP4 ADD MSTORE POP SWAP3 SWAP2 POP POP JUMP JUMPDEST PUSH1 0x0 PUSH8 0xFFFFFFFFFFFFFFFF DUP3 GT ISZERO PUSH2 0x35CC JUMPI PUSH2 0x35CB PUSH2 0x321C JUMP JUMPDEST JUMPDEST PUSH1 0x20 DUP3 MUL SWAP1 POP PUSH1 0x20 DUP2 ADD SWAP1 POP SWAP2 SWAP1 POP JUMP JUMPDEST PUSH1 0x0 DUP1 REVERT JUMPDEST PUSH1 0x0 PUSH2 0x35F5 PUSH2 0x35F0 DUP5 PUSH2 0x35B1 JUMP JUMPDEST PUSH2 0x327C JUMP JUMPDEST SWAP1 POP DUP1 DUP4 DUP3 MSTORE PUSH1 0x20 DUP3 ADD SWAP1 POP PUSH1 0x20 DUP5 MUL DUP4 ADD DUP6 DUP2 GT ISZERO PUSH2 0x3618 JUMPI PUSH2 0x3617 PUSH2 0x35DD JUMP JUMPDEST JUMPDEST DUP4 JUMPDEST DUP2 DUP2 LT ISZERO PUSH2 0x3641 JUMPI DUP1 PUSH2 0x362D DUP9 DUP3 PUSH2 0x34F4 JUMP JUMPDEST DUP5 MSTORE PUSH1 0x20 DUP5 ADD SWAP4 POP POP PUSH1 0x20 DUP2 ADD SWAP1 POP PUSH2 0x361A JUMP JUMPDEST POP POP POP SWAP4 SWAP3 POP POP POP JUMP JUMPDEST PUSH1 0x0 DUP3 PUSH1 0x1F DUP4 ADD SLT PUSH2 0x3660 JUMPI PUSH2 0x365F PUSH2 0x3201 JUMP JUMPDEST JUMPDEST DUP2 CALLDATALOAD PUSH2 0x3670 DUP5 DUP3 PUSH1 0x20 DUP7 ADD PUSH2 0x35E2 JUMP JUMPDEST SWAP2 POP POP SWAP3 SWAP2 POP POP JUMP JUMPDEST PUSH1 0x0 PUSH1 0x40 DUP3 DUP5 SUB SLT ISZERO PUSH2 0x368F JUMPI PUSH2 0x368E PUSH2 0x34C9 JUMP JUMPDEST JUMPDEST PUSH2 0x3699 PUSH1 0x40 PUSH2 0x327C JUMP JUMPDEST SWAP1 POP PUSH1 0x0 PUSH2 0x36A9 DUP5 DUP3 DUP6 ADD PUSH2 0x34B4 JUMP JUMPDEST PUSH1 0x0 DUP4 ADD MSTORE POP PUSH1 0x20 DUP3 ADD CALLDATALOAD PUSH8 0xFFFFFFFFFFFFFFFF DUP2 GT ISZERO PUSH2 0x36CD JUMPI PUSH2 0x36CC PUSH2 0x34CE JUMP JUMPDEST JUMPDEST PUSH2 0x36D9 DUP5 DUP3 DUP6 ADD PUSH2 0x364B JUMP JUMPDEST PUSH1 0x20 DUP4 ADD MSTORE POP SWAP3 SWAP2 POP POP JUMP JUMPDEST PUSH1 0x0 PUSH1 0xA0 DUP3 DUP5 SUB SLT ISZERO PUSH2 0x36FB JUMPI PUSH2 0x36FA PUSH2 0x34C9 JUMP JUMPDEST JUMPDEST PUSH2 0x3705 PUSH1 0xA0 PUSH2 0x327C JUMP JUMPDEST SWAP1 POP PUSH1 0x0 PUSH2 0x3715 DUP5 DUP3 DUP6 ADD PUSH2 0x34F4 JUMP JUMPDEST PUSH1 0x0 DUP4 ADD MSTORE POP PUSH1 0x20 DUP3 ADD CALLDATALOAD PUSH8 0xFFFFFFFFFFFFFFFF DUP2 GT ISZERO PUSH2 0x3739 JUMPI PUSH2 0x3738 PUSH2 0x34CE JUMP JUMPDEST JUMPDEST PUSH2 0x3745 DUP5 DUP3 DUP6 ADD PUSH2 0x3509 JUMP JUMPDEST PUSH1 0x20 DUP4 ADD MSTORE POP PUSH1 0x40 DUP3 ADD CALLDATALOAD PUSH8 0xFFFFFFFFFFFFFFFF DUP2 GT ISZERO PUSH2 0x3769 JUMPI PUSH2 0x3768 PUSH2 0x34CE JUMP JUMPDEST JUMPDEST PUSH2 0x3775 DUP5 DUP3 DUP6 ADD PUSH2 0x3679 JUMP JUMPDEST PUSH1 0x40 DUP4 ADD MSTORE POP PUSH1 0x60 DUP3 ADD CALLDATALOAD PUSH8 0xFFFFFFFFFFFFFFFF DUP2 GT ISZERO PUSH2 0x3799 JUMPI PUSH2 0x3798 PUSH2 0x34CE JUMP JUMPDEST JUMPDEST PUSH2 0x37A5 DUP5 DUP3 DUP6 ADD PUSH2 0x3319 JUMP JUMPDEST PUSH1 0x60 DUP4 ADD MSTORE POP PUSH1 0x80 DUP3 ADD CALLDATALOAD PUSH8 0xFFFFFFFFFFFFFFFF DUP2 GT ISZERO PUSH2 0x37C9 JUMPI PUSH2 0x37C8 PUSH2 0x34CE JUMP JUMPDEST JUMPDEST PUSH2 0x37D5 DUP5 DUP3 DUP6 ADD PUSH2 0x3319 JUMP JUMPDEST PUSH1 0x80 DUP4 ADD MSTORE POP SWAP3 SWAP2 POP POP JUMP JUMPDEST PUSH1 0x0 DUP1 PUSH1 0x0 DUP1 PUSH1 0x0 PUSH1 0xA0 DUP7 DUP9 SUB SLT ISZERO PUSH2 0x37FD JUMPI PUSH2 0x37FC PUSH2 0x31F7 JUMP JUMPDEST JUMPDEST PUSH1 0x0 PUSH2 0x380B DUP9 DUP3 DUP10 ADD PUSH2 0x3431 JUMP JUMPDEST SWAP6 POP POP PUSH1 0x20 PUSH2 0x381C DUP9 DUP3 DUP10 ADD PUSH2 0x3431 JUMP JUMPDEST SWAP5 POP POP PUSH1 0x40 DUP7 ADD CALLDATALOAD PUSH8 0xFFFFFFFFFFFFFFFF DUP2 GT ISZERO PUSH2 0x383D JUMPI PUSH2 0x383C PUSH2 0x31FC JUMP JUMPDEST JUMPDEST PUSH2 0x3849 DUP9 DUP3 DUP10 ADD PUSH2 0x3319 JUMP JUMPDEST SWAP4 POP POP PUSH1 0x60 PUSH2 0x385A DUP9 DUP3 DUP10 ADD PUSH2 0x34B4 JUMP JUMPDEST SWAP3 POP POP PUSH1 0x80 DUP7 ADD CALLDATALOAD PUSH8 0xFFFFFFFFFFFFFFFF DUP2 GT ISZERO PUSH2 0x387B JUMPI PUSH2 0x387A PUSH2 0x31FC JUMP JUMPDEST JUMPDEST PUSH2 0x3887 DUP9 DUP3 DUP10 ADD PUSH2 0x36E5 JUMP JUMPDEST SWAP2 POP POP SWAP3 SWAP6 POP SWAP3 SWAP6 SWAP1 SWAP4 POP JUMP JUMPDEST PUSH1 0x0 PUSH1 0x20 DUP3 DUP5 SUB SLT ISZERO PUSH2 0x38AA JUMPI PUSH2 0x38A9 PUSH2 0x31F7 JUMP JUMPDEST JUMPDEST PUSH1 0x0 PUSH2 0x38B8 DUP5 DUP3 DUP6 ADD PUSH2 0x34B4 JUMP JUMPDEST SWAP2 POP POP SWAP3 SWAP2 POP POP JUMP JUMPDEST PUSH1 0x0 PUSH1 0x20 DUP3 DUP5 SUB SLT ISZERO PUSH2 0x38D7 JUMPI PUSH2 0x38D6 PUSH2 0x31F7 JUMP JUMPDEST JUMPDEST PUSH1 0x0 PUSH2 0x38E5 DUP5 DUP3 DUP6 ADD PUSH2 0x34F4 JUMP JUMPDEST SWAP2 POP POP SWAP3 SWAP2 POP POP JUMP JUMPDEST PUSH1 0x0 DUP2 ISZERO ISZERO SWAP1 POP SWAP2 SWAP1 POP JUMP JUMPDEST PUSH2 0x3903 DUP2 PUSH2 0x38EE JUMP JUMPDEST DUP3 MSTORE POP POP JUMP JUMPDEST PUSH1 0x0 PUSH1 0x20 DUP3 ADD SWAP1 POP PUSH2 0x391E PUSH1 0x0 DUP4 ADD DUP5 PUSH2 0x38FA JUMP JUMPDEST SWAP3 SWAP2 POP POP JUMP JUMPDEST PUSH1 0x0 DUP3 DUP3 MSTORE PUSH1 0x20 DUP3 ADD SWAP1 POP SWAP3 SWAP2 POP POP JUMP JUMPDEST PUSH32 0x21726F6F744D616E616765720000000000000000000000000000000000000000 PUSH1 0x0 DUP3 ADD MSTORE POP JUMP JUMPDEST PUSH1 0x0 PUSH2 0x396B PUSH1 0xC DUP4 PUSH2 0x3924 JUMP JUMPDEST SWAP2 POP PUSH2 0x3976 DUP3 PUSH2 0x3935 JUMP JUMPDEST PUSH1 0x20 DUP3 ADD SWAP1 POP SWAP2 SWAP1 POP JUMP JUMPDEST PUSH1 0x0 PUSH1 0x20 DUP3 ADD SWAP1 POP DUP2 DUP2 SUB PUSH1 0x0 DUP4 ADD MSTORE PUSH2 0x399A DUP2 PUSH2 0x395E JUMP JUMPDEST SWAP1 POP SWAP2 SWAP1 POP JUMP JUMPDEST PUSH1 0x0 DUP2 MLOAD SWAP1 POP SWAP2 SWAP1 POP JUMP JUMPDEST PUSH1 0x0 DUP3 DUP3 MSTORE PUSH1 0x20 DUP3 ADD SWAP1 POP SWAP3 SWAP2 POP POP JUMP JUMPDEST PUSH1 0x0 JUMPDEST DUP4 DUP2 LT ISZERO PUSH2 0x39DB JUMPI DUP1 DUP3 ADD MLOAD DUP2 DUP5 ADD MSTORE PUSH1 0x20 DUP2 ADD SWAP1 POP PUSH2 0x39C0 JUMP JUMPDEST PUSH1 0x0 DUP5 DUP5 ADD MSTORE POP POP POP POP JUMP JUMPDEST PUSH1 0x0 PUSH2 0x39F2 DUP3 PUSH2 0x39A1 JUMP JUMPDEST PUSH2 0x39FC DUP2 DUP6 PUSH2 0x39AC JUMP JUMPDEST SWAP4 POP PUSH2 0x3A0C DUP2 DUP6 PUSH1 0x20 DUP7 ADD PUSH2 0x39BD JUMP JUMPDEST PUSH2 0x3A15 DUP2 PUSH2 0x320B JUMP JUMPDEST DUP5 ADD SWAP2 POP POP SWAP3 SWAP2 POP POP JUMP JUMPDEST PUSH1 0x0 PUSH1 0x60 DUP3 ADD SWAP1 POP DUP2 DUP2 SUB PUSH1 0x0 DUP4 ADD MSTORE PUSH2 0x3A3A DUP2 DUP7 PUSH2 0x39E7 JUMP JUMPDEST SWAP1 POP DUP2 DUP2 SUB PUSH1 0x20 DUP4 ADD MSTORE PUSH2 0x3A4E DUP2 DUP6 PUSH2 0x39E7 JUMP JUMPDEST SWAP1 POP PUSH2 0x3A5D PUSH1 0x40 DUP4 ADD DUP5 PUSH2 0x3473 JUMP JUMPDEST SWAP5 SWAP4 POP POP POP POP JUMP JUMPDEST PUSH32 0x21414D4200000000000000000000000000000000000000000000000000000000 PUSH1 0x0 DUP3 ADD MSTORE POP JUMP JUMPDEST PUSH1 0x0 PUSH2 0x3A9B PUSH1 0x4 DUP4 PUSH2 0x3924 JUMP JUMPDEST SWAP2 POP PUSH2 0x3AA6 DUP3 PUSH2 0x3A65 JUMP JUMPDEST PUSH1 0x20 DUP3 ADD SWAP1 POP SWAP2 SWAP1 POP JUMP JUMPDEST PUSH1 0x0 PUSH1 0x20 DUP3 ADD SWAP1 POP DUP2 DUP2 SUB PUSH1 0x0 DUP4 ADD MSTORE PUSH2 0x3ACA DUP2 PUSH2 0x3A8E JUMP JUMPDEST SWAP1 POP SWAP2 SWAP1 POP JUMP JUMPDEST PUSH1 0x0 PUSH1 0x40 DUP3 ADD SWAP1 POP DUP2 DUP2 SUB PUSH1 0x0 DUP4 ADD MSTORE PUSH2 0x3AEB DUP2 DUP6 PUSH2 0x39E7 JUMP JUMPDEST SWAP1 POP PUSH2 0x3AFA PUSH1 0x20 DUP4 ADD DUP5 PUSH2 0x3473 JUMP JUMPDEST SWAP4 SWAP3 POP POP POP JUMP JUMPDEST PUSH32 0x216D6972726F72436F6E6E6563746F7200000000000000000000000000000000 PUSH1 0x0 DUP3 ADD MSTORE POP JUMP JUMPDEST PUSH1 0x0 PUSH2 0x3B37 PUSH1 0x10 DUP4 PUSH2 0x3924 JUMP JUMPDEST SWAP2 POP PUSH2 0x3B42 DUP3 PUSH2 0x3B01 JUMP JUMPDEST PUSH1 0x20 DUP3 ADD SWAP1 POP SWAP2 SWAP1 POP JUMP JUMPDEST PUSH1 0x0 PUSH1 0x20 DUP3 ADD SWAP1 POP DUP2 DUP2 SUB PUSH1 0x0 DUP4 ADD MSTORE PUSH2 0x3B66 DUP2 PUSH2 0x3B2A JUMP JUMPDEST SWAP1 POP SWAP2 SWAP1 POP JUMP JUMPDEST PUSH32 0x2174686973000000000000000000000000000000000000000000000000000000 PUSH1 0x0 DUP3 ADD MSTORE POP JUMP JUMPDEST PUSH1 0x0 PUSH2 0x3BA3 PUSH1 0x5 DUP4 PUSH2 0x3924 JUMP JUMPDEST SWAP2 POP PUSH2 0x3BAE DUP3 PUSH2 0x3B6D JUMP JUMPDEST PUSH1 0x20 DUP3 ADD SWAP1 POP SWAP2 SWAP1 POP JUMP JUMPDEST PUSH1 0x0 PUSH1 0x20 DUP3 ADD SWAP1 POP DUP2 DUP2 SUB PUSH1 0x0 DUP4 ADD MSTORE PUSH2 0x3BD2 DUP2 PUSH2 0x3B96 JUMP JUMPDEST SWAP1 POP SWAP2 SWAP1 POP JUMP JUMPDEST PUSH32 0x2170726F6F660000000000000000000000000000000000000000000000000000 PUSH1 0x0 DUP3 ADD MSTORE POP JUMP JUMPDEST PUSH1 0x0 PUSH2 0x3C0F PUSH1 0x6 DUP4 PUSH2 0x3924 JUMP JUMPDEST SWAP2 POP PUSH2 0x3C1A DUP3 PUSH2 0x3BD9 JUMP JUMPDEST PUSH1 0x20 DUP3 ADD SWAP1 POP SWAP2 SWAP1 POP JUMP JUMPDEST PUSH1 0x0 PUSH1 0x20 DUP3 ADD SWAP1 POP DUP2 DUP2 SUB PUSH1 0x0 DUP4 ADD MSTORE PUSH2 0x3C3E DUP2 PUSH2 0x3C02 JUMP JUMPDEST SWAP1 POP SWAP2 SWAP1 POP JUMP JUMPDEST PUSH1 0x0 PUSH12 0xFFFFFFFFFFFFFFFFFFFFFFFF DUP3 AND SWAP1 POP SWAP2 SWAP1 POP JUMP JUMPDEST PUSH32 0x4E487B7100000000000000000000000000000000000000000000000000000000 PUSH1 0x0 MSTORE PUSH1 0x11 PUSH1 0x4 MSTORE PUSH1 0x24 PUSH1 0x0 REVERT JUMPDEST PUSH1 0x0 PUSH2 0x3C97 DUP3 PUSH2 0x3C45 JUMP JUMPDEST SWAP2 POP PUSH2 0x3CA2 DUP4 PUSH2 0x3C45 JUMP JUMPDEST SWAP3 POP DUP3 DUP3 SUB SWAP1 POP PUSH12 0xFFFFFFFFFFFFFFFFFFFFFFFF DUP2 GT ISZERO PUSH2 0x3CC6 JUMPI PUSH2 0x3CC5 PUSH2 0x3C5D JUMP JUMPDEST JUMPDEST SWAP3 SWAP2 POP POP JUMP JUMPDEST PUSH2 0x3CD5 DUP2 PUSH2 0x34D3 JUMP JUMPDEST DUP3 MSTORE POP POP JUMP JUMPDEST PUSH1 0x0 PUSH1 0x40 DUP3 ADD SWAP1 POP PUSH2 0x3CF0 PUSH1 0x0 DUP4 ADD DUP6 PUSH2 0x318F JUMP JUMPDEST PUSH2 0x3CFD PUSH1 0x20 DUP4 ADD DUP5 PUSH2 0x3CCC JUMP JUMPDEST SWAP4 SWAP3 POP POP POP JUMP JUMPDEST PUSH1 0x0 PUSH1 0x20 DUP3 ADD SWAP1 POP PUSH2 0x3D19 PUSH1 0x0 DUP4 ADD DUP5 PUSH2 0x3CCC JUMP JUMPDEST SWAP3 SWAP2 POP POP JUMP JUMPDEST PUSH1 0x0 PUSH2 0x3D2A DUP3 PUSH2 0x31B9 JUMP JUMPDEST SWAP2 POP PUSH2 0x3D35 DUP4 PUSH2 0x31B9 JUMP JUMPDEST SWAP3 POP DUP3 DUP3 SUB SWAP1 POP DUP2 DUP2 GT ISZERO PUSH2 0x3D4D JUMPI PUSH2 0x3D4C PUSH2 0x3C5D JUMP JUMPDEST JUMPDEST SWAP3 SWAP2 POP POP JUMP JUMPDEST PUSH32 0x216C656E67746800000000000000000000000000000000000000000000000000 PUSH1 0x0 DUP3 ADD MSTORE POP JUMP JUMPDEST PUSH1 0x0 PUSH2 0x3D89 PUSH1 0x7 DUP4 PUSH2 0x3924 JUMP JUMPDEST SWAP2 POP PUSH2 0x3D94 DUP3 PUSH2 0x3D53 JUMP JUMPDEST PUSH1 0x20 DUP3 ADD SWAP1 POP SWAP2 SWAP1 POP JUMP JUMPDEST PUSH1 0x0 PUSH1 0x20 DUP3 ADD SWAP1 POP DUP2 DUP2 SUB PUSH1 0x0 DUP4 ADD MSTORE PUSH2 0x3DB8 DUP2 PUSH2 0x3D7C JUMP JUMPDEST SWAP1 POP SWAP2 SWAP1 POP JUMP JUMPDEST PUSH1 0x0 PUSH1 0x20 DUP3 ADD SWAP1 POP DUP2 DUP2 SUB PUSH1 0x0 DUP4 ADD MSTORE PUSH2 0x3DD9 DUP2 DUP5 PUSH2 0x39E7 JUMP JUMPDEST SWAP1 POP SWAP3 SWAP2 POP POP JUMP JUMPDEST PUSH1 0x0 PUSH1 0x60 DUP3 ADD SWAP1 POP PUSH2 0x3DF6 PUSH1 0x0 DUP4 ADD DUP7 PUSH2 0x3473 JUMP JUMPDEST DUP2 DUP2 SUB PUSH1 0x20 DUP4 ADD MSTORE PUSH2 0x3E08 DUP2 DUP6 PUSH2 0x39E7 JUMP JUMPDEST SWAP1 POP PUSH2 0x3E17 PUSH1 0x40 DUP4 ADD DUP5 PUSH2 0x318F JUMP JUMPDEST SWAP5 SWAP4 POP POP POP POP JUMP JUMPDEST PUSH1 0x0 PUSH1 0x40 DUP3 ADD SWAP1 POP PUSH2 0x3E34 PUSH1 0x0 DUP4 ADD DUP6 PUSH2 0x3473 JUMP JUMPDEST PUSH2 0x3E41 PUSH1 0x20 DUP4 ADD DUP5 PUSH2 0x3473 JUMP JUMPDEST SWAP4 SWAP3 POP POP POP JUMP JUMPDEST PUSH1 0x0 PUSH1 0x80 DUP3 ADD SWAP1 POP PUSH2 0x3E5D PUSH1 0x0 DUP4 ADD DUP8 PUSH2 0x3473 JUMP JUMPDEST PUSH2 0x3E6A PUSH1 0x20 DUP4 ADD DUP7 PUSH2 0x3473 JUMP JUMPDEST DUP2 DUP2 SUB PUSH1 0x40 DUP4 ADD MSTORE PUSH2 0x3E7C DUP2 DUP6 PUSH2 0x39E7 JUMP JUMPDEST SWAP1 POP PUSH2 0x3E8B PUSH1 0x60 DUP4 ADD DUP5 PUSH2 0x31C3 JUMP JUMPDEST SWAP6 SWAP5 POP POP POP POP POP JUMP JUMPDEST PUSH1 0x0 PUSH2 0x3E9F DUP3 PUSH2 0x31B9 JUMP JUMPDEST SWAP2 POP PUSH2 0x3EAA DUP4 PUSH2 0x31B9 JUMP JUMPDEST SWAP3 POP DUP3 DUP3 ADD SWAP1 POP DUP1 DUP3 GT ISZERO PUSH2 0x3EC2 JUMPI PUSH2 0x3EC1 PUSH2 0x3C5D JUMP JUMPDEST JUMPDEST SWAP3 SWAP2 POP POP JUMP JUMPDEST PUSH1 0x0 PUSH2 0x3EE3 PUSH2 0x3EDE PUSH2 0x3ED9 DUP5 PUSH2 0x3C45 JUMP JUMPDEST PUSH2 0x3105 JUMP JUMPDEST PUSH2 0x31B9 JUMP JUMPDEST SWAP1 POP SWAP2 SWAP1 POP JUMP JUMPDEST PUSH2 0x3EF3 DUP2 PUSH2 0x3EC8 JUMP JUMPDEST DUP3 MSTORE POP POP JUMP JUMPDEST PUSH1 0x0 PUSH1 0x80 DUP3 ADD SWAP1 POP PUSH2 0x3F0E PUSH1 0x0 DUP4 ADD DUP8 PUSH2 0x3EEA JUMP JUMPDEST PUSH2 0x3F1B PUSH1 0x20 DUP4 ADD DUP7 PUSH2 0x3EEA JUMP JUMPDEST PUSH2 0x3F28 PUSH1 0x40 DUP4 ADD DUP6 PUSH2 0x31C3 JUMP JUMPDEST PUSH2 0x3F35 PUSH1 0x60 DUP4 ADD DUP5 PUSH2 0x31C3 JUMP JUMPDEST SWAP6 SWAP5 POP POP POP POP POP JUMP JUMPDEST PUSH1 0x0 PUSH1 0x40 DUP3 ADD SWAP1 POP PUSH2 0x3F53 PUSH1 0x0 DUP4 ADD DUP6 PUSH2 0x31C3 JUMP JUMPDEST PUSH2 0x3F60 PUSH1 0x20 DUP4 ADD DUP5 PUSH2 0x31C3 JUMP JUMPDEST SWAP4 SWAP3 POP POP POP JUMP JUMPDEST PUSH2 0x3F70 DUP2 PUSH2 0x31B9 JUMP JUMPDEST DUP3 MSTORE POP POP JUMP JUMPDEST PUSH2 0x3F7F DUP2 PUSH2 0x34D3 JUMP JUMPDEST DUP3 MSTORE POP POP JUMP JUMPDEST PUSH1 0x0 DUP3 DUP3 MSTORE PUSH1 0x20 DUP3 ADD SWAP1 POP SWAP3 SWAP2 POP POP JUMP JUMPDEST PUSH1 0x0 PUSH2 0x3FA1 DUP3 PUSH2 0x39A1 JUMP JUMPDEST PUSH2 0x3FAB DUP2 DUP6 PUSH2 0x3F85 JUMP JUMPDEST SWAP4 POP PUSH2 0x3FBB DUP2 DUP6 PUSH1 0x20 DUP7 ADD PUSH2 0x39BD JUMP JUMPDEST PUSH2 0x3FC4 DUP2 PUSH2 0x320B JUMP JUMPDEST DUP5 ADD SWAP2 POP POP SWAP3 SWAP2 POP POP JUMP JUMPDEST PUSH1 0x0 PUSH1 0xA0 DUP4 ADD PUSH1 0x0 DUP4 ADD MLOAD PUSH2 0x3FE7 PUSH1 0x0 DUP7 ADD DUP3 PUSH2 0x3F67 JUMP JUMPDEST POP PUSH1 0x20 DUP4 ADD MLOAD PUSH2 0x3FFA PUSH1 0x20 DUP7 ADD DUP3 PUSH2 0x3F76 JUMP JUMPDEST POP PUSH1 0x40 DUP4 ADD MLOAD PUSH2 0x400D PUSH1 0x40 DUP7 ADD DUP3 PUSH2 0x3F67 JUMP JUMPDEST POP PUSH1 0x60 DUP4 ADD MLOAD PUSH2 0x4020 PUSH1 0x60 DUP7 ADD DUP3 PUSH2 0x3F67 JUMP JUMPDEST POP PUSH1 0x80 DUP4 ADD MLOAD DUP5 DUP3 SUB PUSH1 0x80 DUP7 ADD MSTORE PUSH2 0x4038 DUP3 DUP3 PUSH2 0x3F96 JUMP JUMPDEST SWAP2 POP POP DUP1 SWAP2 POP POP SWAP3 SWAP2 POP POP JUMP JUMPDEST PUSH1 0x0 DUP2 MLOAD SWAP1 POP SWAP2 SWAP1 POP JUMP JUMPDEST PUSH1 0x0 DUP3 DUP3 MSTORE PUSH1 0x20 DUP3 ADD SWAP1 POP SWAP3 SWAP2 POP POP JUMP JUMPDEST PUSH1 0x0 DUP2 SWAP1 POP PUSH1 0x20 DUP3 ADD SWAP1 POP SWAP2 SWAP1 POP JUMP JUMPDEST PUSH1 0x0 PUSH2 0x407D DUP4 DUP4 PUSH2 0x3F76 JUMP JUMPDEST PUSH1 0x20 DUP4 ADD SWAP1 POP SWAP3 SWAP2 POP POP JUMP JUMPDEST PUSH1 0x0 PUSH1 0x20 DUP3 ADD SWAP1 POP SWAP2 SWAP1 POP JUMP JUMPDEST PUSH1 0x0 PUSH2 0x40A1 DUP3 PUSH2 0x4045 JUMP JUMPDEST PUSH2 0x40AB DUP2 DUP6 PUSH2 0x4050 JUMP JUMPDEST SWAP4 POP PUSH2 0x40B6 DUP4 PUSH2 0x4061 JUMP JUMPDEST DUP1 PUSH1 0x0 JUMPDEST DUP4 DUP2 LT ISZERO PUSH2 0x40E7 JUMPI DUP2 MLOAD PUSH2 0x40CE DUP9 DUP3 PUSH2 0x4071 JUMP JUMPDEST SWAP8 POP PUSH2 0x40D9 DUP4 PUSH2 0x4089 JUMP JUMPDEST SWAP3 POP POP PUSH1 0x1 DUP2 ADD SWAP1 POP PUSH2 0x40BA JUMP JUMPDEST POP DUP6 SWAP4 POP POP POP POP SWAP3 SWAP2 POP POP JUMP JUMPDEST PUSH1 0x0 PUSH1 0x40 DUP4 ADD PUSH1 0x0 DUP4 ADD MLOAD PUSH2 0x410C PUSH1 0x0 DUP7 ADD DUP3 PUSH2 0x3F67 JUMP JUMPDEST POP PUSH1 0x20 DUP4 ADD MLOAD DUP5 DUP3 SUB PUSH1 0x20 DUP7 ADD MSTORE PUSH2 0x4124 DUP3 DUP3 PUSH2 0x4096 JUMP JUMPDEST SWAP2 POP POP DUP1 SWAP2 POP POP SWAP3 SWAP2 POP POP JUMP JUMPDEST PUSH1 0x0 PUSH1 0x60 DUP3 ADD SWAP1 POP PUSH2 0x4146 PUSH1 0x0 DUP4 ADD DUP7 PUSH2 0x3CCC JUMP JUMPDEST DUP2 DUP2 SUB PUSH1 0x20 DUP4 ADD MSTORE PUSH2 0x4158 DUP2 DUP6 PUSH2 0x3FCF JUMP JUMPDEST SWAP1 POP DUP2 DUP2 SUB PUSH1 0x40 DUP4 ADD MSTORE PUSH2 0x416C DUP2 DUP5 PUSH2 0x40F4 JUMP JUMPDEST SWAP1 POP SWAP5 SWAP4 POP POP POP POP JUMP JUMPDEST PUSH2 0x417F DUP2 PUSH2 0x38EE JUMP JUMPDEST DUP2 EQ PUSH2 0x418A JUMPI PUSH1 0x0 DUP1 REVERT JUMPDEST POP JUMP JUMPDEST PUSH1 0x0 DUP2 MLOAD SWAP1 POP PUSH2 0x419C DUP2 PUSH2 0x4176 JUMP JUMPDEST SWAP3 SWAP2 POP POP JUMP JUMPDEST PUSH1 0x0 PUSH1 0x20 DUP3 DUP5 SUB SLT ISZERO PUSH2 0x41B8 JUMPI PUSH2 0x41B7 PUSH2 0x31F7 JUMP JUMPDEST JUMPDEST PUSH1 0x0 PUSH2 0x41C6 DUP5 DUP3 DUP6 ADD PUSH2 0x418D JUMP JUMPDEST SWAP2 POP POP SWAP3 SWAP2 POP POP JUMP JUMPDEST PUSH1 0x0 DUP2 SWAP1 POP SWAP3 SWAP2 POP POP JUMP JUMPDEST PUSH1 0x0 PUSH2 0x41E5 DUP3 PUSH2 0x39A1 JUMP JUMPDEST PUSH2 0x41EF DUP2 DUP6 PUSH2 0x41CF JUMP JUMPDEST SWAP4 POP PUSH2 0x41FF DUP2 DUP6 PUSH1 0x20 DUP7 ADD PUSH2 0x39BD JUMP JUMPDEST DUP1 DUP5 ADD SWAP2 POP POP SWAP3 SWAP2 POP POP JUMP JUMPDEST PUSH1 0x0 DUP2 PUSH1 0x60 SHL SWAP1 POP SWAP2 SWAP1 POP JUMP JUMPDEST PUSH1 0x0 PUSH2 0x4223 DUP3 PUSH2 0x420B JUMP JUMPDEST SWAP1 POP SWAP2 SWAP1 POP JUMP JUMPDEST PUSH1 0x0 PUSH2 0x4235 DUP3 PUSH2 0x4218 JUMP JUMPDEST SWAP1 POP SWAP2 SWAP1 POP JUMP JUMPDEST PUSH2 0x424D PUSH2 0x4248 DUP3 PUSH2 0x3408 JUMP JUMPDEST PUSH2 0x422A JUMP JUMPDEST DUP3 MSTORE POP POP JUMP JUMPDEST PUSH1 0x0 PUSH2 0x425F DUP3 DUP6 PUSH2 0x41DA JUMP JUMPDEST SWAP2 POP PUSH2 0x426B DUP3 DUP5 PUSH2 0x423C JUMP JUMPDEST PUSH1 0x14 DUP3 ADD SWAP2 POP DUP2 SWAP1 POP SWAP4 SWAP3 POP POP POP JUMP JUMPDEST PUSH1 0x0 DUP2 SWAP1 POP SWAP2 SWAP1 POP JUMP JUMPDEST PUSH2 0x4296 PUSH2 0x4291 DUP3 PUSH2 0x34D3 JUMP JUMPDEST PUSH2 0x427B JUMP JUMPDEST DUP3 MSTORE POP POP JUMP JUMPDEST PUSH1 0x0 DUP2 SWAP1 POP SWAP2 SWAP1 POP JUMP JUMPDEST PUSH2 0x42B7 PUSH2 0x42B2 DUP3 PUSH2 0x31B9 JUMP JUMPDEST PUSH2 0x429C JUMP JUMPDEST DUP3 MSTORE POP POP JUMP JUMPDEST PUSH1 0x0 PUSH2 0x42C9 DUP3 DUP6 PUSH2 0x4285 JUMP JUMPDEST PUSH1 0x20 DUP3 ADD SWAP2 POP PUSH2 0x42D9 DUP3 DUP5 PUSH2 0x42A6 JUMP JUMPDEST PUSH1 0x20 DUP3 ADD SWAP2 POP DUP2 SWAP1 POP SWAP4 SWAP3 POP POP POP JUMP JUMPDEST PUSH1 0x0 PUSH2 0x42F5 DUP3 DUP5 PUSH2 0x423C JUMP JUMPDEST PUSH1 0x14 DUP3 ADD SWAP2 POP DUP2 SWAP1 POP SWAP3 SWAP2 POP POP JUMP JUMPDEST PUSH32 0x4D6573736167652070617373696E67207072656465706C6F7920686173206E6F PUSH1 0x0 DUP3 ADD MSTORE PUSH32 0x74206265656E20696E697469616C697A6564206F7220696E76616C6964207072 PUSH1 0x20 DUP3 ADD MSTORE PUSH32 0x6F6F662070726F76696465642E00000000000000000000000000000000000000 PUSH1 0x40 DUP3 ADD MSTORE POP JUMP JUMPDEST PUSH1 0x0 PUSH2 0x4386 PUSH1 0x4D DUP4 PUSH2 0x3924 JUMP JUMPDEST SWAP2 POP PUSH2 0x4391 DUP3 PUSH2 0x4304 JUMP JUMPDEST PUSH1 0x60 DUP3 ADD SWAP1 POP SWAP2 SWAP1 POP JUMP JUMPDEST PUSH1 0x0 PUSH1 0x20 DUP3 ADD SWAP1 POP DUP2 DUP2 SUB PUSH1 0x0 DUP4 ADD MSTORE PUSH2 0x43B5 DUP2 PUSH2 0x4379 JUMP JUMPDEST SWAP1 POP SWAP2 SWAP1 POP JUMP JUMPDEST PUSH1 0x0 PUSH2 0x43C8 DUP3 DUP5 PUSH2 0x4285 JUMP JUMPDEST PUSH1 0x20 DUP3 ADD SWAP2 POP DUP2 SWAP1 POP SWAP3 SWAP2 POP POP JUMP JUMPDEST PUSH1 0x0 PUSH1 0xFF DUP3 AND SWAP1 POP SWAP2 SWAP1 POP JUMP JUMPDEST PUSH1 0x0 DUP2 PUSH1 0xF8 SHL SWAP1 POP SWAP2 SWAP1 POP JUMP JUMPDEST PUSH1 0x0 PUSH2 0x43FC DUP3 PUSH2 0x43E4 JUMP JUMPDEST SWAP1 POP SWAP2 SWAP1 POP JUMP JUMPDEST PUSH2 0x4414 PUSH2 0x440F DUP3 PUSH2 0x43D7 JUMP JUMPDEST PUSH2 0x43F1 JUMP JUMPDEST DUP3 MSTORE POP POP JUMP JUMPDEST PUSH1 0x0 PUSH2 0x4426 DUP3 DUP5 PUSH2 0x4403 JUMP JUMPDEST PUSH1 0x1 DUP3 ADD SWAP2 POP DUP2 SWAP1 POP SWAP3 SWAP2 POP POP JUMP JUMPDEST PUSH32 0x2162726964676500000000000000000000000000000000000000000000000000 PUSH1 0x0 DUP3 ADD MSTORE POP JUMP JUMPDEST PUSH1 0x0 PUSH2 0x446B PUSH1 0x7 DUP4 PUSH2 0x3924 JUMP JUMPDEST SWAP2 POP PUSH2 0x4476 DUP3 PUSH2 0x4435 JUMP JUMPDEST PUSH1 0x20 DUP3 ADD SWAP1 POP SWAP2 SWAP1 POP JUMP JUMPDEST PUSH1 0x0 PUSH1 0x20 DUP3 ADD SWAP1 POP DUP2 DUP2 SUB PUSH1 0x0 DUP4 ADD MSTORE PUSH2 0x449A DUP2 PUSH2 0x445E JUMP JUMPDEST SWAP1 POP SWAP2 SWAP1 POP JUMP JUMPDEST PUSH1 0x0 DUP2 MLOAD SWAP1 POP PUSH2 0x44B0 DUP2 PUSH2 0x341A JUMP JUMPDEST SWAP3 SWAP2 POP POP JUMP JUMPDEST PUSH1 0x0 PUSH1 0x20 DUP3 DUP5 SUB SLT ISZERO PUSH2 0x44CC JUMPI PUSH2 0x44CB PUSH2 0x31F7 JUMP JUMPDEST JUMPDEST PUSH1 0x0 PUSH2 0x44DA DUP5 DUP3 DUP6 ADD PUSH2 0x44A1 JUMP JUMPDEST SWAP2 POP POP SWAP3 SWAP2 POP POP JUMP JUMPDEST PUSH32 0x4E487B7100000000000000000000000000000000000000000000000000000000 PUSH1 0x0 MSTORE PUSH1 0x32 PUSH1 0x4 MSTORE PUSH1 0x24 PUSH1 0x0 REVERT JUMPDEST PUSH32 0x217472756E636174656400000000000000000000000000000000000000000000 PUSH1 0x0 DUP3 ADD MSTORE POP JUMP JUMPDEST PUSH1 0x0 PUSH2 0x4548 PUSH1 0xA DUP4 PUSH2 0x3924 JUMP JUMPDEST SWAP2 POP PUSH2 0x4553 DUP3 PUSH2 0x4512 JUMP JUMPDEST PUSH1 0x20 DUP3 ADD SWAP1 POP SWAP2 SWAP1 POP JUMP JUMPDEST PUSH1 0x0 PUSH1 0x20 DUP3 ADD SWAP1 POP DUP2 DUP2 SUB PUSH1 0x0 DUP4 ADD MSTORE PUSH2 0x4577 DUP2 PUSH2 0x453B JUMP JUMPDEST SWAP1 POP SWAP2 SWAP1 POP JUMP JUMPDEST PUSH32 0x50726F76696465642070726F6F6620697320696E76616C69642E000000000000 PUSH1 0x0 DUP3 ADD MSTORE POP JUMP JUMPDEST PUSH1 0x0 PUSH2 0x45B4 PUSH1 0x1A DUP4 PUSH2 0x3924 JUMP JUMPDEST SWAP2 POP PUSH2 0x45BF DUP3 PUSH2 0x457E JUMP JUMPDEST PUSH1 0x20 DUP3 ADD SWAP1 POP SWAP2 SWAP1 POP JUMP JUMPDEST PUSH1 0x0 PUSH1 0x20 DUP3 ADD SWAP1 POP DUP2 DUP2 SUB PUSH1 0x0 DUP4 ADD MSTORE PUSH2 0x45E3 DUP2 PUSH2 0x45A7 JUMP JUMPDEST SWAP1 POP SWAP2 SWAP1 POP JUMP JUMPDEST PUSH32 0x496E76616C696420524C5020627974657333322076616C75652E000000000000 PUSH1 0x0 DUP3 ADD MSTORE POP JUMP JUMPDEST PUSH1 0x0 PUSH2 0x4620 PUSH1 0x1A DUP4 PUSH2 0x3924 JUMP JUMPDEST SWAP2 POP PUSH2 0x462B DUP3 PUSH2 0x45EA JUMP JUMPDEST PUSH1 0x20 DUP3 ADD SWAP1 POP SWAP2 SWAP1 POP JUMP JUMPDEST PUSH1 0x0 PUSH1 0x20 DUP3 ADD SWAP1 POP DUP2 DUP2 SUB PUSH1 0x0 DUP4 ADD MSTORE PUSH2 0x464F DUP2 PUSH2 0x4613 JUMP JUMPDEST SWAP1 POP SWAP2 SWAP1 POP JUMP JUMPDEST PUSH32 0x4E487B7100000000000000000000000000000000000000000000000000000000 PUSH1 0x0 MSTORE PUSH1 0x21 PUSH1 0x4 MSTORE PUSH1 0x24 PUSH1 0x0 REVERT JUMPDEST PUSH32 0x496E76616C696420726F6F742068617368000000000000000000000000000000 PUSH1 0x0 DUP3 ADD MSTORE POP JUMP JUMPDEST PUSH1 0x0 PUSH2 0x46BB PUSH1 0x11 DUP4 PUSH2 0x3924 JUMP JUMPDEST SWAP2 POP PUSH2 0x46C6 DUP3 PUSH2 0x4685 JUMP JUMPDEST PUSH1 0x20 DUP3 ADD SWAP1 POP SWAP2 SWAP1 POP JUMP JUMPDEST PUSH1 0x0 PUSH1 0x20 DUP3 ADD SWAP1 POP DUP2 DUP2 SUB PUSH1 0x0 DUP4 ADD MSTORE PUSH2 0x46EA DUP2 PUSH2 0x46AE JUMP JUMPDEST SWAP1 POP SWAP2 SWAP1 POP JUMP JUMPDEST PUSH32 0x496E76616C6964206C6172676520696E7465726E616C20686173680000000000 PUSH1 0x0 DUP3 ADD MSTORE POP JUMP JUMPDEST PUSH1 0x0 PUSH2 0x4727 PUSH1 0x1B DUP4 PUSH2 0x3924 JUMP JUMPDEST SWAP2 POP PUSH2 0x4732 DUP3 PUSH2 0x46F1 JUMP JUMPDEST PUSH1 0x20 DUP3 ADD SWAP1 POP SWAP2 SWAP1 POP JUMP JUMPDEST PUSH1 0x0 PUSH1 0x20 DUP3 ADD SWAP1 POP DUP2 DUP2 SUB PUSH1 0x0 DUP4 ADD MSTORE PUSH2 0x4756 DUP2 PUSH2 0x471A JUMP JUMPDEST SWAP1 POP SWAP2 SWAP1 POP JUMP JUMPDEST PUSH32 0x496E76616C696420696E7465726E616C206E6F64652068617368000000000000 PUSH1 0x0 DUP3 ADD MSTORE POP JUMP JUMPDEST PUSH1 0x0 PUSH2 0x4793 PUSH1 0x1A DUP4 PUSH2 0x3924 JUMP JUMPDEST SWAP2 POP PUSH2 0x479E DUP3 PUSH2 0x475D JUMP JUMPDEST PUSH1 0x20 DUP3 ADD SWAP1 POP SWAP2 SWAP1 POP JUMP JUMPDEST PUSH1 0x0 PUSH1 0x20 DUP3 ADD SWAP1 POP DUP2 DUP2 SUB PUSH1 0x0 DUP4 ADD MSTORE PUSH2 0x47C2 DUP2 PUSH2 0x4786 JUMP JUMPDEST SWAP1 POP SWAP2 SWAP1 POP JUMP JUMPDEST PUSH32 0x4E487B7100000000000000000000000000000000000000000000000000000000 PUSH1 0x0 MSTORE PUSH1 0x12 PUSH1 0x4 MSTORE PUSH1 0x24 PUSH1 0x0 REVERT JUMPDEST PUSH1 0x0 PUSH2 0x4803 DUP3 PUSH2 0x43D7 JUMP JUMPDEST SWAP2 POP PUSH2 0x480E DUP4 PUSH2 0x43D7 JUMP JUMPDEST SWAP3 POP DUP3 PUSH2 0x481E JUMPI PUSH2 0x481D PUSH2 0x47C9 JUMP JUMPDEST JUMPDEST DUP3 DUP3 MOD SWAP1 POP SWAP3 SWAP2 POP POP JUMP JUMPDEST PUSH1 0x0 PUSH2 0x4834 DUP3 PUSH2 0x43D7 JUMP JUMPDEST SWAP2 POP PUSH2 0x483F DUP4 PUSH2 0x43D7 JUMP JUMPDEST SWAP3 POP DUP3 DUP3 SUB SWAP1 POP PUSH1 0xFF DUP2 GT ISZERO PUSH2 0x4858 JUMPI PUSH2 0x4857 PUSH2 0x3C5D JUMP JUMPDEST JUMPDEST SWAP3 SWAP2 POP POP JUMP JUMPDEST PUSH32 0x52656365697665642061206E6F6465207769746820616E20756E6B6E6F776E20 PUSH1 0x0 DUP3 ADD MSTORE PUSH32 0x7072656669780000000000000000000000000000000000000000000000000000 PUSH1 0x20 DUP3 ADD MSTORE POP JUMP JUMPDEST PUSH1 0x0 PUSH2 0x48BA PUSH1 0x26 DUP4 PUSH2 0x3924 JUMP JUMPDEST SWAP2 POP PUSH2 0x48C5 DUP3 PUSH2 0x485E JUMP JUMPDEST PUSH1 0x40 DUP3 ADD SWAP1 POP SWAP2 SWAP1 POP JUMP JUMPDEST PUSH1 0x0 PUSH1 0x20 DUP3 ADD SWAP1 POP DUP2 DUP2 SUB PUSH1 0x0 DUP4 ADD MSTORE PUSH2 0x48E9 DUP2 PUSH2 0x48AD JUMP JUMPDEST SWAP1 POP SWAP2 SWAP1 POP JUMP JUMPDEST PUSH32 0x526563656976656420616E20756E706172736561626C65206E6F64652E000000 PUSH1 0x0 DUP3 ADD MSTORE POP JUMP JUMPDEST PUSH1 0x0 PUSH2 0x4926 PUSH1 0x1D DUP4 PUSH2 0x3924 JUMP JUMPDEST SWAP2 POP PUSH2 0x4931 DUP3 PUSH2 0x48F0 JUMP JUMPDEST PUSH1 0x20 DUP3 ADD SWAP1 POP SWAP2 SWAP1 POP JUMP JUMPDEST PUSH1 0x0 PUSH1 0x20 DUP3 ADD SWAP1 POP DUP2 DUP2 SUB PUSH1 0x0 DUP4 ADD MSTORE PUSH2 0x4955 DUP2 PUSH2 0x4919 JUMP JUMPDEST SWAP1 POP SWAP2 SWAP1 POP JUMP JUMPDEST PUSH32 0x496E76616C696420524C50206C6973742076616C75652E000000000000000000 PUSH1 0x0 DUP3 ADD MSTORE POP JUMP JUMPDEST PUSH1 0x0 PUSH2 0x4992 PUSH1 0x17 DUP4 PUSH2 0x3924 JUMP JUMPDEST SWAP2 POP PUSH2 0x499D DUP3 PUSH2 0x495C JUMP JUMPDEST PUSH1 0x20 DUP3 ADD SWAP1 POP SWAP2 SWAP1 POP JUMP JUMPDEST PUSH1 0x0 PUSH1 0x20 DUP3 ADD SWAP1 POP DUP2 DUP2 SUB PUSH1 0x0 DUP4 ADD MSTORE PUSH2 0x49C1 DUP2 PUSH2 0x4985 JUMP JUMPDEST SWAP1 POP SWAP2 SWAP1 POP JUMP JUMPDEST PUSH32 0x50726F766964656420524C50206C6973742065786365656473206D6178206C69 PUSH1 0x0 DUP3 ADD MSTORE PUSH32 0x7374206C656E6774682E00000000000000000000000000000000000000000000 PUSH1 0x20 DUP3 ADD MSTORE POP JUMP JUMPDEST PUSH1 0x0 PUSH2 0x4A24 PUSH1 0x2A DUP4 PUSH2 0x3924 JUMP JUMPDEST SWAP2 POP PUSH2 0x4A2F DUP3 PUSH2 0x49C8 JUMP JUMPDEST PUSH1 0x40 DUP3 ADD SWAP1 POP SWAP2 SWAP1 POP JUMP JUMPDEST PUSH1 0x0 PUSH1 0x20 DUP3 ADD SWAP1 POP DUP2 DUP2 SUB PUSH1 0x0 DUP4 ADD MSTORE PUSH2 0x4A53 DUP2 PUSH2 0x4A17 JUMP JUMPDEST SWAP1 POP SWAP2 SWAP1 POP JUMP JUMPDEST PUSH32 0x524C50206974656D2063616E6E6F74206265206E756C6C2E0000000000000000 PUSH1 0x0 DUP3 ADD MSTORE POP JUMP JUMPDEST PUSH1 0x0 PUSH2 0x4A90 PUSH1 0x18 DUP4 PUSH2 0x3924 JUMP JUMPDEST SWAP2 POP PUSH2 0x4A9B DUP3 PUSH2 0x4A5A JUMP JUMPDEST PUSH1 0x20 DUP3 ADD SWAP1 POP SWAP2 SWAP1 POP JUMP JUMPDEST PUSH1 0x0 PUSH1 0x20 DUP3 ADD SWAP1 POP DUP2 DUP2 SUB PUSH1 0x0 DUP4 ADD MSTORE PUSH2 0x4ABF DUP2 PUSH2 0x4A83 JUMP JUMPDEST SWAP1 POP SWAP2 SWAP1 POP JUMP JUMPDEST PUSH32 0x496E76616C696420524C502073686F727420737472696E672E00000000000000 PUSH1 0x0 DUP3 ADD MSTORE POP JUMP JUMPDEST PUSH1 0x0 PUSH2 0x4AFC PUSH1 0x19 DUP4 PUSH2 0x3924 JUMP JUMPDEST SWAP2 POP PUSH2 0x4B07 DUP3 PUSH2 0x4AC6 JUMP JUMPDEST PUSH1 0x20 DUP3 ADD SWAP1 POP SWAP2 SWAP1 POP JUMP JUMPDEST PUSH1 0x0 PUSH1 0x20 DUP3 ADD SWAP1 POP DUP2 DUP2 SUB PUSH1 0x0 DUP4 ADD MSTORE PUSH2 0x4B2B DUP2 PUSH2 0x4AEF JUMP JUMPDEST SWAP1 POP SWAP2 SWAP1 POP JUMP JUMPDEST PUSH32 0x496E76616C696420524C50206C6F6E6720737472696E67206C656E6774682E00 PUSH1 0x0 DUP3 ADD MSTORE POP JUMP JUMPDEST PUSH1 0x0 PUSH2 0x4B68 PUSH1 0x1F DUP4 PUSH2 0x3924 JUMP JUMPDEST SWAP2 POP PUSH2 0x4B73 DUP3 PUSH2 0x4B32 JUMP JUMPDEST PUSH1 0x20 DUP3 ADD SWAP1 POP SWAP2 SWAP1 POP JUMP JUMPDEST PUSH1 0x0 PUSH1 0x20 DUP3 ADD SWAP1 POP DUP2 DUP2 SUB PUSH1 0x0 DUP4 ADD MSTORE PUSH2 0x4B97 DUP2 PUSH2 0x4B5B JUMP JUMPDEST SWAP1 POP SWAP2 SWAP1 POP JUMP JUMPDEST PUSH32 0x496E76616C696420524C50206C6F6E6720737472696E672E0000000000000000 PUSH1 0x0 DUP3 ADD MSTORE POP JUMP JUMPDEST PUSH1 0x0 PUSH2 0x4BD4 PUSH1 0x18 DUP4 PUSH2 0x3924 JUMP JUMPDEST SWAP2 POP PUSH2 0x4BDF DUP3 PUSH2 0x4B9E JUMP JUMPDEST PUSH1 0x20 DUP3 ADD SWAP1 POP SWAP2 SWAP1 POP JUMP JUMPDEST PUSH1 0x0 PUSH1 0x20 DUP3 ADD SWAP1 POP DUP2 DUP2 SUB PUSH1 0x0 DUP4 ADD MSTORE PUSH2 0x4C03 DUP2 PUSH2 0x4BC7 JUMP JUMPDEST SWAP1 POP SWAP2 SWAP1 POP JUMP JUMPDEST PUSH32 0x496E76616C696420524C502073686F7274206C6973742E000000000000000000 PUSH1 0x0 DUP3 ADD MSTORE POP JUMP JUMPDEST PUSH1 0x0 PUSH2 0x4C40 PUSH1 0x17 DUP4 PUSH2 0x3924 JUMP JUMPDEST SWAP2 POP PUSH2 0x4C4B DUP3 PUSH2 0x4C0A JUMP JUMPDEST PUSH1 0x20 DUP3 ADD SWAP1 POP SWAP2 SWAP1 POP JUMP JUMPDEST PUSH1 0x0 PUSH1 0x20 DUP3 ADD SWAP1 POP DUP2 DUP2 SUB PUSH1 0x0 DUP4 ADD MSTORE PUSH2 0x4C6F DUP2 PUSH2 0x4C33 JUMP JUMPDEST SWAP1 POP SWAP2 SWAP1 POP JUMP JUMPDEST PUSH32 0x496E76616C696420524C50206C6F6E67206C697374206C656E6774682E000000 PUSH1 0x0 DUP3 ADD MSTORE POP JUMP JUMPDEST PUSH1 0x0 PUSH2 0x4CAC PUSH1 0x1D DUP4 PUSH2 0x3924 JUMP JUMPDEST SWAP2 POP PUSH2 0x4CB7 DUP3 PUSH2 0x4C76 JUMP JUMPDEST PUSH1 0x20 DUP3 ADD SWAP1 POP SWAP2 SWAP1 POP JUMP JUMPDEST PUSH1 0x0 PUSH1 0x20 DUP3 ADD SWAP1 POP DUP2 DUP2 SUB PUSH1 0x0 DUP4 ADD MSTORE PUSH2 0x4CDB DUP2 PUSH2 0x4C9F JUMP JUMPDEST SWAP1 POP SWAP2 SWAP1 POP JUMP JUMPDEST PUSH32 0x496E76616C696420524C50206C6F6E67206C6973742E00000000000000000000 PUSH1 0x0 DUP3 ADD MSTORE POP JUMP JUMPDEST PUSH1 0x0 PUSH2 0x4D18 PUSH1 0x16 DUP4 PUSH2 0x3924 JUMP JUMPDEST SWAP2 POP PUSH2 0x4D23 DUP3 PUSH2 0x4CE2 JUMP JUMPDEST PUSH1 0x20 DUP3 ADD SWAP1 POP SWAP2 SWAP1 POP JUMP JUMPDEST PUSH1 0x0 PUSH1 0x20 DUP3 ADD SWAP1 POP DUP2 DUP2 SUB PUSH1 0x0 DUP4 ADD MSTORE PUSH2 0x4D47 DUP2 PUSH2 0x4D0B JUMP JUMPDEST SWAP1 POP SWAP2 SWAP1 POP JUMP JUMPDEST PUSH32 0x496E76616C696420524C502062797465732076616C75652E0000000000000000 PUSH1 0x0 DUP3 ADD MSTORE POP JUMP JUMPDEST PUSH1 0x0 PUSH2 0x4D84 PUSH1 0x18 DUP4 PUSH2 0x3924 JUMP JUMPDEST SWAP2 POP PUSH2 0x4D8F DUP3 PUSH2 0x4D4E JUMP JUMPDEST PUSH1 0x20 DUP3 ADD SWAP1 POP SWAP2 SWAP1 POP JUMP JUMPDEST PUSH1 0x0 PUSH1 0x20 DUP3 ADD SWAP1 POP DUP2 DUP2 SUB PUSH1 0x0 DUP4 ADD MSTORE PUSH2 0x4DB3 DUP2 PUSH2 0x4D77 JUMP JUMPDEST SWAP1 POP SWAP2 SWAP1 POP JUMP JUMPDEST PUSH1 0x0 PUSH2 0x4DC5 DUP3 PUSH2 0x31B9 JUMP JUMPDEST SWAP2 POP PUSH2 0x4DD0 DUP4 PUSH2 0x31B9 JUMP JUMPDEST SWAP3 POP DUP3 DUP3 MUL PUSH2 0x4DDE DUP2 PUSH2 0x31B9 JUMP JUMPDEST SWAP2 POP DUP3 DUP3 DIV DUP5 EQ DUP4 ISZERO OR PUSH2 0x4DF5 JUMPI PUSH2 0x4DF4 PUSH2 0x3C5D JUMP JUMPDEST JUMPDEST POP SWAP3 SWAP2 POP POP JUMP JUMPDEST PUSH1 0x0 DUP2 MLOAD SWAP1 POP PUSH2 0x4E0B DUP2 PUSH2 0x34DD JUMP JUMPDEST SWAP3 SWAP2 POP POP JUMP JUMPDEST PUSH1 0x0 PUSH1 0x20 DUP3 DUP5 SUB SLT ISZERO PUSH2 0x4E27 JUMPI PUSH2 0x4E26 PUSH2 0x31F7 JUMP JUMPDEST JUMPDEST PUSH1 0x0 PUSH2 0x4E35 DUP5 DUP3 DUP6 ADD PUSH2 0x4DFC JUMP JUMPDEST SWAP2 POP POP SWAP3 SWAP2 POP POP JUMP JUMPDEST PUSH1 0x0 PUSH2 0x4E49 DUP3 PUSH2 0x31B9 JUMP JUMPDEST SWAP2 POP PUSH32 0xFFFFFFFFFFFFFFFFFFFFFFFFFFFFFFFFFFFFFFFFFFFFFFFFFFFFFFFFFFFFFFFF DUP3 SUB PUSH2 0x4E7B JUMPI PUSH2 0x4E7A PUSH2 0x3C5D JUMP JUMPDEST JUMPDEST PUSH1 0x1 DUP3 ADD SWAP1 POP SWAP2 SWAP1 POP JUMP JUMPDEST PUSH1 0x0 PUSH2 0x4E91 DUP3 PUSH2 0x31B9 JUMP JUMPDEST SWAP2 POP PUSH2 0x4E9C DUP4 PUSH2 0x31B9 JUMP JUMPDEST SWAP3 POP DUP3 PUSH2 0x4EAC JUMPI PUSH2 0x4EAB PUSH2 0x47C9 JUMP JUMPDEST JUMPDEST DUP3 DUP3 DIV SWAP1 POP SWAP3 SWAP2 POP POP JUMP JUMPDEST PUSH32 0x736C6963655F6F766572666C6F77000000000000000000000000000000000000 PUSH1 0x0 DUP3 ADD MSTORE POP JUMP JUMPDEST PUSH1 0x0 PUSH2 0x4EED PUSH1 0xE DUP4 PUSH2 0x3924 JUMP JUMPDEST SWAP2 POP PUSH2 0x4EF8 DUP3 PUSH2 0x4EB7 JUMP JUMPDEST PUSH1 0x20 DUP3 ADD SWAP1 POP SWAP2 SWAP1 POP JUMP JUMPDEST PUSH1 0x0 PUSH1 0x20 DUP3 ADD SWAP1 POP DUP2 DUP2 SUB PUSH1 0x0 DUP4 ADD MSTORE PUSH2 0x4F1C DUP2 PUSH2 0x4EE0 JUMP JUMPDEST SWAP1 POP SWAP2 SWAP1 POP JUMP JUMPDEST PUSH32 0x736C6963655F6F75744F66426F756E6473000000000000000000000000000000 PUSH1 0x0 DUP3 ADD MSTORE POP JUMP JUMPDEST PUSH1 0x0 PUSH2 0x4F59 PUSH1 0x11 DUP4 PUSH2 0x3924 JUMP JUMPDEST SWAP2 POP PUSH2 0x4F64 DUP3 PUSH2 0x4F23 JUMP JUMPDEST PUSH1 0x20 DUP3 ADD SWAP1 POP SWAP2 SWAP1 POP JUMP JUMPDEST PUSH1 0x0 PUSH1 0x20 DUP3 ADD SWAP1 POP DUP2 DUP2 SUB PUSH1 0x0 DUP4 ADD MSTORE PUSH2 0x4F88 DUP2 PUSH2 0x4F4C JUMP JUMPDEST SWAP1 POP SWAP2 SWAP1 POP JUMP INVALID LOG2 PUSH5 0x6970667358 0x22 SLT KECCAK256 RETURNDATACOPY MSTORE DIV LOG1 PUSH23 0xABC249879A60C42D0B8CAAFA442BA0AA4B4F949EF5149 DIV PUSH5 0x6C7264736F PUSH13 0x63430008110033000000000000 "},"methodIdentifiers":{"AMB()":"d69f9d61","DOMAIN()":"52a9674b","MIRROR_DOMAIN()":"14168416","ROOT_MANAGER()":"5f61e3ec","acceptProposedOwner()":"c5b350df","delay()":"6a42b8f8","mirrorConnector()":"cc394283","owner()":"8da5cb5b","processMessage(bytes)":"4ff746f6","processMessageFromRoot(address,address,bytes,uint256,(bytes32,(uint256,bytes32,uint256,uint256,bytes),(uint256,bytes32[]),bytes,bytes))":"6e2edb4e","processed(bytes32)":"c1f0808a","proposeNewOwner(address)":"b1f8100d","proposed()":"d1851c92","proposedTimestamp()":"3cf52ffb","renounceOwnership()":"715018a6","renounced()":"d232c220","sendMessage(bytes,bytes)":"48e6fa23","setGasCap(uint256)":"7850b020","setMirrorConnector(address)":"5bd11efc","stateCommitmentChain()":"0f329ef8","verifySender(address)":"db1b7659"}}}}}