{
  "_format": "hh-sol-artifact-1",
  "contractName": "WrappedHashi721",
  "sourceName": "contracts/WrappedHashi721.sol",
  "abi": [
    {
      "anonymous": false,
      "inputs": [
        {
          "indexed": true,
          "internalType": "address",
          "name": "owner",
          "type": "address"
        },
        {
          "indexed": true,
          "internalType": "address",
          "name": "approved",
          "type": "address"
        },
        {
          "indexed": true,
          "internalType": "uint256",
          "name": "tokenId",
          "type": "uint256"
        }
      ],
      "name": "Approval",
      "type": "event"
    },
    {
      "anonymous": false,
      "inputs": [
        {
          "indexed": true,
          "internalType": "address",
          "name": "owner",
          "type": "address"
        },
        {
          "indexed": true,
          "internalType": "address",
          "name": "operator",
          "type": "address"
        },
        {
          "indexed": false,
          "internalType": "bool",
          "name": "approved",
          "type": "bool"
        }
      ],
      "name": "ApprovalForAll",
      "type": "event"
    },
    {
      "anonymous": false,
      "inputs": [
        {
          "indexed": false,
          "internalType": "uint8",
          "name": "version",
          "type": "uint8"
        }
      ],
      "name": "Initialized",
      "type": "event"
    },
    {
      "anonymous": false,
      "inputs": [
        {
          "indexed": true,
          "internalType": "address",
          "name": "previousOwner",
          "type": "address"
        },
        {
          "indexed": true,
          "internalType": "address",
          "name": "newOwner",
          "type": "address"
        }
      ],
      "name": "OwnershipTransferred",
      "type": "event"
    },
    {
      "anonymous": false,
      "inputs": [
        {
          "indexed": true,
          "internalType": "address",
          "name": "from",
          "type": "address"
        },
        {
          "indexed": true,
          "internalType": "address",
          "name": "to",
          "type": "address"
        },
        {
          "indexed": true,
          "internalType": "uint256",
          "name": "tokenId",
          "type": "uint256"
        }
      ],
      "name": "Transfer",
      "type": "event"
    },
    {
      "inputs": [
        {
          "internalType": "address",
          "name": "to",
          "type": "address"
        },
        {
          "internalType": "uint256",
          "name": "tokenId",
          "type": "uint256"
        }
      ],
      "name": "approve",
      "outputs": [],
      "stateMutability": "nonpayable",
      "type": "function"
    },
    {
      "inputs": [
        {
          "internalType": "address",
          "name": "owner",
          "type": "address"
        }
      ],
      "name": "balanceOf",
      "outputs": [
        {
          "internalType": "uint256",
          "name": "",
          "type": "uint256"
        }
      ],
      "stateMutability": "view",
      "type": "function"
    },
    {
      "inputs": [
        {
          "internalType": "uint256",
          "name": "tokenId",
          "type": "uint256"
        }
      ],
      "name": "burn",
      "outputs": [],
      "stateMutability": "nonpayable",
      "type": "function"
    },
    {
      "inputs": [
        {
          "internalType": "uint256",
          "name": "tokenId",
          "type": "uint256"
        }
      ],
      "name": "getApproved",
      "outputs": [
        {
          "internalType": "address",
          "name": "",
          "type": "address"
        }
      ],
      "stateMutability": "view",
      "type": "function"
    },
    {
      "inputs": [],
      "name": "initialize",
      "outputs": [],
      "stateMutability": "nonpayable",
      "type": "function"
    },
    {
      "inputs": [
        {
          "internalType": "address",
          "name": "owner",
          "type": "address"
        },
        {
          "internalType": "address",
          "name": "operator",
          "type": "address"
        }
      ],
      "name": "isApprovedForAll",
      "outputs": [
        {
          "internalType": "bool",
          "name": "",
          "type": "bool"
        }
      ],
      "stateMutability": "view",
      "type": "function"
    },
    {
      "inputs": [
        {
          "internalType": "address",
          "name": "to",
          "type": "address"
        },
        {
          "internalType": "uint256",
          "name": "tokenId",
          "type": "uint256"
        },
        {
          "internalType": "string",
          "name": "_tokenURI",
          "type": "string"
        }
      ],
      "name": "mint",
      "outputs": [],
      "stateMutability": "nonpayable",
      "type": "function"
    },
    {
      "inputs": [],
      "name": "name",
      "outputs": [
        {
          "internalType": "string",
          "name": "",
          "type": "string"
        }
      ],
      "stateMutability": "view",
      "type": "function"
    },
    {
      "inputs": [],
      "name": "owner",
      "outputs": [
        {
          "internalType": "address",
          "name": "",
          "type": "address"
        }
      ],
      "stateMutability": "view",
      "type": "function"
    },
    {
      "inputs": [
        {
          "internalType": "uint256",
          "name": "tokenId",
          "type": "uint256"
        }
      ],
      "name": "ownerOf",
      "outputs": [
        {
          "internalType": "address",
          "name": "",
          "type": "address"
        }
      ],
      "stateMutability": "view",
      "type": "function"
    },
    {
      "inputs": [],
      "name": "renounceOwnership",
      "outputs": [],
      "stateMutability": "nonpayable",
      "type": "function"
    },
    {
      "inputs": [
        {
          "internalType": "address",
          "name": "from",
          "type": "address"
        },
        {
          "internalType": "address",
          "name": "to",
          "type": "address"
        },
        {
          "internalType": "uint256",
          "name": "tokenId",
          "type": "uint256"
        }
      ],
      "name": "safeTransferFrom",
      "outputs": [],
      "stateMutability": "nonpayable",
      "type": "function"
    },
    {
      "inputs": [
        {
          "internalType": "address",
          "name": "from",
          "type": "address"
        },
        {
          "internalType": "address",
          "name": "to",
          "type": "address"
        },
        {
          "internalType": "uint256",
          "name": "tokenId",
          "type": "uint256"
        },
        {
          "internalType": "bytes",
          "name": "data",
          "type": "bytes"
        }
      ],
      "name": "safeTransferFrom",
      "outputs": [],
      "stateMutability": "nonpayable",
      "type": "function"
    },
    {
      "inputs": [
        {
          "internalType": "address",
          "name": "operator",
          "type": "address"
        },
        {
          "internalType": "bool",
          "name": "approved",
          "type": "bool"
        }
      ],
      "name": "setApprovalForAll",
      "outputs": [],
      "stateMutability": "nonpayable",
      "type": "function"
    },
    {
      "inputs": [
        {
          "internalType": "bytes4",
          "name": "interfaceId",
          "type": "bytes4"
        }
      ],
      "name": "supportsInterface",
      "outputs": [
        {
          "internalType": "bool",
          "name": "",
          "type": "bool"
        }
      ],
      "stateMutability": "view",
      "type": "function"
    },
    {
      "inputs": [],
      "name": "symbol",
      "outputs": [
        {
          "internalType": "string",
          "name": "",
          "type": "string"
        }
      ],
      "stateMutability": "view",
      "type": "function"
    },
    {
      "inputs": [
        {
          "internalType": "uint256",
          "name": "tokenId",
          "type": "uint256"
        }
      ],
      "name": "tokenURI",
      "outputs": [
        {
          "internalType": "string",
          "name": "",
          "type": "string"
        }
      ],
      "stateMutability": "view",
      "type": "function"
    },
    {
      "inputs": [
        {
          "internalType": "address",
          "name": "from",
          "type": "address"
        },
        {
          "internalType": "address",
          "name": "to",
          "type": "address"
        },
        {
          "internalType": "uint256",
          "name": "tokenId",
          "type": "uint256"
        }
      ],
      "name": "transferFrom",
      "outputs": [],
      "stateMutability": "nonpayable",
      "type": "function"
    },
    {
      "inputs": [
        {
          "internalType": "address",
          "name": "newOwner",
          "type": "address"
        }
      ],
      "name": "transferOwnership",
      "outputs": [],
      "stateMutability": "nonpayable",
      "type": "function"
    }
  ],
  "bytecode": "0x608060405234801561001057600080fd5b506133cf806100206000396000f3fe608060405234801561001057600080fd5b50600436106101215760003560e01c8063715018a6116100ad578063b88d4fde11610071578063b88d4fde146102e0578063c87b56dd146102fc578063d3fc98641461032c578063e985e9c514610348578063f2fde38b1461037857610121565b8063715018a6146102745780638129fc1c1461027e5780638da5cb5b1461028857806395d89b41146102a6578063a22cb465146102c457610121565b806323b872dd116100f457806323b872dd146101c057806342842e0e146101dc57806342966c68146101f85780636352211e1461021457806370a082311461024457610121565b806301ffc9a71461012657806306fdde0314610156578063081812fc14610174578063095ea7b3146101a4575b600080fd5b610140600480360381019061013b9190612026565b610394565b60405161014d919061206e565b60405180910390f35b61015e610476565b60405161016b9190612119565b60405180910390f35b61018e60048036038101906101899190612171565b610508565b60405161019b91906121df565b60405180910390f35b6101be60048036038101906101b99190612226565b61054e565b005b6101da60048036038101906101d59190612266565b610665565b005b6101f660048036038101906101f19190612266565b6106c5565b005b610212600480360381019061020d9190612171565b6106e5565b005b61022e60048036038101906102299190612171565b6106f9565b60405161023b91906121df565b60405180910390f35b61025e600480360381019061025991906122b9565b61077f565b60405161026b91906122f5565b60405180910390f35b61027c610836565b005b61028661084a565b005b6102906109fc565b60405161029d91906121df565b60405180910390f35b6102ae610a26565b6040516102bb9190612119565b60405180910390f35b6102de60048036038101906102d9919061233c565b610ab8565b005b6102fa60048036038101906102f591906124b1565b610ace565b005b61031660048036038101906103119190612171565b610b30565b6040516103239190612119565b60405180910390f35b610346600480360381019061034191906125d5565b610c42565b005b610362600480360381019061035d9190612644565b610c63565b60405161036f919061206e565b60405180910390f35b610392600480360381019061038d91906122b9565b610cf7565b005b60007f80ac58cd000000000000000000000000000000000000000000000000000000007bffffffffffffffffffffffffffffffffffffffffffffffffffffffff1916827bffffffffffffffffffffffffffffffffffffffffffffffffffffffff1916148061045f57507f5b5e139f000000000000000000000000000000000000000000000000000000007bffffffffffffffffffffffffffffffffffffffffffffffffffffffff1916827bffffffffffffffffffffffffffffffffffffffffffffffffffffffff1916145b8061046f575061046e82610d7a565b5b9050919050565b606060978054610485906126b3565b80601f01602080910402602001604051908101604052809291908181526020018280546104b1906126b3565b80156104fe5780601f106104d3576101008083540402835291602001916104fe565b820191906000526020600020905b8154815290600101906020018083116104e157829003601f168201915b5050505050905090565b600061051382610de4565b609b600083815260200190815260200160002060009054906101000a900473ffffffffffffffffffffffffffffffffffffffff169050919050565b6000610559826106f9565b90508073ffffffffffffffffffffffffffffffffffffffff168373ffffffffffffffffffffffffffffffffffffffff16036105c9576040517f08c379a00000000000000000000000000000000000000000000000000000000081526004016105c090612756565b60405180910390fd5b8073ffffffffffffffffffffffffffffffffffffffff166105e8610e2f565b73ffffffffffffffffffffffffffffffffffffffff161480610617575061061681610611610e2f565b610c63565b5b610656576040517f08c379a000000000000000000000000000000000000000000000000000000000815260040161064d906127e8565b60405180910390fd5b6106608383610e37565b505050565b610676610670610e2f565b82610ef0565b6106b5576040517f08c379a00000000000000000000000000000000000000000000000000000000081526004016106ac9061287a565b60405180910390fd5b6106c0838383610f85565b505050565b6106e083838360405180602001604052806000815250610ace565b505050565b6106ed61127e565b6106f6816112fc565b50565b6000806107058361134f565b9050600073ffffffffffffffffffffffffffffffffffffffff168173ffffffffffffffffffffffffffffffffffffffff1603610776576040517f08c379a000000000000000000000000000000000000000000000000000000000815260040161076d906128e6565b60405180910390fd5b80915050919050565b60008073ffffffffffffffffffffffffffffffffffffffff168273ffffffffffffffffffffffffffffffffffffffff16036107ef576040517f08c379a00000000000000000000000000000000000000000000000000000000081526004016107e690612978565b60405180910390fd5b609a60008373ffffffffffffffffffffffffffffffffffffffff1673ffffffffffffffffffffffffffffffffffffffff168152602001908152602001600020549050919050565b61083e61127e565b610848600061138c565b565b60008060019054906101000a900460ff1615905080801561087b5750600160008054906101000a900460ff1660ff16105b806108a8575061088a30611452565b1580156108a75750600160008054906101000a900460ff1660ff16145b5b6108e7576040517f08c379a00000000000000000000000000000000000000000000000000000000081526004016108de90612a0a565b60405180910390fd5b60016000806101000a81548160ff021916908360ff1602179055508015610924576001600060016101000a81548160ff0219169083151502179055505b61092c611475565b6109a06040518060400160405280600f81526020017f57726170706564486173686937323100000000000000000000000000000000008152506040518060400160405280600981526020017f57484153484937323100000000000000000000000000000000000000000000008152506114d6565b80156109f95760008060016101000a81548160ff0219169083151502179055507f7f26b83ff96e1f2b6a682f133852f6798a09c465da95921460cefb384740249860016040516109f09190612a7c565b60405180910390a15b50565b6000603360009054906101000a900473ffffffffffffffffffffffffffffffffffffffff16905090565b606060988054610a35906126b3565b80601f0160208091040260200160405190810160405280929190818152602001828054610a61906126b3565b8015610aae5780601f10610a8357610100808354040283529160200191610aae565b820191906000526020600020905b815481529060010190602001808311610a9157829003601f168201915b5050505050905090565b610aca610ac3610e2f565b8383611549565b5050565b610adf610ad9610e2f565b83610ef0565b610b1e576040517f08c379a0000000000000000000000000000000000000000000000000000000008152600401610b159061287a565b60405180910390fd5b610b2a848484846116b5565b50505050565b6060610b3b82610de4565b600060c960008481526020019081526020016000208054610b5b906126b3565b80601f0160208091040260200160405190810160405280929190818152602001828054610b87906126b3565b8015610bd45780601f10610ba957610100808354040283529160200191610bd4565b820191906000526020600020905b815481529060010190602001808311610bb757829003601f168201915b505050505090506000610be5611711565b90506000815103610bfa578192505050610c3d565b600082511115610c2f578082604051602001610c17929190612ad3565b60405160208183030381529060405292505050610c3d565b610c3884611728565b925050505b919050565b610c4a61127e565b610c548383611790565b610c5e82826119ad565b505050565b6000609c60008473ffffffffffffffffffffffffffffffffffffffff1673ffffffffffffffffffffffffffffffffffffffff16815260200190815260200160002060008373ffffffffffffffffffffffffffffffffffffffff1673ffffffffffffffffffffffffffffffffffffffff16815260200190815260200160002060009054906101000a900460ff16905092915050565b610cff61127e565b600073ffffffffffffffffffffffffffffffffffffffff168173ffffffffffffffffffffffffffffffffffffffff1603610d6e576040517f08c379a0000000000000000000000000000000000000000000000000000000008152600401610d6590612b69565b60405180910390fd5b610d778161138c565b50565b60007f01ffc9a7000000000000000000000000000000000000000000000000000000007bffffffffffffffffffffffffffffffffffffffffffffffffffffffff1916827bffffffffffffffffffffffffffffffffffffffffffffffffffffffff1916149050919050565b610ded81611a1a565b610e2c576040517f08c379a0000000000000000000000000000000000000000000000000000000008152600401610e23906128e6565b60405180910390fd5b50565b600033905090565b81609b600083815260200190815260200160002060006101000a81548173ffffffffffffffffffffffffffffffffffffffff021916908373ffffffffffffffffffffffffffffffffffffffff160217905550808273ffffffffffffffffffffffffffffffffffffffff16610eaa836106f9565b73ffffffffffffffffffffffffffffffffffffffff167f8c5be1e5ebec7d5bd14f71427d1e84f3dd0314c0f7b2291e5b200ac8c7c3b92560405160405180910390a45050565b600080610efc836106f9565b90508073ffffffffffffffffffffffffffffffffffffffff168473ffffffffffffffffffffffffffffffffffffffff161480610f3e5750610f3d8185610c63565b5b80610f7c57508373ffffffffffffffffffffffffffffffffffffffff16610f6484610508565b73ffffffffffffffffffffffffffffffffffffffff16145b91505092915050565b8273ffffffffffffffffffffffffffffffffffffffff16610fa5826106f9565b73ffffffffffffffffffffffffffffffffffffffff1614610ffb576040517f08c379a0000000000000000000000000000000000000000000000000000000008152600401610ff290612bfb565b60405180910390fd5b600073ffffffffffffffffffffffffffffffffffffffff168273ffffffffffffffffffffffffffffffffffffffff160361106a576040517f08c379a000000000000000000000000000000000000000000000000000000000815260040161106190612c8d565b60405180910390fd5b6110778383836001611a5b565b8273ffffffffffffffffffffffffffffffffffffffff16611097826106f9565b73ffffffffffffffffffffffffffffffffffffffff16146110ed576040517f08c379a00000000000000000000000000000000000000000000000000000000081526004016110e490612bfb565b60405180910390fd5b609b600082815260200190815260200160002060006101000a81549073ffffffffffffffffffffffffffffffffffffffff02191690556001609a60008573ffffffffffffffffffffffffffffffffffffffff1673ffffffffffffffffffffffffffffffffffffffff168152602001908152602001600020600082825403925050819055506001609a60008473ffffffffffffffffffffffffffffffffffffffff1673ffffffffffffffffffffffffffffffffffffffff16815260200190815260200160002060008282540192505081905550816099600083815260200190815260200160002060006101000a81548173ffffffffffffffffffffffffffffffffffffffff021916908373ffffffffffffffffffffffffffffffffffffffff160217905550808273ffffffffffffffffffffffffffffffffffffffff168473ffffffffffffffffffffffffffffffffffffffff167fddf252ad1be2c89b69c2b068fc378daa952ba7f163c4a11628f55a4df523b3ef60405160405180910390a46112798383836001611a61565b505050565b611286610e2f565b73ffffffffffffffffffffffffffffffffffffffff166112a46109fc565b73ffffffffffffffffffffffffffffffffffffffff16146112fa576040517f08c379a00000000000000000000000000000000000000000000000000000000081526004016112f190612cf9565b60405180910390fd5b565b61130581611a67565b600060c960008381526020019081526020016000208054611325906126b3565b90501461134c5760c96000828152602001908152602001600020600061134b9190611f5d565b5b50565b60006099600083815260200190815260200160002060009054906101000a900473ffffffffffffffffffffffffffffffffffffffff169050919050565b6000603360009054906101000a900473ffffffffffffffffffffffffffffffffffffffff16905081603360006101000a81548173ffffffffffffffffffffffffffffffffffffffff021916908373ffffffffffffffffffffffffffffffffffffffff1602179055508173ffffffffffffffffffffffffffffffffffffffff168173ffffffffffffffffffffffffffffffffffffffff167f8be0079c531659141344cd1fd0a4f28419497f9722a3daafe3b4186f6b6457e060405160405180910390a35050565b6000808273ffffffffffffffffffffffffffffffffffffffff163b119050919050565b600060019054906101000a900460ff166114c4576040517f08c379a00000000000000000000000000000000000000000000000000000000081526004016114bb90612d8b565b60405180910390fd5b6114d46114cf610e2f565b61138c565b565b600060019054906101000a900460ff16611525576040517f08c379a000000000000000000000000000000000000000000000000000000000815260040161151c90612d8b565b60405180910390fd5b81609790816115349190612f4d565b5080609890816115449190612f4d565b505050565b8173ffffffffffffffffffffffffffffffffffffffff168373ffffffffffffffffffffffffffffffffffffffff16036115b7576040517f08c379a00000000000000000000000000000000000000000000000000000000081526004016115ae9061306b565b60405180910390fd5b80609c60008573ffffffffffffffffffffffffffffffffffffffff1673ffffffffffffffffffffffffffffffffffffffff16815260200190815260200160002060008473ffffffffffffffffffffffffffffffffffffffff1673ffffffffffffffffffffffffffffffffffffffff16815260200190815260200160002060006101000a81548160ff0219169083151502179055508173ffffffffffffffffffffffffffffffffffffffff168373ffffffffffffffffffffffffffffffffffffffff167f17307eab39ab6107e8899845ad3d59bd9653f200f220920489ca2b5937696c31836040516116a8919061206e565b60405180910390a3505050565b6116c0848484610f85565b6116cc84848484611bb5565b61170b576040517f08c379a0000000000000000000000000000000000000000000000000000000008152600401611702906130fd565b60405180910390fd5b50505050565b606060405180602001604052806000815250905090565b606061173382610de4565b600061173d611711565b9050600081511161175d5760405180602001604052806000815250611788565b8061176784611d3c565b604051602001611778929190612ad3565b6040516020818303038152906040525b915050919050565b600073ffffffffffffffffffffffffffffffffffffffff168273ffffffffffffffffffffffffffffffffffffffff16036117ff576040517f08c379a00000000000000000000000000000000000000000000000000000000081526004016117f690613169565b60405180910390fd5b61180881611a1a565b15611848576040517f08c379a000000000000000000000000000000000000000000000000000000000815260040161183f906131d5565b60405180910390fd5b611856600083836001611a5b565b61185f81611a1a565b1561189f576040517f08c379a0000000000000000000000000000000000000000000000000000000008152600401611896906131d5565b60405180910390fd5b6001609a60008473ffffffffffffffffffffffffffffffffffffffff1673ffffffffffffffffffffffffffffffffffffffff16815260200190815260200160002060008282540192505081905550816099600083815260200190815260200160002060006101000a81548173ffffffffffffffffffffffffffffffffffffffff021916908373ffffffffffffffffffffffffffffffffffffffff160217905550808273ffffffffffffffffffffffffffffffffffffffff16600073ffffffffffffffffffffffffffffffffffffffff167fddf252ad1be2c89b69c2b068fc378daa952ba7f163c4a11628f55a4df523b3ef60405160405180910390a46119a9600083836001611a61565b5050565b6119b682611a1a565b6119f5576040517f08c379a00000000000000000000000000000000000000000000000000000000081526004016119ec90613267565b60405180910390fd5b8060c960008481526020019081526020016000209081611a159190612f4d565b505050565b60008073ffffffffffffffffffffffffffffffffffffffff16611a3c8361134f565b73ffffffffffffffffffffffffffffffffffffffff1614159050919050565b50505050565b50505050565b6000611a72826106f9565b9050611a82816000846001611a5b565b611a8b826106f9565b9050609b600083815260200190815260200160002060006101000a81549073ffffffffffffffffffffffffffffffffffffffff02191690556001609a60008373ffffffffffffffffffffffffffffffffffffffff1673ffffffffffffffffffffffffffffffffffffffff168152602001908152602001600020600082825403925050819055506099600083815260200190815260200160002060006101000a81549073ffffffffffffffffffffffffffffffffffffffff021916905581600073ffffffffffffffffffffffffffffffffffffffff168273ffffffffffffffffffffffffffffffffffffffff167fddf252ad1be2c89b69c2b068fc378daa952ba7f163c4a11628f55a4df523b3ef60405160405180910390a4611bb1816000846001611a61565b5050565b6000611bd68473ffffffffffffffffffffffffffffffffffffffff16611452565b15611d2f578373ffffffffffffffffffffffffffffffffffffffff1663150b7a02611bff610e2f565b8786866040518563ffffffff1660e01b8152600401611c2194939291906132dc565b6020604051808303816000875af1925050508015611c5d57506040513d601f19601f82011682018060405250810190611c5a919061333d565b60015b611cdf573d8060008114611c8d576040519150601f19603f3d011682016040523d82523d6000602084013e611c92565b606091505b506000815103611cd7576040517f08c379a0000000000000000000000000000000000000000000000000000000008152600401611cce906130fd565b60405180910390fd5b805181602001fd5b63150b7a0260e01b7bffffffffffffffffffffffffffffffffffffffffffffffffffffffff1916817bffffffffffffffffffffffffffffffffffffffffffffffffffffffff191614915050611d34565b600190505b949350505050565b606060006001611d4b84611e0a565b01905060008167ffffffffffffffff811115611d6a57611d69612386565b5b6040519080825280601f01601f191660200182016040528015611d9c5781602001600182028036833780820191505090505b509050600082602001820190505b600115611dff578080600190039150507f3031323334353637383961626364656600000000000000000000000000000000600a86061a8153600a8581611df357611df261336a565b5b04945060008503611daa575b819350505050919050565b600080600090507a184f03e93ff9f4daa797ed6e38ed64bf6a1f0100000000000000008310611e68577a184f03e93ff9f4daa797ed6e38ed64bf6a1f0100000000000000008381611e5e57611e5d61336a565b5b0492506040810190505b6d04ee2d6d415b85acef81000000008310611ea5576d04ee2d6d415b85acef81000000008381611e9b57611e9a61336a565b5b0492506020810190505b662386f26fc100008310611ed457662386f26fc100008381611eca57611ec961336a565b5b0492506010810190505b6305f5e1008310611efd576305f5e1008381611ef357611ef261336a565b5b0492506008810190505b6127108310611f22576127108381611f1857611f1761336a565b5b0492506004810190505b60648310611f455760648381611f3b57611f3a61336a565b5b0492506002810190505b600a8310611f54576001810190505b80915050919050565b508054611f69906126b3565b6000825580601f10611f7b5750611f9a565b601f016020900490600052602060002090810190611f999190611f9d565b5b50565b5b80821115611fb6576000816000905550600101611f9e565b5090565b6000604051905090565b600080fd5b600080fd5b60007fffffffff0000000000000000000000000000000000000000000000000000000082169050919050565b61200381611fce565b811461200e57600080fd5b50565b60008135905061202081611ffa565b92915050565b60006020828403121561203c5761203b611fc4565b5b600061204a84828501612011565b91505092915050565b60008115159050919050565b61206881612053565b82525050565b6000602082019050612083600083018461205f565b92915050565b600081519050919050565b600082825260208201905092915050565b60005b838110156120c35780820151818401526020810190506120a8565b60008484015250505050565b6000601f19601f8301169050919050565b60006120eb82612089565b6120f58185612094565b93506121058185602086016120a5565b61210e816120cf565b840191505092915050565b6000602082019050818103600083015261213381846120e0565b905092915050565b6000819050919050565b61214e8161213b565b811461215957600080fd5b50565b60008135905061216b81612145565b92915050565b60006020828403121561218757612186611fc4565b5b60006121958482850161215c565b91505092915050565b600073ffffffffffffffffffffffffffffffffffffffff82169050919050565b60006121c98261219e565b9050919050565b6121d9816121be565b82525050565b60006020820190506121f460008301846121d0565b92915050565b612203816121be565b811461220e57600080fd5b50565b600081359050612220816121fa565b92915050565b6000806040838503121561223d5761223c611fc4565b5b600061224b85828601612211565b925050602061225c8582860161215c565b9150509250929050565b60008060006060848603121561227f5761227e611fc4565b5b600061228d86828701612211565b935050602061229e86828701612211565b92505060406122af8682870161215c565b9150509250925092565b6000602082840312156122cf576122ce611fc4565b5b60006122dd84828501612211565b91505092915050565b6122ef8161213b565b82525050565b600060208201905061230a60008301846122e6565b92915050565b61231981612053565b811461232457600080fd5b50565b60008135905061233681612310565b92915050565b6000806040838503121561235357612352611fc4565b5b600061236185828601612211565b925050602061237285828601612327565b9150509250929050565b600080fd5b600080fd5b7f4e487b7100000000000000000000000000000000000000000000000000000000600052604160045260246000fd5b6123be826120cf565b810181811067ffffffffffffffff821117156123dd576123dc612386565b5b80604052505050565b60006123f0611fba565b90506123fc82826123b5565b919050565b600067ffffffffffffffff82111561241c5761241b612386565b5b612425826120cf565b9050602081019050919050565b82818337600083830152505050565b600061245461244f84612401565b6123e6565b9050828152602081018484840111156124705761246f612381565b5b61247b848285612432565b509392505050565b600082601f8301126124985761249761237c565b5b81356124a8848260208601612441565b91505092915050565b600080600080608085870312156124cb576124ca611fc4565b5b60006124d987828801612211565b94505060206124ea87828801612211565b93505060406124fb8782880161215c565b925050606085013567ffffffffffffffff81111561251c5761251b611fc9565b5b61252887828801612483565b91505092959194509250565b600067ffffffffffffffff82111561254f5761254e612386565b5b612558826120cf565b9050602081019050919050565b600061257861257384612534565b6123e6565b90508281526020810184848401111561259457612593612381565b5b61259f848285612432565b509392505050565b600082601f8301126125bc576125bb61237c565b5b81356125cc848260208601612565565b91505092915050565b6000806000606084860312156125ee576125ed611fc4565b5b60006125fc86828701612211565b935050602061260d8682870161215c565b925050604084013567ffffffffffffffff81111561262e5761262d611fc9565b5b61263a868287016125a7565b9150509250925092565b6000806040838503121561265b5761265a611fc4565b5b600061266985828601612211565b925050602061267a85828601612211565b9150509250929050565b7f4e487b7100000000000000000000000000000000000000000000000000000000600052602260045260246000fd5b600060028204905060018216806126cb57607f821691505b6020821081036126de576126dd612684565b5b50919050565b7f4552433732313a20617070726f76616c20746f2063757272656e74206f776e6560008201527f7200000000000000000000000000000000000000000000000000000000000000602082015250565b6000612740602183612094565b915061274b826126e4565b604082019050919050565b6000602082019050818103600083015261276f81612733565b9050919050565b7f4552433732313a20617070726f76652063616c6c6572206973206e6f7420746f60008201527f6b656e206f776e6572206f7220617070726f76656420666f7220616c6c000000602082015250565b60006127d2603d83612094565b91506127dd82612776565b604082019050919050565b60006020820190508181036000830152612801816127c5565b9050919050565b7f4552433732313a2063616c6c6572206973206e6f7420746f6b656e206f776e6560008201527f72206f7220617070726f76656400000000000000000000000000000000000000602082015250565b6000612864602d83612094565b915061286f82612808565b604082019050919050565b6000602082019050818103600083015261289381612857565b9050919050565b7f4552433732313a20696e76616c696420746f6b656e2049440000000000000000600082015250565b60006128d0601883612094565b91506128db8261289a565b602082019050919050565b600060208201905081810360008301526128ff816128c3565b9050919050565b7f4552433732313a2061646472657373207a65726f206973206e6f74206120766160008201527f6c6964206f776e65720000000000000000000000000000000000000000000000602082015250565b6000612962602983612094565b915061296d82612906565b604082019050919050565b6000602082019050818103600083015261299181612955565b9050919050565b7f496e697469616c697a61626c653a20636f6e747261637420697320616c72656160008201527f647920696e697469616c697a6564000000000000000000000000000000000000602082015250565b60006129f4602e83612094565b91506129ff82612998565b604082019050919050565b60006020820190508181036000830152612a23816129e7565b9050919050565b6000819050919050565b600060ff82169050919050565b6000819050919050565b6000612a66612a61612a5c84612a2a565b612a41565b612a34565b9050919050565b612a7681612a4b565b82525050565b6000602082019050612a916000830184612a6d565b92915050565b600081905092915050565b6000612aad82612089565b612ab78185612a97565b9350612ac78185602086016120a5565b80840191505092915050565b6000612adf8285612aa2565b9150612aeb8284612aa2565b91508190509392505050565b7f4f776e61626c653a206e6577206f776e657220697320746865207a65726f206160008201527f6464726573730000000000000000000000000000000000000000000000000000602082015250565b6000612b53602683612094565b9150612b5e82612af7565b604082019050919050565b60006020820190508181036000830152612b8281612b46565b9050919050565b7f4552433732313a207472616e736665722066726f6d20696e636f72726563742060008201527f6f776e6572000000000000000000000000000000000000000000000000000000602082015250565b6000612be5602583612094565b9150612bf082612b89565b604082019050919050565b60006020820190508181036000830152612c1481612bd8565b9050919050565b7f4552433732313a207472616e7366657220746f20746865207a65726f2061646460008201527f7265737300000000000000000000000000000000000000000000000000000000602082015250565b6000612c77602483612094565b9150612c8282612c1b565b604082019050919050565b60006020820190508181036000830152612ca681612c6a565b9050919050565b7f4f776e61626c653a2063616c6c6572206973206e6f7420746865206f776e6572600082015250565b6000612ce3602083612094565b9150612cee82612cad565b602082019050919050565b60006020820190508181036000830152612d1281612cd6565b9050919050565b7f496e697469616c697a61626c653a20636f6e7472616374206973206e6f74206960008201527f6e697469616c697a696e67000000000000000000000000000000000000000000602082015250565b6000612d75602b83612094565b9150612d8082612d19565b604082019050919050565b60006020820190508181036000830152612da481612d68565b9050919050565b60008190508160005260206000209050919050565b60006020601f8301049050919050565b600082821b905092915050565b600060088302612e0d7fffffffffffffffffffffffffffffffffffffffffffffffffffffffffffffffff82612dd0565b612e178683612dd0565b95508019841693508086168417925050509392505050565b6000612e4a612e45612e408461213b565b612a41565b61213b565b9050919050565b6000819050919050565b612e6483612e2f565b612e78612e7082612e51565b848454612ddd565b825550505050565b600090565b612e8d612e80565b612e98818484612e5b565b505050565b5b81811015612ebc57612eb1600082612e85565b600181019050612e9e565b5050565b601f821115612f0157612ed281612dab565b612edb84612dc0565b81016020851015612eea578190505b612efe612ef685612dc0565b830182612e9d565b50505b505050565b600082821c905092915050565b6000612f2460001984600802612f06565b1980831691505092915050565b6000612f3d8383612f13565b9150826002028217905092915050565b612f5682612089565b67ffffffffffffffff811115612f6f57612f6e612386565b5b612f7982546126b3565b612f84828285612ec0565b600060209050601f831160018114612fb75760008415612fa5578287015190505b612faf8582612f31565b865550613017565b601f198416612fc586612dab565b60005b82811015612fed57848901518255600182019150602085019450602081019050612fc8565b8683101561300a5784890151613006601f891682612f13565b8355505b6001600288020188555050505b505050505050565b7f4552433732313a20617070726f766520746f2063616c6c657200000000000000600082015250565b6000613055601983612094565b91506130608261301f565b602082019050919050565b6000602082019050818103600083015261308481613048565b9050919050565b7f4552433732313a207472616e7366657220746f206e6f6e20455243373231526560008201527f63656976657220696d706c656d656e7465720000000000000000000000000000602082015250565b60006130e7603283612094565b91506130f28261308b565b604082019050919050565b60006020820190508181036000830152613116816130da565b9050919050565b7f4552433732313a206d696e7420746f20746865207a65726f2061646472657373600082015250565b6000613153602083612094565b915061315e8261311d565b602082019050919050565b6000602082019050818103600083015261318281613146565b9050919050565b7f4552433732313a20746f6b656e20616c7265616479206d696e74656400000000600082015250565b60006131bf601c83612094565b91506131ca82613189565b602082019050919050565b600060208201905081810360008301526131ee816131b2565b9050919050565b7f45524337323155524953746f726167653a2055524920736574206f66206e6f6e60008201527f6578697374656e7420746f6b656e000000000000000000000000000000000000602082015250565b6000613251602e83612094565b915061325c826131f5565b604082019050919050565b6000602082019050818103600083015261328081613244565b9050919050565b600081519050919050565b600082825260208201905092915050565b60006132ae82613287565b6132b88185613292565b93506132c88185602086016120a5565b6132d1816120cf565b840191505092915050565b60006080820190506132f160008301876121d0565b6132fe60208301866121d0565b61330b60408301856122e6565b818103606083015261331d81846132a3565b905095945050505050565b60008151905061333781611ffa565b92915050565b60006020828403121561335357613352611fc4565b5b600061336184828501613328565b91505092915050565b7f4e487b7100000000000000000000000000000000000000000000000000000000600052601260045260246000fdfea2646970667358221220373ec3f5761b11e58922f6b4b48d464cf7497bb5c4740fd9e169f12e0e5b293864736f6c63430008110033",
  "linkReferences": {},
  "deployedLinkReferences": {}
}