{
  "_format": "hh-sol-artifact-1",
  "contractName": "WrappedHashi721",
  "sourceName": "contracts/WrappedHashi721.sol",
  "abi": [
    {
      "anonymous": false,
      "inputs": [
        {
          "indexed": true,
          "internalType": "address",
          "name": "owner",
          "type": "address"
        },
        {
          "indexed": true,
          "internalType": "address",
          "name": "approved",
          "type": "address"
        },
        {
          "indexed": true,
          "internalType": "uint256",
          "name": "tokenId",
          "type": "uint256"
        }
      ],
      "name": "Approval",
      "type": "event"
    },
    {
      "anonymous": false,
      "inputs": [
        {
          "indexed": true,
          "internalType": "address",
          "name": "owner",
          "type": "address"
        },
        {
          "indexed": true,
          "internalType": "address",
          "name": "operator",
          "type": "address"
        },
        {
          "indexed": false,
          "internalType": "bool",
          "name": "approved",
          "type": "bool"
        }
      ],
      "name": "ApprovalForAll",
      "type": "event"
    },
    {
      "anonymous": false,
      "inputs": [
        {
          "indexed": false,
          "internalType": "uint8",
          "name": "version",
          "type": "uint8"
        }
      ],
      "name": "Initialized",
      "type": "event"
    },
    {
      "anonymous": false,
      "inputs": [
        {
          "indexed": true,
          "internalType": "address",
          "name": "previousOwner",
          "type": "address"
        },
        {
          "indexed": true,
          "internalType": "address",
          "name": "newOwner",
          "type": "address"
        }
      ],
      "name": "OwnershipTransferred",
      "type": "event"
    },
    {
      "anonymous": false,
      "inputs": [
        {
          "indexed": true,
          "internalType": "address",
          "name": "from",
          "type": "address"
        },
        {
          "indexed": true,
          "internalType": "address",
          "name": "to",
          "type": "address"
        },
        {
          "indexed": true,
          "internalType": "uint256",
          "name": "tokenId",
          "type": "uint256"
        }
      ],
      "name": "Transfer",
      "type": "event"
    },
    {
      "inputs": [
        {
          "internalType": "address",
          "name": "to",
          "type": "address"
        },
        {
          "internalType": "uint256",
          "name": "tokenId",
          "type": "uint256"
        }
      ],
      "name": "approve",
      "outputs": [],
      "stateMutability": "nonpayable",
      "type": "function"
    },
    {
      "inputs": [
        {
          "internalType": "address",
          "name": "owner",
          "type": "address"
        }
      ],
      "name": "balanceOf",
      "outputs": [
        {
          "internalType": "uint256",
          "name": "",
          "type": "uint256"
        }
      ],
      "stateMutability": "view",
      "type": "function"
    },
    {
      "inputs": [
        {
          "internalType": "uint256",
          "name": "tokenId",
          "type": "uint256"
        }
      ],
      "name": "burn",
      "outputs": [],
      "stateMutability": "nonpayable",
      "type": "function"
    },
    {
      "inputs": [
        {
          "internalType": "uint256",
          "name": "tokenId",
          "type": "uint256"
        }
      ],
      "name": "getApproved",
      "outputs": [
        {
          "internalType": "address",
          "name": "",
          "type": "address"
        }
      ],
      "stateMutability": "view",
      "type": "function"
    },
    {
      "inputs": [],
      "name": "initialize",
      "outputs": [],
      "stateMutability": "nonpayable",
      "type": "function"
    },
    {
      "inputs": [
        {
          "internalType": "address",
          "name": "owner",
          "type": "address"
        },
        {
          "internalType": "address",
          "name": "operator",
          "type": "address"
        }
      ],
      "name": "isApprovedForAll",
      "outputs": [
        {
          "internalType": "bool",
          "name": "",
          "type": "bool"
        }
      ],
      "stateMutability": "view",
      "type": "function"
    },
    {
      "inputs": [
        {
          "internalType": "address",
          "name": "to",
          "type": "address"
        },
        {
          "internalType": "uint256",
          "name": "tokenId",
          "type": "uint256"
        },
        {
          "internalType": "string",
          "name": "_tokenURI",
          "type": "string"
        }
      ],
      "name": "mint",
      "outputs": [],
      "stateMutability": "nonpayable",
      "type": "function"
    },
    {
      "inputs": [],
      "name": "name",
      "outputs": [
        {
          "internalType": "string",
          "name": "",
          "type": "string"
        }
      ],
      "stateMutability": "view",
      "type": "function"
    },
    {
      "inputs": [],
      "name": "owner",
      "outputs": [
        {
          "internalType": "address",
          "name": "",
          "type": "address"
        }
      ],
      "stateMutability": "view",
      "type": "function"
    },
    {
      "inputs": [
        {
          "internalType": "uint256",
          "name": "tokenId",
          "type": "uint256"
        }
      ],
      "name": "ownerOf",
      "outputs": [
        {
          "internalType": "address",
          "name": "",
          "type": "address"
        }
      ],
      "stateMutability": "view",
      "type": "function"
    },
    {
      "inputs": [],
      "name": "renounceOwnership",
      "outputs": [],
      "stateMutability": "nonpayable",
      "type": "function"
    },
    {
      "inputs": [
        {
          "internalType": "address",
          "name": "from",
          "type": "address"
        },
        {
          "internalType": "address",
          "name": "to",
          "type": "address"
        },
        {
          "internalType": "uint256",
          "name": "tokenId",
          "type": "uint256"
        }
      ],
      "name": "safeTransferFrom",
      "outputs": [],
      "stateMutability": "nonpayable",
      "type": "function"
    },
    {
      "inputs": [
        {
          "internalType": "address",
          "name": "from",
          "type": "address"
        },
        {
          "internalType": "address",
          "name": "to",
          "type": "address"
        },
        {
          "internalType": "uint256",
          "name": "tokenId",
          "type": "uint256"
        },
        {
          "internalType": "bytes",
          "name": "data",
          "type": "bytes"
        }
      ],
      "name": "safeTransferFrom",
      "outputs": [],
      "stateMutability": "nonpayable",
      "type": "function"
    },
    {
      "inputs": [
        {
          "internalType": "address",
          "name": "operator",
          "type": "address"
        },
        {
          "internalType": "bool",
          "name": "approved",
          "type": "bool"
        }
      ],
      "name": "setApprovalForAll",
      "outputs": [],
      "stateMutability": "nonpayable",
      "type": "function"
    },
    {
      "inputs": [
        {
          "internalType": "bytes4",
          "name": "interfaceId",
          "type": "bytes4"
        }
      ],
      "name": "supportsInterface",
      "outputs": [
        {
          "internalType": "bool",
          "name": "",
          "type": "bool"
        }
      ],
      "stateMutability": "view",
      "type": "function"
    },
    {
      "inputs": [],
      "name": "symbol",
      "outputs": [
        {
          "internalType": "string",
          "name": "",
          "type": "string"
        }
      ],
      "stateMutability": "view",
      "type": "function"
    },
    {
      "inputs": [
        {
          "internalType": "uint256",
          "name": "tokenId",
          "type": "uint256"
        }
      ],
      "name": "tokenURI",
      "outputs": [
        {
          "internalType": "string",
          "name": "",
          "type": "string"
        }
      ],
      "stateMutability": "view",
      "type": "function"
    },
    {
      "inputs": [
        {
          "internalType": "address",
          "name": "from",
          "type": "address"
        },
        {
          "internalType": "address",
          "name": "to",
          "type": "address"
        },
        {
          "internalType": "uint256",
          "name": "tokenId",
          "type": "uint256"
        }
      ],
      "name": "transferFrom",
      "outputs": [],
      "stateMutability": "nonpayable",
      "type": "function"
    },
    {
      "inputs": [
        {
          "internalType": "address",
          "name": "newOwner",
          "type": "address"
        }
      ],
      "name": "transferOwnership",
      "outputs": [],
      "stateMutability": "nonpayable",
      "type": "function"
    }
  ],
  "bytecode": "0x608060405234801561001057600080fd5b50611d46806100206000396000f3fe608060405234801561001057600080fd5b50600436106101515760003560e01c8063715018a6116100cd578063b88d4fde11610081578063d3fc986411610066578063d3fc9864146102a2578063e985e9c5146102b5578063f2fde38b146102f157600080fd5b8063b88d4fde1461027c578063c87b56dd1461028f57600080fd5b80638da5cb5b116100b25780638da5cb5b1461025057806395d89b4114610261578063a22cb4651461026957600080fd5b8063715018a6146102405780638129fc1c1461024857600080fd5b806323b872dd1161012457806342966c681161010957806342966c68146101f95780636352211e1461020c57806370a082311461021f57600080fd5b806323b872dd146101d357806342842e0e146101e657600080fd5b806301ffc9a71461015657806306fdde031461017e578063081812fc14610193578063095ea7b3146101be575b600080fd5b610169610164366004611828565b610304565b60405190151581526020015b60405180910390f35b6101866103a1565b6040516101759190611895565b6101a66101a13660046118a8565b610433565b6040516001600160a01b039091168152602001610175565b6101d16101cc3660046118dd565b61045a565b005b6101d16101e1366004611907565b610590565b6101d16101f4366004611907565b610607565b6101d16102073660046118a8565b610622565b6101a661021a3660046118a8565b610636565b61023261022d366004611943565b61069b565b604051908152602001610175565b6101d1610735565b6101d1610749565b6033546001600160a01b03166101a6565b6101866108dc565b6101d161027736600461195e565b6108eb565b6101d161028a366004611a26565b6108fa565b61018661029d3660046118a8565b610978565b6101d16102b0366004611aa2565b610a88565b6101696102c3366004611b0d565b6001600160a01b039182166000908152609c6020908152604080832093909416825291909152205460ff1690565b6101d16102ff366004611943565b610aa4565b60006001600160e01b031982167f80ac58cd00000000000000000000000000000000000000000000000000000000148061036757506001600160e01b031982167f5b5e139f00000000000000000000000000000000000000000000000000000000145b8061039b57507f01ffc9a7000000000000000000000000000000000000000000000000000000006001600160e01b03198316145b92915050565b6060609780546103b090611b40565b80601f01602080910402602001604051908101604052809291908181526020018280546103dc90611b40565b80156104295780601f106103fe57610100808354040283529160200191610429565b820191906000526020600020905b81548152906001019060200180831161040c57829003601f168201915b5050505050905090565b600061043e82610b31565b506000908152609b60205260409020546001600160a01b031690565b600061046582610636565b9050806001600160a01b0316836001600160a01b0316036104f35760405162461bcd60e51b815260206004820152602160248201527f4552433732313a20617070726f76616c20746f2063757272656e74206f776e6560448201527f720000000000000000000000000000000000000000000000000000000000000060648201526084015b60405180910390fd5b336001600160a01b038216148061050f575061050f81336102c3565b6105815760405162461bcd60e51b815260206004820152603d60248201527f4552433732313a20617070726f76652063616c6c6572206973206e6f7420746f60448201527f6b656e206f776e6572206f7220617070726f76656420666f7220616c6c00000060648201526084016104ea565b61058b8383610b95565b505050565b61059a3382610c03565b6105fc5760405162461bcd60e51b815260206004820152602d60248201527f4552433732313a2063616c6c6572206973206e6f7420746f6b656e206f776e6560448201526c1c881bdc88185c1c1c9bdd9959609a1b60648201526084016104ea565b61058b838383610c81565b61058b838383604051806020016040528060008152506108fa565b61062a610e7a565b61063381610ed4565b50565b6000818152609960205260408120546001600160a01b03168061039b5760405162461bcd60e51b815260206004820152601860248201527f4552433732313a20696e76616c696420746f6b656e204944000000000000000060448201526064016104ea565b60006001600160a01b0382166107195760405162461bcd60e51b815260206004820152602960248201527f4552433732313a2061646472657373207a65726f206973206e6f74206120766160448201527f6c6964206f776e6572000000000000000000000000000000000000000000000060648201526084016104ea565b506001600160a01b03166000908152609a602052604090205490565b61073d610e7a565b6107476000610f14565b565b600054610100900460ff16158080156107695750600054600160ff909116105b806107835750303b158015610783575060005460ff166001145b6107f55760405162461bcd60e51b815260206004820152602e60248201527f496e697469616c697a61626c653a20636f6e747261637420697320616c72656160448201527f647920696e697469616c697a656400000000000000000000000000000000000060648201526084016104ea565b6000805460ff191660011790558015610818576000805461ff0019166101001790555b610820610f66565b6108946040518060400160405280600f81526020017f57726170706564486173686937323100000000000000000000000000000000008152506040518060400160405280600981526020017f5748415348493732310000000000000000000000000000000000000000000000815250610fda565b8015610633576000805461ff0019169055604051600181527f7f26b83ff96e1f2b6a682f133852f6798a09c465da95921460cefb38474024989060200160405180910390a150565b6060609880546103b090611b40565b6108f633838361105e565b5050565b6109043383610c03565b6109665760405162461bcd60e51b815260206004820152602d60248201527f4552433732313a2063616c6c6572206973206e6f7420746f6b656e206f776e6560448201526c1c881bdc88185c1c1c9bdd9959609a1b60648201526084016104ea565b6109728484848461112c565b50505050565b606061098382610b31565b600082815260c960205260408120805461099c90611b40565b80601f01602080910402602001604051908101604052809291908181526020018280546109c890611b40565b8015610a155780601f106109ea57610100808354040283529160200191610a15565b820191906000526020600020905b8154815290600101906020018083116109f857829003601f168201915b505050505090506000610a3360408051602081019091526000815290565b90508051600003610a45575092915050565b815115610a77578082604051602001610a5f929190611b7a565b60405160208183030381529060405292505050919050565b610a80846111b5565b949350505050565b610a90610e7a565b610a9a8383611229565b61058b82826113b4565b610aac610e7a565b6001600160a01b038116610b285760405162461bcd60e51b815260206004820152602660248201527f4f776e61626c653a206e6577206f776e657220697320746865207a65726f206160448201527f646472657373000000000000000000000000000000000000000000000000000060648201526084016104ea565b61063381610f14565b6000818152609960205260409020546001600160a01b03166106335760405162461bcd60e51b815260206004820152601860248201527f4552433732313a20696e76616c696420746f6b656e204944000000000000000060448201526064016104ea565b6000818152609b6020526040902080546001600160a01b0319166001600160a01b0384169081179091558190610bca82610636565b6001600160a01b03167f8c5be1e5ebec7d5bd14f71427d1e84f3dd0314c0f7b2291e5b200ac8c7c3b92560405160405180910390a45050565b600080610c0f83610636565b9050806001600160a01b0316846001600160a01b03161480610c5657506001600160a01b038082166000908152609c602090815260408083209388168352929052205460ff165b80610a805750836001600160a01b0316610c6f84610433565b6001600160a01b031614949350505050565b826001600160a01b0316610c9482610636565b6001600160a01b031614610cf85760405162461bcd60e51b815260206004820152602560248201527f4552433732313a207472616e736665722066726f6d20696e636f72726563742060448201526437bbb732b960d91b60648201526084016104ea565b6001600160a01b038216610d735760405162461bcd60e51b8152602060048201526024808201527f4552433732313a207472616e7366657220746f20746865207a65726f2061646460448201527f726573730000000000000000000000000000000000000000000000000000000060648201526084016104ea565b826001600160a01b0316610d8682610636565b6001600160a01b031614610dea5760405162461bcd60e51b815260206004820152602560248201527f4552433732313a207472616e736665722066726f6d20696e636f72726563742060448201526437bbb732b960d91b60648201526084016104ea565b6000818152609b6020908152604080832080546001600160a01b03199081169091556001600160a01b03878116808652609a8552838620805460001901905590871680865283862080546001019055868652609990945282852080549092168417909155905184937fddf252ad1be2c89b69c2b068fc378daa952ba7f163c4a11628f55a4df523b3ef91a4505050565b6033546001600160a01b031633146107475760405162461bcd60e51b815260206004820181905260248201527f4f776e61626c653a2063616c6c6572206973206e6f7420746865206f776e657260448201526064016104ea565b610edd81611456565b600081815260c9602052604090208054610ef690611b40565b15905061063357600081815260c960205260408120610633916117c4565b603380546001600160a01b038381166001600160a01b0319831681179093556040519116919082907f8be0079c531659141344cd1fd0a4f28419497f9722a3daafe3b4186f6b6457e090600090a35050565b600054610100900460ff16610fd15760405162461bcd60e51b815260206004820152602b60248201527f496e697469616c697a61626c653a20636f6e7472616374206973206e6f74206960448201526a6e697469616c697a696e6760a81b60648201526084016104ea565b61074733610f14565b600054610100900460ff166110455760405162461bcd60e51b815260206004820152602b60248201527f496e697469616c697a61626c653a20636f6e7472616374206973206e6f74206960448201526a6e697469616c697a696e6760a81b60648201526084016104ea565b60976110518382611bf7565b50609861058b8282611bf7565b816001600160a01b0316836001600160a01b0316036110bf5760405162461bcd60e51b815260206004820152601960248201527f4552433732313a20617070726f766520746f2063616c6c65720000000000000060448201526064016104ea565b6001600160a01b038381166000818152609c6020908152604080832094871680845294825291829020805460ff191686151590811790915591519182527f17307eab39ab6107e8899845ad3d59bd9653f200f220920489ca2b5937696c31910160405180910390a3505050565b611137848484610c81565b611143848484846114eb565b6109725760405162461bcd60e51b815260206004820152603260248201527f4552433732313a207472616e7366657220746f206e6f6e20455243373231526560448201527f63656976657220696d706c656d656e746572000000000000000000000000000060648201526084016104ea565b60606111c082610b31565b60006111d760408051602081019091526000815290565b905060008151116111f75760405180602001604052806000815250611222565b8061120184611642565b604051602001611212929190611b7a565b6040516020818303038152906040525b9392505050565b6001600160a01b03821661127f5760405162461bcd60e51b815260206004820181905260248201527f4552433732313a206d696e7420746f20746865207a65726f206164647265737360448201526064016104ea565b6000818152609960205260409020546001600160a01b0316156112e45760405162461bcd60e51b815260206004820152601c60248201527f4552433732313a20746f6b656e20616c7265616479206d696e7465640000000060448201526064016104ea565b6000818152609960205260409020546001600160a01b0316156113495760405162461bcd60e51b815260206004820152601c60248201527f4552433732313a20746f6b656e20616c7265616479206d696e7465640000000060448201526064016104ea565b6001600160a01b0382166000818152609a6020908152604080832080546001019055848352609990915280822080546001600160a01b0319168417905551839291907fddf252ad1be2c89b69c2b068fc378daa952ba7f163c4a11628f55a4df523b3ef908290a45050565b6000828152609960205260409020546001600160a01b031661143e5760405162461bcd60e51b815260206004820152602e60248201527f45524337323155524953746f726167653a2055524920736574206f66206e6f6e60448201527f6578697374656e7420746f6b656e00000000000000000000000000000000000060648201526084016104ea565b600082815260c96020526040902061058b8282611bf7565b600061146182610636565b905061146c82610636565b6000838152609b6020908152604080832080546001600160a01b03199081169091556001600160a01b038516808552609a845282852080546000190190558785526099909352818420805490911690555192935084927fddf252ad1be2c89b69c2b068fc378daa952ba7f163c4a11628f55a4df523b3ef908390a45050565b60006001600160a01b0384163b1561163757604051630a85bd0160e11b81526001600160a01b0385169063150b7a029061152f903390899088908890600401611cb7565b6020604051808303816000875af192505050801561156a575060408051601f3d908101601f1916820190925261156791810190611cf3565b60015b61161d573d808015611598576040519150601f19603f3d011682016040523d82523d6000602084013e61159d565b606091505b5080516000036116155760405162461bcd60e51b815260206004820152603260248201527f4552433732313a207472616e7366657220746f206e6f6e20455243373231526560448201527f63656976657220696d706c656d656e746572000000000000000000000000000060648201526084016104ea565b805181602001fd5b6001600160e01b031916630a85bd0160e11b149050610a80565b506001949350505050565b6060600061164f836116e2565b600101905060008167ffffffffffffffff81111561166f5761166f61199a565b6040519080825280601f01601f191660200182016040528015611699576020820181803683370190505b5090508181016020015b600019017f3031323334353637383961626364656600000000000000000000000000000000600a86061a8153600a85049450846116a357509392505050565b6000807a184f03e93ff9f4daa797ed6e38ed64bf6a1f010000000000000000831061172b577a184f03e93ff9f4daa797ed6e38ed64bf6a1f010000000000000000830492506040015b6d04ee2d6d415b85acef81000000008310611757576d04ee2d6d415b85acef8100000000830492506020015b662386f26fc10000831061177557662386f26fc10000830492506010015b6305f5e100831061178d576305f5e100830492506008015b61271083106117a157612710830492506004015b606483106117b3576064830492506002015b600a831061039b5760010192915050565b5080546117d090611b40565b6000825580601f106117e0575050565b601f01602090049060005260206000209081019061063391905b8082111561180e57600081556001016117fa565b5090565b6001600160e01b03198116811461063357600080fd5b60006020828403121561183a57600080fd5b813561122281611812565b60005b83811015611860578181015183820152602001611848565b50506000910152565b60008151808452611881816020860160208601611845565b601f01601f19169290920160200192915050565b6020815260006112226020830184611869565b6000602082840312156118ba57600080fd5b5035919050565b80356001600160a01b03811681146118d857600080fd5b919050565b600080604083850312156118f057600080fd5b6118f9836118c1565b946020939093013593505050565b60008060006060848603121561191c57600080fd5b611925846118c1565b9250611933602085016118c1565b9150604084013590509250925092565b60006020828403121561195557600080fd5b611222826118c1565b6000806040838503121561197157600080fd5b61197a836118c1565b91506020830135801515811461198f57600080fd5b809150509250929050565b634e487b7160e01b600052604160045260246000fd5b600067ffffffffffffffff808411156119cb576119cb61199a565b604051601f8501601f19908116603f011681019082821181831017156119f3576119f361199a565b81604052809350858152868686011115611a0c57600080fd5b858560208301376000602087830101525050509392505050565b60008060008060808587031215611a3c57600080fd5b611a45856118c1565b9350611a53602086016118c1565b925060408501359150606085013567ffffffffffffffff811115611a7657600080fd5b8501601f81018713611a8757600080fd5b611a96878235602084016119b0565b91505092959194509250565b600080600060608486031215611ab757600080fd5b611ac0846118c1565b925060208401359150604084013567ffffffffffffffff811115611ae357600080fd5b8401601f81018613611af457600080fd5b611b03868235602084016119b0565b9150509250925092565b60008060408385031215611b2057600080fd5b611b29836118c1565b9150611b37602084016118c1565b90509250929050565b600181811c90821680611b5457607f821691505b602082108103611b7457634e487b7160e01b600052602260045260246000fd5b50919050565b60008351611b8c818460208801611845565b835190830190611ba0818360208801611845565b01949350505050565b601f82111561058b57600081815260208120601f850160051c81016020861015611bd05750805b601f850160051c820191505b81811015611bef57828155600101611bdc565b505050505050565b815167ffffffffffffffff811115611c1157611c1161199a565b611c2581611c1f8454611b40565b84611ba9565b602080601f831160018114611c5a5760008415611c425750858301515b600019600386901b1c1916600185901b178555611bef565b600085815260208120601f198616915b82811015611c8957888601518255948401946001909101908401611c6a565b5085821015611ca75787850151600019600388901b60f8161c191681555b5050505050600190811b01905550565b60006001600160a01b03808716835280861660208401525083604083015260806060830152611ce96080830184611869565b9695505050505050565b600060208284031215611d0557600080fd5b81516112228161181256fea2646970667358221220a623f8ed7edcd55831dccee58d7a7a0ed217153d0b7215af33a0d184488fcd0f64736f6c63430008110033",
  "linkReferences": {},
  "deployedLinkReferences": {}
}