{
  "_format": "hh-sol-artifact-1",
  "contractName": "L1Bridge",
  "sourceName": "contracts/L1Bridge.sol",
  "abi": [
    {
      "inputs": [
        {
          "internalType": "address",
          "name": "_messenger",
          "type": "address"
        },
        {
          "internalType": "address",
          "name": "_otherBridge",
          "type": "address"
        }
      ],
      "stateMutability": "nonpayable",
      "type": "constructor"
    },
    {
      "anonymous": false,
      "inputs": [
        {
          "indexed": true,
          "internalType": "address",
          "name": "localToken",
          "type": "address"
        },
        {
          "indexed": true,
          "internalType": "address",
          "name": "remoteToken",
          "type": "address"
        },
        {
          "indexed": true,
          "internalType": "address",
          "name": "from",
          "type": "address"
        },
        {
          "indexed": false,
          "internalType": "address",
          "name": "to",
          "type": "address"
        },
        {
          "indexed": false,
          "internalType": "uint256",
          "name": "tokenId",
          "type": "uint256"
        },
        {
          "indexed": false,
          "internalType": "bytes",
          "name": "extraData",
          "type": "bytes"
        }
      ],
      "name": "ERC721BridgeFinalized",
      "type": "event"
    },
    {
      "anonymous": false,
      "inputs": [
        {
          "indexed": true,
          "internalType": "address",
          "name": "localToken",
          "type": "address"
        },
        {
          "indexed": true,
          "internalType": "address",
          "name": "remoteToken",
          "type": "address"
        },
        {
          "indexed": true,
          "internalType": "address",
          "name": "from",
          "type": "address"
        },
        {
          "indexed": false,
          "internalType": "address",
          "name": "to",
          "type": "address"
        },
        {
          "indexed": false,
          "internalType": "uint256",
          "name": "tokenId",
          "type": "uint256"
        },
        {
          "indexed": false,
          "internalType": "bytes",
          "name": "extraData",
          "type": "bytes"
        }
      ],
      "name": "ERC721BridgeInitiated",
      "type": "event"
    },
    {
      "inputs": [],
      "name": "MESSENGER",
      "outputs": [
        {
          "internalType": "contract CrossDomainMessenger",
          "name": "",
          "type": "address"
        }
      ],
      "stateMutability": "view",
      "type": "function"
    },
    {
      "inputs": [],
      "name": "OTHER_BRIDGE",
      "outputs": [
        {
          "internalType": "address",
          "name": "",
          "type": "address"
        }
      ],
      "stateMutability": "view",
      "type": "function"
    },
    {
      "inputs": [
        {
          "internalType": "address",
          "name": "_localToken",
          "type": "address"
        },
        {
          "internalType": "address",
          "name": "_remoteToken",
          "type": "address"
        },
        {
          "internalType": "uint256",
          "name": "_tokenId",
          "type": "uint256"
        },
        {
          "internalType": "uint32",
          "name": "_minGasLimit",
          "type": "uint32"
        },
        {
          "internalType": "bytes",
          "name": "_extraData",
          "type": "bytes"
        }
      ],
      "name": "bridgeERC721",
      "outputs": [],
      "stateMutability": "nonpayable",
      "type": "function"
    },
    {
      "inputs": [
        {
          "internalType": "address",
          "name": "_localToken",
          "type": "address"
        },
        {
          "internalType": "address",
          "name": "_remoteToken",
          "type": "address"
        },
        {
          "internalType": "address",
          "name": "_to",
          "type": "address"
        },
        {
          "internalType": "uint256",
          "name": "_tokenId",
          "type": "uint256"
        },
        {
          "internalType": "uint32",
          "name": "_minGasLimit",
          "type": "uint32"
        },
        {
          "internalType": "bytes",
          "name": "_extraData",
          "type": "bytes"
        }
      ],
      "name": "bridgeERC721To",
      "outputs": [],
      "stateMutability": "nonpayable",
      "type": "function"
    },
    {
      "inputs": [
        {
          "internalType": "address",
          "name": "",
          "type": "address"
        },
        {
          "internalType": "address",
          "name": "",
          "type": "address"
        },
        {
          "internalType": "uint256",
          "name": "",
          "type": "uint256"
        }
      ],
      "name": "deposits",
      "outputs": [
        {
          "internalType": "bool",
          "name": "",
          "type": "bool"
        }
      ],
      "stateMutability": "view",
      "type": "function"
    },
    {
      "inputs": [
        {
          "internalType": "address",
          "name": "_localToken",
          "type": "address"
        },
        {
          "internalType": "address",
          "name": "_remoteToken",
          "type": "address"
        },
        {
          "internalType": "address",
          "name": "_from",
          "type": "address"
        },
        {
          "internalType": "address",
          "name": "_to",
          "type": "address"
        },
        {
          "internalType": "uint256",
          "name": "_tokenId",
          "type": "uint256"
        },
        {
          "internalType": "bytes",
          "name": "_extraData",
          "type": "bytes"
        }
      ],
      "name": "finalizeBridgeERC721",
      "outputs": [],
      "stateMutability": "nonpayable",
      "type": "function"
    },
    {
      "inputs": [],
      "name": "messenger",
      "outputs": [
        {
          "internalType": "contract CrossDomainMessenger",
          "name": "",
          "type": "address"
        }
      ],
      "stateMutability": "view",
      "type": "function"
    },
    {
      "inputs": [],
      "name": "otherBridge",
      "outputs": [
        {
          "internalType": "address",
          "name": "",
          "type": "address"
        }
      ],
      "stateMutability": "view",
      "type": "function"
    },
    {
      "inputs": [],
      "name": "version",
      "outputs": [
        {
          "internalType": "string",
          "name": "",
          "type": "string"
        }
      ],
      "stateMutability": "view",
      "type": "function"
    }
  ],
  "bytecode": "0x6101206040523480156200001257600080fd5b5060405162001eea38038062001eea83398181016040528101906200003891906200021f565b818160018060008484600073ffffffffffffffffffffffffffffffffffffffff168273ffffffffffffffffffffffffffffffffffffffff1603620000b3576040517f08c379a0000000000000000000000000000000000000000000000000000000008152600401620000aa90620002ed565b60405180910390fd5b600073ffffffffffffffffffffffffffffffffffffffff168173ffffffffffffffffffffffffffffffffffffffff160362000125576040517f08c379a00000000000000000000000000000000000000000000000000000000081526004016200011c9062000385565b60405180910390fd5b8173ffffffffffffffffffffffffffffffffffffffff1660808173ffffffffffffffffffffffffffffffffffffffff16815250508073ffffffffffffffffffffffffffffffffffffffff1660a08173ffffffffffffffffffffffffffffffffffffffff168152505050508260c081815250508160e0818152505080610100818152505050505050505050620003a7565b600080fd5b600073ffffffffffffffffffffffffffffffffffffffff82169050919050565b6000620001e782620001ba565b9050919050565b620001f981620001da565b81146200020557600080fd5b50565b6000815190506200021981620001ee565b92915050565b60008060408385031215620002395762000238620001b5565b5b6000620002498582860162000208565b92505060206200025c8582860162000208565b9150509250929050565b600082825260208201905092915050565b7f4552433732314272696467653a206d657373656e6765722063616e6e6f74206260008201527f6520616464726573732830290000000000000000000000000000000000000000602082015250565b6000620002d5602c8362000266565b9150620002e28262000277565b604082019050919050565b600060208201905081810360008301526200030881620002c6565b9050919050565b7f4552433732314272696467653a206f74686572206272696467652063616e6e6f60008201527f7420626520616464726573732830290000000000000000000000000000000000602082015250565b60006200036d602f8362000266565b91506200037a826200030f565b604082019050919050565b60006020820190508181036000830152620003a0816200035e565b9050919050565b60805160a05160c05160e05161010051611acd6200041d60003960006102940152600061026b015260006102420152600081816103720152818161077e015281816108500152610adf0152600081816102170152818161031c015281816103a9015281816107a20152610aa30152611acd6000f3fe608060405234801561001057600080fd5b50600436106100935760003560e01c8063761f449311610066578063761f4493146101205780637f46ddb21461013c578063927ede2d1461015a578063aa55745214610178578063c89701a21461019457610093565b80633687011a146100985780633cb747bf146100b457806354fd4d50146100d25780635d93a3fc146100f0575b600080fd5b6100b260048036038101906100ad9190610e7c565b6101b2565b005b6100bc610213565b6040516100c99190610f75565b60405180910390f35b6100da61023b565b6040516100e79190611029565b60405180910390f35b61010a6004803603810190610105919061104b565b6102de565b60405161011791906110b9565b60405180910390f35b61013a600480360381019061013591906110d4565b61031a565b005b61014461077c565b6040516101519190611192565b60405180910390f35b6101626107a0565b60405161016f9190610f75565b60405180910390f35b610192600480360381019061018d91906111ad565b6107c4565b005b61019c61084c565b6040516101a99190611192565b60405180910390f35b6101bb33610874565b156101fb576040517f08c379a00000000000000000000000000000000000000000000000000000000081526004016101f2906112ce565b60405180910390fd5b61020b8686333388888888610897565b505050505050565b60007f0000000000000000000000000000000000000000000000000000000000000000905090565b60606102667f0000000000000000000000000000000000000000000000000000000000000000610bdd565b61028f7f0000000000000000000000000000000000000000000000000000000000000000610bdd565b6102b87f0000000000000000000000000000000000000000000000000000000000000000610bdd565b6040516020016102ca93929190611376565b604051602081830303815290604052905090565b6031602052826000526040600020602052816000526040600020602052806000526040600020600092509250509054906101000a900460ff1681565b7f000000000000000000000000000000000000000000000000000000000000000073ffffffffffffffffffffffffffffffffffffffff163373ffffffffffffffffffffffffffffffffffffffff1614801561044e57507f000000000000000000000000000000000000000000000000000000000000000073ffffffffffffffffffffffffffffffffffffffff167f000000000000000000000000000000000000000000000000000000000000000073ffffffffffffffffffffffffffffffffffffffff16636e296e456040518163ffffffff1660e01b8152600401602060405180830381865afa158015610412573d6000803e3d6000fd5b505050506040513d601f19601f8201168201806040525081019061043691906113d2565b73ffffffffffffffffffffffffffffffffffffffff16145b61048d576040517f08c379a000000000000000000000000000000000000000000000000000000000815260040161048490611471565b60405180910390fd5b3073ffffffffffffffffffffffffffffffffffffffff168773ffffffffffffffffffffffffffffffffffffffff16036104fb576040517f08c379a00000000000000000000000000000000000000000000000000000000081526004016104f290611503565b60405180910390fd5b60011515603160008973ffffffffffffffffffffffffffffffffffffffff1673ffffffffffffffffffffffffffffffffffffffff16815260200190815260200160002060008873ffffffffffffffffffffffffffffffffffffffff1673ffffffffffffffffffffffffffffffffffffffff168152602001908152602001600020600085815260200190815260200160002060009054906101000a900460ff161515146105dc576040517f08c379a00000000000000000000000000000000000000000000000000000000081526004016105d390611595565b60405180910390fd5b6000603160008973ffffffffffffffffffffffffffffffffffffffff1673ffffffffffffffffffffffffffffffffffffffff16815260200190815260200160002060008873ffffffffffffffffffffffffffffffffffffffff1673ffffffffffffffffffffffffffffffffffffffff168152602001908152602001600020600085815260200190815260200160002060006101000a81548160ff0219169083151502179055508673ffffffffffffffffffffffffffffffffffffffff166342842e0e3086866040518463ffffffff1660e01b81526004016106bf939291906115c4565b600060405180830381600087803b1580156106d957600080fd5b505af11580156106ed573d6000803e3d6000fd5b505050508473ffffffffffffffffffffffffffffffffffffffff168673ffffffffffffffffffffffffffffffffffffffff168873ffffffffffffffffffffffffffffffffffffffff167f1f39bf6707b5d608453e0ae4c067b562bcc4c85c0f562ef5d2c774d2e7f131ac8787878760405161076b9493929190611648565b60405180910390a450505050505050565b7f000000000000000000000000000000000000000000000000000000000000000081565b7f000000000000000000000000000000000000000000000000000000000000000081565b600073ffffffffffffffffffffffffffffffffffffffff168573ffffffffffffffffffffffffffffffffffffffff1603610833576040517f08c379a000000000000000000000000000000000000000000000000000000000815260040161082a906116fa565b60405180910390fd5b6108438787338888888888610897565b50505050505050565b60007f0000000000000000000000000000000000000000000000000000000000000000905090565b6000808273ffffffffffffffffffffffffffffffffffffffff163b119050919050565b600073ffffffffffffffffffffffffffffffffffffffff168773ffffffffffffffffffffffffffffffffffffffff1603610906576040517f08c379a00000000000000000000000000000000000000000000000000000000081526004016108fd9061178c565b60405180910390fd5b600063761f449360e01b888a898989888860405160240161092d97969594939291906117ac565b604051602081830303815290604052907bffffffffffffffffffffffffffffffffffffffffffffffffffffffff19166020820180517bffffffffffffffffffffffffffffffffffffffffffffffffffffffff838183161783525050505090506001603160008b73ffffffffffffffffffffffffffffffffffffffff1673ffffffffffffffffffffffffffffffffffffffff16815260200190815260200160002060008a73ffffffffffffffffffffffffffffffffffffffff1673ffffffffffffffffffffffffffffffffffffffff168152602001908152602001600020600087815260200190815260200160002060006101000a81548160ff0219169083151502179055508873ffffffffffffffffffffffffffffffffffffffff166323b872dd8830886040518463ffffffff1660e01b8152600401610a6f939291906115c4565b600060405180830381600087803b158015610a8957600080fd5b505af1158015610a9d573d6000803e3d6000fd5b505050507f000000000000000000000000000000000000000000000000000000000000000073ffffffffffffffffffffffffffffffffffffffff16633dbb202b7f000000000000000000000000000000000000000000000000000000000000000083876040518463ffffffff1660e01b8152600401610b1e93929190611869565b600060405180830381600087803b158015610b3857600080fd5b505af1158015610b4c573d6000803e3d6000fd5b505050508673ffffffffffffffffffffffffffffffffffffffff168873ffffffffffffffffffffffffffffffffffffffff168a73ffffffffffffffffffffffffffffffffffffffff167fb7460e2a880f256ebef3406116ff3eee0cee51ebccdc2a40698f87ebb2e9c1a589898888604051610bca9493929190611648565b60405180910390a4505050505050505050565b606060008203610c24576040518060400160405280600181526020017f30000000000000000000000000000000000000000000000000000000000000008152509050610d38565b600082905060005b60008214610c56578080610c3f906118d6565b915050600a82610c4f919061194d565b9150610c2c565b60008167ffffffffffffffff811115610c7257610c7161197e565b5b6040519080825280601f01601f191660200182016040528015610ca45781602001600182028036833780820191505090505b5090505b60008514610d3157600182610cbd91906119ad565b9150600a85610ccc91906119e1565b6030610cd89190611a12565b60f81b818381518110610cee57610ced611a68565b5b60200101907effffffffffffffffffffffffffffffffffffffffffffffffffffffffffffff1916908160001a905350600a85610d2a919061194d565b9450610ca8565b8093505050505b919050565b600080fd5b600080fd5b600073ffffffffffffffffffffffffffffffffffffffff82169050919050565b6000610d7282610d47565b9050919050565b610d8281610d67565b8114610d8d57600080fd5b50565b600081359050610d9f81610d79565b92915050565b6000819050919050565b610db881610da5565b8114610dc357600080fd5b50565b600081359050610dd581610daf565b92915050565b600063ffffffff82169050919050565b610df481610ddb565b8114610dff57600080fd5b50565b600081359050610e1181610deb565b92915050565b600080fd5b600080fd5b600080fd5b60008083601f840112610e3c57610e3b610e17565b5b8235905067ffffffffffffffff811115610e5957610e58610e1c565b5b602083019150836001820283011115610e7557610e74610e21565b5b9250929050565b60008060008060008060a08789031215610e9957610e98610d3d565b5b6000610ea789828a01610d90565b9650506020610eb889828a01610d90565b9550506040610ec989828a01610dc6565b9450506060610eda89828a01610e02565b935050608087013567ffffffffffffffff811115610efb57610efa610d42565b5b610f0789828a01610e26565b92509250509295509295509295565b6000819050919050565b6000610f3b610f36610f3184610d47565b610f16565b610d47565b9050919050565b6000610f4d82610f20565b9050919050565b6000610f5f82610f42565b9050919050565b610f6f81610f54565b82525050565b6000602082019050610f8a6000830184610f66565b92915050565b600081519050919050565b600082825260208201905092915050565b60005b83811015610fca578082015181840152602081019050610faf565b83811115610fd9576000848401525b50505050565b6000601f19601f8301169050919050565b6000610ffb82610f90565b6110058185610f9b565b9350611015818560208601610fac565b61101e81610fdf565b840191505092915050565b600060208201905081810360008301526110438184610ff0565b905092915050565b60008060006060848603121561106457611063610d3d565b5b600061107286828701610d90565b935050602061108386828701610d90565b925050604061109486828701610dc6565b9150509250925092565b60008115159050919050565b6110b38161109e565b82525050565b60006020820190506110ce60008301846110aa565b92915050565b600080600080600080600060c0888a0312156110f3576110f2610d3d565b5b60006111018a828b01610d90565b97505060206111128a828b01610d90565b96505060406111238a828b01610d90565b95505060606111348a828b01610d90565b94505060806111458a828b01610dc6565b93505060a088013567ffffffffffffffff81111561116657611165610d42565b5b6111728a828b01610e26565b925092505092959891949750929550565b61118c81610d67565b82525050565b60006020820190506111a76000830184611183565b92915050565b600080600080600080600060c0888a0312156111cc576111cb610d3d565b5b60006111da8a828b01610d90565b97505060206111eb8a828b01610d90565b96505060406111fc8a828b01610d90565b955050606061120d8a828b01610dc6565b945050608061121e8a828b01610e02565b93505060a088013567ffffffffffffffff81111561123f5761123e610d42565b5b61124b8a828b01610e26565b925092505092959891949750929550565b7f4552433732314272696467653a206163636f756e74206973206e6f742065787460008201527f65726e616c6c79206f776e656400000000000000000000000000000000000000602082015250565b60006112b8602d83610f9b565b91506112c38261125c565b604082019050919050565b600060208201905081810360008301526112e7816112ab565b9050919050565b600081905092915050565b600061130482610f90565b61130e81856112ee565b935061131e818560208601610fac565b80840191505092915050565b7f2e00000000000000000000000000000000000000000000000000000000000000600082015250565b60006113606001836112ee565b915061136b8261132a565b600182019050919050565b600061138282866112f9565b915061138d82611353565b915061139982856112f9565b91506113a482611353565b91506113b082846112f9565b9150819050949350505050565b6000815190506113cc81610d79565b92915050565b6000602082840312156113e8576113e7610d3d565b5b60006113f6848285016113bd565b91505092915050565b7f4552433732314272696467653a2066756e6374696f6e2063616e206f6e6c792060008201527f62652063616c6c65642066726f6d20746865206f746865722062726964676500602082015250565b600061145b603f83610f9b565b9150611466826113ff565b604082019050919050565b6000602082019050818103600083015261148a8161144e565b9050919050565b7f4c314552433732314272696467653a206c6f63616c20746f6b656e2063616e6e60008201527f6f742062652073656c6600000000000000000000000000000000000000000000602082015250565b60006114ed602a83610f9b565b91506114f882611491565b604082019050919050565b6000602082019050818103600083015261151c816114e0565b9050919050565b7f4c314552433732314272696467653a20546f6b656e204944206973206e6f742060008201527f657363726f77656420696e20746865204c312042726964676500000000000000602082015250565b600061157f603983610f9b565b915061158a82611523565b604082019050919050565b600060208201905081810360008301526115ae81611572565b9050919050565b6115be81610da5565b82525050565b60006060820190506115d96000830186611183565b6115e66020830185611183565b6115f360408301846115b5565b949350505050565b600082825260208201905092915050565b82818337600083830152505050565b600061162783856115fb565b935061163483858461160c565b61163d83610fdf565b840190509392505050565b600060608201905061165d6000830187611183565b61166a60208301866115b5565b818103604083015261167d81848661161b565b905095945050505050565b7f4552433732314272696467653a206e667420726563697069656e742063616e6e60008201527f6f74206265206164647265737328302900000000000000000000000000000000602082015250565b60006116e4603083610f9b565b91506116ef82611688565b604082019050919050565b60006020820190508181036000830152611713816116d7565b9050919050565b7f4c314552433732314272696467653a2072656d6f746520746f6b656e2063616e60008201527f6e6f742062652061646472657373283029000000000000000000000000000000602082015250565b6000611776603183610f9b565b91506117818261171a565b604082019050919050565b600060208201905081810360008301526117a581611769565b9050919050565b600060c0820190506117c1600083018a611183565b6117ce6020830189611183565b6117db6040830188611183565b6117e86060830187611183565b6117f560808301866115b5565b81810360a083015261180881848661161b565b905098975050505050505050565b600081519050919050565b600061182c82611816565b61183681856115fb565b9350611846818560208601610fac565b61184f81610fdf565b840191505092915050565b61186381610ddb565b82525050565b600060608201905061187e6000830186611183565b81810360208301526118908185611821565b905061189f604083018461185a565b949350505050565b7f4e487b7100000000000000000000000000000000000000000000000000000000600052601160045260246000fd5b60006118e182610da5565b91507fffffffffffffffffffffffffffffffffffffffffffffffffffffffffffffffff8203611913576119126118a7565b5b600182019050919050565b7f4e487b7100000000000000000000000000000000000000000000000000000000600052601260045260246000fd5b600061195882610da5565b915061196383610da5565b9250826119735761197261191e565b5b828204905092915050565b7f4e487b7100000000000000000000000000000000000000000000000000000000600052604160045260246000fd5b60006119b882610da5565b91506119c383610da5565b9250828210156119d6576119d56118a7565b5b828203905092915050565b60006119ec82610da5565b91506119f783610da5565b925082611a0757611a0661191e565b5b828206905092915050565b6000611a1d82610da5565b9150611a2883610da5565b9250827fffffffffffffffffffffffffffffffffffffffffffffffffffffffffffffffff03821115611a5d57611a5c6118a7565b5b828201905092915050565b7f4e487b7100000000000000000000000000000000000000000000000000000000600052603260045260246000fdfea26469706673582212201e91fe15eadb6e28b6222585479d9a960bf8cbd5f36fbe082ceee88257cdacd764736f6c634300080f0033",
  "linkReferences": {},
  "deployedLinkReferences": {}
}