{
  "_format": "hh-sol-artifact-1",
  "contractName": "SimpleGatewaySrcSpokeBrdige",
  "sourceName": "contracts/test/SimpleGatewaySrcSpokeBridge.sol",
  "abi": [
    {
      "inputs": [
        {
          "internalType": "address",
          "name": "_contractMap",
          "type": "address"
        },
        {
          "internalType": "address",
          "name": "_hub",
          "type": "address"
        },
        {
          "internalType": "uint256",
          "name": "_transferPerBlock",
          "type": "uint256"
        },
        {
          "internalType": "uint256",
          "name": "_transFee",
          "type": "uint256"
        }
      ],
      "stateMutability": "nonpayable",
      "type": "constructor"
    },
    {
      "anonymous": false,
      "inputs": [
        {
          "indexed": false,
          "internalType": "address",
          "name": "relayer",
          "type": "address"
        },
        {
          "indexed": false,
          "internalType": "uint256",
          "name": "bidId",
          "type": "uint256"
        }
      ],
      "name": "BidBought",
      "type": "event"
    },
    {
      "anonymous": false,
      "inputs": [
        {
          "indexed": false,
          "internalType": "address",
          "name": "challenger",
          "type": "address"
        },
        {
          "indexed": false,
          "internalType": "address",
          "name": "relayer",
          "type": "address"
        },
        {
          "indexed": false,
          "internalType": "uint256",
          "name": "bidId",
          "type": "uint256"
        }
      ],
      "name": "BidChallenged",
      "type": "event"
    },
    {
      "anonymous": false,
      "inputs": [],
      "name": "BidCreated",
      "type": "event"
    },
    {
      "anonymous": false,
      "inputs": [
        {
          "indexed": false,
          "internalType": "address",
          "name": "contractAddress",
          "type": "address"
        },
        {
          "indexed": false,
          "internalType": "uint256",
          "name": "bidId",
          "type": "uint256"
        },
        {
          "indexed": false,
          "internalType": "uint256",
          "name": "id",
          "type": "uint256"
        },
        {
          "indexed": false,
          "internalType": "address",
          "name": "owner",
          "type": "address"
        }
      ],
      "name": "NFTUnwrapped",
      "type": "event"
    },
    {
      "anonymous": false,
      "inputs": [
        {
          "indexed": true,
          "internalType": "address",
          "name": "previousOwner",
          "type": "address"
        },
        {
          "indexed": true,
          "internalType": "address",
          "name": "newOwner",
          "type": "address"
        }
      ],
      "name": "OwnershipTransferred",
      "type": "event"
    },
    {
      "anonymous": false,
      "inputs": [],
      "name": "ProofSent",
      "type": "event"
    },
    {
      "inputs": [],
      "name": "CHALLENGE_AMOUNT",
      "outputs": [
        {
          "internalType": "uint256",
          "name": "",
          "type": "uint256"
        }
      ],
      "stateMutability": "view",
      "type": "function"
    },
    {
      "inputs": [],
      "name": "HUB",
      "outputs": [
        {
          "internalType": "address",
          "name": "",
          "type": "address"
        }
      ],
      "stateMutability": "view",
      "type": "function"
    },
    {
      "inputs": [],
      "name": "STAKE_AMOUNT",
      "outputs": [
        {
          "internalType": "uint256",
          "name": "",
          "type": "uint256"
        }
      ],
      "stateMutability": "view",
      "type": "function"
    },
    {
      "inputs": [],
      "name": "TIME_LIMIT_OF_UNDEPOSIT",
      "outputs": [
        {
          "internalType": "uint256",
          "name": "",
          "type": "uint256"
        }
      ],
      "stateMutability": "view",
      "type": "function"
    },
    {
      "inputs": [],
      "name": "TRANS_FEE",
      "outputs": [
        {
          "internalType": "uint256",
          "name": "",
          "type": "uint256"
        }
      ],
      "stateMutability": "view",
      "type": "function"
    },
    {
      "inputs": [],
      "name": "TRANS_PER_BLOCK",
      "outputs": [
        {
          "internalType": "uint256",
          "name": "",
          "type": "uint256"
        }
      ],
      "stateMutability": "view",
      "type": "function"
    },
    {
      "inputs": [
        {
          "internalType": "bytes32",
          "name": "_transactionRoot",
          "type": "bytes32"
        }
      ],
      "name": "addIncomingBlock",
      "outputs": [],
      "stateMutability": "nonpayable",
      "type": "function"
    },
    {
      "inputs": [
        {
          "internalType": "address",
          "name": "_receiver",
          "type": "address"
        },
        {
          "internalType": "uint256",
          "name": "_tokenId",
          "type": "uint256"
        },
        {
          "internalType": "address",
          "name": "_erc721Contract",
          "type": "address"
        }
      ],
      "name": "addNewTransactionToBlock",
      "outputs": [],
      "stateMutability": "nonpayable",
      "type": "function"
    },
    {
      "inputs": [
        {
          "components": [
            {
              "internalType": "uint256",
              "name": "tokenId",
              "type": "uint256"
            },
            {
              "internalType": "address",
              "name": "maker",
              "type": "address"
            },
            {
              "internalType": "address",
              "name": "receiver",
              "type": "address"
            },
            {
              "internalType": "address",
              "name": "localErc721Contract",
              "type": "address"
            },
            {
              "internalType": "address",
              "name": "remoteErc721Contract",
              "type": "address"
            }
          ],
          "internalType": "struct LibLocalTransaction.LocalTransaction[]",
          "name": "_transactions",
          "type": "tuple[]"
        }
      ],
      "name": "calculateHashes",
      "outputs": [],
      "stateMutability": "nonpayable",
      "type": "function"
    },
    {
      "inputs": [
        {
          "internalType": "uint256",
          "name": "blockId",
          "type": "uint256"
        }
      ],
      "name": "calculateTransactionHashes",
      "outputs": [],
      "stateMutability": "nonpayable",
      "type": "function"
    },
    {
      "inputs": [
        {
          "internalType": "uint256",
          "name": "_height",
          "type": "uint256"
        }
      ],
      "name": "challengeIncomingBlock",
      "outputs": [],
      "stateMutability": "payable",
      "type": "function"
    },
    {
      "inputs": [
        {
          "internalType": "uint256",
          "name": "",
          "type": "uint256"
        }
      ],
      "name": "challengedIncomingBlocks",
      "outputs": [
        {
          "internalType": "address",
          "name": "challenger",
          "type": "address"
        },
        {
          "internalType": "enum SpokeBridge.ChallengeStatus",
          "name": "status",
          "type": "uint8"
        }
      ],
      "stateMutability": "view",
      "type": "function"
    },
    {
      "inputs": [],
      "name": "claimChallengeReward",
      "outputs": [],
      "stateMutability": "nonpayable",
      "type": "function"
    },
    {
      "inputs": [],
      "name": "claimDeposite",
      "outputs": [],
      "stateMutability": "nonpayable",
      "type": "function"
    },
    {
      "inputs": [
        {
          "internalType": "uint256",
          "name": "_incomingBlockId",
          "type": "uint256"
        },
        {
          "components": [
            {
              "internalType": "uint256",
              "name": "tokenId",
              "type": "uint256"
            },
            {
              "internalType": "address",
              "name": "maker",
              "type": "address"
            },
            {
              "internalType": "address",
              "name": "receiver",
              "type": "address"
            },
            {
              "internalType": "address",
              "name": "localErc721Contract",
              "type": "address"
            },
            {
              "internalType": "address",
              "name": "remoteErc721Contract",
              "type": "address"
            }
          ],
          "internalType": "struct LibLocalTransaction.LocalTransaction",
          "name": "_transaction",
          "type": "tuple"
        },
        {
          "internalType": "bytes32[]",
          "name": "_proof",
          "type": "bytes32[]"
        },
        {
          "internalType": "uint256",
          "name": "_index",
          "type": "uint256"
        }
      ],
      "name": "claimNFT",
      "outputs": [],
      "stateMutability": "payable",
      "type": "function"
    },
    {
      "inputs": [],
      "name": "contractMap",
      "outputs": [
        {
          "internalType": "address",
          "name": "",
          "type": "address"
        }
      ],
      "stateMutability": "view",
      "type": "function"
    },
    {
      "inputs": [],
      "name": "deposite",
      "outputs": [],
      "stateMutability": "payable",
      "type": "function"
    },
    {
      "inputs": [],
      "name": "firstMaliciousBlockHeight",
      "outputs": [
        {
          "internalType": "uint256",
          "name": "",
          "type": "uint256"
        }
      ],
      "stateMutability": "view",
      "type": "function"
    },
    {
      "inputs": [
        {
          "internalType": "uint256",
          "name": "_blockNum",
          "type": "uint256"
        },
        {
          "internalType": "uint256",
          "name": "_txIdx",
          "type": "uint256"
        }
      ],
      "name": "getLocalTransaction",
      "outputs": [
        {
          "components": [
            {
              "internalType": "uint256",
              "name": "tokenId",
              "type": "uint256"
            },
            {
              "internalType": "address",
              "name": "maker",
              "type": "address"
            },
            {
              "internalType": "address",
              "name": "receiver",
              "type": "address"
            },
            {
              "internalType": "address",
              "name": "localErc721Contract",
              "type": "address"
            },
            {
              "internalType": "address",
              "name": "remoteErc721Contract",
              "type": "address"
            }
          ],
          "internalType": "struct LibLocalTransaction.LocalTransaction",
          "name": "",
          "type": "tuple"
        }
      ],
      "stateMutability": "view",
      "type": "function"
    },
    {
      "inputs": [],
      "name": "getRoot",
      "outputs": [
        {
          "internalType": "bytes32",
          "name": "",
          "type": "bytes32"
        }
      ],
      "stateMutability": "view",
      "type": "function"
    },
    {
      "inputs": [
        {
          "internalType": "uint256",
          "name": "",
          "type": "uint256"
        }
      ],
      "name": "hashes",
      "outputs": [
        {
          "internalType": "bytes32",
          "name": "",
          "type": "bytes32"
        }
      ],
      "stateMutability": "view",
      "type": "function"
    },
    {
      "inputs": [
        {
          "internalType": "uint256",
          "name": "",
          "type": "uint256"
        }
      ],
      "name": "incomingBlocks",
      "outputs": [
        {
          "internalType": "bytes32",
          "name": "transactionRoot",
          "type": "bytes32"
        },
        {
          "internalType": "uint256",
          "name": "timestampOfIncoming",
          "type": "uint256"
        },
        {
          "internalType": "enum SpokeBridge.IncomingBlockStatus",
          "name": "status",
          "type": "uint8"
        },
        {
          "internalType": "address",
          "name": "relayer",
          "type": "address"
        }
      ],
      "stateMutability": "view",
      "type": "function"
    },
    {
      "inputs": [
        {
          "internalType": "address",
          "name": "",
          "type": "address"
        }
      ],
      "name": "incomingChallengeRewards",
      "outputs": [
        {
          "internalType": "uint256",
          "name": "amount",
          "type": "uint256"
        },
        {
          "internalType": "bool",
          "name": "isClaimed",
          "type": "bool"
        }
      ],
      "stateMutability": "view",
      "type": "function"
    },
    {
      "inputs": [],
      "name": "localBlockId",
      "outputs": [
        {
          "internalType": "uint256",
          "name": "_value",
          "type": "uint256"
        }
      ],
      "stateMutability": "view",
      "type": "function"
    },
    {
      "inputs": [],
      "name": "numberOfChallenges",
      "outputs": [
        {
          "internalType": "uint256",
          "name": "_value",
          "type": "uint256"
        }
      ],
      "stateMutability": "view",
      "type": "function"
    },
    {
      "inputs": [
        {
          "internalType": "address",
          "name": "",
          "type": "address"
        },
        {
          "internalType": "address",
          "name": "",
          "type": "address"
        },
        {
          "internalType": "uint256",
          "name": "",
          "type": "uint256"
        },
        {
          "internalType": "bytes",
          "name": "",
          "type": "bytes"
        }
      ],
      "name": "onERC721Received",
      "outputs": [
        {
          "internalType": "bytes4",
          "name": "",
          "type": "bytes4"
        }
      ],
      "stateMutability": "nonpayable",
      "type": "function"
    },
    {
      "inputs": [],
      "name": "owner",
      "outputs": [
        {
          "internalType": "address",
          "name": "",
          "type": "address"
        }
      ],
      "stateMutability": "view",
      "type": "function"
    },
    {
      "inputs": [
        {
          "internalType": "bytes",
          "name": "_root",
          "type": "bytes"
        }
      ],
      "name": "receiveProof",
      "outputs": [],
      "stateMutability": "nonpayable",
      "type": "function"
    },
    {
      "inputs": [
        {
          "internalType": "address",
          "name": "",
          "type": "address"
        }
      ],
      "name": "relayers",
      "outputs": [
        {
          "internalType": "enum SpokeBridge.RelayerStatus",
          "name": "status",
          "type": "uint8"
        },
        {
          "internalType": "uint256",
          "name": "dateOfUndeposited",
          "type": "uint256"
        },
        {
          "internalType": "uint256",
          "name": "stakedAmount",
          "type": "uint256"
        },
        {
          "components": [
            {
              "internalType": "uint256",
              "name": "_value",
              "type": "uint256"
            }
          ],
          "internalType": "struct Counters.Counter",
          "name": "againstChallenges",
          "type": "tuple"
        }
      ],
      "stateMutability": "view",
      "type": "function"
    },
    {
      "inputs": [],
      "name": "renounceOwnership",
      "outputs": [],
      "stateMutability": "nonpayable",
      "type": "function"
    },
    {
      "inputs": [],
      "name": "restore",
      "outputs": [],
      "stateMutability": "nonpayable",
      "type": "function"
    },
    {
      "inputs": [
        {
          "internalType": "uint256",
          "name": "_height",
          "type": "uint256"
        }
      ],
      "name": "sendProof",
      "outputs": [],
      "stateMutability": "nonpayable",
      "type": "function"
    },
    {
      "inputs": [],
      "name": "status",
      "outputs": [
        {
          "internalType": "enum SpokeBridge.BridgeStatus",
          "name": "",
          "type": "uint8"
        }
      ],
      "stateMutability": "view",
      "type": "function"
    },
    {
      "inputs": [
        {
          "internalType": "address",
          "name": "newOwner",
          "type": "address"
        }
      ],
      "name": "transferOwnership",
      "outputs": [],
      "stateMutability": "nonpayable",
      "type": "function"
    },
    {
      "inputs": [],
      "name": "undeposite",
      "outputs": [],
      "stateMutability": "nonpayable",
      "type": "function"
    }
  ],
  "bytecode": "0x6101406040523480156200001257600080fd5b50604051620062be380380620062be833981810160405281019062000038919062000294565b838383838282826200005f620000536200012360201b60201c565b6200012b60201b60201c565b8273ffffffffffffffffffffffffffffffffffffffff166101208173ffffffffffffffffffffffffffffffffffffffff16815250506801158e460913d0000060808181525050678ac7230489e8000060a081815250506202a30060c081815250508160e0818152505080610100818152505050505083600a60006101000a81548173ffffffffffffffffffffffffffffffffffffffff021916908373ffffffffffffffffffffffffffffffffffffffff160217905550505050505050505062000306565b600033905090565b60008060009054906101000a900473ffffffffffffffffffffffffffffffffffffffff169050816000806101000a81548173ffffffffffffffffffffffffffffffffffffffff021916908373ffffffffffffffffffffffffffffffffffffffff1602179055508173ffffffffffffffffffffffffffffffffffffffff168173ffffffffffffffffffffffffffffffffffffffff167f8be0079c531659141344cd1fd0a4f28419497f9722a3daafe3b4186f6b6457e060405160405180910390a35050565b600080fd5b600073ffffffffffffffffffffffffffffffffffffffff82169050919050565b60006200022182620001f4565b9050919050565b620002338162000214565b81146200023f57600080fd5b50565b600081519050620002538162000228565b92915050565b6000819050919050565b6200026e8162000259565b81146200027a57600080fd5b50565b6000815190506200028e8162000263565b92915050565b60008060008060808587031215620002b157620002b0620001ef565b5b6000620002c18782880162000242565b9450506020620002d48782880162000242565b9350506040620002e7878288016200027d565b9250506060620002fa878288016200027d565b91505092959194509250565b60805160a05160c05160e0516101005161012051615f1b620003a360003960008181610a9301528181612b370152613bf50152600081816115f901528181611a24015261227301526000818161146701526125ab015260008181611c3c015261273701526000818161118b015281816131c201526138f60152600081816111600152818161280d01528181612c8e015261391a0152615f1b6000f3fe6080604052600436106102045760003560e01c80636a89c63a11610118578063ae110875116100a0578063db77f2b91161006f578063db77f2b9146106fb578063f2fde38b14610717578063f80f6cd214610740578063f8840cf714610769578063faf5625f1461079457610204565b8063ae11087514610651578063b24c49fa1461067c578063b8b7f514146106b9578063be7226ad146106e457610204565b806387cf416e116100e757806387cf416e1461058a5780638da5cb5b146105b3578063a4c52b86146105de578063a50ec32614610609578063a6762f401461061357610204565b80636a89c63a14610508578063715018a61461053357806373de182f1461054a5780637be6f7a71461057357610204565b806335cc073b1161019b578063529e720a1161016a578063529e720a146104325780635300f8411461045d57806359cbe82c1461049d5780635b9eb5c3146104b45780635ca1e165146104dd57610204565b806335cc073b146103705780633d95d1ed146103ae578063440de89c146103ca578063501895ae146103f557610204565b8063200d2ed2116101d7578063200d2ed2146102da57806324bd801b146103055780632fda332e1461032e578063342652371461034557610204565b8063012cf18c14610209578063150b7a02146102325780631d2f36821461026f5780631efa009e1461029a575b600080fd5b34801561021557600080fd5b50610230600480360381019061022b91906140aa565b6107bf565b005b34801561023e57600080fd5b506102596004803603810190610254919061427b565b6109e7565b6040516102669190614339565b60405180910390f35b34801561027b57600080fd5b506102846109fb565b6040516102919190614363565b60405180910390f35b3480156102a657600080fd5b506102c160048036038101906102bc91906140aa565b610a21565b6040516102d1949392919061441d565b60405180910390f35b3480156102e657600080fd5b506102ef610a7e565b6040516102fc91906144aa565b60405180910390f35b34801561031157600080fd5b5061032c600480360381019061032791906144c5565b610a91565b005b34801561033a57600080fd5b506103436112eb565b005b34801561035157600080fd5b5061035a611465565b604051610367919061450e565b60405180910390f35b34801561037c57600080fd5b5061039760048036038101906103929190614529565b611489565b6040516103a5929190614571565b60405180910390f35b6103c860048036038101906103c3919061461e565b6114ba565b005b3480156103d657600080fd5b506103df611c10565b6040516103ec919061450e565b60405180910390f35b34801561040157600080fd5b5061041c600480360381019061041791906140aa565b611c16565b60405161042991906146a7565b60405180910390f35b34801561043e57600080fd5b50610447611c3a565b604051610454919061450e565b60405180910390f35b34801561046957600080fd5b50610484600480360381019061047f9190614529565b611c5e565b6040516104949493929190614735565b60405180910390f35b3480156104a957600080fd5b506104b2611caf565b005b3480156104c057600080fd5b506104db60048036038101906104d691906147a6565b611ff8565b005b3480156104e957600080fd5b506104f261223a565b6040516104ff91906146a7565b60405180910390f35b34801561051457600080fd5b5061051d612271565b60405161052a919061450e565b60405180910390f35b34801561053f57600080fd5b50610548612295565b005b34801561055657600080fd5b50610571600480360381019061056c91906147d3565b6122a9565b005b34801561057f57600080fd5b50610588612602565b005b34801561059657600080fd5b506105b160048036038101906105ac91906140aa565b612933565b005b3480156105bf57600080fd5b506105c8612b0c565b6040516105d59190614363565b60405180910390f35b3480156105ea57600080fd5b506105f3612b35565b6040516106009190614363565b60405180910390f35b610611612b59565b005b34801561061f57600080fd5b5061063a600480360381019061063591906140aa565b612daf565b60405161064892919061486e565b60405180910390f35b34801561065d57600080fd5b50610666612e00565b604051610673919061450e565b60405180910390f35b34801561068857600080fd5b506106a3600480360381019061069e9190614897565b612e0c565b6040516106b0919061494e565b60405180910390f35b3480156106c557600080fd5b506106ce612fbf565b6040516106db919061450e565b60405180910390f35b3480156106f057600080fd5b506106f9612fcb565b005b610715600480360381019061071091906140aa565b6131c0565b005b34801561072357600080fd5b5061073e60048036038101906107399190614529565b613643565b005b34801561074c57600080fd5b5061076760048036038101906107629190614abd565b6136c6565b005b34801561077557600080fd5b5061077e6138f4565b60405161078b919061450e565b60405180910390f35b3480156107a057600080fd5b506107a9613918565b6040516107b6919061450e565b60405180910390f35b60006107cb600361393c565b82106109ac576109a760026000848152602001908152602001600020600001805480602002602001604051908101604052809291908181526020016000905b8282101561099e57838290600052602060002090600502016040518060a0016040529081600082015481526020016001820160009054906101000a900473ffffffffffffffffffffffffffffffffffffffff1673ffffffffffffffffffffffffffffffffffffffff1673ffffffffffffffffffffffffffffffffffffffff1681526020016002820160009054906101000a900473ffffffffffffffffffffffffffffffffffffffff1673ffffffffffffffffffffffffffffffffffffffff1673ffffffffffffffffffffffffffffffffffffffff1681526020016003820160009054906101000a900473ffffffffffffffffffffffffffffffffffffffff1673ffffffffffffffffffffffffffffffffffffffff1673ffffffffffffffffffffffffffffffffffffffff1681526020016004820160009054906101000a900473ffffffffffffffffffffffffffffffffffffffff1673ffffffffffffffffffffffffffffffffffffffff1673ffffffffffffffffffffffffffffffffffffffff16815250508152602001906001019061080a565b5050505061394a565b6109b1565b6000801b5b9050600082826040516020016109c8929190614b06565b60405160208183030381529060405290506109e281613bf3565b505050565b600063150b7a0260e01b9050949350505050565b600a60009054906101000a900473ffffffffffffffffffffffffffffffffffffffff1681565b60046020528060005260406000206000915090508060000154908060010154908060020160009054906101000a900460ff16908060020160019054906101000a900473ffffffffffffffffffffffffffffffffffffffff16905084565b600060149054906101000a900460ff1681565b7f000000000000000000000000000000000000000000000000000000000000000073ffffffffffffffffffffffffffffffffffffffff16610ad0613c81565b73ffffffffffffffffffffffffffffffffffffffff1614610b26576040517f08c379a0000000000000000000000000000000000000000000000000000000008152600401610b1d90614bb2565b60405180910390fd5b60006002811115610b3a57610b396143a6565b5b600060149054906101000a900460ff166002811115610b5c57610b5b6143a6565b5b03610b9c576040517f08c379a0000000000000000000000000000000000000000000000000000000008152600401610b9390614c44565b60405180910390fd5b60008082806020019051810190610bb39190614c8e565b91509150600060046000848152602001908152602001600020905060026003811115610be257610be16143a6565b5b8160020160009054906101000a900460ff166003811115610c0657610c056143a6565b5b14610c46576040517f08c379a0000000000000000000000000000000000000000000000000000000008152600401610c3d90614d40565b60405180910390fd5b81816000015403610f5e5760018160020160006101000a81548160ff02191690836003811115610c7957610c786143a6565b5b0217905550610cec600160008360020160019054906101000a900473ffffffffffffffffffffffffffffffffffffffff1673ffffffffffffffffffffffffffffffffffffffff1673ffffffffffffffffffffffffffffffffffffffff168152602001908152602001600020600301613c90565b6000610d5c600160008460020160019054906101000a900473ffffffffffffffffffffffffffffffffffffffff1673ffffffffffffffffffffffffffffffffffffffff1673ffffffffffffffffffffffffffffffffffffffff16815260200190815260200160002060030161393c565b148015610e00575060036004811115610d7857610d776143a6565b5b600160008360020160019054906101000a900473ffffffffffffffffffffffffffffffffffffffff1673ffffffffffffffffffffffffffffffffffffffff1673ffffffffffffffffffffffffffffffffffffffff16815260200190815260200160002060000160009054906101000a900460ff166004811115610dfe57610dfd6143a6565b5b145b15610e945760018060008360020160019054906101000a900473ffffffffffffffffffffffffffffffffffffffff1673ffffffffffffffffffffffffffffffffffffffff1673ffffffffffffffffffffffffffffffffffffffff16815260200190815260200160002060000160006101000a81548160ff02191690836004811115610e8e57610e8d6143a6565b5b02179055505b60006006600085815260200190815260200160002060000160146101000a81548160ff02191690836003811115610ece57610ecd6143a6565b5b0217905550610edd6008613c90565b6000610ee9600861393c565b148015610f29575060016002811115610f0557610f046143a6565b5b600060149054906101000a900460ff166002811115610f2757610f266143a6565b5b145b15610f595760008060146101000a81548160ff02191690836002811115610f5357610f526143a6565b5b02179055505b6112e5565b60038160020160006101000a81548160ff02191690836003811115610f8657610f856143a6565b5b0217905550610ff9600160008360020160019054906101000a900473ffffffffffffffffffffffffffffffffffffffff1673ffffffffffffffffffffffffffffffffffffffff1673ffffffffffffffffffffffffffffffffffffffff168152602001908152602001600020600301613c90565b6004600160008360020160019054906101000a900473ffffffffffffffffffffffffffffffffffffffff1673ffffffffffffffffffffffffffffffffffffffff1673ffffffffffffffffffffffffffffffffffffffff16815260200190815260200160002060000160006101000a81548160ff02191690836004811115611083576110826143a6565b5b02179055506001600281111561109c5761109b6143a6565b5b600060149054906101000a900460ff1660028111156110be576110bd6143a6565b5b14806110cb575082600954115b156110d857826009819055505b6110e26008613c90565b6002600060146101000a81548160ff02191690836002811115611108576111076143a6565b5b021790555060016003811115611121576111206143a6565b5b6006600085815260200190815260200160002060000160149054906101000a900460ff166003811115611157576111566143a6565b5b036112a55760047f00000000000000000000000000000000000000000000000000000000000000006111899190614dbe565b7f00000000000000000000000000000000000000000000000000000000000000006111b49190614def565b600760006006600087815260200190815260200160002060000160009054906101000a900473ffffffffffffffffffffffffffffffffffffffff1673ffffffffffffffffffffffffffffffffffffffff1673ffffffffffffffffffffffffffffffffffffffff168152602001908152602001600020600001600082825461123b9190614def565b92505081905550600060076000611250613cec565b73ffffffffffffffffffffffffffffffffffffffff1673ffffffffffffffffffffffffffffffffffffffff16815260200190815260200160002060010160006101000a81548160ff0219169083151502179055505b60026006600085815260200190815260200160002060000160146101000a81548160ff021916908360038111156112df576112de6143a6565b5b02179055505b50505050565b6002808111156112fe576112fd6143a6565b5b600060149054906101000a900460ff1660028111156113205761131f6143a6565b5b14611360576040517f08c379a000000000000000000000000000000000000000000000000000000000815260040161135790614e95565b60405180910390fd5b60008060146101000a81548160ff02191690836002811115611385576113846143a6565b5b0217905550600060095490505b60055481101561142d5760006004600083815260200190815260200160002060020160006101000a81548160ff021916908360038111156113d6576113d56143a6565b5b021790555060006006600083815260200190815260200160002060000160146101000a81548160ff02191690836003811115611415576114146143a6565b5b0217905550808061142590614eb5565b915050611392565b506000600954146114525760016009546114479190614efd565b60058190555061145b565b60006005819055505b6000600981905550565b7f000000000000000000000000000000000000000000000000000000000000000081565b60076020528060005260406000206000915090508060000154908060010160009054906101000a900460ff16905082565b600060028111156114ce576114cd6143a6565b5b600060149054906101000a900460ff1660028111156114f0576114ef6143a6565b5b14611530576040517f08c379a000000000000000000000000000000000000000000000000000000000815260040161152790614fa3565b60405180910390fd5b60006004600087815260200190815260200160002060405180608001604052908160008201548152602001600182015481526020016002820160009054906101000a900460ff166003811115611589576115886143a6565b5b600381111561159b5761159a6143a6565b5b81526020016002820160019054906101000a900473ffffffffffffffffffffffffffffffffffffffff1673ffffffffffffffffffffffffffffffffffffffff1673ffffffffffffffffffffffffffffffffffffffff168152505090507f00000000000000000000000000000000000000000000000000000000000000003414611659576040517f08c379a000000000000000000000000000000000000000000000000000000000815260040161165090615035565b60405180910390fd5b6001600381111561166d5761166c6143a6565b5b81604001516003811115611684576116836143a6565b5b146116c4576040517f08c379a00000000000000000000000000000000000000000000000000000000081526004016116bb906150c7565b60405180910390fd5b4261384082602001516116d79190614def565b10611717576040517f08c379a000000000000000000000000000000000000000000000000000000000815260040161170e90615159565b60405180910390fd5b6001600481111561172b5761172a6143a6565b5b60016000836060015173ffffffffffffffffffffffffffffffffffffffff1673ffffffffffffffffffffffffffffffffffffffff16815260200190815260200160002060000160009054906101000a900460ff166004811115611791576117906143a6565b5b146117d1576040517f08c379a00000000000000000000000000000000000000000000000000000000081526004016117c8906151eb565b60405180910390fd5b6117e2848483600001518886613cf4565b611821576040517f08c379a00000000000000000000000000000000000000000000000000000000081526004016118189061527d565b60405180910390fd5b611829613cec565b73ffffffffffffffffffffffffffffffffffffffff168560400160208101906118529190614529565b73ffffffffffffffffffffffffffffffffffffffff16146118a8576040517f08c379a000000000000000000000000000000000000000000000000000000000815260040161189f9061530f565b60405180910390fd5b600b60008260000151815260200190815260200160002060008660600160208101906118d49190614529565b73ffffffffffffffffffffffffffffffffffffffff1673ffffffffffffffffffffffffffffffffffffffff16815260200190815260200160002060008660000135815260200190815260200160002060009054906101000a900460ff1615611971576040517f08c379a0000000000000000000000000000000000000000000000000000000008152600401611968906153a1565b60405180910390fd5b6001600b600083600001518152602001908152602001600020600087606001602081019061199f9190614529565b73ffffffffffffffffffffffffffffffffffffffff1673ffffffffffffffffffffffffffffffffffffffff16815260200190815260200160002060008760000135815260200190815260200160002060006101000a81548160ff0219169083151502179055506000816060015173ffffffffffffffffffffffffffffffffffffffff167f0000000000000000000000000000000000000000000000000000000000000000604051611a4f906153f2565b60006040518083038185875af1925050503d8060008114611a8c576040519150601f19603f3d011682016040523d82523d6000602084013e611a91565b606091505b5050905080611ad5576040517f08c379a0000000000000000000000000000000000000000000000000000000008152600401611acc90615453565b60405180910390fd5b600a60009054906101000a900473ffffffffffffffffffffffffffffffffffffffff1673ffffffffffffffffffffffffffffffffffffffff1663ffd21f25876080016020810190611b269190614529565b6040518263ffffffff1660e01b8152600401611b429190614363565b602060405180830381865afa158015611b5f573d6000803e3d6000fd5b505050506040513d601f19601f82011682018060405250810190611b839190615488565b73ffffffffffffffffffffffffffffffffffffffff166342842e0e30886040016020810190611bb29190614529565b89600001356040518463ffffffff1660e01b8152600401611bd5939291906154b5565b600060405180830381600087803b158015611bef57600080fd5b505af1158015611c03573d6000803e3d6000fd5b5050505050505050505050565b60095481565b600c8181548110611c2657600080fd5b906000526020600020016000915090505481565b7f000000000000000000000000000000000000000000000000000000000000000081565b60016020528060005260406000206000915090508060000160009054906101000a900460ff169080600101549080600201549080600301604051806020016040529081600082015481525050905084565b60006002811115611cc357611cc26143a6565b5b600060149054906101000a900460ff166002811115611ce557611ce46143a6565b5b14611d25576040517f08c379a0000000000000000000000000000000000000000000000000000000008152600401611d1c90614fa3565b60405180910390fd5b600060076000611d33613cec565b73ffffffffffffffffffffffffffffffffffffffff1673ffffffffffffffffffffffffffffffffffffffff1681526020019081526020016000206000015403611db1576040517f08c379a0000000000000000000000000000000000000000000000000000000008152600401611da890615538565b60405180910390fd5b60076000611dbd613cec565b73ffffffffffffffffffffffffffffffffffffffff1673ffffffffffffffffffffffffffffffffffffffff16815260200190815260200160002060010160009054906101000a900460ff1615611e48576040517f08c379a0000000000000000000000000000000000000000000000000000000008152600401611e3f906155ca565b60405180910390fd5b600160076000611e56613cec565b73ffffffffffffffffffffffffffffffffffffffff1673ffffffffffffffffffffffffffffffffffffffff16815260200190815260200160002060010160006101000a81548160ff0219169083151502179055506000611eb4613cec565b73ffffffffffffffffffffffffffffffffffffffff1660076000611ed6613cec565b73ffffffffffffffffffffffffffffffffffffffff1673ffffffffffffffffffffffffffffffffffffffff16815260200190815260200160002060000154604051611f20906153f2565b60006040518083038185875af1925050503d8060008114611f5d576040519150601f19603f3d011682016040523d82523d6000602084013e611f62565b606091505b5050905080611fa6576040517f08c379a0000000000000000000000000000000000000000000000000000000008152600401611f9d90615453565b60405180910390fd5b600060076000611fb4613cec565b73ffffffffffffffffffffffffffffffffffffffff1673ffffffffffffffffffffffffffffffffffffffff1681526020019081526020016000206000018190555050565b6000600281111561200c5761200b6143a6565b5b600060149054906101000a900460ff16600281111561202e5761202d6143a6565b5b1461206e576040517f08c379a000000000000000000000000000000000000000000000000000000000815260040161206590614fa3565b60405180910390fd5b6001600061207a613cec565b73ffffffffffffffffffffffffffffffffffffffff1673ffffffffffffffffffffffffffffffffffffffff16815260200190815260200160002060000160009054906101000a900460ff1660048111156120d7576120d66143a6565b5b600160048111156120eb576120ea6143a6565b5b1461212b576040517f08c379a00000000000000000000000000000000000000000000000000000000081526004016121229061565c565b60405180910390fd5b604051806080016040528082815260200142815260200160016003811115612156576121556143a6565b5b8152602001612163613cec565b73ffffffffffffffffffffffffffffffffffffffff16815250600460006005548152602001908152602001600020600082015181600001556020820151816001015560408201518160020160006101000a81548160ff021916908360038111156121d0576121cf6143a6565b5b021790555060608201518160020160016101000a81548173ffffffffffffffffffffffffffffffffffffffff021916908373ffffffffffffffffffffffffffffffffffffffff1602179055509050506005600081548092919061223290614eb5565b919050555050565b6000600c6001600c805490506122509190614efd565b815481106122615761226061567c565b5b9060005260206000200154905090565b7f000000000000000000000000000000000000000000000000000000000000000081565b61229d613e43565b6122a76000613ec1565b565b8073ffffffffffffffffffffffffffffffffffffffff166342842e0e3330856040518463ffffffff1660e01b81526004016122e6939291906154b5565b600060405180830381600087803b15801561230057600080fd5b505af1158015612314573d6000803e3d6000fd5b5050505060026000612326600361393c565b81526020019081526020016000206000016040518060a00160405280848152602001612350613cec565b73ffffffffffffffffffffffffffffffffffffffff1681526020018573ffffffffffffffffffffffffffffffffffffffff1681526020018373ffffffffffffffffffffffffffffffffffffffff168152602001600a60009054906101000a900473ffffffffffffffffffffffffffffffffffffffff1673ffffffffffffffffffffffffffffffffffffffff16631d1c2af4856040518263ffffffff1660e01b81526004016123fe9190614363565b602060405180830381865afa15801561241b573d6000803e3d6000fd5b505050506040513d601f19601f8201168201806040525081019061243f9190615488565b73ffffffffffffffffffffffffffffffffffffffff1681525090806001815401808255809150506001900390600052602060002090600502016000909190919091506000820151816000015560208201518160010160006101000a81548173ffffffffffffffffffffffffffffffffffffffff021916908373ffffffffffffffffffffffffffffffffffffffff16021790555060408201518160020160006101000a81548173ffffffffffffffffffffffffffffffffffffffff021916908373ffffffffffffffffffffffffffffffffffffffff16021790555060608201518160030160006101000a81548173ffffffffffffffffffffffffffffffffffffffff021916908373ffffffffffffffffffffffffffffffffffffffff16021790555060808201518160040160006101000a81548173ffffffffffffffffffffffffffffffffffffffff021916908373ffffffffffffffffffffffffffffffffffffffff16021790555050507f0000000000000000000000000000000000000000000000000000000000000000600260006125d8600361393c565b815260200190815260200160002060000180549050036125fd576125fc6003613f85565b5b505050565b60006002811115612616576126156143a6565b5b600060149054906101000a900460ff166002811115612638576126376143a6565b5b14612678576040517f08c379a000000000000000000000000000000000000000000000000000000000815260040161266f90614fa3565b60405180910390fd5b60016000612684613cec565b73ffffffffffffffffffffffffffffffffffffffff1673ffffffffffffffffffffffffffffffffffffffff16815260200190815260200160002060000160009054906101000a900460ff1660048111156126e1576126e06143a6565b5b600260048111156126f5576126f46143a6565b5b14612735576040517f08c379a000000000000000000000000000000000000000000000000000000000815260040161272c9061571d565b60405180910390fd5b7f000000000000000000000000000000000000000000000000000000000000000060016000612762613cec565b73ffffffffffffffffffffffffffffffffffffffff1673ffffffffffffffffffffffffffffffffffffffff168152602001908152602001600020600101546127aa9190614def565b42116127eb576040517f08c379a00000000000000000000000000000000000000000000000000000000081526004016127e2906157af565b60405180910390fd5b60006127f5613cec565b73ffffffffffffffffffffffffffffffffffffffff167f0000000000000000000000000000000000000000000000000000000000000000604051612838906153f2565b60006040518083038185875af1925050503d8060008114612875576040519150601f19603f3d011682016040523d82523d6000602084013e61287a565b606091505b50509050806128be576040517f08c379a00000000000000000000000000000000000000000000000000000000081526004016128b590615453565b60405180910390fd5b6000600160006128cc613cec565b73ffffffffffffffffffffffffffffffffffffffff1673ffffffffffffffffffffffffffffffffffffffff16815260200190815260200160002060000160006101000a81548160ff0219169083600481111561292b5761292a6143a6565b5b021790555050565b612b0960026000838152602001908152602001600020600001805480602002602001604051908101604052809291908181526020016000905b82821015612b0057838290600052602060002090600502016040518060a0016040529081600082015481526020016001820160009054906101000a900473ffffffffffffffffffffffffffffffffffffffff1673ffffffffffffffffffffffffffffffffffffffff1673ffffffffffffffffffffffffffffffffffffffff1681526020016002820160009054906101000a900473ffffffffffffffffffffffffffffffffffffffff1673ffffffffffffffffffffffffffffffffffffffff1673ffffffffffffffffffffffffffffffffffffffff1681526020016003820160009054906101000a900473ffffffffffffffffffffffffffffffffffffffff1673ffffffffffffffffffffffffffffffffffffffff1673ffffffffffffffffffffffffffffffffffffffff1681526020016004820160009054906101000a900473ffffffffffffffffffffffffffffffffffffffff1673ffffffffffffffffffffffffffffffffffffffff1673ffffffffffffffffffffffffffffffffffffffff16815250508152602001906001019061296c565b505050506136c6565b50565b60008060009054906101000a900473ffffffffffffffffffffffffffffffffffffffff16905090565b7f000000000000000000000000000000000000000000000000000000000000000081565b60006002811115612b6d57612b6c6143a6565b5b600060149054906101000a900460ff166002811115612b8f57612b8e6143a6565b5b14612bcf576040517f08c379a0000000000000000000000000000000000000000000000000000000008152600401612bc690614fa3565b60405180910390fd5b60016000612bdb613cec565b73ffffffffffffffffffffffffffffffffffffffff1673ffffffffffffffffffffffffffffffffffffffff16815260200190815260200160002060000160009054906101000a900460ff166004811115612c3857612c376143a6565b5b60006004811115612c4c57612c4b6143a6565b5b14612c8c576040517f08c379a0000000000000000000000000000000000000000000000000000000008152600401612c8390615841565b60405180910390fd5b7f00000000000000000000000000000000000000000000000000000000000000003414612cee576040517f08c379a0000000000000000000000000000000000000000000000000000000008152600401612ce5906158d3565b60405180910390fd5b6001806000612cfb613cec565b73ffffffffffffffffffffffffffffffffffffffff1673ffffffffffffffffffffffffffffffffffffffff16815260200190815260200160002060000160006101000a81548160ff02191690836004811115612d5a57612d596143a6565b5b02179055503460016000612d6c613cec565b73ffffffffffffffffffffffffffffffffffffffff1673ffffffffffffffffffffffffffffffffffffffff16815260200190815260200160002060020181905550565b60066020528060005260406000206000915090508060000160009054906101000a900473ffffffffffffffffffffffffffffffffffffffff16908060000160149054906101000a900460ff16905082565b60088060000154905081565b612e14613f9b565b600260008481526020019081526020016000206000018281548110612e3c57612e3b61567c565b5b90600052602060002090600502016040518060a0016040529081600082015481526020016001820160009054906101000a900473ffffffffffffffffffffffffffffffffffffffff1673ffffffffffffffffffffffffffffffffffffffff1673ffffffffffffffffffffffffffffffffffffffff1681526020016002820160009054906101000a900473ffffffffffffffffffffffffffffffffffffffff1673ffffffffffffffffffffffffffffffffffffffff1673ffffffffffffffffffffffffffffffffffffffff1681526020016003820160009054906101000a900473ffffffffffffffffffffffffffffffffffffffff1673ffffffffffffffffffffffffffffffffffffffff1673ffffffffffffffffffffffffffffffffffffffff1681526020016004820160009054906101000a900473ffffffffffffffffffffffffffffffffffffffff1673ffffffffffffffffffffffffffffffffffffffff1673ffffffffffffffffffffffffffffffffffffffff1681525050905092915050565b60038060000154905081565b60006002811115612fdf57612fde6143a6565b5b600060149054906101000a900460ff166002811115613001576130006143a6565b5b14613041576040517f08c379a000000000000000000000000000000000000000000000000000000000815260040161303890614fa3565b60405180910390fd5b6001600061304d613cec565b73ffffffffffffffffffffffffffffffffffffffff1673ffffffffffffffffffffffffffffffffffffffff16815260200190815260200160002060000160009054906101000a900460ff1660048111156130aa576130a96143a6565b5b600160048111156130be576130bd6143a6565b5b146130fe576040517f08c379a00000000000000000000000000000000000000000000000000000000081526004016130f59061565c565b60405180910390fd5b60026001600061310c613cec565b73ffffffffffffffffffffffffffffffffffffffff1673ffffffffffffffffffffffffffffffffffffffff16815260200190815260200160002060000160006101000a81548160ff0219169083600481111561316b5761316a6143a6565b5b0217905550426001600061317d613cec565b73ffffffffffffffffffffffffffffffffffffffff1673ffffffffffffffffffffffffffffffffffffffff16815260200190815260200160002060010181905550565b7f00000000000000000000000000000000000000000000000000000000000000003414613222576040517f08c379a000000000000000000000000000000000000000000000000000000000815260040161321990615965565b60405180910390fd5b60016003811115613236576132356143a6565b5b6004600083815260200190815260200160002060020160009054906101000a900460ff16600381111561326c5761326b6143a6565b5b146132ac576040517f08c379a00000000000000000000000000000000000000000000000000000000081526004016132a3906159f7565b60405180910390fd5b4261384060046000848152602001908152602001600020600101546132d19190614def565b11613311576040517f08c379a000000000000000000000000000000000000000000000000000000000815260040161330890615a89565b60405180910390fd5b60006003811115613325576133246143a6565b5b6006600083815260200190815260200160002060000160149054906101000a900460ff16600381111561335b5761335a6143a6565b5b1461339b576040517f08c379a000000000000000000000000000000000000000000000000000000000815260040161339290615b1b565b60405180910390fd5b6002808111156133ae576133ad6143a6565b5b600060149054906101000a900460ff1660028111156133d0576133cf6143a6565b5b03613410576040517f08c379a000000000000000000000000000000000000000000000000000000000815260040161340790615bad565b60405180910390fd5b6001600060146101000a81548160ff02191690836002811115613436576134356143a6565b5b02179055506134456008613f85565b60026004600083815260200190815260200160002060020160006101000a81548160ff0219169083600381111561347f5761347e6143a6565b5b021790555061348c613cec565b6006600083815260200190815260200160002060000160006101000a81548173ffffffffffffffffffffffffffffffffffffffff021916908373ffffffffffffffffffffffffffffffffffffffff16021790555060016006600083815260200190815260200160002060000160146101000a81548160ff0219169083600381111561351a576135196143a6565b5b021790555061359f600160006004600085815260200190815260200160002060020160019054906101000a900473ffffffffffffffffffffffffffffffffffffffff1673ffffffffffffffffffffffffffffffffffffffff1673ffffffffffffffffffffffffffffffffffffffff168152602001908152602001600020600301613f85565b6003600160006004600085815260200190815260200160002060020160019054906101000a900473ffffffffffffffffffffffffffffffffffffffff1673ffffffffffffffffffffffffffffffffffffffff1673ffffffffffffffffffffffffffffffffffffffff16815260200190815260200160002060000160006101000a81548160ff0219169083600481111561363b5761363a6143a6565b5b021790555050565b61364b613e43565b600073ffffffffffffffffffffffffffffffffffffffff168173ffffffffffffffffffffffffffffffffffffffff16036136ba576040517f08c379a00000000000000000000000000000000000000000000000000000000081526004016136b190615c3f565b60405180910390fd5b6136c381613ec1565b50565b600c60006136d49190614022565b60005b81518110156137e057600c8282815181106136f5576136f461567c565b5b6020026020010151600001518383815181106137145761371361567c565b5b6020026020010151602001518484815181106137335761373261567c565b5b6020026020010151604001518585815181106137525761375161567c565b5b6020026020010151606001518686815181106137715761377061567c565b5b602002602001015160800151604051602001613791959493929190615c5f565b60405160208183030381529060405280519060200120908060018154018082558091505060019003906000526020600020016000909190919091505580806137d890614eb5565b9150506136d7565b5060008151905060005b60008211156138ef5760005b6001836138039190614efd565b8110156138cc57600c8082846138199190614def565b8154811061382a5761382961567c565b5b9060005260206000200154600c600184866138459190614def565b61384f9190614def565b815481106138605761385f61567c565b5b906000526020600020015460405160200161387c929190615cd3565b6040516020818303038152906040528051906020012090806001815401808255809150506001900390600052602060002001600090919091909150556002816138c59190614def565b90506137f6565b5081816138d99190614def565b90506002826138e89190614dbe565b91506137ea565b505050565b7f000000000000000000000000000000000000000000000000000000000000000081565b7f000000000000000000000000000000000000000000000000000000000000000081565b600081600001549050919050565b600080825167ffffffffffffffff81111561396857613967614150565b5b6040519080825280602002602001820160405280156139965781602001602082028036833780820191505090505b5090506000805b8451811015613aaf578481815181106139b9576139b861567c565b5b6020026020010151600001518582815181106139d8576139d761567c565b5b6020026020010151602001518683815181106139f7576139f661567c565b5b602002602001015160400151878481518110613a1657613a1561567c565b5b602002602001015160600151888581518110613a3557613a3461567c565b5b602002602001015160800151604051602001613a55959493929190615c5f565b60405160208183030381529060405280519060200120838380613a7790615d0f565b945063ffffffff1681518110613a9057613a8f61567c565b5b6020026020010181815250508080613aa790614eb5565b91505061399d565b5060008451905060005b6000821115613bc05760005b600183613ad29190614efd565b811015613b9d57848183613ae69190614def565b81518110613af757613af661567c565b5b60200260200101518560018385613b0e9190614def565b613b189190614def565b81518110613b2957613b2861567c565b5b6020026020010151604051602001613b42929190615cd3565b60405160208183030381529060405280519060200120858580613b6490615d0f565b965063ffffffff1681518110613b7d57613b7c61567c565b5b602002602001018181525050600281613b969190614def565b9050613ac5565b508181613baa9190614def565b9050600282613bb99190614dbe565b9150613ab9565b8360018551613bcf9190614efd565b81518110613be057613bdf61567c565b5b6020026020010151945050505050919050565b7f000000000000000000000000000000000000000000000000000000000000000073ffffffffffffffffffffffffffffffffffffffff16634ff746f6826040518263ffffffff1660e01b8152600401613c4c9190615dba565b600060405180830381600087803b158015613c6657600080fd5b505af1158015613c7a573d6000803e3d6000fd5b5050505050565b6000613c8b613cec565b905090565b60008160000154905060008111613cdc576040517f08c379a0000000000000000000000000000000000000000000000000000000008152600401613cd390615e28565b60405180910390fd5b6001810382600001819055505050565b600033905090565b6000808360000135846020016020810190613d0f9190614529565b856040016020810190613d229190614529565b866060016020810190613d359190614529565b876080016020810190613d489190614529565b604051602001613d5c959493929190615c5f565b60405160208183030381529060405280519060200120905060005b87879050811015613e33576000888883818110613d9757613d9661567c565b5b9050602002013590506000600286613daf9190615e48565b03613de4578281604051602001613dc7929190615cd3565b604051602081830303815290604052805190602001209250613e10565b8083604051602001613df7929190615cd3565b6040516020818303038152906040528051906020012092505b600285613e1d9190614dbe565b9450508080613e2b90614eb5565b915050613d77565b5084811491505095945050505050565b613e4b613cec565b73ffffffffffffffffffffffffffffffffffffffff16613e69612b0c565b73ffffffffffffffffffffffffffffffffffffffff1614613ebf576040517f08c379a0000000000000000000000000000000000000000000000000000000008152600401613eb690615ec5565b60405180910390fd5b565b60008060009054906101000a900473ffffffffffffffffffffffffffffffffffffffff169050816000806101000a81548173ffffffffffffffffffffffffffffffffffffffff021916908373ffffffffffffffffffffffffffffffffffffffff1602179055508173ffffffffffffffffffffffffffffffffffffffff168173ffffffffffffffffffffffffffffffffffffffff167f8be0079c531659141344cd1fd0a4f28419497f9722a3daafe3b4186f6b6457e060405160405180910390a35050565b6001816000016000828254019250508190555050565b6040518060a0016040528060008152602001600073ffffffffffffffffffffffffffffffffffffffff168152602001600073ffffffffffffffffffffffffffffffffffffffff168152602001600073ffffffffffffffffffffffffffffffffffffffff168152602001600073ffffffffffffffffffffffffffffffffffffffff1681525090565b50805460008255906000526020600020908101906140409190614043565b50565b5b8082111561405c576000816000905550600101614044565b5090565b6000604051905090565b600080fd5b600080fd5b6000819050919050565b61408781614074565b811461409257600080fd5b50565b6000813590506140a48161407e565b92915050565b6000602082840312156140c0576140bf61406a565b5b60006140ce84828501614095565b91505092915050565b600073ffffffffffffffffffffffffffffffffffffffff82169050919050565b6000614102826140d7565b9050919050565b614112816140f7565b811461411d57600080fd5b50565b60008135905061412f81614109565b92915050565b600080fd5b600080fd5b6000601f19601f8301169050919050565b7f4e487b7100000000000000000000000000000000000000000000000000000000600052604160045260246000fd5b6141888261413f565b810181811067ffffffffffffffff821117156141a7576141a6614150565b5b80604052505050565b60006141ba614060565b90506141c6828261417f565b919050565b600067ffffffffffffffff8211156141e6576141e5614150565b5b6141ef8261413f565b9050602081019050919050565b82818337600083830152505050565b600061421e614219846141cb565b6141b0565b90508281526020810184848401111561423a5761423961413a565b5b6142458482856141fc565b509392505050565b600082601f83011261426257614261614135565b5b813561427284826020860161420b565b91505092915050565b600080600080608085870312156142955761429461406a565b5b60006142a387828801614120565b94505060206142b487828801614120565b93505060406142c587828801614095565b925050606085013567ffffffffffffffff8111156142e6576142e561406f565b5b6142f28782880161424d565b91505092959194509250565b60007fffffffff0000000000000000000000000000000000000000000000000000000082169050919050565b614333816142fe565b82525050565b600060208201905061434e600083018461432a565b92915050565b61435d816140f7565b82525050565b60006020820190506143786000830184614354565b92915050565b6000819050919050565b6143918161437e565b82525050565b6143a081614074565b82525050565b7f4e487b7100000000000000000000000000000000000000000000000000000000600052602160045260246000fd5b600481106143e6576143e56143a6565b5b50565b60008190506143f7826143d5565b919050565b6000614407826143e9565b9050919050565b614417816143fc565b82525050565b60006080820190506144326000830187614388565b61443f6020830186614397565b61444c604083018561440e565b6144596060830184614354565b95945050505050565b60038110614473576144726143a6565b5b50565b600081905061448482614462565b919050565b600061449482614476565b9050919050565b6144a481614489565b82525050565b60006020820190506144bf600083018461449b565b92915050565b6000602082840312156144db576144da61406a565b5b600082013567ffffffffffffffff8111156144f9576144f861406f565b5b6145058482850161424d565b91505092915050565b60006020820190506145236000830184614397565b92915050565b60006020828403121561453f5761453e61406a565b5b600061454d84828501614120565b91505092915050565b60008115159050919050565b61456b81614556565b82525050565b60006040820190506145866000830185614397565b6145936020830184614562565b9392505050565b600080fd5b600060a082840312156145b5576145b461459a565b5b81905092915050565b600080fd5b600080fd5b60008083601f8401126145de576145dd614135565b5b8235905067ffffffffffffffff8111156145fb576145fa6145be565b5b602083019150836020820283011115614617576146166145c3565b5b9250929050565b6000806000806000610100868803121561463b5761463a61406a565b5b600061464988828901614095565b955050602061465a8882890161459f565b94505060c086013567ffffffffffffffff81111561467b5761467a61406f565b5b614687888289016145c8565b935093505060e061469a88828901614095565b9150509295509295909350565b60006020820190506146bc6000830184614388565b92915050565b600581106146d3576146d26143a6565b5b50565b60008190506146e4826146c2565b919050565b60006146f4826146d6565b9050919050565b614704816146e9565b82525050565b61471381614074565b82525050565b60208201600082015161472f600085018261470a565b50505050565b600060808201905061474a60008301876146fb565b6147576020830186614397565b6147646040830185614397565b6147716060830184614719565b95945050505050565b6147838161437e565b811461478e57600080fd5b50565b6000813590506147a08161477a565b92915050565b6000602082840312156147bc576147bb61406a565b5b60006147ca84828501614791565b91505092915050565b6000806000606084860312156147ec576147eb61406a565b5b60006147fa86828701614120565b935050602061480b86828701614095565b925050604061481c86828701614120565b9150509250925092565b60048110614837576148366143a6565b5b50565b600081905061484882614826565b919050565b60006148588261483a565b9050919050565b6148688161484d565b82525050565b60006040820190506148836000830185614354565b614890602083018461485f565b9392505050565b600080604083850312156148ae576148ad61406a565b5b60006148bc85828601614095565b92505060206148cd85828601614095565b9150509250929050565b6148e0816140f7565b82525050565b60a0820160008201516148fc600085018261470a565b50602082015161490f60208501826148d7565b50604082015161492260408501826148d7565b50606082015161493560608501826148d7565b50608082015161494860808501826148d7565b50505050565b600060a08201905061496360008301846148e6565b92915050565b600067ffffffffffffffff82111561498457614983614150565b5b602082029050602081019050919050565b600080fd5b600060a082840312156149b0576149af614995565b5b6149ba60a06141b0565b905060006149ca84828501614095565b60008301525060206149de84828501614120565b60208301525060406149f284828501614120565b6040830152506060614a0684828501614120565b6060830152506080614a1a84828501614120565b60808301525092915050565b6000614a39614a3484614969565b6141b0565b90508083825260208201905060a08402830185811115614a5c57614a5b6145c3565b5b835b81811015614a855780614a71888261499a565b84526020840193505060a081019050614a5e565b5050509392505050565b600082601f830112614aa457614aa3614135565b5b8135614ab4848260208601614a26565b91505092915050565b600060208284031215614ad357614ad261406a565b5b600082013567ffffffffffffffff811115614af157614af061406f565b5b614afd84828501614a8f565b91505092915050565b6000604082019050614b1b6000830185614397565b614b286020830184614388565b9392505050565b600082825260208201905092915050565b7f53706f6b654272696467653a2063616c6c6572206973206e6f7420746865206860008201527f7562210000000000000000000000000000000000000000000000000000000000602082015250565b6000614b9c602383614b2f565b9150614ba782614b40565b604082019050919050565b60006020820190508181036000830152614bcb81614b8f565b9050919050565b7f53706f6b654272696467653a206272696465207374617475732069732061637460008201527f6976652100000000000000000000000000000000000000000000000000000000602082015250565b6000614c2e602483614b2f565b9150614c3982614bd2565b604082019050919050565b60006020820190508181036000830152614c5d81614c21565b9050919050565b600081519050614c738161407e565b92915050565b600081519050614c888161477a565b92915050565b60008060408385031215614ca557614ca461406a565b5b6000614cb385828601614c64565b9250506020614cc485828601614c79565b9150509250929050565b7f53706f6b654272696467653a20696e636f6d696e6720626c6f636b206861732060008201527f6e6f206368616c6c656e67656420737461747573210000000000000000000000602082015250565b6000614d2a603583614b2f565b9150614d3582614cce565b604082019050919050565b60006020820190508181036000830152614d5981614d1d565b9050919050565b7f4e487b7100000000000000000000000000000000000000000000000000000000600052601260045260246000fd5b7f4e487b7100000000000000000000000000000000000000000000000000000000600052601160045260246000fd5b6000614dc982614074565b9150614dd483614074565b925082614de457614de3614d60565b5b828204905092915050565b6000614dfa82614074565b9150614e0583614074565b9250828201905080821115614e1d57614e1c614d8f565b5b92915050565b7f53706f6b654272696467653a20627269646765206973206e6f7420706175736560008201527f6421000000000000000000000000000000000000000000000000000000000000602082015250565b6000614e7f602283614b2f565b9150614e8a82614e23565b604082019050919050565b60006020820190508181036000830152614eae81614e72565b9050919050565b6000614ec082614074565b91507fffffffffffffffffffffffffffffffffffffffffffffffffffffffffffffffff8203614ef257614ef1614d8f565b5b600182019050919050565b6000614f0882614074565b9150614f1383614074565b9250828203905081811115614f2b57614f2a614d8f565b5b92915050565b7f53706f6b654272696467653a20627269646765206973206e6f7420616374697660008201527f6521000000000000000000000000000000000000000000000000000000000000602082015250565b6000614f8d602283614b2f565b9150614f9882614f31565b604082019050919050565b60006020820190508181036000830152614fbc81614f80565b9050919050565b7f53726353706f6b654272696467653a207468657265206973206e6f20656e6f7560008201527f67682066656520666f722072656c617965727321000000000000000000000000602082015250565b600061501f603483614b2f565b915061502a82614fc3565b604082019050919050565b6000602082019050818103600083015261504e81615012565b9050919050565b7f53726353706f6b6542726964653a20696e636f6d696e6720626c6f636b20686160008201527f73206e6f2052656c617965642073746174652100000000000000000000000000602082015250565b60006150b1603383614b2f565b91506150bc82615055565b604082019050919050565b600060208201905081810360008301526150e0816150a4565b9050919050565b7f53726353706f6b654272696467653a20746865206368616c6c656e67696e672060008201527f706572696f64206973206e6f7420657870697265642079657421000000000000602082015250565b6000615143603a83614b2f565b915061514e826150e7565b604082019050919050565b6000602082019050818103600083015261517281615136565b9050919050565b7f53726353706f6b654272696467653a207468652072656c61796572206861732060008201527f6e6f206163746976652073746174757300000000000000000000000000000000602082015250565b60006151d5603083614b2f565b91506151e082615179565b604082019050919050565b60006020820190508181036000830152615204816151c8565b9050919050565b7f53726353706f6b654272696467653a2070726f6f66206973206e6f7420636f7260008201527f7265637420647572696e6720636c616d696e6721000000000000000000000000602082015250565b6000615267603483614b2f565b91506152728261520b565b604082019050919050565b600060208201905081810360008301526152968161525a565b9050919050565b7f53726353706f6b654272696467653a207265636569766572206973206e6f742060008201527f746865206d6573736167652073656e6465722100000000000000000000000000602082015250565b60006152f9603383614b2f565b91506153048261529d565b604082019050919050565b60006020820190508181036000830152615328816152ec565b9050919050565b7f53726353706f6b654272696467653a20746f6b656e20697320616c726561647960008201527f20636c61696d6564210000000000000000000000000000000000000000000000602082015250565b600061538b602983614b2f565b91506153968261532f565b604082019050919050565b600060208201905081810360008301526153ba8161537e565b9050919050565b600081905092915050565b50565b60006153dc6000836153c1565b91506153e7826153cc565b600082019050919050565b60006153fd826153cf565b9150819050919050565b7f4661696c656420746f2073656e64204574686572000000000000000000000000600082015250565b600061543d601483614b2f565b915061544882615407565b602082019050919050565b6000602082019050818103600083015261546c81615430565b9050919050565b60008151905061548281614109565b92915050565b60006020828403121561549e5761549d61406a565b5b60006154ac84828501615473565b91505092915050565b60006060820190506154ca6000830186614354565b6154d76020830185614354565b6154e46040830184614397565b949350505050565b7f53706f6b654272696467653a207468657265206973206e6f2072657761726421600082015250565b6000615522602083614b2f565b915061552d826154ec565b602082019050919050565b6000602082019050818103600083015261555181615515565b9050919050565b7f53706f6b654272696467653a2072657761726420697320616c7265616479206360008201527f6c61696d65642100000000000000000000000000000000000000000000000000602082015250565b60006155b4602783614b2f565b91506155bf82615558565b604082019050919050565b600060208201905081810360008301526155e3816155a7565b9050919050565b7f53706f6b654272696467653a2063616c6c6572206973206e6f7420612072656c60008201527f6179657221000000000000000000000000000000000000000000000000000000602082015250565b6000615646602583614b2f565b9150615651826155ea565b604082019050919050565b6000602082019050818103600083015261567581615639565b9050919050565b7f4e487b7100000000000000000000000000000000000000000000000000000000600052603260045260246000fd5b7f53706f6b654272696467653a2063616c6c6572206973206e6f7420696e20756e60008201527f6465706f73697465642073746174652100000000000000000000000000000000602082015250565b6000615707603083614b2f565b9150615712826156ab565b604082019050919050565b60006020820190508181036000830152615736816156fa565b9050919050565b7f53706f6b654272696467653a20322064617973206973206e6f7420657870697260008201527f65642066726f6d2074686520756e6465706f736974696e672100000000000000602082015250565b6000615799603983614b2f565b91506157a48261573d565b604082019050919050565b600060208201905081810360008301526157c88161578c565b9050919050565b7f53706f6b654272696467653a2063616c6c65722063616e6e6f7420626520612060008201527f72656c6179657221000000000000000000000000000000000000000000000000602082015250565b600061582b602883614b2f565b9150615836826157cf565b604082019050919050565b6000602082019050818103600083015261585a8161581e565b9050919050565b7f53706f6b654272696467653a206d73672e76616c7565206973206e6f7420617060008201527f70726f7072696174652100000000000000000000000000000000000000000000602082015250565b60006158bd602a83614b2f565b91506158c882615861565b604082019050919050565b600060208201905081810360008301526158ec816158b0565b9050919050565b7f53706f6b654272696467653a204e6f20656e6f75676820616d6f756e74206f6660008201527f2045544820746f207374616b6521000000000000000000000000000000000000602082015250565b600061594f602e83614b2f565b915061595a826158f3565b604082019050919050565b6000602082019050818103600083015261597e81615942565b9050919050565b7f53706f6b654272696467653a20436f72726573706f6e64696e6720696e636f6d60008201527f696e672062696420737461747573206973206e6f742072656c61796564210000602082015250565b60006159e1603e83614b2f565b91506159ec82615985565b604082019050919050565b60006020820190508181036000830152615a10816159d4565b9050919050565b7f53706f6b654272696467653a20546865206469737075746520706572696f642060008201527f6973206578706972656421000000000000000000000000000000000000000000602082015250565b6000615a73602b83614b2f565b9150615a7e82615a17565b604082019050919050565b60006020820190508181036000830152615aa281615a66565b9050919050565b7f53706f6b654272696467653a2062696420697320616c7265616479206368616c60008201527f6c656e6765642100000000000000000000000000000000000000000000000000602082015250565b6000615b05602783614b2f565b9150615b1082615aa9565b604082019050919050565b60006020820190508181036000830152615b3481615af8565b9050919050565b7f53706f6b654272696467653a2074686520737461747573206f6620746865206260008201527f7269646765206973207061757365642100000000000000000000000000000000602082015250565b6000615b97603083614b2f565b9150615ba282615b3b565b604082019050919050565b60006020820190508181036000830152615bc681615b8a565b9050919050565b7f4f776e61626c653a206e6577206f776e657220697320746865207a65726f206160008201527f6464726573730000000000000000000000000000000000000000000000000000602082015250565b6000615c29602683614b2f565b9150615c3482615bcd565b604082019050919050565b60006020820190508181036000830152615c5881615c1c565b9050919050565b600060a082019050615c746000830188614397565b615c816020830187614354565b615c8e6040830186614354565b615c9b6060830185614354565b615ca86080830184614354565b9695505050505050565b6000819050919050565b615ccd615cc88261437e565b615cb2565b82525050565b6000615cdf8285615cbc565b602082019150615cef8284615cbc565b6020820191508190509392505050565b600063ffffffff82169050919050565b6000615d1a82615cff565b915063ffffffff8203615d3057615d2f614d8f565b5b600182019050919050565b600081519050919050565b600082825260208201905092915050565b60005b83811015615d75578082015181840152602081019050615d5a565b60008484015250505050565b6000615d8c82615d3b565b615d968185615d46565b9350615da6818560208601615d57565b615daf8161413f565b840191505092915050565b60006020820190508181036000830152615dd48184615d81565b905092915050565b7f436f756e7465723a2064656372656d656e74206f766572666c6f770000000000600082015250565b6000615e12601b83614b2f565b9150615e1d82615ddc565b602082019050919050565b60006020820190508181036000830152615e4181615e05565b9050919050565b6000615e5382614074565b9150615e5e83614074565b925082615e6e57615e6d614d60565b5b828206905092915050565b7f4f776e61626c653a2063616c6c6572206973206e6f7420746865206f776e6572600082015250565b6000615eaf602083614b2f565b9150615eba82615e79565b602082019050919050565b60006020820190508181036000830152615ede81615ea2565b905091905056fea2646970667358221220a6b92602fb9783d5915545c7793eff5ed0de9dd1883db1da268509f3901dcff164736f6c63430008120033",
  "linkReferences": {},
  "deployedLinkReferences": {}
}