{
  "_format": "hh-sol-artifact-1",
  "contractName": "NFTBridge",
  "sourceName": "contracts/NFTBridge.sol",
  "abi": [
    {
      "inputs": [
        {
          "internalType": "address",
          "name": "_msgBus",
          "type": "address"
        }
      ],
      "stateMutability": "nonpayable",
      "type": "constructor"
    },
    {
      "anonymous": false,
      "inputs": [
        {
          "indexed": false,
          "internalType": "bytes",
          "name": "returnData",
          "type": "bytes"
        }
      ],
      "name": "ExtCallErr",
      "type": "event"
    },
    {
      "anonymous": false,
      "inputs": [
        {
          "indexed": false,
          "internalType": "uint256",
          "name": "amount",
          "type": "uint256"
        }
      ],
      "name": "FeeClaimed",
      "type": "event"
    },
    {
      "anonymous": false,
      "inputs": [
        {
          "indexed": false,
          "internalType": "address",
          "name": "messageBus",
          "type": "address"
        }
      ],
      "name": "MessageBusUpdated",
      "type": "event"
    },
    {
      "anonymous": false,
      "inputs": [
        {
          "indexed": true,
          "internalType": "address",
          "name": "previousOwner",
          "type": "address"
        },
        {
          "indexed": true,
          "internalType": "address",
          "name": "newOwner",
          "type": "address"
        }
      ],
      "name": "OwnershipTransferred",
      "type": "event"
    },
    {
      "anonymous": false,
      "inputs": [
        {
          "indexed": false,
          "internalType": "address",
          "name": "account",
          "type": "address"
        }
      ],
      "name": "Paused",
      "type": "event"
    },
    {
      "anonymous": false,
      "inputs": [
        {
          "indexed": false,
          "internalType": "address",
          "name": "account",
          "type": "address"
        }
      ],
      "name": "PauserAdded",
      "type": "event"
    },
    {
      "anonymous": false,
      "inputs": [
        {
          "indexed": false,
          "internalType": "address",
          "name": "account",
          "type": "address"
        }
      ],
      "name": "PauserRemoved",
      "type": "event"
    },
    {
      "anonymous": false,
      "inputs": [
        {
          "indexed": false,
          "internalType": "address",
          "name": "receiver",
          "type": "address"
        },
        {
          "indexed": false,
          "internalType": "address",
          "name": "nft",
          "type": "address"
        },
        {
          "indexed": false,
          "internalType": "uint256",
          "name": "id",
          "type": "uint256"
        },
        {
          "indexed": false,
          "internalType": "uint64",
          "name": "srcChid",
          "type": "uint64"
        }
      ],
      "name": "Received",
      "type": "event"
    },
    {
      "anonymous": false,
      "inputs": [
        {
          "indexed": false,
          "internalType": "address",
          "name": "sender",
          "type": "address"
        },
        {
          "indexed": false,
          "internalType": "address",
          "name": "srcNft",
          "type": "address"
        },
        {
          "indexed": false,
          "internalType": "uint256",
          "name": "id",
          "type": "uint256"
        },
        {
          "indexed": false,
          "internalType": "uint64",
          "name": "dstChid",
          "type": "uint64"
        },
        {
          "indexed": false,
          "internalType": "address",
          "name": "receiver",
          "type": "address"
        },
        {
          "indexed": false,
          "internalType": "address",
          "name": "dstNft",
          "type": "address"
        }
      ],
      "name": "Sent",
      "type": "event"
    },
    {
      "anonymous": false,
      "inputs": [
        {
          "indexed": false,
          "internalType": "uint64",
          "name": "dstChid",
          "type": "uint64"
        },
        {
          "indexed": false,
          "internalType": "address",
          "name": "dstNftBridge",
          "type": "address"
        }
      ],
      "name": "SetDestBridge",
      "type": "event"
    },
    {
      "anonymous": false,
      "inputs": [
        {
          "indexed": false,
          "internalType": "address",
          "name": "srcNft",
          "type": "address"
        },
        {
          "indexed": false,
          "internalType": "uint64",
          "name": "dstChid",
          "type": "uint64"
        },
        {
          "indexed": false,
          "internalType": "address",
          "name": "dstNft",
          "type": "address"
        }
      ],
      "name": "SetDestNFT",
      "type": "event"
    },
    {
      "anonymous": false,
      "inputs": [
        {
          "indexed": false,
          "internalType": "address",
          "name": "nft",
          "type": "address"
        },
        {
          "indexed": false,
          "internalType": "bool",
          "name": "isOrig",
          "type": "bool"
        }
      ],
      "name": "SetOrigNFT",
      "type": "event"
    },
    {
      "anonymous": false,
      "inputs": [
        {
          "indexed": false,
          "internalType": "uint64",
          "name": "chid",
          "type": "uint64"
        },
        {
          "indexed": false,
          "internalType": "uint256",
          "name": "fee",
          "type": "uint256"
        }
      ],
      "name": "SetTxFee",
      "type": "event"
    },
    {
      "anonymous": false,
      "inputs": [
        {
          "indexed": false,
          "internalType": "address",
          "name": "account",
          "type": "address"
        }
      ],
      "name": "Unpaused",
      "type": "event"
    },
    {
      "inputs": [
        {
          "internalType": "address",
          "name": "account",
          "type": "address"
        }
      ],
      "name": "addPauser",
      "outputs": [],
      "stateMutability": "nonpayable",
      "type": "function"
    },
    {
      "inputs": [],
      "name": "claimFee",
      "outputs": [],
      "stateMutability": "nonpayable",
      "type": "function"
    },
    {
      "inputs": [
        {
          "internalType": "address",
          "name": "_nft",
          "type": "address"
        }
      ],
      "name": "delOrigNFT",
      "outputs": [],
      "stateMutability": "nonpayable",
      "type": "function"
    },
    {
      "inputs": [
        {
          "internalType": "uint64",
          "name": "",
          "type": "uint64"
        }
      ],
      "name": "destBridge",
      "outputs": [
        {
          "internalType": "address",
          "name": "",
          "type": "address"
        }
      ],
      "stateMutability": "view",
      "type": "function"
    },
    {
      "inputs": [
        {
          "internalType": "address",
          "name": "",
          "type": "address"
        },
        {
          "internalType": "uint64",
          "name": "",
          "type": "uint64"
        }
      ],
      "name": "destNFTAddr",
      "outputs": [
        {
          "internalType": "address",
          "name": "",
          "type": "address"
        }
      ],
      "stateMutability": "view",
      "type": "function"
    },
    {
      "inputs": [
        {
          "internalType": "uint64",
          "name": "",
          "type": "uint64"
        }
      ],
      "name": "destTxFee",
      "outputs": [
        {
          "internalType": "uint256",
          "name": "",
          "type": "uint256"
        }
      ],
      "stateMutability": "view",
      "type": "function"
    },
    {
      "inputs": [
        {
          "internalType": "address",
          "name": "sender",
          "type": "address"
        },
        {
          "internalType": "uint64",
          "name": "srcChid",
          "type": "uint64"
        },
        {
          "internalType": "bytes",
          "name": "_message",
          "type": "bytes"
        },
        {
          "internalType": "address",
          "name": "",
          "type": "address"
        }
      ],
      "name": "executeMessage",
      "outputs": [
        {
          "internalType": "enum IMessageReceiverApp.ExecutionStatus",
          "name": "",
          "type": "uint8"
        }
      ],
      "stateMutability": "payable",
      "type": "function"
    },
    {
      "inputs": [
        {
          "internalType": "address",
          "name": "_sender",
          "type": "address"
        },
        {
          "internalType": "address",
          "name": "_token",
          "type": "address"
        },
        {
          "internalType": "uint256",
          "name": "_amount",
          "type": "uint256"
        },
        {
          "internalType": "uint64",
          "name": "_srcChainId",
          "type": "uint64"
        },
        {
          "internalType": "bytes",
          "name": "_message",
          "type": "bytes"
        },
        {
          "internalType": "address",
          "name": "_executor",
          "type": "address"
        }
      ],
      "name": "executeMessageWithTransfer",
      "outputs": [
        {
          "internalType": "enum IMessageReceiverApp.ExecutionStatus",
          "name": "",
          "type": "uint8"
        }
      ],
      "stateMutability": "payable",
      "type": "function"
    },
    {
      "inputs": [
        {
          "internalType": "address",
          "name": "_sender",
          "type": "address"
        },
        {
          "internalType": "address",
          "name": "_token",
          "type": "address"
        },
        {
          "internalType": "uint256",
          "name": "_amount",
          "type": "uint256"
        },
        {
          "internalType": "uint64",
          "name": "_srcChainId",
          "type": "uint64"
        },
        {
          "internalType": "bytes",
          "name": "_message",
          "type": "bytes"
        },
        {
          "internalType": "address",
          "name": "_executor",
          "type": "address"
        }
      ],
      "name": "executeMessageWithTransferFallback",
      "outputs": [
        {
          "internalType": "enum IMessageReceiverApp.ExecutionStatus",
          "name": "",
          "type": "uint8"
        }
      ],
      "stateMutability": "payable",
      "type": "function"
    },
    {
      "inputs": [
        {
          "internalType": "address",
          "name": "_token",
          "type": "address"
        },
        {
          "internalType": "uint256",
          "name": "_amount",
          "type": "uint256"
        },
        {
          "internalType": "bytes",
          "name": "_message",
          "type": "bytes"
        },
        {
          "internalType": "address",
          "name": "_executor",
          "type": "address"
        }
      ],
      "name": "executeMessageWithTransferRefund",
      "outputs": [
        {
          "internalType": "enum IMessageReceiverApp.ExecutionStatus",
          "name": "",
          "type": "uint8"
        }
      ],
      "stateMutability": "payable",
      "type": "function"
    },
    {
      "inputs": [
        {
          "internalType": "address",
          "name": "_msgBus",
          "type": "address"
        }
      ],
      "name": "init",
      "outputs": [],
      "stateMutability": "nonpayable",
      "type": "function"
    },
    {
      "inputs": [
        {
          "internalType": "address",
          "name": "account",
          "type": "address"
        }
      ],
      "name": "isPauser",
      "outputs": [
        {
          "internalType": "bool",
          "name": "",
          "type": "bool"
        }
      ],
      "stateMutability": "view",
      "type": "function"
    },
    {
      "inputs": [],
      "name": "messageBus",
      "outputs": [
        {
          "internalType": "address",
          "name": "",
          "type": "address"
        }
      ],
      "stateMutability": "view",
      "type": "function"
    },
    {
      "inputs": [
        {
          "internalType": "address",
          "name": "",
          "type": "address"
        }
      ],
      "name": "origNFT",
      "outputs": [
        {
          "internalType": "bool",
          "name": "",
          "type": "bool"
        }
      ],
      "stateMutability": "view",
      "type": "function"
    },
    {
      "inputs": [],
      "name": "owner",
      "outputs": [
        {
          "internalType": "address",
          "name": "",
          "type": "address"
        }
      ],
      "stateMutability": "view",
      "type": "function"
    },
    {
      "inputs": [],
      "name": "pause",
      "outputs": [],
      "stateMutability": "nonpayable",
      "type": "function"
    },
    {
      "inputs": [],
      "name": "paused",
      "outputs": [
        {
          "internalType": "bool",
          "name": "",
          "type": "bool"
        }
      ],
      "stateMutability": "view",
      "type": "function"
    },
    {
      "inputs": [
        {
          "internalType": "address",
          "name": "",
          "type": "address"
        }
      ],
      "name": "pausers",
      "outputs": [
        {
          "internalType": "bool",
          "name": "",
          "type": "bool"
        }
      ],
      "stateMutability": "view",
      "type": "function"
    },
    {
      "inputs": [
        {
          "internalType": "address",
          "name": "account",
          "type": "address"
        }
      ],
      "name": "removePauser",
      "outputs": [],
      "stateMutability": "nonpayable",
      "type": "function"
    },
    {
      "inputs": [],
      "name": "renouncePauser",
      "outputs": [],
      "stateMutability": "nonpayable",
      "type": "function"
    },
    {
      "inputs": [
        {
          "internalType": "uint64",
          "name": "_dstChid",
          "type": "uint64"
        },
        {
          "internalType": "address",
          "name": "_sender",
          "type": "address"
        },
        {
          "internalType": "address",
          "name": "_receiver",
          "type": "address"
        },
        {
          "internalType": "uint256",
          "name": "_id",
          "type": "uint256"
        },
        {
          "internalType": "string",
          "name": "_uri",
          "type": "string"
        }
      ],
      "name": "sendMsg",
      "outputs": [],
      "stateMutability": "payable",
      "type": "function"
    },
    {
      "inputs": [
        {
          "internalType": "address",
          "name": "_nft",
          "type": "address"
        },
        {
          "internalType": "uint256",
          "name": "_id",
          "type": "uint256"
        },
        {
          "internalType": "uint64",
          "name": "_dstChid",
          "type": "uint64"
        },
        {
          "internalType": "address",
          "name": "_receiver",
          "type": "address"
        }
      ],
      "name": "sendTo",
      "outputs": [],
      "stateMutability": "payable",
      "type": "function"
    },
    {
      "inputs": [
        {
          "internalType": "uint64",
          "name": "dstChid",
          "type": "uint64"
        },
        {
          "internalType": "address",
          "name": "dstNftBridge",
          "type": "address"
        }
      ],
      "name": "setDestBridge",
      "outputs": [],
      "stateMutability": "nonpayable",
      "type": "function"
    },
    {
      "inputs": [
        {
          "internalType": "uint64[]",
          "name": "dstChid",
          "type": "uint64[]"
        },
        {
          "internalType": "address[]",
          "name": "dstNftBridge",
          "type": "address[]"
        }
      ],
      "name": "setDestBridges",
      "outputs": [],
      "stateMutability": "nonpayable",
      "type": "function"
    },
    {
      "inputs": [
        {
          "internalType": "address",
          "name": "srcNft",
          "type": "address"
        },
        {
          "internalType": "uint64",
          "name": "dstChid",
          "type": "uint64"
        },
        {
          "internalType": "address",
          "name": "dstNft",
          "type": "address"
        }
      ],
      "name": "setDestNFT",
      "outputs": [],
      "stateMutability": "nonpayable",
      "type": "function"
    },
    {
      "inputs": [
        {
          "internalType": "address",
          "name": "srcNft",
          "type": "address"
        },
        {
          "internalType": "uint64[]",
          "name": "dstChid",
          "type": "uint64[]"
        },
        {
          "internalType": "address[]",
          "name": "dstNft",
          "type": "address[]"
        }
      ],
      "name": "setDestNFTs",
      "outputs": [],
      "stateMutability": "nonpayable",
      "type": "function"
    },
    {
      "inputs": [
        {
          "internalType": "address",
          "name": "_messageBus",
          "type": "address"
        }
      ],
      "name": "setMessageBus",
      "outputs": [],
      "stateMutability": "nonpayable",
      "type": "function"
    },
    {
      "inputs": [
        {
          "internalType": "address",
          "name": "_nft",
          "type": "address"
        }
      ],
      "name": "setOrigNFT",
      "outputs": [],
      "stateMutability": "nonpayable",
      "type": "function"
    },
    {
      "inputs": [
        {
          "internalType": "uint64",
          "name": "chid",
          "type": "uint64"
        },
        {
          "internalType": "uint256",
          "name": "fee",
          "type": "uint256"
        }
      ],
      "name": "setTxFee",
      "outputs": [],
      "stateMutability": "nonpayable",
      "type": "function"
    },
    {
      "inputs": [
        {
          "internalType": "uint64",
          "name": "_dstChid",
          "type": "uint64"
        },
        {
          "internalType": "address",
          "name": "_nft",
          "type": "address"
        },
        {
          "internalType": "uint256",
          "name": "_id",
          "type": "uint256"
        }
      ],
      "name": "totalFee",
      "outputs": [
        {
          "internalType": "uint256",
          "name": "",
          "type": "uint256"
        }
      ],
      "stateMutability": "view",
      "type": "function"
    },
    {
      "inputs": [
        {
          "internalType": "address",
          "name": "newOwner",
          "type": "address"
        }
      ],
      "name": "transferOwnership",
      "outputs": [],
      "stateMutability": "nonpayable",
      "type": "function"
    },
    {
      "inputs": [],
      "name": "unpause",
      "outputs": [],
      "stateMutability": "nonpayable",
      "type": "function"
    }
  ],
  "bytecode": "0x60806040523480156200001157600080fd5b506040516200482638038062004826833981810160405281019062000037919062000328565b6200004833620000bc60201b60201c565b6000600160146101000a81548160ff02191690831515021790555062000074336200018060201b60201c565b80600160006101000a81548173ffffffffffffffffffffffffffffffffffffffff021916908373ffffffffffffffffffffffffffffffffffffffff160217905550506200040b565b60008060009054906101000a900473ffffffffffffffffffffffffffffffffffffffff169050816000806101000a81548173ffffffffffffffffffffffffffffffffffffffff021916908373ffffffffffffffffffffffffffffffffffffffff1602179055508173ffffffffffffffffffffffffffffffffffffffff168173ffffffffffffffffffffffffffffffffffffffff167f8be0079c531659141344cd1fd0a4f28419497f9722a3daafe3b4186f6b6457e060405160405180910390a35050565b62000191816200026860201b60201c565b15620001d4576040517f08c379a0000000000000000000000000000000000000000000000000000000008152600401620001cb90620003bb565b60405180910390fd5b6001600260008373ffffffffffffffffffffffffffffffffffffffff1673ffffffffffffffffffffffffffffffffffffffff16815260200190815260200160002060006101000a81548160ff0219169083151502179055507f6719d08c1888103bea251a4ed56406bd0c3e69723c8a1686e017e7bbe159b6f8816040516200025d9190620003ee565b60405180910390a150565b6000600260008373ffffffffffffffffffffffffffffffffffffffff1673ffffffffffffffffffffffffffffffffffffffff16815260200190815260200160002060009054906101000a900460ff169050919050565b600080fd5b600073ffffffffffffffffffffffffffffffffffffffff82169050919050565b6000620002f082620002c3565b9050919050565b6200030281620002e3565b81146200030e57600080fd5b50565b6000815190506200032281620002f7565b92915050565b600060208284031215620003415762000340620002be565b5b6000620003518482850162000311565b91505092915050565b600082825260208201905092915050565b7f4163636f756e7420697320616c72656164792070617573657200000000000000600082015250565b6000620003a36019836200035a565b9150620003b0826200036b565b602082019050919050565b60006020820190508181036000830152620003d68162000394565b9050919050565b620003e881620002e3565b82525050565b6000602082019050620004056000830184620003dd565b92915050565b61440b806200041b6000396000f3fe6080604052600436106101e35760003560e01c806380f51c12116101025780639e041b9d11610095578063da754f4411610064578063da754f44146106bd578063ed99bf43146106e6578063f0cb57ce1461070f578063f2fde38b1461072b576101e3565b80639e041b9d146106105780639f825f071461064d578063a1a227fa14610676578063b2c88775146106a1576101e3565b806395b6a191116100d157806395b6a1911461056357806399d32fc41461058c5780639c1a65bd146105a35780639c649fdf146105e0576101e3565b806380f51c12146104bb57806382dc1ec4146104f85780638456cb59146105215780638da5cb5b14610538576101e3565b806343a8c1371161017a5780635c975abb116101495780635c975abb146104205780636b2c0f551461044b5780636ef8d66d146104745780637cd2bffc1461048b576101e3565b806343a8c1371461036157806346fbf68e1461038a578063547cad12146103c75780635ab7afc6146103f0576101e3565b806319ab453c116101b657806319ab453c146102bb57806327cbe705146102e45780632d5fa47c146103215780633f4ba83a1461034a576101e3565b8063065c38fd146101e85780630bcb4982146102115780631140c84e14610241578063151ff4eb1461027e575b600080fd5b3480156101f457600080fd5b5061020f600480360381019061020a9190612bfd565b610754565b005b61022b60048036038101906102269190612cc5565b61085e565b6040516102389190612dc4565b60405180910390f35b34801561024d57600080fd5b5061026860048036038101906102639190612bfd565b6108f9565b6040516102759190612dfa565b60405180910390f35b34801561028a57600080fd5b506102a560048036038101906102a09190612e55565b610919565b6040516102b29190612e91565b60405180910390f35b3480156102c757600080fd5b506102e260048036038101906102dd9190612bfd565b610931565b005b3480156102f057600080fd5b5061030b60048036038101906103069190612e55565b61097d565b6040516103189190612ebb565b60405180910390f35b34801561032d57600080fd5b5061034860048036038101906103439190612f82565b6109b0565b005b34801561035657600080fd5b5061035f610b87565b005b34801561036d57600080fd5b5061038860048036038101906103839190613017565b610bd9565b005b34801561039657600080fd5b506103b160048036038101906103ac9190612bfd565b610d2a565b6040516103be9190612dfa565b60405180910390f35b3480156103d357600080fd5b506103ee60048036038101906103e99190612bfd565b610d80565b005b61040a60048036038101906104059190613098565b610e92565b6040516104179190612dc4565b60405180910390f35b34801561042c57600080fd5b50610435610f2f565b6040516104429190612dfa565b60405180910390f35b34801561045757600080fd5b50610472600480360381019061046d9190612bfd565b610f46565b005b34801561048057600080fd5b50610489610fc7565b005b6104a560048036038101906104a09190613098565b610fd2565b6040516104b29190612dc4565b60405180910390f35b3480156104c757600080fd5b506104e260048036038101906104dd9190612bfd565b61106f565b6040516104ef9190612dfa565b60405180910390f35b34801561050457600080fd5b5061051f600480360381019061051a9190612bfd565b61108f565b005b34801561052d57600080fd5b50610536611110565b005b34801561054457600080fd5b5061054d611162565b60405161055a9190612ebb565b60405180910390f35b34801561056f57600080fd5b5061058a60048036038101906105859190613147565b61118b565b005b34801561059857600080fd5b506105a16112e3565b005b3480156105af57600080fd5b506105ca60048036038101906105c5919061319a565b6113de565b6040516105d79190612e91565b60405180910390f35b6105fa60048036038101906105f5919061332e565b6115c9565b6040516106079190612dc4565b60405180910390f35b34801561061c57600080fd5b50610637600480360381019061063291906133b1565b61199d565b6040516106449190612ebb565b60405180910390f35b34801561065957600080fd5b50610674600480360381019061066f91906133f1565b6119df565b005b34801561068257600080fd5b5061068b611abd565b6040516106989190612ebb565b60405180910390f35b6106bb60048036038101906106b69190613431565b611ae3565b005b3480156106c957600080fd5b506106e460048036038101906106df9190613498565b611f73565b005b3480156106f257600080fd5b5061070d60048036038101906107089190612bfd565b61208b565b005b6107296004803603810190610724919061352e565b61218c565b005b34801561073757600080fd5b50610752600480360381019061074d9190612bfd565b6122b0565b005b3373ffffffffffffffffffffffffffffffffffffffff16610773611162565b73ffffffffffffffffffffffffffffffffffffffff16146107c9576040517f08c379a00000000000000000000000000000000000000000000000000000000081526004016107c090613625565b60405180910390fd5b6001600660008373ffffffffffffffffffffffffffffffffffffffff1673ffffffffffffffffffffffffffffffffffffffff16815260200190815260200160002060006101000a81548160ff0219169083151502179055507f9800fb32bf5eb9a3b2e42c910912da10ed1881dc538475101797669146166bf8816001604051610853929190613645565b60405180910390a150565b6000600160009054906101000a900473ffffffffffffffffffffffffffffffffffffffff1673ffffffffffffffffffffffffffffffffffffffff163373ffffffffffffffffffffffffffffffffffffffff16146108f0576040517f08c379a00000000000000000000000000000000000000000000000000000000081526004016108e7906136ba565b60405180910390fd5b95945050505050565b60066020528060005260406000206000915054906101000a900460ff1681565b60036020528060005260406000206000915090505481565b6109396123a1565b80600160006101000a81548173ffffffffffffffffffffffffffffffffffffffff021916908373ffffffffffffffffffffffffffffffffffffffff16021790555050565b60046020528060005260406000206000915054906101000a900473ffffffffffffffffffffffffffffffffffffffff1681565b3373ffffffffffffffffffffffffffffffffffffffff166109cf611162565b73ffffffffffffffffffffffffffffffffffffffff1614610a25576040517f08c379a0000000000000000000000000000000000000000000000000000000008152600401610a1c90613625565b60405180910390fd5b818190508484905014610a6d576040517f08c379a0000000000000000000000000000000000000000000000000000000008152600401610a6490613726565b60405180910390fd5b60005b84849050811015610b7f57828282818110610a8e57610a8d613746565b5b9050602002016020810190610aa39190612bfd565b600560008873ffffffffffffffffffffffffffffffffffffffff1673ffffffffffffffffffffffffffffffffffffffff1681526020019081526020016000206000878785818110610af757610af6613746565b5b9050602002016020810190610b0c9190612e55565b67ffffffffffffffff1667ffffffffffffffff16815260200190815260200160002060006101000a81548173ffffffffffffffffffffffffffffffffffffffff021916908373ffffffffffffffffffffffffffffffffffffffff1602179055508080610b77906137a4565b915050610a70565b505050505050565b610b9033610d2a565b610bcf576040517f08c379a0000000000000000000000000000000000000000000000000000000008152600401610bc690613839565b60405180910390fd5b610bd761243b565b565b3373ffffffffffffffffffffffffffffffffffffffff16610bf8611162565b73ffffffffffffffffffffffffffffffffffffffff1614610c4e576040517f08c379a0000000000000000000000000000000000000000000000000000000008152600401610c4590613625565b60405180910390fd5b60005b84849050811015610d2357828282818110610c6f57610c6e613746565b5b9050602002016020810190610c849190612bfd565b60046000878785818110610c9b57610c9a613746565b5b9050602002016020810190610cb09190612e55565b67ffffffffffffffff1667ffffffffffffffff16815260200190815260200160002060006101000a81548173ffffffffffffffffffffffffffffffffffffffff021916908373ffffffffffffffffffffffffffffffffffffffff1602179055508080610d1b906137a4565b915050610c51565b5050505050565b6000600260008373ffffffffffffffffffffffffffffffffffffffff1673ffffffffffffffffffffffffffffffffffffffff16815260200190815260200160002060009054906101000a900460ff169050919050565b3373ffffffffffffffffffffffffffffffffffffffff16610d9f611162565b73ffffffffffffffffffffffffffffffffffffffff1614610df5576040517f08c379a0000000000000000000000000000000000000000000000000000000008152600401610dec90613625565b60405180910390fd5b80600160006101000a81548173ffffffffffffffffffffffffffffffffffffffff021916908373ffffffffffffffffffffffffffffffffffffffff1602179055507f3f8223bcd8b3b875473e9f9e14e1ad075451a2b5ffd31591655da9a01516bf5e600160009054906101000a900473ffffffffffffffffffffffffffffffffffffffff16604051610e879190612ebb565b60405180910390a150565b6000600160009054906101000a900473ffffffffffffffffffffffffffffffffffffffff1673ffffffffffffffffffffffffffffffffffffffff163373ffffffffffffffffffffffffffffffffffffffff1614610f24576040517f08c379a0000000000000000000000000000000000000000000000000000000008152600401610f1b906136ba565b60405180910390fd5b979650505050505050565b6000600160149054906101000a900460ff16905090565b3373ffffffffffffffffffffffffffffffffffffffff16610f65611162565b73ffffffffffffffffffffffffffffffffffffffff1614610fbb576040517f08c379a0000000000000000000000000000000000000000000000000000000008152600401610fb290613625565b60405180910390fd5b610fc48161249e565b50565b610fd03361249e565b565b6000600160009054906101000a900473ffffffffffffffffffffffffffffffffffffffff1673ffffffffffffffffffffffffffffffffffffffff163373ffffffffffffffffffffffffffffffffffffffff1614611064576040517f08c379a000000000000000000000000000000000000000000000000000000000815260040161105b906136ba565b60405180910390fd5b979650505050505050565b60026020528060005260406000206000915054906101000a900460ff1681565b3373ffffffffffffffffffffffffffffffffffffffff166110ae611162565b73ffffffffffffffffffffffffffffffffffffffff1614611104576040517f08c379a00000000000000000000000000000000000000000000000000000000081526004016110fb90613625565b60405180910390fd5b61110d81612578565b50565b61111933610d2a565b611158576040517f08c379a000000000000000000000000000000000000000000000000000000000815260040161114f90613839565b60405180910390fd5b611160612653565b565b60008060009054906101000a900473ffffffffffffffffffffffffffffffffffffffff16905090565b3373ffffffffffffffffffffffffffffffffffffffff166111aa611162565b73ffffffffffffffffffffffffffffffffffffffff1614611200576040517f08c379a00000000000000000000000000000000000000000000000000000000081526004016111f790613625565b60405180910390fd5b80600560008573ffffffffffffffffffffffffffffffffffffffff1673ffffffffffffffffffffffffffffffffffffffff16815260200190815260200160002060008467ffffffffffffffff1667ffffffffffffffff16815260200190815260200160002060006101000a81548173ffffffffffffffffffffffffffffffffffffffff021916908373ffffffffffffffffffffffffffffffffffffffff1602179055507fa5a9b84f1b7eb437335ea919a3ff6de6e242e4733d0100a773911061737948718383836040516112d693929190613868565b60405180910390a1505050565b3373ffffffffffffffffffffffffffffffffffffffff16611302611162565b73ffffffffffffffffffffffffffffffffffffffff1614611358576040517f08c379a000000000000000000000000000000000000000000000000000000000815260040161134f90613625565b60405180910390fd5b60004790503373ffffffffffffffffffffffffffffffffffffffff166108fc829081150290604051600060405180830381858888f193505050501580156113a3573d6000803e3d6000fd5b507f62b10e3ff3d45b5ff546e740b893897facb1680285f989a64ae932d62c5388e1816040516113d39190612e91565b60405180910390a150565b6000808373ffffffffffffffffffffffffffffffffffffffff1663c87b56dd846040518263ffffffff1660e01b815260040161141a9190612e91565b60006040518083038186803b15801561143257600080fd5b505afa158015611446573d6000803e3d6000fd5b505050506040513d6000823e3d601f19601f8201168201806040525081019061146f9190613973565b9050600060405180608001604052808673ffffffffffffffffffffffffffffffffffffffff1681526020018673ffffffffffffffffffffffffffffffffffffffff168152602001858152602001838152506040516020016114d09190613a92565b6040516020818303038152906040529050600360008767ffffffffffffffff1667ffffffffffffffff16815260200190815260200160002054600160009054906101000a900473ffffffffffffffffffffffffffffffffffffffff1673ffffffffffffffffffffffffffffffffffffffff16635335dca2836040518263ffffffff1660e01b81526004016115649190613b09565b60206040518083038186803b15801561157c57600080fd5b505afa158015611590573d6000803e3d6000fd5b505050506040513d601f19601f820116820180604052508101906115b49190613b40565b6115be9190613b6d565b925050509392505050565b6000600160009054906101000a900473ffffffffffffffffffffffffffffffffffffffff1673ffffffffffffffffffffffffffffffffffffffff163373ffffffffffffffffffffffffffffffffffffffff161461165b576040517f08c379a0000000000000000000000000000000000000000000000000000000008152600401611652906136ba565b60405180910390fd5b611663610f2f565b806116e15750600460008567ffffffffffffffff1667ffffffffffffffff16815260200190815260200160002060009054906101000a900473ffffffffffffffffffffffffffffffffffffffff1673ffffffffffffffffffffffffffffffffffffffff168573ffffffffffffffffffffffffffffffffffffffff1614155b156116ef5760029050611995565b6000838060200190518101906117059190613c76565b90506001151560066000836020015173ffffffffffffffffffffffffffffffffffffffff1673ffffffffffffffffffffffffffffffffffffffff16815260200190815260200160002060009054906101000a900460ff161515141561185557806020015173ffffffffffffffffffffffffffffffffffffffff166323b872dd30836000015184604001516040518463ffffffff1660e01b81526004016117ad93929190613cbf565b600060405180830381600087803b1580156117c757600080fd5b505af19250505080156117d8575060015b611850573d8060008114611808576040519150601f19603f3d011682016040523d82523d6000602084013e61180d565b606091505b507f2c4d9008b1f58a23591c25a813b398a54f438d50b85bedea3d6e7302ee08a8108160405161183d9190613b09565b60405180910390a1600292505050611995565b611946565b806020015173ffffffffffffffffffffffffffffffffffffffff166367d74de28260000151836040015184606001516040518463ffffffff1660e01b81526004016118a293929190613d2f565b600060405180830381600087803b1580156118bc57600080fd5b505af19250505080156118cd575060015b611945573d80600081146118fd576040519150601f19603f3d011682016040523d82523d6000602084013e611902565b606091505b507f2c4d9008b1f58a23591c25a813b398a54f438d50b85bedea3d6e7302ee08a810816040516119329190613b09565b60405180910390a1600292505050611995565b5b7f0aac355db06d21352d6b898d8e0ae1334d55f65b6c4c09e26951166a8eb4dba7816000015182602001518360400151886040516119879493929190613d6d565b60405180910390a160019150505b949350505050565b60056020528160005260406000206020528060005260406000206000915091509054906101000a900473ffffffffffffffffffffffffffffffffffffffff1681565b3373ffffffffffffffffffffffffffffffffffffffff166119fe611162565b73ffffffffffffffffffffffffffffffffffffffff1614611a54576040517f08c379a0000000000000000000000000000000000000000000000000000000008152600401611a4b90613625565b60405180910390fd5b80600360008467ffffffffffffffff1667ffffffffffffffff168152602001908152602001600020819055507f446a287c2114fa54d0083d97ce8f6f15b2ce29fa1c2df4b5a580d581ea7c4ad38282604051611ab1929190613db2565b60405180910390a15050565b600160009054906101000a900473ffffffffffffffffffffffffffffffffffffffff1681565b611aeb6126b5565b8373ffffffffffffffffffffffffffffffffffffffff16636352211e846040518263ffffffff1660e01b8152600401611b249190612e91565b60206040518083038186803b158015611b3c57600080fd5b505afa158015611b50573d6000803e3d6000fd5b505050506040513d601f19601f82011682018060405250810190611b749190613ddb565b73ffffffffffffffffffffffffffffffffffffffff163373ffffffffffffffffffffffffffffffffffffffff1614611be1576040517f08c379a0000000000000000000000000000000000000000000000000000000008152600401611bd890613e54565b60405180910390fd5b60008473ffffffffffffffffffffffffffffffffffffffff1663c87b56dd856040518263ffffffff1660e01b8152600401611c1c9190612e91565b60006040518083038186803b158015611c3457600080fd5b505afa158015611c48573d6000803e3d6000fd5b505050506040513d6000823e3d601f19601f82011682018060405250810190611c719190613973565b905060011515600660008773ffffffffffffffffffffffffffffffffffffffff1673ffffffffffffffffffffffffffffffffffffffff16815260200190815260200160002060009054906101000a900460ff1615151415611e36578473ffffffffffffffffffffffffffffffffffffffff166323b872dd3330876040518463ffffffff1660e01b8152600401611d0993929190613cbf565b600060405180830381600087803b158015611d2357600080fd5b505af1158015611d37573d6000803e3d6000fd5b505050503073ffffffffffffffffffffffffffffffffffffffff168573ffffffffffffffffffffffffffffffffffffffff16636352211e866040518263ffffffff1660e01b8152600401611d8b9190612e91565b60206040518083038186803b158015611da357600080fd5b505afa158015611db7573d6000803e3d6000fd5b505050506040513d601f19601f82011682018060405250810190611ddb9190613ddb565b73ffffffffffffffffffffffffffffffffffffffff1614611e31576040517f08c379a0000000000000000000000000000000000000000000000000000000008152600401611e2890613ec0565b60405180910390fd5b611ea2565b8473ffffffffffffffffffffffffffffffffffffffff166342966c68856040518263ffffffff1660e01b8152600401611e6f9190612e91565b600060405180830381600087803b158015611e8957600080fd5b505af1158015611e9d573d6000803e3d6000fd5b505050505b600080611eaf87866126ff565b91509150611f29828660405180608001604052808873ffffffffffffffffffffffffffffffffffffffff1681526020018573ffffffffffffffffffffffffffffffffffffffff1681526020018a815260200187815250604051602001611f159190613a92565b6040516020818303038152906040526128ba565b7f40143e5b72b2109d658cfa709dec6213f60364dbd08b7253cdaf5f4e0c49561c338888888886604051611f6296959493929190613ee0565b60405180910390a150505050505050565b3373ffffffffffffffffffffffffffffffffffffffff16611f92611162565b73ffffffffffffffffffffffffffffffffffffffff1614611fe8576040517f08c379a0000000000000000000000000000000000000000000000000000000008152600401611fdf90613625565b60405180910390fd5b80600460008467ffffffffffffffff1667ffffffffffffffff16815260200190815260200160002060006101000a81548173ffffffffffffffffffffffffffffffffffffffff021916908373ffffffffffffffffffffffffffffffffffffffff1602179055507f3e776334b24c927645043308f89ac1ca734002e5a921ff384a70dcbb88c92cd4828260405161207f929190613f41565b60405180910390a15050565b3373ffffffffffffffffffffffffffffffffffffffff166120aa611162565b73ffffffffffffffffffffffffffffffffffffffff1614612100576040517f08c379a00000000000000000000000000000000000000000000000000000000081526004016120f790613625565b60405180910390fd5b600660008273ffffffffffffffffffffffffffffffffffffffff1673ffffffffffffffffffffffffffffffffffffffff16815260200190815260200160002060006101000a81549060ff02191690557f9800fb32bf5eb9a3b2e42c910912da10ed1881dc538475101797669146166bf8816000604051612181929190613645565b60405180910390a150565b6121946126b5565b60003390506000806121a6838a6126ff565b91509150612264828a60405180608001604052808b73ffffffffffffffffffffffffffffffffffffffff1681526020018573ffffffffffffffffffffffffffffffffffffffff1681526020018a815260200189898080601f016020809104026020016040519081016040528093929190818152602001838380828437600081840152601f19601f820116905080830192505050505050508152506040516020016122509190613a92565b6040516020818303038152906040526128ba565b7f40143e5b72b2109d658cfa709dec6213f60364dbd08b7253cdaf5f4e0c49561c8884888c8b8660405161229d96959493929190613ee0565b60405180910390a1505050505050505050565b3373ffffffffffffffffffffffffffffffffffffffff166122cf611162565b73ffffffffffffffffffffffffffffffffffffffff1614612325576040517f08c379a000000000000000000000000000000000000000000000000000000000815260040161231c90613625565b60405180910390fd5b600073ffffffffffffffffffffffffffffffffffffffff168173ffffffffffffffffffffffffffffffffffffffff161415612395576040517f08c379a000000000000000000000000000000000000000000000000000000000815260040161238c90613fdc565b60405180910390fd5b61239e81612a76565b50565b600073ffffffffffffffffffffffffffffffffffffffff1660008054906101000a900473ffffffffffffffffffffffffffffffffffffffff1673ffffffffffffffffffffffffffffffffffffffff1614612430576040517f08c379a000000000000000000000000000000000000000000000000000000000815260040161242790614048565b60405180910390fd5b61243933612a76565b565b612443612b3a565b6000600160146101000a81548160ff0219169083151502179055507f5db9ee0a495bf2e6ff9c91a7834c1ba4fdd244a5e8aa4e537bd38aeae4b073aa612487612b83565b6040516124949190612ebb565b60405180910390a1565b6124a781610d2a565b6124e6576040517f08c379a00000000000000000000000000000000000000000000000000000000081526004016124dd906140b4565b60405180910390fd5b6000600260008373ffffffffffffffffffffffffffffffffffffffff1673ffffffffffffffffffffffffffffffffffffffff16815260200190815260200160002060006101000a81548160ff0219169083151502179055507fcd265ebaf09df2871cc7bd4133404a235ba12eff2041bb89d9c714a2621c7c7e8160405161256d9190612ebb565b60405180910390a150565b61258181610d2a565b156125c1576040517f08c379a00000000000000000000000000000000000000000000000000000000081526004016125b890614120565b60405180910390fd5b6001600260008373ffffffffffffffffffffffffffffffffffffffff1673ffffffffffffffffffffffffffffffffffffffff16815260200190815260200160002060006101000a81548160ff0219169083151502179055507f6719d08c1888103bea251a4ed56406bd0c3e69723c8a1686e017e7bbe159b6f8816040516126489190612ebb565b60405180910390a150565b61265b6126b5565b60018060146101000a81548160ff0219169083151502179055507f62e78cea01bee320cd4e420270b5ea74000d11b0c9f74754ebdbfc544b05a25861269e612b83565b6040516126ab9190612ebb565b60405180910390a1565b6126bd610f2f565b156126fd576040517f08c379a00000000000000000000000000000000000000000000000000000000081526004016126f49061418c565b60405180910390fd5b565b600080600460008467ffffffffffffffff1667ffffffffffffffff16815260200190815260200160002060009054906101000a900473ffffffffffffffffffffffffffffffffffffffff169150600073ffffffffffffffffffffffffffffffffffffffff168273ffffffffffffffffffffffffffffffffffffffff1614156127bc576040517f08c379a00000000000000000000000000000000000000000000000000000000081526004016127b3906141f8565b60405180910390fd5b600560008573ffffffffffffffffffffffffffffffffffffffff1673ffffffffffffffffffffffffffffffffffffffff16815260200190815260200160002060008467ffffffffffffffff1667ffffffffffffffff16815260200190815260200160002060009054906101000a900473ffffffffffffffffffffffffffffffffffffffff169050600073ffffffffffffffffffffffffffffffffffffffff168173ffffffffffffffffffffffffffffffffffffffff1614156128b3576040517f08c379a00000000000000000000000000000000000000000000000000000000081526004016128aa90614264565b60405180910390fd5b9250929050565b6000600160009054906101000a900473ffffffffffffffffffffffffffffffffffffffff1673ffffffffffffffffffffffffffffffffffffffff16635335dca2836040518263ffffffff1660e01b81526004016129179190613b09565b60206040518083038186803b15801561292f57600080fd5b505afa158015612943573d6000803e3d6000fd5b505050506040513d601f19601f820116820180604052508101906129679190613b40565b9050600360008467ffffffffffffffff1667ffffffffffffffff168152602001908152602001600020548161299c9190613b6d565b3410156129de576040517f08c379a00000000000000000000000000000000000000000000000000000000081526004016129d5906142d0565b60405180910390fd5b600160009054906101000a900473ffffffffffffffffffffffffffffffffffffffff1673ffffffffffffffffffffffffffffffffffffffff16639f3ce55a828686866040518563ffffffff1660e01b8152600401612a3e9392919061432b565b6000604051808303818588803b158015612a5757600080fd5b505af1158015612a6b573d6000803e3d6000fd5b505050505050505050565b60008060009054906101000a900473ffffffffffffffffffffffffffffffffffffffff169050816000806101000a81548173ffffffffffffffffffffffffffffffffffffffff021916908373ffffffffffffffffffffffffffffffffffffffff1602179055508173ffffffffffffffffffffffffffffffffffffffff168173ffffffffffffffffffffffffffffffffffffffff167f8be0079c531659141344cd1fd0a4f28419497f9722a3daafe3b4186f6b6457e060405160405180910390a35050565b612b42610f2f565b612b81576040517f08c379a0000000000000000000000000000000000000000000000000000000008152600401612b78906143b5565b60405180910390fd5b565b600033905090565b6000604051905090565b600080fd5b600080fd5b600073ffffffffffffffffffffffffffffffffffffffff82169050919050565b6000612bca82612b9f565b9050919050565b612bda81612bbf565b8114612be557600080fd5b50565b600081359050612bf781612bd1565b92915050565b600060208284031215612c1357612c12612b95565b5b6000612c2184828501612be8565b91505092915050565b6000819050919050565b612c3d81612c2a565b8114612c4857600080fd5b50565b600081359050612c5a81612c34565b92915050565b600080fd5b600080fd5b600080fd5b60008083601f840112612c8557612c84612c60565b5b8235905067ffffffffffffffff811115612ca257612ca1612c65565b5b602083019150836001820283011115612cbe57612cbd612c6a565b5b9250929050565b600080600080600060808688031215612ce157612ce0612b95565b5b6000612cef88828901612be8565b9550506020612d0088828901612c4b565b945050604086013567ffffffffffffffff811115612d2157612d20612b9a565b5b612d2d88828901612c6f565b93509350506060612d4088828901612be8565b9150509295509295909350565b7f4e487b7100000000000000000000000000000000000000000000000000000000600052602160045260246000fd5b60038110612d8d57612d8c612d4d565b5b50565b6000819050612d9e82612d7c565b919050565b6000612dae82612d90565b9050919050565b612dbe81612da3565b82525050565b6000602082019050612dd96000830184612db5565b92915050565b60008115159050919050565b612df481612ddf565b82525050565b6000602082019050612e0f6000830184612deb565b92915050565b600067ffffffffffffffff82169050919050565b612e3281612e15565b8114612e3d57600080fd5b50565b600081359050612e4f81612e29565b92915050565b600060208284031215612e6b57612e6a612b95565b5b6000612e7984828501612e40565b91505092915050565b612e8b81612c2a565b82525050565b6000602082019050612ea66000830184612e82565b92915050565b612eb581612bbf565b82525050565b6000602082019050612ed06000830184612eac565b92915050565b60008083601f840112612eec57612eeb612c60565b5b8235905067ffffffffffffffff811115612f0957612f08612c65565b5b602083019150836020820283011115612f2557612f24612c6a565b5b9250929050565b60008083601f840112612f4257612f41612c60565b5b8235905067ffffffffffffffff811115612f5f57612f5e612c65565b5b602083019150836020820283011115612f7b57612f7a612c6a565b5b9250929050565b600080600080600060608688031215612f9e57612f9d612b95565b5b6000612fac88828901612be8565b955050602086013567ffffffffffffffff811115612fcd57612fcc612b9a565b5b612fd988828901612ed6565b9450945050604086013567ffffffffffffffff811115612ffc57612ffb612b9a565b5b61300888828901612f2c565b92509250509295509295909350565b6000806000806040858703121561303157613030612b95565b5b600085013567ffffffffffffffff81111561304f5761304e612b9a565b5b61305b87828801612ed6565b9450945050602085013567ffffffffffffffff81111561307e5761307d612b9a565b5b61308a87828801612f2c565b925092505092959194509250565b600080600080600080600060c0888a0312156130b7576130b6612b95565b5b60006130c58a828b01612be8565b97505060206130d68a828b01612be8565b96505060406130e78a828b01612c4b565b95505060606130f88a828b01612e40565b945050608088013567ffffffffffffffff81111561311957613118612b9a565b5b6131258a828b01612c6f565b935093505060a06131388a828b01612be8565b91505092959891949750929550565b6000806000606084860312156131605761315f612b95565b5b600061316e86828701612be8565b935050602061317f86828701612e40565b925050604061319086828701612be8565b9150509250925092565b6000806000606084860312156131b3576131b2612b95565b5b60006131c186828701612e40565b93505060206131d286828701612be8565b92505060406131e386828701612c4b565b9150509250925092565b600080fd5b6000601f19601f8301169050919050565b7f4e487b7100000000000000000000000000000000000000000000000000000000600052604160045260246000fd5b61323b826131f2565b810181811067ffffffffffffffff8211171561325a57613259613203565b5b80604052505050565b600061326d612b8b565b90506132798282613232565b919050565b600067ffffffffffffffff82111561329957613298613203565b5b6132a2826131f2565b9050602081019050919050565b82818337600083830152505050565b60006132d16132cc8461327e565b613263565b9050828152602081018484840111156132ed576132ec6131ed565b5b6132f88482856132af565b509392505050565b600082601f83011261331557613314612c60565b5b81356133258482602086016132be565b91505092915050565b6000806000806080858703121561334857613347612b95565b5b600061335687828801612be8565b945050602061336787828801612e40565b935050604085013567ffffffffffffffff81111561338857613387612b9a565b5b61339487828801613300565b92505060606133a587828801612be8565b91505092959194509250565b600080604083850312156133c8576133c7612b95565b5b60006133d685828601612be8565b92505060206133e785828601612e40565b9150509250929050565b6000806040838503121561340857613407612b95565b5b600061341685828601612e40565b925050602061342785828601612c4b565b9150509250929050565b6000806000806080858703121561344b5761344a612b95565b5b600061345987828801612be8565b945050602061346a87828801612c4b565b935050604061347b87828801612e40565b925050606061348c87828801612be8565b91505092959194509250565b600080604083850312156134af576134ae612b95565b5b60006134bd85828601612e40565b92505060206134ce85828601612be8565b9150509250929050565b60008083601f8401126134ee576134ed612c60565b5b8235905067ffffffffffffffff81111561350b5761350a612c65565b5b60208301915083600182028301111561352757613526612c6a565b5b9250929050565b60008060008060008060a0878903121561354b5761354a612b95565b5b600061355989828a01612e40565b965050602061356a89828a01612be8565b955050604061357b89828a01612be8565b945050606061358c89828a01612c4b565b935050608087013567ffffffffffffffff8111156135ad576135ac612b9a565b5b6135b989828a016134d8565b92509250509295509295509295565b600082825260208201905092915050565b7f4f776e61626c653a2063616c6c6572206973206e6f7420746865206f776e6572600082015250565b600061360f6020836135c8565b915061361a826135d9565b602082019050919050565b6000602082019050818103600083015261363e81613602565b9050919050565b600060408201905061365a6000830185612eac565b6136676020830184612deb565b9392505050565b7f63616c6c6572206973206e6f74206d6573736167652062757300000000000000600082015250565b60006136a46019836135c8565b91506136af8261366e565b602082019050919050565b600060208201905081810360008301526136d381613697565b9050919050565b7f6c656e677468206d69736d617463680000000000000000000000000000000000600082015250565b6000613710600f836135c8565b915061371b826136da565b602082019050919050565b6000602082019050818103600083015261373f81613703565b9050919050565b7f4e487b7100000000000000000000000000000000000000000000000000000000600052603260045260246000fd5b7f4e487b7100000000000000000000000000000000000000000000000000000000600052601160045260246000fd5b60006137af82612c2a565b91507fffffffffffffffffffffffffffffffffffffffffffffffffffffffffffffffff8214156137e2576137e1613775565b5b600182019050919050565b7f43616c6c6572206973206e6f7420706175736572000000000000000000000000600082015250565b60006138236014836135c8565b915061382e826137ed565b602082019050919050565b6000602082019050818103600083015261385281613816565b9050919050565b61386281612e15565b82525050565b600060608201905061387d6000830186612eac565b61388a6020830185613859565b6138976040830184612eac565b949350505050565b600067ffffffffffffffff8211156138ba576138b9613203565b5b6138c3826131f2565b9050602081019050919050565b60005b838110156138ee5780820151818401526020810190506138d3565b838111156138fd576000848401525b50505050565b60006139166139118461389f565b613263565b905082815260208101848484011115613932576139316131ed565b5b61393d8482856138d0565b509392505050565b600082601f83011261395a57613959612c60565b5b815161396a848260208601613903565b91505092915050565b60006020828403121561398957613988612b95565b5b600082015167ffffffffffffffff8111156139a7576139a6612b9a565b5b6139b384828501613945565b91505092915050565b6139c581612bbf565b82525050565b6139d481612c2a565b82525050565b600081519050919050565b600082825260208201905092915050565b6000613a01826139da565b613a0b81856139e5565b9350613a1b8185602086016138d0565b613a24816131f2565b840191505092915050565b6000608083016000830151613a4760008601826139bc565b506020830151613a5a60208601826139bc565b506040830151613a6d60408601826139cb565b5060608301518482036060860152613a8582826139f6565b9150508091505092915050565b60006020820190508181036000830152613aac8184613a2f565b905092915050565b600081519050919050565b600082825260208201905092915050565b6000613adb82613ab4565b613ae58185613abf565b9350613af58185602086016138d0565b613afe816131f2565b840191505092915050565b60006020820190508181036000830152613b238184613ad0565b905092915050565b600081519050613b3a81612c34565b92915050565b600060208284031215613b5657613b55612b95565b5b6000613b6484828501613b2b565b91505092915050565b6000613b7882612c2a565b9150613b8383612c2a565b9250827fffffffffffffffffffffffffffffffffffffffffffffffffffffffffffffffff03821115613bb857613bb7613775565b5b828201905092915050565b600080fd5b600080fd5b600081519050613bdc81612bd1565b92915050565b600060808284031215613bf857613bf7613bc3565b5b613c026080613263565b90506000613c1284828501613bcd565b6000830152506020613c2684828501613bcd565b6020830152506040613c3a84828501613b2b565b604083015250606082015167ffffffffffffffff811115613c5e57613c5d613bc8565b5b613c6a84828501613945565b60608301525092915050565b600060208284031215613c8c57613c8b612b95565b5b600082015167ffffffffffffffff811115613caa57613ca9612b9a565b5b613cb684828501613be2565b91505092915050565b6000606082019050613cd46000830186612eac565b613ce16020830185612eac565b613cee6040830184612e82565b949350505050565b6000613d01826139da565b613d0b81856135c8565b9350613d1b8185602086016138d0565b613d24816131f2565b840191505092915050565b6000606082019050613d446000830186612eac565b613d516020830185612e82565b8181036040830152613d638184613cf6565b9050949350505050565b6000608082019050613d826000830187612eac565b613d8f6020830186612eac565b613d9c6040830185612e82565b613da96060830184613859565b95945050505050565b6000604082019050613dc76000830185613859565b613dd46020830184612e82565b9392505050565b600060208284031215613df157613df0612b95565b5b6000613dff84828501613bcd565b91505092915050565b7f6e6f7420746f6b656e206f776e65720000000000000000000000000000000000600082015250565b6000613e3e600f836135c8565b9150613e4982613e08565b602082019050919050565b60006020820190508181036000830152613e6d81613e31565b9050919050565b7f7472616e73666572204e4654206661696c656400000000000000000000000000600082015250565b6000613eaa6013836135c8565b9150613eb582613e74565b602082019050919050565b60006020820190508181036000830152613ed981613e9d565b9050919050565b600060c082019050613ef56000830189612eac565b613f026020830188612eac565b613f0f6040830187612e82565b613f1c6060830186613859565b613f296080830185612eac565b613f3660a0830184612eac565b979650505050505050565b6000604082019050613f566000830185613859565b613f636020830184612eac565b9392505050565b7f4f776e61626c653a206e6577206f776e657220697320746865207a65726f206160008201527f6464726573730000000000000000000000000000000000000000000000000000602082015250565b6000613fc66026836135c8565b9150613fd182613f6a565b604082019050919050565b60006020820190508181036000830152613ff581613fb9565b9050919050565b7f6f776e657220616c726561647920736574000000000000000000000000000000600082015250565b60006140326011836135c8565b915061403d82613ffc565b602082019050919050565b6000602082019050818103600083015261406181614025565b9050919050565b7f4163636f756e74206973206e6f74207061757365720000000000000000000000600082015250565b600061409e6015836135c8565b91506140a982614068565b602082019050919050565b600060208201905081810360008301526140cd81614091565b9050919050565b7f4163636f756e7420697320616c72656164792070617573657200000000000000600082015250565b600061410a6019836135c8565b9150614115826140d4565b602082019050919050565b60006020820190508181036000830152614139816140fd565b9050919050565b7f5061757361626c653a2070617573656400000000000000000000000000000000600082015250565b60006141766010836135c8565b915061418182614140565b602082019050919050565b600060208201905081810360008301526141a581614169565b9050919050565b7f64657374204e465420427269646765206e6f7420666f756e6400000000000000600082015250565b60006141e26019836135c8565b91506141ed826141ac565b602082019050919050565b60006020820190508181036000830152614211816141d5565b9050919050565b7f64657374204e4654206e6f7420666f756e640000000000000000000000000000600082015250565b600061424e6012836135c8565b915061425982614218565b602082019050919050565b6000602082019050818103600083015261427d81614241565b9050919050565b7f696e73756666696369656e742066656500000000000000000000000000000000600082015250565b60006142ba6010836135c8565b91506142c582614284565b602082019050919050565b600060208201905081810360008301526142e9816142ad565b9050919050565b6000819050919050565b600061431561431061430b84612e15565b6142f0565b612c2a565b9050919050565b614325816142fa565b82525050565b60006060820190506143406000830186612eac565b61434d602083018561431c565b818103604083015261435f8184613ad0565b9050949350505050565b7f5061757361626c653a206e6f7420706175736564000000000000000000000000600082015250565b600061439f6014836135c8565b91506143aa82614369565b602082019050919050565b600060208201905081810360008301526143ce81614392565b905091905056fea26469706673582212201705a8c56339dd9da612435a8140a59c4ec4572768bca688aafce12f3e326e0d64736f6c63430008090033",
  "linkReferences": {},
  "deployedLinkReferences": {}
}