{
  "_format": "hh-sol-artifact-1",
  "contractName": "MinimalMessenger",
  "sourceName": "contracts/MinimalMessenger.sol",
  "abi": [
    {
      "inputs": [],
      "stateMutability": "nonpayable",
      "type": "constructor"
    },
    {
      "anonymous": false,
      "inputs": [
        {
          "indexed": true,
          "internalType": "bytes32",
          "name": "msgHash",
          "type": "bytes32"
        }
      ],
      "name": "FailedRelayedMessage",
      "type": "event"
    },
    {
      "anonymous": false,
      "inputs": [
        {
          "indexed": false,
          "internalType": "uint8",
          "name": "version",
          "type": "uint8"
        }
      ],
      "name": "Initialized",
      "type": "event"
    },
    {
      "anonymous": false,
      "inputs": [
        {
          "indexed": true,
          "internalType": "bytes32",
          "name": "msgHash",
          "type": "bytes32"
        }
      ],
      "name": "RelayedMessage",
      "type": "event"
    },
    {
      "anonymous": false,
      "inputs": [
        {
          "indexed": true,
          "internalType": "address",
          "name": "target",
          "type": "address"
        },
        {
          "indexed": false,
          "internalType": "address",
          "name": "sender",
          "type": "address"
        },
        {
          "indexed": false,
          "internalType": "bytes",
          "name": "message",
          "type": "bytes"
        },
        {
          "indexed": false,
          "internalType": "uint256",
          "name": "messageNonce",
          "type": "uint256"
        },
        {
          "indexed": false,
          "internalType": "uint256",
          "name": "gasLimit",
          "type": "uint256"
        }
      ],
      "name": "SentMessage",
      "type": "event"
    },
    {
      "anonymous": false,
      "inputs": [
        {
          "indexed": true,
          "internalType": "address",
          "name": "sender",
          "type": "address"
        },
        {
          "indexed": false,
          "internalType": "uint256",
          "name": "value",
          "type": "uint256"
        }
      ],
      "name": "SentMessageExtension1",
      "type": "event"
    },
    {
      "inputs": [],
      "name": "MESSAGE_VERSION",
      "outputs": [
        {
          "internalType": "uint16",
          "name": "",
          "type": "uint16"
        }
      ],
      "stateMutability": "view",
      "type": "function"
    },
    {
      "inputs": [],
      "name": "MIN_GAS_CALLDATA_OVERHEAD",
      "outputs": [
        {
          "internalType": "uint64",
          "name": "",
          "type": "uint64"
        }
      ],
      "stateMutability": "view",
      "type": "function"
    },
    {
      "inputs": [],
      "name": "MIN_GAS_CONSTANT_OVERHEAD",
      "outputs": [
        {
          "internalType": "uint64",
          "name": "",
          "type": "uint64"
        }
      ],
      "stateMutability": "view",
      "type": "function"
    },
    {
      "inputs": [],
      "name": "MIN_GAS_DYNAMIC_OVERHEAD_DENOMINATOR",
      "outputs": [
        {
          "internalType": "uint64",
          "name": "",
          "type": "uint64"
        }
      ],
      "stateMutability": "view",
      "type": "function"
    },
    {
      "inputs": [],
      "name": "MIN_GAS_DYNAMIC_OVERHEAD_NUMERATOR",
      "outputs": [
        {
          "internalType": "uint64",
          "name": "",
          "type": "uint64"
        }
      ],
      "stateMutability": "view",
      "type": "function"
    },
    {
      "inputs": [],
      "name": "OTHER_MESSENGER",
      "outputs": [
        {
          "internalType": "address",
          "name": "",
          "type": "address"
        }
      ],
      "stateMutability": "view",
      "type": "function"
    },
    {
      "inputs": [
        {
          "internalType": "bytes",
          "name": "_message",
          "type": "bytes"
        },
        {
          "internalType": "uint32",
          "name": "_minGasLimit",
          "type": "uint32"
        }
      ],
      "name": "baseGas",
      "outputs": [
        {
          "internalType": "uint64",
          "name": "",
          "type": "uint64"
        }
      ],
      "stateMutability": "pure",
      "type": "function"
    },
    {
      "inputs": [
        {
          "internalType": "bytes32",
          "name": "",
          "type": "bytes32"
        }
      ],
      "name": "failedMessages",
      "outputs": [
        {
          "internalType": "bool",
          "name": "",
          "type": "bool"
        }
      ],
      "stateMutability": "view",
      "type": "function"
    },
    {
      "inputs": [],
      "name": "messageNonce",
      "outputs": [
        {
          "internalType": "uint256",
          "name": "",
          "type": "uint256"
        }
      ],
      "stateMutability": "view",
      "type": "function"
    },
    {
      "inputs": [
        {
          "internalType": "uint256",
          "name": "_nonce",
          "type": "uint256"
        },
        {
          "internalType": "address",
          "name": "_sender",
          "type": "address"
        },
        {
          "internalType": "address",
          "name": "_target",
          "type": "address"
        },
        {
          "internalType": "uint256",
          "name": "_value",
          "type": "uint256"
        },
        {
          "internalType": "uint256",
          "name": "_minGasLimit",
          "type": "uint256"
        },
        {
          "internalType": "bytes",
          "name": "_message",
          "type": "bytes"
        }
      ],
      "name": "relayMessage",
      "outputs": [],
      "stateMutability": "payable",
      "type": "function"
    },
    {
      "inputs": [
        {
          "internalType": "address",
          "name": "_target",
          "type": "address"
        },
        {
          "internalType": "bytes",
          "name": "_message",
          "type": "bytes"
        },
        {
          "internalType": "uint32",
          "name": "_minGasLimit",
          "type": "uint32"
        }
      ],
      "name": "sendMessage",
      "outputs": [],
      "stateMutability": "payable",
      "type": "function"
    },
    {
      "inputs": [
        {
          "internalType": "address",
          "name": "_newXDomainMessageSender",
          "type": "address"
        }
      ],
      "name": "setXDomainMessageSender",
      "outputs": [],
      "stateMutability": "nonpayable",
      "type": "function"
    },
    {
      "inputs": [
        {
          "internalType": "bytes32",
          "name": "",
          "type": "bytes32"
        }
      ],
      "name": "successfulMessages",
      "outputs": [
        {
          "internalType": "bool",
          "name": "",
          "type": "bool"
        }
      ],
      "stateMutability": "view",
      "type": "function"
    },
    {
      "inputs": [],
      "name": "xDomainMessageSender",
      "outputs": [
        {
          "internalType": "address",
          "name": "",
          "type": "address"
        }
      ],
      "stateMutability": "view",
      "type": "function"
    }
  ],
  "bytecode": "0x60a060405234801561001057600080fd5b5060008073ffffffffffffffffffffffffffffffffffffffff1660808173ffffffffffffffffffffffffffffffffffffffff168152505050608051611d5e61006a6000396000818161036801526106200152611d5e6000f3fe6080604052600436106100dd5760003560e01c80639fce812c1161007f578063b28ade2511610059578063b28ade25146102a5578063bf24eb63146102e2578063d764ad0b1461030b578063ecc7042814610327576100dd565b80639fce812c14610200578063a4e7f8bd1461022b578063b1b1b20914610268576100dd565b80633dbb202b116100bb5780633dbb202b146101635780633f827a5a1461017f5780636e296e45146101aa5780637dea7cc3146101d5576100dd565b8063028f85f7146100e25780630c5684981461010d5780632828d7e814610138575b600080fd5b3480156100ee57600080fd5b506100f7610352565b6040516101049190610fb1565b60405180910390f35b34801561011957600080fd5b50610122610357565b60405161012f9190610fb1565b60405180910390f35b34801561014457600080fd5b5061014d61035d565b60405161015a9190610fb1565b60405180910390f35b61017d600480360381019061017891906110d5565b610363565b005b34801561018b57600080fd5b50610194610556565b6040516101a19190611166565b60405180910390f35b3480156101b657600080fd5b506101bf61055b565b6040516101cc9190611190565b60405180910390f35b3480156101e157600080fd5b506101ea610617565b6040516101f79190610fb1565b60405180910390f35b34801561020c57600080fd5b5061021561061e565b6040516102229190611190565b60405180910390f35b34801561023757600080fd5b50610252600480360381019061024d91906111e1565b610642565b60405161025f9190611229565b60405180910390f35b34801561027457600080fd5b5061028f600480360381019061028a91906111e1565b610662565b60405161029c9190611229565b60405180910390f35b3480156102b157600080fd5b506102cc60048036038101906102c79190611244565b610682565b6040516102d99190610fb1565b60405180910390f35b3480156102ee57600080fd5b50610309600480360381019061030491906112a4565b6106d6565b005b61032560048036038101906103209190611307565b61071a565b005b34801561033357600080fd5b5061033c610d03565b60405161034991906113c5565b60405180910390f35b601081565b6103e881565b6103f881565b6104217f0000000000000000000000000000000000000000000000000000000000000000610392858585610682565b3463d764ad0b60e01b6103a3610d03565b338a34898c8c6040516024016103bf979695949392919061144d565b604051602081830303815290604052907bffffffffffffffffffffffffffffffffffffffffffffffffffffffff19166020820180517bffffffffffffffffffffffffffffffffffffffffffffffffffffffff8381831617835250505050610d41565b8373ffffffffffffffffffffffffffffffffffffffff167fcb0f7ffd78f9aee47a248fae8db181db6eee833039123e026dcbff529522e52a338585610464610d03565b866040516104769594939291906114f2565b60405180910390a23373ffffffffffffffffffffffffffffffffffffffff167f8ebb2ec2465bdb2a06a66fc37a0963af8a2a6a1479d81d56fdb8cbb98096d546346040516104c491906113c5565b60405180910390a260cd600081819054906101000a90047dffffffffffffffffffffffffffffffffffffffffffffffffffffffffffff1660010191906101000a8154817dffffffffffffffffffffffffffffffffffffffffffffffffffffffffffff02191690837dffffffffffffffffffffffffffffffffffffffffffffffffffffffffffff16021790555050505050565b600181565b600061dead73ffffffffffffffffffffffffffffffffffffffff1660cc60009054906101000a900473ffffffffffffffffffffffffffffffffffffffff1673ffffffffffffffffffffffffffffffffffffffff16036105ef576040517f08c379a00000000000000000000000000000000000000000000000000000000081526004016105e6906115c3565b60405180910390fd5b60cc60009054906101000a900473ffffffffffffffffffffffffffffffffffffffff16905090565b62030d4081565b7f000000000000000000000000000000000000000000000000000000000000000081565b60ce6020528060005260406000206000915054906101000a900460ff1681565b60cb6020528060005260406000206000915054906101000a900460ff1681565b600062030d406010858590506106989190611612565b6103e86103f88563ffffffff166106af9190611612565b6106b99190611683565b6106c391906116b4565b6106cd91906116b4565b90509392505050565b8060cc60006101000a81548173ffffffffffffffffffffffffffffffffffffffff021916908373ffffffffffffffffffffffffffffffffffffffff16021790555050565b600061072588610d47565b91505060028161ffff161061076f576040517f08c379a00000000000000000000000000000000000000000000000000000000081526004016107669061178a565b60405180910390fd5b60008161ffff16036108385760006107cd878986868080601f016020809104026020016040519081016040528093929190818152602001838380828437600081840152601f19601f820116905080830192505050505050508c610d83565b90506000151560cb600083815260200190815260200160002060009054906101000a900460ff16151514610836576040517f08c379a000000000000000000000000000000000000000000000000000000000815260040161082d9061181c565b60405180910390fd5b505b600061088c898989898989898080601f016020809104026020016040519081016040528093929190818152602001838380828437600081840152601f19601f82011690508083019250505050505050610da2565b905060cf600082815260200190815260200160002060009054906101000a900460ff16156108ef576040517f08c379a00000000000000000000000000000000000000000000000000000000081526004016108e690611888565b60405180910390fd5b600160cf600083815260200190815260200160002060006101000a81548160ff021916908315150217905550610923610dc5565b1561096c57853414610938576109376118a8565b5b60ce600082815260200190815260200160002060009054906101000a900460ff1615610967576109666118a8565b5b610a10565b600034146109af576040517f08c379a00000000000000000000000000000000000000000000000000000000081526004016109a69061196f565b60405180910390fd5b60ce600082815260200190815260200160002060009054906101000a900460ff16610a0f576040517f08c379a0000000000000000000000000000000000000000000000000000000008152600401610a0690611a01565b60405180910390fd5b5b60001515610a1d88610dce565b151514610a5f576040517f08c379a0000000000000000000000000000000000000000000000000000000008152600401610a5690611ab9565b60405180910390fd5b6000151560cb600083815260200190815260200160002060009054906101000a900460ff16151514610ac6576040517f08c379a0000000000000000000000000000000000000000000000000000000008152600401610abd90611b4b565b60405180910390fd5b8760cc60006101000a81548173ffffffffffffffffffffffffffffffffffffffff021916908373ffffffffffffffffffffffffffffffffffffffff1602179055506000610b5988878988888080601f016020809104026020016040519081016040528093929190818152602001838380828437600081840152601f19601f82011690508083019250505050505050610dd5565b905061dead60cc60006101000a81548173ffffffffffffffffffffffffffffffffffffffff021916908373ffffffffffffffffffffffffffffffffffffffff1602179055508015610c0257600160cb600084815260200190815260200160002060006101000a81548160ff021916908315150217905550817f4641df4a962071e12719d8c8c8e5ac7fc4d97b927346a3d7a335b1f7517e133c60405160405180910390a2610ccb565b600160ce600084815260200190815260200160002060006101000a81548160ff021916908315150217905550817f99d0e048484baa1b1540b1367cb128acd7ab2946d1ed91ec10e3c85e4bf51b8f60405160405180910390a2600173ffffffffffffffffffffffffffffffffffffffff163273ffffffffffffffffffffffffffffffffffffffff1603610cca576040517f08c379a0000000000000000000000000000000000000000000000000000000008152600401610cc190611bdd565b60405180910390fd5b5b600060cf600084815260200190815260200160002060006101000a81548160ff02191690831515021790555050505050505050505050565b6000610d3c60cd60009054906101000a90047dffffffffffffffffffffffffffffffffffffffffffffffffffffffffffff166001610e33565b905090565b50505050565b6000806000807dffffffffffffffffffffffffffffffffffffffffffffffffffffffffffff851691508460f01c90508181935093505050915091565b6000610d9185858585610e48565b805190602001209050949350505050565b6000610db2878787878787610ee8565b8051906020012090509695505050505050565b60006001905090565b6000919050565b600080603f60c88601604002045a1015610e18576308c379a06000526020805278185361666543616c6c3a204e6f7420656e6f756768206761736058526064601cfd5b600080845160208601878a5af1905080915050949350505050565b600080838360f01b1790508091505092915050565b606084848484604051602401610e619493929190611c74565b6040516020818303038152906040527fcbd4ece9000000000000000000000000000000000000000000000000000000007bffffffffffffffffffffffffffffffffffffffffffffffffffffffff19166020820180517bffffffffffffffffffffffffffffffffffffffffffffffffffffffff83818316178352505050509050949350505050565b6060868686868686604051602401610f0596959493929190611cc0565b6040516020818303038152906040527fd764ad0b000000000000000000000000000000000000000000000000000000007bffffffffffffffffffffffffffffffffffffffffffffffffffffffff19166020820180517bffffffffffffffffffffffffffffffffffffffffffffffffffffffff838183161783525050505090509695505050505050565b600067ffffffffffffffff82169050919050565b610fab81610f8e565b82525050565b6000602082019050610fc66000830184610fa2565b92915050565b600080fd5b600080fd5b600073ffffffffffffffffffffffffffffffffffffffff82169050919050565b600061100182610fd6565b9050919050565b61101181610ff6565b811461101c57600080fd5b50565b60008135905061102e81611008565b92915050565b600080fd5b600080fd5b600080fd5b60008083601f84011261105957611058611034565b5b8235905067ffffffffffffffff81111561107657611075611039565b5b6020830191508360018202830111156110925761109161103e565b5b9250929050565b600063ffffffff82169050919050565b6110b281611099565b81146110bd57600080fd5b50565b6000813590506110cf816110a9565b92915050565b600080600080606085870312156110ef576110ee610fcc565b5b60006110fd8782880161101f565b945050602085013567ffffffffffffffff81111561111e5761111d610fd1565b5b61112a87828801611043565b9350935050604061113d878288016110c0565b91505092959194509250565b600061ffff82169050919050565b61116081611149565b82525050565b600060208201905061117b6000830184611157565b92915050565b61118a81610ff6565b82525050565b60006020820190506111a56000830184611181565b92915050565b6000819050919050565b6111be816111ab565b81146111c957600080fd5b50565b6000813590506111db816111b5565b92915050565b6000602082840312156111f7576111f6610fcc565b5b6000611205848285016111cc565b91505092915050565b60008115159050919050565b6112238161120e565b82525050565b600060208201905061123e600083018461121a565b92915050565b60008060006040848603121561125d5761125c610fcc565b5b600084013567ffffffffffffffff81111561127b5761127a610fd1565b5b61128786828701611043565b9350935050602061129a868287016110c0565b9150509250925092565b6000602082840312156112ba576112b9610fcc565b5b60006112c88482850161101f565b91505092915050565b6000819050919050565b6112e4816112d1565b81146112ef57600080fd5b50565b600081359050611301816112db565b92915050565b600080600080600080600060c0888a03121561132657611325610fcc565b5b60006113348a828b016112f2565b97505060206113458a828b0161101f565b96505060406113568a828b0161101f565b95505060606113678a828b016112f2565b94505060806113788a828b016112f2565b93505060a088013567ffffffffffffffff81111561139957611398610fd1565b5b6113a58a828b01611043565b925092505092959891949750929550565b6113bf816112d1565b82525050565b60006020820190506113da60008301846113b6565b92915050565b6113e981611099565b82525050565b600082825260208201905092915050565b82818337600083830152505050565b6000601f19601f8301169050919050565b600061142c83856113ef565b9350611439838584611400565b6114428361140f565b840190509392505050565b600060c082019050611462600083018a6113b6565b61146f6020830189611181565b61147c6040830188611181565b61148960608301876113b6565b61149660808301866113e0565b81810360a08301526114a9818486611420565b905098975050505050505050565b6000819050919050565b60006114dc6114d76114d284611099565b6114b7565b6112d1565b9050919050565b6114ec816114c1565b82525050565b60006080820190506115076000830188611181565b818103602083015261151a818688611420565b905061152960408301856113b6565b61153660608301846114e3565b9695505050505050565b600082825260208201905092915050565b7f43726f7373446f6d61696e4d657373656e6765723a2078446f6d61696e4d657360008201527f7361676553656e646572206973206e6f74207365740000000000000000000000602082015250565b60006115ad603583611540565b91506115b882611551565b604082019050919050565b600060208201905081810360008301526115dc816115a0565b9050919050565b7f4e487b7100000000000000000000000000000000000000000000000000000000600052601160045260246000fd5b600061161d82610f8e565b915061162883610f8e565b92508167ffffffffffffffff0483118215151615611649576116486115e3565b5b828202905092915050565b7f4e487b7100000000000000000000000000000000000000000000000000000000600052601260045260246000fd5b600061168e82610f8e565b915061169983610f8e565b9250826116a9576116a8611654565b5b828204905092915050565b60006116bf82610f8e565b91506116ca83610f8e565b92508267ffffffffffffffff038211156116e7576116e66115e3565b5b828201905092915050565b7f43726f7373446f6d61696e4d657373656e6765723a206f6e6c7920766572736960008201527f6f6e2030206f722031206d657373616765732061726520737570706f7274656460208201527f20617420746869732074696d6500000000000000000000000000000000000000604082015250565b6000611774604d83611540565b915061177f826116f2565b606082019050919050565b600060208201905081810360008301526117a381611767565b9050919050565b7f43726f7373446f6d61696e4d657373656e6765723a206c65676163792077697460008201527f6864726177616c20616c72656164792072656c61796564000000000000000000602082015250565b6000611806603783611540565b9150611811826117aa565b604082019050919050565b60006020820190508181036000830152611835816117f9565b9050919050565b7f5265656e7472616e637947756172643a207265656e7472616e742063616c6c00600082015250565b6000611872601f83611540565b915061187d8261183c565b602082019050919050565b600060208201905081810360008301526118a181611865565b9050919050565b7f4e487b7100000000000000000000000000000000000000000000000000000000600052600160045260246000fd5b7f43726f7373446f6d61696e4d657373656e6765723a2076616c7565206d75737460008201527f206265207a65726f20756e6c657373206d6573736167652069732066726f6d2060208201527f612073797374656d206164647265737300000000000000000000000000000000604082015250565b6000611959605083611540565b9150611964826118d7565b606082019050919050565b600060208201905081810360008301526119888161194c565b9050919050565b7f43726f7373446f6d61696e4d657373656e6765723a206d65737361676520636160008201527f6e6e6f74206265207265706c6179656400000000000000000000000000000000602082015250565b60006119eb603083611540565b91506119f68261198f565b604082019050919050565b60006020820190508181036000830152611a1a816119de565b9050919050565b7f43726f7373446f6d61696e4d657373656e6765723a2063616e6e6f742073656e60008201527f64206d65737361676520746f20626c6f636b65642073797374656d206164647260208201527f6573730000000000000000000000000000000000000000000000000000000000604082015250565b6000611aa3604383611540565b9150611aae82611a21565b606082019050919050565b60006020820190508181036000830152611ad281611a96565b9050919050565b7f43726f7373446f6d61696e4d657373656e6765723a206d65737361676520686160008201527f7320616c7265616479206265656e2072656c6179656400000000000000000000602082015250565b6000611b35603683611540565b9150611b4082611ad9565b604082019050919050565b60006020820190508181036000830152611b6481611b28565b9050919050565b7f43726f7373446f6d61696e4d657373656e6765723a206661696c656420746f2060008201527f72656c6179206d65737361676500000000000000000000000000000000000000602082015250565b6000611bc7602d83611540565b9150611bd282611b6b565b604082019050919050565b60006020820190508181036000830152611bf681611bba565b9050919050565b600081519050919050565b60005b83811015611c26578082015181840152602081019050611c0b565b83811115611c35576000848401525b50505050565b6000611c4682611bfd565b611c5081856113ef565b9350611c60818560208601611c08565b611c698161140f565b840191505092915050565b6000608082019050611c896000830187611181565b611c966020830186611181565b8181036040830152611ca88185611c3b565b9050611cb760608301846113b6565b95945050505050565b600060c082019050611cd560008301896113b6565b611ce26020830188611181565b611cef6040830187611181565b611cfc60608301866113b6565b611d0960808301856113b6565b81810360a0830152611d1b8184611c3b565b905097965050505050505056fea2646970667358221220675eba3cfe0f74f80927bdd9608dae14ce04fccf212428d4f134dc3ca4612c3464736f6c634300080f0033",
  "linkReferences": {},
  "deployedLinkReferences": {}
}